{
	"data": {
		"bytecode": {
			"linkReferences": {},
			"object": "608060405234801561000f575f80fd5b506103608061001d5f395ff3fe608060405234801561000f575f80fd5b5060043610610034575f3560e01c80631e46d22814610038578063f88e9fbf14610069575b5f80fd5b610052600480360381019061004d9190610198565b610099565b6040516100609291906101e5565b60405180910390f35b610083600480360381019061007e9190610198565b61010a565b604051610090919061020c565b60405180910390f35b5f805f83036100dd576040517f08c379a00000000000000000000000000000000000000000000000000000000081526004016100d49061027f565b60405180910390fd5b5f83856100ea91906102ca565b90505f84866100f991906102fa565b905081819350935050509250929050565b5f80820361014d576040517f08c379a00000000000000000000000000000000000000000000000000000000081526004016101449061027f565b60405180910390fd5b818361015991906102ca565b905092915050565b5f80fd5b5f819050919050565b61017781610165565b8114610181575f80fd5b50565b5f813590506101928161016e565b92915050565b5f80604083850312156101ae576101ad610161565b5b5f6101bb85828601610184565b92505060206101cc85828601610184565b9150509250929050565b6101df81610165565b82525050565b5f6040820190506101f85f8301856101d6565b61020560208301846101d6565b9392505050565b5f60208201905061021f5f8301846101d6565b92915050565b5f82825260208201905092915050565b7f43616e6e6f7420646976696465206279207a65726f00000000000000000000005f82015250565b5f610269601583610225565b915061027482610235565b602082019050919050565b5f6020820190508181035f8301526102968161025d565b9050919050565b7f4e487b71000000000000000000000000000000000000000000000000000000005f52601260045260245ffd5b5f6102d482610165565b91506102df83610165565b9250826102ef576102ee61029d565b5b828204905092915050565b5f61030482610165565b915061030f83610165565b92508261031f5761031e61029d565b5b82820690509291505056fea2646970667358221220a69c91eae2426e6df880da64e8670cfae4047a17dcc016c5202d6013aed4a12f64736f6c63430008170033",
			"opcodes": "PUSH1 0x80 PUSH1 0x40 MSTORE CALLVALUE DUP1 ISZERO PUSH2 0xF JUMPI PUSH0 DUP1 REVERT JUMPDEST POP PUSH2 0x360 DUP1 PUSH2 0x1D PUSH0 CODECOPY PUSH0 RETURN INVALID PUSH1 0x80 PUSH1 0x40 MSTORE CALLVALUE DUP1 ISZERO PUSH2 0xF JUMPI PUSH0 DUP1 REVERT JUMPDEST POP PUSH1 0x4 CALLDATASIZE LT PUSH2 0x34 JUMPI PUSH0 CALLDATALOAD PUSH1 0xE0 SHR DUP1 PUSH4 0x1E46D228 EQ PUSH2 0x38 JUMPI DUP1 PUSH4 0xF88E9FBF EQ PUSH2 0x69 JUMPI JUMPDEST PUSH0 DUP1 REVERT JUMPDEST PUSH2 0x52 PUSH1 0x4 DUP1 CALLDATASIZE SUB DUP2 ADD SWAP1 PUSH2 0x4D SWAP2 SWAP1 PUSH2 0x198 JUMP JUMPDEST PUSH2 0x99 JUMP JUMPDEST PUSH1 0x40 MLOAD PUSH2 0x60 SWAP3 SWAP2 SWAP1 PUSH2 0x1E5 JUMP JUMPDEST PUSH1 0x40 MLOAD DUP1 SWAP2 SUB SWAP1 RETURN JUMPDEST PUSH2 0x83 PUSH1 0x4 DUP1 CALLDATASIZE SUB DUP2 ADD SWAP1 PUSH2 0x7E SWAP2 SWAP1 PUSH2 0x198 JUMP JUMPDEST PUSH2 0x10A JUMP JUMPDEST PUSH1 0x40 MLOAD PUSH2 0x90 SWAP2 SWAP1 PUSH2 0x20C JUMP JUMPDEST PUSH1 0x40 MLOAD DUP1 SWAP2 SUB SWAP1 RETURN JUMPDEST PUSH0 DUP1 PUSH0 DUP4 SUB PUSH2 0xDD JUMPI PUSH1 0x40 MLOAD PUSH32 0x8C379A000000000000000000000000000000000000000000000000000000000 DUP2 MSTORE PUSH1 0x4 ADD PUSH2 0xD4 SWAP1 PUSH2 0x27F JUMP JUMPDEST PUSH1 0x40 MLOAD DUP1 SWAP2 SUB SWAP1 REVERT JUMPDEST PUSH0 DUP4 DUP6 PUSH2 0xEA SWAP2 SWAP1 PUSH2 0x2CA JUMP JUMPDEST SWAP1 POP PUSH0 DUP5 DUP7 PUSH2 0xF9 SWAP2 SWAP1 PUSH2 0x2FA JUMP JUMPDEST SWAP1 POP DUP2 DUP2 SWAP4 POP SWAP4 POP POP POP SWAP3 POP SWAP3 SWAP1 POP JUMP JUMPDEST PUSH0 DUP1 DUP3 SUB PUSH2 0x14D JUMPI PUSH1 0x40 MLOAD PUSH32 0x8C379A000000000000000000000000000000000000000000000000000000000 DUP2 MSTORE PUSH1 0x4 ADD PUSH2 0x144 SWAP1 PUSH2 0x27F JUMP JUMPDEST PUSH1 0x40 MLOAD DUP1 SWAP2 SUB SWAP1 REVERT JUMPDEST DUP2 DUP4 PUSH2 0x159 SWAP2 SWAP1 PUSH2 0x2CA JUMP JUMPDEST SWAP1 POP SWAP3 SWAP2 POP POP JUMP JUMPDEST PUSH0 DUP1 REVERT JUMPDEST PUSH0 DUP2 SWAP1 POP SWAP2 SWAP1 POP JUMP JUMPDEST PUSH2 0x177 DUP2 PUSH2 0x165 JUMP JUMPDEST DUP2 EQ PUSH2 0x181 JUMPI PUSH0 DUP1 REVERT JUMPDEST POP JUMP JUMPDEST PUSH0 DUP2 CALLDATALOAD SWAP1 POP PUSH2 0x192 DUP2 PUSH2 0x16E JUMP JUMPDEST SWAP3 SWAP2 POP POP JUMP JUMPDEST PUSH0 DUP1 PUSH1 0x40 DUP4 DUP6 SUB SLT ISZERO PUSH2 0x1AE JUMPI PUSH2 0x1AD PUSH2 0x161 JUMP JUMPDEST JUMPDEST PUSH0 PUSH2 0x1BB DUP6 DUP3 DUP7 ADD PUSH2 0x184 JUMP JUMPDEST SWAP3 POP POP PUSH1 0x20 PUSH2 0x1CC DUP6 DUP3 DUP7 ADD PUSH2 0x184 JUMP JUMPDEST SWAP2 POP POP SWAP3 POP SWAP3 SWAP1 POP JUMP JUMPDEST PUSH2 0x1DF DUP2 PUSH2 0x165 JUMP JUMPDEST DUP3 MSTORE POP POP JUMP JUMPDEST PUSH0 PUSH1 0x40 DUP3 ADD SWAP1 POP PUSH2 0x1F8 PUSH0 DUP4 ADD DUP6 PUSH2 0x1D6 JUMP JUMPDEST PUSH2 0x205 PUSH1 0x20 DUP4 ADD DUP5 PUSH2 0x1D6 JUMP JUMPDEST SWAP4 SWAP3 POP POP POP JUMP JUMPDEST PUSH0 PUSH1 0x20 DUP3 ADD SWAP1 POP PUSH2 0x21F PUSH0 DUP4 ADD DUP5 PUSH2 0x1D6 JUMP JUMPDEST SWAP3 SWAP2 POP POP JUMP JUMPDEST PUSH0 DUP3 DUP3 MSTORE PUSH1 0x20 DUP3 ADD SWAP1 POP SWAP3 SWAP2 POP POP JUMP JUMPDEST PUSH32 0x43616E6E6F7420646976696465206279207A65726F0000000000000000000000 PUSH0 DUP3 ADD MSTORE POP JUMP JUMPDEST PUSH0 PUSH2 0x269 PUSH1 0x15 DUP4 PUSH2 0x225 JUMP JUMPDEST SWAP2 POP PUSH2 0x274 DUP3 PUSH2 0x235 JUMP JUMPDEST PUSH1 0x20 DUP3 ADD SWAP1 POP SWAP2 SWAP1 POP JUMP JUMPDEST PUSH0 PUSH1 0x20 DUP3 ADD SWAP1 POP DUP2 DUP2 SUB PUSH0 DUP4 ADD MSTORE PUSH2 0x296 DUP2 PUSH2 0x25D JUMP JUMPDEST SWAP1 POP SWAP2 SWAP1 POP JUMP JUMPDEST PUSH32 0x4E487B7100000000000000000000000000000000000000000000000000000000 PUSH0 MSTORE PUSH1 0x12 PUSH1 0x4 MSTORE PUSH1 0x24 PUSH0 REVERT JUMPDEST PUSH0 PUSH2 0x2D4 DUP3 PUSH2 0x165 JUMP JUMPDEST SWAP2 POP PUSH2 0x2DF DUP4 PUSH2 0x165 JUMP JUMPDEST SWAP3 POP DUP3 PUSH2 0x2EF JUMPI PUSH2 0x2EE PUSH2 0x29D JUMP JUMPDEST JUMPDEST DUP3 DUP3 DIV SWAP1 POP SWAP3 SWAP2 POP POP JUMP JUMPDEST PUSH0 PUSH2 0x304 DUP3 PUSH2 0x165 JUMP JUMPDEST SWAP2 POP PUSH2 0x30F DUP4 PUSH2 0x165 JUMP JUMPDEST SWAP3 POP DUP3 PUSH2 0x31F JUMPI PUSH2 0x31E PUSH2 0x29D JUMP JUMPDEST JUMPDEST DUP3 DUP3 MOD SWAP1 POP SWAP3 SWAP2 POP POP JUMP INVALID LOG2 PUSH5 0x6970667358 0x22 SLT KECCAK256 0xA6 SWAP13 SWAP2 0xEA 0xE2 TIMESTAMP PUSH15 0x6DF880DA64E8670CFAE4047A17DCC0 AND 0xC5 KECCAK256 0x2D PUSH1 0x13 0xAE 0xD4 LOG1 0x2F PUSH5 0x736F6C6343 STOP ADDMOD OR STOP CALLER "
		},
		"gasEstimates": {
			"creation": {
				"codeDepositCost": "172800",
				"executionCost": "212",
				"totalCost": "173012"
			},
			"external": {
				"divide(uint256,uint256)": "infinite",
				"floatingPointLikeDivision(uint256,uint256)": "infinite"
			}
		},
		"methodIdentifiers": {
			"divide(uint256,uint256)": "f88e9fbf",
			"floatingPointLikeDivision(uint256,uint256)": "1e46d228"
		}
	},
	"abi": [
		{
			"inputs": [
				{
					"internalType": "uint256",
					"name": "numerator",
					"type": "uint256"
				},
				{
					"internalType": "uint256",
					"name": "denominator",
					"type": "uint256"
				}
			],
			"name": "divide",
			"outputs": [
				{
					"internalType": "uint256",
					"name": "",
					"type": "uint256"
				}
			],
			"stateMutability": "pure",
			"type": "function"
		},
		{
			"inputs": [
				{
					"internalType": "uint256",
					"name": "numerator",
					"type": "uint256"
				},
				{
					"internalType": "uint256",
					"name": "denominator",
					"type": "uint256"
				}
			],
			"name": "floatingPointLikeDivision",
			"outputs": [
				{
					"internalType": "uint256",
					"name": "",
					"type": "uint256"
				},
				{
					"internalType": "uint256",
					"name": "",
					"type": "uint256"
				}
			],
			"stateMutability": "pure",
			"type": "function"
		}
	]
}