{
	"data": {
		"bytecode": {
			"linkReferences": {},
			"object": "608060405260025f5534801562000014575f80fd5b5060405162000c4f38038062000c4f83398181016040528101906200003a9190620001d8565b80600390816200004b91906200045e565b505062000542565b5f604051905090565b5f80fd5b5f80fd5b5f80fd5b5f80fd5b5f601f19601f8301169050919050565b7f4e487b71000000000000000000000000000000000000000000000000000000005f52604160045260245ffd5b620000b4826200006c565b810181811067ffffffffffffffff82111715620000d657620000d56200007c565b5b80604052505050565b5f620000ea62000053565b9050620000f88282620000a9565b919050565b5f67ffffffffffffffff8211156200011a57620001196200007c565b5b62000125826200006c565b9050602081019050919050565b5f5b838110156200015157808201518184015260208101905062000134565b5f8484015250505050565b5f620001726200016c84620000fd565b620000df565b90508281526020810184848401111562000191576200019062000068565b5b6200019e84828562000132565b509392505050565b5f82601f830112620001bd57620001bc62000064565b5b8151620001cf8482602086016200015c565b91505092915050565b5f60208284031215620001f057620001ef6200005c565b5b5f82015167ffffffffffffffff81111562000210576200020f62000060565b5b6200021e84828501620001a6565b91505092915050565b5f81519050919050565b7f4e487b71000000000000000000000000000000000000000000000000000000005f52602260045260245ffd5b5f60028204905060018216806200027657607f821691505b6020821081036200028c576200028b62000231565b5b50919050565b5f819050815f5260205f209050919050565b5f6020601f8301049050919050565b5f82821b905092915050565b5f60088302620002f07fffffffffffffffffffffffffffffffffffffffffffffffffffffffffffffffff82620002b3565b620002fc8683620002b3565b95508019841693508086168417925050509392505050565b5f819050919050565b5f819050919050565b5f62000346620003406200033a8462000314565b6200031d565b62000314565b9050919050565b5f819050919050565b620003618362000326565b6200037962000370826200034d565b848454620002bf565b825550505050565b5f90565b6200038f62000381565b6200039c81848462000356565b505050565b5b81811015620003c357620003b75f8262000385565b600181019050620003a2565b5050565b601f8211156200041257620003dc8162000292565b620003e784620002a4565b81016020851015620003f7578190505b6200040f6200040685620002a4565b830182620003a1565b50505b505050565b5f82821c905092915050565b5f620004345f198460080262000417565b1980831691505092915050565b5f6200044e838362000423565b9150826002028217905092915050565b620004698262000227565b67ffffffffffffffff8111156200048557620004846200007c565b5b6200049182546200025e565b6200049e828285620003c7565b5f60209050601f831160018114620004d4575f8415620004bf578287015190505b620004cb858262000441565b8655506200053a565b601f198416620004e48662000292565b5f5b828110156200050d57848901518255600182019150602085019450602081019050620004e6565b868310156200052d578489015162000529601f89168262000423565b8355505b6001600288020188555050505b505050505050565b6106ff80620005505f395ff3fe608060405234801561000f575f80fd5b506004361061007b575f3560e01c806382539a0d1161005957806382539a0d146100fd578063f247f02d1461012d578063f6291e431461014b578063f96339301461017b5761007b565b806313faede61461007f57806315d579921461009d578063610539b4146100cd575b5f80fd5b610087610199565b60405161009491906103b7565b60405180910390f35b6100b760048036038101906100b291906103fe565b61019f565b6040516100c491906103b7565b60405180910390f35b6100e760048036038101906100e291906103fe565b6101e8565b6040516100f491906103b7565b60405180910390f35b610117600480360381019061011291906103fe565b610231565b60405161012491906103b7565b60405180910390f35b61013561027a565b60405161014291906103b7565b60405180910390f35b610165600480360381019061016091906103fe565b610280565b60405161017291906103b7565b60405180910390f35b6101836102c9565b60405161019091906104b3565b60405180910390f35b60025481565b5f600480836101ae919061052d565b6101b8919061055d565b6002819055505f5460025f8282546101d0919061059e565b92505081905550816001819055506002549050919050565b5f600480836101f7919061059e565b61020191906105d1565b6002819055505f5460025f828254610219919061059e565b92505081905550816001819055506002549050919050565b5f60048083610240919061055d565b61024a919061052d565b6002819055505f5460025f828254610262919061059e565b92505081905550816001819055506002549050919050565b60015481565b5f6004808361028f91906105d1565b610299919061059e565b6002819055505f5460025f8282546102b1919061059e565b92505081905550816001819055506002549050919050565b606060025460015411610311576040517f08c379a00000000000000000000000000000000000000000000000000000000081526004016103089061064e565b60405180910390fd5b6003805461031e90610699565b80601f016020809104026020016040519081016040528092919081815260200182805461034a90610699565b80156103955780601f1061036c57610100808354040283529160200191610395565b820191905f5260205f20905b81548152906001019060200180831161037857829003601f168201915b5050505050905090565b5f819050919050565b6103b18161039f565b82525050565b5f6020820190506103ca5f8301846103a8565b92915050565b5f80fd5b6103dd8161039f565b81146103e7575f80fd5b50565b5f813590506103f8816103d4565b92915050565b5f60208284031215610413576104126103d0565b5b5f610420848285016103ea565b91505092915050565b5f81519050919050565b5f82825260208201905092915050565b5f5b83811015610460578082015181840152602081019050610445565b5f8484015250505050565b5f601f19601f8301169050919050565b5f61048582610429565b61048f8185610433565b935061049f818560208601610443565b6104a88161046b565b840191505092915050565b5f6020820190508181035f8301526104cb818461047b565b905092915050565b7f4e487b71000000000000000000000000000000000000000000000000000000005f52601260045260245ffd5b7f4e487b71000000000000000000000000000000000000000000000000000000005f52601160045260245ffd5b5f6105378261039f565b91506105428361039f565b925082610552576105516104d3565b5b828204905092915050565b5f6105678261039f565b91506105728361039f565b92508282026105808161039f565b9150828204841483151761059757610596610500565b5b5092915050565b5f6105a88261039f565b91506105b38361039f565b92508282019050808211156105cb576105ca610500565b5b92915050565b5f6105db8261039f565b91506105e68361039f565b92508282039050818111156105fe576105fd610500565b5b92915050565b7f4e6f2068617320636f6e7365677569646f2070726f66697400000000000000005f82015250565b5f610638601883610433565b915061064382610604565b602082019050919050565b5f6020820190508181035f8301526106658161062c565b9050919050565b7f4e487b71000000000000000000000000000000000000000000000000000000005f52602260045260245ffd5b5f60028204905060018216806106b057607f821691505b6020821081036106c3576106c261066c565b5b5091905056fea2646970667358221220aa16f2e6c21cb5dfaa7705a44f2a0fa6c962b679a50c58fdbc7061f0b6e2014564736f6c63430008170033",
			"opcodes": "PUSH1 0x80 PUSH1 0x40 MSTORE PUSH1 0x2 PUSH0 SSTORE CALLVALUE DUP1 ISZERO PUSH3 0x14 JUMPI PUSH0 DUP1 REVERT JUMPDEST POP PUSH1 0x40 MLOAD PUSH3 0xC4F CODESIZE SUB DUP1 PUSH3 0xC4F DUP4 CODECOPY DUP2 DUP2 ADD PUSH1 0x40 MSTORE DUP2 ADD SWAP1 PUSH3 0x3A SWAP2 SWAP1 PUSH3 0x1D8 JUMP JUMPDEST DUP1 PUSH1 0x3 SWAP1 DUP2 PUSH3 0x4B SWAP2 SWAP1 PUSH3 0x45E JUMP JUMPDEST POP POP PUSH3 0x542 JUMP JUMPDEST PUSH0 PUSH1 0x40 MLOAD SWAP1 POP SWAP1 JUMP JUMPDEST PUSH0 DUP1 REVERT JUMPDEST PUSH0 DUP1 REVERT JUMPDEST PUSH0 DUP1 REVERT JUMPDEST PUSH0 DUP1 REVERT JUMPDEST PUSH0 PUSH1 0x1F NOT PUSH1 0x1F DUP4 ADD AND SWAP1 POP SWAP2 SWAP1 POP JUMP JUMPDEST PUSH32 0x4E487B7100000000000000000000000000000000000000000000000000000000 PUSH0 MSTORE PUSH1 0x41 PUSH1 0x4 MSTORE PUSH1 0x24 PUSH0 REVERT JUMPDEST PUSH3 0xB4 DUP3 PUSH3 0x6C JUMP JUMPDEST DUP2 ADD DUP2 DUP2 LT PUSH8 0xFFFFFFFFFFFFFFFF DUP3 GT OR ISZERO PUSH3 0xD6 JUMPI PUSH3 0xD5 PUSH3 0x7C JUMP JUMPDEST JUMPDEST DUP1 PUSH1 0x40 MSTORE POP POP POP JUMP JUMPDEST PUSH0 PUSH3 0xEA PUSH3 0x53 JUMP JUMPDEST SWAP1 POP PUSH3 0xF8 DUP3 DUP3 PUSH3 0xA9 JUMP JUMPDEST SWAP2 SWAP1 POP JUMP JUMPDEST PUSH0 PUSH8 0xFFFFFFFFFFFFFFFF DUP3 GT ISZERO PUSH3 0x11A JUMPI PUSH3 0x119 PUSH3 0x7C JUMP JUMPDEST JUMPDEST PUSH3 0x125 DUP3 PUSH3 0x6C JUMP JUMPDEST SWAP1 POP PUSH1 0x20 DUP2 ADD SWAP1 POP SWAP2 SWAP1 POP JUMP JUMPDEST PUSH0 JUMPDEST DUP4 DUP2 LT ISZERO PUSH3 0x151 JUMPI DUP1 DUP3 ADD MLOAD DUP2 DUP5 ADD MSTORE PUSH1 0x20 DUP2 ADD SWAP1 POP PUSH3 0x134 JUMP JUMPDEST PUSH0 DUP5 DUP5 ADD MSTORE POP POP POP POP JUMP JUMPDEST PUSH0 PUSH3 0x172 PUSH3 0x16C DUP5 PUSH3 0xFD JUMP JUMPDEST PUSH3 0xDF JUMP JUMPDEST SWAP1 POP DUP3 DUP2 MSTORE PUSH1 0x20 DUP2 ADD DUP5 DUP5 DUP5 ADD GT ISZERO PUSH3 0x191 JUMPI PUSH3 0x190 PUSH3 0x68 JUMP JUMPDEST JUMPDEST PUSH3 0x19E DUP5 DUP3 DUP6 PUSH3 0x132 JUMP JUMPDEST POP SWAP4 SWAP3 POP POP POP JUMP JUMPDEST PUSH0 DUP3 PUSH1 0x1F DUP4 ADD SLT PUSH3 0x1BD JUMPI PUSH3 0x1BC PUSH3 0x64 JUMP JUMPDEST JUMPDEST DUP2 MLOAD PUSH3 0x1CF DUP5 DUP3 PUSH1 0x20 DUP7 ADD PUSH3 0x15C JUMP JUMPDEST SWAP2 POP POP SWAP3 SWAP2 POP POP JUMP JUMPDEST PUSH0 PUSH1 0x20 DUP3 DUP5 SUB SLT ISZERO PUSH3 0x1F0 JUMPI PUSH3 0x1EF PUSH3 0x5C JUMP JUMPDEST JUMPDEST PUSH0 DUP3 ADD MLOAD PUSH8 0xFFFFFFFFFFFFFFFF DUP2 GT ISZERO PUSH3 0x210 JUMPI PUSH3 0x20F PUSH3 0x60 JUMP JUMPDEST JUMPDEST PUSH3 0x21E DUP5 DUP3 DUP6 ADD PUSH3 0x1A6 JUMP JUMPDEST SWAP2 POP POP SWAP3 SWAP2 POP POP JUMP JUMPDEST PUSH0 DUP2 MLOAD SWAP1 POP SWAP2 SWAP1 POP JUMP JUMPDEST PUSH32 0x4E487B7100000000000000000000000000000000000000000000000000000000 PUSH0 MSTORE PUSH1 0x22 PUSH1 0x4 MSTORE PUSH1 0x24 PUSH0 REVERT JUMPDEST PUSH0 PUSH1 0x2 DUP3 DIV SWAP1 POP PUSH1 0x1 DUP3 AND DUP1 PUSH3 0x276 JUMPI PUSH1 0x7F DUP3 AND SWAP2 POP JUMPDEST PUSH1 0x20 DUP3 LT DUP2 SUB PUSH3 0x28C JUMPI PUSH3 0x28B PUSH3 0x231 JUMP JUMPDEST JUMPDEST POP SWAP2 SWAP1 POP JUMP JUMPDEST PUSH0 DUP2 SWAP1 POP DUP2 PUSH0 MSTORE PUSH1 0x20 PUSH0 KECCAK256 SWAP1 POP SWAP2 SWAP1 POP JUMP JUMPDEST PUSH0 PUSH1 0x20 PUSH1 0x1F DUP4 ADD DIV SWAP1 POP SWAP2 SWAP1 POP JUMP JUMPDEST PUSH0 DUP3 DUP3 SHL SWAP1 POP SWAP3 SWAP2 POP POP JUMP JUMPDEST PUSH0 PUSH1 0x8 DUP4 MUL PUSH3 0x2F0 PUSH32 0xFFFFFFFFFFFFFFFFFFFFFFFFFFFFFFFFFFFFFFFFFFFFFFFFFFFFFFFFFFFFFFFF DUP3 PUSH3 0x2B3 JUMP JUMPDEST PUSH3 0x2FC DUP7 DUP4 PUSH3 0x2B3 JUMP JUMPDEST SWAP6 POP DUP1 NOT DUP5 AND SWAP4 POP DUP1 DUP7 AND DUP5 OR SWAP3 POP POP POP SWAP4 SWAP3 POP POP POP JUMP JUMPDEST PUSH0 DUP2 SWAP1 POP SWAP2 SWAP1 POP JUMP JUMPDEST PUSH0 DUP2 SWAP1 POP SWAP2 SWAP1 POP JUMP JUMPDEST PUSH0 PUSH3 0x346 PUSH3 0x340 PUSH3 0x33A DUP5 PUSH3 0x314 JUMP JUMPDEST PUSH3 0x31D JUMP JUMPDEST PUSH3 0x314 JUMP JUMPDEST SWAP1 POP SWAP2 SWAP1 POP JUMP JUMPDEST PUSH0 DUP2 SWAP1 POP SWAP2 SWAP1 POP JUMP JUMPDEST PUSH3 0x361 DUP4 PUSH3 0x326 JUMP JUMPDEST PUSH3 0x379 PUSH3 0x370 DUP3 PUSH3 0x34D JUMP JUMPDEST DUP5 DUP5 SLOAD PUSH3 0x2BF JUMP JUMPDEST DUP3 SSTORE POP POP POP POP JUMP JUMPDEST PUSH0 SWAP1 JUMP JUMPDEST PUSH3 0x38F PUSH3 0x381 JUMP JUMPDEST PUSH3 0x39C DUP2 DUP5 DUP5 PUSH3 0x356 JUMP JUMPDEST POP POP POP JUMP JUMPDEST JUMPDEST DUP2 DUP2 LT ISZERO PUSH3 0x3C3 JUMPI PUSH3 0x3B7 PUSH0 DUP3 PUSH3 0x385 JUMP JUMPDEST PUSH1 0x1 DUP2 ADD SWAP1 POP PUSH3 0x3A2 JUMP JUMPDEST POP POP JUMP JUMPDEST PUSH1 0x1F DUP3 GT ISZERO PUSH3 0x412 JUMPI PUSH3 0x3DC DUP2 PUSH3 0x292 JUMP JUMPDEST PUSH3 0x3E7 DUP5 PUSH3 0x2A4 JUMP JUMPDEST DUP2 ADD PUSH1 0x20 DUP6 LT ISZERO PUSH3 0x3F7 JUMPI DUP2 SWAP1 POP JUMPDEST PUSH3 0x40F PUSH3 0x406 DUP6 PUSH3 0x2A4 JUMP JUMPDEST DUP4 ADD DUP3 PUSH3 0x3A1 JUMP JUMPDEST POP POP JUMPDEST POP POP POP JUMP JUMPDEST PUSH0 DUP3 DUP3 SHR SWAP1 POP SWAP3 SWAP2 POP POP JUMP JUMPDEST PUSH0 PUSH3 0x434 PUSH0 NOT DUP5 PUSH1 0x8 MUL PUSH3 0x417 JUMP JUMPDEST NOT DUP1 DUP4 AND SWAP2 POP POP SWAP3 SWAP2 POP POP JUMP JUMPDEST PUSH0 PUSH3 0x44E DUP4 DUP4 PUSH3 0x423 JUMP JUMPDEST SWAP2 POP DUP3 PUSH1 0x2 MUL DUP3 OR SWAP1 POP SWAP3 SWAP2 POP POP JUMP JUMPDEST PUSH3 0x469 DUP3 PUSH3 0x227 JUMP JUMPDEST PUSH8 0xFFFFFFFFFFFFFFFF DUP2 GT ISZERO PUSH3 0x485 JUMPI PUSH3 0x484 PUSH3 0x7C JUMP JUMPDEST JUMPDEST PUSH3 0x491 DUP3 SLOAD PUSH3 0x25E JUMP JUMPDEST PUSH3 0x49E DUP3 DUP3 DUP6 PUSH3 0x3C7 JUMP JUMPDEST PUSH0 PUSH1 0x20 SWAP1 POP PUSH1 0x1F DUP4 GT PUSH1 0x1 DUP2 EQ PUSH3 0x4D4 JUMPI PUSH0 DUP5 ISZERO PUSH3 0x4BF JUMPI DUP3 DUP8 ADD MLOAD SWAP1 POP JUMPDEST PUSH3 0x4CB DUP6 DUP3 PUSH3 0x441 JUMP JUMPDEST DUP7 SSTORE POP PUSH3 0x53A JUMP JUMPDEST PUSH1 0x1F NOT DUP5 AND PUSH3 0x4E4 DUP7 PUSH3 0x292 JUMP JUMPDEST PUSH0 JUMPDEST DUP3 DUP2 LT ISZERO PUSH3 0x50D JUMPI DUP5 DUP10 ADD MLOAD DUP3 SSTORE PUSH1 0x1 DUP3 ADD SWAP2 POP PUSH1 0x20 DUP6 ADD SWAP5 POP PUSH1 0x20 DUP2 ADD SWAP1 POP PUSH3 0x4E6 JUMP JUMPDEST DUP7 DUP4 LT ISZERO PUSH3 0x52D JUMPI DUP5 DUP10 ADD MLOAD PUSH3 0x529 PUSH1 0x1F DUP10 AND DUP3 PUSH3 0x423 JUMP JUMPDEST DUP4 SSTORE POP JUMPDEST PUSH1 0x1 PUSH1 0x2 DUP9 MUL ADD DUP9 SSTORE POP POP POP JUMPDEST POP POP POP POP POP POP JUMP JUMPDEST PUSH2 0x6FF DUP1 PUSH3 0x550 PUSH0 CODECOPY PUSH0 RETURN INVALID PUSH1 0x80 PUSH1 0x40 MSTORE CALLVALUE DUP1 ISZERO PUSH2 0xF JUMPI PUSH0 DUP1 REVERT JUMPDEST POP PUSH1 0x4 CALLDATASIZE LT PUSH2 0x7B JUMPI PUSH0 CALLDATALOAD PUSH1 0xE0 SHR DUP1 PUSH4 0x82539A0D GT PUSH2 0x59 JUMPI DUP1 PUSH4 0x82539A0D EQ PUSH2 0xFD JUMPI DUP1 PUSH4 0xF247F02D EQ PUSH2 0x12D JUMPI DUP1 PUSH4 0xF6291E43 EQ PUSH2 0x14B JUMPI DUP1 PUSH4 0xF9633930 EQ PUSH2 0x17B JUMPI PUSH2 0x7B JUMP JUMPDEST DUP1 PUSH4 0x13FAEDE6 EQ PUSH2 0x7F JUMPI DUP1 PUSH4 0x15D57992 EQ PUSH2 0x9D JUMPI DUP1 PUSH4 0x610539B4 EQ PUSH2 0xCD JUMPI JUMPDEST PUSH0 DUP1 REVERT JUMPDEST PUSH2 0x87 PUSH2 0x199 JUMP JUMPDEST PUSH1 0x40 MLOAD PUSH2 0x94 SWAP2 SWAP1 PUSH2 0x3B7 JUMP JUMPDEST PUSH1 0x40 MLOAD DUP1 SWAP2 SUB SWAP1 RETURN JUMPDEST PUSH2 0xB7 PUSH1 0x4 DUP1 CALLDATASIZE SUB DUP2 ADD SWAP1 PUSH2 0xB2 SWAP2 SWAP1 PUSH2 0x3FE JUMP JUMPDEST PUSH2 0x19F JUMP JUMPDEST PUSH1 0x40 MLOAD PUSH2 0xC4 SWAP2 SWAP1 PUSH2 0x3B7 JUMP JUMPDEST PUSH1 0x40 MLOAD DUP1 SWAP2 SUB SWAP1 RETURN JUMPDEST PUSH2 0xE7 PUSH1 0x4 DUP1 CALLDATASIZE SUB DUP2 ADD SWAP1 PUSH2 0xE2 SWAP2 SWAP1 PUSH2 0x3FE JUMP JUMPDEST PUSH2 0x1E8 JUMP JUMPDEST PUSH1 0x40 MLOAD PUSH2 0xF4 SWAP2 SWAP1 PUSH2 0x3B7 JUMP JUMPDEST PUSH1 0x40 MLOAD DUP1 SWAP2 SUB SWAP1 RETURN JUMPDEST PUSH2 0x117 PUSH1 0x4 DUP1 CALLDATASIZE SUB DUP2 ADD SWAP1 PUSH2 0x112 SWAP2 SWAP1 PUSH2 0x3FE JUMP JUMPDEST PUSH2 0x231 JUMP JUMPDEST PUSH1 0x40 MLOAD PUSH2 0x124 SWAP2 SWAP1 PUSH2 0x3B7 JUMP JUMPDEST PUSH1 0x40 MLOAD DUP1 SWAP2 SUB SWAP1 RETURN JUMPDEST PUSH2 0x135 PUSH2 0x27A JUMP JUMPDEST PUSH1 0x40 MLOAD PUSH2 0x142 SWAP2 SWAP1 PUSH2 0x3B7 JUMP JUMPDEST PUSH1 0x40 MLOAD DUP1 SWAP2 SUB SWAP1 RETURN JUMPDEST PUSH2 0x165 PUSH1 0x4 DUP1 CALLDATASIZE SUB DUP2 ADD SWAP1 PUSH2 0x160 SWAP2 SWAP1 PUSH2 0x3FE JUMP JUMPDEST PUSH2 0x280 JUMP JUMPDEST PUSH1 0x40 MLOAD PUSH2 0x172 SWAP2 SWAP1 PUSH2 0x3B7 JUMP JUMPDEST PUSH1 0x40 MLOAD DUP1 SWAP2 SUB SWAP1 RETURN JUMPDEST PUSH2 0x183 PUSH2 0x2C9 JUMP JUMPDEST PUSH1 0x40 MLOAD PUSH2 0x190 SWAP2 SWAP1 PUSH2 0x4B3 JUMP JUMPDEST PUSH1 0x40 MLOAD DUP1 SWAP2 SUB SWAP1 RETURN JUMPDEST PUSH1 0x2 SLOAD DUP2 JUMP JUMPDEST PUSH0 PUSH1 0x4 DUP1 DUP4 PUSH2 0x1AE SWAP2 SWAP1 PUSH2 0x52D JUMP JUMPDEST PUSH2 0x1B8 SWAP2 SWAP1 PUSH2 0x55D JUMP JUMPDEST PUSH1 0x2 DUP2 SWAP1 SSTORE POP PUSH0 SLOAD PUSH1 0x2 PUSH0 DUP3 DUP3 SLOAD PUSH2 0x1D0 SWAP2 SWAP1 PUSH2 0x59E JUMP JUMPDEST SWAP3 POP POP DUP2 SWAP1 SSTORE POP DUP2 PUSH1 0x1 DUP2 SWAP1 SSTORE POP PUSH1 0x2 SLOAD SWAP1 POP SWAP2 SWAP1 POP JUMP JUMPDEST PUSH0 PUSH1 0x4 DUP1 DUP4 PUSH2 0x1F7 SWAP2 SWAP1 PUSH2 0x59E JUMP JUMPDEST PUSH2 0x201 SWAP2 SWAP1 PUSH2 0x5D1 JUMP JUMPDEST PUSH1 0x2 DUP2 SWAP1 SSTORE POP PUSH0 SLOAD PUSH1 0x2 PUSH0 DUP3 DUP3 SLOAD PUSH2 0x219 SWAP2 SWAP1 PUSH2 0x59E JUMP JUMPDEST SWAP3 POP POP DUP2 SWAP1 SSTORE POP DUP2 PUSH1 0x1 DUP2 SWAP1 SSTORE POP PUSH1 0x2 SLOAD SWAP1 POP SWAP2 SWAP1 POP JUMP JUMPDEST PUSH0 PUSH1 0x4 DUP1 DUP4 PUSH2 0x240 SWAP2 SWAP1 PUSH2 0x55D JUMP JUMPDEST PUSH2 0x24A SWAP2 SWAP1 PUSH2 0x52D JUMP JUMPDEST PUSH1 0x2 DUP2 SWAP1 SSTORE POP PUSH0 SLOAD PUSH1 0x2 PUSH0 DUP3 DUP3 SLOAD PUSH2 0x262 SWAP2 SWAP1 PUSH2 0x59E JUMP JUMPDEST SWAP3 POP POP DUP2 SWAP1 SSTORE POP DUP2 PUSH1 0x1 DUP2 SWAP1 SSTORE POP PUSH1 0x2 SLOAD SWAP1 POP SWAP2 SWAP1 POP JUMP JUMPDEST PUSH1 0x1 SLOAD DUP2 JUMP JUMPDEST PUSH0 PUSH1 0x4 DUP1 DUP4 PUSH2 0x28F SWAP2 SWAP1 PUSH2 0x5D1 JUMP JUMPDEST PUSH2 0x299 SWAP2 SWAP1 PUSH2 0x59E JUMP JUMPDEST PUSH1 0x2 DUP2 SWAP1 SSTORE POP PUSH0 SLOAD PUSH1 0x2 PUSH0 DUP3 DUP3 SLOAD PUSH2 0x2B1 SWAP2 SWAP1 PUSH2 0x59E JUMP JUMPDEST SWAP3 POP POP DUP2 SWAP1 SSTORE POP DUP2 PUSH1 0x1 DUP2 SWAP1 SSTORE POP PUSH1 0x2 SLOAD SWAP1 POP SWAP2 SWAP1 POP JUMP JUMPDEST PUSH1 0x60 PUSH1 0x2 SLOAD PUSH1 0x1 SLOAD GT PUSH2 0x311 JUMPI PUSH1 0x40 MLOAD PUSH32 0x8C379A000000000000000000000000000000000000000000000000000000000 DUP2 MSTORE PUSH1 0x4 ADD PUSH2 0x308 SWAP1 PUSH2 0x64E JUMP JUMPDEST PUSH1 0x40 MLOAD DUP1 SWAP2 SUB SWAP1 REVERT JUMPDEST PUSH1 0x3 DUP1 SLOAD PUSH2 0x31E SWAP1 PUSH2 0x699 JUMP JUMPDEST DUP1 PUSH1 0x1F ADD PUSH1 0x20 DUP1 SWAP2 DIV MUL PUSH1 0x20 ADD PUSH1 0x40 MLOAD SWAP1 DUP2 ADD PUSH1 0x40 MSTORE DUP1 SWAP3 SWAP2 SWAP1 DUP2 DUP2 MSTORE PUSH1 0x20 ADD DUP3 DUP1 SLOAD PUSH2 0x34A SWAP1 PUSH2 0x699 JUMP JUMPDEST DUP1 ISZERO PUSH2 0x395 JUMPI DUP1 PUSH1 0x1F LT PUSH2 0x36C JUMPI PUSH2 0x100 DUP1 DUP4 SLOAD DIV MUL DUP4 MSTORE SWAP2 PUSH1 0x20 ADD SWAP2 PUSH2 0x395 JUMP JUMPDEST DUP3 ADD SWAP2 SWAP1 PUSH0 MSTORE PUSH1 0x20 PUSH0 KECCAK256 SWAP1 JUMPDEST DUP2 SLOAD DUP2 MSTORE SWAP1 PUSH1 0x1 ADD SWAP1 PUSH1 0x20 ADD DUP1 DUP4 GT PUSH2 0x378 JUMPI DUP3 SWAP1 SUB PUSH1 0x1F AND DUP3 ADD SWAP2 JUMPDEST POP POP POP POP POP SWAP1 POP SWAP1 JUMP JUMPDEST PUSH0 DUP2 SWAP1 POP SWAP2 SWAP1 POP JUMP JUMPDEST PUSH2 0x3B1 DUP2 PUSH2 0x39F JUMP JUMPDEST DUP3 MSTORE POP POP JUMP JUMPDEST PUSH0 PUSH1 0x20 DUP3 ADD SWAP1 POP PUSH2 0x3CA PUSH0 DUP4 ADD DUP5 PUSH2 0x3A8 JUMP JUMPDEST SWAP3 SWAP2 POP POP JUMP JUMPDEST PUSH0 DUP1 REVERT JUMPDEST PUSH2 0x3DD DUP2 PUSH2 0x39F JUMP JUMPDEST DUP2 EQ PUSH2 0x3E7 JUMPI PUSH0 DUP1 REVERT JUMPDEST POP JUMP JUMPDEST PUSH0 DUP2 CALLDATALOAD SWAP1 POP PUSH2 0x3F8 DUP2 PUSH2 0x3D4 JUMP JUMPDEST SWAP3 SWAP2 POP POP JUMP JUMPDEST PUSH0 PUSH1 0x20 DUP3 DUP5 SUB SLT ISZERO PUSH2 0x413 JUMPI PUSH2 0x412 PUSH2 0x3D0 JUMP JUMPDEST JUMPDEST PUSH0 PUSH2 0x420 DUP5 DUP3 DUP6 ADD PUSH2 0x3EA JUMP JUMPDEST SWAP2 POP POP SWAP3 SWAP2 POP POP JUMP JUMPDEST PUSH0 DUP2 MLOAD SWAP1 POP SWAP2 SWAP1 POP JUMP JUMPDEST PUSH0 DUP3 DUP3 MSTORE PUSH1 0x20 DUP3 ADD SWAP1 POP SWAP3 SWAP2 POP POP JUMP JUMPDEST PUSH0 JUMPDEST DUP4 DUP2 LT ISZERO PUSH2 0x460 JUMPI DUP1 DUP3 ADD MLOAD DUP2 DUP5 ADD MSTORE PUSH1 0x20 DUP2 ADD SWAP1 POP PUSH2 0x445 JUMP JUMPDEST PUSH0 DUP5 DUP5 ADD MSTORE POP POP POP POP JUMP JUMPDEST PUSH0 PUSH1 0x1F NOT PUSH1 0x1F DUP4 ADD AND SWAP1 POP SWAP2 SWAP1 POP JUMP JUMPDEST PUSH0 PUSH2 0x485 DUP3 PUSH2 0x429 JUMP JUMPDEST PUSH2 0x48F DUP2 DUP6 PUSH2 0x433 JUMP JUMPDEST SWAP4 POP PUSH2 0x49F DUP2 DUP6 PUSH1 0x20 DUP7 ADD PUSH2 0x443 JUMP JUMPDEST PUSH2 0x4A8 DUP2 PUSH2 0x46B JUMP JUMPDEST DUP5 ADD SWAP2 POP POP SWAP3 SWAP2 POP POP JUMP JUMPDEST PUSH0 PUSH1 0x20 DUP3 ADD SWAP1 POP DUP2 DUP2 SUB PUSH0 DUP4 ADD MSTORE PUSH2 0x4CB DUP2 DUP5 PUSH2 0x47B JUMP JUMPDEST SWAP1 POP SWAP3 SWAP2 POP POP JUMP JUMPDEST PUSH32 0x4E487B7100000000000000000000000000000000000000000000000000000000 PUSH0 MSTORE PUSH1 0x12 PUSH1 0x4 MSTORE PUSH1 0x24 PUSH0 REVERT JUMPDEST PUSH32 0x4E487B7100000000000000000000000000000000000000000000000000000000 PUSH0 MSTORE PUSH1 0x11 PUSH1 0x4 MSTORE PUSH1 0x24 PUSH0 REVERT JUMPDEST PUSH0 PUSH2 0x537 DUP3 PUSH2 0x39F JUMP JUMPDEST SWAP2 POP PUSH2 0x542 DUP4 PUSH2 0x39F JUMP JUMPDEST SWAP3 POP DUP3 PUSH2 0x552 JUMPI PUSH2 0x551 PUSH2 0x4D3 JUMP JUMPDEST JUMPDEST DUP3 DUP3 DIV SWAP1 POP SWAP3 SWAP2 POP POP JUMP JUMPDEST PUSH0 PUSH2 0x567 DUP3 PUSH2 0x39F JUMP JUMPDEST SWAP2 POP PUSH2 0x572 DUP4 PUSH2 0x39F JUMP JUMPDEST SWAP3 POP DUP3 DUP3 MUL PUSH2 0x580 DUP2 PUSH2 0x39F JUMP JUMPDEST SWAP2 POP DUP3 DUP3 DIV DUP5 EQ DUP4 ISZERO OR PUSH2 0x597 JUMPI PUSH2 0x596 PUSH2 0x500 JUMP JUMPDEST JUMPDEST POP SWAP3 SWAP2 POP POP JUMP JUMPDEST PUSH0 PUSH2 0x5A8 DUP3 PUSH2 0x39F JUMP JUMPDEST SWAP2 POP PUSH2 0x5B3 DUP4 PUSH2 0x39F JUMP JUMPDEST SWAP3 POP DUP3 DUP3 ADD SWAP1 POP DUP1 DUP3 GT ISZERO PUSH2 0x5CB JUMPI PUSH2 0x5CA PUSH2 0x500 JUMP JUMPDEST JUMPDEST SWAP3 SWAP2 POP POP JUMP JUMPDEST PUSH0 PUSH2 0x5DB DUP3 PUSH2 0x39F JUMP JUMPDEST SWAP2 POP PUSH2 0x5E6 DUP4 PUSH2 0x39F JUMP JUMPDEST SWAP3 POP DUP3 DUP3 SUB SWAP1 POP DUP2 DUP2 GT ISZERO PUSH2 0x5FE JUMPI PUSH2 0x5FD PUSH2 0x500 JUMP JUMPDEST JUMPDEST SWAP3 SWAP2 POP POP JUMP JUMPDEST PUSH32 0x4E6F2068617320636F6E7365677569646F2070726F6669740000000000000000 PUSH0 DUP3 ADD MSTORE POP JUMP JUMPDEST PUSH0 PUSH2 0x638 PUSH1 0x18 DUP4 PUSH2 0x433 JUMP JUMPDEST SWAP2 POP PUSH2 0x643 DUP3 PUSH2 0x604 JUMP JUMPDEST PUSH1 0x20 DUP3 ADD SWAP1 POP SWAP2 SWAP1 POP JUMP JUMPDEST PUSH0 PUSH1 0x20 DUP3 ADD SWAP1 POP DUP2 DUP2 SUB PUSH0 DUP4 ADD MSTORE PUSH2 0x665 DUP2 PUSH2 0x62C JUMP JUMPDEST SWAP1 POP SWAP2 SWAP1 POP JUMP JUMPDEST PUSH32 0x4E487B7100000000000000000000000000000000000000000000000000000000 PUSH0 MSTORE PUSH1 0x22 PUSH1 0x4 MSTORE PUSH1 0x24 PUSH0 REVERT JUMPDEST PUSH0 PUSH1 0x2 DUP3 DIV SWAP1 POP PUSH1 0x1 DUP3 AND DUP1 PUSH2 0x6B0 JUMPI PUSH1 0x7F DUP3 AND SWAP2 POP JUMPDEST PUSH1 0x20 DUP3 LT DUP2 SUB PUSH2 0x6C3 JUMPI PUSH2 0x6C2 PUSH2 0x66C JUMP JUMPDEST JUMPDEST POP SWAP2 SWAP1 POP JUMP INVALID LOG2 PUSH5 0x6970667358 0x22 SLT KECCAK256 0xAA AND CALLCODE 0xE6 0xC2 SHR 0xB5 0xDF 0xAA PUSH24 0x5A44F2A0FA6C962B679A50C58FDBC7061F0B6E201456473 PUSH16 0x6C634300081700330000000000000000 "
		},
		"gasEstimates": {
			"creation": {
				"codeDepositCost": "358200",
				"executionCost": "infinite",
				"totalCost": "infinite"
			},
			"external": {
				"cost()": "2426",
				"exchangeAmount()": "2447",
				"exchangeArgentina(uint256)": "infinite",
				"exchangeFrance(uint256)": "infinite",
				"exchangeLondon(uint256)": "infinite",
				"exchangePoland(uint256)": "infinite",
				"getFlag()": "infinite"
			}
		},
		"methodIdentifiers": {
			"cost()": "13faede6",
			"exchangeAmount()": "f247f02d",
			"exchangeArgentina(uint256)": "82539a0d",
			"exchangeFrance(uint256)": "f6291e43",
			"exchangeLondon(uint256)": "610539b4",
			"exchangePoland(uint256)": "15d57992",
			"getFlag()": "f9633930"
		}
	},
	"abi": [
		{
			"inputs": [
				{
					"internalType": "string",
					"name": "_flag",
					"type": "string"
				}
			],
			"stateMutability": "nonpayable",
			"type": "constructor"
		},
		{
			"inputs": [],
			"name": "cost",
			"outputs": [
				{
					"internalType": "uint256",
					"name": "",
					"type": "uint256"
				}
			],
			"stateMutability": "view",
			"type": "function"
		},
		{
			"inputs": [],
			"name": "exchangeAmount",
			"outputs": [
				{
					"internalType": "uint256",
					"name": "",
					"type": "uint256"
				}
			],
			"stateMutability": "view",
			"type": "function"
		},
		{
			"inputs": [
				{
					"internalType": "uint256",
					"name": "_exchangeAmount",
					"type": "uint256"
				}
			],
			"name": "exchangeArgentina",
			"outputs": [
				{
					"internalType": "uint256",
					"name": "",
					"type": "uint256"
				}
			],
			"stateMutability": "nonpayable",
			"type": "function"
		},
		{
			"inputs": [
				{
					"internalType": "uint256",
					"name": "_exchangeAmount",
					"type": "uint256"
				}
			],
			"name": "exchangeFrance",
			"outputs": [
				{
					"internalType": "uint256",
					"name": "",
					"type": "uint256"
				}
			],
			"stateMutability": "nonpayable",
			"type": "function"
		},
		{
			"inputs": [
				{
					"internalType": "uint256",
					"name": "_exchangeAmount",
					"type": "uint256"
				}
			],
			"name": "exchangeLondon",
			"outputs": [
				{
					"internalType": "uint256",
					"name": "",
					"type": "uint256"
				}
			],
			"stateMutability": "nonpayable",
			"type": "function"
		},
		{
			"inputs": [
				{
					"internalType": "uint256",
					"name": "_exchangeAmount",
					"type": "uint256"
				}
			],
			"name": "exchangePoland",
			"outputs": [
				{
					"internalType": "uint256",
					"name": "",
					"type": "uint256"
				}
			],
			"stateMutability": "nonpayable",
			"type": "function"
		},
		{
			"inputs": [],
			"name": "getFlag",
			"outputs": [
				{
					"internalType": "string",
					"name": "",
					"type": "string"
				}
			],
			"stateMutability": "view",
			"type": "function"
		}
	]
}