{
	"data": {
		"bytecode": {
			"linkReferences": {},
			"object": "60806040523480156200001157600080fd5b5060405162000f5838038062000f58833981810160405281019062000037919062000179565b80600090805190602001906200004f92919062000057565b5050620002ef565b82805462000065906200025b565b90600052602060002090601f016020900481019282620000895760008555620000d5565b82601f10620000a457805160ff1916838001178555620000d5565b82800160010185558215620000d5579182015b82811115620000d4578251825591602001919060010190620000b7565b5b509050620000e49190620000e8565b5090565b5b8082111562000103576000816000905550600101620000e9565b5090565b60006200011e6200011884620001f2565b620001be565b9050828152602081018484840111156200013757600080fd5b6200014484828562000225565b509392505050565b600082601f8301126200015e57600080fd5b81516200017084826020860162000107565b91505092915050565b6000602082840312156200018c57600080fd5b600082015167ffffffffffffffff811115620001a757600080fd5b620001b5848285016200014c565b91505092915050565b6000604051905081810181811067ffffffffffffffff82111715620001e857620001e7620002c0565b5b8060405250919050565b600067ffffffffffffffff82111562000210576200020f620002c0565b5b601f19601f8301169050602081019050919050565b60005b838110156200024557808201518184015260208101905062000228565b8381111562000255576000848401525b50505050565b600060028204905060018216806200027457607f821691505b602082108114156200028b576200028a62000291565b5b50919050565b7f4e487b7100000000000000000000000000000000000000000000000000000000600052602260045260246000fd5b7f4e487b7100000000000000000000000000000000000000000000000000000000600052604160045260246000fd5b610c5980620002ff6000396000f3fe608060405234801561001057600080fd5b50600436106100415760003560e01c80634048dbc21461004657806352d83c9f14610076578063c2c4c5c114610092575b600080fd5b610060600480360381019061005b91906106a8565b6100b0565b60405161006d919061084f565b60405180910390f35b610090600480360381019061008b91906106a8565b6101d3565b005b61009a610597565b6040516100a79190610891565b60405180910390f35b606060016040516020016100c49190610838565b60405160208183030381529060405280519060200120826040516020016100eb9190610821565b6040516020818303038152906040528051906020012014610141576040517f08c379a000000000000000000000000000000000000000000000000000000000815260040161013890610871565b60405180910390fd5b6000805461014e90610aaa565b80601f016020809104026020016040519081016040528092919081815260200182805461017a90610aaa565b80156101c75780601f1061019c576101008083540402835291602001916101c7565b820191906000526020600020905b8154815290600101906020018083116101aa57829003601f168201915b50505050509050919050565b6000819050600081519050600080600190505b8281101561036f576003848281518110610229577f4e487b7100000000000000000000000000000000000000000000000000000000600052603260045260246000fd5b602001015160f81c60f81b60f81c60ff1661024491906109d0565b8261024f9190610949565b915060068261025e9190610b25565b9150600a821061026d57600080fd5b600560038361027c91906109d0565b6102869190610949565b91506005821161029557600080fd5b6002826102a29190610949565b9150600a82106102b157600080fd5b6001826102be9190610a2a565b9150600182106102cd57600080fd5b6002826102da91906109d0565b91506003826102e9919061099f565b9150600a82116102f857600080fd5b6007826103059190610949565b91506005828361031591906109d0565b61031f9190610b25565b91506002821891506005821161033457600080fd5b600182901b91506003821461034857600080fd5b600282901c9150600a821061035c57600080fd5b808061036790610adc565b9150506101e6565b50600081141561037e57600080fd5b600a8110156103d8576040518060400160405280600c81526020017f7333633465744e756d6265720000000000000000000000000000000000000000815250600190805190602001906103d292919061059d565b50610591565b6014811015610432576040518060400160405280600c81526020017f7333633465744e756d62657200000000000000000000000000000000000000008152506001908051906020019061042c92919061059d565b50610590565b601e81101561048c576040518060400160405280600c81526020017f616e6f74686572466c61673100000000000000000000000000000000000000008152506001908051906020019061048692919061059d565b5061058f565b60288110156104e6576040518060400160405280600981526020017f7333637233746b33790000000000000000000000000000000000000000000000815250600190805190602001906104e092919061059d565b5061058e565b6032811015610540576040518060400160405280600c81526020017f616e6f74686572466c61673200000000000000000000000000000000000000008152506001908051906020019061053a92919061059d565b5061058d565b6040518060400160405280600981526020017f66696e616c356c616700000000000000000000000000000000000000000000008152506001908051906020019061058b92919061059d565b505b5b5b5b5b50505050565b60025481565b8280546105a990610aaa565b90600052602060002090601f0160209004810192826105cb5760008555610612565b82601f106105e457805160ff1916838001178555610612565b82800160010185558215610612579182015b828111156106115782518255916020019190600101906105f6565b5b50905061061f9190610623565b5090565b5b8082111561063c576000816000905550600101610624565b5090565b600061065361064e846108dd565b6108ac565b90508281526020810184848401111561066b57600080fd5b610676848285610a68565b509392505050565b600082601f83011261068f57600080fd5b813561069f848260208601610640565b91505092915050565b6000602082840312156106ba57600080fd5b600082013567ffffffffffffffff8111156106d457600080fd5b6106e08482850161067e565b91505092915050565b60006106f482610922565b6106fe818561092d565b935061070e818560208601610a77565b61071781610c12565b840191505092915050565b600061072d82610922565b610737818561093e565b9350610747818560208601610a77565b80840191505092915050565b6000815461076081610aaa565b61076a818661093e565b945060018216600081146107855760018114610796576107c9565b60ff198316865281860193506107c9565b61079f8561090d565b60005b838110156107c1578154818901526001820191506020810190506107a2565b838801955050505b50505092915050565b60006107df600f8361092d565b91507f496e636f727265637420677565737300000000000000000000000000000000006000830152602082019050919050565b61081b81610a5e565b82525050565b600061082d8284610722565b915081905092915050565b60006108448284610753565b915081905092915050565b6000602082019050818103600083015261086981846106e9565b905092915050565b6000602082019050818103600083015261088a816107d2565b9050919050565b60006020820190506108a66000830184610812565b92915050565b6000604051905081810181811067ffffffffffffffff821117156108d3576108d2610be3565b5b8060405250919050565b600067ffffffffffffffff8211156108f8576108f7610be3565b5b601f19601f8301169050602081019050919050565b60008190508160005260206000209050919050565b600081519050919050565b600082825260208201905092915050565b600081905092915050565b600061095482610a5e565b915061095f83610a5e565b9250827fffffffffffffffffffffffffffffffffffffffffffffffffffffffffffffffff0382111561099457610993610b56565b5b828201905092915050565b60006109aa82610a5e565b91506109b583610a5e565b9250826109c5576109c4610b85565b5b828204905092915050565b60006109db82610a5e565b91506109e683610a5e565b9250817fffffffffffffffffffffffffffffffffffffffffffffffffffffffffffffffff0483118215151615610a1f57610a1e610b56565b5b828202905092915050565b6000610a3582610a5e565b9150610a4083610a5e565b925082821015610a5357610a52610b56565b5b828203905092915050565b6000819050919050565b82818337600083830152505050565b60005b83811015610a95578082015181840152602081019050610a7a565b83811115610aa4576000848401525b50505050565b60006002820490506001821680610ac257607f821691505b60208210811415610ad657610ad5610bb4565b5b50919050565b6000610ae782610a5e565b91507fffffffffffffffffffffffffffffffffffffffffffffffffffffffffffffffff821415610b1a57610b19610b56565b5b600182019050919050565b6000610b3082610a5e565b9150610b3b83610a5e565b925082610b4b57610b4a610b85565b5b828206905092915050565b7f4e487b7100000000000000000000000000000000000000000000000000000000600052601160045260246000fd5b7f4e487b7100000000000000000000000000000000000000000000000000000000600052601260045260246000fd5b7f4e487b7100000000000000000000000000000000000000000000000000000000600052602260045260246000fd5b7f4e487b7100000000000000000000000000000000000000000000000000000000600052604160045260246000fd5b6000601f19601f830116905091905056fea26469706673582212202f4ea540bceba296c63295e29740e0ab01b3b729adf7e12497b70e72048f4ba864736f6c63430008000033",
			"opcodes": "PUSH1 0x80 PUSH1 0x40 MSTORE CALLVALUE DUP1 ISZERO PUSH3 0x11 JUMPI PUSH1 0x0 DUP1 REVERT JUMPDEST POP PUSH1 0x40 MLOAD PUSH3 0xF58 CODESIZE SUB DUP1 PUSH3 0xF58 DUP4 CODECOPY DUP2 DUP2 ADD PUSH1 0x40 MSTORE DUP2 ADD SWAP1 PUSH3 0x37 SWAP2 SWAP1 PUSH3 0x179 JUMP JUMPDEST DUP1 PUSH1 0x0 SWAP1 DUP1 MLOAD SWAP1 PUSH1 0x20 ADD SWAP1 PUSH3 0x4F SWAP3 SWAP2 SWAP1 PUSH3 0x57 JUMP JUMPDEST POP POP PUSH3 0x2EF JUMP JUMPDEST DUP3 DUP1 SLOAD PUSH3 0x65 SWAP1 PUSH3 0x25B JUMP JUMPDEST SWAP1 PUSH1 0x0 MSTORE PUSH1 0x20 PUSH1 0x0 KECCAK256 SWAP1 PUSH1 0x1F ADD PUSH1 0x20 SWAP1 DIV DUP2 ADD SWAP3 DUP3 PUSH3 0x89 JUMPI PUSH1 0x0 DUP6 SSTORE PUSH3 0xD5 JUMP JUMPDEST DUP3 PUSH1 0x1F LT PUSH3 0xA4 JUMPI DUP1 MLOAD PUSH1 0xFF NOT AND DUP4 DUP1 ADD OR DUP6 SSTORE PUSH3 0xD5 JUMP JUMPDEST DUP3 DUP1 ADD PUSH1 0x1 ADD DUP6 SSTORE DUP3 ISZERO PUSH3 0xD5 JUMPI SWAP2 DUP3 ADD JUMPDEST DUP3 DUP2 GT ISZERO PUSH3 0xD4 JUMPI DUP3 MLOAD DUP3 SSTORE SWAP2 PUSH1 0x20 ADD SWAP2 SWAP1 PUSH1 0x1 ADD SWAP1 PUSH3 0xB7 JUMP JUMPDEST JUMPDEST POP SWAP1 POP PUSH3 0xE4 SWAP2 SWAP1 PUSH3 0xE8 JUMP JUMPDEST POP SWAP1 JUMP JUMPDEST JUMPDEST DUP1 DUP3 GT ISZERO PUSH3 0x103 JUMPI PUSH1 0x0 DUP2 PUSH1 0x0 SWAP1 SSTORE POP PUSH1 0x1 ADD PUSH3 0xE9 JUMP JUMPDEST POP SWAP1 JUMP JUMPDEST PUSH1 0x0 PUSH3 0x11E PUSH3 0x118 DUP5 PUSH3 0x1F2 JUMP JUMPDEST PUSH3 0x1BE JUMP JUMPDEST SWAP1 POP DUP3 DUP2 MSTORE PUSH1 0x20 DUP2 ADD DUP5 DUP5 DUP5 ADD GT ISZERO PUSH3 0x137 JUMPI PUSH1 0x0 DUP1 REVERT JUMPDEST PUSH3 0x144 DUP5 DUP3 DUP6 PUSH3 0x225 JUMP JUMPDEST POP SWAP4 SWAP3 POP POP POP JUMP JUMPDEST PUSH1 0x0 DUP3 PUSH1 0x1F DUP4 ADD SLT PUSH3 0x15E JUMPI PUSH1 0x0 DUP1 REVERT JUMPDEST DUP2 MLOAD PUSH3 0x170 DUP5 DUP3 PUSH1 0x20 DUP7 ADD PUSH3 0x107 JUMP JUMPDEST SWAP2 POP POP SWAP3 SWAP2 POP POP JUMP JUMPDEST PUSH1 0x0 PUSH1 0x20 DUP3 DUP5 SUB SLT ISZERO PUSH3 0x18C JUMPI PUSH1 0x0 DUP1 REVERT JUMPDEST PUSH1 0x0 DUP3 ADD MLOAD PUSH8 0xFFFFFFFFFFFFFFFF DUP2 GT ISZERO PUSH3 0x1A7 JUMPI PUSH1 0x0 DUP1 REVERT JUMPDEST PUSH3 0x1B5 DUP5 DUP3 DUP6 ADD PUSH3 0x14C JUMP JUMPDEST SWAP2 POP POP SWAP3 SWAP2 POP POP JUMP JUMPDEST PUSH1 0x0 PUSH1 0x40 MLOAD SWAP1 POP DUP2 DUP2 ADD DUP2 DUP2 LT PUSH8 0xFFFFFFFFFFFFFFFF DUP3 GT OR ISZERO PUSH3 0x1E8 JUMPI PUSH3 0x1E7 PUSH3 0x2C0 JUMP JUMPDEST JUMPDEST DUP1 PUSH1 0x40 MSTORE POP SWAP2 SWAP1 POP JUMP JUMPDEST PUSH1 0x0 PUSH8 0xFFFFFFFFFFFFFFFF DUP3 GT ISZERO PUSH3 0x210 JUMPI PUSH3 0x20F PUSH3 0x2C0 JUMP JUMPDEST JUMPDEST PUSH1 0x1F NOT PUSH1 0x1F DUP4 ADD AND SWAP1 POP PUSH1 0x20 DUP2 ADD SWAP1 POP SWAP2 SWAP1 POP JUMP JUMPDEST PUSH1 0x0 JUMPDEST DUP4 DUP2 LT ISZERO PUSH3 0x245 JUMPI DUP1 DUP3 ADD MLOAD DUP2 DUP5 ADD MSTORE PUSH1 0x20 DUP2 ADD SWAP1 POP PUSH3 0x228 JUMP JUMPDEST DUP4 DUP2 GT ISZERO PUSH3 0x255 JUMPI PUSH1 0x0 DUP5 DUP5 ADD MSTORE JUMPDEST POP POP POP POP JUMP JUMPDEST PUSH1 0x0 PUSH1 0x2 DUP3 DIV SWAP1 POP PUSH1 0x1 DUP3 AND DUP1 PUSH3 0x274 JUMPI PUSH1 0x7F DUP3 AND SWAP2 POP JUMPDEST PUSH1 0x20 DUP3 LT DUP2 EQ ISZERO PUSH3 0x28B JUMPI PUSH3 0x28A PUSH3 0x291 JUMP JUMPDEST JUMPDEST POP SWAP2 SWAP1 POP JUMP JUMPDEST PUSH32 0x4E487B7100000000000000000000000000000000000000000000000000000000 PUSH1 0x0 MSTORE PUSH1 0x22 PUSH1 0x4 MSTORE PUSH1 0x24 PUSH1 0x0 REVERT JUMPDEST PUSH32 0x4E487B7100000000000000000000000000000000000000000000000000000000 PUSH1 0x0 MSTORE PUSH1 0x41 PUSH1 0x4 MSTORE PUSH1 0x24 PUSH1 0x0 REVERT JUMPDEST PUSH2 0xC59 DUP1 PUSH3 0x2FF PUSH1 0x0 CODECOPY PUSH1 0x0 RETURN INVALID PUSH1 0x80 PUSH1 0x40 MSTORE CALLVALUE DUP1 ISZERO PUSH2 0x10 JUMPI PUSH1 0x0 DUP1 REVERT JUMPDEST POP PUSH1 0x4 CALLDATASIZE LT PUSH2 0x41 JUMPI PUSH1 0x0 CALLDATALOAD PUSH1 0xE0 SHR DUP1 PUSH4 0x4048DBC2 EQ PUSH2 0x46 JUMPI DUP1 PUSH4 0x52D83C9F EQ PUSH2 0x76 JUMPI DUP1 PUSH4 0xC2C4C5C1 EQ PUSH2 0x92 JUMPI JUMPDEST PUSH1 0x0 DUP1 REVERT JUMPDEST PUSH2 0x60 PUSH1 0x4 DUP1 CALLDATASIZE SUB DUP2 ADD SWAP1 PUSH2 0x5B SWAP2 SWAP1 PUSH2 0x6A8 JUMP JUMPDEST PUSH2 0xB0 JUMP JUMPDEST PUSH1 0x40 MLOAD PUSH2 0x6D SWAP2 SWAP1 PUSH2 0x84F JUMP JUMPDEST PUSH1 0x40 MLOAD DUP1 SWAP2 SUB SWAP1 RETURN JUMPDEST PUSH2 0x90 PUSH1 0x4 DUP1 CALLDATASIZE SUB DUP2 ADD SWAP1 PUSH2 0x8B SWAP2 SWAP1 PUSH2 0x6A8 JUMP JUMPDEST PUSH2 0x1D3 JUMP JUMPDEST STOP JUMPDEST PUSH2 0x9A PUSH2 0x597 JUMP JUMPDEST PUSH1 0x40 MLOAD PUSH2 0xA7 SWAP2 SWAP1 PUSH2 0x891 JUMP JUMPDEST PUSH1 0x40 MLOAD DUP1 SWAP2 SUB SWAP1 RETURN JUMPDEST PUSH1 0x60 PUSH1 0x1 PUSH1 0x40 MLOAD PUSH1 0x20 ADD PUSH2 0xC4 SWAP2 SWAP1 PUSH2 0x838 JUMP JUMPDEST PUSH1 0x40 MLOAD PUSH1 0x20 DUP2 DUP4 SUB SUB DUP2 MSTORE SWAP1 PUSH1 0x40 MSTORE DUP1 MLOAD SWAP1 PUSH1 0x20 ADD KECCAK256 DUP3 PUSH1 0x40 MLOAD PUSH1 0x20 ADD PUSH2 0xEB SWAP2 SWAP1 PUSH2 0x821 JUMP JUMPDEST PUSH1 0x40 MLOAD PUSH1 0x20 DUP2 DUP4 SUB SUB DUP2 MSTORE SWAP1 PUSH1 0x40 MSTORE DUP1 MLOAD SWAP1 PUSH1 0x20 ADD KECCAK256 EQ PUSH2 0x141 JUMPI PUSH1 0x40 MLOAD PUSH32 0x8C379A000000000000000000000000000000000000000000000000000000000 DUP2 MSTORE PUSH1 0x4 ADD PUSH2 0x138 SWAP1 PUSH2 0x871 JUMP JUMPDEST PUSH1 0x40 MLOAD DUP1 SWAP2 SUB SWAP1 REVERT JUMPDEST PUSH1 0x0 DUP1 SLOAD PUSH2 0x14E SWAP1 PUSH2 0xAAA JUMP JUMPDEST DUP1 PUSH1 0x1F ADD PUSH1 0x20 DUP1 SWAP2 DIV MUL PUSH1 0x20 ADD PUSH1 0x40 MLOAD SWAP1 DUP2 ADD PUSH1 0x40 MSTORE DUP1 SWAP3 SWAP2 SWAP1 DUP2 DUP2 MSTORE PUSH1 0x20 ADD DUP3 DUP1 SLOAD PUSH2 0x17A SWAP1 PUSH2 0xAAA JUMP JUMPDEST DUP1 ISZERO PUSH2 0x1C7 JUMPI DUP1 PUSH1 0x1F LT PUSH2 0x19C JUMPI PUSH2 0x100 DUP1 DUP4 SLOAD DIV MUL DUP4 MSTORE SWAP2 PUSH1 0x20 ADD SWAP2 PUSH2 0x1C7 JUMP JUMPDEST DUP3 ADD SWAP2 SWAP1 PUSH1 0x0 MSTORE PUSH1 0x20 PUSH1 0x0 KECCAK256 SWAP1 JUMPDEST DUP2 SLOAD DUP2 MSTORE SWAP1 PUSH1 0x1 ADD SWAP1 PUSH1 0x20 ADD DUP1 DUP4 GT PUSH2 0x1AA JUMPI DUP3 SWAP1 SUB PUSH1 0x1F AND DUP3 ADD SWAP2 JUMPDEST POP POP POP POP POP SWAP1 POP SWAP2 SWAP1 POP JUMP JUMPDEST PUSH1 0x0 DUP2 SWAP1 POP PUSH1 0x0 DUP2 MLOAD SWAP1 POP PUSH1 0x0 DUP1 PUSH1 0x1 SWAP1 POP JUMPDEST DUP3 DUP2 LT ISZERO PUSH2 0x36F JUMPI PUSH1 0x3 DUP5 DUP3 DUP2 MLOAD DUP2 LT PUSH2 0x229 JUMPI PUSH32 0x4E487B7100000000000000000000000000000000000000000000000000000000 PUSH1 0x0 MSTORE PUSH1 0x32 PUSH1 0x4 MSTORE PUSH1 0x24 PUSH1 0x0 REVERT JUMPDEST PUSH1 0x20 ADD ADD MLOAD PUSH1 0xF8 SHR PUSH1 0xF8 SHL PUSH1 0xF8 SHR PUSH1 0xFF AND PUSH2 0x244 SWAP2 SWAP1 PUSH2 0x9D0 JUMP JUMPDEST DUP3 PUSH2 0x24F SWAP2 SWAP1 PUSH2 0x949 JUMP JUMPDEST SWAP2 POP PUSH1 0x6 DUP3 PUSH2 0x25E SWAP2 SWAP1 PUSH2 0xB25 JUMP JUMPDEST SWAP2 POP PUSH1 0xA DUP3 LT PUSH2 0x26D JUMPI PUSH1 0x0 DUP1 REVERT JUMPDEST PUSH1 0x5 PUSH1 0x3 DUP4 PUSH2 0x27C SWAP2 SWAP1 PUSH2 0x9D0 JUMP JUMPDEST PUSH2 0x286 SWAP2 SWAP1 PUSH2 0x949 JUMP JUMPDEST SWAP2 POP PUSH1 0x5 DUP3 GT PUSH2 0x295 JUMPI PUSH1 0x0 DUP1 REVERT JUMPDEST PUSH1 0x2 DUP3 PUSH2 0x2A2 SWAP2 SWAP1 PUSH2 0x949 JUMP JUMPDEST SWAP2 POP PUSH1 0xA DUP3 LT PUSH2 0x2B1 JUMPI PUSH1 0x0 DUP1 REVERT JUMPDEST PUSH1 0x1 DUP3 PUSH2 0x2BE SWAP2 SWAP1 PUSH2 0xA2A JUMP JUMPDEST SWAP2 POP PUSH1 0x1 DUP3 LT PUSH2 0x2CD JUMPI PUSH1 0x0 DUP1 REVERT JUMPDEST PUSH1 0x2 DUP3 PUSH2 0x2DA SWAP2 SWAP1 PUSH2 0x9D0 JUMP JUMPDEST SWAP2 POP PUSH1 0x3 DUP3 PUSH2 0x2E9 SWAP2 SWAP1 PUSH2 0x99F JUMP JUMPDEST SWAP2 POP PUSH1 0xA DUP3 GT PUSH2 0x2F8 JUMPI PUSH1 0x0 DUP1 REVERT JUMPDEST PUSH1 0x7 DUP3 PUSH2 0x305 SWAP2 SWAP1 PUSH2 0x949 JUMP JUMPDEST SWAP2 POP PUSH1 0x5 DUP3 DUP4 PUSH2 0x315 SWAP2 SWAP1 PUSH2 0x9D0 JUMP JUMPDEST PUSH2 0x31F SWAP2 SWAP1 PUSH2 0xB25 JUMP JUMPDEST SWAP2 POP PUSH1 0x2 DUP3 XOR SWAP2 POP PUSH1 0x5 DUP3 GT PUSH2 0x334 JUMPI PUSH1 0x0 DUP1 REVERT JUMPDEST PUSH1 0x1 DUP3 SWAP1 SHL SWAP2 POP PUSH1 0x3 DUP3 EQ PUSH2 0x348 JUMPI PUSH1 0x0 DUP1 REVERT JUMPDEST PUSH1 0x2 DUP3 SWAP1 SHR SWAP2 POP PUSH1 0xA DUP3 LT PUSH2 0x35C JUMPI PUSH1 0x0 DUP1 REVERT JUMPDEST DUP1 DUP1 PUSH2 0x367 SWAP1 PUSH2 0xADC JUMP JUMPDEST SWAP2 POP POP PUSH2 0x1E6 JUMP JUMPDEST POP PUSH1 0x0 DUP2 EQ ISZERO PUSH2 0x37E JUMPI PUSH1 0x0 DUP1 REVERT JUMPDEST PUSH1 0xA DUP2 LT ISZERO PUSH2 0x3D8 JUMPI PUSH1 0x40 MLOAD DUP1 PUSH1 0x40 ADD PUSH1 0x40 MSTORE DUP1 PUSH1 0xC DUP2 MSTORE PUSH1 0x20 ADD PUSH32 0x7333633465744E756D6265720000000000000000000000000000000000000000 DUP2 MSTORE POP PUSH1 0x1 SWAP1 DUP1 MLOAD SWAP1 PUSH1 0x20 ADD SWAP1 PUSH2 0x3D2 SWAP3 SWAP2 SWAP1 PUSH2 0x59D JUMP JUMPDEST POP PUSH2 0x591 JUMP JUMPDEST PUSH1 0x14 DUP2 LT ISZERO PUSH2 0x432 JUMPI PUSH1 0x40 MLOAD DUP1 PUSH1 0x40 ADD PUSH1 0x40 MSTORE DUP1 PUSH1 0xC DUP2 MSTORE PUSH1 0x20 ADD PUSH32 0x7333633465744E756D6265720000000000000000000000000000000000000000 DUP2 MSTORE POP PUSH1 0x1 SWAP1 DUP1 MLOAD SWAP1 PUSH1 0x20 ADD SWAP1 PUSH2 0x42C SWAP3 SWAP2 SWAP1 PUSH2 0x59D JUMP JUMPDEST POP PUSH2 0x590 JUMP JUMPDEST PUSH1 0x1E DUP2 LT ISZERO PUSH2 0x48C JUMPI PUSH1 0x40 MLOAD DUP1 PUSH1 0x40 ADD PUSH1 0x40 MSTORE DUP1 PUSH1 0xC DUP2 MSTORE PUSH1 0x20 ADD PUSH32 0x616E6F74686572466C6167310000000000000000000000000000000000000000 DUP2 MSTORE POP PUSH1 0x1 SWAP1 DUP1 MLOAD SWAP1 PUSH1 0x20 ADD SWAP1 PUSH2 0x486 SWAP3 SWAP2 SWAP1 PUSH2 0x59D JUMP JUMPDEST POP PUSH2 0x58F JUMP JUMPDEST PUSH1 0x28 DUP2 LT ISZERO PUSH2 0x4E6 JUMPI PUSH1 0x40 MLOAD DUP1 PUSH1 0x40 ADD PUSH1 0x40 MSTORE DUP1 PUSH1 0x9 DUP2 MSTORE PUSH1 0x20 ADD PUSH32 0x7333637233746B33790000000000000000000000000000000000000000000000 DUP2 MSTORE POP PUSH1 0x1 SWAP1 DUP1 MLOAD SWAP1 PUSH1 0x20 ADD SWAP1 PUSH2 0x4E0 SWAP3 SWAP2 SWAP1 PUSH2 0x59D JUMP JUMPDEST POP PUSH2 0x58E JUMP JUMPDEST PUSH1 0x32 DUP2 LT ISZERO PUSH2 0x540 JUMPI PUSH1 0x40 MLOAD DUP1 PUSH1 0x40 ADD PUSH1 0x40 MSTORE DUP1 PUSH1 0xC DUP2 MSTORE PUSH1 0x20 ADD PUSH32 0x616E6F74686572466C6167320000000000000000000000000000000000000000 DUP2 MSTORE POP PUSH1 0x1 SWAP1 DUP1 MLOAD SWAP1 PUSH1 0x20 ADD SWAP1 PUSH2 0x53A SWAP3 SWAP2 SWAP1 PUSH2 0x59D JUMP JUMPDEST POP PUSH2 0x58D JUMP JUMPDEST PUSH1 0x40 MLOAD DUP1 PUSH1 0x40 ADD PUSH1 0x40 MSTORE DUP1 PUSH1 0x9 DUP2 MSTORE PUSH1 0x20 ADD PUSH32 0x66696E616C356C61670000000000000000000000000000000000000000000000 DUP2 MSTORE POP PUSH1 0x1 SWAP1 DUP1 MLOAD SWAP1 PUSH1 0x20 ADD SWAP1 PUSH2 0x58B SWAP3 SWAP2 SWAP1 PUSH2 0x59D JUMP JUMPDEST POP JUMPDEST JUMPDEST JUMPDEST JUMPDEST JUMPDEST POP POP POP POP JUMP JUMPDEST PUSH1 0x2 SLOAD DUP2 JUMP JUMPDEST DUP3 DUP1 SLOAD PUSH2 0x5A9 SWAP1 PUSH2 0xAAA JUMP JUMPDEST SWAP1 PUSH1 0x0 MSTORE PUSH1 0x20 PUSH1 0x0 KECCAK256 SWAP1 PUSH1 0x1F ADD PUSH1 0x20 SWAP1 DIV DUP2 ADD SWAP3 DUP3 PUSH2 0x5CB JUMPI PUSH1 0x0 DUP6 SSTORE PUSH2 0x612 JUMP JUMPDEST DUP3 PUSH1 0x1F LT PUSH2 0x5E4 JUMPI DUP1 MLOAD PUSH1 0xFF NOT AND DUP4 DUP1 ADD OR DUP6 SSTORE PUSH2 0x612 JUMP JUMPDEST DUP3 DUP1 ADD PUSH1 0x1 ADD DUP6 SSTORE DUP3 ISZERO PUSH2 0x612 JUMPI SWAP2 DUP3 ADD JUMPDEST DUP3 DUP2 GT ISZERO PUSH2 0x611 JUMPI DUP3 MLOAD DUP3 SSTORE SWAP2 PUSH1 0x20 ADD SWAP2 SWAP1 PUSH1 0x1 ADD SWAP1 PUSH2 0x5F6 JUMP JUMPDEST JUMPDEST POP SWAP1 POP PUSH2 0x61F SWAP2 SWAP1 PUSH2 0x623 JUMP JUMPDEST POP SWAP1 JUMP JUMPDEST JUMPDEST DUP1 DUP3 GT ISZERO PUSH2 0x63C JUMPI PUSH1 0x0 DUP2 PUSH1 0x0 SWAP1 SSTORE POP PUSH1 0x1 ADD PUSH2 0x624 JUMP JUMPDEST POP SWAP1 JUMP JUMPDEST PUSH1 0x0 PUSH2 0x653 PUSH2 0x64E DUP5 PUSH2 0x8DD JUMP JUMPDEST PUSH2 0x8AC JUMP JUMPDEST SWAP1 POP DUP3 DUP2 MSTORE PUSH1 0x20 DUP2 ADD DUP5 DUP5 DUP5 ADD GT ISZERO PUSH2 0x66B JUMPI PUSH1 0x0 DUP1 REVERT JUMPDEST PUSH2 0x676 DUP5 DUP3 DUP6 PUSH2 0xA68 JUMP JUMPDEST POP SWAP4 SWAP3 POP POP POP JUMP JUMPDEST PUSH1 0x0 DUP3 PUSH1 0x1F DUP4 ADD SLT PUSH2 0x68F JUMPI PUSH1 0x0 DUP1 REVERT JUMPDEST DUP2 CALLDATALOAD PUSH2 0x69F DUP5 DUP3 PUSH1 0x20 DUP7 ADD PUSH2 0x640 JUMP JUMPDEST SWAP2 POP POP SWAP3 SWAP2 POP POP JUMP JUMPDEST PUSH1 0x0 PUSH1 0x20 DUP3 DUP5 SUB SLT ISZERO PUSH2 0x6BA JUMPI PUSH1 0x0 DUP1 REVERT JUMPDEST PUSH1 0x0 DUP3 ADD CALLDATALOAD PUSH8 0xFFFFFFFFFFFFFFFF DUP2 GT ISZERO PUSH2 0x6D4 JUMPI PUSH1 0x0 DUP1 REVERT JUMPDEST PUSH2 0x6E0 DUP5 DUP3 DUP6 ADD PUSH2 0x67E JUMP JUMPDEST SWAP2 POP POP SWAP3 SWAP2 POP POP JUMP JUMPDEST PUSH1 0x0 PUSH2 0x6F4 DUP3 PUSH2 0x922 JUMP JUMPDEST PUSH2 0x6FE DUP2 DUP6 PUSH2 0x92D JUMP JUMPDEST SWAP4 POP PUSH2 0x70E DUP2 DUP6 PUSH1 0x20 DUP7 ADD PUSH2 0xA77 JUMP JUMPDEST PUSH2 0x717 DUP2 PUSH2 0xC12 JUMP JUMPDEST DUP5 ADD SWAP2 POP POP SWAP3 SWAP2 POP POP JUMP JUMPDEST PUSH1 0x0 PUSH2 0x72D DUP3 PUSH2 0x922 JUMP JUMPDEST PUSH2 0x737 DUP2 DUP6 PUSH2 0x93E JUMP JUMPDEST SWAP4 POP PUSH2 0x747 DUP2 DUP6 PUSH1 0x20 DUP7 ADD PUSH2 0xA77 JUMP JUMPDEST DUP1 DUP5 ADD SWAP2 POP POP SWAP3 SWAP2 POP POP JUMP JUMPDEST PUSH1 0x0 DUP2 SLOAD PUSH2 0x760 DUP2 PUSH2 0xAAA JUMP JUMPDEST PUSH2 0x76A DUP2 DUP7 PUSH2 0x93E JUMP JUMPDEST SWAP5 POP PUSH1 0x1 DUP3 AND PUSH1 0x0 DUP2 EQ PUSH2 0x785 JUMPI PUSH1 0x1 DUP2 EQ PUSH2 0x796 JUMPI PUSH2 0x7C9 JUMP JUMPDEST PUSH1 0xFF NOT DUP4 AND DUP7 MSTORE DUP2 DUP7 ADD SWAP4 POP PUSH2 0x7C9 JUMP JUMPDEST PUSH2 0x79F DUP6 PUSH2 0x90D JUMP JUMPDEST PUSH1 0x0 JUMPDEST DUP4 DUP2 LT ISZERO PUSH2 0x7C1 JUMPI DUP2 SLOAD DUP2 DUP10 ADD MSTORE PUSH1 0x1 DUP3 ADD SWAP2 POP PUSH1 0x20 DUP2 ADD SWAP1 POP PUSH2 0x7A2 JUMP JUMPDEST DUP4 DUP9 ADD SWAP6 POP POP POP JUMPDEST POP POP POP SWAP3 SWAP2 POP POP JUMP JUMPDEST PUSH1 0x0 PUSH2 0x7DF PUSH1 0xF DUP4 PUSH2 0x92D JUMP JUMPDEST SWAP2 POP PUSH32 0x496E636F72726563742067756573730000000000000000000000000000000000 PUSH1 0x0 DUP4 ADD MSTORE PUSH1 0x20 DUP3 ADD SWAP1 POP SWAP2 SWAP1 POP JUMP JUMPDEST PUSH2 0x81B DUP2 PUSH2 0xA5E JUMP JUMPDEST DUP3 MSTORE POP POP JUMP JUMPDEST PUSH1 0x0 PUSH2 0x82D DUP3 DUP5 PUSH2 0x722 JUMP JUMPDEST SWAP2 POP DUP2 SWAP1 POP SWAP3 SWAP2 POP POP JUMP JUMPDEST PUSH1 0x0 PUSH2 0x844 DUP3 DUP5 PUSH2 0x753 JUMP JUMPDEST SWAP2 POP DUP2 SWAP1 POP SWAP3 SWAP2 POP POP JUMP JUMPDEST PUSH1 0x0 PUSH1 0x20 DUP3 ADD SWAP1 POP DUP2 DUP2 SUB PUSH1 0x0 DUP4 ADD MSTORE PUSH2 0x869 DUP2 DUP5 PUSH2 0x6E9 JUMP JUMPDEST SWAP1 POP SWAP3 SWAP2 POP POP JUMP JUMPDEST PUSH1 0x0 PUSH1 0x20 DUP3 ADD SWAP1 POP DUP2 DUP2 SUB PUSH1 0x0 DUP4 ADD MSTORE PUSH2 0x88A DUP2 PUSH2 0x7D2 JUMP JUMPDEST SWAP1 POP SWAP2 SWAP1 POP JUMP JUMPDEST PUSH1 0x0 PUSH1 0x20 DUP3 ADD SWAP1 POP PUSH2 0x8A6 PUSH1 0x0 DUP4 ADD DUP5 PUSH2 0x812 JUMP JUMPDEST SWAP3 SWAP2 POP POP JUMP JUMPDEST PUSH1 0x0 PUSH1 0x40 MLOAD SWAP1 POP DUP2 DUP2 ADD DUP2 DUP2 LT PUSH8 0xFFFFFFFFFFFFFFFF DUP3 GT OR ISZERO PUSH2 0x8D3 JUMPI PUSH2 0x8D2 PUSH2 0xBE3 JUMP JUMPDEST JUMPDEST DUP1 PUSH1 0x40 MSTORE POP SWAP2 SWAP1 POP JUMP JUMPDEST PUSH1 0x0 PUSH8 0xFFFFFFFFFFFFFFFF DUP3 GT ISZERO PUSH2 0x8F8 JUMPI PUSH2 0x8F7 PUSH2 0xBE3 JUMP JUMPDEST JUMPDEST PUSH1 0x1F NOT PUSH1 0x1F DUP4 ADD AND SWAP1 POP PUSH1 0x20 DUP2 ADD SWAP1 POP SWAP2 SWAP1 POP JUMP JUMPDEST PUSH1 0x0 DUP2 SWAP1 POP DUP2 PUSH1 0x0 MSTORE PUSH1 0x20 PUSH1 0x0 KECCAK256 SWAP1 POP SWAP2 SWAP1 POP JUMP JUMPDEST PUSH1 0x0 DUP2 MLOAD SWAP1 POP SWAP2 SWAP1 POP JUMP JUMPDEST PUSH1 0x0 DUP3 DUP3 MSTORE PUSH1 0x20 DUP3 ADD SWAP1 POP SWAP3 SWAP2 POP POP JUMP JUMPDEST PUSH1 0x0 DUP2 SWAP1 POP SWAP3 SWAP2 POP POP JUMP JUMPDEST PUSH1 0x0 PUSH2 0x954 DUP3 PUSH2 0xA5E JUMP JUMPDEST SWAP2 POP PUSH2 0x95F DUP4 PUSH2 0xA5E JUMP JUMPDEST SWAP3 POP DUP3 PUSH32 0xFFFFFFFFFFFFFFFFFFFFFFFFFFFFFFFFFFFFFFFFFFFFFFFFFFFFFFFFFFFFFFFF SUB DUP3 GT ISZERO PUSH2 0x994 JUMPI PUSH2 0x993 PUSH2 0xB56 JUMP JUMPDEST JUMPDEST DUP3 DUP3 ADD SWAP1 POP SWAP3 SWAP2 POP POP JUMP JUMPDEST PUSH1 0x0 PUSH2 0x9AA DUP3 PUSH2 0xA5E JUMP JUMPDEST SWAP2 POP PUSH2 0x9B5 DUP4 PUSH2 0xA5E JUMP JUMPDEST SWAP3 POP DUP3 PUSH2 0x9C5 JUMPI PUSH2 0x9C4 PUSH2 0xB85 JUMP JUMPDEST JUMPDEST DUP3 DUP3 DIV SWAP1 POP SWAP3 SWAP2 POP POP JUMP JUMPDEST PUSH1 0x0 PUSH2 0x9DB DUP3 PUSH2 0xA5E JUMP JUMPDEST SWAP2 POP PUSH2 0x9E6 DUP4 PUSH2 0xA5E JUMP JUMPDEST SWAP3 POP DUP2 PUSH32 0xFFFFFFFFFFFFFFFFFFFFFFFFFFFFFFFFFFFFFFFFFFFFFFFFFFFFFFFFFFFFFFFF DIV DUP4 GT DUP3 ISZERO ISZERO AND ISZERO PUSH2 0xA1F JUMPI PUSH2 0xA1E PUSH2 0xB56 JUMP JUMPDEST JUMPDEST DUP3 DUP3 MUL SWAP1 POP SWAP3 SWAP2 POP POP JUMP JUMPDEST PUSH1 0x0 PUSH2 0xA35 DUP3 PUSH2 0xA5E JUMP JUMPDEST SWAP2 POP PUSH2 0xA40 DUP4 PUSH2 0xA5E JUMP JUMPDEST SWAP3 POP DUP3 DUP3 LT ISZERO PUSH2 0xA53 JUMPI PUSH2 0xA52 PUSH2 0xB56 JUMP JUMPDEST JUMPDEST DUP3 DUP3 SUB SWAP1 POP SWAP3 SWAP2 POP POP JUMP JUMPDEST PUSH1 0x0 DUP2 SWAP1 POP SWAP2 SWAP1 POP JUMP JUMPDEST DUP3 DUP2 DUP4 CALLDATACOPY PUSH1 0x0 DUP4 DUP4 ADD MSTORE POP POP POP JUMP JUMPDEST PUSH1 0x0 JUMPDEST DUP4 DUP2 LT ISZERO PUSH2 0xA95 JUMPI DUP1 DUP3 ADD MLOAD DUP2 DUP5 ADD MSTORE PUSH1 0x20 DUP2 ADD SWAP1 POP PUSH2 0xA7A JUMP JUMPDEST DUP4 DUP2 GT ISZERO PUSH2 0xAA4 JUMPI PUSH1 0x0 DUP5 DUP5 ADD MSTORE JUMPDEST POP POP POP POP JUMP JUMPDEST PUSH1 0x0 PUSH1 0x2 DUP3 DIV SWAP1 POP PUSH1 0x1 DUP3 AND DUP1 PUSH2 0xAC2 JUMPI PUSH1 0x7F DUP3 AND SWAP2 POP JUMPDEST PUSH1 0x20 DUP3 LT DUP2 EQ ISZERO PUSH2 0xAD6 JUMPI PUSH2 0xAD5 PUSH2 0xBB4 JUMP JUMPDEST JUMPDEST POP SWAP2 SWAP1 POP JUMP JUMPDEST PUSH1 0x0 PUSH2 0xAE7 DUP3 PUSH2 0xA5E JUMP JUMPDEST SWAP2 POP PUSH32 0xFFFFFFFFFFFFFFFFFFFFFFFFFFFFFFFFFFFFFFFFFFFFFFFFFFFFFFFFFFFFFFFF DUP3 EQ ISZERO PUSH2 0xB1A JUMPI PUSH2 0xB19 PUSH2 0xB56 JUMP JUMPDEST JUMPDEST PUSH1 0x1 DUP3 ADD SWAP1 POP SWAP2 SWAP1 POP JUMP JUMPDEST PUSH1 0x0 PUSH2 0xB30 DUP3 PUSH2 0xA5E JUMP JUMPDEST SWAP2 POP PUSH2 0xB3B DUP4 PUSH2 0xA5E JUMP JUMPDEST SWAP3 POP DUP3 PUSH2 0xB4B JUMPI PUSH2 0xB4A PUSH2 0xB85 JUMP JUMPDEST JUMPDEST DUP3 DUP3 MOD SWAP1 POP SWAP3 SWAP2 POP POP JUMP JUMPDEST PUSH32 0x4E487B7100000000000000000000000000000000000000000000000000000000 PUSH1 0x0 MSTORE PUSH1 0x11 PUSH1 0x4 MSTORE PUSH1 0x24 PUSH1 0x0 REVERT JUMPDEST PUSH32 0x4E487B7100000000000000000000000000000000000000000000000000000000 PUSH1 0x0 MSTORE PUSH1 0x12 PUSH1 0x4 MSTORE PUSH1 0x24 PUSH1 0x0 REVERT JUMPDEST PUSH32 0x4E487B7100000000000000000000000000000000000000000000000000000000 PUSH1 0x0 MSTORE PUSH1 0x22 PUSH1 0x4 MSTORE PUSH1 0x24 PUSH1 0x0 REVERT JUMPDEST PUSH32 0x4E487B7100000000000000000000000000000000000000000000000000000000 PUSH1 0x0 MSTORE PUSH1 0x41 PUSH1 0x4 MSTORE PUSH1 0x24 PUSH1 0x0 REVERT JUMPDEST PUSH1 0x0 PUSH1 0x1F NOT PUSH1 0x1F DUP4 ADD AND SWAP1 POP SWAP2 SWAP1 POP JUMP INVALID LOG2 PUSH5 0x6970667358 0x22 SLT KECCAK256 0x2F 0x4E 0xA5 BLOCKHASH 0xBC 0xEB LOG2 SWAP7 0xC6 ORIGIN SWAP6 0xE2 SWAP8 BLOCKHASH 0xE0 0xAB ADD 0xB3 0xB7 0x29 0xAD 0xF7 0xE1 0x24 SWAP8 0xB7 0xE PUSH19 0x48F4BA864736F6C6343000800003300000000 "
		},
		"gasEstimates": {
			"creation": {
				"codeDepositCost": "632200",
				"executionCost": "infinite",
				"totalCost": "infinite"
			},
			"external": {
				"calculateSecret(string)": "infinite",
				"checkpoint()": "1151",
				"isEqual(string)": "infinite"
			}
		},
		"methodIdentifiers": {
			"calculateSecret(string)": "52d83c9f",
			"checkpoint()": "c2c4c5c1",
			"isEqual(string)": "4048dbc2"
		}
	},
	"abi": [
		{
			"inputs": [
				{
					"internalType": "string",
					"name": "_flag",
					"type": "string"
				}
			],
			"stateMutability": "nonpayable",
			"type": "constructor"
		},
		{
			"inputs": [
				{
					"internalType": "string",
					"name": "str",
					"type": "string"
				}
			],
			"name": "calculateSecret",
			"outputs": [],
			"stateMutability": "nonpayable",
			"type": "function"
		},
		{
			"inputs": [],
			"name": "checkpoint",
			"outputs": [
				{
					"internalType": "uint256",
					"name": "",
					"type": "uint256"
				}
			],
			"stateMutability": "view",
			"type": "function"
		},
		{
			"inputs": [
				{
					"internalType": "string",
					"name": "str",
					"type": "string"
				}
			],
			"name": "isEqual",
			"outputs": [
				{
					"internalType": "string",
					"name": "",
					"type": "string"
				}
			],
			"stateMutability": "view",
			"type": "function"
		}
	]
}