{
	"data": {
		"bytecode": {
			"linkReferences": {},
			"object": "608060405260405162000cf738038062000cf783398181016040528101906200002991906200020d565b80600190816200003a919062000493565b505f80819055505f60025f6101000a81548173ffffffffffffffffffffffffffffffffffffffff021916908373ffffffffffffffffffffffffffffffffffffffff1602179055505062000577565b5f604051905090565b5f80fd5b5f80fd5b5f80fd5b5f80fd5b5f601f19601f8301169050919050565b7f4e487b71000000000000000000000000000000000000000000000000000000005f52604160045260245ffd5b620000e982620000a1565b810181811067ffffffffffffffff821117156200010b576200010a620000b1565b5b80604052505050565b5f6200011f62000088565b90506200012d8282620000de565b919050565b5f67ffffffffffffffff8211156200014f576200014e620000b1565b5b6200015a82620000a1565b9050602081019050919050565b5f5b838110156200018657808201518184015260208101905062000169565b5f8484015250505050565b5f620001a7620001a18462000132565b62000114565b905082815260208101848484011115620001c657620001c56200009d565b5b620001d384828562000167565b509392505050565b5f82601f830112620001f257620001f162000099565b5b81516200020484826020860162000191565b91505092915050565b5f6020828403121562000225576200022462000091565b5b5f82015167ffffffffffffffff81111562000245576200024462000095565b5b6200025384828501620001db565b91505092915050565b5f81519050919050565b7f4e487b71000000000000000000000000000000000000000000000000000000005f52602260045260245ffd5b5f6002820490506001821680620002ab57607f821691505b602082108103620002c157620002c062000266565b5b50919050565b5f819050815f5260205f209050919050565b5f6020601f8301049050919050565b5f82821b905092915050565b5f60088302620003257fffffffffffffffffffffffffffffffffffffffffffffffffffffffffffffffff82620002e8565b620003318683620002e8565b95508019841693508086168417925050509392505050565b5f819050919050565b5f819050919050565b5f6200037b620003756200036f8462000349565b62000352565b62000349565b9050919050565b5f819050919050565b62000396836200035b565b620003ae620003a58262000382565b848454620002f4565b825550505050565b5f90565b620003c4620003b6565b620003d18184846200038b565b505050565b5b81811015620003f857620003ec5f82620003ba565b600181019050620003d7565b5050565b601f82111562000447576200041181620002c7565b6200041c84620002d9565b810160208510156200042c578190505b620004446200043b85620002d9565b830182620003d6565b50505b505050565b5f82821c905092915050565b5f620004695f19846008026200044c565b1980831691505092915050565b5f62000483838362000458565b9150826002028217905092915050565b6200049e826200025c565b67ffffffffffffffff811115620004ba57620004b9620000b1565b5b620004c6825462000293565b620004d3828285620003fc565b5f60209050601f83116001811462000509575f8415620004f4578287015190505b62000500858262000476565b8655506200056f565b601f1984166200051986620002c7565b5f5b8281101562000542578489015182556001820191506020850194506020810190506200051b565b868310156200056257848901516200055e601f89168262000458565b8355505b6001600288020188555050505b505050505050565b61077280620005855f395ff3fe608060405234801561000f575f80fd5b506004361061004a575f3560e01c8063446957f71461004e578063e6f334d71461006a578063f963393014610088578063fe188184146100a6575b5f80fd5b61006860048036038101906100639190610377565b6100c4565b005b6100726101e9565b60405161007f91906103b1565b60405180910390f35b6100906101ee565b60405161009d9190610454565b60405180910390f35b6100ae61031b565b6040516100bb91906104b3565b60405180910390f35b5f6001436100d291906104f9565b40426040516020016100e5929190610575565b604051602081830303815290604052805190602001205f1c90505f6002838361010e91906105a0565b6101189190610600565b90505f81036101dd573373ffffffffffffffffffffffffffffffffffffffff1660025f9054906101000a900473ffffffffffffffffffffffffffffffffffffffff1673ffffffffffffffffffffffffffffffffffffffff1603610190575f8081548092919061018690610630565b91905055506101d8565b60015f819055503360025f6101000a81548173ffffffffffffffffffffffffffffffffffffffff021916908373ffffffffffffffffffffffffffffffffffffffff1602179055505b6101e4565b5f80819055505b505050565b5f5481565b6060600a5f541015801561024e57503373ffffffffffffffffffffffffffffffffffffffff1660025f9054906101000a900473ffffffffffffffffffffffffffffffffffffffff1673ffffffffffffffffffffffffffffffffffffffff16145b61028d576040517f08c379a0000000000000000000000000000000000000000000000000000000008152600401610284906106c1565b60405180910390fd5b6001805461029a9061070c565b80601f01602080910402602001604051908101604052809291908181526020018280546102c69061070c565b80156103115780601f106102e857610100808354040283529160200191610311565b820191905f5260205f20905b8154815290600101906020018083116102f457829003601f168201915b5050505050905090565b60025f9054906101000a900473ffffffffffffffffffffffffffffffffffffffff1681565b5f80fd5b5f819050919050565b61035681610344565b8114610360575f80fd5b50565b5f813590506103718161034d565b92915050565b5f6020828403121561038c5761038b610340565b5b5f61039984828501610363565b91505092915050565b6103ab81610344565b82525050565b5f6020820190506103c45f8301846103a2565b92915050565b5f81519050919050565b5f82825260208201905092915050565b5f5b838110156104015780820151818401526020810190506103e6565b5f8484015250505050565b5f601f19601f8301169050919050565b5f610426826103ca565b61043081856103d4565b93506104408185602086016103e4565b6104498161040c565b840191505092915050565b5f6020820190508181035f83015261046c818461041c565b905092915050565b5f73ffffffffffffffffffffffffffffffffffffffff82169050919050565b5f61049d82610474565b9050919050565b6104ad81610493565b82525050565b5f6020820190506104c65f8301846104a4565b92915050565b7f4e487b71000000000000000000000000000000000000000000000000000000005f52601160045260245ffd5b5f61050382610344565b915061050e83610344565b9250828203905081811115610526576105256104cc565b5b92915050565b5f819050919050565b5f819050919050565b61054f61054a8261052c565b610535565b82525050565b5f819050919050565b61056f61056a82610344565b610555565b82525050565b5f610580828561053e565b602082019150610590828461055e565b6020820191508190509392505050565b5f6105aa82610344565b91506105b583610344565b92508282019050808211156105cd576105cc6104cc565b5b92915050565b7f4e487b71000000000000000000000000000000000000000000000000000000005f52601260045260245ffd5b5f61060a82610344565b915061061583610344565b925082610625576106246105d3565b5b828206905092915050565b5f61063a82610344565b91507fffffffffffffffffffffffffffffffffffffffffffffffffffffffffffffffff820361066c5761066b6104cc565b5b600182019050919050565b7f4e6f7420656c696769626c6520666f7220666c616700000000000000000000005f82015250565b5f6106ab6015836103d4565b91506106b682610677565b602082019050919050565b5f6020820190508181035f8301526106d88161069f565b9050919050565b7f4e487b71000000000000000000000000000000000000000000000000000000005f52602260045260245ffd5b5f600282049050600182168061072357607f821691505b602082108103610736576107356106df565b5b5091905056fea2646970667358221220e29bb678f9b155a93102ad663bbce1b76cf9b96a68fcf9c4d1a6435d89c08e0d64736f6c63430008170033",
			"opcodes": "PUSH1 0x80 PUSH1 0x40 MSTORE PUSH1 0x40 MLOAD PUSH3 0xCF7 CODESIZE SUB DUP1 PUSH3 0xCF7 DUP4 CODECOPY DUP2 DUP2 ADD PUSH1 0x40 MSTORE DUP2 ADD SWAP1 PUSH3 0x29 SWAP2 SWAP1 PUSH3 0x20D JUMP JUMPDEST DUP1 PUSH1 0x1 SWAP1 DUP2 PUSH3 0x3A SWAP2 SWAP1 PUSH3 0x493 JUMP JUMPDEST POP PUSH0 DUP1 DUP2 SWAP1 SSTORE POP PUSH0 PUSH1 0x2 PUSH0 PUSH2 0x100 EXP DUP2 SLOAD DUP2 PUSH20 0xFFFFFFFFFFFFFFFFFFFFFFFFFFFFFFFFFFFFFFFF MUL NOT AND SWAP1 DUP4 PUSH20 0xFFFFFFFFFFFFFFFFFFFFFFFFFFFFFFFFFFFFFFFF AND MUL OR SWAP1 SSTORE POP POP PUSH3 0x577 JUMP JUMPDEST PUSH0 PUSH1 0x40 MLOAD SWAP1 POP SWAP1 JUMP JUMPDEST PUSH0 DUP1 REVERT JUMPDEST PUSH0 DUP1 REVERT JUMPDEST PUSH0 DUP1 REVERT JUMPDEST PUSH0 DUP1 REVERT JUMPDEST PUSH0 PUSH1 0x1F NOT PUSH1 0x1F DUP4 ADD AND SWAP1 POP SWAP2 SWAP1 POP JUMP JUMPDEST PUSH32 0x4E487B7100000000000000000000000000000000000000000000000000000000 PUSH0 MSTORE PUSH1 0x41 PUSH1 0x4 MSTORE PUSH1 0x24 PUSH0 REVERT JUMPDEST PUSH3 0xE9 DUP3 PUSH3 0xA1 JUMP JUMPDEST DUP2 ADD DUP2 DUP2 LT PUSH8 0xFFFFFFFFFFFFFFFF DUP3 GT OR ISZERO PUSH3 0x10B JUMPI PUSH3 0x10A PUSH3 0xB1 JUMP JUMPDEST JUMPDEST DUP1 PUSH1 0x40 MSTORE POP POP POP JUMP JUMPDEST PUSH0 PUSH3 0x11F PUSH3 0x88 JUMP JUMPDEST SWAP1 POP PUSH3 0x12D DUP3 DUP3 PUSH3 0xDE JUMP JUMPDEST SWAP2 SWAP1 POP JUMP JUMPDEST PUSH0 PUSH8 0xFFFFFFFFFFFFFFFF DUP3 GT ISZERO PUSH3 0x14F JUMPI PUSH3 0x14E PUSH3 0xB1 JUMP JUMPDEST JUMPDEST PUSH3 0x15A DUP3 PUSH3 0xA1 JUMP JUMPDEST SWAP1 POP PUSH1 0x20 DUP2 ADD SWAP1 POP SWAP2 SWAP1 POP JUMP JUMPDEST PUSH0 JUMPDEST DUP4 DUP2 LT ISZERO PUSH3 0x186 JUMPI DUP1 DUP3 ADD MLOAD DUP2 DUP5 ADD MSTORE PUSH1 0x20 DUP2 ADD SWAP1 POP PUSH3 0x169 JUMP JUMPDEST PUSH0 DUP5 DUP5 ADD MSTORE POP POP POP POP JUMP JUMPDEST PUSH0 PUSH3 0x1A7 PUSH3 0x1A1 DUP5 PUSH3 0x132 JUMP JUMPDEST PUSH3 0x114 JUMP JUMPDEST SWAP1 POP DUP3 DUP2 MSTORE PUSH1 0x20 DUP2 ADD DUP5 DUP5 DUP5 ADD GT ISZERO PUSH3 0x1C6 JUMPI PUSH3 0x1C5 PUSH3 0x9D JUMP JUMPDEST JUMPDEST PUSH3 0x1D3 DUP5 DUP3 DUP6 PUSH3 0x167 JUMP JUMPDEST POP SWAP4 SWAP3 POP POP POP JUMP JUMPDEST PUSH0 DUP3 PUSH1 0x1F DUP4 ADD SLT PUSH3 0x1F2 JUMPI PUSH3 0x1F1 PUSH3 0x99 JUMP JUMPDEST JUMPDEST DUP2 MLOAD PUSH3 0x204 DUP5 DUP3 PUSH1 0x20 DUP7 ADD PUSH3 0x191 JUMP JUMPDEST SWAP2 POP POP SWAP3 SWAP2 POP POP JUMP JUMPDEST PUSH0 PUSH1 0x20 DUP3 DUP5 SUB SLT ISZERO PUSH3 0x225 JUMPI PUSH3 0x224 PUSH3 0x91 JUMP JUMPDEST JUMPDEST PUSH0 DUP3 ADD MLOAD PUSH8 0xFFFFFFFFFFFFFFFF DUP2 GT ISZERO PUSH3 0x245 JUMPI PUSH3 0x244 PUSH3 0x95 JUMP JUMPDEST JUMPDEST PUSH3 0x253 DUP5 DUP3 DUP6 ADD PUSH3 0x1DB JUMP JUMPDEST SWAP2 POP POP SWAP3 SWAP2 POP POP JUMP JUMPDEST PUSH0 DUP2 MLOAD SWAP1 POP SWAP2 SWAP1 POP JUMP JUMPDEST PUSH32 0x4E487B7100000000000000000000000000000000000000000000000000000000 PUSH0 MSTORE PUSH1 0x22 PUSH1 0x4 MSTORE PUSH1 0x24 PUSH0 REVERT JUMPDEST PUSH0 PUSH1 0x2 DUP3 DIV SWAP1 POP PUSH1 0x1 DUP3 AND DUP1 PUSH3 0x2AB JUMPI PUSH1 0x7F DUP3 AND SWAP2 POP JUMPDEST PUSH1 0x20 DUP3 LT DUP2 SUB PUSH3 0x2C1 JUMPI PUSH3 0x2C0 PUSH3 0x266 JUMP JUMPDEST JUMPDEST POP SWAP2 SWAP1 POP JUMP JUMPDEST PUSH0 DUP2 SWAP1 POP DUP2 PUSH0 MSTORE PUSH1 0x20 PUSH0 KECCAK256 SWAP1 POP SWAP2 SWAP1 POP JUMP JUMPDEST PUSH0 PUSH1 0x20 PUSH1 0x1F DUP4 ADD DIV SWAP1 POP SWAP2 SWAP1 POP JUMP JUMPDEST PUSH0 DUP3 DUP3 SHL SWAP1 POP SWAP3 SWAP2 POP POP JUMP JUMPDEST PUSH0 PUSH1 0x8 DUP4 MUL PUSH3 0x325 PUSH32 0xFFFFFFFFFFFFFFFFFFFFFFFFFFFFFFFFFFFFFFFFFFFFFFFFFFFFFFFFFFFFFFFF DUP3 PUSH3 0x2E8 JUMP JUMPDEST PUSH3 0x331 DUP7 DUP4 PUSH3 0x2E8 JUMP JUMPDEST SWAP6 POP DUP1 NOT DUP5 AND SWAP4 POP DUP1 DUP7 AND DUP5 OR SWAP3 POP POP POP SWAP4 SWAP3 POP POP POP JUMP JUMPDEST PUSH0 DUP2 SWAP1 POP SWAP2 SWAP1 POP JUMP JUMPDEST PUSH0 DUP2 SWAP1 POP SWAP2 SWAP1 POP JUMP JUMPDEST PUSH0 PUSH3 0x37B PUSH3 0x375 PUSH3 0x36F DUP5 PUSH3 0x349 JUMP JUMPDEST PUSH3 0x352 JUMP JUMPDEST PUSH3 0x349 JUMP JUMPDEST SWAP1 POP SWAP2 SWAP1 POP JUMP JUMPDEST PUSH0 DUP2 SWAP1 POP SWAP2 SWAP1 POP JUMP JUMPDEST PUSH3 0x396 DUP4 PUSH3 0x35B JUMP JUMPDEST PUSH3 0x3AE PUSH3 0x3A5 DUP3 PUSH3 0x382 JUMP JUMPDEST DUP5 DUP5 SLOAD PUSH3 0x2F4 JUMP JUMPDEST DUP3 SSTORE POP POP POP POP JUMP JUMPDEST PUSH0 SWAP1 JUMP JUMPDEST PUSH3 0x3C4 PUSH3 0x3B6 JUMP JUMPDEST PUSH3 0x3D1 DUP2 DUP5 DUP5 PUSH3 0x38B JUMP JUMPDEST POP POP POP JUMP JUMPDEST JUMPDEST DUP2 DUP2 LT ISZERO PUSH3 0x3F8 JUMPI PUSH3 0x3EC PUSH0 DUP3 PUSH3 0x3BA JUMP JUMPDEST PUSH1 0x1 DUP2 ADD SWAP1 POP PUSH3 0x3D7 JUMP JUMPDEST POP POP JUMP JUMPDEST PUSH1 0x1F DUP3 GT ISZERO PUSH3 0x447 JUMPI PUSH3 0x411 DUP2 PUSH3 0x2C7 JUMP JUMPDEST PUSH3 0x41C DUP5 PUSH3 0x2D9 JUMP JUMPDEST DUP2 ADD PUSH1 0x20 DUP6 LT ISZERO PUSH3 0x42C JUMPI DUP2 SWAP1 POP JUMPDEST PUSH3 0x444 PUSH3 0x43B DUP6 PUSH3 0x2D9 JUMP JUMPDEST DUP4 ADD DUP3 PUSH3 0x3D6 JUMP JUMPDEST POP POP JUMPDEST POP POP POP JUMP JUMPDEST PUSH0 DUP3 DUP3 SHR SWAP1 POP SWAP3 SWAP2 POP POP JUMP JUMPDEST PUSH0 PUSH3 0x469 PUSH0 NOT DUP5 PUSH1 0x8 MUL PUSH3 0x44C JUMP JUMPDEST NOT DUP1 DUP4 AND SWAP2 POP POP SWAP3 SWAP2 POP POP JUMP JUMPDEST PUSH0 PUSH3 0x483 DUP4 DUP4 PUSH3 0x458 JUMP JUMPDEST SWAP2 POP DUP3 PUSH1 0x2 MUL DUP3 OR SWAP1 POP SWAP3 SWAP2 POP POP JUMP JUMPDEST PUSH3 0x49E DUP3 PUSH3 0x25C JUMP JUMPDEST PUSH8 0xFFFFFFFFFFFFFFFF DUP2 GT ISZERO PUSH3 0x4BA JUMPI PUSH3 0x4B9 PUSH3 0xB1 JUMP JUMPDEST JUMPDEST PUSH3 0x4C6 DUP3 SLOAD PUSH3 0x293 JUMP JUMPDEST PUSH3 0x4D3 DUP3 DUP3 DUP6 PUSH3 0x3FC JUMP JUMPDEST PUSH0 PUSH1 0x20 SWAP1 POP PUSH1 0x1F DUP4 GT PUSH1 0x1 DUP2 EQ PUSH3 0x509 JUMPI PUSH0 DUP5 ISZERO PUSH3 0x4F4 JUMPI DUP3 DUP8 ADD MLOAD SWAP1 POP JUMPDEST PUSH3 0x500 DUP6 DUP3 PUSH3 0x476 JUMP JUMPDEST DUP7 SSTORE POP PUSH3 0x56F JUMP JUMPDEST PUSH1 0x1F NOT DUP5 AND PUSH3 0x519 DUP7 PUSH3 0x2C7 JUMP JUMPDEST PUSH0 JUMPDEST DUP3 DUP2 LT ISZERO PUSH3 0x542 JUMPI DUP5 DUP10 ADD MLOAD DUP3 SSTORE PUSH1 0x1 DUP3 ADD SWAP2 POP PUSH1 0x20 DUP6 ADD SWAP5 POP PUSH1 0x20 DUP2 ADD SWAP1 POP PUSH3 0x51B JUMP JUMPDEST DUP7 DUP4 LT ISZERO PUSH3 0x562 JUMPI DUP5 DUP10 ADD MLOAD PUSH3 0x55E PUSH1 0x1F DUP10 AND DUP3 PUSH3 0x458 JUMP JUMPDEST DUP4 SSTORE POP JUMPDEST PUSH1 0x1 PUSH1 0x2 DUP9 MUL ADD DUP9 SSTORE POP POP POP JUMPDEST POP POP POP POP POP POP JUMP JUMPDEST PUSH2 0x772 DUP1 PUSH3 0x585 PUSH0 CODECOPY PUSH0 RETURN INVALID PUSH1 0x80 PUSH1 0x40 MSTORE CALLVALUE DUP1 ISZERO PUSH2 0xF JUMPI PUSH0 DUP1 REVERT JUMPDEST POP PUSH1 0x4 CALLDATASIZE LT PUSH2 0x4A JUMPI PUSH0 CALLDATALOAD PUSH1 0xE0 SHR DUP1 PUSH4 0x446957F7 EQ PUSH2 0x4E JUMPI DUP1 PUSH4 0xE6F334D7 EQ PUSH2 0x6A JUMPI DUP1 PUSH4 0xF9633930 EQ PUSH2 0x88 JUMPI DUP1 PUSH4 0xFE188184 EQ PUSH2 0xA6 JUMPI JUMPDEST PUSH0 DUP1 REVERT JUMPDEST PUSH2 0x68 PUSH1 0x4 DUP1 CALLDATASIZE SUB DUP2 ADD SWAP1 PUSH2 0x63 SWAP2 SWAP1 PUSH2 0x377 JUMP JUMPDEST PUSH2 0xC4 JUMP JUMPDEST STOP JUMPDEST PUSH2 0x72 PUSH2 0x1E9 JUMP JUMPDEST PUSH1 0x40 MLOAD PUSH2 0x7F SWAP2 SWAP1 PUSH2 0x3B1 JUMP JUMPDEST PUSH1 0x40 MLOAD DUP1 SWAP2 SUB SWAP1 RETURN JUMPDEST PUSH2 0x90 PUSH2 0x1EE JUMP JUMPDEST PUSH1 0x40 MLOAD PUSH2 0x9D SWAP2 SWAP1 PUSH2 0x454 JUMP JUMPDEST PUSH1 0x40 MLOAD DUP1 SWAP2 SUB SWAP1 RETURN JUMPDEST PUSH2 0xAE PUSH2 0x31B JUMP JUMPDEST PUSH1 0x40 MLOAD PUSH2 0xBB SWAP2 SWAP1 PUSH2 0x4B3 JUMP JUMPDEST PUSH1 0x40 MLOAD DUP1 SWAP2 SUB SWAP1 RETURN JUMPDEST PUSH0 PUSH1 0x1 NUMBER PUSH2 0xD2 SWAP2 SWAP1 PUSH2 0x4F9 JUMP JUMPDEST BLOCKHASH TIMESTAMP PUSH1 0x40 MLOAD PUSH1 0x20 ADD PUSH2 0xE5 SWAP3 SWAP2 SWAP1 PUSH2 0x575 JUMP JUMPDEST PUSH1 0x40 MLOAD PUSH1 0x20 DUP2 DUP4 SUB SUB DUP2 MSTORE SWAP1 PUSH1 0x40 MSTORE DUP1 MLOAD SWAP1 PUSH1 0x20 ADD KECCAK256 PUSH0 SHR SWAP1 POP PUSH0 PUSH1 0x2 DUP4 DUP4 PUSH2 0x10E SWAP2 SWAP1 PUSH2 0x5A0 JUMP JUMPDEST PUSH2 0x118 SWAP2 SWAP1 PUSH2 0x600 JUMP JUMPDEST SWAP1 POP PUSH0 DUP2 SUB PUSH2 0x1DD JUMPI CALLER PUSH20 0xFFFFFFFFFFFFFFFFFFFFFFFFFFFFFFFFFFFFFFFF AND PUSH1 0x2 PUSH0 SWAP1 SLOAD SWAP1 PUSH2 0x100 EXP SWAP1 DIV PUSH20 0xFFFFFFFFFFFFFFFFFFFFFFFFFFFFFFFFFFFFFFFF AND PUSH20 0xFFFFFFFFFFFFFFFFFFFFFFFFFFFFFFFFFFFFFFFF AND SUB PUSH2 0x190 JUMPI PUSH0 DUP1 DUP2 SLOAD DUP1 SWAP3 SWAP2 SWAP1 PUSH2 0x186 SWAP1 PUSH2 0x630 JUMP JUMPDEST SWAP2 SWAP1 POP SSTORE POP PUSH2 0x1D8 JUMP JUMPDEST PUSH1 0x1 PUSH0 DUP2 SWAP1 SSTORE POP CALLER PUSH1 0x2 PUSH0 PUSH2 0x100 EXP DUP2 SLOAD DUP2 PUSH20 0xFFFFFFFFFFFFFFFFFFFFFFFFFFFFFFFFFFFFFFFF MUL NOT AND SWAP1 DUP4 PUSH20 0xFFFFFFFFFFFFFFFFFFFFFFFFFFFFFFFFFFFFFFFF AND MUL OR SWAP1 SSTORE POP JUMPDEST PUSH2 0x1E4 JUMP JUMPDEST PUSH0 DUP1 DUP2 SWAP1 SSTORE POP JUMPDEST POP POP POP JUMP JUMPDEST PUSH0 SLOAD DUP2 JUMP JUMPDEST PUSH1 0x60 PUSH1 0xA PUSH0 SLOAD LT ISZERO DUP1 ISZERO PUSH2 0x24E JUMPI POP CALLER PUSH20 0xFFFFFFFFFFFFFFFFFFFFFFFFFFFFFFFFFFFFFFFF AND PUSH1 0x2 PUSH0 SWAP1 SLOAD SWAP1 PUSH2 0x100 EXP SWAP1 DIV PUSH20 0xFFFFFFFFFFFFFFFFFFFFFFFFFFFFFFFFFFFFFFFF AND PUSH20 0xFFFFFFFFFFFFFFFFFFFFFFFFFFFFFFFFFFFFFFFF AND EQ JUMPDEST PUSH2 0x28D JUMPI PUSH1 0x40 MLOAD PUSH32 0x8C379A000000000000000000000000000000000000000000000000000000000 DUP2 MSTORE PUSH1 0x4 ADD PUSH2 0x284 SWAP1 PUSH2 0x6C1 JUMP JUMPDEST PUSH1 0x40 MLOAD DUP1 SWAP2 SUB SWAP1 REVERT JUMPDEST PUSH1 0x1 DUP1 SLOAD PUSH2 0x29A SWAP1 PUSH2 0x70C JUMP JUMPDEST DUP1 PUSH1 0x1F ADD PUSH1 0x20 DUP1 SWAP2 DIV MUL PUSH1 0x20 ADD PUSH1 0x40 MLOAD SWAP1 DUP2 ADD PUSH1 0x40 MSTORE DUP1 SWAP3 SWAP2 SWAP1 DUP2 DUP2 MSTORE PUSH1 0x20 ADD DUP3 DUP1 SLOAD PUSH2 0x2C6 SWAP1 PUSH2 0x70C JUMP JUMPDEST DUP1 ISZERO PUSH2 0x311 JUMPI DUP1 PUSH1 0x1F LT PUSH2 0x2E8 JUMPI PUSH2 0x100 DUP1 DUP4 SLOAD DIV MUL DUP4 MSTORE SWAP2 PUSH1 0x20 ADD SWAP2 PUSH2 0x311 JUMP JUMPDEST DUP3 ADD SWAP2 SWAP1 PUSH0 MSTORE PUSH1 0x20 PUSH0 KECCAK256 SWAP1 JUMPDEST DUP2 SLOAD DUP2 MSTORE SWAP1 PUSH1 0x1 ADD SWAP1 PUSH1 0x20 ADD DUP1 DUP4 GT PUSH2 0x2F4 JUMPI DUP3 SWAP1 SUB PUSH1 0x1F AND DUP3 ADD SWAP2 JUMPDEST POP POP POP POP POP SWAP1 POP SWAP1 JUMP JUMPDEST PUSH1 0x2 PUSH0 SWAP1 SLOAD SWAP1 PUSH2 0x100 EXP SWAP1 DIV PUSH20 0xFFFFFFFFFFFFFFFFFFFFFFFFFFFFFFFFFFFFFFFF AND DUP2 JUMP JUMPDEST PUSH0 DUP1 REVERT JUMPDEST PUSH0 DUP2 SWAP1 POP SWAP2 SWAP1 POP JUMP JUMPDEST PUSH2 0x356 DUP2 PUSH2 0x344 JUMP JUMPDEST DUP2 EQ PUSH2 0x360 JUMPI PUSH0 DUP1 REVERT JUMPDEST POP JUMP JUMPDEST PUSH0 DUP2 CALLDATALOAD SWAP1 POP PUSH2 0x371 DUP2 PUSH2 0x34D JUMP JUMPDEST SWAP3 SWAP2 POP POP JUMP JUMPDEST PUSH0 PUSH1 0x20 DUP3 DUP5 SUB SLT ISZERO PUSH2 0x38C JUMPI PUSH2 0x38B PUSH2 0x340 JUMP JUMPDEST JUMPDEST PUSH0 PUSH2 0x399 DUP5 DUP3 DUP6 ADD PUSH2 0x363 JUMP JUMPDEST SWAP2 POP POP SWAP3 SWAP2 POP POP JUMP JUMPDEST PUSH2 0x3AB DUP2 PUSH2 0x344 JUMP JUMPDEST DUP3 MSTORE POP POP JUMP JUMPDEST PUSH0 PUSH1 0x20 DUP3 ADD SWAP1 POP PUSH2 0x3C4 PUSH0 DUP4 ADD DUP5 PUSH2 0x3A2 JUMP JUMPDEST SWAP3 SWAP2 POP POP JUMP JUMPDEST PUSH0 DUP2 MLOAD SWAP1 POP SWAP2 SWAP1 POP JUMP JUMPDEST PUSH0 DUP3 DUP3 MSTORE PUSH1 0x20 DUP3 ADD SWAP1 POP SWAP3 SWAP2 POP POP JUMP JUMPDEST PUSH0 JUMPDEST DUP4 DUP2 LT ISZERO PUSH2 0x401 JUMPI DUP1 DUP3 ADD MLOAD DUP2 DUP5 ADD MSTORE PUSH1 0x20 DUP2 ADD SWAP1 POP PUSH2 0x3E6 JUMP JUMPDEST PUSH0 DUP5 DUP5 ADD MSTORE POP POP POP POP JUMP JUMPDEST PUSH0 PUSH1 0x1F NOT PUSH1 0x1F DUP4 ADD AND SWAP1 POP SWAP2 SWAP1 POP JUMP JUMPDEST PUSH0 PUSH2 0x426 DUP3 PUSH2 0x3CA JUMP JUMPDEST PUSH2 0x430 DUP2 DUP6 PUSH2 0x3D4 JUMP JUMPDEST SWAP4 POP PUSH2 0x440 DUP2 DUP6 PUSH1 0x20 DUP7 ADD PUSH2 0x3E4 JUMP JUMPDEST PUSH2 0x449 DUP2 PUSH2 0x40C JUMP JUMPDEST DUP5 ADD SWAP2 POP POP SWAP3 SWAP2 POP POP JUMP JUMPDEST PUSH0 PUSH1 0x20 DUP3 ADD SWAP1 POP DUP2 DUP2 SUB PUSH0 DUP4 ADD MSTORE PUSH2 0x46C DUP2 DUP5 PUSH2 0x41C JUMP JUMPDEST SWAP1 POP SWAP3 SWAP2 POP POP JUMP JUMPDEST PUSH0 PUSH20 0xFFFFFFFFFFFFFFFFFFFFFFFFFFFFFFFFFFFFFFFF DUP3 AND SWAP1 POP SWAP2 SWAP1 POP JUMP JUMPDEST PUSH0 PUSH2 0x49D DUP3 PUSH2 0x474 JUMP JUMPDEST SWAP1 POP SWAP2 SWAP1 POP JUMP JUMPDEST PUSH2 0x4AD DUP2 PUSH2 0x493 JUMP JUMPDEST DUP3 MSTORE POP POP JUMP JUMPDEST PUSH0 PUSH1 0x20 DUP3 ADD SWAP1 POP PUSH2 0x4C6 PUSH0 DUP4 ADD DUP5 PUSH2 0x4A4 JUMP JUMPDEST SWAP3 SWAP2 POP POP JUMP JUMPDEST PUSH32 0x4E487B7100000000000000000000000000000000000000000000000000000000 PUSH0 MSTORE PUSH1 0x11 PUSH1 0x4 MSTORE PUSH1 0x24 PUSH0 REVERT JUMPDEST PUSH0 PUSH2 0x503 DUP3 PUSH2 0x344 JUMP JUMPDEST SWAP2 POP PUSH2 0x50E DUP4 PUSH2 0x344 JUMP JUMPDEST SWAP3 POP DUP3 DUP3 SUB SWAP1 POP DUP2 DUP2 GT ISZERO PUSH2 0x526 JUMPI PUSH2 0x525 PUSH2 0x4CC JUMP JUMPDEST JUMPDEST SWAP3 SWAP2 POP POP JUMP JUMPDEST PUSH0 DUP2 SWAP1 POP SWAP2 SWAP1 POP JUMP JUMPDEST PUSH0 DUP2 SWAP1 POP SWAP2 SWAP1 POP JUMP JUMPDEST PUSH2 0x54F PUSH2 0x54A DUP3 PUSH2 0x52C JUMP JUMPDEST PUSH2 0x535 JUMP JUMPDEST DUP3 MSTORE POP POP JUMP JUMPDEST PUSH0 DUP2 SWAP1 POP SWAP2 SWAP1 POP JUMP JUMPDEST PUSH2 0x56F PUSH2 0x56A DUP3 PUSH2 0x344 JUMP JUMPDEST PUSH2 0x555 JUMP JUMPDEST DUP3 MSTORE POP POP JUMP JUMPDEST PUSH0 PUSH2 0x580 DUP3 DUP6 PUSH2 0x53E JUMP JUMPDEST PUSH1 0x20 DUP3 ADD SWAP2 POP PUSH2 0x590 DUP3 DUP5 PUSH2 0x55E JUMP JUMPDEST PUSH1 0x20 DUP3 ADD SWAP2 POP DUP2 SWAP1 POP SWAP4 SWAP3 POP POP POP JUMP JUMPDEST PUSH0 PUSH2 0x5AA DUP3 PUSH2 0x344 JUMP JUMPDEST SWAP2 POP PUSH2 0x5B5 DUP4 PUSH2 0x344 JUMP JUMPDEST SWAP3 POP DUP3 DUP3 ADD SWAP1 POP DUP1 DUP3 GT ISZERO PUSH2 0x5CD JUMPI PUSH2 0x5CC PUSH2 0x4CC JUMP JUMPDEST JUMPDEST SWAP3 SWAP2 POP POP JUMP JUMPDEST PUSH32 0x4E487B7100000000000000000000000000000000000000000000000000000000 PUSH0 MSTORE PUSH1 0x12 PUSH1 0x4 MSTORE PUSH1 0x24 PUSH0 REVERT JUMPDEST PUSH0 PUSH2 0x60A DUP3 PUSH2 0x344 JUMP JUMPDEST SWAP2 POP PUSH2 0x615 DUP4 PUSH2 0x344 JUMP JUMPDEST SWAP3 POP DUP3 PUSH2 0x625 JUMPI PUSH2 0x624 PUSH2 0x5D3 JUMP JUMPDEST JUMPDEST DUP3 DUP3 MOD SWAP1 POP SWAP3 SWAP2 POP POP JUMP JUMPDEST PUSH0 PUSH2 0x63A DUP3 PUSH2 0x344 JUMP JUMPDEST SWAP2 POP PUSH32 0xFFFFFFFFFFFFFFFFFFFFFFFFFFFFFFFFFFFFFFFFFFFFFFFFFFFFFFFFFFFFFFFF DUP3 SUB PUSH2 0x66C JUMPI PUSH2 0x66B PUSH2 0x4CC JUMP JUMPDEST JUMPDEST PUSH1 0x1 DUP3 ADD SWAP1 POP SWAP2 SWAP1 POP JUMP JUMPDEST PUSH32 0x4E6F7420656C696769626C6520666F7220666C61670000000000000000000000 PUSH0 DUP3 ADD MSTORE POP JUMP JUMPDEST PUSH0 PUSH2 0x6AB PUSH1 0x15 DUP4 PUSH2 0x3D4 JUMP JUMPDEST SWAP2 POP PUSH2 0x6B6 DUP3 PUSH2 0x677 JUMP JUMPDEST PUSH1 0x20 DUP3 ADD SWAP1 POP SWAP2 SWAP1 POP JUMP JUMPDEST PUSH0 PUSH1 0x20 DUP3 ADD SWAP1 POP DUP2 DUP2 SUB PUSH0 DUP4 ADD MSTORE PUSH2 0x6D8 DUP2 PUSH2 0x69F JUMP JUMPDEST SWAP1 POP SWAP2 SWAP1 POP JUMP JUMPDEST PUSH32 0x4E487B7100000000000000000000000000000000000000000000000000000000 PUSH0 MSTORE PUSH1 0x22 PUSH1 0x4 MSTORE PUSH1 0x24 PUSH0 REVERT JUMPDEST PUSH0 PUSH1 0x2 DUP3 DIV SWAP1 POP PUSH1 0x1 DUP3 AND DUP1 PUSH2 0x723 JUMPI PUSH1 0x7F DUP3 AND SWAP2 POP JUMPDEST PUSH1 0x20 DUP3 LT DUP2 SUB PUSH2 0x736 JUMPI PUSH2 0x735 PUSH2 0x6DF JUMP JUMPDEST JUMPDEST POP SWAP2 SWAP1 POP JUMP INVALID LOG2 PUSH5 0x6970667358 0x22 SLT KECCAK256 0xE2 SWAP12 0xB6 PUSH25 0xF9B155A93102AD663BBCE1B76CF9B96A68FCF9C4D1A6435D89 0xC0 DUP15 0xD PUSH5 0x736F6C6343 STOP ADDMOD OR STOP CALLER "
		},
		"gasEstimates": {
			"creation": {
				"codeDepositCost": "381200",
				"executionCost": "infinite",
				"totalCost": "infinite"
			},
			"external": {
				"consecutiveWins()": "2424",
				"evenOdd(uint256)": "infinite",
				"getFlag()": "infinite",
				"lastWinner()": "2552"
			}
		},
		"methodIdentifiers": {
			"consecutiveWins()": "e6f334d7",
			"evenOdd(uint256)": "446957f7",
			"getFlag()": "f9633930",
			"lastWinner()": "fe188184"
		}
	},
	"abi": [
		{
			"inputs": [
				{
					"internalType": "string",
					"name": "_flag",
					"type": "string"
				}
			],
			"stateMutability": "payable",
			"type": "constructor"
		},
		{
			"inputs": [],
			"name": "consecutiveWins",
			"outputs": [
				{
					"internalType": "uint256",
					"name": "",
					"type": "uint256"
				}
			],
			"stateMutability": "view",
			"type": "function"
		},
		{
			"inputs": [
				{
					"internalType": "uint256",
					"name": "_yourChoice",
					"type": "uint256"
				}
			],
			"name": "evenOdd",
			"outputs": [],
			"stateMutability": "nonpayable",
			"type": "function"
		},
		{
			"inputs": [],
			"name": "getFlag",
			"outputs": [
				{
					"internalType": "string",
					"name": "",
					"type": "string"
				}
			],
			"stateMutability": "view",
			"type": "function"
		},
		{
			"inputs": [],
			"name": "lastWinner",
			"outputs": [
				{
					"internalType": "address",
					"name": "",
					"type": "address"
				}
			],
			"stateMutability": "view",
			"type": "function"
		}
	]
}