{
	"randomData/chainlinkRandom.sol": {
		"MyVRFConsumer": {
			"abi": [
				{
					"inputs": [],
					"stateMutability": "nonpayable",
					"type": "constructor"
				},
				{
					"inputs": [],
					"name": "getRandomNumber",
					"outputs": [
						{
							"internalType": "bytes32",
							"name": "requestId",
							"type": "bytes32"
						}
					],
					"stateMutability": "nonpayable",
					"type": "function"
				},
				{
					"inputs": [],
					"name": "randomResult",
					"outputs": [
						{
							"internalType": "uint256",
							"name": "",
							"type": "uint256"
						}
					],
					"stateMutability": "view",
					"type": "function"
				},
				{
					"inputs": [
						{
							"internalType": "bytes32",
							"name": "requestId",
							"type": "bytes32"
						},
						{
							"internalType": "uint256",
							"name": "randomness",
							"type": "uint256"
						}
					],
					"name": "rawFulfillRandomness",
					"outputs": [],
					"stateMutability": "nonpayable",
					"type": "function"
				}
			],
			"devdoc": {
				"kind": "dev",
				"methods": {},
				"version": 1
			},
			"evm": {
				"assembly": "    /* \"randomData/chainlinkRandom.sol\":90:1041  contract MyVRFConsumer is VRFConsumerBase {... */\n  mstore(0x40, 0xc0)\n    /* \"randomData/chainlinkRandom.sol\":233:594  constructor() ... */\n  callvalue\n  dup1\n  iszero\n  tag_1\n  jumpi\n  0x00\n  dup1\n  revert\ntag_1:\n  pop\n    /* \"randomData/chainlinkRandom.sol\":287:329  0x8103B0A8A00be2DDC778e6e7eaa21791Cd364625 */\n  0x8103b0a8a00be2ddc778e6e7eaa21791cd364625\n    /* \"randomData/chainlinkRandom.sol\":363:405  0x779877A7B0D9E8603169DdbD7836e478b4624789 */\n  0x779877a7b0d9e8603169ddbd7836e478b4624789\n    /* \"@chainlink/contracts/src/v0.8/VRFConsumerBase.sol\":9323:9338  _vrfCoordinator */\n  dup2\n    /* \"@chainlink/contracts/src/v0.8/VRFConsumerBase.sol\":9306:9338  vrfCoordinator = _vrfCoordinator */\n  0xffffffffffffffffffffffffffffffffffffffff\n  and\n  0xa0\n  dup2\n  0xffffffffffffffffffffffffffffffffffffffff\n  and\n  dup2\n  mstore\n  pop\n  pop\n    /* \"@chainlink/contracts/src/v0.8/VRFConsumerBase.sol\":9370:9375  _link */\n  dup1\n    /* \"@chainlink/contracts/src/v0.8/VRFConsumerBase.sol\":9344:9376  LINK = LinkTokenInterface(_link) */\n  0xffffffffffffffffffffffffffffffffffffffff\n  and\n  0x80\n  dup2\n  0xffffffffffffffffffffffffffffffffffffffff\n  and\n  dup2\n  mstore\n  pop\n  pop\n    /* \"@chainlink/contracts/src/v0.8/VRFConsumerBase.sol\":9248:9381  constructor(address _vrfCoordinator, address _link) {... */\n  pop\n  pop\n    /* \"randomData/chainlinkRandom.sol\":457:523  0x474e34a077df58807dbe9c96d3c009b23b3c6d0cce433e59bbf5b34f823bc56c */\n  0x474e34a077df58807dbe9c96d3c009b23b3c6d0cce433e59bbf5b34f823bc56c\n    /* \"randomData/chainlinkRandom.sol\":447:523  keyHash = 0x474e34a077df58807dbe9c96d3c009b23b3c6d0cce433e59bbf5b34f823bc56c */\n  0x00\n  shl\n    /* \"randomData/chainlinkRandom.sol\":447:454  keyHash */\n  0x01\n    /* \"randomData/chainlinkRandom.sol\":447:523  keyHash = 0x474e34a077df58807dbe9c96d3c009b23b3c6d0cce433e59bbf5b34f823bc56c */\n  dup2\n  swap1\n  sstore\n  pop\n    /* \"randomData/chainlinkRandom.sol\":540:554  0.1 * 10 ** 18 */\n  0x016345785d8a0000\n    /* \"randomData/chainlinkRandom.sol\":534:537  fee */\n  0x02\n    /* \"randomData/chainlinkRandom.sol\":534:554  fee = 0.1 * 10 ** 18 */\n  dup2\n  swap1\n  sstore\n  pop\n    /* \"randomData/chainlinkRandom.sol\":90:1041  contract MyVRFConsumer is VRFConsumerBase {... */\n  mload(0x80)\n  mload(0xa0)\n  codecopy(0x00, dataOffset(sub_0), dataSize(sub_0))\n  0x00\n  assignImmutable(\"0x6dbb33232cde86c8a04f90a8bed9fc1c5ef520188a14538d96eb100d69bc2a94\")\n  0x00\n  assignImmutable(\"0xb2219b801710730437d0358146c829b62297a059eceaa0b40b27aea2daecf595\")\n  return(0x00, dataSize(sub_0))\nstop\n\nsub_0: assembly {\n        /* \"randomData/chainlinkRandom.sol\":90:1041  contract MyVRFConsumer is VRFConsumerBase {... */\n      mstore(0x40, 0x80)\n      callvalue\n      dup1\n      iszero\n      tag_1\n      jumpi\n      0x00\n      dup1\n      revert\n    tag_1:\n      pop\n      jumpi(tag_2, lt(calldatasize, 0x04))\n      shr(0xe0, calldataload(0x00))\n      dup1\n      0x42619f66\n      eq\n      tag_3\n      jumpi\n      dup1\n      0x94985ddd\n      eq\n      tag_4\n      jumpi\n      dup1\n      0xdbdff2c1\n      eq\n      tag_5\n      jumpi\n    tag_2:\n      0x00\n      dup1\n      revert\n        /* \"randomData/chainlinkRandom.sol\":197:224  uint256 public randomResult */\n    tag_3:\n      tag_6\n      tag_7\n      jump\t// in\n    tag_6:\n      mload(0x40)\n      tag_8\n      swap2\n      swap1\n      tag_9\n      jump\t// in\n    tag_8:\n      mload(0x40)\n      dup1\n      swap2\n      sub\n      swap1\n      return\n        /* \"@chainlink/contracts/src/v0.8/VRFConsumerBase.sol\":9576:9783  function rawFulfillRandomness(bytes32 requestId, uint256 randomness) external {... */\n    tag_4:\n      tag_10\n      0x04\n      dup1\n      calldatasize\n      sub\n      dup2\n      add\n      swap1\n      tag_11\n      swap2\n      swap1\n      tag_12\n      jump\t// in\n    tag_11:\n      tag_13\n      jump\t// in\n    tag_10:\n      stop\n        /* \"randomData/chainlinkRandom.sol\":630:852  function getRandomNumber() public returns (bytes32 requestId) {... */\n    tag_5:\n      tag_14\n      tag_15\n      jump\t// in\n    tag_14:\n      mload(0x40)\n      tag_16\n      swap2\n      swap1\n      tag_17\n      jump\t// in\n    tag_16:\n      mload(0x40)\n      dup1\n      swap2\n      sub\n      swap1\n      return\n        /* \"randomData/chainlinkRandom.sol\":197:224  uint256 public randomResult */\n    tag_7:\n      sload(0x03)\n      dup2\n      jump\t// out\n        /* \"@chainlink/contracts/src/v0.8/VRFConsumerBase.sol\":9576:9783  function rawFulfillRandomness(bytes32 requestId, uint256 randomness) external {... */\n    tag_13:\n        /* \"@chainlink/contracts/src/v0.8/VRFConsumerBase.sol\":9682:9696  vrfCoordinator */\n      immutable(\"0x6dbb33232cde86c8a04f90a8bed9fc1c5ef520188a14538d96eb100d69bc2a94\")\n        /* \"@chainlink/contracts/src/v0.8/VRFConsumerBase.sol\":9668:9696  msg.sender == vrfCoordinator */\n      0xffffffffffffffffffffffffffffffffffffffff\n      and\n        /* \"@chainlink/contracts/src/v0.8/VRFConsumerBase.sol\":9668:9678  msg.sender */\n      caller\n        /* \"@chainlink/contracts/src/v0.8/VRFConsumerBase.sol\":9668:9696  msg.sender == vrfCoordinator */\n      0xffffffffffffffffffffffffffffffffffffffff\n      and\n      eq\n        /* \"@chainlink/contracts/src/v0.8/VRFConsumerBase.sol\":9660:9732  require(msg.sender == vrfCoordinator, \"Only VRFCoordinator can fulfill\") */\n      tag_19\n      jumpi\n      mload(0x40)\n      0x08c379a000000000000000000000000000000000000000000000000000000000\n      dup2\n      mstore\n      0x04\n      add\n      tag_20\n      swap1\n      tag_21\n      jump\t// in\n    tag_20:\n      mload(0x40)\n      dup1\n      swap2\n      sub\n      swap1\n      revert\n    tag_19:\n        /* \"@chainlink/contracts/src/v0.8/VRFConsumerBase.sol\":9738:9778  fulfillRandomness(requestId, randomness) */\n      tag_22\n        /* \"@chainlink/contracts/src/v0.8/VRFConsumerBase.sol\":9756:9765  requestId */\n      dup3\n        /* \"@chainlink/contracts/src/v0.8/VRFConsumerBase.sol\":9767:9777  randomness */\n      dup3\n        /* \"@chainlink/contracts/src/v0.8/VRFConsumerBase.sol\":9738:9755  fulfillRandomness */\n      tag_23\n        /* \"@chainlink/contracts/src/v0.8/VRFConsumerBase.sol\":9738:9778  fulfillRandomness(requestId, randomness) */\n      jump\t// in\n    tag_22:\n        /* \"@chainlink/contracts/src/v0.8/VRFConsumerBase.sol\":9576:9783  function rawFulfillRandomness(bytes32 requestId, uint256 randomness) external {... */\n      pop\n      pop\n      jump\t// out\n        /* \"randomData/chainlinkRandom.sol\":630:852  function getRandomNumber() public returns (bytes32 requestId) {... */\n    tag_15:\n        /* \"randomData/chainlinkRandom.sol\":673:690  bytes32 requestId */\n      0x00\n        /* \"randomData/chainlinkRandom.sol\":744:747  fee */\n      sload(0x02)\n        /* \"randomData/chainlinkRandom.sol\":711:715  LINK */\n      immutable(\"0xb2219b801710730437d0358146c829b62297a059eceaa0b40b27aea2daecf595\")\n        /* \"randomData/chainlinkRandom.sol\":711:725  LINK.balanceOf */\n      0xffffffffffffffffffffffffffffffffffffffff\n      and\n      0x70a08231\n        /* \"randomData/chainlinkRandom.sol\":734:738  this */\n      address\n        /* \"randomData/chainlinkRandom.sol\":711:740  LINK.balanceOf(address(this)) */\n      mload(0x40)\n      dup3\n      0xffffffff\n      and\n      0xe0\n      shl\n      dup2\n      mstore\n      0x04\n      add\n      tag_25\n      swap2\n      swap1\n      tag_26\n      jump\t// in\n    tag_25:\n      0x20\n      mload(0x40)\n      dup1\n      dup4\n      sub\n      dup2\n      dup7\n      gas\n      staticcall\n      iszero\n      dup1\n      iszero\n      tag_28\n      jumpi\n      returndatasize\n      0x00\n      dup1\n      returndatacopy\n      revert(0x00, returndatasize)\n    tag_28:\n      pop\n      pop\n      pop\n      pop\n      mload(0x40)\n      returndatasize\n      not(0x1f)\n      0x1f\n      dup3\n      add\n      and\n      dup3\n      add\n      dup1\n      0x40\n      mstore\n      pop\n      dup2\n      add\n      swap1\n      tag_29\n      swap2\n      swap1\n      tag_30\n      jump\t// in\n    tag_29:\n        /* \"randomData/chainlinkRandom.sol\":711:747  LINK.balanceOf(address(this)) >= fee */\n      lt\n      iszero\n        /* \"randomData/chainlinkRandom.sol\":703:795  require(LINK.balanceOf(address(this)) >= fee, \"Not enough LINK - fill contract with faucet\") */\n      tag_31\n      jumpi\n      mload(0x40)\n      0x08c379a000000000000000000000000000000000000000000000000000000000\n      dup2\n      mstore\n      0x04\n      add\n      tag_32\n      swap1\n      tag_33\n      jump\t// in\n    tag_32:\n      mload(0x40)\n      dup1\n      swap2\n      sub\n      swap1\n      revert\n    tag_31:\n        /* \"randomData/chainlinkRandom.sol\":813:844  requestRandomness(keyHash, fee) */\n      tag_34\n        /* \"randomData/chainlinkRandom.sol\":831:838  keyHash */\n      sload(0x01)\n        /* \"randomData/chainlinkRandom.sol\":840:843  fee */\n      sload(0x02)\n        /* \"randomData/chainlinkRandom.sol\":813:830  requestRandomness */\n      tag_35\n        /* \"randomData/chainlinkRandom.sol\":813:844  requestRandomness(keyHash, fee) */\n      jump\t// in\n    tag_34:\n        /* \"randomData/chainlinkRandom.sol\":806:844  return requestRandomness(keyHash, fee) */\n      swap1\n      pop\n        /* \"randomData/chainlinkRandom.sol\":630:852  function getRandomNumber() public returns (bytes32 requestId) {... */\n      swap1\n      jump\t// out\n        /* \"randomData/chainlinkRandom.sol\":910:1038  function fulfillRandomness(bytes32 requestId, uint256 randomness) internal override {... */\n    tag_23:\n        /* \"randomData/chainlinkRandom.sol\":1020:1030  randomness */\n      dup1\n        /* \"randomData/chainlinkRandom.sol\":1005:1017  randomResult */\n      0x03\n        /* \"randomData/chainlinkRandom.sol\":1005:1030  randomResult = randomness */\n      dup2\n      swap1\n      sstore\n      pop\n        /* \"randomData/chainlinkRandom.sol\":910:1038  function fulfillRandomness(bytes32 requestId, uint256 randomness) internal override {... */\n      pop\n      pop\n      jump\t// out\n        /* \"@chainlink/contracts/src/v0.8/VRFConsumerBase.sol\":7732:8752  function requestRandomness(bytes32 _keyHash, uint256 _fee) internal returns (bytes32 requestId) {... */\n    tag_35:\n        /* \"@chainlink/contracts/src/v0.8/VRFConsumerBase.sol\":7809:7826  bytes32 requestId */\n      0x00\n        /* \"@chainlink/contracts/src/v0.8/VRFConsumerBase.sol\":7834:7838  LINK */\n      immutable(\"0xb2219b801710730437d0358146c829b62297a059eceaa0b40b27aea2daecf595\")\n        /* \"@chainlink/contracts/src/v0.8/VRFConsumerBase.sol\":7834:7854  LINK.transferAndCall */\n      0xffffffffffffffffffffffffffffffffffffffff\n      and\n      0x4000aea0\n        /* \"@chainlink/contracts/src/v0.8/VRFConsumerBase.sol\":7855:7869  vrfCoordinator */\n      immutable(\"0x6dbb33232cde86c8a04f90a8bed9fc1c5ef520188a14538d96eb100d69bc2a94\")\n        /* \"@chainlink/contracts/src/v0.8/VRFConsumerBase.sol\":7871:7875  _fee */\n      dup5\n        /* \"@chainlink/contracts/src/v0.8/VRFConsumerBase.sol\":7888:7896  _keyHash */\n      dup7\n        /* \"@chainlink/contracts/src/v0.8/VRFConsumerBase.sol\":6589:6590  0 */\n      0x00\n        /* \"@chainlink/contracts/src/v0.8/VRFConsumerBase.sol\":7877:7920  abi.encode(_keyHash, USER_SEED_PLACEHOLDER) */\n      add(0x20, mload(0x40))\n      tag_38\n      swap3\n      swap2\n      swap1\n      tag_39\n      jump\t// in\n    tag_38:\n      mload(0x40)\n      0x20\n      dup2\n      dup4\n      sub\n      sub\n      dup2\n      mstore\n      swap1\n      0x40\n      mstore\n        /* \"@chainlink/contracts/src/v0.8/VRFConsumerBase.sol\":7834:7921  LINK.transferAndCall(vrfCoordinator, _fee, abi.encode(_keyHash, USER_SEED_PLACEHOLDER)) */\n      mload(0x40)\n      dup5\n      0xffffffff\n      and\n      0xe0\n      shl\n      dup2\n      mstore\n      0x04\n      add\n      tag_40\n      swap4\n      swap3\n      swap2\n      swap1\n      tag_41\n      jump\t// in\n    tag_40:\n      0x20\n      mload(0x40)\n      dup1\n      dup4\n      sub\n      dup2\n      0x00\n      dup8\n      gas\n      call\n      iszero\n      dup1\n      iszero\n      tag_43\n      jumpi\n      returndatasize\n      0x00\n      dup1\n      returndatacopy\n      revert(0x00, returndatasize)\n    tag_43:\n      pop\n      pop\n      pop\n      pop\n      mload(0x40)\n      returndatasize\n      not(0x1f)\n      0x1f\n      dup3\n      add\n      and\n      dup3\n      add\n      dup1\n      0x40\n      mstore\n      pop\n      dup2\n      add\n      swap1\n      tag_44\n      swap2\n      swap1\n      tag_45\n      jump\t// in\n    tag_44:\n      pop\n        /* \"@chainlink/contracts/src/v0.8/VRFConsumerBase.sol\":8152:8167  uint256 vRFSeed */\n      0x00\n        /* \"@chainlink/contracts/src/v0.8/VRFConsumerBase.sol\":8170:8252  makeVRFInputSeed(_keyHash, USER_SEED_PLACEHOLDER, address(this), nonces[_keyHash]) */\n      tag_46\n        /* \"@chainlink/contracts/src/v0.8/VRFConsumerBase.sol\":8187:8195  _keyHash */\n      dup5\n        /* \"@chainlink/contracts/src/v0.8/VRFConsumerBase.sol\":6589:6590  0 */\n      0x00\n        /* \"@chainlink/contracts/src/v0.8/VRFConsumerBase.sol\":8228:8232  this */\n      address\n        /* \"@chainlink/contracts/src/v0.8/VRFConsumerBase.sol\":8235:8241  nonces */\n      0x00\n        /* \"@chainlink/contracts/src/v0.8/VRFConsumerBase.sol\":8235:8251  nonces[_keyHash] */\n      dup1\n        /* \"@chainlink/contracts/src/v0.8/VRFConsumerBase.sol\":8242:8250  _keyHash */\n      dup10\n        /* \"@chainlink/contracts/src/v0.8/VRFConsumerBase.sol\":8235:8251  nonces[_keyHash] */\n      dup2\n      mstore\n      0x20\n      add\n      swap1\n      dup2\n      mstore\n      0x20\n      add\n      0x00\n      keccak256\n      sload\n        /* \"@chainlink/contracts/src/v0.8/VRFConsumerBase.sol\":8170:8186  makeVRFInputSeed */\n      tag_47\n        /* \"@chainlink/contracts/src/v0.8/VRFConsumerBase.sol\":8170:8252  makeVRFInputSeed(_keyHash, USER_SEED_PLACEHOLDER, address(this), nonces[_keyHash]) */\n      jump\t// in\n    tag_46:\n        /* \"@chainlink/contracts/src/v0.8/VRFConsumerBase.sol\":8152:8252  uint256 vRFSeed = makeVRFInputSeed(_keyHash, USER_SEED_PLACEHOLDER, address(this), nonces[_keyHash]) */\n      swap1\n      pop\n        /* \"@chainlink/contracts/src/v0.8/VRFConsumerBase.sol\":8701:8702  1 */\n      0x01\n        /* \"@chainlink/contracts/src/v0.8/VRFConsumerBase.sol\":8682:8688  nonces */\n      0x00\n        /* \"@chainlink/contracts/src/v0.8/VRFConsumerBase.sol\":8682:8698  nonces[_keyHash] */\n      dup1\n        /* \"@chainlink/contracts/src/v0.8/VRFConsumerBase.sol\":8689:8697  _keyHash */\n      dup7\n        /* \"@chainlink/contracts/src/v0.8/VRFConsumerBase.sol\":8682:8698  nonces[_keyHash] */\n      dup2\n      mstore\n      0x20\n      add\n      swap1\n      dup2\n      mstore\n      0x20\n      add\n      0x00\n      keccak256\n      sload\n        /* \"@chainlink/contracts/src/v0.8/VRFConsumerBase.sol\":8682:8702  nonces[_keyHash] + 1 */\n      tag_48\n      swap2\n      swap1\n      tag_49\n      jump\t// in\n    tag_48:\n        /* \"@chainlink/contracts/src/v0.8/VRFConsumerBase.sol\":8663:8669  nonces */\n      0x00\n        /* \"@chainlink/contracts/src/v0.8/VRFConsumerBase.sol\":8663:8679  nonces[_keyHash] */\n      dup1\n        /* \"@chainlink/contracts/src/v0.8/VRFConsumerBase.sol\":8670:8678  _keyHash */\n      dup7\n        /* \"@chainlink/contracts/src/v0.8/VRFConsumerBase.sol\":8663:8679  nonces[_keyHash] */\n      dup2\n      mstore\n      0x20\n      add\n      swap1\n      dup2\n      mstore\n      0x20\n      add\n      0x00\n      keccak256\n        /* \"@chainlink/contracts/src/v0.8/VRFConsumerBase.sol\":8663:8702  nonces[_keyHash] = nonces[_keyHash] + 1 */\n      dup2\n      swap1\n      sstore\n      pop\n        /* \"@chainlink/contracts/src/v0.8/VRFConsumerBase.sol\":8715:8747  makeRequestId(_keyHash, vRFSeed) */\n      tag_50\n        /* \"@chainlink/contracts/src/v0.8/VRFConsumerBase.sol\":8729:8737  _keyHash */\n      dup5\n        /* \"@chainlink/contracts/src/v0.8/VRFConsumerBase.sol\":8739:8746  vRFSeed */\n      dup3\n        /* \"@chainlink/contracts/src/v0.8/VRFConsumerBase.sol\":8715:8728  makeRequestId */\n      tag_51\n        /* \"@chainlink/contracts/src/v0.8/VRFConsumerBase.sol\":8715:8747  makeRequestId(_keyHash, vRFSeed) */\n      jump\t// in\n    tag_50:\n        /* \"@chainlink/contracts/src/v0.8/VRFConsumerBase.sol\":8708:8747  return makeRequestId(_keyHash, vRFSeed) */\n      swap2\n      pop\n      pop\n        /* \"@chainlink/contracts/src/v0.8/VRFConsumerBase.sol\":7732:8752  function requestRandomness(bytes32 _keyHash, uint256 _fee) internal returns (bytes32 requestId) {... */\n      swap3\n      swap2\n      pop\n      pop\n      jump\t// out\n        /* \"@chainlink/contracts/src/v0.8/VRFRequestIDBase.sol\":796:1036  function makeVRFInputSeed(... */\n    tag_47:\n        /* \"@chainlink/contracts/src/v0.8/VRFRequestIDBase.sol\":938:945  uint256 */\n      0x00\n        /* \"@chainlink/contracts/src/v0.8/VRFRequestIDBase.sol\":989:997  _keyHash */\n      dup5\n        /* \"@chainlink/contracts/src/v0.8/VRFRequestIDBase.sol\":999:1008  _userSeed */\n      dup5\n        /* \"@chainlink/contracts/src/v0.8/VRFRequestIDBase.sol\":1010:1020  _requester */\n      dup5\n        /* \"@chainlink/contracts/src/v0.8/VRFRequestIDBase.sol\":1022:1028  _nonce */\n      dup5\n        /* \"@chainlink/contracts/src/v0.8/VRFRequestIDBase.sol\":978:1029  abi.encode(_keyHash, _userSeed, _requester, _nonce) */\n      add(0x20, mload(0x40))\n      tag_53\n      swap5\n      swap4\n      swap3\n      swap2\n      swap1\n      tag_54\n      jump\t// in\n    tag_53:\n      mload(0x40)\n      0x20\n      dup2\n      dup4\n      sub\n      sub\n      dup2\n      mstore\n      swap1\n      0x40\n      mstore\n        /* \"@chainlink/contracts/src/v0.8/VRFRequestIDBase.sol\":968:1030  keccak256(abi.encode(_keyHash, _userSeed, _requester, _nonce)) */\n      dup1\n      mload\n      swap1\n      0x20\n      add\n      keccak256\n        /* \"@chainlink/contracts/src/v0.8/VRFRequestIDBase.sol\":960:1031  uint256(keccak256(abi.encode(_keyHash, _userSeed, _requester, _nonce))) */\n      0x00\n      shr\n        /* \"@chainlink/contracts/src/v0.8/VRFRequestIDBase.sol\":953:1031  return uint256(keccak256(abi.encode(_keyHash, _userSeed, _requester, _nonce))) */\n      swap1\n      pop\n        /* \"@chainlink/contracts/src/v0.8/VRFRequestIDBase.sol\":796:1036  function makeVRFInputSeed(... */\n      swap5\n      swap4\n      pop\n      pop\n      pop\n      pop\n      jump\t// out\n        /* \"@chainlink/contracts/src/v0.8/VRFRequestIDBase.sol\":1416:1582  function makeRequestId(bytes32 _keyHash, uint256 _vRFInputSeed) internal pure returns (bytes32) {... */\n    tag_51:\n        /* \"@chainlink/contracts/src/v0.8/VRFRequestIDBase.sol\":1503:1510  bytes32 */\n      0x00\n        /* \"@chainlink/contracts/src/v0.8/VRFRequestIDBase.sol\":1552:1560  _keyHash */\n      dup3\n        /* \"@chainlink/contracts/src/v0.8/VRFRequestIDBase.sol\":1562:1575  _vRFInputSeed */\n      dup3\n        /* \"@chainlink/contracts/src/v0.8/VRFRequestIDBase.sol\":1535:1576  abi.encodePacked(_keyHash, _vRFInputSeed) */\n      add(0x20, mload(0x40))\n      tag_56\n      swap3\n      swap2\n      swap1\n      tag_57\n      jump\t// in\n    tag_56:\n      mload(0x40)\n      0x20\n      dup2\n      dup4\n      sub\n      sub\n      dup2\n      mstore\n      swap1\n      0x40\n      mstore\n        /* \"@chainlink/contracts/src/v0.8/VRFRequestIDBase.sol\":1525:1577  keccak256(abi.encodePacked(_keyHash, _vRFInputSeed)) */\n      dup1\n      mload\n      swap1\n      0x20\n      add\n      keccak256\n        /* \"@chainlink/contracts/src/v0.8/VRFRequestIDBase.sol\":1518:1577  return keccak256(abi.encodePacked(_keyHash, _vRFInputSeed)) */\n      swap1\n      pop\n        /* \"@chainlink/contracts/src/v0.8/VRFRequestIDBase.sol\":1416:1582  function makeRequestId(bytes32 _keyHash, uint256 _vRFInputSeed) internal pure returns (bytes32) {... */\n      swap3\n      swap2\n      pop\n      pop\n      jump\t// out\n        /* \"#utility.yul\":7:84   */\n    tag_58:\n        /* \"#utility.yul\":44:51   */\n      0x00\n        /* \"#utility.yul\":73:78   */\n      dup2\n        /* \"#utility.yul\":62:78   */\n      swap1\n      pop\n        /* \"#utility.yul\":7:84   */\n      swap2\n      swap1\n      pop\n      jump\t// out\n        /* \"#utility.yul\":90:208   */\n    tag_59:\n        /* \"#utility.yul\":177:201   */\n      tag_94\n        /* \"#utility.yul\":195:200   */\n      dup2\n        /* \"#utility.yul\":177:201   */\n      tag_58\n      jump\t// in\n    tag_94:\n        /* \"#utility.yul\":172:175   */\n      dup3\n        /* \"#utility.yul\":165:202   */\n      mstore\n        /* \"#utility.yul\":90:208   */\n      pop\n      pop\n      jump\t// out\n        /* \"#utility.yul\":214:436   */\n    tag_9:\n        /* \"#utility.yul\":307:311   */\n      0x00\n        /* \"#utility.yul\":345:347   */\n      0x20\n        /* \"#utility.yul\":334:343   */\n      dup3\n        /* \"#utility.yul\":330:348   */\n      add\n        /* \"#utility.yul\":322:348   */\n      swap1\n      pop\n        /* \"#utility.yul\":358:429   */\n      tag_96\n        /* \"#utility.yul\":426:427   */\n      0x00\n        /* \"#utility.yul\":415:424   */\n      dup4\n        /* \"#utility.yul\":411:428   */\n      add\n        /* \"#utility.yul\":402:408   */\n      dup5\n        /* \"#utility.yul\":358:429   */\n      tag_59\n      jump\t// in\n    tag_96:\n        /* \"#utility.yul\":214:436   */\n      swap3\n      swap2\n      pop\n      pop\n      jump\t// out\n        /* \"#utility.yul\":523:640   */\n    tag_61:\n        /* \"#utility.yul\":632:633   */\n      0x00\n        /* \"#utility.yul\":629:630   */\n      dup1\n        /* \"#utility.yul\":622:634   */\n      revert\n        /* \"#utility.yul\":769:846   */\n    tag_63:\n        /* \"#utility.yul\":806:813   */\n      0x00\n        /* \"#utility.yul\":835:840   */\n      dup2\n        /* \"#utility.yul\":824:840   */\n      swap1\n      pop\n        /* \"#utility.yul\":769:846   */\n      swap2\n      swap1\n      pop\n      jump\t// out\n        /* \"#utility.yul\":852:974   */\n    tag_64:\n        /* \"#utility.yul\":925:949   */\n      tag_102\n        /* \"#utility.yul\":943:948   */\n      dup2\n        /* \"#utility.yul\":925:949   */\n      tag_63\n      jump\t// in\n    tag_102:\n        /* \"#utility.yul\":918:923   */\n      dup2\n        /* \"#utility.yul\":915:950   */\n      eq\n        /* \"#utility.yul\":905:968   */\n      tag_103\n      jumpi\n        /* \"#utility.yul\":964:965   */\n      0x00\n        /* \"#utility.yul\":961:962   */\n      dup1\n        /* \"#utility.yul\":954:966   */\n      revert\n        /* \"#utility.yul\":905:968   */\n    tag_103:\n        /* \"#utility.yul\":852:974   */\n      pop\n      jump\t// out\n        /* \"#utility.yul\":980:1119   */\n    tag_65:\n        /* \"#utility.yul\":1026:1031   */\n      0x00\n        /* \"#utility.yul\":1064:1070   */\n      dup2\n        /* \"#utility.yul\":1051:1071   */\n      calldataload\n        /* \"#utility.yul\":1042:1071   */\n      swap1\n      pop\n        /* \"#utility.yul\":1080:1113   */\n      tag_105\n        /* \"#utility.yul\":1107:1112   */\n      dup2\n        /* \"#utility.yul\":1080:1113   */\n      tag_64\n      jump\t// in\n    tag_105:\n        /* \"#utility.yul\":980:1119   */\n      swap3\n      swap2\n      pop\n      pop\n      jump\t// out\n        /* \"#utility.yul\":1125:1247   */\n    tag_66:\n        /* \"#utility.yul\":1198:1222   */\n      tag_107\n        /* \"#utility.yul\":1216:1221   */\n      dup2\n        /* \"#utility.yul\":1198:1222   */\n      tag_58\n      jump\t// in\n    tag_107:\n        /* \"#utility.yul\":1191:1196   */\n      dup2\n        /* \"#utility.yul\":1188:1223   */\n      eq\n        /* \"#utility.yul\":1178:1241   */\n      tag_108\n      jumpi\n        /* \"#utility.yul\":1237:1238   */\n      0x00\n        /* \"#utility.yul\":1234:1235   */\n      dup1\n        /* \"#utility.yul\":1227:1239   */\n      revert\n        /* \"#utility.yul\":1178:1241   */\n    tag_108:\n        /* \"#utility.yul\":1125:1247   */\n      pop\n      jump\t// out\n        /* \"#utility.yul\":1253:1392   */\n    tag_67:\n        /* \"#utility.yul\":1299:1304   */\n      0x00\n        /* \"#utility.yul\":1337:1343   */\n      dup2\n        /* \"#utility.yul\":1324:1344   */\n      calldataload\n        /* \"#utility.yul\":1315:1344   */\n      swap1\n      pop\n        /* \"#utility.yul\":1353:1386   */\n      tag_110\n        /* \"#utility.yul\":1380:1385   */\n      dup2\n        /* \"#utility.yul\":1353:1386   */\n      tag_66\n      jump\t// in\n    tag_110:\n        /* \"#utility.yul\":1253:1392   */\n      swap3\n      swap2\n      pop\n      pop\n      jump\t// out\n        /* \"#utility.yul\":1398:1872   */\n    tag_12:\n        /* \"#utility.yul\":1466:1472   */\n      0x00\n        /* \"#utility.yul\":1474:1480   */\n      dup1\n        /* \"#utility.yul\":1523:1525   */\n      0x40\n        /* \"#utility.yul\":1511:1520   */\n      dup4\n        /* \"#utility.yul\":1502:1509   */\n      dup6\n        /* \"#utility.yul\":1498:1521   */\n      sub\n        /* \"#utility.yul\":1494:1526   */\n      slt\n        /* \"#utility.yul\":1491:1610   */\n      iszero\n      tag_112\n      jumpi\n        /* \"#utility.yul\":1529:1608   */\n      tag_113\n      tag_61\n      jump\t// in\n    tag_113:\n        /* \"#utility.yul\":1491:1610   */\n    tag_112:\n        /* \"#utility.yul\":1649:1650   */\n      0x00\n        /* \"#utility.yul\":1674:1727   */\n      tag_114\n        /* \"#utility.yul\":1719:1726   */\n      dup6\n        /* \"#utility.yul\":1710:1716   */\n      dup3\n        /* \"#utility.yul\":1699:1708   */\n      dup7\n        /* \"#utility.yul\":1695:1717   */\n      add\n        /* \"#utility.yul\":1674:1727   */\n      tag_65\n      jump\t// in\n    tag_114:\n        /* \"#utility.yul\":1664:1727   */\n      swap3\n      pop\n        /* \"#utility.yul\":1620:1737   */\n      pop\n        /* \"#utility.yul\":1776:1778   */\n      0x20\n        /* \"#utility.yul\":1802:1855   */\n      tag_115\n        /* \"#utility.yul\":1847:1854   */\n      dup6\n        /* \"#utility.yul\":1838:1844   */\n      dup3\n        /* \"#utility.yul\":1827:1836   */\n      dup7\n        /* \"#utility.yul\":1823:1845   */\n      add\n        /* \"#utility.yul\":1802:1855   */\n      tag_67\n      jump\t// in\n    tag_115:\n        /* \"#utility.yul\":1792:1855   */\n      swap2\n      pop\n        /* \"#utility.yul\":1747:1865   */\n      pop\n        /* \"#utility.yul\":1398:1872   */\n      swap3\n      pop\n      swap3\n      swap1\n      pop\n      jump\t// out\n        /* \"#utility.yul\":1878:1996   */\n    tag_68:\n        /* \"#utility.yul\":1965:1989   */\n      tag_117\n        /* \"#utility.yul\":1983:1988   */\n      dup2\n        /* \"#utility.yul\":1965:1989   */\n      tag_63\n      jump\t// in\n    tag_117:\n        /* \"#utility.yul\":1960:1963   */\n      dup3\n        /* \"#utility.yul\":1953:1990   */\n      mstore\n        /* \"#utility.yul\":1878:1996   */\n      pop\n      pop\n      jump\t// out\n        /* \"#utility.yul\":2002:2224   */\n    tag_17:\n        /* \"#utility.yul\":2095:2099   */\n      0x00\n        /* \"#utility.yul\":2133:2135   */\n      0x20\n        /* \"#utility.yul\":2122:2131   */\n      dup3\n        /* \"#utility.yul\":2118:2136   */\n      add\n        /* \"#utility.yul\":2110:2136   */\n      swap1\n      pop\n        /* \"#utility.yul\":2146:2217   */\n      tag_119\n        /* \"#utility.yul\":2214:2215   */\n      0x00\n        /* \"#utility.yul\":2203:2212   */\n      dup4\n        /* \"#utility.yul\":2199:2216   */\n      add\n        /* \"#utility.yul\":2190:2196   */\n      dup5\n        /* \"#utility.yul\":2146:2217   */\n      tag_68\n      jump\t// in\n    tag_119:\n        /* \"#utility.yul\":2002:2224   */\n      swap3\n      swap2\n      pop\n      pop\n      jump\t// out\n        /* \"#utility.yul\":2230:2399   */\n    tag_69:\n        /* \"#utility.yul\":2314:2325   */\n      0x00\n        /* \"#utility.yul\":2348:2354   */\n      dup3\n        /* \"#utility.yul\":2343:2346   */\n      dup3\n        /* \"#utility.yul\":2336:2355   */\n      mstore\n        /* \"#utility.yul\":2388:2392   */\n      0x20\n        /* \"#utility.yul\":2383:2386   */\n      dup3\n        /* \"#utility.yul\":2379:2393   */\n      add\n        /* \"#utility.yul\":2364:2393   */\n      swap1\n      pop\n        /* \"#utility.yul\":2230:2399   */\n      swap3\n      swap2\n      pop\n      pop\n      jump\t// out\n        /* \"#utility.yul\":2405:2586   */\n    tag_70:\n        /* \"#utility.yul\":2545:2578   */\n      0x4f6e6c7920565246436f6f7264696e61746f722063616e2066756c66696c6c00\n        /* \"#utility.yul\":2541:2542   */\n      0x00\n        /* \"#utility.yul\":2533:2539   */\n      dup3\n        /* \"#utility.yul\":2529:2543   */\n      add\n        /* \"#utility.yul\":2522:2579   */\n      mstore\n        /* \"#utility.yul\":2405:2586   */\n      pop\n      jump\t// out\n        /* \"#utility.yul\":2592:2958   */\n    tag_71:\n        /* \"#utility.yul\":2734:2737   */\n      0x00\n        /* \"#utility.yul\":2755:2822   */\n      tag_123\n        /* \"#utility.yul\":2819:2821   */\n      0x1f\n        /* \"#utility.yul\":2814:2817   */\n      dup4\n        /* \"#utility.yul\":2755:2822   */\n      tag_69\n      jump\t// in\n    tag_123:\n        /* \"#utility.yul\":2748:2822   */\n      swap2\n      pop\n        /* \"#utility.yul\":2831:2924   */\n      tag_124\n        /* \"#utility.yul\":2920:2923   */\n      dup3\n        /* \"#utility.yul\":2831:2924   */\n      tag_70\n      jump\t// in\n    tag_124:\n        /* \"#utility.yul\":2949:2951   */\n      0x20\n        /* \"#utility.yul\":2944:2947   */\n      dup3\n        /* \"#utility.yul\":2940:2952   */\n      add\n        /* \"#utility.yul\":2933:2952   */\n      swap1\n      pop\n        /* \"#utility.yul\":2592:2958   */\n      swap2\n      swap1\n      pop\n      jump\t// out\n        /* \"#utility.yul\":2964:3383   */\n    tag_21:\n        /* \"#utility.yul\":3130:3134   */\n      0x00\n        /* \"#utility.yul\":3168:3170   */\n      0x20\n        /* \"#utility.yul\":3157:3166   */\n      dup3\n        /* \"#utility.yul\":3153:3171   */\n      add\n        /* \"#utility.yul\":3145:3171   */\n      swap1\n      pop\n        /* \"#utility.yul\":3217:3226   */\n      dup2\n        /* \"#utility.yul\":3211:3215   */\n      dup2\n        /* \"#utility.yul\":3207:3227   */\n      sub\n        /* \"#utility.yul\":3203:3204   */\n      0x00\n        /* \"#utility.yul\":3192:3201   */\n      dup4\n        /* \"#utility.yul\":3188:3205   */\n      add\n        /* \"#utility.yul\":3181:3228   */\n      mstore\n        /* \"#utility.yul\":3245:3376   */\n      tag_126\n        /* \"#utility.yul\":3371:3375   */\n      dup2\n        /* \"#utility.yul\":3245:3376   */\n      tag_71\n      jump\t// in\n    tag_126:\n        /* \"#utility.yul\":3237:3376   */\n      swap1\n      pop\n        /* \"#utility.yul\":2964:3383   */\n      swap2\n      swap1\n      pop\n      jump\t// out\n        /* \"#utility.yul\":3389:3515   */\n    tag_72:\n        /* \"#utility.yul\":3426:3433   */\n      0x00\n        /* \"#utility.yul\":3466:3508   */\n      0xffffffffffffffffffffffffffffffffffffffff\n        /* \"#utility.yul\":3459:3464   */\n      dup3\n        /* \"#utility.yul\":3455:3509   */\n      and\n        /* \"#utility.yul\":3444:3509   */\n      swap1\n      pop\n        /* \"#utility.yul\":3389:3515   */\n      swap2\n      swap1\n      pop\n      jump\t// out\n        /* \"#utility.yul\":3521:3617   */\n    tag_73:\n        /* \"#utility.yul\":3558:3565   */\n      0x00\n        /* \"#utility.yul\":3587:3611   */\n      tag_129\n        /* \"#utility.yul\":3605:3610   */\n      dup3\n        /* \"#utility.yul\":3587:3611   */\n      tag_72\n      jump\t// in\n    tag_129:\n        /* \"#utility.yul\":3576:3611   */\n      swap1\n      pop\n        /* \"#utility.yul\":3521:3617   */\n      swap2\n      swap1\n      pop\n      jump\t// out\n        /* \"#utility.yul\":3623:3741   */\n    tag_74:\n        /* \"#utility.yul\":3710:3734   */\n      tag_131\n        /* \"#utility.yul\":3728:3733   */\n      dup2\n        /* \"#utility.yul\":3710:3734   */\n      tag_73\n      jump\t// in\n    tag_131:\n        /* \"#utility.yul\":3705:3708   */\n      dup3\n        /* \"#utility.yul\":3698:3735   */\n      mstore\n        /* \"#utility.yul\":3623:3741   */\n      pop\n      pop\n      jump\t// out\n        /* \"#utility.yul\":3747:3969   */\n    tag_26:\n        /* \"#utility.yul\":3840:3844   */\n      0x00\n        /* \"#utility.yul\":3878:3880   */\n      0x20\n        /* \"#utility.yul\":3867:3876   */\n      dup3\n        /* \"#utility.yul\":3863:3881   */\n      add\n        /* \"#utility.yul\":3855:3881   */\n      swap1\n      pop\n        /* \"#utility.yul\":3891:3962   */\n      tag_133\n        /* \"#utility.yul\":3959:3960   */\n      0x00\n        /* \"#utility.yul\":3948:3957   */\n      dup4\n        /* \"#utility.yul\":3944:3961   */\n      add\n        /* \"#utility.yul\":3935:3941   */\n      dup5\n        /* \"#utility.yul\":3891:3962   */\n      tag_74\n      jump\t// in\n    tag_133:\n        /* \"#utility.yul\":3747:3969   */\n      swap3\n      swap2\n      pop\n      pop\n      jump\t// out\n        /* \"#utility.yul\":3975:4118   */\n    tag_75:\n        /* \"#utility.yul\":4032:4037   */\n      0x00\n        /* \"#utility.yul\":4063:4069   */\n      dup2\n        /* \"#utility.yul\":4057:4070   */\n      mload\n        /* \"#utility.yul\":4048:4070   */\n      swap1\n      pop\n        /* \"#utility.yul\":4079:4112   */\n      tag_135\n        /* \"#utility.yul\":4106:4111   */\n      dup2\n        /* \"#utility.yul\":4079:4112   */\n      tag_66\n      jump\t// in\n    tag_135:\n        /* \"#utility.yul\":3975:4118   */\n      swap3\n      swap2\n      pop\n      pop\n      jump\t// out\n        /* \"#utility.yul\":4124:4475   */\n    tag_30:\n        /* \"#utility.yul\":4194:4200   */\n      0x00\n        /* \"#utility.yul\":4243:4245   */\n      0x20\n        /* \"#utility.yul\":4231:4240   */\n      dup3\n        /* \"#utility.yul\":4222:4229   */\n      dup5\n        /* \"#utility.yul\":4218:4241   */\n      sub\n        /* \"#utility.yul\":4214:4246   */\n      slt\n        /* \"#utility.yul\":4211:4330   */\n      iszero\n      tag_137\n      jumpi\n        /* \"#utility.yul\":4249:4328   */\n      tag_138\n      tag_61\n      jump\t// in\n    tag_138:\n        /* \"#utility.yul\":4211:4330   */\n    tag_137:\n        /* \"#utility.yul\":4369:4370   */\n      0x00\n        /* \"#utility.yul\":4394:4458   */\n      tag_139\n        /* \"#utility.yul\":4450:4457   */\n      dup5\n        /* \"#utility.yul\":4441:4447   */\n      dup3\n        /* \"#utility.yul\":4430:4439   */\n      dup6\n        /* \"#utility.yul\":4426:4448   */\n      add\n        /* \"#utility.yul\":4394:4458   */\n      tag_75\n      jump\t// in\n    tag_139:\n        /* \"#utility.yul\":4384:4458   */\n      swap2\n      pop\n        /* \"#utility.yul\":4340:4468   */\n      pop\n        /* \"#utility.yul\":4124:4475   */\n      swap3\n      swap2\n      pop\n      pop\n      jump\t// out\n        /* \"#utility.yul\":4481:4711   */\n    tag_76:\n        /* \"#utility.yul\":4621:4655   */\n      0x4e6f7420656e6f756768204c494e4b202d2066696c6c20636f6e747261637420\n        /* \"#utility.yul\":4617:4618   */\n      0x00\n        /* \"#utility.yul\":4609:4615   */\n      dup3\n        /* \"#utility.yul\":4605:4619   */\n      add\n        /* \"#utility.yul\":4598:4656   */\n      mstore\n        /* \"#utility.yul\":4690:4703   */\n      0x7769746820666175636574000000000000000000000000000000000000000000\n        /* \"#utility.yul\":4685:4687   */\n      0x20\n        /* \"#utility.yul\":4677:4683   */\n      dup3\n        /* \"#utility.yul\":4673:4688   */\n      add\n        /* \"#utility.yul\":4666:4704   */\n      mstore\n        /* \"#utility.yul\":4481:4711   */\n      pop\n      jump\t// out\n        /* \"#utility.yul\":4717:5083   */\n    tag_77:\n        /* \"#utility.yul\":4859:4862   */\n      0x00\n        /* \"#utility.yul\":4880:4947   */\n      tag_142\n        /* \"#utility.yul\":4944:4946   */\n      0x2b\n        /* \"#utility.yul\":4939:4942   */\n      dup4\n        /* \"#utility.yul\":4880:4947   */\n      tag_69\n      jump\t// in\n    tag_142:\n        /* \"#utility.yul\":4873:4947   */\n      swap2\n      pop\n        /* \"#utility.yul\":4956:5049   */\n      tag_143\n        /* \"#utility.yul\":5045:5048   */\n      dup3\n        /* \"#utility.yul\":4956:5049   */\n      tag_76\n      jump\t// in\n    tag_143:\n        /* \"#utility.yul\":5074:5076   */\n      0x40\n        /* \"#utility.yul\":5069:5072   */\n      dup3\n        /* \"#utility.yul\":5065:5077   */\n      add\n        /* \"#utility.yul\":5058:5077   */\n      swap1\n      pop\n        /* \"#utility.yul\":4717:5083   */\n      swap2\n      swap1\n      pop\n      jump\t// out\n        /* \"#utility.yul\":5089:5508   */\n    tag_33:\n        /* \"#utility.yul\":5255:5259   */\n      0x00\n        /* \"#utility.yul\":5293:5295   */\n      0x20\n        /* \"#utility.yul\":5282:5291   */\n      dup3\n        /* \"#utility.yul\":5278:5296   */\n      add\n        /* \"#utility.yul\":5270:5296   */\n      swap1\n      pop\n        /* \"#utility.yul\":5342:5351   */\n      dup2\n        /* \"#utility.yul\":5336:5340   */\n      dup2\n        /* \"#utility.yul\":5332:5352   */\n      sub\n        /* \"#utility.yul\":5328:5329   */\n      0x00\n        /* \"#utility.yul\":5317:5326   */\n      dup4\n        /* \"#utility.yul\":5313:5330   */\n      add\n        /* \"#utility.yul\":5306:5353   */\n      mstore\n        /* \"#utility.yul\":5370:5501   */\n      tag_145\n        /* \"#utility.yul\":5496:5500   */\n      dup2\n        /* \"#utility.yul\":5370:5501   */\n      tag_77\n      jump\t// in\n    tag_145:\n        /* \"#utility.yul\":5362:5501   */\n      swap1\n      pop\n        /* \"#utility.yul\":5089:5508   */\n      swap2\n      swap1\n      pop\n      jump\t// out\n        /* \"#utility.yul\":5514:5846   */\n    tag_39:\n        /* \"#utility.yul\":5635:5639   */\n      0x00\n        /* \"#utility.yul\":5673:5675   */\n      0x40\n        /* \"#utility.yul\":5662:5671   */\n      dup3\n        /* \"#utility.yul\":5658:5676   */\n      add\n        /* \"#utility.yul\":5650:5676   */\n      swap1\n      pop\n        /* \"#utility.yul\":5686:5757   */\n      tag_147\n        /* \"#utility.yul\":5754:5755   */\n      0x00\n        /* \"#utility.yul\":5743:5752   */\n      dup4\n        /* \"#utility.yul\":5739:5756   */\n      add\n        /* \"#utility.yul\":5730:5736   */\n      dup6\n        /* \"#utility.yul\":5686:5757   */\n      tag_68\n      jump\t// in\n    tag_147:\n        /* \"#utility.yul\":5767:5839   */\n      tag_148\n        /* \"#utility.yul\":5835:5837   */\n      0x20\n        /* \"#utility.yul\":5824:5833   */\n      dup4\n        /* \"#utility.yul\":5820:5838   */\n      add\n        /* \"#utility.yul\":5811:5817   */\n      dup5\n        /* \"#utility.yul\":5767:5839   */\n      tag_59\n      jump\t// in\n    tag_148:\n        /* \"#utility.yul\":5514:5846   */\n      swap4\n      swap3\n      pop\n      pop\n      pop\n      jump\t// out\n        /* \"#utility.yul\":5852:5950   */\n    tag_78:\n        /* \"#utility.yul\":5903:5909   */\n      0x00\n        /* \"#utility.yul\":5937:5942   */\n      dup2\n        /* \"#utility.yul\":5931:5943   */\n      mload\n        /* \"#utility.yul\":5921:5943   */\n      swap1\n      pop\n        /* \"#utility.yul\":5852:5950   */\n      swap2\n      swap1\n      pop\n      jump\t// out\n        /* \"#utility.yul\":5956:6124   */\n    tag_79:\n        /* \"#utility.yul\":6039:6050   */\n      0x00\n        /* \"#utility.yul\":6073:6079   */\n      dup3\n        /* \"#utility.yul\":6068:6071   */\n      dup3\n        /* \"#utility.yul\":6061:6080   */\n      mstore\n        /* \"#utility.yul\":6113:6117   */\n      0x20\n        /* \"#utility.yul\":6108:6111   */\n      dup3\n        /* \"#utility.yul\":6104:6118   */\n      add\n        /* \"#utility.yul\":6089:6118   */\n      swap1\n      pop\n        /* \"#utility.yul\":5956:6124   */\n      swap3\n      swap2\n      pop\n      pop\n      jump\t// out\n        /* \"#utility.yul\":6130:6376   */\n    tag_80:\n        /* \"#utility.yul\":6211:6212   */\n      0x00\n        /* \"#utility.yul\":6221:6334   */\n    tag_152:\n        /* \"#utility.yul\":6235:6241   */\n      dup4\n        /* \"#utility.yul\":6232:6233   */\n      dup2\n        /* \"#utility.yul\":6229:6242   */\n      lt\n        /* \"#utility.yul\":6221:6334   */\n      iszero\n      tag_154\n      jumpi\n        /* \"#utility.yul\":6320:6321   */\n      dup1\n        /* \"#utility.yul\":6315:6318   */\n      dup3\n        /* \"#utility.yul\":6311:6322   */\n      add\n        /* \"#utility.yul\":6305:6323   */\n      mload\n        /* \"#utility.yul\":6301:6302   */\n      dup2\n        /* \"#utility.yul\":6296:6299   */\n      dup5\n        /* \"#utility.yul\":6292:6303   */\n      add\n        /* \"#utility.yul\":6285:6324   */\n      mstore\n        /* \"#utility.yul\":6257:6259   */\n      0x20\n        /* \"#utility.yul\":6254:6255   */\n      dup2\n        /* \"#utility.yul\":6250:6260   */\n      add\n        /* \"#utility.yul\":6245:6260   */\n      swap1\n      pop\n        /* \"#utility.yul\":6221:6334   */\n      jump(tag_152)\n    tag_154:\n        /* \"#utility.yul\":6368:6369   */\n      0x00\n        /* \"#utility.yul\":6359:6365   */\n      dup5\n        /* \"#utility.yul\":6354:6357   */\n      dup5\n        /* \"#utility.yul\":6350:6366   */\n      add\n        /* \"#utility.yul\":6343:6370   */\n      mstore\n        /* \"#utility.yul\":6192:6376   */\n      pop\n        /* \"#utility.yul\":6130:6376   */\n      pop\n      pop\n      pop\n      jump\t// out\n        /* \"#utility.yul\":6382:6484   */\n    tag_81:\n        /* \"#utility.yul\":6423:6429   */\n      0x00\n        /* \"#utility.yul\":6474:6476   */\n      0x1f\n        /* \"#utility.yul\":6470:6477   */\n      not\n        /* \"#utility.yul\":6465:6467   */\n      0x1f\n        /* \"#utility.yul\":6458:6463   */\n      dup4\n        /* \"#utility.yul\":6454:6468   */\n      add\n        /* \"#utility.yul\":6450:6478   */\n      and\n        /* \"#utility.yul\":6440:6478   */\n      swap1\n      pop\n        /* \"#utility.yul\":6382:6484   */\n      swap2\n      swap1\n      pop\n      jump\t// out\n        /* \"#utility.yul\":6490:6863   */\n    tag_82:\n        /* \"#utility.yul\":6576:6579   */\n      0x00\n        /* \"#utility.yul\":6604:6642   */\n      tag_157\n        /* \"#utility.yul\":6636:6641   */\n      dup3\n        /* \"#utility.yul\":6604:6642   */\n      tag_78\n      jump\t// in\n    tag_157:\n        /* \"#utility.yul\":6658:6728   */\n      tag_158\n        /* \"#utility.yul\":6721:6727   */\n      dup2\n        /* \"#utility.yul\":6716:6719   */\n      dup6\n        /* \"#utility.yul\":6658:6728   */\n      tag_79\n      jump\t// in\n    tag_158:\n        /* \"#utility.yul\":6651:6728   */\n      swap4\n      pop\n        /* \"#utility.yul\":6737:6802   */\n      tag_159\n        /* \"#utility.yul\":6795:6801   */\n      dup2\n        /* \"#utility.yul\":6790:6793   */\n      dup6\n        /* \"#utility.yul\":6783:6787   */\n      0x20\n        /* \"#utility.yul\":6776:6781   */\n      dup7\n        /* \"#utility.yul\":6772:6788   */\n      add\n        /* \"#utility.yul\":6737:6802   */\n      tag_80\n      jump\t// in\n    tag_159:\n        /* \"#utility.yul\":6827:6856   */\n      tag_160\n        /* \"#utility.yul\":6849:6855   */\n      dup2\n        /* \"#utility.yul\":6827:6856   */\n      tag_81\n      jump\t// in\n    tag_160:\n        /* \"#utility.yul\":6822:6825   */\n      dup5\n        /* \"#utility.yul\":6818:6857   */\n      add\n        /* \"#utility.yul\":6811:6857   */\n      swap2\n      pop\n        /* \"#utility.yul\":6580:6863   */\n      pop\n        /* \"#utility.yul\":6490:6863   */\n      swap3\n      swap2\n      pop\n      pop\n      jump\t// out\n        /* \"#utility.yul\":6869:7398   */\n    tag_41:\n        /* \"#utility.yul\":7036:7040   */\n      0x00\n        /* \"#utility.yul\":7074:7076   */\n      0x60\n        /* \"#utility.yul\":7063:7072   */\n      dup3\n        /* \"#utility.yul\":7059:7077   */\n      add\n        /* \"#utility.yul\":7051:7077   */\n      swap1\n      pop\n        /* \"#utility.yul\":7087:7158   */\n      tag_162\n        /* \"#utility.yul\":7155:7156   */\n      0x00\n        /* \"#utility.yul\":7144:7153   */\n      dup4\n        /* \"#utility.yul\":7140:7157   */\n      add\n        /* \"#utility.yul\":7131:7137   */\n      dup7\n        /* \"#utility.yul\":7087:7158   */\n      tag_74\n      jump\t// in\n    tag_162:\n        /* \"#utility.yul\":7168:7240   */\n      tag_163\n        /* \"#utility.yul\":7236:7238   */\n      0x20\n        /* \"#utility.yul\":7225:7234   */\n      dup4\n        /* \"#utility.yul\":7221:7239   */\n      add\n        /* \"#utility.yul\":7212:7218   */\n      dup6\n        /* \"#utility.yul\":7168:7240   */\n      tag_59\n      jump\t// in\n    tag_163:\n        /* \"#utility.yul\":7287:7296   */\n      dup2\n        /* \"#utility.yul\":7281:7285   */\n      dup2\n        /* \"#utility.yul\":7277:7297   */\n      sub\n        /* \"#utility.yul\":7272:7274   */\n      0x40\n        /* \"#utility.yul\":7261:7270   */\n      dup4\n        /* \"#utility.yul\":7257:7275   */\n      add\n        /* \"#utility.yul\":7250:7298   */\n      mstore\n        /* \"#utility.yul\":7315:7391   */\n      tag_164\n        /* \"#utility.yul\":7386:7390   */\n      dup2\n        /* \"#utility.yul\":7377:7383   */\n      dup5\n        /* \"#utility.yul\":7315:7391   */\n      tag_82\n      jump\t// in\n    tag_164:\n        /* \"#utility.yul\":7307:7391   */\n      swap1\n      pop\n        /* \"#utility.yul\":6869:7398   */\n      swap5\n      swap4\n      pop\n      pop\n      pop\n      pop\n      jump\t// out\n        /* \"#utility.yul\":7404:7494   */\n    tag_83:\n        /* \"#utility.yul\":7438:7445   */\n      0x00\n        /* \"#utility.yul\":7481:7486   */\n      dup2\n        /* \"#utility.yul\":7474:7487   */\n      iszero\n        /* \"#utility.yul\":7467:7488   */\n      iszero\n        /* \"#utility.yul\":7456:7488   */\n      swap1\n      pop\n        /* \"#utility.yul\":7404:7494   */\n      swap2\n      swap1\n      pop\n      jump\t// out\n        /* \"#utility.yul\":7500:7616   */\n    tag_84:\n        /* \"#utility.yul\":7570:7591   */\n      tag_167\n        /* \"#utility.yul\":7585:7590   */\n      dup2\n        /* \"#utility.yul\":7570:7591   */\n      tag_83\n      jump\t// in\n    tag_167:\n        /* \"#utility.yul\":7563:7568   */\n      dup2\n        /* \"#utility.yul\":7560:7592   */\n      eq\n        /* \"#utility.yul\":7550:7610   */\n      tag_168\n      jumpi\n        /* \"#utility.yul\":7606:7607   */\n      0x00\n        /* \"#utility.yul\":7603:7604   */\n      dup1\n        /* \"#utility.yul\":7596:7608   */\n      revert\n        /* \"#utility.yul\":7550:7610   */\n    tag_168:\n        /* \"#utility.yul\":7500:7616   */\n      pop\n      jump\t// out\n        /* \"#utility.yul\":7622:7759   */\n    tag_85:\n        /* \"#utility.yul\":7676:7681   */\n      0x00\n        /* \"#utility.yul\":7707:7713   */\n      dup2\n        /* \"#utility.yul\":7701:7714   */\n      mload\n        /* \"#utility.yul\":7692:7714   */\n      swap1\n      pop\n        /* \"#utility.yul\":7723:7753   */\n      tag_170\n        /* \"#utility.yul\":7747:7752   */\n      dup2\n        /* \"#utility.yul\":7723:7753   */\n      tag_84\n      jump\t// in\n    tag_170:\n        /* \"#utility.yul\":7622:7759   */\n      swap3\n      swap2\n      pop\n      pop\n      jump\t// out\n        /* \"#utility.yul\":7765:8110   */\n    tag_45:\n        /* \"#utility.yul\":7832:7838   */\n      0x00\n        /* \"#utility.yul\":7881:7883   */\n      0x20\n        /* \"#utility.yul\":7869:7878   */\n      dup3\n        /* \"#utility.yul\":7860:7867   */\n      dup5\n        /* \"#utility.yul\":7856:7879   */\n      sub\n        /* \"#utility.yul\":7852:7884   */\n      slt\n        /* \"#utility.yul\":7849:7968   */\n      iszero\n      tag_172\n      jumpi\n        /* \"#utility.yul\":7887:7966   */\n      tag_173\n      tag_61\n      jump\t// in\n    tag_173:\n        /* \"#utility.yul\":7849:7968   */\n    tag_172:\n        /* \"#utility.yul\":8007:8008   */\n      0x00\n        /* \"#utility.yul\":8032:8093   */\n      tag_174\n        /* \"#utility.yul\":8085:8092   */\n      dup5\n        /* \"#utility.yul\":8076:8082   */\n      dup3\n        /* \"#utility.yul\":8065:8074   */\n      dup6\n        /* \"#utility.yul\":8061:8083   */\n      add\n        /* \"#utility.yul\":8032:8093   */\n      tag_85\n      jump\t// in\n    tag_174:\n        /* \"#utility.yul\":8022:8093   */\n      swap2\n      pop\n        /* \"#utility.yul\":7978:8103   */\n      pop\n        /* \"#utility.yul\":7765:8110   */\n      swap3\n      swap2\n      pop\n      pop\n      jump\t// out\n        /* \"#utility.yul\":8116:8296   */\n    tag_86:\n        /* \"#utility.yul\":8164:8241   */\n      0x4e487b7100000000000000000000000000000000000000000000000000000000\n        /* \"#utility.yul\":8161:8162   */\n      0x00\n        /* \"#utility.yul\":8154:8242   */\n      mstore\n        /* \"#utility.yul\":8261:8265   */\n      0x11\n        /* \"#utility.yul\":8258:8259   */\n      0x04\n        /* \"#utility.yul\":8251:8266   */\n      mstore\n        /* \"#utility.yul\":8285:8289   */\n      0x24\n        /* \"#utility.yul\":8282:8283   */\n      0x00\n        /* \"#utility.yul\":8275:8290   */\n      revert\n        /* \"#utility.yul\":8302:8493   */\n    tag_49:\n        /* \"#utility.yul\":8342:8345   */\n      0x00\n        /* \"#utility.yul\":8361:8381   */\n      tag_177\n        /* \"#utility.yul\":8379:8380   */\n      dup3\n        /* \"#utility.yul\":8361:8381   */\n      tag_58\n      jump\t// in\n    tag_177:\n        /* \"#utility.yul\":8356:8381   */\n      swap2\n      pop\n        /* \"#utility.yul\":8395:8415   */\n      tag_178\n        /* \"#utility.yul\":8413:8414   */\n      dup4\n        /* \"#utility.yul\":8395:8415   */\n      tag_58\n      jump\t// in\n    tag_178:\n        /* \"#utility.yul\":8390:8415   */\n      swap3\n      pop\n        /* \"#utility.yul\":8438:8439   */\n      dup3\n        /* \"#utility.yul\":8435:8436   */\n      dup3\n        /* \"#utility.yul\":8431:8440   */\n      add\n        /* \"#utility.yul\":8424:8440   */\n      swap1\n      pop\n        /* \"#utility.yul\":8459:8462   */\n      dup1\n        /* \"#utility.yul\":8456:8457   */\n      dup3\n        /* \"#utility.yul\":8453:8463   */\n      gt\n        /* \"#utility.yul\":8450:8486   */\n      iszero\n      tag_179\n      jumpi\n        /* \"#utility.yul\":8466:8484   */\n      tag_180\n      tag_86\n      jump\t// in\n    tag_180:\n        /* \"#utility.yul\":8450:8486   */\n    tag_179:\n        /* \"#utility.yul\":8302:8493   */\n      swap3\n      swap2\n      pop\n      pop\n      jump\t// out\n        /* \"#utility.yul\":8499:9052   */\n    tag_54:\n        /* \"#utility.yul\":8676:8680   */\n      0x00\n        /* \"#utility.yul\":8714:8717   */\n      0x80\n        /* \"#utility.yul\":8703:8712   */\n      dup3\n        /* \"#utility.yul\":8699:8718   */\n      add\n        /* \"#utility.yul\":8691:8718   */\n      swap1\n      pop\n        /* \"#utility.yul\":8728:8799   */\n      tag_182\n        /* \"#utility.yul\":8796:8797   */\n      0x00\n        /* \"#utility.yul\":8785:8794   */\n      dup4\n        /* \"#utility.yul\":8781:8798   */\n      add\n        /* \"#utility.yul\":8772:8778   */\n      dup8\n        /* \"#utility.yul\":8728:8799   */\n      tag_68\n      jump\t// in\n    tag_182:\n        /* \"#utility.yul\":8809:8881   */\n      tag_183\n        /* \"#utility.yul\":8877:8879   */\n      0x20\n        /* \"#utility.yul\":8866:8875   */\n      dup4\n        /* \"#utility.yul\":8862:8880   */\n      add\n        /* \"#utility.yul\":8853:8859   */\n      dup7\n        /* \"#utility.yul\":8809:8881   */\n      tag_59\n      jump\t// in\n    tag_183:\n        /* \"#utility.yul\":8891:8963   */\n      tag_184\n        /* \"#utility.yul\":8959:8961   */\n      0x40\n        /* \"#utility.yul\":8948:8957   */\n      dup4\n        /* \"#utility.yul\":8944:8962   */\n      add\n        /* \"#utility.yul\":8935:8941   */\n      dup6\n        /* \"#utility.yul\":8891:8963   */\n      tag_74\n      jump\t// in\n    tag_184:\n        /* \"#utility.yul\":8973:9045   */\n      tag_185\n        /* \"#utility.yul\":9041:9043   */\n      0x60\n        /* \"#utility.yul\":9030:9039   */\n      dup4\n        /* \"#utility.yul\":9026:9044   */\n      add\n        /* \"#utility.yul\":9017:9023   */\n      dup5\n        /* \"#utility.yul\":8973:9045   */\n      tag_59\n      jump\t// in\n    tag_185:\n        /* \"#utility.yul\":8499:9052   */\n      swap6\n      swap5\n      pop\n      pop\n      pop\n      pop\n      pop\n      jump\t// out\n        /* \"#utility.yul\":9058:9137   */\n    tag_87:\n        /* \"#utility.yul\":9097:9104   */\n      0x00\n        /* \"#utility.yul\":9126:9131   */\n      dup2\n        /* \"#utility.yul\":9115:9131   */\n      swap1\n      pop\n        /* \"#utility.yul\":9058:9137   */\n      swap2\n      swap1\n      pop\n      jump\t// out\n        /* \"#utility.yul\":9143:9300   */\n    tag_88:\n        /* \"#utility.yul\":9248:9293   */\n      tag_188\n        /* \"#utility.yul\":9268:9292   */\n      tag_189\n        /* \"#utility.yul\":9286:9291   */\n      dup3\n        /* \"#utility.yul\":9268:9292   */\n      tag_63\n      jump\t// in\n    tag_189:\n        /* \"#utility.yul\":9248:9293   */\n      tag_87\n      jump\t// in\n    tag_188:\n        /* \"#utility.yul\":9243:9246   */\n      dup3\n        /* \"#utility.yul\":9236:9294   */\n      mstore\n        /* \"#utility.yul\":9143:9300   */\n      pop\n      pop\n      jump\t// out\n        /* \"#utility.yul\":9306:9385   */\n    tag_89:\n        /* \"#utility.yul\":9345:9352   */\n      0x00\n        /* \"#utility.yul\":9374:9379   */\n      dup2\n        /* \"#utility.yul\":9363:9379   */\n      swap1\n      pop\n        /* \"#utility.yul\":9306:9385   */\n      swap2\n      swap1\n      pop\n      jump\t// out\n        /* \"#utility.yul\":9391:9548   */\n    tag_90:\n        /* \"#utility.yul\":9496:9541   */\n      tag_192\n        /* \"#utility.yul\":9516:9540   */\n      tag_193\n        /* \"#utility.yul\":9534:9539   */\n      dup3\n        /* \"#utility.yul\":9516:9540   */\n      tag_58\n      jump\t// in\n    tag_193:\n        /* \"#utility.yul\":9496:9541   */\n      tag_89\n      jump\t// in\n    tag_192:\n        /* \"#utility.yul\":9491:9494   */\n      dup3\n        /* \"#utility.yul\":9484:9542   */\n      mstore\n        /* \"#utility.yul\":9391:9548   */\n      pop\n      pop\n      jump\t// out\n        /* \"#utility.yul\":9554:9951   */\n    tag_57:\n        /* \"#utility.yul\":9694:9697   */\n      0x00\n        /* \"#utility.yul\":9709:9784   */\n      tag_195\n        /* \"#utility.yul\":9780:9783   */\n      dup3\n        /* \"#utility.yul\":9771:9777   */\n      dup6\n        /* \"#utility.yul\":9709:9784   */\n      tag_88\n      jump\t// in\n    tag_195:\n        /* \"#utility.yul\":9809:9811   */\n      0x20\n        /* \"#utility.yul\":9804:9807   */\n      dup3\n        /* \"#utility.yul\":9800:9812   */\n      add\n        /* \"#utility.yul\":9793:9812   */\n      swap2\n      pop\n        /* \"#utility.yul\":9822:9897   */\n      tag_196\n        /* \"#utility.yul\":9893:9896   */\n      dup3\n        /* \"#utility.yul\":9884:9890   */\n      dup5\n        /* \"#utility.yul\":9822:9897   */\n      tag_90\n      jump\t// in\n    tag_196:\n        /* \"#utility.yul\":9922:9924   */\n      0x20\n        /* \"#utility.yul\":9917:9920   */\n      dup3\n        /* \"#utility.yul\":9913:9925   */\n      add\n        /* \"#utility.yul\":9906:9925   */\n      swap2\n      pop\n        /* \"#utility.yul\":9942:9945   */\n      dup2\n        /* \"#utility.yul\":9935:9945   */\n      swap1\n      pop\n        /* \"#utility.yul\":9554:9951   */\n      swap4\n      swap3\n      pop\n      pop\n      pop\n      jump\t// out\n\n    auxdata: 0xa2646970667358221220c8ce4a543093e2ec8e1ddeb4d22c56a76e3a0309515629685a2548d6a66b86a964736f6c63430008180033\n}\n",
				"bytecode": {
					"linkReferences": {},
					"object": "60c060405234801561000f575f80fd5b50738103b0a8a00be2ddc778e6e7eaa21791cd36462573779877a7b0d9e8603169ddbd7836e478b46247898173ffffffffffffffffffffffffffffffffffffffff1660a08173ffffffffffffffffffffffffffffffffffffffff16815250508073ffffffffffffffffffffffffffffffffffffffff1660808173ffffffffffffffffffffffffffffffffffffffff168152505050507f474e34a077df58807dbe9c96d3c009b23b3c6d0cce433e59bbf5b34f823bc56c5f1b60018190555067016345785d8a000060028190555060805160a05161090d61010a5f395f818160a3015261027701525f8181610143015261023b015261090d5ff3fe608060405234801561000f575f80fd5b506004361061003f575f3560e01c806342619f661461004357806394985ddd14610061578063dbdff2c11461007d575b5f80fd5b61004b61009b565b60405161005891906103ff565b60405180910390f35b61007b60048036038101906100769190610479565b6100a1565b005b61008561013d565b60405161009291906104c6565b60405180910390f35b60035481565b7f000000000000000000000000000000000000000000000000000000000000000073ffffffffffffffffffffffffffffffffffffffff163373ffffffffffffffffffffffffffffffffffffffff161461012f576040517f08c379a000000000000000000000000000000000000000000000000000000000815260040161012690610539565b60405180910390fd5b610139828261022d565b5050565b5f6002547f000000000000000000000000000000000000000000000000000000000000000073ffffffffffffffffffffffffffffffffffffffff166370a08231306040518263ffffffff1660e01b815260040161019a9190610596565b602060405180830381865afa1580156101b5573d5f803e3d5ffd5b505050506040513d601f19601f820116820180604052508101906101d991906105c3565b101561021a576040517f08c379a00000000000000000000000000000000000000000000000000000000081526004016102119061065e565b60405180910390fd5b610228600154600254610238565b905090565b806003819055505050565b5f7f000000000000000000000000000000000000000000000000000000000000000073ffffffffffffffffffffffffffffffffffffffff16634000aea07f000000000000000000000000000000000000000000000000000000000000000084865f6040516020016102aa92919061067c565b6040516020818303038152906040526040518463ffffffff1660e01b81526004016102d79392919061072d565b6020604051808303815f875af11580156102f3573d5f803e3d5ffd5b505050506040513d601f19601f82011682018060405250810190610317919061079e565b505f610335845f305f808981526020019081526020015f205461037b565b905060015f808681526020019081526020015f205461035491906107f6565b5f808681526020019081526020015f208190555061037284826103b5565b91505092915050565b5f848484846040516020016103939493929190610829565b604051602081830303815290604052805190602001205f1c9050949350505050565b5f82826040516020016103c99291906108ac565b60405160208183030381529060405280519060200120905092915050565b5f819050919050565b6103f9816103e7565b82525050565b5f6020820190506104125f8301846103f0565b92915050565b5f80fd5b5f819050919050565b61042e8161041c565b8114610438575f80fd5b50565b5f8135905061044981610425565b92915050565b610458816103e7565b8114610462575f80fd5b50565b5f813590506104738161044f565b92915050565b5f806040838503121561048f5761048e610418565b5b5f61049c8582860161043b565b92505060206104ad85828601610465565b9150509250929050565b6104c08161041c565b82525050565b5f6020820190506104d95f8301846104b7565b92915050565b5f82825260208201905092915050565b7f4f6e6c7920565246436f6f7264696e61746f722063616e2066756c66696c6c005f82015250565b5f610523601f836104df565b915061052e826104ef565b602082019050919050565b5f6020820190508181035f83015261055081610517565b9050919050565b5f73ffffffffffffffffffffffffffffffffffffffff82169050919050565b5f61058082610557565b9050919050565b61059081610576565b82525050565b5f6020820190506105a95f830184610587565b92915050565b5f815190506105bd8161044f565b92915050565b5f602082840312156105d8576105d7610418565b5b5f6105e5848285016105af565b91505092915050565b7f4e6f7420656e6f756768204c494e4b202d2066696c6c20636f6e7472616374205f8201527f7769746820666175636574000000000000000000000000000000000000000000602082015250565b5f610648602b836104df565b9150610653826105ee565b604082019050919050565b5f6020820190508181035f8301526106758161063c565b9050919050565b5f60408201905061068f5f8301856104b7565b61069c60208301846103f0565b9392505050565b5f81519050919050565b5f82825260208201905092915050565b5f5b838110156106da5780820151818401526020810190506106bf565b5f8484015250505050565b5f601f19601f8301169050919050565b5f6106ff826106a3565b61070981856106ad565b93506107198185602086016106bd565b610722816106e5565b840191505092915050565b5f6060820190506107405f830186610587565b61074d60208301856103f0565b818103604083015261075f81846106f5565b9050949350505050565b5f8115159050919050565b61077d81610769565b8114610787575f80fd5b50565b5f8151905061079881610774565b92915050565b5f602082840312156107b3576107b2610418565b5b5f6107c08482850161078a565b91505092915050565b7f4e487b71000000000000000000000000000000000000000000000000000000005f52601160045260245ffd5b5f610800826103e7565b915061080b836103e7565b9250828201905080821115610823576108226107c9565b5b92915050565b5f60808201905061083c5f8301876104b7565b61084960208301866103f0565b6108566040830185610587565b61086360608301846103f0565b95945050505050565b5f819050919050565b6108866108818261041c565b61086c565b82525050565b5f819050919050565b6108a66108a1826103e7565b61088c565b82525050565b5f6108b78285610875565b6020820191506108c78284610895565b602082019150819050939250505056fea2646970667358221220c8ce4a543093e2ec8e1ddeb4d22c56a76e3a0309515629685a2548d6a66b86a964736f6c63430008180033",
					"opcodes": "PUSH1 0xC0 PUSH1 0x40 MSTORE CALLVALUE DUP1 ISZERO PUSH2 0xF JUMPI PUSH0 DUP1 REVERT JUMPDEST POP PUSH20 0x8103B0A8A00BE2DDC778E6E7EAA21791CD364625 PUSH20 0x779877A7B0D9E8603169DDBD7836E478B4624789 DUP2 PUSH20 0xFFFFFFFFFFFFFFFFFFFFFFFFFFFFFFFFFFFFFFFF AND PUSH1 0xA0 DUP2 PUSH20 0xFFFFFFFFFFFFFFFFFFFFFFFFFFFFFFFFFFFFFFFF AND DUP2 MSTORE POP POP DUP1 PUSH20 0xFFFFFFFFFFFFFFFFFFFFFFFFFFFFFFFFFFFFFFFF AND PUSH1 0x80 DUP2 PUSH20 0xFFFFFFFFFFFFFFFFFFFFFFFFFFFFFFFFFFFFFFFF AND DUP2 MSTORE POP POP POP POP PUSH32 0x474E34A077DF58807DBE9C96D3C009B23B3C6D0CCE433E59BBF5B34F823BC56C PUSH0 SHL PUSH1 0x1 DUP2 SWAP1 SSTORE POP PUSH8 0x16345785D8A0000 PUSH1 0x2 DUP2 SWAP1 SSTORE POP PUSH1 0x80 MLOAD PUSH1 0xA0 MLOAD PUSH2 0x90D PUSH2 0x10A PUSH0 CODECOPY PUSH0 DUP2 DUP2 PUSH1 0xA3 ADD MSTORE PUSH2 0x277 ADD MSTORE PUSH0 DUP2 DUP2 PUSH2 0x143 ADD MSTORE PUSH2 0x23B ADD MSTORE PUSH2 0x90D PUSH0 RETURN INVALID PUSH1 0x80 PUSH1 0x40 MSTORE CALLVALUE DUP1 ISZERO PUSH2 0xF JUMPI PUSH0 DUP1 REVERT JUMPDEST POP PUSH1 0x4 CALLDATASIZE LT PUSH2 0x3F JUMPI PUSH0 CALLDATALOAD PUSH1 0xE0 SHR DUP1 PUSH4 0x42619F66 EQ PUSH2 0x43 JUMPI DUP1 PUSH4 0x94985DDD EQ PUSH2 0x61 JUMPI DUP1 PUSH4 0xDBDFF2C1 EQ PUSH2 0x7D JUMPI JUMPDEST PUSH0 DUP1 REVERT JUMPDEST PUSH2 0x4B PUSH2 0x9B JUMP JUMPDEST PUSH1 0x40 MLOAD PUSH2 0x58 SWAP2 SWAP1 PUSH2 0x3FF JUMP JUMPDEST PUSH1 0x40 MLOAD DUP1 SWAP2 SUB SWAP1 RETURN JUMPDEST PUSH2 0x7B PUSH1 0x4 DUP1 CALLDATASIZE SUB DUP2 ADD SWAP1 PUSH2 0x76 SWAP2 SWAP1 PUSH2 0x479 JUMP JUMPDEST PUSH2 0xA1 JUMP JUMPDEST STOP JUMPDEST PUSH2 0x85 PUSH2 0x13D JUMP JUMPDEST PUSH1 0x40 MLOAD PUSH2 0x92 SWAP2 SWAP1 PUSH2 0x4C6 JUMP JUMPDEST PUSH1 0x40 MLOAD DUP1 SWAP2 SUB SWAP1 RETURN JUMPDEST PUSH1 0x3 SLOAD DUP2 JUMP JUMPDEST PUSH32 0x0 PUSH20 0xFFFFFFFFFFFFFFFFFFFFFFFFFFFFFFFFFFFFFFFF AND CALLER PUSH20 0xFFFFFFFFFFFFFFFFFFFFFFFFFFFFFFFFFFFFFFFF AND EQ PUSH2 0x12F JUMPI PUSH1 0x40 MLOAD PUSH32 0x8C379A000000000000000000000000000000000000000000000000000000000 DUP2 MSTORE PUSH1 0x4 ADD PUSH2 0x126 SWAP1 PUSH2 0x539 JUMP JUMPDEST PUSH1 0x40 MLOAD DUP1 SWAP2 SUB SWAP1 REVERT JUMPDEST PUSH2 0x139 DUP3 DUP3 PUSH2 0x22D JUMP JUMPDEST POP POP JUMP JUMPDEST PUSH0 PUSH1 0x2 SLOAD PUSH32 0x0 PUSH20 0xFFFFFFFFFFFFFFFFFFFFFFFFFFFFFFFFFFFFFFFF AND PUSH4 0x70A08231 ADDRESS PUSH1 0x40 MLOAD DUP3 PUSH4 0xFFFFFFFF AND PUSH1 0xE0 SHL DUP2 MSTORE PUSH1 0x4 ADD PUSH2 0x19A SWAP2 SWAP1 PUSH2 0x596 JUMP JUMPDEST PUSH1 0x20 PUSH1 0x40 MLOAD DUP1 DUP4 SUB DUP2 DUP7 GAS STATICCALL ISZERO DUP1 ISZERO PUSH2 0x1B5 JUMPI RETURNDATASIZE PUSH0 DUP1 RETURNDATACOPY RETURNDATASIZE PUSH0 REVERT JUMPDEST POP POP POP POP PUSH1 0x40 MLOAD RETURNDATASIZE PUSH1 0x1F NOT PUSH1 0x1F DUP3 ADD AND DUP3 ADD DUP1 PUSH1 0x40 MSTORE POP DUP2 ADD SWAP1 PUSH2 0x1D9 SWAP2 SWAP1 PUSH2 0x5C3 JUMP JUMPDEST LT ISZERO PUSH2 0x21A JUMPI PUSH1 0x40 MLOAD PUSH32 0x8C379A000000000000000000000000000000000000000000000000000000000 DUP2 MSTORE PUSH1 0x4 ADD PUSH2 0x211 SWAP1 PUSH2 0x65E JUMP JUMPDEST PUSH1 0x40 MLOAD DUP1 SWAP2 SUB SWAP1 REVERT JUMPDEST PUSH2 0x228 PUSH1 0x1 SLOAD PUSH1 0x2 SLOAD PUSH2 0x238 JUMP JUMPDEST SWAP1 POP SWAP1 JUMP JUMPDEST DUP1 PUSH1 0x3 DUP2 SWAP1 SSTORE POP POP POP JUMP JUMPDEST PUSH0 PUSH32 0x0 PUSH20 0xFFFFFFFFFFFFFFFFFFFFFFFFFFFFFFFFFFFFFFFF AND PUSH4 0x4000AEA0 PUSH32 0x0 DUP5 DUP7 PUSH0 PUSH1 0x40 MLOAD PUSH1 0x20 ADD PUSH2 0x2AA SWAP3 SWAP2 SWAP1 PUSH2 0x67C JUMP JUMPDEST PUSH1 0x40 MLOAD PUSH1 0x20 DUP2 DUP4 SUB SUB DUP2 MSTORE SWAP1 PUSH1 0x40 MSTORE PUSH1 0x40 MLOAD DUP5 PUSH4 0xFFFFFFFF AND PUSH1 0xE0 SHL DUP2 MSTORE PUSH1 0x4 ADD PUSH2 0x2D7 SWAP4 SWAP3 SWAP2 SWAP1 PUSH2 0x72D JUMP JUMPDEST PUSH1 0x20 PUSH1 0x40 MLOAD DUP1 DUP4 SUB DUP2 PUSH0 DUP8 GAS CALL ISZERO DUP1 ISZERO PUSH2 0x2F3 JUMPI RETURNDATASIZE PUSH0 DUP1 RETURNDATACOPY RETURNDATASIZE PUSH0 REVERT JUMPDEST POP POP POP POP PUSH1 0x40 MLOAD RETURNDATASIZE PUSH1 0x1F NOT PUSH1 0x1F DUP3 ADD AND DUP3 ADD DUP1 PUSH1 0x40 MSTORE POP DUP2 ADD SWAP1 PUSH2 0x317 SWAP2 SWAP1 PUSH2 0x79E JUMP JUMPDEST POP PUSH0 PUSH2 0x335 DUP5 PUSH0 ADDRESS PUSH0 DUP1 DUP10 DUP2 MSTORE PUSH1 0x20 ADD SWAP1 DUP2 MSTORE PUSH1 0x20 ADD PUSH0 KECCAK256 SLOAD PUSH2 0x37B JUMP JUMPDEST SWAP1 POP PUSH1 0x1 PUSH0 DUP1 DUP7 DUP2 MSTORE PUSH1 0x20 ADD SWAP1 DUP2 MSTORE PUSH1 0x20 ADD PUSH0 KECCAK256 SLOAD PUSH2 0x354 SWAP2 SWAP1 PUSH2 0x7F6 JUMP JUMPDEST PUSH0 DUP1 DUP7 DUP2 MSTORE PUSH1 0x20 ADD SWAP1 DUP2 MSTORE PUSH1 0x20 ADD PUSH0 KECCAK256 DUP2 SWAP1 SSTORE POP PUSH2 0x372 DUP5 DUP3 PUSH2 0x3B5 JUMP JUMPDEST SWAP2 POP POP SWAP3 SWAP2 POP POP JUMP JUMPDEST PUSH0 DUP5 DUP5 DUP5 DUP5 PUSH1 0x40 MLOAD PUSH1 0x20 ADD PUSH2 0x393 SWAP5 SWAP4 SWAP3 SWAP2 SWAP1 PUSH2 0x829 JUMP JUMPDEST PUSH1 0x40 MLOAD PUSH1 0x20 DUP2 DUP4 SUB SUB DUP2 MSTORE SWAP1 PUSH1 0x40 MSTORE DUP1 MLOAD SWAP1 PUSH1 0x20 ADD KECCAK256 PUSH0 SHR SWAP1 POP SWAP5 SWAP4 POP POP POP POP JUMP JUMPDEST PUSH0 DUP3 DUP3 PUSH1 0x40 MLOAD PUSH1 0x20 ADD PUSH2 0x3C9 SWAP3 SWAP2 SWAP1 PUSH2 0x8AC JUMP JUMPDEST PUSH1 0x40 MLOAD PUSH1 0x20 DUP2 DUP4 SUB SUB DUP2 MSTORE SWAP1 PUSH1 0x40 MSTORE DUP1 MLOAD SWAP1 PUSH1 0x20 ADD KECCAK256 SWAP1 POP SWAP3 SWAP2 POP POP JUMP JUMPDEST PUSH0 DUP2 SWAP1 POP SWAP2 SWAP1 POP JUMP JUMPDEST PUSH2 0x3F9 DUP2 PUSH2 0x3E7 JUMP JUMPDEST DUP3 MSTORE POP POP JUMP JUMPDEST PUSH0 PUSH1 0x20 DUP3 ADD SWAP1 POP PUSH2 0x412 PUSH0 DUP4 ADD DUP5 PUSH2 0x3F0 JUMP JUMPDEST SWAP3 SWAP2 POP POP JUMP JUMPDEST PUSH0 DUP1 REVERT JUMPDEST PUSH0 DUP2 SWAP1 POP SWAP2 SWAP1 POP JUMP JUMPDEST PUSH2 0x42E DUP2 PUSH2 0x41C JUMP JUMPDEST DUP2 EQ PUSH2 0x438 JUMPI PUSH0 DUP1 REVERT JUMPDEST POP JUMP JUMPDEST PUSH0 DUP2 CALLDATALOAD SWAP1 POP PUSH2 0x449 DUP2 PUSH2 0x425 JUMP JUMPDEST SWAP3 SWAP2 POP POP JUMP JUMPDEST PUSH2 0x458 DUP2 PUSH2 0x3E7 JUMP JUMPDEST DUP2 EQ PUSH2 0x462 JUMPI PUSH0 DUP1 REVERT JUMPDEST POP JUMP JUMPDEST PUSH0 DUP2 CALLDATALOAD SWAP1 POP PUSH2 0x473 DUP2 PUSH2 0x44F JUMP JUMPDEST SWAP3 SWAP2 POP POP JUMP JUMPDEST PUSH0 DUP1 PUSH1 0x40 DUP4 DUP6 SUB SLT ISZERO PUSH2 0x48F JUMPI PUSH2 0x48E PUSH2 0x418 JUMP JUMPDEST JUMPDEST PUSH0 PUSH2 0x49C DUP6 DUP3 DUP7 ADD PUSH2 0x43B JUMP JUMPDEST SWAP3 POP POP PUSH1 0x20 PUSH2 0x4AD DUP6 DUP3 DUP7 ADD PUSH2 0x465 JUMP JUMPDEST SWAP2 POP POP SWAP3 POP SWAP3 SWAP1 POP JUMP JUMPDEST PUSH2 0x4C0 DUP2 PUSH2 0x41C JUMP JUMPDEST DUP3 MSTORE POP POP JUMP JUMPDEST PUSH0 PUSH1 0x20 DUP3 ADD SWAP1 POP PUSH2 0x4D9 PUSH0 DUP4 ADD DUP5 PUSH2 0x4B7 JUMP JUMPDEST SWAP3 SWAP2 POP POP JUMP JUMPDEST PUSH0 DUP3 DUP3 MSTORE PUSH1 0x20 DUP3 ADD SWAP1 POP SWAP3 SWAP2 POP POP JUMP JUMPDEST PUSH32 0x4F6E6C7920565246436F6F7264696E61746F722063616E2066756C66696C6C00 PUSH0 DUP3 ADD MSTORE POP JUMP JUMPDEST PUSH0 PUSH2 0x523 PUSH1 0x1F DUP4 PUSH2 0x4DF JUMP JUMPDEST SWAP2 POP PUSH2 0x52E DUP3 PUSH2 0x4EF JUMP JUMPDEST PUSH1 0x20 DUP3 ADD SWAP1 POP SWAP2 SWAP1 POP JUMP JUMPDEST PUSH0 PUSH1 0x20 DUP3 ADD SWAP1 POP DUP2 DUP2 SUB PUSH0 DUP4 ADD MSTORE PUSH2 0x550 DUP2 PUSH2 0x517 JUMP JUMPDEST SWAP1 POP SWAP2 SWAP1 POP JUMP JUMPDEST PUSH0 PUSH20 0xFFFFFFFFFFFFFFFFFFFFFFFFFFFFFFFFFFFFFFFF DUP3 AND SWAP1 POP SWAP2 SWAP1 POP JUMP JUMPDEST PUSH0 PUSH2 0x580 DUP3 PUSH2 0x557 JUMP JUMPDEST SWAP1 POP SWAP2 SWAP1 POP JUMP JUMPDEST PUSH2 0x590 DUP2 PUSH2 0x576 JUMP JUMPDEST DUP3 MSTORE POP POP JUMP JUMPDEST PUSH0 PUSH1 0x20 DUP3 ADD SWAP1 POP PUSH2 0x5A9 PUSH0 DUP4 ADD DUP5 PUSH2 0x587 JUMP JUMPDEST SWAP3 SWAP2 POP POP JUMP JUMPDEST PUSH0 DUP2 MLOAD SWAP1 POP PUSH2 0x5BD DUP2 PUSH2 0x44F JUMP JUMPDEST SWAP3 SWAP2 POP POP JUMP JUMPDEST PUSH0 PUSH1 0x20 DUP3 DUP5 SUB SLT ISZERO PUSH2 0x5D8 JUMPI PUSH2 0x5D7 PUSH2 0x418 JUMP JUMPDEST JUMPDEST PUSH0 PUSH2 0x5E5 DUP5 DUP3 DUP6 ADD PUSH2 0x5AF JUMP JUMPDEST SWAP2 POP POP SWAP3 SWAP2 POP POP JUMP JUMPDEST PUSH32 0x4E6F7420656E6F756768204C494E4B202D2066696C6C20636F6E747261637420 PUSH0 DUP3 ADD MSTORE PUSH32 0x7769746820666175636574000000000000000000000000000000000000000000 PUSH1 0x20 DUP3 ADD MSTORE POP JUMP JUMPDEST PUSH0 PUSH2 0x648 PUSH1 0x2B DUP4 PUSH2 0x4DF JUMP JUMPDEST SWAP2 POP PUSH2 0x653 DUP3 PUSH2 0x5EE JUMP JUMPDEST PUSH1 0x40 DUP3 ADD SWAP1 POP SWAP2 SWAP1 POP JUMP JUMPDEST PUSH0 PUSH1 0x20 DUP3 ADD SWAP1 POP DUP2 DUP2 SUB PUSH0 DUP4 ADD MSTORE PUSH2 0x675 DUP2 PUSH2 0x63C JUMP JUMPDEST SWAP1 POP SWAP2 SWAP1 POP JUMP JUMPDEST PUSH0 PUSH1 0x40 DUP3 ADD SWAP1 POP PUSH2 0x68F PUSH0 DUP4 ADD DUP6 PUSH2 0x4B7 JUMP JUMPDEST PUSH2 0x69C PUSH1 0x20 DUP4 ADD DUP5 PUSH2 0x3F0 JUMP JUMPDEST SWAP4 SWAP3 POP POP POP JUMP JUMPDEST PUSH0 DUP2 MLOAD SWAP1 POP SWAP2 SWAP1 POP JUMP JUMPDEST PUSH0 DUP3 DUP3 MSTORE PUSH1 0x20 DUP3 ADD SWAP1 POP SWAP3 SWAP2 POP POP JUMP JUMPDEST PUSH0 JUMPDEST DUP4 DUP2 LT ISZERO PUSH2 0x6DA JUMPI DUP1 DUP3 ADD MLOAD DUP2 DUP5 ADD MSTORE PUSH1 0x20 DUP2 ADD SWAP1 POP PUSH2 0x6BF JUMP JUMPDEST PUSH0 DUP5 DUP5 ADD MSTORE POP POP POP POP JUMP JUMPDEST PUSH0 PUSH1 0x1F NOT PUSH1 0x1F DUP4 ADD AND SWAP1 POP SWAP2 SWAP1 POP JUMP JUMPDEST PUSH0 PUSH2 0x6FF DUP3 PUSH2 0x6A3 JUMP JUMPDEST PUSH2 0x709 DUP2 DUP6 PUSH2 0x6AD JUMP JUMPDEST SWAP4 POP PUSH2 0x719 DUP2 DUP6 PUSH1 0x20 DUP7 ADD PUSH2 0x6BD JUMP JUMPDEST PUSH2 0x722 DUP2 PUSH2 0x6E5 JUMP JUMPDEST DUP5 ADD SWAP2 POP POP SWAP3 SWAP2 POP POP JUMP JUMPDEST PUSH0 PUSH1 0x60 DUP3 ADD SWAP1 POP PUSH2 0x740 PUSH0 DUP4 ADD DUP7 PUSH2 0x587 JUMP JUMPDEST PUSH2 0x74D PUSH1 0x20 DUP4 ADD DUP6 PUSH2 0x3F0 JUMP JUMPDEST DUP2 DUP2 SUB PUSH1 0x40 DUP4 ADD MSTORE PUSH2 0x75F DUP2 DUP5 PUSH2 0x6F5 JUMP JUMPDEST SWAP1 POP SWAP5 SWAP4 POP POP POP POP JUMP JUMPDEST PUSH0 DUP2 ISZERO ISZERO SWAP1 POP SWAP2 SWAP1 POP JUMP JUMPDEST PUSH2 0x77D DUP2 PUSH2 0x769 JUMP JUMPDEST DUP2 EQ PUSH2 0x787 JUMPI PUSH0 DUP1 REVERT JUMPDEST POP JUMP JUMPDEST PUSH0 DUP2 MLOAD SWAP1 POP PUSH2 0x798 DUP2 PUSH2 0x774 JUMP JUMPDEST SWAP3 SWAP2 POP POP JUMP JUMPDEST PUSH0 PUSH1 0x20 DUP3 DUP5 SUB SLT ISZERO PUSH2 0x7B3 JUMPI PUSH2 0x7B2 PUSH2 0x418 JUMP JUMPDEST JUMPDEST PUSH0 PUSH2 0x7C0 DUP5 DUP3 DUP6 ADD PUSH2 0x78A JUMP JUMPDEST SWAP2 POP POP SWAP3 SWAP2 POP POP JUMP JUMPDEST PUSH32 0x4E487B7100000000000000000000000000000000000000000000000000000000 PUSH0 MSTORE PUSH1 0x11 PUSH1 0x4 MSTORE PUSH1 0x24 PUSH0 REVERT JUMPDEST PUSH0 PUSH2 0x800 DUP3 PUSH2 0x3E7 JUMP JUMPDEST SWAP2 POP PUSH2 0x80B DUP4 PUSH2 0x3E7 JUMP JUMPDEST SWAP3 POP DUP3 DUP3 ADD SWAP1 POP DUP1 DUP3 GT ISZERO PUSH2 0x823 JUMPI PUSH2 0x822 PUSH2 0x7C9 JUMP JUMPDEST JUMPDEST SWAP3 SWAP2 POP POP JUMP JUMPDEST PUSH0 PUSH1 0x80 DUP3 ADD SWAP1 POP PUSH2 0x83C PUSH0 DUP4 ADD DUP8 PUSH2 0x4B7 JUMP JUMPDEST PUSH2 0x849 PUSH1 0x20 DUP4 ADD DUP7 PUSH2 0x3F0 JUMP JUMPDEST PUSH2 0x856 PUSH1 0x40 DUP4 ADD DUP6 PUSH2 0x587 JUMP JUMPDEST PUSH2 0x863 PUSH1 0x60 DUP4 ADD DUP5 PUSH2 0x3F0 JUMP JUMPDEST SWAP6 SWAP5 POP POP POP POP POP JUMP JUMPDEST PUSH0 DUP2 SWAP1 POP SWAP2 SWAP1 POP JUMP JUMPDEST PUSH2 0x886 PUSH2 0x881 DUP3 PUSH2 0x41C JUMP JUMPDEST PUSH2 0x86C JUMP JUMPDEST DUP3 MSTORE POP POP JUMP JUMPDEST PUSH0 DUP2 SWAP1 POP SWAP2 SWAP1 POP JUMP JUMPDEST PUSH2 0x8A6 PUSH2 0x8A1 DUP3 PUSH2 0x3E7 JUMP JUMPDEST PUSH2 0x88C JUMP JUMPDEST DUP3 MSTORE POP POP JUMP JUMPDEST PUSH0 PUSH2 0x8B7 DUP3 DUP6 PUSH2 0x875 JUMP JUMPDEST PUSH1 0x20 DUP3 ADD SWAP2 POP PUSH2 0x8C7 DUP3 DUP5 PUSH2 0x895 JUMP JUMPDEST PUSH1 0x20 DUP3 ADD SWAP2 POP DUP2 SWAP1 POP SWAP4 SWAP3 POP POP POP JUMP INVALID LOG2 PUSH5 0x6970667358 0x22 SLT KECCAK256 0xC8 0xCE BLOBBASEFEE SLOAD ADDRESS SWAP4 0xE2 0xEC DUP15 SAR 0xDE 0xB4 0xD2 0x2C JUMP 0xA7 PUSH15 0x3A0309515629685A2548D6A66B86A9 PUSH5 0x736F6C6343 STOP ADDMOD XOR STOP CALLER "
				},
				"gasEstimates": {
					"creation": {
						"codeDepositCost": "463400",
						"executionCost": "infinite",
						"totalCost": "infinite"
					},
					"external": {
						"getRandomNumber()": "infinite",
						"randomResult()": "2403",
						"rawFulfillRandomness(bytes32,uint256)": "infinite"
					},
					"internal": {
						"fulfillRandomness(bytes32,uint256)": "22127"
					}
				},
				"methodIdentifiers": {
					"getRandomNumber()": "dbdff2c1",
					"randomResult()": "42619f66",
					"rawFulfillRandomness(bytes32,uint256)": "94985ddd"
				}
			},
			"storageLayout": {
				"storage": [
					{
						"astId": 79,
						"contract": "randomData/chainlinkRandom.sol:MyVRFConsumer",
						"label": "nonces",
						"offset": 0,
						"slot": "0",
						"type": "t_mapping(t_bytes32,t_uint256)"
					},
					{
						"astId": 272,
						"contract": "randomData/chainlinkRandom.sol:MyVRFConsumer",
						"label": "keyHash",
						"offset": 0,
						"slot": "1",
						"type": "t_bytes32"
					},
					{
						"astId": 274,
						"contract": "randomData/chainlinkRandom.sol:MyVRFConsumer",
						"label": "fee",
						"offset": 0,
						"slot": "2",
						"type": "t_uint256"
					},
					{
						"astId": 276,
						"contract": "randomData/chainlinkRandom.sol:MyVRFConsumer",
						"label": "randomResult",
						"offset": 0,
						"slot": "3",
						"type": "t_uint256"
					}
				],
				"types": {
					"t_bytes32": {
						"encoding": "inplace",
						"label": "bytes32",
						"numberOfBytes": "32"
					},
					"t_mapping(t_bytes32,t_uint256)": {
						"encoding": "mapping",
						"key": "t_bytes32",
						"label": "mapping(bytes32 => uint256)",
						"numberOfBytes": "32",
						"value": "t_uint256"
					},
					"t_uint256": {
						"encoding": "inplace",
						"label": "uint256",
						"numberOfBytes": "32"
					}
				}
			},
			"userdoc": {
				"kind": "user",
				"methods": {},
				"version": 1
			}
		}
	}
}