{
	"levelup/gasDifficult.sol": {
		"GasGuessingChallenge": {
			"abi": [
				{
					"inputs": [
						{
							"internalType": "string",
							"name": "_flag",
							"type": "string"
						},
						{
							"internalType": "uint256",
							"name": "_gasUsed",
							"type": "uint256"
						}
					],
					"stateMutability": "nonpayable",
					"type": "constructor"
				},
				{
					"inputs": [
						{
							"internalType": "uint256",
							"name": "_num1",
							"type": "uint256"
						},
						{
							"internalType": "uint256",
							"name": "_num2",
							"type": "uint256"
						}
					],
					"name": "add",
					"outputs": [
						{
							"internalType": "uint256",
							"name": "",
							"type": "uint256"
						}
					],
					"stateMutability": "nonpayable",
					"type": "function"
				},
				{
					"inputs": [],
					"name": "finalGas",
					"outputs": [
						{
							"internalType": "uint256",
							"name": "",
							"type": "uint256"
						}
					],
					"stateMutability": "view",
					"type": "function"
				},
				{
					"inputs": [],
					"name": "gaspricetx",
					"outputs": [
						{
							"internalType": "uint256",
							"name": "",
							"type": "uint256"
						}
					],
					"stateMutability": "view",
					"type": "function"
				},
				{
					"inputs": [],
					"name": "getCurrentGasPrice",
					"outputs": [],
					"stateMutability": "nonpayable",
					"type": "function"
				},
				{
					"inputs": [],
					"name": "getFlag",
					"outputs": [
						{
							"internalType": "string",
							"name": "",
							"type": "string"
						}
					],
					"stateMutability": "view",
					"type": "function"
				},
				{
					"inputs": [],
					"name": "initialGas",
					"outputs": [
						{
							"internalType": "uint256",
							"name": "",
							"type": "uint256"
						}
					],
					"stateMutability": "view",
					"type": "function"
				},
				{
					"inputs": [],
					"name": "openDoor",
					"outputs": [
						{
							"internalType": "bool",
							"name": "",
							"type": "bool"
						}
					],
					"stateMutability": "view",
					"type": "function"
				},
				{
					"inputs": [],
					"name": "owner",
					"outputs": [
						{
							"internalType": "address",
							"name": "",
							"type": "address"
						}
					],
					"stateMutability": "view",
					"type": "function"
				},
				{
					"inputs": [
						{
							"internalType": "uint256",
							"name": "_num1",
							"type": "uint256"
						},
						{
							"internalType": "uint256",
							"name": "_num2",
							"type": "uint256"
						}
					],
					"name": "subtract",
					"outputs": [
						{
							"internalType": "uint256",
							"name": "",
							"type": "uint256"
						}
					],
					"stateMutability": "nonpayable",
					"type": "function"
				}
			],
			"devdoc": {
				"kind": "dev",
				"methods": {},
				"version": 1
			},
			"evm": {
				"assembly": "    /* \"levelup/gasDifficult.sol\":60:1816  contract GasGuessingChallenge  {... */\n  mstore(0x40, 0x80)\n    /* \"levelup/gasDifficult.sol\":293:431  constructor(string memory _flag, uint _gasUsed)  {... */\n  callvalue\n  dup1\n  iszero\n  tag_1\n  jumpi\n  0x00\n  dup1\n  revert\ntag_1:\n  pop\n  mload(0x40)\n  sub(codesize, bytecodeSize)\n  dup1\n  bytecodeSize\n  dup4\n  codecopy\n  dup2\n  dup2\n  add\n  0x40\n  mstore\n  dup2\n  add\n  swap1\n  tag_2\n  swap2\n  swap1\n  tag_3\n  jump\t// in\ntag_2:\n    /* \"levelup/gasDifficult.sol\":360:365  _flag */\n  dup2\n    /* \"levelup/gasDifficult.sol\":353:357  flag */\n  0x00\n    /* \"levelup/gasDifficult.sol\":353:365  flag = _flag */\n  swap1\n  dup2\n  tag_6\n  swap2\n  swap1\n  tag_7\n  jump\t// in\ntag_6:\n  pop\n    /* \"levelup/gasDifficult.sol\":384:394  msg.sender */\n  caller\n    /* \"levelup/gasDifficult.sol\":376:381  owner */\n  0x05\n  0x01\n    /* \"levelup/gasDifficult.sol\":376:394  owner = msg.sender */\n  0x0100\n  exp\n  dup2\n  sload\n  dup2\n  0xffffffffffffffffffffffffffffffffffffffff\n  mul\n  not\n  and\n  swap1\n  dup4\n  0xffffffffffffffffffffffffffffffffffffffff\n  and\n  mul\n  or\n  swap1\n  sstore\n  pop\n    /* \"levelup/gasDifficult.sol\":415:423  _gasUsed */\n  dup1\n    /* \"levelup/gasDifficult.sol\":405:412  gasUsed */\n  0x01\n    /* \"levelup/gasDifficult.sol\":405:423  gasUsed = _gasUsed */\n  dup2\n  swap1\n  sstore\n  pop\n    /* \"levelup/gasDifficult.sol\":293:431  constructor(string memory _flag, uint _gasUsed)  {... */\n  pop\n  pop\n    /* \"levelup/gasDifficult.sol\":60:1816  contract GasGuessingChallenge  {... */\n  jump(tag_8)\n    /* \"#utility.yul\":7:82   */\ntag_9:\n    /* \"#utility.yul\":40:46   */\n  0x00\n    /* \"#utility.yul\":73:75   */\n  0x40\n    /* \"#utility.yul\":67:76   */\n  mload\n    /* \"#utility.yul\":57:76   */\n  swap1\n  pop\n    /* \"#utility.yul\":7:82   */\n  swap1\n  jump\t// out\n    /* \"#utility.yul\":88:205   */\ntag_10:\n    /* \"#utility.yul\":197:198   */\n  0x00\n    /* \"#utility.yul\":194:195   */\n  dup1\n    /* \"#utility.yul\":187:199   */\n  revert\n    /* \"#utility.yul\":211:328   */\ntag_11:\n    /* \"#utility.yul\":320:321   */\n  0x00\n    /* \"#utility.yul\":317:318   */\n  dup1\n    /* \"#utility.yul\":310:322   */\n  revert\n    /* \"#utility.yul\":334:451   */\ntag_12:\n    /* \"#utility.yul\":443:444   */\n  0x00\n    /* \"#utility.yul\":440:441   */\n  dup1\n    /* \"#utility.yul\":433:445   */\n  revert\n    /* \"#utility.yul\":457:574   */\ntag_13:\n    /* \"#utility.yul\":566:567   */\n  0x00\n    /* \"#utility.yul\":563:564   */\n  dup1\n    /* \"#utility.yul\":556:568   */\n  revert\n    /* \"#utility.yul\":580:682   */\ntag_14:\n    /* \"#utility.yul\":621:627   */\n  0x00\n    /* \"#utility.yul\":672:674   */\n  0x1f\n    /* \"#utility.yul\":668:675   */\n  not\n    /* \"#utility.yul\":663:665   */\n  0x1f\n    /* \"#utility.yul\":656:661   */\n  dup4\n    /* \"#utility.yul\":652:666   */\n  add\n    /* \"#utility.yul\":648:676   */\n  and\n    /* \"#utility.yul\":638:676   */\n  swap1\n  pop\n    /* \"#utility.yul\":580:682   */\n  swap2\n  swap1\n  pop\n  jump\t// out\n    /* \"#utility.yul\":688:868   */\ntag_15:\n    /* \"#utility.yul\":736:813   */\n  0x4e487b7100000000000000000000000000000000000000000000000000000000\n    /* \"#utility.yul\":733:734   */\n  0x00\n    /* \"#utility.yul\":726:814   */\n  mstore\n    /* \"#utility.yul\":833:837   */\n  0x41\n    /* \"#utility.yul\":830:831   */\n  0x04\n    /* \"#utility.yul\":823:838   */\n  mstore\n    /* \"#utility.yul\":857:861   */\n  0x24\n    /* \"#utility.yul\":854:855   */\n  0x00\n    /* \"#utility.yul\":847:862   */\n  revert\n    /* \"#utility.yul\":874:1155   */\ntag_16:\n    /* \"#utility.yul\":957:984   */\n  tag_52\n    /* \"#utility.yul\":979:983   */\n  dup3\n    /* \"#utility.yul\":957:984   */\n  tag_14\n  jump\t// in\ntag_52:\n    /* \"#utility.yul\":949:955   */\n  dup2\n    /* \"#utility.yul\":945:985   */\n  add\n    /* \"#utility.yul\":1087:1093   */\n  dup2\n    /* \"#utility.yul\":1075:1085   */\n  dup2\n    /* \"#utility.yul\":1072:1094   */\n  lt\n    /* \"#utility.yul\":1051:1069   */\n  0xffffffffffffffff\n    /* \"#utility.yul\":1039:1049   */\n  dup3\n    /* \"#utility.yul\":1036:1070   */\n  gt\n    /* \"#utility.yul\":1033:1095   */\n  or\n    /* \"#utility.yul\":1030:1118   */\n  iszero\n  tag_53\n  jumpi\n    /* \"#utility.yul\":1098:1116   */\n  tag_54\n  tag_15\n  jump\t// in\ntag_54:\n    /* \"#utility.yul\":1030:1118   */\ntag_53:\n    /* \"#utility.yul\":1138:1148   */\n  dup1\n    /* \"#utility.yul\":1134:1136   */\n  0x40\n    /* \"#utility.yul\":1127:1149   */\n  mstore\n    /* \"#utility.yul\":917:1155   */\n  pop\n    /* \"#utility.yul\":874:1155   */\n  pop\n  pop\n  jump\t// out\n    /* \"#utility.yul\":1161:1290   */\ntag_17:\n    /* \"#utility.yul\":1195:1201   */\n  0x00\n    /* \"#utility.yul\":1222:1242   */\n  tag_56\n  tag_9\n  jump\t// in\ntag_56:\n    /* \"#utility.yul\":1212:1242   */\n  swap1\n  pop\n    /* \"#utility.yul\":1251:1284   */\n  tag_57\n    /* \"#utility.yul\":1279:1283   */\n  dup3\n    /* \"#utility.yul\":1271:1277   */\n  dup3\n    /* \"#utility.yul\":1251:1284   */\n  tag_16\n  jump\t// in\ntag_57:\n    /* \"#utility.yul\":1161:1290   */\n  swap2\n  swap1\n  pop\n  jump\t// out\n    /* \"#utility.yul\":1296:1604   */\ntag_18:\n    /* \"#utility.yul\":1358:1362   */\n  0x00\n    /* \"#utility.yul\":1448:1466   */\n  0xffffffffffffffff\n    /* \"#utility.yul\":1440:1446   */\n  dup3\n    /* \"#utility.yul\":1437:1467   */\n  gt\n    /* \"#utility.yul\":1434:1490   */\n  iszero\n  tag_59\n  jumpi\n    /* \"#utility.yul\":1470:1488   */\n  tag_60\n  tag_15\n  jump\t// in\ntag_60:\n    /* \"#utility.yul\":1434:1490   */\ntag_59:\n    /* \"#utility.yul\":1508:1537   */\n  tag_61\n    /* \"#utility.yul\":1530:1536   */\n  dup3\n    /* \"#utility.yul\":1508:1537   */\n  tag_14\n  jump\t// in\ntag_61:\n    /* \"#utility.yul\":1500:1537   */\n  swap1\n  pop\n    /* \"#utility.yul\":1592:1596   */\n  0x20\n    /* \"#utility.yul\":1586:1590   */\n  dup2\n    /* \"#utility.yul\":1582:1597   */\n  add\n    /* \"#utility.yul\":1574:1597   */\n  swap1\n  pop\n    /* \"#utility.yul\":1296:1604   */\n  swap2\n  swap1\n  pop\n  jump\t// out\n    /* \"#utility.yul\":1610:1856   */\ntag_19:\n    /* \"#utility.yul\":1691:1692   */\n  0x00\n    /* \"#utility.yul\":1701:1814   */\ntag_63:\n    /* \"#utility.yul\":1715:1721   */\n  dup4\n    /* \"#utility.yul\":1712:1713   */\n  dup2\n    /* \"#utility.yul\":1709:1722   */\n  lt\n    /* \"#utility.yul\":1701:1814   */\n  iszero\n  tag_65\n  jumpi\n    /* \"#utility.yul\":1800:1801   */\n  dup1\n    /* \"#utility.yul\":1795:1798   */\n  dup3\n    /* \"#utility.yul\":1791:1802   */\n  add\n    /* \"#utility.yul\":1785:1803   */\n  mload\n    /* \"#utility.yul\":1781:1782   */\n  dup2\n    /* \"#utility.yul\":1776:1779   */\n  dup5\n    /* \"#utility.yul\":1772:1783   */\n  add\n    /* \"#utility.yul\":1765:1804   */\n  mstore\n    /* \"#utility.yul\":1737:1739   */\n  0x20\n    /* \"#utility.yul\":1734:1735   */\n  dup2\n    /* \"#utility.yul\":1730:1740   */\n  add\n    /* \"#utility.yul\":1725:1740   */\n  swap1\n  pop\n    /* \"#utility.yul\":1701:1814   */\n  jump(tag_63)\ntag_65:\n    /* \"#utility.yul\":1848:1849   */\n  0x00\n    /* \"#utility.yul\":1839:1845   */\n  dup5\n    /* \"#utility.yul\":1834:1837   */\n  dup5\n    /* \"#utility.yul\":1830:1846   */\n  add\n    /* \"#utility.yul\":1823:1850   */\n  mstore\n    /* \"#utility.yul\":1672:1856   */\n  pop\n    /* \"#utility.yul\":1610:1856   */\n  pop\n  pop\n  pop\n  jump\t// out\n    /* \"#utility.yul\":1862:2296   */\ntag_20:\n    /* \"#utility.yul\":1951:1956   */\n  0x00\n    /* \"#utility.yul\":1976:2042   */\n  tag_67\n    /* \"#utility.yul\":1992:2041   */\n  tag_68\n    /* \"#utility.yul\":2034:2040   */\n  dup5\n    /* \"#utility.yul\":1992:2041   */\n  tag_18\n  jump\t// in\ntag_68:\n    /* \"#utility.yul\":1976:2042   */\n  tag_17\n  jump\t// in\ntag_67:\n    /* \"#utility.yul\":1967:2042   */\n  swap1\n  pop\n    /* \"#utility.yul\":2065:2071   */\n  dup3\n    /* \"#utility.yul\":2058:2063   */\n  dup2\n    /* \"#utility.yul\":2051:2072   */\n  mstore\n    /* \"#utility.yul\":2103:2107   */\n  0x20\n    /* \"#utility.yul\":2096:2101   */\n  dup2\n    /* \"#utility.yul\":2092:2108   */\n  add\n    /* \"#utility.yul\":2141:2144   */\n  dup5\n    /* \"#utility.yul\":2132:2138   */\n  dup5\n    /* \"#utility.yul\":2127:2130   */\n  dup5\n    /* \"#utility.yul\":2123:2139   */\n  add\n    /* \"#utility.yul\":2120:2145   */\n  gt\n    /* \"#utility.yul\":2117:2229   */\n  iszero\n  tag_69\n  jumpi\n    /* \"#utility.yul\":2148:2227   */\n  tag_70\n  tag_13\n  jump\t// in\ntag_70:\n    /* \"#utility.yul\":2117:2229   */\ntag_69:\n    /* \"#utility.yul\":2238:2290   */\n  tag_71\n    /* \"#utility.yul\":2283:2289   */\n  dup5\n    /* \"#utility.yul\":2278:2281   */\n  dup3\n    /* \"#utility.yul\":2273:2276   */\n  dup6\n    /* \"#utility.yul\":2238:2290   */\n  tag_19\n  jump\t// in\ntag_71:\n    /* \"#utility.yul\":1957:2296   */\n  pop\n    /* \"#utility.yul\":1862:2296   */\n  swap4\n  swap3\n  pop\n  pop\n  pop\n  jump\t// out\n    /* \"#utility.yul\":2316:2671   */\ntag_21:\n    /* \"#utility.yul\":2383:2388   */\n  0x00\n    /* \"#utility.yul\":2432:2435   */\n  dup3\n    /* \"#utility.yul\":2425:2429   */\n  0x1f\n    /* \"#utility.yul\":2417:2423   */\n  dup4\n    /* \"#utility.yul\":2413:2430   */\n  add\n    /* \"#utility.yul\":2409:2436   */\n  slt\n    /* \"#utility.yul\":2399:2521   */\n  tag_73\n  jumpi\n    /* \"#utility.yul\":2440:2519   */\n  tag_74\n  tag_12\n  jump\t// in\ntag_74:\n    /* \"#utility.yul\":2399:2521   */\ntag_73:\n    /* \"#utility.yul\":2550:2556   */\n  dup2\n    /* \"#utility.yul\":2544:2557   */\n  mload\n    /* \"#utility.yul\":2575:2665   */\n  tag_75\n    /* \"#utility.yul\":2661:2664   */\n  dup5\n    /* \"#utility.yul\":2653:2659   */\n  dup3\n    /* \"#utility.yul\":2646:2650   */\n  0x20\n    /* \"#utility.yul\":2638:2644   */\n  dup7\n    /* \"#utility.yul\":2634:2651   */\n  add\n    /* \"#utility.yul\":2575:2665   */\n  tag_20\n  jump\t// in\ntag_75:\n    /* \"#utility.yul\":2566:2665   */\n  swap2\n  pop\n    /* \"#utility.yul\":2389:2671   */\n  pop\n    /* \"#utility.yul\":2316:2671   */\n  swap3\n  swap2\n  pop\n  pop\n  jump\t// out\n    /* \"#utility.yul\":2677:2754   */\ntag_22:\n    /* \"#utility.yul\":2714:2721   */\n  0x00\n    /* \"#utility.yul\":2743:2748   */\n  dup2\n    /* \"#utility.yul\":2732:2748   */\n  swap1\n  pop\n    /* \"#utility.yul\":2677:2754   */\n  swap2\n  swap1\n  pop\n  jump\t// out\n    /* \"#utility.yul\":2760:2882   */\ntag_23:\n    /* \"#utility.yul\":2833:2857   */\n  tag_78\n    /* \"#utility.yul\":2851:2856   */\n  dup2\n    /* \"#utility.yul\":2833:2857   */\n  tag_22\n  jump\t// in\ntag_78:\n    /* \"#utility.yul\":2826:2831   */\n  dup2\n    /* \"#utility.yul\":2823:2858   */\n  eq\n    /* \"#utility.yul\":2813:2876   */\n  tag_79\n  jumpi\n    /* \"#utility.yul\":2872:2873   */\n  0x00\n    /* \"#utility.yul\":2869:2870   */\n  dup1\n    /* \"#utility.yul\":2862:2874   */\n  revert\n    /* \"#utility.yul\":2813:2876   */\ntag_79:\n    /* \"#utility.yul\":2760:2882   */\n  pop\n  jump\t// out\n    /* \"#utility.yul\":2888:3031   */\ntag_24:\n    /* \"#utility.yul\":2945:2950   */\n  0x00\n    /* \"#utility.yul\":2976:2982   */\n  dup2\n    /* \"#utility.yul\":2970:2983   */\n  mload\n    /* \"#utility.yul\":2961:2983   */\n  swap1\n  pop\n    /* \"#utility.yul\":2992:3025   */\n  tag_81\n    /* \"#utility.yul\":3019:3024   */\n  dup2\n    /* \"#utility.yul\":2992:3025   */\n  tag_23\n  jump\t// in\ntag_81:\n    /* \"#utility.yul\":2888:3031   */\n  swap3\n  swap2\n  pop\n  pop\n  jump\t// out\n    /* \"#utility.yul\":3037:3717   */\ntag_3:\n    /* \"#utility.yul\":3126:3132   */\n  0x00\n    /* \"#utility.yul\":3134:3140   */\n  dup1\n    /* \"#utility.yul\":3183:3185   */\n  0x40\n    /* \"#utility.yul\":3171:3180   */\n  dup4\n    /* \"#utility.yul\":3162:3169   */\n  dup6\n    /* \"#utility.yul\":3158:3181   */\n  sub\n    /* \"#utility.yul\":3154:3186   */\n  slt\n    /* \"#utility.yul\":3151:3270   */\n  iszero\n  tag_83\n  jumpi\n    /* \"#utility.yul\":3189:3268   */\n  tag_84\n  tag_10\n  jump\t// in\ntag_84:\n    /* \"#utility.yul\":3151:3270   */\ntag_83:\n    /* \"#utility.yul\":3330:3331   */\n  0x00\n    /* \"#utility.yul\":3319:3328   */\n  dup4\n    /* \"#utility.yul\":3315:3332   */\n  add\n    /* \"#utility.yul\":3309:3333   */\n  mload\n    /* \"#utility.yul\":3360:3378   */\n  0xffffffffffffffff\n    /* \"#utility.yul\":3352:3358   */\n  dup2\n    /* \"#utility.yul\":3349:3379   */\n  gt\n    /* \"#utility.yul\":3346:3463   */\n  iszero\n  tag_85\n  jumpi\n    /* \"#utility.yul\":3382:3461   */\n  tag_86\n  tag_11\n  jump\t// in\ntag_86:\n    /* \"#utility.yul\":3346:3463   */\ntag_85:\n    /* \"#utility.yul\":3487:3561   */\n  tag_87\n    /* \"#utility.yul\":3553:3560   */\n  dup6\n    /* \"#utility.yul\":3544:3550   */\n  dup3\n    /* \"#utility.yul\":3533:3542   */\n  dup7\n    /* \"#utility.yul\":3529:3551   */\n  add\n    /* \"#utility.yul\":3487:3561   */\n  tag_21\n  jump\t// in\ntag_87:\n    /* \"#utility.yul\":3477:3561   */\n  swap3\n  pop\n    /* \"#utility.yul\":3280:3571   */\n  pop\n    /* \"#utility.yul\":3610:3612   */\n  0x20\n    /* \"#utility.yul\":3636:3700   */\n  tag_88\n    /* \"#utility.yul\":3692:3699   */\n  dup6\n    /* \"#utility.yul\":3683:3689   */\n  dup3\n    /* \"#utility.yul\":3672:3681   */\n  dup7\n    /* \"#utility.yul\":3668:3690   */\n  add\n    /* \"#utility.yul\":3636:3700   */\n  tag_24\n  jump\t// in\ntag_88:\n    /* \"#utility.yul\":3626:3700   */\n  swap2\n  pop\n    /* \"#utility.yul\":3581:3710   */\n  pop\n    /* \"#utility.yul\":3037:3717   */\n  swap3\n  pop\n  swap3\n  swap1\n  pop\n  jump\t// out\n    /* \"#utility.yul\":3723:3822   */\ntag_25:\n    /* \"#utility.yul\":3775:3781   */\n  0x00\n    /* \"#utility.yul\":3809:3814   */\n  dup2\n    /* \"#utility.yul\":3803:3815   */\n  mload\n    /* \"#utility.yul\":3793:3815   */\n  swap1\n  pop\n    /* \"#utility.yul\":3723:3822   */\n  swap2\n  swap1\n  pop\n  jump\t// out\n    /* \"#utility.yul\":3828:4008   */\ntag_26:\n    /* \"#utility.yul\":3876:3953   */\n  0x4e487b7100000000000000000000000000000000000000000000000000000000\n    /* \"#utility.yul\":3873:3874   */\n  0x00\n    /* \"#utility.yul\":3866:3954   */\n  mstore\n    /* \"#utility.yul\":3973:3977   */\n  0x22\n    /* \"#utility.yul\":3970:3971   */\n  0x04\n    /* \"#utility.yul\":3963:3978   */\n  mstore\n    /* \"#utility.yul\":3997:4001   */\n  0x24\n    /* \"#utility.yul\":3994:3995   */\n  0x00\n    /* \"#utility.yul\":3987:4002   */\n  revert\n    /* \"#utility.yul\":4014:4334   */\ntag_27:\n    /* \"#utility.yul\":4058:4064   */\n  0x00\n    /* \"#utility.yul\":4095:4096   */\n  0x02\n    /* \"#utility.yul\":4089:4093   */\n  dup3\n    /* \"#utility.yul\":4085:4097   */\n  div\n    /* \"#utility.yul\":4075:4097   */\n  swap1\n  pop\n    /* \"#utility.yul\":4142:4143   */\n  0x01\n    /* \"#utility.yul\":4136:4140   */\n  dup3\n    /* \"#utility.yul\":4132:4144   */\n  and\n    /* \"#utility.yul\":4163:4181   */\n  dup1\n    /* \"#utility.yul\":4153:4234   */\n  tag_92\n  jumpi\n    /* \"#utility.yul\":4219:4223   */\n  0x7f\n    /* \"#utility.yul\":4211:4217   */\n  dup3\n    /* \"#utility.yul\":4207:4224   */\n  and\n    /* \"#utility.yul\":4197:4224   */\n  swap2\n  pop\n    /* \"#utility.yul\":4153:4234   */\ntag_92:\n    /* \"#utility.yul\":4281:4283   */\n  0x20\n    /* \"#utility.yul\":4273:4279   */\n  dup3\n    /* \"#utility.yul\":4270:4284   */\n  lt\n    /* \"#utility.yul\":4250:4268   */\n  dup2\n    /* \"#utility.yul\":4247:4285   */\n  sub\n    /* \"#utility.yul\":4244:4328   */\n  tag_93\n  jumpi\n    /* \"#utility.yul\":4300:4318   */\n  tag_94\n  tag_26\n  jump\t// in\ntag_94:\n    /* \"#utility.yul\":4244:4328   */\ntag_93:\n    /* \"#utility.yul\":4065:4334   */\n  pop\n    /* \"#utility.yul\":4014:4334   */\n  swap2\n  swap1\n  pop\n  jump\t// out\n    /* \"#utility.yul\":4340:4481   */\ntag_28:\n    /* \"#utility.yul\":4389:4393   */\n  0x00\n    /* \"#utility.yul\":4412:4415   */\n  dup2\n    /* \"#utility.yul\":4404:4415   */\n  swap1\n  pop\n    /* \"#utility.yul\":4435:4438   */\n  dup2\n    /* \"#utility.yul\":4432:4433   */\n  0x00\n    /* \"#utility.yul\":4425:4439   */\n  mstore\n    /* \"#utility.yul\":4469:4473   */\n  0x20\n    /* \"#utility.yul\":4466:4467   */\n  0x00\n    /* \"#utility.yul\":4456:4474   */\n  keccak256\n    /* \"#utility.yul\":4448:4474   */\n  swap1\n  pop\n    /* \"#utility.yul\":4340:4481   */\n  swap2\n  swap1\n  pop\n  jump\t// out\n    /* \"#utility.yul\":4487:4580   */\ntag_29:\n    /* \"#utility.yul\":4524:4530   */\n  0x00\n    /* \"#utility.yul\":4571:4573   */\n  0x20\n    /* \"#utility.yul\":4566:4568   */\n  0x1f\n    /* \"#utility.yul\":4559:4564   */\n  dup4\n    /* \"#utility.yul\":4555:4569   */\n  add\n    /* \"#utility.yul\":4551:4574   */\n  div\n    /* \"#utility.yul\":4541:4574   */\n  swap1\n  pop\n    /* \"#utility.yul\":4487:4580   */\n  swap2\n  swap1\n  pop\n  jump\t// out\n    /* \"#utility.yul\":4586:4693   */\ntag_30:\n    /* \"#utility.yul\":4630:4638   */\n  0x00\n    /* \"#utility.yul\":4680:4685   */\n  dup3\n    /* \"#utility.yul\":4674:4678   */\n  dup3\n    /* \"#utility.yul\":4670:4686   */\n  shl\n    /* \"#utility.yul\":4649:4686   */\n  swap1\n  pop\n    /* \"#utility.yul\":4586:4693   */\n  swap3\n  swap2\n  pop\n  pop\n  jump\t// out\n    /* \"#utility.yul\":4699:5092   */\ntag_31:\n    /* \"#utility.yul\":4768:4774   */\n  0x00\n    /* \"#utility.yul\":4818:4819   */\n  0x08\n    /* \"#utility.yul\":4806:4816   */\n  dup4\n    /* \"#utility.yul\":4802:4820   */\n  mul\n    /* \"#utility.yul\":4841:4938   */\n  tag_99\n    /* \"#utility.yul\":4871:4937   */\n  0xffffffffffffffffffffffffffffffffffffffffffffffffffffffffffffffff\n    /* \"#utility.yul\":4860:4869   */\n  dup3\n    /* \"#utility.yul\":4841:4938   */\n  tag_30\n  jump\t// in\ntag_99:\n    /* \"#utility.yul\":4959:4998   */\n  tag_100\n    /* \"#utility.yul\":4989:4997   */\n  dup7\n    /* \"#utility.yul\":4978:4987   */\n  dup4\n    /* \"#utility.yul\":4959:4998   */\n  tag_30\n  jump\t// in\ntag_100:\n    /* \"#utility.yul\":4947:4998   */\n  swap6\n  pop\n    /* \"#utility.yul\":5031:5035   */\n  dup1\n    /* \"#utility.yul\":5027:5036   */\n  not\n    /* \"#utility.yul\":5020:5025   */\n  dup5\n    /* \"#utility.yul\":5016:5037   */\n  and\n    /* \"#utility.yul\":5007:5037   */\n  swap4\n  pop\n    /* \"#utility.yul\":5080:5084   */\n  dup1\n    /* \"#utility.yul\":5070:5078   */\n  dup7\n    /* \"#utility.yul\":5066:5085   */\n  and\n    /* \"#utility.yul\":5059:5064   */\n  dup5\n    /* \"#utility.yul\":5056:5086   */\n  or\n    /* \"#utility.yul\":5046:5086   */\n  swap3\n  pop\n    /* \"#utility.yul\":4775:5092   */\n  pop\n  pop\n    /* \"#utility.yul\":4699:5092   */\n  swap4\n  swap3\n  pop\n  pop\n  pop\n  jump\t// out\n    /* \"#utility.yul\":5098:5158   */\ntag_32:\n    /* \"#utility.yul\":5126:5129   */\n  0x00\n    /* \"#utility.yul\":5147:5152   */\n  dup2\n    /* \"#utility.yul\":5140:5152   */\n  swap1\n  pop\n    /* \"#utility.yul\":5098:5158   */\n  swap2\n  swap1\n  pop\n  jump\t// out\n    /* \"#utility.yul\":5164:5306   */\ntag_33:\n    /* \"#utility.yul\":5214:5223   */\n  0x00\n    /* \"#utility.yul\":5247:5300   */\n  tag_103\n    /* \"#utility.yul\":5265:5299   */\n  tag_104\n    /* \"#utility.yul\":5274:5298   */\n  tag_105\n    /* \"#utility.yul\":5292:5297   */\n  dup5\n    /* \"#utility.yul\":5274:5298   */\n  tag_22\n  jump\t// in\ntag_105:\n    /* \"#utility.yul\":5265:5299   */\n  tag_32\n  jump\t// in\ntag_104:\n    /* \"#utility.yul\":5247:5300   */\n  tag_22\n  jump\t// in\ntag_103:\n    /* \"#utility.yul\":5234:5300   */\n  swap1\n  pop\n    /* \"#utility.yul\":5164:5306   */\n  swap2\n  swap1\n  pop\n  jump\t// out\n    /* \"#utility.yul\":5312:5387   */\ntag_34:\n    /* \"#utility.yul\":5355:5358   */\n  0x00\n    /* \"#utility.yul\":5376:5381   */\n  dup2\n    /* \"#utility.yul\":5369:5381   */\n  swap1\n  pop\n    /* \"#utility.yul\":5312:5387   */\n  swap2\n  swap1\n  pop\n  jump\t// out\n    /* \"#utility.yul\":5393:5662   */\ntag_35:\n    /* \"#utility.yul\":5503:5542   */\n  tag_108\n    /* \"#utility.yul\":5534:5541   */\n  dup4\n    /* \"#utility.yul\":5503:5542   */\n  tag_33\n  jump\t// in\ntag_108:\n    /* \"#utility.yul\":5564:5655   */\n  tag_109\n    /* \"#utility.yul\":5613:5654   */\n  tag_110\n    /* \"#utility.yul\":5637:5653   */\n  dup3\n    /* \"#utility.yul\":5613:5654   */\n  tag_34\n  jump\t// in\ntag_110:\n    /* \"#utility.yul\":5605:5611   */\n  dup5\n    /* \"#utility.yul\":5598:5602   */\n  dup5\n    /* \"#utility.yul\":5592:5603   */\n  sload\n    /* \"#utility.yul\":5564:5655   */\n  tag_31\n  jump\t// in\ntag_109:\n    /* \"#utility.yul\":5558:5562   */\n  dup3\n    /* \"#utility.yul\":5551:5656   */\n  sstore\n    /* \"#utility.yul\":5469:5662   */\n  pop\n    /* \"#utility.yul\":5393:5662   */\n  pop\n  pop\n  pop\n  jump\t// out\n    /* \"#utility.yul\":5668:5741   */\ntag_36:\n    /* \"#utility.yul\":5713:5716   */\n  0x00\n    /* \"#utility.yul\":5668:5741   */\n  swap1\n  jump\t// out\n    /* \"#utility.yul\":5747:5936   */\ntag_37:\n    /* \"#utility.yul\":5824:5856   */\n  tag_113\n  tag_36\n  jump\t// in\ntag_113:\n    /* \"#utility.yul\":5865:5930   */\n  tag_114\n    /* \"#utility.yul\":5923:5929   */\n  dup2\n    /* \"#utility.yul\":5915:5921   */\n  dup5\n    /* \"#utility.yul\":5909:5913   */\n  dup5\n    /* \"#utility.yul\":5865:5930   */\n  tag_35\n  jump\t// in\ntag_114:\n    /* \"#utility.yul\":5800:5936   */\n  pop\n    /* \"#utility.yul\":5747:5936   */\n  pop\n  pop\n  jump\t// out\n    /* \"#utility.yul\":5942:6128   */\ntag_38:\n    /* \"#utility.yul\":6002:6122   */\ntag_116:\n    /* \"#utility.yul\":6019:6022   */\n  dup2\n    /* \"#utility.yul\":6012:6017   */\n  dup2\n    /* \"#utility.yul\":6009:6023   */\n  lt\n    /* \"#utility.yul\":6002:6122   */\n  iszero\n  tag_118\n  jumpi\n    /* \"#utility.yul\":6073:6112   */\n  tag_119\n    /* \"#utility.yul\":6110:6111   */\n  0x00\n    /* \"#utility.yul\":6103:6108   */\n  dup3\n    /* \"#utility.yul\":6073:6112   */\n  tag_37\n  jump\t// in\ntag_119:\n    /* \"#utility.yul\":6046:6047   */\n  0x01\n    /* \"#utility.yul\":6039:6044   */\n  dup2\n    /* \"#utility.yul\":6035:6048   */\n  add\n    /* \"#utility.yul\":6026:6048   */\n  swap1\n  pop\n    /* \"#utility.yul\":6002:6122   */\n  jump(tag_116)\ntag_118:\n    /* \"#utility.yul\":5942:6128   */\n  pop\n  pop\n  jump\t// out\n    /* \"#utility.yul\":6134:6677   */\ntag_39:\n    /* \"#utility.yul\":6235:6237   */\n  0x1f\n    /* \"#utility.yul\":6230:6233   */\n  dup3\n    /* \"#utility.yul\":6227:6238   */\n  gt\n    /* \"#utility.yul\":6224:6670   */\n  iszero\n  tag_121\n  jumpi\n    /* \"#utility.yul\":6269:6307   */\n  tag_122\n    /* \"#utility.yul\":6301:6306   */\n  dup2\n    /* \"#utility.yul\":6269:6307   */\n  tag_28\n  jump\t// in\ntag_122:\n    /* \"#utility.yul\":6353:6382   */\n  tag_123\n    /* \"#utility.yul\":6371:6381   */\n  dup5\n    /* \"#utility.yul\":6353:6382   */\n  tag_29\n  jump\t// in\ntag_123:\n    /* \"#utility.yul\":6343:6351   */\n  dup2\n    /* \"#utility.yul\":6339:6383   */\n  add\n    /* \"#utility.yul\":6536:6538   */\n  0x20\n    /* \"#utility.yul\":6524:6534   */\n  dup6\n    /* \"#utility.yul\":6521:6539   */\n  lt\n    /* \"#utility.yul\":6518:6567   */\n  iszero\n  tag_124\n  jumpi\n    /* \"#utility.yul\":6557:6565   */\n  dup2\n    /* \"#utility.yul\":6542:6565   */\n  swap1\n  pop\n    /* \"#utility.yul\":6518:6567   */\ntag_124:\n    /* \"#utility.yul\":6580:6660   */\n  tag_125\n    /* \"#utility.yul\":6636:6658   */\n  tag_126\n    /* \"#utility.yul\":6654:6657   */\n  dup6\n    /* \"#utility.yul\":6636:6658   */\n  tag_29\n  jump\t// in\ntag_126:\n    /* \"#utility.yul\":6626:6634   */\n  dup4\n    /* \"#utility.yul\":6622:6659   */\n  add\n    /* \"#utility.yul\":6609:6620   */\n  dup3\n    /* \"#utility.yul\":6580:6660   */\n  tag_38\n  jump\t// in\ntag_125:\n    /* \"#utility.yul\":6239:6670   */\n  pop\n  pop\n    /* \"#utility.yul\":6224:6670   */\ntag_121:\n    /* \"#utility.yul\":6134:6677   */\n  pop\n  pop\n  pop\n  jump\t// out\n    /* \"#utility.yul\":6683:6800   */\ntag_40:\n    /* \"#utility.yul\":6737:6745   */\n  0x00\n    /* \"#utility.yul\":6787:6792   */\n  dup3\n    /* \"#utility.yul\":6781:6785   */\n  dup3\n    /* \"#utility.yul\":6777:6793   */\n  shr\n    /* \"#utility.yul\":6756:6793   */\n  swap1\n  pop\n    /* \"#utility.yul\":6683:6800   */\n  swap3\n  swap2\n  pop\n  pop\n  jump\t// out\n    /* \"#utility.yul\":6806:6975   */\ntag_41:\n    /* \"#utility.yul\":6850:6856   */\n  0x00\n    /* \"#utility.yul\":6883:6934   */\n  tag_129\n    /* \"#utility.yul\":6931:6932   */\n  0x00\n    /* \"#utility.yul\":6927:6933   */\n  not\n    /* \"#utility.yul\":6919:6924   */\n  dup5\n    /* \"#utility.yul\":6916:6917   */\n  0x08\n    /* \"#utility.yul\":6912:6925   */\n  mul\n    /* \"#utility.yul\":6883:6934   */\n  tag_40\n  jump\t// in\ntag_129:\n    /* \"#utility.yul\":6879:6935   */\n  not\n    /* \"#utility.yul\":6964:6968   */\n  dup1\n    /* \"#utility.yul\":6958:6962   */\n  dup4\n    /* \"#utility.yul\":6954:6969   */\n  and\n    /* \"#utility.yul\":6944:6969   */\n  swap2\n  pop\n    /* \"#utility.yul\":6857:6975   */\n  pop\n    /* \"#utility.yul\":6806:6975   */\n  swap3\n  swap2\n  pop\n  pop\n  jump\t// out\n    /* \"#utility.yul\":6980:7275   */\ntag_42:\n    /* \"#utility.yul\":7056:7060   */\n  0x00\n    /* \"#utility.yul\":7202:7231   */\n  tag_131\n    /* \"#utility.yul\":7227:7230   */\n  dup4\n    /* \"#utility.yul\":7221:7225   */\n  dup4\n    /* \"#utility.yul\":7202:7231   */\n  tag_41\n  jump\t// in\ntag_131:\n    /* \"#utility.yul\":7194:7231   */\n  swap2\n  pop\n    /* \"#utility.yul\":7264:7267   */\n  dup3\n    /* \"#utility.yul\":7261:7262   */\n  0x02\n    /* \"#utility.yul\":7257:7268   */\n  mul\n    /* \"#utility.yul\":7251:7255   */\n  dup3\n    /* \"#utility.yul\":7248:7269   */\n  or\n    /* \"#utility.yul\":7240:7269   */\n  swap1\n  pop\n    /* \"#utility.yul\":6980:7275   */\n  swap3\n  swap2\n  pop\n  pop\n  jump\t// out\n    /* \"#utility.yul\":7280:8675   */\ntag_7:\n    /* \"#utility.yul\":7397:7434   */\n  tag_133\n    /* \"#utility.yul\":7430:7433   */\n  dup3\n    /* \"#utility.yul\":7397:7434   */\n  tag_25\n  jump\t// in\ntag_133:\n    /* \"#utility.yul\":7499:7517   */\n  0xffffffffffffffff\n    /* \"#utility.yul\":7491:7497   */\n  dup2\n    /* \"#utility.yul\":7488:7518   */\n  gt\n    /* \"#utility.yul\":7485:7541   */\n  iszero\n  tag_134\n  jumpi\n    /* \"#utility.yul\":7521:7539   */\n  tag_135\n  tag_15\n  jump\t// in\ntag_135:\n    /* \"#utility.yul\":7485:7541   */\ntag_134:\n    /* \"#utility.yul\":7565:7603   */\n  tag_136\n    /* \"#utility.yul\":7597:7601   */\n  dup3\n    /* \"#utility.yul\":7591:7602   */\n  sload\n    /* \"#utility.yul\":7565:7603   */\n  tag_27\n  jump\t// in\ntag_136:\n    /* \"#utility.yul\":7650:7717   */\n  tag_137\n    /* \"#utility.yul\":7710:7716   */\n  dup3\n    /* \"#utility.yul\":7702:7708   */\n  dup3\n    /* \"#utility.yul\":7696:7700   */\n  dup6\n    /* \"#utility.yul\":7650:7717   */\n  tag_39\n  jump\t// in\ntag_137:\n    /* \"#utility.yul\":7744:7745   */\n  0x00\n    /* \"#utility.yul\":7768:7772   */\n  0x20\n    /* \"#utility.yul\":7755:7772   */\n  swap1\n  pop\n    /* \"#utility.yul\":7800:7802   */\n  0x1f\n    /* \"#utility.yul\":7792:7798   */\n  dup4\n    /* \"#utility.yul\":7789:7803   */\n  gt\n    /* \"#utility.yul\":7817:7818   */\n  0x01\n    /* \"#utility.yul\":7812:8430   */\n  dup2\n  eq\n  tag_139\n  jumpi\n    /* \"#utility.yul\":8474:8475   */\n  0x00\n    /* \"#utility.yul\":8491:8497   */\n  dup5\n    /* \"#utility.yul\":8488:8565   */\n  iszero\n  tag_140\n  jumpi\n    /* \"#utility.yul\":8540:8549   */\n  dup3\n    /* \"#utility.yul\":8535:8538   */\n  dup8\n    /* \"#utility.yul\":8531:8550   */\n  add\n    /* \"#utility.yul\":8525:8551   */\n  mload\n    /* \"#utility.yul\":8516:8551   */\n  swap1\n  pop\n    /* \"#utility.yul\":8488:8565   */\ntag_140:\n    /* \"#utility.yul\":8591:8658   */\n  tag_141\n    /* \"#utility.yul\":8651:8657   */\n  dup6\n    /* \"#utility.yul\":8644:8649   */\n  dup3\n    /* \"#utility.yul\":8591:8658   */\n  tag_42\n  jump\t// in\ntag_141:\n    /* \"#utility.yul\":8585:8589   */\n  dup7\n    /* \"#utility.yul\":8578:8659   */\n  sstore\n    /* \"#utility.yul\":8447:8669   */\n  pop\n    /* \"#utility.yul\":7782:8669   */\n  jump(tag_138)\n    /* \"#utility.yul\":7812:8430   */\ntag_139:\n    /* \"#utility.yul\":7864:7868   */\n  0x1f\n    /* \"#utility.yul\":7860:7869   */\n  not\n    /* \"#utility.yul\":7852:7858   */\n  dup5\n    /* \"#utility.yul\":7848:7870   */\n  and\n    /* \"#utility.yul\":7898:7935   */\n  tag_142\n    /* \"#utility.yul\":7930:7934   */\n  dup7\n    /* \"#utility.yul\":7898:7935   */\n  tag_28\n  jump\t// in\ntag_142:\n    /* \"#utility.yul\":7957:7958   */\n  0x00\n    /* \"#utility.yul\":7971:8179   */\ntag_143:\n    /* \"#utility.yul\":7985:7992   */\n  dup3\n    /* \"#utility.yul\":7982:7983   */\n  dup2\n    /* \"#utility.yul\":7979:7993   */\n  lt\n    /* \"#utility.yul\":7971:8179   */\n  iszero\n  tag_145\n  jumpi\n    /* \"#utility.yul\":8064:8073   */\n  dup5\n    /* \"#utility.yul\":8059:8062   */\n  dup10\n    /* \"#utility.yul\":8055:8074   */\n  add\n    /* \"#utility.yul\":8049:8075   */\n  mload\n    /* \"#utility.yul\":8041:8047   */\n  dup3\n    /* \"#utility.yul\":8034:8076   */\n  sstore\n    /* \"#utility.yul\":8115:8116   */\n  0x01\n    /* \"#utility.yul\":8107:8113   */\n  dup3\n    /* \"#utility.yul\":8103:8117   */\n  add\n    /* \"#utility.yul\":8093:8117   */\n  swap2\n  pop\n    /* \"#utility.yul\":8162:8164   */\n  0x20\n    /* \"#utility.yul\":8151:8160   */\n  dup6\n    /* \"#utility.yul\":8147:8165   */\n  add\n    /* \"#utility.yul\":8134:8165   */\n  swap5\n  pop\n    /* \"#utility.yul\":8008:8012   */\n  0x20\n    /* \"#utility.yul\":8005:8006   */\n  dup2\n    /* \"#utility.yul\":8001:8013   */\n  add\n    /* \"#utility.yul\":7996:8013   */\n  swap1\n  pop\n    /* \"#utility.yul\":7971:8179   */\n  jump(tag_143)\ntag_145:\n    /* \"#utility.yul\":8207:8213   */\n  dup7\n    /* \"#utility.yul\":8198:8205   */\n  dup4\n    /* \"#utility.yul\":8195:8214   */\n  lt\n    /* \"#utility.yul\":8192:8371   */\n  iszero\n  tag_146\n  jumpi\n    /* \"#utility.yul\":8265:8274   */\n  dup5\n    /* \"#utility.yul\":8260:8263   */\n  dup10\n    /* \"#utility.yul\":8256:8275   */\n  add\n    /* \"#utility.yul\":8250:8276   */\n  mload\n    /* \"#utility.yul\":8308:8356   */\n  tag_147\n    /* \"#utility.yul\":8350:8354   */\n  0x1f\n    /* \"#utility.yul\":8342:8348   */\n  dup10\n    /* \"#utility.yul\":8338:8355   */\n  and\n    /* \"#utility.yul\":8327:8336   */\n  dup3\n    /* \"#utility.yul\":8308:8356   */\n  tag_41\n  jump\t// in\ntag_147:\n    /* \"#utility.yul\":8300:8306   */\n  dup4\n    /* \"#utility.yul\":8293:8357   */\n  sstore\n    /* \"#utility.yul\":8215:8371   */\n  pop\n    /* \"#utility.yul\":8192:8371   */\ntag_146:\n    /* \"#utility.yul\":8417:8418   */\n  0x01\n    /* \"#utility.yul\":8413:8414   */\n  0x02\n    /* \"#utility.yul\":8405:8411   */\n  dup9\n    /* \"#utility.yul\":8401:8415   */\n  mul\n    /* \"#utility.yul\":8397:8419   */\n  add\n    /* \"#utility.yul\":8391:8395   */\n  dup9\n    /* \"#utility.yul\":8384:8420   */\n  sstore\n    /* \"#utility.yul\":7819:8430   */\n  pop\n  pop\n  pop\n    /* \"#utility.yul\":7782:8669   */\ntag_138:\n  pop\n    /* \"#utility.yul\":7372:8675   */\n  pop\n  pop\n  pop\n    /* \"#utility.yul\":7280:8675   */\n  pop\n  pop\n  jump\t// out\n    /* \"levelup/gasDifficult.sol\":60:1816  contract GasGuessingChallenge  {... */\ntag_8:\n  dataSize(sub_0)\n  dup1\n  dataOffset(sub_0)\n  0x00\n  codecopy\n  0x00\n  return\nstop\n\nsub_0: assembly {\n        /* \"levelup/gasDifficult.sol\":60:1816  contract GasGuessingChallenge  {... */\n      mstore(0x40, 0x80)\n      callvalue\n      dup1\n      iszero\n      tag_1\n      jumpi\n      0x00\n      dup1\n      revert\n    tag_1:\n      pop\n      jumpi(tag_2, lt(calldatasize, 0x04))\n      shr(0xe0, calldataload(0x00))\n      dup1\n      0x67e69c3e\n      gt\n      tag_12\n      jumpi\n      dup1\n      0x67e69c3e\n      eq\n      tag_7\n      jumpi\n      dup1\n      0x771602f7\n      eq\n      tag_8\n      jumpi\n      dup1\n      0x8da5cb5b\n      eq\n      tag_9\n      jumpi\n      dup1\n      0xdb0e127a\n      eq\n      tag_10\n      jumpi\n      dup1\n      0xf9633930\n      eq\n      tag_11\n      jumpi\n      jump(tag_2)\n    tag_12:\n      dup1\n      0x0f487546\n      eq\n      tag_3\n      jumpi\n      dup1\n      0x11af6564\n      eq\n      tag_4\n      jumpi\n      dup1\n      0x3ef5e445\n      eq\n      tag_5\n      jumpi\n      dup1\n      0x5db3786e\n      eq\n      tag_6\n      jumpi\n    tag_2:\n      0x00\n      dup1\n      revert\n        /* \"levelup/gasDifficult.sol\":208:230  uint public gaspricetx */\n    tag_3:\n      tag_13\n      tag_14\n      jump\t// in\n    tag_13:\n      mload(0x40)\n      tag_15\n      swap2\n      swap1\n      tag_16\n      jump\t// in\n    tag_15:\n      mload(0x40)\n      dup1\n      swap2\n      sub\n      swap1\n      return\n        /* \"levelup/gasDifficult.sol\":822:928  function getCurrentGasPrice() public {... */\n    tag_4:\n      tag_17\n      tag_18\n      jump\t// in\n    tag_17:\n      stop\n        /* \"levelup/gasDifficult.sol\":1241:1710  function subtract(uint _num1, uint _num2) public requireSpecificGas returns (uint) {... */\n    tag_5:\n      tag_19\n      0x04\n      dup1\n      calldatasize\n      sub\n      dup2\n      add\n      swap1\n      tag_20\n      swap2\n      swap1\n      tag_21\n      jump\t// in\n    tag_20:\n      tag_22\n      jump\t// in\n    tag_19:\n      mload(0x40)\n      tag_23\n      swap2\n      swap1\n      tag_16\n      jump\t// in\n    tag_23:\n      mload(0x40)\n      dup1\n      swap2\n      sub\n      swap1\n      return\n        /* \"levelup/gasDifficult.sol\":181:201  uint public finalGas */\n    tag_6:\n      tag_24\n      tag_25\n      jump\t// in\n    tag_24:\n      mload(0x40)\n      tag_26\n      swap2\n      swap1\n      tag_16\n      jump\t// in\n    tag_26:\n      mload(0x40)\n      dup1\n      swap2\n      sub\n      swap1\n      return\n        /* \"levelup/gasDifficult.sol\":152:174  uint public initialGas */\n    tag_7:\n      tag_27\n      tag_28\n      jump\t// in\n    tag_27:\n      mload(0x40)\n      tag_29\n      swap2\n      swap1\n      tag_16\n      jump\t// in\n    tag_29:\n      mload(0x40)\n      dup1\n      swap2\n      sub\n      swap1\n      return\n        /* \"levelup/gasDifficult.sol\":940:1233  function add(uint _num1, uint _num2) public payMoreForGas returns (uint) {... */\n    tag_8:\n      tag_30\n      0x04\n      dup1\n      calldatasize\n      sub\n      dup2\n      add\n      swap1\n      tag_31\n      swap2\n      swap1\n      tag_21\n      jump\t// in\n    tag_31:\n      tag_32\n      jump\t// in\n    tag_30:\n      mload(0x40)\n      tag_33\n      swap2\n      swap1\n      tag_16\n      jump\t// in\n    tag_33:\n      mload(0x40)\n      dup1\n      swap2\n      sub\n      swap1\n      return\n        /* \"levelup/gasDifficult.sol\":264:284  address public owner */\n    tag_9:\n      tag_34\n      tag_35\n      jump\t// in\n    tag_34:\n      mload(0x40)\n      tag_36\n      swap2\n      swap1\n      tag_37\n      jump\t// in\n    tag_36:\n      mload(0x40)\n      dup1\n      swap2\n      sub\n      swap1\n      return\n        /* \"levelup/gasDifficult.sol\":237:257  bool public openDoor */\n    tag_10:\n      tag_38\n      tag_39\n      jump\t// in\n    tag_38:\n      mload(0x40)\n      tag_40\n      swap2\n      swap1\n      tag_41\n      jump\t// in\n    tag_40:\n      mload(0x40)\n      dup1\n      swap2\n      sub\n      swap1\n      return\n        /* \"levelup/gasDifficult.sol\":1718:1813  function getFlag() public view onlyOwner returns (string memory) {... */\n    tag_11:\n      tag_42\n      tag_43\n      jump\t// in\n    tag_42:\n      mload(0x40)\n      tag_44\n      swap2\n      swap1\n      tag_45\n      jump\t// in\n    tag_44:\n      mload(0x40)\n      dup1\n      swap2\n      sub\n      swap1\n      return\n        /* \"levelup/gasDifficult.sol\":208:230  uint public gaspricetx */\n    tag_14:\n      sload(0x04)\n      dup2\n      jump\t// out\n        /* \"levelup/gasDifficult.sol\":822:928  function getCurrentGasPrice() public {... */\n    tag_18:\n        /* \"levelup/gasDifficult.sol\":881:885  true */\n      0x01\n        /* \"levelup/gasDifficult.sol\":870:878  openDoor */\n      0x05\n      0x00\n        /* \"levelup/gasDifficult.sol\":870:885  openDoor = true */\n      0x0100\n      exp\n      dup2\n      sload\n      dup2\n      0xff\n      mul\n      not\n      and\n      swap1\n      dup4\n      iszero\n      iszero\n      mul\n      or\n      swap1\n      sstore\n      pop\n        /* \"levelup/gasDifficult.sol\":909:920  tx.gasprice */\n      gasprice\n        /* \"levelup/gasDifficult.sol\":896:906  gaspricetx */\n      0x04\n        /* \"levelup/gasDifficult.sol\":896:920  gaspricetx = tx.gasprice */\n      dup2\n      swap1\n      sstore\n      pop\n        /* \"levelup/gasDifficult.sol\":822:928  function getCurrentGasPrice() public {... */\n      jump\t// out\n        /* \"levelup/gasDifficult.sol\":1241:1710  function subtract(uint _num1, uint _num2) public requireSpecificGas returns (uint) {... */\n    tag_22:\n        /* \"levelup/gasDifficult.sol\":1318:1322  uint */\n      0x00\n        /* \"levelup/gasDifficult.sol\":500:507  2000000 */\n      0x1e8480\n        /* \"levelup/gasDifficult.sol\":488:497  gasleft() */\n      gas\n        /* \"levelup/gasDifficult.sol\":488:507  gasleft() < 2000000 */\n      lt\n        /* \"levelup/gasDifficult.sol\":480:532  require(gasleft() < 2000000, \"To many gas provided\") */\n      tag_48\n      jumpi\n      mload(0x40)\n      0x08c379a000000000000000000000000000000000000000000000000000000000\n      dup2\n      mstore\n      0x04\n      add\n      tag_49\n      swap1\n      tag_50\n      jump\t// in\n    tag_49:\n      mload(0x40)\n      dup1\n      swap2\n      sub\n      swap1\n      revert\n    tag_48:\n        /* \"levelup/gasDifficult.sol\":1355:1359  true */\n      0x01\n        /* \"levelup/gasDifficult.sol\":1343:1359  openDoor == true */\n      iszero\n      iszero\n        /* \"levelup/gasDifficult.sol\":1343:1351  openDoor */\n      0x05\n      0x00\n      swap1\n      sload\n      swap1\n      0x0100\n      exp\n      swap1\n      div\n      0xff\n      and\n        /* \"levelup/gasDifficult.sol\":1343:1359  openDoor == true */\n      iszero\n      iszero\n      eq\n        /* \"levelup/gasDifficult.sol\":1335:1387  require(openDoor == true,\"The door must be oppened\") */\n      tag_52\n      jumpi\n      mload(0x40)\n      0x08c379a000000000000000000000000000000000000000000000000000000000\n      dup2\n      mstore\n      0x04\n      add\n      tag_53\n      swap1\n      tag_54\n      jump\t// in\n    tag_53:\n      mload(0x40)\n      dup1\n      swap2\n      sub\n      swap1\n      revert\n    tag_52:\n        /* \"levelup/gasDifficult.sol\":1411:1420  gasleft() */\n      gas\n        /* \"levelup/gasDifficult.sol\":1398:1408  initialGas */\n      0x02\n        /* \"levelup/gasDifficult.sol\":1398:1420  initialGas = gasleft() */\n      dup2\n      swap1\n      sstore\n      pop\n        /* \"levelup/gasDifficult.sol\":1431:1442  uint result */\n      0x00\n        /* \"levelup/gasDifficult.sol\":1453:1458  _num2 */\n      dup3\n        /* \"levelup/gasDifficult.sol\":1445:1450  _num1 */\n      dup5\n        /* \"levelup/gasDifficult.sol\":1445:1458  _num1 - _num2 */\n      tag_55\n      swap2\n      swap1\n      tag_56\n      jump\t// in\n    tag_55:\n        /* \"levelup/gasDifficult.sol\":1431:1458  uint result = _num1 - _num2 */\n      swap1\n      pop\n        /* \"levelup/gasDifficult.sol\":1480:1489  gasleft() */\n      gas\n        /* \"levelup/gasDifficult.sol\":1469:1477  finalGas */\n      0x03\n        /* \"levelup/gasDifficult.sol\":1469:1489  finalGas = gasleft() */\n      dup2\n      swap1\n      sstore\n      pop\n        /* \"levelup/gasDifficult.sol\":1518:1521  100 */\n      0x64\n        /* \"levelup/gasDifficult.sol\":1508:1514  result */\n      dup2\n        /* \"levelup/gasDifficult.sol\":1508:1521  result == 100 */\n      eq\n        /* \"levelup/gasDifficult.sol\":1500:1545  require(result == 100, \"Improve your maths!\") */\n      tag_57\n      jumpi\n      mload(0x40)\n      0x08c379a000000000000000000000000000000000000000000000000000000000\n      dup2\n      mstore\n      0x04\n      add\n      tag_58\n      swap1\n      tag_59\n      jump\t// in\n    tag_58:\n      mload(0x40)\n      dup1\n      swap2\n      sub\n      swap1\n      revert\n    tag_57:\n        /* \"levelup/gasDifficult.sol\":1579:1587  finalGas */\n      sload(0x03)\n        /* \"levelup/gasDifficult.sol\":1566:1576  initialGas */\n      sload(0x02)\n        /* \"levelup/gasDifficult.sol\":1566:1587  initialGas - finalGas */\n      tag_60\n      swap2\n      swap1\n      tag_56\n      jump\t// in\n    tag_60:\n        /* \"levelup/gasDifficult.sol\":1556:1563  gasUsed */\n      0x01\n        /* \"levelup/gasDifficult.sol\":1556:1587  gasUsed = initialGas - finalGas */\n      dup2\n      swap1\n      sstore\n      pop\n        /* \"levelup/gasDifficult.sol\":1620:1627  1999998 */\n      0x1e847e\n        /* \"levelup/gasDifficult.sol\":1607:1616  gasleft() */\n      gas\n        /* \"levelup/gasDifficult.sol\":1607:1627  gasleft() >= 1999998 */\n      lt\n      iszero\n        /* \"levelup/gasDifficult.sol\":1598:1647  require (gasleft() >= 1999998, \"Not gas enought\") */\n      tag_61\n      jumpi\n      mload(0x40)\n      0x08c379a000000000000000000000000000000000000000000000000000000000\n      dup2\n      mstore\n      0x04\n      add\n      tag_62\n      swap1\n      tag_63\n      jump\t// in\n    tag_62:\n      mload(0x40)\n      dup1\n      swap2\n      sub\n      swap1\n      revert\n    tag_61:\n        /* \"levelup/gasDifficult.sol\":1666:1676  msg.sender */\n      caller\n        /* \"levelup/gasDifficult.sol\":1658:1663  owner */\n      0x05\n      0x01\n        /* \"levelup/gasDifficult.sol\":1658:1676  owner = msg.sender */\n      0x0100\n      exp\n      dup2\n      sload\n      dup2\n      0xffffffffffffffffffffffffffffffffffffffff\n      mul\n      not\n      and\n      swap1\n      dup4\n      0xffffffffffffffffffffffffffffffffffffffff\n      and\n      mul\n      or\n      swap1\n      sstore\n      pop\n        /* \"levelup/gasDifficult.sol\":1695:1701  result */\n      dup1\n        /* \"levelup/gasDifficult.sol\":1687:1702  return (result) */\n      swap2\n      pop\n      pop\n        /* \"levelup/gasDifficult.sol\":1241:1710  function subtract(uint _num1, uint _num2) public requireSpecificGas returns (uint) {... */\n      swap3\n      swap2\n      pop\n      pop\n      jump\t// out\n        /* \"levelup/gasDifficult.sol\":181:201  uint public finalGas */\n    tag_25:\n      sload(0x03)\n      dup2\n      jump\t// out\n        /* \"levelup/gasDifficult.sol\":152:174  uint public initialGas */\n    tag_28:\n      sload(0x02)\n      dup2\n      jump\t// out\n        /* \"levelup/gasDifficult.sol\":940:1233  function add(uint _num1, uint _num2) public payMoreForGas returns (uint) {... */\n    tag_32:\n        /* \"levelup/gasDifficult.sol\":1007:1011  uint */\n      0x00\n        /* \"levelup/gasDifficult.sol\":624:634  gaspricetx */\n      sload(0x04)\n        /* \"levelup/gasDifficult.sol\":620:621  2 */\n      0x02\n        /* \"levelup/gasDifficult.sol\":620:634  2 * gaspricetx */\n      tag_65\n      swap2\n      swap1\n      tag_66\n      jump\t// in\n    tag_65:\n        /* \"levelup/gasDifficult.sol\":605:616  tx.gasprice */\n      gasprice\n        /* \"levelup/gasDifficult.sol\":605:635  tx.gasprice > (2 * gaspricetx) */\n      gt\n        /* \"levelup/gasDifficult.sol\":597:676  require(tx.gasprice > (2 * gaspricetx), \"Pay more to get your tx done faster!\") */\n      tag_67\n      jumpi\n      mload(0x40)\n      0x08c379a000000000000000000000000000000000000000000000000000000000\n      dup2\n      mstore\n      0x04\n      add\n      tag_68\n      swap1\n      tag_69\n      jump\t// in\n    tag_68:\n      mload(0x40)\n      dup1\n      swap2\n      sub\n      swap1\n      revert\n    tag_67:\n        /* \"levelup/gasDifficult.sol\":1044:1048  true */\n      0x01\n        /* \"levelup/gasDifficult.sol\":1032:1048  openDoor == true */\n      iszero\n      iszero\n        /* \"levelup/gasDifficult.sol\":1032:1040  openDoor */\n      0x05\n      0x00\n      swap1\n      sload\n      swap1\n      0x0100\n      exp\n      swap1\n      div\n      0xff\n      and\n        /* \"levelup/gasDifficult.sol\":1032:1048  openDoor == true */\n      iszero\n      iszero\n      eq\n        /* \"levelup/gasDifficult.sol\":1024:1076  require(openDoor == true,\"The door must be oppened\") */\n      tag_71\n      jumpi\n      mload(0x40)\n      0x08c379a000000000000000000000000000000000000000000000000000000000\n      dup2\n      mstore\n      0x04\n      add\n      tag_72\n      swap1\n      tag_54\n      jump\t// in\n    tag_72:\n      mload(0x40)\n      dup1\n      swap2\n      sub\n      swap1\n      revert\n    tag_71:\n        /* \"levelup/gasDifficult.sol\":1087:1098  uint result */\n      0x00\n        /* \"levelup/gasDifficult.sol\":1109:1114  _num2 */\n      dup3\n        /* \"levelup/gasDifficult.sol\":1101:1106  _num1 */\n      dup5\n        /* \"levelup/gasDifficult.sol\":1101:1114  _num1 + _num2 */\n      tag_73\n      swap2\n      swap1\n      tag_74\n      jump\t// in\n    tag_73:\n        /* \"levelup/gasDifficult.sol\":1087:1114  uint result = _num1 + _num2 */\n      swap1\n      pop\n        /* \"levelup/gasDifficult.sol\":1143:1146  100 */\n      0x64\n        /* \"levelup/gasDifficult.sol\":1133:1139  result */\n      dup2\n        /* \"levelup/gasDifficult.sol\":1133:1146  result == 100 */\n      eq\n        /* \"levelup/gasDifficult.sol\":1125:1170  require(result == 100, \"Improve your maths!\") */\n      tag_75\n      jumpi\n      mload(0x40)\n      0x08c379a000000000000000000000000000000000000000000000000000000000\n      dup2\n      mstore\n      0x04\n      add\n      tag_76\n      swap1\n      tag_59\n      jump\t// in\n    tag_76:\n      mload(0x40)\n      dup1\n      swap2\n      sub\n      swap1\n      revert\n    tag_75:\n        /* \"levelup/gasDifficult.sol\":1189:1199  msg.sender */\n      caller\n        /* \"levelup/gasDifficult.sol\":1181:1186  owner */\n      0x05\n      0x01\n        /* \"levelup/gasDifficult.sol\":1181:1199  owner = msg.sender */\n      0x0100\n      exp\n      dup2\n      sload\n      dup2\n      0xffffffffffffffffffffffffffffffffffffffff\n      mul\n      not\n      and\n      swap1\n      dup4\n      0xffffffffffffffffffffffffffffffffffffffff\n      and\n      mul\n      or\n      swap1\n      sstore\n      pop\n        /* \"levelup/gasDifficult.sol\":1218:1224  result */\n      dup1\n        /* \"levelup/gasDifficult.sol\":1210:1225  return (result) */\n      swap2\n      pop\n      pop\n        /* \"levelup/gasDifficult.sol\":940:1233  function add(uint _num1, uint _num2) public payMoreForGas returns (uint) {... */\n      swap3\n      swap2\n      pop\n      pop\n      jump\t// out\n        /* \"levelup/gasDifficult.sol\":264:284  address public owner */\n    tag_35:\n      0x05\n      0x01\n      swap1\n      sload\n      swap1\n      0x0100\n      exp\n      swap1\n      div\n      0xffffffffffffffffffffffffffffffffffffffff\n      and\n      dup2\n      jump\t// out\n        /* \"levelup/gasDifficult.sol\":237:257  bool public openDoor */\n    tag_39:\n      0x05\n      0x00\n      swap1\n      sload\n      swap1\n      0x0100\n      exp\n      swap1\n      div\n      0xff\n      and\n      dup2\n      jump\t// out\n        /* \"levelup/gasDifficult.sol\":1718:1813  function getFlag() public view onlyOwner returns (string memory) {... */\n    tag_43:\n        /* \"levelup/gasDifficult.sol\":1768:1781  string memory */\n      0x60\n        /* \"levelup/gasDifficult.sol\":759:764  owner */\n      0x05\n      0x01\n      swap1\n      sload\n      swap1\n      0x0100\n      exp\n      swap1\n      div\n      0xffffffffffffffffffffffffffffffffffffffff\n      and\n        /* \"levelup/gasDifficult.sol\":745:764  msg.sender == owner */\n      0xffffffffffffffffffffffffffffffffffffffff\n      and\n        /* \"levelup/gasDifficult.sol\":745:755  msg.sender */\n      caller\n        /* \"levelup/gasDifficult.sol\":745:764  msg.sender == owner */\n      0xffffffffffffffffffffffffffffffffffffffff\n      and\n      eq\n        /* \"levelup/gasDifficult.sol\":737:790  require(msg.sender == owner, \"You are not the owner\") */\n      tag_78\n      jumpi\n      mload(0x40)\n      0x08c379a000000000000000000000000000000000000000000000000000000000\n      dup2\n      mstore\n      0x04\n      add\n      tag_79\n      swap1\n      tag_80\n      jump\t// in\n    tag_79:\n      mload(0x40)\n      dup1\n      swap2\n      sub\n      swap1\n      revert\n    tag_78:\n        /* \"levelup/gasDifficult.sol\":1801:1805  flag */\n      0x00\n        /* \"levelup/gasDifficult.sol\":1794:1805  return flag */\n      dup1\n      sload\n      tag_82\n      swap1\n      tag_83\n      jump\t// in\n    tag_82:\n      dup1\n      0x1f\n      add\n      0x20\n      dup1\n      swap2\n      div\n      mul\n      0x20\n      add\n      mload(0x40)\n      swap1\n      dup2\n      add\n      0x40\n      mstore\n      dup1\n      swap3\n      swap2\n      swap1\n      dup2\n      dup2\n      mstore\n      0x20\n      add\n      dup3\n      dup1\n      sload\n      tag_84\n      swap1\n      tag_83\n      jump\t// in\n    tag_84:\n      dup1\n      iszero\n      tag_85\n      jumpi\n      dup1\n      0x1f\n      lt\n      tag_86\n      jumpi\n      0x0100\n      dup1\n      dup4\n      sload\n      div\n      mul\n      dup4\n      mstore\n      swap2\n      0x20\n      add\n      swap2\n      jump(tag_85)\n    tag_86:\n      dup3\n      add\n      swap2\n      swap1\n      0x00\n      mstore\n      keccak256(0x00, 0x20)\n      swap1\n    tag_87:\n      dup2\n      sload\n      dup2\n      mstore\n      swap1\n      0x01\n      add\n      swap1\n      0x20\n      add\n      dup1\n      dup4\n      gt\n      tag_87\n      jumpi\n      dup3\n      swap1\n      sub\n      0x1f\n      and\n      dup3\n      add\n      swap2\n    tag_85:\n      pop\n      pop\n      pop\n      pop\n      pop\n      swap1\n      pop\n        /* \"levelup/gasDifficult.sol\":1718:1813  function getFlag() public view onlyOwner returns (string memory) {... */\n      swap1\n      jump\t// out\n        /* \"#utility.yul\":7:84   */\n    tag_88:\n        /* \"#utility.yul\":44:51   */\n      0x00\n        /* \"#utility.yul\":73:78   */\n      dup2\n        /* \"#utility.yul\":62:78   */\n      swap1\n      pop\n        /* \"#utility.yul\":7:84   */\n      swap2\n      swap1\n      pop\n      jump\t// out\n        /* \"#utility.yul\":90:208   */\n    tag_89:\n        /* \"#utility.yul\":177:201   */\n      tag_122\n        /* \"#utility.yul\":195:200   */\n      dup2\n        /* \"#utility.yul\":177:201   */\n      tag_88\n      jump\t// in\n    tag_122:\n        /* \"#utility.yul\":172:175   */\n      dup3\n        /* \"#utility.yul\":165:202   */\n      mstore\n        /* \"#utility.yul\":90:208   */\n      pop\n      pop\n      jump\t// out\n        /* \"#utility.yul\":214:436   */\n    tag_16:\n        /* \"#utility.yul\":307:311   */\n      0x00\n        /* \"#utility.yul\":345:347   */\n      0x20\n        /* \"#utility.yul\":334:343   */\n      dup3\n        /* \"#utility.yul\":330:348   */\n      add\n        /* \"#utility.yul\":322:348   */\n      swap1\n      pop\n        /* \"#utility.yul\":358:429   */\n      tag_124\n        /* \"#utility.yul\":426:427   */\n      0x00\n        /* \"#utility.yul\":415:424   */\n      dup4\n        /* \"#utility.yul\":411:428   */\n      add\n        /* \"#utility.yul\":402:408   */\n      dup5\n        /* \"#utility.yul\":358:429   */\n      tag_89\n      jump\t// in\n    tag_124:\n        /* \"#utility.yul\":214:436   */\n      swap3\n      swap2\n      pop\n      pop\n      jump\t// out\n        /* \"#utility.yul\":523:640   */\n    tag_91:\n        /* \"#utility.yul\":632:633   */\n      0x00\n        /* \"#utility.yul\":629:630   */\n      dup1\n        /* \"#utility.yul\":622:634   */\n      revert\n        /* \"#utility.yul\":769:891   */\n    tag_93:\n        /* \"#utility.yul\":842:866   */\n      tag_129\n        /* \"#utility.yul\":860:865   */\n      dup2\n        /* \"#utility.yul\":842:866   */\n      tag_88\n      jump\t// in\n    tag_129:\n        /* \"#utility.yul\":835:840   */\n      dup2\n        /* \"#utility.yul\":832:867   */\n      eq\n        /* \"#utility.yul\":822:885   */\n      tag_130\n      jumpi\n        /* \"#utility.yul\":881:882   */\n      0x00\n        /* \"#utility.yul\":878:879   */\n      dup1\n        /* \"#utility.yul\":871:883   */\n      revert\n        /* \"#utility.yul\":822:885   */\n    tag_130:\n        /* \"#utility.yul\":769:891   */\n      pop\n      jump\t// out\n        /* \"#utility.yul\":897:1036   */\n    tag_94:\n        /* \"#utility.yul\":943:948   */\n      0x00\n        /* \"#utility.yul\":981:987   */\n      dup2\n        /* \"#utility.yul\":968:988   */\n      calldataload\n        /* \"#utility.yul\":959:988   */\n      swap1\n      pop\n        /* \"#utility.yul\":997:1030   */\n      tag_132\n        /* \"#utility.yul\":1024:1029   */\n      dup2\n        /* \"#utility.yul\":997:1030   */\n      tag_93\n      jump\t// in\n    tag_132:\n        /* \"#utility.yul\":897:1036   */\n      swap3\n      swap2\n      pop\n      pop\n      jump\t// out\n        /* \"#utility.yul\":1042:1516   */\n    tag_21:\n        /* \"#utility.yul\":1110:1116   */\n      0x00\n        /* \"#utility.yul\":1118:1124   */\n      dup1\n        /* \"#utility.yul\":1167:1169   */\n      0x40\n        /* \"#utility.yul\":1155:1164   */\n      dup4\n        /* \"#utility.yul\":1146:1153   */\n      dup6\n        /* \"#utility.yul\":1142:1165   */\n      sub\n        /* \"#utility.yul\":1138:1170   */\n      slt\n        /* \"#utility.yul\":1135:1254   */\n      iszero\n      tag_134\n      jumpi\n        /* \"#utility.yul\":1173:1252   */\n      tag_135\n      tag_91\n      jump\t// in\n    tag_135:\n        /* \"#utility.yul\":1135:1254   */\n    tag_134:\n        /* \"#utility.yul\":1293:1294   */\n      0x00\n        /* \"#utility.yul\":1318:1371   */\n      tag_136\n        /* \"#utility.yul\":1363:1370   */\n      dup6\n        /* \"#utility.yul\":1354:1360   */\n      dup3\n        /* \"#utility.yul\":1343:1352   */\n      dup7\n        /* \"#utility.yul\":1339:1361   */\n      add\n        /* \"#utility.yul\":1318:1371   */\n      tag_94\n      jump\t// in\n    tag_136:\n        /* \"#utility.yul\":1308:1371   */\n      swap3\n      pop\n        /* \"#utility.yul\":1264:1381   */\n      pop\n        /* \"#utility.yul\":1420:1422   */\n      0x20\n        /* \"#utility.yul\":1446:1499   */\n      tag_137\n        /* \"#utility.yul\":1491:1498   */\n      dup6\n        /* \"#utility.yul\":1482:1488   */\n      dup3\n        /* \"#utility.yul\":1471:1480   */\n      dup7\n        /* \"#utility.yul\":1467:1489   */\n      add\n        /* \"#utility.yul\":1446:1499   */\n      tag_94\n      jump\t// in\n    tag_137:\n        /* \"#utility.yul\":1436:1499   */\n      swap2\n      pop\n        /* \"#utility.yul\":1391:1509   */\n      pop\n        /* \"#utility.yul\":1042:1516   */\n      swap3\n      pop\n      swap3\n      swap1\n      pop\n      jump\t// out\n        /* \"#utility.yul\":1522:1648   */\n    tag_95:\n        /* \"#utility.yul\":1559:1566   */\n      0x00\n        /* \"#utility.yul\":1599:1641   */\n      0xffffffffffffffffffffffffffffffffffffffff\n        /* \"#utility.yul\":1592:1597   */\n      dup3\n        /* \"#utility.yul\":1588:1642   */\n      and\n        /* \"#utility.yul\":1577:1642   */\n      swap1\n      pop\n        /* \"#utility.yul\":1522:1648   */\n      swap2\n      swap1\n      pop\n      jump\t// out\n        /* \"#utility.yul\":1654:1750   */\n    tag_96:\n        /* \"#utility.yul\":1691:1698   */\n      0x00\n        /* \"#utility.yul\":1720:1744   */\n      tag_140\n        /* \"#utility.yul\":1738:1743   */\n      dup3\n        /* \"#utility.yul\":1720:1744   */\n      tag_95\n      jump\t// in\n    tag_140:\n        /* \"#utility.yul\":1709:1744   */\n      swap1\n      pop\n        /* \"#utility.yul\":1654:1750   */\n      swap2\n      swap1\n      pop\n      jump\t// out\n        /* \"#utility.yul\":1756:1874   */\n    tag_97:\n        /* \"#utility.yul\":1843:1867   */\n      tag_142\n        /* \"#utility.yul\":1861:1866   */\n      dup2\n        /* \"#utility.yul\":1843:1867   */\n      tag_96\n      jump\t// in\n    tag_142:\n        /* \"#utility.yul\":1838:1841   */\n      dup3\n        /* \"#utility.yul\":1831:1868   */\n      mstore\n        /* \"#utility.yul\":1756:1874   */\n      pop\n      pop\n      jump\t// out\n        /* \"#utility.yul\":1880:2102   */\n    tag_37:\n        /* \"#utility.yul\":1973:1977   */\n      0x00\n        /* \"#utility.yul\":2011:2013   */\n      0x20\n        /* \"#utility.yul\":2000:2009   */\n      dup3\n        /* \"#utility.yul\":1996:2014   */\n      add\n        /* \"#utility.yul\":1988:2014   */\n      swap1\n      pop\n        /* \"#utility.yul\":2024:2095   */\n      tag_144\n        /* \"#utility.yul\":2092:2093   */\n      0x00\n        /* \"#utility.yul\":2081:2090   */\n      dup4\n        /* \"#utility.yul\":2077:2094   */\n      add\n        /* \"#utility.yul\":2068:2074   */\n      dup5\n        /* \"#utility.yul\":2024:2095   */\n      tag_97\n      jump\t// in\n    tag_144:\n        /* \"#utility.yul\":1880:2102   */\n      swap3\n      swap2\n      pop\n      pop\n      jump\t// out\n        /* \"#utility.yul\":2108:2198   */\n    tag_98:\n        /* \"#utility.yul\":2142:2149   */\n      0x00\n        /* \"#utility.yul\":2185:2190   */\n      dup2\n        /* \"#utility.yul\":2178:2191   */\n      iszero\n        /* \"#utility.yul\":2171:2192   */\n      iszero\n        /* \"#utility.yul\":2160:2192   */\n      swap1\n      pop\n        /* \"#utility.yul\":2108:2198   */\n      swap2\n      swap1\n      pop\n      jump\t// out\n        /* \"#utility.yul\":2204:2313   */\n    tag_99:\n        /* \"#utility.yul\":2285:2306   */\n      tag_147\n        /* \"#utility.yul\":2300:2305   */\n      dup2\n        /* \"#utility.yul\":2285:2306   */\n      tag_98\n      jump\t// in\n    tag_147:\n        /* \"#utility.yul\":2280:2283   */\n      dup3\n        /* \"#utility.yul\":2273:2307   */\n      mstore\n        /* \"#utility.yul\":2204:2313   */\n      pop\n      pop\n      jump\t// out\n        /* \"#utility.yul\":2319:2529   */\n    tag_41:\n        /* \"#utility.yul\":2406:2410   */\n      0x00\n        /* \"#utility.yul\":2444:2446   */\n      0x20\n        /* \"#utility.yul\":2433:2442   */\n      dup3\n        /* \"#utility.yul\":2429:2447   */\n      add\n        /* \"#utility.yul\":2421:2447   */\n      swap1\n      pop\n        /* \"#utility.yul\":2457:2522   */\n      tag_149\n        /* \"#utility.yul\":2519:2520   */\n      0x00\n        /* \"#utility.yul\":2508:2517   */\n      dup4\n        /* \"#utility.yul\":2504:2521   */\n      add\n        /* \"#utility.yul\":2495:2501   */\n      dup5\n        /* \"#utility.yul\":2457:2522   */\n      tag_99\n      jump\t// in\n    tag_149:\n        /* \"#utility.yul\":2319:2529   */\n      swap3\n      swap2\n      pop\n      pop\n      jump\t// out\n        /* \"#utility.yul\":2535:2634   */\n    tag_100:\n        /* \"#utility.yul\":2587:2593   */\n      0x00\n        /* \"#utility.yul\":2621:2626   */\n      dup2\n        /* \"#utility.yul\":2615:2627   */\n      mload\n        /* \"#utility.yul\":2605:2627   */\n      swap1\n      pop\n        /* \"#utility.yul\":2535:2634   */\n      swap2\n      swap1\n      pop\n      jump\t// out\n        /* \"#utility.yul\":2640:2809   */\n    tag_101:\n        /* \"#utility.yul\":2724:2735   */\n      0x00\n        /* \"#utility.yul\":2758:2764   */\n      dup3\n        /* \"#utility.yul\":2753:2756   */\n      dup3\n        /* \"#utility.yul\":2746:2765   */\n      mstore\n        /* \"#utility.yul\":2798:2802   */\n      0x20\n        /* \"#utility.yul\":2793:2796   */\n      dup3\n        /* \"#utility.yul\":2789:2803   */\n      add\n        /* \"#utility.yul\":2774:2803   */\n      swap1\n      pop\n        /* \"#utility.yul\":2640:2809   */\n      swap3\n      swap2\n      pop\n      pop\n      jump\t// out\n        /* \"#utility.yul\":2815:3061   */\n    tag_102:\n        /* \"#utility.yul\":2896:2897   */\n      0x00\n        /* \"#utility.yul\":2906:3019   */\n    tag_153:\n        /* \"#utility.yul\":2920:2926   */\n      dup4\n        /* \"#utility.yul\":2917:2918   */\n      dup2\n        /* \"#utility.yul\":2914:2927   */\n      lt\n        /* \"#utility.yul\":2906:3019   */\n      iszero\n      tag_155\n      jumpi\n        /* \"#utility.yul\":3005:3006   */\n      dup1\n        /* \"#utility.yul\":3000:3003   */\n      dup3\n        /* \"#utility.yul\":2996:3007   */\n      add\n        /* \"#utility.yul\":2990:3008   */\n      mload\n        /* \"#utility.yul\":2986:2987   */\n      dup2\n        /* \"#utility.yul\":2981:2984   */\n      dup5\n        /* \"#utility.yul\":2977:2988   */\n      add\n        /* \"#utility.yul\":2970:3009   */\n      mstore\n        /* \"#utility.yul\":2942:2944   */\n      0x20\n        /* \"#utility.yul\":2939:2940   */\n      dup2\n        /* \"#utility.yul\":2935:2945   */\n      add\n        /* \"#utility.yul\":2930:2945   */\n      swap1\n      pop\n        /* \"#utility.yul\":2906:3019   */\n      jump(tag_153)\n    tag_155:\n        /* \"#utility.yul\":3053:3054   */\n      0x00\n        /* \"#utility.yul\":3044:3050   */\n      dup5\n        /* \"#utility.yul\":3039:3042   */\n      dup5\n        /* \"#utility.yul\":3035:3051   */\n      add\n        /* \"#utility.yul\":3028:3055   */\n      mstore\n        /* \"#utility.yul\":2877:3061   */\n      pop\n        /* \"#utility.yul\":2815:3061   */\n      pop\n      pop\n      pop\n      jump\t// out\n        /* \"#utility.yul\":3067:3169   */\n    tag_103:\n        /* \"#utility.yul\":3108:3114   */\n      0x00\n        /* \"#utility.yul\":3159:3161   */\n      0x1f\n        /* \"#utility.yul\":3155:3162   */\n      not\n        /* \"#utility.yul\":3150:3152   */\n      0x1f\n        /* \"#utility.yul\":3143:3148   */\n      dup4\n        /* \"#utility.yul\":3139:3153   */\n      add\n        /* \"#utility.yul\":3135:3163   */\n      and\n        /* \"#utility.yul\":3125:3163   */\n      swap1\n      pop\n        /* \"#utility.yul\":3067:3169   */\n      swap2\n      swap1\n      pop\n      jump\t// out\n        /* \"#utility.yul\":3175:3552   */\n    tag_104:\n        /* \"#utility.yul\":3263:3266   */\n      0x00\n        /* \"#utility.yul\":3291:3330   */\n      tag_158\n        /* \"#utility.yul\":3324:3329   */\n      dup3\n        /* \"#utility.yul\":3291:3330   */\n      tag_100\n      jump\t// in\n    tag_158:\n        /* \"#utility.yul\":3346:3417   */\n      tag_159\n        /* \"#utility.yul\":3410:3416   */\n      dup2\n        /* \"#utility.yul\":3405:3408   */\n      dup6\n        /* \"#utility.yul\":3346:3417   */\n      tag_101\n      jump\t// in\n    tag_159:\n        /* \"#utility.yul\":3339:3417   */\n      swap4\n      pop\n        /* \"#utility.yul\":3426:3491   */\n      tag_160\n        /* \"#utility.yul\":3484:3490   */\n      dup2\n        /* \"#utility.yul\":3479:3482   */\n      dup6\n        /* \"#utility.yul\":3472:3476   */\n      0x20\n        /* \"#utility.yul\":3465:3470   */\n      dup7\n        /* \"#utility.yul\":3461:3477   */\n      add\n        /* \"#utility.yul\":3426:3491   */\n      tag_102\n      jump\t// in\n    tag_160:\n        /* \"#utility.yul\":3516:3545   */\n      tag_161\n        /* \"#utility.yul\":3538:3544   */\n      dup2\n        /* \"#utility.yul\":3516:3545   */\n      tag_103\n      jump\t// in\n    tag_161:\n        /* \"#utility.yul\":3511:3514   */\n      dup5\n        /* \"#utility.yul\":3507:3546   */\n      add\n        /* \"#utility.yul\":3500:3546   */\n      swap2\n      pop\n        /* \"#utility.yul\":3267:3552   */\n      pop\n        /* \"#utility.yul\":3175:3552   */\n      swap3\n      swap2\n      pop\n      pop\n      jump\t// out\n        /* \"#utility.yul\":3558:3871   */\n    tag_45:\n        /* \"#utility.yul\":3671:3675   */\n      0x00\n        /* \"#utility.yul\":3709:3711   */\n      0x20\n        /* \"#utility.yul\":3698:3707   */\n      dup3\n        /* \"#utility.yul\":3694:3712   */\n      add\n        /* \"#utility.yul\":3686:3712   */\n      swap1\n      pop\n        /* \"#utility.yul\":3758:3767   */\n      dup2\n        /* \"#utility.yul\":3752:3756   */\n      dup2\n        /* \"#utility.yul\":3748:3768   */\n      sub\n        /* \"#utility.yul\":3744:3745   */\n      0x00\n        /* \"#utility.yul\":3733:3742   */\n      dup4\n        /* \"#utility.yul\":3729:3746   */\n      add\n        /* \"#utility.yul\":3722:3769   */\n      mstore\n        /* \"#utility.yul\":3786:3864   */\n      tag_163\n        /* \"#utility.yul\":3859:3863   */\n      dup2\n        /* \"#utility.yul\":3850:3856   */\n      dup5\n        /* \"#utility.yul\":3786:3864   */\n      tag_104\n      jump\t// in\n    tag_163:\n        /* \"#utility.yul\":3778:3864   */\n      swap1\n      pop\n        /* \"#utility.yul\":3558:3871   */\n      swap3\n      swap2\n      pop\n      pop\n      jump\t// out\n        /* \"#utility.yul\":3877:4047   */\n    tag_105:\n        /* \"#utility.yul\":4017:4039   */\n      0x546f206d616e79206761732070726f7669646564000000000000000000000000\n        /* \"#utility.yul\":4013:4014   */\n      0x00\n        /* \"#utility.yul\":4005:4011   */\n      dup3\n        /* \"#utility.yul\":4001:4015   */\n      add\n        /* \"#utility.yul\":3994:4040   */\n      mstore\n        /* \"#utility.yul\":3877:4047   */\n      pop\n      jump\t// out\n        /* \"#utility.yul\":4053:4419   */\n    tag_106:\n        /* \"#utility.yul\":4195:4198   */\n      0x00\n        /* \"#utility.yul\":4216:4283   */\n      tag_166\n        /* \"#utility.yul\":4280:4282   */\n      0x14\n        /* \"#utility.yul\":4275:4278   */\n      dup4\n        /* \"#utility.yul\":4216:4283   */\n      tag_101\n      jump\t// in\n    tag_166:\n        /* \"#utility.yul\":4209:4283   */\n      swap2\n      pop\n        /* \"#utility.yul\":4292:4385   */\n      tag_167\n        /* \"#utility.yul\":4381:4384   */\n      dup3\n        /* \"#utility.yul\":4292:4385   */\n      tag_105\n      jump\t// in\n    tag_167:\n        /* \"#utility.yul\":4410:4412   */\n      0x20\n        /* \"#utility.yul\":4405:4408   */\n      dup3\n        /* \"#utility.yul\":4401:4413   */\n      add\n        /* \"#utility.yul\":4394:4413   */\n      swap1\n      pop\n        /* \"#utility.yul\":4053:4419   */\n      swap2\n      swap1\n      pop\n      jump\t// out\n        /* \"#utility.yul\":4425:4844   */\n    tag_50:\n        /* \"#utility.yul\":4591:4595   */\n      0x00\n        /* \"#utility.yul\":4629:4631   */\n      0x20\n        /* \"#utility.yul\":4618:4627   */\n      dup3\n        /* \"#utility.yul\":4614:4632   */\n      add\n        /* \"#utility.yul\":4606:4632   */\n      swap1\n      pop\n        /* \"#utility.yul\":4678:4687   */\n      dup2\n        /* \"#utility.yul\":4672:4676   */\n      dup2\n        /* \"#utility.yul\":4668:4688   */\n      sub\n        /* \"#utility.yul\":4664:4665   */\n      0x00\n        /* \"#utility.yul\":4653:4662   */\n      dup4\n        /* \"#utility.yul\":4649:4666   */\n      add\n        /* \"#utility.yul\":4642:4689   */\n      mstore\n        /* \"#utility.yul\":4706:4837   */\n      tag_169\n        /* \"#utility.yul\":4832:4836   */\n      dup2\n        /* \"#utility.yul\":4706:4837   */\n      tag_106\n      jump\t// in\n    tag_169:\n        /* \"#utility.yul\":4698:4837   */\n      swap1\n      pop\n        /* \"#utility.yul\":4425:4844   */\n      swap2\n      swap1\n      pop\n      jump\t// out\n        /* \"#utility.yul\":4850:5024   */\n    tag_107:\n        /* \"#utility.yul\":4990:5016   */\n      0x54686520646f6f72206d757374206265206f7070656e65640000000000000000\n        /* \"#utility.yul\":4986:4987   */\n      0x00\n        /* \"#utility.yul\":4978:4984   */\n      dup3\n        /* \"#utility.yul\":4974:4988   */\n      add\n        /* \"#utility.yul\":4967:5017   */\n      mstore\n        /* \"#utility.yul\":4850:5024   */\n      pop\n      jump\t// out\n        /* \"#utility.yul\":5030:5396   */\n    tag_108:\n        /* \"#utility.yul\":5172:5175   */\n      0x00\n        /* \"#utility.yul\":5193:5260   */\n      tag_172\n        /* \"#utility.yul\":5257:5259   */\n      0x18\n        /* \"#utility.yul\":5252:5255   */\n      dup4\n        /* \"#utility.yul\":5193:5260   */\n      tag_101\n      jump\t// in\n    tag_172:\n        /* \"#utility.yul\":5186:5260   */\n      swap2\n      pop\n        /* \"#utility.yul\":5269:5362   */\n      tag_173\n        /* \"#utility.yul\":5358:5361   */\n      dup3\n        /* \"#utility.yul\":5269:5362   */\n      tag_107\n      jump\t// in\n    tag_173:\n        /* \"#utility.yul\":5387:5389   */\n      0x20\n        /* \"#utility.yul\":5382:5385   */\n      dup3\n        /* \"#utility.yul\":5378:5390   */\n      add\n        /* \"#utility.yul\":5371:5390   */\n      swap1\n      pop\n        /* \"#utility.yul\":5030:5396   */\n      swap2\n      swap1\n      pop\n      jump\t// out\n        /* \"#utility.yul\":5402:5821   */\n    tag_54:\n        /* \"#utility.yul\":5568:5572   */\n      0x00\n        /* \"#utility.yul\":5606:5608   */\n      0x20\n        /* \"#utility.yul\":5595:5604   */\n      dup3\n        /* \"#utility.yul\":5591:5609   */\n      add\n        /* \"#utility.yul\":5583:5609   */\n      swap1\n      pop\n        /* \"#utility.yul\":5655:5664   */\n      dup2\n        /* \"#utility.yul\":5649:5653   */\n      dup2\n        /* \"#utility.yul\":5645:5665   */\n      sub\n        /* \"#utility.yul\":5641:5642   */\n      0x00\n        /* \"#utility.yul\":5630:5639   */\n      dup4\n        /* \"#utility.yul\":5626:5643   */\n      add\n        /* \"#utility.yul\":5619:5666   */\n      mstore\n        /* \"#utility.yul\":5683:5814   */\n      tag_175\n        /* \"#utility.yul\":5809:5813   */\n      dup2\n        /* \"#utility.yul\":5683:5814   */\n      tag_108\n      jump\t// in\n    tag_175:\n        /* \"#utility.yul\":5675:5814   */\n      swap1\n      pop\n        /* \"#utility.yul\":5402:5821   */\n      swap2\n      swap1\n      pop\n      jump\t// out\n        /* \"#utility.yul\":5827:6007   */\n    tag_109:\n        /* \"#utility.yul\":5875:5952   */\n      0x4e487b7100000000000000000000000000000000000000000000000000000000\n        /* \"#utility.yul\":5872:5873   */\n      0x00\n        /* \"#utility.yul\":5865:5953   */\n      mstore\n        /* \"#utility.yul\":5972:5976   */\n      0x11\n        /* \"#utility.yul\":5969:5970   */\n      0x04\n        /* \"#utility.yul\":5962:5977   */\n      mstore\n        /* \"#utility.yul\":5996:6000   */\n      0x24\n        /* \"#utility.yul\":5993:5994   */\n      0x00\n        /* \"#utility.yul\":5986:6001   */\n      revert\n        /* \"#utility.yul\":6013:6207   */\n    tag_56:\n        /* \"#utility.yul\":6053:6057   */\n      0x00\n        /* \"#utility.yul\":6073:6093   */\n      tag_178\n        /* \"#utility.yul\":6091:6092   */\n      dup3\n        /* \"#utility.yul\":6073:6093   */\n      tag_88\n      jump\t// in\n    tag_178:\n        /* \"#utility.yul\":6068:6093   */\n      swap2\n      pop\n        /* \"#utility.yul\":6107:6127   */\n      tag_179\n        /* \"#utility.yul\":6125:6126   */\n      dup4\n        /* \"#utility.yul\":6107:6127   */\n      tag_88\n      jump\t// in\n    tag_179:\n        /* \"#utility.yul\":6102:6127   */\n      swap3\n      pop\n        /* \"#utility.yul\":6151:6152   */\n      dup3\n        /* \"#utility.yul\":6148:6149   */\n      dup3\n        /* \"#utility.yul\":6144:6153   */\n      sub\n        /* \"#utility.yul\":6136:6153   */\n      swap1\n      pop\n        /* \"#utility.yul\":6175:6176   */\n      dup2\n        /* \"#utility.yul\":6169:6173   */\n      dup2\n        /* \"#utility.yul\":6166:6177   */\n      gt\n        /* \"#utility.yul\":6163:6200   */\n      iszero\n      tag_180\n      jumpi\n        /* \"#utility.yul\":6180:6198   */\n      tag_181\n      tag_109\n      jump\t// in\n    tag_181:\n        /* \"#utility.yul\":6163:6200   */\n    tag_180:\n        /* \"#utility.yul\":6013:6207   */\n      swap3\n      swap2\n      pop\n      pop\n      jump\t// out\n        /* \"#utility.yul\":6213:6382   */\n    tag_110:\n        /* \"#utility.yul\":6353:6374   */\n      0x496d70726f766520796f7572206d617468732100000000000000000000000000\n        /* \"#utility.yul\":6349:6350   */\n      0x00\n        /* \"#utility.yul\":6341:6347   */\n      dup3\n        /* \"#utility.yul\":6337:6351   */\n      add\n        /* \"#utility.yul\":6330:6375   */\n      mstore\n        /* \"#utility.yul\":6213:6382   */\n      pop\n      jump\t// out\n        /* \"#utility.yul\":6388:6754   */\n    tag_111:\n        /* \"#utility.yul\":6530:6533   */\n      0x00\n        /* \"#utility.yul\":6551:6618   */\n      tag_184\n        /* \"#utility.yul\":6615:6617   */\n      0x13\n        /* \"#utility.yul\":6610:6613   */\n      dup4\n        /* \"#utility.yul\":6551:6618   */\n      tag_101\n      jump\t// in\n    tag_184:\n        /* \"#utility.yul\":6544:6618   */\n      swap2\n      pop\n        /* \"#utility.yul\":6627:6720   */\n      tag_185\n        /* \"#utility.yul\":6716:6719   */\n      dup3\n        /* \"#utility.yul\":6627:6720   */\n      tag_110\n      jump\t// in\n    tag_185:\n        /* \"#utility.yul\":6745:6747   */\n      0x20\n        /* \"#utility.yul\":6740:6743   */\n      dup3\n        /* \"#utility.yul\":6736:6748   */\n      add\n        /* \"#utility.yul\":6729:6748   */\n      swap1\n      pop\n        /* \"#utility.yul\":6388:6754   */\n      swap2\n      swap1\n      pop\n      jump\t// out\n        /* \"#utility.yul\":6760:7179   */\n    tag_59:\n        /* \"#utility.yul\":6926:6930   */\n      0x00\n        /* \"#utility.yul\":6964:6966   */\n      0x20\n        /* \"#utility.yul\":6953:6962   */\n      dup3\n        /* \"#utility.yul\":6949:6967   */\n      add\n        /* \"#utility.yul\":6941:6967   */\n      swap1\n      pop\n        /* \"#utility.yul\":7013:7022   */\n      dup2\n        /* \"#utility.yul\":7007:7011   */\n      dup2\n        /* \"#utility.yul\":7003:7023   */\n      sub\n        /* \"#utility.yul\":6999:7000   */\n      0x00\n        /* \"#utility.yul\":6988:6997   */\n      dup4\n        /* \"#utility.yul\":6984:7001   */\n      add\n        /* \"#utility.yul\":6977:7024   */\n      mstore\n        /* \"#utility.yul\":7041:7172   */\n      tag_187\n        /* \"#utility.yul\":7167:7171   */\n      dup2\n        /* \"#utility.yul\":7041:7172   */\n      tag_111\n      jump\t// in\n    tag_187:\n        /* \"#utility.yul\":7033:7172   */\n      swap1\n      pop\n        /* \"#utility.yul\":6760:7179   */\n      swap2\n      swap1\n      pop\n      jump\t// out\n        /* \"#utility.yul\":7185:7350   */\n    tag_112:\n        /* \"#utility.yul\":7325:7342   */\n      0x4e6f742067617320656e6f756768740000000000000000000000000000000000\n        /* \"#utility.yul\":7321:7322   */\n      0x00\n        /* \"#utility.yul\":7313:7319   */\n      dup3\n        /* \"#utility.yul\":7309:7323   */\n      add\n        /* \"#utility.yul\":7302:7343   */\n      mstore\n        /* \"#utility.yul\":7185:7350   */\n      pop\n      jump\t// out\n        /* \"#utility.yul\":7356:7722   */\n    tag_113:\n        /* \"#utility.yul\":7498:7501   */\n      0x00\n        /* \"#utility.yul\":7519:7586   */\n      tag_190\n        /* \"#utility.yul\":7583:7585   */\n      0x0f\n        /* \"#utility.yul\":7578:7581   */\n      dup4\n        /* \"#utility.yul\":7519:7586   */\n      tag_101\n      jump\t// in\n    tag_190:\n        /* \"#utility.yul\":7512:7586   */\n      swap2\n      pop\n        /* \"#utility.yul\":7595:7688   */\n      tag_191\n        /* \"#utility.yul\":7684:7687   */\n      dup3\n        /* \"#utility.yul\":7595:7688   */\n      tag_112\n      jump\t// in\n    tag_191:\n        /* \"#utility.yul\":7713:7715   */\n      0x20\n        /* \"#utility.yul\":7708:7711   */\n      dup3\n        /* \"#utility.yul\":7704:7716   */\n      add\n        /* \"#utility.yul\":7697:7716   */\n      swap1\n      pop\n        /* \"#utility.yul\":7356:7722   */\n      swap2\n      swap1\n      pop\n      jump\t// out\n        /* \"#utility.yul\":7728:8147   */\n    tag_63:\n        /* \"#utility.yul\":7894:7898   */\n      0x00\n        /* \"#utility.yul\":7932:7934   */\n      0x20\n        /* \"#utility.yul\":7921:7930   */\n      dup3\n        /* \"#utility.yul\":7917:7935   */\n      add\n        /* \"#utility.yul\":7909:7935   */\n      swap1\n      pop\n        /* \"#utility.yul\":7981:7990   */\n      dup2\n        /* \"#utility.yul\":7975:7979   */\n      dup2\n        /* \"#utility.yul\":7971:7991   */\n      sub\n        /* \"#utility.yul\":7967:7968   */\n      0x00\n        /* \"#utility.yul\":7956:7965   */\n      dup4\n        /* \"#utility.yul\":7952:7969   */\n      add\n        /* \"#utility.yul\":7945:7992   */\n      mstore\n        /* \"#utility.yul\":8009:8140   */\n      tag_193\n        /* \"#utility.yul\":8135:8139   */\n      dup2\n        /* \"#utility.yul\":8009:8140   */\n      tag_113\n      jump\t// in\n    tag_193:\n        /* \"#utility.yul\":8001:8140   */\n      swap1\n      pop\n        /* \"#utility.yul\":7728:8147   */\n      swap2\n      swap1\n      pop\n      jump\t// out\n        /* \"#utility.yul\":8153:8563   */\n    tag_66:\n        /* \"#utility.yul\":8193:8200   */\n      0x00\n        /* \"#utility.yul\":8216:8236   */\n      tag_195\n        /* \"#utility.yul\":8234:8235   */\n      dup3\n        /* \"#utility.yul\":8216:8236   */\n      tag_88\n      jump\t// in\n    tag_195:\n        /* \"#utility.yul\":8211:8236   */\n      swap2\n      pop\n        /* \"#utility.yul\":8250:8270   */\n      tag_196\n        /* \"#utility.yul\":8268:8269   */\n      dup4\n        /* \"#utility.yul\":8250:8270   */\n      tag_88\n      jump\t// in\n    tag_196:\n        /* \"#utility.yul\":8245:8270   */\n      swap3\n      pop\n        /* \"#utility.yul\":8305:8306   */\n      dup3\n        /* \"#utility.yul\":8302:8303   */\n      dup3\n        /* \"#utility.yul\":8298:8307   */\n      mul\n        /* \"#utility.yul\":8327:8357   */\n      tag_197\n        /* \"#utility.yul\":8345:8356   */\n      dup2\n        /* \"#utility.yul\":8327:8357   */\n      tag_88\n      jump\t// in\n    tag_197:\n        /* \"#utility.yul\":8316:8357   */\n      swap2\n      pop\n        /* \"#utility.yul\":8506:8507   */\n      dup3\n        /* \"#utility.yul\":8497:8504   */\n      dup3\n        /* \"#utility.yul\":8493:8508   */\n      div\n        /* \"#utility.yul\":8490:8491   */\n      dup5\n        /* \"#utility.yul\":8487:8509   */\n      eq\n        /* \"#utility.yul\":8467:8468   */\n      dup4\n        /* \"#utility.yul\":8460:8469   */\n      iszero\n        /* \"#utility.yul\":8440:8523   */\n      or\n        /* \"#utility.yul\":8417:8556   */\n      tag_198\n      jumpi\n        /* \"#utility.yul\":8536:8554   */\n      tag_199\n      tag_109\n      jump\t// in\n    tag_199:\n        /* \"#utility.yul\":8417:8556   */\n    tag_198:\n        /* \"#utility.yul\":8201:8563   */\n      pop\n        /* \"#utility.yul\":8153:8563   */\n      swap3\n      swap2\n      pop\n      pop\n      jump\t// out\n        /* \"#utility.yul\":8569:8792   */\n    tag_114:\n        /* \"#utility.yul\":8709:8743   */\n      0x506179206d6f726520746f2067657420796f757220747820646f6e6520666173\n        /* \"#utility.yul\":8705:8706   */\n      0x00\n        /* \"#utility.yul\":8697:8703   */\n      dup3\n        /* \"#utility.yul\":8693:8707   */\n      add\n        /* \"#utility.yul\":8686:8744   */\n      mstore\n        /* \"#utility.yul\":8778:8784   */\n      0x7465722100000000000000000000000000000000000000000000000000000000\n        /* \"#utility.yul\":8773:8775   */\n      0x20\n        /* \"#utility.yul\":8765:8771   */\n      dup3\n        /* \"#utility.yul\":8761:8776   */\n      add\n        /* \"#utility.yul\":8754:8785   */\n      mstore\n        /* \"#utility.yul\":8569:8792   */\n      pop\n      jump\t// out\n        /* \"#utility.yul\":8798:9164   */\n    tag_115:\n        /* \"#utility.yul\":8940:8943   */\n      0x00\n        /* \"#utility.yul\":8961:9028   */\n      tag_202\n        /* \"#utility.yul\":9025:9027   */\n      0x24\n        /* \"#utility.yul\":9020:9023   */\n      dup4\n        /* \"#utility.yul\":8961:9028   */\n      tag_101\n      jump\t// in\n    tag_202:\n        /* \"#utility.yul\":8954:9028   */\n      swap2\n      pop\n        /* \"#utility.yul\":9037:9130   */\n      tag_203\n        /* \"#utility.yul\":9126:9129   */\n      dup3\n        /* \"#utility.yul\":9037:9130   */\n      tag_114\n      jump\t// in\n    tag_203:\n        /* \"#utility.yul\":9155:9157   */\n      0x40\n        /* \"#utility.yul\":9150:9153   */\n      dup3\n        /* \"#utility.yul\":9146:9158   */\n      add\n        /* \"#utility.yul\":9139:9158   */\n      swap1\n      pop\n        /* \"#utility.yul\":8798:9164   */\n      swap2\n      swap1\n      pop\n      jump\t// out\n        /* \"#utility.yul\":9170:9589   */\n    tag_69:\n        /* \"#utility.yul\":9336:9340   */\n      0x00\n        /* \"#utility.yul\":9374:9376   */\n      0x20\n        /* \"#utility.yul\":9363:9372   */\n      dup3\n        /* \"#utility.yul\":9359:9377   */\n      add\n        /* \"#utility.yul\":9351:9377   */\n      swap1\n      pop\n        /* \"#utility.yul\":9423:9432   */\n      dup2\n        /* \"#utility.yul\":9417:9421   */\n      dup2\n        /* \"#utility.yul\":9413:9433   */\n      sub\n        /* \"#utility.yul\":9409:9410   */\n      0x00\n        /* \"#utility.yul\":9398:9407   */\n      dup4\n        /* \"#utility.yul\":9394:9411   */\n      add\n        /* \"#utility.yul\":9387:9434   */\n      mstore\n        /* \"#utility.yul\":9451:9582   */\n      tag_205\n        /* \"#utility.yul\":9577:9581   */\n      dup2\n        /* \"#utility.yul\":9451:9582   */\n      tag_115\n      jump\t// in\n    tag_205:\n        /* \"#utility.yul\":9443:9582   */\n      swap1\n      pop\n        /* \"#utility.yul\":9170:9589   */\n      swap2\n      swap1\n      pop\n      jump\t// out\n        /* \"#utility.yul\":9595:9786   */\n    tag_74:\n        /* \"#utility.yul\":9635:9638   */\n      0x00\n        /* \"#utility.yul\":9654:9674   */\n      tag_207\n        /* \"#utility.yul\":9672:9673   */\n      dup3\n        /* \"#utility.yul\":9654:9674   */\n      tag_88\n      jump\t// in\n    tag_207:\n        /* \"#utility.yul\":9649:9674   */\n      swap2\n      pop\n        /* \"#utility.yul\":9688:9708   */\n      tag_208\n        /* \"#utility.yul\":9706:9707   */\n      dup4\n        /* \"#utility.yul\":9688:9708   */\n      tag_88\n      jump\t// in\n    tag_208:\n        /* \"#utility.yul\":9683:9708   */\n      swap3\n      pop\n        /* \"#utility.yul\":9731:9732   */\n      dup3\n        /* \"#utility.yul\":9728:9729   */\n      dup3\n        /* \"#utility.yul\":9724:9733   */\n      add\n        /* \"#utility.yul\":9717:9733   */\n      swap1\n      pop\n        /* \"#utility.yul\":9752:9755   */\n      dup1\n        /* \"#utility.yul\":9749:9750   */\n      dup3\n        /* \"#utility.yul\":9746:9756   */\n      gt\n        /* \"#utility.yul\":9743:9779   */\n      iszero\n      tag_209\n      jumpi\n        /* \"#utility.yul\":9759:9777   */\n      tag_210\n      tag_109\n      jump\t// in\n    tag_210:\n        /* \"#utility.yul\":9743:9779   */\n    tag_209:\n        /* \"#utility.yul\":9595:9786   */\n      swap3\n      swap2\n      pop\n      pop\n      jump\t// out\n        /* \"#utility.yul\":9792:9963   */\n    tag_116:\n        /* \"#utility.yul\":9932:9955   */\n      0x596f7520617265206e6f7420746865206f776e65720000000000000000000000\n        /* \"#utility.yul\":9928:9929   */\n      0x00\n        /* \"#utility.yul\":9920:9926   */\n      dup3\n        /* \"#utility.yul\":9916:9930   */\n      add\n        /* \"#utility.yul\":9909:9956   */\n      mstore\n        /* \"#utility.yul\":9792:9963   */\n      pop\n      jump\t// out\n        /* \"#utility.yul\":9969:10335   */\n    tag_117:\n        /* \"#utility.yul\":10111:10114   */\n      0x00\n        /* \"#utility.yul\":10132:10199   */\n      tag_213\n        /* \"#utility.yul\":10196:10198   */\n      0x15\n        /* \"#utility.yul\":10191:10194   */\n      dup4\n        /* \"#utility.yul\":10132:10199   */\n      tag_101\n      jump\t// in\n    tag_213:\n        /* \"#utility.yul\":10125:10199   */\n      swap2\n      pop\n        /* \"#utility.yul\":10208:10301   */\n      tag_214\n        /* \"#utility.yul\":10297:10300   */\n      dup3\n        /* \"#utility.yul\":10208:10301   */\n      tag_116\n      jump\t// in\n    tag_214:\n        /* \"#utility.yul\":10326:10328   */\n      0x20\n        /* \"#utility.yul\":10321:10324   */\n      dup3\n        /* \"#utility.yul\":10317:10329   */\n      add\n        /* \"#utility.yul\":10310:10329   */\n      swap1\n      pop\n        /* \"#utility.yul\":9969:10335   */\n      swap2\n      swap1\n      pop\n      jump\t// out\n        /* \"#utility.yul\":10341:10760   */\n    tag_80:\n        /* \"#utility.yul\":10507:10511   */\n      0x00\n        /* \"#utility.yul\":10545:10547   */\n      0x20\n        /* \"#utility.yul\":10534:10543   */\n      dup3\n        /* \"#utility.yul\":10530:10548   */\n      add\n        /* \"#utility.yul\":10522:10548   */\n      swap1\n      pop\n        /* \"#utility.yul\":10594:10603   */\n      dup2\n        /* \"#utility.yul\":10588:10592   */\n      dup2\n        /* \"#utility.yul\":10584:10604   */\n      sub\n        /* \"#utility.yul\":10580:10581   */\n      0x00\n        /* \"#utility.yul\":10569:10578   */\n      dup4\n        /* \"#utility.yul\":10565:10582   */\n      add\n        /* \"#utility.yul\":10558:10605   */\n      mstore\n        /* \"#utility.yul\":10622:10753   */\n      tag_216\n        /* \"#utility.yul\":10748:10752   */\n      dup2\n        /* \"#utility.yul\":10622:10753   */\n      tag_117\n      jump\t// in\n    tag_216:\n        /* \"#utility.yul\":10614:10753   */\n      swap1\n      pop\n        /* \"#utility.yul\":10341:10760   */\n      swap2\n      swap1\n      pop\n      jump\t// out\n        /* \"#utility.yul\":10766:10946   */\n    tag_118:\n        /* \"#utility.yul\":10814:10891   */\n      0x4e487b7100000000000000000000000000000000000000000000000000000000\n        /* \"#utility.yul\":10811:10812   */\n      0x00\n        /* \"#utility.yul\":10804:10892   */\n      mstore\n        /* \"#utility.yul\":10911:10915   */\n      0x22\n        /* \"#utility.yul\":10908:10909   */\n      0x04\n        /* \"#utility.yul\":10901:10916   */\n      mstore\n        /* \"#utility.yul\":10935:10939   */\n      0x24\n        /* \"#utility.yul\":10932:10933   */\n      0x00\n        /* \"#utility.yul\":10925:10940   */\n      revert\n        /* \"#utility.yul\":10952:11272   */\n    tag_83:\n        /* \"#utility.yul\":10996:11002   */\n      0x00\n        /* \"#utility.yul\":11033:11034   */\n      0x02\n        /* \"#utility.yul\":11027:11031   */\n      dup3\n        /* \"#utility.yul\":11023:11035   */\n      div\n        /* \"#utility.yul\":11013:11035   */\n      swap1\n      pop\n        /* \"#utility.yul\":11080:11081   */\n      0x01\n        /* \"#utility.yul\":11074:11078   */\n      dup3\n        /* \"#utility.yul\":11070:11082   */\n      and\n        /* \"#utility.yul\":11101:11119   */\n      dup1\n        /* \"#utility.yul\":11091:11172   */\n      tag_219\n      jumpi\n        /* \"#utility.yul\":11157:11161   */\n      0x7f\n        /* \"#utility.yul\":11149:11155   */\n      dup3\n        /* \"#utility.yul\":11145:11162   */\n      and\n        /* \"#utility.yul\":11135:11162   */\n      swap2\n      pop\n        /* \"#utility.yul\":11091:11172   */\n    tag_219:\n        /* \"#utility.yul\":11219:11221   */\n      0x20\n        /* \"#utility.yul\":11211:11217   */\n      dup3\n        /* \"#utility.yul\":11208:11222   */\n      lt\n        /* \"#utility.yul\":11188:11206   */\n      dup2\n        /* \"#utility.yul\":11185:11223   */\n      sub\n        /* \"#utility.yul\":11182:11266   */\n      tag_220\n      jumpi\n        /* \"#utility.yul\":11238:11256   */\n      tag_221\n      tag_118\n      jump\t// in\n    tag_221:\n        /* \"#utility.yul\":11182:11266   */\n    tag_220:\n        /* \"#utility.yul\":11003:11272   */\n      pop\n        /* \"#utility.yul\":10952:11272   */\n      swap2\n      swap1\n      pop\n      jump\t// out\n\n    auxdata: 0xa2646970667358221220194f9c6033a5c1c07989f4f93100c814ff3d1bbb0785b756a6682f61dfa32d6e64736f6c63430008120033\n}\n",
				"bytecode": {
					"linkReferences": {},
					"object": "60806040523480156200001157600080fd5b506040516200123d3803806200123d833981810160405281019062000037919062000267565b81600090816200004891906200050e565b5033600560016101000a81548173ffffffffffffffffffffffffffffffffffffffff021916908373ffffffffffffffffffffffffffffffffffffffff160217905550806001819055505050620005f5565b6000604051905090565b600080fd5b600080fd5b600080fd5b600080fd5b6000601f19601f8301169050919050565b7f4e487b7100000000000000000000000000000000000000000000000000000000600052604160045260246000fd5b6200010282620000b7565b810181811067ffffffffffffffff82111715620001245762000123620000c8565b5b80604052505050565b60006200013962000099565b9050620001478282620000f7565b919050565b600067ffffffffffffffff8211156200016a5762000169620000c8565b5b6200017582620000b7565b9050602081019050919050565b60005b83811015620001a257808201518184015260208101905062000185565b60008484015250505050565b6000620001c5620001bf846200014c565b6200012d565b905082815260208101848484011115620001e457620001e3620000b2565b5b620001f184828562000182565b509392505050565b600082601f830112620002115762000210620000ad565b5b815162000223848260208601620001ae565b91505092915050565b6000819050919050565b62000241816200022c565b81146200024d57600080fd5b50565b600081519050620002618162000236565b92915050565b60008060408385031215620002815762000280620000a3565b5b600083015167ffffffffffffffff811115620002a257620002a1620000a8565b5b620002b085828601620001f9565b9250506020620002c38582860162000250565b9150509250929050565b600081519050919050565b7f4e487b7100000000000000000000000000000000000000000000000000000000600052602260045260246000fd5b600060028204905060018216806200032057607f821691505b602082108103620003365762000335620002d8565b5b50919050565b60008190508160005260206000209050919050565b60006020601f8301049050919050565b600082821b905092915050565b600060088302620003a07fffffffffffffffffffffffffffffffffffffffffffffffffffffffffffffffff8262000361565b620003ac868362000361565b95508019841693508086168417925050509392505050565b6000819050919050565b6000620003ef620003e9620003e3846200022c565b620003c4565b6200022c565b9050919050565b6000819050919050565b6200040b83620003ce565b620004236200041a82620003f6565b8484546200036e565b825550505050565b600090565b6200043a6200042b565b6200044781848462000400565b505050565b5b818110156200046f576200046360008262000430565b6001810190506200044d565b5050565b601f821115620004be5762000488816200033c565b620004938462000351565b81016020851015620004a3578190505b620004bb620004b28562000351565b8301826200044c565b50505b505050565b600082821c905092915050565b6000620004e360001984600802620004c3565b1980831691505092915050565b6000620004fe8383620004d0565b9150826002028217905092915050565b6200051982620002cd565b67ffffffffffffffff811115620005355762000534620000c8565b5b62000541825462000307565b6200054e82828562000473565b600060209050601f83116001811462000586576000841562000571578287015190505b6200057d8582620004f0565b865550620005ed565b601f19841662000596866200033c565b60005b82811015620005c05784890151825560018201915060208501945060208101905062000599565b86831015620005e05784890151620005dc601f891682620004d0565b8355505b6001600288020188555050505b505050505050565b610c3880620006056000396000f3fe608060405234801561001057600080fd5b50600436106100935760003560e01c806367e69c3e1161006657806367e69c3e1461010e578063771602f71461012c5780638da5cb5b1461015c578063db0e127a1461017a578063f96339301461019857610093565b80630f4875461461009857806311af6564146100b65780633ef5e445146100c05780635db3786e146100f0575b600080fd5b6100a06101b6565b6040516100ad919061064b565b60405180910390f35b6100be6101bc565b005b6100da60048036038101906100d59190610697565b6101e0565b6040516100e7919061064b565b60405180910390f35b6100f8610385565b604051610105919061064b565b60405180910390f35b61011661038b565b604051610123919061064b565b60405180910390f35b61014660048036038101906101419190610697565b610391565b604051610153919061064b565b60405180910390f35b6101646104d7565b6040516101719190610718565b60405180910390f35b6101826104fd565b60405161018f919061074e565b60405180910390f35b6101a0610510565b6040516101ad91906107f9565b60405180910390f35b60045481565b6001600560006101000a81548160ff0219169083151502179055503a600481905550565b6000621e84805a10610227576040517f08c379a000000000000000000000000000000000000000000000000000000000815260040161021e90610867565b60405180910390fd5b60011515600560009054906101000a900460ff1615151461027d576040517f08c379a0000000000000000000000000000000000000000000000000000000008152600401610274906108d3565b60405180910390fd5b5a600281905550600082846102929190610922565b90505a600381905550606481146102de576040517f08c379a00000000000000000000000000000000000000000000000000000000081526004016102d5906109a2565b60405180910390fd5b6003546002546102ee9190610922565b600181905550621e847e5a101561033a576040517f08c379a000000000000000000000000000000000000000000000000000000000815260040161033190610a0e565b60405180910390fd5b33600560016101000a81548173ffffffffffffffffffffffffffffffffffffffff021916908373ffffffffffffffffffffffffffffffffffffffff1602179055508091505092915050565b60035481565b60025481565b600060045460026103a29190610a2e565b3a116103e3576040517f08c379a00000000000000000000000000000000000000000000000000000000081526004016103da90610ae2565b60405180910390fd5b60011515600560009054906101000a900460ff16151514610439576040517f08c379a0000000000000000000000000000000000000000000000000000000008152600401610430906108d3565b60405180910390fd5b600082846104479190610b02565b90506064811461048c576040517f08c379a0000000000000000000000000000000000000000000000000000000008152600401610483906109a2565b60405180910390fd5b33600560016101000a81548173ffffffffffffffffffffffffffffffffffffffff021916908373ffffffffffffffffffffffffffffffffffffffff1602179055508091505092915050565b600560019054906101000a900473ffffffffffffffffffffffffffffffffffffffff1681565b600560009054906101000a900460ff1681565b6060600560019054906101000a900473ffffffffffffffffffffffffffffffffffffffff1673ffffffffffffffffffffffffffffffffffffffff163373ffffffffffffffffffffffffffffffffffffffff16146105a2576040517f08c379a000000000000000000000000000000000000000000000000000000000815260040161059990610b82565b60405180910390fd5b600080546105af90610bd1565b80601f01602080910402602001604051908101604052809291908181526020018280546105db90610bd1565b80156106285780601f106105fd57610100808354040283529160200191610628565b820191906000526020600020905b81548152906001019060200180831161060b57829003601f168201915b5050505050905090565b6000819050919050565b61064581610632565b82525050565b6000602082019050610660600083018461063c565b92915050565b600080fd5b61067481610632565b811461067f57600080fd5b50565b6000813590506106918161066b565b92915050565b600080604083850312156106ae576106ad610666565b5b60006106bc85828601610682565b92505060206106cd85828601610682565b9150509250929050565b600073ffffffffffffffffffffffffffffffffffffffff82169050919050565b6000610702826106d7565b9050919050565b610712816106f7565b82525050565b600060208201905061072d6000830184610709565b92915050565b60008115159050919050565b61074881610733565b82525050565b6000602082019050610763600083018461073f565b92915050565b600081519050919050565b600082825260208201905092915050565b60005b838110156107a3578082015181840152602081019050610788565b60008484015250505050565b6000601f19601f8301169050919050565b60006107cb82610769565b6107d58185610774565b93506107e5818560208601610785565b6107ee816107af565b840191505092915050565b6000602082019050818103600083015261081381846107c0565b905092915050565b7f546f206d616e79206761732070726f7669646564000000000000000000000000600082015250565b6000610851601483610774565b915061085c8261081b565b602082019050919050565b6000602082019050818103600083015261088081610844565b9050919050565b7f54686520646f6f72206d757374206265206f7070656e65640000000000000000600082015250565b60006108bd601883610774565b91506108c882610887565b602082019050919050565b600060208201905081810360008301526108ec816108b0565b9050919050565b7f4e487b7100000000000000000000000000000000000000000000000000000000600052601160045260246000fd5b600061092d82610632565b915061093883610632565b92508282039050818111156109505761094f6108f3565b5b92915050565b7f496d70726f766520796f7572206d617468732100000000000000000000000000600082015250565b600061098c601383610774565b915061099782610956565b602082019050919050565b600060208201905081810360008301526109bb8161097f565b9050919050565b7f4e6f742067617320656e6f756768740000000000000000000000000000000000600082015250565b60006109f8600f83610774565b9150610a03826109c2565b602082019050919050565b60006020820190508181036000830152610a27816109eb565b9050919050565b6000610a3982610632565b9150610a4483610632565b9250828202610a5281610632565b91508282048414831517610a6957610a686108f3565b5b5092915050565b7f506179206d6f726520746f2067657420796f757220747820646f6e652066617360008201527f7465722100000000000000000000000000000000000000000000000000000000602082015250565b6000610acc602483610774565b9150610ad782610a70565b604082019050919050565b60006020820190508181036000830152610afb81610abf565b9050919050565b6000610b0d82610632565b9150610b1883610632565b9250828201905080821115610b3057610b2f6108f3565b5b92915050565b7f596f7520617265206e6f7420746865206f776e65720000000000000000000000600082015250565b6000610b6c601583610774565b9150610b7782610b36565b602082019050919050565b60006020820190508181036000830152610b9b81610b5f565b9050919050565b7f4e487b7100000000000000000000000000000000000000000000000000000000600052602260045260246000fd5b60006002820490506001821680610be957607f821691505b602082108103610bfc57610bfb610ba2565b5b5091905056fea2646970667358221220194f9c6033a5c1c07989f4f93100c814ff3d1bbb0785b756a6682f61dfa32d6e64736f6c63430008120033",
					"opcodes": "PUSH1 0x80 PUSH1 0x40 MSTORE CALLVALUE DUP1 ISZERO PUSH3 0x11 JUMPI PUSH1 0x0 DUP1 REVERT JUMPDEST POP PUSH1 0x40 MLOAD PUSH3 0x123D CODESIZE SUB DUP1 PUSH3 0x123D DUP4 CODECOPY DUP2 DUP2 ADD PUSH1 0x40 MSTORE DUP2 ADD SWAP1 PUSH3 0x37 SWAP2 SWAP1 PUSH3 0x267 JUMP JUMPDEST DUP2 PUSH1 0x0 SWAP1 DUP2 PUSH3 0x48 SWAP2 SWAP1 PUSH3 0x50E JUMP JUMPDEST POP CALLER PUSH1 0x5 PUSH1 0x1 PUSH2 0x100 EXP DUP2 SLOAD DUP2 PUSH20 0xFFFFFFFFFFFFFFFFFFFFFFFFFFFFFFFFFFFFFFFF MUL NOT AND SWAP1 DUP4 PUSH20 0xFFFFFFFFFFFFFFFFFFFFFFFFFFFFFFFFFFFFFFFF AND MUL OR SWAP1 SSTORE POP DUP1 PUSH1 0x1 DUP2 SWAP1 SSTORE POP POP POP PUSH3 0x5F5 JUMP JUMPDEST PUSH1 0x0 PUSH1 0x40 MLOAD SWAP1 POP SWAP1 JUMP JUMPDEST PUSH1 0x0 DUP1 REVERT JUMPDEST PUSH1 0x0 DUP1 REVERT JUMPDEST PUSH1 0x0 DUP1 REVERT JUMPDEST PUSH1 0x0 DUP1 REVERT JUMPDEST PUSH1 0x0 PUSH1 0x1F NOT PUSH1 0x1F DUP4 ADD AND SWAP1 POP SWAP2 SWAP1 POP JUMP JUMPDEST PUSH32 0x4E487B7100000000000000000000000000000000000000000000000000000000 PUSH1 0x0 MSTORE PUSH1 0x41 PUSH1 0x4 MSTORE PUSH1 0x24 PUSH1 0x0 REVERT JUMPDEST PUSH3 0x102 DUP3 PUSH3 0xB7 JUMP JUMPDEST DUP2 ADD DUP2 DUP2 LT PUSH8 0xFFFFFFFFFFFFFFFF DUP3 GT OR ISZERO PUSH3 0x124 JUMPI PUSH3 0x123 PUSH3 0xC8 JUMP JUMPDEST JUMPDEST DUP1 PUSH1 0x40 MSTORE POP POP POP JUMP JUMPDEST PUSH1 0x0 PUSH3 0x139 PUSH3 0x99 JUMP JUMPDEST SWAP1 POP PUSH3 0x147 DUP3 DUP3 PUSH3 0xF7 JUMP JUMPDEST SWAP2 SWAP1 POP JUMP JUMPDEST PUSH1 0x0 PUSH8 0xFFFFFFFFFFFFFFFF DUP3 GT ISZERO PUSH3 0x16A JUMPI PUSH3 0x169 PUSH3 0xC8 JUMP JUMPDEST JUMPDEST PUSH3 0x175 DUP3 PUSH3 0xB7 JUMP JUMPDEST SWAP1 POP PUSH1 0x20 DUP2 ADD SWAP1 POP SWAP2 SWAP1 POP JUMP JUMPDEST PUSH1 0x0 JUMPDEST DUP4 DUP2 LT ISZERO PUSH3 0x1A2 JUMPI DUP1 DUP3 ADD MLOAD DUP2 DUP5 ADD MSTORE PUSH1 0x20 DUP2 ADD SWAP1 POP PUSH3 0x185 JUMP JUMPDEST PUSH1 0x0 DUP5 DUP5 ADD MSTORE POP POP POP POP JUMP JUMPDEST PUSH1 0x0 PUSH3 0x1C5 PUSH3 0x1BF DUP5 PUSH3 0x14C JUMP JUMPDEST PUSH3 0x12D JUMP JUMPDEST SWAP1 POP DUP3 DUP2 MSTORE PUSH1 0x20 DUP2 ADD DUP5 DUP5 DUP5 ADD GT ISZERO PUSH3 0x1E4 JUMPI PUSH3 0x1E3 PUSH3 0xB2 JUMP JUMPDEST JUMPDEST PUSH3 0x1F1 DUP5 DUP3 DUP6 PUSH3 0x182 JUMP JUMPDEST POP SWAP4 SWAP3 POP POP POP JUMP JUMPDEST PUSH1 0x0 DUP3 PUSH1 0x1F DUP4 ADD SLT PUSH3 0x211 JUMPI PUSH3 0x210 PUSH3 0xAD JUMP JUMPDEST JUMPDEST DUP2 MLOAD PUSH3 0x223 DUP5 DUP3 PUSH1 0x20 DUP7 ADD PUSH3 0x1AE JUMP JUMPDEST SWAP2 POP POP SWAP3 SWAP2 POP POP JUMP JUMPDEST PUSH1 0x0 DUP2 SWAP1 POP SWAP2 SWAP1 POP JUMP JUMPDEST PUSH3 0x241 DUP2 PUSH3 0x22C JUMP JUMPDEST DUP2 EQ PUSH3 0x24D JUMPI PUSH1 0x0 DUP1 REVERT JUMPDEST POP JUMP JUMPDEST PUSH1 0x0 DUP2 MLOAD SWAP1 POP PUSH3 0x261 DUP2 PUSH3 0x236 JUMP JUMPDEST SWAP3 SWAP2 POP POP JUMP JUMPDEST PUSH1 0x0 DUP1 PUSH1 0x40 DUP4 DUP6 SUB SLT ISZERO PUSH3 0x281 JUMPI PUSH3 0x280 PUSH3 0xA3 JUMP JUMPDEST JUMPDEST PUSH1 0x0 DUP4 ADD MLOAD PUSH8 0xFFFFFFFFFFFFFFFF DUP2 GT ISZERO PUSH3 0x2A2 JUMPI PUSH3 0x2A1 PUSH3 0xA8 JUMP JUMPDEST JUMPDEST PUSH3 0x2B0 DUP6 DUP3 DUP7 ADD PUSH3 0x1F9 JUMP JUMPDEST SWAP3 POP POP PUSH1 0x20 PUSH3 0x2C3 DUP6 DUP3 DUP7 ADD PUSH3 0x250 JUMP JUMPDEST SWAP2 POP POP SWAP3 POP SWAP3 SWAP1 POP JUMP JUMPDEST PUSH1 0x0 DUP2 MLOAD SWAP1 POP SWAP2 SWAP1 POP JUMP JUMPDEST PUSH32 0x4E487B7100000000000000000000000000000000000000000000000000000000 PUSH1 0x0 MSTORE PUSH1 0x22 PUSH1 0x4 MSTORE PUSH1 0x24 PUSH1 0x0 REVERT JUMPDEST PUSH1 0x0 PUSH1 0x2 DUP3 DIV SWAP1 POP PUSH1 0x1 DUP3 AND DUP1 PUSH3 0x320 JUMPI PUSH1 0x7F DUP3 AND SWAP2 POP JUMPDEST PUSH1 0x20 DUP3 LT DUP2 SUB PUSH3 0x336 JUMPI PUSH3 0x335 PUSH3 0x2D8 JUMP JUMPDEST JUMPDEST POP SWAP2 SWAP1 POP JUMP JUMPDEST PUSH1 0x0 DUP2 SWAP1 POP DUP2 PUSH1 0x0 MSTORE PUSH1 0x20 PUSH1 0x0 KECCAK256 SWAP1 POP SWAP2 SWAP1 POP JUMP JUMPDEST PUSH1 0x0 PUSH1 0x20 PUSH1 0x1F DUP4 ADD DIV SWAP1 POP SWAP2 SWAP1 POP JUMP JUMPDEST PUSH1 0x0 DUP3 DUP3 SHL SWAP1 POP SWAP3 SWAP2 POP POP JUMP JUMPDEST PUSH1 0x0 PUSH1 0x8 DUP4 MUL PUSH3 0x3A0 PUSH32 0xFFFFFFFFFFFFFFFFFFFFFFFFFFFFFFFFFFFFFFFFFFFFFFFFFFFFFFFFFFFFFFFF DUP3 PUSH3 0x361 JUMP JUMPDEST PUSH3 0x3AC DUP7 DUP4 PUSH3 0x361 JUMP JUMPDEST SWAP6 POP DUP1 NOT DUP5 AND SWAP4 POP DUP1 DUP7 AND DUP5 OR SWAP3 POP POP POP SWAP4 SWAP3 POP POP POP JUMP JUMPDEST PUSH1 0x0 DUP2 SWAP1 POP SWAP2 SWAP1 POP JUMP JUMPDEST PUSH1 0x0 PUSH3 0x3EF PUSH3 0x3E9 PUSH3 0x3E3 DUP5 PUSH3 0x22C JUMP JUMPDEST PUSH3 0x3C4 JUMP JUMPDEST PUSH3 0x22C JUMP JUMPDEST SWAP1 POP SWAP2 SWAP1 POP JUMP JUMPDEST PUSH1 0x0 DUP2 SWAP1 POP SWAP2 SWAP1 POP JUMP JUMPDEST PUSH3 0x40B DUP4 PUSH3 0x3CE JUMP JUMPDEST PUSH3 0x423 PUSH3 0x41A DUP3 PUSH3 0x3F6 JUMP JUMPDEST DUP5 DUP5 SLOAD PUSH3 0x36E JUMP JUMPDEST DUP3 SSTORE POP POP POP POP JUMP JUMPDEST PUSH1 0x0 SWAP1 JUMP JUMPDEST PUSH3 0x43A PUSH3 0x42B JUMP JUMPDEST PUSH3 0x447 DUP2 DUP5 DUP5 PUSH3 0x400 JUMP JUMPDEST POP POP POP JUMP JUMPDEST JUMPDEST DUP2 DUP2 LT ISZERO PUSH3 0x46F JUMPI PUSH3 0x463 PUSH1 0x0 DUP3 PUSH3 0x430 JUMP JUMPDEST PUSH1 0x1 DUP2 ADD SWAP1 POP PUSH3 0x44D JUMP JUMPDEST POP POP JUMP JUMPDEST PUSH1 0x1F DUP3 GT ISZERO PUSH3 0x4BE JUMPI PUSH3 0x488 DUP2 PUSH3 0x33C JUMP JUMPDEST PUSH3 0x493 DUP5 PUSH3 0x351 JUMP JUMPDEST DUP2 ADD PUSH1 0x20 DUP6 LT ISZERO PUSH3 0x4A3 JUMPI DUP2 SWAP1 POP JUMPDEST PUSH3 0x4BB PUSH3 0x4B2 DUP6 PUSH3 0x351 JUMP JUMPDEST DUP4 ADD DUP3 PUSH3 0x44C JUMP JUMPDEST POP POP JUMPDEST POP POP POP JUMP JUMPDEST PUSH1 0x0 DUP3 DUP3 SHR SWAP1 POP SWAP3 SWAP2 POP POP JUMP JUMPDEST PUSH1 0x0 PUSH3 0x4E3 PUSH1 0x0 NOT DUP5 PUSH1 0x8 MUL PUSH3 0x4C3 JUMP JUMPDEST NOT DUP1 DUP4 AND SWAP2 POP POP SWAP3 SWAP2 POP POP JUMP JUMPDEST PUSH1 0x0 PUSH3 0x4FE DUP4 DUP4 PUSH3 0x4D0 JUMP JUMPDEST SWAP2 POP DUP3 PUSH1 0x2 MUL DUP3 OR SWAP1 POP SWAP3 SWAP2 POP POP JUMP JUMPDEST PUSH3 0x519 DUP3 PUSH3 0x2CD JUMP JUMPDEST PUSH8 0xFFFFFFFFFFFFFFFF DUP2 GT ISZERO PUSH3 0x535 JUMPI PUSH3 0x534 PUSH3 0xC8 JUMP JUMPDEST JUMPDEST PUSH3 0x541 DUP3 SLOAD PUSH3 0x307 JUMP JUMPDEST PUSH3 0x54E DUP3 DUP3 DUP6 PUSH3 0x473 JUMP JUMPDEST PUSH1 0x0 PUSH1 0x20 SWAP1 POP PUSH1 0x1F DUP4 GT PUSH1 0x1 DUP2 EQ PUSH3 0x586 JUMPI PUSH1 0x0 DUP5 ISZERO PUSH3 0x571 JUMPI DUP3 DUP8 ADD MLOAD SWAP1 POP JUMPDEST PUSH3 0x57D DUP6 DUP3 PUSH3 0x4F0 JUMP JUMPDEST DUP7 SSTORE POP PUSH3 0x5ED JUMP JUMPDEST PUSH1 0x1F NOT DUP5 AND PUSH3 0x596 DUP7 PUSH3 0x33C JUMP JUMPDEST PUSH1 0x0 JUMPDEST DUP3 DUP2 LT ISZERO PUSH3 0x5C0 JUMPI DUP5 DUP10 ADD MLOAD DUP3 SSTORE PUSH1 0x1 DUP3 ADD SWAP2 POP PUSH1 0x20 DUP6 ADD SWAP5 POP PUSH1 0x20 DUP2 ADD SWAP1 POP PUSH3 0x599 JUMP JUMPDEST DUP7 DUP4 LT ISZERO PUSH3 0x5E0 JUMPI DUP5 DUP10 ADD MLOAD PUSH3 0x5DC PUSH1 0x1F DUP10 AND DUP3 PUSH3 0x4D0 JUMP JUMPDEST DUP4 SSTORE POP JUMPDEST PUSH1 0x1 PUSH1 0x2 DUP9 MUL ADD DUP9 SSTORE POP POP POP JUMPDEST POP POP POP POP POP POP JUMP JUMPDEST PUSH2 0xC38 DUP1 PUSH3 0x605 PUSH1 0x0 CODECOPY PUSH1 0x0 RETURN INVALID PUSH1 0x80 PUSH1 0x40 MSTORE CALLVALUE DUP1 ISZERO PUSH2 0x10 JUMPI PUSH1 0x0 DUP1 REVERT JUMPDEST POP PUSH1 0x4 CALLDATASIZE LT PUSH2 0x93 JUMPI PUSH1 0x0 CALLDATALOAD PUSH1 0xE0 SHR DUP1 PUSH4 0x67E69C3E GT PUSH2 0x66 JUMPI DUP1 PUSH4 0x67E69C3E EQ PUSH2 0x10E JUMPI DUP1 PUSH4 0x771602F7 EQ PUSH2 0x12C JUMPI DUP1 PUSH4 0x8DA5CB5B EQ PUSH2 0x15C JUMPI DUP1 PUSH4 0xDB0E127A EQ PUSH2 0x17A JUMPI DUP1 PUSH4 0xF9633930 EQ PUSH2 0x198 JUMPI PUSH2 0x93 JUMP JUMPDEST DUP1 PUSH4 0xF487546 EQ PUSH2 0x98 JUMPI DUP1 PUSH4 0x11AF6564 EQ PUSH2 0xB6 JUMPI DUP1 PUSH4 0x3EF5E445 EQ PUSH2 0xC0 JUMPI DUP1 PUSH4 0x5DB3786E EQ PUSH2 0xF0 JUMPI JUMPDEST PUSH1 0x0 DUP1 REVERT JUMPDEST PUSH2 0xA0 PUSH2 0x1B6 JUMP JUMPDEST PUSH1 0x40 MLOAD PUSH2 0xAD SWAP2 SWAP1 PUSH2 0x64B JUMP JUMPDEST PUSH1 0x40 MLOAD DUP1 SWAP2 SUB SWAP1 RETURN JUMPDEST PUSH2 0xBE PUSH2 0x1BC JUMP JUMPDEST STOP JUMPDEST PUSH2 0xDA PUSH1 0x4 DUP1 CALLDATASIZE SUB DUP2 ADD SWAP1 PUSH2 0xD5 SWAP2 SWAP1 PUSH2 0x697 JUMP JUMPDEST PUSH2 0x1E0 JUMP JUMPDEST PUSH1 0x40 MLOAD PUSH2 0xE7 SWAP2 SWAP1 PUSH2 0x64B JUMP JUMPDEST PUSH1 0x40 MLOAD DUP1 SWAP2 SUB SWAP1 RETURN JUMPDEST PUSH2 0xF8 PUSH2 0x385 JUMP JUMPDEST PUSH1 0x40 MLOAD PUSH2 0x105 SWAP2 SWAP1 PUSH2 0x64B JUMP JUMPDEST PUSH1 0x40 MLOAD DUP1 SWAP2 SUB SWAP1 RETURN JUMPDEST PUSH2 0x116 PUSH2 0x38B JUMP JUMPDEST PUSH1 0x40 MLOAD PUSH2 0x123 SWAP2 SWAP1 PUSH2 0x64B JUMP JUMPDEST PUSH1 0x40 MLOAD DUP1 SWAP2 SUB SWAP1 RETURN JUMPDEST PUSH2 0x146 PUSH1 0x4 DUP1 CALLDATASIZE SUB DUP2 ADD SWAP1 PUSH2 0x141 SWAP2 SWAP1 PUSH2 0x697 JUMP JUMPDEST PUSH2 0x391 JUMP JUMPDEST PUSH1 0x40 MLOAD PUSH2 0x153 SWAP2 SWAP1 PUSH2 0x64B JUMP JUMPDEST PUSH1 0x40 MLOAD DUP1 SWAP2 SUB SWAP1 RETURN JUMPDEST PUSH2 0x164 PUSH2 0x4D7 JUMP JUMPDEST PUSH1 0x40 MLOAD PUSH2 0x171 SWAP2 SWAP1 PUSH2 0x718 JUMP JUMPDEST PUSH1 0x40 MLOAD DUP1 SWAP2 SUB SWAP1 RETURN JUMPDEST PUSH2 0x182 PUSH2 0x4FD JUMP JUMPDEST PUSH1 0x40 MLOAD PUSH2 0x18F SWAP2 SWAP1 PUSH2 0x74E JUMP JUMPDEST PUSH1 0x40 MLOAD DUP1 SWAP2 SUB SWAP1 RETURN JUMPDEST PUSH2 0x1A0 PUSH2 0x510 JUMP JUMPDEST PUSH1 0x40 MLOAD PUSH2 0x1AD SWAP2 SWAP1 PUSH2 0x7F9 JUMP JUMPDEST PUSH1 0x40 MLOAD DUP1 SWAP2 SUB SWAP1 RETURN JUMPDEST PUSH1 0x4 SLOAD DUP2 JUMP JUMPDEST PUSH1 0x1 PUSH1 0x5 PUSH1 0x0 PUSH2 0x100 EXP DUP2 SLOAD DUP2 PUSH1 0xFF MUL NOT AND SWAP1 DUP4 ISZERO ISZERO MUL OR SWAP1 SSTORE POP GASPRICE PUSH1 0x4 DUP2 SWAP1 SSTORE POP JUMP JUMPDEST PUSH1 0x0 PUSH3 0x1E8480 GAS LT PUSH2 0x227 JUMPI PUSH1 0x40 MLOAD PUSH32 0x8C379A000000000000000000000000000000000000000000000000000000000 DUP2 MSTORE PUSH1 0x4 ADD PUSH2 0x21E SWAP1 PUSH2 0x867 JUMP JUMPDEST PUSH1 0x40 MLOAD DUP1 SWAP2 SUB SWAP1 REVERT JUMPDEST PUSH1 0x1 ISZERO ISZERO PUSH1 0x5 PUSH1 0x0 SWAP1 SLOAD SWAP1 PUSH2 0x100 EXP SWAP1 DIV PUSH1 0xFF AND ISZERO ISZERO EQ PUSH2 0x27D JUMPI PUSH1 0x40 MLOAD PUSH32 0x8C379A000000000000000000000000000000000000000000000000000000000 DUP2 MSTORE PUSH1 0x4 ADD PUSH2 0x274 SWAP1 PUSH2 0x8D3 JUMP JUMPDEST PUSH1 0x40 MLOAD DUP1 SWAP2 SUB SWAP1 REVERT JUMPDEST GAS PUSH1 0x2 DUP2 SWAP1 SSTORE POP PUSH1 0x0 DUP3 DUP5 PUSH2 0x292 SWAP2 SWAP1 PUSH2 0x922 JUMP JUMPDEST SWAP1 POP GAS PUSH1 0x3 DUP2 SWAP1 SSTORE POP PUSH1 0x64 DUP2 EQ PUSH2 0x2DE JUMPI PUSH1 0x40 MLOAD PUSH32 0x8C379A000000000000000000000000000000000000000000000000000000000 DUP2 MSTORE PUSH1 0x4 ADD PUSH2 0x2D5 SWAP1 PUSH2 0x9A2 JUMP JUMPDEST PUSH1 0x40 MLOAD DUP1 SWAP2 SUB SWAP1 REVERT JUMPDEST PUSH1 0x3 SLOAD PUSH1 0x2 SLOAD PUSH2 0x2EE SWAP2 SWAP1 PUSH2 0x922 JUMP JUMPDEST PUSH1 0x1 DUP2 SWAP1 SSTORE POP PUSH3 0x1E847E GAS LT ISZERO PUSH2 0x33A JUMPI PUSH1 0x40 MLOAD PUSH32 0x8C379A000000000000000000000000000000000000000000000000000000000 DUP2 MSTORE PUSH1 0x4 ADD PUSH2 0x331 SWAP1 PUSH2 0xA0E JUMP JUMPDEST PUSH1 0x40 MLOAD DUP1 SWAP2 SUB SWAP1 REVERT JUMPDEST CALLER PUSH1 0x5 PUSH1 0x1 PUSH2 0x100 EXP DUP2 SLOAD DUP2 PUSH20 0xFFFFFFFFFFFFFFFFFFFFFFFFFFFFFFFFFFFFFFFF MUL NOT AND SWAP1 DUP4 PUSH20 0xFFFFFFFFFFFFFFFFFFFFFFFFFFFFFFFFFFFFFFFF AND MUL OR SWAP1 SSTORE POP DUP1 SWAP2 POP POP SWAP3 SWAP2 POP POP JUMP JUMPDEST PUSH1 0x3 SLOAD DUP2 JUMP JUMPDEST PUSH1 0x2 SLOAD DUP2 JUMP JUMPDEST PUSH1 0x0 PUSH1 0x4 SLOAD PUSH1 0x2 PUSH2 0x3A2 SWAP2 SWAP1 PUSH2 0xA2E JUMP JUMPDEST GASPRICE GT PUSH2 0x3E3 JUMPI PUSH1 0x40 MLOAD PUSH32 0x8C379A000000000000000000000000000000000000000000000000000000000 DUP2 MSTORE PUSH1 0x4 ADD PUSH2 0x3DA SWAP1 PUSH2 0xAE2 JUMP JUMPDEST PUSH1 0x40 MLOAD DUP1 SWAP2 SUB SWAP1 REVERT JUMPDEST PUSH1 0x1 ISZERO ISZERO PUSH1 0x5 PUSH1 0x0 SWAP1 SLOAD SWAP1 PUSH2 0x100 EXP SWAP1 DIV PUSH1 0xFF AND ISZERO ISZERO EQ PUSH2 0x439 JUMPI PUSH1 0x40 MLOAD PUSH32 0x8C379A000000000000000000000000000000000000000000000000000000000 DUP2 MSTORE PUSH1 0x4 ADD PUSH2 0x430 SWAP1 PUSH2 0x8D3 JUMP JUMPDEST PUSH1 0x40 MLOAD DUP1 SWAP2 SUB SWAP1 REVERT JUMPDEST PUSH1 0x0 DUP3 DUP5 PUSH2 0x447 SWAP2 SWAP1 PUSH2 0xB02 JUMP JUMPDEST SWAP1 POP PUSH1 0x64 DUP2 EQ PUSH2 0x48C JUMPI PUSH1 0x40 MLOAD PUSH32 0x8C379A000000000000000000000000000000000000000000000000000000000 DUP2 MSTORE PUSH1 0x4 ADD PUSH2 0x483 SWAP1 PUSH2 0x9A2 JUMP JUMPDEST PUSH1 0x40 MLOAD DUP1 SWAP2 SUB SWAP1 REVERT JUMPDEST CALLER PUSH1 0x5 PUSH1 0x1 PUSH2 0x100 EXP DUP2 SLOAD DUP2 PUSH20 0xFFFFFFFFFFFFFFFFFFFFFFFFFFFFFFFFFFFFFFFF MUL NOT AND SWAP1 DUP4 PUSH20 0xFFFFFFFFFFFFFFFFFFFFFFFFFFFFFFFFFFFFFFFF AND MUL OR SWAP1 SSTORE POP DUP1 SWAP2 POP POP SWAP3 SWAP2 POP POP JUMP JUMPDEST PUSH1 0x5 PUSH1 0x1 SWAP1 SLOAD SWAP1 PUSH2 0x100 EXP SWAP1 DIV PUSH20 0xFFFFFFFFFFFFFFFFFFFFFFFFFFFFFFFFFFFFFFFF AND DUP2 JUMP JUMPDEST PUSH1 0x5 PUSH1 0x0 SWAP1 SLOAD SWAP1 PUSH2 0x100 EXP SWAP1 DIV PUSH1 0xFF AND DUP2 JUMP JUMPDEST PUSH1 0x60 PUSH1 0x5 PUSH1 0x1 SWAP1 SLOAD SWAP1 PUSH2 0x100 EXP SWAP1 DIV PUSH20 0xFFFFFFFFFFFFFFFFFFFFFFFFFFFFFFFFFFFFFFFF AND PUSH20 0xFFFFFFFFFFFFFFFFFFFFFFFFFFFFFFFFFFFFFFFF AND CALLER PUSH20 0xFFFFFFFFFFFFFFFFFFFFFFFFFFFFFFFFFFFFFFFF AND EQ PUSH2 0x5A2 JUMPI PUSH1 0x40 MLOAD PUSH32 0x8C379A000000000000000000000000000000000000000000000000000000000 DUP2 MSTORE PUSH1 0x4 ADD PUSH2 0x599 SWAP1 PUSH2 0xB82 JUMP JUMPDEST PUSH1 0x40 MLOAD DUP1 SWAP2 SUB SWAP1 REVERT JUMPDEST PUSH1 0x0 DUP1 SLOAD PUSH2 0x5AF SWAP1 PUSH2 0xBD1 JUMP JUMPDEST DUP1 PUSH1 0x1F ADD PUSH1 0x20 DUP1 SWAP2 DIV MUL PUSH1 0x20 ADD PUSH1 0x40 MLOAD SWAP1 DUP2 ADD PUSH1 0x40 MSTORE DUP1 SWAP3 SWAP2 SWAP1 DUP2 DUP2 MSTORE PUSH1 0x20 ADD DUP3 DUP1 SLOAD PUSH2 0x5DB SWAP1 PUSH2 0xBD1 JUMP JUMPDEST DUP1 ISZERO PUSH2 0x628 JUMPI DUP1 PUSH1 0x1F LT PUSH2 0x5FD JUMPI PUSH2 0x100 DUP1 DUP4 SLOAD DIV MUL DUP4 MSTORE SWAP2 PUSH1 0x20 ADD SWAP2 PUSH2 0x628 JUMP JUMPDEST DUP3 ADD SWAP2 SWAP1 PUSH1 0x0 MSTORE PUSH1 0x20 PUSH1 0x0 KECCAK256 SWAP1 JUMPDEST DUP2 SLOAD DUP2 MSTORE SWAP1 PUSH1 0x1 ADD SWAP1 PUSH1 0x20 ADD DUP1 DUP4 GT PUSH2 0x60B JUMPI DUP3 SWAP1 SUB PUSH1 0x1F AND DUP3 ADD SWAP2 JUMPDEST POP POP POP POP POP SWAP1 POP SWAP1 JUMP JUMPDEST PUSH1 0x0 DUP2 SWAP1 POP SWAP2 SWAP1 POP JUMP JUMPDEST PUSH2 0x645 DUP2 PUSH2 0x632 JUMP JUMPDEST DUP3 MSTORE POP POP JUMP JUMPDEST PUSH1 0x0 PUSH1 0x20 DUP3 ADD SWAP1 POP PUSH2 0x660 PUSH1 0x0 DUP4 ADD DUP5 PUSH2 0x63C JUMP JUMPDEST SWAP3 SWAP2 POP POP JUMP JUMPDEST PUSH1 0x0 DUP1 REVERT JUMPDEST PUSH2 0x674 DUP2 PUSH2 0x632 JUMP JUMPDEST DUP2 EQ PUSH2 0x67F JUMPI PUSH1 0x0 DUP1 REVERT JUMPDEST POP JUMP JUMPDEST PUSH1 0x0 DUP2 CALLDATALOAD SWAP1 POP PUSH2 0x691 DUP2 PUSH2 0x66B JUMP JUMPDEST SWAP3 SWAP2 POP POP JUMP JUMPDEST PUSH1 0x0 DUP1 PUSH1 0x40 DUP4 DUP6 SUB SLT ISZERO PUSH2 0x6AE JUMPI PUSH2 0x6AD PUSH2 0x666 JUMP JUMPDEST JUMPDEST PUSH1 0x0 PUSH2 0x6BC DUP6 DUP3 DUP7 ADD PUSH2 0x682 JUMP JUMPDEST SWAP3 POP POP PUSH1 0x20 PUSH2 0x6CD DUP6 DUP3 DUP7 ADD PUSH2 0x682 JUMP JUMPDEST SWAP2 POP POP SWAP3 POP SWAP3 SWAP1 POP JUMP JUMPDEST PUSH1 0x0 PUSH20 0xFFFFFFFFFFFFFFFFFFFFFFFFFFFFFFFFFFFFFFFF DUP3 AND SWAP1 POP SWAP2 SWAP1 POP JUMP JUMPDEST PUSH1 0x0 PUSH2 0x702 DUP3 PUSH2 0x6D7 JUMP JUMPDEST SWAP1 POP SWAP2 SWAP1 POP JUMP JUMPDEST PUSH2 0x712 DUP2 PUSH2 0x6F7 JUMP JUMPDEST DUP3 MSTORE POP POP JUMP JUMPDEST PUSH1 0x0 PUSH1 0x20 DUP3 ADD SWAP1 POP PUSH2 0x72D PUSH1 0x0 DUP4 ADD DUP5 PUSH2 0x709 JUMP JUMPDEST SWAP3 SWAP2 POP POP JUMP JUMPDEST PUSH1 0x0 DUP2 ISZERO ISZERO SWAP1 POP SWAP2 SWAP1 POP JUMP JUMPDEST PUSH2 0x748 DUP2 PUSH2 0x733 JUMP JUMPDEST DUP3 MSTORE POP POP JUMP JUMPDEST PUSH1 0x0 PUSH1 0x20 DUP3 ADD SWAP1 POP PUSH2 0x763 PUSH1 0x0 DUP4 ADD DUP5 PUSH2 0x73F JUMP JUMPDEST SWAP3 SWAP2 POP POP JUMP JUMPDEST PUSH1 0x0 DUP2 MLOAD SWAP1 POP SWAP2 SWAP1 POP JUMP JUMPDEST PUSH1 0x0 DUP3 DUP3 MSTORE PUSH1 0x20 DUP3 ADD SWAP1 POP SWAP3 SWAP2 POP POP JUMP JUMPDEST PUSH1 0x0 JUMPDEST DUP4 DUP2 LT ISZERO PUSH2 0x7A3 JUMPI DUP1 DUP3 ADD MLOAD DUP2 DUP5 ADD MSTORE PUSH1 0x20 DUP2 ADD SWAP1 POP PUSH2 0x788 JUMP JUMPDEST PUSH1 0x0 DUP5 DUP5 ADD MSTORE POP POP POP POP JUMP JUMPDEST PUSH1 0x0 PUSH1 0x1F NOT PUSH1 0x1F DUP4 ADD AND SWAP1 POP SWAP2 SWAP1 POP JUMP JUMPDEST PUSH1 0x0 PUSH2 0x7CB DUP3 PUSH2 0x769 JUMP JUMPDEST PUSH2 0x7D5 DUP2 DUP6 PUSH2 0x774 JUMP JUMPDEST SWAP4 POP PUSH2 0x7E5 DUP2 DUP6 PUSH1 0x20 DUP7 ADD PUSH2 0x785 JUMP JUMPDEST PUSH2 0x7EE DUP2 PUSH2 0x7AF JUMP JUMPDEST DUP5 ADD SWAP2 POP POP SWAP3 SWAP2 POP POP JUMP JUMPDEST PUSH1 0x0 PUSH1 0x20 DUP3 ADD SWAP1 POP DUP2 DUP2 SUB PUSH1 0x0 DUP4 ADD MSTORE PUSH2 0x813 DUP2 DUP5 PUSH2 0x7C0 JUMP JUMPDEST SWAP1 POP SWAP3 SWAP2 POP POP JUMP JUMPDEST PUSH32 0x546F206D616E79206761732070726F7669646564000000000000000000000000 PUSH1 0x0 DUP3 ADD MSTORE POP JUMP JUMPDEST PUSH1 0x0 PUSH2 0x851 PUSH1 0x14 DUP4 PUSH2 0x774 JUMP JUMPDEST SWAP2 POP PUSH2 0x85C DUP3 PUSH2 0x81B JUMP JUMPDEST PUSH1 0x20 DUP3 ADD SWAP1 POP SWAP2 SWAP1 POP JUMP JUMPDEST PUSH1 0x0 PUSH1 0x20 DUP3 ADD SWAP1 POP DUP2 DUP2 SUB PUSH1 0x0 DUP4 ADD MSTORE PUSH2 0x880 DUP2 PUSH2 0x844 JUMP JUMPDEST SWAP1 POP SWAP2 SWAP1 POP JUMP JUMPDEST PUSH32 0x54686520646F6F72206D757374206265206F7070656E65640000000000000000 PUSH1 0x0 DUP3 ADD MSTORE POP JUMP JUMPDEST PUSH1 0x0 PUSH2 0x8BD PUSH1 0x18 DUP4 PUSH2 0x774 JUMP JUMPDEST SWAP2 POP PUSH2 0x8C8 DUP3 PUSH2 0x887 JUMP JUMPDEST PUSH1 0x20 DUP3 ADD SWAP1 POP SWAP2 SWAP1 POP JUMP JUMPDEST PUSH1 0x0 PUSH1 0x20 DUP3 ADD SWAP1 POP DUP2 DUP2 SUB PUSH1 0x0 DUP4 ADD MSTORE PUSH2 0x8EC DUP2 PUSH2 0x8B0 JUMP JUMPDEST SWAP1 POP SWAP2 SWAP1 POP JUMP JUMPDEST PUSH32 0x4E487B7100000000000000000000000000000000000000000000000000000000 PUSH1 0x0 MSTORE PUSH1 0x11 PUSH1 0x4 MSTORE PUSH1 0x24 PUSH1 0x0 REVERT JUMPDEST PUSH1 0x0 PUSH2 0x92D DUP3 PUSH2 0x632 JUMP JUMPDEST SWAP2 POP PUSH2 0x938 DUP4 PUSH2 0x632 JUMP JUMPDEST SWAP3 POP DUP3 DUP3 SUB SWAP1 POP DUP2 DUP2 GT ISZERO PUSH2 0x950 JUMPI PUSH2 0x94F PUSH2 0x8F3 JUMP JUMPDEST JUMPDEST SWAP3 SWAP2 POP POP JUMP JUMPDEST PUSH32 0x496D70726F766520796F7572206D617468732100000000000000000000000000 PUSH1 0x0 DUP3 ADD MSTORE POP JUMP JUMPDEST PUSH1 0x0 PUSH2 0x98C PUSH1 0x13 DUP4 PUSH2 0x774 JUMP JUMPDEST SWAP2 POP PUSH2 0x997 DUP3 PUSH2 0x956 JUMP JUMPDEST PUSH1 0x20 DUP3 ADD SWAP1 POP SWAP2 SWAP1 POP JUMP JUMPDEST PUSH1 0x0 PUSH1 0x20 DUP3 ADD SWAP1 POP DUP2 DUP2 SUB PUSH1 0x0 DUP4 ADD MSTORE PUSH2 0x9BB DUP2 PUSH2 0x97F JUMP JUMPDEST SWAP1 POP SWAP2 SWAP1 POP JUMP JUMPDEST PUSH32 0x4E6F742067617320656E6F756768740000000000000000000000000000000000 PUSH1 0x0 DUP3 ADD MSTORE POP JUMP JUMPDEST PUSH1 0x0 PUSH2 0x9F8 PUSH1 0xF DUP4 PUSH2 0x774 JUMP JUMPDEST SWAP2 POP PUSH2 0xA03 DUP3 PUSH2 0x9C2 JUMP JUMPDEST PUSH1 0x20 DUP3 ADD SWAP1 POP SWAP2 SWAP1 POP JUMP JUMPDEST PUSH1 0x0 PUSH1 0x20 DUP3 ADD SWAP1 POP DUP2 DUP2 SUB PUSH1 0x0 DUP4 ADD MSTORE PUSH2 0xA27 DUP2 PUSH2 0x9EB JUMP JUMPDEST SWAP1 POP SWAP2 SWAP1 POP JUMP JUMPDEST PUSH1 0x0 PUSH2 0xA39 DUP3 PUSH2 0x632 JUMP JUMPDEST SWAP2 POP PUSH2 0xA44 DUP4 PUSH2 0x632 JUMP JUMPDEST SWAP3 POP DUP3 DUP3 MUL PUSH2 0xA52 DUP2 PUSH2 0x632 JUMP JUMPDEST SWAP2 POP DUP3 DUP3 DIV DUP5 EQ DUP4 ISZERO OR PUSH2 0xA69 JUMPI PUSH2 0xA68 PUSH2 0x8F3 JUMP JUMPDEST JUMPDEST POP SWAP3 SWAP2 POP POP JUMP JUMPDEST PUSH32 0x506179206D6F726520746F2067657420796F757220747820646F6E6520666173 PUSH1 0x0 DUP3 ADD MSTORE PUSH32 0x7465722100000000000000000000000000000000000000000000000000000000 PUSH1 0x20 DUP3 ADD MSTORE POP JUMP JUMPDEST PUSH1 0x0 PUSH2 0xACC PUSH1 0x24 DUP4 PUSH2 0x774 JUMP JUMPDEST SWAP2 POP PUSH2 0xAD7 DUP3 PUSH2 0xA70 JUMP JUMPDEST PUSH1 0x40 DUP3 ADD SWAP1 POP SWAP2 SWAP1 POP JUMP JUMPDEST PUSH1 0x0 PUSH1 0x20 DUP3 ADD SWAP1 POP DUP2 DUP2 SUB PUSH1 0x0 DUP4 ADD MSTORE PUSH2 0xAFB DUP2 PUSH2 0xABF JUMP JUMPDEST SWAP1 POP SWAP2 SWAP1 POP JUMP JUMPDEST PUSH1 0x0 PUSH2 0xB0D DUP3 PUSH2 0x632 JUMP JUMPDEST SWAP2 POP PUSH2 0xB18 DUP4 PUSH2 0x632 JUMP JUMPDEST SWAP3 POP DUP3 DUP3 ADD SWAP1 POP DUP1 DUP3 GT ISZERO PUSH2 0xB30 JUMPI PUSH2 0xB2F PUSH2 0x8F3 JUMP JUMPDEST JUMPDEST SWAP3 SWAP2 POP POP JUMP JUMPDEST PUSH32 0x596F7520617265206E6F7420746865206F776E65720000000000000000000000 PUSH1 0x0 DUP3 ADD MSTORE POP JUMP JUMPDEST PUSH1 0x0 PUSH2 0xB6C PUSH1 0x15 DUP4 PUSH2 0x774 JUMP JUMPDEST SWAP2 POP PUSH2 0xB77 DUP3 PUSH2 0xB36 JUMP JUMPDEST PUSH1 0x20 DUP3 ADD SWAP1 POP SWAP2 SWAP1 POP JUMP JUMPDEST PUSH1 0x0 PUSH1 0x20 DUP3 ADD SWAP1 POP DUP2 DUP2 SUB PUSH1 0x0 DUP4 ADD MSTORE PUSH2 0xB9B DUP2 PUSH2 0xB5F JUMP JUMPDEST SWAP1 POP SWAP2 SWAP1 POP JUMP JUMPDEST PUSH32 0x4E487B7100000000000000000000000000000000000000000000000000000000 PUSH1 0x0 MSTORE PUSH1 0x22 PUSH1 0x4 MSTORE PUSH1 0x24 PUSH1 0x0 REVERT JUMPDEST PUSH1 0x0 PUSH1 0x2 DUP3 DIV SWAP1 POP PUSH1 0x1 DUP3 AND DUP1 PUSH2 0xBE9 JUMPI PUSH1 0x7F DUP3 AND SWAP2 POP JUMPDEST PUSH1 0x20 DUP3 LT DUP2 SUB PUSH2 0xBFC JUMPI PUSH2 0xBFB PUSH2 0xBA2 JUMP JUMPDEST JUMPDEST POP SWAP2 SWAP1 POP JUMP INVALID LOG2 PUSH5 0x6970667358 0x22 SLT KECCAK256 NOT 0x4F SWAP13 PUSH1 0x33 0xA5 0xC1 0xC0 PUSH26 0x89F4F93100C814FF3D1BBB0785B756A6682F61DFA32D6E64736F PUSH13 0x63430008120033000000000000 "
				},
				"gasEstimates": {
					"creation": {
						"codeDepositCost": "625600",
						"executionCost": "infinite",
						"totalCost": "infinite"
					},
					"external": {
						"add(uint256,uint256)": "infinite",
						"finalGas()": "2496",
						"gaspricetx()": "2430",
						"getCurrentGasPrice()": "46547",
						"getFlag()": "infinite",
						"initialGas()": "2429",
						"openDoor()": "2537",
						"owner()": "2608",
						"subtract(uint256,uint256)": "infinite"
					}
				},
				"methodIdentifiers": {
					"add(uint256,uint256)": "771602f7",
					"finalGas()": "5db3786e",
					"gaspricetx()": "0f487546",
					"getCurrentGasPrice()": "11af6564",
					"getFlag()": "f9633930",
					"initialGas()": "67e69c3e",
					"openDoor()": "db0e127a",
					"owner()": "8da5cb5b",
					"subtract(uint256,uint256)": "3ef5e445"
				}
			},
			"storageLayout": {
				"storage": [
					{
						"astId": 3,
						"contract": "levelup/gasDifficult.sol:GasGuessingChallenge",
						"label": "flag",
						"offset": 0,
						"slot": "0",
						"type": "t_string_storage"
					},
					{
						"astId": 5,
						"contract": "levelup/gasDifficult.sol:GasGuessingChallenge",
						"label": "gasUsed",
						"offset": 0,
						"slot": "1",
						"type": "t_uint256"
					},
					{
						"astId": 7,
						"contract": "levelup/gasDifficult.sol:GasGuessingChallenge",
						"label": "initialGas",
						"offset": 0,
						"slot": "2",
						"type": "t_uint256"
					},
					{
						"astId": 9,
						"contract": "levelup/gasDifficult.sol:GasGuessingChallenge",
						"label": "finalGas",
						"offset": 0,
						"slot": "3",
						"type": "t_uint256"
					},
					{
						"astId": 11,
						"contract": "levelup/gasDifficult.sol:GasGuessingChallenge",
						"label": "gaspricetx",
						"offset": 0,
						"slot": "4",
						"type": "t_uint256"
					},
					{
						"astId": 13,
						"contract": "levelup/gasDifficult.sol:GasGuessingChallenge",
						"label": "openDoor",
						"offset": 0,
						"slot": "5",
						"type": "t_bool"
					},
					{
						"astId": 15,
						"contract": "levelup/gasDifficult.sol:GasGuessingChallenge",
						"label": "owner",
						"offset": 1,
						"slot": "5",
						"type": "t_address"
					}
				],
				"types": {
					"t_address": {
						"encoding": "inplace",
						"label": "address",
						"numberOfBytes": "20"
					},
					"t_bool": {
						"encoding": "inplace",
						"label": "bool",
						"numberOfBytes": "1"
					},
					"t_string_storage": {
						"encoding": "bytes",
						"label": "string",
						"numberOfBytes": "32"
					},
					"t_uint256": {
						"encoding": "inplace",
						"label": "uint256",
						"numberOfBytes": "32"
					}
				}
			},
			"userdoc": {
				"kind": "user",
				"methods": {},
				"version": 1
			}
		}
	}
}