{
	"levelup/getSelectors.sol": {
		"FunctionSelectors": {
			"abi": [
				{
					"inputs": [
						{
							"internalType": "string",
							"name": "_funcSignature",
							"type": "string"
						},
						{
							"internalType": "uint256",
							"name": "_params",
							"type": "uint256"
						}
					],
					"name": "executeFunction",
					"outputs": [
						{
							"internalType": "bytes",
							"name": "",
							"type": "bytes"
						}
					],
					"stateMutability": "pure",
					"type": "function"
				},
				{
					"inputs": [
						{
							"internalType": "string",
							"name": "_func",
							"type": "string"
						}
					],
					"name": "getSelector",
					"outputs": [
						{
							"internalType": "bytes4",
							"name": "",
							"type": "bytes4"
						}
					],
					"stateMutability": "pure",
					"type": "function"
				}
			],
			"devdoc": {
				"kind": "dev",
				"methods": {},
				"version": 1
			},
			"evm": {
				"assembly": "    /* \"levelup/getSelectors.sol\":60:469  contract FunctionSelectors {... */\n  mstore(0x40, 0x80)\n  callvalue\n  dup1\n  iszero\n  tag_1\n  jumpi\n  0x00\n  dup1\n  revert\ntag_1:\n  pop\n  dataSize(sub_0)\n  dup1\n  dataOffset(sub_0)\n  0x00\n  codecopy\n  0x00\n  return\nstop\n\nsub_0: assembly {\n        /* \"levelup/getSelectors.sol\":60:469  contract FunctionSelectors {... */\n      mstore(0x40, 0x80)\n      callvalue\n      dup1\n      iszero\n      tag_1\n      jumpi\n      0x00\n      dup1\n      revert\n    tag_1:\n      pop\n      jumpi(tag_2, lt(calldatasize, 0x04))\n      shr(0xe0, calldataload(0x00))\n      dup1\n      0x0ffbbadb\n      eq\n      tag_3\n      jumpi\n      dup1\n      0x80a003ff\n      eq\n      tag_4\n      jumpi\n    tag_2:\n      0x00\n      dup1\n      revert\n        /* \"levelup/getSelectors.sol\":232:462  function executeFunction(string memory _funcSignature, uint256 _params) public pure returns (bytes memory) {... */\n    tag_3:\n      tag_5\n      0x04\n      dup1\n      calldatasize\n      sub\n      dup2\n      add\n      swap1\n      tag_6\n      swap2\n      swap1\n      tag_7\n      jump\t// in\n    tag_6:\n      tag_8\n      jump\t// in\n    tag_5:\n      mload(0x40)\n      tag_9\n      swap2\n      swap1\n      tag_10\n      jump\t// in\n    tag_9:\n      mload(0x40)\n      dup1\n      swap2\n      sub\n      swap1\n      return\n        /* \"levelup/getSelectors.sol\":96:224  function getSelector(string memory _func) public pure returns (bytes4) {... */\n    tag_4:\n      tag_11\n      0x04\n      dup1\n      calldatasize\n      sub\n      dup2\n      add\n      swap1\n      tag_12\n      swap2\n      swap1\n      tag_13\n      jump\t// in\n    tag_12:\n      tag_14\n      jump\t// in\n    tag_11:\n      mload(0x40)\n      tag_15\n      swap2\n      swap1\n      tag_16\n      jump\t// in\n    tag_15:\n      mload(0x40)\n      dup1\n      swap2\n      sub\n      swap1\n      return\n        /* \"levelup/getSelectors.sol\":232:462  function executeFunction(string memory _funcSignature, uint256 _params) public pure returns (bytes memory) {... */\n    tag_8:\n        /* \"levelup/getSelectors.sol\":325:337  bytes memory */\n      0x60\n        /* \"levelup/getSelectors.sol\":350:365  bytes4 selector */\n      0x00\n        /* \"levelup/getSelectors.sol\":368:395  getSelector(_funcSignature) */\n      tag_18\n        /* \"levelup/getSelectors.sol\":380:394  _funcSignature */\n      dup5\n        /* \"levelup/getSelectors.sol\":368:379  getSelector */\n      tag_14\n        /* \"levelup/getSelectors.sol\":368:395  getSelector(_funcSignature) */\n      jump\t// in\n    tag_18:\n        /* \"levelup/getSelectors.sol\":350:395  bytes4 selector = getSelector(_funcSignature) */\n      swap1\n      pop\n        /* \"levelup/getSelectors.sol\":436:444  selector */\n      dup1\n        /* \"levelup/getSelectors.sol\":446:453  _params */\n      dup4\n        /* \"levelup/getSelectors.sol\":413:454  abi.encodeWithSelector(selector, _params) */\n      add(0x24, mload(0x40))\n      tag_19\n      swap2\n      swap1\n      tag_20\n      jump\t// in\n    tag_19:\n      mload(0x40)\n      0x20\n      dup2\n      dup4\n      sub\n      sub\n      dup2\n      mstore\n      swap1\n      0x40\n      mstore\n      swap1\n      not(0xffffffffffffffffffffffffffffffffffffffffffffffffffffffff)\n      and\n      0x20\n      dup3\n      add\n      dup1\n      mload\n      0xffffffffffffffffffffffffffffffffffffffffffffffffffffffff\n      dup4\n      dup2\n      dup4\n      and\n      or\n      dup4\n      mstore\n      pop\n      pop\n      pop\n      pop\n        /* \"levelup/getSelectors.sol\":406:454  return abi.encodeWithSelector(selector, _params) */\n      swap2\n      pop\n      pop\n        /* \"levelup/getSelectors.sol\":232:462  function executeFunction(string memory _funcSignature, uint256 _params) public pure returns (bytes memory) {... */\n      swap3\n      swap2\n      pop\n      pop\n      jump\t// out\n        /* \"levelup/getSelectors.sol\":96:224  function getSelector(string memory _func) public pure returns (bytes4) {... */\n    tag_14:\n        /* \"levelup/getSelectors.sol\":159:165  bytes4 */\n      0x00\n        /* \"levelup/getSelectors.sol\":208:213  _func */\n      dup2\n        /* \"levelup/getSelectors.sol\":192:215  keccak256(bytes(_func)) */\n      dup1\n      mload\n      swap1\n      0x20\n      add\n      keccak256\n        /* \"levelup/getSelectors.sol\":178:216  return bytes4(keccak256(bytes(_func))) */\n      swap1\n      pop\n        /* \"levelup/getSelectors.sol\":96:224  function getSelector(string memory _func) public pure returns (bytes4) {... */\n      swap2\n      swap1\n      pop\n      jump\t// out\n        /* \"#utility.yul\":7:82   */\n    tag_22:\n        /* \"#utility.yul\":40:46   */\n      0x00\n        /* \"#utility.yul\":73:75   */\n      0x40\n        /* \"#utility.yul\":67:76   */\n      mload\n        /* \"#utility.yul\":57:76   */\n      swap1\n      pop\n        /* \"#utility.yul\":7:82   */\n      swap1\n      jump\t// out\n        /* \"#utility.yul\":88:205   */\n    tag_23:\n        /* \"#utility.yul\":197:198   */\n      0x00\n        /* \"#utility.yul\":194:195   */\n      dup1\n        /* \"#utility.yul\":187:199   */\n      revert\n        /* \"#utility.yul\":211:328   */\n    tag_24:\n        /* \"#utility.yul\":320:321   */\n      0x00\n        /* \"#utility.yul\":317:318   */\n      dup1\n        /* \"#utility.yul\":310:322   */\n      revert\n        /* \"#utility.yul\":334:451   */\n    tag_25:\n        /* \"#utility.yul\":443:444   */\n      0x00\n        /* \"#utility.yul\":440:441   */\n      dup1\n        /* \"#utility.yul\":433:445   */\n      revert\n        /* \"#utility.yul\":457:574   */\n    tag_26:\n        /* \"#utility.yul\":566:567   */\n      0x00\n        /* \"#utility.yul\":563:564   */\n      dup1\n        /* \"#utility.yul\":556:568   */\n      revert\n        /* \"#utility.yul\":580:682   */\n    tag_27:\n        /* \"#utility.yul\":621:627   */\n      0x00\n        /* \"#utility.yul\":672:674   */\n      0x1f\n        /* \"#utility.yul\":668:675   */\n      not\n        /* \"#utility.yul\":663:665   */\n      0x1f\n        /* \"#utility.yul\":656:661   */\n      dup4\n        /* \"#utility.yul\":652:666   */\n      add\n        /* \"#utility.yul\":648:676   */\n      and\n        /* \"#utility.yul\":638:676   */\n      swap1\n      pop\n        /* \"#utility.yul\":580:682   */\n      swap2\n      swap1\n      pop\n      jump\t// out\n        /* \"#utility.yul\":688:868   */\n    tag_28:\n        /* \"#utility.yul\":736:813   */\n      0x4e487b7100000000000000000000000000000000000000000000000000000000\n        /* \"#utility.yul\":733:734   */\n      0x00\n        /* \"#utility.yul\":726:814   */\n      mstore\n        /* \"#utility.yul\":833:837   */\n      0x41\n        /* \"#utility.yul\":830:831   */\n      0x04\n        /* \"#utility.yul\":823:838   */\n      mstore\n        /* \"#utility.yul\":857:861   */\n      0x24\n        /* \"#utility.yul\":854:855   */\n      0x00\n        /* \"#utility.yul\":847:862   */\n      revert\n        /* \"#utility.yul\":874:1155   */\n    tag_29:\n        /* \"#utility.yul\":957:984   */\n      tag_54\n        /* \"#utility.yul\":979:983   */\n      dup3\n        /* \"#utility.yul\":957:984   */\n      tag_27\n      jump\t// in\n    tag_54:\n        /* \"#utility.yul\":949:955   */\n      dup2\n        /* \"#utility.yul\":945:985   */\n      add\n        /* \"#utility.yul\":1087:1093   */\n      dup2\n        /* \"#utility.yul\":1075:1085   */\n      dup2\n        /* \"#utility.yul\":1072:1094   */\n      lt\n        /* \"#utility.yul\":1051:1069   */\n      0xffffffffffffffff\n        /* \"#utility.yul\":1039:1049   */\n      dup3\n        /* \"#utility.yul\":1036:1070   */\n      gt\n        /* \"#utility.yul\":1033:1095   */\n      or\n        /* \"#utility.yul\":1030:1118   */\n      iszero\n      tag_55\n      jumpi\n        /* \"#utility.yul\":1098:1116   */\n      tag_56\n      tag_28\n      jump\t// in\n    tag_56:\n        /* \"#utility.yul\":1030:1118   */\n    tag_55:\n        /* \"#utility.yul\":1138:1148   */\n      dup1\n        /* \"#utility.yul\":1134:1136   */\n      0x40\n        /* \"#utility.yul\":1127:1149   */\n      mstore\n        /* \"#utility.yul\":917:1155   */\n      pop\n        /* \"#utility.yul\":874:1155   */\n      pop\n      pop\n      jump\t// out\n        /* \"#utility.yul\":1161:1290   */\n    tag_30:\n        /* \"#utility.yul\":1195:1201   */\n      0x00\n        /* \"#utility.yul\":1222:1242   */\n      tag_58\n      tag_22\n      jump\t// in\n    tag_58:\n        /* \"#utility.yul\":1212:1242   */\n      swap1\n      pop\n        /* \"#utility.yul\":1251:1284   */\n      tag_59\n        /* \"#utility.yul\":1279:1283   */\n      dup3\n        /* \"#utility.yul\":1271:1277   */\n      dup3\n        /* \"#utility.yul\":1251:1284   */\n      tag_29\n      jump\t// in\n    tag_59:\n        /* \"#utility.yul\":1161:1290   */\n      swap2\n      swap1\n      pop\n      jump\t// out\n        /* \"#utility.yul\":1296:1604   */\n    tag_31:\n        /* \"#utility.yul\":1358:1362   */\n      0x00\n        /* \"#utility.yul\":1448:1466   */\n      0xffffffffffffffff\n        /* \"#utility.yul\":1440:1446   */\n      dup3\n        /* \"#utility.yul\":1437:1467   */\n      gt\n        /* \"#utility.yul\":1434:1490   */\n      iszero\n      tag_61\n      jumpi\n        /* \"#utility.yul\":1470:1488   */\n      tag_62\n      tag_28\n      jump\t// in\n    tag_62:\n        /* \"#utility.yul\":1434:1490   */\n    tag_61:\n        /* \"#utility.yul\":1508:1537   */\n      tag_63\n        /* \"#utility.yul\":1530:1536   */\n      dup3\n        /* \"#utility.yul\":1508:1537   */\n      tag_27\n      jump\t// in\n    tag_63:\n        /* \"#utility.yul\":1500:1537   */\n      swap1\n      pop\n        /* \"#utility.yul\":1592:1596   */\n      0x20\n        /* \"#utility.yul\":1586:1590   */\n      dup2\n        /* \"#utility.yul\":1582:1597   */\n      add\n        /* \"#utility.yul\":1574:1597   */\n      swap1\n      pop\n        /* \"#utility.yul\":1296:1604   */\n      swap2\n      swap1\n      pop\n      jump\t// out\n        /* \"#utility.yul\":1610:1756   */\n    tag_32:\n        /* \"#utility.yul\":1707:1713   */\n      dup3\n        /* \"#utility.yul\":1702:1705   */\n      dup2\n        /* \"#utility.yul\":1697:1700   */\n      dup4\n        /* \"#utility.yul\":1684:1714   */\n      calldatacopy\n        /* \"#utility.yul\":1748:1749   */\n      0x00\n        /* \"#utility.yul\":1739:1745   */\n      dup4\n        /* \"#utility.yul\":1734:1737   */\n      dup4\n        /* \"#utility.yul\":1730:1746   */\n      add\n        /* \"#utility.yul\":1723:1750   */\n      mstore\n        /* \"#utility.yul\":1610:1756   */\n      pop\n      pop\n      pop\n      jump\t// out\n        /* \"#utility.yul\":1762:2187   */\n    tag_33:\n        /* \"#utility.yul\":1840:1845   */\n      0x00\n        /* \"#utility.yul\":1865:1931   */\n      tag_66\n        /* \"#utility.yul\":1881:1930   */\n      tag_67\n        /* \"#utility.yul\":1923:1929   */\n      dup5\n        /* \"#utility.yul\":1881:1930   */\n      tag_31\n      jump\t// in\n    tag_67:\n        /* \"#utility.yul\":1865:1931   */\n      tag_30\n      jump\t// in\n    tag_66:\n        /* \"#utility.yul\":1856:1931   */\n      swap1\n      pop\n        /* \"#utility.yul\":1954:1960   */\n      dup3\n        /* \"#utility.yul\":1947:1952   */\n      dup2\n        /* \"#utility.yul\":1940:1961   */\n      mstore\n        /* \"#utility.yul\":1992:1996   */\n      0x20\n        /* \"#utility.yul\":1985:1990   */\n      dup2\n        /* \"#utility.yul\":1981:1997   */\n      add\n        /* \"#utility.yul\":2030:2033   */\n      dup5\n        /* \"#utility.yul\":2021:2027   */\n      dup5\n        /* \"#utility.yul\":2016:2019   */\n      dup5\n        /* \"#utility.yul\":2012:2028   */\n      add\n        /* \"#utility.yul\":2009:2034   */\n      gt\n        /* \"#utility.yul\":2006:2118   */\n      iszero\n      tag_68\n      jumpi\n        /* \"#utility.yul\":2037:2116   */\n      tag_69\n      tag_26\n      jump\t// in\n    tag_69:\n        /* \"#utility.yul\":2006:2118   */\n    tag_68:\n        /* \"#utility.yul\":2127:2181   */\n      tag_70\n        /* \"#utility.yul\":2174:2180   */\n      dup5\n        /* \"#utility.yul\":2169:2172   */\n      dup3\n        /* \"#utility.yul\":2164:2167   */\n      dup6\n        /* \"#utility.yul\":2127:2181   */\n      tag_32\n      jump\t// in\n    tag_70:\n        /* \"#utility.yul\":1846:2187   */\n      pop\n        /* \"#utility.yul\":1762:2187   */\n      swap4\n      swap3\n      pop\n      pop\n      pop\n      jump\t// out\n        /* \"#utility.yul\":2207:2547   */\n    tag_34:\n        /* \"#utility.yul\":2263:2268   */\n      0x00\n        /* \"#utility.yul\":2312:2315   */\n      dup3\n        /* \"#utility.yul\":2305:2309   */\n      0x1f\n        /* \"#utility.yul\":2297:2303   */\n      dup4\n        /* \"#utility.yul\":2293:2310   */\n      add\n        /* \"#utility.yul\":2289:2316   */\n      slt\n        /* \"#utility.yul\":2279:2401   */\n      tag_72\n      jumpi\n        /* \"#utility.yul\":2320:2399   */\n      tag_73\n      tag_25\n      jump\t// in\n    tag_73:\n        /* \"#utility.yul\":2279:2401   */\n    tag_72:\n        /* \"#utility.yul\":2437:2443   */\n      dup2\n        /* \"#utility.yul\":2424:2444   */\n      calldataload\n        /* \"#utility.yul\":2462:2541   */\n      tag_74\n        /* \"#utility.yul\":2537:2540   */\n      dup5\n        /* \"#utility.yul\":2529:2535   */\n      dup3\n        /* \"#utility.yul\":2522:2526   */\n      0x20\n        /* \"#utility.yul\":2514:2520   */\n      dup7\n        /* \"#utility.yul\":2510:2527   */\n      add\n        /* \"#utility.yul\":2462:2541   */\n      tag_33\n      jump\t// in\n    tag_74:\n        /* \"#utility.yul\":2453:2541   */\n      swap2\n      pop\n        /* \"#utility.yul\":2269:2547   */\n      pop\n        /* \"#utility.yul\":2207:2547   */\n      swap3\n      swap2\n      pop\n      pop\n      jump\t// out\n        /* \"#utility.yul\":2553:2630   */\n    tag_35:\n        /* \"#utility.yul\":2590:2597   */\n      0x00\n        /* \"#utility.yul\":2619:2624   */\n      dup2\n        /* \"#utility.yul\":2608:2624   */\n      swap1\n      pop\n        /* \"#utility.yul\":2553:2630   */\n      swap2\n      swap1\n      pop\n      jump\t// out\n        /* \"#utility.yul\":2636:2758   */\n    tag_36:\n        /* \"#utility.yul\":2709:2733   */\n      tag_77\n        /* \"#utility.yul\":2727:2732   */\n      dup2\n        /* \"#utility.yul\":2709:2733   */\n      tag_35\n      jump\t// in\n    tag_77:\n        /* \"#utility.yul\":2702:2707   */\n      dup2\n        /* \"#utility.yul\":2699:2734   */\n      eq\n        /* \"#utility.yul\":2689:2752   */\n      tag_78\n      jumpi\n        /* \"#utility.yul\":2748:2749   */\n      0x00\n        /* \"#utility.yul\":2745:2746   */\n      dup1\n        /* \"#utility.yul\":2738:2750   */\n      revert\n        /* \"#utility.yul\":2689:2752   */\n    tag_78:\n        /* \"#utility.yul\":2636:2758   */\n      pop\n      jump\t// out\n        /* \"#utility.yul\":2764:2903   */\n    tag_37:\n        /* \"#utility.yul\":2810:2815   */\n      0x00\n        /* \"#utility.yul\":2848:2854   */\n      dup2\n        /* \"#utility.yul\":2835:2855   */\n      calldataload\n        /* \"#utility.yul\":2826:2855   */\n      swap1\n      pop\n        /* \"#utility.yul\":2864:2897   */\n      tag_80\n        /* \"#utility.yul\":2891:2896   */\n      dup2\n        /* \"#utility.yul\":2864:2897   */\n      tag_36\n      jump\t// in\n    tag_80:\n        /* \"#utility.yul\":2764:2903   */\n      swap3\n      swap2\n      pop\n      pop\n      jump\t// out\n        /* \"#utility.yul\":2909:3563   */\n    tag_7:\n        /* \"#utility.yul\":2987:2993   */\n      0x00\n        /* \"#utility.yul\":2995:3001   */\n      dup1\n        /* \"#utility.yul\":3044:3046   */\n      0x40\n        /* \"#utility.yul\":3032:3041   */\n      dup4\n        /* \"#utility.yul\":3023:3030   */\n      dup6\n        /* \"#utility.yul\":3019:3042   */\n      sub\n        /* \"#utility.yul\":3015:3047   */\n      slt\n        /* \"#utility.yul\":3012:3131   */\n      iszero\n      tag_82\n      jumpi\n        /* \"#utility.yul\":3050:3129   */\n      tag_83\n      tag_23\n      jump\t// in\n    tag_83:\n        /* \"#utility.yul\":3012:3131   */\n    tag_82:\n        /* \"#utility.yul\":3198:3199   */\n      0x00\n        /* \"#utility.yul\":3187:3196   */\n      dup4\n        /* \"#utility.yul\":3183:3200   */\n      add\n        /* \"#utility.yul\":3170:3201   */\n      calldataload\n        /* \"#utility.yul\":3228:3246   */\n      0xffffffffffffffff\n        /* \"#utility.yul\":3220:3226   */\n      dup2\n        /* \"#utility.yul\":3217:3247   */\n      gt\n        /* \"#utility.yul\":3214:3331   */\n      iszero\n      tag_84\n      jumpi\n        /* \"#utility.yul\":3250:3329   */\n      tag_85\n      tag_24\n      jump\t// in\n    tag_85:\n        /* \"#utility.yul\":3214:3331   */\n    tag_84:\n        /* \"#utility.yul\":3355:3418   */\n      tag_86\n        /* \"#utility.yul\":3410:3417   */\n      dup6\n        /* \"#utility.yul\":3401:3407   */\n      dup3\n        /* \"#utility.yul\":3390:3399   */\n      dup7\n        /* \"#utility.yul\":3386:3408   */\n      add\n        /* \"#utility.yul\":3355:3418   */\n      tag_34\n      jump\t// in\n    tag_86:\n        /* \"#utility.yul\":3345:3418   */\n      swap3\n      pop\n        /* \"#utility.yul\":3141:3428   */\n      pop\n        /* \"#utility.yul\":3467:3469   */\n      0x20\n        /* \"#utility.yul\":3493:3546   */\n      tag_87\n        /* \"#utility.yul\":3538:3545   */\n      dup6\n        /* \"#utility.yul\":3529:3535   */\n      dup3\n        /* \"#utility.yul\":3518:3527   */\n      dup7\n        /* \"#utility.yul\":3514:3536   */\n      add\n        /* \"#utility.yul\":3493:3546   */\n      tag_37\n      jump\t// in\n    tag_87:\n        /* \"#utility.yul\":3483:3546   */\n      swap2\n      pop\n        /* \"#utility.yul\":3438:3556   */\n      pop\n        /* \"#utility.yul\":2909:3563   */\n      swap3\n      pop\n      swap3\n      swap1\n      pop\n      jump\t// out\n        /* \"#utility.yul\":3569:3667   */\n    tag_38:\n        /* \"#utility.yul\":3620:3626   */\n      0x00\n        /* \"#utility.yul\":3654:3659   */\n      dup2\n        /* \"#utility.yul\":3648:3660   */\n      mload\n        /* \"#utility.yul\":3638:3660   */\n      swap1\n      pop\n        /* \"#utility.yul\":3569:3667   */\n      swap2\n      swap1\n      pop\n      jump\t// out\n        /* \"#utility.yul\":3673:3841   */\n    tag_39:\n        /* \"#utility.yul\":3756:3767   */\n      0x00\n        /* \"#utility.yul\":3790:3796   */\n      dup3\n        /* \"#utility.yul\":3785:3788   */\n      dup3\n        /* \"#utility.yul\":3778:3797   */\n      mstore\n        /* \"#utility.yul\":3830:3834   */\n      0x20\n        /* \"#utility.yul\":3825:3828   */\n      dup3\n        /* \"#utility.yul\":3821:3835   */\n      add\n        /* \"#utility.yul\":3806:3835   */\n      swap1\n      pop\n        /* \"#utility.yul\":3673:3841   */\n      swap3\n      swap2\n      pop\n      pop\n      jump\t// out\n        /* \"#utility.yul\":3847:4093   */\n    tag_40:\n        /* \"#utility.yul\":3928:3929   */\n      0x00\n        /* \"#utility.yul\":3938:4051   */\n    tag_91:\n        /* \"#utility.yul\":3952:3958   */\n      dup4\n        /* \"#utility.yul\":3949:3950   */\n      dup2\n        /* \"#utility.yul\":3946:3959   */\n      lt\n        /* \"#utility.yul\":3938:4051   */\n      iszero\n      tag_93\n      jumpi\n        /* \"#utility.yul\":4037:4038   */\n      dup1\n        /* \"#utility.yul\":4032:4035   */\n      dup3\n        /* \"#utility.yul\":4028:4039   */\n      add\n        /* \"#utility.yul\":4022:4040   */\n      mload\n        /* \"#utility.yul\":4018:4019   */\n      dup2\n        /* \"#utility.yul\":4013:4016   */\n      dup5\n        /* \"#utility.yul\":4009:4020   */\n      add\n        /* \"#utility.yul\":4002:4041   */\n      mstore\n        /* \"#utility.yul\":3974:3976   */\n      0x20\n        /* \"#utility.yul\":3971:3972   */\n      dup2\n        /* \"#utility.yul\":3967:3977   */\n      add\n        /* \"#utility.yul\":3962:3977   */\n      swap1\n      pop\n        /* \"#utility.yul\":3938:4051   */\n      jump(tag_91)\n    tag_93:\n        /* \"#utility.yul\":4085:4086   */\n      0x00\n        /* \"#utility.yul\":4076:4082   */\n      dup5\n        /* \"#utility.yul\":4071:4074   */\n      dup5\n        /* \"#utility.yul\":4067:4083   */\n      add\n        /* \"#utility.yul\":4060:4087   */\n      mstore\n        /* \"#utility.yul\":3909:4093   */\n      pop\n        /* \"#utility.yul\":3847:4093   */\n      pop\n      pop\n      pop\n      jump\t// out\n        /* \"#utility.yul\":4099:4472   */\n    tag_41:\n        /* \"#utility.yul\":4185:4188   */\n      0x00\n        /* \"#utility.yul\":4213:4251   */\n      tag_95\n        /* \"#utility.yul\":4245:4250   */\n      dup3\n        /* \"#utility.yul\":4213:4251   */\n      tag_38\n      jump\t// in\n    tag_95:\n        /* \"#utility.yul\":4267:4337   */\n      tag_96\n        /* \"#utility.yul\":4330:4336   */\n      dup2\n        /* \"#utility.yul\":4325:4328   */\n      dup6\n        /* \"#utility.yul\":4267:4337   */\n      tag_39\n      jump\t// in\n    tag_96:\n        /* \"#utility.yul\":4260:4337   */\n      swap4\n      pop\n        /* \"#utility.yul\":4346:4411   */\n      tag_97\n        /* \"#utility.yul\":4404:4410   */\n      dup2\n        /* \"#utility.yul\":4399:4402   */\n      dup6\n        /* \"#utility.yul\":4392:4396   */\n      0x20\n        /* \"#utility.yul\":4385:4390   */\n      dup7\n        /* \"#utility.yul\":4381:4397   */\n      add\n        /* \"#utility.yul\":4346:4411   */\n      tag_40\n      jump\t// in\n    tag_97:\n        /* \"#utility.yul\":4436:4465   */\n      tag_98\n        /* \"#utility.yul\":4458:4464   */\n      dup2\n        /* \"#utility.yul\":4436:4465   */\n      tag_27\n      jump\t// in\n    tag_98:\n        /* \"#utility.yul\":4431:4434   */\n      dup5\n        /* \"#utility.yul\":4427:4466   */\n      add\n        /* \"#utility.yul\":4420:4466   */\n      swap2\n      pop\n        /* \"#utility.yul\":4189:4472   */\n      pop\n        /* \"#utility.yul\":4099:4472   */\n      swap3\n      swap2\n      pop\n      pop\n      jump\t// out\n        /* \"#utility.yul\":4478:4787   */\n    tag_10:\n        /* \"#utility.yul\":4589:4593   */\n      0x00\n        /* \"#utility.yul\":4627:4629   */\n      0x20\n        /* \"#utility.yul\":4616:4625   */\n      dup3\n        /* \"#utility.yul\":4612:4630   */\n      add\n        /* \"#utility.yul\":4604:4630   */\n      swap1\n      pop\n        /* \"#utility.yul\":4676:4685   */\n      dup2\n        /* \"#utility.yul\":4670:4674   */\n      dup2\n        /* \"#utility.yul\":4666:4686   */\n      sub\n        /* \"#utility.yul\":4662:4663   */\n      0x00\n        /* \"#utility.yul\":4651:4660   */\n      dup4\n        /* \"#utility.yul\":4647:4664   */\n      add\n        /* \"#utility.yul\":4640:4687   */\n      mstore\n        /* \"#utility.yul\":4704:4780   */\n      tag_100\n        /* \"#utility.yul\":4775:4779   */\n      dup2\n        /* \"#utility.yul\":4766:4772   */\n      dup5\n        /* \"#utility.yul\":4704:4780   */\n      tag_41\n      jump\t// in\n    tag_100:\n        /* \"#utility.yul\":4696:4780   */\n      swap1\n      pop\n        /* \"#utility.yul\":4478:4787   */\n      swap3\n      swap2\n      pop\n      pop\n      jump\t// out\n        /* \"#utility.yul\":4793:5302   */\n    tag_13:\n        /* \"#utility.yul\":4862:4868   */\n      0x00\n        /* \"#utility.yul\":4911:4913   */\n      0x20\n        /* \"#utility.yul\":4899:4908   */\n      dup3\n        /* \"#utility.yul\":4890:4897   */\n      dup5\n        /* \"#utility.yul\":4886:4909   */\n      sub\n        /* \"#utility.yul\":4882:4914   */\n      slt\n        /* \"#utility.yul\":4879:4998   */\n      iszero\n      tag_102\n      jumpi\n        /* \"#utility.yul\":4917:4996   */\n      tag_103\n      tag_23\n      jump\t// in\n    tag_103:\n        /* \"#utility.yul\":4879:4998   */\n    tag_102:\n        /* \"#utility.yul\":5065:5066   */\n      0x00\n        /* \"#utility.yul\":5054:5063   */\n      dup3\n        /* \"#utility.yul\":5050:5067   */\n      add\n        /* \"#utility.yul\":5037:5068   */\n      calldataload\n        /* \"#utility.yul\":5095:5113   */\n      0xffffffffffffffff\n        /* \"#utility.yul\":5087:5093   */\n      dup2\n        /* \"#utility.yul\":5084:5114   */\n      gt\n        /* \"#utility.yul\":5081:5198   */\n      iszero\n      tag_104\n      jumpi\n        /* \"#utility.yul\":5117:5196   */\n      tag_105\n      tag_24\n      jump\t// in\n    tag_105:\n        /* \"#utility.yul\":5081:5198   */\n    tag_104:\n        /* \"#utility.yul\":5222:5285   */\n      tag_106\n        /* \"#utility.yul\":5277:5284   */\n      dup5\n        /* \"#utility.yul\":5268:5274   */\n      dup3\n        /* \"#utility.yul\":5257:5266   */\n      dup6\n        /* \"#utility.yul\":5253:5275   */\n      add\n        /* \"#utility.yul\":5222:5285   */\n      tag_34\n      jump\t// in\n    tag_106:\n        /* \"#utility.yul\":5212:5285   */\n      swap2\n      pop\n        /* \"#utility.yul\":5008:5295   */\n      pop\n        /* \"#utility.yul\":4793:5302   */\n      swap3\n      swap2\n      pop\n      pop\n      jump\t// out\n        /* \"#utility.yul\":5308:5457   */\n    tag_42:\n        /* \"#utility.yul\":5344:5351   */\n      0x00\n        /* \"#utility.yul\":5384:5450   */\n      0xffffffff00000000000000000000000000000000000000000000000000000000\n        /* \"#utility.yul\":5377:5382   */\n      dup3\n        /* \"#utility.yul\":5373:5451   */\n      and\n        /* \"#utility.yul\":5362:5451   */\n      swap1\n      pop\n        /* \"#utility.yul\":5308:5457   */\n      swap2\n      swap1\n      pop\n      jump\t// out\n        /* \"#utility.yul\":5463:5578   */\n    tag_43:\n        /* \"#utility.yul\":5548:5571   */\n      tag_109\n        /* \"#utility.yul\":5565:5570   */\n      dup2\n        /* \"#utility.yul\":5548:5571   */\n      tag_42\n      jump\t// in\n    tag_109:\n        /* \"#utility.yul\":5543:5546   */\n      dup3\n        /* \"#utility.yul\":5536:5572   */\n      mstore\n        /* \"#utility.yul\":5463:5578   */\n      pop\n      pop\n      jump\t// out\n        /* \"#utility.yul\":5584:5802   */\n    tag_16:\n        /* \"#utility.yul\":5675:5679   */\n      0x00\n        /* \"#utility.yul\":5713:5715   */\n      0x20\n        /* \"#utility.yul\":5702:5711   */\n      dup3\n        /* \"#utility.yul\":5698:5716   */\n      add\n        /* \"#utility.yul\":5690:5716   */\n      swap1\n      pop\n        /* \"#utility.yul\":5726:5795   */\n      tag_111\n        /* \"#utility.yul\":5792:5793   */\n      0x00\n        /* \"#utility.yul\":5781:5790   */\n      dup4\n        /* \"#utility.yul\":5777:5794   */\n      add\n        /* \"#utility.yul\":5768:5774   */\n      dup5\n        /* \"#utility.yul\":5726:5795   */\n      tag_43\n      jump\t// in\n    tag_111:\n        /* \"#utility.yul\":5584:5802   */\n      swap3\n      swap2\n      pop\n      pop\n      jump\t// out\n        /* \"#utility.yul\":5808:5926   */\n    tag_44:\n        /* \"#utility.yul\":5895:5919   */\n      tag_113\n        /* \"#utility.yul\":5913:5918   */\n      dup2\n        /* \"#utility.yul\":5895:5919   */\n      tag_35\n      jump\t// in\n    tag_113:\n        /* \"#utility.yul\":5890:5893   */\n      dup3\n        /* \"#utility.yul\":5883:5920   */\n      mstore\n        /* \"#utility.yul\":5808:5926   */\n      pop\n      pop\n      jump\t// out\n        /* \"#utility.yul\":5932:6154   */\n    tag_20:\n        /* \"#utility.yul\":6025:6029   */\n      0x00\n        /* \"#utility.yul\":6063:6065   */\n      0x20\n        /* \"#utility.yul\":6052:6061   */\n      dup3\n        /* \"#utility.yul\":6048:6066   */\n      add\n        /* \"#utility.yul\":6040:6066   */\n      swap1\n      pop\n        /* \"#utility.yul\":6076:6147   */\n      tag_115\n        /* \"#utility.yul\":6144:6145   */\n      0x00\n        /* \"#utility.yul\":6133:6142   */\n      dup4\n        /* \"#utility.yul\":6129:6146   */\n      add\n        /* \"#utility.yul\":6120:6126   */\n      dup5\n        /* \"#utility.yul\":6076:6147   */\n      tag_44\n      jump\t// in\n    tag_115:\n        /* \"#utility.yul\":5932:6154   */\n      swap3\n      swap2\n      pop\n      pop\n      jump\t// out\n\n    auxdata: 0xa2646970667358221220a3fb6423467160eaaeade4d742c8c841472aa8f5d87c5abf85632e2bcfb082dc64736f6c63430008170033\n}\n",
				"bytecode": {
					"linkReferences": {},
					"object": "608060405234801561000f575f80fd5b5061049a8061001d5f395ff3fe608060405234801561000f575f80fd5b5060043610610034575f3560e01c80630ffbbadb1461003857806380a003ff14610068575b5f80fd5b610052600480360381019061004d91906102ae565b610098565b60405161005f9190610382565b60405180910390f35b610082600480360381019061007d91906103a2565b61011e565b60405161008f9190610423565b60405180910390f35b60605f6100a48461011e565b905080836040516024016100b8919061044b565b604051602081830303815290604052907bffffffffffffffffffffffffffffffffffffffffffffffffffffffff19166020820180517bffffffffffffffffffffffffffffffffffffffffffffffffffffffff838183161783525050505091505092915050565b5f81805190602001209050919050565b5f604051905090565b5f80fd5b5f80fd5b5f80fd5b5f80fd5b5f601f19601f8301169050919050565b7f4e487b71000000000000000000000000000000000000000000000000000000005f52604160045260245ffd5b61018d82610147565b810181811067ffffffffffffffff821117156101ac576101ab610157565b5b80604052505050565b5f6101be61012e565b90506101ca8282610184565b919050565b5f67ffffffffffffffff8211156101e9576101e8610157565b5b6101f282610147565b9050602081019050919050565b828183375f83830152505050565b5f61021f61021a846101cf565b6101b5565b90508281526020810184848401111561023b5761023a610143565b5b6102468482856101ff565b509392505050565b5f82601f8301126102625761026161013f565b5b813561027284826020860161020d565b91505092915050565b5f819050919050565b61028d8161027b565b8114610297575f80fd5b50565b5f813590506102a881610284565b92915050565b5f80604083850312156102c4576102c3610137565b5b5f83013567ffffffffffffffff8111156102e1576102e061013b565b5b6102ed8582860161024e565b92505060206102fe8582860161029a565b9150509250929050565b5f81519050919050565b5f82825260208201905092915050565b5f5b8381101561033f578082015181840152602081019050610324565b5f8484015250505050565b5f61035482610308565b61035e8185610312565b935061036e818560208601610322565b61037781610147565b840191505092915050565b5f6020820190508181035f83015261039a818461034a565b905092915050565b5f602082840312156103b7576103b6610137565b5b5f82013567ffffffffffffffff8111156103d4576103d361013b565b5b6103e08482850161024e565b91505092915050565b5f7fffffffff0000000000000000000000000000000000000000000000000000000082169050919050565b61041d816103e9565b82525050565b5f6020820190506104365f830184610414565b92915050565b6104458161027b565b82525050565b5f60208201905061045e5f83018461043c565b9291505056fea2646970667358221220a3fb6423467160eaaeade4d742c8c841472aa8f5d87c5abf85632e2bcfb082dc64736f6c63430008170033",
					"opcodes": "PUSH1 0x80 PUSH1 0x40 MSTORE CALLVALUE DUP1 ISZERO PUSH2 0xF JUMPI PUSH0 DUP1 REVERT JUMPDEST POP PUSH2 0x49A DUP1 PUSH2 0x1D PUSH0 CODECOPY PUSH0 RETURN INVALID PUSH1 0x80 PUSH1 0x40 MSTORE CALLVALUE DUP1 ISZERO PUSH2 0xF JUMPI PUSH0 DUP1 REVERT JUMPDEST POP PUSH1 0x4 CALLDATASIZE LT PUSH2 0x34 JUMPI PUSH0 CALLDATALOAD PUSH1 0xE0 SHR DUP1 PUSH4 0xFFBBADB EQ PUSH2 0x38 JUMPI DUP1 PUSH4 0x80A003FF EQ PUSH2 0x68 JUMPI JUMPDEST PUSH0 DUP1 REVERT JUMPDEST PUSH2 0x52 PUSH1 0x4 DUP1 CALLDATASIZE SUB DUP2 ADD SWAP1 PUSH2 0x4D SWAP2 SWAP1 PUSH2 0x2AE JUMP JUMPDEST PUSH2 0x98 JUMP JUMPDEST PUSH1 0x40 MLOAD PUSH2 0x5F SWAP2 SWAP1 PUSH2 0x382 JUMP JUMPDEST PUSH1 0x40 MLOAD DUP1 SWAP2 SUB SWAP1 RETURN JUMPDEST PUSH2 0x82 PUSH1 0x4 DUP1 CALLDATASIZE SUB DUP2 ADD SWAP1 PUSH2 0x7D SWAP2 SWAP1 PUSH2 0x3A2 JUMP JUMPDEST PUSH2 0x11E JUMP JUMPDEST PUSH1 0x40 MLOAD PUSH2 0x8F SWAP2 SWAP1 PUSH2 0x423 JUMP JUMPDEST PUSH1 0x40 MLOAD DUP1 SWAP2 SUB SWAP1 RETURN JUMPDEST PUSH1 0x60 PUSH0 PUSH2 0xA4 DUP5 PUSH2 0x11E JUMP JUMPDEST SWAP1 POP DUP1 DUP4 PUSH1 0x40 MLOAD PUSH1 0x24 ADD PUSH2 0xB8 SWAP2 SWAP1 PUSH2 0x44B JUMP JUMPDEST PUSH1 0x40 MLOAD PUSH1 0x20 DUP2 DUP4 SUB SUB DUP2 MSTORE SWAP1 PUSH1 0x40 MSTORE SWAP1 PUSH28 0xFFFFFFFFFFFFFFFFFFFFFFFFFFFFFFFFFFFFFFFFFFFFFFFFFFFFFFFF NOT AND PUSH1 0x20 DUP3 ADD DUP1 MLOAD PUSH28 0xFFFFFFFFFFFFFFFFFFFFFFFFFFFFFFFFFFFFFFFFFFFFFFFFFFFFFFFF DUP4 DUP2 DUP4 AND OR DUP4 MSTORE POP POP POP POP SWAP2 POP POP SWAP3 SWAP2 POP POP JUMP JUMPDEST PUSH0 DUP2 DUP1 MLOAD SWAP1 PUSH1 0x20 ADD KECCAK256 SWAP1 POP SWAP2 SWAP1 POP JUMP JUMPDEST PUSH0 PUSH1 0x40 MLOAD SWAP1 POP SWAP1 JUMP JUMPDEST PUSH0 DUP1 REVERT JUMPDEST PUSH0 DUP1 REVERT JUMPDEST PUSH0 DUP1 REVERT JUMPDEST PUSH0 DUP1 REVERT JUMPDEST PUSH0 PUSH1 0x1F NOT PUSH1 0x1F DUP4 ADD AND SWAP1 POP SWAP2 SWAP1 POP JUMP JUMPDEST PUSH32 0x4E487B7100000000000000000000000000000000000000000000000000000000 PUSH0 MSTORE PUSH1 0x41 PUSH1 0x4 MSTORE PUSH1 0x24 PUSH0 REVERT JUMPDEST PUSH2 0x18D DUP3 PUSH2 0x147 JUMP JUMPDEST DUP2 ADD DUP2 DUP2 LT PUSH8 0xFFFFFFFFFFFFFFFF DUP3 GT OR ISZERO PUSH2 0x1AC JUMPI PUSH2 0x1AB PUSH2 0x157 JUMP JUMPDEST JUMPDEST DUP1 PUSH1 0x40 MSTORE POP POP POP JUMP JUMPDEST PUSH0 PUSH2 0x1BE PUSH2 0x12E JUMP JUMPDEST SWAP1 POP PUSH2 0x1CA DUP3 DUP3 PUSH2 0x184 JUMP JUMPDEST SWAP2 SWAP1 POP JUMP JUMPDEST PUSH0 PUSH8 0xFFFFFFFFFFFFFFFF DUP3 GT ISZERO PUSH2 0x1E9 JUMPI PUSH2 0x1E8 PUSH2 0x157 JUMP JUMPDEST JUMPDEST PUSH2 0x1F2 DUP3 PUSH2 0x147 JUMP JUMPDEST SWAP1 POP PUSH1 0x20 DUP2 ADD SWAP1 POP SWAP2 SWAP1 POP JUMP JUMPDEST DUP3 DUP2 DUP4 CALLDATACOPY PUSH0 DUP4 DUP4 ADD MSTORE POP POP POP JUMP JUMPDEST PUSH0 PUSH2 0x21F PUSH2 0x21A DUP5 PUSH2 0x1CF JUMP JUMPDEST PUSH2 0x1B5 JUMP JUMPDEST SWAP1 POP DUP3 DUP2 MSTORE PUSH1 0x20 DUP2 ADD DUP5 DUP5 DUP5 ADD GT ISZERO PUSH2 0x23B JUMPI PUSH2 0x23A PUSH2 0x143 JUMP JUMPDEST JUMPDEST PUSH2 0x246 DUP5 DUP3 DUP6 PUSH2 0x1FF JUMP JUMPDEST POP SWAP4 SWAP3 POP POP POP JUMP JUMPDEST PUSH0 DUP3 PUSH1 0x1F DUP4 ADD SLT PUSH2 0x262 JUMPI PUSH2 0x261 PUSH2 0x13F JUMP JUMPDEST JUMPDEST DUP2 CALLDATALOAD PUSH2 0x272 DUP5 DUP3 PUSH1 0x20 DUP7 ADD PUSH2 0x20D JUMP JUMPDEST SWAP2 POP POP SWAP3 SWAP2 POP POP JUMP JUMPDEST PUSH0 DUP2 SWAP1 POP SWAP2 SWAP1 POP JUMP JUMPDEST PUSH2 0x28D DUP2 PUSH2 0x27B JUMP JUMPDEST DUP2 EQ PUSH2 0x297 JUMPI PUSH0 DUP1 REVERT JUMPDEST POP JUMP JUMPDEST PUSH0 DUP2 CALLDATALOAD SWAP1 POP PUSH2 0x2A8 DUP2 PUSH2 0x284 JUMP JUMPDEST SWAP3 SWAP2 POP POP JUMP JUMPDEST PUSH0 DUP1 PUSH1 0x40 DUP4 DUP6 SUB SLT ISZERO PUSH2 0x2C4 JUMPI PUSH2 0x2C3 PUSH2 0x137 JUMP JUMPDEST JUMPDEST PUSH0 DUP4 ADD CALLDATALOAD PUSH8 0xFFFFFFFFFFFFFFFF DUP2 GT ISZERO PUSH2 0x2E1 JUMPI PUSH2 0x2E0 PUSH2 0x13B JUMP JUMPDEST JUMPDEST PUSH2 0x2ED DUP6 DUP3 DUP7 ADD PUSH2 0x24E JUMP JUMPDEST SWAP3 POP POP PUSH1 0x20 PUSH2 0x2FE DUP6 DUP3 DUP7 ADD PUSH2 0x29A JUMP JUMPDEST SWAP2 POP POP SWAP3 POP SWAP3 SWAP1 POP JUMP JUMPDEST PUSH0 DUP2 MLOAD SWAP1 POP SWAP2 SWAP1 POP JUMP JUMPDEST PUSH0 DUP3 DUP3 MSTORE PUSH1 0x20 DUP3 ADD SWAP1 POP SWAP3 SWAP2 POP POP JUMP JUMPDEST PUSH0 JUMPDEST DUP4 DUP2 LT ISZERO PUSH2 0x33F JUMPI DUP1 DUP3 ADD MLOAD DUP2 DUP5 ADD MSTORE PUSH1 0x20 DUP2 ADD SWAP1 POP PUSH2 0x324 JUMP JUMPDEST PUSH0 DUP5 DUP5 ADD MSTORE POP POP POP POP JUMP JUMPDEST PUSH0 PUSH2 0x354 DUP3 PUSH2 0x308 JUMP JUMPDEST PUSH2 0x35E DUP2 DUP6 PUSH2 0x312 JUMP JUMPDEST SWAP4 POP PUSH2 0x36E DUP2 DUP6 PUSH1 0x20 DUP7 ADD PUSH2 0x322 JUMP JUMPDEST PUSH2 0x377 DUP2 PUSH2 0x147 JUMP JUMPDEST DUP5 ADD SWAP2 POP POP SWAP3 SWAP2 POP POP JUMP JUMPDEST PUSH0 PUSH1 0x20 DUP3 ADD SWAP1 POP DUP2 DUP2 SUB PUSH0 DUP4 ADD MSTORE PUSH2 0x39A DUP2 DUP5 PUSH2 0x34A JUMP JUMPDEST SWAP1 POP SWAP3 SWAP2 POP POP JUMP JUMPDEST PUSH0 PUSH1 0x20 DUP3 DUP5 SUB SLT ISZERO PUSH2 0x3B7 JUMPI PUSH2 0x3B6 PUSH2 0x137 JUMP JUMPDEST JUMPDEST PUSH0 DUP3 ADD CALLDATALOAD PUSH8 0xFFFFFFFFFFFFFFFF DUP2 GT ISZERO PUSH2 0x3D4 JUMPI PUSH2 0x3D3 PUSH2 0x13B JUMP JUMPDEST JUMPDEST PUSH2 0x3E0 DUP5 DUP3 DUP6 ADD PUSH2 0x24E JUMP JUMPDEST SWAP2 POP POP SWAP3 SWAP2 POP POP JUMP JUMPDEST PUSH0 PUSH32 0xFFFFFFFF00000000000000000000000000000000000000000000000000000000 DUP3 AND SWAP1 POP SWAP2 SWAP1 POP JUMP JUMPDEST PUSH2 0x41D DUP2 PUSH2 0x3E9 JUMP JUMPDEST DUP3 MSTORE POP POP JUMP JUMPDEST PUSH0 PUSH1 0x20 DUP3 ADD SWAP1 POP PUSH2 0x436 PUSH0 DUP4 ADD DUP5 PUSH2 0x414 JUMP JUMPDEST SWAP3 SWAP2 POP POP JUMP JUMPDEST PUSH2 0x445 DUP2 PUSH2 0x27B JUMP JUMPDEST DUP3 MSTORE POP POP JUMP JUMPDEST PUSH0 PUSH1 0x20 DUP3 ADD SWAP1 POP PUSH2 0x45E PUSH0 DUP4 ADD DUP5 PUSH2 0x43C JUMP JUMPDEST SWAP3 SWAP2 POP POP JUMP INVALID LOG2 PUSH5 0x6970667358 0x22 SLT KECCAK256 LOG3 0xFB PUSH5 0x23467160EA 0xAE 0xAD 0xE4 0xD7 TIMESTAMP 0xC8 0xC8 COINBASE SELFBALANCE 0x2A 0xA8 CREATE2 0xD8 PUSH29 0x5ABF85632E2BCFB082DC64736F6C634300081700330000000000000000 "
				},
				"gasEstimates": {
					"creation": {
						"codeDepositCost": "235600",
						"executionCost": "273",
						"totalCost": "235873"
					},
					"external": {
						"executeFunction(string,uint256)": "infinite",
						"getSelector(string)": "infinite"
					}
				},
				"methodIdentifiers": {
					"executeFunction(string,uint256)": "0ffbbadb",
					"getSelector(string)": "80a003ff"
				}
			},
			"storageLayout": {
				"storage": [],
				"types": null
			},
			"userdoc": {
				"kind": "user",
				"methods": {},
				"version": 1
			}
		}
	}
}