{
	"levelup/functions.sol": {
		"functions": {
			"abi": [
				{
					"inputs": [
						{
							"internalType": "uint256",
							"name": "_stamina",
							"type": "uint256"
						}
					],
					"stateMutability": "nonpayable",
					"type": "constructor"
				},
				{
					"inputs": [],
					"name": "addPower",
					"outputs": [],
					"stateMutability": "nonpayable",
					"type": "function"
				},
				{
					"inputs": [],
					"name": "addStamina",
					"outputs": [],
					"stateMutability": "nonpayable",
					"type": "function"
				},
				{
					"inputs": [],
					"name": "addStaminaToPower",
					"outputs": [],
					"stateMutability": "nonpayable",
					"type": "function"
				},
				{
					"inputs": [],
					"name": "blocks",
					"outputs": [
						{
							"internalType": "uint256",
							"name": "",
							"type": "uint256"
						}
					],
					"stateMutability": "view",
					"type": "function"
				},
				{
					"inputs": [],
					"name": "delStamina",
					"outputs": [],
					"stateMutability": "nonpayable",
					"type": "function"
				},
				{
					"inputs": [],
					"name": "getPower",
					"outputs": [
						{
							"internalType": "uint256",
							"name": "",
							"type": "uint256"
						}
					],
					"stateMutability": "view",
					"type": "function"
				},
				{
					"inputs": [],
					"name": "owner",
					"outputs": [
						{
							"internalType": "address",
							"name": "",
							"type": "address"
						}
					],
					"stateMutability": "view",
					"type": "function"
				},
				{
					"inputs": [],
					"name": "power",
					"outputs": [
						{
							"internalType": "uint256",
							"name": "",
							"type": "uint256"
						}
					],
					"stateMutability": "view",
					"type": "function"
				},
				{
					"inputs": [],
					"name": "setOwner",
					"outputs": [],
					"stateMutability": "nonpayable",
					"type": "function"
				},
				{
					"inputs": [],
					"name": "setSnippetFlag",
					"outputs": [],
					"stateMutability": "nonpayable",
					"type": "function"
				},
				{
					"inputs": [],
					"name": "stamina",
					"outputs": [
						{
							"internalType": "uint256",
							"name": "",
							"type": "uint256"
						}
					],
					"stateMutability": "view",
					"type": "function"
				}
			],
			"devdoc": {
				"kind": "dev",
				"methods": {},
				"version": 1
			},
			"evm": {
				"assembly": "    /* \"levelup/functions.sol\":78:1273  contract functions{... */\n  mstore(0x40, 0x80)\n    /* \"levelup/functions.sol\":216:347  constructor(uint256 _stamina){... */\n  callvalue\n  dup1\n  iszero\n  tag_1\n  jumpi\n  0x00\n  dup1\n  revert\ntag_1:\n  pop\n  mload(0x40)\n  sub(codesize, bytecodeSize)\n  dup1\n  bytecodeSize\n  dup4\n  codecopy\n  dup2\n  dup2\n  add\n  0x40\n  mstore\n  dup2\n  add\n  swap1\n  tag_2\n  swap2\n  swap1\n  tag_3\n  jump\t// in\ntag_2:\n    /* \"levelup/functions.sol\":256:290  snippet_flag = \"flag_in_the_world\" */\n  mload(0x40)\n  dup1\n  0x40\n  add\n  0x40\n  mstore\n  dup1\n  0x11\n  dup2\n  mstore\n  0x20\n  add\n  0x666c61675f696e5f7468655f776f726c64000000000000000000000000000000\n  dup2\n  mstore\n  pop\n    /* \"levelup/functions.sol\":256:268  snippet_flag */\n  0x00\n    /* \"levelup/functions.sol\":256:290  snippet_flag = \"flag_in_the_world\" */\n  swap1\n  dup2\n  tag_6\n  swap2\n  swap1\n  tag_7\n  jump\t// in\ntag_6:\n  pop\n    /* \"levelup/functions.sol\":309:310  0 */\n  0x00\n    /* \"levelup/functions.sol\":301:306  power */\n  0x02\n    /* \"levelup/functions.sol\":301:310  power = 0 */\n  dup2\n  swap1\n  sstore\n  pop\n    /* \"levelup/functions.sol\":331:339  _stamina */\n  dup1\n    /* \"levelup/functions.sol\":321:328  stamina */\n  0x03\n    /* \"levelup/functions.sol\":321:339  stamina = _stamina */\n  dup2\n  swap1\n  sstore\n  pop\n    /* \"levelup/functions.sol\":216:347  constructor(uint256 _stamina){... */\n  pop\n    /* \"levelup/functions.sol\":78:1273  contract functions{... */\n  jump(tag_8)\n    /* \"#utility.yul\":88:205   */\ntag_10:\n    /* \"#utility.yul\":197:198   */\n  0x00\n    /* \"#utility.yul\":194:195   */\n  dup1\n    /* \"#utility.yul\":187:199   */\n  revert\n    /* \"#utility.yul\":334:411   */\ntag_12:\n    /* \"#utility.yul\":371:378   */\n  0x00\n    /* \"#utility.yul\":400:405   */\n  dup2\n    /* \"#utility.yul\":389:405   */\n  swap1\n  pop\n    /* \"#utility.yul\":334:411   */\n  swap2\n  swap1\n  pop\n  jump\t// out\n    /* \"#utility.yul\":417:539   */\ntag_13:\n    /* \"#utility.yul\":490:514   */\n  tag_40\n    /* \"#utility.yul\":508:513   */\n  dup2\n    /* \"#utility.yul\":490:514   */\n  tag_12\n  jump\t// in\ntag_40:\n    /* \"#utility.yul\":483:488   */\n  dup2\n    /* \"#utility.yul\":480:515   */\n  eq\n    /* \"#utility.yul\":470:533   */\n  tag_41\n  jumpi\n    /* \"#utility.yul\":529:530   */\n  0x00\n    /* \"#utility.yul\":526:527   */\n  dup1\n    /* \"#utility.yul\":519:531   */\n  revert\n    /* \"#utility.yul\":470:533   */\ntag_41:\n    /* \"#utility.yul\":417:539   */\n  pop\n  jump\t// out\n    /* \"#utility.yul\":545:688   */\ntag_14:\n    /* \"#utility.yul\":602:607   */\n  0x00\n    /* \"#utility.yul\":633:639   */\n  dup2\n    /* \"#utility.yul\":627:640   */\n  mload\n    /* \"#utility.yul\":618:640   */\n  swap1\n  pop\n    /* \"#utility.yul\":649:682   */\n  tag_43\n    /* \"#utility.yul\":676:681   */\n  dup2\n    /* \"#utility.yul\":649:682   */\n  tag_13\n  jump\t// in\ntag_43:\n    /* \"#utility.yul\":545:688   */\n  swap3\n  swap2\n  pop\n  pop\n  jump\t// out\n    /* \"#utility.yul\":694:1045   */\ntag_3:\n    /* \"#utility.yul\":764:770   */\n  0x00\n    /* \"#utility.yul\":813:815   */\n  0x20\n    /* \"#utility.yul\":801:810   */\n  dup3\n    /* \"#utility.yul\":792:799   */\n  dup5\n    /* \"#utility.yul\":788:811   */\n  sub\n    /* \"#utility.yul\":784:816   */\n  slt\n    /* \"#utility.yul\":781:900   */\n  iszero\n  tag_45\n  jumpi\n    /* \"#utility.yul\":819:898   */\n  tag_46\n  tag_10\n  jump\t// in\ntag_46:\n    /* \"#utility.yul\":781:900   */\ntag_45:\n    /* \"#utility.yul\":939:940   */\n  0x00\n    /* \"#utility.yul\":964:1028   */\n  tag_47\n    /* \"#utility.yul\":1020:1027   */\n  dup5\n    /* \"#utility.yul\":1011:1017   */\n  dup3\n    /* \"#utility.yul\":1000:1009   */\n  dup6\n    /* \"#utility.yul\":996:1018   */\n  add\n    /* \"#utility.yul\":964:1028   */\n  tag_14\n  jump\t// in\ntag_47:\n    /* \"#utility.yul\":954:1028   */\n  swap2\n  pop\n    /* \"#utility.yul\":910:1038   */\n  pop\n    /* \"#utility.yul\":694:1045   */\n  swap3\n  swap2\n  pop\n  pop\n  jump\t// out\n    /* \"#utility.yul\":1051:1150   */\ntag_15:\n    /* \"#utility.yul\":1103:1109   */\n  0x00\n    /* \"#utility.yul\":1137:1142   */\n  dup2\n    /* \"#utility.yul\":1131:1143   */\n  mload\n    /* \"#utility.yul\":1121:1143   */\n  swap1\n  pop\n    /* \"#utility.yul\":1051:1150   */\n  swap2\n  swap1\n  pop\n  jump\t// out\n    /* \"#utility.yul\":1156:1336   */\ntag_16:\n    /* \"#utility.yul\":1204:1281   */\n  0x4e487b7100000000000000000000000000000000000000000000000000000000\n    /* \"#utility.yul\":1201:1202   */\n  0x00\n    /* \"#utility.yul\":1194:1282   */\n  mstore\n    /* \"#utility.yul\":1301:1305   */\n  0x41\n    /* \"#utility.yul\":1298:1299   */\n  0x04\n    /* \"#utility.yul\":1291:1306   */\n  mstore\n    /* \"#utility.yul\":1325:1329   */\n  0x24\n    /* \"#utility.yul\":1322:1323   */\n  0x00\n    /* \"#utility.yul\":1315:1330   */\n  revert\n    /* \"#utility.yul\":1342:1522   */\ntag_17:\n    /* \"#utility.yul\":1390:1467   */\n  0x4e487b7100000000000000000000000000000000000000000000000000000000\n    /* \"#utility.yul\":1387:1388   */\n  0x00\n    /* \"#utility.yul\":1380:1468   */\n  mstore\n    /* \"#utility.yul\":1487:1491   */\n  0x22\n    /* \"#utility.yul\":1484:1485   */\n  0x04\n    /* \"#utility.yul\":1477:1492   */\n  mstore\n    /* \"#utility.yul\":1511:1515   */\n  0x24\n    /* \"#utility.yul\":1508:1509   */\n  0x00\n    /* \"#utility.yul\":1501:1516   */\n  revert\n    /* \"#utility.yul\":1528:1848   */\ntag_18:\n    /* \"#utility.yul\":1572:1578   */\n  0x00\n    /* \"#utility.yul\":1609:1610   */\n  0x02\n    /* \"#utility.yul\":1603:1607   */\n  dup3\n    /* \"#utility.yul\":1599:1611   */\n  div\n    /* \"#utility.yul\":1589:1611   */\n  swap1\n  pop\n    /* \"#utility.yul\":1656:1657   */\n  0x01\n    /* \"#utility.yul\":1650:1654   */\n  dup3\n    /* \"#utility.yul\":1646:1658   */\n  and\n    /* \"#utility.yul\":1677:1695   */\n  dup1\n    /* \"#utility.yul\":1667:1748   */\n  tag_52\n  jumpi\n    /* \"#utility.yul\":1733:1737   */\n  0x7f\n    /* \"#utility.yul\":1725:1731   */\n  dup3\n    /* \"#utility.yul\":1721:1738   */\n  and\n    /* \"#utility.yul\":1711:1738   */\n  swap2\n  pop\n    /* \"#utility.yul\":1667:1748   */\ntag_52:\n    /* \"#utility.yul\":1795:1797   */\n  0x20\n    /* \"#utility.yul\":1787:1793   */\n  dup3\n    /* \"#utility.yul\":1784:1798   */\n  lt\n    /* \"#utility.yul\":1764:1782   */\n  dup2\n    /* \"#utility.yul\":1761:1799   */\n  sub\n    /* \"#utility.yul\":1758:1842   */\n  tag_53\n  jumpi\n    /* \"#utility.yul\":1814:1832   */\n  tag_54\n  tag_17\n  jump\t// in\ntag_54:\n    /* \"#utility.yul\":1758:1842   */\ntag_53:\n    /* \"#utility.yul\":1579:1848   */\n  pop\n    /* \"#utility.yul\":1528:1848   */\n  swap2\n  swap1\n  pop\n  jump\t// out\n    /* \"#utility.yul\":1854:1995   */\ntag_19:\n    /* \"#utility.yul\":1903:1907   */\n  0x00\n    /* \"#utility.yul\":1926:1929   */\n  dup2\n    /* \"#utility.yul\":1918:1929   */\n  swap1\n  pop\n    /* \"#utility.yul\":1949:1952   */\n  dup2\n    /* \"#utility.yul\":1946:1947   */\n  0x00\n    /* \"#utility.yul\":1939:1953   */\n  mstore\n    /* \"#utility.yul\":1983:1987   */\n  0x20\n    /* \"#utility.yul\":1980:1981   */\n  0x00\n    /* \"#utility.yul\":1970:1988   */\n  keccak256\n    /* \"#utility.yul\":1962:1988   */\n  swap1\n  pop\n    /* \"#utility.yul\":1854:1995   */\n  swap2\n  swap1\n  pop\n  jump\t// out\n    /* \"#utility.yul\":2001:2094   */\ntag_20:\n    /* \"#utility.yul\":2038:2044   */\n  0x00\n    /* \"#utility.yul\":2085:2087   */\n  0x20\n    /* \"#utility.yul\":2080:2082   */\n  0x1f\n    /* \"#utility.yul\":2073:2078   */\n  dup4\n    /* \"#utility.yul\":2069:2083   */\n  add\n    /* \"#utility.yul\":2065:2088   */\n  div\n    /* \"#utility.yul\":2055:2088   */\n  swap1\n  pop\n    /* \"#utility.yul\":2001:2094   */\n  swap2\n  swap1\n  pop\n  jump\t// out\n    /* \"#utility.yul\":2100:2207   */\ntag_21:\n    /* \"#utility.yul\":2144:2152   */\n  0x00\n    /* \"#utility.yul\":2194:2199   */\n  dup3\n    /* \"#utility.yul\":2188:2192   */\n  dup3\n    /* \"#utility.yul\":2184:2200   */\n  shl\n    /* \"#utility.yul\":2163:2200   */\n  swap1\n  pop\n    /* \"#utility.yul\":2100:2207   */\n  swap3\n  swap2\n  pop\n  pop\n  jump\t// out\n    /* \"#utility.yul\":2213:2606   */\ntag_22:\n    /* \"#utility.yul\":2282:2288   */\n  0x00\n    /* \"#utility.yul\":2332:2333   */\n  0x08\n    /* \"#utility.yul\":2320:2330   */\n  dup4\n    /* \"#utility.yul\":2316:2334   */\n  mul\n    /* \"#utility.yul\":2355:2452   */\n  tag_59\n    /* \"#utility.yul\":2385:2451   */\n  0xffffffffffffffffffffffffffffffffffffffffffffffffffffffffffffffff\n    /* \"#utility.yul\":2374:2383   */\n  dup3\n    /* \"#utility.yul\":2355:2452   */\n  tag_21\n  jump\t// in\ntag_59:\n    /* \"#utility.yul\":2473:2512   */\n  tag_60\n    /* \"#utility.yul\":2503:2511   */\n  dup7\n    /* \"#utility.yul\":2492:2501   */\n  dup4\n    /* \"#utility.yul\":2473:2512   */\n  tag_21\n  jump\t// in\ntag_60:\n    /* \"#utility.yul\":2461:2512   */\n  swap6\n  pop\n    /* \"#utility.yul\":2545:2549   */\n  dup1\n    /* \"#utility.yul\":2541:2550   */\n  not\n    /* \"#utility.yul\":2534:2539   */\n  dup5\n    /* \"#utility.yul\":2530:2551   */\n  and\n    /* \"#utility.yul\":2521:2551   */\n  swap4\n  pop\n    /* \"#utility.yul\":2594:2598   */\n  dup1\n    /* \"#utility.yul\":2584:2592   */\n  dup7\n    /* \"#utility.yul\":2580:2599   */\n  and\n    /* \"#utility.yul\":2573:2578   */\n  dup5\n    /* \"#utility.yul\":2570:2600   */\n  or\n    /* \"#utility.yul\":2560:2600   */\n  swap3\n  pop\n    /* \"#utility.yul\":2289:2606   */\n  pop\n  pop\n    /* \"#utility.yul\":2213:2606   */\n  swap4\n  swap3\n  pop\n  pop\n  pop\n  jump\t// out\n    /* \"#utility.yul\":2612:2672   */\ntag_23:\n    /* \"#utility.yul\":2640:2643   */\n  0x00\n    /* \"#utility.yul\":2661:2666   */\n  dup2\n    /* \"#utility.yul\":2654:2666   */\n  swap1\n  pop\n    /* \"#utility.yul\":2612:2672   */\n  swap2\n  swap1\n  pop\n  jump\t// out\n    /* \"#utility.yul\":2678:2820   */\ntag_24:\n    /* \"#utility.yul\":2728:2737   */\n  0x00\n    /* \"#utility.yul\":2761:2814   */\n  tag_63\n    /* \"#utility.yul\":2779:2813   */\n  tag_64\n    /* \"#utility.yul\":2788:2812   */\n  tag_65\n    /* \"#utility.yul\":2806:2811   */\n  dup5\n    /* \"#utility.yul\":2788:2812   */\n  tag_12\n  jump\t// in\ntag_65:\n    /* \"#utility.yul\":2779:2813   */\n  tag_23\n  jump\t// in\ntag_64:\n    /* \"#utility.yul\":2761:2814   */\n  tag_12\n  jump\t// in\ntag_63:\n    /* \"#utility.yul\":2748:2814   */\n  swap1\n  pop\n    /* \"#utility.yul\":2678:2820   */\n  swap2\n  swap1\n  pop\n  jump\t// out\n    /* \"#utility.yul\":2826:2901   */\ntag_25:\n    /* \"#utility.yul\":2869:2872   */\n  0x00\n    /* \"#utility.yul\":2890:2895   */\n  dup2\n    /* \"#utility.yul\":2883:2895   */\n  swap1\n  pop\n    /* \"#utility.yul\":2826:2901   */\n  swap2\n  swap1\n  pop\n  jump\t// out\n    /* \"#utility.yul\":2907:3176   */\ntag_26:\n    /* \"#utility.yul\":3017:3056   */\n  tag_68\n    /* \"#utility.yul\":3048:3055   */\n  dup4\n    /* \"#utility.yul\":3017:3056   */\n  tag_24\n  jump\t// in\ntag_68:\n    /* \"#utility.yul\":3078:3169   */\n  tag_69\n    /* \"#utility.yul\":3127:3168   */\n  tag_70\n    /* \"#utility.yul\":3151:3167   */\n  dup3\n    /* \"#utility.yul\":3127:3168   */\n  tag_25\n  jump\t// in\ntag_70:\n    /* \"#utility.yul\":3119:3125   */\n  dup5\n    /* \"#utility.yul\":3112:3116   */\n  dup5\n    /* \"#utility.yul\":3106:3117   */\n  sload\n    /* \"#utility.yul\":3078:3169   */\n  tag_22\n  jump\t// in\ntag_69:\n    /* \"#utility.yul\":3072:3076   */\n  dup3\n    /* \"#utility.yul\":3065:3170   */\n  sstore\n    /* \"#utility.yul\":2983:3176   */\n  pop\n    /* \"#utility.yul\":2907:3176   */\n  pop\n  pop\n  pop\n  jump\t// out\n    /* \"#utility.yul\":3182:3255   */\ntag_27:\n    /* \"#utility.yul\":3227:3230   */\n  0x00\n    /* \"#utility.yul\":3182:3255   */\n  swap1\n  jump\t// out\n    /* \"#utility.yul\":3261:3450   */\ntag_28:\n    /* \"#utility.yul\":3338:3370   */\n  tag_73\n  tag_27\n  jump\t// in\ntag_73:\n    /* \"#utility.yul\":3379:3444   */\n  tag_74\n    /* \"#utility.yul\":3437:3443   */\n  dup2\n    /* \"#utility.yul\":3429:3435   */\n  dup5\n    /* \"#utility.yul\":3423:3427   */\n  dup5\n    /* \"#utility.yul\":3379:3444   */\n  tag_26\n  jump\t// in\ntag_74:\n    /* \"#utility.yul\":3314:3450   */\n  pop\n    /* \"#utility.yul\":3261:3450   */\n  pop\n  pop\n  jump\t// out\n    /* \"#utility.yul\":3456:3642   */\ntag_29:\n    /* \"#utility.yul\":3516:3636   */\ntag_76:\n    /* \"#utility.yul\":3533:3536   */\n  dup2\n    /* \"#utility.yul\":3526:3531   */\n  dup2\n    /* \"#utility.yul\":3523:3537   */\n  lt\n    /* \"#utility.yul\":3516:3636   */\n  iszero\n  tag_78\n  jumpi\n    /* \"#utility.yul\":3587:3626   */\n  tag_79\n    /* \"#utility.yul\":3624:3625   */\n  0x00\n    /* \"#utility.yul\":3617:3622   */\n  dup3\n    /* \"#utility.yul\":3587:3626   */\n  tag_28\n  jump\t// in\ntag_79:\n    /* \"#utility.yul\":3560:3561   */\n  0x01\n    /* \"#utility.yul\":3553:3558   */\n  dup2\n    /* \"#utility.yul\":3549:3562   */\n  add\n    /* \"#utility.yul\":3540:3562   */\n  swap1\n  pop\n    /* \"#utility.yul\":3516:3636   */\n  jump(tag_76)\ntag_78:\n    /* \"#utility.yul\":3456:3642   */\n  pop\n  pop\n  jump\t// out\n    /* \"#utility.yul\":3648:4191   */\ntag_30:\n    /* \"#utility.yul\":3749:3751   */\n  0x1f\n    /* \"#utility.yul\":3744:3747   */\n  dup3\n    /* \"#utility.yul\":3741:3752   */\n  gt\n    /* \"#utility.yul\":3738:4184   */\n  iszero\n  tag_81\n  jumpi\n    /* \"#utility.yul\":3783:3821   */\n  tag_82\n    /* \"#utility.yul\":3815:3820   */\n  dup2\n    /* \"#utility.yul\":3783:3821   */\n  tag_19\n  jump\t// in\ntag_82:\n    /* \"#utility.yul\":3867:3896   */\n  tag_83\n    /* \"#utility.yul\":3885:3895   */\n  dup5\n    /* \"#utility.yul\":3867:3896   */\n  tag_20\n  jump\t// in\ntag_83:\n    /* \"#utility.yul\":3857:3865   */\n  dup2\n    /* \"#utility.yul\":3853:3897   */\n  add\n    /* \"#utility.yul\":4050:4052   */\n  0x20\n    /* \"#utility.yul\":4038:4048   */\n  dup6\n    /* \"#utility.yul\":4035:4053   */\n  lt\n    /* \"#utility.yul\":4032:4081   */\n  iszero\n  tag_84\n  jumpi\n    /* \"#utility.yul\":4071:4079   */\n  dup2\n    /* \"#utility.yul\":4056:4079   */\n  swap1\n  pop\n    /* \"#utility.yul\":4032:4081   */\ntag_84:\n    /* \"#utility.yul\":4094:4174   */\n  tag_85\n    /* \"#utility.yul\":4150:4172   */\n  tag_86\n    /* \"#utility.yul\":4168:4171   */\n  dup6\n    /* \"#utility.yul\":4150:4172   */\n  tag_20\n  jump\t// in\ntag_86:\n    /* \"#utility.yul\":4140:4148   */\n  dup4\n    /* \"#utility.yul\":4136:4173   */\n  add\n    /* \"#utility.yul\":4123:4134   */\n  dup3\n    /* \"#utility.yul\":4094:4174   */\n  tag_29\n  jump\t// in\ntag_85:\n    /* \"#utility.yul\":3753:4184   */\n  pop\n  pop\n    /* \"#utility.yul\":3738:4184   */\ntag_81:\n    /* \"#utility.yul\":3648:4191   */\n  pop\n  pop\n  pop\n  jump\t// out\n    /* \"#utility.yul\":4197:4314   */\ntag_31:\n    /* \"#utility.yul\":4251:4259   */\n  0x00\n    /* \"#utility.yul\":4301:4306   */\n  dup3\n    /* \"#utility.yul\":4295:4299   */\n  dup3\n    /* \"#utility.yul\":4291:4307   */\n  shr\n    /* \"#utility.yul\":4270:4307   */\n  swap1\n  pop\n    /* \"#utility.yul\":4197:4314   */\n  swap3\n  swap2\n  pop\n  pop\n  jump\t// out\n    /* \"#utility.yul\":4320:4489   */\ntag_32:\n    /* \"#utility.yul\":4364:4370   */\n  0x00\n    /* \"#utility.yul\":4397:4448   */\n  tag_89\n    /* \"#utility.yul\":4445:4446   */\n  0x00\n    /* \"#utility.yul\":4441:4447   */\n  not\n    /* \"#utility.yul\":4433:4438   */\n  dup5\n    /* \"#utility.yul\":4430:4431   */\n  0x08\n    /* \"#utility.yul\":4426:4439   */\n  mul\n    /* \"#utility.yul\":4397:4448   */\n  tag_31\n  jump\t// in\ntag_89:\n    /* \"#utility.yul\":4393:4449   */\n  not\n    /* \"#utility.yul\":4478:4482   */\n  dup1\n    /* \"#utility.yul\":4472:4476   */\n  dup4\n    /* \"#utility.yul\":4468:4483   */\n  and\n    /* \"#utility.yul\":4458:4483   */\n  swap2\n  pop\n    /* \"#utility.yul\":4371:4489   */\n  pop\n    /* \"#utility.yul\":4320:4489   */\n  swap3\n  swap2\n  pop\n  pop\n  jump\t// out\n    /* \"#utility.yul\":4494:4789   */\ntag_33:\n    /* \"#utility.yul\":4570:4574   */\n  0x00\n    /* \"#utility.yul\":4716:4745   */\n  tag_91\n    /* \"#utility.yul\":4741:4744   */\n  dup4\n    /* \"#utility.yul\":4735:4739   */\n  dup4\n    /* \"#utility.yul\":4716:4745   */\n  tag_32\n  jump\t// in\ntag_91:\n    /* \"#utility.yul\":4708:4745   */\n  swap2\n  pop\n    /* \"#utility.yul\":4778:4781   */\n  dup3\n    /* \"#utility.yul\":4775:4776   */\n  0x02\n    /* \"#utility.yul\":4771:4782   */\n  mul\n    /* \"#utility.yul\":4765:4769   */\n  dup3\n    /* \"#utility.yul\":4762:4783   */\n  or\n    /* \"#utility.yul\":4754:4783   */\n  swap1\n  pop\n    /* \"#utility.yul\":4494:4789   */\n  swap3\n  swap2\n  pop\n  pop\n  jump\t// out\n    /* \"#utility.yul\":4794:6189   */\ntag_7:\n    /* \"#utility.yul\":4911:4948   */\n  tag_93\n    /* \"#utility.yul\":4944:4947   */\n  dup3\n    /* \"#utility.yul\":4911:4948   */\n  tag_15\n  jump\t// in\ntag_93:\n    /* \"#utility.yul\":5013:5031   */\n  0xffffffffffffffff\n    /* \"#utility.yul\":5005:5011   */\n  dup2\n    /* \"#utility.yul\":5002:5032   */\n  gt\n    /* \"#utility.yul\":4999:5055   */\n  iszero\n  tag_94\n  jumpi\n    /* \"#utility.yul\":5035:5053   */\n  tag_95\n  tag_16\n  jump\t// in\ntag_95:\n    /* \"#utility.yul\":4999:5055   */\ntag_94:\n    /* \"#utility.yul\":5079:5117   */\n  tag_96\n    /* \"#utility.yul\":5111:5115   */\n  dup3\n    /* \"#utility.yul\":5105:5116   */\n  sload\n    /* \"#utility.yul\":5079:5117   */\n  tag_18\n  jump\t// in\ntag_96:\n    /* \"#utility.yul\":5164:5231   */\n  tag_97\n    /* \"#utility.yul\":5224:5230   */\n  dup3\n    /* \"#utility.yul\":5216:5222   */\n  dup3\n    /* \"#utility.yul\":5210:5214   */\n  dup6\n    /* \"#utility.yul\":5164:5231   */\n  tag_30\n  jump\t// in\ntag_97:\n    /* \"#utility.yul\":5258:5259   */\n  0x00\n    /* \"#utility.yul\":5282:5286   */\n  0x20\n    /* \"#utility.yul\":5269:5286   */\n  swap1\n  pop\n    /* \"#utility.yul\":5314:5316   */\n  0x1f\n    /* \"#utility.yul\":5306:5312   */\n  dup4\n    /* \"#utility.yul\":5303:5317   */\n  gt\n    /* \"#utility.yul\":5331:5332   */\n  0x01\n    /* \"#utility.yul\":5326:5944   */\n  dup2\n  eq\n  tag_99\n  jumpi\n    /* \"#utility.yul\":5988:5989   */\n  0x00\n    /* \"#utility.yul\":6005:6011   */\n  dup5\n    /* \"#utility.yul\":6002:6079   */\n  iszero\n  tag_100\n  jumpi\n    /* \"#utility.yul\":6054:6063   */\n  dup3\n    /* \"#utility.yul\":6049:6052   */\n  dup8\n    /* \"#utility.yul\":6045:6064   */\n  add\n    /* \"#utility.yul\":6039:6065   */\n  mload\n    /* \"#utility.yul\":6030:6065   */\n  swap1\n  pop\n    /* \"#utility.yul\":6002:6079   */\ntag_100:\n    /* \"#utility.yul\":6105:6172   */\n  tag_101\n    /* \"#utility.yul\":6165:6171   */\n  dup6\n    /* \"#utility.yul\":6158:6163   */\n  dup3\n    /* \"#utility.yul\":6105:6172   */\n  tag_33\n  jump\t// in\ntag_101:\n    /* \"#utility.yul\":6099:6103   */\n  dup7\n    /* \"#utility.yul\":6092:6173   */\n  sstore\n    /* \"#utility.yul\":5961:6183   */\n  pop\n    /* \"#utility.yul\":5296:6183   */\n  jump(tag_98)\n    /* \"#utility.yul\":5326:5944   */\ntag_99:\n    /* \"#utility.yul\":5378:5382   */\n  0x1f\n    /* \"#utility.yul\":5374:5383   */\n  not\n    /* \"#utility.yul\":5366:5372   */\n  dup5\n    /* \"#utility.yul\":5362:5384   */\n  and\n    /* \"#utility.yul\":5412:5449   */\n  tag_102\n    /* \"#utility.yul\":5444:5448   */\n  dup7\n    /* \"#utility.yul\":5412:5449   */\n  tag_19\n  jump\t// in\ntag_102:\n    /* \"#utility.yul\":5471:5472   */\n  0x00\n    /* \"#utility.yul\":5485:5693   */\ntag_103:\n    /* \"#utility.yul\":5499:5506   */\n  dup3\n    /* \"#utility.yul\":5496:5497   */\n  dup2\n    /* \"#utility.yul\":5493:5507   */\n  lt\n    /* \"#utility.yul\":5485:5693   */\n  iszero\n  tag_105\n  jumpi\n    /* \"#utility.yul\":5578:5587   */\n  dup5\n    /* \"#utility.yul\":5573:5576   */\n  dup10\n    /* \"#utility.yul\":5569:5588   */\n  add\n    /* \"#utility.yul\":5563:5589   */\n  mload\n    /* \"#utility.yul\":5555:5561   */\n  dup3\n    /* \"#utility.yul\":5548:5590   */\n  sstore\n    /* \"#utility.yul\":5629:5630   */\n  0x01\n    /* \"#utility.yul\":5621:5627   */\n  dup3\n    /* \"#utility.yul\":5617:5631   */\n  add\n    /* \"#utility.yul\":5607:5631   */\n  swap2\n  pop\n    /* \"#utility.yul\":5676:5678   */\n  0x20\n    /* \"#utility.yul\":5665:5674   */\n  dup6\n    /* \"#utility.yul\":5661:5679   */\n  add\n    /* \"#utility.yul\":5648:5679   */\n  swap5\n  pop\n    /* \"#utility.yul\":5522:5526   */\n  0x20\n    /* \"#utility.yul\":5519:5520   */\n  dup2\n    /* \"#utility.yul\":5515:5527   */\n  add\n    /* \"#utility.yul\":5510:5527   */\n  swap1\n  pop\n    /* \"#utility.yul\":5485:5693   */\n  jump(tag_103)\ntag_105:\n    /* \"#utility.yul\":5721:5727   */\n  dup7\n    /* \"#utility.yul\":5712:5719   */\n  dup4\n    /* \"#utility.yul\":5709:5728   */\n  lt\n    /* \"#utility.yul\":5706:5885   */\n  iszero\n  tag_106\n  jumpi\n    /* \"#utility.yul\":5779:5788   */\n  dup5\n    /* \"#utility.yul\":5774:5777   */\n  dup10\n    /* \"#utility.yul\":5770:5789   */\n  add\n    /* \"#utility.yul\":5764:5790   */\n  mload\n    /* \"#utility.yul\":5822:5870   */\n  tag_107\n    /* \"#utility.yul\":5864:5868   */\n  0x1f\n    /* \"#utility.yul\":5856:5862   */\n  dup10\n    /* \"#utility.yul\":5852:5869   */\n  and\n    /* \"#utility.yul\":5841:5850   */\n  dup3\n    /* \"#utility.yul\":5822:5870   */\n  tag_32\n  jump\t// in\ntag_107:\n    /* \"#utility.yul\":5814:5820   */\n  dup4\n    /* \"#utility.yul\":5807:5871   */\n  sstore\n    /* \"#utility.yul\":5729:5885   */\n  pop\n    /* \"#utility.yul\":5706:5885   */\ntag_106:\n    /* \"#utility.yul\":5931:5932   */\n  0x01\n    /* \"#utility.yul\":5927:5928   */\n  0x02\n    /* \"#utility.yul\":5919:5925   */\n  dup9\n    /* \"#utility.yul\":5915:5929   */\n  mul\n    /* \"#utility.yul\":5911:5933   */\n  add\n    /* \"#utility.yul\":5905:5909   */\n  dup9\n    /* \"#utility.yul\":5898:5934   */\n  sstore\n    /* \"#utility.yul\":5333:5944   */\n  pop\n  pop\n  pop\n    /* \"#utility.yul\":5296:6183   */\ntag_98:\n  pop\n    /* \"#utility.yul\":4886:6189   */\n  pop\n  pop\n  pop\n    /* \"#utility.yul\":4794:6189   */\n  pop\n  pop\n  jump\t// out\n    /* \"levelup/functions.sol\":78:1273  contract functions{... */\ntag_8:\n  dataSize(sub_0)\n  dup1\n  dataOffset(sub_0)\n  0x00\n  codecopy\n  0x00\n  return\nstop\n\nsub_0: assembly {\n        /* \"levelup/functions.sol\":78:1273  contract functions{... */\n      mstore(0x40, 0x80)\n      callvalue\n      dup1\n      iszero\n      tag_1\n      jumpi\n      0x00\n      dup1\n      revert\n    tag_1:\n      pop\n      jumpi(tag_2, lt(calldatasize, 0x04))\n      shr(0xe0, calldataload(0x00))\n      dup1\n      0x51f2e64a\n      gt\n      tag_14\n      jumpi\n      dup1\n      0x51f2e64a\n      eq\n      tag_8\n      jumpi\n      dup1\n      0x8da5cb5b\n      eq\n      tag_9\n      jumpi\n      dup1\n      0x9499443a\n      eq\n      tag_10\n      jumpi\n      dup1\n      0x967ff23e\n      eq\n      tag_11\n      jumpi\n      dup1\n      0xcf5e9734\n      eq\n      tag_12\n      jumpi\n      dup1\n      0xdde1bef5\n      eq\n      tag_13\n      jumpi\n      jump(tag_2)\n    tag_14:\n      dup1\n      0x1659544c\n      eq\n      tag_3\n      jumpi\n      dup1\n      0x260a80a7\n      eq\n      tag_4\n      jumpi\n      dup1\n      0x40caae06\n      eq\n      tag_5\n      jumpi\n      dup1\n      0x49a4e50d\n      eq\n      tag_6\n      jumpi\n      dup1\n      0x4a4d59fa\n      eq\n      tag_7\n      jumpi\n    tag_2:\n      0x00\n      dup1\n      revert\n        /* \"levelup/functions.sol\":687:746  function addStamina() public{... */\n    tag_3:\n      tag_15\n      tag_16\n      jump\t// in\n    tag_15:\n      stop\n        /* \"levelup/functions.sol\":1128:1264  function setSnippetFlag() public{... */\n    tag_4:\n      tag_17\n      tag_18\n      jump\t// in\n    tag_17:\n      stop\n        /* \"levelup/functions.sol\":1057:1120  function setOwner() public{... */\n    tag_5:\n      tag_19\n      tag_20\n      jump\t// in\n    tag_19:\n      stop\n        /* \"levelup/functions.sol\":444:523  function getPower() public view returns(uint256){... */\n    tag_6:\n      tag_21\n      tag_22\n      jump\t// in\n    tag_21:\n      mload(0x40)\n      tag_23\n      swap2\n      swap1\n      tag_24\n      jump\t// in\n    tag_23:\n      mload(0x40)\n      dup1\n      swap2\n      sub\n      swap1\n      return\n        /* \"levelup/functions.sol\":158:178  uint256 public power */\n    tag_7:\n      tag_25\n      tag_26\n      jump\t// in\n    tag_25:\n      mload(0x40)\n      tag_27\n      swap2\n      swap1\n      tag_24\n      jump\t// in\n    tag_27:\n      mload(0x40)\n      dup1\n      swap2\n      sub\n      swap1\n      return\n        /* \"levelup/functions.sol\":531:586  function addPower() public{... */\n    tag_8:\n      tag_28\n      tag_29\n      jump\t// in\n    tag_28:\n      stop\n        /* \"levelup/functions.sol\":131:151  address public owner */\n    tag_9:\n      tag_30\n      tag_31\n      jump\t// in\n    tag_30:\n      mload(0x40)\n      tag_32\n      swap2\n      swap1\n      tag_33\n      jump\t// in\n    tag_32:\n      mload(0x40)\n      dup1\n      swap2\n      sub\n      swap1\n      return\n        /* \"levelup/functions.sol\":754:813  function delStamina() public{... */\n    tag_10:\n      tag_34\n      tag_35\n      jump\t// in\n    tag_34:\n      stop\n        /* \"levelup/functions.sol\":355:436  function blocks() public view returns(uint){... */\n    tag_11:\n      tag_36\n      tag_37\n      jump\t// in\n    tag_36:\n      mload(0x40)\n      tag_38\n      swap2\n      swap1\n      tag_24\n      jump\t// in\n    tag_38:\n      mload(0x40)\n      dup1\n      swap2\n      sub\n      swap1\n      return\n        /* \"levelup/functions.sol\":821:891  function addStaminaToPower() public{... */\n    tag_12:\n      tag_39\n      tag_40\n      jump\t// in\n    tag_39:\n      stop\n        /* \"levelup/functions.sol\":185:207  uint256 public stamina */\n    tag_13:\n      tag_41\n      tag_42\n      jump\t// in\n    tag_41:\n      mload(0x40)\n      tag_43\n      swap2\n      swap1\n      tag_24\n      jump\t// in\n    tag_43:\n      mload(0x40)\n      dup1\n      swap2\n      sub\n      swap1\n      return\n        /* \"levelup/functions.sol\":687:746  function addStamina() public{... */\n    tag_16:\n        /* \"levelup/functions.sol\":737:738  1 */\n      0x01\n        /* \"levelup/functions.sol\":726:733  stamina */\n      0x03\n      0x00\n        /* \"levelup/functions.sol\":726:738  stamina += 1 */\n      dup3\n      dup3\n      sload\n      tag_45\n      swap2\n      swap1\n      tag_46\n      jump\t// in\n    tag_45:\n      swap3\n      pop\n      pop\n      dup2\n      swap1\n      sstore\n      pop\n        /* \"levelup/functions.sol\":687:746  function addStamina() public{... */\n      jump\t// out\n        /* \"levelup/functions.sol\":1128:1264  function setSnippetFlag() public{... */\n    tag_18:\n        /* \"levelup/functions.sol\":1188:1198  msg.sender */\n      caller\n        /* \"levelup/functions.sol\":1179:1198  owner == msg.sender */\n      0xffffffffffffffffffffffffffffffffffffffff\n      and\n        /* \"levelup/functions.sol\":1179:1184  owner */\n      0x01\n      0x00\n      swap1\n      sload\n      swap1\n      0x0100\n      exp\n      swap1\n      div\n      0xffffffffffffffffffffffffffffffffffffffff\n      and\n        /* \"levelup/functions.sol\":1179:1198  owner == msg.sender */\n      0xffffffffffffffffffffffffffffffffffffffff\n      and\n      eq\n        /* \"levelup/functions.sol\":1171:1221  require(owner == msg.sender,\"No eres propietario\") */\n      tag_48\n      jumpi\n      mload(0x40)\n      0x08c379a000000000000000000000000000000000000000000000000000000000\n      dup2\n      mstore\n      0x04\n      add\n      tag_49\n      swap1\n      tag_50\n      jump\t// in\n    tag_49:\n      mload(0x40)\n      dup1\n      swap2\n      sub\n      swap1\n      revert\n    tag_48:\n        /* \"levelup/functions.sol\":1247:1256  getFlag() */\n      tag_51\n        /* \"levelup/functions.sol\":1247:1254  getFlag */\n      tag_52\n        /* \"levelup/functions.sol\":1247:1256  getFlag() */\n      jump\t// in\n    tag_51:\n        /* \"levelup/functions.sol\":1232:1244  snippet_flag */\n      0x00\n        /* \"levelup/functions.sol\":1232:1256  snippet_flag = getFlag() */\n      swap1\n      dup2\n      tag_53\n      swap2\n      swap1\n      tag_54\n      jump\t// in\n    tag_53:\n      pop\n        /* \"levelup/functions.sol\":1128:1264  function setSnippetFlag() public{... */\n      jump\t// out\n        /* \"levelup/functions.sol\":1057:1120  function setOwner() public{... */\n    tag_20:\n        /* \"levelup/functions.sol\":1102:1112  msg.sender */\n      caller\n        /* \"levelup/functions.sol\":1094:1099  owner */\n      0x01\n      0x00\n        /* \"levelup/functions.sol\":1094:1112  owner = msg.sender */\n      0x0100\n      exp\n      dup2\n      sload\n      dup2\n      0xffffffffffffffffffffffffffffffffffffffff\n      mul\n      not\n      and\n      swap1\n      dup4\n      0xffffffffffffffffffffffffffffffffffffffff\n      and\n      mul\n      or\n      swap1\n      sstore\n      pop\n        /* \"levelup/functions.sol\":1057:1120  function setOwner() public{... */\n      jump\t// out\n        /* \"levelup/functions.sol\":444:523  function getPower() public view returns(uint256){... */\n    tag_22:\n        /* \"levelup/functions.sol\":484:491  uint256 */\n      0x00\n        /* \"levelup/functions.sol\":510:515  power */\n      sload(0x02)\n        /* \"levelup/functions.sol\":503:515  return power */\n      swap1\n      pop\n        /* \"levelup/functions.sol\":444:523  function getPower() public view returns(uint256){... */\n      swap1\n      jump\t// out\n        /* \"levelup/functions.sol\":158:178  uint256 public power */\n    tag_26:\n      sload(0x02)\n      dup2\n      jump\t// out\n        /* \"levelup/functions.sol\":531:586  function addPower() public{... */\n    tag_29:\n        /* \"levelup/functions.sol\":577:578  5 */\n      0x05\n        /* \"levelup/functions.sol\":568:573  power */\n      0x02\n      0x00\n        /* \"levelup/functions.sol\":568:578  power += 5 */\n      dup3\n      dup3\n      sload\n      tag_58\n      swap2\n      swap1\n      tag_46\n      jump\t// in\n    tag_58:\n      swap3\n      pop\n      pop\n      dup2\n      swap1\n      sstore\n      pop\n        /* \"levelup/functions.sol\":531:586  function addPower() public{... */\n      jump\t// out\n        /* \"levelup/functions.sol\":131:151  address public owner */\n    tag_31:\n      0x01\n      0x00\n      swap1\n      sload\n      swap1\n      0x0100\n      exp\n      swap1\n      div\n      0xffffffffffffffffffffffffffffffffffffffff\n      and\n      dup2\n      jump\t// out\n        /* \"levelup/functions.sol\":754:813  function delStamina() public{... */\n    tag_35:\n        /* \"levelup/functions.sol\":803:804  1 */\n      0x01\n        /* \"levelup/functions.sol\":793:800  stamina */\n      0x03\n      0x00\n        /* \"levelup/functions.sol\":793:804  stamina -=1 */\n      dup3\n      dup3\n      sload\n      tag_60\n      swap2\n      swap1\n      tag_61\n      jump\t// in\n    tag_60:\n      swap3\n      pop\n      pop\n      dup2\n      swap1\n      sstore\n      pop\n        /* \"levelup/functions.sol\":754:813  function delStamina() public{... */\n      jump\t// out\n        /* \"levelup/functions.sol\":355:436  function blocks() public view returns(uint){... */\n    tag_37:\n        /* \"levelup/functions.sol\":393:397  uint */\n      0x00\n        /* \"levelup/functions.sol\":416:428  block.number */\n      number\n        /* \"levelup/functions.sol\":409:428  return block.number */\n      swap1\n      pop\n        /* \"levelup/functions.sol\":355:436  function blocks() public view returns(uint){... */\n      swap1\n      jump\t// out\n        /* \"levelup/functions.sol\":821:891  function addStaminaToPower() public{... */\n    tag_40:\n        /* \"levelup/functions.sol\":876:883  stamina */\n      sload(0x03)\n        /* \"levelup/functions.sol\":867:872  power */\n      0x02\n      0x00\n        /* \"levelup/functions.sol\":867:883  power += stamina */\n      dup3\n      dup3\n      sload\n      tag_64\n      swap2\n      swap1\n      tag_46\n      jump\t// in\n    tag_64:\n      swap3\n      pop\n      pop\n      dup2\n      swap1\n      sstore\n      pop\n        /* \"levelup/functions.sol\":821:891  function addStaminaToPower() public{... */\n      jump\t// out\n        /* \"levelup/functions.sol\":185:207  uint256 public stamina */\n    tag_42:\n      sload(0x03)\n      dup2\n      jump\t// out\n        /* \"levelup/functions.sol\":899:1049  function getFlag() private view returns(string memory){... */\n    tag_52:\n        /* \"levelup/functions.sol\":939:952  string memory */\n      0x60\n        /* \"levelup/functions.sol\":981:991  msg.sender */\n      caller\n        /* \"levelup/functions.sol\":972:991  owner == msg.sender */\n      0xffffffffffffffffffffffffffffffffffffffff\n      and\n        /* \"levelup/functions.sol\":972:977  owner */\n      0x01\n      0x00\n      swap1\n      sload\n      swap1\n      0x0100\n      exp\n      swap1\n      div\n      0xffffffffffffffffffffffffffffffffffffffff\n      and\n        /* \"levelup/functions.sol\":972:991  owner == msg.sender */\n      0xffffffffffffffffffffffffffffffffffffffff\n      and\n      eq\n        /* \"levelup/functions.sol\":964:1014  require(owner == msg.sender,\"No eres propietario\") */\n      tag_66\n      jumpi\n      mload(0x40)\n      0x08c379a000000000000000000000000000000000000000000000000000000000\n      dup2\n      mstore\n      0x04\n      add\n      tag_67\n      swap1\n      tag_50\n      jump\t// in\n    tag_67:\n      mload(0x40)\n      dup1\n      swap2\n      sub\n      swap1\n      revert\n    tag_66:\n        /* \"levelup/functions.sol\":1032:1041  getFlag() */\n      tag_68\n        /* \"levelup/functions.sol\":1032:1039  getFlag */\n      tag_52\n        /* \"levelup/functions.sol\":1032:1041  getFlag() */\n      jump\t// in\n    tag_68:\n        /* \"levelup/functions.sol\":1025:1041  return getFlag() */\n      swap1\n      pop\n        /* \"levelup/functions.sol\":899:1049  function getFlag() private view returns(string memory){... */\n      swap1\n      jump\t// out\n        /* \"#utility.yul\":7:84   */\n    tag_69:\n        /* \"#utility.yul\":44:51   */\n      0x00\n        /* \"#utility.yul\":73:78   */\n      dup2\n        /* \"#utility.yul\":62:78   */\n      swap1\n      pop\n        /* \"#utility.yul\":7:84   */\n      swap2\n      swap1\n      pop\n      jump\t// out\n        /* \"#utility.yul\":90:208   */\n    tag_70:\n        /* \"#utility.yul\":177:201   */\n      tag_100\n        /* \"#utility.yul\":195:200   */\n      dup2\n        /* \"#utility.yul\":177:201   */\n      tag_69\n      jump\t// in\n    tag_100:\n        /* \"#utility.yul\":172:175   */\n      dup3\n        /* \"#utility.yul\":165:202   */\n      mstore\n        /* \"#utility.yul\":90:208   */\n      pop\n      pop\n      jump\t// out\n        /* \"#utility.yul\":214:436   */\n    tag_24:\n        /* \"#utility.yul\":307:311   */\n      0x00\n        /* \"#utility.yul\":345:347   */\n      0x20\n        /* \"#utility.yul\":334:343   */\n      dup3\n        /* \"#utility.yul\":330:348   */\n      add\n        /* \"#utility.yul\":322:348   */\n      swap1\n      pop\n        /* \"#utility.yul\":358:429   */\n      tag_102\n        /* \"#utility.yul\":426:427   */\n      0x00\n        /* \"#utility.yul\":415:424   */\n      dup4\n        /* \"#utility.yul\":411:428   */\n      add\n        /* \"#utility.yul\":402:408   */\n      dup5\n        /* \"#utility.yul\":358:429   */\n      tag_70\n      jump\t// in\n    tag_102:\n        /* \"#utility.yul\":214:436   */\n      swap3\n      swap2\n      pop\n      pop\n      jump\t// out\n        /* \"#utility.yul\":442:568   */\n    tag_71:\n        /* \"#utility.yul\":479:486   */\n      0x00\n        /* \"#utility.yul\":519:561   */\n      0xffffffffffffffffffffffffffffffffffffffff\n        /* \"#utility.yul\":512:517   */\n      dup3\n        /* \"#utility.yul\":508:562   */\n      and\n        /* \"#utility.yul\":497:562   */\n      swap1\n      pop\n        /* \"#utility.yul\":442:568   */\n      swap2\n      swap1\n      pop\n      jump\t// out\n        /* \"#utility.yul\":574:670   */\n    tag_72:\n        /* \"#utility.yul\":611:618   */\n      0x00\n        /* \"#utility.yul\":640:664   */\n      tag_105\n        /* \"#utility.yul\":658:663   */\n      dup3\n        /* \"#utility.yul\":640:664   */\n      tag_71\n      jump\t// in\n    tag_105:\n        /* \"#utility.yul\":629:664   */\n      swap1\n      pop\n        /* \"#utility.yul\":574:670   */\n      swap2\n      swap1\n      pop\n      jump\t// out\n        /* \"#utility.yul\":676:794   */\n    tag_73:\n        /* \"#utility.yul\":763:787   */\n      tag_107\n        /* \"#utility.yul\":781:786   */\n      dup2\n        /* \"#utility.yul\":763:787   */\n      tag_72\n      jump\t// in\n    tag_107:\n        /* \"#utility.yul\":758:761   */\n      dup3\n        /* \"#utility.yul\":751:788   */\n      mstore\n        /* \"#utility.yul\":676:794   */\n      pop\n      pop\n      jump\t// out\n        /* \"#utility.yul\":800:1022   */\n    tag_33:\n        /* \"#utility.yul\":893:897   */\n      0x00\n        /* \"#utility.yul\":931:933   */\n      0x20\n        /* \"#utility.yul\":920:929   */\n      dup3\n        /* \"#utility.yul\":916:934   */\n      add\n        /* \"#utility.yul\":908:934   */\n      swap1\n      pop\n        /* \"#utility.yul\":944:1015   */\n      tag_109\n        /* \"#utility.yul\":1012:1013   */\n      0x00\n        /* \"#utility.yul\":1001:1010   */\n      dup4\n        /* \"#utility.yul\":997:1014   */\n      add\n        /* \"#utility.yul\":988:994   */\n      dup5\n        /* \"#utility.yul\":944:1015   */\n      tag_73\n      jump\t// in\n    tag_109:\n        /* \"#utility.yul\":800:1022   */\n      swap3\n      swap2\n      pop\n      pop\n      jump\t// out\n        /* \"#utility.yul\":1028:1208   */\n    tag_74:\n        /* \"#utility.yul\":1076:1153   */\n      0x4e487b7100000000000000000000000000000000000000000000000000000000\n        /* \"#utility.yul\":1073:1074   */\n      0x00\n        /* \"#utility.yul\":1066:1154   */\n      mstore\n        /* \"#utility.yul\":1173:1177   */\n      0x11\n        /* \"#utility.yul\":1170:1171   */\n      0x04\n        /* \"#utility.yul\":1163:1178   */\n      mstore\n        /* \"#utility.yul\":1197:1201   */\n      0x24\n        /* \"#utility.yul\":1194:1195   */\n      0x00\n        /* \"#utility.yul\":1187:1202   */\n      revert\n        /* \"#utility.yul\":1214:1405   */\n    tag_46:\n        /* \"#utility.yul\":1254:1257   */\n      0x00\n        /* \"#utility.yul\":1273:1293   */\n      tag_112\n        /* \"#utility.yul\":1291:1292   */\n      dup3\n        /* \"#utility.yul\":1273:1293   */\n      tag_69\n      jump\t// in\n    tag_112:\n        /* \"#utility.yul\":1268:1293   */\n      swap2\n      pop\n        /* \"#utility.yul\":1307:1327   */\n      tag_113\n        /* \"#utility.yul\":1325:1326   */\n      dup4\n        /* \"#utility.yul\":1307:1327   */\n      tag_69\n      jump\t// in\n    tag_113:\n        /* \"#utility.yul\":1302:1327   */\n      swap3\n      pop\n        /* \"#utility.yul\":1350:1351   */\n      dup3\n        /* \"#utility.yul\":1347:1348   */\n      dup3\n        /* \"#utility.yul\":1343:1352   */\n      add\n        /* \"#utility.yul\":1336:1352   */\n      swap1\n      pop\n        /* \"#utility.yul\":1371:1374   */\n      dup1\n        /* \"#utility.yul\":1368:1369   */\n      dup3\n        /* \"#utility.yul\":1365:1375   */\n      gt\n        /* \"#utility.yul\":1362:1398   */\n      iszero\n      tag_114\n      jumpi\n        /* \"#utility.yul\":1378:1396   */\n      tag_115\n      tag_74\n      jump\t// in\n    tag_115:\n        /* \"#utility.yul\":1362:1398   */\n    tag_114:\n        /* \"#utility.yul\":1214:1405   */\n      swap3\n      swap2\n      pop\n      pop\n      jump\t// out\n        /* \"#utility.yul\":1411:1580   */\n    tag_75:\n        /* \"#utility.yul\":1495:1506   */\n      0x00\n        /* \"#utility.yul\":1529:1535   */\n      dup3\n        /* \"#utility.yul\":1524:1527   */\n      dup3\n        /* \"#utility.yul\":1517:1536   */\n      mstore\n        /* \"#utility.yul\":1569:1573   */\n      0x20\n        /* \"#utility.yul\":1564:1567   */\n      dup3\n        /* \"#utility.yul\":1560:1574   */\n      add\n        /* \"#utility.yul\":1545:1574   */\n      swap1\n      pop\n        /* \"#utility.yul\":1411:1580   */\n      swap3\n      swap2\n      pop\n      pop\n      jump\t// out\n        /* \"#utility.yul\":1586:1755   */\n    tag_76:\n        /* \"#utility.yul\":1726:1747   */\n      0x4e6f20657265732070726f706965746172696f00000000000000000000000000\n        /* \"#utility.yul\":1722:1723   */\n      0x00\n        /* \"#utility.yul\":1714:1720   */\n      dup3\n        /* \"#utility.yul\":1710:1724   */\n      add\n        /* \"#utility.yul\":1703:1748   */\n      mstore\n        /* \"#utility.yul\":1586:1755   */\n      pop\n      jump\t// out\n        /* \"#utility.yul\":1761:2127   */\n    tag_77:\n        /* \"#utility.yul\":1903:1906   */\n      0x00\n        /* \"#utility.yul\":1924:1991   */\n      tag_119\n        /* \"#utility.yul\":1988:1990   */\n      0x13\n        /* \"#utility.yul\":1983:1986   */\n      dup4\n        /* \"#utility.yul\":1924:1991   */\n      tag_75\n      jump\t// in\n    tag_119:\n        /* \"#utility.yul\":1917:1991   */\n      swap2\n      pop\n        /* \"#utility.yul\":2000:2093   */\n      tag_120\n        /* \"#utility.yul\":2089:2092   */\n      dup3\n        /* \"#utility.yul\":2000:2093   */\n      tag_76\n      jump\t// in\n    tag_120:\n        /* \"#utility.yul\":2118:2120   */\n      0x20\n        /* \"#utility.yul\":2113:2116   */\n      dup3\n        /* \"#utility.yul\":2109:2121   */\n      add\n        /* \"#utility.yul\":2102:2121   */\n      swap1\n      pop\n        /* \"#utility.yul\":1761:2127   */\n      swap2\n      swap1\n      pop\n      jump\t// out\n        /* \"#utility.yul\":2133:2552   */\n    tag_50:\n        /* \"#utility.yul\":2299:2303   */\n      0x00\n        /* \"#utility.yul\":2337:2339   */\n      0x20\n        /* \"#utility.yul\":2326:2335   */\n      dup3\n        /* \"#utility.yul\":2322:2340   */\n      add\n        /* \"#utility.yul\":2314:2340   */\n      swap1\n      pop\n        /* \"#utility.yul\":2386:2395   */\n      dup2\n        /* \"#utility.yul\":2380:2384   */\n      dup2\n        /* \"#utility.yul\":2376:2396   */\n      sub\n        /* \"#utility.yul\":2372:2373   */\n      0x00\n        /* \"#utility.yul\":2361:2370   */\n      dup4\n        /* \"#utility.yul\":2357:2374   */\n      add\n        /* \"#utility.yul\":2350:2397   */\n      mstore\n        /* \"#utility.yul\":2414:2545   */\n      tag_122\n        /* \"#utility.yul\":2540:2544   */\n      dup2\n        /* \"#utility.yul\":2414:2545   */\n      tag_77\n      jump\t// in\n    tag_122:\n        /* \"#utility.yul\":2406:2545   */\n      swap1\n      pop\n        /* \"#utility.yul\":2133:2552   */\n      swap2\n      swap1\n      pop\n      jump\t// out\n        /* \"#utility.yul\":2558:2657   */\n    tag_78:\n        /* \"#utility.yul\":2610:2616   */\n      0x00\n        /* \"#utility.yul\":2644:2649   */\n      dup2\n        /* \"#utility.yul\":2638:2650   */\n      mload\n        /* \"#utility.yul\":2628:2650   */\n      swap1\n      pop\n        /* \"#utility.yul\":2558:2657   */\n      swap2\n      swap1\n      pop\n      jump\t// out\n        /* \"#utility.yul\":2663:2843   */\n    tag_79:\n        /* \"#utility.yul\":2711:2788   */\n      0x4e487b7100000000000000000000000000000000000000000000000000000000\n        /* \"#utility.yul\":2708:2709   */\n      0x00\n        /* \"#utility.yul\":2701:2789   */\n      mstore\n        /* \"#utility.yul\":2808:2812   */\n      0x41\n        /* \"#utility.yul\":2805:2806   */\n      0x04\n        /* \"#utility.yul\":2798:2813   */\n      mstore\n        /* \"#utility.yul\":2832:2836   */\n      0x24\n        /* \"#utility.yul\":2829:2830   */\n      0x00\n        /* \"#utility.yul\":2822:2837   */\n      revert\n        /* \"#utility.yul\":2849:3029   */\n    tag_80:\n        /* \"#utility.yul\":2897:2974   */\n      0x4e487b7100000000000000000000000000000000000000000000000000000000\n        /* \"#utility.yul\":2894:2895   */\n      0x00\n        /* \"#utility.yul\":2887:2975   */\n      mstore\n        /* \"#utility.yul\":2994:2998   */\n      0x22\n        /* \"#utility.yul\":2991:2992   */\n      0x04\n        /* \"#utility.yul\":2984:2999   */\n      mstore\n        /* \"#utility.yul\":3018:3022   */\n      0x24\n        /* \"#utility.yul\":3015:3016   */\n      0x00\n        /* \"#utility.yul\":3008:3023   */\n      revert\n        /* \"#utility.yul\":3035:3355   */\n    tag_81:\n        /* \"#utility.yul\":3079:3085   */\n      0x00\n        /* \"#utility.yul\":3116:3117   */\n      0x02\n        /* \"#utility.yul\":3110:3114   */\n      dup3\n        /* \"#utility.yul\":3106:3118   */\n      div\n        /* \"#utility.yul\":3096:3118   */\n      swap1\n      pop\n        /* \"#utility.yul\":3163:3164   */\n      0x01\n        /* \"#utility.yul\":3157:3161   */\n      dup3\n        /* \"#utility.yul\":3153:3165   */\n      and\n        /* \"#utility.yul\":3184:3202   */\n      dup1\n        /* \"#utility.yul\":3174:3255   */\n      tag_127\n      jumpi\n        /* \"#utility.yul\":3240:3244   */\n      0x7f\n        /* \"#utility.yul\":3232:3238   */\n      dup3\n        /* \"#utility.yul\":3228:3245   */\n      and\n        /* \"#utility.yul\":3218:3245   */\n      swap2\n      pop\n        /* \"#utility.yul\":3174:3255   */\n    tag_127:\n        /* \"#utility.yul\":3302:3304   */\n      0x20\n        /* \"#utility.yul\":3294:3300   */\n      dup3\n        /* \"#utility.yul\":3291:3305   */\n      lt\n        /* \"#utility.yul\":3271:3289   */\n      dup2\n        /* \"#utility.yul\":3268:3306   */\n      sub\n        /* \"#utility.yul\":3265:3349   */\n      tag_128\n      jumpi\n        /* \"#utility.yul\":3321:3339   */\n      tag_129\n      tag_80\n      jump\t// in\n    tag_129:\n        /* \"#utility.yul\":3265:3349   */\n    tag_128:\n        /* \"#utility.yul\":3086:3355   */\n      pop\n        /* \"#utility.yul\":3035:3355   */\n      swap2\n      swap1\n      pop\n      jump\t// out\n        /* \"#utility.yul\":3361:3502   */\n    tag_82:\n        /* \"#utility.yul\":3410:3414   */\n      0x00\n        /* \"#utility.yul\":3433:3436   */\n      dup2\n        /* \"#utility.yul\":3425:3436   */\n      swap1\n      pop\n        /* \"#utility.yul\":3456:3459   */\n      dup2\n        /* \"#utility.yul\":3453:3454   */\n      0x00\n        /* \"#utility.yul\":3446:3460   */\n      mstore\n        /* \"#utility.yul\":3490:3494   */\n      0x20\n        /* \"#utility.yul\":3487:3488   */\n      0x00\n        /* \"#utility.yul\":3477:3495   */\n      keccak256\n        /* \"#utility.yul\":3469:3495   */\n      swap1\n      pop\n        /* \"#utility.yul\":3361:3502   */\n      swap2\n      swap1\n      pop\n      jump\t// out\n        /* \"#utility.yul\":3508:3601   */\n    tag_83:\n        /* \"#utility.yul\":3545:3551   */\n      0x00\n        /* \"#utility.yul\":3592:3594   */\n      0x20\n        /* \"#utility.yul\":3587:3589   */\n      0x1f\n        /* \"#utility.yul\":3580:3585   */\n      dup4\n        /* \"#utility.yul\":3576:3590   */\n      add\n        /* \"#utility.yul\":3572:3595   */\n      div\n        /* \"#utility.yul\":3562:3595   */\n      swap1\n      pop\n        /* \"#utility.yul\":3508:3601   */\n      swap2\n      swap1\n      pop\n      jump\t// out\n        /* \"#utility.yul\":3607:3714   */\n    tag_84:\n        /* \"#utility.yul\":3651:3659   */\n      0x00\n        /* \"#utility.yul\":3701:3706   */\n      dup3\n        /* \"#utility.yul\":3695:3699   */\n      dup3\n        /* \"#utility.yul\":3691:3707   */\n      shl\n        /* \"#utility.yul\":3670:3707   */\n      swap1\n      pop\n        /* \"#utility.yul\":3607:3714   */\n      swap3\n      swap2\n      pop\n      pop\n      jump\t// out\n        /* \"#utility.yul\":3720:4113   */\n    tag_85:\n        /* \"#utility.yul\":3789:3795   */\n      0x00\n        /* \"#utility.yul\":3839:3840   */\n      0x08\n        /* \"#utility.yul\":3827:3837   */\n      dup4\n        /* \"#utility.yul\":3823:3841   */\n      mul\n        /* \"#utility.yul\":3862:3959   */\n      tag_134\n        /* \"#utility.yul\":3892:3958   */\n      0xffffffffffffffffffffffffffffffffffffffffffffffffffffffffffffffff\n        /* \"#utility.yul\":3881:3890   */\n      dup3\n        /* \"#utility.yul\":3862:3959   */\n      tag_84\n      jump\t// in\n    tag_134:\n        /* \"#utility.yul\":3980:4019   */\n      tag_135\n        /* \"#utility.yul\":4010:4018   */\n      dup7\n        /* \"#utility.yul\":3999:4008   */\n      dup4\n        /* \"#utility.yul\":3980:4019   */\n      tag_84\n      jump\t// in\n    tag_135:\n        /* \"#utility.yul\":3968:4019   */\n      swap6\n      pop\n        /* \"#utility.yul\":4052:4056   */\n      dup1\n        /* \"#utility.yul\":4048:4057   */\n      not\n        /* \"#utility.yul\":4041:4046   */\n      dup5\n        /* \"#utility.yul\":4037:4058   */\n      and\n        /* \"#utility.yul\":4028:4058   */\n      swap4\n      pop\n        /* \"#utility.yul\":4101:4105   */\n      dup1\n        /* \"#utility.yul\":4091:4099   */\n      dup7\n        /* \"#utility.yul\":4087:4106   */\n      and\n        /* \"#utility.yul\":4080:4085   */\n      dup5\n        /* \"#utility.yul\":4077:4107   */\n      or\n        /* \"#utility.yul\":4067:4107   */\n      swap3\n      pop\n        /* \"#utility.yul\":3796:4113   */\n      pop\n      pop\n        /* \"#utility.yul\":3720:4113   */\n      swap4\n      swap3\n      pop\n      pop\n      pop\n      jump\t// out\n        /* \"#utility.yul\":4119:4179   */\n    tag_86:\n        /* \"#utility.yul\":4147:4150   */\n      0x00\n        /* \"#utility.yul\":4168:4173   */\n      dup2\n        /* \"#utility.yul\":4161:4173   */\n      swap1\n      pop\n        /* \"#utility.yul\":4119:4179   */\n      swap2\n      swap1\n      pop\n      jump\t// out\n        /* \"#utility.yul\":4185:4327   */\n    tag_87:\n        /* \"#utility.yul\":4235:4244   */\n      0x00\n        /* \"#utility.yul\":4268:4321   */\n      tag_138\n        /* \"#utility.yul\":4286:4320   */\n      tag_139\n        /* \"#utility.yul\":4295:4319   */\n      tag_140\n        /* \"#utility.yul\":4313:4318   */\n      dup5\n        /* \"#utility.yul\":4295:4319   */\n      tag_69\n      jump\t// in\n    tag_140:\n        /* \"#utility.yul\":4286:4320   */\n      tag_86\n      jump\t// in\n    tag_139:\n        /* \"#utility.yul\":4268:4321   */\n      tag_69\n      jump\t// in\n    tag_138:\n        /* \"#utility.yul\":4255:4321   */\n      swap1\n      pop\n        /* \"#utility.yul\":4185:4327   */\n      swap2\n      swap1\n      pop\n      jump\t// out\n        /* \"#utility.yul\":4333:4408   */\n    tag_88:\n        /* \"#utility.yul\":4376:4379   */\n      0x00\n        /* \"#utility.yul\":4397:4402   */\n      dup2\n        /* \"#utility.yul\":4390:4402   */\n      swap1\n      pop\n        /* \"#utility.yul\":4333:4408   */\n      swap2\n      swap1\n      pop\n      jump\t// out\n        /* \"#utility.yul\":4414:4683   */\n    tag_89:\n        /* \"#utility.yul\":4524:4563   */\n      tag_143\n        /* \"#utility.yul\":4555:4562   */\n      dup4\n        /* \"#utility.yul\":4524:4563   */\n      tag_87\n      jump\t// in\n    tag_143:\n        /* \"#utility.yul\":4585:4676   */\n      tag_144\n        /* \"#utility.yul\":4634:4675   */\n      tag_145\n        /* \"#utility.yul\":4658:4674   */\n      dup3\n        /* \"#utility.yul\":4634:4675   */\n      tag_88\n      jump\t// in\n    tag_145:\n        /* \"#utility.yul\":4626:4632   */\n      dup5\n        /* \"#utility.yul\":4619:4623   */\n      dup5\n        /* \"#utility.yul\":4613:4624   */\n      sload\n        /* \"#utility.yul\":4585:4676   */\n      tag_85\n      jump\t// in\n    tag_144:\n        /* \"#utility.yul\":4579:4583   */\n      dup3\n        /* \"#utility.yul\":4572:4677   */\n      sstore\n        /* \"#utility.yul\":4490:4683   */\n      pop\n        /* \"#utility.yul\":4414:4683   */\n      pop\n      pop\n      pop\n      jump\t// out\n        /* \"#utility.yul\":4689:4762   */\n    tag_90:\n        /* \"#utility.yul\":4734:4737   */\n      0x00\n        /* \"#utility.yul\":4689:4762   */\n      swap1\n      jump\t// out\n        /* \"#utility.yul\":4768:4957   */\n    tag_91:\n        /* \"#utility.yul\":4845:4877   */\n      tag_148\n      tag_90\n      jump\t// in\n    tag_148:\n        /* \"#utility.yul\":4886:4951   */\n      tag_149\n        /* \"#utility.yul\":4944:4950   */\n      dup2\n        /* \"#utility.yul\":4936:4942   */\n      dup5\n        /* \"#utility.yul\":4930:4934   */\n      dup5\n        /* \"#utility.yul\":4886:4951   */\n      tag_89\n      jump\t// in\n    tag_149:\n        /* \"#utility.yul\":4821:4957   */\n      pop\n        /* \"#utility.yul\":4768:4957   */\n      pop\n      pop\n      jump\t// out\n        /* \"#utility.yul\":4963:5149   */\n    tag_92:\n        /* \"#utility.yul\":5023:5143   */\n    tag_151:\n        /* \"#utility.yul\":5040:5043   */\n      dup2\n        /* \"#utility.yul\":5033:5038   */\n      dup2\n        /* \"#utility.yul\":5030:5044   */\n      lt\n        /* \"#utility.yul\":5023:5143   */\n      iszero\n      tag_153\n      jumpi\n        /* \"#utility.yul\":5094:5133   */\n      tag_154\n        /* \"#utility.yul\":5131:5132   */\n      0x00\n        /* \"#utility.yul\":5124:5129   */\n      dup3\n        /* \"#utility.yul\":5094:5133   */\n      tag_91\n      jump\t// in\n    tag_154:\n        /* \"#utility.yul\":5067:5068   */\n      0x01\n        /* \"#utility.yul\":5060:5065   */\n      dup2\n        /* \"#utility.yul\":5056:5069   */\n      add\n        /* \"#utility.yul\":5047:5069   */\n      swap1\n      pop\n        /* \"#utility.yul\":5023:5143   */\n      jump(tag_151)\n    tag_153:\n        /* \"#utility.yul\":4963:5149   */\n      pop\n      pop\n      jump\t// out\n        /* \"#utility.yul\":5155:5698   */\n    tag_93:\n        /* \"#utility.yul\":5256:5258   */\n      0x1f\n        /* \"#utility.yul\":5251:5254   */\n      dup3\n        /* \"#utility.yul\":5248:5259   */\n      gt\n        /* \"#utility.yul\":5245:5691   */\n      iszero\n      tag_156\n      jumpi\n        /* \"#utility.yul\":5290:5328   */\n      tag_157\n        /* \"#utility.yul\":5322:5327   */\n      dup2\n        /* \"#utility.yul\":5290:5328   */\n      tag_82\n      jump\t// in\n    tag_157:\n        /* \"#utility.yul\":5374:5403   */\n      tag_158\n        /* \"#utility.yul\":5392:5402   */\n      dup5\n        /* \"#utility.yul\":5374:5403   */\n      tag_83\n      jump\t// in\n    tag_158:\n        /* \"#utility.yul\":5364:5372   */\n      dup2\n        /* \"#utility.yul\":5360:5404   */\n      add\n        /* \"#utility.yul\":5557:5559   */\n      0x20\n        /* \"#utility.yul\":5545:5555   */\n      dup6\n        /* \"#utility.yul\":5542:5560   */\n      lt\n        /* \"#utility.yul\":5539:5588   */\n      iszero\n      tag_159\n      jumpi\n        /* \"#utility.yul\":5578:5586   */\n      dup2\n        /* \"#utility.yul\":5563:5586   */\n      swap1\n      pop\n        /* \"#utility.yul\":5539:5588   */\n    tag_159:\n        /* \"#utility.yul\":5601:5681   */\n      tag_160\n        /* \"#utility.yul\":5657:5679   */\n      tag_161\n        /* \"#utility.yul\":5675:5678   */\n      dup6\n        /* \"#utility.yul\":5657:5679   */\n      tag_83\n      jump\t// in\n    tag_161:\n        /* \"#utility.yul\":5647:5655   */\n      dup4\n        /* \"#utility.yul\":5643:5680   */\n      add\n        /* \"#utility.yul\":5630:5641   */\n      dup3\n        /* \"#utility.yul\":5601:5681   */\n      tag_92\n      jump\t// in\n    tag_160:\n        /* \"#utility.yul\":5260:5691   */\n      pop\n      pop\n        /* \"#utility.yul\":5245:5691   */\n    tag_156:\n        /* \"#utility.yul\":5155:5698   */\n      pop\n      pop\n      pop\n      jump\t// out\n        /* \"#utility.yul\":5704:5821   */\n    tag_94:\n        /* \"#utility.yul\":5758:5766   */\n      0x00\n        /* \"#utility.yul\":5808:5813   */\n      dup3\n        /* \"#utility.yul\":5802:5806   */\n      dup3\n        /* \"#utility.yul\":5798:5814   */\n      shr\n        /* \"#utility.yul\":5777:5814   */\n      swap1\n      pop\n        /* \"#utility.yul\":5704:5821   */\n      swap3\n      swap2\n      pop\n      pop\n      jump\t// out\n        /* \"#utility.yul\":5827:5996   */\n    tag_95:\n        /* \"#utility.yul\":5871:5877   */\n      0x00\n        /* \"#utility.yul\":5904:5955   */\n      tag_164\n        /* \"#utility.yul\":5952:5953   */\n      0x00\n        /* \"#utility.yul\":5948:5954   */\n      not\n        /* \"#utility.yul\":5940:5945   */\n      dup5\n        /* \"#utility.yul\":5937:5938   */\n      0x08\n        /* \"#utility.yul\":5933:5946   */\n      mul\n        /* \"#utility.yul\":5904:5955   */\n      tag_94\n      jump\t// in\n    tag_164:\n        /* \"#utility.yul\":5900:5956   */\n      not\n        /* \"#utility.yul\":5985:5989   */\n      dup1\n        /* \"#utility.yul\":5979:5983   */\n      dup4\n        /* \"#utility.yul\":5975:5990   */\n      and\n        /* \"#utility.yul\":5965:5990   */\n      swap2\n      pop\n        /* \"#utility.yul\":5878:5996   */\n      pop\n        /* \"#utility.yul\":5827:5996   */\n      swap3\n      swap2\n      pop\n      pop\n      jump\t// out\n        /* \"#utility.yul\":6001:6296   */\n    tag_96:\n        /* \"#utility.yul\":6077:6081   */\n      0x00\n        /* \"#utility.yul\":6223:6252   */\n      tag_166\n        /* \"#utility.yul\":6248:6251   */\n      dup4\n        /* \"#utility.yul\":6242:6246   */\n      dup4\n        /* \"#utility.yul\":6223:6252   */\n      tag_95\n      jump\t// in\n    tag_166:\n        /* \"#utility.yul\":6215:6252   */\n      swap2\n      pop\n        /* \"#utility.yul\":6285:6288   */\n      dup3\n        /* \"#utility.yul\":6282:6283   */\n      0x02\n        /* \"#utility.yul\":6278:6289   */\n      mul\n        /* \"#utility.yul\":6272:6276   */\n      dup3\n        /* \"#utility.yul\":6269:6290   */\n      or\n        /* \"#utility.yul\":6261:6290   */\n      swap1\n      pop\n        /* \"#utility.yul\":6001:6296   */\n      swap3\n      swap2\n      pop\n      pop\n      jump\t// out\n        /* \"#utility.yul\":6301:7696   */\n    tag_54:\n        /* \"#utility.yul\":6418:6455   */\n      tag_168\n        /* \"#utility.yul\":6451:6454   */\n      dup3\n        /* \"#utility.yul\":6418:6455   */\n      tag_78\n      jump\t// in\n    tag_168:\n        /* \"#utility.yul\":6520:6538   */\n      0xffffffffffffffff\n        /* \"#utility.yul\":6512:6518   */\n      dup2\n        /* \"#utility.yul\":6509:6539   */\n      gt\n        /* \"#utility.yul\":6506:6562   */\n      iszero\n      tag_169\n      jumpi\n        /* \"#utility.yul\":6542:6560   */\n      tag_170\n      tag_79\n      jump\t// in\n    tag_170:\n        /* \"#utility.yul\":6506:6562   */\n    tag_169:\n        /* \"#utility.yul\":6586:6624   */\n      tag_171\n        /* \"#utility.yul\":6618:6622   */\n      dup3\n        /* \"#utility.yul\":6612:6623   */\n      sload\n        /* \"#utility.yul\":6586:6624   */\n      tag_81\n      jump\t// in\n    tag_171:\n        /* \"#utility.yul\":6671:6738   */\n      tag_172\n        /* \"#utility.yul\":6731:6737   */\n      dup3\n        /* \"#utility.yul\":6723:6729   */\n      dup3\n        /* \"#utility.yul\":6717:6721   */\n      dup6\n        /* \"#utility.yul\":6671:6738   */\n      tag_93\n      jump\t// in\n    tag_172:\n        /* \"#utility.yul\":6765:6766   */\n      0x00\n        /* \"#utility.yul\":6789:6793   */\n      0x20\n        /* \"#utility.yul\":6776:6793   */\n      swap1\n      pop\n        /* \"#utility.yul\":6821:6823   */\n      0x1f\n        /* \"#utility.yul\":6813:6819   */\n      dup4\n        /* \"#utility.yul\":6810:6824   */\n      gt\n        /* \"#utility.yul\":6838:6839   */\n      0x01\n        /* \"#utility.yul\":6833:7451   */\n      dup2\n      eq\n      tag_174\n      jumpi\n        /* \"#utility.yul\":7495:7496   */\n      0x00\n        /* \"#utility.yul\":7512:7518   */\n      dup5\n        /* \"#utility.yul\":7509:7586   */\n      iszero\n      tag_175\n      jumpi\n        /* \"#utility.yul\":7561:7570   */\n      dup3\n        /* \"#utility.yul\":7556:7559   */\n      dup8\n        /* \"#utility.yul\":7552:7571   */\n      add\n        /* \"#utility.yul\":7546:7572   */\n      mload\n        /* \"#utility.yul\":7537:7572   */\n      swap1\n      pop\n        /* \"#utility.yul\":7509:7586   */\n    tag_175:\n        /* \"#utility.yul\":7612:7679   */\n      tag_176\n        /* \"#utility.yul\":7672:7678   */\n      dup6\n        /* \"#utility.yul\":7665:7670   */\n      dup3\n        /* \"#utility.yul\":7612:7679   */\n      tag_96\n      jump\t// in\n    tag_176:\n        /* \"#utility.yul\":7606:7610   */\n      dup7\n        /* \"#utility.yul\":7599:7680   */\n      sstore\n        /* \"#utility.yul\":7468:7690   */\n      pop\n        /* \"#utility.yul\":6803:7690   */\n      jump(tag_173)\n        /* \"#utility.yul\":6833:7451   */\n    tag_174:\n        /* \"#utility.yul\":6885:6889   */\n      0x1f\n        /* \"#utility.yul\":6881:6890   */\n      not\n        /* \"#utility.yul\":6873:6879   */\n      dup5\n        /* \"#utility.yul\":6869:6891   */\n      and\n        /* \"#utility.yul\":6919:6956   */\n      tag_177\n        /* \"#utility.yul\":6951:6955   */\n      dup7\n        /* \"#utility.yul\":6919:6956   */\n      tag_82\n      jump\t// in\n    tag_177:\n        /* \"#utility.yul\":6978:6979   */\n      0x00\n        /* \"#utility.yul\":6992:7200   */\n    tag_178:\n        /* \"#utility.yul\":7006:7013   */\n      dup3\n        /* \"#utility.yul\":7003:7004   */\n      dup2\n        /* \"#utility.yul\":7000:7014   */\n      lt\n        /* \"#utility.yul\":6992:7200   */\n      iszero\n      tag_180\n      jumpi\n        /* \"#utility.yul\":7085:7094   */\n      dup5\n        /* \"#utility.yul\":7080:7083   */\n      dup10\n        /* \"#utility.yul\":7076:7095   */\n      add\n        /* \"#utility.yul\":7070:7096   */\n      mload\n        /* \"#utility.yul\":7062:7068   */\n      dup3\n        /* \"#utility.yul\":7055:7097   */\n      sstore\n        /* \"#utility.yul\":7136:7137   */\n      0x01\n        /* \"#utility.yul\":7128:7134   */\n      dup3\n        /* \"#utility.yul\":7124:7138   */\n      add\n        /* \"#utility.yul\":7114:7138   */\n      swap2\n      pop\n        /* \"#utility.yul\":7183:7185   */\n      0x20\n        /* \"#utility.yul\":7172:7181   */\n      dup6\n        /* \"#utility.yul\":7168:7186   */\n      add\n        /* \"#utility.yul\":7155:7186   */\n      swap5\n      pop\n        /* \"#utility.yul\":7029:7033   */\n      0x20\n        /* \"#utility.yul\":7026:7027   */\n      dup2\n        /* \"#utility.yul\":7022:7034   */\n      add\n        /* \"#utility.yul\":7017:7034   */\n      swap1\n      pop\n        /* \"#utility.yul\":6992:7200   */\n      jump(tag_178)\n    tag_180:\n        /* \"#utility.yul\":7228:7234   */\n      dup7\n        /* \"#utility.yul\":7219:7226   */\n      dup4\n        /* \"#utility.yul\":7216:7235   */\n      lt\n        /* \"#utility.yul\":7213:7392   */\n      iszero\n      tag_181\n      jumpi\n        /* \"#utility.yul\":7286:7295   */\n      dup5\n        /* \"#utility.yul\":7281:7284   */\n      dup10\n        /* \"#utility.yul\":7277:7296   */\n      add\n        /* \"#utility.yul\":7271:7297   */\n      mload\n        /* \"#utility.yul\":7329:7377   */\n      tag_182\n        /* \"#utility.yul\":7371:7375   */\n      0x1f\n        /* \"#utility.yul\":7363:7369   */\n      dup10\n        /* \"#utility.yul\":7359:7376   */\n      and\n        /* \"#utility.yul\":7348:7357   */\n      dup3\n        /* \"#utility.yul\":7329:7377   */\n      tag_95\n      jump\t// in\n    tag_182:\n        /* \"#utility.yul\":7321:7327   */\n      dup4\n        /* \"#utility.yul\":7314:7378   */\n      sstore\n        /* \"#utility.yul\":7236:7392   */\n      pop\n        /* \"#utility.yul\":7213:7392   */\n    tag_181:\n        /* \"#utility.yul\":7438:7439   */\n      0x01\n        /* \"#utility.yul\":7434:7435   */\n      0x02\n        /* \"#utility.yul\":7426:7432   */\n      dup9\n        /* \"#utility.yul\":7422:7436   */\n      mul\n        /* \"#utility.yul\":7418:7440   */\n      add\n        /* \"#utility.yul\":7412:7416   */\n      dup9\n        /* \"#utility.yul\":7405:7441   */\n      sstore\n        /* \"#utility.yul\":6840:7451   */\n      pop\n      pop\n      pop\n        /* \"#utility.yul\":6803:7690   */\n    tag_173:\n      pop\n        /* \"#utility.yul\":6393:7696   */\n      pop\n      pop\n      pop\n        /* \"#utility.yul\":6301:7696   */\n      pop\n      pop\n      jump\t// out\n        /* \"#utility.yul\":7702:7896   */\n    tag_61:\n        /* \"#utility.yul\":7742:7746   */\n      0x00\n        /* \"#utility.yul\":7762:7782   */\n      tag_184\n        /* \"#utility.yul\":7780:7781   */\n      dup3\n        /* \"#utility.yul\":7762:7782   */\n      tag_69\n      jump\t// in\n    tag_184:\n        /* \"#utility.yul\":7757:7782   */\n      swap2\n      pop\n        /* \"#utility.yul\":7796:7816   */\n      tag_185\n        /* \"#utility.yul\":7814:7815   */\n      dup4\n        /* \"#utility.yul\":7796:7816   */\n      tag_69\n      jump\t// in\n    tag_185:\n        /* \"#utility.yul\":7791:7816   */\n      swap3\n      pop\n        /* \"#utility.yul\":7840:7841   */\n      dup3\n        /* \"#utility.yul\":7837:7838   */\n      dup3\n        /* \"#utility.yul\":7833:7842   */\n      sub\n        /* \"#utility.yul\":7825:7842   */\n      swap1\n      pop\n        /* \"#utility.yul\":7864:7865   */\n      dup2\n        /* \"#utility.yul\":7858:7862   */\n      dup2\n        /* \"#utility.yul\":7855:7866   */\n      gt\n        /* \"#utility.yul\":7852:7889   */\n      iszero\n      tag_186\n      jumpi\n        /* \"#utility.yul\":7869:7887   */\n      tag_187\n      tag_74\n      jump\t// in\n    tag_187:\n        /* \"#utility.yul\":7852:7889   */\n    tag_186:\n        /* \"#utility.yul\":7702:7896   */\n      swap3\n      swap2\n      pop\n      pop\n      jump\t// out\n\n    auxdata: 0xa2646970667358221220736410f2ed6b6c2ccd4c5f77a22c698c2bd2be6a79adc2d796c012c71843c86c64736f6c63430008160033\n}\n",
				"bytecode": {
					"linkReferences": {},
					"object": "608060405234801562000010575f80fd5b5060405162000cc638038062000cc68339818101604052810190620000369190620000cd565b6040518060400160405280601181526020017f666c61675f696e5f7468655f776f726c640000000000000000000000000000008152505f90816200007b919062000358565b505f60028190555080600381905550506200043c565b5f80fd5b5f819050919050565b620000a98162000095565b8114620000b4575f80fd5b50565b5f81519050620000c7816200009e565b92915050565b5f60208284031215620000e557620000e462000091565b5b5f620000f484828501620000b7565b91505092915050565b5f81519050919050565b7f4e487b71000000000000000000000000000000000000000000000000000000005f52604160045260245ffd5b7f4e487b71000000000000000000000000000000000000000000000000000000005f52602260045260245ffd5b5f60028204905060018216806200017957607f821691505b6020821081036200018f576200018e62000134565b5b50919050565b5f819050815f5260205f209050919050565b5f6020601f8301049050919050565b5f82821b905092915050565b5f60088302620001f37fffffffffffffffffffffffffffffffffffffffffffffffffffffffffffffffff82620001b6565b620001ff8683620001b6565b95508019841693508086168417925050509392505050565b5f819050919050565b5f620002406200023a620002348462000095565b62000217565b62000095565b9050919050565b5f819050919050565b6200025b8362000220565b620002736200026a8262000247565b848454620001c2565b825550505050565b5f90565b620002896200027b565b6200029681848462000250565b505050565b5b81811015620002bd57620002b15f826200027f565b6001810190506200029c565b5050565b601f8211156200030c57620002d68162000195565b620002e184620001a7565b81016020851015620002f1578190505b620003096200030085620001a7565b8301826200029b565b50505b505050565b5f82821c905092915050565b5f6200032e5f198460080262000311565b1980831691505092915050565b5f6200034883836200031d565b9150826002028217905092915050565b6200036382620000fd565b67ffffffffffffffff8111156200037f576200037e62000107565b5b6200038b825462000161565b62000398828285620002c1565b5f60209050601f831160018114620003ce575f8415620003b9578287015190505b620003c585826200033b565b86555062000434565b601f198416620003de8662000195565b5f5b828110156200040757848901518255600182019150602085019450602081019050620003e0565b8683101562000427578489015162000423601f8916826200031d565b8355505b6001600288020188555050505b505050505050565b61087c806200044a5f395ff3fe608060405234801561000f575f80fd5b50600436106100a7575f3560e01c806351f2e64a1161006f57806351f2e64a146101055780638da5cb5b1461010f5780639499443a1461012d578063967ff23e14610137578063cf5e973414610155578063dde1bef51461015f576100a7565b80631659544c146100ab578063260a80a7146100b557806340caae06146100bf57806349a4e50d146100c95780634a4d59fa146100e7575b5f80fd5b6100b361017d565b005b6100bd610198565b005b6100c761023f565b005b6100d1610281565b6040516100de91906103ca565b60405180910390f35b6100ef61028a565b6040516100fc91906103ca565b60405180910390f35b61010d610290565b005b6101176102ab565b6040516101249190610422565b60405180910390f35b6101356102d0565b005b61013f6102eb565b60405161014c91906103ca565b60405180910390f35b61015d6102f2565b005b61016761030e565b60405161017491906103ca565b60405180910390f35b600160035f82825461018f9190610468565b92505081905550565b3373ffffffffffffffffffffffffffffffffffffffff1660015f9054906101000a900473ffffffffffffffffffffffffffffffffffffffff1673ffffffffffffffffffffffffffffffffffffffff1614610227576040517f08c379a000000000000000000000000000000000000000000000000000000000815260040161021e906104f5565b60405180910390fd5b61022f610314565b5f908161023c9190610744565b50565b3360015f6101000a81548173ffffffffffffffffffffffffffffffffffffffff021916908373ffffffffffffffffffffffffffffffffffffffff160217905550565b5f600254905090565b60025481565b600560025f8282546102a29190610468565b92505081905550565b60015f9054906101000a900473ffffffffffffffffffffffffffffffffffffffff1681565b600160035f8282546102e29190610813565b92505081905550565b5f43905090565b60035460025f8282546103059190610468565b92505081905550565b60035481565b60603373ffffffffffffffffffffffffffffffffffffffff1660015f9054906101000a900473ffffffffffffffffffffffffffffffffffffffff1673ffffffffffffffffffffffffffffffffffffffff16146103a5576040517f08c379a000000000000000000000000000000000000000000000000000000000815260040161039c906104f5565b60405180910390fd5b6103ad610314565b905090565b5f819050919050565b6103c4816103b2565b82525050565b5f6020820190506103dd5f8301846103bb565b92915050565b5f73ffffffffffffffffffffffffffffffffffffffff82169050919050565b5f61040c826103e3565b9050919050565b61041c81610402565b82525050565b5f6020820190506104355f830184610413565b92915050565b7f4e487b71000000000000000000000000000000000000000000000000000000005f52601160045260245ffd5b5f610472826103b2565b915061047d836103b2565b92508282019050808211156104955761049461043b565b5b92915050565b5f82825260208201905092915050565b7f4e6f20657265732070726f706965746172696f000000000000000000000000005f82015250565b5f6104df60138361049b565b91506104ea826104ab565b602082019050919050565b5f6020820190508181035f83015261050c816104d3565b9050919050565b5f81519050919050565b7f4e487b71000000000000000000000000000000000000000000000000000000005f52604160045260245ffd5b7f4e487b71000000000000000000000000000000000000000000000000000000005f52602260045260245ffd5b5f600282049050600182168061058e57607f821691505b6020821081036105a1576105a061054a565b5b50919050565b5f819050815f5260205f209050919050565b5f6020601f8301049050919050565b5f82821b905092915050565b5f600883026106037fffffffffffffffffffffffffffffffffffffffffffffffffffffffffffffffff826105c8565b61060d86836105c8565b95508019841693508086168417925050509392505050565b5f819050919050565b5f61064861064361063e846103b2565b610625565b6103b2565b9050919050565b5f819050919050565b6106618361062e565b61067561066d8261064f565b8484546105d4565b825550505050565b5f90565b61068961067d565b610694818484610658565b505050565b5b818110156106b7576106ac5f82610681565b60018101905061069a565b5050565b601f8211156106fc576106cd816105a7565b6106d6846105b9565b810160208510156106e5578190505b6106f96106f1856105b9565b830182610699565b50505b505050565b5f82821c905092915050565b5f61071c5f1984600802610701565b1980831691505092915050565b5f610734838361070d565b9150826002028217905092915050565b61074d82610513565b67ffffffffffffffff8111156107665761076561051d565b5b6107708254610577565b61077b8282856106bb565b5f60209050601f8311600181146107ac575f841561079a578287015190505b6107a48582610729565b86555061080b565b601f1984166107ba866105a7565b5f5b828110156107e1578489015182556001820191506020850194506020810190506107bc565b868310156107fe57848901516107fa601f89168261070d565b8355505b6001600288020188555050505b505050505050565b5f61081d826103b2565b9150610828836103b2565b92508282039050818111156108405761083f61043b565b5b9291505056fea2646970667358221220736410f2ed6b6c2ccd4c5f77a22c698c2bd2be6a79adc2d796c012c71843c86c64736f6c63430008160033",
					"opcodes": "PUSH1 0x80 PUSH1 0x40 MSTORE CALLVALUE DUP1 ISZERO PUSH3 0x10 JUMPI PUSH0 DUP1 REVERT JUMPDEST POP PUSH1 0x40 MLOAD PUSH3 0xCC6 CODESIZE SUB DUP1 PUSH3 0xCC6 DUP4 CODECOPY DUP2 DUP2 ADD PUSH1 0x40 MSTORE DUP2 ADD SWAP1 PUSH3 0x36 SWAP2 SWAP1 PUSH3 0xCD JUMP JUMPDEST PUSH1 0x40 MLOAD DUP1 PUSH1 0x40 ADD PUSH1 0x40 MSTORE DUP1 PUSH1 0x11 DUP2 MSTORE PUSH1 0x20 ADD PUSH32 0x666C61675F696E5F7468655F776F726C64000000000000000000000000000000 DUP2 MSTORE POP PUSH0 SWAP1 DUP2 PUSH3 0x7B SWAP2 SWAP1 PUSH3 0x358 JUMP JUMPDEST POP PUSH0 PUSH1 0x2 DUP2 SWAP1 SSTORE POP DUP1 PUSH1 0x3 DUP2 SWAP1 SSTORE POP POP PUSH3 0x43C JUMP JUMPDEST PUSH0 DUP1 REVERT JUMPDEST PUSH0 DUP2 SWAP1 POP SWAP2 SWAP1 POP JUMP JUMPDEST PUSH3 0xA9 DUP2 PUSH3 0x95 JUMP JUMPDEST DUP2 EQ PUSH3 0xB4 JUMPI PUSH0 DUP1 REVERT JUMPDEST POP JUMP JUMPDEST PUSH0 DUP2 MLOAD SWAP1 POP PUSH3 0xC7 DUP2 PUSH3 0x9E JUMP JUMPDEST SWAP3 SWAP2 POP POP JUMP JUMPDEST PUSH0 PUSH1 0x20 DUP3 DUP5 SUB SLT ISZERO PUSH3 0xE5 JUMPI PUSH3 0xE4 PUSH3 0x91 JUMP JUMPDEST JUMPDEST PUSH0 PUSH3 0xF4 DUP5 DUP3 DUP6 ADD PUSH3 0xB7 JUMP JUMPDEST SWAP2 POP POP SWAP3 SWAP2 POP POP JUMP JUMPDEST PUSH0 DUP2 MLOAD SWAP1 POP SWAP2 SWAP1 POP JUMP JUMPDEST PUSH32 0x4E487B7100000000000000000000000000000000000000000000000000000000 PUSH0 MSTORE PUSH1 0x41 PUSH1 0x4 MSTORE PUSH1 0x24 PUSH0 REVERT JUMPDEST PUSH32 0x4E487B7100000000000000000000000000000000000000000000000000000000 PUSH0 MSTORE PUSH1 0x22 PUSH1 0x4 MSTORE PUSH1 0x24 PUSH0 REVERT JUMPDEST PUSH0 PUSH1 0x2 DUP3 DIV SWAP1 POP PUSH1 0x1 DUP3 AND DUP1 PUSH3 0x179 JUMPI PUSH1 0x7F DUP3 AND SWAP2 POP JUMPDEST PUSH1 0x20 DUP3 LT DUP2 SUB PUSH3 0x18F JUMPI PUSH3 0x18E PUSH3 0x134 JUMP JUMPDEST JUMPDEST POP SWAP2 SWAP1 POP JUMP JUMPDEST PUSH0 DUP2 SWAP1 POP DUP2 PUSH0 MSTORE PUSH1 0x20 PUSH0 KECCAK256 SWAP1 POP SWAP2 SWAP1 POP JUMP JUMPDEST PUSH0 PUSH1 0x20 PUSH1 0x1F DUP4 ADD DIV SWAP1 POP SWAP2 SWAP1 POP JUMP JUMPDEST PUSH0 DUP3 DUP3 SHL SWAP1 POP SWAP3 SWAP2 POP POP JUMP JUMPDEST PUSH0 PUSH1 0x8 DUP4 MUL PUSH3 0x1F3 PUSH32 0xFFFFFFFFFFFFFFFFFFFFFFFFFFFFFFFFFFFFFFFFFFFFFFFFFFFFFFFFFFFFFFFF DUP3 PUSH3 0x1B6 JUMP JUMPDEST PUSH3 0x1FF DUP7 DUP4 PUSH3 0x1B6 JUMP JUMPDEST SWAP6 POP DUP1 NOT DUP5 AND SWAP4 POP DUP1 DUP7 AND DUP5 OR SWAP3 POP POP POP SWAP4 SWAP3 POP POP POP JUMP JUMPDEST PUSH0 DUP2 SWAP1 POP SWAP2 SWAP1 POP JUMP JUMPDEST PUSH0 PUSH3 0x240 PUSH3 0x23A PUSH3 0x234 DUP5 PUSH3 0x95 JUMP JUMPDEST PUSH3 0x217 JUMP JUMPDEST PUSH3 0x95 JUMP JUMPDEST SWAP1 POP SWAP2 SWAP1 POP JUMP JUMPDEST PUSH0 DUP2 SWAP1 POP SWAP2 SWAP1 POP JUMP JUMPDEST PUSH3 0x25B DUP4 PUSH3 0x220 JUMP JUMPDEST PUSH3 0x273 PUSH3 0x26A DUP3 PUSH3 0x247 JUMP JUMPDEST DUP5 DUP5 SLOAD PUSH3 0x1C2 JUMP JUMPDEST DUP3 SSTORE POP POP POP POP JUMP JUMPDEST PUSH0 SWAP1 JUMP JUMPDEST PUSH3 0x289 PUSH3 0x27B JUMP JUMPDEST PUSH3 0x296 DUP2 DUP5 DUP5 PUSH3 0x250 JUMP JUMPDEST POP POP POP JUMP JUMPDEST JUMPDEST DUP2 DUP2 LT ISZERO PUSH3 0x2BD JUMPI PUSH3 0x2B1 PUSH0 DUP3 PUSH3 0x27F JUMP JUMPDEST PUSH1 0x1 DUP2 ADD SWAP1 POP PUSH3 0x29C JUMP JUMPDEST POP POP JUMP JUMPDEST PUSH1 0x1F DUP3 GT ISZERO PUSH3 0x30C JUMPI PUSH3 0x2D6 DUP2 PUSH3 0x195 JUMP JUMPDEST PUSH3 0x2E1 DUP5 PUSH3 0x1A7 JUMP JUMPDEST DUP2 ADD PUSH1 0x20 DUP6 LT ISZERO PUSH3 0x2F1 JUMPI DUP2 SWAP1 POP JUMPDEST PUSH3 0x309 PUSH3 0x300 DUP6 PUSH3 0x1A7 JUMP JUMPDEST DUP4 ADD DUP3 PUSH3 0x29B JUMP JUMPDEST POP POP JUMPDEST POP POP POP JUMP JUMPDEST PUSH0 DUP3 DUP3 SHR SWAP1 POP SWAP3 SWAP2 POP POP JUMP JUMPDEST PUSH0 PUSH3 0x32E PUSH0 NOT DUP5 PUSH1 0x8 MUL PUSH3 0x311 JUMP JUMPDEST NOT DUP1 DUP4 AND SWAP2 POP POP SWAP3 SWAP2 POP POP JUMP JUMPDEST PUSH0 PUSH3 0x348 DUP4 DUP4 PUSH3 0x31D JUMP JUMPDEST SWAP2 POP DUP3 PUSH1 0x2 MUL DUP3 OR SWAP1 POP SWAP3 SWAP2 POP POP JUMP JUMPDEST PUSH3 0x363 DUP3 PUSH3 0xFD JUMP JUMPDEST PUSH8 0xFFFFFFFFFFFFFFFF DUP2 GT ISZERO PUSH3 0x37F JUMPI PUSH3 0x37E PUSH3 0x107 JUMP JUMPDEST JUMPDEST PUSH3 0x38B DUP3 SLOAD PUSH3 0x161 JUMP JUMPDEST PUSH3 0x398 DUP3 DUP3 DUP6 PUSH3 0x2C1 JUMP JUMPDEST PUSH0 PUSH1 0x20 SWAP1 POP PUSH1 0x1F DUP4 GT PUSH1 0x1 DUP2 EQ PUSH3 0x3CE JUMPI PUSH0 DUP5 ISZERO PUSH3 0x3B9 JUMPI DUP3 DUP8 ADD MLOAD SWAP1 POP JUMPDEST PUSH3 0x3C5 DUP6 DUP3 PUSH3 0x33B JUMP JUMPDEST DUP7 SSTORE POP PUSH3 0x434 JUMP JUMPDEST PUSH1 0x1F NOT DUP5 AND PUSH3 0x3DE DUP7 PUSH3 0x195 JUMP JUMPDEST PUSH0 JUMPDEST DUP3 DUP2 LT ISZERO PUSH3 0x407 JUMPI DUP5 DUP10 ADD MLOAD DUP3 SSTORE PUSH1 0x1 DUP3 ADD SWAP2 POP PUSH1 0x20 DUP6 ADD SWAP5 POP PUSH1 0x20 DUP2 ADD SWAP1 POP PUSH3 0x3E0 JUMP JUMPDEST DUP7 DUP4 LT ISZERO PUSH3 0x427 JUMPI DUP5 DUP10 ADD MLOAD PUSH3 0x423 PUSH1 0x1F DUP10 AND DUP3 PUSH3 0x31D JUMP JUMPDEST DUP4 SSTORE POP JUMPDEST PUSH1 0x1 PUSH1 0x2 DUP9 MUL ADD DUP9 SSTORE POP POP POP JUMPDEST POP POP POP POP POP POP JUMP JUMPDEST PUSH2 0x87C DUP1 PUSH3 0x44A PUSH0 CODECOPY PUSH0 RETURN INVALID PUSH1 0x80 PUSH1 0x40 MSTORE CALLVALUE DUP1 ISZERO PUSH2 0xF JUMPI PUSH0 DUP1 REVERT JUMPDEST POP PUSH1 0x4 CALLDATASIZE LT PUSH2 0xA7 JUMPI PUSH0 CALLDATALOAD PUSH1 0xE0 SHR DUP1 PUSH4 0x51F2E64A GT PUSH2 0x6F JUMPI DUP1 PUSH4 0x51F2E64A EQ PUSH2 0x105 JUMPI DUP1 PUSH4 0x8DA5CB5B EQ PUSH2 0x10F JUMPI DUP1 PUSH4 0x9499443A EQ PUSH2 0x12D JUMPI DUP1 PUSH4 0x967FF23E EQ PUSH2 0x137 JUMPI DUP1 PUSH4 0xCF5E9734 EQ PUSH2 0x155 JUMPI DUP1 PUSH4 0xDDE1BEF5 EQ PUSH2 0x15F JUMPI PUSH2 0xA7 JUMP JUMPDEST DUP1 PUSH4 0x1659544C EQ PUSH2 0xAB JUMPI DUP1 PUSH4 0x260A80A7 EQ PUSH2 0xB5 JUMPI DUP1 PUSH4 0x40CAAE06 EQ PUSH2 0xBF JUMPI DUP1 PUSH4 0x49A4E50D EQ PUSH2 0xC9 JUMPI DUP1 PUSH4 0x4A4D59FA EQ PUSH2 0xE7 JUMPI JUMPDEST PUSH0 DUP1 REVERT JUMPDEST PUSH2 0xB3 PUSH2 0x17D JUMP JUMPDEST STOP JUMPDEST PUSH2 0xBD PUSH2 0x198 JUMP JUMPDEST STOP JUMPDEST PUSH2 0xC7 PUSH2 0x23F JUMP JUMPDEST STOP JUMPDEST PUSH2 0xD1 PUSH2 0x281 JUMP JUMPDEST PUSH1 0x40 MLOAD PUSH2 0xDE SWAP2 SWAP1 PUSH2 0x3CA JUMP JUMPDEST PUSH1 0x40 MLOAD DUP1 SWAP2 SUB SWAP1 RETURN JUMPDEST PUSH2 0xEF PUSH2 0x28A JUMP JUMPDEST PUSH1 0x40 MLOAD PUSH2 0xFC SWAP2 SWAP1 PUSH2 0x3CA JUMP JUMPDEST PUSH1 0x40 MLOAD DUP1 SWAP2 SUB SWAP1 RETURN JUMPDEST PUSH2 0x10D PUSH2 0x290 JUMP JUMPDEST STOP JUMPDEST PUSH2 0x117 PUSH2 0x2AB JUMP JUMPDEST PUSH1 0x40 MLOAD PUSH2 0x124 SWAP2 SWAP1 PUSH2 0x422 JUMP JUMPDEST PUSH1 0x40 MLOAD DUP1 SWAP2 SUB SWAP1 RETURN JUMPDEST PUSH2 0x135 PUSH2 0x2D0 JUMP JUMPDEST STOP JUMPDEST PUSH2 0x13F PUSH2 0x2EB JUMP JUMPDEST PUSH1 0x40 MLOAD PUSH2 0x14C SWAP2 SWAP1 PUSH2 0x3CA JUMP JUMPDEST PUSH1 0x40 MLOAD DUP1 SWAP2 SUB SWAP1 RETURN JUMPDEST PUSH2 0x15D PUSH2 0x2F2 JUMP JUMPDEST STOP JUMPDEST PUSH2 0x167 PUSH2 0x30E JUMP JUMPDEST PUSH1 0x40 MLOAD PUSH2 0x174 SWAP2 SWAP1 PUSH2 0x3CA JUMP JUMPDEST PUSH1 0x40 MLOAD DUP1 SWAP2 SUB SWAP1 RETURN JUMPDEST PUSH1 0x1 PUSH1 0x3 PUSH0 DUP3 DUP3 SLOAD PUSH2 0x18F SWAP2 SWAP1 PUSH2 0x468 JUMP JUMPDEST SWAP3 POP POP DUP2 SWAP1 SSTORE POP JUMP JUMPDEST CALLER PUSH20 0xFFFFFFFFFFFFFFFFFFFFFFFFFFFFFFFFFFFFFFFF AND PUSH1 0x1 PUSH0 SWAP1 SLOAD SWAP1 PUSH2 0x100 EXP SWAP1 DIV PUSH20 0xFFFFFFFFFFFFFFFFFFFFFFFFFFFFFFFFFFFFFFFF AND PUSH20 0xFFFFFFFFFFFFFFFFFFFFFFFFFFFFFFFFFFFFFFFF AND EQ PUSH2 0x227 JUMPI PUSH1 0x40 MLOAD PUSH32 0x8C379A000000000000000000000000000000000000000000000000000000000 DUP2 MSTORE PUSH1 0x4 ADD PUSH2 0x21E SWAP1 PUSH2 0x4F5 JUMP JUMPDEST PUSH1 0x40 MLOAD DUP1 SWAP2 SUB SWAP1 REVERT JUMPDEST PUSH2 0x22F PUSH2 0x314 JUMP JUMPDEST PUSH0 SWAP1 DUP2 PUSH2 0x23C SWAP2 SWAP1 PUSH2 0x744 JUMP JUMPDEST POP JUMP JUMPDEST CALLER PUSH1 0x1 PUSH0 PUSH2 0x100 EXP DUP2 SLOAD DUP2 PUSH20 0xFFFFFFFFFFFFFFFFFFFFFFFFFFFFFFFFFFFFFFFF MUL NOT AND SWAP1 DUP4 PUSH20 0xFFFFFFFFFFFFFFFFFFFFFFFFFFFFFFFFFFFFFFFF AND MUL OR SWAP1 SSTORE POP JUMP JUMPDEST PUSH0 PUSH1 0x2 SLOAD SWAP1 POP SWAP1 JUMP JUMPDEST PUSH1 0x2 SLOAD DUP2 JUMP JUMPDEST PUSH1 0x5 PUSH1 0x2 PUSH0 DUP3 DUP3 SLOAD PUSH2 0x2A2 SWAP2 SWAP1 PUSH2 0x468 JUMP JUMPDEST SWAP3 POP POP DUP2 SWAP1 SSTORE POP JUMP JUMPDEST PUSH1 0x1 PUSH0 SWAP1 SLOAD SWAP1 PUSH2 0x100 EXP SWAP1 DIV PUSH20 0xFFFFFFFFFFFFFFFFFFFFFFFFFFFFFFFFFFFFFFFF AND DUP2 JUMP JUMPDEST PUSH1 0x1 PUSH1 0x3 PUSH0 DUP3 DUP3 SLOAD PUSH2 0x2E2 SWAP2 SWAP1 PUSH2 0x813 JUMP JUMPDEST SWAP3 POP POP DUP2 SWAP1 SSTORE POP JUMP JUMPDEST PUSH0 NUMBER SWAP1 POP SWAP1 JUMP JUMPDEST PUSH1 0x3 SLOAD PUSH1 0x2 PUSH0 DUP3 DUP3 SLOAD PUSH2 0x305 SWAP2 SWAP1 PUSH2 0x468 JUMP JUMPDEST SWAP3 POP POP DUP2 SWAP1 SSTORE POP JUMP JUMPDEST PUSH1 0x3 SLOAD DUP2 JUMP JUMPDEST PUSH1 0x60 CALLER PUSH20 0xFFFFFFFFFFFFFFFFFFFFFFFFFFFFFFFFFFFFFFFF AND PUSH1 0x1 PUSH0 SWAP1 SLOAD SWAP1 PUSH2 0x100 EXP SWAP1 DIV PUSH20 0xFFFFFFFFFFFFFFFFFFFFFFFFFFFFFFFFFFFFFFFF AND PUSH20 0xFFFFFFFFFFFFFFFFFFFFFFFFFFFFFFFFFFFFFFFF AND EQ PUSH2 0x3A5 JUMPI PUSH1 0x40 MLOAD PUSH32 0x8C379A000000000000000000000000000000000000000000000000000000000 DUP2 MSTORE PUSH1 0x4 ADD PUSH2 0x39C SWAP1 PUSH2 0x4F5 JUMP JUMPDEST PUSH1 0x40 MLOAD DUP1 SWAP2 SUB SWAP1 REVERT JUMPDEST PUSH2 0x3AD PUSH2 0x314 JUMP JUMPDEST SWAP1 POP SWAP1 JUMP JUMPDEST PUSH0 DUP2 SWAP1 POP SWAP2 SWAP1 POP JUMP JUMPDEST PUSH2 0x3C4 DUP2 PUSH2 0x3B2 JUMP JUMPDEST DUP3 MSTORE POP POP JUMP JUMPDEST PUSH0 PUSH1 0x20 DUP3 ADD SWAP1 POP PUSH2 0x3DD PUSH0 DUP4 ADD DUP5 PUSH2 0x3BB JUMP JUMPDEST SWAP3 SWAP2 POP POP JUMP JUMPDEST PUSH0 PUSH20 0xFFFFFFFFFFFFFFFFFFFFFFFFFFFFFFFFFFFFFFFF DUP3 AND SWAP1 POP SWAP2 SWAP1 POP JUMP JUMPDEST PUSH0 PUSH2 0x40C DUP3 PUSH2 0x3E3 JUMP JUMPDEST SWAP1 POP SWAP2 SWAP1 POP JUMP JUMPDEST PUSH2 0x41C DUP2 PUSH2 0x402 JUMP JUMPDEST DUP3 MSTORE POP POP JUMP JUMPDEST PUSH0 PUSH1 0x20 DUP3 ADD SWAP1 POP PUSH2 0x435 PUSH0 DUP4 ADD DUP5 PUSH2 0x413 JUMP JUMPDEST SWAP3 SWAP2 POP POP JUMP JUMPDEST PUSH32 0x4E487B7100000000000000000000000000000000000000000000000000000000 PUSH0 MSTORE PUSH1 0x11 PUSH1 0x4 MSTORE PUSH1 0x24 PUSH0 REVERT JUMPDEST PUSH0 PUSH2 0x472 DUP3 PUSH2 0x3B2 JUMP JUMPDEST SWAP2 POP PUSH2 0x47D DUP4 PUSH2 0x3B2 JUMP JUMPDEST SWAP3 POP DUP3 DUP3 ADD SWAP1 POP DUP1 DUP3 GT ISZERO PUSH2 0x495 JUMPI PUSH2 0x494 PUSH2 0x43B JUMP JUMPDEST JUMPDEST SWAP3 SWAP2 POP POP JUMP JUMPDEST PUSH0 DUP3 DUP3 MSTORE PUSH1 0x20 DUP3 ADD SWAP1 POP SWAP3 SWAP2 POP POP JUMP JUMPDEST PUSH32 0x4E6F20657265732070726F706965746172696F00000000000000000000000000 PUSH0 DUP3 ADD MSTORE POP JUMP JUMPDEST PUSH0 PUSH2 0x4DF PUSH1 0x13 DUP4 PUSH2 0x49B JUMP JUMPDEST SWAP2 POP PUSH2 0x4EA DUP3 PUSH2 0x4AB JUMP JUMPDEST PUSH1 0x20 DUP3 ADD SWAP1 POP SWAP2 SWAP1 POP JUMP JUMPDEST PUSH0 PUSH1 0x20 DUP3 ADD SWAP1 POP DUP2 DUP2 SUB PUSH0 DUP4 ADD MSTORE PUSH2 0x50C DUP2 PUSH2 0x4D3 JUMP JUMPDEST SWAP1 POP SWAP2 SWAP1 POP JUMP JUMPDEST PUSH0 DUP2 MLOAD SWAP1 POP SWAP2 SWAP1 POP JUMP JUMPDEST PUSH32 0x4E487B7100000000000000000000000000000000000000000000000000000000 PUSH0 MSTORE PUSH1 0x41 PUSH1 0x4 MSTORE PUSH1 0x24 PUSH0 REVERT JUMPDEST PUSH32 0x4E487B7100000000000000000000000000000000000000000000000000000000 PUSH0 MSTORE PUSH1 0x22 PUSH1 0x4 MSTORE PUSH1 0x24 PUSH0 REVERT JUMPDEST PUSH0 PUSH1 0x2 DUP3 DIV SWAP1 POP PUSH1 0x1 DUP3 AND DUP1 PUSH2 0x58E JUMPI PUSH1 0x7F DUP3 AND SWAP2 POP JUMPDEST PUSH1 0x20 DUP3 LT DUP2 SUB PUSH2 0x5A1 JUMPI PUSH2 0x5A0 PUSH2 0x54A JUMP JUMPDEST JUMPDEST POP SWAP2 SWAP1 POP JUMP JUMPDEST PUSH0 DUP2 SWAP1 POP DUP2 PUSH0 MSTORE PUSH1 0x20 PUSH0 KECCAK256 SWAP1 POP SWAP2 SWAP1 POP JUMP JUMPDEST PUSH0 PUSH1 0x20 PUSH1 0x1F DUP4 ADD DIV SWAP1 POP SWAP2 SWAP1 POP JUMP JUMPDEST PUSH0 DUP3 DUP3 SHL SWAP1 POP SWAP3 SWAP2 POP POP JUMP JUMPDEST PUSH0 PUSH1 0x8 DUP4 MUL PUSH2 0x603 PUSH32 0xFFFFFFFFFFFFFFFFFFFFFFFFFFFFFFFFFFFFFFFFFFFFFFFFFFFFFFFFFFFFFFFF DUP3 PUSH2 0x5C8 JUMP JUMPDEST PUSH2 0x60D DUP7 DUP4 PUSH2 0x5C8 JUMP JUMPDEST SWAP6 POP DUP1 NOT DUP5 AND SWAP4 POP DUP1 DUP7 AND DUP5 OR SWAP3 POP POP POP SWAP4 SWAP3 POP POP POP JUMP JUMPDEST PUSH0 DUP2 SWAP1 POP SWAP2 SWAP1 POP JUMP JUMPDEST PUSH0 PUSH2 0x648 PUSH2 0x643 PUSH2 0x63E DUP5 PUSH2 0x3B2 JUMP JUMPDEST PUSH2 0x625 JUMP JUMPDEST PUSH2 0x3B2 JUMP JUMPDEST SWAP1 POP SWAP2 SWAP1 POP JUMP JUMPDEST PUSH0 DUP2 SWAP1 POP SWAP2 SWAP1 POP JUMP JUMPDEST PUSH2 0x661 DUP4 PUSH2 0x62E JUMP JUMPDEST PUSH2 0x675 PUSH2 0x66D DUP3 PUSH2 0x64F JUMP JUMPDEST DUP5 DUP5 SLOAD PUSH2 0x5D4 JUMP JUMPDEST DUP3 SSTORE POP POP POP POP JUMP JUMPDEST PUSH0 SWAP1 JUMP JUMPDEST PUSH2 0x689 PUSH2 0x67D JUMP JUMPDEST PUSH2 0x694 DUP2 DUP5 DUP5 PUSH2 0x658 JUMP JUMPDEST POP POP POP JUMP JUMPDEST JUMPDEST DUP2 DUP2 LT ISZERO PUSH2 0x6B7 JUMPI PUSH2 0x6AC PUSH0 DUP3 PUSH2 0x681 JUMP JUMPDEST PUSH1 0x1 DUP2 ADD SWAP1 POP PUSH2 0x69A JUMP JUMPDEST POP POP JUMP JUMPDEST PUSH1 0x1F DUP3 GT ISZERO PUSH2 0x6FC JUMPI PUSH2 0x6CD DUP2 PUSH2 0x5A7 JUMP JUMPDEST PUSH2 0x6D6 DUP5 PUSH2 0x5B9 JUMP JUMPDEST DUP2 ADD PUSH1 0x20 DUP6 LT ISZERO PUSH2 0x6E5 JUMPI DUP2 SWAP1 POP JUMPDEST PUSH2 0x6F9 PUSH2 0x6F1 DUP6 PUSH2 0x5B9 JUMP JUMPDEST DUP4 ADD DUP3 PUSH2 0x699 JUMP JUMPDEST POP POP JUMPDEST POP POP POP JUMP JUMPDEST PUSH0 DUP3 DUP3 SHR SWAP1 POP SWAP3 SWAP2 POP POP JUMP JUMPDEST PUSH0 PUSH2 0x71C PUSH0 NOT DUP5 PUSH1 0x8 MUL PUSH2 0x701 JUMP JUMPDEST NOT DUP1 DUP4 AND SWAP2 POP POP SWAP3 SWAP2 POP POP JUMP JUMPDEST PUSH0 PUSH2 0x734 DUP4 DUP4 PUSH2 0x70D JUMP JUMPDEST SWAP2 POP DUP3 PUSH1 0x2 MUL DUP3 OR SWAP1 POP SWAP3 SWAP2 POP POP JUMP JUMPDEST PUSH2 0x74D DUP3 PUSH2 0x513 JUMP JUMPDEST PUSH8 0xFFFFFFFFFFFFFFFF DUP2 GT ISZERO PUSH2 0x766 JUMPI PUSH2 0x765 PUSH2 0x51D JUMP JUMPDEST JUMPDEST PUSH2 0x770 DUP3 SLOAD PUSH2 0x577 JUMP JUMPDEST PUSH2 0x77B DUP3 DUP3 DUP6 PUSH2 0x6BB JUMP JUMPDEST PUSH0 PUSH1 0x20 SWAP1 POP PUSH1 0x1F DUP4 GT PUSH1 0x1 DUP2 EQ PUSH2 0x7AC JUMPI PUSH0 DUP5 ISZERO PUSH2 0x79A JUMPI DUP3 DUP8 ADD MLOAD SWAP1 POP JUMPDEST PUSH2 0x7A4 DUP6 DUP3 PUSH2 0x729 JUMP JUMPDEST DUP7 SSTORE POP PUSH2 0x80B JUMP JUMPDEST PUSH1 0x1F NOT DUP5 AND PUSH2 0x7BA DUP7 PUSH2 0x5A7 JUMP JUMPDEST PUSH0 JUMPDEST DUP3 DUP2 LT ISZERO PUSH2 0x7E1 JUMPI DUP5 DUP10 ADD MLOAD DUP3 SSTORE PUSH1 0x1 DUP3 ADD SWAP2 POP PUSH1 0x20 DUP6 ADD SWAP5 POP PUSH1 0x20 DUP2 ADD SWAP1 POP PUSH2 0x7BC JUMP JUMPDEST DUP7 DUP4 LT ISZERO PUSH2 0x7FE JUMPI DUP5 DUP10 ADD MLOAD PUSH2 0x7FA PUSH1 0x1F DUP10 AND DUP3 PUSH2 0x70D JUMP JUMPDEST DUP4 SSTORE POP JUMPDEST PUSH1 0x1 PUSH1 0x2 DUP9 MUL ADD DUP9 SSTORE POP POP POP JUMPDEST POP POP POP POP POP POP JUMP JUMPDEST PUSH0 PUSH2 0x81D DUP3 PUSH2 0x3B2 JUMP JUMPDEST SWAP2 POP PUSH2 0x828 DUP4 PUSH2 0x3B2 JUMP JUMPDEST SWAP3 POP DUP3 DUP3 SUB SWAP1 POP DUP2 DUP2 GT ISZERO PUSH2 0x840 JUMPI PUSH2 0x83F PUSH2 0x43B JUMP JUMPDEST JUMPDEST SWAP3 SWAP2 POP POP JUMP INVALID LOG2 PUSH5 0x6970667358 0x22 SLT KECCAK256 PUSH20 0x6410F2ED6B6C2CCD4C5F77A22C698C2BD2BE6A79 0xAD 0xC2 0xD7 SWAP7 0xC0 SLT 0xC7 XOR NUMBER 0xC8 PUSH13 0x64736F6C634300081600330000 "
				},
				"gasEstimates": {
					"creation": {
						"codeDepositCost": "434400",
						"executionCost": "infinite",
						"totalCost": "infinite"
					},
					"external": {
						"addPower()": "infinite",
						"addStamina()": "infinite",
						"addStaminaToPower()": "infinite",
						"blocks()": "397",
						"delStamina()": "infinite",
						"getPower()": "2499",
						"owner()": "2530",
						"power()": "2514",
						"setOwner()": "24453",
						"setSnippetFlag()": "infinite",
						"stamina()": "2535"
					},
					"internal": {
						"getFlag()": "infinite"
					}
				},
				"methodIdentifiers": {
					"addPower()": "51f2e64a",
					"addStamina()": "1659544c",
					"addStaminaToPower()": "cf5e9734",
					"blocks()": "967ff23e",
					"delStamina()": "9499443a",
					"getPower()": "49a4e50d",
					"owner()": "8da5cb5b",
					"power()": "4a4d59fa",
					"setOwner()": "40caae06",
					"setSnippetFlag()": "260a80a7",
					"stamina()": "dde1bef5"
				}
			},
			"storageLayout": {
				"storage": [
					{
						"astId": 3,
						"contract": "levelup/functions.sol:functions",
						"label": "snippet_flag",
						"offset": 0,
						"slot": "0",
						"type": "t_string_storage"
					},
					{
						"astId": 5,
						"contract": "levelup/functions.sol:functions",
						"label": "owner",
						"offset": 0,
						"slot": "1",
						"type": "t_address"
					},
					{
						"astId": 7,
						"contract": "levelup/functions.sol:functions",
						"label": "power",
						"offset": 0,
						"slot": "2",
						"type": "t_uint256"
					},
					{
						"astId": 9,
						"contract": "levelup/functions.sol:functions",
						"label": "stamina",
						"offset": 0,
						"slot": "3",
						"type": "t_uint256"
					}
				],
				"types": {
					"t_address": {
						"encoding": "inplace",
						"label": "address",
						"numberOfBytes": "20"
					},
					"t_string_storage": {
						"encoding": "bytes",
						"label": "string",
						"numberOfBytes": "32"
					},
					"t_uint256": {
						"encoding": "inplace",
						"label": "uint256",
						"numberOfBytes": "32"
					}
				}
			},
			"userdoc": {
				"kind": "user",
				"methods": {},
				"version": 1
			}
		}
	}
}