{
	"levelup/snippet3.sol": {
		"Snippet3": {
			"abi": [
				{
					"inputs": [
						{
							"internalType": "string",
							"name": "_flag",
							"type": "string"
						},
						{
							"internalType": "contract functions3",
							"name": "_f",
							"type": "address"
						}
					],
					"stateMutability": "nonpayable",
					"type": "constructor"
				},
				{
					"inputs": [],
					"name": "climbedMeters",
					"outputs": [
						{
							"internalType": "uint8",
							"name": "",
							"type": "uint8"
						}
					],
					"stateMutability": "view",
					"type": "function"
				},
				{
					"inputs": [],
					"name": "easter_egg",
					"outputs": [
						{
							"internalType": "bool",
							"name": "",
							"type": "bool"
						}
					],
					"stateMutability": "view",
					"type": "function"
				},
				{
					"inputs": [
						{
							"internalType": "bytes",
							"name": "_data",
							"type": "bytes"
						}
					],
					"name": "execution_function",
					"outputs": [],
					"stateMutability": "nonpayable",
					"type": "function"
				},
				{
					"inputs": [],
					"name": "f",
					"outputs": [
						{
							"internalType": "contract functions3",
							"name": "",
							"type": "address"
						}
					],
					"stateMutability": "view",
					"type": "function"
				},
				{
					"inputs": [],
					"name": "fall",
					"outputs": [
						{
							"internalType": "bool",
							"name": "",
							"type": "bool"
						}
					],
					"stateMutability": "view",
					"type": "function"
				},
				{
					"inputs": [],
					"name": "getFlag",
					"outputs": [
						{
							"internalType": "string",
							"name": "",
							"type": "string"
						}
					],
					"stateMutability": "nonpayable",
					"type": "function"
				},
				{
					"inputs": [],
					"name": "owner",
					"outputs": [
						{
							"internalType": "address",
							"name": "",
							"type": "address"
						}
					],
					"stateMutability": "view",
					"type": "function"
				},
				{
					"inputs": [],
					"name": "user",
					"outputs": [
						{
							"internalType": "address",
							"name": "",
							"type": "address"
						}
					],
					"stateMutability": "view",
					"type": "function"
				}
			],
			"devdoc": {
				"kind": "dev",
				"methods": {},
				"version": 1
			},
			"evm": {
				"assembly": "    /* \"levelup/snippet3.sol\":108:992  contract Snippet3 {... */\n  mstore(0x40, 0x80)\n    /* \"levelup/snippet3.sol\":327:471  constructor(string memory _flag, functions3 _f){... */\n  callvalue\n  dup1\n  iszero\n  tag_1\n  jumpi\n  0x00\n  dup1\n  revert\ntag_1:\n  pop\n  mload(0x40)\n  sub(codesize, bytecodeSize)\n  dup1\n  bytecodeSize\n  dup4\n  codecopy\n  dup2\n  dup2\n  add\n  0x40\n  mstore\n  dup2\n  add\n  swap1\n  tag_2\n  swap2\n  swap1\n  tag_3\n  jump\t// in\ntag_2:\n    /* \"levelup/snippet3.sol\":400:402  _f */\n  dup1\n    /* \"levelup/snippet3.sol\":385:386  f */\n  0x03\n  dup1\n    /* \"levelup/snippet3.sol\":385:403  f = functions3(_f) */\n  0x0100\n  exp\n  dup2\n  sload\n  dup2\n  0xffffffffffffffffffffffffffffffffffffffff\n  mul\n  not\n  and\n  swap1\n  dup4\n  0xffffffffffffffffffffffffffffffffffffffff\n  and\n  mul\n  or\n  swap1\n  sstore\n  pop\n    /* \"levelup/snippet3.sol\":422:432  msg.sender */\n  caller\n    /* \"levelup/snippet3.sol\":414:419  owner */\n  0x00\n  dup1\n    /* \"levelup/snippet3.sol\":414:432  owner = msg.sender */\n  0x0100\n  exp\n  dup2\n  sload\n  dup2\n  0xffffffffffffffffffffffffffffffffffffffff\n  mul\n  not\n  and\n  swap1\n  dup4\n  0xffffffffffffffffffffffffffffffffffffffff\n  and\n  mul\n  or\n  swap1\n  sstore\n  pop\n    /* \"levelup/snippet3.sol\":458:463  _flag */\n  dup2\n    /* \"levelup/snippet3.sol\":443:455  snippet_flag */\n  0x02\n    /* \"levelup/snippet3.sol\":443:463  snippet_flag = _flag */\n  swap1\n  dup1\n  mload\n  swap1\n  0x20\n  add\n  swap1\n  tag_6\n  swap3\n  swap2\n  swap1\n  tag_7\n  jump\t// in\ntag_6:\n  pop\n    /* \"levelup/snippet3.sol\":327:471  constructor(string memory _flag, functions3 _f){... */\n  pop\n  pop\n    /* \"levelup/snippet3.sol\":108:992  contract Snippet3 {... */\n  jump(tag_8)\ntag_7:\n  dup3\n  dup1\n  sload\n  tag_9\n  swap1\n  tag_10\n  jump\t// in\ntag_9:\n  swap1\n  0x00\n  mstore\n  keccak256(0x00, 0x20)\n  swap1\n  0x1f\n  add\n  0x20\n  swap1\n  div\n  dup2\n  add\n  swap3\n  dup3\n  tag_12\n  jumpi\n  0x00\n  dup6\n  sstore\n  jump(tag_11)\ntag_12:\n  dup3\n  0x1f\n  lt\n  tag_13\n  jumpi\n  dup1\n  mload\n  not(0xff)\n  and\n  dup4\n  dup1\n  add\n  or\n  dup6\n  sstore\n  jump(tag_11)\ntag_13:\n  dup3\n  dup1\n  add\n  0x01\n  add\n  dup6\n  sstore\n  dup3\n  iszero\n  tag_11\n  jumpi\n  swap2\n  dup3\n  add\ntag_14:\n  dup3\n  dup2\n  gt\n  iszero\n  tag_15\n  jumpi\n  dup3\n  mload\n  dup3\n  sstore\n  swap2\n  0x20\n  add\n  swap2\n  swap1\n  0x01\n  add\n  swap1\n  jump(tag_14)\ntag_15:\ntag_11:\n  pop\n  swap1\n  pop\n  tag_16\n  swap2\n  swap1\n  tag_17\n  jump\t// in\ntag_16:\n  pop\n  swap1\n  jump\t// out\ntag_17:\ntag_18:\n  dup1\n  dup3\n  gt\n  iszero\n  tag_19\n  jumpi\n  0x00\n  dup2\n  0x00\n  swap1\n  sstore\n  pop\n  0x01\n  add\n  jump(tag_18)\ntag_19:\n  pop\n  swap1\n  jump\t// out\n    /* \"#utility.yul\":7:82   */\ntag_20:\n    /* \"#utility.yul\":40:46   */\n  0x00\n    /* \"#utility.yul\":73:75   */\n  0x40\n    /* \"#utility.yul\":67:76   */\n  mload\n    /* \"#utility.yul\":57:76   */\n  swap1\n  pop\n    /* \"#utility.yul\":7:82   */\n  swap1\n  jump\t// out\n    /* \"#utility.yul\":88:205   */\ntag_21:\n    /* \"#utility.yul\":197:198   */\n  0x00\n    /* \"#utility.yul\":194:195   */\n  dup1\n    /* \"#utility.yul\":187:199   */\n  revert\n    /* \"#utility.yul\":211:328   */\ntag_22:\n    /* \"#utility.yul\":320:321   */\n  0x00\n    /* \"#utility.yul\":317:318   */\n  dup1\n    /* \"#utility.yul\":310:322   */\n  revert\n    /* \"#utility.yul\":334:451   */\ntag_23:\n    /* \"#utility.yul\":443:444   */\n  0x00\n    /* \"#utility.yul\":440:441   */\n  dup1\n    /* \"#utility.yul\":433:445   */\n  revert\n    /* \"#utility.yul\":457:574   */\ntag_24:\n    /* \"#utility.yul\":566:567   */\n  0x00\n    /* \"#utility.yul\":563:564   */\n  dup1\n    /* \"#utility.yul\":556:568   */\n  revert\n    /* \"#utility.yul\":580:682   */\ntag_25:\n    /* \"#utility.yul\":621:627   */\n  0x00\n    /* \"#utility.yul\":672:674   */\n  0x1f\n    /* \"#utility.yul\":668:675   */\n  not\n    /* \"#utility.yul\":663:665   */\n  0x1f\n    /* \"#utility.yul\":656:661   */\n  dup4\n    /* \"#utility.yul\":652:666   */\n  add\n    /* \"#utility.yul\":648:676   */\n  and\n    /* \"#utility.yul\":638:676   */\n  swap1\n  pop\n    /* \"#utility.yul\":580:682   */\n  swap2\n  swap1\n  pop\n  jump\t// out\n    /* \"#utility.yul\":688:868   */\ntag_26:\n    /* \"#utility.yul\":736:813   */\n  0x4e487b7100000000000000000000000000000000000000000000000000000000\n    /* \"#utility.yul\":733:734   */\n  0x00\n    /* \"#utility.yul\":726:814   */\n  mstore\n    /* \"#utility.yul\":833:837   */\n  0x41\n    /* \"#utility.yul\":830:831   */\n  0x04\n    /* \"#utility.yul\":823:838   */\n  mstore\n    /* \"#utility.yul\":857:861   */\n  0x24\n    /* \"#utility.yul\":854:855   */\n  0x00\n    /* \"#utility.yul\":847:862   */\n  revert\n    /* \"#utility.yul\":874:1155   */\ntag_27:\n    /* \"#utility.yul\":957:984   */\n  tag_48\n    /* \"#utility.yul\":979:983   */\n  dup3\n    /* \"#utility.yul\":957:984   */\n  tag_25\n  jump\t// in\ntag_48:\n    /* \"#utility.yul\":949:955   */\n  dup2\n    /* \"#utility.yul\":945:985   */\n  add\n    /* \"#utility.yul\":1087:1093   */\n  dup2\n    /* \"#utility.yul\":1075:1085   */\n  dup2\n    /* \"#utility.yul\":1072:1094   */\n  lt\n    /* \"#utility.yul\":1051:1069   */\n  0xffffffffffffffff\n    /* \"#utility.yul\":1039:1049   */\n  dup3\n    /* \"#utility.yul\":1036:1070   */\n  gt\n    /* \"#utility.yul\":1033:1095   */\n  or\n    /* \"#utility.yul\":1030:1118   */\n  iszero\n  tag_49\n  jumpi\n    /* \"#utility.yul\":1098:1116   */\n  tag_50\n  tag_26\n  jump\t// in\ntag_50:\n    /* \"#utility.yul\":1030:1118   */\ntag_49:\n    /* \"#utility.yul\":1138:1148   */\n  dup1\n    /* \"#utility.yul\":1134:1136   */\n  0x40\n    /* \"#utility.yul\":1127:1149   */\n  mstore\n    /* \"#utility.yul\":917:1155   */\n  pop\n    /* \"#utility.yul\":874:1155   */\n  pop\n  pop\n  jump\t// out\n    /* \"#utility.yul\":1161:1290   */\ntag_28:\n    /* \"#utility.yul\":1195:1201   */\n  0x00\n    /* \"#utility.yul\":1222:1242   */\n  tag_52\n  tag_20\n  jump\t// in\ntag_52:\n    /* \"#utility.yul\":1212:1242   */\n  swap1\n  pop\n    /* \"#utility.yul\":1251:1284   */\n  tag_53\n    /* \"#utility.yul\":1279:1283   */\n  dup3\n    /* \"#utility.yul\":1271:1277   */\n  dup3\n    /* \"#utility.yul\":1251:1284   */\n  tag_27\n  jump\t// in\ntag_53:\n    /* \"#utility.yul\":1161:1290   */\n  swap2\n  swap1\n  pop\n  jump\t// out\n    /* \"#utility.yul\":1296:1604   */\ntag_29:\n    /* \"#utility.yul\":1358:1362   */\n  0x00\n    /* \"#utility.yul\":1448:1466   */\n  0xffffffffffffffff\n    /* \"#utility.yul\":1440:1446   */\n  dup3\n    /* \"#utility.yul\":1437:1467   */\n  gt\n    /* \"#utility.yul\":1434:1490   */\n  iszero\n  tag_55\n  jumpi\n    /* \"#utility.yul\":1470:1488   */\n  tag_56\n  tag_26\n  jump\t// in\ntag_56:\n    /* \"#utility.yul\":1434:1490   */\ntag_55:\n    /* \"#utility.yul\":1508:1537   */\n  tag_57\n    /* \"#utility.yul\":1530:1536   */\n  dup3\n    /* \"#utility.yul\":1508:1537   */\n  tag_25\n  jump\t// in\ntag_57:\n    /* \"#utility.yul\":1500:1537   */\n  swap1\n  pop\n    /* \"#utility.yul\":1592:1596   */\n  0x20\n    /* \"#utility.yul\":1586:1590   */\n  dup2\n    /* \"#utility.yul\":1582:1597   */\n  add\n    /* \"#utility.yul\":1574:1597   */\n  swap1\n  pop\n    /* \"#utility.yul\":1296:1604   */\n  swap2\n  swap1\n  pop\n  jump\t// out\n    /* \"#utility.yul\":1610:1917   */\ntag_30:\n    /* \"#utility.yul\":1678:1679   */\n  0x00\n    /* \"#utility.yul\":1688:1801   */\ntag_59:\n    /* \"#utility.yul\":1702:1708   */\n  dup4\n    /* \"#utility.yul\":1699:1700   */\n  dup2\n    /* \"#utility.yul\":1696:1709   */\n  lt\n    /* \"#utility.yul\":1688:1801   */\n  iszero\n  tag_61\n  jumpi\n    /* \"#utility.yul\":1787:1788   */\n  dup1\n    /* \"#utility.yul\":1782:1785   */\n  dup3\n    /* \"#utility.yul\":1778:1789   */\n  add\n    /* \"#utility.yul\":1772:1790   */\n  mload\n    /* \"#utility.yul\":1768:1769   */\n  dup2\n    /* \"#utility.yul\":1763:1766   */\n  dup5\n    /* \"#utility.yul\":1759:1770   */\n  add\n    /* \"#utility.yul\":1752:1791   */\n  mstore\n    /* \"#utility.yul\":1724:1726   */\n  0x20\n    /* \"#utility.yul\":1721:1722   */\n  dup2\n    /* \"#utility.yul\":1717:1727   */\n  add\n    /* \"#utility.yul\":1712:1727   */\n  swap1\n  pop\n    /* \"#utility.yul\":1688:1801   */\n  jump(tag_59)\ntag_61:\n    /* \"#utility.yul\":1819:1825   */\n  dup4\n    /* \"#utility.yul\":1816:1817   */\n  dup2\n    /* \"#utility.yul\":1813:1826   */\n  gt\n    /* \"#utility.yul\":1810:1911   */\n  iszero\n  tag_62\n  jumpi\n    /* \"#utility.yul\":1899:1900   */\n  0x00\n    /* \"#utility.yul\":1890:1896   */\n  dup5\n    /* \"#utility.yul\":1885:1888   */\n  dup5\n    /* \"#utility.yul\":1881:1897   */\n  add\n    /* \"#utility.yul\":1874:1901   */\n  mstore\n    /* \"#utility.yul\":1810:1911   */\ntag_62:\n    /* \"#utility.yul\":1659:1917   */\n  pop\n    /* \"#utility.yul\":1610:1917   */\n  pop\n  pop\n  pop\n  jump\t// out\n    /* \"#utility.yul\":1923:2344   */\ntag_31:\n    /* \"#utility.yul\":2012:2017   */\n  0x00\n    /* \"#utility.yul\":2037:2103   */\n  tag_64\n    /* \"#utility.yul\":2053:2102   */\n  tag_65\n    /* \"#utility.yul\":2095:2101   */\n  dup5\n    /* \"#utility.yul\":2053:2102   */\n  tag_29\n  jump\t// in\ntag_65:\n    /* \"#utility.yul\":2037:2103   */\n  tag_28\n  jump\t// in\ntag_64:\n    /* \"#utility.yul\":2028:2103   */\n  swap1\n  pop\n    /* \"#utility.yul\":2126:2132   */\n  dup3\n    /* \"#utility.yul\":2119:2124   */\n  dup2\n    /* \"#utility.yul\":2112:2133   */\n  mstore\n    /* \"#utility.yul\":2164:2168   */\n  0x20\n    /* \"#utility.yul\":2157:2162   */\n  dup2\n    /* \"#utility.yul\":2153:2169   */\n  add\n    /* \"#utility.yul\":2202:2205   */\n  dup5\n    /* \"#utility.yul\":2193:2199   */\n  dup5\n    /* \"#utility.yul\":2188:2191   */\n  dup5\n    /* \"#utility.yul\":2184:2200   */\n  add\n    /* \"#utility.yul\":2181:2206   */\n  gt\n    /* \"#utility.yul\":2178:2290   */\n  iszero\n  tag_66\n  jumpi\n    /* \"#utility.yul\":2209:2288   */\n  tag_67\n  tag_24\n  jump\t// in\ntag_67:\n    /* \"#utility.yul\":2178:2290   */\ntag_66:\n    /* \"#utility.yul\":2299:2338   */\n  tag_68\n    /* \"#utility.yul\":2331:2337   */\n  dup5\n    /* \"#utility.yul\":2326:2329   */\n  dup3\n    /* \"#utility.yul\":2321:2324   */\n  dup6\n    /* \"#utility.yul\":2299:2338   */\n  tag_30\n  jump\t// in\ntag_68:\n    /* \"#utility.yul\":2018:2344   */\n  pop\n    /* \"#utility.yul\":1923:2344   */\n  swap4\n  swap3\n  pop\n  pop\n  pop\n  jump\t// out\n    /* \"#utility.yul\":2364:2719   */\ntag_32:\n    /* \"#utility.yul\":2431:2436   */\n  0x00\n    /* \"#utility.yul\":2480:2483   */\n  dup3\n    /* \"#utility.yul\":2473:2477   */\n  0x1f\n    /* \"#utility.yul\":2465:2471   */\n  dup4\n    /* \"#utility.yul\":2461:2478   */\n  add\n    /* \"#utility.yul\":2457:2484   */\n  slt\n    /* \"#utility.yul\":2447:2569   */\n  tag_70\n  jumpi\n    /* \"#utility.yul\":2488:2567   */\n  tag_71\n  tag_23\n  jump\t// in\ntag_71:\n    /* \"#utility.yul\":2447:2569   */\ntag_70:\n    /* \"#utility.yul\":2598:2604   */\n  dup2\n    /* \"#utility.yul\":2592:2605   */\n  mload\n    /* \"#utility.yul\":2623:2713   */\n  tag_72\n    /* \"#utility.yul\":2709:2712   */\n  dup5\n    /* \"#utility.yul\":2701:2707   */\n  dup3\n    /* \"#utility.yul\":2694:2698   */\n  0x20\n    /* \"#utility.yul\":2686:2692   */\n  dup7\n    /* \"#utility.yul\":2682:2699   */\n  add\n    /* \"#utility.yul\":2623:2713   */\n  tag_31\n  jump\t// in\ntag_72:\n    /* \"#utility.yul\":2614:2713   */\n  swap2\n  pop\n    /* \"#utility.yul\":2437:2719   */\n  pop\n    /* \"#utility.yul\":2364:2719   */\n  swap3\n  swap2\n  pop\n  pop\n  jump\t// out\n    /* \"#utility.yul\":2725:2851   */\ntag_33:\n    /* \"#utility.yul\":2762:2769   */\n  0x00\n    /* \"#utility.yul\":2802:2844   */\n  0xffffffffffffffffffffffffffffffffffffffff\n    /* \"#utility.yul\":2795:2800   */\n  dup3\n    /* \"#utility.yul\":2791:2845   */\n  and\n    /* \"#utility.yul\":2780:2845   */\n  swap1\n  pop\n    /* \"#utility.yul\":2725:2851   */\n  swap2\n  swap1\n  pop\n  jump\t// out\n    /* \"#utility.yul\":2857:2953   */\ntag_34:\n    /* \"#utility.yul\":2894:2901   */\n  0x00\n    /* \"#utility.yul\":2923:2947   */\n  tag_75\n    /* \"#utility.yul\":2941:2946   */\n  dup3\n    /* \"#utility.yul\":2923:2947   */\n  tag_33\n  jump\t// in\ntag_75:\n    /* \"#utility.yul\":2912:2947   */\n  swap1\n  pop\n    /* \"#utility.yul\":2857:2953   */\n  swap2\n  swap1\n  pop\n  jump\t// out\n    /* \"#utility.yul\":2959:3072   */\ntag_35:\n    /* \"#utility.yul\":3013:3020   */\n  0x00\n    /* \"#utility.yul\":3042:3066   */\n  tag_77\n    /* \"#utility.yul\":3060:3065   */\n  dup3\n    /* \"#utility.yul\":3042:3066   */\n  tag_34\n  jump\t// in\ntag_77:\n    /* \"#utility.yul\":3031:3066   */\n  swap1\n  pop\n    /* \"#utility.yul\":2959:3072   */\n  swap2\n  swap1\n  pop\n  jump\t// out\n    /* \"#utility.yul\":3078:3234   */\ntag_36:\n    /* \"#utility.yul\":3168:3209   */\n  tag_79\n    /* \"#utility.yul\":3203:3208   */\n  dup2\n    /* \"#utility.yul\":3168:3209   */\n  tag_35\n  jump\t// in\ntag_79:\n    /* \"#utility.yul\":3161:3166   */\n  dup2\n    /* \"#utility.yul\":3158:3210   */\n  eq\n    /* \"#utility.yul\":3148:3228   */\n  tag_80\n  jumpi\n    /* \"#utility.yul\":3224:3225   */\n  0x00\n    /* \"#utility.yul\":3221:3222   */\n  dup1\n    /* \"#utility.yul\":3214:3226   */\n  revert\n    /* \"#utility.yul\":3148:3228   */\ntag_80:\n    /* \"#utility.yul\":3078:3234   */\n  pop\n  jump\t// out\n    /* \"#utility.yul\":3240:3417   */\ntag_37:\n    /* \"#utility.yul\":3314:3319   */\n  0x00\n    /* \"#utility.yul\":3345:3351   */\n  dup2\n    /* \"#utility.yul\":3339:3352   */\n  mload\n    /* \"#utility.yul\":3330:3352   */\n  swap1\n  pop\n    /* \"#utility.yul\":3361:3411   */\n  tag_82\n    /* \"#utility.yul\":3405:3410   */\n  dup2\n    /* \"#utility.yul\":3361:3411   */\n  tag_36\n  jump\t// in\ntag_82:\n    /* \"#utility.yul\":3240:3417   */\n  swap3\n  swap2\n  pop\n  pop\n  jump\t// out\n    /* \"#utility.yul\":3423:4137   */\ntag_3:\n    /* \"#utility.yul\":3529:3535   */\n  0x00\n    /* \"#utility.yul\":3537:3543   */\n  dup1\n    /* \"#utility.yul\":3586:3588   */\n  0x40\n    /* \"#utility.yul\":3574:3583   */\n  dup4\n    /* \"#utility.yul\":3565:3572   */\n  dup6\n    /* \"#utility.yul\":3561:3584   */\n  sub\n    /* \"#utility.yul\":3557:3589   */\n  slt\n    /* \"#utility.yul\":3554:3673   */\n  iszero\n  tag_84\n  jumpi\n    /* \"#utility.yul\":3592:3671   */\n  tag_85\n  tag_21\n  jump\t// in\ntag_85:\n    /* \"#utility.yul\":3554:3673   */\ntag_84:\n    /* \"#utility.yul\":3733:3734   */\n  0x00\n    /* \"#utility.yul\":3722:3731   */\n  dup4\n    /* \"#utility.yul\":3718:3735   */\n  add\n    /* \"#utility.yul\":3712:3736   */\n  mload\n    /* \"#utility.yul\":3763:3781   */\n  0xffffffffffffffff\n    /* \"#utility.yul\":3755:3761   */\n  dup2\n    /* \"#utility.yul\":3752:3782   */\n  gt\n    /* \"#utility.yul\":3749:3866   */\n  iszero\n  tag_86\n  jumpi\n    /* \"#utility.yul\":3785:3864   */\n  tag_87\n  tag_22\n  jump\t// in\ntag_87:\n    /* \"#utility.yul\":3749:3866   */\ntag_86:\n    /* \"#utility.yul\":3890:3964   */\n  tag_88\n    /* \"#utility.yul\":3956:3963   */\n  dup6\n    /* \"#utility.yul\":3947:3953   */\n  dup3\n    /* \"#utility.yul\":3936:3945   */\n  dup7\n    /* \"#utility.yul\":3932:3954   */\n  add\n    /* \"#utility.yul\":3890:3964   */\n  tag_32\n  jump\t// in\ntag_88:\n    /* \"#utility.yul\":3880:3964   */\n  swap3\n  pop\n    /* \"#utility.yul\":3683:3974   */\n  pop\n    /* \"#utility.yul\":4013:4015   */\n  0x20\n    /* \"#utility.yul\":4039:4120   */\n  tag_89\n    /* \"#utility.yul\":4112:4119   */\n  dup6\n    /* \"#utility.yul\":4103:4109   */\n  dup3\n    /* \"#utility.yul\":4092:4101   */\n  dup7\n    /* \"#utility.yul\":4088:4110   */\n  add\n    /* \"#utility.yul\":4039:4120   */\n  tag_37\n  jump\t// in\ntag_89:\n    /* \"#utility.yul\":4029:4120   */\n  swap2\n  pop\n    /* \"#utility.yul\":3984:4130   */\n  pop\n    /* \"#utility.yul\":3423:4137   */\n  swap3\n  pop\n  swap3\n  swap1\n  pop\n  jump\t// out\n    /* \"#utility.yul\":4143:4323   */\ntag_38:\n    /* \"#utility.yul\":4191:4268   */\n  0x4e487b7100000000000000000000000000000000000000000000000000000000\n    /* \"#utility.yul\":4188:4189   */\n  0x00\n    /* \"#utility.yul\":4181:4269   */\n  mstore\n    /* \"#utility.yul\":4288:4292   */\n  0x22\n    /* \"#utility.yul\":4285:4286   */\n  0x04\n    /* \"#utility.yul\":4278:4293   */\n  mstore\n    /* \"#utility.yul\":4312:4316   */\n  0x24\n    /* \"#utility.yul\":4309:4310   */\n  0x00\n    /* \"#utility.yul\":4302:4317   */\n  revert\n    /* \"#utility.yul\":4329:4649   */\ntag_10:\n    /* \"#utility.yul\":4373:4379   */\n  0x00\n    /* \"#utility.yul\":4410:4411   */\n  0x02\n    /* \"#utility.yul\":4404:4408   */\n  dup3\n    /* \"#utility.yul\":4400:4412   */\n  div\n    /* \"#utility.yul\":4390:4412   */\n  swap1\n  pop\n    /* \"#utility.yul\":4457:4458   */\n  0x01\n    /* \"#utility.yul\":4451:4455   */\n  dup3\n    /* \"#utility.yul\":4447:4459   */\n  and\n    /* \"#utility.yul\":4478:4496   */\n  dup1\n    /* \"#utility.yul\":4468:4549   */\n  tag_92\n  jumpi\n    /* \"#utility.yul\":4534:4538   */\n  0x7f\n    /* \"#utility.yul\":4526:4532   */\n  dup3\n    /* \"#utility.yul\":4522:4539   */\n  and\n    /* \"#utility.yul\":4512:4539   */\n  swap2\n  pop\n    /* \"#utility.yul\":4468:4549   */\ntag_92:\n    /* \"#utility.yul\":4596:4598   */\n  0x20\n    /* \"#utility.yul\":4588:4594   */\n  dup3\n    /* \"#utility.yul\":4585:4599   */\n  lt\n    /* \"#utility.yul\":4565:4583   */\n  dup2\n    /* \"#utility.yul\":4562:4600   */\n  eq\n    /* \"#utility.yul\":4559:4643   */\n  iszero\n  tag_93\n  jumpi\n    /* \"#utility.yul\":4615:4633   */\n  tag_94\n  tag_38\n  jump\t// in\ntag_94:\n    /* \"#utility.yul\":4559:4643   */\ntag_93:\n    /* \"#utility.yul\":4380:4649   */\n  pop\n    /* \"#utility.yul\":4329:4649   */\n  swap2\n  swap1\n  pop\n  jump\t// out\n    /* \"levelup/snippet3.sol\":108:992  contract Snippet3 {... */\ntag_8:\n  dataSize(sub_0)\n  dup1\n  dataOffset(sub_0)\n  0x00\n  codecopy\n  0x00\n  return\nstop\n\nsub_0: assembly {\n        /* \"levelup/snippet3.sol\":108:992  contract Snippet3 {... */\n      mstore(0x40, 0x80)\n      callvalue\n      dup1\n      iszero\n      tag_1\n      jumpi\n      0x00\n      dup1\n      revert\n    tag_1:\n      pop\n      jumpi(tag_2, lt(calldatasize, 0x04))\n      shr(0xe0, calldataload(0x00))\n      dup1\n      0x4f8632ba\n      gt\n      tag_11\n      jumpi\n      dup1\n      0x4f8632ba\n      eq\n      tag_7\n      jumpi\n      dup1\n      0x8da5cb5b\n      eq\n      tag_8\n      jumpi\n      dup1\n      0x91bfb74f\n      eq\n      tag_9\n      jumpi\n      dup1\n      0xf9633930\n      eq\n      tag_10\n      jumpi\n      jump(tag_2)\n    tag_11:\n      dup1\n      0x0748f40a\n      eq\n      tag_3\n      jumpi\n      dup1\n      0x07fd72f6\n      eq\n      tag_4\n      jumpi\n      dup1\n      0x0cf2f2c1\n      eq\n      tag_5\n      jumpi\n      dup1\n      0x26121ff0\n      eq\n      tag_6\n      jumpi\n    tag_2:\n      0x00\n      dup1\n      revert\n        /* \"levelup/snippet3.sol\":783:981  function execution_function(bytes memory _data) public {... */\n    tag_3:\n      tag_12\n      0x04\n      dup1\n      calldatasize\n      sub\n      dup2\n      add\n      swap1\n      tag_13\n      swap2\n      swap1\n      tag_14\n      jump\t// in\n    tag_13:\n      tag_15\n      jump\t// in\n    tag_12:\n      stop\n        /* \"levelup/snippet3.sol\":266:292  uint8 public climbedMeters */\n    tag_4:\n      tag_16\n      tag_17\n      jump\t// in\n    tag_16:\n      mload(0x40)\n      tag_18\n      swap2\n      swap1\n      tag_19\n      jump\t// in\n    tag_18:\n      mload(0x40)\n      dup1\n      swap2\n      sub\n      swap1\n      return\n        /* \"levelup/snippet3.sol\":214:230  bool public fall */\n    tag_5:\n      tag_20\n      tag_21\n      jump\t// in\n    tag_20:\n      mload(0x40)\n      tag_22\n      swap2\n      swap1\n      tag_23\n      jump\t// in\n    tag_22:\n      mload(0x40)\n      dup1\n      swap2\n      sub\n      swap1\n      return\n        /* \"levelup/snippet3.sol\":299:318  functions3 public f */\n    tag_6:\n      tag_24\n      tag_25\n      jump\t// in\n    tag_24:\n      mload(0x40)\n      tag_26\n      swap2\n      swap1\n      tag_27\n      jump\t// in\n    tag_26:\n      mload(0x40)\n      dup1\n      swap2\n      sub\n      swap1\n      return\n        /* \"levelup/snippet3.sol\":162:181  address public user */\n    tag_7:\n      tag_28\n      tag_29\n      jump\t// in\n    tag_28:\n      mload(0x40)\n      tag_30\n      swap2\n      swap1\n      tag_31\n      jump\t// in\n    tag_30:\n      mload(0x40)\n      dup1\n      swap2\n      sub\n      swap1\n      return\n        /* \"levelup/snippet3.sol\":135:155  address public owner */\n    tag_8:\n      tag_32\n      tag_33\n      jump\t// in\n    tag_32:\n      mload(0x40)\n      tag_34\n      swap2\n      swap1\n      tag_31\n      jump\t// in\n    tag_34:\n      mload(0x40)\n      dup1\n      swap2\n      sub\n      swap1\n      return\n        /* \"levelup/snippet3.sol\":237:259  bool public easter_egg */\n    tag_9:\n      tag_35\n      tag_36\n      jump\t// in\n    tag_35:\n      mload(0x40)\n      tag_37\n      swap2\n      swap1\n      tag_23\n      jump\t// in\n    tag_37:\n      mload(0x40)\n      dup1\n      swap2\n      sub\n      swap1\n      return\n        /* \"levelup/snippet3.sol\":479:775  function getFlag() public returns(string memory){... */\n    tag_10:\n      tag_38\n      tag_39\n      jump\t// in\n    tag_38:\n      mload(0x40)\n      tag_40\n      swap2\n      swap1\n      tag_41\n      jump\t// in\n    tag_40:\n      mload(0x40)\n      dup1\n      swap2\n      sub\n      swap1\n      return\n        /* \"levelup/snippet3.sol\":783:981  function execution_function(bytes memory _data) public {... */\n    tag_15:\n        /* \"levelup/snippet3.sol\":850:862  bool success */\n      0x00\n        /* \"levelup/snippet3.sol\":864:889  bytes memory returnedData */\n      dup1\n        /* \"levelup/snippet3.sol\":901:902  f */\n      0x03\n      dup1\n      sload\n      swap1\n      0x0100\n      exp\n      swap1\n      div\n      0xffffffffffffffffffffffffffffffffffffffff\n      and\n        /* \"levelup/snippet3.sol\":893:916  address(f).delegatecall */\n      0xffffffffffffffffffffffffffffffffffffffff\n      and\n        /* \"levelup/snippet3.sol\":917:922  _data */\n      dup4\n        /* \"levelup/snippet3.sol\":893:923  address(f).delegatecall(_data) */\n      mload(0x40)\n      tag_43\n      swap2\n      swap1\n      tag_44\n      jump\t// in\n    tag_43:\n      0x00\n      mload(0x40)\n      dup1\n      dup4\n      sub\n      dup2\n      dup6\n      gas\n      delegatecall\n      swap2\n      pop\n      pop\n      returndatasize\n      dup1\n      0x00\n      dup2\n      eq\n      tag_47\n      jumpi\n      mload(0x40)\n      swap2\n      pop\n      and(add(returndatasize, 0x3f), not(0x1f))\n      dup3\n      add\n      0x40\n      mstore\n      returndatasize\n      dup3\n      mstore\n      returndatasize\n      0x00\n      0x20\n      dup5\n      add\n      returndatacopy\n      jump(tag_46)\n    tag_47:\n      0x60\n      swap2\n      pop\n    tag_46:\n      pop\n        /* \"levelup/snippet3.sol\":849:923  (bool success, bytes memory returnedData) = address(f).delegatecall(_data) */\n      swap2\n      pop\n      swap2\n      pop\n        /* \"levelup/snippet3.sol\":942:949  success */\n      dup2\n        /* \"levelup/snippet3.sol\":934:973  require(success,\"Delegada no correcta\") */\n      tag_48\n      jumpi\n      mload(0x40)\n      0x08c379a000000000000000000000000000000000000000000000000000000000\n      dup2\n      mstore\n      0x04\n      add\n      tag_49\n      swap1\n      tag_50\n      jump\t// in\n    tag_49:\n      mload(0x40)\n      dup1\n      swap2\n      sub\n      swap1\n      revert\n    tag_48:\n        /* \"levelup/snippet3.sol\":838:981  {... */\n      pop\n      pop\n        /* \"levelup/snippet3.sol\":783:981  function execution_function(bytes memory _data) public {... */\n      pop\n      jump\t// out\n        /* \"levelup/snippet3.sol\":266:292  uint8 public climbedMeters */\n    tag_17:\n      0x03\n      0x02\n      swap1\n      sload\n      swap1\n      0x0100\n      exp\n      swap1\n      div\n      0xff\n      and\n      dup2\n      jump\t// out\n        /* \"levelup/snippet3.sol\":214:230  bool public fall */\n    tag_21:\n      0x03\n      0x00\n      swap1\n      sload\n      swap1\n      0x0100\n      exp\n      swap1\n      div\n      0xff\n      and\n      dup2\n      jump\t// out\n        /* \"levelup/snippet3.sol\":299:318  functions3 public f */\n    tag_25:\n      0x03\n      dup1\n      sload\n      swap1\n      0x0100\n      exp\n      swap1\n      div\n      0xffffffffffffffffffffffffffffffffffffffff\n      and\n      dup2\n      jump\t// out\n        /* \"levelup/snippet3.sol\":162:181  address public user */\n    tag_29:\n      0x01\n      0x00\n      swap1\n      sload\n      swap1\n      0x0100\n      exp\n      swap1\n      div\n      0xffffffffffffffffffffffffffffffffffffffff\n      and\n      dup2\n      jump\t// out\n        /* \"levelup/snippet3.sol\":135:155  address public owner */\n    tag_33:\n      0x00\n      dup1\n      sload\n      swap1\n      0x0100\n      exp\n      swap1\n      div\n      0xffffffffffffffffffffffffffffffffffffffff\n      and\n      dup2\n      jump\t// out\n        /* \"levelup/snippet3.sol\":237:259  bool public easter_egg */\n    tag_36:\n      0x03\n      0x01\n      swap1\n      sload\n      swap1\n      0x0100\n      exp\n      swap1\n      div\n      0xff\n      and\n      dup2\n      jump\t// out\n        /* \"levelup/snippet3.sol\":479:775  function getFlag() public returns(string memory){... */\n    tag_39:\n        /* \"levelup/snippet3.sol\":513:526  string memory */\n      0x60\n        /* \"levelup/snippet3.sol\":555:565  msg.sender */\n      caller\n        /* \"levelup/snippet3.sol\":546:565  owner == msg.sender */\n      0xffffffffffffffffffffffffffffffffffffffff\n      and\n        /* \"levelup/snippet3.sol\":546:551  owner */\n      0x00\n      dup1\n      sload\n      swap1\n      0x0100\n      exp\n      swap1\n      div\n      0xffffffffffffffffffffffffffffffffffffffff\n      and\n        /* \"levelup/snippet3.sol\":546:565  owner == msg.sender */\n      0xffffffffffffffffffffffffffffffffffffffff\n      and\n      eq\n        /* \"levelup/snippet3.sol\":538:604  require(owner == msg.sender,\"No eres el propietario del contrato\") */\n      tag_52\n      jumpi\n      mload(0x40)\n      0x08c379a000000000000000000000000000000000000000000000000000000000\n      dup2\n      mstore\n      0x04\n      add\n      tag_53\n      swap1\n      tag_54\n      jump\t// in\n    tag_53:\n      mload(0x40)\n      dup1\n      swap2\n      sub\n      swap1\n      revert\n    tag_52:\n        /* \"levelup/snippet3.sol\":639:640  3 */\n      0x03\n        /* \"levelup/snippet3.sol\":623:636  climbedMeters */\n      dup1\n      0x02\n      swap1\n      sload\n      swap1\n      0x0100\n      exp\n      swap1\n      div\n      0xff\n      and\n        /* \"levelup/snippet3.sol\":623:640  climbedMeters > 3 */\n      0xff\n      and\n      gt\n        /* \"levelup/snippet3.sol\":615:673  require(climbedMeters > 3,\"No has escalado lo sufuciente\") */\n      tag_55\n      jumpi\n      mload(0x40)\n      0x08c379a000000000000000000000000000000000000000000000000000000000\n      dup2\n      mstore\n      0x04\n      add\n      tag_56\n      swap1\n      tag_57\n      jump\t// in\n    tag_56:\n      mload(0x40)\n      dup1\n      swap2\n      sub\n      swap1\n      revert\n    tag_55:\n        /* \"levelup/snippet3.sol\":689:693  fall */\n      0x03\n      0x00\n      swap1\n      sload\n      swap1\n      0x0100\n      exp\n      swap1\n      div\n      0xff\n      and\n        /* \"levelup/snippet3.sol\":684:738  if (!fall){... */\n      tag_58\n      jumpi\n        /* \"levelup/snippet3.sol\":722:726  true */\n      0x01\n        /* \"levelup/snippet3.sol\":709:719  easter_egg */\n      0x03\n      0x01\n        /* \"levelup/snippet3.sol\":709:726  easter_egg = true */\n      0x0100\n      exp\n      dup2\n      sload\n      dup2\n      0xff\n      mul\n      not\n      and\n      swap1\n      dup4\n      iszero\n      iszero\n      mul\n      or\n      swap1\n      sstore\n      pop\n        /* \"levelup/snippet3.sol\":684:738  if (!fall){... */\n    tag_58:\n        /* \"levelup/snippet3.sol\":755:767  snippet_flag */\n      0x02\n        /* \"levelup/snippet3.sol\":748:767  return snippet_flag */\n      dup1\n      sload\n      tag_59\n      swap1\n      tag_60\n      jump\t// in\n    tag_59:\n      dup1\n      0x1f\n      add\n      0x20\n      dup1\n      swap2\n      div\n      mul\n      0x20\n      add\n      mload(0x40)\n      swap1\n      dup2\n      add\n      0x40\n      mstore\n      dup1\n      swap3\n      swap2\n      swap1\n      dup2\n      dup2\n      mstore\n      0x20\n      add\n      dup3\n      dup1\n      sload\n      tag_61\n      swap1\n      tag_60\n      jump\t// in\n    tag_61:\n      dup1\n      iszero\n      tag_62\n      jumpi\n      dup1\n      0x1f\n      lt\n      tag_63\n      jumpi\n      0x0100\n      dup1\n      dup4\n      sload\n      div\n      mul\n      dup4\n      mstore\n      swap2\n      0x20\n      add\n      swap2\n      jump(tag_62)\n    tag_63:\n      dup3\n      add\n      swap2\n      swap1\n      0x00\n      mstore\n      keccak256(0x00, 0x20)\n      swap1\n    tag_64:\n      dup2\n      sload\n      dup2\n      mstore\n      swap1\n      0x01\n      add\n      swap1\n      0x20\n      add\n      dup1\n      dup4\n      gt\n      tag_64\n      jumpi\n      dup3\n      swap1\n      sub\n      0x1f\n      and\n      dup3\n      add\n      swap2\n    tag_62:\n      pop\n      pop\n      pop\n      pop\n      pop\n      swap1\n      pop\n        /* \"levelup/snippet3.sol\":479:775  function getFlag() public returns(string memory){... */\n      swap1\n      jump\t// out\n        /* \"#utility.yul\":7:82   */\n    tag_65:\n        /* \"#utility.yul\":40:46   */\n      0x00\n        /* \"#utility.yul\":73:75   */\n      0x40\n        /* \"#utility.yul\":67:76   */\n      mload\n        /* \"#utility.yul\":57:76   */\n      swap1\n      pop\n        /* \"#utility.yul\":7:82   */\n      swap1\n      jump\t// out\n        /* \"#utility.yul\":88:205   */\n    tag_66:\n        /* \"#utility.yul\":197:198   */\n      0x00\n        /* \"#utility.yul\":194:195   */\n      dup1\n        /* \"#utility.yul\":187:199   */\n      revert\n        /* \"#utility.yul\":211:328   */\n    tag_67:\n        /* \"#utility.yul\":320:321   */\n      0x00\n        /* \"#utility.yul\":317:318   */\n      dup1\n        /* \"#utility.yul\":310:322   */\n      revert\n        /* \"#utility.yul\":334:451   */\n    tag_68:\n        /* \"#utility.yul\":443:444   */\n      0x00\n        /* \"#utility.yul\":440:441   */\n      dup1\n        /* \"#utility.yul\":433:445   */\n      revert\n        /* \"#utility.yul\":457:574   */\n    tag_69:\n        /* \"#utility.yul\":566:567   */\n      0x00\n        /* \"#utility.yul\":563:564   */\n      dup1\n        /* \"#utility.yul\":556:568   */\n      revert\n        /* \"#utility.yul\":580:682   */\n    tag_70:\n        /* \"#utility.yul\":621:627   */\n      0x00\n        /* \"#utility.yul\":672:674   */\n      0x1f\n        /* \"#utility.yul\":668:675   */\n      not\n        /* \"#utility.yul\":663:665   */\n      0x1f\n        /* \"#utility.yul\":656:661   */\n      dup4\n        /* \"#utility.yul\":652:666   */\n      add\n        /* \"#utility.yul\":648:676   */\n      and\n        /* \"#utility.yul\":638:676   */\n      swap1\n      pop\n        /* \"#utility.yul\":580:682   */\n      swap2\n      swap1\n      pop\n      jump\t// out\n        /* \"#utility.yul\":688:868   */\n    tag_71:\n        /* \"#utility.yul\":736:813   */\n      0x4e487b7100000000000000000000000000000000000000000000000000000000\n        /* \"#utility.yul\":733:734   */\n      0x00\n        /* \"#utility.yul\":726:814   */\n      mstore\n        /* \"#utility.yul\":833:837   */\n      0x41\n        /* \"#utility.yul\":830:831   */\n      0x04\n        /* \"#utility.yul\":823:838   */\n      mstore\n        /* \"#utility.yul\":857:861   */\n      0x24\n        /* \"#utility.yul\":854:855   */\n      0x00\n        /* \"#utility.yul\":847:862   */\n      revert\n        /* \"#utility.yul\":874:1155   */\n    tag_72:\n        /* \"#utility.yul\":957:984   */\n      tag_113\n        /* \"#utility.yul\":979:983   */\n      dup3\n        /* \"#utility.yul\":957:984   */\n      tag_70\n      jump\t// in\n    tag_113:\n        /* \"#utility.yul\":949:955   */\n      dup2\n        /* \"#utility.yul\":945:985   */\n      add\n        /* \"#utility.yul\":1087:1093   */\n      dup2\n        /* \"#utility.yul\":1075:1085   */\n      dup2\n        /* \"#utility.yul\":1072:1094   */\n      lt\n        /* \"#utility.yul\":1051:1069   */\n      0xffffffffffffffff\n        /* \"#utility.yul\":1039:1049   */\n      dup3\n        /* \"#utility.yul\":1036:1070   */\n      gt\n        /* \"#utility.yul\":1033:1095   */\n      or\n        /* \"#utility.yul\":1030:1118   */\n      iszero\n      tag_114\n      jumpi\n        /* \"#utility.yul\":1098:1116   */\n      tag_115\n      tag_71\n      jump\t// in\n    tag_115:\n        /* \"#utility.yul\":1030:1118   */\n    tag_114:\n        /* \"#utility.yul\":1138:1148   */\n      dup1\n        /* \"#utility.yul\":1134:1136   */\n      0x40\n        /* \"#utility.yul\":1127:1149   */\n      mstore\n        /* \"#utility.yul\":917:1155   */\n      pop\n        /* \"#utility.yul\":874:1155   */\n      pop\n      pop\n      jump\t// out\n        /* \"#utility.yul\":1161:1290   */\n    tag_73:\n        /* \"#utility.yul\":1195:1201   */\n      0x00\n        /* \"#utility.yul\":1222:1242   */\n      tag_117\n      tag_65\n      jump\t// in\n    tag_117:\n        /* \"#utility.yul\":1212:1242   */\n      swap1\n      pop\n        /* \"#utility.yul\":1251:1284   */\n      tag_118\n        /* \"#utility.yul\":1279:1283   */\n      dup3\n        /* \"#utility.yul\":1271:1277   */\n      dup3\n        /* \"#utility.yul\":1251:1284   */\n      tag_72\n      jump\t// in\n    tag_118:\n        /* \"#utility.yul\":1161:1290   */\n      swap2\n      swap1\n      pop\n      jump\t// out\n        /* \"#utility.yul\":1296:1603   */\n    tag_74:\n        /* \"#utility.yul\":1357:1361   */\n      0x00\n        /* \"#utility.yul\":1447:1465   */\n      0xffffffffffffffff\n        /* \"#utility.yul\":1439:1445   */\n      dup3\n        /* \"#utility.yul\":1436:1466   */\n      gt\n        /* \"#utility.yul\":1433:1489   */\n      iszero\n      tag_120\n      jumpi\n        /* \"#utility.yul\":1469:1487   */\n      tag_121\n      tag_71\n      jump\t// in\n    tag_121:\n        /* \"#utility.yul\":1433:1489   */\n    tag_120:\n        /* \"#utility.yul\":1507:1536   */\n      tag_122\n        /* \"#utility.yul\":1529:1535   */\n      dup3\n        /* \"#utility.yul\":1507:1536   */\n      tag_70\n      jump\t// in\n    tag_122:\n        /* \"#utility.yul\":1499:1536   */\n      swap1\n      pop\n        /* \"#utility.yul\":1591:1595   */\n      0x20\n        /* \"#utility.yul\":1585:1589   */\n      dup2\n        /* \"#utility.yul\":1581:1596   */\n      add\n        /* \"#utility.yul\":1573:1596   */\n      swap1\n      pop\n        /* \"#utility.yul\":1296:1603   */\n      swap2\n      swap1\n      pop\n      jump\t// out\n        /* \"#utility.yul\":1609:1763   */\n    tag_75:\n        /* \"#utility.yul\":1693:1699   */\n      dup3\n        /* \"#utility.yul\":1688:1691   */\n      dup2\n        /* \"#utility.yul\":1683:1686   */\n      dup4\n        /* \"#utility.yul\":1670:1700   */\n      calldatacopy\n        /* \"#utility.yul\":1755:1756   */\n      0x00\n        /* \"#utility.yul\":1746:1752   */\n      dup4\n        /* \"#utility.yul\":1741:1744   */\n      dup4\n        /* \"#utility.yul\":1737:1753   */\n      add\n        /* \"#utility.yul\":1730:1757   */\n      mstore\n        /* \"#utility.yul\":1609:1763   */\n      pop\n      pop\n      pop\n      jump\t// out\n        /* \"#utility.yul\":1769:2179   */\n    tag_76:\n        /* \"#utility.yul\":1846:1851   */\n      0x00\n        /* \"#utility.yul\":1871:1936   */\n      tag_125\n        /* \"#utility.yul\":1887:1935   */\n      tag_126\n        /* \"#utility.yul\":1928:1934   */\n      dup5\n        /* \"#utility.yul\":1887:1935   */\n      tag_74\n      jump\t// in\n    tag_126:\n        /* \"#utility.yul\":1871:1936   */\n      tag_73\n      jump\t// in\n    tag_125:\n        /* \"#utility.yul\":1862:1936   */\n      swap1\n      pop\n        /* \"#utility.yul\":1959:1965   */\n      dup3\n        /* \"#utility.yul\":1952:1957   */\n      dup2\n        /* \"#utility.yul\":1945:1966   */\n      mstore\n        /* \"#utility.yul\":1997:2001   */\n      0x20\n        /* \"#utility.yul\":1990:1995   */\n      dup2\n        /* \"#utility.yul\":1986:2002   */\n      add\n        /* \"#utility.yul\":2035:2038   */\n      dup5\n        /* \"#utility.yul\":2026:2032   */\n      dup5\n        /* \"#utility.yul\":2021:2024   */\n      dup5\n        /* \"#utility.yul\":2017:2033   */\n      add\n        /* \"#utility.yul\":2014:2039   */\n      gt\n        /* \"#utility.yul\":2011:2123   */\n      iszero\n      tag_127\n      jumpi\n        /* \"#utility.yul\":2042:2121   */\n      tag_128\n      tag_69\n      jump\t// in\n    tag_128:\n        /* \"#utility.yul\":2011:2123   */\n    tag_127:\n        /* \"#utility.yul\":2132:2173   */\n      tag_129\n        /* \"#utility.yul\":2166:2172   */\n      dup5\n        /* \"#utility.yul\":2161:2164   */\n      dup3\n        /* \"#utility.yul\":2156:2159   */\n      dup6\n        /* \"#utility.yul\":2132:2173   */\n      tag_75\n      jump\t// in\n    tag_129:\n        /* \"#utility.yul\":1852:2179   */\n      pop\n        /* \"#utility.yul\":1769:2179   */\n      swap4\n      swap3\n      pop\n      pop\n      pop\n      jump\t// out\n        /* \"#utility.yul\":2198:2536   */\n    tag_77:\n        /* \"#utility.yul\":2253:2258   */\n      0x00\n        /* \"#utility.yul\":2302:2305   */\n      dup3\n        /* \"#utility.yul\":2295:2299   */\n      0x1f\n        /* \"#utility.yul\":2287:2293   */\n      dup4\n        /* \"#utility.yul\":2283:2300   */\n      add\n        /* \"#utility.yul\":2279:2306   */\n      slt\n        /* \"#utility.yul\":2269:2391   */\n      tag_131\n      jumpi\n        /* \"#utility.yul\":2310:2389   */\n      tag_132\n      tag_68\n      jump\t// in\n    tag_132:\n        /* \"#utility.yul\":2269:2391   */\n    tag_131:\n        /* \"#utility.yul\":2427:2433   */\n      dup2\n        /* \"#utility.yul\":2414:2434   */\n      calldataload\n        /* \"#utility.yul\":2452:2530   */\n      tag_133\n        /* \"#utility.yul\":2526:2529   */\n      dup5\n        /* \"#utility.yul\":2518:2524   */\n      dup3\n        /* \"#utility.yul\":2511:2515   */\n      0x20\n        /* \"#utility.yul\":2503:2509   */\n      dup7\n        /* \"#utility.yul\":2499:2516   */\n      add\n        /* \"#utility.yul\":2452:2530   */\n      tag_76\n      jump\t// in\n    tag_133:\n        /* \"#utility.yul\":2443:2530   */\n      swap2\n      pop\n        /* \"#utility.yul\":2259:2536   */\n      pop\n        /* \"#utility.yul\":2198:2536   */\n      swap3\n      swap2\n      pop\n      pop\n      jump\t// out\n        /* \"#utility.yul\":2542:3049   */\n    tag_14:\n        /* \"#utility.yul\":2610:2616   */\n      0x00\n        /* \"#utility.yul\":2659:2661   */\n      0x20\n        /* \"#utility.yul\":2647:2656   */\n      dup3\n        /* \"#utility.yul\":2638:2645   */\n      dup5\n        /* \"#utility.yul\":2634:2657   */\n      sub\n        /* \"#utility.yul\":2630:2662   */\n      slt\n        /* \"#utility.yul\":2627:2746   */\n      iszero\n      tag_135\n      jumpi\n        /* \"#utility.yul\":2665:2744   */\n      tag_136\n      tag_66\n      jump\t// in\n    tag_136:\n        /* \"#utility.yul\":2627:2746   */\n    tag_135:\n        /* \"#utility.yul\":2813:2814   */\n      0x00\n        /* \"#utility.yul\":2802:2811   */\n      dup3\n        /* \"#utility.yul\":2798:2815   */\n      add\n        /* \"#utility.yul\":2785:2816   */\n      calldataload\n        /* \"#utility.yul\":2843:2861   */\n      0xffffffffffffffff\n        /* \"#utility.yul\":2835:2841   */\n      dup2\n        /* \"#utility.yul\":2832:2862   */\n      gt\n        /* \"#utility.yul\":2829:2946   */\n      iszero\n      tag_137\n      jumpi\n        /* \"#utility.yul\":2865:2944   */\n      tag_138\n      tag_67\n      jump\t// in\n    tag_138:\n        /* \"#utility.yul\":2829:2946   */\n    tag_137:\n        /* \"#utility.yul\":2970:3032   */\n      tag_139\n        /* \"#utility.yul\":3024:3031   */\n      dup5\n        /* \"#utility.yul\":3015:3021   */\n      dup3\n        /* \"#utility.yul\":3004:3013   */\n      dup6\n        /* \"#utility.yul\":3000:3022   */\n      add\n        /* \"#utility.yul\":2970:3032   */\n      tag_77\n      jump\t// in\n    tag_139:\n        /* \"#utility.yul\":2960:3032   */\n      swap2\n      pop\n        /* \"#utility.yul\":2756:3042   */\n      pop\n        /* \"#utility.yul\":2542:3049   */\n      swap3\n      swap2\n      pop\n      pop\n      jump\t// out\n        /* \"#utility.yul\":3055:3141   */\n    tag_78:\n        /* \"#utility.yul\":3090:3097   */\n      0x00\n        /* \"#utility.yul\":3130:3134   */\n      0xff\n        /* \"#utility.yul\":3123:3128   */\n      dup3\n        /* \"#utility.yul\":3119:3135   */\n      and\n        /* \"#utility.yul\":3108:3135   */\n      swap1\n      pop\n        /* \"#utility.yul\":3055:3141   */\n      swap2\n      swap1\n      pop\n      jump\t// out\n        /* \"#utility.yul\":3147:3259   */\n    tag_79:\n        /* \"#utility.yul\":3230:3252   */\n      tag_142\n        /* \"#utility.yul\":3246:3251   */\n      dup2\n        /* \"#utility.yul\":3230:3252   */\n      tag_78\n      jump\t// in\n    tag_142:\n        /* \"#utility.yul\":3225:3228   */\n      dup3\n        /* \"#utility.yul\":3218:3253   */\n      mstore\n        /* \"#utility.yul\":3147:3259   */\n      pop\n      pop\n      jump\t// out\n        /* \"#utility.yul\":3265:3479   */\n    tag_19:\n        /* \"#utility.yul\":3354:3358   */\n      0x00\n        /* \"#utility.yul\":3392:3394   */\n      0x20\n        /* \"#utility.yul\":3381:3390   */\n      dup3\n        /* \"#utility.yul\":3377:3395   */\n      add\n        /* \"#utility.yul\":3369:3395   */\n      swap1\n      pop\n        /* \"#utility.yul\":3405:3472   */\n      tag_144\n        /* \"#utility.yul\":3469:3470   */\n      0x00\n        /* \"#utility.yul\":3458:3467   */\n      dup4\n        /* \"#utility.yul\":3454:3471   */\n      add\n        /* \"#utility.yul\":3445:3451   */\n      dup5\n        /* \"#utility.yul\":3405:3472   */\n      tag_79\n      jump\t// in\n    tag_144:\n        /* \"#utility.yul\":3265:3479   */\n      swap3\n      swap2\n      pop\n      pop\n      jump\t// out\n        /* \"#utility.yul\":3485:3575   */\n    tag_80:\n        /* \"#utility.yul\":3519:3526   */\n      0x00\n        /* \"#utility.yul\":3562:3567   */\n      dup2\n        /* \"#utility.yul\":3555:3568   */\n      iszero\n        /* \"#utility.yul\":3548:3569   */\n      iszero\n        /* \"#utility.yul\":3537:3569   */\n      swap1\n      pop\n        /* \"#utility.yul\":3485:3575   */\n      swap2\n      swap1\n      pop\n      jump\t// out\n        /* \"#utility.yul\":3581:3690   */\n    tag_81:\n        /* \"#utility.yul\":3662:3683   */\n      tag_147\n        /* \"#utility.yul\":3677:3682   */\n      dup2\n        /* \"#utility.yul\":3662:3683   */\n      tag_80\n      jump\t// in\n    tag_147:\n        /* \"#utility.yul\":3657:3660   */\n      dup3\n        /* \"#utility.yul\":3650:3684   */\n      mstore\n        /* \"#utility.yul\":3581:3690   */\n      pop\n      pop\n      jump\t// out\n        /* \"#utility.yul\":3696:3906   */\n    tag_23:\n        /* \"#utility.yul\":3783:3787   */\n      0x00\n        /* \"#utility.yul\":3821:3823   */\n      0x20\n        /* \"#utility.yul\":3810:3819   */\n      dup3\n        /* \"#utility.yul\":3806:3824   */\n      add\n        /* \"#utility.yul\":3798:3824   */\n      swap1\n      pop\n        /* \"#utility.yul\":3834:3899   */\n      tag_149\n        /* \"#utility.yul\":3896:3897   */\n      0x00\n        /* \"#utility.yul\":3885:3894   */\n      dup4\n        /* \"#utility.yul\":3881:3898   */\n      add\n        /* \"#utility.yul\":3872:3878   */\n      dup5\n        /* \"#utility.yul\":3834:3899   */\n      tag_81\n      jump\t// in\n    tag_149:\n        /* \"#utility.yul\":3696:3906   */\n      swap3\n      swap2\n      pop\n      pop\n      jump\t// out\n        /* \"#utility.yul\":3912:4038   */\n    tag_82:\n        /* \"#utility.yul\":3949:3956   */\n      0x00\n        /* \"#utility.yul\":3989:4031   */\n      0xffffffffffffffffffffffffffffffffffffffff\n        /* \"#utility.yul\":3982:3987   */\n      dup3\n        /* \"#utility.yul\":3978:4032   */\n      and\n        /* \"#utility.yul\":3967:4032   */\n      swap1\n      pop\n        /* \"#utility.yul\":3912:4038   */\n      swap2\n      swap1\n      pop\n      jump\t// out\n        /* \"#utility.yul\":4044:4104   */\n    tag_83:\n        /* \"#utility.yul\":4072:4075   */\n      0x00\n        /* \"#utility.yul\":4093:4098   */\n      dup2\n        /* \"#utility.yul\":4086:4098   */\n      swap1\n      pop\n        /* \"#utility.yul\":4044:4104   */\n      swap2\n      swap1\n      pop\n      jump\t// out\n        /* \"#utility.yul\":4110:4252   */\n    tag_84:\n        /* \"#utility.yul\":4160:4169   */\n      0x00\n        /* \"#utility.yul\":4193:4246   */\n      tag_153\n        /* \"#utility.yul\":4211:4245   */\n      tag_154\n        /* \"#utility.yul\":4220:4244   */\n      tag_155\n        /* \"#utility.yul\":4238:4243   */\n      dup5\n        /* \"#utility.yul\":4220:4244   */\n      tag_82\n      jump\t// in\n    tag_155:\n        /* \"#utility.yul\":4211:4245   */\n      tag_83\n      jump\t// in\n    tag_154:\n        /* \"#utility.yul\":4193:4246   */\n      tag_82\n      jump\t// in\n    tag_153:\n        /* \"#utility.yul\":4180:4246   */\n      swap1\n      pop\n        /* \"#utility.yul\":4110:4252   */\n      swap2\n      swap1\n      pop\n      jump\t// out\n        /* \"#utility.yul\":4258:4384   */\n    tag_85:\n        /* \"#utility.yul\":4308:4317   */\n      0x00\n        /* \"#utility.yul\":4341:4378   */\n      tag_157\n        /* \"#utility.yul\":4372:4377   */\n      dup3\n        /* \"#utility.yul\":4341:4378   */\n      tag_84\n      jump\t// in\n    tag_157:\n        /* \"#utility.yul\":4328:4378   */\n      swap1\n      pop\n        /* \"#utility.yul\":4258:4384   */\n      swap2\n      swap1\n      pop\n      jump\t// out\n        /* \"#utility.yul\":4390:4533   */\n    tag_86:\n        /* \"#utility.yul\":4457:4466   */\n      0x00\n        /* \"#utility.yul\":4490:4527   */\n      tag_159\n        /* \"#utility.yul\":4521:4526   */\n      dup3\n        /* \"#utility.yul\":4490:4527   */\n      tag_85\n      jump\t// in\n    tag_159:\n        /* \"#utility.yul\":4477:4527   */\n      swap1\n      pop\n        /* \"#utility.yul\":4390:4533   */\n      swap2\n      swap1\n      pop\n      jump\t// out\n        /* \"#utility.yul\":4539:4704   */\n    tag_87:\n        /* \"#utility.yul\":4643:4697   */\n      tag_161\n        /* \"#utility.yul\":4691:4696   */\n      dup2\n        /* \"#utility.yul\":4643:4697   */\n      tag_86\n      jump\t// in\n    tag_161:\n        /* \"#utility.yul\":4638:4641   */\n      dup3\n        /* \"#utility.yul\":4631:4698   */\n      mstore\n        /* \"#utility.yul\":4539:4704   */\n      pop\n      pop\n      jump\t// out\n        /* \"#utility.yul\":4710:4966   */\n    tag_27:\n        /* \"#utility.yul\":4820:4824   */\n      0x00\n        /* \"#utility.yul\":4858:4860   */\n      0x20\n        /* \"#utility.yul\":4847:4856   */\n      dup3\n        /* \"#utility.yul\":4843:4861   */\n      add\n        /* \"#utility.yul\":4835:4861   */\n      swap1\n      pop\n        /* \"#utility.yul\":4871:4959   */\n      tag_163\n        /* \"#utility.yul\":4956:4957   */\n      0x00\n        /* \"#utility.yul\":4945:4954   */\n      dup4\n        /* \"#utility.yul\":4941:4958   */\n      add\n        /* \"#utility.yul\":4932:4938   */\n      dup5\n        /* \"#utility.yul\":4871:4959   */\n      tag_87\n      jump\t// in\n    tag_163:\n        /* \"#utility.yul\":4710:4966   */\n      swap3\n      swap2\n      pop\n      pop\n      jump\t// out\n        /* \"#utility.yul\":4972:5068   */\n    tag_88:\n        /* \"#utility.yul\":5009:5016   */\n      0x00\n        /* \"#utility.yul\":5038:5062   */\n      tag_165\n        /* \"#utility.yul\":5056:5061   */\n      dup3\n        /* \"#utility.yul\":5038:5062   */\n      tag_82\n      jump\t// in\n    tag_165:\n        /* \"#utility.yul\":5027:5062   */\n      swap1\n      pop\n        /* \"#utility.yul\":4972:5068   */\n      swap2\n      swap1\n      pop\n      jump\t// out\n        /* \"#utility.yul\":5074:5192   */\n    tag_89:\n        /* \"#utility.yul\":5161:5185   */\n      tag_167\n        /* \"#utility.yul\":5179:5184   */\n      dup2\n        /* \"#utility.yul\":5161:5185   */\n      tag_88\n      jump\t// in\n    tag_167:\n        /* \"#utility.yul\":5156:5159   */\n      dup3\n        /* \"#utility.yul\":5149:5186   */\n      mstore\n        /* \"#utility.yul\":5074:5192   */\n      pop\n      pop\n      jump\t// out\n        /* \"#utility.yul\":5198:5420   */\n    tag_31:\n        /* \"#utility.yul\":5291:5295   */\n      0x00\n        /* \"#utility.yul\":5329:5331   */\n      0x20\n        /* \"#utility.yul\":5318:5327   */\n      dup3\n        /* \"#utility.yul\":5314:5332   */\n      add\n        /* \"#utility.yul\":5306:5332   */\n      swap1\n      pop\n        /* \"#utility.yul\":5342:5413   */\n      tag_169\n        /* \"#utility.yul\":5410:5411   */\n      0x00\n        /* \"#utility.yul\":5399:5408   */\n      dup4\n        /* \"#utility.yul\":5395:5412   */\n      add\n        /* \"#utility.yul\":5386:5392   */\n      dup5\n        /* \"#utility.yul\":5342:5413   */\n      tag_89\n      jump\t// in\n    tag_169:\n        /* \"#utility.yul\":5198:5420   */\n      swap3\n      swap2\n      pop\n      pop\n      jump\t// out\n        /* \"#utility.yul\":5426:5525   */\n    tag_90:\n        /* \"#utility.yul\":5478:5484   */\n      0x00\n        /* \"#utility.yul\":5512:5517   */\n      dup2\n        /* \"#utility.yul\":5506:5518   */\n      mload\n        /* \"#utility.yul\":5496:5518   */\n      swap1\n      pop\n        /* \"#utility.yul\":5426:5525   */\n      swap2\n      swap1\n      pop\n      jump\t// out\n        /* \"#utility.yul\":5531:5700   */\n    tag_91:\n        /* \"#utility.yul\":5615:5626   */\n      0x00\n        /* \"#utility.yul\":5649:5655   */\n      dup3\n        /* \"#utility.yul\":5644:5647   */\n      dup3\n        /* \"#utility.yul\":5637:5656   */\n      mstore\n        /* \"#utility.yul\":5689:5693   */\n      0x20\n        /* \"#utility.yul\":5684:5687   */\n      dup3\n        /* \"#utility.yul\":5680:5694   */\n      add\n        /* \"#utility.yul\":5665:5694   */\n      swap1\n      pop\n        /* \"#utility.yul\":5531:5700   */\n      swap3\n      swap2\n      pop\n      pop\n      jump\t// out\n        /* \"#utility.yul\":5706:6013   */\n    tag_92:\n        /* \"#utility.yul\":5774:5775   */\n      0x00\n        /* \"#utility.yul\":5784:5897   */\n    tag_173:\n        /* \"#utility.yul\":5798:5804   */\n      dup4\n        /* \"#utility.yul\":5795:5796   */\n      dup2\n        /* \"#utility.yul\":5792:5805   */\n      lt\n        /* \"#utility.yul\":5784:5897   */\n      iszero\n      tag_175\n      jumpi\n        /* \"#utility.yul\":5883:5884   */\n      dup1\n        /* \"#utility.yul\":5878:5881   */\n      dup3\n        /* \"#utility.yul\":5874:5885   */\n      add\n        /* \"#utility.yul\":5868:5886   */\n      mload\n        /* \"#utility.yul\":5864:5865   */\n      dup2\n        /* \"#utility.yul\":5859:5862   */\n      dup5\n        /* \"#utility.yul\":5855:5866   */\n      add\n        /* \"#utility.yul\":5848:5887   */\n      mstore\n        /* \"#utility.yul\":5820:5822   */\n      0x20\n        /* \"#utility.yul\":5817:5818   */\n      dup2\n        /* \"#utility.yul\":5813:5823   */\n      add\n        /* \"#utility.yul\":5808:5823   */\n      swap1\n      pop\n        /* \"#utility.yul\":5784:5897   */\n      jump(tag_173)\n    tag_175:\n        /* \"#utility.yul\":5915:5921   */\n      dup4\n        /* \"#utility.yul\":5912:5913   */\n      dup2\n        /* \"#utility.yul\":5909:5922   */\n      gt\n        /* \"#utility.yul\":5906:6007   */\n      iszero\n      tag_176\n      jumpi\n        /* \"#utility.yul\":5995:5996   */\n      0x00\n        /* \"#utility.yul\":5986:5992   */\n      dup5\n        /* \"#utility.yul\":5981:5984   */\n      dup5\n        /* \"#utility.yul\":5977:5993   */\n      add\n        /* \"#utility.yul\":5970:5997   */\n      mstore\n        /* \"#utility.yul\":5906:6007   */\n    tag_176:\n        /* \"#utility.yul\":5755:6013   */\n      pop\n        /* \"#utility.yul\":5706:6013   */\n      pop\n      pop\n      pop\n      jump\t// out\n        /* \"#utility.yul\":6019:6383   */\n    tag_93:\n        /* \"#utility.yul\":6107:6110   */\n      0x00\n        /* \"#utility.yul\":6135:6174   */\n      tag_178\n        /* \"#utility.yul\":6168:6173   */\n      dup3\n        /* \"#utility.yul\":6135:6174   */\n      tag_90\n      jump\t// in\n    tag_178:\n        /* \"#utility.yul\":6190:6261   */\n      tag_179\n        /* \"#utility.yul\":6254:6260   */\n      dup2\n        /* \"#utility.yul\":6249:6252   */\n      dup6\n        /* \"#utility.yul\":6190:6261   */\n      tag_91\n      jump\t// in\n    tag_179:\n        /* \"#utility.yul\":6183:6261   */\n      swap4\n      pop\n        /* \"#utility.yul\":6270:6322   */\n      tag_180\n        /* \"#utility.yul\":6315:6321   */\n      dup2\n        /* \"#utility.yul\":6310:6313   */\n      dup6\n        /* \"#utility.yul\":6303:6307   */\n      0x20\n        /* \"#utility.yul\":6296:6301   */\n      dup7\n        /* \"#utility.yul\":6292:6308   */\n      add\n        /* \"#utility.yul\":6270:6322   */\n      tag_92\n      jump\t// in\n    tag_180:\n        /* \"#utility.yul\":6347:6376   */\n      tag_181\n        /* \"#utility.yul\":6369:6375   */\n      dup2\n        /* \"#utility.yul\":6347:6376   */\n      tag_70\n      jump\t// in\n    tag_181:\n        /* \"#utility.yul\":6342:6345   */\n      dup5\n        /* \"#utility.yul\":6338:6377   */\n      add\n        /* \"#utility.yul\":6331:6377   */\n      swap2\n      pop\n        /* \"#utility.yul\":6111:6383   */\n      pop\n        /* \"#utility.yul\":6019:6383   */\n      swap3\n      swap2\n      pop\n      pop\n      jump\t// out\n        /* \"#utility.yul\":6389:6702   */\n    tag_41:\n        /* \"#utility.yul\":6502:6506   */\n      0x00\n        /* \"#utility.yul\":6540:6542   */\n      0x20\n        /* \"#utility.yul\":6529:6538   */\n      dup3\n        /* \"#utility.yul\":6525:6543   */\n      add\n        /* \"#utility.yul\":6517:6543   */\n      swap1\n      pop\n        /* \"#utility.yul\":6589:6598   */\n      dup2\n        /* \"#utility.yul\":6583:6587   */\n      dup2\n        /* \"#utility.yul\":6579:6599   */\n      sub\n        /* \"#utility.yul\":6575:6576   */\n      0x00\n        /* \"#utility.yul\":6564:6573   */\n      dup4\n        /* \"#utility.yul\":6560:6577   */\n      add\n        /* \"#utility.yul\":6553:6600   */\n      mstore\n        /* \"#utility.yul\":6617:6695   */\n      tag_183\n        /* \"#utility.yul\":6690:6694   */\n      dup2\n        /* \"#utility.yul\":6681:6687   */\n      dup5\n        /* \"#utility.yul\":6617:6695   */\n      tag_93\n      jump\t// in\n    tag_183:\n        /* \"#utility.yul\":6609:6695   */\n      swap1\n      pop\n        /* \"#utility.yul\":6389:6702   */\n      swap3\n      swap2\n      pop\n      pop\n      jump\t// out\n        /* \"#utility.yul\":6708:6806   */\n    tag_94:\n        /* \"#utility.yul\":6759:6765   */\n      0x00\n        /* \"#utility.yul\":6793:6798   */\n      dup2\n        /* \"#utility.yul\":6787:6799   */\n      mload\n        /* \"#utility.yul\":6777:6799   */\n      swap1\n      pop\n        /* \"#utility.yul\":6708:6806   */\n      swap2\n      swap1\n      pop\n      jump\t// out\n        /* \"#utility.yul\":6812:6959   */\n    tag_95:\n        /* \"#utility.yul\":6913:6924   */\n      0x00\n        /* \"#utility.yul\":6950:6953   */\n      dup2\n        /* \"#utility.yul\":6935:6953   */\n      swap1\n      pop\n        /* \"#utility.yul\":6812:6959   */\n      swap3\n      swap2\n      pop\n      pop\n      jump\t// out\n        /* \"#utility.yul\":6965:7338   */\n    tag_96:\n        /* \"#utility.yul\":7069:7072   */\n      0x00\n        /* \"#utility.yul\":7097:7135   */\n      tag_187\n        /* \"#utility.yul\":7129:7134   */\n      dup3\n        /* \"#utility.yul\":7097:7135   */\n      tag_94\n      jump\t// in\n    tag_187:\n        /* \"#utility.yul\":7151:7239   */\n      tag_188\n        /* \"#utility.yul\":7232:7238   */\n      dup2\n        /* \"#utility.yul\":7227:7230   */\n      dup6\n        /* \"#utility.yul\":7151:7239   */\n      tag_95\n      jump\t// in\n    tag_188:\n        /* \"#utility.yul\":7144:7239   */\n      swap4\n      pop\n        /* \"#utility.yul\":7248:7300   */\n      tag_189\n        /* \"#utility.yul\":7293:7299   */\n      dup2\n        /* \"#utility.yul\":7288:7291   */\n      dup6\n        /* \"#utility.yul\":7281:7285   */\n      0x20\n        /* \"#utility.yul\":7274:7279   */\n      dup7\n        /* \"#utility.yul\":7270:7286   */\n      add\n        /* \"#utility.yul\":7248:7300   */\n      tag_92\n      jump\t// in\n    tag_189:\n        /* \"#utility.yul\":7325:7331   */\n      dup1\n        /* \"#utility.yul\":7320:7323   */\n      dup5\n        /* \"#utility.yul\":7316:7332   */\n      add\n        /* \"#utility.yul\":7309:7332   */\n      swap2\n      pop\n        /* \"#utility.yul\":7073:7338   */\n      pop\n        /* \"#utility.yul\":6965:7338   */\n      swap3\n      swap2\n      pop\n      pop\n      jump\t// out\n        /* \"#utility.yul\":7344:7615   */\n    tag_44:\n        /* \"#utility.yul\":7474:7477   */\n      0x00\n        /* \"#utility.yul\":7496:7589   */\n      tag_191\n        /* \"#utility.yul\":7585:7588   */\n      dup3\n        /* \"#utility.yul\":7576:7582   */\n      dup5\n        /* \"#utility.yul\":7496:7589   */\n      tag_96\n      jump\t// in\n    tag_191:\n        /* \"#utility.yul\":7489:7589   */\n      swap2\n      pop\n        /* \"#utility.yul\":7606:7609   */\n      dup2\n        /* \"#utility.yul\":7599:7609   */\n      swap1\n      pop\n        /* \"#utility.yul\":7344:7615   */\n      swap3\n      swap2\n      pop\n      pop\n      jump\t// out\n        /* \"#utility.yul\":7621:7791   */\n    tag_97:\n        /* \"#utility.yul\":7761:7783   */\n      0x44656c6567616461206e6f20636f727265637461000000000000000000000000\n        /* \"#utility.yul\":7757:7758   */\n      0x00\n        /* \"#utility.yul\":7749:7755   */\n      dup3\n        /* \"#utility.yul\":7745:7759   */\n      add\n        /* \"#utility.yul\":7738:7784   */\n      mstore\n        /* \"#utility.yul\":7621:7791   */\n      pop\n      jump\t// out\n        /* \"#utility.yul\":7797:8163   */\n    tag_98:\n        /* \"#utility.yul\":7939:7942   */\n      0x00\n        /* \"#utility.yul\":7960:8027   */\n      tag_194\n        /* \"#utility.yul\":8024:8026   */\n      0x14\n        /* \"#utility.yul\":8019:8022   */\n      dup4\n        /* \"#utility.yul\":7960:8027   */\n      tag_91\n      jump\t// in\n    tag_194:\n        /* \"#utility.yul\":7953:8027   */\n      swap2\n      pop\n        /* \"#utility.yul\":8036:8129   */\n      tag_195\n        /* \"#utility.yul\":8125:8128   */\n      dup3\n        /* \"#utility.yul\":8036:8129   */\n      tag_97\n      jump\t// in\n    tag_195:\n        /* \"#utility.yul\":8154:8156   */\n      0x20\n        /* \"#utility.yul\":8149:8152   */\n      dup3\n        /* \"#utility.yul\":8145:8157   */\n      add\n        /* \"#utility.yul\":8138:8157   */\n      swap1\n      pop\n        /* \"#utility.yul\":7797:8163   */\n      swap2\n      swap1\n      pop\n      jump\t// out\n        /* \"#utility.yul\":8169:8588   */\n    tag_50:\n        /* \"#utility.yul\":8335:8339   */\n      0x00\n        /* \"#utility.yul\":8373:8375   */\n      0x20\n        /* \"#utility.yul\":8362:8371   */\n      dup3\n        /* \"#utility.yul\":8358:8376   */\n      add\n        /* \"#utility.yul\":8350:8376   */\n      swap1\n      pop\n        /* \"#utility.yul\":8422:8431   */\n      dup2\n        /* \"#utility.yul\":8416:8420   */\n      dup2\n        /* \"#utility.yul\":8412:8432   */\n      sub\n        /* \"#utility.yul\":8408:8409   */\n      0x00\n        /* \"#utility.yul\":8397:8406   */\n      dup4\n        /* \"#utility.yul\":8393:8410   */\n      add\n        /* \"#utility.yul\":8386:8433   */\n      mstore\n        /* \"#utility.yul\":8450:8581   */\n      tag_197\n        /* \"#utility.yul\":8576:8580   */\n      dup2\n        /* \"#utility.yul\":8450:8581   */\n      tag_98\n      jump\t// in\n    tag_197:\n        /* \"#utility.yul\":8442:8581   */\n      swap1\n      pop\n        /* \"#utility.yul\":8169:8588   */\n      swap2\n      swap1\n      pop\n      jump\t// out\n        /* \"#utility.yul\":8594:8816   */\n    tag_99:\n        /* \"#utility.yul\":8734:8768   */\n      0x4e6f206572657320656c2070726f706965746172696f2064656c20636f6e7472\n        /* \"#utility.yul\":8730:8731   */\n      0x00\n        /* \"#utility.yul\":8722:8728   */\n      dup3\n        /* \"#utility.yul\":8718:8732   */\n      add\n        /* \"#utility.yul\":8711:8769   */\n      mstore\n        /* \"#utility.yul\":8803:8808   */\n      0x61746f0000000000000000000000000000000000000000000000000000000000\n        /* \"#utility.yul\":8798:8800   */\n      0x20\n        /* \"#utility.yul\":8790:8796   */\n      dup3\n        /* \"#utility.yul\":8786:8801   */\n      add\n        /* \"#utility.yul\":8779:8809   */\n      mstore\n        /* \"#utility.yul\":8594:8816   */\n      pop\n      jump\t// out\n        /* \"#utility.yul\":8822:9188   */\n    tag_100:\n        /* \"#utility.yul\":8964:8967   */\n      0x00\n        /* \"#utility.yul\":8985:9052   */\n      tag_200\n        /* \"#utility.yul\":9049:9051   */\n      0x23\n        /* \"#utility.yul\":9044:9047   */\n      dup4\n        /* \"#utility.yul\":8985:9052   */\n      tag_91\n      jump\t// in\n    tag_200:\n        /* \"#utility.yul\":8978:9052   */\n      swap2\n      pop\n        /* \"#utility.yul\":9061:9154   */\n      tag_201\n        /* \"#utility.yul\":9150:9153   */\n      dup3\n        /* \"#utility.yul\":9061:9154   */\n      tag_99\n      jump\t// in\n    tag_201:\n        /* \"#utility.yul\":9179:9181   */\n      0x40\n        /* \"#utility.yul\":9174:9177   */\n      dup3\n        /* \"#utility.yul\":9170:9182   */\n      add\n        /* \"#utility.yul\":9163:9182   */\n      swap1\n      pop\n        /* \"#utility.yul\":8822:9188   */\n      swap2\n      swap1\n      pop\n      jump\t// out\n        /* \"#utility.yul\":9194:9613   */\n    tag_54:\n        /* \"#utility.yul\":9360:9364   */\n      0x00\n        /* \"#utility.yul\":9398:9400   */\n      0x20\n        /* \"#utility.yul\":9387:9396   */\n      dup3\n        /* \"#utility.yul\":9383:9401   */\n      add\n        /* \"#utility.yul\":9375:9401   */\n      swap1\n      pop\n        /* \"#utility.yul\":9447:9456   */\n      dup2\n        /* \"#utility.yul\":9441:9445   */\n      dup2\n        /* \"#utility.yul\":9437:9457   */\n      sub\n        /* \"#utility.yul\":9433:9434   */\n      0x00\n        /* \"#utility.yul\":9422:9431   */\n      dup4\n        /* \"#utility.yul\":9418:9435   */\n      add\n        /* \"#utility.yul\":9411:9458   */\n      mstore\n        /* \"#utility.yul\":9475:9606   */\n      tag_203\n        /* \"#utility.yul\":9601:9605   */\n      dup2\n        /* \"#utility.yul\":9475:9606   */\n      tag_100\n      jump\t// in\n    tag_203:\n        /* \"#utility.yul\":9467:9606   */\n      swap1\n      pop\n        /* \"#utility.yul\":9194:9613   */\n      swap2\n      swap1\n      pop\n      jump\t// out\n        /* \"#utility.yul\":9619:9798   */\n    tag_101:\n        /* \"#utility.yul\":9759:9790   */\n      0x4e6f2068617320657363616c61646f206c6f20737566756369656e7465000000\n        /* \"#utility.yul\":9755:9756   */\n      0x00\n        /* \"#utility.yul\":9747:9753   */\n      dup3\n        /* \"#utility.yul\":9743:9757   */\n      add\n        /* \"#utility.yul\":9736:9791   */\n      mstore\n        /* \"#utility.yul\":9619:9798   */\n      pop\n      jump\t// out\n        /* \"#utility.yul\":9804:10170   */\n    tag_102:\n        /* \"#utility.yul\":9946:9949   */\n      0x00\n        /* \"#utility.yul\":9967:10034   */\n      tag_206\n        /* \"#utility.yul\":10031:10033   */\n      0x1d\n        /* \"#utility.yul\":10026:10029   */\n      dup4\n        /* \"#utility.yul\":9967:10034   */\n      tag_91\n      jump\t// in\n    tag_206:\n        /* \"#utility.yul\":9960:10034   */\n      swap2\n      pop\n        /* \"#utility.yul\":10043:10136   */\n      tag_207\n        /* \"#utility.yul\":10132:10135   */\n      dup3\n        /* \"#utility.yul\":10043:10136   */\n      tag_101\n      jump\t// in\n    tag_207:\n        /* \"#utility.yul\":10161:10163   */\n      0x20\n        /* \"#utility.yul\":10156:10159   */\n      dup3\n        /* \"#utility.yul\":10152:10164   */\n      add\n        /* \"#utility.yul\":10145:10164   */\n      swap1\n      pop\n        /* \"#utility.yul\":9804:10170   */\n      swap2\n      swap1\n      pop\n      jump\t// out\n        /* \"#utility.yul\":10176:10595   */\n    tag_57:\n        /* \"#utility.yul\":10342:10346   */\n      0x00\n        /* \"#utility.yul\":10380:10382   */\n      0x20\n        /* \"#utility.yul\":10369:10378   */\n      dup3\n        /* \"#utility.yul\":10365:10383   */\n      add\n        /* \"#utility.yul\":10357:10383   */\n      swap1\n      pop\n        /* \"#utility.yul\":10429:10438   */\n      dup2\n        /* \"#utility.yul\":10423:10427   */\n      dup2\n        /* \"#utility.yul\":10419:10439   */\n      sub\n        /* \"#utility.yul\":10415:10416   */\n      0x00\n        /* \"#utility.yul\":10404:10413   */\n      dup4\n        /* \"#utility.yul\":10400:10417   */\n      add\n        /* \"#utility.yul\":10393:10440   */\n      mstore\n        /* \"#utility.yul\":10457:10588   */\n      tag_209\n        /* \"#utility.yul\":10583:10587   */\n      dup2\n        /* \"#utility.yul\":10457:10588   */\n      tag_102\n      jump\t// in\n    tag_209:\n        /* \"#utility.yul\":10449:10588   */\n      swap1\n      pop\n        /* \"#utility.yul\":10176:10595   */\n      swap2\n      swap1\n      pop\n      jump\t// out\n        /* \"#utility.yul\":10601:10781   */\n    tag_103:\n        /* \"#utility.yul\":10649:10726   */\n      0x4e487b7100000000000000000000000000000000000000000000000000000000\n        /* \"#utility.yul\":10646:10647   */\n      0x00\n        /* \"#utility.yul\":10639:10727   */\n      mstore\n        /* \"#utility.yul\":10746:10750   */\n      0x22\n        /* \"#utility.yul\":10743:10744   */\n      0x04\n        /* \"#utility.yul\":10736:10751   */\n      mstore\n        /* \"#utility.yul\":10770:10774   */\n      0x24\n        /* \"#utility.yul\":10767:10768   */\n      0x00\n        /* \"#utility.yul\":10760:10775   */\n      revert\n        /* \"#utility.yul\":10787:11107   */\n    tag_60:\n        /* \"#utility.yul\":10831:10837   */\n      0x00\n        /* \"#utility.yul\":10868:10869   */\n      0x02\n        /* \"#utility.yul\":10862:10866   */\n      dup3\n        /* \"#utility.yul\":10858:10870   */\n      div\n        /* \"#utility.yul\":10848:10870   */\n      swap1\n      pop\n        /* \"#utility.yul\":10915:10916   */\n      0x01\n        /* \"#utility.yul\":10909:10913   */\n      dup3\n        /* \"#utility.yul\":10905:10917   */\n      and\n        /* \"#utility.yul\":10936:10954   */\n      dup1\n        /* \"#utility.yul\":10926:11007   */\n      tag_212\n      jumpi\n        /* \"#utility.yul\":10992:10996   */\n      0x7f\n        /* \"#utility.yul\":10984:10990   */\n      dup3\n        /* \"#utility.yul\":10980:10997   */\n      and\n        /* \"#utility.yul\":10970:10997   */\n      swap2\n      pop\n        /* \"#utility.yul\":10926:11007   */\n    tag_212:\n        /* \"#utility.yul\":11054:11056   */\n      0x20\n        /* \"#utility.yul\":11046:11052   */\n      dup3\n        /* \"#utility.yul\":11043:11057   */\n      lt\n        /* \"#utility.yul\":11023:11041   */\n      dup2\n        /* \"#utility.yul\":11020:11058   */\n      eq\n        /* \"#utility.yul\":11017:11101   */\n      iszero\n      tag_213\n      jumpi\n        /* \"#utility.yul\":11073:11091   */\n      tag_214\n      tag_103\n      jump\t// in\n    tag_214:\n        /* \"#utility.yul\":11017:11101   */\n    tag_213:\n        /* \"#utility.yul\":10838:11107   */\n      pop\n        /* \"#utility.yul\":10787:11107   */\n      swap2\n      swap1\n      pop\n      jump\t// out\n\n    auxdata: 0xa264697066735822122052aea48d962c5c1ef3795498252bd8c0a4646d4c7152f8dac4d08d0482e9d67c64736f6c634300080a0033\n}\n",
				"bytecode": {
					"linkReferences": {},
					"object": "60806040523480156200001157600080fd5b5060405162000f0038038062000f0083398181016040528101906200003791906200039e565b806003806101000a81548173ffffffffffffffffffffffffffffffffffffffff021916908373ffffffffffffffffffffffffffffffffffffffff160217905550336000806101000a81548173ffffffffffffffffffffffffffffffffffffffff021916908373ffffffffffffffffffffffffffffffffffffffff1602179055508160029080519060200190620000cf929190620000d8565b50505062000469565b828054620000e69062000433565b90600052602060002090601f0160209004810192826200010a576000855562000156565b82601f106200012557805160ff191683800117855562000156565b8280016001018555821562000156579182015b828111156200015557825182559160200191906001019062000138565b5b50905062000165919062000169565b5090565b5b80821115620001845760008160009055506001016200016a565b5090565b6000604051905090565b600080fd5b600080fd5b600080fd5b600080fd5b6000601f19601f8301169050919050565b7f4e487b7100000000000000000000000000000000000000000000000000000000600052604160045260246000fd5b620001f182620001a6565b810181811067ffffffffffffffff82111715620002135762000212620001b7565b5b80604052505050565b60006200022862000188565b9050620002368282620001e6565b919050565b600067ffffffffffffffff821115620002595762000258620001b7565b5b6200026482620001a6565b9050602081019050919050565b60005b838110156200029157808201518184015260208101905062000274565b83811115620002a1576000848401525b50505050565b6000620002be620002b8846200023b565b6200021c565b905082815260208101848484011115620002dd57620002dc620001a1565b5b620002ea84828562000271565b509392505050565b600082601f8301126200030a57620003096200019c565b5b81516200031c848260208601620002a7565b91505092915050565b600073ffffffffffffffffffffffffffffffffffffffff82169050919050565b6000620003528262000325565b9050919050565b6000620003668262000345565b9050919050565b620003788162000359565b81146200038457600080fd5b50565b60008151905062000398816200036d565b92915050565b60008060408385031215620003b857620003b762000192565b5b600083015167ffffffffffffffff811115620003d957620003d862000197565b5b620003e785828601620002f2565b9250506020620003fa8582860162000387565b9150509250929050565b7f4e487b7100000000000000000000000000000000000000000000000000000000600052602260045260246000fd5b600060028204905060018216806200044c57607f821691505b6020821081141562000463576200046262000404565b5b50919050565b610a8780620004796000396000f3fe608060405234801561001057600080fd5b50600436106100885760003560e01c80634f8632ba1161005b5780634f8632ba146101035780638da5cb5b1461012157806391bfb74f1461013f578063f96339301461015d57610088565b80630748f40a1461008d57806307fd72f6146100a95780630cf2f2c1146100c757806326121ff0146100e5575b600080fd5b6100a760048036038101906100a291906105f2565b61017b565b005b6100b161024d565b6040516100be9190610657565b60405180910390f35b6100cf610260565b6040516100dc919061068d565b60405180910390f35b6100ed610273565b6040516100fa9190610727565b60405180910390f35b61010b610297565b6040516101189190610763565b60405180910390f35b6101296102bd565b6040516101369190610763565b60405180910390f35b6101476102e1565b604051610154919061068d565b60405180910390f35b6101656102f4565b6040516101729190610806565b60405180910390f35b60008060038054906101000a900473ffffffffffffffffffffffffffffffffffffffff1673ffffffffffffffffffffffffffffffffffffffff16836040516101c3919061086f565b600060405180830381855af49150503d80600081146101fe576040519150601f19603f3d011682016040523d82523d6000602084013e610203565b606091505b509150915081610248576040517f08c379a000000000000000000000000000000000000000000000000000000000815260040161023f906108d2565b60405180910390fd5b505050565b600360029054906101000a900460ff1681565b600360009054906101000a900460ff1681565b60038054906101000a900473ffffffffffffffffffffffffffffffffffffffff1681565b600160009054906101000a900473ffffffffffffffffffffffffffffffffffffffff1681565b60008054906101000a900473ffffffffffffffffffffffffffffffffffffffff1681565b600360019054906101000a900460ff1681565b60603373ffffffffffffffffffffffffffffffffffffffff1660008054906101000a900473ffffffffffffffffffffffffffffffffffffffff1673ffffffffffffffffffffffffffffffffffffffff1614610384576040517f08c379a000000000000000000000000000000000000000000000000000000000815260040161037b90610964565b60405180910390fd5b60038060029054906101000a900460ff1660ff16116103d8576040517f08c379a00000000000000000000000000000000000000000000000000000000081526004016103cf906109d0565b60405180910390fd5b600360009054906101000a900460ff16610408576001600360016101000a81548160ff0219169083151502179055505b6002805461041590610a1f565b80601f016020809104026020016040519081016040528092919081815260200182805461044190610a1f565b801561048e5780601f106104635761010080835404028352916020019161048e565b820191906000526020600020905b81548152906001019060200180831161047157829003601f168201915b5050505050905090565b6000604051905090565b600080fd5b600080fd5b600080fd5b600080fd5b6000601f19601f8301169050919050565b7f4e487b7100000000000000000000000000000000000000000000000000000000600052604160045260246000fd5b6104ff826104b6565b810181811067ffffffffffffffff8211171561051e5761051d6104c7565b5b80604052505050565b6000610531610498565b905061053d82826104f6565b919050565b600067ffffffffffffffff82111561055d5761055c6104c7565b5b610566826104b6565b9050602081019050919050565b82818337600083830152505050565b600061059561059084610542565b610527565b9050828152602081018484840111156105b1576105b06104b1565b5b6105bc848285610573565b509392505050565b600082601f8301126105d9576105d86104ac565b5b81356105e9848260208601610582565b91505092915050565b600060208284031215610608576106076104a2565b5b600082013567ffffffffffffffff811115610626576106256104a7565b5b610632848285016105c4565b91505092915050565b600060ff82169050919050565b6106518161063b565b82525050565b600060208201905061066c6000830184610648565b92915050565b60008115159050919050565b61068781610672565b82525050565b60006020820190506106a2600083018461067e565b92915050565b600073ffffffffffffffffffffffffffffffffffffffff82169050919050565b6000819050919050565b60006106ed6106e86106e3846106a8565b6106c8565b6106a8565b9050919050565b60006106ff826106d2565b9050919050565b6000610711826106f4565b9050919050565b61072181610706565b82525050565b600060208201905061073c6000830184610718565b92915050565b600061074d826106a8565b9050919050565b61075d81610742565b82525050565b60006020820190506107786000830184610754565b92915050565b600081519050919050565b600082825260208201905092915050565b60005b838110156107b857808201518184015260208101905061079d565b838111156107c7576000848401525b50505050565b60006107d88261077e565b6107e28185610789565b93506107f281856020860161079a565b6107fb816104b6565b840191505092915050565b6000602082019050818103600083015261082081846107cd565b905092915050565b600081519050919050565b600081905092915050565b600061084982610828565b6108538185610833565b935061086381856020860161079a565b80840191505092915050565b600061087b828461083e565b915081905092915050565b7f44656c6567616461206e6f20636f727265637461000000000000000000000000600082015250565b60006108bc601483610789565b91506108c782610886565b602082019050919050565b600060208201905081810360008301526108eb816108af565b9050919050565b7f4e6f206572657320656c2070726f706965746172696f2064656c20636f6e747260008201527f61746f0000000000000000000000000000000000000000000000000000000000602082015250565b600061094e602383610789565b9150610959826108f2565b604082019050919050565b6000602082019050818103600083015261097d81610941565b9050919050565b7f4e6f2068617320657363616c61646f206c6f20737566756369656e7465000000600082015250565b60006109ba601d83610789565b91506109c582610984565b602082019050919050565b600060208201905081810360008301526109e9816109ad565b9050919050565b7f4e487b7100000000000000000000000000000000000000000000000000000000600052602260045260246000fd5b60006002820490506001821680610a3757607f821691505b60208210811415610a4b57610a4a6109f0565b5b5091905056fea264697066735822122052aea48d962c5c1ef3795498252bd8c0a4646d4c7152f8dac4d08d0482e9d67c64736f6c634300080a0033",
					"opcodes": "PUSH1 0x80 PUSH1 0x40 MSTORE CALLVALUE DUP1 ISZERO PUSH3 0x11 JUMPI PUSH1 0x0 DUP1 REVERT JUMPDEST POP PUSH1 0x40 MLOAD PUSH3 0xF00 CODESIZE SUB DUP1 PUSH3 0xF00 DUP4 CODECOPY DUP2 DUP2 ADD PUSH1 0x40 MSTORE DUP2 ADD SWAP1 PUSH3 0x37 SWAP2 SWAP1 PUSH3 0x39E JUMP JUMPDEST DUP1 PUSH1 0x3 DUP1 PUSH2 0x100 EXP DUP2 SLOAD DUP2 PUSH20 0xFFFFFFFFFFFFFFFFFFFFFFFFFFFFFFFFFFFFFFFF MUL NOT AND SWAP1 DUP4 PUSH20 0xFFFFFFFFFFFFFFFFFFFFFFFFFFFFFFFFFFFFFFFF AND MUL OR SWAP1 SSTORE POP CALLER PUSH1 0x0 DUP1 PUSH2 0x100 EXP DUP2 SLOAD DUP2 PUSH20 0xFFFFFFFFFFFFFFFFFFFFFFFFFFFFFFFFFFFFFFFF MUL NOT AND SWAP1 DUP4 PUSH20 0xFFFFFFFFFFFFFFFFFFFFFFFFFFFFFFFFFFFFFFFF AND MUL OR SWAP1 SSTORE POP DUP2 PUSH1 0x2 SWAP1 DUP1 MLOAD SWAP1 PUSH1 0x20 ADD SWAP1 PUSH3 0xCF SWAP3 SWAP2 SWAP1 PUSH3 0xD8 JUMP JUMPDEST POP POP POP PUSH3 0x469 JUMP JUMPDEST DUP3 DUP1 SLOAD PUSH3 0xE6 SWAP1 PUSH3 0x433 JUMP JUMPDEST SWAP1 PUSH1 0x0 MSTORE PUSH1 0x20 PUSH1 0x0 KECCAK256 SWAP1 PUSH1 0x1F ADD PUSH1 0x20 SWAP1 DIV DUP2 ADD SWAP3 DUP3 PUSH3 0x10A JUMPI PUSH1 0x0 DUP6 SSTORE PUSH3 0x156 JUMP JUMPDEST DUP3 PUSH1 0x1F LT PUSH3 0x125 JUMPI DUP1 MLOAD PUSH1 0xFF NOT AND DUP4 DUP1 ADD OR DUP6 SSTORE PUSH3 0x156 JUMP JUMPDEST DUP3 DUP1 ADD PUSH1 0x1 ADD DUP6 SSTORE DUP3 ISZERO PUSH3 0x156 JUMPI SWAP2 DUP3 ADD JUMPDEST DUP3 DUP2 GT ISZERO PUSH3 0x155 JUMPI DUP3 MLOAD DUP3 SSTORE SWAP2 PUSH1 0x20 ADD SWAP2 SWAP1 PUSH1 0x1 ADD SWAP1 PUSH3 0x138 JUMP JUMPDEST JUMPDEST POP SWAP1 POP PUSH3 0x165 SWAP2 SWAP1 PUSH3 0x169 JUMP JUMPDEST POP SWAP1 JUMP JUMPDEST JUMPDEST DUP1 DUP3 GT ISZERO PUSH3 0x184 JUMPI PUSH1 0x0 DUP2 PUSH1 0x0 SWAP1 SSTORE POP PUSH1 0x1 ADD PUSH3 0x16A JUMP JUMPDEST POP SWAP1 JUMP JUMPDEST PUSH1 0x0 PUSH1 0x40 MLOAD SWAP1 POP SWAP1 JUMP JUMPDEST PUSH1 0x0 DUP1 REVERT JUMPDEST PUSH1 0x0 DUP1 REVERT JUMPDEST PUSH1 0x0 DUP1 REVERT JUMPDEST PUSH1 0x0 DUP1 REVERT JUMPDEST PUSH1 0x0 PUSH1 0x1F NOT PUSH1 0x1F DUP4 ADD AND SWAP1 POP SWAP2 SWAP1 POP JUMP JUMPDEST PUSH32 0x4E487B7100000000000000000000000000000000000000000000000000000000 PUSH1 0x0 MSTORE PUSH1 0x41 PUSH1 0x4 MSTORE PUSH1 0x24 PUSH1 0x0 REVERT JUMPDEST PUSH3 0x1F1 DUP3 PUSH3 0x1A6 JUMP JUMPDEST DUP2 ADD DUP2 DUP2 LT PUSH8 0xFFFFFFFFFFFFFFFF DUP3 GT OR ISZERO PUSH3 0x213 JUMPI PUSH3 0x212 PUSH3 0x1B7 JUMP JUMPDEST JUMPDEST DUP1 PUSH1 0x40 MSTORE POP POP POP JUMP JUMPDEST PUSH1 0x0 PUSH3 0x228 PUSH3 0x188 JUMP JUMPDEST SWAP1 POP PUSH3 0x236 DUP3 DUP3 PUSH3 0x1E6 JUMP JUMPDEST SWAP2 SWAP1 POP JUMP JUMPDEST PUSH1 0x0 PUSH8 0xFFFFFFFFFFFFFFFF DUP3 GT ISZERO PUSH3 0x259 JUMPI PUSH3 0x258 PUSH3 0x1B7 JUMP JUMPDEST JUMPDEST PUSH3 0x264 DUP3 PUSH3 0x1A6 JUMP JUMPDEST SWAP1 POP PUSH1 0x20 DUP2 ADD SWAP1 POP SWAP2 SWAP1 POP JUMP JUMPDEST PUSH1 0x0 JUMPDEST DUP4 DUP2 LT ISZERO PUSH3 0x291 JUMPI DUP1 DUP3 ADD MLOAD DUP2 DUP5 ADD MSTORE PUSH1 0x20 DUP2 ADD SWAP1 POP PUSH3 0x274 JUMP JUMPDEST DUP4 DUP2 GT ISZERO PUSH3 0x2A1 JUMPI PUSH1 0x0 DUP5 DUP5 ADD MSTORE JUMPDEST POP POP POP POP JUMP JUMPDEST PUSH1 0x0 PUSH3 0x2BE PUSH3 0x2B8 DUP5 PUSH3 0x23B JUMP JUMPDEST PUSH3 0x21C JUMP JUMPDEST SWAP1 POP DUP3 DUP2 MSTORE PUSH1 0x20 DUP2 ADD DUP5 DUP5 DUP5 ADD GT ISZERO PUSH3 0x2DD JUMPI PUSH3 0x2DC PUSH3 0x1A1 JUMP JUMPDEST JUMPDEST PUSH3 0x2EA DUP5 DUP3 DUP6 PUSH3 0x271 JUMP JUMPDEST POP SWAP4 SWAP3 POP POP POP JUMP JUMPDEST PUSH1 0x0 DUP3 PUSH1 0x1F DUP4 ADD SLT PUSH3 0x30A JUMPI PUSH3 0x309 PUSH3 0x19C JUMP JUMPDEST JUMPDEST DUP2 MLOAD PUSH3 0x31C DUP5 DUP3 PUSH1 0x20 DUP7 ADD PUSH3 0x2A7 JUMP JUMPDEST SWAP2 POP POP SWAP3 SWAP2 POP POP JUMP JUMPDEST PUSH1 0x0 PUSH20 0xFFFFFFFFFFFFFFFFFFFFFFFFFFFFFFFFFFFFFFFF DUP3 AND SWAP1 POP SWAP2 SWAP1 POP JUMP JUMPDEST PUSH1 0x0 PUSH3 0x352 DUP3 PUSH3 0x325 JUMP JUMPDEST SWAP1 POP SWAP2 SWAP1 POP JUMP JUMPDEST PUSH1 0x0 PUSH3 0x366 DUP3 PUSH3 0x345 JUMP JUMPDEST SWAP1 POP SWAP2 SWAP1 POP JUMP JUMPDEST PUSH3 0x378 DUP2 PUSH3 0x359 JUMP JUMPDEST DUP2 EQ PUSH3 0x384 JUMPI PUSH1 0x0 DUP1 REVERT JUMPDEST POP JUMP JUMPDEST PUSH1 0x0 DUP2 MLOAD SWAP1 POP PUSH3 0x398 DUP2 PUSH3 0x36D JUMP JUMPDEST SWAP3 SWAP2 POP POP JUMP JUMPDEST PUSH1 0x0 DUP1 PUSH1 0x40 DUP4 DUP6 SUB SLT ISZERO PUSH3 0x3B8 JUMPI PUSH3 0x3B7 PUSH3 0x192 JUMP JUMPDEST JUMPDEST PUSH1 0x0 DUP4 ADD MLOAD PUSH8 0xFFFFFFFFFFFFFFFF DUP2 GT ISZERO PUSH3 0x3D9 JUMPI PUSH3 0x3D8 PUSH3 0x197 JUMP JUMPDEST JUMPDEST PUSH3 0x3E7 DUP6 DUP3 DUP7 ADD PUSH3 0x2F2 JUMP JUMPDEST SWAP3 POP POP PUSH1 0x20 PUSH3 0x3FA DUP6 DUP3 DUP7 ADD PUSH3 0x387 JUMP JUMPDEST SWAP2 POP POP SWAP3 POP SWAP3 SWAP1 POP JUMP JUMPDEST PUSH32 0x4E487B7100000000000000000000000000000000000000000000000000000000 PUSH1 0x0 MSTORE PUSH1 0x22 PUSH1 0x4 MSTORE PUSH1 0x24 PUSH1 0x0 REVERT JUMPDEST PUSH1 0x0 PUSH1 0x2 DUP3 DIV SWAP1 POP PUSH1 0x1 DUP3 AND DUP1 PUSH3 0x44C JUMPI PUSH1 0x7F DUP3 AND SWAP2 POP JUMPDEST PUSH1 0x20 DUP3 LT DUP2 EQ ISZERO PUSH3 0x463 JUMPI PUSH3 0x462 PUSH3 0x404 JUMP JUMPDEST JUMPDEST POP SWAP2 SWAP1 POP JUMP JUMPDEST PUSH2 0xA87 DUP1 PUSH3 0x479 PUSH1 0x0 CODECOPY PUSH1 0x0 RETURN INVALID PUSH1 0x80 PUSH1 0x40 MSTORE CALLVALUE DUP1 ISZERO PUSH2 0x10 JUMPI PUSH1 0x0 DUP1 REVERT JUMPDEST POP PUSH1 0x4 CALLDATASIZE LT PUSH2 0x88 JUMPI PUSH1 0x0 CALLDATALOAD PUSH1 0xE0 SHR DUP1 PUSH4 0x4F8632BA GT PUSH2 0x5B JUMPI DUP1 PUSH4 0x4F8632BA EQ PUSH2 0x103 JUMPI DUP1 PUSH4 0x8DA5CB5B EQ PUSH2 0x121 JUMPI DUP1 PUSH4 0x91BFB74F EQ PUSH2 0x13F JUMPI DUP1 PUSH4 0xF9633930 EQ PUSH2 0x15D JUMPI PUSH2 0x88 JUMP JUMPDEST DUP1 PUSH4 0x748F40A EQ PUSH2 0x8D JUMPI DUP1 PUSH4 0x7FD72F6 EQ PUSH2 0xA9 JUMPI DUP1 PUSH4 0xCF2F2C1 EQ PUSH2 0xC7 JUMPI DUP1 PUSH4 0x26121FF0 EQ PUSH2 0xE5 JUMPI JUMPDEST PUSH1 0x0 DUP1 REVERT JUMPDEST PUSH2 0xA7 PUSH1 0x4 DUP1 CALLDATASIZE SUB DUP2 ADD SWAP1 PUSH2 0xA2 SWAP2 SWAP1 PUSH2 0x5F2 JUMP JUMPDEST PUSH2 0x17B JUMP JUMPDEST STOP JUMPDEST PUSH2 0xB1 PUSH2 0x24D JUMP JUMPDEST PUSH1 0x40 MLOAD PUSH2 0xBE SWAP2 SWAP1 PUSH2 0x657 JUMP JUMPDEST PUSH1 0x40 MLOAD DUP1 SWAP2 SUB SWAP1 RETURN JUMPDEST PUSH2 0xCF PUSH2 0x260 JUMP JUMPDEST PUSH1 0x40 MLOAD PUSH2 0xDC SWAP2 SWAP1 PUSH2 0x68D JUMP JUMPDEST PUSH1 0x40 MLOAD DUP1 SWAP2 SUB SWAP1 RETURN JUMPDEST PUSH2 0xED PUSH2 0x273 JUMP JUMPDEST PUSH1 0x40 MLOAD PUSH2 0xFA SWAP2 SWAP1 PUSH2 0x727 JUMP JUMPDEST PUSH1 0x40 MLOAD DUP1 SWAP2 SUB SWAP1 RETURN JUMPDEST PUSH2 0x10B PUSH2 0x297 JUMP JUMPDEST PUSH1 0x40 MLOAD PUSH2 0x118 SWAP2 SWAP1 PUSH2 0x763 JUMP JUMPDEST PUSH1 0x40 MLOAD DUP1 SWAP2 SUB SWAP1 RETURN JUMPDEST PUSH2 0x129 PUSH2 0x2BD JUMP JUMPDEST PUSH1 0x40 MLOAD PUSH2 0x136 SWAP2 SWAP1 PUSH2 0x763 JUMP JUMPDEST PUSH1 0x40 MLOAD DUP1 SWAP2 SUB SWAP1 RETURN JUMPDEST PUSH2 0x147 PUSH2 0x2E1 JUMP JUMPDEST PUSH1 0x40 MLOAD PUSH2 0x154 SWAP2 SWAP1 PUSH2 0x68D JUMP JUMPDEST PUSH1 0x40 MLOAD DUP1 SWAP2 SUB SWAP1 RETURN JUMPDEST PUSH2 0x165 PUSH2 0x2F4 JUMP JUMPDEST PUSH1 0x40 MLOAD PUSH2 0x172 SWAP2 SWAP1 PUSH2 0x806 JUMP JUMPDEST PUSH1 0x40 MLOAD DUP1 SWAP2 SUB SWAP1 RETURN JUMPDEST PUSH1 0x0 DUP1 PUSH1 0x3 DUP1 SLOAD SWAP1 PUSH2 0x100 EXP SWAP1 DIV PUSH20 0xFFFFFFFFFFFFFFFFFFFFFFFFFFFFFFFFFFFFFFFF AND PUSH20 0xFFFFFFFFFFFFFFFFFFFFFFFFFFFFFFFFFFFFFFFF AND DUP4 PUSH1 0x40 MLOAD PUSH2 0x1C3 SWAP2 SWAP1 PUSH2 0x86F JUMP JUMPDEST PUSH1 0x0 PUSH1 0x40 MLOAD DUP1 DUP4 SUB DUP2 DUP6 GAS DELEGATECALL SWAP2 POP POP RETURNDATASIZE DUP1 PUSH1 0x0 DUP2 EQ PUSH2 0x1FE JUMPI PUSH1 0x40 MLOAD SWAP2 POP PUSH1 0x1F NOT PUSH1 0x3F RETURNDATASIZE ADD AND DUP3 ADD PUSH1 0x40 MSTORE RETURNDATASIZE DUP3 MSTORE RETURNDATASIZE PUSH1 0x0 PUSH1 0x20 DUP5 ADD RETURNDATACOPY PUSH2 0x203 JUMP JUMPDEST PUSH1 0x60 SWAP2 POP JUMPDEST POP SWAP2 POP SWAP2 POP DUP2 PUSH2 0x248 JUMPI PUSH1 0x40 MLOAD PUSH32 0x8C379A000000000000000000000000000000000000000000000000000000000 DUP2 MSTORE PUSH1 0x4 ADD PUSH2 0x23F SWAP1 PUSH2 0x8D2 JUMP JUMPDEST PUSH1 0x40 MLOAD DUP1 SWAP2 SUB SWAP1 REVERT JUMPDEST POP POP POP JUMP JUMPDEST PUSH1 0x3 PUSH1 0x2 SWAP1 SLOAD SWAP1 PUSH2 0x100 EXP SWAP1 DIV PUSH1 0xFF AND DUP2 JUMP JUMPDEST PUSH1 0x3 PUSH1 0x0 SWAP1 SLOAD SWAP1 PUSH2 0x100 EXP SWAP1 DIV PUSH1 0xFF AND DUP2 JUMP JUMPDEST PUSH1 0x3 DUP1 SLOAD SWAP1 PUSH2 0x100 EXP SWAP1 DIV PUSH20 0xFFFFFFFFFFFFFFFFFFFFFFFFFFFFFFFFFFFFFFFF AND DUP2 JUMP JUMPDEST PUSH1 0x1 PUSH1 0x0 SWAP1 SLOAD SWAP1 PUSH2 0x100 EXP SWAP1 DIV PUSH20 0xFFFFFFFFFFFFFFFFFFFFFFFFFFFFFFFFFFFFFFFF AND DUP2 JUMP JUMPDEST PUSH1 0x0 DUP1 SLOAD SWAP1 PUSH2 0x100 EXP SWAP1 DIV PUSH20 0xFFFFFFFFFFFFFFFFFFFFFFFFFFFFFFFFFFFFFFFF AND DUP2 JUMP JUMPDEST PUSH1 0x3 PUSH1 0x1 SWAP1 SLOAD SWAP1 PUSH2 0x100 EXP SWAP1 DIV PUSH1 0xFF AND DUP2 JUMP JUMPDEST PUSH1 0x60 CALLER PUSH20 0xFFFFFFFFFFFFFFFFFFFFFFFFFFFFFFFFFFFFFFFF AND PUSH1 0x0 DUP1 SLOAD SWAP1 PUSH2 0x100 EXP SWAP1 DIV PUSH20 0xFFFFFFFFFFFFFFFFFFFFFFFFFFFFFFFFFFFFFFFF AND PUSH20 0xFFFFFFFFFFFFFFFFFFFFFFFFFFFFFFFFFFFFFFFF AND EQ PUSH2 0x384 JUMPI PUSH1 0x40 MLOAD PUSH32 0x8C379A000000000000000000000000000000000000000000000000000000000 DUP2 MSTORE PUSH1 0x4 ADD PUSH2 0x37B SWAP1 PUSH2 0x964 JUMP JUMPDEST PUSH1 0x40 MLOAD DUP1 SWAP2 SUB SWAP1 REVERT JUMPDEST PUSH1 0x3 DUP1 PUSH1 0x2 SWAP1 SLOAD SWAP1 PUSH2 0x100 EXP SWAP1 DIV PUSH1 0xFF AND PUSH1 0xFF AND GT PUSH2 0x3D8 JUMPI PUSH1 0x40 MLOAD PUSH32 0x8C379A000000000000000000000000000000000000000000000000000000000 DUP2 MSTORE PUSH1 0x4 ADD PUSH2 0x3CF SWAP1 PUSH2 0x9D0 JUMP JUMPDEST PUSH1 0x40 MLOAD DUP1 SWAP2 SUB SWAP1 REVERT JUMPDEST PUSH1 0x3 PUSH1 0x0 SWAP1 SLOAD SWAP1 PUSH2 0x100 EXP SWAP1 DIV PUSH1 0xFF AND PUSH2 0x408 JUMPI PUSH1 0x1 PUSH1 0x3 PUSH1 0x1 PUSH2 0x100 EXP DUP2 SLOAD DUP2 PUSH1 0xFF MUL NOT AND SWAP1 DUP4 ISZERO ISZERO MUL OR SWAP1 SSTORE POP JUMPDEST PUSH1 0x2 DUP1 SLOAD PUSH2 0x415 SWAP1 PUSH2 0xA1F JUMP JUMPDEST DUP1 PUSH1 0x1F ADD PUSH1 0x20 DUP1 SWAP2 DIV MUL PUSH1 0x20 ADD PUSH1 0x40 MLOAD SWAP1 DUP2 ADD PUSH1 0x40 MSTORE DUP1 SWAP3 SWAP2 SWAP1 DUP2 DUP2 MSTORE PUSH1 0x20 ADD DUP3 DUP1 SLOAD PUSH2 0x441 SWAP1 PUSH2 0xA1F JUMP JUMPDEST DUP1 ISZERO PUSH2 0x48E JUMPI DUP1 PUSH1 0x1F LT PUSH2 0x463 JUMPI PUSH2 0x100 DUP1 DUP4 SLOAD DIV MUL DUP4 MSTORE SWAP2 PUSH1 0x20 ADD SWAP2 PUSH2 0x48E JUMP JUMPDEST DUP3 ADD SWAP2 SWAP1 PUSH1 0x0 MSTORE PUSH1 0x20 PUSH1 0x0 KECCAK256 SWAP1 JUMPDEST DUP2 SLOAD DUP2 MSTORE SWAP1 PUSH1 0x1 ADD SWAP1 PUSH1 0x20 ADD DUP1 DUP4 GT PUSH2 0x471 JUMPI DUP3 SWAP1 SUB PUSH1 0x1F AND DUP3 ADD SWAP2 JUMPDEST POP POP POP POP POP SWAP1 POP SWAP1 JUMP JUMPDEST PUSH1 0x0 PUSH1 0x40 MLOAD SWAP1 POP SWAP1 JUMP JUMPDEST PUSH1 0x0 DUP1 REVERT JUMPDEST PUSH1 0x0 DUP1 REVERT JUMPDEST PUSH1 0x0 DUP1 REVERT JUMPDEST PUSH1 0x0 DUP1 REVERT JUMPDEST PUSH1 0x0 PUSH1 0x1F NOT PUSH1 0x1F DUP4 ADD AND SWAP1 POP SWAP2 SWAP1 POP JUMP JUMPDEST PUSH32 0x4E487B7100000000000000000000000000000000000000000000000000000000 PUSH1 0x0 MSTORE PUSH1 0x41 PUSH1 0x4 MSTORE PUSH1 0x24 PUSH1 0x0 REVERT JUMPDEST PUSH2 0x4FF DUP3 PUSH2 0x4B6 JUMP JUMPDEST DUP2 ADD DUP2 DUP2 LT PUSH8 0xFFFFFFFFFFFFFFFF DUP3 GT OR ISZERO PUSH2 0x51E JUMPI PUSH2 0x51D PUSH2 0x4C7 JUMP JUMPDEST JUMPDEST DUP1 PUSH1 0x40 MSTORE POP POP POP JUMP JUMPDEST PUSH1 0x0 PUSH2 0x531 PUSH2 0x498 JUMP JUMPDEST SWAP1 POP PUSH2 0x53D DUP3 DUP3 PUSH2 0x4F6 JUMP JUMPDEST SWAP2 SWAP1 POP JUMP JUMPDEST PUSH1 0x0 PUSH8 0xFFFFFFFFFFFFFFFF DUP3 GT ISZERO PUSH2 0x55D JUMPI PUSH2 0x55C PUSH2 0x4C7 JUMP JUMPDEST JUMPDEST PUSH2 0x566 DUP3 PUSH2 0x4B6 JUMP JUMPDEST SWAP1 POP PUSH1 0x20 DUP2 ADD SWAP1 POP SWAP2 SWAP1 POP JUMP JUMPDEST DUP3 DUP2 DUP4 CALLDATACOPY PUSH1 0x0 DUP4 DUP4 ADD MSTORE POP POP POP JUMP JUMPDEST PUSH1 0x0 PUSH2 0x595 PUSH2 0x590 DUP5 PUSH2 0x542 JUMP JUMPDEST PUSH2 0x527 JUMP JUMPDEST SWAP1 POP DUP3 DUP2 MSTORE PUSH1 0x20 DUP2 ADD DUP5 DUP5 DUP5 ADD GT ISZERO PUSH2 0x5B1 JUMPI PUSH2 0x5B0 PUSH2 0x4B1 JUMP JUMPDEST JUMPDEST PUSH2 0x5BC DUP5 DUP3 DUP6 PUSH2 0x573 JUMP JUMPDEST POP SWAP4 SWAP3 POP POP POP JUMP JUMPDEST PUSH1 0x0 DUP3 PUSH1 0x1F DUP4 ADD SLT PUSH2 0x5D9 JUMPI PUSH2 0x5D8 PUSH2 0x4AC JUMP JUMPDEST JUMPDEST DUP2 CALLDATALOAD PUSH2 0x5E9 DUP5 DUP3 PUSH1 0x20 DUP7 ADD PUSH2 0x582 JUMP JUMPDEST SWAP2 POP POP SWAP3 SWAP2 POP POP JUMP JUMPDEST PUSH1 0x0 PUSH1 0x20 DUP3 DUP5 SUB SLT ISZERO PUSH2 0x608 JUMPI PUSH2 0x607 PUSH2 0x4A2 JUMP JUMPDEST JUMPDEST PUSH1 0x0 DUP3 ADD CALLDATALOAD PUSH8 0xFFFFFFFFFFFFFFFF DUP2 GT ISZERO PUSH2 0x626 JUMPI PUSH2 0x625 PUSH2 0x4A7 JUMP JUMPDEST JUMPDEST PUSH2 0x632 DUP5 DUP3 DUP6 ADD PUSH2 0x5C4 JUMP JUMPDEST SWAP2 POP POP SWAP3 SWAP2 POP POP JUMP JUMPDEST PUSH1 0x0 PUSH1 0xFF DUP3 AND SWAP1 POP SWAP2 SWAP1 POP JUMP JUMPDEST PUSH2 0x651 DUP2 PUSH2 0x63B JUMP JUMPDEST DUP3 MSTORE POP POP JUMP JUMPDEST PUSH1 0x0 PUSH1 0x20 DUP3 ADD SWAP1 POP PUSH2 0x66C PUSH1 0x0 DUP4 ADD DUP5 PUSH2 0x648 JUMP JUMPDEST SWAP3 SWAP2 POP POP JUMP JUMPDEST PUSH1 0x0 DUP2 ISZERO ISZERO SWAP1 POP SWAP2 SWAP1 POP JUMP JUMPDEST PUSH2 0x687 DUP2 PUSH2 0x672 JUMP JUMPDEST DUP3 MSTORE POP POP JUMP JUMPDEST PUSH1 0x0 PUSH1 0x20 DUP3 ADD SWAP1 POP PUSH2 0x6A2 PUSH1 0x0 DUP4 ADD DUP5 PUSH2 0x67E JUMP JUMPDEST SWAP3 SWAP2 POP POP JUMP JUMPDEST PUSH1 0x0 PUSH20 0xFFFFFFFFFFFFFFFFFFFFFFFFFFFFFFFFFFFFFFFF DUP3 AND SWAP1 POP SWAP2 SWAP1 POP JUMP JUMPDEST PUSH1 0x0 DUP2 SWAP1 POP SWAP2 SWAP1 POP JUMP JUMPDEST PUSH1 0x0 PUSH2 0x6ED PUSH2 0x6E8 PUSH2 0x6E3 DUP5 PUSH2 0x6A8 JUMP JUMPDEST PUSH2 0x6C8 JUMP JUMPDEST PUSH2 0x6A8 JUMP JUMPDEST SWAP1 POP SWAP2 SWAP1 POP JUMP JUMPDEST PUSH1 0x0 PUSH2 0x6FF DUP3 PUSH2 0x6D2 JUMP JUMPDEST SWAP1 POP SWAP2 SWAP1 POP JUMP JUMPDEST PUSH1 0x0 PUSH2 0x711 DUP3 PUSH2 0x6F4 JUMP JUMPDEST SWAP1 POP SWAP2 SWAP1 POP JUMP JUMPDEST PUSH2 0x721 DUP2 PUSH2 0x706 JUMP JUMPDEST DUP3 MSTORE POP POP JUMP JUMPDEST PUSH1 0x0 PUSH1 0x20 DUP3 ADD SWAP1 POP PUSH2 0x73C PUSH1 0x0 DUP4 ADD DUP5 PUSH2 0x718 JUMP JUMPDEST SWAP3 SWAP2 POP POP JUMP JUMPDEST PUSH1 0x0 PUSH2 0x74D DUP3 PUSH2 0x6A8 JUMP JUMPDEST SWAP1 POP SWAP2 SWAP1 POP JUMP JUMPDEST PUSH2 0x75D DUP2 PUSH2 0x742 JUMP JUMPDEST DUP3 MSTORE POP POP JUMP JUMPDEST PUSH1 0x0 PUSH1 0x20 DUP3 ADD SWAP1 POP PUSH2 0x778 PUSH1 0x0 DUP4 ADD DUP5 PUSH2 0x754 JUMP JUMPDEST SWAP3 SWAP2 POP POP JUMP JUMPDEST PUSH1 0x0 DUP2 MLOAD SWAP1 POP SWAP2 SWAP1 POP JUMP JUMPDEST PUSH1 0x0 DUP3 DUP3 MSTORE PUSH1 0x20 DUP3 ADD SWAP1 POP SWAP3 SWAP2 POP POP JUMP JUMPDEST PUSH1 0x0 JUMPDEST DUP4 DUP2 LT ISZERO PUSH2 0x7B8 JUMPI DUP1 DUP3 ADD MLOAD DUP2 DUP5 ADD MSTORE PUSH1 0x20 DUP2 ADD SWAP1 POP PUSH2 0x79D JUMP JUMPDEST DUP4 DUP2 GT ISZERO PUSH2 0x7C7 JUMPI PUSH1 0x0 DUP5 DUP5 ADD MSTORE JUMPDEST POP POP POP POP JUMP JUMPDEST PUSH1 0x0 PUSH2 0x7D8 DUP3 PUSH2 0x77E JUMP JUMPDEST PUSH2 0x7E2 DUP2 DUP6 PUSH2 0x789 JUMP JUMPDEST SWAP4 POP PUSH2 0x7F2 DUP2 DUP6 PUSH1 0x20 DUP7 ADD PUSH2 0x79A JUMP JUMPDEST PUSH2 0x7FB DUP2 PUSH2 0x4B6 JUMP JUMPDEST DUP5 ADD SWAP2 POP POP SWAP3 SWAP2 POP POP JUMP JUMPDEST PUSH1 0x0 PUSH1 0x20 DUP3 ADD SWAP1 POP DUP2 DUP2 SUB PUSH1 0x0 DUP4 ADD MSTORE PUSH2 0x820 DUP2 DUP5 PUSH2 0x7CD JUMP JUMPDEST SWAP1 POP SWAP3 SWAP2 POP POP JUMP JUMPDEST PUSH1 0x0 DUP2 MLOAD SWAP1 POP SWAP2 SWAP1 POP JUMP JUMPDEST PUSH1 0x0 DUP2 SWAP1 POP SWAP3 SWAP2 POP POP JUMP JUMPDEST PUSH1 0x0 PUSH2 0x849 DUP3 PUSH2 0x828 JUMP JUMPDEST PUSH2 0x853 DUP2 DUP6 PUSH2 0x833 JUMP JUMPDEST SWAP4 POP PUSH2 0x863 DUP2 DUP6 PUSH1 0x20 DUP7 ADD PUSH2 0x79A JUMP JUMPDEST DUP1 DUP5 ADD SWAP2 POP POP SWAP3 SWAP2 POP POP JUMP JUMPDEST PUSH1 0x0 PUSH2 0x87B DUP3 DUP5 PUSH2 0x83E JUMP JUMPDEST SWAP2 POP DUP2 SWAP1 POP SWAP3 SWAP2 POP POP JUMP JUMPDEST PUSH32 0x44656C6567616461206E6F20636F727265637461000000000000000000000000 PUSH1 0x0 DUP3 ADD MSTORE POP JUMP JUMPDEST PUSH1 0x0 PUSH2 0x8BC PUSH1 0x14 DUP4 PUSH2 0x789 JUMP JUMPDEST SWAP2 POP PUSH2 0x8C7 DUP3 PUSH2 0x886 JUMP JUMPDEST PUSH1 0x20 DUP3 ADD SWAP1 POP SWAP2 SWAP1 POP JUMP JUMPDEST PUSH1 0x0 PUSH1 0x20 DUP3 ADD SWAP1 POP DUP2 DUP2 SUB PUSH1 0x0 DUP4 ADD MSTORE PUSH2 0x8EB DUP2 PUSH2 0x8AF JUMP JUMPDEST SWAP1 POP SWAP2 SWAP1 POP JUMP JUMPDEST PUSH32 0x4E6F206572657320656C2070726F706965746172696F2064656C20636F6E7472 PUSH1 0x0 DUP3 ADD MSTORE PUSH32 0x61746F0000000000000000000000000000000000000000000000000000000000 PUSH1 0x20 DUP3 ADD MSTORE POP JUMP JUMPDEST PUSH1 0x0 PUSH2 0x94E PUSH1 0x23 DUP4 PUSH2 0x789 JUMP JUMPDEST SWAP2 POP PUSH2 0x959 DUP3 PUSH2 0x8F2 JUMP JUMPDEST PUSH1 0x40 DUP3 ADD SWAP1 POP SWAP2 SWAP1 POP JUMP JUMPDEST PUSH1 0x0 PUSH1 0x20 DUP3 ADD SWAP1 POP DUP2 DUP2 SUB PUSH1 0x0 DUP4 ADD MSTORE PUSH2 0x97D DUP2 PUSH2 0x941 JUMP JUMPDEST SWAP1 POP SWAP2 SWAP1 POP JUMP JUMPDEST PUSH32 0x4E6F2068617320657363616C61646F206C6F20737566756369656E7465000000 PUSH1 0x0 DUP3 ADD MSTORE POP JUMP JUMPDEST PUSH1 0x0 PUSH2 0x9BA PUSH1 0x1D DUP4 PUSH2 0x789 JUMP JUMPDEST SWAP2 POP PUSH2 0x9C5 DUP3 PUSH2 0x984 JUMP JUMPDEST PUSH1 0x20 DUP3 ADD SWAP1 POP SWAP2 SWAP1 POP JUMP JUMPDEST PUSH1 0x0 PUSH1 0x20 DUP3 ADD SWAP1 POP DUP2 DUP2 SUB PUSH1 0x0 DUP4 ADD MSTORE PUSH2 0x9E9 DUP2 PUSH2 0x9AD JUMP JUMPDEST SWAP1 POP SWAP2 SWAP1 POP JUMP JUMPDEST PUSH32 0x4E487B7100000000000000000000000000000000000000000000000000000000 PUSH1 0x0 MSTORE PUSH1 0x22 PUSH1 0x4 MSTORE PUSH1 0x24 PUSH1 0x0 REVERT JUMPDEST PUSH1 0x0 PUSH1 0x2 DUP3 DIV SWAP1 POP PUSH1 0x1 DUP3 AND DUP1 PUSH2 0xA37 JUMPI PUSH1 0x7F DUP3 AND SWAP2 POP JUMPDEST PUSH1 0x20 DUP3 LT DUP2 EQ ISZERO PUSH2 0xA4B JUMPI PUSH2 0xA4A PUSH2 0x9F0 JUMP JUMPDEST JUMPDEST POP SWAP2 SWAP1 POP JUMP INVALID LOG2 PUSH5 0x6970667358 0x22 SLT KECCAK256 MSTORE 0xAE LOG4 DUP14 SWAP7 0x2C 0x5C 0x1E RETURN PUSH26 0x5498252BD8C0A4646D4C7152F8DAC4D08D0482E9D67C64736F6C PUSH4 0x4300080A STOP CALLER "
				},
				"gasEstimates": {
					"creation": {
						"codeDepositCost": "539000",
						"executionCost": "infinite",
						"totalCost": "infinite"
					},
					"external": {
						"climbedMeters()": "2544",
						"easter_egg()": "2565",
						"execution_function(bytes)": "infinite",
						"f()": "infinite",
						"fall()": "2516",
						"getFlag()": "infinite",
						"owner()": "2533",
						"user()": "2514"
					}
				},
				"methodIdentifiers": {
					"climbedMeters()": "07fd72f6",
					"easter_egg()": "91bfb74f",
					"execution_function(bytes)": "0748f40a",
					"f()": "26121ff0",
					"fall()": "0cf2f2c1",
					"getFlag()": "f9633930",
					"owner()": "8da5cb5b",
					"user()": "4f8632ba"
				}
			},
			"storageLayout": {
				"storage": [
					{
						"astId": 66,
						"contract": "levelup/snippet3.sol:Snippet3",
						"label": "owner",
						"offset": 0,
						"slot": "0",
						"type": "t_address"
					},
					{
						"astId": 68,
						"contract": "levelup/snippet3.sol:Snippet3",
						"label": "user",
						"offset": 0,
						"slot": "1",
						"type": "t_address"
					},
					{
						"astId": 70,
						"contract": "levelup/snippet3.sol:Snippet3",
						"label": "snippet_flag",
						"offset": 0,
						"slot": "2",
						"type": "t_string_storage"
					},
					{
						"astId": 72,
						"contract": "levelup/snippet3.sol:Snippet3",
						"label": "fall",
						"offset": 0,
						"slot": "3",
						"type": "t_bool"
					},
					{
						"astId": 74,
						"contract": "levelup/snippet3.sol:Snippet3",
						"label": "easter_egg",
						"offset": 1,
						"slot": "3",
						"type": "t_bool"
					},
					{
						"astId": 76,
						"contract": "levelup/snippet3.sol:Snippet3",
						"label": "climbedMeters",
						"offset": 2,
						"slot": "3",
						"type": "t_uint8"
					},
					{
						"astId": 79,
						"contract": "levelup/snippet3.sol:Snippet3",
						"label": "f",
						"offset": 3,
						"slot": "3",
						"type": "t_contract(functions3)61"
					}
				],
				"types": {
					"t_address": {
						"encoding": "inplace",
						"label": "address",
						"numberOfBytes": "20"
					},
					"t_bool": {
						"encoding": "inplace",
						"label": "bool",
						"numberOfBytes": "1"
					},
					"t_contract(functions3)61": {
						"encoding": "inplace",
						"label": "contract functions3",
						"numberOfBytes": "20"
					},
					"t_string_storage": {
						"encoding": "bytes",
						"label": "string",
						"numberOfBytes": "32"
					},
					"t_uint8": {
						"encoding": "inplace",
						"label": "uint8",
						"numberOfBytes": "1"
					}
				}
			},
			"userdoc": {
				"kind": "user",
				"methods": {},
				"version": 1
			}
		}
	}
}