{
	"levelup/test.sol": {
		"Pay": {
			"abi": [
				{
					"inputs": [
						{
							"internalType": "contract Base",
							"name": "_base",
							"type": "address"
						}
					],
					"stateMutability": "nonpayable",
					"type": "constructor"
				},
				{
					"anonymous": false,
					"inputs": [
						{
							"indexed": false,
							"internalType": "address",
							"name": "payer",
							"type": "address"
						},
						{
							"indexed": false,
							"internalType": "uint256",
							"name": "level",
							"type": "uint256"
						},
						{
							"indexed": false,
							"internalType": "address",
							"name": "contractAddress",
							"type": "address"
						}
					],
					"name": "Deployed",
					"type": "event"
				},
				{
					"anonymous": false,
					"inputs": [
						{
							"indexed": true,
							"internalType": "address",
							"name": "previousOwner",
							"type": "address"
						},
						{
							"indexed": true,
							"internalType": "address",
							"name": "newOwner",
							"type": "address"
						}
					],
					"name": "OwnershipTransferred",
					"type": "event"
				},
				{
					"anonymous": false,
					"inputs": [
						{
							"indexed": false,
							"internalType": "address",
							"name": "from",
							"type": "address"
						},
						{
							"indexed": false,
							"internalType": "uint256",
							"name": "level",
							"type": "uint256"
						}
					],
					"name": "Payed",
					"type": "event"
				},
				{
					"inputs": [],
					"name": "base",
					"outputs": [
						{
							"internalType": "contract Base",
							"name": "",
							"type": "address"
						}
					],
					"stateMutability": "view",
					"type": "function"
				},
				{
					"inputs": [],
					"name": "cost",
					"outputs": [
						{
							"internalType": "uint256",
							"name": "",
							"type": "uint256"
						}
					],
					"stateMutability": "view",
					"type": "function"
				},
				{
					"inputs": [
						{
							"internalType": "uint256",
							"name": "_level",
							"type": "uint256"
						}
					],
					"name": "getContract",
					"outputs": [
						{
							"internalType": "address",
							"name": "",
							"type": "address"
						}
					],
					"stateMutability": "view",
					"type": "function"
				},
				{
					"inputs": [],
					"name": "giveMeMoney",
					"outputs": [],
					"stateMutability": "nonpayable",
					"type": "function"
				},
				{
					"inputs": [
						{
							"internalType": "address",
							"name": "_address",
							"type": "address"
						},
						{
							"internalType": "uint256",
							"name": "_level",
							"type": "uint256"
						},
						{
							"internalType": "address",
							"name": "_contract",
							"type": "address"
						}
					],
					"name": "notify",
					"outputs": [],
					"stateMutability": "nonpayable",
					"type": "function"
				},
				{
					"inputs": [],
					"name": "owner",
					"outputs": [
						{
							"internalType": "address",
							"name": "",
							"type": "address"
						}
					],
					"stateMutability": "view",
					"type": "function"
				},
				{
					"inputs": [
						{
							"internalType": "uint256",
							"name": "_level",
							"type": "uint256"
						}
					],
					"name": "payDeploy",
					"outputs": [],
					"stateMutability": "payable",
					"type": "function"
				},
				{
					"inputs": [],
					"name": "renounceOwnership",
					"outputs": [],
					"stateMutability": "nonpayable",
					"type": "function"
				},
				{
					"inputs": [
						{
							"internalType": "address",
							"name": "newOwner",
							"type": "address"
						}
					],
					"name": "transferOwnership",
					"outputs": [],
					"stateMutability": "nonpayable",
					"type": "function"
				},
				{
					"inputs": [
						{
							"internalType": "address",
							"name": "_player",
							"type": "address"
						},
						{
							"internalType": "uint256",
							"name": "_level",
							"type": "uint256"
						}
					],
					"name": "tryAgain",
					"outputs": [],
					"stateMutability": "nonpayable",
					"type": "function"
				}
			],
			"devdoc": {
				"kind": "dev",
				"methods": {
					"owner()": {
						"details": "Returns the address of the current owner."
					},
					"renounceOwnership()": {
						"details": "Leaves the contract without owner. It will not be possible to call `onlyOwner` functions. Can only be called by the current owner. NOTE: Renouncing ownership will leave the contract without an owner, thereby disabling any functionality that is only available to the owner."
					},
					"transferOwnership(address)": {
						"details": "Transfers ownership of the contract to a new account (`newOwner`). Can only be called by the current owner."
					}
				},
				"version": 1
			},
			"evm": {
				"assembly": "    /* \"levelup/test.sol\":214:2546  contract Pay is Ownable {... */\n  mstore(0x40, 0x80)\n    /* \"levelup/test.sol\":572:587  200000000000000 */\n  0xb5e620f48000\n    /* \"levelup/test.sol\":550:587  uint256 public cost = 200000000000000 */\n  0x03\n  sstore\n    /* \"levelup/test.sol\":627:682  constructor(Base _base) {... */\n  callvalue\n  dup1\n  iszero\n  tag_1\n  jumpi\n  0x00\n  dup1\n  revert\ntag_1:\n  pop\n  mload(0x40)\n  sub(codesize, bytecodeSize)\n  dup1\n  bytecodeSize\n  dup4\n  codecopy\n  dup2\n  dup2\n  add\n  0x40\n  mstore\n  dup2\n  add\n  swap1\n  tag_2\n  swap2\n  swap1\n  tag_3\n  jump\t// in\ntag_2:\n    /* \"@openzeppelin/contracts/access/Ownable.sol\":936:968  _transferOwnership(_msgSender()) */\n  tag_7\n    /* \"@openzeppelin/contracts/access/Ownable.sol\":955:967  _msgSender() */\n  tag_8\n    /* \"@openzeppelin/contracts/access/Ownable.sol\":955:965  _msgSender */\n  shl(0x20, tag_9)\n    /* \"@openzeppelin/contracts/access/Ownable.sol\":955:967  _msgSender() */\n  0x20\n  shr\n  jump\t// in\ntag_8:\n    /* \"@openzeppelin/contracts/access/Ownable.sol\":936:954  _transferOwnership */\n  shl(0x20, tag_10)\n    /* \"@openzeppelin/contracts/access/Ownable.sol\":936:968  _transferOwnership(_msgSender()) */\n  0x20\n  shr\n  jump\t// in\ntag_7:\n    /* \"levelup/test.sol\":669:674  _base */\n  dup1\n    /* \"levelup/test.sol\":662:666  base */\n  0x04\n  0x00\n    /* \"levelup/test.sol\":662:674  base = _base */\n  0x0100\n  exp\n  dup2\n  sload\n  dup2\n  0xffffffffffffffffffffffffffffffffffffffff\n  mul\n  not\n  and\n  swap1\n  dup4\n  0xffffffffffffffffffffffffffffffffffffffff\n  and\n  mul\n  or\n  swap1\n  sstore\n  pop\n    /* \"levelup/test.sol\":627:682  constructor(Base _base) {... */\n  pop\n    /* \"levelup/test.sol\":214:2546  contract Pay is Ownable {... */\n  jump(tag_12)\n    /* \"@openzeppelin/contracts/utils/Context.sol\":640:736  function _msgSender() internal view virtual returns (address) {... */\ntag_9:\n    /* \"@openzeppelin/contracts/utils/Context.sol\":693:700  address */\n  0x00\n    /* \"@openzeppelin/contracts/utils/Context.sol\":719:729  msg.sender */\n  caller\n    /* \"@openzeppelin/contracts/utils/Context.sol\":712:729  return msg.sender */\n  swap1\n  pop\n    /* \"@openzeppelin/contracts/utils/Context.sol\":640:736  function _msgSender() internal view virtual returns (address) {... */\n  swap1\n  jump\t// out\n    /* \"@openzeppelin/contracts/access/Ownable.sol\":2426:2613  function _transferOwnership(address newOwner) internal virtual {... */\ntag_10:\n    /* \"@openzeppelin/contracts/access/Ownable.sol\":2499:2515  address oldOwner */\n  0x00\n    /* \"@openzeppelin/contracts/access/Ownable.sol\":2518:2524  _owner */\n  dup1\n  0x00\n  swap1\n  sload\n  swap1\n  0x0100\n  exp\n  swap1\n  div\n  0xffffffffffffffffffffffffffffffffffffffff\n  and\n    /* \"@openzeppelin/contracts/access/Ownable.sol\":2499:2524  address oldOwner = _owner */\n  swap1\n  pop\n    /* \"@openzeppelin/contracts/access/Ownable.sol\":2543:2551  newOwner */\n  dup2\n    /* \"@openzeppelin/contracts/access/Ownable.sol\":2534:2540  _owner */\n  0x00\n  dup1\n    /* \"@openzeppelin/contracts/access/Ownable.sol\":2534:2551  _owner = newOwner */\n  0x0100\n  exp\n  dup2\n  sload\n  dup2\n  0xffffffffffffffffffffffffffffffffffffffff\n  mul\n  not\n  and\n  swap1\n  dup4\n  0xffffffffffffffffffffffffffffffffffffffff\n  and\n  mul\n  or\n  swap1\n  sstore\n  pop\n    /* \"@openzeppelin/contracts/access/Ownable.sol\":2597:2605  newOwner */\n  dup2\n    /* \"@openzeppelin/contracts/access/Ownable.sol\":2566:2606  OwnershipTransferred(oldOwner, newOwner) */\n  0xffffffffffffffffffffffffffffffffffffffff\n  and\n    /* \"@openzeppelin/contracts/access/Ownable.sol\":2587:2595  oldOwner */\n  dup2\n    /* \"@openzeppelin/contracts/access/Ownable.sol\":2566:2606  OwnershipTransferred(oldOwner, newOwner) */\n  0xffffffffffffffffffffffffffffffffffffffff\n  and\n  0x8be0079c531659141344cd1fd0a4f28419497f9722a3daafe3b4186f6b6457e0\n  mload(0x40)\n  mload(0x40)\n  dup1\n  swap2\n  sub\n  swap1\n  log3\n    /* \"@openzeppelin/contracts/access/Ownable.sol\":2489:2613  {... */\n  pop\n    /* \"@openzeppelin/contracts/access/Ownable.sol\":2426:2613  function _transferOwnership(address newOwner) internal virtual {... */\n  pop\n  jump\t// out\n    /* \"#utility.yul\":88:205   */\ntag_16:\n    /* \"#utility.yul\":197:198   */\n  0x00\n    /* \"#utility.yul\":194:195   */\n  dup1\n    /* \"#utility.yul\":187:199   */\n  revert\n    /* \"#utility.yul\":334:460   */\ntag_18:\n    /* \"#utility.yul\":371:378   */\n  0x00\n    /* \"#utility.yul\":411:453   */\n  0xffffffffffffffffffffffffffffffffffffffff\n    /* \"#utility.yul\":404:409   */\n  dup3\n    /* \"#utility.yul\":400:454   */\n  and\n    /* \"#utility.yul\":389:454   */\n  swap1\n  pop\n    /* \"#utility.yul\":334:460   */\n  swap2\n  swap1\n  pop\n  jump\t// out\n    /* \"#utility.yul\":466:562   */\ntag_19:\n    /* \"#utility.yul\":503:510   */\n  0x00\n    /* \"#utility.yul\":532:556   */\n  tag_29\n    /* \"#utility.yul\":550:555   */\n  dup3\n    /* \"#utility.yul\":532:556   */\n  tag_18\n  jump\t// in\ntag_29:\n    /* \"#utility.yul\":521:556   */\n  swap1\n  pop\n    /* \"#utility.yul\":466:562   */\n  swap2\n  swap1\n  pop\n  jump\t// out\n    /* \"#utility.yul\":568:676   */\ntag_20:\n    /* \"#utility.yul\":617:624   */\n  0x00\n    /* \"#utility.yul\":646:670   */\n  tag_31\n    /* \"#utility.yul\":664:669   */\n  dup3\n    /* \"#utility.yul\":646:670   */\n  tag_19\n  jump\t// in\ntag_31:\n    /* \"#utility.yul\":635:670   */\n  swap1\n  pop\n    /* \"#utility.yul\":568:676   */\n  swap2\n  swap1\n  pop\n  jump\t// out\n    /* \"#utility.yul\":682:828   */\ntag_21:\n    /* \"#utility.yul\":767:803   */\n  tag_33\n    /* \"#utility.yul\":797:802   */\n  dup2\n    /* \"#utility.yul\":767:803   */\n  tag_20\n  jump\t// in\ntag_33:\n    /* \"#utility.yul\":760:765   */\n  dup2\n    /* \"#utility.yul\":757:804   */\n  eq\n    /* \"#utility.yul\":747:822   */\n  tag_34\n  jumpi\n    /* \"#utility.yul\":818:819   */\n  0x00\n    /* \"#utility.yul\":815:816   */\n  dup1\n    /* \"#utility.yul\":808:820   */\n  revert\n    /* \"#utility.yul\":747:822   */\ntag_34:\n    /* \"#utility.yul\":682:828   */\n  pop\n  jump\t// out\n    /* \"#utility.yul\":834:1001   */\ntag_22:\n    /* \"#utility.yul\":903:908   */\n  0x00\n    /* \"#utility.yul\":934:940   */\n  dup2\n    /* \"#utility.yul\":928:941   */\n  mload\n    /* \"#utility.yul\":919:941   */\n  swap1\n  pop\n    /* \"#utility.yul\":950:995   */\n  tag_36\n    /* \"#utility.yul\":989:994   */\n  dup2\n    /* \"#utility.yul\":950:995   */\n  tag_21\n  jump\t// in\ntag_36:\n    /* \"#utility.yul\":834:1001   */\n  swap3\n  swap2\n  pop\n  pop\n  jump\t// out\n    /* \"#utility.yul\":1007:1382   */\ntag_3:\n    /* \"#utility.yul\":1089:1095   */\n  0x00\n    /* \"#utility.yul\":1138:1140   */\n  0x20\n    /* \"#utility.yul\":1126:1135   */\n  dup3\n    /* \"#utility.yul\":1117:1124   */\n  dup5\n    /* \"#utility.yul\":1113:1136   */\n  sub\n    /* \"#utility.yul\":1109:1141   */\n  slt\n    /* \"#utility.yul\":1106:1225   */\n  iszero\n  tag_38\n  jumpi\n    /* \"#utility.yul\":1144:1223   */\n  tag_39\n  tag_16\n  jump\t// in\ntag_39:\n    /* \"#utility.yul\":1106:1225   */\ntag_38:\n    /* \"#utility.yul\":1264:1265   */\n  0x00\n    /* \"#utility.yul\":1289:1365   */\n  tag_40\n    /* \"#utility.yul\":1357:1364   */\n  dup5\n    /* \"#utility.yul\":1348:1354   */\n  dup3\n    /* \"#utility.yul\":1337:1346   */\n  dup6\n    /* \"#utility.yul\":1333:1355   */\n  add\n    /* \"#utility.yul\":1289:1365   */\n  tag_22\n  jump\t// in\ntag_40:\n    /* \"#utility.yul\":1279:1365   */\n  swap2\n  pop\n    /* \"#utility.yul\":1235:1375   */\n  pop\n    /* \"#utility.yul\":1007:1382   */\n  swap3\n  swap2\n  pop\n  pop\n  jump\t// out\n    /* \"levelup/test.sol\":214:2546  contract Pay is Ownable {... */\ntag_12:\n  dataSize(sub_0)\n  dup1\n  dataOffset(sub_0)\n  0x00\n  codecopy\n  0x00\n  return\nstop\n\nsub_0: assembly {\n        /* \"levelup/test.sol\":214:2546  contract Pay is Ownable {... */\n      mstore(0x40, 0x80)\n      jumpi(tag_1, lt(calldatasize, 0x04))\n      shr(0xe0, calldataload(0x00))\n      dup1\n      0x6ebc8c86\n      gt\n      tag_12\n      jumpi\n      dup1\n      0x6ebc8c86\n      eq\n      tag_7\n      jumpi\n      dup1\n      0x715018a6\n      eq\n      tag_8\n      jumpi\n      dup1\n      0x7aa1469f\n      eq\n      tag_9\n      jumpi\n      dup1\n      0x8da5cb5b\n      eq\n      tag_10\n      jumpi\n      dup1\n      0xf2fde38b\n      eq\n      tag_11\n      jumpi\n      jump(tag_1)\n    tag_12:\n      dup1\n      0x05ce2b47\n      eq\n      tag_2\n      jumpi\n      dup1\n      0x13faede6\n      eq\n      tag_3\n      jumpi\n      dup1\n      0x3cee4edd\n      eq\n      tag_4\n      jumpi\n      dup1\n      0x5001f3b5\n      eq\n      tag_5\n      jumpi\n      dup1\n      0x6a7ae27a\n      eq\n      tag_6\n      jumpi\n    tag_1:\n      0x00\n      dup1\n      revert\n        /* \"levelup/test.sol\":690:1367  function payDeploy(uint256 _level) public payable {... */\n    tag_2:\n      tag_13\n      0x04\n      dup1\n      calldatasize\n      sub\n      dup2\n      add\n      swap1\n      tag_14\n      swap2\n      swap1\n      tag_15\n      jump\t// in\n    tag_14:\n      tag_16\n      jump\t// in\n    tag_13:\n      stop\n        /* \"levelup/test.sol\":550:587  uint256 public cost = 200000000000000 */\n    tag_3:\n      callvalue\n      dup1\n      iszero\n      tag_17\n      jumpi\n      0x00\n      dup1\n      revert\n    tag_17:\n      pop\n      tag_18\n      tag_19\n      jump\t// in\n    tag_18:\n      mload(0x40)\n      tag_20\n      swap2\n      swap1\n      tag_21\n      jump\t// in\n    tag_20:\n      mload(0x40)\n      dup1\n      swap2\n      sub\n      swap1\n      return\n        /* \"levelup/test.sol\":1375:1722  function tryAgain(address _player, uint256 _level) public {... */\n    tag_4:\n      callvalue\n      dup1\n      iszero\n      tag_22\n      jumpi\n      0x00\n      dup1\n      revert\n    tag_22:\n      pop\n      tag_23\n      0x04\n      dup1\n      calldatasize\n      sub\n      dup2\n      add\n      swap1\n      tag_24\n      swap2\n      swap1\n      tag_25\n      jump\t// in\n    tag_24:\n      tag_26\n      jump\t// in\n    tag_23:\n      stop\n        /* \"levelup/test.sol\":602:618  Base public base */\n    tag_5:\n      callvalue\n      dup1\n      iszero\n      tag_27\n      jumpi\n      0x00\n      dup1\n      revert\n    tag_27:\n      pop\n      tag_28\n      tag_29\n      jump\t// in\n    tag_28:\n      mload(0x40)\n      tag_30\n      swap2\n      swap1\n      tag_31\n      jump\t// in\n    tag_30:\n      mload(0x40)\n      dup1\n      swap2\n      sub\n      swap1\n      return\n        /* \"levelup/test.sol\":1730:2034  function notify(... */\n    tag_6:\n      callvalue\n      dup1\n      iszero\n      tag_32\n      jumpi\n      0x00\n      dup1\n      revert\n    tag_32:\n      pop\n      tag_33\n      0x04\n      dup1\n      calldatasize\n      sub\n      dup2\n      add\n      swap1\n      tag_34\n      swap2\n      swap1\n      tag_35\n      jump\t// in\n    tag_34:\n      tag_36\n      jump\t// in\n    tag_33:\n      stop\n        /* \"levelup/test.sol\":2228:2543  function getContract(uint256 _level) public view returns (address) {... */\n    tag_7:\n      callvalue\n      dup1\n      iszero\n      tag_37\n      jumpi\n      0x00\n      dup1\n      revert\n    tag_37:\n      pop\n      tag_38\n      0x04\n      dup1\n      calldatasize\n      sub\n      dup2\n      add\n      swap1\n      tag_39\n      swap2\n      swap1\n      tag_15\n      jump\t// in\n    tag_39:\n      tag_40\n      jump\t// in\n    tag_38:\n      mload(0x40)\n      tag_41\n      swap2\n      swap1\n      tag_42\n      jump\t// in\n    tag_41:\n      mload(0x40)\n      dup1\n      swap2\n      sub\n      swap1\n      return\n        /* \"@openzeppelin/contracts/access/Ownable.sol\":1824:1925  function renounceOwnership() public virtual onlyOwner {... */\n    tag_8:\n      callvalue\n      dup1\n      iszero\n      tag_43\n      jumpi\n      0x00\n      dup1\n      revert\n    tag_43:\n      pop\n      tag_44\n      tag_45\n      jump\t// in\n    tag_44:\n      stop\n        /* \"levelup/test.sol\":2042:2220  function giveMeMoney() public onlyOwner {... */\n    tag_9:\n      callvalue\n      dup1\n      iszero\n      tag_46\n      jumpi\n      0x00\n      dup1\n      revert\n    tag_46:\n      pop\n      tag_47\n      tag_48\n      jump\t// in\n    tag_47:\n      stop\n        /* \"@openzeppelin/contracts/access/Ownable.sol\":1201:1286  function owner() public view virtual returns (address) {... */\n    tag_10:\n      callvalue\n      dup1\n      iszero\n      tag_49\n      jumpi\n      0x00\n      dup1\n      revert\n    tag_49:\n      pop\n      tag_50\n      tag_51\n      jump\t// in\n    tag_50:\n      mload(0x40)\n      tag_52\n      swap2\n      swap1\n      tag_42\n      jump\t// in\n    tag_52:\n      mload(0x40)\n      dup1\n      swap2\n      sub\n      swap1\n      return\n        /* \"@openzeppelin/contracts/access/Ownable.sol\":2074:2272  function transferOwnership(address newOwner) public virtual onlyOwner {... */\n    tag_11:\n      callvalue\n      dup1\n      iszero\n      tag_53\n      jumpi\n      0x00\n      dup1\n      revert\n    tag_53:\n      pop\n      tag_54\n      0x04\n      dup1\n      calldatasize\n      sub\n      dup2\n      add\n      swap1\n      tag_55\n      swap2\n      swap1\n      tag_56\n      jump\t// in\n    tag_55:\n      tag_57\n      jump\t// in\n    tag_54:\n      stop\n        /* \"levelup/test.sol\":690:1367  function payDeploy(uint256 _level) public payable {... */\n    tag_16:\n        /* \"levelup/test.sol\":759:763  base */\n      0x04\n      0x00\n      swap1\n      sload\n      swap1\n      0x0100\n      exp\n      swap1\n      div\n      0xffffffffffffffffffffffffffffffffffffffff\n      and\n        /* \"levelup/test.sol\":759:775  base.existPlayer */\n      0xffffffffffffffffffffffffffffffffffffffff\n      and\n      0x5a65cf95\n        /* \"levelup/test.sol\":776:786  msg.sender */\n      caller\n        /* \"levelup/test.sol\":759:787  base.existPlayer(msg.sender) */\n      mload(0x40)\n      dup3\n      0xffffffff\n      and\n      0xe0\n      shl\n      dup2\n      mstore\n      0x04\n      add\n      tag_59\n      swap2\n      swap1\n      tag_42\n      jump\t// in\n    tag_59:\n      0x20\n      mload(0x40)\n      dup1\n      dup4\n      sub\n      dup2\n      dup7\n      gas\n      staticcall\n      iszero\n      dup1\n      iszero\n      tag_61\n      jumpi\n      returndatasize\n      0x00\n      dup1\n      returndatacopy\n      revert(0x00, returndatasize)\n    tag_61:\n      pop\n      pop\n      pop\n      pop\n      mload(0x40)\n      returndatasize\n      not(0x1f)\n      0x1f\n      dup3\n      add\n      and\n      dup3\n      add\n      dup1\n      0x40\n      mstore\n      pop\n      dup2\n      add\n      swap1\n      tag_62\n      swap2\n      swap1\n      tag_63\n      jump\t// in\n    tag_62:\n        /* \"levelup/test.sol\":751:810  require(base.existPlayer(msg.sender), \"No eres un jugador\") */\n      tag_64\n      jumpi\n      mload(0x40)\n      0x08c379a000000000000000000000000000000000000000000000000000000000\n      dup2\n      mstore\n      0x04\n      add\n      tag_65\n      swap1\n      tag_66\n      jump\t// in\n    tag_65:\n      mload(0x40)\n      dup1\n      swap2\n      sub\n      swap1\n      revert\n    tag_64:\n        /* \"levelup/test.sol\":856:857  0 */\n      0x00\n        /* \"levelup/test.sol\":825:832  players */\n      0x01\n        /* \"levelup/test.sol\":825:844  players[msg.sender] */\n      0x00\n        /* \"levelup/test.sol\":833:843  msg.sender */\n      caller\n        /* \"levelup/test.sol\":825:844  players[msg.sender] */\n      0xffffffffffffffffffffffffffffffffffffffff\n      and\n      0xffffffffffffffffffffffffffffffffffffffff\n      and\n      dup2\n      mstore\n      0x20\n      add\n      swap1\n      dup2\n      mstore\n      0x20\n      add\n      0x00\n      keccak256\n        /* \"levelup/test.sol\":825:852  players[msg.sender][_level] */\n      0x00\n        /* \"levelup/test.sol\":845:851  _level */\n      dup4\n        /* \"levelup/test.sol\":825:852  players[msg.sender][_level] */\n      dup2\n      mstore\n      0x20\n      add\n      swap1\n      dup2\n      mstore\n      0x20\n      add\n      0x00\n      keccak256\n      sload\n        /* \"levelup/test.sol\":825:857  players[msg.sender][_level] == 0 */\n      sub\n        /* \"levelup/test.sol\":821:1360  if (players[msg.sender][_level] == 0) {... */\n      tag_67\n      jumpi\n        /* \"levelup/test.sol\":895:899  cost */\n      sload(0x03)\n        /* \"levelup/test.sol\":882:891  msg.value */\n      callvalue\n        /* \"levelup/test.sol\":882:899  msg.value >= cost */\n      lt\n      iszero\n        /* \"levelup/test.sol\":874:931  require(msg.value >= cost, \"No has pagado lo suficiente\") */\n      tag_68\n      jumpi\n      mload(0x40)\n      0x08c379a000000000000000000000000000000000000000000000000000000000\n      dup2\n      mstore\n      0x04\n      add\n      tag_69\n      swap1\n      tag_70\n      jump\t// in\n    tag_69:\n      mload(0x40)\n      dup1\n      swap2\n      sub\n      swap1\n      revert\n    tag_68:\n        /* \"levelup/test.sol\":976:985  msg.value */\n      callvalue\n        /* \"levelup/test.sol\":946:953  players */\n      0x01\n        /* \"levelup/test.sol\":946:965  players[msg.sender] */\n      0x00\n        /* \"levelup/test.sol\":954:964  msg.sender */\n      caller\n        /* \"levelup/test.sol\":946:965  players[msg.sender] */\n      0xffffffffffffffffffffffffffffffffffffffff\n      and\n      0xffffffffffffffffffffffffffffffffffffffff\n      and\n      dup2\n      mstore\n      0x20\n      add\n      swap1\n      dup2\n      mstore\n      0x20\n      add\n      0x00\n      keccak256\n        /* \"levelup/test.sol\":946:973  players[msg.sender][_level] */\n      0x00\n        /* \"levelup/test.sol\":966:972  _level */\n      dup4\n        /* \"levelup/test.sol\":946:973  players[msg.sender][_level] */\n      dup2\n      mstore\n      0x20\n      add\n      swap1\n      dup2\n      mstore\n      0x20\n      add\n      0x00\n      keccak256\n        /* \"levelup/test.sol\":946:985  players[msg.sender][_level] = msg.value */\n      dup2\n      swap1\n      sstore\n      pop\n        /* \"levelup/test.sol\":1005:1030  Payed(msg.sender, _level) */\n      0x7be9078cfa949e4b9e15888282e2a07a7fae4958503c18c81db93c5d41352497\n        /* \"levelup/test.sol\":1011:1021  msg.sender */\n      caller\n        /* \"levelup/test.sol\":1023:1029  _level */\n      dup3\n        /* \"levelup/test.sol\":1005:1030  Payed(msg.sender, _level) */\n      mload(0x40)\n      tag_71\n      swap3\n      swap2\n      swap1\n      tag_72\n      jump\t// in\n    tag_71:\n      mload(0x40)\n      dup1\n      swap2\n      sub\n      swap1\n      log1\n        /* \"levelup/test.sol\":821:1360  if (players[msg.sender][_level] == 0) {... */\n      jump(tag_73)\n    tag_67:\n        /* \"levelup/test.sol\":1093:1094  0 */\n      0x00\n        /* \"levelup/test.sol\":1052:1095  contracts[msg.sender][_level] == address(0) */\n      0xffffffffffffffffffffffffffffffffffffffff\n      and\n        /* \"levelup/test.sol\":1052:1061  contracts */\n      0x02\n        /* \"levelup/test.sol\":1052:1073  contracts[msg.sender] */\n      0x00\n        /* \"levelup/test.sol\":1062:1072  msg.sender */\n      caller\n        /* \"levelup/test.sol\":1052:1073  contracts[msg.sender] */\n      0xffffffffffffffffffffffffffffffffffffffff\n      and\n      0xffffffffffffffffffffffffffffffffffffffff\n      and\n      dup2\n      mstore\n      0x20\n      add\n      swap1\n      dup2\n      mstore\n      0x20\n      add\n      0x00\n      keccak256\n        /* \"levelup/test.sol\":1052:1081  contracts[msg.sender][_level] */\n      0x00\n        /* \"levelup/test.sol\":1074:1080  _level */\n      dup4\n        /* \"levelup/test.sol\":1052:1081  contracts[msg.sender][_level] */\n      dup2\n      mstore\n      0x20\n      add\n      swap1\n      dup2\n      mstore\n      0x20\n      add\n      0x00\n      keccak256\n      0x00\n      swap1\n      sload\n      swap1\n      0x0100\n      exp\n      swap1\n      div\n      0xffffffffffffffffffffffffffffffffffffffff\n      and\n        /* \"levelup/test.sol\":1052:1095  contracts[msg.sender][_level] == address(0) */\n      0xffffffffffffffffffffffffffffffffffffffff\n      and\n      sub\n        /* \"levelup/test.sol\":1048:1360  if (contracts[msg.sender][_level] == address(0)) {... */\n      tag_74\n      jumpi\n        /* \"levelup/test.sol\":1120:1130  msg.sender */\n      caller\n        /* \"levelup/test.sol\":1112:1140  payable(msg.sender).transfer */\n      0xffffffffffffffffffffffffffffffffffffffff\n      and\n        /* \"levelup/test.sol\":1112:1151  payable(msg.sender).transfer(msg.value) */\n      0x08fc\n        /* \"levelup/test.sol\":1141:1150  msg.value */\n      callvalue\n        /* \"levelup/test.sol\":1112:1151  payable(msg.sender).transfer(msg.value) */\n      swap1\n      dup2\n      iszero\n      mul\n      swap1\n      mload(0x40)\n      0x00\n      mload(0x40)\n      dup1\n      dup4\n      sub\n      dup2\n      dup6\n      dup9\n      dup9\n      call\n      swap4\n      pop\n      pop\n      pop\n      pop\n      iszero\n      dup1\n      iszero\n      tag_76\n      jumpi\n      returndatasize\n      0x00\n      dup1\n      returndatacopy\n      revert(0x00, returndatasize)\n    tag_76:\n      pop\n        /* \"levelup/test.sol\":1171:1196  Payed(msg.sender, _level) */\n      0x7be9078cfa949e4b9e15888282e2a07a7fae4958503c18c81db93c5d41352497\n        /* \"levelup/test.sol\":1177:1187  msg.sender */\n      caller\n        /* \"levelup/test.sol\":1189:1195  _level */\n      dup3\n        /* \"levelup/test.sol\":1171:1196  Payed(msg.sender, _level) */\n      mload(0x40)\n      tag_77\n      swap3\n      swap2\n      swap1\n      tag_72\n      jump\t// in\n    tag_77:\n      mload(0x40)\n      dup1\n      swap2\n      sub\n      swap1\n      log1\n        /* \"levelup/test.sol\":1048:1360  if (contracts[msg.sender][_level] == address(0)) {... */\n      jump(tag_78)\n    tag_74:\n        /* \"levelup/test.sol\":1236:1295  Deployed(msg.sender, _level, contracts[msg.sender][_level]) */\n      0x0f7cceb5b8900763db0b46908960abf22a5d055a4a7395b6b83862d93f241d21\n        /* \"levelup/test.sol\":1245:1255  msg.sender */\n      caller\n        /* \"levelup/test.sol\":1257:1263  _level */\n      dup3\n        /* \"levelup/test.sol\":1265:1274  contracts */\n      0x02\n        /* \"levelup/test.sol\":1265:1286  contracts[msg.sender] */\n      0x00\n        /* \"levelup/test.sol\":1275:1285  msg.sender */\n      caller\n        /* \"levelup/test.sol\":1265:1286  contracts[msg.sender] */\n      0xffffffffffffffffffffffffffffffffffffffff\n      and\n      0xffffffffffffffffffffffffffffffffffffffff\n      and\n      dup2\n      mstore\n      0x20\n      add\n      swap1\n      dup2\n      mstore\n      0x20\n      add\n      0x00\n      keccak256\n        /* \"levelup/test.sol\":1265:1294  contracts[msg.sender][_level] */\n      0x00\n        /* \"levelup/test.sol\":1287:1293  _level */\n      dup6\n        /* \"levelup/test.sol\":1265:1294  contracts[msg.sender][_level] */\n      dup2\n      mstore\n      0x20\n      add\n      swap1\n      dup2\n      mstore\n      0x20\n      add\n      0x00\n      keccak256\n      0x00\n      swap1\n      sload\n      swap1\n      0x0100\n      exp\n      swap1\n      div\n      0xffffffffffffffffffffffffffffffffffffffff\n      and\n        /* \"levelup/test.sol\":1236:1295  Deployed(msg.sender, _level, contracts[msg.sender][_level]) */\n      mload(0x40)\n      tag_79\n      swap4\n      swap3\n      swap2\n      swap1\n      tag_80\n      jump\t// in\n    tag_79:\n      mload(0x40)\n      dup1\n      swap2\n      sub\n      swap1\n      log1\n        /* \"levelup/test.sol\":1310:1348  revert(\"Ya has desplegado este nivel\") */\n      mload(0x40)\n      0x08c379a000000000000000000000000000000000000000000000000000000000\n      dup2\n      mstore\n      0x04\n      add\n      tag_81\n      swap1\n      tag_82\n      jump\t// in\n    tag_81:\n      mload(0x40)\n      dup1\n      swap2\n      sub\n      swap1\n      revert\n        /* \"levelup/test.sol\":1048:1360  if (contracts[msg.sender][_level] == address(0)) {... */\n    tag_78:\n        /* \"levelup/test.sol\":821:1360  if (players[msg.sender][_level] == 0) {... */\n    tag_73:\n        /* \"levelup/test.sol\":690:1367  function payDeploy(uint256 _level) public payable {... */\n      pop\n      jump\t// out\n        /* \"levelup/test.sol\":550:587  uint256 public cost = 200000000000000 */\n    tag_19:\n      sload(0x03)\n      dup2\n      jump\t// out\n        /* \"levelup/test.sol\":1375:1722  function tryAgain(address _player, uint256 _level) public {... */\n    tag_26:\n        /* \"levelup/test.sol\":1452:1456  base */\n      0x04\n      0x00\n      swap1\n      sload\n      swap1\n      0x0100\n      exp\n      swap1\n      div\n      0xffffffffffffffffffffffffffffffffffffffff\n      and\n        /* \"levelup/test.sol\":1452:1468  base.existPlayer */\n      0xffffffffffffffffffffffffffffffffffffffff\n      and\n      0x5a65cf95\n        /* \"levelup/test.sol\":1469:1476  _player */\n      dup4\n        /* \"levelup/test.sol\":1452:1477  base.existPlayer(_player) */\n      mload(0x40)\n      dup3\n      0xffffffff\n      and\n      0xe0\n      shl\n      dup2\n      mstore\n      0x04\n      add\n      tag_84\n      swap2\n      swap1\n      tag_42\n      jump\t// in\n    tag_84:\n      0x20\n      mload(0x40)\n      dup1\n      dup4\n      sub\n      dup2\n      dup7\n      gas\n      staticcall\n      iszero\n      dup1\n      iszero\n      tag_86\n      jumpi\n      returndatasize\n      0x00\n      dup1\n      returndatacopy\n      revert(0x00, returndatasize)\n    tag_86:\n      pop\n      pop\n      pop\n      pop\n      mload(0x40)\n      returndatasize\n      not(0x1f)\n      0x1f\n      dup3\n      add\n      and\n      dup3\n      add\n      dup1\n      0x40\n      mstore\n      pop\n      dup2\n      add\n      swap1\n      tag_87\n      swap2\n      swap1\n      tag_63\n      jump\t// in\n    tag_87:\n        /* \"levelup/test.sol\":1444:1500  require(base.existPlayer(_player), \"No eres un jugador\") */\n      tag_88\n      jumpi\n      mload(0x40)\n      0x08c379a000000000000000000000000000000000000000000000000000000000\n      dup2\n      mstore\n      0x04\n      add\n      tag_89\n      swap1\n      tag_66\n      jump\t// in\n    tag_89:\n      mload(0x40)\n      dup1\n      swap2\n      sub\n      swap1\n      revert\n    tag_88:\n        /* \"levelup/test.sol\":1547:1548  0 */\n      0x00\n        /* \"levelup/test.sol\":1519:1526  players */\n      0x01\n        /* \"levelup/test.sol\":1519:1535  players[_player] */\n      0x00\n        /* \"levelup/test.sol\":1527:1534  _player */\n      dup5\n        /* \"levelup/test.sol\":1519:1535  players[_player] */\n      0xffffffffffffffffffffffffffffffffffffffff\n      and\n      0xffffffffffffffffffffffffffffffffffffffff\n      and\n      dup2\n      mstore\n      0x20\n      add\n      swap1\n      dup2\n      mstore\n      0x20\n      add\n      0x00\n      keccak256\n        /* \"levelup/test.sol\":1519:1543  players[_player][_level] */\n      0x00\n        /* \"levelup/test.sol\":1536:1542  _level */\n      dup4\n        /* \"levelup/test.sol\":1519:1543  players[_player][_level] */\n      dup2\n      mstore\n      0x20\n      add\n      swap1\n      dup2\n      mstore\n      0x20\n      add\n      0x00\n      keccak256\n      sload\n        /* \"levelup/test.sol\":1519:1548  players[_player][_level] != 0 */\n      sub\n        /* \"levelup/test.sol\":1511:1590  require(players[_player][_level] != 0, \"No has pagado para desplegar el nivel\") */\n      tag_90\n      jumpi\n      mload(0x40)\n      0x08c379a000000000000000000000000000000000000000000000000000000000\n      dup2\n      mstore\n      0x04\n      add\n      tag_91\n      swap1\n      tag_92\n      jump\t// in\n    tag_91:\n      mload(0x40)\n      dup1\n      swap2\n      sub\n      swap1\n      revert\n    tag_90:\n        /* \"levelup/test.sol\":1647:1648  0 */\n      0x00\n        /* \"levelup/test.sol\":1609:1649  contracts[_player][_level] == address(0) */\n      0xffffffffffffffffffffffffffffffffffffffff\n      and\n        /* \"levelup/test.sol\":1609:1618  contracts */\n      0x02\n        /* \"levelup/test.sol\":1609:1627  contracts[_player] */\n      0x00\n        /* \"levelup/test.sol\":1619:1626  _player */\n      dup5\n        /* \"levelup/test.sol\":1609:1627  contracts[_player] */\n      0xffffffffffffffffffffffffffffffffffffffff\n      and\n      0xffffffffffffffffffffffffffffffffffffffff\n      and\n      dup2\n      mstore\n      0x20\n      add\n      swap1\n      dup2\n      mstore\n      0x20\n      add\n      0x00\n      keccak256\n        /* \"levelup/test.sol\":1609:1635  contracts[_player][_level] */\n      0x00\n        /* \"levelup/test.sol\":1628:1634  _level */\n      dup4\n        /* \"levelup/test.sol\":1609:1635  contracts[_player][_level] */\n      dup2\n      mstore\n      0x20\n      add\n      swap1\n      dup2\n      mstore\n      0x20\n      add\n      0x00\n      keccak256\n      0x00\n      swap1\n      sload\n      swap1\n      0x0100\n      exp\n      swap1\n      div\n      0xffffffffffffffffffffffffffffffffffffffff\n      and\n        /* \"levelup/test.sol\":1609:1649  contracts[_player][_level] == address(0) */\n      0xffffffffffffffffffffffffffffffffffffffff\n      and\n      eq\n        /* \"levelup/test.sol\":1601:1676  require(contracts[_player][_level] == address(0), \"Contrato ya desplegado\") */\n      tag_93\n      jumpi\n      mload(0x40)\n      0x08c379a000000000000000000000000000000000000000000000000000000000\n      dup2\n      mstore\n      0x04\n      add\n      tag_94\n      swap1\n      tag_95\n      jump\t// in\n    tag_94:\n      mload(0x40)\n      dup1\n      swap2\n      sub\n      swap1\n      revert\n    tag_93:\n        /* \"levelup/test.sol\":1692:1714  Payed(_player, _level) */\n      0x7be9078cfa949e4b9e15888282e2a07a7fae4958503c18c81db93c5d41352497\n        /* \"levelup/test.sol\":1698:1705  _player */\n      dup3\n        /* \"levelup/test.sol\":1707:1713  _level */\n      dup3\n        /* \"levelup/test.sol\":1692:1714  Payed(_player, _level) */\n      mload(0x40)\n      tag_96\n      swap3\n      swap2\n      swap1\n      tag_72\n      jump\t// in\n    tag_96:\n      mload(0x40)\n      dup1\n      swap2\n      sub\n      swap1\n      log1\n        /* \"levelup/test.sol\":1375:1722  function tryAgain(address _player, uint256 _level) public {... */\n      pop\n      pop\n      jump\t// out\n        /* \"levelup/test.sol\":602:618  Base public base */\n    tag_29:\n      0x04\n      0x00\n      swap1\n      sload\n      swap1\n      0x0100\n      exp\n      swap1\n      div\n      0xffffffffffffffffffffffffffffffffffffffff\n      and\n      dup2\n      jump\t// out\n        /* \"levelup/test.sol\":1730:2034  function notify(... */\n    tag_36:\n        /* \"@openzeppelin/contracts/access/Ownable.sol\":1094:1107  _checkOwner() */\n      tag_98\n        /* \"@openzeppelin/contracts/access/Ownable.sol\":1094:1105  _checkOwner */\n      tag_99\n        /* \"@openzeppelin/contracts/access/Ownable.sol\":1094:1107  _checkOwner() */\n      jump\t// in\n    tag_98:\n        /* \"levelup/test.sol\":1898:1899  0 */\n      0x00\n        /* \"levelup/test.sol\":1869:1876  players */\n      0x01\n        /* \"levelup/test.sol\":1869:1886  players[_address] */\n      0x00\n        /* \"levelup/test.sol\":1877:1885  _address */\n      dup6\n        /* \"levelup/test.sol\":1869:1886  players[_address] */\n      0xffffffffffffffffffffffffffffffffffffffff\n      and\n      0xffffffffffffffffffffffffffffffffffffffff\n      and\n      dup2\n      mstore\n      0x20\n      add\n      swap1\n      dup2\n      mstore\n      0x20\n      add\n      0x00\n      keccak256\n        /* \"levelup/test.sol\":1869:1894  players[_address][_level] */\n      0x00\n        /* \"levelup/test.sol\":1887:1893  _level */\n      dup5\n        /* \"levelup/test.sol\":1869:1894  players[_address][_level] */\n      dup2\n      mstore\n      0x20\n      add\n      swap1\n      dup2\n      mstore\n      0x20\n      add\n      0x00\n      keccak256\n      sload\n        /* \"levelup/test.sol\":1869:1899  players[_address][_level] != 0 */\n      sub\n        /* \"levelup/test.sol\":1861:1923  require(players[_address][_level] != 0, \"No se ha desplegado\") */\n      tag_101\n      jumpi\n      mload(0x40)\n      0x08c379a000000000000000000000000000000000000000000000000000000000\n      dup2\n      mstore\n      0x04\n      add\n      tag_102\n      swap1\n      tag_103\n      jump\t// in\n    tag_102:\n      mload(0x40)\n      dup1\n      swap2\n      sub\n      swap1\n      revert\n    tag_101:\n        /* \"levelup/test.sol\":1964:1973  _contract */\n      dup1\n        /* \"levelup/test.sol\":1934:1943  contracts */\n      0x02\n        /* \"levelup/test.sol\":1934:1953  contracts[_address] */\n      0x00\n        /* \"levelup/test.sol\":1944:1952  _address */\n      dup6\n        /* \"levelup/test.sol\":1934:1953  contracts[_address] */\n      0xffffffffffffffffffffffffffffffffffffffff\n      and\n      0xffffffffffffffffffffffffffffffffffffffff\n      and\n      dup2\n      mstore\n      0x20\n      add\n      swap1\n      dup2\n      mstore\n      0x20\n      add\n      0x00\n      keccak256\n        /* \"levelup/test.sol\":1934:1961  contracts[_address][_level] */\n      0x00\n        /* \"levelup/test.sol\":1954:1960  _level */\n      dup5\n        /* \"levelup/test.sol\":1934:1961  contracts[_address][_level] */\n      dup2\n      mstore\n      0x20\n      add\n      swap1\n      dup2\n      mstore\n      0x20\n      add\n      0x00\n      keccak256\n      0x00\n        /* \"levelup/test.sol\":1934:1973  contracts[_address][_level] = _contract */\n      0x0100\n      exp\n      dup2\n      sload\n      dup2\n      0xffffffffffffffffffffffffffffffffffffffff\n      mul\n      not\n      and\n      swap1\n      dup4\n      0xffffffffffffffffffffffffffffffffffffffff\n      and\n      mul\n      or\n      swap1\n      sstore\n      pop\n        /* \"levelup/test.sol\":1989:2026  Deployed(_address, _level, _contract) */\n      0x0f7cceb5b8900763db0b46908960abf22a5d055a4a7395b6b83862d93f241d21\n        /* \"levelup/test.sol\":1998:2006  _address */\n      dup4\n        /* \"levelup/test.sol\":2008:2014  _level */\n      dup4\n        /* \"levelup/test.sol\":2016:2025  _contract */\n      dup4\n        /* \"levelup/test.sol\":1989:2026  Deployed(_address, _level, _contract) */\n      mload(0x40)\n      tag_104\n      swap4\n      swap3\n      swap2\n      swap1\n      tag_80\n      jump\t// in\n    tag_104:\n      mload(0x40)\n      dup1\n      swap2\n      sub\n      swap1\n      log1\n        /* \"levelup/test.sol\":1730:2034  function notify(... */\n      pop\n      pop\n      pop\n      jump\t// out\n        /* \"levelup/test.sol\":2228:2543  function getContract(uint256 _level) public view returns (address) {... */\n    tag_40:\n        /* \"levelup/test.sol\":2286:2293  address */\n      0x00\n        /* \"levelup/test.sol\":2314:2318  base */\n      0x04\n      0x00\n      swap1\n      sload\n      swap1\n      0x0100\n      exp\n      swap1\n      div\n      0xffffffffffffffffffffffffffffffffffffffff\n      and\n        /* \"levelup/test.sol\":2314:2330  base.existPlayer */\n      0xffffffffffffffffffffffffffffffffffffffff\n      and\n      0x5a65cf95\n        /* \"levelup/test.sol\":2331:2341  msg.sender */\n      caller\n        /* \"levelup/test.sol\":2314:2342  base.existPlayer(msg.sender) */\n      mload(0x40)\n      dup3\n      0xffffffff\n      and\n      0xe0\n      shl\n      dup2\n      mstore\n      0x04\n      add\n      tag_106\n      swap2\n      swap1\n      tag_42\n      jump\t// in\n    tag_106:\n      0x20\n      mload(0x40)\n      dup1\n      dup4\n      sub\n      dup2\n      dup7\n      gas\n      staticcall\n      iszero\n      dup1\n      iszero\n      tag_108\n      jumpi\n      returndatasize\n      0x00\n      dup1\n      returndatacopy\n      revert(0x00, returndatasize)\n    tag_108:\n      pop\n      pop\n      pop\n      pop\n      mload(0x40)\n      returndatasize\n      not(0x1f)\n      0x1f\n      dup3\n      add\n      and\n      dup3\n      add\n      dup1\n      0x40\n      mstore\n      pop\n      dup2\n      add\n      swap1\n      tag_109\n      swap2\n      swap1\n      tag_63\n      jump\t// in\n    tag_109:\n        /* \"levelup/test.sol\":2306:2365  require(base.existPlayer(msg.sender), \"No eres un jugador\") */\n      tag_110\n      jumpi\n      mload(0x40)\n      0x08c379a000000000000000000000000000000000000000000000000000000000\n      dup2\n      mstore\n      0x04\n      add\n      tag_111\n      swap1\n      tag_66\n      jump\t// in\n    tag_111:\n      mload(0x40)\n      dup1\n      swap2\n      sub\n      swap1\n      revert\n    tag_110:\n        /* \"levelup/test.sol\":2439:2440  0 */\n      0x00\n        /* \"levelup/test.sol\":2398:2441  contracts[msg.sender][_level] != address(0) */\n      0xffffffffffffffffffffffffffffffffffffffff\n      and\n        /* \"levelup/test.sol\":2398:2407  contracts */\n      0x02\n        /* \"levelup/test.sol\":2398:2419  contracts[msg.sender] */\n      0x00\n        /* \"levelup/test.sol\":2408:2418  msg.sender */\n      caller\n        /* \"levelup/test.sol\":2398:2419  contracts[msg.sender] */\n      0xffffffffffffffffffffffffffffffffffffffff\n      and\n      0xffffffffffffffffffffffffffffffffffffffff\n      and\n      dup2\n      mstore\n      0x20\n      add\n      swap1\n      dup2\n      mstore\n      0x20\n      add\n      0x00\n      keccak256\n        /* \"levelup/test.sol\":2398:2427  contracts[msg.sender][_level] */\n      0x00\n        /* \"levelup/test.sol\":2420:2426  _level */\n      dup5\n        /* \"levelup/test.sol\":2398:2427  contracts[msg.sender][_level] */\n      dup2\n      mstore\n      0x20\n      add\n      swap1\n      dup2\n      mstore\n      0x20\n      add\n      0x00\n      keccak256\n      0x00\n      swap1\n      sload\n      swap1\n      0x0100\n      exp\n      swap1\n      div\n      0xffffffffffffffffffffffffffffffffffffffff\n      and\n        /* \"levelup/test.sol\":2398:2441  contracts[msg.sender][_level] != address(0) */\n      0xffffffffffffffffffffffffffffffffffffffff\n      and\n      sub\n        /* \"levelup/test.sol\":2376:2488  require(... */\n      tag_112\n      jumpi\n      mload(0x40)\n      0x08c379a000000000000000000000000000000000000000000000000000000000\n      dup2\n      mstore\n      0x04\n      add\n      tag_113\n      swap1\n      tag_103\n      jump\t// in\n    tag_113:\n      mload(0x40)\n      dup1\n      swap2\n      sub\n      swap1\n      revert\n    tag_112:\n        /* \"levelup/test.sol\":2506:2515  contracts */\n      0x02\n        /* \"levelup/test.sol\":2506:2527  contracts[msg.sender] */\n      0x00\n        /* \"levelup/test.sol\":2516:2526  msg.sender */\n      caller\n        /* \"levelup/test.sol\":2506:2527  contracts[msg.sender] */\n      0xffffffffffffffffffffffffffffffffffffffff\n      and\n      0xffffffffffffffffffffffffffffffffffffffff\n      and\n      dup2\n      mstore\n      0x20\n      add\n      swap1\n      dup2\n      mstore\n      0x20\n      add\n      0x00\n      keccak256\n        /* \"levelup/test.sol\":2506:2535  contracts[msg.sender][_level] */\n      0x00\n        /* \"levelup/test.sol\":2528:2534  _level */\n      dup4\n        /* \"levelup/test.sol\":2506:2535  contracts[msg.sender][_level] */\n      dup2\n      mstore\n      0x20\n      add\n      swap1\n      dup2\n      mstore\n      0x20\n      add\n      0x00\n      keccak256\n      0x00\n      swap1\n      sload\n      swap1\n      0x0100\n      exp\n      swap1\n      div\n      0xffffffffffffffffffffffffffffffffffffffff\n      and\n        /* \"levelup/test.sol\":2499:2535  return contracts[msg.sender][_level] */\n      swap1\n      pop\n        /* \"levelup/test.sol\":2228:2543  function getContract(uint256 _level) public view returns (address) {... */\n      swap2\n      swap1\n      pop\n      jump\t// out\n        /* \"@openzeppelin/contracts/access/Ownable.sol\":1824:1925  function renounceOwnership() public virtual onlyOwner {... */\n    tag_45:\n        /* \"@openzeppelin/contracts/access/Ownable.sol\":1094:1107  _checkOwner() */\n      tag_115\n        /* \"@openzeppelin/contracts/access/Ownable.sol\":1094:1105  _checkOwner */\n      tag_99\n        /* \"@openzeppelin/contracts/access/Ownable.sol\":1094:1107  _checkOwner() */\n      jump\t// in\n    tag_115:\n        /* \"@openzeppelin/contracts/access/Ownable.sol\":1888:1918  _transferOwnership(address(0)) */\n      tag_117\n        /* \"@openzeppelin/contracts/access/Ownable.sol\":1915:1916  0 */\n      0x00\n        /* \"@openzeppelin/contracts/access/Ownable.sol\":1888:1906  _transferOwnership */\n      tag_118\n        /* \"@openzeppelin/contracts/access/Ownable.sol\":1888:1918  _transferOwnership(address(0)) */\n      jump\t// in\n    tag_117:\n        /* \"@openzeppelin/contracts/access/Ownable.sol\":1824:1925  function renounceOwnership() public virtual onlyOwner {... */\n      jump\t// out\n        /* \"levelup/test.sol\":2042:2220  function giveMeMoney() public onlyOwner {... */\n    tag_48:\n        /* \"@openzeppelin/contracts/access/Ownable.sol\":1094:1107  _checkOwner() */\n      tag_120\n        /* \"@openzeppelin/contracts/access/Ownable.sol\":1094:1105  _checkOwner */\n      tag_99\n        /* \"@openzeppelin/contracts/access/Ownable.sol\":1094:1107  _checkOwner() */\n      jump\t// in\n    tag_120:\n        /* \"levelup/test.sol\":2094:2103  bool sent */\n      0x00\n        /* \"levelup/test.sol\":2109:2113  this */\n      address\n        /* \"levelup/test.sol\":2109:2119  this.owner */\n      0xffffffffffffffffffffffffffffffffffffffff\n      and\n      0x8da5cb5b\n        /* \"levelup/test.sol\":2109:2121  this.owner() */\n      mload(0x40)\n      dup2\n      0xffffffff\n      and\n      0xe0\n      shl\n      dup2\n      mstore\n      0x04\n      add\n      0x20\n      mload(0x40)\n      dup1\n      dup4\n      sub\n      dup2\n      dup7\n      gas\n      staticcall\n      iszero\n      dup1\n      iszero\n      tag_123\n      jumpi\n      returndatasize\n      0x00\n      dup1\n      returndatacopy\n      revert(0x00, returndatasize)\n    tag_123:\n      pop\n      pop\n      pop\n      pop\n      mload(0x40)\n      returndatasize\n      not(0x1f)\n      0x1f\n      dup3\n      add\n      and\n      dup3\n      add\n      dup1\n      0x40\n      mstore\n      pop\n      dup2\n      add\n      swap1\n      tag_124\n      swap2\n      swap1\n      tag_125\n      jump\t// in\n    tag_124:\n        /* \"levelup/test.sol\":2109:2126  this.owner().call */\n      0xffffffffffffffffffffffffffffffffffffffff\n      and\n        /* \"levelup/test.sol\":2134:2155  address(this).balance */\n      selfbalance\n        /* \"levelup/test.sol\":2109:2160  this.owner().call{value: address(this).balance}(\"\") */\n      mload(0x40)\n      tag_126\n      swap1\n      tag_127\n      jump\t// in\n    tag_126:\n      0x00\n      mload(0x40)\n      dup1\n      dup4\n      sub\n      dup2\n      dup6\n      dup8\n      gas\n      call\n      swap3\n      pop\n      pop\n      pop\n      returndatasize\n      dup1\n      0x00\n      dup2\n      eq\n      tag_130\n      jumpi\n      mload(0x40)\n      swap2\n      pop\n      and(add(returndatasize, 0x3f), not(0x1f))\n      dup3\n      add\n      0x40\n      mstore\n      returndatasize\n      dup3\n      mstore\n      returndatasize\n      0x00\n      0x20\n      dup5\n      add\n      returndatacopy\n      jump(tag_129)\n    tag_130:\n      0x60\n      swap2\n      pop\n    tag_129:\n      pop\n        /* \"levelup/test.sol\":2093:2160  (bool sent, ) = this.owner().call{value: address(this).balance}(\"\") */\n      pop\n      swap1\n      pop\n        /* \"levelup/test.sol\":2179:2183  sent */\n      dup1\n        /* \"levelup/test.sol\":2171:2212  require(sent, \"Fallo al enviar cantidad\") */\n      tag_131\n      jumpi\n      mload(0x40)\n      0x08c379a000000000000000000000000000000000000000000000000000000000\n      dup2\n      mstore\n      0x04\n      add\n      tag_132\n      swap1\n      tag_133\n      jump\t// in\n    tag_132:\n      mload(0x40)\n      dup1\n      swap2\n      sub\n      swap1\n      revert\n    tag_131:\n        /* \"levelup/test.sol\":2082:2220  {... */\n      pop\n        /* \"levelup/test.sol\":2042:2220  function giveMeMoney() public onlyOwner {... */\n      jump\t// out\n        /* \"@openzeppelin/contracts/access/Ownable.sol\":1201:1286  function owner() public view virtual returns (address) {... */\n    tag_51:\n        /* \"@openzeppelin/contracts/access/Ownable.sol\":1247:1254  address */\n      0x00\n        /* \"@openzeppelin/contracts/access/Ownable.sol\":1273:1279  _owner */\n      dup1\n      0x00\n      swap1\n      sload\n      swap1\n      0x0100\n      exp\n      swap1\n      div\n      0xffffffffffffffffffffffffffffffffffffffff\n      and\n        /* \"@openzeppelin/contracts/access/Ownable.sol\":1266:1279  return _owner */\n      swap1\n      pop\n        /* \"@openzeppelin/contracts/access/Ownable.sol\":1201:1286  function owner() public view virtual returns (address) {... */\n      swap1\n      jump\t// out\n        /* \"@openzeppelin/contracts/access/Ownable.sol\":2074:2272  function transferOwnership(address newOwner) public virtual onlyOwner {... */\n    tag_57:\n        /* \"@openzeppelin/contracts/access/Ownable.sol\":1094:1107  _checkOwner() */\n      tag_136\n        /* \"@openzeppelin/contracts/access/Ownable.sol\":1094:1105  _checkOwner */\n      tag_99\n        /* \"@openzeppelin/contracts/access/Ownable.sol\":1094:1107  _checkOwner() */\n      jump\t// in\n    tag_136:\n        /* \"@openzeppelin/contracts/access/Ownable.sol\":2182:2183  0 */\n      0x00\n        /* \"@openzeppelin/contracts/access/Ownable.sol\":2162:2184  newOwner != address(0) */\n      0xffffffffffffffffffffffffffffffffffffffff\n      and\n        /* \"@openzeppelin/contracts/access/Ownable.sol\":2162:2170  newOwner */\n      dup2\n        /* \"@openzeppelin/contracts/access/Ownable.sol\":2162:2184  newOwner != address(0) */\n      0xffffffffffffffffffffffffffffffffffffffff\n      and\n      sub\n        /* \"@openzeppelin/contracts/access/Ownable.sol\":2154:2227  require(newOwner != address(0), \"Ownable: new owner is the zero address\") */\n      tag_138\n      jumpi\n      mload(0x40)\n      0x08c379a000000000000000000000000000000000000000000000000000000000\n      dup2\n      mstore\n      0x04\n      add\n      tag_139\n      swap1\n      tag_140\n      jump\t// in\n    tag_139:\n      mload(0x40)\n      dup1\n      swap2\n      sub\n      swap1\n      revert\n    tag_138:\n        /* \"@openzeppelin/contracts/access/Ownable.sol\":2237:2265  _transferOwnership(newOwner) */\n      tag_141\n        /* \"@openzeppelin/contracts/access/Ownable.sol\":2256:2264  newOwner */\n      dup2\n        /* \"@openzeppelin/contracts/access/Ownable.sol\":2237:2255  _transferOwnership */\n      tag_118\n        /* \"@openzeppelin/contracts/access/Ownable.sol\":2237:2265  _transferOwnership(newOwner) */\n      jump\t// in\n    tag_141:\n        /* \"@openzeppelin/contracts/access/Ownable.sol\":2074:2272  function transferOwnership(address newOwner) public virtual onlyOwner {... */\n      pop\n      jump\t// out\n        /* \"@openzeppelin/contracts/access/Ownable.sol\":1359:1489  function _checkOwner() internal view virtual {... */\n    tag_99:\n        /* \"@openzeppelin/contracts/access/Ownable.sol\":1433:1445  _msgSender() */\n      tag_143\n        /* \"@openzeppelin/contracts/access/Ownable.sol\":1433:1443  _msgSender */\n      tag_144\n        /* \"@openzeppelin/contracts/access/Ownable.sol\":1433:1445  _msgSender() */\n      jump\t// in\n    tag_143:\n        /* \"@openzeppelin/contracts/access/Ownable.sol\":1422:1445  owner() == _msgSender() */\n      0xffffffffffffffffffffffffffffffffffffffff\n      and\n        /* \"@openzeppelin/contracts/access/Ownable.sol\":1422:1429  owner() */\n      tag_145\n        /* \"@openzeppelin/contracts/access/Ownable.sol\":1422:1427  owner */\n      tag_51\n        /* \"@openzeppelin/contracts/access/Ownable.sol\":1422:1429  owner() */\n      jump\t// in\n    tag_145:\n        /* \"@openzeppelin/contracts/access/Ownable.sol\":1422:1445  owner() == _msgSender() */\n      0xffffffffffffffffffffffffffffffffffffffff\n      and\n      eq\n        /* \"@openzeppelin/contracts/access/Ownable.sol\":1414:1482  require(owner() == _msgSender(), \"Ownable: caller is not the owner\") */\n      tag_146\n      jumpi\n      mload(0x40)\n      0x08c379a000000000000000000000000000000000000000000000000000000000\n      dup2\n      mstore\n      0x04\n      add\n      tag_147\n      swap1\n      tag_148\n      jump\t// in\n    tag_147:\n      mload(0x40)\n      dup1\n      swap2\n      sub\n      swap1\n      revert\n    tag_146:\n        /* \"@openzeppelin/contracts/access/Ownable.sol\":1359:1489  function _checkOwner() internal view virtual {... */\n      jump\t// out\n        /* \"@openzeppelin/contracts/access/Ownable.sol\":2426:2613  function _transferOwnership(address newOwner) internal virtual {... */\n    tag_118:\n        /* \"@openzeppelin/contracts/access/Ownable.sol\":2499:2515  address oldOwner */\n      0x00\n        /* \"@openzeppelin/contracts/access/Ownable.sol\":2518:2524  _owner */\n      dup1\n      0x00\n      swap1\n      sload\n      swap1\n      0x0100\n      exp\n      swap1\n      div\n      0xffffffffffffffffffffffffffffffffffffffff\n      and\n        /* \"@openzeppelin/contracts/access/Ownable.sol\":2499:2524  address oldOwner = _owner */\n      swap1\n      pop\n        /* \"@openzeppelin/contracts/access/Ownable.sol\":2543:2551  newOwner */\n      dup2\n        /* \"@openzeppelin/contracts/access/Ownable.sol\":2534:2540  _owner */\n      0x00\n      dup1\n        /* \"@openzeppelin/contracts/access/Ownable.sol\":2534:2551  _owner = newOwner */\n      0x0100\n      exp\n      dup2\n      sload\n      dup2\n      0xffffffffffffffffffffffffffffffffffffffff\n      mul\n      not\n      and\n      swap1\n      dup4\n      0xffffffffffffffffffffffffffffffffffffffff\n      and\n      mul\n      or\n      swap1\n      sstore\n      pop\n        /* \"@openzeppelin/contracts/access/Ownable.sol\":2597:2605  newOwner */\n      dup2\n        /* \"@openzeppelin/contracts/access/Ownable.sol\":2566:2606  OwnershipTransferred(oldOwner, newOwner) */\n      0xffffffffffffffffffffffffffffffffffffffff\n      and\n        /* \"@openzeppelin/contracts/access/Ownable.sol\":2587:2595  oldOwner */\n      dup2\n        /* \"@openzeppelin/contracts/access/Ownable.sol\":2566:2606  OwnershipTransferred(oldOwner, newOwner) */\n      0xffffffffffffffffffffffffffffffffffffffff\n      and\n      0x8be0079c531659141344cd1fd0a4f28419497f9722a3daafe3b4186f6b6457e0\n      mload(0x40)\n      mload(0x40)\n      dup1\n      swap2\n      sub\n      swap1\n      log3\n        /* \"@openzeppelin/contracts/access/Ownable.sol\":2489:2613  {... */\n      pop\n        /* \"@openzeppelin/contracts/access/Ownable.sol\":2426:2613  function _transferOwnership(address newOwner) internal virtual {... */\n      pop\n      jump\t// out\n        /* \"@openzeppelin/contracts/utils/Context.sol\":640:736  function _msgSender() internal view virtual returns (address) {... */\n    tag_144:\n        /* \"@openzeppelin/contracts/utils/Context.sol\":693:700  address */\n      0x00\n        /* \"@openzeppelin/contracts/utils/Context.sol\":719:729  msg.sender */\n      caller\n        /* \"@openzeppelin/contracts/utils/Context.sol\":712:729  return msg.sender */\n      swap1\n      pop\n        /* \"@openzeppelin/contracts/utils/Context.sol\":640:736  function _msgSender() internal view virtual returns (address) {... */\n      swap1\n      jump\t// out\n        /* \"#utility.yul\":88:205   */\n    tag_152:\n        /* \"#utility.yul\":197:198   */\n      0x00\n        /* \"#utility.yul\":194:195   */\n      dup1\n        /* \"#utility.yul\":187:199   */\n      revert\n        /* \"#utility.yul\":334:411   */\n    tag_154:\n        /* \"#utility.yul\":371:378   */\n      0x00\n        /* \"#utility.yul\":400:405   */\n      dup2\n        /* \"#utility.yul\":389:405   */\n      swap1\n      pop\n        /* \"#utility.yul\":334:411   */\n      swap2\n      swap1\n      pop\n      jump\t// out\n        /* \"#utility.yul\":417:539   */\n    tag_155:\n        /* \"#utility.yul\":490:514   */\n      tag_200\n        /* \"#utility.yul\":508:513   */\n      dup2\n        /* \"#utility.yul\":490:514   */\n      tag_154\n      jump\t// in\n    tag_200:\n        /* \"#utility.yul\":483:488   */\n      dup2\n        /* \"#utility.yul\":480:515   */\n      eq\n        /* \"#utility.yul\":470:533   */\n      tag_201\n      jumpi\n        /* \"#utility.yul\":529:530   */\n      0x00\n        /* \"#utility.yul\":526:527   */\n      dup1\n        /* \"#utility.yul\":519:531   */\n      revert\n        /* \"#utility.yul\":470:533   */\n    tag_201:\n        /* \"#utility.yul\":417:539   */\n      pop\n      jump\t// out\n        /* \"#utility.yul\":545:684   */\n    tag_156:\n        /* \"#utility.yul\":591:596   */\n      0x00\n        /* \"#utility.yul\":629:635   */\n      dup2\n        /* \"#utility.yul\":616:636   */\n      calldataload\n        /* \"#utility.yul\":607:636   */\n      swap1\n      pop\n        /* \"#utility.yul\":645:678   */\n      tag_203\n        /* \"#utility.yul\":672:677   */\n      dup2\n        /* \"#utility.yul\":645:678   */\n      tag_155\n      jump\t// in\n    tag_203:\n        /* \"#utility.yul\":545:684   */\n      swap3\n      swap2\n      pop\n      pop\n      jump\t// out\n        /* \"#utility.yul\":690:1019   */\n    tag_15:\n        /* \"#utility.yul\":749:755   */\n      0x00\n        /* \"#utility.yul\":798:800   */\n      0x20\n        /* \"#utility.yul\":786:795   */\n      dup3\n        /* \"#utility.yul\":777:784   */\n      dup5\n        /* \"#utility.yul\":773:796   */\n      sub\n        /* \"#utility.yul\":769:801   */\n      slt\n        /* \"#utility.yul\":766:885   */\n      iszero\n      tag_205\n      jumpi\n        /* \"#utility.yul\":804:883   */\n      tag_206\n      tag_152\n      jump\t// in\n    tag_206:\n        /* \"#utility.yul\":766:885   */\n    tag_205:\n        /* \"#utility.yul\":924:925   */\n      0x00\n        /* \"#utility.yul\":949:1002   */\n      tag_207\n        /* \"#utility.yul\":994:1001   */\n      dup5\n        /* \"#utility.yul\":985:991   */\n      dup3\n        /* \"#utility.yul\":974:983   */\n      dup6\n        /* \"#utility.yul\":970:992   */\n      add\n        /* \"#utility.yul\":949:1002   */\n      tag_156\n      jump\t// in\n    tag_207:\n        /* \"#utility.yul\":939:1002   */\n      swap2\n      pop\n        /* \"#utility.yul\":895:1012   */\n      pop\n        /* \"#utility.yul\":690:1019   */\n      swap3\n      swap2\n      pop\n      pop\n      jump\t// out\n        /* \"#utility.yul\":1025:1143   */\n    tag_157:\n        /* \"#utility.yul\":1112:1136   */\n      tag_209\n        /* \"#utility.yul\":1130:1135   */\n      dup2\n        /* \"#utility.yul\":1112:1136   */\n      tag_154\n      jump\t// in\n    tag_209:\n        /* \"#utility.yul\":1107:1110   */\n      dup3\n        /* \"#utility.yul\":1100:1137   */\n      mstore\n        /* \"#utility.yul\":1025:1143   */\n      pop\n      pop\n      jump\t// out\n        /* \"#utility.yul\":1149:1371   */\n    tag_21:\n        /* \"#utility.yul\":1242:1246   */\n      0x00\n        /* \"#utility.yul\":1280:1282   */\n      0x20\n        /* \"#utility.yul\":1269:1278   */\n      dup3\n        /* \"#utility.yul\":1265:1283   */\n      add\n        /* \"#utility.yul\":1257:1283   */\n      swap1\n      pop\n        /* \"#utility.yul\":1293:1364   */\n      tag_211\n        /* \"#utility.yul\":1361:1362   */\n      0x00\n        /* \"#utility.yul\":1350:1359   */\n      dup4\n        /* \"#utility.yul\":1346:1363   */\n      add\n        /* \"#utility.yul\":1337:1343   */\n      dup5\n        /* \"#utility.yul\":1293:1364   */\n      tag_157\n      jump\t// in\n    tag_211:\n        /* \"#utility.yul\":1149:1371   */\n      swap3\n      swap2\n      pop\n      pop\n      jump\t// out\n        /* \"#utility.yul\":1377:1503   */\n    tag_158:\n        /* \"#utility.yul\":1414:1421   */\n      0x00\n        /* \"#utility.yul\":1454:1496   */\n      0xffffffffffffffffffffffffffffffffffffffff\n        /* \"#utility.yul\":1447:1452   */\n      dup3\n        /* \"#utility.yul\":1443:1497   */\n      and\n        /* \"#utility.yul\":1432:1497   */\n      swap1\n      pop\n        /* \"#utility.yul\":1377:1503   */\n      swap2\n      swap1\n      pop\n      jump\t// out\n        /* \"#utility.yul\":1509:1605   */\n    tag_159:\n        /* \"#utility.yul\":1546:1553   */\n      0x00\n        /* \"#utility.yul\":1575:1599   */\n      tag_214\n        /* \"#utility.yul\":1593:1598   */\n      dup3\n        /* \"#utility.yul\":1575:1599   */\n      tag_158\n      jump\t// in\n    tag_214:\n        /* \"#utility.yul\":1564:1599   */\n      swap1\n      pop\n        /* \"#utility.yul\":1509:1605   */\n      swap2\n      swap1\n      pop\n      jump\t// out\n        /* \"#utility.yul\":1611:1733   */\n    tag_160:\n        /* \"#utility.yul\":1684:1708   */\n      tag_216\n        /* \"#utility.yul\":1702:1707   */\n      dup2\n        /* \"#utility.yul\":1684:1708   */\n      tag_159\n      jump\t// in\n    tag_216:\n        /* \"#utility.yul\":1677:1682   */\n      dup2\n        /* \"#utility.yul\":1674:1709   */\n      eq\n        /* \"#utility.yul\":1664:1727   */\n      tag_217\n      jumpi\n        /* \"#utility.yul\":1723:1724   */\n      0x00\n        /* \"#utility.yul\":1720:1721   */\n      dup1\n        /* \"#utility.yul\":1713:1725   */\n      revert\n        /* \"#utility.yul\":1664:1727   */\n    tag_217:\n        /* \"#utility.yul\":1611:1733   */\n      pop\n      jump\t// out\n        /* \"#utility.yul\":1739:1878   */\n    tag_161:\n        /* \"#utility.yul\":1785:1790   */\n      0x00\n        /* \"#utility.yul\":1823:1829   */\n      dup2\n        /* \"#utility.yul\":1810:1830   */\n      calldataload\n        /* \"#utility.yul\":1801:1830   */\n      swap1\n      pop\n        /* \"#utility.yul\":1839:1872   */\n      tag_219\n        /* \"#utility.yul\":1866:1871   */\n      dup2\n        /* \"#utility.yul\":1839:1872   */\n      tag_160\n      jump\t// in\n    tag_219:\n        /* \"#utility.yul\":1739:1878   */\n      swap3\n      swap2\n      pop\n      pop\n      jump\t// out\n        /* \"#utility.yul\":1884:2358   */\n    tag_25:\n        /* \"#utility.yul\":1952:1958   */\n      0x00\n        /* \"#utility.yul\":1960:1966   */\n      dup1\n        /* \"#utility.yul\":2009:2011   */\n      0x40\n        /* \"#utility.yul\":1997:2006   */\n      dup4\n        /* \"#utility.yul\":1988:1995   */\n      dup6\n        /* \"#utility.yul\":1984:2007   */\n      sub\n        /* \"#utility.yul\":1980:2012   */\n      slt\n        /* \"#utility.yul\":1977:2096   */\n      iszero\n      tag_221\n      jumpi\n        /* \"#utility.yul\":2015:2094   */\n      tag_222\n      tag_152\n      jump\t// in\n    tag_222:\n        /* \"#utility.yul\":1977:2096   */\n    tag_221:\n        /* \"#utility.yul\":2135:2136   */\n      0x00\n        /* \"#utility.yul\":2160:2213   */\n      tag_223\n        /* \"#utility.yul\":2205:2212   */\n      dup6\n        /* \"#utility.yul\":2196:2202   */\n      dup3\n        /* \"#utility.yul\":2185:2194   */\n      dup7\n        /* \"#utility.yul\":2181:2203   */\n      add\n        /* \"#utility.yul\":2160:2213   */\n      tag_161\n      jump\t// in\n    tag_223:\n        /* \"#utility.yul\":2150:2213   */\n      swap3\n      pop\n        /* \"#utility.yul\":2106:2223   */\n      pop\n        /* \"#utility.yul\":2262:2264   */\n      0x20\n        /* \"#utility.yul\":2288:2341   */\n      tag_224\n        /* \"#utility.yul\":2333:2340   */\n      dup6\n        /* \"#utility.yul\":2324:2330   */\n      dup3\n        /* \"#utility.yul\":2313:2322   */\n      dup7\n        /* \"#utility.yul\":2309:2331   */\n      add\n        /* \"#utility.yul\":2288:2341   */\n      tag_156\n      jump\t// in\n    tag_224:\n        /* \"#utility.yul\":2278:2341   */\n      swap2\n      pop\n        /* \"#utility.yul\":2233:2351   */\n      pop\n        /* \"#utility.yul\":1884:2358   */\n      swap3\n      pop\n      swap3\n      swap1\n      pop\n      jump\t// out\n        /* \"#utility.yul\":2364:2424   */\n    tag_162:\n        /* \"#utility.yul\":2392:2395   */\n      0x00\n        /* \"#utility.yul\":2413:2418   */\n      dup2\n        /* \"#utility.yul\":2406:2418   */\n      swap1\n      pop\n        /* \"#utility.yul\":2364:2424   */\n      swap2\n      swap1\n      pop\n      jump\t// out\n        /* \"#utility.yul\":2430:2572   */\n    tag_163:\n        /* \"#utility.yul\":2480:2489   */\n      0x00\n        /* \"#utility.yul\":2513:2566   */\n      tag_227\n        /* \"#utility.yul\":2531:2565   */\n      tag_228\n        /* \"#utility.yul\":2540:2564   */\n      tag_229\n        /* \"#utility.yul\":2558:2563   */\n      dup5\n        /* \"#utility.yul\":2540:2564   */\n      tag_158\n      jump\t// in\n    tag_229:\n        /* \"#utility.yul\":2531:2565   */\n      tag_162\n      jump\t// in\n    tag_228:\n        /* \"#utility.yul\":2513:2566   */\n      tag_158\n      jump\t// in\n    tag_227:\n        /* \"#utility.yul\":2500:2566   */\n      swap1\n      pop\n        /* \"#utility.yul\":2430:2572   */\n      swap2\n      swap1\n      pop\n      jump\t// out\n        /* \"#utility.yul\":2578:2704   */\n    tag_164:\n        /* \"#utility.yul\":2628:2637   */\n      0x00\n        /* \"#utility.yul\":2661:2698   */\n      tag_231\n        /* \"#utility.yul\":2692:2697   */\n      dup3\n        /* \"#utility.yul\":2661:2698   */\n      tag_163\n      jump\t// in\n    tag_231:\n        /* \"#utility.yul\":2648:2698   */\n      swap1\n      pop\n        /* \"#utility.yul\":2578:2704   */\n      swap2\n      swap1\n      pop\n      jump\t// out\n        /* \"#utility.yul\":2710:2848   */\n    tag_165:\n        /* \"#utility.yul\":2772:2781   */\n      0x00\n        /* \"#utility.yul\":2805:2842   */\n      tag_233\n        /* \"#utility.yul\":2836:2841   */\n      dup3\n        /* \"#utility.yul\":2805:2842   */\n      tag_164\n      jump\t// in\n    tag_233:\n        /* \"#utility.yul\":2792:2842   */\n      swap1\n      pop\n        /* \"#utility.yul\":2710:2848   */\n      swap2\n      swap1\n      pop\n      jump\t// out\n        /* \"#utility.yul\":2854:3009   */\n    tag_166:\n        /* \"#utility.yul\":2953:3002   */\n      tag_235\n        /* \"#utility.yul\":2996:3001   */\n      dup2\n        /* \"#utility.yul\":2953:3002   */\n      tag_165\n      jump\t// in\n    tag_235:\n        /* \"#utility.yul\":2948:2951   */\n      dup3\n        /* \"#utility.yul\":2941:3003   */\n      mstore\n        /* \"#utility.yul\":2854:3009   */\n      pop\n      pop\n      jump\t// out\n        /* \"#utility.yul\":3015:3261   */\n    tag_31:\n        /* \"#utility.yul\":3120:3124   */\n      0x00\n        /* \"#utility.yul\":3158:3160   */\n      0x20\n        /* \"#utility.yul\":3147:3156   */\n      dup3\n        /* \"#utility.yul\":3143:3161   */\n      add\n        /* \"#utility.yul\":3135:3161   */\n      swap1\n      pop\n        /* \"#utility.yul\":3171:3254   */\n      tag_237\n        /* \"#utility.yul\":3251:3252   */\n      0x00\n        /* \"#utility.yul\":3240:3249   */\n      dup4\n        /* \"#utility.yul\":3236:3253   */\n      add\n        /* \"#utility.yul\":3227:3233   */\n      dup5\n        /* \"#utility.yul\":3171:3254   */\n      tag_166\n      jump\t// in\n    tag_237:\n        /* \"#utility.yul\":3015:3261   */\n      swap3\n      swap2\n      pop\n      pop\n      jump\t// out\n        /* \"#utility.yul\":3267:3886   */\n    tag_35:\n        /* \"#utility.yul\":3344:3350   */\n      0x00\n        /* \"#utility.yul\":3352:3358   */\n      dup1\n        /* \"#utility.yul\":3360:3366   */\n      0x00\n        /* \"#utility.yul\":3409:3411   */\n      0x60\n        /* \"#utility.yul\":3397:3406   */\n      dup5\n        /* \"#utility.yul\":3388:3395   */\n      dup7\n        /* \"#utility.yul\":3384:3407   */\n      sub\n        /* \"#utility.yul\":3380:3412   */\n      slt\n        /* \"#utility.yul\":3377:3496   */\n      iszero\n      tag_239\n      jumpi\n        /* \"#utility.yul\":3415:3494   */\n      tag_240\n      tag_152\n      jump\t// in\n    tag_240:\n        /* \"#utility.yul\":3377:3496   */\n    tag_239:\n        /* \"#utility.yul\":3535:3536   */\n      0x00\n        /* \"#utility.yul\":3560:3613   */\n      tag_241\n        /* \"#utility.yul\":3605:3612   */\n      dup7\n        /* \"#utility.yul\":3596:3602   */\n      dup3\n        /* \"#utility.yul\":3585:3594   */\n      dup8\n        /* \"#utility.yul\":3581:3603   */\n      add\n        /* \"#utility.yul\":3560:3613   */\n      tag_161\n      jump\t// in\n    tag_241:\n        /* \"#utility.yul\":3550:3613   */\n      swap4\n      pop\n        /* \"#utility.yul\":3506:3623   */\n      pop\n        /* \"#utility.yul\":3662:3664   */\n      0x20\n        /* \"#utility.yul\":3688:3741   */\n      tag_242\n        /* \"#utility.yul\":3733:3740   */\n      dup7\n        /* \"#utility.yul\":3724:3730   */\n      dup3\n        /* \"#utility.yul\":3713:3722   */\n      dup8\n        /* \"#utility.yul\":3709:3731   */\n      add\n        /* \"#utility.yul\":3688:3741   */\n      tag_156\n      jump\t// in\n    tag_242:\n        /* \"#utility.yul\":3678:3741   */\n      swap3\n      pop\n        /* \"#utility.yul\":3633:3751   */\n      pop\n        /* \"#utility.yul\":3790:3792   */\n      0x40\n        /* \"#utility.yul\":3816:3869   */\n      tag_243\n        /* \"#utility.yul\":3861:3868   */\n      dup7\n        /* \"#utility.yul\":3852:3858   */\n      dup3\n        /* \"#utility.yul\":3841:3850   */\n      dup8\n        /* \"#utility.yul\":3837:3859   */\n      add\n        /* \"#utility.yul\":3816:3869   */\n      tag_161\n      jump\t// in\n    tag_243:\n        /* \"#utility.yul\":3806:3869   */\n      swap2\n      pop\n        /* \"#utility.yul\":3761:3879   */\n      pop\n        /* \"#utility.yul\":3267:3886   */\n      swap3\n      pop\n      swap3\n      pop\n      swap3\n      jump\t// out\n        /* \"#utility.yul\":3892:4010   */\n    tag_167:\n        /* \"#utility.yul\":3979:4003   */\n      tag_245\n        /* \"#utility.yul\":3997:4002   */\n      dup2\n        /* \"#utility.yul\":3979:4003   */\n      tag_159\n      jump\t// in\n    tag_245:\n        /* \"#utility.yul\":3974:3977   */\n      dup3\n        /* \"#utility.yul\":3967:4004   */\n      mstore\n        /* \"#utility.yul\":3892:4010   */\n      pop\n      pop\n      jump\t// out\n        /* \"#utility.yul\":4016:4238   */\n    tag_42:\n        /* \"#utility.yul\":4109:4113   */\n      0x00\n        /* \"#utility.yul\":4147:4149   */\n      0x20\n        /* \"#utility.yul\":4136:4145   */\n      dup3\n        /* \"#utility.yul\":4132:4150   */\n      add\n        /* \"#utility.yul\":4124:4150   */\n      swap1\n      pop\n        /* \"#utility.yul\":4160:4231   */\n      tag_247\n        /* \"#utility.yul\":4228:4229   */\n      0x00\n        /* \"#utility.yul\":4217:4226   */\n      dup4\n        /* \"#utility.yul\":4213:4230   */\n      add\n        /* \"#utility.yul\":4204:4210   */\n      dup5\n        /* \"#utility.yul\":4160:4231   */\n      tag_167\n      jump\t// in\n    tag_247:\n        /* \"#utility.yul\":4016:4238   */\n      swap3\n      swap2\n      pop\n      pop\n      jump\t// out\n        /* \"#utility.yul\":4244:4573   */\n    tag_56:\n        /* \"#utility.yul\":4303:4309   */\n      0x00\n        /* \"#utility.yul\":4352:4354   */\n      0x20\n        /* \"#utility.yul\":4340:4349   */\n      dup3\n        /* \"#utility.yul\":4331:4338   */\n      dup5\n        /* \"#utility.yul\":4327:4350   */\n      sub\n        /* \"#utility.yul\":4323:4355   */\n      slt\n        /* \"#utility.yul\":4320:4439   */\n      iszero\n      tag_249\n      jumpi\n        /* \"#utility.yul\":4358:4437   */\n      tag_250\n      tag_152\n      jump\t// in\n    tag_250:\n        /* \"#utility.yul\":4320:4439   */\n    tag_249:\n        /* \"#utility.yul\":4478:4479   */\n      0x00\n        /* \"#utility.yul\":4503:4556   */\n      tag_251\n        /* \"#utility.yul\":4548:4555   */\n      dup5\n        /* \"#utility.yul\":4539:4545   */\n      dup3\n        /* \"#utility.yul\":4528:4537   */\n      dup6\n        /* \"#utility.yul\":4524:4546   */\n      add\n        /* \"#utility.yul\":4503:4556   */\n      tag_161\n      jump\t// in\n    tag_251:\n        /* \"#utility.yul\":4493:4556   */\n      swap2\n      pop\n        /* \"#utility.yul\":4449:4566   */\n      pop\n        /* \"#utility.yul\":4244:4573   */\n      swap3\n      swap2\n      pop\n      pop\n      jump\t// out\n        /* \"#utility.yul\":4579:4669   */\n    tag_168:\n        /* \"#utility.yul\":4613:4620   */\n      0x00\n        /* \"#utility.yul\":4656:4661   */\n      dup2\n        /* \"#utility.yul\":4649:4662   */\n      iszero\n        /* \"#utility.yul\":4642:4663   */\n      iszero\n        /* \"#utility.yul\":4631:4663   */\n      swap1\n      pop\n        /* \"#utility.yul\":4579:4669   */\n      swap2\n      swap1\n      pop\n      jump\t// out\n        /* \"#utility.yul\":4675:4791   */\n    tag_169:\n        /* \"#utility.yul\":4745:4766   */\n      tag_254\n        /* \"#utility.yul\":4760:4765   */\n      dup2\n        /* \"#utility.yul\":4745:4766   */\n      tag_168\n      jump\t// in\n    tag_254:\n        /* \"#utility.yul\":4738:4743   */\n      dup2\n        /* \"#utility.yul\":4735:4767   */\n      eq\n        /* \"#utility.yul\":4725:4785   */\n      tag_255\n      jumpi\n        /* \"#utility.yul\":4781:4782   */\n      0x00\n        /* \"#utility.yul\":4778:4779   */\n      dup1\n        /* \"#utility.yul\":4771:4783   */\n      revert\n        /* \"#utility.yul\":4725:4785   */\n    tag_255:\n        /* \"#utility.yul\":4675:4791   */\n      pop\n      jump\t// out\n        /* \"#utility.yul\":4797:4934   */\n    tag_170:\n        /* \"#utility.yul\":4851:4856   */\n      0x00\n        /* \"#utility.yul\":4882:4888   */\n      dup2\n        /* \"#utility.yul\":4876:4889   */\n      mload\n        /* \"#utility.yul\":4867:4889   */\n      swap1\n      pop\n        /* \"#utility.yul\":4898:4928   */\n      tag_257\n        /* \"#utility.yul\":4922:4927   */\n      dup2\n        /* \"#utility.yul\":4898:4928   */\n      tag_169\n      jump\t// in\n    tag_257:\n        /* \"#utility.yul\":4797:4934   */\n      swap3\n      swap2\n      pop\n      pop\n      jump\t// out\n        /* \"#utility.yul\":4940:5285   */\n    tag_63:\n        /* \"#utility.yul\":5007:5013   */\n      0x00\n        /* \"#utility.yul\":5056:5058   */\n      0x20\n        /* \"#utility.yul\":5044:5053   */\n      dup3\n        /* \"#utility.yul\":5035:5042   */\n      dup5\n        /* \"#utility.yul\":5031:5054   */\n      sub\n        /* \"#utility.yul\":5027:5059   */\n      slt\n        /* \"#utility.yul\":5024:5143   */\n      iszero\n      tag_259\n      jumpi\n        /* \"#utility.yul\":5062:5141   */\n      tag_260\n      tag_152\n      jump\t// in\n    tag_260:\n        /* \"#utility.yul\":5024:5143   */\n    tag_259:\n        /* \"#utility.yul\":5182:5183   */\n      0x00\n        /* \"#utility.yul\":5207:5268   */\n      tag_261\n        /* \"#utility.yul\":5260:5267   */\n      dup5\n        /* \"#utility.yul\":5251:5257   */\n      dup3\n        /* \"#utility.yul\":5240:5249   */\n      dup6\n        /* \"#utility.yul\":5236:5258   */\n      add\n        /* \"#utility.yul\":5207:5268   */\n      tag_170\n      jump\t// in\n    tag_261:\n        /* \"#utility.yul\":5197:5268   */\n      swap2\n      pop\n        /* \"#utility.yul\":5153:5278   */\n      pop\n        /* \"#utility.yul\":4940:5285   */\n      swap3\n      swap2\n      pop\n      pop\n      jump\t// out\n        /* \"#utility.yul\":5291:5460   */\n    tag_171:\n        /* \"#utility.yul\":5375:5386   */\n      0x00\n        /* \"#utility.yul\":5409:5415   */\n      dup3\n        /* \"#utility.yul\":5404:5407   */\n      dup3\n        /* \"#utility.yul\":5397:5416   */\n      mstore\n        /* \"#utility.yul\":5449:5453   */\n      0x20\n        /* \"#utility.yul\":5444:5447   */\n      dup3\n        /* \"#utility.yul\":5440:5454   */\n      add\n        /* \"#utility.yul\":5425:5454   */\n      swap1\n      pop\n        /* \"#utility.yul\":5291:5460   */\n      swap3\n      swap2\n      pop\n      pop\n      jump\t// out\n        /* \"#utility.yul\":5466:5634   */\n    tag_172:\n        /* \"#utility.yul\":5606:5626   */\n      0x4e6f206572657320756e206a756761646f720000000000000000000000000000\n        /* \"#utility.yul\":5602:5603   */\n      0x00\n        /* \"#utility.yul\":5594:5600   */\n      dup3\n        /* \"#utility.yul\":5590:5604   */\n      add\n        /* \"#utility.yul\":5583:5627   */\n      mstore\n        /* \"#utility.yul\":5466:5634   */\n      pop\n      jump\t// out\n        /* \"#utility.yul\":5640:6006   */\n    tag_173:\n        /* \"#utility.yul\":5782:5785   */\n      0x00\n        /* \"#utility.yul\":5803:5870   */\n      tag_265\n        /* \"#utility.yul\":5867:5869   */\n      0x12\n        /* \"#utility.yul\":5862:5865   */\n      dup4\n        /* \"#utility.yul\":5803:5870   */\n      tag_171\n      jump\t// in\n    tag_265:\n        /* \"#utility.yul\":5796:5870   */\n      swap2\n      pop\n        /* \"#utility.yul\":5879:5972   */\n      tag_266\n        /* \"#utility.yul\":5968:5971   */\n      dup3\n        /* \"#utility.yul\":5879:5972   */\n      tag_172\n      jump\t// in\n    tag_266:\n        /* \"#utility.yul\":5997:5999   */\n      0x20\n        /* \"#utility.yul\":5992:5995   */\n      dup3\n        /* \"#utility.yul\":5988:6000   */\n      add\n        /* \"#utility.yul\":5981:6000   */\n      swap1\n      pop\n        /* \"#utility.yul\":5640:6006   */\n      swap2\n      swap1\n      pop\n      jump\t// out\n        /* \"#utility.yul\":6012:6431   */\n    tag_66:\n        /* \"#utility.yul\":6178:6182   */\n      0x00\n        /* \"#utility.yul\":6216:6218   */\n      0x20\n        /* \"#utility.yul\":6205:6214   */\n      dup3\n        /* \"#utility.yul\":6201:6219   */\n      add\n        /* \"#utility.yul\":6193:6219   */\n      swap1\n      pop\n        /* \"#utility.yul\":6265:6274   */\n      dup2\n        /* \"#utility.yul\":6259:6263   */\n      dup2\n        /* \"#utility.yul\":6255:6275   */\n      sub\n        /* \"#utility.yul\":6251:6252   */\n      0x00\n        /* \"#utility.yul\":6240:6249   */\n      dup4\n        /* \"#utility.yul\":6236:6253   */\n      add\n        /* \"#utility.yul\":6229:6276   */\n      mstore\n        /* \"#utility.yul\":6293:6424   */\n      tag_268\n        /* \"#utility.yul\":6419:6423   */\n      dup2\n        /* \"#utility.yul\":6293:6424   */\n      tag_173\n      jump\t// in\n    tag_268:\n        /* \"#utility.yul\":6285:6424   */\n      swap1\n      pop\n        /* \"#utility.yul\":6012:6431   */\n      swap2\n      swap1\n      pop\n      jump\t// out\n        /* \"#utility.yul\":6437:6614   */\n    tag_174:\n        /* \"#utility.yul\":6577:6606   */\n      0x4e6f206861732070616761646f206c6f20737566696369656e74650000000000\n        /* \"#utility.yul\":6573:6574   */\n      0x00\n        /* \"#utility.yul\":6565:6571   */\n      dup3\n        /* \"#utility.yul\":6561:6575   */\n      add\n        /* \"#utility.yul\":6554:6607   */\n      mstore\n        /* \"#utility.yul\":6437:6614   */\n      pop\n      jump\t// out\n        /* \"#utility.yul\":6620:6986   */\n    tag_175:\n        /* \"#utility.yul\":6762:6765   */\n      0x00\n        /* \"#utility.yul\":6783:6850   */\n      tag_271\n        /* \"#utility.yul\":6847:6849   */\n      0x1b\n        /* \"#utility.yul\":6842:6845   */\n      dup4\n        /* \"#utility.yul\":6783:6850   */\n      tag_171\n      jump\t// in\n    tag_271:\n        /* \"#utility.yul\":6776:6850   */\n      swap2\n      pop\n        /* \"#utility.yul\":6859:6952   */\n      tag_272\n        /* \"#utility.yul\":6948:6951   */\n      dup3\n        /* \"#utility.yul\":6859:6952   */\n      tag_174\n      jump\t// in\n    tag_272:\n        /* \"#utility.yul\":6977:6979   */\n      0x20\n        /* \"#utility.yul\":6972:6975   */\n      dup3\n        /* \"#utility.yul\":6968:6980   */\n      add\n        /* \"#utility.yul\":6961:6980   */\n      swap1\n      pop\n        /* \"#utility.yul\":6620:6986   */\n      swap2\n      swap1\n      pop\n      jump\t// out\n        /* \"#utility.yul\":6992:7411   */\n    tag_70:\n        /* \"#utility.yul\":7158:7162   */\n      0x00\n        /* \"#utility.yul\":7196:7198   */\n      0x20\n        /* \"#utility.yul\":7185:7194   */\n      dup3\n        /* \"#utility.yul\":7181:7199   */\n      add\n        /* \"#utility.yul\":7173:7199   */\n      swap1\n      pop\n        /* \"#utility.yul\":7245:7254   */\n      dup2\n        /* \"#utility.yul\":7239:7243   */\n      dup2\n        /* \"#utility.yul\":7235:7255   */\n      sub\n        /* \"#utility.yul\":7231:7232   */\n      0x00\n        /* \"#utility.yul\":7220:7229   */\n      dup4\n        /* \"#utility.yul\":7216:7233   */\n      add\n        /* \"#utility.yul\":7209:7256   */\n      mstore\n        /* \"#utility.yul\":7273:7404   */\n      tag_274\n        /* \"#utility.yul\":7399:7403   */\n      dup2\n        /* \"#utility.yul\":7273:7404   */\n      tag_175\n      jump\t// in\n    tag_274:\n        /* \"#utility.yul\":7265:7404   */\n      swap1\n      pop\n        /* \"#utility.yul\":6992:7411   */\n      swap2\n      swap1\n      pop\n      jump\t// out\n        /* \"#utility.yul\":7417:7749   */\n    tag_72:\n        /* \"#utility.yul\":7538:7542   */\n      0x00\n        /* \"#utility.yul\":7576:7578   */\n      0x40\n        /* \"#utility.yul\":7565:7574   */\n      dup3\n        /* \"#utility.yul\":7561:7579   */\n      add\n        /* \"#utility.yul\":7553:7579   */\n      swap1\n      pop\n        /* \"#utility.yul\":7589:7660   */\n      tag_276\n        /* \"#utility.yul\":7657:7658   */\n      0x00\n        /* \"#utility.yul\":7646:7655   */\n      dup4\n        /* \"#utility.yul\":7642:7659   */\n      add\n        /* \"#utility.yul\":7633:7639   */\n      dup6\n        /* \"#utility.yul\":7589:7660   */\n      tag_167\n      jump\t// in\n    tag_276:\n        /* \"#utility.yul\":7670:7742   */\n      tag_277\n        /* \"#utility.yul\":7738:7740   */\n      0x20\n        /* \"#utility.yul\":7727:7736   */\n      dup4\n        /* \"#utility.yul\":7723:7741   */\n      add\n        /* \"#utility.yul\":7714:7720   */\n      dup5\n        /* \"#utility.yul\":7670:7742   */\n      tag_157\n      jump\t// in\n    tag_277:\n        /* \"#utility.yul\":7417:7749   */\n      swap4\n      swap3\n      pop\n      pop\n      pop\n      jump\t// out\n        /* \"#utility.yul\":7755:8197   */\n    tag_80:\n        /* \"#utility.yul\":7904:7908   */\n      0x00\n        /* \"#utility.yul\":7942:7944   */\n      0x60\n        /* \"#utility.yul\":7931:7940   */\n      dup3\n        /* \"#utility.yul\":7927:7945   */\n      add\n        /* \"#utility.yul\":7919:7945   */\n      swap1\n      pop\n        /* \"#utility.yul\":7955:8026   */\n      tag_279\n        /* \"#utility.yul\":8023:8024   */\n      0x00\n        /* \"#utility.yul\":8012:8021   */\n      dup4\n        /* \"#utility.yul\":8008:8025   */\n      add\n        /* \"#utility.yul\":7999:8005   */\n      dup7\n        /* \"#utility.yul\":7955:8026   */\n      tag_167\n      jump\t// in\n    tag_279:\n        /* \"#utility.yul\":8036:8108   */\n      tag_280\n        /* \"#utility.yul\":8104:8106   */\n      0x20\n        /* \"#utility.yul\":8093:8102   */\n      dup4\n        /* \"#utility.yul\":8089:8107   */\n      add\n        /* \"#utility.yul\":8080:8086   */\n      dup6\n        /* \"#utility.yul\":8036:8108   */\n      tag_157\n      jump\t// in\n    tag_280:\n        /* \"#utility.yul\":8118:8190   */\n      tag_281\n        /* \"#utility.yul\":8186:8188   */\n      0x40\n        /* \"#utility.yul\":8175:8184   */\n      dup4\n        /* \"#utility.yul\":8171:8189   */\n      add\n        /* \"#utility.yul\":8162:8168   */\n      dup5\n        /* \"#utility.yul\":8118:8190   */\n      tag_167\n      jump\t// in\n    tag_281:\n        /* \"#utility.yul\":7755:8197   */\n      swap5\n      swap4\n      pop\n      pop\n      pop\n      pop\n      jump\t// out\n        /* \"#utility.yul\":8203:8381   */\n    tag_176:\n        /* \"#utility.yul\":8343:8373   */\n      0x59612068617320646573706c656761646f2065737465206e6976656c00000000\n        /* \"#utility.yul\":8339:8340   */\n      0x00\n        /* \"#utility.yul\":8331:8337   */\n      dup3\n        /* \"#utility.yul\":8327:8341   */\n      add\n        /* \"#utility.yul\":8320:8374   */\n      mstore\n        /* \"#utility.yul\":8203:8381   */\n      pop\n      jump\t// out\n        /* \"#utility.yul\":8387:8753   */\n    tag_177:\n        /* \"#utility.yul\":8529:8532   */\n      0x00\n        /* \"#utility.yul\":8550:8617   */\n      tag_284\n        /* \"#utility.yul\":8614:8616   */\n      0x1c\n        /* \"#utility.yul\":8609:8612   */\n      dup4\n        /* \"#utility.yul\":8550:8617   */\n      tag_171\n      jump\t// in\n    tag_284:\n        /* \"#utility.yul\":8543:8617   */\n      swap2\n      pop\n        /* \"#utility.yul\":8626:8719   */\n      tag_285\n        /* \"#utility.yul\":8715:8718   */\n      dup3\n        /* \"#utility.yul\":8626:8719   */\n      tag_176\n      jump\t// in\n    tag_285:\n        /* \"#utility.yul\":8744:8746   */\n      0x20\n        /* \"#utility.yul\":8739:8742   */\n      dup3\n        /* \"#utility.yul\":8735:8747   */\n      add\n        /* \"#utility.yul\":8728:8747   */\n      swap1\n      pop\n        /* \"#utility.yul\":8387:8753   */\n      swap2\n      swap1\n      pop\n      jump\t// out\n        /* \"#utility.yul\":8759:9178   */\n    tag_82:\n        /* \"#utility.yul\":8925:8929   */\n      0x00\n        /* \"#utility.yul\":8963:8965   */\n      0x20\n        /* \"#utility.yul\":8952:8961   */\n      dup3\n        /* \"#utility.yul\":8948:8966   */\n      add\n        /* \"#utility.yul\":8940:8966   */\n      swap1\n      pop\n        /* \"#utility.yul\":9012:9021   */\n      dup2\n        /* \"#utility.yul\":9006:9010   */\n      dup2\n        /* \"#utility.yul\":9002:9022   */\n      sub\n        /* \"#utility.yul\":8998:8999   */\n      0x00\n        /* \"#utility.yul\":8987:8996   */\n      dup4\n        /* \"#utility.yul\":8983:9000   */\n      add\n        /* \"#utility.yul\":8976:9023   */\n      mstore\n        /* \"#utility.yul\":9040:9171   */\n      tag_287\n        /* \"#utility.yul\":9166:9170   */\n      dup2\n        /* \"#utility.yul\":9040:9171   */\n      tag_177\n      jump\t// in\n    tag_287:\n        /* \"#utility.yul\":9032:9171   */\n      swap1\n      pop\n        /* \"#utility.yul\":8759:9178   */\n      swap2\n      swap1\n      pop\n      jump\t// out\n        /* \"#utility.yul\":9184:9408   */\n    tag_178:\n        /* \"#utility.yul\":9324:9358   */\n      0x4e6f206861732070616761646f207061726120646573706c6567617220656c20\n        /* \"#utility.yul\":9320:9321   */\n      0x00\n        /* \"#utility.yul\":9312:9318   */\n      dup3\n        /* \"#utility.yul\":9308:9322   */\n      add\n        /* \"#utility.yul\":9301:9359   */\n      mstore\n        /* \"#utility.yul\":9393:9400   */\n      0x6e6976656c000000000000000000000000000000000000000000000000000000\n        /* \"#utility.yul\":9388:9390   */\n      0x20\n        /* \"#utility.yul\":9380:9386   */\n      dup3\n        /* \"#utility.yul\":9376:9391   */\n      add\n        /* \"#utility.yul\":9369:9401   */\n      mstore\n        /* \"#utility.yul\":9184:9408   */\n      pop\n      jump\t// out\n        /* \"#utility.yul\":9414:9780   */\n    tag_179:\n        /* \"#utility.yul\":9556:9559   */\n      0x00\n        /* \"#utility.yul\":9577:9644   */\n      tag_290\n        /* \"#utility.yul\":9641:9643   */\n      0x25\n        /* \"#utility.yul\":9636:9639   */\n      dup4\n        /* \"#utility.yul\":9577:9644   */\n      tag_171\n      jump\t// in\n    tag_290:\n        /* \"#utility.yul\":9570:9644   */\n      swap2\n      pop\n        /* \"#utility.yul\":9653:9746   */\n      tag_291\n        /* \"#utility.yul\":9742:9745   */\n      dup3\n        /* \"#utility.yul\":9653:9746   */\n      tag_178\n      jump\t// in\n    tag_291:\n        /* \"#utility.yul\":9771:9773   */\n      0x40\n        /* \"#utility.yul\":9766:9769   */\n      dup3\n        /* \"#utility.yul\":9762:9774   */\n      add\n        /* \"#utility.yul\":9755:9774   */\n      swap1\n      pop\n        /* \"#utility.yul\":9414:9780   */\n      swap2\n      swap1\n      pop\n      jump\t// out\n        /* \"#utility.yul\":9786:10205   */\n    tag_92:\n        /* \"#utility.yul\":9952:9956   */\n      0x00\n        /* \"#utility.yul\":9990:9992   */\n      0x20\n        /* \"#utility.yul\":9979:9988   */\n      dup3\n        /* \"#utility.yul\":9975:9993   */\n      add\n        /* \"#utility.yul\":9967:9993   */\n      swap1\n      pop\n        /* \"#utility.yul\":10039:10048   */\n      dup2\n        /* \"#utility.yul\":10033:10037   */\n      dup2\n        /* \"#utility.yul\":10029:10049   */\n      sub\n        /* \"#utility.yul\":10025:10026   */\n      0x00\n        /* \"#utility.yul\":10014:10023   */\n      dup4\n        /* \"#utility.yul\":10010:10027   */\n      add\n        /* \"#utility.yul\":10003:10050   */\n      mstore\n        /* \"#utility.yul\":10067:10198   */\n      tag_293\n        /* \"#utility.yul\":10193:10197   */\n      dup2\n        /* \"#utility.yul\":10067:10198   */\n      tag_179\n      jump\t// in\n    tag_293:\n        /* \"#utility.yul\":10059:10198   */\n      swap1\n      pop\n        /* \"#utility.yul\":9786:10205   */\n      swap2\n      swap1\n      pop\n      jump\t// out\n        /* \"#utility.yul\":10211:10383   */\n    tag_180:\n        /* \"#utility.yul\":10351:10375   */\n      0x436f6e747261746f20796120646573706c656761646f00000000000000000000\n        /* \"#utility.yul\":10347:10348   */\n      0x00\n        /* \"#utility.yul\":10339:10345   */\n      dup3\n        /* \"#utility.yul\":10335:10349   */\n      add\n        /* \"#utility.yul\":10328:10376   */\n      mstore\n        /* \"#utility.yul\":10211:10383   */\n      pop\n      jump\t// out\n        /* \"#utility.yul\":10389:10755   */\n    tag_181:\n        /* \"#utility.yul\":10531:10534   */\n      0x00\n        /* \"#utility.yul\":10552:10619   */\n      tag_296\n        /* \"#utility.yul\":10616:10618   */\n      0x16\n        /* \"#utility.yul\":10611:10614   */\n      dup4\n        /* \"#utility.yul\":10552:10619   */\n      tag_171\n      jump\t// in\n    tag_296:\n        /* \"#utility.yul\":10545:10619   */\n      swap2\n      pop\n        /* \"#utility.yul\":10628:10721   */\n      tag_297\n        /* \"#utility.yul\":10717:10720   */\n      dup3\n        /* \"#utility.yul\":10628:10721   */\n      tag_180\n      jump\t// in\n    tag_297:\n        /* \"#utility.yul\":10746:10748   */\n      0x20\n        /* \"#utility.yul\":10741:10744   */\n      dup3\n        /* \"#utility.yul\":10737:10749   */\n      add\n        /* \"#utility.yul\":10730:10749   */\n      swap1\n      pop\n        /* \"#utility.yul\":10389:10755   */\n      swap2\n      swap1\n      pop\n      jump\t// out\n        /* \"#utility.yul\":10761:11180   */\n    tag_95:\n        /* \"#utility.yul\":10927:10931   */\n      0x00\n        /* \"#utility.yul\":10965:10967   */\n      0x20\n        /* \"#utility.yul\":10954:10963   */\n      dup3\n        /* \"#utility.yul\":10950:10968   */\n      add\n        /* \"#utility.yul\":10942:10968   */\n      swap1\n      pop\n        /* \"#utility.yul\":11014:11023   */\n      dup2\n        /* \"#utility.yul\":11008:11012   */\n      dup2\n        /* \"#utility.yul\":11004:11024   */\n      sub\n        /* \"#utility.yul\":11000:11001   */\n      0x00\n        /* \"#utility.yul\":10989:10998   */\n      dup4\n        /* \"#utility.yul\":10985:11002   */\n      add\n        /* \"#utility.yul\":10978:11025   */\n      mstore\n        /* \"#utility.yul\":11042:11173   */\n      tag_299\n        /* \"#utility.yul\":11168:11172   */\n      dup2\n        /* \"#utility.yul\":11042:11173   */\n      tag_181\n      jump\t// in\n    tag_299:\n        /* \"#utility.yul\":11034:11173   */\n      swap1\n      pop\n        /* \"#utility.yul\":10761:11180   */\n      swap2\n      swap1\n      pop\n      jump\t// out\n        /* \"#utility.yul\":11186:11355   */\n    tag_182:\n        /* \"#utility.yul\":11326:11347   */\n      0x4e6f20736520686120646573706c656761646f00000000000000000000000000\n        /* \"#utility.yul\":11322:11323   */\n      0x00\n        /* \"#utility.yul\":11314:11320   */\n      dup3\n        /* \"#utility.yul\":11310:11324   */\n      add\n        /* \"#utility.yul\":11303:11348   */\n      mstore\n        /* \"#utility.yul\":11186:11355   */\n      pop\n      jump\t// out\n        /* \"#utility.yul\":11361:11727   */\n    tag_183:\n        /* \"#utility.yul\":11503:11506   */\n      0x00\n        /* \"#utility.yul\":11524:11591   */\n      tag_302\n        /* \"#utility.yul\":11588:11590   */\n      0x13\n        /* \"#utility.yul\":11583:11586   */\n      dup4\n        /* \"#utility.yul\":11524:11591   */\n      tag_171\n      jump\t// in\n    tag_302:\n        /* \"#utility.yul\":11517:11591   */\n      swap2\n      pop\n        /* \"#utility.yul\":11600:11693   */\n      tag_303\n        /* \"#utility.yul\":11689:11692   */\n      dup3\n        /* \"#utility.yul\":11600:11693   */\n      tag_182\n      jump\t// in\n    tag_303:\n        /* \"#utility.yul\":11718:11720   */\n      0x20\n        /* \"#utility.yul\":11713:11716   */\n      dup3\n        /* \"#utility.yul\":11709:11721   */\n      add\n        /* \"#utility.yul\":11702:11721   */\n      swap1\n      pop\n        /* \"#utility.yul\":11361:11727   */\n      swap2\n      swap1\n      pop\n      jump\t// out\n        /* \"#utility.yul\":11733:12152   */\n    tag_103:\n        /* \"#utility.yul\":11899:11903   */\n      0x00\n        /* \"#utility.yul\":11937:11939   */\n      0x20\n        /* \"#utility.yul\":11926:11935   */\n      dup3\n        /* \"#utility.yul\":11922:11940   */\n      add\n        /* \"#utility.yul\":11914:11940   */\n      swap1\n      pop\n        /* \"#utility.yul\":11986:11995   */\n      dup2\n        /* \"#utility.yul\":11980:11984   */\n      dup2\n        /* \"#utility.yul\":11976:11996   */\n      sub\n        /* \"#utility.yul\":11972:11973   */\n      0x00\n        /* \"#utility.yul\":11961:11970   */\n      dup4\n        /* \"#utility.yul\":11957:11974   */\n      add\n        /* \"#utility.yul\":11950:11997   */\n      mstore\n        /* \"#utility.yul\":12014:12145   */\n      tag_305\n        /* \"#utility.yul\":12140:12144   */\n      dup2\n        /* \"#utility.yul\":12014:12145   */\n      tag_183\n      jump\t// in\n    tag_305:\n        /* \"#utility.yul\":12006:12145   */\n      swap1\n      pop\n        /* \"#utility.yul\":11733:12152   */\n      swap2\n      swap1\n      pop\n      jump\t// out\n        /* \"#utility.yul\":12158:12301   */\n    tag_184:\n        /* \"#utility.yul\":12215:12220   */\n      0x00\n        /* \"#utility.yul\":12246:12252   */\n      dup2\n        /* \"#utility.yul\":12240:12253   */\n      mload\n        /* \"#utility.yul\":12231:12253   */\n      swap1\n      pop\n        /* \"#utility.yul\":12262:12295   */\n      tag_307\n        /* \"#utility.yul\":12289:12294   */\n      dup2\n        /* \"#utility.yul\":12262:12295   */\n      tag_160\n      jump\t// in\n    tag_307:\n        /* \"#utility.yul\":12158:12301   */\n      swap3\n      swap2\n      pop\n      pop\n      jump\t// out\n        /* \"#utility.yul\":12307:12658   */\n    tag_125:\n        /* \"#utility.yul\":12377:12383   */\n      0x00\n        /* \"#utility.yul\":12426:12428   */\n      0x20\n        /* \"#utility.yul\":12414:12423   */\n      dup3\n        /* \"#utility.yul\":12405:12412   */\n      dup5\n        /* \"#utility.yul\":12401:12424   */\n      sub\n        /* \"#utility.yul\":12397:12429   */\n      slt\n        /* \"#utility.yul\":12394:12513   */\n      iszero\n      tag_309\n      jumpi\n        /* \"#utility.yul\":12432:12511   */\n      tag_310\n      tag_152\n      jump\t// in\n    tag_310:\n        /* \"#utility.yul\":12394:12513   */\n    tag_309:\n        /* \"#utility.yul\":12552:12553   */\n      0x00\n        /* \"#utility.yul\":12577:12641   */\n      tag_311\n        /* \"#utility.yul\":12633:12640   */\n      dup5\n        /* \"#utility.yul\":12624:12630   */\n      dup3\n        /* \"#utility.yul\":12613:12622   */\n      dup6\n        /* \"#utility.yul\":12609:12631   */\n      add\n        /* \"#utility.yul\":12577:12641   */\n      tag_184\n      jump\t// in\n    tag_311:\n        /* \"#utility.yul\":12567:12641   */\n      swap2\n      pop\n        /* \"#utility.yul\":12523:12651   */\n      pop\n        /* \"#utility.yul\":12307:12658   */\n      swap3\n      swap2\n      pop\n      pop\n      jump\t// out\n        /* \"#utility.yul\":12664:12811   */\n    tag_185:\n        /* \"#utility.yul\":12765:12776   */\n      0x00\n        /* \"#utility.yul\":12802:12805   */\n      dup2\n        /* \"#utility.yul\":12787:12805   */\n      swap1\n      pop\n        /* \"#utility.yul\":12664:12811   */\n      swap3\n      swap2\n      pop\n      pop\n      jump\t// out\n        /* \"#utility.yul\":12817:12931   */\n    tag_186:\n      pop\n      jump\t// out\n        /* \"#utility.yul\":12937:13335   */\n    tag_187:\n        /* \"#utility.yul\":13096:13099   */\n      0x00\n        /* \"#utility.yul\":13117:13200   */\n      tag_315\n        /* \"#utility.yul\":13198:13199   */\n      0x00\n        /* \"#utility.yul\":13193:13196   */\n      dup4\n        /* \"#utility.yul\":13117:13200   */\n      tag_185\n      jump\t// in\n    tag_315:\n        /* \"#utility.yul\":13110:13200   */\n      swap2\n      pop\n        /* \"#utility.yul\":13209:13302   */\n      tag_316\n        /* \"#utility.yul\":13298:13301   */\n      dup3\n        /* \"#utility.yul\":13209:13302   */\n      tag_186\n      jump\t// in\n    tag_316:\n        /* \"#utility.yul\":13327:13328   */\n      0x00\n        /* \"#utility.yul\":13322:13325   */\n      dup3\n        /* \"#utility.yul\":13318:13329   */\n      add\n        /* \"#utility.yul\":13311:13329   */\n      swap1\n      pop\n        /* \"#utility.yul\":12937:13335   */\n      swap2\n      swap1\n      pop\n      jump\t// out\n        /* \"#utility.yul\":13341:13720   */\n    tag_127:\n        /* \"#utility.yul\":13525:13528   */\n      0x00\n        /* \"#utility.yul\":13547:13694   */\n      tag_318\n        /* \"#utility.yul\":13690:13693   */\n      dup3\n        /* \"#utility.yul\":13547:13694   */\n      tag_187\n      jump\t// in\n    tag_318:\n        /* \"#utility.yul\":13540:13694   */\n      swap2\n      pop\n        /* \"#utility.yul\":13711:13714   */\n      dup2\n        /* \"#utility.yul\":13704:13714   */\n      swap1\n      pop\n        /* \"#utility.yul\":13341:13720   */\n      swap2\n      swap1\n      pop\n      jump\t// out\n        /* \"#utility.yul\":13726:13900   */\n    tag_188:\n        /* \"#utility.yul\":13866:13892   */\n      0x46616c6c6f20616c20656e766961722063616e74696461640000000000000000\n        /* \"#utility.yul\":13862:13863   */\n      0x00\n        /* \"#utility.yul\":13854:13860   */\n      dup3\n        /* \"#utility.yul\":13850:13864   */\n      add\n        /* \"#utility.yul\":13843:13893   */\n      mstore\n        /* \"#utility.yul\":13726:13900   */\n      pop\n      jump\t// out\n        /* \"#utility.yul\":13906:14272   */\n    tag_189:\n        /* \"#utility.yul\":14048:14051   */\n      0x00\n        /* \"#utility.yul\":14069:14136   */\n      tag_321\n        /* \"#utility.yul\":14133:14135   */\n      0x18\n        /* \"#utility.yul\":14128:14131   */\n      dup4\n        /* \"#utility.yul\":14069:14136   */\n      tag_171\n      jump\t// in\n    tag_321:\n        /* \"#utility.yul\":14062:14136   */\n      swap2\n      pop\n        /* \"#utility.yul\":14145:14238   */\n      tag_322\n        /* \"#utility.yul\":14234:14237   */\n      dup3\n        /* \"#utility.yul\":14145:14238   */\n      tag_188\n      jump\t// in\n    tag_322:\n        /* \"#utility.yul\":14263:14265   */\n      0x20\n        /* \"#utility.yul\":14258:14261   */\n      dup3\n        /* \"#utility.yul\":14254:14266   */\n      add\n        /* \"#utility.yul\":14247:14266   */\n      swap1\n      pop\n        /* \"#utility.yul\":13906:14272   */\n      swap2\n      swap1\n      pop\n      jump\t// out\n        /* \"#utility.yul\":14278:14697   */\n    tag_133:\n        /* \"#utility.yul\":14444:14448   */\n      0x00\n        /* \"#utility.yul\":14482:14484   */\n      0x20\n        /* \"#utility.yul\":14471:14480   */\n      dup3\n        /* \"#utility.yul\":14467:14485   */\n      add\n        /* \"#utility.yul\":14459:14485   */\n      swap1\n      pop\n        /* \"#utility.yul\":14531:14540   */\n      dup2\n        /* \"#utility.yul\":14525:14529   */\n      dup2\n        /* \"#utility.yul\":14521:14541   */\n      sub\n        /* \"#utility.yul\":14517:14518   */\n      0x00\n        /* \"#utility.yul\":14506:14515   */\n      dup4\n        /* \"#utility.yul\":14502:14519   */\n      add\n        /* \"#utility.yul\":14495:14542   */\n      mstore\n        /* \"#utility.yul\":14559:14690   */\n      tag_324\n        /* \"#utility.yul\":14685:14689   */\n      dup2\n        /* \"#utility.yul\":14559:14690   */\n      tag_189\n      jump\t// in\n    tag_324:\n        /* \"#utility.yul\":14551:14690   */\n      swap1\n      pop\n        /* \"#utility.yul\":14278:14697   */\n      swap2\n      swap1\n      pop\n      jump\t// out\n        /* \"#utility.yul\":14703:14928   */\n    tag_190:\n        /* \"#utility.yul\":14843:14877   */\n      0x4f776e61626c653a206e6577206f776e657220697320746865207a65726f2061\n        /* \"#utility.yul\":14839:14840   */\n      0x00\n        /* \"#utility.yul\":14831:14837   */\n      dup3\n        /* \"#utility.yul\":14827:14841   */\n      add\n        /* \"#utility.yul\":14820:14878   */\n      mstore\n        /* \"#utility.yul\":14912:14920   */\n      0x6464726573730000000000000000000000000000000000000000000000000000\n        /* \"#utility.yul\":14907:14909   */\n      0x20\n        /* \"#utility.yul\":14899:14905   */\n      dup3\n        /* \"#utility.yul\":14895:14910   */\n      add\n        /* \"#utility.yul\":14888:14921   */\n      mstore\n        /* \"#utility.yul\":14703:14928   */\n      pop\n      jump\t// out\n        /* \"#utility.yul\":14934:15300   */\n    tag_191:\n        /* \"#utility.yul\":15076:15079   */\n      0x00\n        /* \"#utility.yul\":15097:15164   */\n      tag_327\n        /* \"#utility.yul\":15161:15163   */\n      0x26\n        /* \"#utility.yul\":15156:15159   */\n      dup4\n        /* \"#utility.yul\":15097:15164   */\n      tag_171\n      jump\t// in\n    tag_327:\n        /* \"#utility.yul\":15090:15164   */\n      swap2\n      pop\n        /* \"#utility.yul\":15173:15266   */\n      tag_328\n        /* \"#utility.yul\":15262:15265   */\n      dup3\n        /* \"#utility.yul\":15173:15266   */\n      tag_190\n      jump\t// in\n    tag_328:\n        /* \"#utility.yul\":15291:15293   */\n      0x40\n        /* \"#utility.yul\":15286:15289   */\n      dup3\n        /* \"#utility.yul\":15282:15294   */\n      add\n        /* \"#utility.yul\":15275:15294   */\n      swap1\n      pop\n        /* \"#utility.yul\":14934:15300   */\n      swap2\n      swap1\n      pop\n      jump\t// out\n        /* \"#utility.yul\":15306:15725   */\n    tag_140:\n        /* \"#utility.yul\":15472:15476   */\n      0x00\n        /* \"#utility.yul\":15510:15512   */\n      0x20\n        /* \"#utility.yul\":15499:15508   */\n      dup3\n        /* \"#utility.yul\":15495:15513   */\n      add\n        /* \"#utility.yul\":15487:15513   */\n      swap1\n      pop\n        /* \"#utility.yul\":15559:15568   */\n      dup2\n        /* \"#utility.yul\":15553:15557   */\n      dup2\n        /* \"#utility.yul\":15549:15569   */\n      sub\n        /* \"#utility.yul\":15545:15546   */\n      0x00\n        /* \"#utility.yul\":15534:15543   */\n      dup4\n        /* \"#utility.yul\":15530:15547   */\n      add\n        /* \"#utility.yul\":15523:15570   */\n      mstore\n        /* \"#utility.yul\":15587:15718   */\n      tag_330\n        /* \"#utility.yul\":15713:15717   */\n      dup2\n        /* \"#utility.yul\":15587:15718   */\n      tag_191\n      jump\t// in\n    tag_330:\n        /* \"#utility.yul\":15579:15718   */\n      swap1\n      pop\n        /* \"#utility.yul\":15306:15725   */\n      swap2\n      swap1\n      pop\n      jump\t// out\n        /* \"#utility.yul\":15731:15913   */\n    tag_192:\n        /* \"#utility.yul\":15871:15905   */\n      0x4f776e61626c653a2063616c6c6572206973206e6f7420746865206f776e6572\n        /* \"#utility.yul\":15867:15868   */\n      0x00\n        /* \"#utility.yul\":15859:15865   */\n      dup3\n        /* \"#utility.yul\":15855:15869   */\n      add\n        /* \"#utility.yul\":15848:15906   */\n      mstore\n        /* \"#utility.yul\":15731:15913   */\n      pop\n      jump\t// out\n        /* \"#utility.yul\":15919:16285   */\n    tag_193:\n        /* \"#utility.yul\":16061:16064   */\n      0x00\n        /* \"#utility.yul\":16082:16149   */\n      tag_333\n        /* \"#utility.yul\":16146:16148   */\n      0x20\n        /* \"#utility.yul\":16141:16144   */\n      dup4\n        /* \"#utility.yul\":16082:16149   */\n      tag_171\n      jump\t// in\n    tag_333:\n        /* \"#utility.yul\":16075:16149   */\n      swap2\n      pop\n        /* \"#utility.yul\":16158:16251   */\n      tag_334\n        /* \"#utility.yul\":16247:16250   */\n      dup3\n        /* \"#utility.yul\":16158:16251   */\n      tag_192\n      jump\t// in\n    tag_334:\n        /* \"#utility.yul\":16276:16278   */\n      0x20\n        /* \"#utility.yul\":16271:16274   */\n      dup3\n        /* \"#utility.yul\":16267:16279   */\n      add\n        /* \"#utility.yul\":16260:16279   */\n      swap1\n      pop\n        /* \"#utility.yul\":15919:16285   */\n      swap2\n      swap1\n      pop\n      jump\t// out\n        /* \"#utility.yul\":16291:16710   */\n    tag_148:\n        /* \"#utility.yul\":16457:16461   */\n      0x00\n        /* \"#utility.yul\":16495:16497   */\n      0x20\n        /* \"#utility.yul\":16484:16493   */\n      dup3\n        /* \"#utility.yul\":16480:16498   */\n      add\n        /* \"#utility.yul\":16472:16498   */\n      swap1\n      pop\n        /* \"#utility.yul\":16544:16553   */\n      dup2\n        /* \"#utility.yul\":16538:16542   */\n      dup2\n        /* \"#utility.yul\":16534:16554   */\n      sub\n        /* \"#utility.yul\":16530:16531   */\n      0x00\n        /* \"#utility.yul\":16519:16528   */\n      dup4\n        /* \"#utility.yul\":16515:16532   */\n      add\n        /* \"#utility.yul\":16508:16555   */\n      mstore\n        /* \"#utility.yul\":16572:16703   */\n      tag_336\n        /* \"#utility.yul\":16698:16702   */\n      dup2\n        /* \"#utility.yul\":16572:16703   */\n      tag_193\n      jump\t// in\n    tag_336:\n        /* \"#utility.yul\":16564:16703   */\n      swap1\n      pop\n        /* \"#utility.yul\":16291:16710   */\n      swap2\n      swap1\n      pop\n      jump\t// out\n\n    auxdata: 0xa264697066735822122064d3eb45e1e009fda5b1fc96957af1124472c269c56d88eb166ba0db05ce973d64736f6c63430008120033\n}\n",
				"bytecode": {
					"linkReferences": {},
					"object": "608060405265b5e620f480006003553480156200001b57600080fd5b50604051620019ef380380620019ef8339818101604052810190620000419190620001f3565b6200006162000055620000a960201b60201c565b620000b160201b60201c565b80600460006101000a81548173ffffffffffffffffffffffffffffffffffffffff021916908373ffffffffffffffffffffffffffffffffffffffff1602179055505062000225565b600033905090565b60008060009054906101000a900473ffffffffffffffffffffffffffffffffffffffff169050816000806101000a81548173ffffffffffffffffffffffffffffffffffffffff021916908373ffffffffffffffffffffffffffffffffffffffff1602179055508173ffffffffffffffffffffffffffffffffffffffff168173ffffffffffffffffffffffffffffffffffffffff167f8be0079c531659141344cd1fd0a4f28419497f9722a3daafe3b4186f6b6457e060405160405180910390a35050565b600080fd5b600073ffffffffffffffffffffffffffffffffffffffff82169050919050565b6000620001a7826200017a565b9050919050565b6000620001bb826200019a565b9050919050565b620001cd81620001ae565b8114620001d957600080fd5b50565b600081519050620001ed81620001c2565b92915050565b6000602082840312156200020c576200020b62000175565b5b60006200021c84828501620001dc565b91505092915050565b6117ba80620002356000396000f3fe6080604052600436106100915760003560e01c80636ebc8c86116100595780636ebc8c861461015a578063715018a6146101975780637aa1469f146101ae5780638da5cb5b146101c5578063f2fde38b146101f057610091565b806305ce2b471461009657806313faede6146100b25780633cee4edd146100dd5780635001f3b5146101065780636a7ae27a14610131575b600080fd5b6100b060048036038101906100ab9190610ff5565b610219565b005b3480156100be57600080fd5b506100c7610637565b6040516100d49190611031565b60405180910390f35b3480156100e957600080fd5b5061010460048036038101906100ff91906110aa565b61063d565b005b34801561011257600080fd5b5061011b6108c7565b6040516101289190611149565b60405180910390f35b34801561013d57600080fd5b5061015860048036038101906101539190611164565b6108ed565b005b34801561016657600080fd5b50610181600480360381019061017c9190610ff5565b610a57565b60405161018e91906111c6565b60405180910390f35b3480156101a357600080fd5b506101ac610c8b565b005b3480156101ba57600080fd5b506101c3610c9f565b005b3480156101d157600080fd5b506101da610dc4565b6040516101e791906111c6565b60405180910390f35b3480156101fc57600080fd5b50610217600480360381019061021291906111e1565b610ded565b005b600460009054906101000a900473ffffffffffffffffffffffffffffffffffffffff1673ffffffffffffffffffffffffffffffffffffffff16635a65cf95336040518263ffffffff1660e01b815260040161027491906111c6565b602060405180830381865afa158015610291573d6000803e3d6000fd5b505050506040513d601f19601f820116820180604052508101906102b59190611246565b6102f4576040517f08c379a00000000000000000000000000000000000000000000000000000000081526004016102eb906112d0565b60405180910390fd5b6000600160003373ffffffffffffffffffffffffffffffffffffffff1673ffffffffffffffffffffffffffffffffffffffff1681526020019081526020016000206000838152602001908152602001600020540361042457600354341015610391576040517f08c379a00000000000000000000000000000000000000000000000000000000081526004016103889061133c565b60405180910390fd5b34600160003373ffffffffffffffffffffffffffffffffffffffff1673ffffffffffffffffffffffffffffffffffffffff1681526020019081526020016000206000838152602001908152602001600020819055507f7be9078cfa949e4b9e15888282e2a07a7fae4958503c18c81db93c5d41352497338260405161041792919061135c565b60405180910390a1610634565b600073ffffffffffffffffffffffffffffffffffffffff16600260003373ffffffffffffffffffffffffffffffffffffffff1673ffffffffffffffffffffffffffffffffffffffff168152602001908152602001600020600083815260200190815260200160002060009054906101000a900473ffffffffffffffffffffffffffffffffffffffff1673ffffffffffffffffffffffffffffffffffffffff160361054d573373ffffffffffffffffffffffffffffffffffffffff166108fc349081150290604051600060405180830381858888f1935050505015801561050e573d6000803e3d6000fd5b507f7be9078cfa949e4b9e15888282e2a07a7fae4958503c18c81db93c5d41352497338260405161054092919061135c565b60405180910390a1610633565b7f0f7cceb5b8900763db0b46908960abf22a5d055a4a7395b6b83862d93f241d213382600260003373ffffffffffffffffffffffffffffffffffffffff1673ffffffffffffffffffffffffffffffffffffffff168152602001908152602001600020600085815260200190815260200160002060009054906101000a900473ffffffffffffffffffffffffffffffffffffffff166040516105f093929190611385565b60405180910390a16040517f08c379a000000000000000000000000000000000000000000000000000000000815260040161062a90611408565b60405180910390fd5b5b50565b60035481565b600460009054906101000a900473ffffffffffffffffffffffffffffffffffffffff1673ffffffffffffffffffffffffffffffffffffffff16635a65cf95836040518263ffffffff1660e01b815260040161069891906111c6565b602060405180830381865afa1580156106b5573d6000803e3d6000fd5b505050506040513d601f19601f820116820180604052508101906106d99190611246565b610718576040517f08c379a000000000000000000000000000000000000000000000000000000000815260040161070f906112d0565b60405180910390fd5b6000600160008473ffffffffffffffffffffffffffffffffffffffff1673ffffffffffffffffffffffffffffffffffffffff168152602001908152602001600020600083815260200190815260200160002054036107ab576040517f08c379a00000000000000000000000000000000000000000000000000000000081526004016107a29061149a565b60405180910390fd5b600073ffffffffffffffffffffffffffffffffffffffff16600260008473ffffffffffffffffffffffffffffffffffffffff1673ffffffffffffffffffffffffffffffffffffffff168152602001908152602001600020600083815260200190815260200160002060009054906101000a900473ffffffffffffffffffffffffffffffffffffffff1673ffffffffffffffffffffffffffffffffffffffff161461088a576040517f08c379a000000000000000000000000000000000000000000000000000000000815260040161088190611506565b60405180910390fd5b7f7be9078cfa949e4b9e15888282e2a07a7fae4958503c18c81db93c5d4135249782826040516108bb92919061135c565b60405180910390a15050565b600460009054906101000a900473ffffffffffffffffffffffffffffffffffffffff1681565b6108f5610e70565b6000600160008573ffffffffffffffffffffffffffffffffffffffff1673ffffffffffffffffffffffffffffffffffffffff16815260200190815260200160002060008481526020019081526020016000205403610988576040517f08c379a000000000000000000000000000000000000000000000000000000000815260040161097f90611572565b60405180910390fd5b80600260008573ffffffffffffffffffffffffffffffffffffffff1673ffffffffffffffffffffffffffffffffffffffff168152602001908152602001600020600084815260200190815260200160002060006101000a81548173ffffffffffffffffffffffffffffffffffffffff021916908373ffffffffffffffffffffffffffffffffffffffff1602179055507f0f7cceb5b8900763db0b46908960abf22a5d055a4a7395b6b83862d93f241d21838383604051610a4a93929190611385565b60405180910390a1505050565b6000600460009054906101000a900473ffffffffffffffffffffffffffffffffffffffff1673ffffffffffffffffffffffffffffffffffffffff16635a65cf95336040518263ffffffff1660e01b8152600401610ab491906111c6565b602060405180830381865afa158015610ad1573d6000803e3d6000fd5b505050506040513d601f19601f82011682018060405250810190610af59190611246565b610b34576040517f08c379a0000000000000000000000000000000000000000000000000000000008152600401610b2b906112d0565b60405180910390fd5b600073ffffffffffffffffffffffffffffffffffffffff16600260003373ffffffffffffffffffffffffffffffffffffffff1673ffffffffffffffffffffffffffffffffffffffff168152602001908152602001600020600084815260200190815260200160002060009054906101000a900473ffffffffffffffffffffffffffffffffffffffff1673ffffffffffffffffffffffffffffffffffffffff1603610c13576040517f08c379a0000000000000000000000000000000000000000000000000000000008152600401610c0a90611572565b60405180910390fd5b600260003373ffffffffffffffffffffffffffffffffffffffff1673ffffffffffffffffffffffffffffffffffffffff168152602001908152602001600020600083815260200190815260200160002060009054906101000a900473ffffffffffffffffffffffffffffffffffffffff169050919050565b610c93610e70565b610c9d6000610eee565b565b610ca7610e70565b60003073ffffffffffffffffffffffffffffffffffffffff16638da5cb5b6040518163ffffffff1660e01b8152600401602060405180830381865afa158015610cf4573d6000803e3d6000fd5b505050506040513d601f19601f82011682018060405250810190610d1891906115a7565b73ffffffffffffffffffffffffffffffffffffffff1647604051610d3b90611605565b60006040518083038185875af1925050503d8060008114610d78576040519150601f19603f3d011682016040523d82523d6000602084013e610d7d565b606091505b5050905080610dc1576040517f08c379a0000000000000000000000000000000000000000000000000000000008152600401610db890611666565b60405180910390fd5b50565b60008060009054906101000a900473ffffffffffffffffffffffffffffffffffffffff16905090565b610df5610e70565b600073ffffffffffffffffffffffffffffffffffffffff168173ffffffffffffffffffffffffffffffffffffffff1603610e64576040517f08c379a0000000000000000000000000000000000000000000000000000000008152600401610e5b906116f8565b60405180910390fd5b610e6d81610eee565b50565b610e78610fb2565b73ffffffffffffffffffffffffffffffffffffffff16610e96610dc4565b73ffffffffffffffffffffffffffffffffffffffff1614610eec576040517f08c379a0000000000000000000000000000000000000000000000000000000008152600401610ee390611764565b60405180910390fd5b565b60008060009054906101000a900473ffffffffffffffffffffffffffffffffffffffff169050816000806101000a81548173ffffffffffffffffffffffffffffffffffffffff021916908373ffffffffffffffffffffffffffffffffffffffff1602179055508173ffffffffffffffffffffffffffffffffffffffff168173ffffffffffffffffffffffffffffffffffffffff167f8be0079c531659141344cd1fd0a4f28419497f9722a3daafe3b4186f6b6457e060405160405180910390a35050565b600033905090565b600080fd5b6000819050919050565b610fd281610fbf565b8114610fdd57600080fd5b50565b600081359050610fef81610fc9565b92915050565b60006020828403121561100b5761100a610fba565b5b600061101984828501610fe0565b91505092915050565b61102b81610fbf565b82525050565b60006020820190506110466000830184611022565b92915050565b600073ffffffffffffffffffffffffffffffffffffffff82169050919050565b60006110778261104c565b9050919050565b6110878161106c565b811461109257600080fd5b50565b6000813590506110a48161107e565b92915050565b600080604083850312156110c1576110c0610fba565b5b60006110cf85828601611095565b92505060206110e085828601610fe0565b9150509250929050565b6000819050919050565b600061110f61110a6111058461104c565b6110ea565b61104c565b9050919050565b6000611121826110f4565b9050919050565b600061113382611116565b9050919050565b61114381611128565b82525050565b600060208201905061115e600083018461113a565b92915050565b60008060006060848603121561117d5761117c610fba565b5b600061118b86828701611095565b935050602061119c86828701610fe0565b92505060406111ad86828701611095565b9150509250925092565b6111c08161106c565b82525050565b60006020820190506111db60008301846111b7565b92915050565b6000602082840312156111f7576111f6610fba565b5b600061120584828501611095565b91505092915050565b60008115159050919050565b6112238161120e565b811461122e57600080fd5b50565b6000815190506112408161121a565b92915050565b60006020828403121561125c5761125b610fba565b5b600061126a84828501611231565b91505092915050565b600082825260208201905092915050565b7f4e6f206572657320756e206a756761646f720000000000000000000000000000600082015250565b60006112ba601283611273565b91506112c582611284565b602082019050919050565b600060208201905081810360008301526112e9816112ad565b9050919050565b7f4e6f206861732070616761646f206c6f20737566696369656e74650000000000600082015250565b6000611326601b83611273565b9150611331826112f0565b602082019050919050565b6000602082019050818103600083015261135581611319565b9050919050565b600060408201905061137160008301856111b7565b61137e6020830184611022565b9392505050565b600060608201905061139a60008301866111b7565b6113a76020830185611022565b6113b460408301846111b7565b949350505050565b7f59612068617320646573706c656761646f2065737465206e6976656c00000000600082015250565b60006113f2601c83611273565b91506113fd826113bc565b602082019050919050565b60006020820190508181036000830152611421816113e5565b9050919050565b7f4e6f206861732070616761646f207061726120646573706c6567617220656c2060008201527f6e6976656c000000000000000000000000000000000000000000000000000000602082015250565b6000611484602583611273565b915061148f82611428565b604082019050919050565b600060208201905081810360008301526114b381611477565b9050919050565b7f436f6e747261746f20796120646573706c656761646f00000000000000000000600082015250565b60006114f0601683611273565b91506114fb826114ba565b602082019050919050565b6000602082019050818103600083015261151f816114e3565b9050919050565b7f4e6f20736520686120646573706c656761646f00000000000000000000000000600082015250565b600061155c601383611273565b915061156782611526565b602082019050919050565b6000602082019050818103600083015261158b8161154f565b9050919050565b6000815190506115a18161107e565b92915050565b6000602082840312156115bd576115bc610fba565b5b60006115cb84828501611592565b91505092915050565b600081905092915050565b50565b60006115ef6000836115d4565b91506115fa826115df565b600082019050919050565b6000611610826115e2565b9150819050919050565b7f46616c6c6f20616c20656e766961722063616e74696461640000000000000000600082015250565b6000611650601883611273565b915061165b8261161a565b602082019050919050565b6000602082019050818103600083015261167f81611643565b9050919050565b7f4f776e61626c653a206e6577206f776e657220697320746865207a65726f206160008201527f6464726573730000000000000000000000000000000000000000000000000000602082015250565b60006116e2602683611273565b91506116ed82611686565b604082019050919050565b60006020820190508181036000830152611711816116d5565b9050919050565b7f4f776e61626c653a2063616c6c6572206973206e6f7420746865206f776e6572600082015250565b600061174e602083611273565b915061175982611718565b602082019050919050565b6000602082019050818103600083015261177d81611741565b905091905056fea264697066735822122064d3eb45e1e009fda5b1fc96957af1124472c269c56d88eb166ba0db05ce973d64736f6c63430008120033",
					"opcodes": "PUSH1 0x80 PUSH1 0x40 MSTORE PUSH6 0xB5E620F48000 PUSH1 0x3 SSTORE CALLVALUE DUP1 ISZERO PUSH3 0x1B JUMPI PUSH1 0x0 DUP1 REVERT JUMPDEST POP PUSH1 0x40 MLOAD PUSH3 0x19EF CODESIZE SUB DUP1 PUSH3 0x19EF DUP4 CODECOPY DUP2 DUP2 ADD PUSH1 0x40 MSTORE DUP2 ADD SWAP1 PUSH3 0x41 SWAP2 SWAP1 PUSH3 0x1F3 JUMP JUMPDEST PUSH3 0x61 PUSH3 0x55 PUSH3 0xA9 PUSH1 0x20 SHL PUSH1 0x20 SHR JUMP JUMPDEST PUSH3 0xB1 PUSH1 0x20 SHL PUSH1 0x20 SHR JUMP JUMPDEST DUP1 PUSH1 0x4 PUSH1 0x0 PUSH2 0x100 EXP DUP2 SLOAD DUP2 PUSH20 0xFFFFFFFFFFFFFFFFFFFFFFFFFFFFFFFFFFFFFFFF MUL NOT AND SWAP1 DUP4 PUSH20 0xFFFFFFFFFFFFFFFFFFFFFFFFFFFFFFFFFFFFFFFF AND MUL OR SWAP1 SSTORE POP POP PUSH3 0x225 JUMP JUMPDEST PUSH1 0x0 CALLER SWAP1 POP SWAP1 JUMP JUMPDEST PUSH1 0x0 DUP1 PUSH1 0x0 SWAP1 SLOAD SWAP1 PUSH2 0x100 EXP SWAP1 DIV PUSH20 0xFFFFFFFFFFFFFFFFFFFFFFFFFFFFFFFFFFFFFFFF AND SWAP1 POP DUP2 PUSH1 0x0 DUP1 PUSH2 0x100 EXP DUP2 SLOAD DUP2 PUSH20 0xFFFFFFFFFFFFFFFFFFFFFFFFFFFFFFFFFFFFFFFF MUL NOT AND SWAP1 DUP4 PUSH20 0xFFFFFFFFFFFFFFFFFFFFFFFFFFFFFFFFFFFFFFFF AND MUL OR SWAP1 SSTORE POP DUP2 PUSH20 0xFFFFFFFFFFFFFFFFFFFFFFFFFFFFFFFFFFFFFFFF AND DUP2 PUSH20 0xFFFFFFFFFFFFFFFFFFFFFFFFFFFFFFFFFFFFFFFF AND PUSH32 0x8BE0079C531659141344CD1FD0A4F28419497F9722A3DAAFE3B4186F6B6457E0 PUSH1 0x40 MLOAD PUSH1 0x40 MLOAD DUP1 SWAP2 SUB SWAP1 LOG3 POP POP JUMP JUMPDEST PUSH1 0x0 DUP1 REVERT JUMPDEST PUSH1 0x0 PUSH20 0xFFFFFFFFFFFFFFFFFFFFFFFFFFFFFFFFFFFFFFFF DUP3 AND SWAP1 POP SWAP2 SWAP1 POP JUMP JUMPDEST PUSH1 0x0 PUSH3 0x1A7 DUP3 PUSH3 0x17A JUMP JUMPDEST SWAP1 POP SWAP2 SWAP1 POP JUMP JUMPDEST PUSH1 0x0 PUSH3 0x1BB DUP3 PUSH3 0x19A JUMP JUMPDEST SWAP1 POP SWAP2 SWAP1 POP JUMP JUMPDEST PUSH3 0x1CD DUP2 PUSH3 0x1AE JUMP JUMPDEST DUP2 EQ PUSH3 0x1D9 JUMPI PUSH1 0x0 DUP1 REVERT JUMPDEST POP JUMP JUMPDEST PUSH1 0x0 DUP2 MLOAD SWAP1 POP PUSH3 0x1ED DUP2 PUSH3 0x1C2 JUMP JUMPDEST SWAP3 SWAP2 POP POP JUMP JUMPDEST PUSH1 0x0 PUSH1 0x20 DUP3 DUP5 SUB SLT ISZERO PUSH3 0x20C JUMPI PUSH3 0x20B PUSH3 0x175 JUMP JUMPDEST JUMPDEST PUSH1 0x0 PUSH3 0x21C DUP5 DUP3 DUP6 ADD PUSH3 0x1DC JUMP JUMPDEST SWAP2 POP POP SWAP3 SWAP2 POP POP JUMP JUMPDEST PUSH2 0x17BA DUP1 PUSH3 0x235 PUSH1 0x0 CODECOPY PUSH1 0x0 RETURN INVALID PUSH1 0x80 PUSH1 0x40 MSTORE PUSH1 0x4 CALLDATASIZE LT PUSH2 0x91 JUMPI PUSH1 0x0 CALLDATALOAD PUSH1 0xE0 SHR DUP1 PUSH4 0x6EBC8C86 GT PUSH2 0x59 JUMPI DUP1 PUSH4 0x6EBC8C86 EQ PUSH2 0x15A JUMPI DUP1 PUSH4 0x715018A6 EQ PUSH2 0x197 JUMPI DUP1 PUSH4 0x7AA1469F EQ PUSH2 0x1AE JUMPI DUP1 PUSH4 0x8DA5CB5B EQ PUSH2 0x1C5 JUMPI DUP1 PUSH4 0xF2FDE38B EQ PUSH2 0x1F0 JUMPI PUSH2 0x91 JUMP JUMPDEST DUP1 PUSH4 0x5CE2B47 EQ PUSH2 0x96 JUMPI DUP1 PUSH4 0x13FAEDE6 EQ PUSH2 0xB2 JUMPI DUP1 PUSH4 0x3CEE4EDD EQ PUSH2 0xDD JUMPI DUP1 PUSH4 0x5001F3B5 EQ PUSH2 0x106 JUMPI DUP1 PUSH4 0x6A7AE27A EQ PUSH2 0x131 JUMPI JUMPDEST PUSH1 0x0 DUP1 REVERT JUMPDEST PUSH2 0xB0 PUSH1 0x4 DUP1 CALLDATASIZE SUB DUP2 ADD SWAP1 PUSH2 0xAB SWAP2 SWAP1 PUSH2 0xFF5 JUMP JUMPDEST PUSH2 0x219 JUMP JUMPDEST STOP JUMPDEST CALLVALUE DUP1 ISZERO PUSH2 0xBE JUMPI PUSH1 0x0 DUP1 REVERT JUMPDEST POP PUSH2 0xC7 PUSH2 0x637 JUMP JUMPDEST PUSH1 0x40 MLOAD PUSH2 0xD4 SWAP2 SWAP1 PUSH2 0x1031 JUMP JUMPDEST PUSH1 0x40 MLOAD DUP1 SWAP2 SUB SWAP1 RETURN JUMPDEST CALLVALUE DUP1 ISZERO PUSH2 0xE9 JUMPI PUSH1 0x0 DUP1 REVERT JUMPDEST POP PUSH2 0x104 PUSH1 0x4 DUP1 CALLDATASIZE SUB DUP2 ADD SWAP1 PUSH2 0xFF SWAP2 SWAP1 PUSH2 0x10AA JUMP JUMPDEST PUSH2 0x63D JUMP JUMPDEST STOP JUMPDEST CALLVALUE DUP1 ISZERO PUSH2 0x112 JUMPI PUSH1 0x0 DUP1 REVERT JUMPDEST POP PUSH2 0x11B PUSH2 0x8C7 JUMP JUMPDEST PUSH1 0x40 MLOAD PUSH2 0x128 SWAP2 SWAP1 PUSH2 0x1149 JUMP JUMPDEST PUSH1 0x40 MLOAD DUP1 SWAP2 SUB SWAP1 RETURN JUMPDEST CALLVALUE DUP1 ISZERO PUSH2 0x13D JUMPI PUSH1 0x0 DUP1 REVERT JUMPDEST POP PUSH2 0x158 PUSH1 0x4 DUP1 CALLDATASIZE SUB DUP2 ADD SWAP1 PUSH2 0x153 SWAP2 SWAP1 PUSH2 0x1164 JUMP JUMPDEST PUSH2 0x8ED JUMP JUMPDEST STOP JUMPDEST CALLVALUE DUP1 ISZERO PUSH2 0x166 JUMPI PUSH1 0x0 DUP1 REVERT JUMPDEST POP PUSH2 0x181 PUSH1 0x4 DUP1 CALLDATASIZE SUB DUP2 ADD SWAP1 PUSH2 0x17C SWAP2 SWAP1 PUSH2 0xFF5 JUMP JUMPDEST PUSH2 0xA57 JUMP JUMPDEST PUSH1 0x40 MLOAD PUSH2 0x18E SWAP2 SWAP1 PUSH2 0x11C6 JUMP JUMPDEST PUSH1 0x40 MLOAD DUP1 SWAP2 SUB SWAP1 RETURN JUMPDEST CALLVALUE DUP1 ISZERO PUSH2 0x1A3 JUMPI PUSH1 0x0 DUP1 REVERT JUMPDEST POP PUSH2 0x1AC PUSH2 0xC8B JUMP JUMPDEST STOP JUMPDEST CALLVALUE DUP1 ISZERO PUSH2 0x1BA JUMPI PUSH1 0x0 DUP1 REVERT JUMPDEST POP PUSH2 0x1C3 PUSH2 0xC9F JUMP JUMPDEST STOP JUMPDEST CALLVALUE DUP1 ISZERO PUSH2 0x1D1 JUMPI PUSH1 0x0 DUP1 REVERT JUMPDEST POP PUSH2 0x1DA PUSH2 0xDC4 JUMP JUMPDEST PUSH1 0x40 MLOAD PUSH2 0x1E7 SWAP2 SWAP1 PUSH2 0x11C6 JUMP JUMPDEST PUSH1 0x40 MLOAD DUP1 SWAP2 SUB SWAP1 RETURN JUMPDEST CALLVALUE DUP1 ISZERO PUSH2 0x1FC JUMPI PUSH1 0x0 DUP1 REVERT JUMPDEST POP PUSH2 0x217 PUSH1 0x4 DUP1 CALLDATASIZE SUB DUP2 ADD SWAP1 PUSH2 0x212 SWAP2 SWAP1 PUSH2 0x11E1 JUMP JUMPDEST PUSH2 0xDED JUMP JUMPDEST STOP JUMPDEST PUSH1 0x4 PUSH1 0x0 SWAP1 SLOAD SWAP1 PUSH2 0x100 EXP SWAP1 DIV PUSH20 0xFFFFFFFFFFFFFFFFFFFFFFFFFFFFFFFFFFFFFFFF AND PUSH20 0xFFFFFFFFFFFFFFFFFFFFFFFFFFFFFFFFFFFFFFFF AND PUSH4 0x5A65CF95 CALLER PUSH1 0x40 MLOAD DUP3 PUSH4 0xFFFFFFFF AND PUSH1 0xE0 SHL DUP2 MSTORE PUSH1 0x4 ADD PUSH2 0x274 SWAP2 SWAP1 PUSH2 0x11C6 JUMP JUMPDEST PUSH1 0x20 PUSH1 0x40 MLOAD DUP1 DUP4 SUB DUP2 DUP7 GAS STATICCALL ISZERO DUP1 ISZERO PUSH2 0x291 JUMPI RETURNDATASIZE PUSH1 0x0 DUP1 RETURNDATACOPY RETURNDATASIZE PUSH1 0x0 REVERT JUMPDEST POP POP POP POP PUSH1 0x40 MLOAD RETURNDATASIZE PUSH1 0x1F NOT PUSH1 0x1F DUP3 ADD AND DUP3 ADD DUP1 PUSH1 0x40 MSTORE POP DUP2 ADD SWAP1 PUSH2 0x2B5 SWAP2 SWAP1 PUSH2 0x1246 JUMP JUMPDEST PUSH2 0x2F4 JUMPI PUSH1 0x40 MLOAD PUSH32 0x8C379A000000000000000000000000000000000000000000000000000000000 DUP2 MSTORE PUSH1 0x4 ADD PUSH2 0x2EB SWAP1 PUSH2 0x12D0 JUMP JUMPDEST PUSH1 0x40 MLOAD DUP1 SWAP2 SUB SWAP1 REVERT JUMPDEST PUSH1 0x0 PUSH1 0x1 PUSH1 0x0 CALLER PUSH20 0xFFFFFFFFFFFFFFFFFFFFFFFFFFFFFFFFFFFFFFFF AND PUSH20 0xFFFFFFFFFFFFFFFFFFFFFFFFFFFFFFFFFFFFFFFF AND DUP2 MSTORE PUSH1 0x20 ADD SWAP1 DUP2 MSTORE PUSH1 0x20 ADD PUSH1 0x0 KECCAK256 PUSH1 0x0 DUP4 DUP2 MSTORE PUSH1 0x20 ADD SWAP1 DUP2 MSTORE PUSH1 0x20 ADD PUSH1 0x0 KECCAK256 SLOAD SUB PUSH2 0x424 JUMPI PUSH1 0x3 SLOAD CALLVALUE LT ISZERO PUSH2 0x391 JUMPI PUSH1 0x40 MLOAD PUSH32 0x8C379A000000000000000000000000000000000000000000000000000000000 DUP2 MSTORE PUSH1 0x4 ADD PUSH2 0x388 SWAP1 PUSH2 0x133C JUMP JUMPDEST PUSH1 0x40 MLOAD DUP1 SWAP2 SUB SWAP1 REVERT JUMPDEST CALLVALUE PUSH1 0x1 PUSH1 0x0 CALLER PUSH20 0xFFFFFFFFFFFFFFFFFFFFFFFFFFFFFFFFFFFFFFFF AND PUSH20 0xFFFFFFFFFFFFFFFFFFFFFFFFFFFFFFFFFFFFFFFF AND DUP2 MSTORE PUSH1 0x20 ADD SWAP1 DUP2 MSTORE PUSH1 0x20 ADD PUSH1 0x0 KECCAK256 PUSH1 0x0 DUP4 DUP2 MSTORE PUSH1 0x20 ADD SWAP1 DUP2 MSTORE PUSH1 0x20 ADD PUSH1 0x0 KECCAK256 DUP2 SWAP1 SSTORE POP PUSH32 0x7BE9078CFA949E4B9E15888282E2A07A7FAE4958503C18C81DB93C5D41352497 CALLER DUP3 PUSH1 0x40 MLOAD PUSH2 0x417 SWAP3 SWAP2 SWAP1 PUSH2 0x135C JUMP JUMPDEST PUSH1 0x40 MLOAD DUP1 SWAP2 SUB SWAP1 LOG1 PUSH2 0x634 JUMP JUMPDEST PUSH1 0x0 PUSH20 0xFFFFFFFFFFFFFFFFFFFFFFFFFFFFFFFFFFFFFFFF AND PUSH1 0x2 PUSH1 0x0 CALLER PUSH20 0xFFFFFFFFFFFFFFFFFFFFFFFFFFFFFFFFFFFFFFFF AND PUSH20 0xFFFFFFFFFFFFFFFFFFFFFFFFFFFFFFFFFFFFFFFF AND DUP2 MSTORE PUSH1 0x20 ADD SWAP1 DUP2 MSTORE PUSH1 0x20 ADD PUSH1 0x0 KECCAK256 PUSH1 0x0 DUP4 DUP2 MSTORE PUSH1 0x20 ADD SWAP1 DUP2 MSTORE PUSH1 0x20 ADD PUSH1 0x0 KECCAK256 PUSH1 0x0 SWAP1 SLOAD SWAP1 PUSH2 0x100 EXP SWAP1 DIV PUSH20 0xFFFFFFFFFFFFFFFFFFFFFFFFFFFFFFFFFFFFFFFF AND PUSH20 0xFFFFFFFFFFFFFFFFFFFFFFFFFFFFFFFFFFFFFFFF AND SUB PUSH2 0x54D JUMPI CALLER PUSH20 0xFFFFFFFFFFFFFFFFFFFFFFFFFFFFFFFFFFFFFFFF AND PUSH2 0x8FC CALLVALUE SWAP1 DUP2 ISZERO MUL SWAP1 PUSH1 0x40 MLOAD PUSH1 0x0 PUSH1 0x40 MLOAD DUP1 DUP4 SUB DUP2 DUP6 DUP9 DUP9 CALL SWAP4 POP POP POP POP ISZERO DUP1 ISZERO PUSH2 0x50E JUMPI RETURNDATASIZE PUSH1 0x0 DUP1 RETURNDATACOPY RETURNDATASIZE PUSH1 0x0 REVERT JUMPDEST POP PUSH32 0x7BE9078CFA949E4B9E15888282E2A07A7FAE4958503C18C81DB93C5D41352497 CALLER DUP3 PUSH1 0x40 MLOAD PUSH2 0x540 SWAP3 SWAP2 SWAP1 PUSH2 0x135C JUMP JUMPDEST PUSH1 0x40 MLOAD DUP1 SWAP2 SUB SWAP1 LOG1 PUSH2 0x633 JUMP JUMPDEST PUSH32 0xF7CCEB5B8900763DB0B46908960ABF22A5D055A4A7395B6B83862D93F241D21 CALLER DUP3 PUSH1 0x2 PUSH1 0x0 CALLER PUSH20 0xFFFFFFFFFFFFFFFFFFFFFFFFFFFFFFFFFFFFFFFF AND PUSH20 0xFFFFFFFFFFFFFFFFFFFFFFFFFFFFFFFFFFFFFFFF AND DUP2 MSTORE PUSH1 0x20 ADD SWAP1 DUP2 MSTORE PUSH1 0x20 ADD PUSH1 0x0 KECCAK256 PUSH1 0x0 DUP6 DUP2 MSTORE PUSH1 0x20 ADD SWAP1 DUP2 MSTORE PUSH1 0x20 ADD PUSH1 0x0 KECCAK256 PUSH1 0x0 SWAP1 SLOAD SWAP1 PUSH2 0x100 EXP SWAP1 DIV PUSH20 0xFFFFFFFFFFFFFFFFFFFFFFFFFFFFFFFFFFFFFFFF AND PUSH1 0x40 MLOAD PUSH2 0x5F0 SWAP4 SWAP3 SWAP2 SWAP1 PUSH2 0x1385 JUMP JUMPDEST PUSH1 0x40 MLOAD DUP1 SWAP2 SUB SWAP1 LOG1 PUSH1 0x40 MLOAD PUSH32 0x8C379A000000000000000000000000000000000000000000000000000000000 DUP2 MSTORE PUSH1 0x4 ADD PUSH2 0x62A SWAP1 PUSH2 0x1408 JUMP JUMPDEST PUSH1 0x40 MLOAD DUP1 SWAP2 SUB SWAP1 REVERT JUMPDEST JUMPDEST POP JUMP JUMPDEST PUSH1 0x3 SLOAD DUP2 JUMP JUMPDEST PUSH1 0x4 PUSH1 0x0 SWAP1 SLOAD SWAP1 PUSH2 0x100 EXP SWAP1 DIV PUSH20 0xFFFFFFFFFFFFFFFFFFFFFFFFFFFFFFFFFFFFFFFF AND PUSH20 0xFFFFFFFFFFFFFFFFFFFFFFFFFFFFFFFFFFFFFFFF AND PUSH4 0x5A65CF95 DUP4 PUSH1 0x40 MLOAD DUP3 PUSH4 0xFFFFFFFF AND PUSH1 0xE0 SHL DUP2 MSTORE PUSH1 0x4 ADD PUSH2 0x698 SWAP2 SWAP1 PUSH2 0x11C6 JUMP JUMPDEST PUSH1 0x20 PUSH1 0x40 MLOAD DUP1 DUP4 SUB DUP2 DUP7 GAS STATICCALL ISZERO DUP1 ISZERO PUSH2 0x6B5 JUMPI RETURNDATASIZE PUSH1 0x0 DUP1 RETURNDATACOPY RETURNDATASIZE PUSH1 0x0 REVERT JUMPDEST POP POP POP POP PUSH1 0x40 MLOAD RETURNDATASIZE PUSH1 0x1F NOT PUSH1 0x1F DUP3 ADD AND DUP3 ADD DUP1 PUSH1 0x40 MSTORE POP DUP2 ADD SWAP1 PUSH2 0x6D9 SWAP2 SWAP1 PUSH2 0x1246 JUMP JUMPDEST PUSH2 0x718 JUMPI PUSH1 0x40 MLOAD PUSH32 0x8C379A000000000000000000000000000000000000000000000000000000000 DUP2 MSTORE PUSH1 0x4 ADD PUSH2 0x70F SWAP1 PUSH2 0x12D0 JUMP JUMPDEST PUSH1 0x40 MLOAD DUP1 SWAP2 SUB SWAP1 REVERT JUMPDEST PUSH1 0x0 PUSH1 0x1 PUSH1 0x0 DUP5 PUSH20 0xFFFFFFFFFFFFFFFFFFFFFFFFFFFFFFFFFFFFFFFF AND PUSH20 0xFFFFFFFFFFFFFFFFFFFFFFFFFFFFFFFFFFFFFFFF AND DUP2 MSTORE PUSH1 0x20 ADD SWAP1 DUP2 MSTORE PUSH1 0x20 ADD PUSH1 0x0 KECCAK256 PUSH1 0x0 DUP4 DUP2 MSTORE PUSH1 0x20 ADD SWAP1 DUP2 MSTORE PUSH1 0x20 ADD PUSH1 0x0 KECCAK256 SLOAD SUB PUSH2 0x7AB JUMPI PUSH1 0x40 MLOAD PUSH32 0x8C379A000000000000000000000000000000000000000000000000000000000 DUP2 MSTORE PUSH1 0x4 ADD PUSH2 0x7A2 SWAP1 PUSH2 0x149A JUMP JUMPDEST PUSH1 0x40 MLOAD DUP1 SWAP2 SUB SWAP1 REVERT JUMPDEST PUSH1 0x0 PUSH20 0xFFFFFFFFFFFFFFFFFFFFFFFFFFFFFFFFFFFFFFFF AND PUSH1 0x2 PUSH1 0x0 DUP5 PUSH20 0xFFFFFFFFFFFFFFFFFFFFFFFFFFFFFFFFFFFFFFFF AND PUSH20 0xFFFFFFFFFFFFFFFFFFFFFFFFFFFFFFFFFFFFFFFF AND DUP2 MSTORE PUSH1 0x20 ADD SWAP1 DUP2 MSTORE PUSH1 0x20 ADD PUSH1 0x0 KECCAK256 PUSH1 0x0 DUP4 DUP2 MSTORE PUSH1 0x20 ADD SWAP1 DUP2 MSTORE PUSH1 0x20 ADD PUSH1 0x0 KECCAK256 PUSH1 0x0 SWAP1 SLOAD SWAP1 PUSH2 0x100 EXP SWAP1 DIV PUSH20 0xFFFFFFFFFFFFFFFFFFFFFFFFFFFFFFFFFFFFFFFF AND PUSH20 0xFFFFFFFFFFFFFFFFFFFFFFFFFFFFFFFFFFFFFFFF AND EQ PUSH2 0x88A JUMPI PUSH1 0x40 MLOAD PUSH32 0x8C379A000000000000000000000000000000000000000000000000000000000 DUP2 MSTORE PUSH1 0x4 ADD PUSH2 0x881 SWAP1 PUSH2 0x1506 JUMP JUMPDEST PUSH1 0x40 MLOAD DUP1 SWAP2 SUB SWAP1 REVERT JUMPDEST PUSH32 0x7BE9078CFA949E4B9E15888282E2A07A7FAE4958503C18C81DB93C5D41352497 DUP3 DUP3 PUSH1 0x40 MLOAD PUSH2 0x8BB SWAP3 SWAP2 SWAP1 PUSH2 0x135C JUMP JUMPDEST PUSH1 0x40 MLOAD DUP1 SWAP2 SUB SWAP1 LOG1 POP POP JUMP JUMPDEST PUSH1 0x4 PUSH1 0x0 SWAP1 SLOAD SWAP1 PUSH2 0x100 EXP SWAP1 DIV PUSH20 0xFFFFFFFFFFFFFFFFFFFFFFFFFFFFFFFFFFFFFFFF AND DUP2 JUMP JUMPDEST PUSH2 0x8F5 PUSH2 0xE70 JUMP JUMPDEST PUSH1 0x0 PUSH1 0x1 PUSH1 0x0 DUP6 PUSH20 0xFFFFFFFFFFFFFFFFFFFFFFFFFFFFFFFFFFFFFFFF AND PUSH20 0xFFFFFFFFFFFFFFFFFFFFFFFFFFFFFFFFFFFFFFFF AND DUP2 MSTORE PUSH1 0x20 ADD SWAP1 DUP2 MSTORE PUSH1 0x20 ADD PUSH1 0x0 KECCAK256 PUSH1 0x0 DUP5 DUP2 MSTORE PUSH1 0x20 ADD SWAP1 DUP2 MSTORE PUSH1 0x20 ADD PUSH1 0x0 KECCAK256 SLOAD SUB PUSH2 0x988 JUMPI PUSH1 0x40 MLOAD PUSH32 0x8C379A000000000000000000000000000000000000000000000000000000000 DUP2 MSTORE PUSH1 0x4 ADD PUSH2 0x97F SWAP1 PUSH2 0x1572 JUMP JUMPDEST PUSH1 0x40 MLOAD DUP1 SWAP2 SUB SWAP1 REVERT JUMPDEST DUP1 PUSH1 0x2 PUSH1 0x0 DUP6 PUSH20 0xFFFFFFFFFFFFFFFFFFFFFFFFFFFFFFFFFFFFFFFF AND PUSH20 0xFFFFFFFFFFFFFFFFFFFFFFFFFFFFFFFFFFFFFFFF AND DUP2 MSTORE PUSH1 0x20 ADD SWAP1 DUP2 MSTORE PUSH1 0x20 ADD PUSH1 0x0 KECCAK256 PUSH1 0x0 DUP5 DUP2 MSTORE PUSH1 0x20 ADD SWAP1 DUP2 MSTORE PUSH1 0x20 ADD PUSH1 0x0 KECCAK256 PUSH1 0x0 PUSH2 0x100 EXP DUP2 SLOAD DUP2 PUSH20 0xFFFFFFFFFFFFFFFFFFFFFFFFFFFFFFFFFFFFFFFF MUL NOT AND SWAP1 DUP4 PUSH20 0xFFFFFFFFFFFFFFFFFFFFFFFFFFFFFFFFFFFFFFFF AND MUL OR SWAP1 SSTORE POP PUSH32 0xF7CCEB5B8900763DB0B46908960ABF22A5D055A4A7395B6B83862D93F241D21 DUP4 DUP4 DUP4 PUSH1 0x40 MLOAD PUSH2 0xA4A SWAP4 SWAP3 SWAP2 SWAP1 PUSH2 0x1385 JUMP JUMPDEST PUSH1 0x40 MLOAD DUP1 SWAP2 SUB SWAP1 LOG1 POP POP POP JUMP JUMPDEST PUSH1 0x0 PUSH1 0x4 PUSH1 0x0 SWAP1 SLOAD SWAP1 PUSH2 0x100 EXP SWAP1 DIV PUSH20 0xFFFFFFFFFFFFFFFFFFFFFFFFFFFFFFFFFFFFFFFF AND PUSH20 0xFFFFFFFFFFFFFFFFFFFFFFFFFFFFFFFFFFFFFFFF AND PUSH4 0x5A65CF95 CALLER PUSH1 0x40 MLOAD DUP3 PUSH4 0xFFFFFFFF AND PUSH1 0xE0 SHL DUP2 MSTORE PUSH1 0x4 ADD PUSH2 0xAB4 SWAP2 SWAP1 PUSH2 0x11C6 JUMP JUMPDEST PUSH1 0x20 PUSH1 0x40 MLOAD DUP1 DUP4 SUB DUP2 DUP7 GAS STATICCALL ISZERO DUP1 ISZERO PUSH2 0xAD1 JUMPI RETURNDATASIZE PUSH1 0x0 DUP1 RETURNDATACOPY RETURNDATASIZE PUSH1 0x0 REVERT JUMPDEST POP POP POP POP PUSH1 0x40 MLOAD RETURNDATASIZE PUSH1 0x1F NOT PUSH1 0x1F DUP3 ADD AND DUP3 ADD DUP1 PUSH1 0x40 MSTORE POP DUP2 ADD SWAP1 PUSH2 0xAF5 SWAP2 SWAP1 PUSH2 0x1246 JUMP JUMPDEST PUSH2 0xB34 JUMPI PUSH1 0x40 MLOAD PUSH32 0x8C379A000000000000000000000000000000000000000000000000000000000 DUP2 MSTORE PUSH1 0x4 ADD PUSH2 0xB2B SWAP1 PUSH2 0x12D0 JUMP JUMPDEST PUSH1 0x40 MLOAD DUP1 SWAP2 SUB SWAP1 REVERT JUMPDEST PUSH1 0x0 PUSH20 0xFFFFFFFFFFFFFFFFFFFFFFFFFFFFFFFFFFFFFFFF AND PUSH1 0x2 PUSH1 0x0 CALLER PUSH20 0xFFFFFFFFFFFFFFFFFFFFFFFFFFFFFFFFFFFFFFFF AND PUSH20 0xFFFFFFFFFFFFFFFFFFFFFFFFFFFFFFFFFFFFFFFF AND DUP2 MSTORE PUSH1 0x20 ADD SWAP1 DUP2 MSTORE PUSH1 0x20 ADD PUSH1 0x0 KECCAK256 PUSH1 0x0 DUP5 DUP2 MSTORE PUSH1 0x20 ADD SWAP1 DUP2 MSTORE PUSH1 0x20 ADD PUSH1 0x0 KECCAK256 PUSH1 0x0 SWAP1 SLOAD SWAP1 PUSH2 0x100 EXP SWAP1 DIV PUSH20 0xFFFFFFFFFFFFFFFFFFFFFFFFFFFFFFFFFFFFFFFF AND PUSH20 0xFFFFFFFFFFFFFFFFFFFFFFFFFFFFFFFFFFFFFFFF AND SUB PUSH2 0xC13 JUMPI PUSH1 0x40 MLOAD PUSH32 0x8C379A000000000000000000000000000000000000000000000000000000000 DUP2 MSTORE PUSH1 0x4 ADD PUSH2 0xC0A SWAP1 PUSH2 0x1572 JUMP JUMPDEST PUSH1 0x40 MLOAD DUP1 SWAP2 SUB SWAP1 REVERT JUMPDEST PUSH1 0x2 PUSH1 0x0 CALLER PUSH20 0xFFFFFFFFFFFFFFFFFFFFFFFFFFFFFFFFFFFFFFFF AND PUSH20 0xFFFFFFFFFFFFFFFFFFFFFFFFFFFFFFFFFFFFFFFF AND DUP2 MSTORE PUSH1 0x20 ADD SWAP1 DUP2 MSTORE PUSH1 0x20 ADD PUSH1 0x0 KECCAK256 PUSH1 0x0 DUP4 DUP2 MSTORE PUSH1 0x20 ADD SWAP1 DUP2 MSTORE PUSH1 0x20 ADD PUSH1 0x0 KECCAK256 PUSH1 0x0 SWAP1 SLOAD SWAP1 PUSH2 0x100 EXP SWAP1 DIV PUSH20 0xFFFFFFFFFFFFFFFFFFFFFFFFFFFFFFFFFFFFFFFF AND SWAP1 POP SWAP2 SWAP1 POP JUMP JUMPDEST PUSH2 0xC93 PUSH2 0xE70 JUMP JUMPDEST PUSH2 0xC9D PUSH1 0x0 PUSH2 0xEEE JUMP JUMPDEST JUMP JUMPDEST PUSH2 0xCA7 PUSH2 0xE70 JUMP JUMPDEST PUSH1 0x0 ADDRESS PUSH20 0xFFFFFFFFFFFFFFFFFFFFFFFFFFFFFFFFFFFFFFFF AND PUSH4 0x8DA5CB5B PUSH1 0x40 MLOAD DUP2 PUSH4 0xFFFFFFFF AND PUSH1 0xE0 SHL DUP2 MSTORE PUSH1 0x4 ADD PUSH1 0x20 PUSH1 0x40 MLOAD DUP1 DUP4 SUB DUP2 DUP7 GAS STATICCALL ISZERO DUP1 ISZERO PUSH2 0xCF4 JUMPI RETURNDATASIZE PUSH1 0x0 DUP1 RETURNDATACOPY RETURNDATASIZE PUSH1 0x0 REVERT JUMPDEST POP POP POP POP PUSH1 0x40 MLOAD RETURNDATASIZE PUSH1 0x1F NOT PUSH1 0x1F DUP3 ADD AND DUP3 ADD DUP1 PUSH1 0x40 MSTORE POP DUP2 ADD SWAP1 PUSH2 0xD18 SWAP2 SWAP1 PUSH2 0x15A7 JUMP JUMPDEST PUSH20 0xFFFFFFFFFFFFFFFFFFFFFFFFFFFFFFFFFFFFFFFF AND SELFBALANCE PUSH1 0x40 MLOAD PUSH2 0xD3B SWAP1 PUSH2 0x1605 JUMP JUMPDEST PUSH1 0x0 PUSH1 0x40 MLOAD DUP1 DUP4 SUB DUP2 DUP6 DUP8 GAS CALL SWAP3 POP POP POP RETURNDATASIZE DUP1 PUSH1 0x0 DUP2 EQ PUSH2 0xD78 JUMPI PUSH1 0x40 MLOAD SWAP2 POP PUSH1 0x1F NOT PUSH1 0x3F RETURNDATASIZE ADD AND DUP3 ADD PUSH1 0x40 MSTORE RETURNDATASIZE DUP3 MSTORE RETURNDATASIZE PUSH1 0x0 PUSH1 0x20 DUP5 ADD RETURNDATACOPY PUSH2 0xD7D JUMP JUMPDEST PUSH1 0x60 SWAP2 POP JUMPDEST POP POP SWAP1 POP DUP1 PUSH2 0xDC1 JUMPI PUSH1 0x40 MLOAD PUSH32 0x8C379A000000000000000000000000000000000000000000000000000000000 DUP2 MSTORE PUSH1 0x4 ADD PUSH2 0xDB8 SWAP1 PUSH2 0x1666 JUMP JUMPDEST PUSH1 0x40 MLOAD DUP1 SWAP2 SUB SWAP1 REVERT JUMPDEST POP JUMP JUMPDEST PUSH1 0x0 DUP1 PUSH1 0x0 SWAP1 SLOAD SWAP1 PUSH2 0x100 EXP SWAP1 DIV PUSH20 0xFFFFFFFFFFFFFFFFFFFFFFFFFFFFFFFFFFFFFFFF AND SWAP1 POP SWAP1 JUMP JUMPDEST PUSH2 0xDF5 PUSH2 0xE70 JUMP JUMPDEST PUSH1 0x0 PUSH20 0xFFFFFFFFFFFFFFFFFFFFFFFFFFFFFFFFFFFFFFFF AND DUP2 PUSH20 0xFFFFFFFFFFFFFFFFFFFFFFFFFFFFFFFFFFFFFFFF AND SUB PUSH2 0xE64 JUMPI PUSH1 0x40 MLOAD PUSH32 0x8C379A000000000000000000000000000000000000000000000000000000000 DUP2 MSTORE PUSH1 0x4 ADD PUSH2 0xE5B SWAP1 PUSH2 0x16F8 JUMP JUMPDEST PUSH1 0x40 MLOAD DUP1 SWAP2 SUB SWAP1 REVERT JUMPDEST PUSH2 0xE6D DUP2 PUSH2 0xEEE JUMP JUMPDEST POP JUMP JUMPDEST PUSH2 0xE78 PUSH2 0xFB2 JUMP JUMPDEST PUSH20 0xFFFFFFFFFFFFFFFFFFFFFFFFFFFFFFFFFFFFFFFF AND PUSH2 0xE96 PUSH2 0xDC4 JUMP JUMPDEST PUSH20 0xFFFFFFFFFFFFFFFFFFFFFFFFFFFFFFFFFFFFFFFF AND EQ PUSH2 0xEEC JUMPI PUSH1 0x40 MLOAD PUSH32 0x8C379A000000000000000000000000000000000000000000000000000000000 DUP2 MSTORE PUSH1 0x4 ADD PUSH2 0xEE3 SWAP1 PUSH2 0x1764 JUMP JUMPDEST PUSH1 0x40 MLOAD DUP1 SWAP2 SUB SWAP1 REVERT JUMPDEST JUMP JUMPDEST PUSH1 0x0 DUP1 PUSH1 0x0 SWAP1 SLOAD SWAP1 PUSH2 0x100 EXP SWAP1 DIV PUSH20 0xFFFFFFFFFFFFFFFFFFFFFFFFFFFFFFFFFFFFFFFF AND SWAP1 POP DUP2 PUSH1 0x0 DUP1 PUSH2 0x100 EXP DUP2 SLOAD DUP2 PUSH20 0xFFFFFFFFFFFFFFFFFFFFFFFFFFFFFFFFFFFFFFFF MUL NOT AND SWAP1 DUP4 PUSH20 0xFFFFFFFFFFFFFFFFFFFFFFFFFFFFFFFFFFFFFFFF AND MUL OR SWAP1 SSTORE POP DUP2 PUSH20 0xFFFFFFFFFFFFFFFFFFFFFFFFFFFFFFFFFFFFFFFF AND DUP2 PUSH20 0xFFFFFFFFFFFFFFFFFFFFFFFFFFFFFFFFFFFFFFFF AND PUSH32 0x8BE0079C531659141344CD1FD0A4F28419497F9722A3DAAFE3B4186F6B6457E0 PUSH1 0x40 MLOAD PUSH1 0x40 MLOAD DUP1 SWAP2 SUB SWAP1 LOG3 POP POP JUMP JUMPDEST PUSH1 0x0 CALLER SWAP1 POP SWAP1 JUMP JUMPDEST PUSH1 0x0 DUP1 REVERT JUMPDEST PUSH1 0x0 DUP2 SWAP1 POP SWAP2 SWAP1 POP JUMP JUMPDEST PUSH2 0xFD2 DUP2 PUSH2 0xFBF JUMP JUMPDEST DUP2 EQ PUSH2 0xFDD JUMPI PUSH1 0x0 DUP1 REVERT JUMPDEST POP JUMP JUMPDEST PUSH1 0x0 DUP2 CALLDATALOAD SWAP1 POP PUSH2 0xFEF DUP2 PUSH2 0xFC9 JUMP JUMPDEST SWAP3 SWAP2 POP POP JUMP JUMPDEST PUSH1 0x0 PUSH1 0x20 DUP3 DUP5 SUB SLT ISZERO PUSH2 0x100B JUMPI PUSH2 0x100A PUSH2 0xFBA JUMP JUMPDEST JUMPDEST PUSH1 0x0 PUSH2 0x1019 DUP5 DUP3 DUP6 ADD PUSH2 0xFE0 JUMP JUMPDEST SWAP2 POP POP SWAP3 SWAP2 POP POP JUMP JUMPDEST PUSH2 0x102B DUP2 PUSH2 0xFBF JUMP JUMPDEST DUP3 MSTORE POP POP JUMP JUMPDEST PUSH1 0x0 PUSH1 0x20 DUP3 ADD SWAP1 POP PUSH2 0x1046 PUSH1 0x0 DUP4 ADD DUP5 PUSH2 0x1022 JUMP JUMPDEST SWAP3 SWAP2 POP POP JUMP JUMPDEST PUSH1 0x0 PUSH20 0xFFFFFFFFFFFFFFFFFFFFFFFFFFFFFFFFFFFFFFFF DUP3 AND SWAP1 POP SWAP2 SWAP1 POP JUMP JUMPDEST PUSH1 0x0 PUSH2 0x1077 DUP3 PUSH2 0x104C JUMP JUMPDEST SWAP1 POP SWAP2 SWAP1 POP JUMP JUMPDEST PUSH2 0x1087 DUP2 PUSH2 0x106C JUMP JUMPDEST DUP2 EQ PUSH2 0x1092 JUMPI PUSH1 0x0 DUP1 REVERT JUMPDEST POP JUMP JUMPDEST PUSH1 0x0 DUP2 CALLDATALOAD SWAP1 POP PUSH2 0x10A4 DUP2 PUSH2 0x107E JUMP JUMPDEST SWAP3 SWAP2 POP POP JUMP JUMPDEST PUSH1 0x0 DUP1 PUSH1 0x40 DUP4 DUP6 SUB SLT ISZERO PUSH2 0x10C1 JUMPI PUSH2 0x10C0 PUSH2 0xFBA JUMP JUMPDEST JUMPDEST PUSH1 0x0 PUSH2 0x10CF DUP6 DUP3 DUP7 ADD PUSH2 0x1095 JUMP JUMPDEST SWAP3 POP POP PUSH1 0x20 PUSH2 0x10E0 DUP6 DUP3 DUP7 ADD PUSH2 0xFE0 JUMP JUMPDEST SWAP2 POP POP SWAP3 POP SWAP3 SWAP1 POP JUMP JUMPDEST PUSH1 0x0 DUP2 SWAP1 POP SWAP2 SWAP1 POP JUMP JUMPDEST PUSH1 0x0 PUSH2 0x110F PUSH2 0x110A PUSH2 0x1105 DUP5 PUSH2 0x104C JUMP JUMPDEST PUSH2 0x10EA JUMP JUMPDEST PUSH2 0x104C JUMP JUMPDEST SWAP1 POP SWAP2 SWAP1 POP JUMP JUMPDEST PUSH1 0x0 PUSH2 0x1121 DUP3 PUSH2 0x10F4 JUMP JUMPDEST SWAP1 POP SWAP2 SWAP1 POP JUMP JUMPDEST PUSH1 0x0 PUSH2 0x1133 DUP3 PUSH2 0x1116 JUMP JUMPDEST SWAP1 POP SWAP2 SWAP1 POP JUMP JUMPDEST PUSH2 0x1143 DUP2 PUSH2 0x1128 JUMP JUMPDEST DUP3 MSTORE POP POP JUMP JUMPDEST PUSH1 0x0 PUSH1 0x20 DUP3 ADD SWAP1 POP PUSH2 0x115E PUSH1 0x0 DUP4 ADD DUP5 PUSH2 0x113A JUMP JUMPDEST SWAP3 SWAP2 POP POP JUMP JUMPDEST PUSH1 0x0 DUP1 PUSH1 0x0 PUSH1 0x60 DUP5 DUP7 SUB SLT ISZERO PUSH2 0x117D JUMPI PUSH2 0x117C PUSH2 0xFBA JUMP JUMPDEST JUMPDEST PUSH1 0x0 PUSH2 0x118B DUP7 DUP3 DUP8 ADD PUSH2 0x1095 JUMP JUMPDEST SWAP4 POP POP PUSH1 0x20 PUSH2 0x119C DUP7 DUP3 DUP8 ADD PUSH2 0xFE0 JUMP JUMPDEST SWAP3 POP POP PUSH1 0x40 PUSH2 0x11AD DUP7 DUP3 DUP8 ADD PUSH2 0x1095 JUMP JUMPDEST SWAP2 POP POP SWAP3 POP SWAP3 POP SWAP3 JUMP JUMPDEST PUSH2 0x11C0 DUP2 PUSH2 0x106C JUMP JUMPDEST DUP3 MSTORE POP POP JUMP JUMPDEST PUSH1 0x0 PUSH1 0x20 DUP3 ADD SWAP1 POP PUSH2 0x11DB PUSH1 0x0 DUP4 ADD DUP5 PUSH2 0x11B7 JUMP JUMPDEST SWAP3 SWAP2 POP POP JUMP JUMPDEST PUSH1 0x0 PUSH1 0x20 DUP3 DUP5 SUB SLT ISZERO PUSH2 0x11F7 JUMPI PUSH2 0x11F6 PUSH2 0xFBA JUMP JUMPDEST JUMPDEST PUSH1 0x0 PUSH2 0x1205 DUP5 DUP3 DUP6 ADD PUSH2 0x1095 JUMP JUMPDEST SWAP2 POP POP SWAP3 SWAP2 POP POP JUMP JUMPDEST PUSH1 0x0 DUP2 ISZERO ISZERO SWAP1 POP SWAP2 SWAP1 POP JUMP JUMPDEST PUSH2 0x1223 DUP2 PUSH2 0x120E JUMP JUMPDEST DUP2 EQ PUSH2 0x122E JUMPI PUSH1 0x0 DUP1 REVERT JUMPDEST POP JUMP JUMPDEST PUSH1 0x0 DUP2 MLOAD SWAP1 POP PUSH2 0x1240 DUP2 PUSH2 0x121A JUMP JUMPDEST SWAP3 SWAP2 POP POP JUMP JUMPDEST PUSH1 0x0 PUSH1 0x20 DUP3 DUP5 SUB SLT ISZERO PUSH2 0x125C JUMPI PUSH2 0x125B PUSH2 0xFBA JUMP JUMPDEST JUMPDEST PUSH1 0x0 PUSH2 0x126A DUP5 DUP3 DUP6 ADD PUSH2 0x1231 JUMP JUMPDEST SWAP2 POP POP SWAP3 SWAP2 POP POP JUMP JUMPDEST PUSH1 0x0 DUP3 DUP3 MSTORE PUSH1 0x20 DUP3 ADD SWAP1 POP SWAP3 SWAP2 POP POP JUMP JUMPDEST PUSH32 0x4E6F206572657320756E206A756761646F720000000000000000000000000000 PUSH1 0x0 DUP3 ADD MSTORE POP JUMP JUMPDEST PUSH1 0x0 PUSH2 0x12BA PUSH1 0x12 DUP4 PUSH2 0x1273 JUMP JUMPDEST SWAP2 POP PUSH2 0x12C5 DUP3 PUSH2 0x1284 JUMP JUMPDEST PUSH1 0x20 DUP3 ADD SWAP1 POP SWAP2 SWAP1 POP JUMP JUMPDEST PUSH1 0x0 PUSH1 0x20 DUP3 ADD SWAP1 POP DUP2 DUP2 SUB PUSH1 0x0 DUP4 ADD MSTORE PUSH2 0x12E9 DUP2 PUSH2 0x12AD JUMP JUMPDEST SWAP1 POP SWAP2 SWAP1 POP JUMP JUMPDEST PUSH32 0x4E6F206861732070616761646F206C6F20737566696369656E74650000000000 PUSH1 0x0 DUP3 ADD MSTORE POP JUMP JUMPDEST PUSH1 0x0 PUSH2 0x1326 PUSH1 0x1B DUP4 PUSH2 0x1273 JUMP JUMPDEST SWAP2 POP PUSH2 0x1331 DUP3 PUSH2 0x12F0 JUMP JUMPDEST PUSH1 0x20 DUP3 ADD SWAP1 POP SWAP2 SWAP1 POP JUMP JUMPDEST PUSH1 0x0 PUSH1 0x20 DUP3 ADD SWAP1 POP DUP2 DUP2 SUB PUSH1 0x0 DUP4 ADD MSTORE PUSH2 0x1355 DUP2 PUSH2 0x1319 JUMP JUMPDEST SWAP1 POP SWAP2 SWAP1 POP JUMP JUMPDEST PUSH1 0x0 PUSH1 0x40 DUP3 ADD SWAP1 POP PUSH2 0x1371 PUSH1 0x0 DUP4 ADD DUP6 PUSH2 0x11B7 JUMP JUMPDEST PUSH2 0x137E PUSH1 0x20 DUP4 ADD DUP5 PUSH2 0x1022 JUMP JUMPDEST SWAP4 SWAP3 POP POP POP JUMP JUMPDEST PUSH1 0x0 PUSH1 0x60 DUP3 ADD SWAP1 POP PUSH2 0x139A PUSH1 0x0 DUP4 ADD DUP7 PUSH2 0x11B7 JUMP JUMPDEST PUSH2 0x13A7 PUSH1 0x20 DUP4 ADD DUP6 PUSH2 0x1022 JUMP JUMPDEST PUSH2 0x13B4 PUSH1 0x40 DUP4 ADD DUP5 PUSH2 0x11B7 JUMP JUMPDEST SWAP5 SWAP4 POP POP POP POP JUMP JUMPDEST PUSH32 0x59612068617320646573706C656761646F2065737465206E6976656C00000000 PUSH1 0x0 DUP3 ADD MSTORE POP JUMP JUMPDEST PUSH1 0x0 PUSH2 0x13F2 PUSH1 0x1C DUP4 PUSH2 0x1273 JUMP JUMPDEST SWAP2 POP PUSH2 0x13FD DUP3 PUSH2 0x13BC JUMP JUMPDEST PUSH1 0x20 DUP3 ADD SWAP1 POP SWAP2 SWAP1 POP JUMP JUMPDEST PUSH1 0x0 PUSH1 0x20 DUP3 ADD SWAP1 POP DUP2 DUP2 SUB PUSH1 0x0 DUP4 ADD MSTORE PUSH2 0x1421 DUP2 PUSH2 0x13E5 JUMP JUMPDEST SWAP1 POP SWAP2 SWAP1 POP JUMP JUMPDEST PUSH32 0x4E6F206861732070616761646F207061726120646573706C6567617220656C20 PUSH1 0x0 DUP3 ADD MSTORE PUSH32 0x6E6976656C000000000000000000000000000000000000000000000000000000 PUSH1 0x20 DUP3 ADD MSTORE POP JUMP JUMPDEST PUSH1 0x0 PUSH2 0x1484 PUSH1 0x25 DUP4 PUSH2 0x1273 JUMP JUMPDEST SWAP2 POP PUSH2 0x148F DUP3 PUSH2 0x1428 JUMP JUMPDEST PUSH1 0x40 DUP3 ADD SWAP1 POP SWAP2 SWAP1 POP JUMP JUMPDEST PUSH1 0x0 PUSH1 0x20 DUP3 ADD SWAP1 POP DUP2 DUP2 SUB PUSH1 0x0 DUP4 ADD MSTORE PUSH2 0x14B3 DUP2 PUSH2 0x1477 JUMP JUMPDEST SWAP1 POP SWAP2 SWAP1 POP JUMP JUMPDEST PUSH32 0x436F6E747261746F20796120646573706C656761646F00000000000000000000 PUSH1 0x0 DUP3 ADD MSTORE POP JUMP JUMPDEST PUSH1 0x0 PUSH2 0x14F0 PUSH1 0x16 DUP4 PUSH2 0x1273 JUMP JUMPDEST SWAP2 POP PUSH2 0x14FB DUP3 PUSH2 0x14BA JUMP JUMPDEST PUSH1 0x20 DUP3 ADD SWAP1 POP SWAP2 SWAP1 POP JUMP JUMPDEST PUSH1 0x0 PUSH1 0x20 DUP3 ADD SWAP1 POP DUP2 DUP2 SUB PUSH1 0x0 DUP4 ADD MSTORE PUSH2 0x151F DUP2 PUSH2 0x14E3 JUMP JUMPDEST SWAP1 POP SWAP2 SWAP1 POP JUMP JUMPDEST PUSH32 0x4E6F20736520686120646573706C656761646F00000000000000000000000000 PUSH1 0x0 DUP3 ADD MSTORE POP JUMP JUMPDEST PUSH1 0x0 PUSH2 0x155C PUSH1 0x13 DUP4 PUSH2 0x1273 JUMP JUMPDEST SWAP2 POP PUSH2 0x1567 DUP3 PUSH2 0x1526 JUMP JUMPDEST PUSH1 0x20 DUP3 ADD SWAP1 POP SWAP2 SWAP1 POP JUMP JUMPDEST PUSH1 0x0 PUSH1 0x20 DUP3 ADD SWAP1 POP DUP2 DUP2 SUB PUSH1 0x0 DUP4 ADD MSTORE PUSH2 0x158B DUP2 PUSH2 0x154F JUMP JUMPDEST SWAP1 POP SWAP2 SWAP1 POP JUMP JUMPDEST PUSH1 0x0 DUP2 MLOAD SWAP1 POP PUSH2 0x15A1 DUP2 PUSH2 0x107E JUMP JUMPDEST SWAP3 SWAP2 POP POP JUMP JUMPDEST PUSH1 0x0 PUSH1 0x20 DUP3 DUP5 SUB SLT ISZERO PUSH2 0x15BD JUMPI PUSH2 0x15BC PUSH2 0xFBA JUMP JUMPDEST JUMPDEST PUSH1 0x0 PUSH2 0x15CB DUP5 DUP3 DUP6 ADD PUSH2 0x1592 JUMP JUMPDEST SWAP2 POP POP SWAP3 SWAP2 POP POP JUMP JUMPDEST PUSH1 0x0 DUP2 SWAP1 POP SWAP3 SWAP2 POP POP JUMP JUMPDEST POP JUMP JUMPDEST PUSH1 0x0 PUSH2 0x15EF PUSH1 0x0 DUP4 PUSH2 0x15D4 JUMP JUMPDEST SWAP2 POP PUSH2 0x15FA DUP3 PUSH2 0x15DF JUMP JUMPDEST PUSH1 0x0 DUP3 ADD SWAP1 POP SWAP2 SWAP1 POP JUMP JUMPDEST PUSH1 0x0 PUSH2 0x1610 DUP3 PUSH2 0x15E2 JUMP JUMPDEST SWAP2 POP DUP2 SWAP1 POP SWAP2 SWAP1 POP JUMP JUMPDEST PUSH32 0x46616C6C6F20616C20656E766961722063616E74696461640000000000000000 PUSH1 0x0 DUP3 ADD MSTORE POP JUMP JUMPDEST PUSH1 0x0 PUSH2 0x1650 PUSH1 0x18 DUP4 PUSH2 0x1273 JUMP JUMPDEST SWAP2 POP PUSH2 0x165B DUP3 PUSH2 0x161A JUMP JUMPDEST PUSH1 0x20 DUP3 ADD SWAP1 POP SWAP2 SWAP1 POP JUMP JUMPDEST PUSH1 0x0 PUSH1 0x20 DUP3 ADD SWAP1 POP DUP2 DUP2 SUB PUSH1 0x0 DUP4 ADD MSTORE PUSH2 0x167F DUP2 PUSH2 0x1643 JUMP JUMPDEST SWAP1 POP SWAP2 SWAP1 POP JUMP JUMPDEST PUSH32 0x4F776E61626C653A206E6577206F776E657220697320746865207A65726F2061 PUSH1 0x0 DUP3 ADD MSTORE PUSH32 0x6464726573730000000000000000000000000000000000000000000000000000 PUSH1 0x20 DUP3 ADD MSTORE POP JUMP JUMPDEST PUSH1 0x0 PUSH2 0x16E2 PUSH1 0x26 DUP4 PUSH2 0x1273 JUMP JUMPDEST SWAP2 POP PUSH2 0x16ED DUP3 PUSH2 0x1686 JUMP JUMPDEST PUSH1 0x40 DUP3 ADD SWAP1 POP SWAP2 SWAP1 POP JUMP JUMPDEST PUSH1 0x0 PUSH1 0x20 DUP3 ADD SWAP1 POP DUP2 DUP2 SUB PUSH1 0x0 DUP4 ADD MSTORE PUSH2 0x1711 DUP2 PUSH2 0x16D5 JUMP JUMPDEST SWAP1 POP SWAP2 SWAP1 POP JUMP JUMPDEST PUSH32 0x4F776E61626C653A2063616C6C6572206973206E6F7420746865206F776E6572 PUSH1 0x0 DUP3 ADD MSTORE POP JUMP JUMPDEST PUSH1 0x0 PUSH2 0x174E PUSH1 0x20 DUP4 PUSH2 0x1273 JUMP JUMPDEST SWAP2 POP PUSH2 0x1759 DUP3 PUSH2 0x1718 JUMP JUMPDEST PUSH1 0x20 DUP3 ADD SWAP1 POP SWAP2 SWAP1 POP JUMP JUMPDEST PUSH1 0x0 PUSH1 0x20 DUP3 ADD SWAP1 POP DUP2 DUP2 SUB PUSH1 0x0 DUP4 ADD MSTORE PUSH2 0x177D DUP2 PUSH2 0x1741 JUMP JUMPDEST SWAP1 POP SWAP2 SWAP1 POP JUMP INVALID LOG2 PUSH5 0x6970667358 0x22 SLT KECCAK256 PUSH5 0xD3EB45E1E0 MULMOD REVERT 0xA5 0xB1 0xFC SWAP7 SWAP6 PUSH27 0xF1124472C269C56D88EB166BA0DB05CE973D64736F6C6343000812 STOP CALLER "
				},
				"gasEstimates": {
					"creation": {
						"codeDepositCost": "1214800",
						"executionCost": "infinite",
						"totalCost": "infinite"
					},
					"external": {
						"base()": "infinite",
						"cost()": "2452",
						"getContract(uint256)": "infinite",
						"giveMeMoney()": "infinite",
						"notify(address,uint256,address)": "infinite",
						"owner()": "2588",
						"payDeploy(uint256)": "infinite",
						"renounceOwnership()": "30420",
						"transferOwnership(address)": "30832",
						"tryAgain(address,uint256)": "infinite"
					}
				},
				"methodIdentifiers": {
					"base()": "5001f3b5",
					"cost()": "13faede6",
					"getContract(uint256)": "6ebc8c86",
					"giveMeMoney()": "7aa1469f",
					"notify(address,uint256,address)": "6a7ae27a",
					"owner()": "8da5cb5b",
					"payDeploy(uint256)": "05ce2b47",
					"renounceOwnership()": "715018a6",
					"transferOwnership(address)": "f2fde38b",
					"tryAgain(address,uint256)": "3cee4edd"
				}
			},
			"storageLayout": {
				"storage": [
					{
						"astId": 7,
						"contract": "levelup/test.sol:Pay",
						"label": "_owner",
						"offset": 0,
						"slot": "0",
						"type": "t_address"
					},
					{
						"astId": 434,
						"contract": "levelup/test.sol:Pay",
						"label": "players",
						"offset": 0,
						"slot": "1",
						"type": "t_mapping(t_address,t_mapping(t_uint256,t_uint256))"
					},
					{
						"astId": 440,
						"contract": "levelup/test.sol:Pay",
						"label": "contracts",
						"offset": 0,
						"slot": "2",
						"type": "t_mapping(t_address,t_mapping(t_uint256,t_address))"
					},
					{
						"astId": 443,
						"contract": "levelup/test.sol:Pay",
						"label": "cost",
						"offset": 0,
						"slot": "3",
						"type": "t_uint256"
					},
					{
						"astId": 446,
						"contract": "levelup/test.sol:Pay",
						"label": "base",
						"offset": 0,
						"slot": "4",
						"type": "t_contract(Base)408"
					}
				],
				"types": {
					"t_address": {
						"encoding": "inplace",
						"label": "address",
						"numberOfBytes": "20"
					},
					"t_contract(Base)408": {
						"encoding": "inplace",
						"label": "contract Base",
						"numberOfBytes": "20"
					},
					"t_mapping(t_address,t_mapping(t_uint256,t_address))": {
						"encoding": "mapping",
						"key": "t_address",
						"label": "mapping(address => mapping(uint256 => address))",
						"numberOfBytes": "32",
						"value": "t_mapping(t_uint256,t_address)"
					},
					"t_mapping(t_address,t_mapping(t_uint256,t_uint256))": {
						"encoding": "mapping",
						"key": "t_address",
						"label": "mapping(address => mapping(uint256 => uint256))",
						"numberOfBytes": "32",
						"value": "t_mapping(t_uint256,t_uint256)"
					},
					"t_mapping(t_uint256,t_address)": {
						"encoding": "mapping",
						"key": "t_uint256",
						"label": "mapping(uint256 => address)",
						"numberOfBytes": "32",
						"value": "t_address"
					},
					"t_mapping(t_uint256,t_uint256)": {
						"encoding": "mapping",
						"key": "t_uint256",
						"label": "mapping(uint256 => uint256)",
						"numberOfBytes": "32",
						"value": "t_uint256"
					},
					"t_uint256": {
						"encoding": "inplace",
						"label": "uint256",
						"numberOfBytes": "32"
					}
				}
			},
			"userdoc": {
				"kind": "user",
				"methods": {},
				"version": 1
			}
		}
	}
}