{
	"zk/Tornado.sol": {
		"Tornado": {
			"abi": [
				{
					"inputs": [
						{
							"internalType": "address",
							"name": "_hasher",
							"type": "address"
						},
						{
							"internalType": "address",
							"name": "_verifier",
							"type": "address"
						}
					],
					"stateMutability": "nonpayable",
					"type": "constructor"
				},
				{
					"anonymous": false,
					"inputs": [
						{
							"indexed": false,
							"internalType": "uint256",
							"name": "root",
							"type": "uint256"
						},
						{
							"indexed": false,
							"internalType": "uint256[10]",
							"name": "hashPairings",
							"type": "uint256[10]"
						},
						{
							"indexed": false,
							"internalType": "uint8[10]",
							"name": "pairDirection",
							"type": "uint8[10]"
						}
					],
					"name": "Deposit",
					"type": "event"
				},
				{
					"anonymous": false,
					"inputs": [
						{
							"indexed": false,
							"internalType": "address",
							"name": "to",
							"type": "address"
						},
						{
							"indexed": false,
							"internalType": "uint256",
							"name": "nullifierHash",
							"type": "uint256"
						}
					],
					"name": "Withdrawal",
					"type": "event"
				},
				{
					"inputs": [
						{
							"internalType": "uint256",
							"name": "",
							"type": "uint256"
						}
					],
					"name": "commitments",
					"outputs": [
						{
							"internalType": "bool",
							"name": "",
							"type": "bool"
						}
					],
					"stateMutability": "view",
					"type": "function"
				},
				{
					"inputs": [],
					"name": "denomination",
					"outputs": [
						{
							"internalType": "uint256",
							"name": "",
							"type": "uint256"
						}
					],
					"stateMutability": "view",
					"type": "function"
				},
				{
					"inputs": [
						{
							"internalType": "uint256",
							"name": "_commitment",
							"type": "uint256"
						}
					],
					"name": "deposit",
					"outputs": [],
					"stateMutability": "payable",
					"type": "function"
				},
				{
					"inputs": [],
					"name": "nextLeafIdx",
					"outputs": [
						{
							"internalType": "uint256",
							"name": "",
							"type": "uint256"
						}
					],
					"stateMutability": "view",
					"type": "function"
				},
				{
					"inputs": [
						{
							"internalType": "uint256",
							"name": "",
							"type": "uint256"
						}
					],
					"name": "nullifierHashes",
					"outputs": [
						{
							"internalType": "bool",
							"name": "",
							"type": "bool"
						}
					],
					"stateMutability": "view",
					"type": "function"
				},
				{
					"inputs": [
						{
							"internalType": "uint256",
							"name": "",
							"type": "uint256"
						}
					],
					"name": "roots",
					"outputs": [
						{
							"internalType": "bool",
							"name": "",
							"type": "bool"
						}
					],
					"stateMutability": "view",
					"type": "function"
				},
				{
					"inputs": [],
					"name": "treeLevel",
					"outputs": [
						{
							"internalType": "uint8",
							"name": "",
							"type": "uint8"
						}
					],
					"stateMutability": "view",
					"type": "function"
				},
				{
					"inputs": [
						{
							"internalType": "uint256[2]",
							"name": "a",
							"type": "uint256[2]"
						},
						{
							"internalType": "uint256[2][2]",
							"name": "b",
							"type": "uint256[2][2]"
						},
						{
							"internalType": "uint256[2]",
							"name": "c",
							"type": "uint256[2]"
						},
						{
							"internalType": "uint256[2]",
							"name": "input",
							"type": "uint256[2]"
						}
					],
					"name": "withdraw",
					"outputs": [],
					"stateMutability": "payable",
					"type": "function"
				}
			],
			"devdoc": {
				"kind": "dev",
				"methods": {},
				"version": 1
			},
			"evm": {
				"assembly": "    /* \"zk/Tornado.sol\":267:4316  contract Tornado is ReentrancyGuard {... */\n  mstore(0x40, 0x80)\n    /* \"zk/Tornado.sol\":380:382  10 */\n  0x0a\n    /* \"zk/Tornado.sol\":355:382  uint8 public treeLevel = 10 */\n  0x02\n  exp(0x0100, 0x14)\n  dup2\n  sload\n  dup2\n  0xff\n  mul\n  not\n  and\n  swap1\n  dup4\n  0xff\n  and\n  mul\n  or\n  swap1\n  sstore\n  pop\n    /* \"zk/Tornado.sol\":419:430  0.001 ether */\n  0x038d7ea4c68000\n    /* \"zk/Tornado.sol\":389:430  uint256 public denomination = 0.001 ether */\n  0x03\n  sstore\n    /* \"zk/Tornado.sol\":468:469  0 */\n  0x00\n    /* \"zk/Tornado.sol\":439:469  uint256 public nextLeafIdx = 0 */\n  0x04\n  sstore\n    /* \"zk/Tornado.sol\":676:1592  uint256[10] levelDefaults = [... */\n  mload(0x40)\n  dup1\n  0x0140\n  add\n  0x40\n  mstore\n  dup1\n    /* \"zk/Tornado.sol\":715:792  23183772226880328093887215408966704399401918833188238128725944610428185466379 */\n  0x33418cd1669b4e7f4bf473ec2db9a489b3d6f9f11b91d0b3b6004432ab53d60b\n    /* \"zk/Tornado.sol\":676:1592  uint256[10] levelDefaults = [... */\n  dup2\n  mstore\n  0x20\n  add\n    /* \"zk/Tornado.sol\":803:880  24000819369602093814416139508614852491908395579435466932859056804037806454973 */\n  0x350ffb7c45ccf8940c163b192252495b614def57272b6f8d9a53a5b3e44ef8bd\n    /* \"zk/Tornado.sol\":676:1592  uint256[10] levelDefaults = [... */\n  dup2\n  mstore\n  0x20\n  add\n    /* \"zk/Tornado.sol\":891:968  90767735163385213280029221395007952082767922246267858237072012090673396196740 */\n  0xc8acb7af851baf91a82b1ad46b01ac506ce80387170890dea377d21e85202584\n    /* \"zk/Tornado.sol\":676:1592  uint256[10] levelDefaults = [... */\n  dup2\n  mstore\n  0x20\n  add\n    /* \"zk/Tornado.sol\":979:1056  36838446922933702266161394000006956756061899673576454513992013853093276527813 */\n  0x5171d273154b2764aa5903210e16bd1899b18648d1358d41887a113227e9acc5\n    /* \"zk/Tornado.sol\":676:1592  uint256[10] levelDefaults = [... */\n  dup2\n  mstore\n  0x20\n  add\n    /* \"zk/Tornado.sol\":1067:1144  68942419351509126448570740374747181965696714458775214939345221885282113404505 */\n  0x986c06cb04d613f57cf7a1da410e0f22c794e1ec1ae125898cfc9662a5e5be59\n    /* \"zk/Tornado.sol\":676:1592  uint256[10] levelDefaults = [... */\n  dup2\n  mstore\n  0x20\n  add\n    /* \"zk/Tornado.sol\":1155:1232  50082386515045053504076326033442809551011315580267173564563197889162423619623 */\n  0x6eb9a05106eff3031621027680204b2e9326b0e5191bd62f3cd7bf7f6d94d027\n    /* \"zk/Tornado.sol\":676:1592  uint256[10] levelDefaults = [... */\n  dup2\n  mstore\n  0x20\n  add\n    /* \"zk/Tornado.sol\":1243:1320  73182421758286469310850848737411980736456210038565066977682644585724928397862 */\n  0xa1cbc8691493398c061f547b4882edbb6a38ce1730c8a2605e9d8138d4ad1226\n    /* \"zk/Tornado.sol\":676:1592  uint256[10] levelDefaults = [... */\n  dup2\n  mstore\n  0x20\n  add\n    /* \"zk/Tornado.sol\":1331:1408  60176431197461170637692882955627917456800648458772472331451918908568455016445 */\n  0x850aa72f3d8bc65181e9c29d76f7614e2f939ade9442abac29fc8a0329deeffd\n    /* \"zk/Tornado.sol\":676:1592  uint256[10] levelDefaults = [... */\n  dup2\n  mstore\n  0x20\n  add\n    /* \"zk/Tornado.sol\":1419:1497  105740430515862457360623134126179561153993738774115400861400649215360807197726 */\n  0xe9c6f678752dbfc89028bf8b9b1cce608b34b742b75fbae878ec2c6ae803dc1e\n    /* \"zk/Tornado.sol\":676:1592  uint256[10] levelDefaults = [... */\n  dup2\n  mstore\n  0x20\n  add\n    /* \"zk/Tornado.sol\":1508:1585  76840483767501885884368002925517179365815019383466879774586151314479309584255 */\n  0xa9e22c2e1f4531bc4389032bb472b97c25a7298d27ba4fefd75439a1be46f77f\n    /* \"zk/Tornado.sol\":676:1592  uint256[10] levelDefaults = [... */\n  dup2\n  mstore\n  pop\n  0x09\n  swap1\n  0x0a\n  tag_1\n  swap3\n  swap2\n  swap1\n  tag_2\n  jump\t// in\ntag_1:\n  pop\n    /* \"zk/Tornado.sol\":1746:1892  constructor(... */\n  callvalue\n  dup1\n  iszero\n  tag_3\n  jumpi\n  0x00\n  dup1\n  revert\ntag_3:\n  pop\n  mload(0x40)\n  sub(codesize, bytecodeSize)\n  dup1\n  bytecodeSize\n  dup4\n  codecopy\n  dup2\n  dup2\n  add\n  0x40\n  mstore\n  dup2\n  add\n  swap1\n  tag_4\n  swap2\n  swap1\n  tag_5\n  jump\t// in\ntag_4:\n    /* \"zk/ReentrancyGuard.sol\":1749:1750  1 */\n  0x01\n    /* \"zk/ReentrancyGuard.sol\":1860:1867  _status */\n  0x00\n    /* \"zk/ReentrancyGuard.sol\":1860:1882  _status = _NOT_ENTERED */\n  dup2\n  swap1\n  sstore\n  pop\n    /* \"zk/Tornado.sol\":1845:1852  _hasher */\n  dup2\n    /* \"zk/Tornado.sol\":1829:1835  hasher */\n  0x02\n  0x00\n    /* \"zk/Tornado.sol\":1829:1853  hasher = Hasher(_hasher) */\n  0x0100\n  exp\n  dup2\n  sload\n  dup2\n  0xffffffffffffffffffffffffffffffffffffffff\n  mul\n  not\n  and\n  swap1\n  dup4\n  0xffffffffffffffffffffffffffffffffffffffff\n  and\n  mul\n  or\n  swap1\n  sstore\n  pop\n    /* \"zk/Tornado.sol\":1875:1884  _verifier */\n  dup1\n    /* \"zk/Tornado.sol\":1864:1872  verifier */\n  0x01\n  0x00\n    /* \"zk/Tornado.sol\":1864:1884  verifier = _verifier */\n  0x0100\n  exp\n  dup2\n  sload\n  dup2\n  0xffffffffffffffffffffffffffffffffffffffff\n  mul\n  not\n  and\n  swap1\n  dup4\n  0xffffffffffffffffffffffffffffffffffffffff\n  and\n  mul\n  or\n  swap1\n  sstore\n  pop\n    /* \"zk/Tornado.sol\":1746:1892  constructor(... */\n  pop\n  pop\n    /* \"zk/Tornado.sol\":267:4316  contract Tornado is ReentrancyGuard {... */\n  jump(tag_10)\ntag_2:\n  dup3\n  0x0a\n  dup2\n  add\n  swap3\n  dup3\n  iszero\n  tag_11\n  jumpi\n  swap2\n  0x20\n  mul\n  dup3\n  add\ntag_12:\n  dup3\n  dup2\n  gt\n  iszero\n  tag_13\n  jumpi\n  dup3\n  mload\n  dup3\n  sstore\n  swap2\n  0x20\n  add\n  swap2\n  swap1\n  0x01\n  add\n  swap1\n  jump(tag_12)\ntag_13:\ntag_11:\n  pop\n  swap1\n  pop\n  tag_14\n  swap2\n  swap1\n  tag_15\n  jump\t// in\ntag_14:\n  pop\n  swap1\n  jump\t// out\ntag_15:\ntag_16:\n  dup1\n  dup3\n  gt\n  iszero\n  tag_17\n  jumpi\n  0x00\n  dup2\n  0x00\n  swap1\n  sstore\n  pop\n  0x01\n  add\n  jump(tag_16)\ntag_17:\n  pop\n  swap1\n  jump\t// out\n    /* \"#utility.yul\":88:205   */\ntag_19:\n    /* \"#utility.yul\":197:198   */\n  0x00\n    /* \"#utility.yul\":194:195   */\n  dup1\n    /* \"#utility.yul\":187:199   */\n  revert\n    /* \"#utility.yul\":334:460   */\ntag_21:\n    /* \"#utility.yul\":371:378   */\n  0x00\n    /* \"#utility.yul\":411:453   */\n  0xffffffffffffffffffffffffffffffffffffffff\n    /* \"#utility.yul\":404:409   */\n  dup3\n    /* \"#utility.yul\":400:454   */\n  and\n    /* \"#utility.yul\":389:454   */\n  swap1\n  pop\n    /* \"#utility.yul\":334:460   */\n  swap2\n  swap1\n  pop\n  jump\t// out\n    /* \"#utility.yul\":466:562   */\ntag_22:\n    /* \"#utility.yul\":503:510   */\n  0x00\n    /* \"#utility.yul\":532:556   */\n  tag_31\n    /* \"#utility.yul\":550:555   */\n  dup3\n    /* \"#utility.yul\":532:556   */\n  tag_21\n  jump\t// in\ntag_31:\n    /* \"#utility.yul\":521:556   */\n  swap1\n  pop\n    /* \"#utility.yul\":466:562   */\n  swap2\n  swap1\n  pop\n  jump\t// out\n    /* \"#utility.yul\":568:690   */\ntag_23:\n    /* \"#utility.yul\":641:665   */\n  tag_33\n    /* \"#utility.yul\":659:664   */\n  dup2\n    /* \"#utility.yul\":641:665   */\n  tag_22\n  jump\t// in\ntag_33:\n    /* \"#utility.yul\":634:639   */\n  dup2\n    /* \"#utility.yul\":631:666   */\n  eq\n    /* \"#utility.yul\":621:684   */\n  tag_34\n  jumpi\n    /* \"#utility.yul\":680:681   */\n  0x00\n    /* \"#utility.yul\":677:678   */\n  dup1\n    /* \"#utility.yul\":670:682   */\n  revert\n    /* \"#utility.yul\":621:684   */\ntag_34:\n    /* \"#utility.yul\":568:690   */\n  pop\n  jump\t// out\n    /* \"#utility.yul\":696:839   */\ntag_24:\n    /* \"#utility.yul\":753:758   */\n  0x00\n    /* \"#utility.yul\":784:790   */\n  dup2\n    /* \"#utility.yul\":778:791   */\n  mload\n    /* \"#utility.yul\":769:791   */\n  swap1\n  pop\n    /* \"#utility.yul\":800:833   */\n  tag_36\n    /* \"#utility.yul\":827:832   */\n  dup2\n    /* \"#utility.yul\":800:833   */\n  tag_23\n  jump\t// in\ntag_36:\n    /* \"#utility.yul\":696:839   */\n  swap3\n  swap2\n  pop\n  pop\n  jump\t// out\n    /* \"#utility.yul\":845:1352   */\ntag_5:\n    /* \"#utility.yul\":924:930   */\n  0x00\n    /* \"#utility.yul\":932:938   */\n  dup1\n    /* \"#utility.yul\":981:983   */\n  0x40\n    /* \"#utility.yul\":969:978   */\n  dup4\n    /* \"#utility.yul\":960:967   */\n  dup6\n    /* \"#utility.yul\":956:979   */\n  sub\n    /* \"#utility.yul\":952:984   */\n  slt\n    /* \"#utility.yul\":949:1068   */\n  iszero\n  tag_38\n  jumpi\n    /* \"#utility.yul\":987:1066   */\n  tag_39\n  tag_19\n  jump\t// in\ntag_39:\n    /* \"#utility.yul\":949:1068   */\ntag_38:\n    /* \"#utility.yul\":1107:1108   */\n  0x00\n    /* \"#utility.yul\":1132:1196   */\n  tag_40\n    /* \"#utility.yul\":1188:1195   */\n  dup6\n    /* \"#utility.yul\":1179:1185   */\n  dup3\n    /* \"#utility.yul\":1168:1177   */\n  dup7\n    /* \"#utility.yul\":1164:1186   */\n  add\n    /* \"#utility.yul\":1132:1196   */\n  tag_24\n  jump\t// in\ntag_40:\n    /* \"#utility.yul\":1122:1196   */\n  swap3\n  pop\n    /* \"#utility.yul\":1078:1206   */\n  pop\n    /* \"#utility.yul\":1245:1247   */\n  0x20\n    /* \"#utility.yul\":1271:1335   */\n  tag_41\n    /* \"#utility.yul\":1327:1334   */\n  dup6\n    /* \"#utility.yul\":1318:1324   */\n  dup3\n    /* \"#utility.yul\":1307:1316   */\n  dup7\n    /* \"#utility.yul\":1303:1325   */\n  add\n    /* \"#utility.yul\":1271:1335   */\n  tag_24\n  jump\t// in\ntag_41:\n    /* \"#utility.yul\":1261:1335   */\n  swap2\n  pop\n    /* \"#utility.yul\":1216:1345   */\n  pop\n    /* \"#utility.yul\":845:1352   */\n  swap3\n  pop\n  swap3\n  swap1\n  pop\n  jump\t// out\n    /* \"zk/Tornado.sol\":267:4316  contract Tornado is ReentrancyGuard {... */\ntag_10:\n  dataSize(sub_0)\n  dup1\n  dataOffset(sub_0)\n  0x00\n  codecopy\n  0x00\n  return\nstop\n\nsub_0: assembly {\n        /* \"zk/Tornado.sol\":267:4316  contract Tornado is ReentrancyGuard {... */\n      mstore(0x40, 0x80)\n      jumpi(tag_1, lt(calldatasize, 0x04))\n      shr(0xe0, calldataload(0x00))\n      dup1\n      0xb6b55f25\n      gt\n      tag_10\n      jumpi\n      dup1\n      0xb6b55f25\n      eq\n      tag_6\n      jumpi\n      dup1\n      0xb8e79564\n      eq\n      tag_7\n      jumpi\n      dup1\n      0xc2b40ae4\n      eq\n      tag_8\n      jumpi\n      dup1\n      0xc78784d7\n      eq\n      tag_9\n      jumpi\n      jump(tag_1)\n    tag_10:\n      dup1\n      0x1f79a1e9\n      eq\n      tag_2\n      jumpi\n      dup1\n      0x45e0523f\n      eq\n      tag_3\n      jumpi\n      dup1\n      0x49ce8997\n      eq\n      tag_4\n      jumpi\n      dup1\n      0x8bca6d16\n      eq\n      tag_5\n      jumpi\n    tag_1:\n      0x00\n      dup1\n      revert\n        /* \"zk/Tornado.sol\":566:613  mapping(uint256 => bool) public nullifierHashes */\n    tag_2:\n      callvalue\n      dup1\n      iszero\n      tag_11\n      jumpi\n      0x00\n      dup1\n      revert\n    tag_11:\n      pop\n      tag_12\n      0x04\n      dup1\n      calldatasize\n      sub\n      dup2\n      add\n      swap1\n      tag_13\n      swap2\n      swap1\n      tag_14\n      jump\t// in\n    tag_13:\n      tag_15\n      jump\t// in\n    tag_12:\n      mload(0x40)\n      tag_16\n      swap2\n      swap1\n      tag_17\n      jump\t// in\n    tag_16:\n      mload(0x40)\n      dup1\n      swap2\n      sub\n      swap1\n      return\n        /* \"zk/Tornado.sol\":439:469  uint256 public nextLeafIdx = 0 */\n    tag_3:\n      callvalue\n      dup1\n      iszero\n      tag_18\n      jumpi\n      0x00\n      dup1\n      revert\n    tag_18:\n      pop\n      tag_19\n      tag_20\n      jump\t// in\n    tag_19:\n      mload(0x40)\n      tag_21\n      swap2\n      swap1\n      tag_22\n      jump\t// in\n    tag_21:\n      mload(0x40)\n      dup1\n      swap2\n      sub\n      swap1\n      return\n        /* \"zk/Tornado.sol\":620:663  mapping(uint256 => bool) public commitments */\n    tag_4:\n      callvalue\n      dup1\n      iszero\n      tag_23\n      jumpi\n      0x00\n      dup1\n      revert\n    tag_23:\n      pop\n      tag_24\n      0x04\n      dup1\n      calldatasize\n      sub\n      dup2\n      add\n      swap1\n      tag_25\n      swap2\n      swap1\n      tag_14\n      jump\t// in\n    tag_25:\n      tag_26\n      jump\t// in\n    tag_24:\n      mload(0x40)\n      tag_27\n      swap2\n      swap1\n      tag_17\n      jump\t// in\n    tag_27:\n      mload(0x40)\n      dup1\n      swap2\n      sub\n      swap1\n      return\n        /* \"zk/Tornado.sol\":389:430  uint256 public denomination = 0.001 ether */\n    tag_5:\n      callvalue\n      dup1\n      iszero\n      tag_28\n      jumpi\n      0x00\n      dup1\n      revert\n    tag_28:\n      pop\n      tag_29\n      tag_30\n      jump\t// in\n    tag_29:\n      mload(0x40)\n      tag_31\n      swap2\n      swap1\n      tag_22\n      jump\t// in\n    tag_31:\n      mload(0x40)\n      dup1\n      swap2\n      sub\n      swap1\n      return\n        /* \"zk/Tornado.sol\":1900:3412  function deposit(uint256 _commitment) external payable nonReentrant {... */\n    tag_6:\n      tag_32\n      0x04\n      dup1\n      calldatasize\n      sub\n      dup2\n      add\n      swap1\n      tag_33\n      swap2\n      swap1\n      tag_14\n      jump\t// in\n    tag_33:\n      tag_34\n      jump\t// in\n    tag_32:\n      stop\n        /* \"zk/Tornado.sol\":355:382  uint8 public treeLevel = 10 */\n    tag_7:\n      callvalue\n      dup1\n      iszero\n      tag_35\n      jumpi\n      0x00\n      dup1\n      revert\n    tag_35:\n      pop\n      tag_36\n      tag_37\n      jump\t// in\n    tag_36:\n      mload(0x40)\n      tag_38\n      swap2\n      swap1\n      tag_39\n      jump\t// in\n    tag_38:\n      mload(0x40)\n      dup1\n      swap2\n      sub\n      swap1\n      return\n        /* \"zk/Tornado.sol\":476:513  mapping(uint256 => bool) public roots */\n    tag_8:\n      callvalue\n      dup1\n      iszero\n      tag_40\n      jumpi\n      0x00\n      dup1\n      revert\n    tag_40:\n      pop\n      tag_41\n      0x04\n      dup1\n      calldatasize\n      sub\n      dup2\n      add\n      swap1\n      tag_42\n      swap2\n      swap1\n      tag_14\n      jump\t// in\n    tag_42:\n      tag_43\n      jump\t// in\n    tag_41:\n      mload(0x40)\n      tag_44\n      swap2\n      swap1\n      tag_17\n      jump\t// in\n    tag_44:\n      mload(0x40)\n      dup1\n      swap2\n      sub\n      swap1\n      return\n        /* \"zk/Tornado.sol\":3420:4295  function withdraw(... */\n    tag_9:\n      tag_45\n      0x04\n      dup1\n      calldatasize\n      sub\n      dup2\n      add\n      swap1\n      tag_46\n      swap2\n      swap1\n      tag_47\n      jump\t// in\n    tag_46:\n      tag_48\n      jump\t// in\n    tag_45:\n      stop\n        /* \"zk/Tornado.sol\":566:613  mapping(uint256 => bool) public nullifierHashes */\n    tag_15:\n      mstore(0x20, 0x07)\n      dup1\n      0x00\n      mstore\n      keccak256(0x00, 0x40)\n      0x00\n      swap2\n      pop\n      sload\n      swap1\n      0x0100\n      exp\n      swap1\n      div\n      0xff\n      and\n      dup2\n      jump\t// out\n        /* \"zk/Tornado.sol\":439:469  uint256 public nextLeafIdx = 0 */\n    tag_20:\n      sload(0x04)\n      dup2\n      jump\t// out\n        /* \"zk/Tornado.sol\":620:663  mapping(uint256 => bool) public commitments */\n    tag_26:\n      mstore(0x20, 0x08)\n      dup1\n      0x00\n      mstore\n      keccak256(0x00, 0x40)\n      0x00\n      swap2\n      pop\n      sload\n      swap1\n      0x0100\n      exp\n      swap1\n      div\n      0xff\n      and\n      dup2\n      jump\t// out\n        /* \"zk/Tornado.sol\":389:430  uint256 public denomination = 0.001 ether */\n    tag_30:\n      sload(0x03)\n      dup2\n      jump\t// out\n        /* \"zk/Tornado.sol\":1900:3412  function deposit(uint256 _commitment) external payable nonReentrant {... */\n    tag_34:\n        /* \"zk/ReentrancyGuard.sol\":2311:2332  _nonReentrantBefore() */\n      tag_50\n        /* \"zk/ReentrancyGuard.sol\":2311:2330  _nonReentrantBefore */\n      tag_51\n        /* \"zk/ReentrancyGuard.sol\":2311:2332  _nonReentrantBefore() */\n      jump\t// in\n    tag_50:\n        /* \"zk/Tornado.sol\":2000:2012  denomination */\n      sload(0x03)\n        /* \"zk/Tornado.sol\":1987:1996  msg.value */\n      callvalue\n        /* \"zk/Tornado.sol\":1987:2012  msg.value == denomination */\n      eq\n        /* \"zk/Tornado.sol\":1979:2033  require(msg.value == denomination, \"incorrect-amount\") */\n      tag_53\n      jumpi\n      mload(0x40)\n      0x08c379a000000000000000000000000000000000000000000000000000000000\n      dup2\n      mstore\n      0x04\n      add\n      tag_54\n      swap1\n      tag_55\n      jump\t// in\n    tag_54:\n      mload(0x40)\n      dup1\n      swap2\n      sub\n      swap1\n      revert\n    tag_53:\n        /* \"zk/Tornado.sol\":2053:2064  commitments */\n      0x08\n        /* \"zk/Tornado.sol\":2053:2077  commitments[_commitment] */\n      0x00\n        /* \"zk/Tornado.sol\":2065:2076  _commitment */\n      dup3\n        /* \"zk/Tornado.sol\":2053:2077  commitments[_commitment] */\n      dup2\n      mstore\n      0x20\n      add\n      swap1\n      dup2\n      mstore\n      0x20\n      add\n      0x00\n      keccak256\n      0x00\n      swap1\n      sload\n      swap1\n      0x0100\n      exp\n      swap1\n      div\n      0xff\n      and\n        /* \"zk/Tornado.sol\":2052:2077  !commitments[_commitment] */\n      iszero\n        /* \"zk/Tornado.sol\":2044:2101  require(!commitments[_commitment], \"existing-commitment\") */\n      tag_56\n      jumpi\n      mload(0x40)\n      0x08c379a000000000000000000000000000000000000000000000000000000000\n      dup2\n      mstore\n      0x04\n      add\n      tag_57\n      swap1\n      tag_58\n      jump\t// in\n    tag_57:\n      mload(0x40)\n      dup1\n      swap2\n      sub\n      swap1\n      revert\n    tag_56:\n        /* \"zk/Tornado.sol\":2139:2148  treeLevel */\n      0x02\n      0x14\n      swap1\n      sload\n      swap1\n      0x0100\n      exp\n      swap1\n      div\n      0xff\n      and\n        /* \"zk/Tornado.sol\":2134:2135  2 */\n      0x02\n        /* \"zk/Tornado.sol\":2134:2148  2 ** treeLevel */\n      tag_59\n      swap2\n      swap1\n      tag_60\n      jump\t// in\n    tag_59:\n        /* \"zk/Tornado.sol\":2120:2131  nextLeafIdx */\n      sload(0x04)\n        /* \"zk/Tornado.sol\":2120:2148  nextLeafIdx < 2 ** treeLevel */\n      lt\n        /* \"zk/Tornado.sol\":2112:2162  require(nextLeafIdx < 2 ** treeLevel, \"tree-full\") */\n      tag_61\n      jumpi\n      mload(0x40)\n      0x08c379a000000000000000000000000000000000000000000000000000000000\n      dup2\n      mstore\n      0x04\n      add\n      tag_62\n      swap1\n      tag_63\n      jump\t// in\n    tag_62:\n      mload(0x40)\n      dup1\n      swap2\n      sub\n      swap1\n      revert\n    tag_61:\n        /* \"zk/Tornado.sol\":2175:2190  uint256 newRoot */\n      0x00\n        /* \"zk/Tornado.sol\":2201:2232  uint256[10] memory hashPairings */\n      tag_64\n      tag_65\n      jump\t// in\n    tag_64:\n        /* \"zk/Tornado.sol\":2243:2274  uint8[10] memory hashDirections */\n      tag_66\n      tag_67\n      jump\t// in\n    tag_66:\n        /* \"zk/Tornado.sol\":2287:2305  uint256 currentIdx */\n      0x00\n        /* \"zk/Tornado.sol\":2308:2319  nextLeafIdx */\n      sload(0x04)\n        /* \"zk/Tornado.sol\":2287:2319  uint256 currentIdx = nextLeafIdx */\n      swap1\n      pop\n        /* \"zk/Tornado.sol\":2330:2349  uint256 currentHash */\n      0x00\n        /* \"zk/Tornado.sol\":2352:2363  _commitment */\n      dup6\n        /* \"zk/Tornado.sol\":2330:2363  uint256 currentHash = _commitment */\n      swap1\n      pop\n        /* \"zk/Tornado.sol\":2376:2388  uint256 left */\n      0x00\n        /* \"zk/Tornado.sol\":2399:2412  uint256 right */\n      dup1\n        /* \"zk/Tornado.sol\":2423:2444  uint256[2] memory ins */\n      tag_68\n      tag_69\n      jump\t// in\n    tag_68:\n        /* \"zk/Tornado.sol\":2469:2476  uint8 i */\n      0x00\n        /* \"zk/Tornado.sol\":2465:3206  for(uint8 i = 0; i < treeLevel; i++){... */\n    tag_70:\n        /* \"zk/Tornado.sol\":2486:2495  treeLevel */\n      0x02\n      0x14\n      swap1\n      sload\n      swap1\n      0x0100\n      exp\n      swap1\n      div\n      0xff\n      and\n        /* \"zk/Tornado.sol\":2482:2495  i < treeLevel */\n      0xff\n      and\n        /* \"zk/Tornado.sol\":2482:2483  i */\n      dup2\n        /* \"zk/Tornado.sol\":2482:2495  i < treeLevel */\n      0xff\n      and\n      lt\n        /* \"zk/Tornado.sol\":2465:3206  for(uint8 i = 0; i < treeLevel; i++){... */\n      iszero\n      tag_71\n      jumpi\n        /* \"zk/Tornado.sol\":2551:2552  0 */\n      0x00\n        /* \"zk/Tornado.sol\":2546:2547  2 */\n      0x02\n        /* \"zk/Tornado.sol\":2533:2543  currentIdx */\n      dup8\n        /* \"zk/Tornado.sol\":2533:2547  currentIdx % 2 */\n      tag_73\n      swap2\n      swap1\n      tag_74\n      jump\t// in\n    tag_73:\n        /* \"zk/Tornado.sol\":2533:2552  currentIdx % 2 == 0 */\n      sub\n        /* \"zk/Tornado.sol\":2530:2935  if(currentIdx % 2 == 0){... */\n      tag_75\n      jumpi\n        /* \"zk/Tornado.sol\":2579:2590  currentHash */\n      dup5\n        /* \"zk/Tornado.sol\":2572:2590  left = currentHash */\n      swap4\n      pop\n        /* \"zk/Tornado.sol\":2617:2630  levelDefaults */\n      0x09\n        /* \"zk/Tornado.sol\":2631:2632  i */\n      dup2\n        /* \"zk/Tornado.sol\":2617:2633  levelDefaults[i] */\n      0xff\n      and\n      0x0a\n      dup2\n      lt\n      tag_76\n      jumpi\n      tag_77\n      tag_78\n      jump\t// in\n    tag_77:\n    tag_76:\n      add\n      sload\n        /* \"zk/Tornado.sol\":2609:2633  right = levelDefaults[i] */\n      swap3\n      pop\n        /* \"zk/Tornado.sol\":2670:2683  levelDefaults */\n      0x09\n        /* \"zk/Tornado.sol\":2684:2685  i */\n      dup2\n        /* \"zk/Tornado.sol\":2670:2686  levelDefaults[i] */\n      0xff\n      and\n      0x0a\n      dup2\n      lt\n      tag_80\n      jumpi\n      tag_81\n      tag_78\n      jump\t// in\n    tag_81:\n    tag_80:\n      add\n      sload\n        /* \"zk/Tornado.sol\":2652:2664  hashPairings */\n      dup9\n        /* \"zk/Tornado.sol\":2665:2666  i */\n      dup3\n        /* \"zk/Tornado.sol\":2652:2667  hashPairings[i] */\n      0xff\n      and\n      0x0a\n      dup2\n      lt\n      tag_83\n      jumpi\n      tag_84\n      tag_78\n      jump\t// in\n    tag_84:\n    tag_83:\n      0x20\n      mul\n      add\n        /* \"zk/Tornado.sol\":2652:2686  hashPairings[i] = levelDefaults[i] */\n      dup2\n      dup2\n      mstore\n      pop\n      pop\n        /* \"zk/Tornado.sol\":2725:2726  0 */\n      0x00\n        /* \"zk/Tornado.sol\":2705:2719  hashDirections */\n      dup8\n        /* \"zk/Tornado.sol\":2720:2721  i */\n      dup3\n        /* \"zk/Tornado.sol\":2705:2722  hashDirections[i] */\n      0xff\n      and\n      0x0a\n      dup2\n      lt\n      tag_85\n      jumpi\n      tag_86\n      tag_78\n      jump\t// in\n    tag_86:\n    tag_85:\n      0x20\n      mul\n      add\n        /* \"zk/Tornado.sol\":2705:2726  hashDirections[i] = 0 */\n      swap1\n      0xff\n      and\n      swap1\n      dup2\n      0xff\n      and\n      dup2\n      mstore\n      pop\n      pop\n        /* \"zk/Tornado.sol\":2530:2935  if(currentIdx % 2 == 0){... */\n      jump(tag_87)\n    tag_75:\n        /* \"zk/Tornado.sol\":2772:2785  lastLevelHash */\n      0x06\n        /* \"zk/Tornado.sol\":2772:2788  lastLevelHash[i] */\n      0x00\n        /* \"zk/Tornado.sol\":2786:2787  i */\n      dup3\n        /* \"zk/Tornado.sol\":2772:2788  lastLevelHash[i] */\n      0xff\n      and\n      0xff\n      and\n      dup2\n      mstore\n      0x20\n      add\n      swap1\n      dup2\n      mstore\n      0x20\n      add\n      0x00\n      keccak256\n      sload\n        /* \"zk/Tornado.sol\":2765:2788  left = lastLevelHash[i] */\n      swap4\n      pop\n        /* \"zk/Tornado.sol\":2815:2826  currentHash */\n      dup5\n        /* \"zk/Tornado.sol\":2807:2826  right = currentHash */\n      swap3\n      pop\n        /* \"zk/Tornado.sol\":2863:2876  lastLevelHash */\n      0x06\n        /* \"zk/Tornado.sol\":2863:2879  lastLevelHash[i] */\n      0x00\n        /* \"zk/Tornado.sol\":2877:2878  i */\n      dup3\n        /* \"zk/Tornado.sol\":2863:2879  lastLevelHash[i] */\n      0xff\n      and\n      0xff\n      and\n      dup2\n      mstore\n      0x20\n      add\n      swap1\n      dup2\n      mstore\n      0x20\n      add\n      0x00\n      keccak256\n      sload\n        /* \"zk/Tornado.sol\":2845:2857  hashPairings */\n      dup9\n        /* \"zk/Tornado.sol\":2858:2859  i */\n      dup3\n        /* \"zk/Tornado.sol\":2845:2860  hashPairings[i] */\n      0xff\n      and\n      0x0a\n      dup2\n      lt\n      tag_88\n      jumpi\n      tag_89\n      tag_78\n      jump\t// in\n    tag_89:\n    tag_88:\n      0x20\n      mul\n      add\n        /* \"zk/Tornado.sol\":2845:2879  hashPairings[i] = lastLevelHash[i] */\n      dup2\n      dup2\n      mstore\n      pop\n      pop\n        /* \"zk/Tornado.sol\":2918:2919  1 */\n      0x01\n        /* \"zk/Tornado.sol\":2898:2912  hashDirections */\n      dup8\n        /* \"zk/Tornado.sol\":2913:2914  i */\n      dup3\n        /* \"zk/Tornado.sol\":2898:2915  hashDirections[i] */\n      0xff\n      and\n      0x0a\n      dup2\n      lt\n      tag_90\n      jumpi\n      tag_91\n      tag_78\n      jump\t// in\n    tag_91:\n    tag_90:\n      0x20\n      mul\n      add\n        /* \"zk/Tornado.sol\":2898:2919  hashDirections[i] = 1 */\n      swap1\n      0xff\n      and\n      swap1\n      dup2\n      0xff\n      and\n      dup2\n      mstore\n      pop\n      pop\n        /* \"zk/Tornado.sol\":2530:2935  if(currentIdx % 2 == 0){... */\n    tag_87:\n        /* \"zk/Tornado.sol\":2968:2979  currentHash */\n      dup5\n        /* \"zk/Tornado.sol\":2949:2962  lastLevelHash */\n      0x06\n        /* \"zk/Tornado.sol\":2949:2965  lastLevelHash[i] */\n      0x00\n        /* \"zk/Tornado.sol\":2963:2964  i */\n      dup4\n        /* \"zk/Tornado.sol\":2949:2965  lastLevelHash[i] */\n      0xff\n      and\n      0xff\n      and\n      dup2\n      mstore\n      0x20\n      add\n      swap1\n      dup2\n      mstore\n      0x20\n      add\n      0x00\n      keccak256\n        /* \"zk/Tornado.sol\":2949:2979  lastLevelHash[i] = currentHash */\n      dup2\n      swap1\n      sstore\n      pop\n        /* \"zk/Tornado.sol\":3005:3009  left */\n      dup4\n        /* \"zk/Tornado.sol\":2996:2999  ins */\n      dup3\n        /* \"zk/Tornado.sol\":3000:3001  0 */\n      0x00\n        /* \"zk/Tornado.sol\":2996:3002  ins[0] */\n      0x02\n      dup2\n      lt\n      tag_92\n      jumpi\n      tag_93\n      tag_78\n      jump\t// in\n    tag_93:\n    tag_92:\n      0x20\n      mul\n      add\n        /* \"zk/Tornado.sol\":2996:3009  ins[0] = left */\n      dup2\n      dup2\n      mstore\n      pop\n      pop\n        /* \"zk/Tornado.sol\":3033:3038  right */\n      dup3\n        /* \"zk/Tornado.sol\":3024:3027  ins */\n      dup3\n        /* \"zk/Tornado.sol\":3028:3029  1 */\n      0x01\n        /* \"zk/Tornado.sol\":3024:3030  ins[1] */\n      0x02\n      dup2\n      lt\n      tag_94\n      jumpi\n      tag_95\n      tag_78\n      jump\t// in\n    tag_95:\n    tag_94:\n      0x20\n      mul\n      add\n        /* \"zk/Tornado.sol\":3024:3038  ins[1] = right */\n      dup2\n      dup2\n      mstore\n      pop\n      pop\n        /* \"zk/Tornado.sol\":3056:3065  uint256 h */\n      0x00\n        /* \"zk/Tornado.sol\":3069:3075  hasher */\n      0x02\n      0x00\n      swap1\n      sload\n      swap1\n      0x0100\n      exp\n      swap1\n      div\n      0xffffffffffffffffffffffffffffffffffffffff\n      and\n        /* \"zk/Tornado.sol\":3069:3087  hasher.MiMC5Sponge */\n      0xffffffffffffffffffffffffffffffffffffffff\n      and\n      0xd622e5a4\n        /* \"zk/Tornado.sol\":3094:3100  150000 */\n      0x0249f0\n        /* \"zk/Tornado.sol\":3103:3106  ins */\n      dup6\n        /* \"zk/Tornado.sol\":3108:3119  _commitment */\n      dup15\n        /* \"zk/Tornado.sol\":3069:3120  hasher.MiMC5Sponge{ gas: 150000 }(ins, _commitment) */\n      mload(0x40)\n      dup5\n      0xffffffff\n      and\n      0xe0\n      shl\n      dup2\n      mstore\n      0x04\n      add\n      tag_96\n      swap3\n      swap2\n      swap1\n      tag_97\n      jump\t// in\n    tag_96:\n      0x20\n      mload(0x40)\n      dup1\n      dup4\n      sub\n      dup2\n      dup8\n      dup7\n      staticcall\n      iszero\n      dup1\n      iszero\n      tag_99\n      jumpi\n      returndatasize\n      0x00\n      dup1\n      returndatacopy\n      revert(0x00, returndatasize)\n    tag_99:\n      pop\n      pop\n      pop\n      pop\n      pop\n      mload(0x40)\n      returndatasize\n      not(0x1f)\n      0x1f\n      dup3\n      add\n      and\n      dup3\n      add\n      dup1\n      0x40\n      mstore\n      pop\n      dup2\n      add\n      swap1\n      tag_100\n      swap2\n      swap1\n      tag_101\n      jump\t// in\n    tag_100:\n        /* \"zk/Tornado.sol\":3055:3120  (uint256 h) = hasher.MiMC5Sponge{ gas: 150000 }(ins, _commitment) */\n      swap1\n      pop\n        /* \"zk/Tornado.sol\":3151:3152  h */\n      dup1\n        /* \"zk/Tornado.sol\":3137:3152  currentHash = h */\n      swap6\n      pop\n        /* \"zk/Tornado.sol\":3193:3194  2 */\n      0x02\n        /* \"zk/Tornado.sol\":3180:3190  currentIdx */\n      dup8\n        /* \"zk/Tornado.sol\":3180:3194  currentIdx / 2 */\n      tag_102\n      swap2\n      swap1\n      tag_103\n      jump\t// in\n    tag_102:\n        /* \"zk/Tornado.sol\":3167:3194  currentIdx = currentIdx / 2 */\n      swap7\n      pop\n        /* \"zk/Tornado.sol\":2501:3206  {... */\n      pop\n        /* \"zk/Tornado.sol\":2497:2500  i++ */\n      dup1\n      dup1\n      tag_104\n      swap1\n      tag_105\n      jump\t// in\n    tag_104:\n      swap2\n      pop\n      pop\n        /* \"zk/Tornado.sol\":2465:3206  for(uint8 i = 0; i < treeLevel; i++){... */\n      jump(tag_70)\n    tag_71:\n      pop\n        /* \"zk/Tornado.sol\":3228:3239  currentHash */\n      dup4\n        /* \"zk/Tornado.sol\":3218:3239  newRoot = currentHash */\n      swap8\n      pop\n        /* \"zk/Tornado.sol\":3267:3271  true */\n      0x01\n        /* \"zk/Tornado.sol\":3250:3255  roots */\n      0x05\n        /* \"zk/Tornado.sol\":3250:3264  roots[newRoot] */\n      0x00\n        /* \"zk/Tornado.sol\":3256:3263  newRoot */\n      dup11\n        /* \"zk/Tornado.sol\":3250:3264  roots[newRoot] */\n      dup2\n      mstore\n      0x20\n      add\n      swap1\n      dup2\n      mstore\n      0x20\n      add\n      0x00\n      keccak256\n      0x00\n        /* \"zk/Tornado.sol\":3250:3271  roots[newRoot] = true */\n      0x0100\n      exp\n      dup2\n      sload\n      dup2\n      0xff\n      mul\n      not\n      and\n      swap1\n      dup4\n      iszero\n      iszero\n      mul\n      or\n      swap1\n      sstore\n      pop\n        /* \"zk/Tornado.sol\":3297:3298  1 */\n      0x01\n        /* \"zk/Tornado.sol\":3282:3293  nextLeafIdx */\n      0x04\n      0x00\n        /* \"zk/Tornado.sol\":3282:3298  nextLeafIdx += 1 */\n      dup3\n      dup3\n      sload\n      tag_106\n      swap2\n      swap1\n      tag_107\n      jump\t// in\n    tag_106:\n      swap3\n      pop\n      pop\n      dup2\n      swap1\n      sstore\n      pop\n        /* \"zk/Tornado.sol\":3338:3342  true */\n      0x01\n        /* \"zk/Tornado.sol\":3311:3322  commitments */\n      0x08\n        /* \"zk/Tornado.sol\":3311:3335  commitments[_commitment] */\n      0x00\n        /* \"zk/Tornado.sol\":3323:3334  _commitment */\n      dup12\n        /* \"zk/Tornado.sol\":3311:3335  commitments[_commitment] */\n      dup2\n      mstore\n      0x20\n      add\n      swap1\n      dup2\n      mstore\n      0x20\n      add\n      0x00\n      keccak256\n      0x00\n        /* \"zk/Tornado.sol\":3311:3342  commitments[_commitment] = true */\n      0x0100\n      exp\n      dup2\n      sload\n      dup2\n      0xff\n      mul\n      not\n      and\n      swap1\n      dup4\n      iszero\n      iszero\n      mul\n      or\n      swap1\n      sstore\n      pop\n        /* \"zk/Tornado.sol\":3358:3404  Deposit(newRoot, hashPairings, hashDirections) */\n      0xe6ab8667cb740d6c65a4ad321c031eb42f6c5085d5753238d1b2e1e370c13483\n        /* \"zk/Tornado.sol\":3366:3373  newRoot */\n      dup9\n        /* \"zk/Tornado.sol\":3375:3387  hashPairings */\n      dup9\n        /* \"zk/Tornado.sol\":3389:3403  hashDirections */\n      dup9\n        /* \"zk/Tornado.sol\":3358:3404  Deposit(newRoot, hashPairings, hashDirections) */\n      mload(0x40)\n      tag_108\n      swap4\n      swap3\n      swap2\n      swap1\n      tag_109\n      jump\t// in\n    tag_108:\n      mload(0x40)\n      dup1\n      swap2\n      sub\n      swap1\n      log1\n        /* \"zk/Tornado.sol\":1968:3412  {... */\n      pop\n      pop\n      pop\n      pop\n      pop\n      pop\n      pop\n      pop\n        /* \"zk/ReentrancyGuard.sol\":2355:2375  _nonReentrantAfter() */\n      tag_110\n        /* \"zk/ReentrancyGuard.sol\":2355:2373  _nonReentrantAfter */\n      tag_111\n        /* \"zk/ReentrancyGuard.sol\":2355:2375  _nonReentrantAfter() */\n      jump\t// in\n    tag_110:\n        /* \"zk/Tornado.sol\":1900:3412  function deposit(uint256 _commitment) external payable nonReentrant {... */\n      pop\n      jump\t// out\n        /* \"zk/Tornado.sol\":355:382  uint8 public treeLevel = 10 */\n    tag_37:\n      0x02\n      0x14\n      swap1\n      sload\n      swap1\n      0x0100\n      exp\n      swap1\n      div\n      0xff\n      and\n      dup2\n      jump\t// out\n        /* \"zk/Tornado.sol\":476:513  mapping(uint256 => bool) public roots */\n    tag_43:\n      mstore(0x20, 0x05)\n      dup1\n      0x00\n      mstore\n      keccak256(0x00, 0x40)\n      0x00\n      swap2\n      pop\n      sload\n      swap1\n      0x0100\n      exp\n      swap1\n      div\n      0xff\n      and\n      dup2\n      jump\t// out\n        /* \"zk/Tornado.sol\":3420:4295  function withdraw(... */\n    tag_48:\n        /* \"zk/ReentrancyGuard.sol\":2311:2332  _nonReentrantBefore() */\n      tag_113\n        /* \"zk/ReentrancyGuard.sol\":2311:2330  _nonReentrantBefore */\n      tag_51\n        /* \"zk/ReentrancyGuard.sol\":2311:2332  _nonReentrantBefore() */\n      jump\t// in\n    tag_113:\n        /* \"zk/Tornado.sol\":3601:3614  uint256 _root */\n      0x00\n        /* \"zk/Tornado.sol\":3617:3622  input */\n      dup2\n        /* \"zk/Tornado.sol\":3623:3624  0 */\n      0x00\n        /* \"zk/Tornado.sol\":3617:3625  input[0] */\n      0x02\n      dup2\n      lt\n      tag_115\n      jumpi\n      tag_116\n      tag_78\n      jump\t// in\n    tag_116:\n    tag_115:\n      0x20\n      mul\n      add\n      mload\n        /* \"zk/Tornado.sol\":3601:3625  uint256 _root = input[0] */\n      swap1\n      pop\n        /* \"zk/Tornado.sol\":3636:3658  uint256 _nullifierHash */\n      0x00\n        /* \"zk/Tornado.sol\":3661:3666  input */\n      dup3\n        /* \"zk/Tornado.sol\":3667:3668  1 */\n      0x01\n        /* \"zk/Tornado.sol\":3661:3669  input[1] */\n      0x02\n      dup2\n      lt\n      tag_117\n      jumpi\n      tag_118\n      tag_78\n      jump\t// in\n    tag_118:\n    tag_117:\n      0x20\n      mul\n      add\n      mload\n        /* \"zk/Tornado.sol\":3636:3669  uint256 _nullifierHash = input[1] */\n      swap1\n      pop\n        /* \"zk/Tornado.sol\":3761:3766  roots */\n      0x05\n        /* \"zk/Tornado.sol\":3761:3773  roots[_root] */\n      0x00\n        /* \"zk/Tornado.sol\":3767:3772  _root */\n      dup4\n        /* \"zk/Tornado.sol\":3761:3773  roots[_root] */\n      dup2\n      mstore\n      0x20\n      add\n      swap1\n      dup2\n      mstore\n      0x20\n      add\n      0x00\n      keccak256\n      0x00\n      swap1\n      sload\n      swap1\n      0x0100\n      exp\n      swap1\n      div\n      0xff\n      and\n        /* \"zk/Tornado.sol\":3753:3786  require(roots[_root], \"not-root\") */\n      tag_119\n      jumpi\n      mload(0x40)\n      0x08c379a000000000000000000000000000000000000000000000000000000000\n      dup2\n      mstore\n      0x04\n      add\n      tag_120\n      swap1\n      tag_121\n      jump\t// in\n    tag_120:\n      mload(0x40)\n      dup1\n      swap2\n      sub\n      swap1\n      revert\n    tag_119:\n        /* \"zk/Tornado.sol\":3799:3812  uint256 _addr */\n      0x00\n        /* \"zk/Tornado.sol\":3831:3841  msg.sender */\n      caller\n        /* \"zk/Tornado.sol\":3815:3843  uint256(uint160(msg.sender)) */\n      0xffffffffffffffffffffffffffffffffffffffff\n      and\n        /* \"zk/Tornado.sol\":3799:3843  uint256 _addr = uint256(uint160(msg.sender)) */\n      swap1\n      pop\n        /* \"zk/Tornado.sol\":3857:3870  bool verifyOK */\n      0x00\n        /* \"zk/Tornado.sol\":3876:3884  verifier */\n      0x01\n      0x00\n      swap1\n      sload\n      swap1\n      0x0100\n      exp\n      swap1\n      div\n      0xffffffffffffffffffffffffffffffffffffffff\n      and\n        /* \"zk/Tornado.sol\":3876:3889  verifier.call */\n      0xffffffffffffffffffffffffffffffffffffffff\n      and\n        /* \"zk/Tornado.sol\":3929:3930  a */\n      dup9\n        /* \"zk/Tornado.sol\":3932:3933  b */\n      dup9\n        /* \"zk/Tornado.sol\":3935:3936  c */\n      dup9\n        /* \"zk/Tornado.sol\":3890:3970  abi.encodeCall(IVerifier.verifyProof, (a, b, c, [_root, _nullifierHash, _addr])) */\n      mload(0x40)\n      dup1\n      0x60\n      add\n      0x40\n      mstore\n      dup1\n        /* \"zk/Tornado.sol\":3939:3944  _root */\n      dup10\n        /* \"zk/Tornado.sol\":3890:3970  abi.encodeCall(IVerifier.verifyProof, (a, b, c, [_root, _nullifierHash, _addr])) */\n      dup2\n      mstore\n      0x20\n      add\n        /* \"zk/Tornado.sol\":3946:3960  _nullifierHash */\n      dup9\n        /* \"zk/Tornado.sol\":3890:3970  abi.encodeCall(IVerifier.verifyProof, (a, b, c, [_root, _nullifierHash, _addr])) */\n      dup2\n      mstore\n      0x20\n      add\n        /* \"zk/Tornado.sol\":3962:3967  _addr */\n      dup8\n        /* \"zk/Tornado.sol\":3890:3970  abi.encodeCall(IVerifier.verifyProof, (a, b, c, [_root, _nullifierHash, _addr])) */\n      dup2\n      mstore\n      pop\n      add(0x24, mload(0x40))\n      tag_122\n      swap5\n      swap4\n      swap3\n      swap2\n      swap1\n      tag_123\n      jump\t// in\n    tag_122:\n      mload(0x40)\n      0x20\n      dup2\n      dup4\n      sub\n      sub\n      dup2\n      mstore\n      swap1\n      0x40\n      mstore\n      shl(0xe0, 0x11479fea)\n      0x20\n      dup3\n      add\n      dup1\n      mload\n      0xffffffffffffffffffffffffffffffffffffffffffffffffffffffff\n      dup4\n      dup2\n      dup4\n      and\n      or\n      dup4\n      mstore\n      pop\n      pop\n      pop\n      pop\n        /* \"zk/Tornado.sol\":3876:3971  verifier.call(abi.encodeCall(IVerifier.verifyProof, (a, b, c, [_root, _nullifierHash, _addr]))) */\n      mload(0x40)\n      tag_124\n      swap2\n      swap1\n      tag_125\n      jump\t// in\n    tag_124:\n      0x00\n      mload(0x40)\n      dup1\n      dup4\n      sub\n      dup2\n      0x00\n      dup7\n      gas\n      call\n      swap2\n      pop\n      pop\n      returndatasize\n      dup1\n      0x00\n      dup2\n      eq\n      tag_128\n      jumpi\n      mload(0x40)\n      swap2\n      pop\n      and(add(returndatasize, 0x3f), not(0x1f))\n      dup3\n      add\n      0x40\n      mstore\n      returndatasize\n      dup3\n      mstore\n      returndatasize\n      0x00\n      0x20\n      dup5\n      add\n      returndatacopy\n      jump(tag_127)\n    tag_128:\n      0x60\n      swap2\n      pop\n    tag_127:\n      pop\n        /* \"zk/Tornado.sol\":3856:3971  (bool verifyOK, ) = verifier.call(abi.encodeCall(IVerifier.verifyProof, (a, b, c, [_root, _nullifierHash, _addr]))) */\n      pop\n      swap1\n      pop\n        /* \"zk/Tornado.sol\":3992:4000  verifyOK */\n      dup1\n        /* \"zk/Tornado.sol\":3984:4018  require(verifyOK, \"invalid-proof\") */\n      tag_129\n      jumpi\n      mload(0x40)\n      0x08c379a000000000000000000000000000000000000000000000000000000000\n      dup2\n      mstore\n      0x04\n      add\n      tag_130\n      swap1\n      tag_131\n      jump\t// in\n    tag_130:\n      mload(0x40)\n      dup1\n      swap2\n      sub\n      swap1\n      revert\n    tag_129:\n        /* \"zk/Tornado.sol\":4065:4069  true */\n      0x01\n        /* \"zk/Tornado.sol\":4031:4046  nullifierHashes */\n      0x07\n        /* \"zk/Tornado.sol\":4031:4062  nullifierHashes[_nullifierHash] */\n      0x00\n        /* \"zk/Tornado.sol\":4047:4061  _nullifierHash */\n      dup6\n        /* \"zk/Tornado.sol\":4031:4062  nullifierHashes[_nullifierHash] */\n      dup2\n      mstore\n      0x20\n      add\n      swap1\n      dup2\n      mstore\n      0x20\n      add\n      0x00\n      keccak256\n      0x00\n        /* \"zk/Tornado.sol\":4031:4069  nullifierHashes[_nullifierHash] = true */\n      0x0100\n      exp\n      dup2\n      sload\n      dup2\n      0xff\n      mul\n      not\n      and\n      swap1\n      dup4\n      iszero\n      iszero\n      mul\n      or\n      swap1\n      sstore\n      pop\n        /* \"zk/Tornado.sol\":4080:4102  address payable target */\n      0x00\n        /* \"zk/Tornado.sol\":4113:4123  msg.sender */\n      caller\n        /* \"zk/Tornado.sol\":4080:4124  address payable target = payable(msg.sender) */\n      swap1\n      pop\n        /* \"zk/Tornado.sol\":4138:4145  bool ok */\n      0x00\n        /* \"zk/Tornado.sol\":4151:4157  target */\n      dup2\n        /* \"zk/Tornado.sol\":4151:4162  target.call */\n      0xffffffffffffffffffffffffffffffffffffffff\n      and\n        /* \"zk/Tornado.sol\":4171:4183  denomination */\n      sload(0x03)\n        /* \"zk/Tornado.sol\":4151:4189  target.call{ value: denomination }(\"\") */\n      mload(0x40)\n      tag_132\n      swap1\n      tag_133\n      jump\t// in\n    tag_132:\n      0x00\n      mload(0x40)\n      dup1\n      dup4\n      sub\n      dup2\n      dup6\n      dup8\n      gas\n      call\n      swap3\n      pop\n      pop\n      pop\n      returndatasize\n      dup1\n      0x00\n      dup2\n      eq\n      tag_136\n      jumpi\n      mload(0x40)\n      swap2\n      pop\n      and(add(returndatasize, 0x3f), not(0x1f))\n      dup3\n      add\n      0x40\n      mstore\n      returndatasize\n      dup3\n      mstore\n      returndatasize\n      0x00\n      0x20\n      dup5\n      add\n      returndatacopy\n      jump(tag_135)\n    tag_136:\n      0x60\n      swap2\n      pop\n    tag_135:\n      pop\n        /* \"zk/Tornado.sol\":4137:4189  (bool ok, ) = target.call{ value: denomination }(\"\") */\n      pop\n      swap1\n      pop\n        /* \"zk/Tornado.sol\":4210:4212  ok */\n      dup1\n        /* \"zk/Tornado.sol\":4202:4231  require(ok, \"payment-failed\") */\n      tag_137\n      jumpi\n      mload(0x40)\n      0x08c379a000000000000000000000000000000000000000000000000000000000\n      dup2\n      mstore\n      0x04\n      add\n      tag_138\n      swap1\n      tag_139\n      jump\t// in\n    tag_138:\n      mload(0x40)\n      dup1\n      swap2\n      sub\n      swap1\n      revert\n    tag_137:\n        /* \"zk/Tornado.sol\":4249:4287  Withdrawal(msg.sender, _nullifierHash) */\n      0x7fcf532c15f0a6db0bd6d0e038bea71d30d808c7d98cb3bf7268a95bf5081b65\n        /* \"zk/Tornado.sol\":4260:4270  msg.sender */\n      caller\n        /* \"zk/Tornado.sol\":4272:4286  _nullifierHash */\n      dup7\n        /* \"zk/Tornado.sol\":4249:4287  Withdrawal(msg.sender, _nullifierHash) */\n      mload(0x40)\n      tag_140\n      swap3\n      swap2\n      swap1\n      tag_141\n      jump\t// in\n    tag_140:\n      mload(0x40)\n      dup1\n      swap2\n      sub\n      swap1\n      log1\n        /* \"zk/Tornado.sol\":3590:4295  {... */\n      pop\n      pop\n      pop\n      pop\n      pop\n      pop\n        /* \"zk/ReentrancyGuard.sol\":2355:2375  _nonReentrantAfter() */\n      tag_142\n        /* \"zk/ReentrancyGuard.sol\":2355:2373  _nonReentrantAfter */\n      tag_111\n        /* \"zk/ReentrancyGuard.sol\":2355:2375  _nonReentrantAfter() */\n      jump\t// in\n    tag_142:\n        /* \"zk/Tornado.sol\":3420:4295  function withdraw(... */\n      pop\n      pop\n      pop\n      pop\n      jump\t// out\n        /* \"zk/ReentrancyGuard.sol\":2391:2684  function _nonReentrantBefore() private {... */\n    tag_51:\n        /* \"zk/ReentrancyGuard.sol\":1793:1794  2 */\n      0x02\n        /* \"zk/ReentrancyGuard.sol\":2525:2532  _status */\n      sload(0x00)\n        /* \"zk/ReentrancyGuard.sol\":2525:2544  _status != _ENTERED */\n      sub\n        /* \"zk/ReentrancyGuard.sol\":2517:2580  require(_status != _ENTERED, \"ReentrancyGuard: reentrant call\") */\n      tag_144\n      jumpi\n      mload(0x40)\n      0x08c379a000000000000000000000000000000000000000000000000000000000\n      dup2\n      mstore\n      0x04\n      add\n      tag_145\n      swap1\n      tag_146\n      jump\t// in\n    tag_145:\n      mload(0x40)\n      dup1\n      swap2\n      sub\n      swap1\n      revert\n    tag_144:\n        /* \"zk/ReentrancyGuard.sol\":1793:1794  2 */\n      0x02\n        /* \"zk/ReentrancyGuard.sol\":2658:2665  _status */\n      0x00\n        /* \"zk/ReentrancyGuard.sol\":2658:2676  _status = _ENTERED */\n      dup2\n      swap1\n      sstore\n      pop\n        /* \"zk/ReentrancyGuard.sol\":2391:2684  function _nonReentrantBefore() private {... */\n      jump\t// out\n        /* \"zk/ReentrancyGuard.sol\":2692:2905  function _nonReentrantAfter() private {... */\n    tag_111:\n        /* \"zk/ReentrancyGuard.sol\":1749:1750  1 */\n      0x01\n        /* \"zk/ReentrancyGuard.sol\":2875:2882  _status */\n      0x00\n        /* \"zk/ReentrancyGuard.sol\":2875:2897  _status = _NOT_ENTERED */\n      dup2\n      swap1\n      sstore\n      pop\n        /* \"zk/ReentrancyGuard.sol\":2692:2905  function _nonReentrantAfter() private {... */\n      jump\t// out\n    tag_65:\n      mload(0x40)\n      dup1\n      0x0140\n      add\n      0x40\n      mstore\n      dup1\n      0x0a\n      swap1\n      0x20\n      dup3\n      mul\n      dup1\n      calldatasize\n      dup4\n      calldatacopy\n      dup1\n      dup3\n      add\n      swap2\n      pop\n      pop\n      swap1\n      pop\n      pop\n      swap1\n      jump\t// out\n    tag_67:\n      mload(0x40)\n      dup1\n      0x0140\n      add\n      0x40\n      mstore\n      dup1\n      0x0a\n      swap1\n      0x20\n      dup3\n      mul\n      dup1\n      calldatasize\n      dup4\n      calldatacopy\n      dup1\n      dup3\n      add\n      swap2\n      pop\n      pop\n      swap1\n      pop\n      pop\n      swap1\n      jump\t// out\n    tag_69:\n      mload(0x40)\n      dup1\n      0x40\n      add\n      0x40\n      mstore\n      dup1\n      0x02\n      swap1\n      0x20\n      dup3\n      mul\n      dup1\n      calldatasize\n      dup4\n      calldatacopy\n      dup1\n      dup3\n      add\n      swap2\n      pop\n      pop\n      swap1\n      pop\n      pop\n      swap1\n      jump\t// out\n        /* \"#utility.yul\":7:82   */\n    tag_148:\n        /* \"#utility.yul\":40:46   */\n      0x00\n        /* \"#utility.yul\":73:75   */\n      0x40\n        /* \"#utility.yul\":67:76   */\n      mload\n        /* \"#utility.yul\":57:76   */\n      swap1\n      pop\n        /* \"#utility.yul\":7:82   */\n      swap1\n      jump\t// out\n        /* \"#utility.yul\":88:205   */\n    tag_149:\n        /* \"#utility.yul\":197:198   */\n      0x00\n        /* \"#utility.yul\":194:195   */\n      dup1\n        /* \"#utility.yul\":187:199   */\n      revert\n        /* \"#utility.yul\":334:411   */\n    tag_151:\n        /* \"#utility.yul\":371:378   */\n      0x00\n        /* \"#utility.yul\":400:405   */\n      dup2\n        /* \"#utility.yul\":389:405   */\n      swap1\n      pop\n        /* \"#utility.yul\":334:411   */\n      swap2\n      swap1\n      pop\n      jump\t// out\n        /* \"#utility.yul\":417:539   */\n    tag_152:\n        /* \"#utility.yul\":490:514   */\n      tag_239\n        /* \"#utility.yul\":508:513   */\n      dup2\n        /* \"#utility.yul\":490:514   */\n      tag_151\n      jump\t// in\n    tag_239:\n        /* \"#utility.yul\":483:488   */\n      dup2\n        /* \"#utility.yul\":480:515   */\n      eq\n        /* \"#utility.yul\":470:533   */\n      tag_240\n      jumpi\n        /* \"#utility.yul\":529:530   */\n      0x00\n        /* \"#utility.yul\":526:527   */\n      dup1\n        /* \"#utility.yul\":519:531   */\n      revert\n        /* \"#utility.yul\":470:533   */\n    tag_240:\n        /* \"#utility.yul\":417:539   */\n      pop\n      jump\t// out\n        /* \"#utility.yul\":545:684   */\n    tag_153:\n        /* \"#utility.yul\":591:596   */\n      0x00\n        /* \"#utility.yul\":629:635   */\n      dup2\n        /* \"#utility.yul\":616:636   */\n      calldataload\n        /* \"#utility.yul\":607:636   */\n      swap1\n      pop\n        /* \"#utility.yul\":645:678   */\n      tag_242\n        /* \"#utility.yul\":672:677   */\n      dup2\n        /* \"#utility.yul\":645:678   */\n      tag_152\n      jump\t// in\n    tag_242:\n        /* \"#utility.yul\":545:684   */\n      swap3\n      swap2\n      pop\n      pop\n      jump\t// out\n        /* \"#utility.yul\":690:1019   */\n    tag_14:\n        /* \"#utility.yul\":749:755   */\n      0x00\n        /* \"#utility.yul\":798:800   */\n      0x20\n        /* \"#utility.yul\":786:795   */\n      dup3\n        /* \"#utility.yul\":777:784   */\n      dup5\n        /* \"#utility.yul\":773:796   */\n      sub\n        /* \"#utility.yul\":769:801   */\n      slt\n        /* \"#utility.yul\":766:885   */\n      iszero\n      tag_244\n      jumpi\n        /* \"#utility.yul\":804:883   */\n      tag_245\n      tag_149\n      jump\t// in\n    tag_245:\n        /* \"#utility.yul\":766:885   */\n    tag_244:\n        /* \"#utility.yul\":924:925   */\n      0x00\n        /* \"#utility.yul\":949:1002   */\n      tag_246\n        /* \"#utility.yul\":994:1001   */\n      dup5\n        /* \"#utility.yul\":985:991   */\n      dup3\n        /* \"#utility.yul\":974:983   */\n      dup6\n        /* \"#utility.yul\":970:992   */\n      add\n        /* \"#utility.yul\":949:1002   */\n      tag_153\n      jump\t// in\n    tag_246:\n        /* \"#utility.yul\":939:1002   */\n      swap2\n      pop\n        /* \"#utility.yul\":895:1012   */\n      pop\n        /* \"#utility.yul\":690:1019   */\n      swap3\n      swap2\n      pop\n      pop\n      jump\t// out\n        /* \"#utility.yul\":1025:1115   */\n    tag_154:\n        /* \"#utility.yul\":1059:1066   */\n      0x00\n        /* \"#utility.yul\":1102:1107   */\n      dup2\n        /* \"#utility.yul\":1095:1108   */\n      iszero\n        /* \"#utility.yul\":1088:1109   */\n      iszero\n        /* \"#utility.yul\":1077:1109   */\n      swap1\n      pop\n        /* \"#utility.yul\":1025:1115   */\n      swap2\n      swap1\n      pop\n      jump\t// out\n        /* \"#utility.yul\":1121:1230   */\n    tag_155:\n        /* \"#utility.yul\":1202:1223   */\n      tag_249\n        /* \"#utility.yul\":1217:1222   */\n      dup2\n        /* \"#utility.yul\":1202:1223   */\n      tag_154\n      jump\t// in\n    tag_249:\n        /* \"#utility.yul\":1197:1200   */\n      dup3\n        /* \"#utility.yul\":1190:1224   */\n      mstore\n        /* \"#utility.yul\":1121:1230   */\n      pop\n      pop\n      jump\t// out\n        /* \"#utility.yul\":1236:1446   */\n    tag_17:\n        /* \"#utility.yul\":1323:1327   */\n      0x00\n        /* \"#utility.yul\":1361:1363   */\n      0x20\n        /* \"#utility.yul\":1350:1359   */\n      dup3\n        /* \"#utility.yul\":1346:1364   */\n      add\n        /* \"#utility.yul\":1338:1364   */\n      swap1\n      pop\n        /* \"#utility.yul\":1374:1439   */\n      tag_251\n        /* \"#utility.yul\":1436:1437   */\n      0x00\n        /* \"#utility.yul\":1425:1434   */\n      dup4\n        /* \"#utility.yul\":1421:1438   */\n      add\n        /* \"#utility.yul\":1412:1418   */\n      dup5\n        /* \"#utility.yul\":1374:1439   */\n      tag_155\n      jump\t// in\n    tag_251:\n        /* \"#utility.yul\":1236:1446   */\n      swap3\n      swap2\n      pop\n      pop\n      jump\t// out\n        /* \"#utility.yul\":1452:1570   */\n    tag_156:\n        /* \"#utility.yul\":1539:1563   */\n      tag_253\n        /* \"#utility.yul\":1557:1562   */\n      dup2\n        /* \"#utility.yul\":1539:1563   */\n      tag_151\n      jump\t// in\n    tag_253:\n        /* \"#utility.yul\":1534:1537   */\n      dup3\n        /* \"#utility.yul\":1527:1564   */\n      mstore\n        /* \"#utility.yul\":1452:1570   */\n      pop\n      pop\n      jump\t// out\n        /* \"#utility.yul\":1576:1798   */\n    tag_22:\n        /* \"#utility.yul\":1669:1673   */\n      0x00\n        /* \"#utility.yul\":1707:1709   */\n      0x20\n        /* \"#utility.yul\":1696:1705   */\n      dup3\n        /* \"#utility.yul\":1692:1710   */\n      add\n        /* \"#utility.yul\":1684:1710   */\n      swap1\n      pop\n        /* \"#utility.yul\":1720:1791   */\n      tag_255\n        /* \"#utility.yul\":1788:1789   */\n      0x00\n        /* \"#utility.yul\":1777:1786   */\n      dup4\n        /* \"#utility.yul\":1773:1790   */\n      add\n        /* \"#utility.yul\":1764:1770   */\n      dup5\n        /* \"#utility.yul\":1720:1791   */\n      tag_156\n      jump\t// in\n    tag_255:\n        /* \"#utility.yul\":1576:1798   */\n      swap3\n      swap2\n      pop\n      pop\n      jump\t// out\n        /* \"#utility.yul\":1804:1890   */\n    tag_157:\n        /* \"#utility.yul\":1839:1846   */\n      0x00\n        /* \"#utility.yul\":1879:1883   */\n      0xff\n        /* \"#utility.yul\":1872:1877   */\n      dup3\n        /* \"#utility.yul\":1868:1884   */\n      and\n        /* \"#utility.yul\":1857:1884   */\n      swap1\n      pop\n        /* \"#utility.yul\":1804:1890   */\n      swap2\n      swap1\n      pop\n      jump\t// out\n        /* \"#utility.yul\":1896:2008   */\n    tag_158:\n        /* \"#utility.yul\":1979:2001   */\n      tag_258\n        /* \"#utility.yul\":1995:2000   */\n      dup2\n        /* \"#utility.yul\":1979:2001   */\n      tag_157\n      jump\t// in\n    tag_258:\n        /* \"#utility.yul\":1974:1977   */\n      dup3\n        /* \"#utility.yul\":1967:2002   */\n      mstore\n        /* \"#utility.yul\":1896:2008   */\n      pop\n      pop\n      jump\t// out\n        /* \"#utility.yul\":2014:2228   */\n    tag_39:\n        /* \"#utility.yul\":2103:2107   */\n      0x00\n        /* \"#utility.yul\":2141:2143   */\n      0x20\n        /* \"#utility.yul\":2130:2139   */\n      dup3\n        /* \"#utility.yul\":2126:2144   */\n      add\n        /* \"#utility.yul\":2118:2144   */\n      swap1\n      pop\n        /* \"#utility.yul\":2154:2221   */\n      tag_260\n        /* \"#utility.yul\":2218:2219   */\n      0x00\n        /* \"#utility.yul\":2207:2216   */\n      dup4\n        /* \"#utility.yul\":2203:2220   */\n      add\n        /* \"#utility.yul\":2194:2200   */\n      dup5\n        /* \"#utility.yul\":2154:2221   */\n      tag_158\n      jump\t// in\n    tag_260:\n        /* \"#utility.yul\":2014:2228   */\n      swap3\n      swap2\n      pop\n      pop\n      jump\t// out\n        /* \"#utility.yul\":2234:2351   */\n    tag_159:\n        /* \"#utility.yul\":2343:2344   */\n      0x00\n        /* \"#utility.yul\":2340:2341   */\n      dup1\n        /* \"#utility.yul\":2333:2345   */\n      revert\n        /* \"#utility.yul\":2357:2459   */\n    tag_160:\n        /* \"#utility.yul\":2398:2404   */\n      0x00\n        /* \"#utility.yul\":2449:2451   */\n      0x1f\n        /* \"#utility.yul\":2445:2452   */\n      not\n        /* \"#utility.yul\":2440:2442   */\n      0x1f\n        /* \"#utility.yul\":2433:2438   */\n      dup4\n        /* \"#utility.yul\":2429:2443   */\n      add\n        /* \"#utility.yul\":2425:2453   */\n      and\n        /* \"#utility.yul\":2415:2453   */\n      swap1\n      pop\n        /* \"#utility.yul\":2357:2459   */\n      swap2\n      swap1\n      pop\n      jump\t// out\n        /* \"#utility.yul\":2465:2645   */\n    tag_161:\n        /* \"#utility.yul\":2513:2590   */\n      0x4e487b7100000000000000000000000000000000000000000000000000000000\n        /* \"#utility.yul\":2510:2511   */\n      0x00\n        /* \"#utility.yul\":2503:2591   */\n      mstore\n        /* \"#utility.yul\":2610:2614   */\n      0x41\n        /* \"#utility.yul\":2607:2608   */\n      0x04\n        /* \"#utility.yul\":2600:2615   */\n      mstore\n        /* \"#utility.yul\":2634:2638   */\n      0x24\n        /* \"#utility.yul\":2631:2632   */\n      0x00\n        /* \"#utility.yul\":2624:2639   */\n      revert\n        /* \"#utility.yul\":2651:2932   */\n    tag_162:\n        /* \"#utility.yul\":2734:2761   */\n      tag_265\n        /* \"#utility.yul\":2756:2760   */\n      dup3\n        /* \"#utility.yul\":2734:2761   */\n      tag_160\n      jump\t// in\n    tag_265:\n        /* \"#utility.yul\":2726:2732   */\n      dup2\n        /* \"#utility.yul\":2722:2762   */\n      add\n        /* \"#utility.yul\":2864:2870   */\n      dup2\n        /* \"#utility.yul\":2852:2862   */\n      dup2\n        /* \"#utility.yul\":2849:2871   */\n      lt\n        /* \"#utility.yul\":2828:2846   */\n      0xffffffffffffffff\n        /* \"#utility.yul\":2816:2826   */\n      dup3\n        /* \"#utility.yul\":2813:2847   */\n      gt\n        /* \"#utility.yul\":2810:2872   */\n      or\n        /* \"#utility.yul\":2807:2895   */\n      iszero\n      tag_266\n      jumpi\n        /* \"#utility.yul\":2875:2893   */\n      tag_267\n      tag_161\n      jump\t// in\n    tag_267:\n        /* \"#utility.yul\":2807:2895   */\n    tag_266:\n        /* \"#utility.yul\":2915:2925   */\n      dup1\n        /* \"#utility.yul\":2911:2913   */\n      0x40\n        /* \"#utility.yul\":2904:2926   */\n      mstore\n        /* \"#utility.yul\":2694:2932   */\n      pop\n        /* \"#utility.yul\":2651:2932   */\n      pop\n      pop\n      jump\t// out\n        /* \"#utility.yul\":2938:3067   */\n    tag_163:\n        /* \"#utility.yul\":2972:2978   */\n      0x00\n        /* \"#utility.yul\":2999:3019   */\n      tag_269\n      tag_148\n      jump\t// in\n    tag_269:\n        /* \"#utility.yul\":2989:3019   */\n      swap1\n      pop\n        /* \"#utility.yul\":3028:3061   */\n      tag_270\n        /* \"#utility.yul\":3056:3060   */\n      dup3\n        /* \"#utility.yul\":3048:3054   */\n      dup3\n        /* \"#utility.yul\":3028:3061   */\n      tag_162\n      jump\t// in\n    tag_270:\n        /* \"#utility.yul\":2938:3067   */\n      swap2\n      swap1\n      pop\n      jump\t// out\n        /* \"#utility.yul\":3073:3322   */\n    tag_164:\n        /* \"#utility.yul\":3148:3152   */\n      0x00\n        /* \"#utility.yul\":3238:3256   */\n      0xffffffffffffffff\n        /* \"#utility.yul\":3230:3236   */\n      dup3\n        /* \"#utility.yul\":3227:3257   */\n      gt\n        /* \"#utility.yul\":3224:3280   */\n      iszero\n      tag_272\n      jumpi\n        /* \"#utility.yul\":3260:3278   */\n      tag_273\n      tag_161\n      jump\t// in\n    tag_273:\n        /* \"#utility.yul\":3224:3280   */\n    tag_272:\n        /* \"#utility.yul\":3310:3314   */\n      0x20\n        /* \"#utility.yul\":3302:3308   */\n      dup3\n        /* \"#utility.yul\":3298:3315   */\n      mul\n        /* \"#utility.yul\":3290:3315   */\n      swap1\n      pop\n        /* \"#utility.yul\":3073:3322   */\n      swap2\n      swap1\n      pop\n      jump\t// out\n        /* \"#utility.yul\":3328:3445   */\n    tag_165:\n        /* \"#utility.yul\":3437:3438   */\n      0x00\n        /* \"#utility.yul\":3434:3435   */\n      dup1\n        /* \"#utility.yul\":3427:3439   */\n      revert\n        /* \"#utility.yul\":3469:4112   */\n    tag_166:\n        /* \"#utility.yul\":3563:3568   */\n      0x00\n        /* \"#utility.yul\":3588:3667   */\n      tag_276\n        /* \"#utility.yul\":3604:3666   */\n      tag_277\n        /* \"#utility.yul\":3659:3665   */\n      dup5\n        /* \"#utility.yul\":3604:3666   */\n      tag_164\n      jump\t// in\n    tag_277:\n        /* \"#utility.yul\":3588:3667   */\n      tag_163\n      jump\t// in\n    tag_276:\n        /* \"#utility.yul\":3579:3667   */\n      swap1\n      pop\n        /* \"#utility.yul\":3687:3692   */\n      dup1\n        /* \"#utility.yul\":3740:3744   */\n      0x20\n        /* \"#utility.yul\":3732:3738   */\n      dup5\n        /* \"#utility.yul\":3728:3745   */\n      mul\n        /* \"#utility.yul\":3720:3726   */\n      dup4\n        /* \"#utility.yul\":3716:3746   */\n      add\n        /* \"#utility.yul\":3769:3772   */\n      dup6\n        /* \"#utility.yul\":3761:3767   */\n      dup2\n        /* \"#utility.yul\":3758:3773   */\n      gt\n        /* \"#utility.yul\":3755:3877   */\n      iszero\n      tag_278\n      jumpi\n        /* \"#utility.yul\":3788:3867   */\n      tag_279\n      tag_165\n      jump\t// in\n    tag_279:\n        /* \"#utility.yul\":3755:3877   */\n    tag_278:\n        /* \"#utility.yul\":3903:3909   */\n      dup4\n        /* \"#utility.yul\":3886:4106   */\n    tag_280:\n        /* \"#utility.yul\":3920:3926   */\n      dup2\n        /* \"#utility.yul\":3915:3918   */\n      dup2\n        /* \"#utility.yul\":3912:3927   */\n      lt\n        /* \"#utility.yul\":3886:4106   */\n      iszero\n      tag_282\n      jumpi\n        /* \"#utility.yul\":3995:3998   */\n      dup1\n        /* \"#utility.yul\":4024:4061   */\n      tag_283\n        /* \"#utility.yul\":4057:4060   */\n      dup9\n        /* \"#utility.yul\":4045:4055   */\n      dup3\n        /* \"#utility.yul\":4024:4061   */\n      tag_153\n      jump\t// in\n    tag_283:\n        /* \"#utility.yul\":4019:4022   */\n      dup5\n        /* \"#utility.yul\":4012:4062   */\n      mstore\n        /* \"#utility.yul\":4091:4095   */\n      0x20\n        /* \"#utility.yul\":4086:4089   */\n      dup5\n        /* \"#utility.yul\":4082:4096   */\n      add\n        /* \"#utility.yul\":4075:4096   */\n      swap4\n      pop\n        /* \"#utility.yul\":3962:4106   */\n      pop\n        /* \"#utility.yul\":3946:3950   */\n      0x20\n        /* \"#utility.yul\":3941:3944   */\n      dup2\n        /* \"#utility.yul\":3937:3951   */\n      add\n        /* \"#utility.yul\":3930:3951   */\n      swap1\n      pop\n        /* \"#utility.yul\":3886:4106   */\n      jump(tag_280)\n    tag_282:\n        /* \"#utility.yul\":3890:3911   */\n      pop\n        /* \"#utility.yul\":3569:4112   */\n      pop\n      pop\n        /* \"#utility.yul\":3469:4112   */\n      swap4\n      swap3\n      pop\n      pop\n      pop\n      jump\t// out\n        /* \"#utility.yul\":4136:4475   */\n    tag_167:\n        /* \"#utility.yul\":4205:4210   */\n      0x00\n        /* \"#utility.yul\":4254:4257   */\n      dup3\n        /* \"#utility.yul\":4247:4251   */\n      0x1f\n        /* \"#utility.yul\":4239:4245   */\n      dup4\n        /* \"#utility.yul\":4235:4252   */\n      add\n        /* \"#utility.yul\":4231:4258   */\n      slt\n        /* \"#utility.yul\":4221:4343   */\n      tag_285\n      jumpi\n        /* \"#utility.yul\":4262:4341   */\n      tag_286\n      tag_159\n      jump\t// in\n    tag_286:\n        /* \"#utility.yul\":4221:4343   */\n    tag_285:\n        /* \"#utility.yul\":4366:4370   */\n      0x02\n        /* \"#utility.yul\":4388:4469   */\n      tag_287\n        /* \"#utility.yul\":4465:4468   */\n      dup5\n        /* \"#utility.yul\":4457:4463   */\n      dup3\n        /* \"#utility.yul\":4449:4455   */\n      dup6\n        /* \"#utility.yul\":4388:4469   */\n      tag_166\n      jump\t// in\n    tag_287:\n        /* \"#utility.yul\":4379:4469   */\n      swap2\n      pop\n        /* \"#utility.yul\":4211:4475   */\n      pop\n        /* \"#utility.yul\":4136:4475   */\n      swap3\n      swap2\n      pop\n      pop\n      jump\t// out\n        /* \"#utility.yul\":4481:4753   */\n    tag_168:\n        /* \"#utility.yul\":4579:4583   */\n      0x00\n        /* \"#utility.yul\":4669:4687   */\n      0xffffffffffffffff\n        /* \"#utility.yul\":4661:4667   */\n      dup3\n        /* \"#utility.yul\":4658:4688   */\n      gt\n        /* \"#utility.yul\":4655:4711   */\n      iszero\n      tag_289\n      jumpi\n        /* \"#utility.yul\":4691:4709   */\n      tag_290\n      tag_161\n      jump\t// in\n    tag_290:\n        /* \"#utility.yul\":4655:4711   */\n    tag_289:\n        /* \"#utility.yul\":4741:4745   */\n      0x20\n        /* \"#utility.yul\":4733:4739   */\n      dup3\n        /* \"#utility.yul\":4729:4746   */\n      mul\n        /* \"#utility.yul\":4721:4746   */\n      swap1\n      pop\n        /* \"#utility.yul\":4481:4753   */\n      swap2\n      swap1\n      pop\n      jump\t// out\n        /* \"#utility.yul\":4780:5492   */\n    tag_169:\n        /* \"#utility.yul\":4897:4902   */\n      0x00\n        /* \"#utility.yul\":4922:5024   */\n      tag_292\n        /* \"#utility.yul\":4938:5023   */\n      tag_293\n        /* \"#utility.yul\":5016:5022   */\n      dup5\n        /* \"#utility.yul\":4938:5023   */\n      tag_168\n      jump\t// in\n    tag_293:\n        /* \"#utility.yul\":4922:5024   */\n      tag_163\n      jump\t// in\n    tag_292:\n        /* \"#utility.yul\":4913:5024   */\n      swap1\n      pop\n        /* \"#utility.yul\":5044:5049   */\n      dup1\n        /* \"#utility.yul\":5097:5101   */\n      0x40\n        /* \"#utility.yul\":5089:5095   */\n      dup5\n        /* \"#utility.yul\":5085:5102   */\n      mul\n        /* \"#utility.yul\":5077:5083   */\n      dup4\n        /* \"#utility.yul\":5073:5103   */\n      add\n        /* \"#utility.yul\":5126:5129   */\n      dup6\n        /* \"#utility.yul\":5118:5124   */\n      dup2\n        /* \"#utility.yul\":5115:5130   */\n      gt\n        /* \"#utility.yul\":5112:5234   */\n      iszero\n      tag_294\n      jumpi\n        /* \"#utility.yul\":5145:5224   */\n      tag_295\n      tag_165\n      jump\t// in\n    tag_295:\n        /* \"#utility.yul\":5112:5234   */\n    tag_294:\n        /* \"#utility.yul\":5260:5266   */\n      dup4\n        /* \"#utility.yul\":5243:5486   */\n    tag_296:\n        /* \"#utility.yul\":5277:5283   */\n      dup2\n        /* \"#utility.yul\":5272:5275   */\n      dup2\n        /* \"#utility.yul\":5269:5284   */\n      lt\n        /* \"#utility.yul\":5243:5486   */\n      iszero\n      tag_298\n      jumpi\n        /* \"#utility.yul\":5352:5355   */\n      dup1\n        /* \"#utility.yul\":5381:5441   */\n      tag_299\n        /* \"#utility.yul\":5437:5440   */\n      dup9\n        /* \"#utility.yul\":5425:5435   */\n      dup3\n        /* \"#utility.yul\":5381:5441   */\n      tag_167\n      jump\t// in\n    tag_299:\n        /* \"#utility.yul\":5376:5379   */\n      dup5\n        /* \"#utility.yul\":5369:5442   */\n      mstore\n        /* \"#utility.yul\":5471:5475   */\n      0x20\n        /* \"#utility.yul\":5466:5469   */\n      dup5\n        /* \"#utility.yul\":5462:5476   */\n      add\n        /* \"#utility.yul\":5455:5476   */\n      swap4\n      pop\n        /* \"#utility.yul\":5319:5486   */\n      pop\n        /* \"#utility.yul\":5303:5307   */\n      0x40\n        /* \"#utility.yul\":5298:5301   */\n      dup2\n        /* \"#utility.yul\":5294:5308   */\n      add\n        /* \"#utility.yul\":5287:5308   */\n      swap1\n      pop\n        /* \"#utility.yul\":5243:5486   */\n      jump(tag_296)\n    tag_298:\n        /* \"#utility.yul\":5247:5268   */\n      pop\n        /* \"#utility.yul\":4903:5492   */\n      pop\n      pop\n        /* \"#utility.yul\":4780:5492   */\n      swap4\n      swap3\n      pop\n      pop\n      pop\n      jump\t// out\n        /* \"#utility.yul\":5519:5904   */\n    tag_170:\n        /* \"#utility.yul\":5611:5616   */\n      0x00\n        /* \"#utility.yul\":5660:5663   */\n      dup3\n        /* \"#utility.yul\":5653:5657   */\n      0x1f\n        /* \"#utility.yul\":5645:5651   */\n      dup4\n        /* \"#utility.yul\":5641:5658   */\n      add\n        /* \"#utility.yul\":5637:5664   */\n      slt\n        /* \"#utility.yul\":5627:5749   */\n      tag_301\n      jumpi\n        /* \"#utility.yul\":5668:5747   */\n      tag_302\n      tag_159\n      jump\t// in\n    tag_302:\n        /* \"#utility.yul\":5627:5749   */\n    tag_301:\n        /* \"#utility.yul\":5772:5776   */\n      0x02\n        /* \"#utility.yul\":5794:5898   */\n      tag_303\n        /* \"#utility.yul\":5894:5897   */\n      dup5\n        /* \"#utility.yul\":5886:5892   */\n      dup3\n        /* \"#utility.yul\":5878:5884   */\n      dup6\n        /* \"#utility.yul\":5794:5898   */\n      tag_169\n      jump\t// in\n    tag_303:\n        /* \"#utility.yul\":5785:5898   */\n      swap2\n      pop\n        /* \"#utility.yul\":5617:5904   */\n      pop\n        /* \"#utility.yul\":5519:5904   */\n      swap3\n      swap2\n      pop\n      pop\n      jump\t// out\n        /* \"#utility.yul\":5910:6907   */\n    tag_47:\n        /* \"#utility.yul\":6111:6117   */\n      0x00\n        /* \"#utility.yul\":6119:6125   */\n      dup1\n        /* \"#utility.yul\":6127:6133   */\n      0x00\n        /* \"#utility.yul\":6135:6141   */\n      dup1\n        /* \"#utility.yul\":6184:6187   */\n      0x0140\n        /* \"#utility.yul\":6172:6181   */\n      dup6\n        /* \"#utility.yul\":6163:6170   */\n      dup8\n        /* \"#utility.yul\":6159:6182   */\n      sub\n        /* \"#utility.yul\":6155:6188   */\n      slt\n        /* \"#utility.yul\":6152:6272   */\n      iszero\n      tag_305\n      jumpi\n        /* \"#utility.yul\":6191:6270   */\n      tag_306\n      tag_149\n      jump\t// in\n    tag_306:\n        /* \"#utility.yul\":6152:6272   */\n    tag_305:\n        /* \"#utility.yul\":6311:6312   */\n      0x00\n        /* \"#utility.yul\":6336:6412   */\n      tag_307\n        /* \"#utility.yul\":6404:6411   */\n      dup8\n        /* \"#utility.yul\":6395:6401   */\n      dup3\n        /* \"#utility.yul\":6384:6393   */\n      dup9\n        /* \"#utility.yul\":6380:6402   */\n      add\n        /* \"#utility.yul\":6336:6412   */\n      tag_167\n      jump\t// in\n    tag_307:\n        /* \"#utility.yul\":6326:6412   */\n      swap5\n      pop\n        /* \"#utility.yul\":6282:6422   */\n      pop\n        /* \"#utility.yul\":6461:6463   */\n      0x40\n        /* \"#utility.yul\":6487:6586   */\n      tag_308\n        /* \"#utility.yul\":6578:6585   */\n      dup8\n        /* \"#utility.yul\":6569:6575   */\n      dup3\n        /* \"#utility.yul\":6558:6567   */\n      dup9\n        /* \"#utility.yul\":6554:6576   */\n      add\n        /* \"#utility.yul\":6487:6586   */\n      tag_170\n      jump\t// in\n    tag_308:\n        /* \"#utility.yul\":6477:6586   */\n      swap4\n      pop\n        /* \"#utility.yul\":6432:6596   */\n      pop\n        /* \"#utility.yul\":6635:6638   */\n      0xc0\n        /* \"#utility.yul\":6662:6738   */\n      tag_309\n        /* \"#utility.yul\":6730:6737   */\n      dup8\n        /* \"#utility.yul\":6721:6727   */\n      dup3\n        /* \"#utility.yul\":6710:6719   */\n      dup9\n        /* \"#utility.yul\":6706:6728   */\n      add\n        /* \"#utility.yul\":6662:6738   */\n      tag_167\n      jump\t// in\n    tag_309:\n        /* \"#utility.yul\":6652:6738   */\n      swap3\n      pop\n        /* \"#utility.yul\":6606:6748   */\n      pop\n        /* \"#utility.yul\":6787:6790   */\n      0x0100\n        /* \"#utility.yul\":6814:6890   */\n      tag_310\n        /* \"#utility.yul\":6882:6889   */\n      dup8\n        /* \"#utility.yul\":6873:6879   */\n      dup3\n        /* \"#utility.yul\":6862:6871   */\n      dup9\n        /* \"#utility.yul\":6858:6880   */\n      add\n        /* \"#utility.yul\":6814:6890   */\n      tag_167\n      jump\t// in\n    tag_310:\n        /* \"#utility.yul\":6804:6890   */\n      swap2\n      pop\n        /* \"#utility.yul\":6758:6900   */\n      pop\n        /* \"#utility.yul\":5910:6907   */\n      swap3\n      swap6\n      swap2\n      swap5\n      pop\n      swap3\n      pop\n      jump\t// out\n        /* \"#utility.yul\":6913:7082   */\n    tag_171:\n        /* \"#utility.yul\":6997:7008   */\n      0x00\n        /* \"#utility.yul\":7031:7037   */\n      dup3\n        /* \"#utility.yul\":7026:7029   */\n      dup3\n        /* \"#utility.yul\":7019:7038   */\n      mstore\n        /* \"#utility.yul\":7071:7075   */\n      0x20\n        /* \"#utility.yul\":7066:7069   */\n      dup3\n        /* \"#utility.yul\":7062:7076   */\n      add\n        /* \"#utility.yul\":7047:7076   */\n      swap1\n      pop\n        /* \"#utility.yul\":6913:7082   */\n      swap3\n      swap2\n      pop\n      pop\n      jump\t// out\n        /* \"#utility.yul\":7088:7254   */\n    tag_172:\n        /* \"#utility.yul\":7228:7246   */\n      0x696e636f72726563742d616d6f756e7400000000000000000000000000000000\n        /* \"#utility.yul\":7224:7225   */\n      0x00\n        /* \"#utility.yul\":7216:7222   */\n      dup3\n        /* \"#utility.yul\":7212:7226   */\n      add\n        /* \"#utility.yul\":7205:7247   */\n      mstore\n        /* \"#utility.yul\":7088:7254   */\n      pop\n      jump\t// out\n        /* \"#utility.yul\":7260:7626   */\n    tag_173:\n        /* \"#utility.yul\":7402:7405   */\n      0x00\n        /* \"#utility.yul\":7423:7490   */\n      tag_314\n        /* \"#utility.yul\":7487:7489   */\n      0x10\n        /* \"#utility.yul\":7482:7485   */\n      dup4\n        /* \"#utility.yul\":7423:7490   */\n      tag_171\n      jump\t// in\n    tag_314:\n        /* \"#utility.yul\":7416:7490   */\n      swap2\n      pop\n        /* \"#utility.yul\":7499:7592   */\n      tag_315\n        /* \"#utility.yul\":7588:7591   */\n      dup3\n        /* \"#utility.yul\":7499:7592   */\n      tag_172\n      jump\t// in\n    tag_315:\n        /* \"#utility.yul\":7617:7619   */\n      0x20\n        /* \"#utility.yul\":7612:7615   */\n      dup3\n        /* \"#utility.yul\":7608:7620   */\n      add\n        /* \"#utility.yul\":7601:7620   */\n      swap1\n      pop\n        /* \"#utility.yul\":7260:7626   */\n      swap2\n      swap1\n      pop\n      jump\t// out\n        /* \"#utility.yul\":7632:8051   */\n    tag_55:\n        /* \"#utility.yul\":7798:7802   */\n      0x00\n        /* \"#utility.yul\":7836:7838   */\n      0x20\n        /* \"#utility.yul\":7825:7834   */\n      dup3\n        /* \"#utility.yul\":7821:7839   */\n      add\n        /* \"#utility.yul\":7813:7839   */\n      swap1\n      pop\n        /* \"#utility.yul\":7885:7894   */\n      dup2\n        /* \"#utility.yul\":7879:7883   */\n      dup2\n        /* \"#utility.yul\":7875:7895   */\n      sub\n        /* \"#utility.yul\":7871:7872   */\n      0x00\n        /* \"#utility.yul\":7860:7869   */\n      dup4\n        /* \"#utility.yul\":7856:7873   */\n      add\n        /* \"#utility.yul\":7849:7896   */\n      mstore\n        /* \"#utility.yul\":7913:8044   */\n      tag_317\n        /* \"#utility.yul\":8039:8043   */\n      dup2\n        /* \"#utility.yul\":7913:8044   */\n      tag_173\n      jump\t// in\n    tag_317:\n        /* \"#utility.yul\":7905:8044   */\n      swap1\n      pop\n        /* \"#utility.yul\":7632:8051   */\n      swap2\n      swap1\n      pop\n      jump\t// out\n        /* \"#utility.yul\":8057:8226   */\n    tag_174:\n        /* \"#utility.yul\":8197:8218   */\n      0x6578697374696e672d636f6d6d69746d656e7400000000000000000000000000\n        /* \"#utility.yul\":8193:8194   */\n      0x00\n        /* \"#utility.yul\":8185:8191   */\n      dup3\n        /* \"#utility.yul\":8181:8195   */\n      add\n        /* \"#utility.yul\":8174:8219   */\n      mstore\n        /* \"#utility.yul\":8057:8226   */\n      pop\n      jump\t// out\n        /* \"#utility.yul\":8232:8598   */\n    tag_175:\n        /* \"#utility.yul\":8374:8377   */\n      0x00\n        /* \"#utility.yul\":8395:8462   */\n      tag_320\n        /* \"#utility.yul\":8459:8461   */\n      0x13\n        /* \"#utility.yul\":8454:8457   */\n      dup4\n        /* \"#utility.yul\":8395:8462   */\n      tag_171\n      jump\t// in\n    tag_320:\n        /* \"#utility.yul\":8388:8462   */\n      swap2\n      pop\n        /* \"#utility.yul\":8471:8564   */\n      tag_321\n        /* \"#utility.yul\":8560:8563   */\n      dup3\n        /* \"#utility.yul\":8471:8564   */\n      tag_174\n      jump\t// in\n    tag_321:\n        /* \"#utility.yul\":8589:8591   */\n      0x20\n        /* \"#utility.yul\":8584:8587   */\n      dup3\n        /* \"#utility.yul\":8580:8592   */\n      add\n        /* \"#utility.yul\":8573:8592   */\n      swap1\n      pop\n        /* \"#utility.yul\":8232:8598   */\n      swap2\n      swap1\n      pop\n      jump\t// out\n        /* \"#utility.yul\":8604:9023   */\n    tag_58:\n        /* \"#utility.yul\":8770:8774   */\n      0x00\n        /* \"#utility.yul\":8808:8810   */\n      0x20\n        /* \"#utility.yul\":8797:8806   */\n      dup3\n        /* \"#utility.yul\":8793:8811   */\n      add\n        /* \"#utility.yul\":8785:8811   */\n      swap1\n      pop\n        /* \"#utility.yul\":8857:8866   */\n      dup2\n        /* \"#utility.yul\":8851:8855   */\n      dup2\n        /* \"#utility.yul\":8847:8867   */\n      sub\n        /* \"#utility.yul\":8843:8844   */\n      0x00\n        /* \"#utility.yul\":8832:8841   */\n      dup4\n        /* \"#utility.yul\":8828:8845   */\n      add\n        /* \"#utility.yul\":8821:8868   */\n      mstore\n        /* \"#utility.yul\":8885:9016   */\n      tag_323\n        /* \"#utility.yul\":9011:9015   */\n      dup2\n        /* \"#utility.yul\":8885:9016   */\n      tag_175\n      jump\t// in\n    tag_323:\n        /* \"#utility.yul\":8877:9016   */\n      swap1\n      pop\n        /* \"#utility.yul\":8604:9023   */\n      swap2\n      swap1\n      pop\n      jump\t// out\n        /* \"#utility.yul\":9029:9209   */\n    tag_176:\n        /* \"#utility.yul\":9077:9154   */\n      0x4e487b7100000000000000000000000000000000000000000000000000000000\n        /* \"#utility.yul\":9074:9075   */\n      0x00\n        /* \"#utility.yul\":9067:9155   */\n      mstore\n        /* \"#utility.yul\":9174:9178   */\n      0x11\n        /* \"#utility.yul\":9171:9172   */\n      0x04\n        /* \"#utility.yul\":9164:9179   */\n      mstore\n        /* \"#utility.yul\":9198:9202   */\n      0x24\n        /* \"#utility.yul\":9195:9196   */\n      0x00\n        /* \"#utility.yul\":9188:9203   */\n      revert\n        /* \"#utility.yul\":9215:9317   */\n    tag_177:\n        /* \"#utility.yul\":9257:9265   */\n      0x00\n        /* \"#utility.yul\":9304:9309   */\n      dup2\n        /* \"#utility.yul\":9301:9302   */\n      0x01\n        /* \"#utility.yul\":9297:9310   */\n      shr\n        /* \"#utility.yul\":9276:9310   */\n      swap1\n      pop\n        /* \"#utility.yul\":9215:9317   */\n      swap2\n      swap1\n      pop\n      jump\t// out\n        /* \"#utility.yul\":9323:10171   */\n    tag_178:\n        /* \"#utility.yul\":9384:9389   */\n      0x00\n        /* \"#utility.yul\":9391:9395   */\n      dup1\n        /* \"#utility.yul\":9415:9421   */\n      dup3\n        /* \"#utility.yul\":9406:9421   */\n      swap2\n      pop\n        /* \"#utility.yul\":9439:9444   */\n      dup4\n        /* \"#utility.yul\":9430:9444   */\n      swap1\n      pop\n        /* \"#utility.yul\":9453:10165   */\n    tag_327:\n        /* \"#utility.yul\":9474:9475   */\n      0x01\n        /* \"#utility.yul\":9464:9472   */\n      dup6\n        /* \"#utility.yul\":9461:9476   */\n      gt\n        /* \"#utility.yul\":9453:10165   */\n      iszero\n      tag_329\n      jumpi\n        /* \"#utility.yul\":9569:9573   */\n      dup1\n        /* \"#utility.yul\":9564:9567   */\n      dup7\n        /* \"#utility.yul\":9560:9574   */\n      div\n        /* \"#utility.yul\":9554:9558   */\n      dup2\n        /* \"#utility.yul\":9551:9575   */\n      gt\n        /* \"#utility.yul\":9548:9598   */\n      iszero\n      tag_330\n      jumpi\n        /* \"#utility.yul\":9578:9596   */\n      tag_331\n      tag_176\n      jump\t// in\n    tag_331:\n        /* \"#utility.yul\":9548:9598   */\n    tag_330:\n        /* \"#utility.yul\":9628:9629   */\n      0x01\n        /* \"#utility.yul\":9618:9626   */\n      dup6\n        /* \"#utility.yul\":9614:9630   */\n      and\n        /* \"#utility.yul\":9611:10062   */\n      iszero\n      tag_332\n      jumpi\n        /* \"#utility.yul\":10043:10047   */\n      dup1\n        /* \"#utility.yul\":10036:10041   */\n      dup3\n        /* \"#utility.yul\":10032:10048   */\n      mul\n        /* \"#utility.yul\":10023:10048   */\n      swap2\n      pop\n        /* \"#utility.yul\":9611:10062   */\n    tag_332:\n        /* \"#utility.yul\":10093:10097   */\n      dup1\n        /* \"#utility.yul\":10087:10091   */\n      dup2\n        /* \"#utility.yul\":10083:10098   */\n      mul\n        /* \"#utility.yul\":10075:10098   */\n      swap1\n      pop\n        /* \"#utility.yul\":10123:10155   */\n      tag_333\n        /* \"#utility.yul\":10146:10154   */\n      dup6\n        /* \"#utility.yul\":10123:10155   */\n      tag_177\n      jump\t// in\n    tag_333:\n        /* \"#utility.yul\":10111:10155   */\n      swap5\n      pop\n        /* \"#utility.yul\":9453:10165   */\n      jump(tag_327)\n    tag_329:\n        /* \"#utility.yul\":9323:10171   */\n      swap5\n      pop\n      swap5\n      swap3\n      pop\n      pop\n      pop\n      jump\t// out\n        /* \"#utility.yul\":10177:11250   */\n    tag_179:\n        /* \"#utility.yul\":10231:10236   */\n      0x00\n        /* \"#utility.yul\":10422:10430   */\n      dup3\n        /* \"#utility.yul\":10412:10452   */\n      tag_335\n      jumpi\n        /* \"#utility.yul\":10443:10444   */\n      0x01\n        /* \"#utility.yul\":10434:10444   */\n      swap1\n      pop\n        /* \"#utility.yul\":10445:10450   */\n      jump(tag_334)\n        /* \"#utility.yul\":10412:10452   */\n    tag_335:\n        /* \"#utility.yul\":10471:10475   */\n      dup2\n        /* \"#utility.yul\":10461:10497   */\n      tag_336\n      jumpi\n        /* \"#utility.yul\":10488:10489   */\n      0x00\n        /* \"#utility.yul\":10479:10489   */\n      swap1\n      pop\n        /* \"#utility.yul\":10490:10495   */\n      jump(tag_334)\n        /* \"#utility.yul\":10461:10497   */\n    tag_336:\n        /* \"#utility.yul\":10557:10561   */\n      dup2\n        /* \"#utility.yul\":10605:10606   */\n      0x01\n        /* \"#utility.yul\":10600:10627   */\n      dup2\n      eq\n      tag_338\n      jumpi\n        /* \"#utility.yul\":10641:10642   */\n      0x02\n        /* \"#utility.yul\":10636:10827   */\n      dup2\n      eq\n      tag_339\n      jumpi\n        /* \"#utility.yul\":10550:10827   */\n      jump(tag_337)\n        /* \"#utility.yul\":10600:10627   */\n    tag_338:\n        /* \"#utility.yul\":10618:10619   */\n      0x01\n        /* \"#utility.yul\":10609:10619   */\n      swap2\n      pop\n        /* \"#utility.yul\":10620:10625   */\n      pop\n      jump(tag_334)\n        /* \"#utility.yul\":10636:10827   */\n    tag_339:\n        /* \"#utility.yul\":10681:10684   */\n      0xff\n        /* \"#utility.yul\":10671:10679   */\n      dup5\n        /* \"#utility.yul\":10668:10685   */\n      gt\n        /* \"#utility.yul\":10665:10708   */\n      iszero\n      tag_340\n      jumpi\n        /* \"#utility.yul\":10688:10706   */\n      tag_341\n      tag_176\n      jump\t// in\n    tag_341:\n        /* \"#utility.yul\":10665:10708   */\n    tag_340:\n        /* \"#utility.yul\":10737:10745   */\n      dup4\n        /* \"#utility.yul\":10734:10735   */\n      0x02\n        /* \"#utility.yul\":10730:10746   */\n      exp\n        /* \"#utility.yul\":10721:10746   */\n      swap2\n      pop\n        /* \"#utility.yul\":10772:10775   */\n      dup5\n        /* \"#utility.yul\":10765:10770   */\n      dup3\n        /* \"#utility.yul\":10762:10776   */\n      gt\n        /* \"#utility.yul\":10759:10799   */\n      iszero\n      tag_342\n      jumpi\n        /* \"#utility.yul\":10779:10797   */\n      tag_343\n      tag_176\n      jump\t// in\n    tag_343:\n        /* \"#utility.yul\":10759:10799   */\n    tag_342:\n        /* \"#utility.yul\":10812:10817   */\n      pop\n      jump(tag_334)\n        /* \"#utility.yul\":10550:10827   */\n    tag_337:\n      pop\n        /* \"#utility.yul\":10936:10938   */\n      0x20\n        /* \"#utility.yul\":10926:10934   */\n      dup4\n        /* \"#utility.yul\":10923:10939   */\n      lt\n        /* \"#utility.yul\":10917:10920   */\n      0x0133\n        /* \"#utility.yul\":10911:10915   */\n      dup4\n        /* \"#utility.yul\":10908:10921   */\n      lt\n        /* \"#utility.yul\":10904:10940   */\n      and\n        /* \"#utility.yul\":10886:10888   */\n      0x4e\n        /* \"#utility.yul\":10876:10884   */\n      dup5\n        /* \"#utility.yul\":10873:10889   */\n      lt\n        /* \"#utility.yul\":10868:10870   */\n      0x0b\n        /* \"#utility.yul\":10862:10866   */\n      dup5\n        /* \"#utility.yul\":10859:10871   */\n      lt\n        /* \"#utility.yul\":10855:10890   */\n      and\n        /* \"#utility.yul\":10839:10950   */\n      or\n        /* \"#utility.yul\":10836:11082   */\n      iszero\n      tag_344\n      jumpi\n        /* \"#utility.yul\":10992:11000   */\n      dup3\n        /* \"#utility.yul\":10986:10990   */\n      dup3\n        /* \"#utility.yul\":10982:11001   */\n      exp\n        /* \"#utility.yul\":10973:11001   */\n      swap1\n      pop\n        /* \"#utility.yul\":11027:11030   */\n      dup4\n        /* \"#utility.yul\":11020:11025   */\n      dup2\n        /* \"#utility.yul\":11017:11031   */\n      gt\n        /* \"#utility.yul\":11014:11054   */\n      iszero\n      tag_345\n      jumpi\n        /* \"#utility.yul\":11034:11052   */\n      tag_346\n      tag_176\n      jump\t// in\n    tag_346:\n        /* \"#utility.yul\":11014:11054   */\n    tag_345:\n        /* \"#utility.yul\":11067:11072   */\n      jump(tag_334)\n        /* \"#utility.yul\":10836:11082   */\n    tag_344:\n        /* \"#utility.yul\":11107:11149   */\n      tag_347\n        /* \"#utility.yul\":11145:11148   */\n      dup5\n        /* \"#utility.yul\":11135:11143   */\n      dup5\n        /* \"#utility.yul\":11129:11133   */\n      dup5\n        /* \"#utility.yul\":11126:11127   */\n      0x01\n        /* \"#utility.yul\":11107:11149   */\n      tag_178\n      jump\t// in\n    tag_347:\n        /* \"#utility.yul\":11092:11149   */\n      swap3\n      pop\n      swap1\n      pop\n        /* \"#utility.yul\":11181:11185   */\n      dup2\n        /* \"#utility.yul\":11176:11179   */\n      dup5\n        /* \"#utility.yul\":11172:11186   */\n      div\n        /* \"#utility.yul\":11165:11170   */\n      dup2\n        /* \"#utility.yul\":11162:11187   */\n      gt\n        /* \"#utility.yul\":11159:11210   */\n      iszero\n      tag_348\n      jumpi\n        /* \"#utility.yul\":11190:11208   */\n      tag_349\n      tag_176\n      jump\t// in\n    tag_349:\n        /* \"#utility.yul\":11159:11210   */\n    tag_348:\n        /* \"#utility.yul\":11239:11243   */\n      dup2\n        /* \"#utility.yul\":11232:11237   */\n      dup2\n        /* \"#utility.yul\":11228:11244   */\n      mul\n        /* \"#utility.yul\":11219:11244   */\n      swap1\n      pop\n        /* \"#utility.yul\":10177:11250   */\n    tag_334:\n      swap4\n      swap3\n      pop\n      pop\n      pop\n      jump\t// out\n        /* \"#utility.yul\":11256:11537   */\n    tag_60:\n        /* \"#utility.yul\":11314:11319   */\n      0x00\n        /* \"#utility.yul\":11338:11361   */\n      tag_351\n        /* \"#utility.yul\":11356:11360   */\n      dup3\n        /* \"#utility.yul\":11338:11361   */\n      tag_151\n      jump\t// in\n    tag_351:\n        /* \"#utility.yul\":11330:11361   */\n      swap2\n      pop\n        /* \"#utility.yul\":11382:11407   */\n      tag_352\n        /* \"#utility.yul\":11398:11406   */\n      dup4\n        /* \"#utility.yul\":11382:11407   */\n      tag_157\n      jump\t// in\n    tag_352:\n        /* \"#utility.yul\":11370:11407   */\n      swap3\n      pop\n        /* \"#utility.yul\":11426:11530   */\n      tag_353\n        /* \"#utility.yul\":11463:11529   */\n      0xffffffffffffffffffffffffffffffffffffffffffffffffffffffffffffffff\n        /* \"#utility.yul\":11453:11461   */\n      dup5\n        /* \"#utility.yul\":11447:11451   */\n      dup5\n        /* \"#utility.yul\":11426:11530   */\n      tag_179\n      jump\t// in\n    tag_353:\n        /* \"#utility.yul\":11417:11530   */\n      swap1\n      pop\n        /* \"#utility.yul\":11256:11537   */\n      swap3\n      swap2\n      pop\n      pop\n      jump\t// out\n        /* \"#utility.yul\":11543:11702   */\n    tag_180:\n        /* \"#utility.yul\":11683:11694   */\n      0x747265652d66756c6c0000000000000000000000000000000000000000000000\n        /* \"#utility.yul\":11679:11680   */\n      0x00\n        /* \"#utility.yul\":11671:11677   */\n      dup3\n        /* \"#utility.yul\":11667:11681   */\n      add\n        /* \"#utility.yul\":11660:11695   */\n      mstore\n        /* \"#utility.yul\":11543:11702   */\n      pop\n      jump\t// out\n        /* \"#utility.yul\":11708:12073   */\n    tag_181:\n        /* \"#utility.yul\":11850:11853   */\n      0x00\n        /* \"#utility.yul\":11871:11937   */\n      tag_356\n        /* \"#utility.yul\":11935:11936   */\n      0x09\n        /* \"#utility.yul\":11930:11933   */\n      dup4\n        /* \"#utility.yul\":11871:11937   */\n      tag_171\n      jump\t// in\n    tag_356:\n        /* \"#utility.yul\":11864:11937   */\n      swap2\n      pop\n        /* \"#utility.yul\":11946:12039   */\n      tag_357\n        /* \"#utility.yul\":12035:12038   */\n      dup3\n        /* \"#utility.yul\":11946:12039   */\n      tag_180\n      jump\t// in\n    tag_357:\n        /* \"#utility.yul\":12064:12066   */\n      0x20\n        /* \"#utility.yul\":12059:12062   */\n      dup3\n        /* \"#utility.yul\":12055:12067   */\n      add\n        /* \"#utility.yul\":12048:12067   */\n      swap1\n      pop\n        /* \"#utility.yul\":11708:12073   */\n      swap2\n      swap1\n      pop\n      jump\t// out\n        /* \"#utility.yul\":12079:12498   */\n    tag_63:\n        /* \"#utility.yul\":12245:12249   */\n      0x00\n        /* \"#utility.yul\":12283:12285   */\n      0x20\n        /* \"#utility.yul\":12272:12281   */\n      dup3\n        /* \"#utility.yul\":12268:12286   */\n      add\n        /* \"#utility.yul\":12260:12286   */\n      swap1\n      pop\n        /* \"#utility.yul\":12332:12341   */\n      dup2\n        /* \"#utility.yul\":12326:12330   */\n      dup2\n        /* \"#utility.yul\":12322:12342   */\n      sub\n        /* \"#utility.yul\":12318:12319   */\n      0x00\n        /* \"#utility.yul\":12307:12316   */\n      dup4\n        /* \"#utility.yul\":12303:12320   */\n      add\n        /* \"#utility.yul\":12296:12343   */\n      mstore\n        /* \"#utility.yul\":12360:12491   */\n      tag_359\n        /* \"#utility.yul\":12486:12490   */\n      dup2\n        /* \"#utility.yul\":12360:12491   */\n      tag_181\n      jump\t// in\n    tag_359:\n        /* \"#utility.yul\":12352:12491   */\n      swap1\n      pop\n        /* \"#utility.yul\":12079:12498   */\n      swap2\n      swap1\n      pop\n      jump\t// out\n        /* \"#utility.yul\":12504:12684   */\n    tag_182:\n        /* \"#utility.yul\":12552:12629   */\n      0x4e487b7100000000000000000000000000000000000000000000000000000000\n        /* \"#utility.yul\":12549:12550   */\n      0x00\n        /* \"#utility.yul\":12542:12630   */\n      mstore\n        /* \"#utility.yul\":12649:12653   */\n      0x12\n        /* \"#utility.yul\":12646:12647   */\n      0x04\n        /* \"#utility.yul\":12639:12654   */\n      mstore\n        /* \"#utility.yul\":12673:12677   */\n      0x24\n        /* \"#utility.yul\":12670:12671   */\n      0x00\n        /* \"#utility.yul\":12663:12678   */\n      revert\n        /* \"#utility.yul\":12690:12866   */\n    tag_74:\n        /* \"#utility.yul\":12722:12723   */\n      0x00\n        /* \"#utility.yul\":12739:12759   */\n      tag_362\n        /* \"#utility.yul\":12757:12758   */\n      dup3\n        /* \"#utility.yul\":12739:12759   */\n      tag_151\n      jump\t// in\n    tag_362:\n        /* \"#utility.yul\":12734:12759   */\n      swap2\n      pop\n        /* \"#utility.yul\":12773:12793   */\n      tag_363\n        /* \"#utility.yul\":12791:12792   */\n      dup4\n        /* \"#utility.yul\":12773:12793   */\n      tag_151\n      jump\t// in\n    tag_363:\n        /* \"#utility.yul\":12768:12793   */\n      swap3\n      pop\n        /* \"#utility.yul\":12812:12813   */\n      dup3\n        /* \"#utility.yul\":12802:12837   */\n      tag_364\n      jumpi\n        /* \"#utility.yul\":12817:12835   */\n      tag_365\n      tag_182\n      jump\t// in\n    tag_365:\n        /* \"#utility.yul\":12802:12837   */\n    tag_364:\n        /* \"#utility.yul\":12858:12859   */\n      dup3\n        /* \"#utility.yul\":12855:12856   */\n      dup3\n        /* \"#utility.yul\":12851:12860   */\n      mod\n        /* \"#utility.yul\":12846:12860   */\n      swap1\n      pop\n        /* \"#utility.yul\":12690:12866   */\n      swap3\n      swap2\n      pop\n      pop\n      jump\t// out\n        /* \"#utility.yul\":12872:13052   */\n    tag_78:\n        /* \"#utility.yul\":12920:12997   */\n      0x4e487b7100000000000000000000000000000000000000000000000000000000\n        /* \"#utility.yul\":12917:12918   */\n      0x00\n        /* \"#utility.yul\":12910:12998   */\n      mstore\n        /* \"#utility.yul\":13017:13021   */\n      0x32\n        /* \"#utility.yul\":13014:13015   */\n      0x04\n        /* \"#utility.yul\":13007:13022   */\n      mstore\n        /* \"#utility.yul\":13041:13045   */\n      0x24\n        /* \"#utility.yul\":13038:13039   */\n      0x00\n        /* \"#utility.yul\":13031:13046   */\n      revert\n        /* \"#utility.yul\":13058:13162   */\n    tag_183:\n        /* \"#utility.yul\":13123:13129   */\n      0x00\n        /* \"#utility.yul\":13151:13155   */\n      0x02\n        /* \"#utility.yul\":13141:13155   */\n      swap1\n      pop\n        /* \"#utility.yul\":13058:13162   */\n      swap2\n      swap1\n      pop\n      jump\t// out\n        /* \"#utility.yul\":13168:13311   */\n    tag_184:\n        /* \"#utility.yul\":13265:13276   */\n      0x00\n        /* \"#utility.yul\":13302:13305   */\n      dup2\n        /* \"#utility.yul\":13287:13305   */\n      swap1\n      pop\n        /* \"#utility.yul\":13168:13311   */\n      swap3\n      swap2\n      pop\n      pop\n      jump\t// out\n        /* \"#utility.yul\":13317:13415   */\n    tag_185:\n        /* \"#utility.yul\":13382:13386   */\n      0x00\n        /* \"#utility.yul\":13405:13408   */\n      dup2\n        /* \"#utility.yul\":13397:13408   */\n      swap1\n      pop\n        /* \"#utility.yul\":13317:13415   */\n      swap2\n      swap1\n      pop\n      jump\t// out\n        /* \"#utility.yul\":13421:13529   */\n    tag_186:\n        /* \"#utility.yul\":13498:13522   */\n      tag_371\n        /* \"#utility.yul\":13516:13521   */\n      dup2\n        /* \"#utility.yul\":13498:13522   */\n      tag_151\n      jump\t// in\n    tag_371:\n        /* \"#utility.yul\":13493:13496   */\n      dup3\n        /* \"#utility.yul\":13486:13523   */\n      mstore\n        /* \"#utility.yul\":13421:13529   */\n      pop\n      pop\n      jump\t// out\n        /* \"#utility.yul\":13535:13714   */\n    tag_187:\n        /* \"#utility.yul\":13604:13614   */\n      0x00\n        /* \"#utility.yul\":13625:13671   */\n      tag_373\n        /* \"#utility.yul\":13667:13670   */\n      dup4\n        /* \"#utility.yul\":13659:13665   */\n      dup4\n        /* \"#utility.yul\":13625:13671   */\n      tag_186\n      jump\t// in\n    tag_373:\n        /* \"#utility.yul\":13703:13707   */\n      0x20\n        /* \"#utility.yul\":13698:13701   */\n      dup4\n        /* \"#utility.yul\":13694:13708   */\n      add\n        /* \"#utility.yul\":13680:13708   */\n      swap1\n      pop\n        /* \"#utility.yul\":13535:13714   */\n      swap3\n      swap2\n      pop\n      pop\n      jump\t// out\n        /* \"#utility.yul\":13720:13831   */\n    tag_188:\n        /* \"#utility.yul\":13788:13792   */\n      0x00\n        /* \"#utility.yul\":13820:13824   */\n      0x20\n        /* \"#utility.yul\":13815:13818   */\n      dup3\n        /* \"#utility.yul\":13811:13825   */\n      add\n        /* \"#utility.yul\":13803:13825   */\n      swap1\n      pop\n        /* \"#utility.yul\":13720:13831   */\n      swap2\n      swap1\n      pop\n      jump\t// out\n        /* \"#utility.yul\":13869:14563   */\n    tag_189:\n        /* \"#utility.yul\":14005:14057   */\n      tag_376\n        /* \"#utility.yul\":14051:14056   */\n      dup2\n        /* \"#utility.yul\":14005:14057   */\n      tag_183\n      jump\t// in\n    tag_376:\n        /* \"#utility.yul\":14073:14157   */\n      tag_377\n        /* \"#utility.yul\":14150:14156   */\n      dup2\n        /* \"#utility.yul\":14145:14148   */\n      dup5\n        /* \"#utility.yul\":14073:14157   */\n      tag_184\n      jump\t// in\n    tag_377:\n        /* \"#utility.yul\":14066:14157   */\n      swap3\n      pop\n        /* \"#utility.yul\":14181:14235   */\n      tag_378\n        /* \"#utility.yul\":14229:14234   */\n      dup3\n        /* \"#utility.yul\":14181:14235   */\n      tag_185\n      jump\t// in\n    tag_378:\n        /* \"#utility.yul\":14258:14265   */\n      dup1\n        /* \"#utility.yul\":14289:14290   */\n      0x00\n        /* \"#utility.yul\":14274:14556   */\n    tag_379:\n        /* \"#utility.yul\":14299:14305   */\n      dup4\n        /* \"#utility.yul\":14296:14297   */\n      dup2\n        /* \"#utility.yul\":14293:14306   */\n      lt\n        /* \"#utility.yul\":14274:14556   */\n      iszero\n      tag_381\n      jumpi\n        /* \"#utility.yul\":14375:14381   */\n      dup2\n        /* \"#utility.yul\":14369:14382   */\n      mload\n        /* \"#utility.yul\":14402:14465   */\n      tag_382\n        /* \"#utility.yul\":14461:14464   */\n      dup8\n        /* \"#utility.yul\":14446:14459   */\n      dup3\n        /* \"#utility.yul\":14402:14465   */\n      tag_187\n      jump\t// in\n    tag_382:\n        /* \"#utility.yul\":14395:14465   */\n      swap7\n      pop\n        /* \"#utility.yul\":14488:14546   */\n      tag_383\n        /* \"#utility.yul\":14539:14545   */\n      dup4\n        /* \"#utility.yul\":14488:14546   */\n      tag_188\n      jump\t// in\n    tag_383:\n        /* \"#utility.yul\":14478:14546   */\n      swap3\n      pop\n        /* \"#utility.yul\":14334:14556   */\n      pop\n        /* \"#utility.yul\":14321:14322   */\n      0x01\n        /* \"#utility.yul\":14318:14319   */\n      dup2\n        /* \"#utility.yul\":14314:14323   */\n      add\n        /* \"#utility.yul\":14309:14323   */\n      swap1\n      pop\n        /* \"#utility.yul\":14274:14556   */\n      jump(tag_379)\n    tag_381:\n        /* \"#utility.yul\":14278:14292   */\n      pop\n        /* \"#utility.yul\":13981:14563   */\n      pop\n      pop\n      pop\n        /* \"#utility.yul\":13869:14563   */\n      pop\n      pop\n      jump\t// out\n        /* \"#utility.yul\":14569:14993   */\n    tag_97:\n        /* \"#utility.yul\":14736:14740   */\n      0x00\n        /* \"#utility.yul\":14774:14776   */\n      0x60\n        /* \"#utility.yul\":14763:14772   */\n      dup3\n        /* \"#utility.yul\":14759:14777   */\n      add\n        /* \"#utility.yul\":14751:14777   */\n      swap1\n      pop\n        /* \"#utility.yul\":14787:14904   */\n      tag_385\n        /* \"#utility.yul\":14901:14902   */\n      0x00\n        /* \"#utility.yul\":14890:14899   */\n      dup4\n        /* \"#utility.yul\":14886:14903   */\n      add\n        /* \"#utility.yul\":14877:14883   */\n      dup6\n        /* \"#utility.yul\":14787:14904   */\n      tag_189\n      jump\t// in\n    tag_385:\n        /* \"#utility.yul\":14914:14986   */\n      tag_386\n        /* \"#utility.yul\":14982:14984   */\n      0x40\n        /* \"#utility.yul\":14971:14980   */\n      dup4\n        /* \"#utility.yul\":14967:14985   */\n      add\n        /* \"#utility.yul\":14958:14964   */\n      dup5\n        /* \"#utility.yul\":14914:14986   */\n      tag_156\n      jump\t// in\n    tag_386:\n        /* \"#utility.yul\":14569:14993   */\n      swap4\n      swap3\n      pop\n      pop\n      pop\n      jump\t// out\n        /* \"#utility.yul\":14999:15142   */\n    tag_190:\n        /* \"#utility.yul\":15056:15061   */\n      0x00\n        /* \"#utility.yul\":15087:15093   */\n      dup2\n        /* \"#utility.yul\":15081:15094   */\n      mload\n        /* \"#utility.yul\":15072:15094   */\n      swap1\n      pop\n        /* \"#utility.yul\":15103:15136   */\n      tag_388\n        /* \"#utility.yul\":15130:15135   */\n      dup2\n        /* \"#utility.yul\":15103:15136   */\n      tag_152\n      jump\t// in\n    tag_388:\n        /* \"#utility.yul\":14999:15142   */\n      swap3\n      swap2\n      pop\n      pop\n      jump\t// out\n        /* \"#utility.yul\":15148:15499   */\n    tag_101:\n        /* \"#utility.yul\":15218:15224   */\n      0x00\n        /* \"#utility.yul\":15267:15269   */\n      0x20\n        /* \"#utility.yul\":15255:15264   */\n      dup3\n        /* \"#utility.yul\":15246:15253   */\n      dup5\n        /* \"#utility.yul\":15242:15265   */\n      sub\n        /* \"#utility.yul\":15238:15270   */\n      slt\n        /* \"#utility.yul\":15235:15354   */\n      iszero\n      tag_390\n      jumpi\n        /* \"#utility.yul\":15273:15352   */\n      tag_391\n      tag_149\n      jump\t// in\n    tag_391:\n        /* \"#utility.yul\":15235:15354   */\n    tag_390:\n        /* \"#utility.yul\":15393:15394   */\n      0x00\n        /* \"#utility.yul\":15418:15482   */\n      tag_392\n        /* \"#utility.yul\":15474:15481   */\n      dup5\n        /* \"#utility.yul\":15465:15471   */\n      dup3\n        /* \"#utility.yul\":15454:15463   */\n      dup6\n        /* \"#utility.yul\":15450:15472   */\n      add\n        /* \"#utility.yul\":15418:15482   */\n      tag_190\n      jump\t// in\n    tag_392:\n        /* \"#utility.yul\":15408:15482   */\n      swap2\n      pop\n        /* \"#utility.yul\":15364:15492   */\n      pop\n        /* \"#utility.yul\":15148:15499   */\n      swap3\n      swap2\n      pop\n      pop\n      jump\t// out\n        /* \"#utility.yul\":15505:15690   */\n    tag_103:\n        /* \"#utility.yul\":15545:15546   */\n      0x00\n        /* \"#utility.yul\":15562:15582   */\n      tag_394\n        /* \"#utility.yul\":15580:15581   */\n      dup3\n        /* \"#utility.yul\":15562:15582   */\n      tag_151\n      jump\t// in\n    tag_394:\n        /* \"#utility.yul\":15557:15582   */\n      swap2\n      pop\n        /* \"#utility.yul\":15596:15616   */\n      tag_395\n        /* \"#utility.yul\":15614:15615   */\n      dup4\n        /* \"#utility.yul\":15596:15616   */\n      tag_151\n      jump\t// in\n    tag_395:\n        /* \"#utility.yul\":15591:15616   */\n      swap3\n      pop\n        /* \"#utility.yul\":15635:15636   */\n      dup3\n        /* \"#utility.yul\":15625:15660   */\n      tag_396\n      jumpi\n        /* \"#utility.yul\":15640:15658   */\n      tag_397\n      tag_182\n      jump\t// in\n    tag_397:\n        /* \"#utility.yul\":15625:15660   */\n    tag_396:\n        /* \"#utility.yul\":15682:15683   */\n      dup3\n        /* \"#utility.yul\":15679:15680   */\n      dup3\n        /* \"#utility.yul\":15675:15684   */\n      div\n        /* \"#utility.yul\":15670:15684   */\n      swap1\n      pop\n        /* \"#utility.yul\":15505:15690   */\n      swap3\n      swap2\n      pop\n      pop\n      jump\t// out\n        /* \"#utility.yul\":15696:15863   */\n    tag_105:\n        /* \"#utility.yul\":15733:15736   */\n      0x00\n        /* \"#utility.yul\":15756:15778   */\n      tag_399\n        /* \"#utility.yul\":15772:15777   */\n      dup3\n        /* \"#utility.yul\":15756:15778   */\n      tag_157\n      jump\t// in\n    tag_399:\n        /* \"#utility.yul\":15747:15778   */\n      swap2\n      pop\n        /* \"#utility.yul\":15800:15804   */\n      0xff\n        /* \"#utility.yul\":15793:15798   */\n      dup3\n        /* \"#utility.yul\":15790:15805   */\n      sub\n        /* \"#utility.yul\":15787:15828   */\n      tag_400\n      jumpi\n        /* \"#utility.yul\":15808:15826   */\n      tag_401\n      tag_176\n      jump\t// in\n    tag_401:\n        /* \"#utility.yul\":15787:15828   */\n    tag_400:\n        /* \"#utility.yul\":15855:15856   */\n      0x01\n        /* \"#utility.yul\":15848:15853   */\n      dup3\n        /* \"#utility.yul\":15844:15857   */\n      add\n        /* \"#utility.yul\":15837:15857   */\n      swap1\n      pop\n        /* \"#utility.yul\":15696:15863   */\n      swap2\n      swap1\n      pop\n      jump\t// out\n        /* \"#utility.yul\":15869:16060   */\n    tag_107:\n        /* \"#utility.yul\":15909:15912   */\n      0x00\n        /* \"#utility.yul\":15928:15948   */\n      tag_403\n        /* \"#utility.yul\":15946:15947   */\n      dup3\n        /* \"#utility.yul\":15928:15948   */\n      tag_151\n      jump\t// in\n    tag_403:\n        /* \"#utility.yul\":15923:15948   */\n      swap2\n      pop\n        /* \"#utility.yul\":15962:15982   */\n      tag_404\n        /* \"#utility.yul\":15980:15981   */\n      dup4\n        /* \"#utility.yul\":15962:15982   */\n      tag_151\n      jump\t// in\n    tag_404:\n        /* \"#utility.yul\":15957:15982   */\n      swap3\n      pop\n        /* \"#utility.yul\":16005:16006   */\n      dup3\n        /* \"#utility.yul\":16002:16003   */\n      dup3\n        /* \"#utility.yul\":15998:16007   */\n      add\n        /* \"#utility.yul\":15991:16007   */\n      swap1\n      pop\n        /* \"#utility.yul\":16026:16029   */\n      dup1\n        /* \"#utility.yul\":16023:16024   */\n      dup3\n        /* \"#utility.yul\":16020:16030   */\n      gt\n        /* \"#utility.yul\":16017:16053   */\n      iszero\n      tag_405\n      jumpi\n        /* \"#utility.yul\":16033:16051   */\n      tag_406\n      tag_176\n      jump\t// in\n    tag_406:\n        /* \"#utility.yul\":16017:16053   */\n    tag_405:\n        /* \"#utility.yul\":15869:16060   */\n      swap3\n      swap2\n      pop\n      pop\n      jump\t// out\n        /* \"#utility.yul\":16066:16171   */\n    tag_191:\n        /* \"#utility.yul\":16132:16138   */\n      0x00\n        /* \"#utility.yul\":16160:16164   */\n      0x0a\n        /* \"#utility.yul\":16150:16164   */\n      swap1\n      pop\n        /* \"#utility.yul\":16066:16171   */\n      swap2\n      swap1\n      pop\n      jump\t// out\n        /* \"#utility.yul\":16177:16321   */\n    tag_192:\n        /* \"#utility.yul\":16275:16286   */\n      0x00\n        /* \"#utility.yul\":16312:16315   */\n      dup2\n        /* \"#utility.yul\":16297:16315   */\n      swap1\n      pop\n        /* \"#utility.yul\":16177:16321   */\n      swap3\n      swap2\n      pop\n      pop\n      jump\t// out\n        /* \"#utility.yul\":16327:16426   */\n    tag_193:\n        /* \"#utility.yul\":16393:16397   */\n      0x00\n        /* \"#utility.yul\":16416:16419   */\n      dup2\n        /* \"#utility.yul\":16408:16419   */\n      swap1\n      pop\n        /* \"#utility.yul\":16327:16426   */\n      swap2\n      swap1\n      pop\n      jump\t// out\n        /* \"#utility.yul\":16432:16544   */\n    tag_194:\n        /* \"#utility.yul\":16501:16505   */\n      0x00\n        /* \"#utility.yul\":16533:16537   */\n      0x20\n        /* \"#utility.yul\":16528:16531   */\n      dup3\n        /* \"#utility.yul\":16524:16538   */\n      add\n        /* \"#utility.yul\":16516:16538   */\n      swap1\n      pop\n        /* \"#utility.yul\":16432:16544   */\n      swap2\n      swap1\n      pop\n      jump\t// out\n        /* \"#utility.yul\":16584:17284   */\n    tag_195:\n        /* \"#utility.yul\":16722:16775   */\n      tag_412\n        /* \"#utility.yul\":16769:16774   */\n      dup2\n        /* \"#utility.yul\":16722:16775   */\n      tag_191\n      jump\t// in\n    tag_412:\n        /* \"#utility.yul\":16791:16876   */\n      tag_413\n        /* \"#utility.yul\":16869:16875   */\n      dup2\n        /* \"#utility.yul\":16864:16867   */\n      dup5\n        /* \"#utility.yul\":16791:16876   */\n      tag_192\n      jump\t// in\n    tag_413:\n        /* \"#utility.yul\":16784:16876   */\n      swap3\n      pop\n        /* \"#utility.yul\":16900:16955   */\n      tag_414\n        /* \"#utility.yul\":16949:16954   */\n      dup3\n        /* \"#utility.yul\":16900:16955   */\n      tag_193\n      jump\t// in\n    tag_414:\n        /* \"#utility.yul\":16978:16985   */\n      dup1\n        /* \"#utility.yul\":17009:17010   */\n      0x00\n        /* \"#utility.yul\":16994:17277   */\n    tag_415:\n        /* \"#utility.yul\":17019:17025   */\n      dup4\n        /* \"#utility.yul\":17016:17017   */\n      dup2\n        /* \"#utility.yul\":17013:17026   */\n      lt\n        /* \"#utility.yul\":16994:17277   */\n      iszero\n      tag_417\n      jumpi\n        /* \"#utility.yul\":17095:17101   */\n      dup2\n        /* \"#utility.yul\":17089:17102   */\n      mload\n        /* \"#utility.yul\":17122:17185   */\n      tag_418\n        /* \"#utility.yul\":17181:17184   */\n      dup8\n        /* \"#utility.yul\":17166:17179   */\n      dup3\n        /* \"#utility.yul\":17122:17185   */\n      tag_187\n      jump\t// in\n    tag_418:\n        /* \"#utility.yul\":17115:17185   */\n      swap7\n      pop\n        /* \"#utility.yul\":17208:17267   */\n      tag_419\n        /* \"#utility.yul\":17260:17266   */\n      dup4\n        /* \"#utility.yul\":17208:17267   */\n      tag_194\n      jump\t// in\n    tag_419:\n        /* \"#utility.yul\":17198:17267   */\n      swap3\n      pop\n        /* \"#utility.yul\":17054:17277   */\n      pop\n        /* \"#utility.yul\":17041:17042   */\n      0x01\n        /* \"#utility.yul\":17038:17039   */\n      dup2\n        /* \"#utility.yul\":17034:17043   */\n      add\n        /* \"#utility.yul\":17029:17043   */\n      swap1\n      pop\n        /* \"#utility.yul\":16994:17277   */\n      jump(tag_415)\n    tag_417:\n        /* \"#utility.yul\":16998:17012   */\n      pop\n        /* \"#utility.yul\":16698:17284   */\n      pop\n      pop\n      pop\n        /* \"#utility.yul\":16584:17284   */\n      pop\n      pop\n      jump\t// out\n        /* \"#utility.yul\":17290:17393   */\n    tag_196:\n        /* \"#utility.yul\":17354:17360   */\n      0x00\n        /* \"#utility.yul\":17382:17386   */\n      0x0a\n        /* \"#utility.yul\":17372:17386   */\n      swap1\n      pop\n        /* \"#utility.yul\":17290:17393   */\n      swap2\n      swap1\n      pop\n      jump\t// out\n        /* \"#utility.yul\":17399:17541   */\n    tag_197:\n        /* \"#utility.yul\":17495:17506   */\n      0x00\n        /* \"#utility.yul\":17532:17535   */\n      dup2\n        /* \"#utility.yul\":17517:17535   */\n      swap1\n      pop\n        /* \"#utility.yul\":17399:17541   */\n      swap3\n      swap2\n      pop\n      pop\n      jump\t// out\n        /* \"#utility.yul\":17547:17644   */\n    tag_198:\n        /* \"#utility.yul\":17611:17615   */\n      0x00\n        /* \"#utility.yul\":17634:17637   */\n      dup2\n        /* \"#utility.yul\":17626:17637   */\n      swap1\n      pop\n        /* \"#utility.yul\":17547:17644   */\n      swap2\n      swap1\n      pop\n      jump\t// out\n        /* \"#utility.yul\":17650:17752   */\n    tag_199:\n        /* \"#utility.yul\":17723:17745   */\n      tag_424\n        /* \"#utility.yul\":17739:17744   */\n      dup2\n        /* \"#utility.yul\":17723:17745   */\n      tag_157\n      jump\t// in\n    tag_424:\n        /* \"#utility.yul\":17718:17721   */\n      dup3\n        /* \"#utility.yul\":17711:17746   */\n      mstore\n        /* \"#utility.yul\":17650:17752   */\n      pop\n      pop\n      jump\t// out\n        /* \"#utility.yul\":17758:17929   */\n    tag_200:\n        /* \"#utility.yul\":17823:17833   */\n      0x00\n        /* \"#utility.yul\":17844:17886   */\n      tag_426\n        /* \"#utility.yul\":17882:17885   */\n      dup4\n        /* \"#utility.yul\":17874:17880   */\n      dup4\n        /* \"#utility.yul\":17844:17886   */\n      tag_199\n      jump\t// in\n    tag_426:\n        /* \"#utility.yul\":17918:17922   */\n      0x20\n        /* \"#utility.yul\":17913:17916   */\n      dup4\n        /* \"#utility.yul\":17909:17923   */\n      add\n        /* \"#utility.yul\":17895:17923   */\n      swap1\n      pop\n        /* \"#utility.yul\":17758:17929   */\n      swap3\n      swap2\n      pop\n      pop\n      jump\t// out\n        /* \"#utility.yul\":17935:18045   */\n    tag_201:\n        /* \"#utility.yul\":18002:18006   */\n      0x00\n        /* \"#utility.yul\":18034:18038   */\n      0x20\n        /* \"#utility.yul\":18029:18032   */\n      dup3\n        /* \"#utility.yul\":18025:18039   */\n      add\n        /* \"#utility.yul\":18017:18039   */\n      swap1\n      pop\n        /* \"#utility.yul\":17935:18045   */\n      swap2\n      swap1\n      pop\n      jump\t// out\n        /* \"#utility.yul\":18081:18765   */\n    tag_202:\n        /* \"#utility.yul\":18215:18266   */\n      tag_429\n        /* \"#utility.yul\":18260:18265   */\n      dup2\n        /* \"#utility.yul\":18215:18266   */\n      tag_196\n      jump\t// in\n    tag_429:\n        /* \"#utility.yul\":18282:18365   */\n      tag_430\n        /* \"#utility.yul\":18358:18364   */\n      dup2\n        /* \"#utility.yul\":18353:18356   */\n      dup5\n        /* \"#utility.yul\":18282:18365   */\n      tag_197\n      jump\t// in\n    tag_430:\n        /* \"#utility.yul\":18275:18365   */\n      swap3\n      pop\n        /* \"#utility.yul\":18389:18442   */\n      tag_431\n        /* \"#utility.yul\":18436:18441   */\n      dup3\n        /* \"#utility.yul\":18389:18442   */\n      tag_198\n      jump\t// in\n    tag_431:\n        /* \"#utility.yul\":18465:18472   */\n      dup1\n        /* \"#utility.yul\":18496:18497   */\n      0x00\n        /* \"#utility.yul\":18481:18758   */\n    tag_432:\n        /* \"#utility.yul\":18506:18512   */\n      dup4\n        /* \"#utility.yul\":18503:18504   */\n      dup2\n        /* \"#utility.yul\":18500:18513   */\n      lt\n        /* \"#utility.yul\":18481:18758   */\n      iszero\n      tag_434\n      jumpi\n        /* \"#utility.yul\":18582:18588   */\n      dup2\n        /* \"#utility.yul\":18576:18589   */\n      mload\n        /* \"#utility.yul\":18609:18668   */\n      tag_435\n        /* \"#utility.yul\":18664:18667   */\n      dup8\n        /* \"#utility.yul\":18649:18662   */\n      dup3\n        /* \"#utility.yul\":18609:18668   */\n      tag_200\n      jump\t// in\n    tag_435:\n        /* \"#utility.yul\":18602:18668   */\n      swap7\n      pop\n        /* \"#utility.yul\":18691:18748   */\n      tag_436\n        /* \"#utility.yul\":18741:18747   */\n      dup4\n        /* \"#utility.yul\":18691:18748   */\n      tag_201\n      jump\t// in\n    tag_436:\n        /* \"#utility.yul\":18681:18748   */\n      swap3\n      pop\n        /* \"#utility.yul\":18541:18758   */\n      pop\n        /* \"#utility.yul\":18528:18529   */\n      0x01\n        /* \"#utility.yul\":18525:18526   */\n      dup2\n        /* \"#utility.yul\":18521:18530   */\n      add\n        /* \"#utility.yul\":18516:18530   */\n      swap1\n      pop\n        /* \"#utility.yul\":18481:18758   */\n      jump(tag_432)\n    tag_434:\n        /* \"#utility.yul\":18485:18499   */\n      pop\n        /* \"#utility.yul\":18191:18765   */\n      pop\n      pop\n      pop\n        /* \"#utility.yul\":18081:18765   */\n      pop\n      pop\n      jump\t// out\n        /* \"#utility.yul\":18771:19399   */\n    tag_109:\n        /* \"#utility.yul\":19012:19016   */\n      0x00\n        /* \"#utility.yul\":19050:19053   */\n      0x02a0\n        /* \"#utility.yul\":19039:19048   */\n      dup3\n        /* \"#utility.yul\":19035:19054   */\n      add\n        /* \"#utility.yul\":19027:19054   */\n      swap1\n      pop\n        /* \"#utility.yul\":19064:19135   */\n      tag_438\n        /* \"#utility.yul\":19132:19133   */\n      0x00\n        /* \"#utility.yul\":19121:19130   */\n      dup4\n        /* \"#utility.yul\":19117:19134   */\n      add\n        /* \"#utility.yul\":19108:19114   */\n      dup7\n        /* \"#utility.yul\":19064:19135   */\n      tag_156\n      jump\t// in\n    tag_438:\n        /* \"#utility.yul\":19145:19265   */\n      tag_439\n        /* \"#utility.yul\":19261:19263   */\n      0x20\n        /* \"#utility.yul\":19250:19259   */\n      dup4\n        /* \"#utility.yul\":19246:19264   */\n      add\n        /* \"#utility.yul\":19237:19243   */\n      dup6\n        /* \"#utility.yul\":19145:19265   */\n      tag_195\n      jump\t// in\n    tag_439:\n        /* \"#utility.yul\":19275:19392   */\n      tag_440\n        /* \"#utility.yul\":19387:19390   */\n      0x0160\n        /* \"#utility.yul\":19376:19385   */\n      dup4\n        /* \"#utility.yul\":19372:19391   */\n      add\n        /* \"#utility.yul\":19363:19369   */\n      dup5\n        /* \"#utility.yul\":19275:19392   */\n      tag_202\n      jump\t// in\n    tag_440:\n        /* \"#utility.yul\":18771:19399   */\n      swap5\n      swap4\n      pop\n      pop\n      pop\n      pop\n      jump\t// out\n        /* \"#utility.yul\":19405:19563   */\n    tag_203:\n        /* \"#utility.yul\":19545:19555   */\n      0x6e6f742d726f6f74000000000000000000000000000000000000000000000000\n        /* \"#utility.yul\":19541:19542   */\n      0x00\n        /* \"#utility.yul\":19533:19539   */\n      dup3\n        /* \"#utility.yul\":19529:19543   */\n      add\n        /* \"#utility.yul\":19522:19556   */\n      mstore\n        /* \"#utility.yul\":19405:19563   */\n      pop\n      jump\t// out\n        /* \"#utility.yul\":19569:19934   */\n    tag_204:\n        /* \"#utility.yul\":19711:19714   */\n      0x00\n        /* \"#utility.yul\":19732:19798   */\n      tag_443\n        /* \"#utility.yul\":19796:19797   */\n      0x08\n        /* \"#utility.yul\":19791:19794   */\n      dup4\n        /* \"#utility.yul\":19732:19798   */\n      tag_171\n      jump\t// in\n    tag_443:\n        /* \"#utility.yul\":19725:19798   */\n      swap2\n      pop\n        /* \"#utility.yul\":19807:19900   */\n      tag_444\n        /* \"#utility.yul\":19896:19899   */\n      dup3\n        /* \"#utility.yul\":19807:19900   */\n      tag_203\n      jump\t// in\n    tag_444:\n        /* \"#utility.yul\":19925:19927   */\n      0x20\n        /* \"#utility.yul\":19920:19923   */\n      dup3\n        /* \"#utility.yul\":19916:19928   */\n      add\n        /* \"#utility.yul\":19909:19928   */\n      swap1\n      pop\n        /* \"#utility.yul\":19569:19934   */\n      swap2\n      swap1\n      pop\n      jump\t// out\n        /* \"#utility.yul\":19940:20359   */\n    tag_121:\n        /* \"#utility.yul\":20106:20110   */\n      0x00\n        /* \"#utility.yul\":20144:20146   */\n      0x20\n        /* \"#utility.yul\":20133:20142   */\n      dup3\n        /* \"#utility.yul\":20129:20147   */\n      add\n        /* \"#utility.yul\":20121:20147   */\n      swap1\n      pop\n        /* \"#utility.yul\":20193:20202   */\n      dup2\n        /* \"#utility.yul\":20187:20191   */\n      dup2\n        /* \"#utility.yul\":20183:20203   */\n      sub\n        /* \"#utility.yul\":20179:20180   */\n      0x00\n        /* \"#utility.yul\":20168:20177   */\n      dup4\n        /* \"#utility.yul\":20164:20181   */\n      add\n        /* \"#utility.yul\":20157:20204   */\n      mstore\n        /* \"#utility.yul\":20221:20352   */\n      tag_446\n        /* \"#utility.yul\":20347:20351   */\n      dup2\n        /* \"#utility.yul\":20221:20352   */\n      tag_204\n      jump\t// in\n    tag_446:\n        /* \"#utility.yul\":20213:20352   */\n      swap1\n      pop\n        /* \"#utility.yul\":19940:20359   */\n      swap2\n      swap1\n      pop\n      jump\t// out\n        /* \"#utility.yul\":20365:20492   */\n    tag_205:\n        /* \"#utility.yul\":20453:20459   */\n      0x00\n        /* \"#utility.yul\":20481:20485   */\n      0x02\n        /* \"#utility.yul\":20471:20485   */\n      swap1\n      pop\n        /* \"#utility.yul\":20365:20492   */\n      swap2\n      swap1\n      pop\n      jump\t// out\n        /* \"#utility.yul\":20498:20664   */\n    tag_206:\n        /* \"#utility.yul\":20618:20629   */\n      0x00\n        /* \"#utility.yul\":20655:20658   */\n      dup2\n        /* \"#utility.yul\":20640:20658   */\n      swap1\n      pop\n        /* \"#utility.yul\":20498:20664   */\n      swap3\n      swap2\n      pop\n      pop\n      jump\t// out\n        /* \"#utility.yul\":20670:20791   */\n    tag_207:\n        /* \"#utility.yul\":20758:20762   */\n      0x00\n        /* \"#utility.yul\":20781:20784   */\n      dup2\n        /* \"#utility.yul\":20773:20784   */\n      swap1\n      pop\n        /* \"#utility.yul\":20670:20791   */\n      swap2\n      swap1\n      pop\n      jump\t// out\n        /* \"#utility.yul\":20797:20930   */\n    tag_208:\n        /* \"#utility.yul\":20884:20895   */\n      0x00\n        /* \"#utility.yul\":20921:20924   */\n      dup2\n        /* \"#utility.yul\":20906:20924   */\n      swap1\n      pop\n        /* \"#utility.yul\":20797:20930   */\n      swap3\n      swap2\n      pop\n      pop\n      jump\t// out\n        /* \"#utility.yul\":20968:21642   */\n    tag_209:\n        /* \"#utility.yul\":21094:21146   */\n      tag_452\n        /* \"#utility.yul\":21140:21145   */\n      dup2\n        /* \"#utility.yul\":21094:21146   */\n      tag_183\n      jump\t// in\n    tag_452:\n        /* \"#utility.yul\":21162:21236   */\n      tag_453\n        /* \"#utility.yul\":21229:21235   */\n      dup2\n        /* \"#utility.yul\":21224:21227   */\n      dup5\n        /* \"#utility.yul\":21162:21236   */\n      tag_208\n      jump\t// in\n    tag_453:\n        /* \"#utility.yul\":21155:21236   */\n      swap3\n      pop\n        /* \"#utility.yul\":21260:21314   */\n      tag_454\n        /* \"#utility.yul\":21308:21313   */\n      dup3\n        /* \"#utility.yul\":21260:21314   */\n      tag_185\n      jump\t// in\n    tag_454:\n        /* \"#utility.yul\":21337:21344   */\n      dup1\n        /* \"#utility.yul\":21368:21369   */\n      0x00\n        /* \"#utility.yul\":21353:21635   */\n    tag_455:\n        /* \"#utility.yul\":21378:21384   */\n      dup4\n        /* \"#utility.yul\":21375:21376   */\n      dup2\n        /* \"#utility.yul\":21372:21385   */\n      lt\n        /* \"#utility.yul\":21353:21635   */\n      iszero\n      tag_457\n      jumpi\n        /* \"#utility.yul\":21454:21460   */\n      dup2\n        /* \"#utility.yul\":21448:21461   */\n      mload\n        /* \"#utility.yul\":21481:21544   */\n      tag_458\n        /* \"#utility.yul\":21540:21543   */\n      dup8\n        /* \"#utility.yul\":21525:21538   */\n      dup3\n        /* \"#utility.yul\":21481:21544   */\n      tag_187\n      jump\t// in\n    tag_458:\n        /* \"#utility.yul\":21474:21544   */\n      swap7\n      pop\n        /* \"#utility.yul\":21567:21625   */\n      tag_459\n        /* \"#utility.yul\":21618:21624   */\n      dup4\n        /* \"#utility.yul\":21567:21625   */\n      tag_188\n      jump\t// in\n    tag_459:\n        /* \"#utility.yul\":21557:21625   */\n      swap3\n      pop\n        /* \"#utility.yul\":21413:21635   */\n      pop\n        /* \"#utility.yul\":21400:21401   */\n      0x01\n        /* \"#utility.yul\":21397:21398   */\n      dup2\n        /* \"#utility.yul\":21393:21402   */\n      add\n        /* \"#utility.yul\":21388:21402   */\n      swap1\n      pop\n        /* \"#utility.yul\":21353:21635   */\n      jump(tag_455)\n    tag_457:\n        /* \"#utility.yul\":21357:21371   */\n      pop\n        /* \"#utility.yul\":21070:21642   */\n      pop\n      pop\n      pop\n        /* \"#utility.yul\":20968:21642   */\n      pop\n      pop\n      jump\t// out\n        /* \"#utility.yul\":21648:21919   */\n    tag_210:\n        /* \"#utility.yul\":21763:21773   */\n      0x00\n        /* \"#utility.yul\":21784:21876   */\n      tag_461\n        /* \"#utility.yul\":21872:21875   */\n      dup4\n        /* \"#utility.yul\":21864:21870   */\n      dup4\n        /* \"#utility.yul\":21784:21876   */\n      tag_209\n      jump\t// in\n    tag_461:\n        /* \"#utility.yul\":21908:21912   */\n      0x40\n        /* \"#utility.yul\":21903:21906   */\n      dup4\n        /* \"#utility.yul\":21899:21913   */\n      add\n        /* \"#utility.yul\":21885:21913   */\n      swap1\n      pop\n        /* \"#utility.yul\":21648:21919   */\n      swap3\n      swap2\n      pop\n      pop\n      jump\t// out\n        /* \"#utility.yul\":21925:22059   */\n    tag_211:\n        /* \"#utility.yul\":22016:22020   */\n      0x00\n        /* \"#utility.yul\":22048:22052   */\n      0x20\n        /* \"#utility.yul\":22043:22046   */\n      dup3\n        /* \"#utility.yul\":22039:22053   */\n      add\n        /* \"#utility.yul\":22031:22053   */\n      swap1\n      pop\n        /* \"#utility.yul\":21925:22059   */\n      swap2\n      swap1\n      pop\n      jump\t// out\n        /* \"#utility.yul\":22103:22981   */\n    tag_212:\n        /* \"#utility.yul\":22285:22360   */\n      tag_464\n        /* \"#utility.yul\":22354:22359   */\n      dup2\n        /* \"#utility.yul\":22285:22360   */\n      tag_205\n      jump\t// in\n    tag_464:\n        /* \"#utility.yul\":22376:22483   */\n      tag_465\n        /* \"#utility.yul\":22476:22482   */\n      dup2\n        /* \"#utility.yul\":22471:22474   */\n      dup5\n        /* \"#utility.yul\":22376:22483   */\n      tag_206\n      jump\t// in\n    tag_465:\n        /* \"#utility.yul\":22369:22483   */\n      swap3\n      pop\n        /* \"#utility.yul\":22507:22584   */\n      tag_466\n        /* \"#utility.yul\":22578:22583   */\n      dup3\n        /* \"#utility.yul\":22507:22584   */\n      tag_207\n      jump\t// in\n    tag_466:\n        /* \"#utility.yul\":22607:22614   */\n      dup1\n        /* \"#utility.yul\":22638:22639   */\n      0x00\n        /* \"#utility.yul\":22623:22974   */\n    tag_467:\n        /* \"#utility.yul\":22648:22654   */\n      dup4\n        /* \"#utility.yul\":22645:22646   */\n      dup2\n        /* \"#utility.yul\":22642:22655   */\n      lt\n        /* \"#utility.yul\":22623:22974   */\n      iszero\n      tag_469\n      jumpi\n        /* \"#utility.yul\":22724:22730   */\n      dup2\n        /* \"#utility.yul\":22718:22731   */\n      mload\n        /* \"#utility.yul\":22751:22860   */\n      tag_470\n        /* \"#utility.yul\":22856:22859   */\n      dup8\n        /* \"#utility.yul\":22841:22854   */\n      dup3\n        /* \"#utility.yul\":22751:22860   */\n      tag_210\n      jump\t// in\n    tag_470:\n        /* \"#utility.yul\":22744:22860   */\n      swap7\n      pop\n        /* \"#utility.yul\":22883:22964   */\n      tag_471\n        /* \"#utility.yul\":22957:22963   */\n      dup4\n        /* \"#utility.yul\":22883:22964   */\n      tag_211\n      jump\t// in\n    tag_471:\n        /* \"#utility.yul\":22873:22964   */\n      swap3\n      pop\n        /* \"#utility.yul\":22683:22974   */\n      pop\n        /* \"#utility.yul\":22670:22671   */\n      0x01\n        /* \"#utility.yul\":22667:22668   */\n      dup2\n        /* \"#utility.yul\":22663:22672   */\n      add\n        /* \"#utility.yul\":22658:22672   */\n      swap1\n      pop\n        /* \"#utility.yul\":22623:22974   */\n      jump(tag_467)\n    tag_469:\n        /* \"#utility.yul\":22627:22641   */\n      pop\n        /* \"#utility.yul\":22261:22981   */\n      pop\n      pop\n      pop\n        /* \"#utility.yul\":22103:22981   */\n      pop\n      pop\n      jump\t// out\n        /* \"#utility.yul\":22987:23091   */\n    tag_213:\n        /* \"#utility.yul\":23052:23058   */\n      0x00\n        /* \"#utility.yul\":23080:23084   */\n      0x03\n        /* \"#utility.yul\":23070:23084   */\n      swap1\n      pop\n        /* \"#utility.yul\":22987:23091   */\n      swap2\n      swap1\n      pop\n      jump\t// out\n        /* \"#utility.yul\":23097:23240   */\n    tag_214:\n        /* \"#utility.yul\":23194:23205   */\n      0x00\n        /* \"#utility.yul\":23231:23234   */\n      dup2\n        /* \"#utility.yul\":23216:23234   */\n      swap1\n      pop\n        /* \"#utility.yul\":23097:23240   */\n      swap3\n      swap2\n      pop\n      pop\n      jump\t// out\n        /* \"#utility.yul\":23246:23344   */\n    tag_215:\n        /* \"#utility.yul\":23311:23315   */\n      0x00\n        /* \"#utility.yul\":23334:23337   */\n      dup2\n        /* \"#utility.yul\":23326:23337   */\n      swap1\n      pop\n        /* \"#utility.yul\":23246:23344   */\n      swap2\n      swap1\n      pop\n      jump\t// out\n        /* \"#utility.yul\":23350:23461   */\n    tag_216:\n        /* \"#utility.yul\":23418:23422   */\n      0x00\n        /* \"#utility.yul\":23450:23454   */\n      0x20\n        /* \"#utility.yul\":23445:23448   */\n      dup3\n        /* \"#utility.yul\":23441:23455   */\n      add\n        /* \"#utility.yul\":23433:23455   */\n      swap1\n      pop\n        /* \"#utility.yul\":23350:23461   */\n      swap2\n      swap1\n      pop\n      jump\t// out\n        /* \"#utility.yul\":23499:24193   */\n    tag_217:\n        /* \"#utility.yul\":23635:23687   */\n      tag_477\n        /* \"#utility.yul\":23681:23686   */\n      dup2\n        /* \"#utility.yul\":23635:23687   */\n      tag_213\n      jump\t// in\n    tag_477:\n        /* \"#utility.yul\":23703:23787   */\n      tag_478\n        /* \"#utility.yul\":23780:23786   */\n      dup2\n        /* \"#utility.yul\":23775:23778   */\n      dup5\n        /* \"#utility.yul\":23703:23787   */\n      tag_214\n      jump\t// in\n    tag_478:\n        /* \"#utility.yul\":23696:23787   */\n      swap3\n      pop\n        /* \"#utility.yul\":23811:23865   */\n      tag_479\n        /* \"#utility.yul\":23859:23864   */\n      dup3\n        /* \"#utility.yul\":23811:23865   */\n      tag_215\n      jump\t// in\n    tag_479:\n        /* \"#utility.yul\":23888:23895   */\n      dup1\n        /* \"#utility.yul\":23919:23920   */\n      0x00\n        /* \"#utility.yul\":23904:24186   */\n    tag_480:\n        /* \"#utility.yul\":23929:23935   */\n      dup4\n        /* \"#utility.yul\":23926:23927   */\n      dup2\n        /* \"#utility.yul\":23923:23936   */\n      lt\n        /* \"#utility.yul\":23904:24186   */\n      iszero\n      tag_482\n      jumpi\n        /* \"#utility.yul\":24005:24011   */\n      dup2\n        /* \"#utility.yul\":23999:24012   */\n      mload\n        /* \"#utility.yul\":24032:24095   */\n      tag_483\n        /* \"#utility.yul\":24091:24094   */\n      dup8\n        /* \"#utility.yul\":24076:24089   */\n      dup3\n        /* \"#utility.yul\":24032:24095   */\n      tag_187\n      jump\t// in\n    tag_483:\n        /* \"#utility.yul\":24025:24095   */\n      swap7\n      pop\n        /* \"#utility.yul\":24118:24176   */\n      tag_484\n        /* \"#utility.yul\":24169:24175   */\n      dup4\n        /* \"#utility.yul\":24118:24176   */\n      tag_216\n      jump\t// in\n    tag_484:\n        /* \"#utility.yul\":24108:24176   */\n      swap3\n      pop\n        /* \"#utility.yul\":23964:24186   */\n      pop\n        /* \"#utility.yul\":23951:23952   */\n      0x01\n        /* \"#utility.yul\":23948:23949   */\n      dup2\n        /* \"#utility.yul\":23944:23953   */\n      add\n        /* \"#utility.yul\":23939:23953   */\n      swap1\n      pop\n        /* \"#utility.yul\":23904:24186   */\n      jump(tag_480)\n    tag_482:\n        /* \"#utility.yul\":23908:23922   */\n      pop\n        /* \"#utility.yul\":23611:24193   */\n      pop\n      pop\n      pop\n        /* \"#utility.yul\":23499:24193   */\n      pop\n      pop\n      jump\t// out\n        /* \"#utility.yul\":24199:25214   */\n    tag_123:\n        /* \"#utility.yul\":24606:24610   */\n      0x00\n        /* \"#utility.yul\":24644:24647   */\n      0x0160\n        /* \"#utility.yul\":24633:24642   */\n      dup3\n        /* \"#utility.yul\":24629:24648   */\n      add\n        /* \"#utility.yul\":24621:24648   */\n      swap1\n      pop\n        /* \"#utility.yul\":24658:24775   */\n      tag_486\n        /* \"#utility.yul\":24772:24773   */\n      0x00\n        /* \"#utility.yul\":24761:24770   */\n      dup4\n        /* \"#utility.yul\":24757:24774   */\n      add\n        /* \"#utility.yul\":24748:24754   */\n      dup8\n        /* \"#utility.yul\":24658:24775   */\n      tag_189\n      jump\t// in\n    tag_486:\n        /* \"#utility.yul\":24785:24949   */\n      tag_487\n        /* \"#utility.yul\":24945:24947   */\n      0x40\n        /* \"#utility.yul\":24934:24943   */\n      dup4\n        /* \"#utility.yul\":24930:24948   */\n      add\n        /* \"#utility.yul\":24921:24927   */\n      dup7\n        /* \"#utility.yul\":24785:24949   */\n      tag_212\n      jump\t// in\n    tag_487:\n        /* \"#utility.yul\":24959:25078   */\n      tag_488\n        /* \"#utility.yul\":25073:25076   */\n      0xc0\n        /* \"#utility.yul\":25062:25071   */\n      dup4\n        /* \"#utility.yul\":25058:25077   */\n      add\n        /* \"#utility.yul\":25049:25055   */\n      dup6\n        /* \"#utility.yul\":24959:25078   */\n      tag_189\n      jump\t// in\n    tag_488:\n        /* \"#utility.yul\":25088:25207   */\n      tag_489\n        /* \"#utility.yul\":25202:25205   */\n      0x0100\n        /* \"#utility.yul\":25191:25200   */\n      dup4\n        /* \"#utility.yul\":25187:25206   */\n      add\n        /* \"#utility.yul\":25178:25184   */\n      dup5\n        /* \"#utility.yul\":25088:25207   */\n      tag_217\n      jump\t// in\n    tag_489:\n        /* \"#utility.yul\":24199:25214   */\n      swap6\n      swap5\n      pop\n      pop\n      pop\n      pop\n      pop\n      jump\t// out\n        /* \"#utility.yul\":25220:25318   */\n    tag_218:\n        /* \"#utility.yul\":25271:25277   */\n      0x00\n        /* \"#utility.yul\":25305:25310   */\n      dup2\n        /* \"#utility.yul\":25299:25311   */\n      mload\n        /* \"#utility.yul\":25289:25311   */\n      swap1\n      pop\n        /* \"#utility.yul\":25220:25318   */\n      swap2\n      swap1\n      pop\n      jump\t// out\n        /* \"#utility.yul\":25324:25471   */\n    tag_219:\n        /* \"#utility.yul\":25425:25436   */\n      0x00\n        /* \"#utility.yul\":25462:25465   */\n      dup2\n        /* \"#utility.yul\":25447:25465   */\n      swap1\n      pop\n        /* \"#utility.yul\":25324:25471   */\n      swap3\n      swap2\n      pop\n      pop\n      jump\t// out\n        /* \"#utility.yul\":25477:25723   */\n    tag_220:\n        /* \"#utility.yul\":25558:25559   */\n      0x00\n        /* \"#utility.yul\":25568:25681   */\n    tag_493:\n        /* \"#utility.yul\":25582:25588   */\n      dup4\n        /* \"#utility.yul\":25579:25580   */\n      dup2\n        /* \"#utility.yul\":25576:25589   */\n      lt\n        /* \"#utility.yul\":25568:25681   */\n      iszero\n      tag_495\n      jumpi\n        /* \"#utility.yul\":25667:25668   */\n      dup1\n        /* \"#utility.yul\":25662:25665   */\n      dup3\n        /* \"#utility.yul\":25658:25669   */\n      add\n        /* \"#utility.yul\":25652:25670   */\n      mload\n        /* \"#utility.yul\":25648:25649   */\n      dup2\n        /* \"#utility.yul\":25643:25646   */\n      dup5\n        /* \"#utility.yul\":25639:25650   */\n      add\n        /* \"#utility.yul\":25632:25671   */\n      mstore\n        /* \"#utility.yul\":25604:25606   */\n      0x20\n        /* \"#utility.yul\":25601:25602   */\n      dup2\n        /* \"#utility.yul\":25597:25607   */\n      add\n        /* \"#utility.yul\":25592:25607   */\n      swap1\n      pop\n        /* \"#utility.yul\":25568:25681   */\n      jump(tag_493)\n    tag_495:\n        /* \"#utility.yul\":25715:25716   */\n      0x00\n        /* \"#utility.yul\":25706:25712   */\n      dup5\n        /* \"#utility.yul\":25701:25704   */\n      dup5\n        /* \"#utility.yul\":25697:25713   */\n      add\n        /* \"#utility.yul\":25690:25717   */\n      mstore\n        /* \"#utility.yul\":25539:25723   */\n      pop\n        /* \"#utility.yul\":25477:25723   */\n      pop\n      pop\n      pop\n      jump\t// out\n        /* \"#utility.yul\":25729:26115   */\n    tag_221:\n        /* \"#utility.yul\":25833:25836   */\n      0x00\n        /* \"#utility.yul\":25861:25899   */\n      tag_497\n        /* \"#utility.yul\":25893:25898   */\n      dup3\n        /* \"#utility.yul\":25861:25899   */\n      tag_218\n      jump\t// in\n    tag_497:\n        /* \"#utility.yul\":25915:26003   */\n      tag_498\n        /* \"#utility.yul\":25996:26002   */\n      dup2\n        /* \"#utility.yul\":25991:25994   */\n      dup6\n        /* \"#utility.yul\":25915:26003   */\n      tag_219\n      jump\t// in\n    tag_498:\n        /* \"#utility.yul\":25908:26003   */\n      swap4\n      pop\n        /* \"#utility.yul\":26012:26077   */\n      tag_499\n        /* \"#utility.yul\":26070:26076   */\n      dup2\n        /* \"#utility.yul\":26065:26068   */\n      dup6\n        /* \"#utility.yul\":26058:26062   */\n      0x20\n        /* \"#utility.yul\":26051:26056   */\n      dup7\n        /* \"#utility.yul\":26047:26063   */\n      add\n        /* \"#utility.yul\":26012:26077   */\n      tag_220\n      jump\t// in\n    tag_499:\n        /* \"#utility.yul\":26102:26108   */\n      dup1\n        /* \"#utility.yul\":26097:26100   */\n      dup5\n        /* \"#utility.yul\":26093:26109   */\n      add\n        /* \"#utility.yul\":26086:26109   */\n      swap2\n      pop\n        /* \"#utility.yul\":25837:26115   */\n      pop\n        /* \"#utility.yul\":25729:26115   */\n      swap3\n      swap2\n      pop\n      pop\n      jump\t// out\n        /* \"#utility.yul\":26121:26392   */\n    tag_125:\n        /* \"#utility.yul\":26251:26254   */\n      0x00\n        /* \"#utility.yul\":26273:26366   */\n      tag_501\n        /* \"#utility.yul\":26362:26365   */\n      dup3\n        /* \"#utility.yul\":26353:26359   */\n      dup5\n        /* \"#utility.yul\":26273:26366   */\n      tag_221\n      jump\t// in\n    tag_501:\n        /* \"#utility.yul\":26266:26366   */\n      swap2\n      pop\n        /* \"#utility.yul\":26383:26386   */\n      dup2\n        /* \"#utility.yul\":26376:26386   */\n      swap1\n      pop\n        /* \"#utility.yul\":26121:26392   */\n      swap3\n      swap2\n      pop\n      pop\n      jump\t// out\n        /* \"#utility.yul\":26398:26561   */\n    tag_222:\n        /* \"#utility.yul\":26538:26553   */\n      0x696e76616c69642d70726f6f6600000000000000000000000000000000000000\n        /* \"#utility.yul\":26534:26535   */\n      0x00\n        /* \"#utility.yul\":26526:26532   */\n      dup3\n        /* \"#utility.yul\":26522:26536   */\n      add\n        /* \"#utility.yul\":26515:26554   */\n      mstore\n        /* \"#utility.yul\":26398:26561   */\n      pop\n      jump\t// out\n        /* \"#utility.yul\":26567:26933   */\n    tag_223:\n        /* \"#utility.yul\":26709:26712   */\n      0x00\n        /* \"#utility.yul\":26730:26797   */\n      tag_504\n        /* \"#utility.yul\":26794:26796   */\n      0x0d\n        /* \"#utility.yul\":26789:26792   */\n      dup4\n        /* \"#utility.yul\":26730:26797   */\n      tag_171\n      jump\t// in\n    tag_504:\n        /* \"#utility.yul\":26723:26797   */\n      swap2\n      pop\n        /* \"#utility.yul\":26806:26899   */\n      tag_505\n        /* \"#utility.yul\":26895:26898   */\n      dup3\n        /* \"#utility.yul\":26806:26899   */\n      tag_222\n      jump\t// in\n    tag_505:\n        /* \"#utility.yul\":26924:26926   */\n      0x20\n        /* \"#utility.yul\":26919:26922   */\n      dup3\n        /* \"#utility.yul\":26915:26927   */\n      add\n        /* \"#utility.yul\":26908:26927   */\n      swap1\n      pop\n        /* \"#utility.yul\":26567:26933   */\n      swap2\n      swap1\n      pop\n      jump\t// out\n        /* \"#utility.yul\":26939:27358   */\n    tag_131:\n        /* \"#utility.yul\":27105:27109   */\n      0x00\n        /* \"#utility.yul\":27143:27145   */\n      0x20\n        /* \"#utility.yul\":27132:27141   */\n      dup3\n        /* \"#utility.yul\":27128:27146   */\n      add\n        /* \"#utility.yul\":27120:27146   */\n      swap1\n      pop\n        /* \"#utility.yul\":27192:27201   */\n      dup2\n        /* \"#utility.yul\":27186:27190   */\n      dup2\n        /* \"#utility.yul\":27182:27202   */\n      sub\n        /* \"#utility.yul\":27178:27179   */\n      0x00\n        /* \"#utility.yul\":27167:27176   */\n      dup4\n        /* \"#utility.yul\":27163:27180   */\n      add\n        /* \"#utility.yul\":27156:27203   */\n      mstore\n        /* \"#utility.yul\":27220:27351   */\n      tag_507\n        /* \"#utility.yul\":27346:27350   */\n      dup2\n        /* \"#utility.yul\":27220:27351   */\n      tag_223\n      jump\t// in\n    tag_507:\n        /* \"#utility.yul\":27212:27351   */\n      swap1\n      pop\n        /* \"#utility.yul\":26939:27358   */\n      swap2\n      swap1\n      pop\n      jump\t// out\n        /* \"#utility.yul\":27364:27478   */\n    tag_224:\n      pop\n      jump\t// out\n        /* \"#utility.yul\":27484:27882   */\n    tag_225:\n        /* \"#utility.yul\":27643:27646   */\n      0x00\n        /* \"#utility.yul\":27664:27747   */\n      tag_510\n        /* \"#utility.yul\":27745:27746   */\n      0x00\n        /* \"#utility.yul\":27740:27743   */\n      dup4\n        /* \"#utility.yul\":27664:27747   */\n      tag_219\n      jump\t// in\n    tag_510:\n        /* \"#utility.yul\":27657:27747   */\n      swap2\n      pop\n        /* \"#utility.yul\":27756:27849   */\n      tag_511\n        /* \"#utility.yul\":27845:27848   */\n      dup3\n        /* \"#utility.yul\":27756:27849   */\n      tag_224\n      jump\t// in\n    tag_511:\n        /* \"#utility.yul\":27874:27875   */\n      0x00\n        /* \"#utility.yul\":27869:27872   */\n      dup3\n        /* \"#utility.yul\":27865:27876   */\n      add\n        /* \"#utility.yul\":27858:27876   */\n      swap1\n      pop\n        /* \"#utility.yul\":27484:27882   */\n      swap2\n      swap1\n      pop\n      jump\t// out\n        /* \"#utility.yul\":27888:28267   */\n    tag_133:\n        /* \"#utility.yul\":28072:28075   */\n      0x00\n        /* \"#utility.yul\":28094:28241   */\n      tag_513\n        /* \"#utility.yul\":28237:28240   */\n      dup3\n        /* \"#utility.yul\":28094:28241   */\n      tag_225\n      jump\t// in\n    tag_513:\n        /* \"#utility.yul\":28087:28241   */\n      swap2\n      pop\n        /* \"#utility.yul\":28258:28261   */\n      dup2\n        /* \"#utility.yul\":28251:28261   */\n      swap1\n      pop\n        /* \"#utility.yul\":27888:28267   */\n      swap2\n      swap1\n      pop\n      jump\t// out\n        /* \"#utility.yul\":28273:28437   */\n    tag_226:\n        /* \"#utility.yul\":28413:28429   */\n      0x7061796d656e742d6661696c6564000000000000000000000000000000000000\n        /* \"#utility.yul\":28409:28410   */\n      0x00\n        /* \"#utility.yul\":28401:28407   */\n      dup3\n        /* \"#utility.yul\":28397:28411   */\n      add\n        /* \"#utility.yul\":28390:28430   */\n      mstore\n        /* \"#utility.yul\":28273:28437   */\n      pop\n      jump\t// out\n        /* \"#utility.yul\":28443:28809   */\n    tag_227:\n        /* \"#utility.yul\":28585:28588   */\n      0x00\n        /* \"#utility.yul\":28606:28673   */\n      tag_516\n        /* \"#utility.yul\":28670:28672   */\n      0x0e\n        /* \"#utility.yul\":28665:28668   */\n      dup4\n        /* \"#utility.yul\":28606:28673   */\n      tag_171\n      jump\t// in\n    tag_516:\n        /* \"#utility.yul\":28599:28673   */\n      swap2\n      pop\n        /* \"#utility.yul\":28682:28775   */\n      tag_517\n        /* \"#utility.yul\":28771:28774   */\n      dup3\n        /* \"#utility.yul\":28682:28775   */\n      tag_226\n      jump\t// in\n    tag_517:\n        /* \"#utility.yul\":28800:28802   */\n      0x20\n        /* \"#utility.yul\":28795:28798   */\n      dup3\n        /* \"#utility.yul\":28791:28803   */\n      add\n        /* \"#utility.yul\":28784:28803   */\n      swap1\n      pop\n        /* \"#utility.yul\":28443:28809   */\n      swap2\n      swap1\n      pop\n      jump\t// out\n        /* \"#utility.yul\":28815:29234   */\n    tag_139:\n        /* \"#utility.yul\":28981:28985   */\n      0x00\n        /* \"#utility.yul\":29019:29021   */\n      0x20\n        /* \"#utility.yul\":29008:29017   */\n      dup3\n        /* \"#utility.yul\":29004:29022   */\n      add\n        /* \"#utility.yul\":28996:29022   */\n      swap1\n      pop\n        /* \"#utility.yul\":29068:29077   */\n      dup2\n        /* \"#utility.yul\":29062:29066   */\n      dup2\n        /* \"#utility.yul\":29058:29078   */\n      sub\n        /* \"#utility.yul\":29054:29055   */\n      0x00\n        /* \"#utility.yul\":29043:29052   */\n      dup4\n        /* \"#utility.yul\":29039:29056   */\n      add\n        /* \"#utility.yul\":29032:29079   */\n      mstore\n        /* \"#utility.yul\":29096:29227   */\n      tag_519\n        /* \"#utility.yul\":29222:29226   */\n      dup2\n        /* \"#utility.yul\":29096:29227   */\n      tag_227\n      jump\t// in\n    tag_519:\n        /* \"#utility.yul\":29088:29227   */\n      swap1\n      pop\n        /* \"#utility.yul\":28815:29234   */\n      swap2\n      swap1\n      pop\n      jump\t// out\n        /* \"#utility.yul\":29240:29366   */\n    tag_228:\n        /* \"#utility.yul\":29277:29284   */\n      0x00\n        /* \"#utility.yul\":29317:29359   */\n      0xffffffffffffffffffffffffffffffffffffffff\n        /* \"#utility.yul\":29310:29315   */\n      dup3\n        /* \"#utility.yul\":29306:29360   */\n      and\n        /* \"#utility.yul\":29295:29360   */\n      swap1\n      pop\n        /* \"#utility.yul\":29240:29366   */\n      swap2\n      swap1\n      pop\n      jump\t// out\n        /* \"#utility.yul\":29372:29468   */\n    tag_229:\n        /* \"#utility.yul\":29409:29416   */\n      0x00\n        /* \"#utility.yul\":29438:29462   */\n      tag_522\n        /* \"#utility.yul\":29456:29461   */\n      dup3\n        /* \"#utility.yul\":29438:29462   */\n      tag_228\n      jump\t// in\n    tag_522:\n        /* \"#utility.yul\":29427:29462   */\n      swap1\n      pop\n        /* \"#utility.yul\":29372:29468   */\n      swap2\n      swap1\n      pop\n      jump\t// out\n        /* \"#utility.yul\":29474:29592   */\n    tag_230:\n        /* \"#utility.yul\":29561:29585   */\n      tag_524\n        /* \"#utility.yul\":29579:29584   */\n      dup2\n        /* \"#utility.yul\":29561:29585   */\n      tag_229\n      jump\t// in\n    tag_524:\n        /* \"#utility.yul\":29556:29559   */\n      dup3\n        /* \"#utility.yul\":29549:29586   */\n      mstore\n        /* \"#utility.yul\":29474:29592   */\n      pop\n      pop\n      jump\t// out\n        /* \"#utility.yul\":29598:29930   */\n    tag_141:\n        /* \"#utility.yul\":29719:29723   */\n      0x00\n        /* \"#utility.yul\":29757:29759   */\n      0x40\n        /* \"#utility.yul\":29746:29755   */\n      dup3\n        /* \"#utility.yul\":29742:29760   */\n      add\n        /* \"#utility.yul\":29734:29760   */\n      swap1\n      pop\n        /* \"#utility.yul\":29770:29841   */\n      tag_526\n        /* \"#utility.yul\":29838:29839   */\n      0x00\n        /* \"#utility.yul\":29827:29836   */\n      dup4\n        /* \"#utility.yul\":29823:29840   */\n      add\n        /* \"#utility.yul\":29814:29820   */\n      dup6\n        /* \"#utility.yul\":29770:29841   */\n      tag_230\n      jump\t// in\n    tag_526:\n        /* \"#utility.yul\":29851:29923   */\n      tag_527\n        /* \"#utility.yul\":29919:29921   */\n      0x20\n        /* \"#utility.yul\":29908:29917   */\n      dup4\n        /* \"#utility.yul\":29904:29922   */\n      add\n        /* \"#utility.yul\":29895:29901   */\n      dup5\n        /* \"#utility.yul\":29851:29923   */\n      tag_156\n      jump\t// in\n    tag_527:\n        /* \"#utility.yul\":29598:29930   */\n      swap4\n      swap3\n      pop\n      pop\n      pop\n      jump\t// out\n        /* \"#utility.yul\":29936:30117   */\n    tag_231:\n        /* \"#utility.yul\":30076:30109   */\n      0x5265656e7472616e637947756172643a207265656e7472616e742063616c6c00\n        /* \"#utility.yul\":30072:30073   */\n      0x00\n        /* \"#utility.yul\":30064:30070   */\n      dup3\n        /* \"#utility.yul\":30060:30074   */\n      add\n        /* \"#utility.yul\":30053:30110   */\n      mstore\n        /* \"#utility.yul\":29936:30117   */\n      pop\n      jump\t// out\n        /* \"#utility.yul\":30123:30489   */\n    tag_232:\n        /* \"#utility.yul\":30265:30268   */\n      0x00\n        /* \"#utility.yul\":30286:30353   */\n      tag_530\n        /* \"#utility.yul\":30350:30352   */\n      0x1f\n        /* \"#utility.yul\":30345:30348   */\n      dup4\n        /* \"#utility.yul\":30286:30353   */\n      tag_171\n      jump\t// in\n    tag_530:\n        /* \"#utility.yul\":30279:30353   */\n      swap2\n      pop\n        /* \"#utility.yul\":30362:30455   */\n      tag_531\n        /* \"#utility.yul\":30451:30454   */\n      dup3\n        /* \"#utility.yul\":30362:30455   */\n      tag_231\n      jump\t// in\n    tag_531:\n        /* \"#utility.yul\":30480:30482   */\n      0x20\n        /* \"#utility.yul\":30475:30478   */\n      dup3\n        /* \"#utility.yul\":30471:30483   */\n      add\n        /* \"#utility.yul\":30464:30483   */\n      swap1\n      pop\n        /* \"#utility.yul\":30123:30489   */\n      swap2\n      swap1\n      pop\n      jump\t// out\n        /* \"#utility.yul\":30495:30914   */\n    tag_146:\n        /* \"#utility.yul\":30661:30665   */\n      0x00\n        /* \"#utility.yul\":30699:30701   */\n      0x20\n        /* \"#utility.yul\":30688:30697   */\n      dup3\n        /* \"#utility.yul\":30684:30702   */\n      add\n        /* \"#utility.yul\":30676:30702   */\n      swap1\n      pop\n        /* \"#utility.yul\":30748:30757   */\n      dup2\n        /* \"#utility.yul\":30742:30746   */\n      dup2\n        /* \"#utility.yul\":30738:30758   */\n      sub\n        /* \"#utility.yul\":30734:30735   */\n      0x00\n        /* \"#utility.yul\":30723:30732   */\n      dup4\n        /* \"#utility.yul\":30719:30736   */\n      add\n        /* \"#utility.yul\":30712:30759   */\n      mstore\n        /* \"#utility.yul\":30776:30907   */\n      tag_533\n        /* \"#utility.yul\":30902:30906   */\n      dup2\n        /* \"#utility.yul\":30776:30907   */\n      tag_232\n      jump\t// in\n    tag_533:\n        /* \"#utility.yul\":30768:30907   */\n      swap1\n      pop\n        /* \"#utility.yul\":30495:30914   */\n      swap2\n      swap1\n      pop\n      jump\t// out\n\n    auxdata: 0xa2646970667358221220b78e221271aa084821b3c861ac0ba0ff34b955bc2d2759a3b49dbf9d9c4e491c64736f6c63430008110033\n}\n",
				"bytecode": {
					"linkReferences": {},
					"object": "6080604052600a600260146101000a81548160ff021916908360ff16021790555066038d7ea4c6800060035560006004556040518061014001604052807f33418cd1669b4e7f4bf473ec2db9a489b3d6f9f11b91d0b3b6004432ab53d60b81526020017f350ffb7c45ccf8940c163b192252495b614def57272b6f8d9a53a5b3e44ef8bd81526020017fc8acb7af851baf91a82b1ad46b01ac506ce80387170890dea377d21e8520258481526020017f5171d273154b2764aa5903210e16bd1899b18648d1358d41887a113227e9acc581526020017f986c06cb04d613f57cf7a1da410e0f22c794e1ec1ae125898cfc9662a5e5be5981526020017f6eb9a05106eff3031621027680204b2e9326b0e5191bd62f3cd7bf7f6d94d02781526020017fa1cbc8691493398c061f547b4882edbb6a38ce1730c8a2605e9d8138d4ad122681526020017f850aa72f3d8bc65181e9c29d76f7614e2f939ade9442abac29fc8a0329deeffd81526020017fe9c6f678752dbfc89028bf8b9b1cce608b34b742b75fbae878ec2c6ae803dc1e81526020017fa9e22c2e1f4531bc4389032bb472b97c25a7298d27ba4fefd75439a1be46f77f815250600990600a620001c89291906200028e565b50348015620001d657600080fd5b5060405162001d4d38038062001d4d8339818101604052810190620001fc91906200035c565b600160008190555081600260006101000a81548173ffffffffffffffffffffffffffffffffffffffff021916908373ffffffffffffffffffffffffffffffffffffffff16021790555080600160006101000a81548173ffffffffffffffffffffffffffffffffffffffff021916908373ffffffffffffffffffffffffffffffffffffffff1602179055505050620003a3565b82600a8101928215620002c0579160200282015b82811115620002bf578251825591602001919060010190620002a2565b5b509050620002cf9190620002d3565b5090565b5b80821115620002ee576000816000905550600101620002d4565b5090565b600080fd5b600073ffffffffffffffffffffffffffffffffffffffff82169050919050565b60006200032482620002f7565b9050919050565b620003368162000317565b81146200034257600080fd5b50565b60008151905062000356816200032b565b92915050565b60008060408385031215620003765762000375620002f2565b5b6000620003868582860162000345565b9250506020620003998582860162000345565b9150509250929050565b61199a80620003b36000396000f3fe60806040526004361061007b5760003560e01c8063b6b55f251161004e578063b6b55f2514610150578063b8e795641461016c578063c2b40ae414610197578063c78784d7146101d45761007b565b80631f79a1e91461008057806345e0523f146100bd57806349ce8997146100e85780638bca6d1614610125575b600080fd5b34801561008c57600080fd5b506100a760048036038101906100a29190610afc565b6101f0565b6040516100b49190610b44565b60405180910390f35b3480156100c957600080fd5b506100d2610210565b6040516100df9190610b6e565b60405180910390f35b3480156100f457600080fd5b5061010f600480360381019061010a9190610afc565b610216565b60405161011c9190610b44565b60405180910390f35b34801561013157600080fd5b5061013a610236565b6040516101479190610b6e565b60405180910390f35b61016a60048036038101906101659190610afc565b61023c565b005b34801561017857600080fd5b50610181610696565b60405161018e9190610ba5565b60405180910390f35b3480156101a357600080fd5b506101be60048036038101906101b99190610afc565b6106a9565b6040516101cb9190610b44565b60405180910390f35b6101ee60048036038101906101e99190610db8565b6106c9565b005b60076020528060005260406000206000915054906101000a900460ff1681565b60045481565b60086020528060005260406000206000915054906101000a900460ff1681565b60035481565b6102446109f6565b6003543414610288576040517f08c379a000000000000000000000000000000000000000000000000000000000815260040161027f90610e7e565b60405180910390fd5b6008600082815260200190815260200160002060009054906101000a900460ff16156102e9576040517f08c379a00000000000000000000000000000000000000000000000000000000081526004016102e090610eea565b60405180910390fd5b600260149054906101000a900460ff166002610305919061106c565b60045410610348576040517f08c379a000000000000000000000000000000000000000000000000000000000815260040161033f90611103565b60405180910390fd5b6000610352610a4f565b61035a610a72565b600060045490506000859050600080610371610a95565b60005b600260149054906101000a900460ff1660ff168160ff1610156105d25760006002876103a09190611152565b036104295784935060098160ff16600a81106103bf576103be611183565b5b0154925060098160ff16600a81106103da576103d9611183565b5b0154888260ff16600a81106103f2576103f1611183565b5b6020020181815250506000878260ff16600a811061041357610412611183565b5b602002019060ff16908160ff16815250506104ab565b600660008260ff1660ff168152602001908152602001600020549350849250600660008260ff1660ff16815260200190815260200160002054888260ff16600a811061047857610477611183565b5b6020020181815250506001878260ff16600a811061049957610498611183565b5b602002019060ff16908160ff16815250505b84600660008360ff1660ff1681526020019081526020016000208190555083826000600281106104de576104dd611183565b5b60200201818152505082826001600281106104fc576104fb611183565b5b6020020181815250506000600260009054906101000a900473ffffffffffffffffffffffffffffffffffffffff1673ffffffffffffffffffffffffffffffffffffffff1663d622e5a4620249f0858e6040518463ffffffff1660e01b815260040161056892919061125d565b6020604051808303818786fa158015610585573d6000803e3d6000fd5b50505050506040513d601f19601f820116820180604052508101906105aa919061129b565b90508095506002876105bc91906112c8565b96505080806105ca906112f9565b915050610374565b508397506001600560008a815260200190815260200160002060006101000a81548160ff0219169083151502179055506001600460008282546106159190611322565b925050819055506001600860008b815260200190815260200160002060006101000a81548160ff0219169083151502179055507fe6ab8667cb740d6c65a4ad321c031eb42f6c5085d5753238d1b2e1e370c1348388888860405161067b93929190611485565b60405180910390a15050505050505050610693610a45565b50565b600260149054906101000a900460ff1681565b60056020528060005260406000206000915054906101000a900460ff1681565b6106d16109f6565b6000816000600281106106e7576106e6611183565b5b6020020151905060008260016002811061070457610703611183565b5b602002015190506005600083815260200190815260200160002060009054906101000a900460ff1661076b576040517f08c379a00000000000000000000000000000000000000000000000000000000081526004016107629061150a565b60405180910390fd5b60003373ffffffffffffffffffffffffffffffffffffffff1690506000600160009054906101000a900473ffffffffffffffffffffffffffffffffffffffff1673ffffffffffffffffffffffffffffffffffffffff168888886040518060600160405280898152602001888152602001878152506040516024016107f294939291906116ac565b6040516020818303038152906040526311479fea60e01b6020820180517bffffffffffffffffffffffffffffffffffffffffffffffffffffffff83818316178352505050506040516108449190611764565b6000604051808303816000865af19150503d8060008114610881576040519150601f19603f3d011682016040523d82523d6000602084013e610886565b606091505b50509050806108ca576040517f08c379a00000000000000000000000000000000000000000000000000000000081526004016108c1906117c7565b60405180910390fd5b60016007600085815260200190815260200160002060006101000a81548160ff021916908315150217905550600033905060008173ffffffffffffffffffffffffffffffffffffffff166003546040516109239061180d565b60006040518083038185875af1925050503d8060008114610960576040519150601f19603f3d011682016040523d82523d6000602084013e610965565b606091505b50509050806109a9576040517f08c379a00000000000000000000000000000000000000000000000000000000081526004016109a09061186e565b60405180910390fd5b7f7fcf532c15f0a6db0bd6d0e038bea71d30d808c7d98cb3bf7268a95bf5081b6533866040516109da9291906118cf565b60405180910390a15050505050506109f0610a45565b50505050565b600260005403610a3b576040517f08c379a0000000000000000000000000000000000000000000000000000000008152600401610a3290611944565b60405180910390fd5b6002600081905550565b6001600081905550565b604051806101400160405280600a90602082028036833780820191505090505090565b604051806101400160405280600a90602082028036833780820191505090505090565b6040518060400160405280600290602082028036833780820191505090505090565b6000604051905090565b600080fd5b6000819050919050565b610ad981610ac6565b8114610ae457600080fd5b50565b600081359050610af681610ad0565b92915050565b600060208284031215610b1257610b11610ac1565b5b6000610b2084828501610ae7565b91505092915050565b60008115159050919050565b610b3e81610b29565b82525050565b6000602082019050610b596000830184610b35565b92915050565b610b6881610ac6565b82525050565b6000602082019050610b836000830184610b5f565b92915050565b600060ff82169050919050565b610b9f81610b89565b82525050565b6000602082019050610bba6000830184610b96565b92915050565b600080fd5b6000601f19601f8301169050919050565b7f4e487b7100000000000000000000000000000000000000000000000000000000600052604160045260246000fd5b610c0e82610bc5565b810181811067ffffffffffffffff82111715610c2d57610c2c610bd6565b5b80604052505050565b6000610c40610ab7565b9050610c4c8282610c05565b919050565b600067ffffffffffffffff821115610c6c57610c6b610bd6565b5b602082029050919050565b600080fd5b6000610c8f610c8a84610c51565b610c36565b90508060208402830185811115610ca957610ca8610c77565b5b835b81811015610cd25780610cbe8882610ae7565b845260208401935050602081019050610cab565b5050509392505050565b600082601f830112610cf157610cf0610bc0565b5b6002610cfe848285610c7c565b91505092915050565b600067ffffffffffffffff821115610d2257610d21610bd6565b5b602082029050919050565b6000610d40610d3b84610d07565b610c36565b90508060408402830185811115610d5a57610d59610c77565b5b835b81811015610d835780610d6f8882610cdc565b845260208401935050604081019050610d5c565b5050509392505050565b600082601f830112610da257610da1610bc0565b5b6002610daf848285610d2d565b91505092915050565b6000806000806101408587031215610dd357610dd2610ac1565b5b6000610de187828801610cdc565b9450506040610df287828801610d8d565b93505060c0610e0387828801610cdc565b925050610100610e1587828801610cdc565b91505092959194509250565b600082825260208201905092915050565b7f696e636f72726563742d616d6f756e7400000000000000000000000000000000600082015250565b6000610e68601083610e21565b9150610e7382610e32565b602082019050919050565b60006020820190508181036000830152610e9781610e5b565b9050919050565b7f6578697374696e672d636f6d6d69746d656e7400000000000000000000000000600082015250565b6000610ed4601383610e21565b9150610edf82610e9e565b602082019050919050565b60006020820190508181036000830152610f0381610ec7565b9050919050565b7f4e487b7100000000000000000000000000000000000000000000000000000000600052601160045260246000fd5b60008160011c9050919050565b6000808291508390505b6001851115610f9057808604811115610f6c57610f6b610f0a565b5b6001851615610f7b5780820291505b8081029050610f8985610f39565b9450610f50565b94509492505050565b600082610fa95760019050611065565b81610fb75760009050611065565b8160018114610fcd5760028114610fd757611006565b6001915050611065565b60ff841115610fe957610fe8610f0a565b5b8360020a91508482111561100057610fff610f0a565b5b50611065565b5060208310610133831016604e8410600b841016171561103b5782820a90508381111561103657611035610f0a565b5b611065565b6110488484846001610f46565b9250905081840481111561105f5761105e610f0a565b5b81810290505b9392505050565b600061107782610ac6565b915061108283610b89565b92506110af7fffffffffffffffffffffffffffffffffffffffffffffffffffffffffffffffff8484610f99565b905092915050565b7f747265652d66756c6c0000000000000000000000000000000000000000000000600082015250565b60006110ed600983610e21565b91506110f8826110b7565b602082019050919050565b6000602082019050818103600083015261111c816110e0565b9050919050565b7f4e487b7100000000000000000000000000000000000000000000000000000000600052601260045260246000fd5b600061115d82610ac6565b915061116883610ac6565b92508261117857611177611123565b5b828206905092915050565b7f4e487b7100000000000000000000000000000000000000000000000000000000600052603260045260246000fd5b600060029050919050565b600081905092915050565b6000819050919050565b6111db81610ac6565b82525050565b60006111ed83836111d2565b60208301905092915050565b6000602082019050919050565b61120f816111b2565b61121981846111bd565b9250611224826111c8565b8060005b8381101561125557815161123c87826111e1565b9650611247836111f9565b925050600181019050611228565b505050505050565b60006060820190506112726000830185611206565b61127f6040830184610b5f565b9392505050565b60008151905061129581610ad0565b92915050565b6000602082840312156112b1576112b0610ac1565b5b60006112bf84828501611286565b91505092915050565b60006112d382610ac6565b91506112de83610ac6565b9250826112ee576112ed611123565b5b828204905092915050565b600061130482610b89565b915060ff820361131757611316610f0a565b5b600182019050919050565b600061132d82610ac6565b915061133883610ac6565b92508282019050808211156113505761134f610f0a565b5b92915050565b6000600a9050919050565b600081905092915050565b6000819050919050565b6000602082019050919050565b61138c81611356565b6113968184611361565b92506113a18261136c565b8060005b838110156113d25781516113b987826111e1565b96506113c483611376565b9250506001810190506113a5565b505050505050565b6000600a9050919050565b600081905092915050565b6000819050919050565b61140381610b89565b82525050565b600061141583836113fa565b60208301905092915050565b6000602082019050919050565b611437816113da565b61144181846113e5565b925061144c826113f0565b8060005b8381101561147d5781516114648782611409565b965061146f83611421565b925050600181019050611450565b505050505050565b60006102a08201905061149b6000830186610b5f565b6114a86020830185611383565b6114b661016083018461142e565b949350505050565b7f6e6f742d726f6f74000000000000000000000000000000000000000000000000600082015250565b60006114f4600883610e21565b91506114ff826114be565b602082019050919050565b60006020820190508181036000830152611523816114e7565b9050919050565b600060029050919050565b600081905092915050565b6000819050919050565b600081905092915050565b61155e816111b2565b611568818461154a565b9250611573826111c8565b8060005b838110156115a457815161158b87826111e1565b9650611596836111f9565b925050600181019050611577565b505050505050565b60006115b88383611555565b60408301905092915050565b6000602082019050919050565b6115da8161152a565b6115e48184611535565b92506115ef82611540565b8060005b8381101561162057815161160787826115ac565b9650611612836115c4565b9250506001810190506115f3565b505050505050565b600060039050919050565b600081905092915050565b6000819050919050565b6000602082019050919050565b61165e81611628565b6116688184611633565b92506116738261163e565b8060005b838110156116a457815161168b87826111e1565b965061169683611648565b925050600181019050611677565b505050505050565b6000610160820190506116c26000830187611206565b6116cf60408301866115d1565b6116dc60c0830185611206565b6116ea610100830184611655565b95945050505050565b600081519050919050565b600081905092915050565b60005b8381101561172757808201518184015260208101905061170c565b60008484015250505050565b600061173e826116f3565b61174881856116fe565b9350611758818560208601611709565b80840191505092915050565b60006117708284611733565b915081905092915050565b7f696e76616c69642d70726f6f6600000000000000000000000000000000000000600082015250565b60006117b1600d83610e21565b91506117bc8261177b565b602082019050919050565b600060208201905081810360008301526117e0816117a4565b9050919050565b50565b60006117f76000836116fe565b9150611802826117e7565b600082019050919050565b6000611818826117ea565b9150819050919050565b7f7061796d656e742d6661696c6564000000000000000000000000000000000000600082015250565b6000611858600e83610e21565b915061186382611822565b602082019050919050565b600060208201905081810360008301526118878161184b565b9050919050565b600073ffffffffffffffffffffffffffffffffffffffff82169050919050565b60006118b98261188e565b9050919050565b6118c9816118ae565b82525050565b60006040820190506118e460008301856118c0565b6118f16020830184610b5f565b9392505050565b7f5265656e7472616e637947756172643a207265656e7472616e742063616c6c00600082015250565b600061192e601f83610e21565b9150611939826118f8565b602082019050919050565b6000602082019050818103600083015261195d81611921565b905091905056fea2646970667358221220b78e221271aa084821b3c861ac0ba0ff34b955bc2d2759a3b49dbf9d9c4e491c64736f6c63430008110033",
					"opcodes": "PUSH1 0x80 PUSH1 0x40 MSTORE PUSH1 0xA PUSH1 0x2 PUSH1 0x14 PUSH2 0x100 EXP DUP2 SLOAD DUP2 PUSH1 0xFF MUL NOT AND SWAP1 DUP4 PUSH1 0xFF AND MUL OR SWAP1 SSTORE POP PUSH7 0x38D7EA4C68000 PUSH1 0x3 SSTORE PUSH1 0x0 PUSH1 0x4 SSTORE PUSH1 0x40 MLOAD DUP1 PUSH2 0x140 ADD PUSH1 0x40 MSTORE DUP1 PUSH32 0x33418CD1669B4E7F4BF473EC2DB9A489B3D6F9F11B91D0B3B6004432AB53D60B DUP2 MSTORE PUSH1 0x20 ADD PUSH32 0x350FFB7C45CCF8940C163B192252495B614DEF57272B6F8D9A53A5B3E44EF8BD DUP2 MSTORE PUSH1 0x20 ADD PUSH32 0xC8ACB7AF851BAF91A82B1AD46B01AC506CE80387170890DEA377D21E85202584 DUP2 MSTORE PUSH1 0x20 ADD PUSH32 0x5171D273154B2764AA5903210E16BD1899B18648D1358D41887A113227E9ACC5 DUP2 MSTORE PUSH1 0x20 ADD PUSH32 0x986C06CB04D613F57CF7A1DA410E0F22C794E1EC1AE125898CFC9662A5E5BE59 DUP2 MSTORE PUSH1 0x20 ADD PUSH32 0x6EB9A05106EFF3031621027680204B2E9326B0E5191BD62F3CD7BF7F6D94D027 DUP2 MSTORE PUSH1 0x20 ADD PUSH32 0xA1CBC8691493398C061F547B4882EDBB6A38CE1730C8A2605E9D8138D4AD1226 DUP2 MSTORE PUSH1 0x20 ADD PUSH32 0x850AA72F3D8BC65181E9C29D76F7614E2F939ADE9442ABAC29FC8A0329DEEFFD DUP2 MSTORE PUSH1 0x20 ADD PUSH32 0xE9C6F678752DBFC89028BF8B9B1CCE608B34B742B75FBAE878EC2C6AE803DC1E DUP2 MSTORE PUSH1 0x20 ADD PUSH32 0xA9E22C2E1F4531BC4389032BB472B97C25A7298D27BA4FEFD75439A1BE46F77F DUP2 MSTORE POP PUSH1 0x9 SWAP1 PUSH1 0xA PUSH3 0x1C8 SWAP3 SWAP2 SWAP1 PUSH3 0x28E JUMP JUMPDEST POP CALLVALUE DUP1 ISZERO PUSH3 0x1D6 JUMPI PUSH1 0x0 DUP1 REVERT JUMPDEST POP PUSH1 0x40 MLOAD PUSH3 0x1D4D CODESIZE SUB DUP1 PUSH3 0x1D4D DUP4 CODECOPY DUP2 DUP2 ADD PUSH1 0x40 MSTORE DUP2 ADD SWAP1 PUSH3 0x1FC SWAP2 SWAP1 PUSH3 0x35C JUMP JUMPDEST PUSH1 0x1 PUSH1 0x0 DUP2 SWAP1 SSTORE POP DUP2 PUSH1 0x2 PUSH1 0x0 PUSH2 0x100 EXP DUP2 SLOAD DUP2 PUSH20 0xFFFFFFFFFFFFFFFFFFFFFFFFFFFFFFFFFFFFFFFF MUL NOT AND SWAP1 DUP4 PUSH20 0xFFFFFFFFFFFFFFFFFFFFFFFFFFFFFFFFFFFFFFFF AND MUL OR SWAP1 SSTORE POP DUP1 PUSH1 0x1 PUSH1 0x0 PUSH2 0x100 EXP DUP2 SLOAD DUP2 PUSH20 0xFFFFFFFFFFFFFFFFFFFFFFFFFFFFFFFFFFFFFFFF MUL NOT AND SWAP1 DUP4 PUSH20 0xFFFFFFFFFFFFFFFFFFFFFFFFFFFFFFFFFFFFFFFF AND MUL OR SWAP1 SSTORE POP POP POP PUSH3 0x3A3 JUMP JUMPDEST DUP3 PUSH1 0xA DUP2 ADD SWAP3 DUP3 ISZERO PUSH3 0x2C0 JUMPI SWAP2 PUSH1 0x20 MUL DUP3 ADD JUMPDEST DUP3 DUP2 GT ISZERO PUSH3 0x2BF JUMPI DUP3 MLOAD DUP3 SSTORE SWAP2 PUSH1 0x20 ADD SWAP2 SWAP1 PUSH1 0x1 ADD SWAP1 PUSH3 0x2A2 JUMP JUMPDEST JUMPDEST POP SWAP1 POP PUSH3 0x2CF SWAP2 SWAP1 PUSH3 0x2D3 JUMP JUMPDEST POP SWAP1 JUMP JUMPDEST JUMPDEST DUP1 DUP3 GT ISZERO PUSH3 0x2EE JUMPI PUSH1 0x0 DUP2 PUSH1 0x0 SWAP1 SSTORE POP PUSH1 0x1 ADD PUSH3 0x2D4 JUMP JUMPDEST POP SWAP1 JUMP JUMPDEST PUSH1 0x0 DUP1 REVERT JUMPDEST PUSH1 0x0 PUSH20 0xFFFFFFFFFFFFFFFFFFFFFFFFFFFFFFFFFFFFFFFF DUP3 AND SWAP1 POP SWAP2 SWAP1 POP JUMP JUMPDEST PUSH1 0x0 PUSH3 0x324 DUP3 PUSH3 0x2F7 JUMP JUMPDEST SWAP1 POP SWAP2 SWAP1 POP JUMP JUMPDEST PUSH3 0x336 DUP2 PUSH3 0x317 JUMP JUMPDEST DUP2 EQ PUSH3 0x342 JUMPI PUSH1 0x0 DUP1 REVERT JUMPDEST POP JUMP JUMPDEST PUSH1 0x0 DUP2 MLOAD SWAP1 POP PUSH3 0x356 DUP2 PUSH3 0x32B JUMP JUMPDEST SWAP3 SWAP2 POP POP JUMP JUMPDEST PUSH1 0x0 DUP1 PUSH1 0x40 DUP4 DUP6 SUB SLT ISZERO PUSH3 0x376 JUMPI PUSH3 0x375 PUSH3 0x2F2 JUMP JUMPDEST JUMPDEST PUSH1 0x0 PUSH3 0x386 DUP6 DUP3 DUP7 ADD PUSH3 0x345 JUMP JUMPDEST SWAP3 POP POP PUSH1 0x20 PUSH3 0x399 DUP6 DUP3 DUP7 ADD PUSH3 0x345 JUMP JUMPDEST SWAP2 POP POP SWAP3 POP SWAP3 SWAP1 POP JUMP JUMPDEST PUSH2 0x199A DUP1 PUSH3 0x3B3 PUSH1 0x0 CODECOPY PUSH1 0x0 RETURN INVALID PUSH1 0x80 PUSH1 0x40 MSTORE PUSH1 0x4 CALLDATASIZE LT PUSH2 0x7B JUMPI PUSH1 0x0 CALLDATALOAD PUSH1 0xE0 SHR DUP1 PUSH4 0xB6B55F25 GT PUSH2 0x4E JUMPI DUP1 PUSH4 0xB6B55F25 EQ PUSH2 0x150 JUMPI DUP1 PUSH4 0xB8E79564 EQ PUSH2 0x16C JUMPI DUP1 PUSH4 0xC2B40AE4 EQ PUSH2 0x197 JUMPI DUP1 PUSH4 0xC78784D7 EQ PUSH2 0x1D4 JUMPI PUSH2 0x7B JUMP JUMPDEST DUP1 PUSH4 0x1F79A1E9 EQ PUSH2 0x80 JUMPI DUP1 PUSH4 0x45E0523F EQ PUSH2 0xBD JUMPI DUP1 PUSH4 0x49CE8997 EQ PUSH2 0xE8 JUMPI DUP1 PUSH4 0x8BCA6D16 EQ PUSH2 0x125 JUMPI JUMPDEST PUSH1 0x0 DUP1 REVERT JUMPDEST CALLVALUE DUP1 ISZERO PUSH2 0x8C JUMPI PUSH1 0x0 DUP1 REVERT JUMPDEST POP PUSH2 0xA7 PUSH1 0x4 DUP1 CALLDATASIZE SUB DUP2 ADD SWAP1 PUSH2 0xA2 SWAP2 SWAP1 PUSH2 0xAFC JUMP JUMPDEST PUSH2 0x1F0 JUMP JUMPDEST PUSH1 0x40 MLOAD PUSH2 0xB4 SWAP2 SWAP1 PUSH2 0xB44 JUMP JUMPDEST PUSH1 0x40 MLOAD DUP1 SWAP2 SUB SWAP1 RETURN JUMPDEST CALLVALUE DUP1 ISZERO PUSH2 0xC9 JUMPI PUSH1 0x0 DUP1 REVERT JUMPDEST POP PUSH2 0xD2 PUSH2 0x210 JUMP JUMPDEST PUSH1 0x40 MLOAD PUSH2 0xDF SWAP2 SWAP1 PUSH2 0xB6E JUMP JUMPDEST PUSH1 0x40 MLOAD DUP1 SWAP2 SUB SWAP1 RETURN JUMPDEST CALLVALUE DUP1 ISZERO PUSH2 0xF4 JUMPI PUSH1 0x0 DUP1 REVERT JUMPDEST POP PUSH2 0x10F PUSH1 0x4 DUP1 CALLDATASIZE SUB DUP2 ADD SWAP1 PUSH2 0x10A SWAP2 SWAP1 PUSH2 0xAFC JUMP JUMPDEST PUSH2 0x216 JUMP JUMPDEST PUSH1 0x40 MLOAD PUSH2 0x11C SWAP2 SWAP1 PUSH2 0xB44 JUMP JUMPDEST PUSH1 0x40 MLOAD DUP1 SWAP2 SUB SWAP1 RETURN JUMPDEST CALLVALUE DUP1 ISZERO PUSH2 0x131 JUMPI PUSH1 0x0 DUP1 REVERT JUMPDEST POP PUSH2 0x13A PUSH2 0x236 JUMP JUMPDEST PUSH1 0x40 MLOAD PUSH2 0x147 SWAP2 SWAP1 PUSH2 0xB6E JUMP JUMPDEST PUSH1 0x40 MLOAD DUP1 SWAP2 SUB SWAP1 RETURN JUMPDEST PUSH2 0x16A PUSH1 0x4 DUP1 CALLDATASIZE SUB DUP2 ADD SWAP1 PUSH2 0x165 SWAP2 SWAP1 PUSH2 0xAFC JUMP JUMPDEST PUSH2 0x23C JUMP JUMPDEST STOP JUMPDEST CALLVALUE DUP1 ISZERO PUSH2 0x178 JUMPI PUSH1 0x0 DUP1 REVERT JUMPDEST POP PUSH2 0x181 PUSH2 0x696 JUMP JUMPDEST PUSH1 0x40 MLOAD PUSH2 0x18E SWAP2 SWAP1 PUSH2 0xBA5 JUMP JUMPDEST PUSH1 0x40 MLOAD DUP1 SWAP2 SUB SWAP1 RETURN JUMPDEST CALLVALUE DUP1 ISZERO PUSH2 0x1A3 JUMPI PUSH1 0x0 DUP1 REVERT JUMPDEST POP PUSH2 0x1BE PUSH1 0x4 DUP1 CALLDATASIZE SUB DUP2 ADD SWAP1 PUSH2 0x1B9 SWAP2 SWAP1 PUSH2 0xAFC JUMP JUMPDEST PUSH2 0x6A9 JUMP JUMPDEST PUSH1 0x40 MLOAD PUSH2 0x1CB SWAP2 SWAP1 PUSH2 0xB44 JUMP JUMPDEST PUSH1 0x40 MLOAD DUP1 SWAP2 SUB SWAP1 RETURN JUMPDEST PUSH2 0x1EE PUSH1 0x4 DUP1 CALLDATASIZE SUB DUP2 ADD SWAP1 PUSH2 0x1E9 SWAP2 SWAP1 PUSH2 0xDB8 JUMP JUMPDEST PUSH2 0x6C9 JUMP JUMPDEST STOP JUMPDEST PUSH1 0x7 PUSH1 0x20 MSTORE DUP1 PUSH1 0x0 MSTORE PUSH1 0x40 PUSH1 0x0 KECCAK256 PUSH1 0x0 SWAP2 POP SLOAD SWAP1 PUSH2 0x100 EXP SWAP1 DIV PUSH1 0xFF AND DUP2 JUMP JUMPDEST PUSH1 0x4 SLOAD DUP2 JUMP JUMPDEST PUSH1 0x8 PUSH1 0x20 MSTORE DUP1 PUSH1 0x0 MSTORE PUSH1 0x40 PUSH1 0x0 KECCAK256 PUSH1 0x0 SWAP2 POP SLOAD SWAP1 PUSH2 0x100 EXP SWAP1 DIV PUSH1 0xFF AND DUP2 JUMP JUMPDEST PUSH1 0x3 SLOAD DUP2 JUMP JUMPDEST PUSH2 0x244 PUSH2 0x9F6 JUMP JUMPDEST PUSH1 0x3 SLOAD CALLVALUE EQ PUSH2 0x288 JUMPI PUSH1 0x40 MLOAD PUSH32 0x8C379A000000000000000000000000000000000000000000000000000000000 DUP2 MSTORE PUSH1 0x4 ADD PUSH2 0x27F SWAP1 PUSH2 0xE7E JUMP JUMPDEST PUSH1 0x40 MLOAD DUP1 SWAP2 SUB SWAP1 REVERT JUMPDEST PUSH1 0x8 PUSH1 0x0 DUP3 DUP2 MSTORE PUSH1 0x20 ADD SWAP1 DUP2 MSTORE PUSH1 0x20 ADD PUSH1 0x0 KECCAK256 PUSH1 0x0 SWAP1 SLOAD SWAP1 PUSH2 0x100 EXP SWAP1 DIV PUSH1 0xFF AND ISZERO PUSH2 0x2E9 JUMPI PUSH1 0x40 MLOAD PUSH32 0x8C379A000000000000000000000000000000000000000000000000000000000 DUP2 MSTORE PUSH1 0x4 ADD PUSH2 0x2E0 SWAP1 PUSH2 0xEEA JUMP JUMPDEST PUSH1 0x40 MLOAD DUP1 SWAP2 SUB SWAP1 REVERT JUMPDEST PUSH1 0x2 PUSH1 0x14 SWAP1 SLOAD SWAP1 PUSH2 0x100 EXP SWAP1 DIV PUSH1 0xFF AND PUSH1 0x2 PUSH2 0x305 SWAP2 SWAP1 PUSH2 0x106C JUMP JUMPDEST PUSH1 0x4 SLOAD LT PUSH2 0x348 JUMPI PUSH1 0x40 MLOAD PUSH32 0x8C379A000000000000000000000000000000000000000000000000000000000 DUP2 MSTORE PUSH1 0x4 ADD PUSH2 0x33F SWAP1 PUSH2 0x1103 JUMP JUMPDEST PUSH1 0x40 MLOAD DUP1 SWAP2 SUB SWAP1 REVERT JUMPDEST PUSH1 0x0 PUSH2 0x352 PUSH2 0xA4F JUMP JUMPDEST PUSH2 0x35A PUSH2 0xA72 JUMP JUMPDEST PUSH1 0x0 PUSH1 0x4 SLOAD SWAP1 POP PUSH1 0x0 DUP6 SWAP1 POP PUSH1 0x0 DUP1 PUSH2 0x371 PUSH2 0xA95 JUMP JUMPDEST PUSH1 0x0 JUMPDEST PUSH1 0x2 PUSH1 0x14 SWAP1 SLOAD SWAP1 PUSH2 0x100 EXP SWAP1 DIV PUSH1 0xFF AND PUSH1 0xFF AND DUP2 PUSH1 0xFF AND LT ISZERO PUSH2 0x5D2 JUMPI PUSH1 0x0 PUSH1 0x2 DUP8 PUSH2 0x3A0 SWAP2 SWAP1 PUSH2 0x1152 JUMP JUMPDEST SUB PUSH2 0x429 JUMPI DUP5 SWAP4 POP PUSH1 0x9 DUP2 PUSH1 0xFF AND PUSH1 0xA DUP2 LT PUSH2 0x3BF JUMPI PUSH2 0x3BE PUSH2 0x1183 JUMP JUMPDEST JUMPDEST ADD SLOAD SWAP3 POP PUSH1 0x9 DUP2 PUSH1 0xFF AND PUSH1 0xA DUP2 LT PUSH2 0x3DA JUMPI PUSH2 0x3D9 PUSH2 0x1183 JUMP JUMPDEST JUMPDEST ADD SLOAD DUP9 DUP3 PUSH1 0xFF AND PUSH1 0xA DUP2 LT PUSH2 0x3F2 JUMPI PUSH2 0x3F1 PUSH2 0x1183 JUMP JUMPDEST JUMPDEST PUSH1 0x20 MUL ADD DUP2 DUP2 MSTORE POP POP PUSH1 0x0 DUP8 DUP3 PUSH1 0xFF AND PUSH1 0xA DUP2 LT PUSH2 0x413 JUMPI PUSH2 0x412 PUSH2 0x1183 JUMP JUMPDEST JUMPDEST PUSH1 0x20 MUL ADD SWAP1 PUSH1 0xFF AND SWAP1 DUP2 PUSH1 0xFF AND DUP2 MSTORE POP POP PUSH2 0x4AB JUMP JUMPDEST PUSH1 0x6 PUSH1 0x0 DUP3 PUSH1 0xFF AND PUSH1 0xFF AND DUP2 MSTORE PUSH1 0x20 ADD SWAP1 DUP2 MSTORE PUSH1 0x20 ADD PUSH1 0x0 KECCAK256 SLOAD SWAP4 POP DUP5 SWAP3 POP PUSH1 0x6 PUSH1 0x0 DUP3 PUSH1 0xFF AND PUSH1 0xFF AND DUP2 MSTORE PUSH1 0x20 ADD SWAP1 DUP2 MSTORE PUSH1 0x20 ADD PUSH1 0x0 KECCAK256 SLOAD DUP9 DUP3 PUSH1 0xFF AND PUSH1 0xA DUP2 LT PUSH2 0x478 JUMPI PUSH2 0x477 PUSH2 0x1183 JUMP JUMPDEST JUMPDEST PUSH1 0x20 MUL ADD DUP2 DUP2 MSTORE POP POP PUSH1 0x1 DUP8 DUP3 PUSH1 0xFF AND PUSH1 0xA DUP2 LT PUSH2 0x499 JUMPI PUSH2 0x498 PUSH2 0x1183 JUMP JUMPDEST JUMPDEST PUSH1 0x20 MUL ADD SWAP1 PUSH1 0xFF AND SWAP1 DUP2 PUSH1 0xFF AND DUP2 MSTORE POP POP JUMPDEST DUP5 PUSH1 0x6 PUSH1 0x0 DUP4 PUSH1 0xFF AND PUSH1 0xFF AND DUP2 MSTORE PUSH1 0x20 ADD SWAP1 DUP2 MSTORE PUSH1 0x20 ADD PUSH1 0x0 KECCAK256 DUP2 SWAP1 SSTORE POP DUP4 DUP3 PUSH1 0x0 PUSH1 0x2 DUP2 LT PUSH2 0x4DE JUMPI PUSH2 0x4DD PUSH2 0x1183 JUMP JUMPDEST JUMPDEST PUSH1 0x20 MUL ADD DUP2 DUP2 MSTORE POP POP DUP3 DUP3 PUSH1 0x1 PUSH1 0x2 DUP2 LT PUSH2 0x4FC JUMPI PUSH2 0x4FB PUSH2 0x1183 JUMP JUMPDEST JUMPDEST PUSH1 0x20 MUL ADD DUP2 DUP2 MSTORE POP POP PUSH1 0x0 PUSH1 0x2 PUSH1 0x0 SWAP1 SLOAD SWAP1 PUSH2 0x100 EXP SWAP1 DIV PUSH20 0xFFFFFFFFFFFFFFFFFFFFFFFFFFFFFFFFFFFFFFFF AND PUSH20 0xFFFFFFFFFFFFFFFFFFFFFFFFFFFFFFFFFFFFFFFF AND PUSH4 0xD622E5A4 PUSH3 0x249F0 DUP6 DUP15 PUSH1 0x40 MLOAD DUP5 PUSH4 0xFFFFFFFF AND PUSH1 0xE0 SHL DUP2 MSTORE PUSH1 0x4 ADD PUSH2 0x568 SWAP3 SWAP2 SWAP1 PUSH2 0x125D JUMP JUMPDEST PUSH1 0x20 PUSH1 0x40 MLOAD DUP1 DUP4 SUB DUP2 DUP8 DUP7 STATICCALL ISZERO DUP1 ISZERO PUSH2 0x585 JUMPI RETURNDATASIZE PUSH1 0x0 DUP1 RETURNDATACOPY RETURNDATASIZE PUSH1 0x0 REVERT JUMPDEST POP POP POP POP POP PUSH1 0x40 MLOAD RETURNDATASIZE PUSH1 0x1F NOT PUSH1 0x1F DUP3 ADD AND DUP3 ADD DUP1 PUSH1 0x40 MSTORE POP DUP2 ADD SWAP1 PUSH2 0x5AA SWAP2 SWAP1 PUSH2 0x129B JUMP JUMPDEST SWAP1 POP DUP1 SWAP6 POP PUSH1 0x2 DUP8 PUSH2 0x5BC SWAP2 SWAP1 PUSH2 0x12C8 JUMP JUMPDEST SWAP7 POP POP DUP1 DUP1 PUSH2 0x5CA SWAP1 PUSH2 0x12F9 JUMP JUMPDEST SWAP2 POP POP PUSH2 0x374 JUMP JUMPDEST POP DUP4 SWAP8 POP PUSH1 0x1 PUSH1 0x5 PUSH1 0x0 DUP11 DUP2 MSTORE PUSH1 0x20 ADD SWAP1 DUP2 MSTORE PUSH1 0x20 ADD PUSH1 0x0 KECCAK256 PUSH1 0x0 PUSH2 0x100 EXP DUP2 SLOAD DUP2 PUSH1 0xFF MUL NOT AND SWAP1 DUP4 ISZERO ISZERO MUL OR SWAP1 SSTORE POP PUSH1 0x1 PUSH1 0x4 PUSH1 0x0 DUP3 DUP3 SLOAD PUSH2 0x615 SWAP2 SWAP1 PUSH2 0x1322 JUMP JUMPDEST SWAP3 POP POP DUP2 SWAP1 SSTORE POP PUSH1 0x1 PUSH1 0x8 PUSH1 0x0 DUP12 DUP2 MSTORE PUSH1 0x20 ADD SWAP1 DUP2 MSTORE PUSH1 0x20 ADD PUSH1 0x0 KECCAK256 PUSH1 0x0 PUSH2 0x100 EXP DUP2 SLOAD DUP2 PUSH1 0xFF MUL NOT AND SWAP1 DUP4 ISZERO ISZERO MUL OR SWAP1 SSTORE POP PUSH32 0xE6AB8667CB740D6C65A4AD321C031EB42F6C5085D5753238D1B2E1E370C13483 DUP9 DUP9 DUP9 PUSH1 0x40 MLOAD PUSH2 0x67B SWAP4 SWAP3 SWAP2 SWAP1 PUSH2 0x1485 JUMP JUMPDEST PUSH1 0x40 MLOAD DUP1 SWAP2 SUB SWAP1 LOG1 POP POP POP POP POP POP POP POP PUSH2 0x693 PUSH2 0xA45 JUMP JUMPDEST POP JUMP JUMPDEST PUSH1 0x2 PUSH1 0x14 SWAP1 SLOAD SWAP1 PUSH2 0x100 EXP SWAP1 DIV PUSH1 0xFF AND DUP2 JUMP JUMPDEST PUSH1 0x5 PUSH1 0x20 MSTORE DUP1 PUSH1 0x0 MSTORE PUSH1 0x40 PUSH1 0x0 KECCAK256 PUSH1 0x0 SWAP2 POP SLOAD SWAP1 PUSH2 0x100 EXP SWAP1 DIV PUSH1 0xFF AND DUP2 JUMP JUMPDEST PUSH2 0x6D1 PUSH2 0x9F6 JUMP JUMPDEST PUSH1 0x0 DUP2 PUSH1 0x0 PUSH1 0x2 DUP2 LT PUSH2 0x6E7 JUMPI PUSH2 0x6E6 PUSH2 0x1183 JUMP JUMPDEST JUMPDEST PUSH1 0x20 MUL ADD MLOAD SWAP1 POP PUSH1 0x0 DUP3 PUSH1 0x1 PUSH1 0x2 DUP2 LT PUSH2 0x704 JUMPI PUSH2 0x703 PUSH2 0x1183 JUMP JUMPDEST JUMPDEST PUSH1 0x20 MUL ADD MLOAD SWAP1 POP PUSH1 0x5 PUSH1 0x0 DUP4 DUP2 MSTORE PUSH1 0x20 ADD SWAP1 DUP2 MSTORE PUSH1 0x20 ADD PUSH1 0x0 KECCAK256 PUSH1 0x0 SWAP1 SLOAD SWAP1 PUSH2 0x100 EXP SWAP1 DIV PUSH1 0xFF AND PUSH2 0x76B JUMPI PUSH1 0x40 MLOAD PUSH32 0x8C379A000000000000000000000000000000000000000000000000000000000 DUP2 MSTORE PUSH1 0x4 ADD PUSH2 0x762 SWAP1 PUSH2 0x150A JUMP JUMPDEST PUSH1 0x40 MLOAD DUP1 SWAP2 SUB SWAP1 REVERT JUMPDEST PUSH1 0x0 CALLER PUSH20 0xFFFFFFFFFFFFFFFFFFFFFFFFFFFFFFFFFFFFFFFF AND SWAP1 POP PUSH1 0x0 PUSH1 0x1 PUSH1 0x0 SWAP1 SLOAD SWAP1 PUSH2 0x100 EXP SWAP1 DIV PUSH20 0xFFFFFFFFFFFFFFFFFFFFFFFFFFFFFFFFFFFFFFFF AND PUSH20 0xFFFFFFFFFFFFFFFFFFFFFFFFFFFFFFFFFFFFFFFF AND DUP9 DUP9 DUP9 PUSH1 0x40 MLOAD DUP1 PUSH1 0x60 ADD PUSH1 0x40 MSTORE DUP1 DUP10 DUP2 MSTORE PUSH1 0x20 ADD DUP9 DUP2 MSTORE PUSH1 0x20 ADD DUP8 DUP2 MSTORE POP PUSH1 0x40 MLOAD PUSH1 0x24 ADD PUSH2 0x7F2 SWAP5 SWAP4 SWAP3 SWAP2 SWAP1 PUSH2 0x16AC JUMP JUMPDEST PUSH1 0x40 MLOAD PUSH1 0x20 DUP2 DUP4 SUB SUB DUP2 MSTORE SWAP1 PUSH1 0x40 MSTORE PUSH4 0x11479FEA PUSH1 0xE0 SHL PUSH1 0x20 DUP3 ADD DUP1 MLOAD PUSH28 0xFFFFFFFFFFFFFFFFFFFFFFFFFFFFFFFFFFFFFFFFFFFFFFFFFFFFFFFF DUP4 DUP2 DUP4 AND OR DUP4 MSTORE POP POP POP POP PUSH1 0x40 MLOAD PUSH2 0x844 SWAP2 SWAP1 PUSH2 0x1764 JUMP JUMPDEST PUSH1 0x0 PUSH1 0x40 MLOAD DUP1 DUP4 SUB DUP2 PUSH1 0x0 DUP7 GAS CALL SWAP2 POP POP RETURNDATASIZE DUP1 PUSH1 0x0 DUP2 EQ PUSH2 0x881 JUMPI PUSH1 0x40 MLOAD SWAP2 POP PUSH1 0x1F NOT PUSH1 0x3F RETURNDATASIZE ADD AND DUP3 ADD PUSH1 0x40 MSTORE RETURNDATASIZE DUP3 MSTORE RETURNDATASIZE PUSH1 0x0 PUSH1 0x20 DUP5 ADD RETURNDATACOPY PUSH2 0x886 JUMP JUMPDEST PUSH1 0x60 SWAP2 POP JUMPDEST POP POP SWAP1 POP DUP1 PUSH2 0x8CA JUMPI PUSH1 0x40 MLOAD PUSH32 0x8C379A000000000000000000000000000000000000000000000000000000000 DUP2 MSTORE PUSH1 0x4 ADD PUSH2 0x8C1 SWAP1 PUSH2 0x17C7 JUMP JUMPDEST PUSH1 0x40 MLOAD DUP1 SWAP2 SUB SWAP1 REVERT JUMPDEST PUSH1 0x1 PUSH1 0x7 PUSH1 0x0 DUP6 DUP2 MSTORE PUSH1 0x20 ADD SWAP1 DUP2 MSTORE PUSH1 0x20 ADD PUSH1 0x0 KECCAK256 PUSH1 0x0 PUSH2 0x100 EXP DUP2 SLOAD DUP2 PUSH1 0xFF MUL NOT AND SWAP1 DUP4 ISZERO ISZERO MUL OR SWAP1 SSTORE POP PUSH1 0x0 CALLER SWAP1 POP PUSH1 0x0 DUP2 PUSH20 0xFFFFFFFFFFFFFFFFFFFFFFFFFFFFFFFFFFFFFFFF AND PUSH1 0x3 SLOAD PUSH1 0x40 MLOAD PUSH2 0x923 SWAP1 PUSH2 0x180D JUMP JUMPDEST PUSH1 0x0 PUSH1 0x40 MLOAD DUP1 DUP4 SUB DUP2 DUP6 DUP8 GAS CALL SWAP3 POP POP POP RETURNDATASIZE DUP1 PUSH1 0x0 DUP2 EQ PUSH2 0x960 JUMPI PUSH1 0x40 MLOAD SWAP2 POP PUSH1 0x1F NOT PUSH1 0x3F RETURNDATASIZE ADD AND DUP3 ADD PUSH1 0x40 MSTORE RETURNDATASIZE DUP3 MSTORE RETURNDATASIZE PUSH1 0x0 PUSH1 0x20 DUP5 ADD RETURNDATACOPY PUSH2 0x965 JUMP JUMPDEST PUSH1 0x60 SWAP2 POP JUMPDEST POP POP SWAP1 POP DUP1 PUSH2 0x9A9 JUMPI PUSH1 0x40 MLOAD PUSH32 0x8C379A000000000000000000000000000000000000000000000000000000000 DUP2 MSTORE PUSH1 0x4 ADD PUSH2 0x9A0 SWAP1 PUSH2 0x186E JUMP JUMPDEST PUSH1 0x40 MLOAD DUP1 SWAP2 SUB SWAP1 REVERT JUMPDEST PUSH32 0x7FCF532C15F0A6DB0BD6D0E038BEA71D30D808C7D98CB3BF7268A95BF5081B65 CALLER DUP7 PUSH1 0x40 MLOAD PUSH2 0x9DA SWAP3 SWAP2 SWAP1 PUSH2 0x18CF JUMP JUMPDEST PUSH1 0x40 MLOAD DUP1 SWAP2 SUB SWAP1 LOG1 POP POP POP POP POP POP PUSH2 0x9F0 PUSH2 0xA45 JUMP JUMPDEST POP POP POP POP JUMP JUMPDEST PUSH1 0x2 PUSH1 0x0 SLOAD SUB PUSH2 0xA3B JUMPI PUSH1 0x40 MLOAD PUSH32 0x8C379A000000000000000000000000000000000000000000000000000000000 DUP2 MSTORE PUSH1 0x4 ADD PUSH2 0xA32 SWAP1 PUSH2 0x1944 JUMP JUMPDEST PUSH1 0x40 MLOAD DUP1 SWAP2 SUB SWAP1 REVERT JUMPDEST PUSH1 0x2 PUSH1 0x0 DUP2 SWAP1 SSTORE POP JUMP JUMPDEST PUSH1 0x1 PUSH1 0x0 DUP2 SWAP1 SSTORE POP JUMP JUMPDEST PUSH1 0x40 MLOAD DUP1 PUSH2 0x140 ADD PUSH1 0x40 MSTORE DUP1 PUSH1 0xA SWAP1 PUSH1 0x20 DUP3 MUL DUP1 CALLDATASIZE DUP4 CALLDATACOPY DUP1 DUP3 ADD SWAP2 POP POP SWAP1 POP POP SWAP1 JUMP JUMPDEST PUSH1 0x40 MLOAD DUP1 PUSH2 0x140 ADD PUSH1 0x40 MSTORE DUP1 PUSH1 0xA SWAP1 PUSH1 0x20 DUP3 MUL DUP1 CALLDATASIZE DUP4 CALLDATACOPY DUP1 DUP3 ADD SWAP2 POP POP SWAP1 POP POP SWAP1 JUMP JUMPDEST PUSH1 0x40 MLOAD DUP1 PUSH1 0x40 ADD PUSH1 0x40 MSTORE DUP1 PUSH1 0x2 SWAP1 PUSH1 0x20 DUP3 MUL DUP1 CALLDATASIZE DUP4 CALLDATACOPY DUP1 DUP3 ADD SWAP2 POP POP SWAP1 POP POP SWAP1 JUMP JUMPDEST PUSH1 0x0 PUSH1 0x40 MLOAD SWAP1 POP SWAP1 JUMP JUMPDEST PUSH1 0x0 DUP1 REVERT JUMPDEST PUSH1 0x0 DUP2 SWAP1 POP SWAP2 SWAP1 POP JUMP JUMPDEST PUSH2 0xAD9 DUP2 PUSH2 0xAC6 JUMP JUMPDEST DUP2 EQ PUSH2 0xAE4 JUMPI PUSH1 0x0 DUP1 REVERT JUMPDEST POP JUMP JUMPDEST PUSH1 0x0 DUP2 CALLDATALOAD SWAP1 POP PUSH2 0xAF6 DUP2 PUSH2 0xAD0 JUMP JUMPDEST SWAP3 SWAP2 POP POP JUMP JUMPDEST PUSH1 0x0 PUSH1 0x20 DUP3 DUP5 SUB SLT ISZERO PUSH2 0xB12 JUMPI PUSH2 0xB11 PUSH2 0xAC1 JUMP JUMPDEST JUMPDEST PUSH1 0x0 PUSH2 0xB20 DUP5 DUP3 DUP6 ADD PUSH2 0xAE7 JUMP JUMPDEST SWAP2 POP POP SWAP3 SWAP2 POP POP JUMP JUMPDEST PUSH1 0x0 DUP2 ISZERO ISZERO SWAP1 POP SWAP2 SWAP1 POP JUMP JUMPDEST PUSH2 0xB3E DUP2 PUSH2 0xB29 JUMP JUMPDEST DUP3 MSTORE POP POP JUMP JUMPDEST PUSH1 0x0 PUSH1 0x20 DUP3 ADD SWAP1 POP PUSH2 0xB59 PUSH1 0x0 DUP4 ADD DUP5 PUSH2 0xB35 JUMP JUMPDEST SWAP3 SWAP2 POP POP JUMP JUMPDEST PUSH2 0xB68 DUP2 PUSH2 0xAC6 JUMP JUMPDEST DUP3 MSTORE POP POP JUMP JUMPDEST PUSH1 0x0 PUSH1 0x20 DUP3 ADD SWAP1 POP PUSH2 0xB83 PUSH1 0x0 DUP4 ADD DUP5 PUSH2 0xB5F JUMP JUMPDEST SWAP3 SWAP2 POP POP JUMP JUMPDEST PUSH1 0x0 PUSH1 0xFF DUP3 AND SWAP1 POP SWAP2 SWAP1 POP JUMP JUMPDEST PUSH2 0xB9F DUP2 PUSH2 0xB89 JUMP JUMPDEST DUP3 MSTORE POP POP JUMP JUMPDEST PUSH1 0x0 PUSH1 0x20 DUP3 ADD SWAP1 POP PUSH2 0xBBA PUSH1 0x0 DUP4 ADD DUP5 PUSH2 0xB96 JUMP JUMPDEST SWAP3 SWAP2 POP POP JUMP JUMPDEST PUSH1 0x0 DUP1 REVERT JUMPDEST PUSH1 0x0 PUSH1 0x1F NOT PUSH1 0x1F DUP4 ADD AND SWAP1 POP SWAP2 SWAP1 POP JUMP JUMPDEST PUSH32 0x4E487B7100000000000000000000000000000000000000000000000000000000 PUSH1 0x0 MSTORE PUSH1 0x41 PUSH1 0x4 MSTORE PUSH1 0x24 PUSH1 0x0 REVERT JUMPDEST PUSH2 0xC0E DUP3 PUSH2 0xBC5 JUMP JUMPDEST DUP2 ADD DUP2 DUP2 LT PUSH8 0xFFFFFFFFFFFFFFFF DUP3 GT OR ISZERO PUSH2 0xC2D JUMPI PUSH2 0xC2C PUSH2 0xBD6 JUMP JUMPDEST JUMPDEST DUP1 PUSH1 0x40 MSTORE POP POP POP JUMP JUMPDEST PUSH1 0x0 PUSH2 0xC40 PUSH2 0xAB7 JUMP JUMPDEST SWAP1 POP PUSH2 0xC4C DUP3 DUP3 PUSH2 0xC05 JUMP JUMPDEST SWAP2 SWAP1 POP JUMP JUMPDEST PUSH1 0x0 PUSH8 0xFFFFFFFFFFFFFFFF DUP3 GT ISZERO PUSH2 0xC6C JUMPI PUSH2 0xC6B PUSH2 0xBD6 JUMP JUMPDEST JUMPDEST PUSH1 0x20 DUP3 MUL SWAP1 POP SWAP2 SWAP1 POP JUMP JUMPDEST PUSH1 0x0 DUP1 REVERT JUMPDEST PUSH1 0x0 PUSH2 0xC8F PUSH2 0xC8A DUP5 PUSH2 0xC51 JUMP JUMPDEST PUSH2 0xC36 JUMP JUMPDEST SWAP1 POP DUP1 PUSH1 0x20 DUP5 MUL DUP4 ADD DUP6 DUP2 GT ISZERO PUSH2 0xCA9 JUMPI PUSH2 0xCA8 PUSH2 0xC77 JUMP JUMPDEST JUMPDEST DUP4 JUMPDEST DUP2 DUP2 LT ISZERO PUSH2 0xCD2 JUMPI DUP1 PUSH2 0xCBE DUP9 DUP3 PUSH2 0xAE7 JUMP JUMPDEST DUP5 MSTORE PUSH1 0x20 DUP5 ADD SWAP4 POP POP PUSH1 0x20 DUP2 ADD SWAP1 POP PUSH2 0xCAB JUMP JUMPDEST POP POP POP SWAP4 SWAP3 POP POP POP JUMP JUMPDEST PUSH1 0x0 DUP3 PUSH1 0x1F DUP4 ADD SLT PUSH2 0xCF1 JUMPI PUSH2 0xCF0 PUSH2 0xBC0 JUMP JUMPDEST JUMPDEST PUSH1 0x2 PUSH2 0xCFE DUP5 DUP3 DUP6 PUSH2 0xC7C JUMP JUMPDEST SWAP2 POP POP SWAP3 SWAP2 POP POP JUMP JUMPDEST PUSH1 0x0 PUSH8 0xFFFFFFFFFFFFFFFF DUP3 GT ISZERO PUSH2 0xD22 JUMPI PUSH2 0xD21 PUSH2 0xBD6 JUMP JUMPDEST JUMPDEST PUSH1 0x20 DUP3 MUL SWAP1 POP SWAP2 SWAP1 POP JUMP JUMPDEST PUSH1 0x0 PUSH2 0xD40 PUSH2 0xD3B DUP5 PUSH2 0xD07 JUMP JUMPDEST PUSH2 0xC36 JUMP JUMPDEST SWAP1 POP DUP1 PUSH1 0x40 DUP5 MUL DUP4 ADD DUP6 DUP2 GT ISZERO PUSH2 0xD5A JUMPI PUSH2 0xD59 PUSH2 0xC77 JUMP JUMPDEST JUMPDEST DUP4 JUMPDEST DUP2 DUP2 LT ISZERO PUSH2 0xD83 JUMPI DUP1 PUSH2 0xD6F DUP9 DUP3 PUSH2 0xCDC JUMP JUMPDEST DUP5 MSTORE PUSH1 0x20 DUP5 ADD SWAP4 POP POP PUSH1 0x40 DUP2 ADD SWAP1 POP PUSH2 0xD5C JUMP JUMPDEST POP POP POP SWAP4 SWAP3 POP POP POP JUMP JUMPDEST PUSH1 0x0 DUP3 PUSH1 0x1F DUP4 ADD SLT PUSH2 0xDA2 JUMPI PUSH2 0xDA1 PUSH2 0xBC0 JUMP JUMPDEST JUMPDEST PUSH1 0x2 PUSH2 0xDAF DUP5 DUP3 DUP6 PUSH2 0xD2D JUMP JUMPDEST SWAP2 POP POP SWAP3 SWAP2 POP POP JUMP JUMPDEST PUSH1 0x0 DUP1 PUSH1 0x0 DUP1 PUSH2 0x140 DUP6 DUP8 SUB SLT ISZERO PUSH2 0xDD3 JUMPI PUSH2 0xDD2 PUSH2 0xAC1 JUMP JUMPDEST JUMPDEST PUSH1 0x0 PUSH2 0xDE1 DUP8 DUP3 DUP9 ADD PUSH2 0xCDC JUMP JUMPDEST SWAP5 POP POP PUSH1 0x40 PUSH2 0xDF2 DUP8 DUP3 DUP9 ADD PUSH2 0xD8D JUMP JUMPDEST SWAP4 POP POP PUSH1 0xC0 PUSH2 0xE03 DUP8 DUP3 DUP9 ADD PUSH2 0xCDC JUMP JUMPDEST SWAP3 POP POP PUSH2 0x100 PUSH2 0xE15 DUP8 DUP3 DUP9 ADD PUSH2 0xCDC JUMP JUMPDEST SWAP2 POP POP SWAP3 SWAP6 SWAP2 SWAP5 POP SWAP3 POP JUMP JUMPDEST PUSH1 0x0 DUP3 DUP3 MSTORE PUSH1 0x20 DUP3 ADD SWAP1 POP SWAP3 SWAP2 POP POP JUMP JUMPDEST PUSH32 0x696E636F72726563742D616D6F756E7400000000000000000000000000000000 PUSH1 0x0 DUP3 ADD MSTORE POP JUMP JUMPDEST PUSH1 0x0 PUSH2 0xE68 PUSH1 0x10 DUP4 PUSH2 0xE21 JUMP JUMPDEST SWAP2 POP PUSH2 0xE73 DUP3 PUSH2 0xE32 JUMP JUMPDEST PUSH1 0x20 DUP3 ADD SWAP1 POP SWAP2 SWAP1 POP JUMP JUMPDEST PUSH1 0x0 PUSH1 0x20 DUP3 ADD SWAP1 POP DUP2 DUP2 SUB PUSH1 0x0 DUP4 ADD MSTORE PUSH2 0xE97 DUP2 PUSH2 0xE5B JUMP JUMPDEST SWAP1 POP SWAP2 SWAP1 POP JUMP JUMPDEST PUSH32 0x6578697374696E672D636F6D6D69746D656E7400000000000000000000000000 PUSH1 0x0 DUP3 ADD MSTORE POP JUMP JUMPDEST PUSH1 0x0 PUSH2 0xED4 PUSH1 0x13 DUP4 PUSH2 0xE21 JUMP JUMPDEST SWAP2 POP PUSH2 0xEDF DUP3 PUSH2 0xE9E JUMP JUMPDEST PUSH1 0x20 DUP3 ADD SWAP1 POP SWAP2 SWAP1 POP JUMP JUMPDEST PUSH1 0x0 PUSH1 0x20 DUP3 ADD SWAP1 POP DUP2 DUP2 SUB PUSH1 0x0 DUP4 ADD MSTORE PUSH2 0xF03 DUP2 PUSH2 0xEC7 JUMP JUMPDEST SWAP1 POP SWAP2 SWAP1 POP JUMP JUMPDEST PUSH32 0x4E487B7100000000000000000000000000000000000000000000000000000000 PUSH1 0x0 MSTORE PUSH1 0x11 PUSH1 0x4 MSTORE PUSH1 0x24 PUSH1 0x0 REVERT JUMPDEST PUSH1 0x0 DUP2 PUSH1 0x1 SHR SWAP1 POP SWAP2 SWAP1 POP JUMP JUMPDEST PUSH1 0x0 DUP1 DUP3 SWAP2 POP DUP4 SWAP1 POP JUMPDEST PUSH1 0x1 DUP6 GT ISZERO PUSH2 0xF90 JUMPI DUP1 DUP7 DIV DUP2 GT ISZERO PUSH2 0xF6C JUMPI PUSH2 0xF6B PUSH2 0xF0A JUMP JUMPDEST JUMPDEST PUSH1 0x1 DUP6 AND ISZERO PUSH2 0xF7B JUMPI DUP1 DUP3 MUL SWAP2 POP JUMPDEST DUP1 DUP2 MUL SWAP1 POP PUSH2 0xF89 DUP6 PUSH2 0xF39 JUMP JUMPDEST SWAP5 POP PUSH2 0xF50 JUMP JUMPDEST SWAP5 POP SWAP5 SWAP3 POP POP POP JUMP JUMPDEST PUSH1 0x0 DUP3 PUSH2 0xFA9 JUMPI PUSH1 0x1 SWAP1 POP PUSH2 0x1065 JUMP JUMPDEST DUP2 PUSH2 0xFB7 JUMPI PUSH1 0x0 SWAP1 POP PUSH2 0x1065 JUMP JUMPDEST DUP2 PUSH1 0x1 DUP2 EQ PUSH2 0xFCD JUMPI PUSH1 0x2 DUP2 EQ PUSH2 0xFD7 JUMPI PUSH2 0x1006 JUMP JUMPDEST PUSH1 0x1 SWAP2 POP POP PUSH2 0x1065 JUMP JUMPDEST PUSH1 0xFF DUP5 GT ISZERO PUSH2 0xFE9 JUMPI PUSH2 0xFE8 PUSH2 0xF0A JUMP JUMPDEST JUMPDEST DUP4 PUSH1 0x2 EXP SWAP2 POP DUP5 DUP3 GT ISZERO PUSH2 0x1000 JUMPI PUSH2 0xFFF PUSH2 0xF0A JUMP JUMPDEST JUMPDEST POP PUSH2 0x1065 JUMP JUMPDEST POP PUSH1 0x20 DUP4 LT PUSH2 0x133 DUP4 LT AND PUSH1 0x4E DUP5 LT PUSH1 0xB DUP5 LT AND OR ISZERO PUSH2 0x103B JUMPI DUP3 DUP3 EXP SWAP1 POP DUP4 DUP2 GT ISZERO PUSH2 0x1036 JUMPI PUSH2 0x1035 PUSH2 0xF0A JUMP JUMPDEST JUMPDEST PUSH2 0x1065 JUMP JUMPDEST PUSH2 0x1048 DUP5 DUP5 DUP5 PUSH1 0x1 PUSH2 0xF46 JUMP JUMPDEST SWAP3 POP SWAP1 POP DUP2 DUP5 DIV DUP2 GT ISZERO PUSH2 0x105F JUMPI PUSH2 0x105E PUSH2 0xF0A JUMP JUMPDEST JUMPDEST DUP2 DUP2 MUL SWAP1 POP JUMPDEST SWAP4 SWAP3 POP POP POP JUMP JUMPDEST PUSH1 0x0 PUSH2 0x1077 DUP3 PUSH2 0xAC6 JUMP JUMPDEST SWAP2 POP PUSH2 0x1082 DUP4 PUSH2 0xB89 JUMP JUMPDEST SWAP3 POP PUSH2 0x10AF PUSH32 0xFFFFFFFFFFFFFFFFFFFFFFFFFFFFFFFFFFFFFFFFFFFFFFFFFFFFFFFFFFFFFFFF DUP5 DUP5 PUSH2 0xF99 JUMP JUMPDEST SWAP1 POP SWAP3 SWAP2 POP POP JUMP JUMPDEST PUSH32 0x747265652D66756C6C0000000000000000000000000000000000000000000000 PUSH1 0x0 DUP3 ADD MSTORE POP JUMP JUMPDEST PUSH1 0x0 PUSH2 0x10ED PUSH1 0x9 DUP4 PUSH2 0xE21 JUMP JUMPDEST SWAP2 POP PUSH2 0x10F8 DUP3 PUSH2 0x10B7 JUMP JUMPDEST PUSH1 0x20 DUP3 ADD SWAP1 POP SWAP2 SWAP1 POP JUMP JUMPDEST PUSH1 0x0 PUSH1 0x20 DUP3 ADD SWAP1 POP DUP2 DUP2 SUB PUSH1 0x0 DUP4 ADD MSTORE PUSH2 0x111C DUP2 PUSH2 0x10E0 JUMP JUMPDEST SWAP1 POP SWAP2 SWAP1 POP JUMP JUMPDEST PUSH32 0x4E487B7100000000000000000000000000000000000000000000000000000000 PUSH1 0x0 MSTORE PUSH1 0x12 PUSH1 0x4 MSTORE PUSH1 0x24 PUSH1 0x0 REVERT JUMPDEST PUSH1 0x0 PUSH2 0x115D DUP3 PUSH2 0xAC6 JUMP JUMPDEST SWAP2 POP PUSH2 0x1168 DUP4 PUSH2 0xAC6 JUMP JUMPDEST SWAP3 POP DUP3 PUSH2 0x1178 JUMPI PUSH2 0x1177 PUSH2 0x1123 JUMP JUMPDEST JUMPDEST DUP3 DUP3 MOD SWAP1 POP SWAP3 SWAP2 POP POP JUMP JUMPDEST PUSH32 0x4E487B7100000000000000000000000000000000000000000000000000000000 PUSH1 0x0 MSTORE PUSH1 0x32 PUSH1 0x4 MSTORE PUSH1 0x24 PUSH1 0x0 REVERT JUMPDEST PUSH1 0x0 PUSH1 0x2 SWAP1 POP SWAP2 SWAP1 POP JUMP JUMPDEST PUSH1 0x0 DUP2 SWAP1 POP SWAP3 SWAP2 POP POP JUMP JUMPDEST PUSH1 0x0 DUP2 SWAP1 POP SWAP2 SWAP1 POP JUMP JUMPDEST PUSH2 0x11DB DUP2 PUSH2 0xAC6 JUMP JUMPDEST DUP3 MSTORE POP POP JUMP JUMPDEST PUSH1 0x0 PUSH2 0x11ED DUP4 DUP4 PUSH2 0x11D2 JUMP JUMPDEST PUSH1 0x20 DUP4 ADD SWAP1 POP SWAP3 SWAP2 POP POP JUMP JUMPDEST PUSH1 0x0 PUSH1 0x20 DUP3 ADD SWAP1 POP SWAP2 SWAP1 POP JUMP JUMPDEST PUSH2 0x120F DUP2 PUSH2 0x11B2 JUMP JUMPDEST PUSH2 0x1219 DUP2 DUP5 PUSH2 0x11BD JUMP JUMPDEST SWAP3 POP PUSH2 0x1224 DUP3 PUSH2 0x11C8 JUMP JUMPDEST DUP1 PUSH1 0x0 JUMPDEST DUP4 DUP2 LT ISZERO PUSH2 0x1255 JUMPI DUP2 MLOAD PUSH2 0x123C DUP8 DUP3 PUSH2 0x11E1 JUMP JUMPDEST SWAP7 POP PUSH2 0x1247 DUP4 PUSH2 0x11F9 JUMP JUMPDEST SWAP3 POP POP PUSH1 0x1 DUP2 ADD SWAP1 POP PUSH2 0x1228 JUMP JUMPDEST POP POP POP POP POP POP JUMP JUMPDEST PUSH1 0x0 PUSH1 0x60 DUP3 ADD SWAP1 POP PUSH2 0x1272 PUSH1 0x0 DUP4 ADD DUP6 PUSH2 0x1206 JUMP JUMPDEST PUSH2 0x127F PUSH1 0x40 DUP4 ADD DUP5 PUSH2 0xB5F JUMP JUMPDEST SWAP4 SWAP3 POP POP POP JUMP JUMPDEST PUSH1 0x0 DUP2 MLOAD SWAP1 POP PUSH2 0x1295 DUP2 PUSH2 0xAD0 JUMP JUMPDEST SWAP3 SWAP2 POP POP JUMP JUMPDEST PUSH1 0x0 PUSH1 0x20 DUP3 DUP5 SUB SLT ISZERO PUSH2 0x12B1 JUMPI PUSH2 0x12B0 PUSH2 0xAC1 JUMP JUMPDEST JUMPDEST PUSH1 0x0 PUSH2 0x12BF DUP5 DUP3 DUP6 ADD PUSH2 0x1286 JUMP JUMPDEST SWAP2 POP POP SWAP3 SWAP2 POP POP JUMP JUMPDEST PUSH1 0x0 PUSH2 0x12D3 DUP3 PUSH2 0xAC6 JUMP JUMPDEST SWAP2 POP PUSH2 0x12DE DUP4 PUSH2 0xAC6 JUMP JUMPDEST SWAP3 POP DUP3 PUSH2 0x12EE JUMPI PUSH2 0x12ED PUSH2 0x1123 JUMP JUMPDEST JUMPDEST DUP3 DUP3 DIV SWAP1 POP SWAP3 SWAP2 POP POP JUMP JUMPDEST PUSH1 0x0 PUSH2 0x1304 DUP3 PUSH2 0xB89 JUMP JUMPDEST SWAP2 POP PUSH1 0xFF DUP3 SUB PUSH2 0x1317 JUMPI PUSH2 0x1316 PUSH2 0xF0A JUMP JUMPDEST JUMPDEST PUSH1 0x1 DUP3 ADD SWAP1 POP SWAP2 SWAP1 POP JUMP JUMPDEST PUSH1 0x0 PUSH2 0x132D DUP3 PUSH2 0xAC6 JUMP JUMPDEST SWAP2 POP PUSH2 0x1338 DUP4 PUSH2 0xAC6 JUMP JUMPDEST SWAP3 POP DUP3 DUP3 ADD SWAP1 POP DUP1 DUP3 GT ISZERO PUSH2 0x1350 JUMPI PUSH2 0x134F PUSH2 0xF0A JUMP JUMPDEST JUMPDEST SWAP3 SWAP2 POP POP JUMP JUMPDEST PUSH1 0x0 PUSH1 0xA SWAP1 POP SWAP2 SWAP1 POP JUMP JUMPDEST PUSH1 0x0 DUP2 SWAP1 POP SWAP3 SWAP2 POP POP JUMP JUMPDEST PUSH1 0x0 DUP2 SWAP1 POP SWAP2 SWAP1 POP JUMP JUMPDEST PUSH1 0x0 PUSH1 0x20 DUP3 ADD SWAP1 POP SWAP2 SWAP1 POP JUMP JUMPDEST PUSH2 0x138C DUP2 PUSH2 0x1356 JUMP JUMPDEST PUSH2 0x1396 DUP2 DUP5 PUSH2 0x1361 JUMP JUMPDEST SWAP3 POP PUSH2 0x13A1 DUP3 PUSH2 0x136C JUMP JUMPDEST DUP1 PUSH1 0x0 JUMPDEST DUP4 DUP2 LT ISZERO PUSH2 0x13D2 JUMPI DUP2 MLOAD PUSH2 0x13B9 DUP8 DUP3 PUSH2 0x11E1 JUMP JUMPDEST SWAP7 POP PUSH2 0x13C4 DUP4 PUSH2 0x1376 JUMP JUMPDEST SWAP3 POP POP PUSH1 0x1 DUP2 ADD SWAP1 POP PUSH2 0x13A5 JUMP JUMPDEST POP POP POP POP POP POP JUMP JUMPDEST PUSH1 0x0 PUSH1 0xA SWAP1 POP SWAP2 SWAP1 POP JUMP JUMPDEST PUSH1 0x0 DUP2 SWAP1 POP SWAP3 SWAP2 POP POP JUMP JUMPDEST PUSH1 0x0 DUP2 SWAP1 POP SWAP2 SWAP1 POP JUMP JUMPDEST PUSH2 0x1403 DUP2 PUSH2 0xB89 JUMP JUMPDEST DUP3 MSTORE POP POP JUMP JUMPDEST PUSH1 0x0 PUSH2 0x1415 DUP4 DUP4 PUSH2 0x13FA JUMP JUMPDEST PUSH1 0x20 DUP4 ADD SWAP1 POP SWAP3 SWAP2 POP POP JUMP JUMPDEST PUSH1 0x0 PUSH1 0x20 DUP3 ADD SWAP1 POP SWAP2 SWAP1 POP JUMP JUMPDEST PUSH2 0x1437 DUP2 PUSH2 0x13DA JUMP JUMPDEST PUSH2 0x1441 DUP2 DUP5 PUSH2 0x13E5 JUMP JUMPDEST SWAP3 POP PUSH2 0x144C DUP3 PUSH2 0x13F0 JUMP JUMPDEST DUP1 PUSH1 0x0 JUMPDEST DUP4 DUP2 LT ISZERO PUSH2 0x147D JUMPI DUP2 MLOAD PUSH2 0x1464 DUP8 DUP3 PUSH2 0x1409 JUMP JUMPDEST SWAP7 POP PUSH2 0x146F DUP4 PUSH2 0x1421 JUMP JUMPDEST SWAP3 POP POP PUSH1 0x1 DUP2 ADD SWAP1 POP PUSH2 0x1450 JUMP JUMPDEST POP POP POP POP POP POP JUMP JUMPDEST PUSH1 0x0 PUSH2 0x2A0 DUP3 ADD SWAP1 POP PUSH2 0x149B PUSH1 0x0 DUP4 ADD DUP7 PUSH2 0xB5F JUMP JUMPDEST PUSH2 0x14A8 PUSH1 0x20 DUP4 ADD DUP6 PUSH2 0x1383 JUMP JUMPDEST PUSH2 0x14B6 PUSH2 0x160 DUP4 ADD DUP5 PUSH2 0x142E JUMP JUMPDEST SWAP5 SWAP4 POP POP POP POP JUMP JUMPDEST PUSH32 0x6E6F742D726F6F74000000000000000000000000000000000000000000000000 PUSH1 0x0 DUP3 ADD MSTORE POP JUMP JUMPDEST PUSH1 0x0 PUSH2 0x14F4 PUSH1 0x8 DUP4 PUSH2 0xE21 JUMP JUMPDEST SWAP2 POP PUSH2 0x14FF DUP3 PUSH2 0x14BE JUMP JUMPDEST PUSH1 0x20 DUP3 ADD SWAP1 POP SWAP2 SWAP1 POP JUMP JUMPDEST PUSH1 0x0 PUSH1 0x20 DUP3 ADD SWAP1 POP DUP2 DUP2 SUB PUSH1 0x0 DUP4 ADD MSTORE PUSH2 0x1523 DUP2 PUSH2 0x14E7 JUMP JUMPDEST SWAP1 POP SWAP2 SWAP1 POP JUMP JUMPDEST PUSH1 0x0 PUSH1 0x2 SWAP1 POP SWAP2 SWAP1 POP JUMP JUMPDEST PUSH1 0x0 DUP2 SWAP1 POP SWAP3 SWAP2 POP POP JUMP JUMPDEST PUSH1 0x0 DUP2 SWAP1 POP SWAP2 SWAP1 POP JUMP JUMPDEST PUSH1 0x0 DUP2 SWAP1 POP SWAP3 SWAP2 POP POP JUMP JUMPDEST PUSH2 0x155E DUP2 PUSH2 0x11B2 JUMP JUMPDEST PUSH2 0x1568 DUP2 DUP5 PUSH2 0x154A JUMP JUMPDEST SWAP3 POP PUSH2 0x1573 DUP3 PUSH2 0x11C8 JUMP JUMPDEST DUP1 PUSH1 0x0 JUMPDEST DUP4 DUP2 LT ISZERO PUSH2 0x15A4 JUMPI DUP2 MLOAD PUSH2 0x158B DUP8 DUP3 PUSH2 0x11E1 JUMP JUMPDEST SWAP7 POP PUSH2 0x1596 DUP4 PUSH2 0x11F9 JUMP JUMPDEST SWAP3 POP POP PUSH1 0x1 DUP2 ADD SWAP1 POP PUSH2 0x1577 JUMP JUMPDEST POP POP POP POP POP POP JUMP JUMPDEST PUSH1 0x0 PUSH2 0x15B8 DUP4 DUP4 PUSH2 0x1555 JUMP JUMPDEST PUSH1 0x40 DUP4 ADD SWAP1 POP SWAP3 SWAP2 POP POP JUMP JUMPDEST PUSH1 0x0 PUSH1 0x20 DUP3 ADD SWAP1 POP SWAP2 SWAP1 POP JUMP JUMPDEST PUSH2 0x15DA DUP2 PUSH2 0x152A JUMP JUMPDEST PUSH2 0x15E4 DUP2 DUP5 PUSH2 0x1535 JUMP JUMPDEST SWAP3 POP PUSH2 0x15EF DUP3 PUSH2 0x1540 JUMP JUMPDEST DUP1 PUSH1 0x0 JUMPDEST DUP4 DUP2 LT ISZERO PUSH2 0x1620 JUMPI DUP2 MLOAD PUSH2 0x1607 DUP8 DUP3 PUSH2 0x15AC JUMP JUMPDEST SWAP7 POP PUSH2 0x1612 DUP4 PUSH2 0x15C4 JUMP JUMPDEST SWAP3 POP POP PUSH1 0x1 DUP2 ADD SWAP1 POP PUSH2 0x15F3 JUMP JUMPDEST POP POP POP POP POP POP JUMP JUMPDEST PUSH1 0x0 PUSH1 0x3 SWAP1 POP SWAP2 SWAP1 POP JUMP JUMPDEST PUSH1 0x0 DUP2 SWAP1 POP SWAP3 SWAP2 POP POP JUMP JUMPDEST PUSH1 0x0 DUP2 SWAP1 POP SWAP2 SWAP1 POP JUMP JUMPDEST PUSH1 0x0 PUSH1 0x20 DUP3 ADD SWAP1 POP SWAP2 SWAP1 POP JUMP JUMPDEST PUSH2 0x165E DUP2 PUSH2 0x1628 JUMP JUMPDEST PUSH2 0x1668 DUP2 DUP5 PUSH2 0x1633 JUMP JUMPDEST SWAP3 POP PUSH2 0x1673 DUP3 PUSH2 0x163E JUMP JUMPDEST DUP1 PUSH1 0x0 JUMPDEST DUP4 DUP2 LT ISZERO PUSH2 0x16A4 JUMPI DUP2 MLOAD PUSH2 0x168B DUP8 DUP3 PUSH2 0x11E1 JUMP JUMPDEST SWAP7 POP PUSH2 0x1696 DUP4 PUSH2 0x1648 JUMP JUMPDEST SWAP3 POP POP PUSH1 0x1 DUP2 ADD SWAP1 POP PUSH2 0x1677 JUMP JUMPDEST POP POP POP POP POP POP JUMP JUMPDEST PUSH1 0x0 PUSH2 0x160 DUP3 ADD SWAP1 POP PUSH2 0x16C2 PUSH1 0x0 DUP4 ADD DUP8 PUSH2 0x1206 JUMP JUMPDEST PUSH2 0x16CF PUSH1 0x40 DUP4 ADD DUP7 PUSH2 0x15D1 JUMP JUMPDEST PUSH2 0x16DC PUSH1 0xC0 DUP4 ADD DUP6 PUSH2 0x1206 JUMP JUMPDEST PUSH2 0x16EA PUSH2 0x100 DUP4 ADD DUP5 PUSH2 0x1655 JUMP JUMPDEST SWAP6 SWAP5 POP POP POP POP POP JUMP JUMPDEST PUSH1 0x0 DUP2 MLOAD SWAP1 POP SWAP2 SWAP1 POP JUMP JUMPDEST PUSH1 0x0 DUP2 SWAP1 POP SWAP3 SWAP2 POP POP JUMP JUMPDEST PUSH1 0x0 JUMPDEST DUP4 DUP2 LT ISZERO PUSH2 0x1727 JUMPI DUP1 DUP3 ADD MLOAD DUP2 DUP5 ADD MSTORE PUSH1 0x20 DUP2 ADD SWAP1 POP PUSH2 0x170C JUMP JUMPDEST PUSH1 0x0 DUP5 DUP5 ADD MSTORE POP POP POP POP JUMP JUMPDEST PUSH1 0x0 PUSH2 0x173E DUP3 PUSH2 0x16F3 JUMP JUMPDEST PUSH2 0x1748 DUP2 DUP6 PUSH2 0x16FE JUMP JUMPDEST SWAP4 POP PUSH2 0x1758 DUP2 DUP6 PUSH1 0x20 DUP7 ADD PUSH2 0x1709 JUMP JUMPDEST DUP1 DUP5 ADD SWAP2 POP POP SWAP3 SWAP2 POP POP JUMP JUMPDEST PUSH1 0x0 PUSH2 0x1770 DUP3 DUP5 PUSH2 0x1733 JUMP JUMPDEST SWAP2 POP DUP2 SWAP1 POP SWAP3 SWAP2 POP POP JUMP JUMPDEST PUSH32 0x696E76616C69642D70726F6F6600000000000000000000000000000000000000 PUSH1 0x0 DUP3 ADD MSTORE POP JUMP JUMPDEST PUSH1 0x0 PUSH2 0x17B1 PUSH1 0xD DUP4 PUSH2 0xE21 JUMP JUMPDEST SWAP2 POP PUSH2 0x17BC DUP3 PUSH2 0x177B JUMP JUMPDEST PUSH1 0x20 DUP3 ADD SWAP1 POP SWAP2 SWAP1 POP JUMP JUMPDEST PUSH1 0x0 PUSH1 0x20 DUP3 ADD SWAP1 POP DUP2 DUP2 SUB PUSH1 0x0 DUP4 ADD MSTORE PUSH2 0x17E0 DUP2 PUSH2 0x17A4 JUMP JUMPDEST SWAP1 POP SWAP2 SWAP1 POP JUMP JUMPDEST POP JUMP JUMPDEST PUSH1 0x0 PUSH2 0x17F7 PUSH1 0x0 DUP4 PUSH2 0x16FE JUMP JUMPDEST SWAP2 POP PUSH2 0x1802 DUP3 PUSH2 0x17E7 JUMP JUMPDEST PUSH1 0x0 DUP3 ADD SWAP1 POP SWAP2 SWAP1 POP JUMP JUMPDEST PUSH1 0x0 PUSH2 0x1818 DUP3 PUSH2 0x17EA JUMP JUMPDEST SWAP2 POP DUP2 SWAP1 POP SWAP2 SWAP1 POP JUMP JUMPDEST PUSH32 0x7061796D656E742D6661696C6564000000000000000000000000000000000000 PUSH1 0x0 DUP3 ADD MSTORE POP JUMP JUMPDEST PUSH1 0x0 PUSH2 0x1858 PUSH1 0xE DUP4 PUSH2 0xE21 JUMP JUMPDEST SWAP2 POP PUSH2 0x1863 DUP3 PUSH2 0x1822 JUMP JUMPDEST PUSH1 0x20 DUP3 ADD SWAP1 POP SWAP2 SWAP1 POP JUMP JUMPDEST PUSH1 0x0 PUSH1 0x20 DUP3 ADD SWAP1 POP DUP2 DUP2 SUB PUSH1 0x0 DUP4 ADD MSTORE PUSH2 0x1887 DUP2 PUSH2 0x184B JUMP JUMPDEST SWAP1 POP SWAP2 SWAP1 POP JUMP JUMPDEST PUSH1 0x0 PUSH20 0xFFFFFFFFFFFFFFFFFFFFFFFFFFFFFFFFFFFFFFFF DUP3 AND SWAP1 POP SWAP2 SWAP1 POP JUMP JUMPDEST PUSH1 0x0 PUSH2 0x18B9 DUP3 PUSH2 0x188E JUMP JUMPDEST SWAP1 POP SWAP2 SWAP1 POP JUMP JUMPDEST PUSH2 0x18C9 DUP2 PUSH2 0x18AE JUMP JUMPDEST DUP3 MSTORE POP POP JUMP JUMPDEST PUSH1 0x0 PUSH1 0x40 DUP3 ADD SWAP1 POP PUSH2 0x18E4 PUSH1 0x0 DUP4 ADD DUP6 PUSH2 0x18C0 JUMP JUMPDEST PUSH2 0x18F1 PUSH1 0x20 DUP4 ADD DUP5 PUSH2 0xB5F JUMP JUMPDEST SWAP4 SWAP3 POP POP POP JUMP JUMPDEST PUSH32 0x5265656E7472616E637947756172643A207265656E7472616E742063616C6C00 PUSH1 0x0 DUP3 ADD MSTORE POP JUMP JUMPDEST PUSH1 0x0 PUSH2 0x192E PUSH1 0x1F DUP4 PUSH2 0xE21 JUMP JUMPDEST SWAP2 POP PUSH2 0x1939 DUP3 PUSH2 0x18F8 JUMP JUMPDEST PUSH1 0x20 DUP3 ADD SWAP1 POP SWAP2 SWAP1 POP JUMP JUMPDEST PUSH1 0x0 PUSH1 0x20 DUP3 ADD SWAP1 POP DUP2 DUP2 SUB PUSH1 0x0 DUP4 ADD MSTORE PUSH2 0x195D DUP2 PUSH2 0x1921 JUMP JUMPDEST SWAP1 POP SWAP2 SWAP1 POP JUMP INVALID LOG2 PUSH5 0x6970667358 0x22 SLT KECCAK256 0xB7 DUP15 0x22 SLT PUSH18 0xAA084821B3C861AC0BA0FF34B955BC2D2759 LOG3 0xB4 SWAP14 0xBF SWAP14 SWAP13 0x4E 0x49 SHR PUSH5 0x736F6C6343 STOP ADDMOD GT STOP CALLER "
				},
				"gasEstimates": {
					"creation": {
						"codeDepositCost": "1310800",
						"executionCost": "infinite",
						"totalCost": "infinite"
					},
					"external": {
						"commitments(uint256)": "2841",
						"denomination()": "2496",
						"deposit(uint256)": "infinite",
						"nextLeafIdx()": "2452",
						"nullifierHashes(uint256)": "2797",
						"roots(uint256)": "2840",
						"treeLevel()": "2543",
						"withdraw(uint256[2],uint256[2][2],uint256[2],uint256[2])": "infinite"
					}
				},
				"methodIdentifiers": {
					"commitments(uint256)": "49ce8997",
					"denomination()": "8bca6d16",
					"deposit(uint256)": "b6b55f25",
					"nextLeafIdx()": "45e0523f",
					"nullifierHashes(uint256)": "1f79a1e9",
					"roots(uint256)": "c2b40ae4",
					"treeLevel()": "b8e79564",
					"withdraw(uint256[2],uint256[2][2],uint256[2],uint256[2])": "c78784d7"
				}
			},
			"storageLayout": {
				"storage": [
					{
						"astId": 210,
						"contract": "zk/Tornado.sol:Tornado",
						"label": "_status",
						"offset": 0,
						"slot": "0",
						"type": "t_uint256"
					},
					{
						"astId": 294,
						"contract": "zk/Tornado.sol:Tornado",
						"label": "verifier",
						"offset": 0,
						"slot": "1",
						"type": "t_address"
					},
					{
						"astId": 297,
						"contract": "zk/Tornado.sol:Tornado",
						"label": "hasher",
						"offset": 0,
						"slot": "2",
						"type": "t_contract(Hasher)199"
					},
					{
						"astId": 300,
						"contract": "zk/Tornado.sol:Tornado",
						"label": "treeLevel",
						"offset": 20,
						"slot": "2",
						"type": "t_uint8"
					},
					{
						"astId": 303,
						"contract": "zk/Tornado.sol:Tornado",
						"label": "denomination",
						"offset": 0,
						"slot": "3",
						"type": "t_uint256"
					},
					{
						"astId": 306,
						"contract": "zk/Tornado.sol:Tornado",
						"label": "nextLeafIdx",
						"offset": 0,
						"slot": "4",
						"type": "t_uint256"
					},
					{
						"astId": 310,
						"contract": "zk/Tornado.sol:Tornado",
						"label": "roots",
						"offset": 0,
						"slot": "5",
						"type": "t_mapping(t_uint256,t_bool)"
					},
					{
						"astId": 314,
						"contract": "zk/Tornado.sol:Tornado",
						"label": "lastLevelHash",
						"offset": 0,
						"slot": "6",
						"type": "t_mapping(t_uint8,t_uint256)"
					},
					{
						"astId": 318,
						"contract": "zk/Tornado.sol:Tornado",
						"label": "nullifierHashes",
						"offset": 0,
						"slot": "7",
						"type": "t_mapping(t_uint256,t_bool)"
					},
					{
						"astId": 322,
						"contract": "zk/Tornado.sol:Tornado",
						"label": "commitments",
						"offset": 0,
						"slot": "8",
						"type": "t_mapping(t_uint256,t_bool)"
					},
					{
						"astId": 337,
						"contract": "zk/Tornado.sol:Tornado",
						"label": "levelDefaults",
						"offset": 0,
						"slot": "9",
						"type": "t_array(t_uint256)10_storage"
					}
				],
				"types": {
					"t_address": {
						"encoding": "inplace",
						"label": "address",
						"numberOfBytes": "20"
					},
					"t_array(t_uint256)10_storage": {
						"base": "t_uint256",
						"encoding": "inplace",
						"label": "uint256[10]",
						"numberOfBytes": "320"
					},
					"t_bool": {
						"encoding": "inplace",
						"label": "bool",
						"numberOfBytes": "1"
					},
					"t_contract(Hasher)199": {
						"encoding": "inplace",
						"label": "contract Hasher",
						"numberOfBytes": "20"
					},
					"t_mapping(t_uint256,t_bool)": {
						"encoding": "mapping",
						"key": "t_uint256",
						"label": "mapping(uint256 => bool)",
						"numberOfBytes": "32",
						"value": "t_bool"
					},
					"t_mapping(t_uint8,t_uint256)": {
						"encoding": "mapping",
						"key": "t_uint8",
						"label": "mapping(uint8 => uint256)",
						"numberOfBytes": "32",
						"value": "t_uint256"
					},
					"t_uint256": {
						"encoding": "inplace",
						"label": "uint256",
						"numberOfBytes": "32"
					},
					"t_uint8": {
						"encoding": "inplace",
						"label": "uint8",
						"numberOfBytes": "1"
					}
				}
			},
			"userdoc": {
				"kind": "user",
				"methods": {},
				"version": 1
			}
		}
	}
}