{
	"zk/myTornado.sol": {
		"Tornado": {
			"abi": [
				{
					"inputs": [
						{
							"internalType": "address",
							"name": "_hasher",
							"type": "address"
						},
						{
							"internalType": "address",
							"name": "_verifier",
							"type": "address"
						}
					],
					"stateMutability": "nonpayable",
					"type": "constructor"
				},
				{
					"anonymous": false,
					"inputs": [
						{
							"indexed": false,
							"internalType": "uint256",
							"name": "root",
							"type": "uint256"
						},
						{
							"indexed": false,
							"internalType": "uint256[10]",
							"name": "hashPairings",
							"type": "uint256[10]"
						},
						{
							"indexed": false,
							"internalType": "uint8[10]",
							"name": "pairDirection",
							"type": "uint8[10]"
						}
					],
					"name": "Deposit",
					"type": "event"
				},
				{
					"anonymous": false,
					"inputs": [
						{
							"indexed": false,
							"internalType": "address",
							"name": "to",
							"type": "address"
						},
						{
							"indexed": false,
							"internalType": "uint256",
							"name": "nullifierHash",
							"type": "uint256"
						}
					],
					"name": "Withdrawal",
					"type": "event"
				},
				{
					"inputs": [
						{
							"internalType": "uint256[2]",
							"name": "a",
							"type": "uint256[2]"
						},
						{
							"internalType": "uint256[2][2]",
							"name": "b",
							"type": "uint256[2][2]"
						},
						{
							"internalType": "uint256[2]",
							"name": "c",
							"type": "uint256[2]"
						},
						{
							"internalType": "uint256[2]",
							"name": "input",
							"type": "uint256[2]"
						}
					],
					"name": "canWithdraw",
					"outputs": [
						{
							"internalType": "bool",
							"name": "",
							"type": "bool"
						}
					],
					"stateMutability": "view",
					"type": "function"
				},
				{
					"inputs": [
						{
							"internalType": "uint256",
							"name": "",
							"type": "uint256"
						}
					],
					"name": "commitments",
					"outputs": [
						{
							"internalType": "bool",
							"name": "",
							"type": "bool"
						}
					],
					"stateMutability": "view",
					"type": "function"
				},
				{
					"inputs": [
						{
							"internalType": "uint256",
							"name": "_commitment",
							"type": "uint256"
						}
					],
					"name": "deposit",
					"outputs": [],
					"stateMutability": "nonpayable",
					"type": "function"
				},
				{
					"inputs": [],
					"name": "nextLeafIdx",
					"outputs": [
						{
							"internalType": "uint256",
							"name": "",
							"type": "uint256"
						}
					],
					"stateMutability": "view",
					"type": "function"
				},
				{
					"inputs": [
						{
							"internalType": "uint256",
							"name": "",
							"type": "uint256"
						}
					],
					"name": "nullifierHashes",
					"outputs": [
						{
							"internalType": "bool",
							"name": "",
							"type": "bool"
						}
					],
					"stateMutability": "view",
					"type": "function"
				},
				{
					"inputs": [
						{
							"internalType": "uint256",
							"name": "",
							"type": "uint256"
						}
					],
					"name": "roots",
					"outputs": [
						{
							"internalType": "bool",
							"name": "",
							"type": "bool"
						}
					],
					"stateMutability": "view",
					"type": "function"
				},
				{
					"inputs": [],
					"name": "treeLevel",
					"outputs": [
						{
							"internalType": "uint8",
							"name": "",
							"type": "uint8"
						}
					],
					"stateMutability": "view",
					"type": "function"
				},
				{
					"inputs": [],
					"name": "verifier",
					"outputs": [
						{
							"internalType": "contract IVerifier",
							"name": "",
							"type": "address"
						}
					],
					"stateMutability": "view",
					"type": "function"
				}
			],
			"devdoc": {
				"kind": "dev",
				"methods": {},
				"version": 1
			},
			"evm": {
				"assembly": "    /* \"zk/myTornado.sol\":287:3979  contract Tornado is ReentrancyGuard {... */\n  mstore(0x40, 0x80)\n    /* \"zk/myTornado.sol\":409:411  10 */\n  0x0a\n    /* \"zk/myTornado.sol\":384:411  uint8 public treeLevel = 10 */\n  0x02\n  exp(0x0100, 0x14)\n  dup2\n  sload\n  dup2\n  0xff\n  mul\n  not\n  and\n  swap1\n  dup4\n  0xff\n  and\n  mul\n  or\n  swap1\n  sstore\n  pop\n    /* \"zk/myTornado.sol\":449:450  0 */\n  0x00\n    /* \"zk/myTornado.sol\":420:450  uint256 public nextLeafIdx = 0 */\n  0x03\n  sstore\n    /* \"zk/myTornado.sol\":657:1573  uint256[10] levelDefaults = [... */\n  mload(0x40)\n  dup1\n  0x0140\n  add\n  0x40\n  mstore\n  dup1\n    /* \"zk/myTornado.sol\":696:773  23183772226880328093887215408966704399401918833188238128725944610428185466379 */\n  0x33418cd1669b4e7f4bf473ec2db9a489b3d6f9f11b91d0b3b6004432ab53d60b\n    /* \"zk/myTornado.sol\":657:1573  uint256[10] levelDefaults = [... */\n  dup2\n  mstore\n  0x20\n  add\n    /* \"zk/myTornado.sol\":784:861  24000819369602093814416139508614852491908395579435466932859056804037806454973 */\n  0x350ffb7c45ccf8940c163b192252495b614def57272b6f8d9a53a5b3e44ef8bd\n    /* \"zk/myTornado.sol\":657:1573  uint256[10] levelDefaults = [... */\n  dup2\n  mstore\n  0x20\n  add\n    /* \"zk/myTornado.sol\":872:949  90767735163385213280029221395007952082767922246267858237072012090673396196740 */\n  0xc8acb7af851baf91a82b1ad46b01ac506ce80387170890dea377d21e85202584\n    /* \"zk/myTornado.sol\":657:1573  uint256[10] levelDefaults = [... */\n  dup2\n  mstore\n  0x20\n  add\n    /* \"zk/myTornado.sol\":960:1037  36838446922933702266161394000006956756061899673576454513992013853093276527813 */\n  0x5171d273154b2764aa5903210e16bd1899b18648d1358d41887a113227e9acc5\n    /* \"zk/myTornado.sol\":657:1573  uint256[10] levelDefaults = [... */\n  dup2\n  mstore\n  0x20\n  add\n    /* \"zk/myTornado.sol\":1048:1125  68942419351509126448570740374747181965696714458775214939345221885282113404505 */\n  0x986c06cb04d613f57cf7a1da410e0f22c794e1ec1ae125898cfc9662a5e5be59\n    /* \"zk/myTornado.sol\":657:1573  uint256[10] levelDefaults = [... */\n  dup2\n  mstore\n  0x20\n  add\n    /* \"zk/myTornado.sol\":1136:1213  50082386515045053504076326033442809551011315580267173564563197889162423619623 */\n  0x6eb9a05106eff3031621027680204b2e9326b0e5191bd62f3cd7bf7f6d94d027\n    /* \"zk/myTornado.sol\":657:1573  uint256[10] levelDefaults = [... */\n  dup2\n  mstore\n  0x20\n  add\n    /* \"zk/myTornado.sol\":1224:1301  73182421758286469310850848737411980736456210038565066977682644585724928397862 */\n  0xa1cbc8691493398c061f547b4882edbb6a38ce1730c8a2605e9d8138d4ad1226\n    /* \"zk/myTornado.sol\":657:1573  uint256[10] levelDefaults = [... */\n  dup2\n  mstore\n  0x20\n  add\n    /* \"zk/myTornado.sol\":1312:1389  60176431197461170637692882955627917456800648458772472331451918908568455016445 */\n  0x850aa72f3d8bc65181e9c29d76f7614e2f939ade9442abac29fc8a0329deeffd\n    /* \"zk/myTornado.sol\":657:1573  uint256[10] levelDefaults = [... */\n  dup2\n  mstore\n  0x20\n  add\n    /* \"zk/myTornado.sol\":1400:1478  105740430515862457360623134126179561153993738774115400861400649215360807197726 */\n  0xe9c6f678752dbfc89028bf8b9b1cce608b34b742b75fbae878ec2c6ae803dc1e\n    /* \"zk/myTornado.sol\":657:1573  uint256[10] levelDefaults = [... */\n  dup2\n  mstore\n  0x20\n  add\n    /* \"zk/myTornado.sol\":1489:1566  76840483767501885884368002925517179365815019383466879774586151314479309584255 */\n  0xa9e22c2e1f4531bc4389032bb472b97c25a7298d27ba4fefd75439a1be46f77f\n    /* \"zk/myTornado.sol\":657:1573  uint256[10] levelDefaults = [... */\n  dup2\n  mstore\n  pop\n  0x08\n  swap1\n  0x0a\n  tag_1\n  swap3\n  swap2\n  swap1\n  tag_2\n  jump\t// in\ntag_1:\n  pop\n    /* \"zk/myTornado.sol\":1727:1917  constructor(... */\n  callvalue\n  dup1\n  iszero\n  tag_3\n  jumpi\n  0x00\n  dup1\n  revert\ntag_3:\n  pop\n  mload(0x40)\n  sub(codesize, bytecodeSize)\n  dup1\n  bytecodeSize\n  dup4\n  codecopy\n  dup2\n  dup2\n  add\n  0x40\n  mstore\n  dup2\n  add\n  swap1\n  tag_4\n  swap2\n  swap1\n  tag_5\n  jump\t// in\ntag_4:\n    /* \"zk/ReentrancyGuard.sol\":1749:1750  1 */\n  0x01\n    /* \"zk/ReentrancyGuard.sol\":1860:1867  _status */\n  0x00\n    /* \"zk/ReentrancyGuard.sol\":1860:1882  _status = _NOT_ENTERED */\n  dup2\n  swap1\n  sstore\n  pop\n    /* \"zk/myTornado.sol\":1826:1833  _hasher */\n  dup2\n    /* \"zk/myTornado.sol\":1810:1816  hasher */\n  0x02\n  0x00\n    /* \"zk/myTornado.sol\":1810:1834  hasher = Hasher(_hasher) */\n  0x0100\n  exp\n  dup2\n  sload\n  dup2\n  0xffffffffffffffffffffffffffffffffffffffff\n  mul\n  not\n  and\n  swap1\n  dup4\n  0xffffffffffffffffffffffffffffffffffffffff\n  and\n  mul\n  or\n  swap1\n  sstore\n  pop\n    /* \"zk/myTornado.sol\":1866:1875  _verifier */\n  dup1\n    /* \"zk/myTornado.sol\":1845:1853  verifier */\n  0x01\n  0x00\n    /* \"zk/myTornado.sol\":1845:1876  verifier = IVerifier(_verifier) */\n  0x0100\n  exp\n  dup2\n  sload\n  dup2\n  0xffffffffffffffffffffffffffffffffffffffff\n  mul\n  not\n  and\n  swap1\n  dup4\n  0xffffffffffffffffffffffffffffffffffffffff\n  and\n  mul\n  or\n  swap1\n  sstore\n  pop\n    /* \"zk/myTornado.sol\":1727:1917  constructor(... */\n  pop\n  pop\n    /* \"zk/myTornado.sol\":287:3979  contract Tornado is ReentrancyGuard {... */\n  jump(tag_10)\ntag_2:\n  dup3\n  0x0a\n  dup2\n  add\n  swap3\n  dup3\n  iszero\n  tag_11\n  jumpi\n  swap2\n  0x20\n  mul\n  dup3\n  add\ntag_12:\n  dup3\n  dup2\n  gt\n  iszero\n  tag_13\n  jumpi\n  dup3\n  mload\n  dup3\n  sstore\n  swap2\n  0x20\n  add\n  swap2\n  swap1\n  0x01\n  add\n  swap1\n  jump(tag_12)\ntag_13:\ntag_11:\n  pop\n  swap1\n  pop\n  tag_14\n  swap2\n  swap1\n  tag_15\n  jump\t// in\ntag_14:\n  pop\n  swap1\n  jump\t// out\ntag_15:\ntag_16:\n  dup1\n  dup3\n  gt\n  iszero\n  tag_17\n  jumpi\n  0x00\n  dup2\n  0x00\n  swap1\n  sstore\n  pop\n  0x01\n  add\n  jump(tag_16)\ntag_17:\n  pop\n  swap1\n  jump\t// out\n    /* \"#utility.yul\":88:205   */\ntag_19:\n    /* \"#utility.yul\":197:198   */\n  0x00\n    /* \"#utility.yul\":194:195   */\n  dup1\n    /* \"#utility.yul\":187:199   */\n  revert\n    /* \"#utility.yul\":334:460   */\ntag_21:\n    /* \"#utility.yul\":371:378   */\n  0x00\n    /* \"#utility.yul\":411:453   */\n  0xffffffffffffffffffffffffffffffffffffffff\n    /* \"#utility.yul\":404:409   */\n  dup3\n    /* \"#utility.yul\":400:454   */\n  and\n    /* \"#utility.yul\":389:454   */\n  swap1\n  pop\n    /* \"#utility.yul\":334:460   */\n  swap2\n  swap1\n  pop\n  jump\t// out\n    /* \"#utility.yul\":466:562   */\ntag_22:\n    /* \"#utility.yul\":503:510   */\n  0x00\n    /* \"#utility.yul\":532:556   */\n  tag_31\n    /* \"#utility.yul\":550:555   */\n  dup3\n    /* \"#utility.yul\":532:556   */\n  tag_21\n  jump\t// in\ntag_31:\n    /* \"#utility.yul\":521:556   */\n  swap1\n  pop\n    /* \"#utility.yul\":466:562   */\n  swap2\n  swap1\n  pop\n  jump\t// out\n    /* \"#utility.yul\":568:690   */\ntag_23:\n    /* \"#utility.yul\":641:665   */\n  tag_33\n    /* \"#utility.yul\":659:664   */\n  dup2\n    /* \"#utility.yul\":641:665   */\n  tag_22\n  jump\t// in\ntag_33:\n    /* \"#utility.yul\":634:639   */\n  dup2\n    /* \"#utility.yul\":631:666   */\n  eq\n    /* \"#utility.yul\":621:684   */\n  tag_34\n  jumpi\n    /* \"#utility.yul\":680:681   */\n  0x00\n    /* \"#utility.yul\":677:678   */\n  dup1\n    /* \"#utility.yul\":670:682   */\n  revert\n    /* \"#utility.yul\":621:684   */\ntag_34:\n    /* \"#utility.yul\":568:690   */\n  pop\n  jump\t// out\n    /* \"#utility.yul\":696:839   */\ntag_24:\n    /* \"#utility.yul\":753:758   */\n  0x00\n    /* \"#utility.yul\":784:790   */\n  dup2\n    /* \"#utility.yul\":778:791   */\n  mload\n    /* \"#utility.yul\":769:791   */\n  swap1\n  pop\n    /* \"#utility.yul\":800:833   */\n  tag_36\n    /* \"#utility.yul\":827:832   */\n  dup2\n    /* \"#utility.yul\":800:833   */\n  tag_23\n  jump\t// in\ntag_36:\n    /* \"#utility.yul\":696:839   */\n  swap3\n  swap2\n  pop\n  pop\n  jump\t// out\n    /* \"#utility.yul\":845:1352   */\ntag_5:\n    /* \"#utility.yul\":924:930   */\n  0x00\n    /* \"#utility.yul\":932:938   */\n  dup1\n    /* \"#utility.yul\":981:983   */\n  0x40\n    /* \"#utility.yul\":969:978   */\n  dup4\n    /* \"#utility.yul\":960:967   */\n  dup6\n    /* \"#utility.yul\":956:979   */\n  sub\n    /* \"#utility.yul\":952:984   */\n  slt\n    /* \"#utility.yul\":949:1068   */\n  iszero\n  tag_38\n  jumpi\n    /* \"#utility.yul\":987:1066   */\n  tag_39\n  tag_19\n  jump\t// in\ntag_39:\n    /* \"#utility.yul\":949:1068   */\ntag_38:\n    /* \"#utility.yul\":1107:1108   */\n  0x00\n    /* \"#utility.yul\":1132:1196   */\n  tag_40\n    /* \"#utility.yul\":1188:1195   */\n  dup6\n    /* \"#utility.yul\":1179:1185   */\n  dup3\n    /* \"#utility.yul\":1168:1177   */\n  dup7\n    /* \"#utility.yul\":1164:1186   */\n  add\n    /* \"#utility.yul\":1132:1196   */\n  tag_24\n  jump\t// in\ntag_40:\n    /* \"#utility.yul\":1122:1196   */\n  swap3\n  pop\n    /* \"#utility.yul\":1078:1206   */\n  pop\n    /* \"#utility.yul\":1245:1247   */\n  0x20\n    /* \"#utility.yul\":1271:1335   */\n  tag_41\n    /* \"#utility.yul\":1327:1334   */\n  dup6\n    /* \"#utility.yul\":1318:1324   */\n  dup3\n    /* \"#utility.yul\":1307:1316   */\n  dup7\n    /* \"#utility.yul\":1303:1325   */\n  add\n    /* \"#utility.yul\":1271:1335   */\n  tag_24\n  jump\t// in\ntag_41:\n    /* \"#utility.yul\":1261:1335   */\n  swap2\n  pop\n    /* \"#utility.yul\":1216:1345   */\n  pop\n    /* \"#utility.yul\":845:1352   */\n  swap3\n  pop\n  swap3\n  swap1\n  pop\n  jump\t// out\n    /* \"zk/myTornado.sol\":287:3979  contract Tornado is ReentrancyGuard {... */\ntag_10:\n  dataSize(sub_0)\n  dup1\n  dataOffset(sub_0)\n  0x00\n  codecopy\n  0x00\n  return\nstop\n\nsub_0: assembly {\n        /* \"zk/myTornado.sol\":287:3979  contract Tornado is ReentrancyGuard {... */\n      mstore(0x40, 0x80)\n      callvalue\n      dup1\n      iszero\n      tag_1\n      jumpi\n      0x00\n      dup1\n      revert\n    tag_1:\n      pop\n      jumpi(tag_2, lt(calldatasize, 0x04))\n      shr(0xe0, calldataload(0x00))\n      dup1\n      0x9e028a5d\n      gt\n      tag_11\n      jumpi\n      dup1\n      0x9e028a5d\n      eq\n      tag_7\n      jumpi\n      dup1\n      0xb6b55f25\n      eq\n      tag_8\n      jumpi\n      dup1\n      0xb8e79564\n      eq\n      tag_9\n      jumpi\n      dup1\n      0xc2b40ae4\n      eq\n      tag_10\n      jumpi\n      jump(tag_2)\n    tag_11:\n      dup1\n      0x1f79a1e9\n      eq\n      tag_3\n      jumpi\n      dup1\n      0x2b7ac3f3\n      eq\n      tag_4\n      jumpi\n      dup1\n      0x45e0523f\n      eq\n      tag_5\n      jumpi\n      dup1\n      0x49ce8997\n      eq\n      tag_6\n      jumpi\n    tag_2:\n      0x00\n      dup1\n      revert\n        /* \"zk/myTornado.sol\":547:594  mapping(uint256 => bool) public nullifierHashes */\n    tag_3:\n      tag_12\n      0x04\n      dup1\n      calldatasize\n      sub\n      dup2\n      add\n      swap1\n      tag_13\n      swap2\n      swap1\n      tag_14\n      jump\t// in\n    tag_13:\n      tag_15\n      jump\t// in\n    tag_12:\n      mload(0x40)\n      tag_16\n      swap2\n      swap1\n      tag_17\n      jump\t// in\n    tag_16:\n      mload(0x40)\n      dup1\n      swap2\n      sub\n      swap1\n      return\n        /* \"zk/myTornado.sol\":330:355  IVerifier public verifier */\n    tag_4:\n      tag_18\n      tag_19\n      jump\t// in\n    tag_18:\n      mload(0x40)\n      tag_20\n      swap2\n      swap1\n      tag_21\n      jump\t// in\n    tag_20:\n      mload(0x40)\n      dup1\n      swap2\n      sub\n      swap1\n      return\n        /* \"zk/myTornado.sol\":420:450  uint256 public nextLeafIdx = 0 */\n    tag_5:\n      tag_22\n      tag_23\n      jump\t// in\n    tag_22:\n      mload(0x40)\n      tag_24\n      swap2\n      swap1\n      tag_25\n      jump\t// in\n    tag_24:\n      mload(0x40)\n      dup1\n      swap2\n      sub\n      swap1\n      return\n        /* \"zk/myTornado.sol\":601:644  mapping(uint256 => bool) public commitments */\n    tag_6:\n      tag_26\n      0x04\n      dup1\n      calldatasize\n      sub\n      dup2\n      add\n      swap1\n      tag_27\n      swap2\n      swap1\n      tag_14\n      jump\t// in\n    tag_27:\n      tag_28\n      jump\t// in\n    tag_26:\n      mload(0x40)\n      tag_29\n      swap2\n      swap1\n      tag_17\n      jump\t// in\n    tag_29:\n      mload(0x40)\n      dup1\n      swap2\n      sub\n      swap1\n      return\n        /* \"zk/myTornado.sol\":3372:3976  function canWithdraw(... */\n    tag_7:\n      tag_30\n      0x04\n      dup1\n      calldatasize\n      sub\n      dup2\n      add\n      swap1\n      tag_31\n      swap2\n      swap1\n      tag_32\n      jump\t// in\n    tag_31:\n      tag_33\n      jump\t// in\n    tag_30:\n      mload(0x40)\n      tag_34\n      swap2\n      swap1\n      tag_17\n      jump\t// in\n    tag_34:\n      mload(0x40)\n      dup1\n      swap2\n      sub\n      swap1\n      return\n        /* \"zk/myTornado.sol\":1925:3364  function deposit(uint256 _commitment) external nonReentrant {... */\n    tag_8:\n      tag_35\n      0x04\n      dup1\n      calldatasize\n      sub\n      dup2\n      add\n      swap1\n      tag_36\n      swap2\n      swap1\n      tag_14\n      jump\t// in\n    tag_36:\n      tag_37\n      jump\t// in\n    tag_35:\n      stop\n        /* \"zk/myTornado.sol\":384:411  uint8 public treeLevel = 10 */\n    tag_9:\n      tag_38\n      tag_39\n      jump\t// in\n    tag_38:\n      mload(0x40)\n      tag_40\n      swap2\n      swap1\n      tag_41\n      jump\t// in\n    tag_40:\n      mload(0x40)\n      dup1\n      swap2\n      sub\n      swap1\n      return\n        /* \"zk/myTornado.sol\":457:494  mapping(uint256 => bool) public roots */\n    tag_10:\n      tag_42\n      0x04\n      dup1\n      calldatasize\n      sub\n      dup2\n      add\n      swap1\n      tag_43\n      swap2\n      swap1\n      tag_14\n      jump\t// in\n    tag_43:\n      tag_44\n      jump\t// in\n    tag_42:\n      mload(0x40)\n      tag_45\n      swap2\n      swap1\n      tag_17\n      jump\t// in\n    tag_45:\n      mload(0x40)\n      dup1\n      swap2\n      sub\n      swap1\n      return\n        /* \"zk/myTornado.sol\":547:594  mapping(uint256 => bool) public nullifierHashes */\n    tag_15:\n      mstore(0x20, 0x06)\n      dup1\n      0x00\n      mstore\n      keccak256(0x00, 0x40)\n      0x00\n      swap2\n      pop\n      sload\n      swap1\n      0x0100\n      exp\n      swap1\n      div\n      0xff\n      and\n      dup2\n      jump\t// out\n        /* \"zk/myTornado.sol\":330:355  IVerifier public verifier */\n    tag_19:\n      0x01\n      0x00\n      swap1\n      sload\n      swap1\n      0x0100\n      exp\n      swap1\n      div\n      0xffffffffffffffffffffffffffffffffffffffff\n      and\n      dup2\n      jump\t// out\n        /* \"zk/myTornado.sol\":420:450  uint256 public nextLeafIdx = 0 */\n    tag_23:\n      sload(0x03)\n      dup2\n      jump\t// out\n        /* \"zk/myTornado.sol\":601:644  mapping(uint256 => bool) public commitments */\n    tag_28:\n      mstore(0x20, 0x07)\n      dup1\n      0x00\n      mstore\n      keccak256(0x00, 0x40)\n      0x00\n      swap2\n      pop\n      sload\n      swap1\n      0x0100\n      exp\n      swap1\n      div\n      0xff\n      and\n      dup2\n      jump\t// out\n        /* \"zk/myTornado.sol\":3372:3976  function canWithdraw(... */\n    tag_33:\n        /* \"zk/myTornado.sol\":3536:3540  bool */\n      0x00\n        /* \"zk/myTornado.sol\":3553:3566  uint256 _root */\n      dup1\n        /* \"zk/myTornado.sol\":3569:3574  input */\n      dup3\n        /* \"zk/myTornado.sol\":3575:3576  0 */\n      0x00\n        /* \"zk/myTornado.sol\":3569:3577  input[0] */\n      0x02\n      dup2\n      lt\n      tag_47\n      jumpi\n      tag_48\n      tag_49\n      jump\t// in\n    tag_48:\n    tag_47:\n      0x20\n      mul\n      add\n      mload\n        /* \"zk/myTornado.sol\":3553:3577  uint256 _root = input[0] */\n      swap1\n      pop\n        /* \"zk/myTornado.sol\":3588:3610  uint256 _nullifierHash */\n      0x00\n        /* \"zk/myTornado.sol\":3613:3618  input */\n      dup4\n        /* \"zk/myTornado.sol\":3619:3620  1 */\n      0x01\n        /* \"zk/myTornado.sol\":3613:3621  input[1] */\n      0x02\n      dup2\n      lt\n      tag_50\n      jumpi\n      tag_51\n      tag_49\n      jump\t// in\n    tag_51:\n    tag_50:\n      0x20\n      mul\n      add\n      mload\n        /* \"zk/myTornado.sol\":3588:3621  uint256 _nullifierHash = input[1] */\n      swap1\n      pop\n        /* \"zk/myTornado.sol\":3673:3678  roots */\n      0x04\n        /* \"zk/myTornado.sol\":3673:3685  roots[_root] */\n      0x00\n        /* \"zk/myTornado.sol\":3679:3684  _root */\n      dup4\n        /* \"zk/myTornado.sol\":3673:3685  roots[_root] */\n      dup2\n      mstore\n      0x20\n      add\n      swap1\n      dup2\n      mstore\n      0x20\n      add\n      0x00\n      keccak256\n      0x00\n      swap1\n      sload\n      swap1\n      0x0100\n      exp\n      swap1\n      div\n      0xff\n      and\n        /* \"zk/myTornado.sol\":3669:3746  if(!roots[_root]) {... */\n      tag_52\n      jumpi\n        /* \"zk/myTornado.sol\":3709:3714  false */\n      0x00\n        /* \"zk/myTornado.sol\":3702:3714  return false */\n      swap3\n      pop\n      pop\n      pop\n      jump(tag_46)\n        /* \"zk/myTornado.sol\":3669:3746  if(!roots[_root]) {... */\n    tag_52:\n        /* \"zk/myTornado.sol\":3820:3833  bool verifyOK */\n      0x00\n        /* \"zk/myTornado.sol\":3836:3844  verifier */\n      0x01\n      0x00\n      swap1\n      sload\n      swap1\n      0x0100\n      exp\n      swap1\n      div\n      0xffffffffffffffffffffffffffffffffffffffff\n      and\n        /* \"zk/myTornado.sol\":3836:3856  verifier.verifyProof */\n      0xffffffffffffffffffffffffffffffffffffffff\n      and\n      0xf5c9d69e\n        /* \"zk/myTornado.sol\":3857:3858  a */\n      dup10\n        /* \"zk/myTornado.sol\":3860:3861  b */\n      dup10\n        /* \"zk/myTornado.sol\":3863:3864  c */\n      dup10\n        /* \"zk/myTornado.sol\":3836:3890  verifier.verifyProof(a, b, c, [_root, _nullifierHash]) */\n      mload(0x40)\n      dup1\n      0x40\n      add\n      0x40\n      mstore\n      dup1\n        /* \"zk/myTornado.sol\":3867:3872  _root */\n      dup10\n        /* \"zk/myTornado.sol\":3836:3890  verifier.verifyProof(a, b, c, [_root, _nullifierHash]) */\n      dup2\n      mstore\n      0x20\n      add\n        /* \"zk/myTornado.sol\":3874:3888  _nullifierHash */\n      dup9\n        /* \"zk/myTornado.sol\":3836:3890  verifier.verifyProof(a, b, c, [_root, _nullifierHash]) */\n      dup2\n      mstore\n      pop\n      mload(0x40)\n      dup6\n      0xffffffff\n      and\n      0xe0\n      shl\n      dup2\n      mstore\n      0x04\n      add\n      tag_53\n      swap5\n      swap4\n      swap3\n      swap2\n      swap1\n      tag_54\n      jump\t// in\n    tag_53:\n      0x20\n      mload(0x40)\n      dup1\n      dup4\n      sub\n      dup2\n      dup7\n      gas\n      staticcall\n      iszero\n      dup1\n      iszero\n      tag_56\n      jumpi\n      returndatasize\n      0x00\n      dup1\n      returndatacopy\n      revert(0x00, returndatasize)\n    tag_56:\n      pop\n      pop\n      pop\n      pop\n      mload(0x40)\n      returndatasize\n      not(0x1f)\n      0x1f\n      dup3\n      add\n      and\n      dup3\n      add\n      dup1\n      0x40\n      mstore\n      pop\n      dup2\n      add\n      swap1\n      tag_57\n      swap2\n      swap1\n      tag_58\n      jump\t// in\n    tag_57:\n        /* \"zk/myTornado.sol\":3820:3890  bool verifyOK = verifier.verifyProof(a, b, c, [_root, _nullifierHash]) */\n      swap1\n      pop\n        /* \"zk/myTornado.sol\":3910:3918  verifyOK */\n      dup1\n        /* \"zk/myTornado.sol\":3903:3918  return verifyOK */\n      swap4\n      pop\n      pop\n      pop\n      pop\n        /* \"zk/myTornado.sol\":3372:3976  function canWithdraw(... */\n    tag_46:\n      swap5\n      swap4\n      pop\n      pop\n      pop\n      pop\n      jump\t// out\n        /* \"zk/myTornado.sol\":1925:3364  function deposit(uint256 _commitment) external nonReentrant {... */\n    tag_37:\n        /* \"zk/ReentrancyGuard.sol\":2311:2332  _nonReentrantBefore() */\n      tag_60\n        /* \"zk/ReentrancyGuard.sol\":2311:2330  _nonReentrantBefore */\n      tag_61\n        /* \"zk/ReentrancyGuard.sol\":2311:2332  _nonReentrantBefore() */\n      jump\t// in\n    tag_60:\n        /* \"zk/myTornado.sol\":2005:2016  commitments */\n      0x07\n        /* \"zk/myTornado.sol\":2005:2029  commitments[_commitment] */\n      0x00\n        /* \"zk/myTornado.sol\":2017:2028  _commitment */\n      dup3\n        /* \"zk/myTornado.sol\":2005:2029  commitments[_commitment] */\n      dup2\n      mstore\n      0x20\n      add\n      swap1\n      dup2\n      mstore\n      0x20\n      add\n      0x00\n      keccak256\n      0x00\n      swap1\n      sload\n      swap1\n      0x0100\n      exp\n      swap1\n      div\n      0xff\n      and\n        /* \"zk/myTornado.sol\":2004:2029  !commitments[_commitment] */\n      iszero\n        /* \"zk/myTornado.sol\":1996:2053  require(!commitments[_commitment], \"existing-commitment\") */\n      tag_63\n      jumpi\n      mload(0x40)\n      0x08c379a000000000000000000000000000000000000000000000000000000000\n      dup2\n      mstore\n      0x04\n      add\n      tag_64\n      swap1\n      tag_65\n      jump\t// in\n    tag_64:\n      mload(0x40)\n      dup1\n      swap2\n      sub\n      swap1\n      revert\n    tag_63:\n        /* \"zk/myTornado.sol\":2091:2100  treeLevel */\n      0x02\n      0x14\n      swap1\n      sload\n      swap1\n      0x0100\n      exp\n      swap1\n      div\n      0xff\n      and\n        /* \"zk/myTornado.sol\":2086:2087  2 */\n      0x02\n        /* \"zk/myTornado.sol\":2086:2100  2 ** treeLevel */\n      tag_66\n      swap2\n      swap1\n      tag_67\n      jump\t// in\n    tag_66:\n        /* \"zk/myTornado.sol\":2072:2083  nextLeafIdx */\n      sload(0x03)\n        /* \"zk/myTornado.sol\":2072:2100  nextLeafIdx < 2 ** treeLevel */\n      lt\n        /* \"zk/myTornado.sol\":2064:2114  require(nextLeafIdx < 2 ** treeLevel, \"tree-full\") */\n      tag_68\n      jumpi\n      mload(0x40)\n      0x08c379a000000000000000000000000000000000000000000000000000000000\n      dup2\n      mstore\n      0x04\n      add\n      tag_69\n      swap1\n      tag_70\n      jump\t// in\n    tag_69:\n      mload(0x40)\n      dup1\n      swap2\n      sub\n      swap1\n      revert\n    tag_68:\n        /* \"zk/myTornado.sol\":2127:2142  uint256 newRoot */\n      0x00\n        /* \"zk/myTornado.sol\":2153:2184  uint256[10] memory hashPairings */\n      tag_71\n      tag_72\n      jump\t// in\n    tag_71:\n        /* \"zk/myTornado.sol\":2195:2226  uint8[10] memory hashDirections */\n      tag_73\n      tag_74\n      jump\t// in\n    tag_73:\n        /* \"zk/myTornado.sol\":2239:2257  uint256 currentIdx */\n      0x00\n        /* \"zk/myTornado.sol\":2260:2271  nextLeafIdx */\n      sload(0x03)\n        /* \"zk/myTornado.sol\":2239:2271  uint256 currentIdx = nextLeafIdx */\n      swap1\n      pop\n        /* \"zk/myTornado.sol\":2282:2301  uint256 currentHash */\n      0x00\n        /* \"zk/myTornado.sol\":2304:2315  _commitment */\n      dup6\n        /* \"zk/myTornado.sol\":2282:2315  uint256 currentHash = _commitment */\n      swap1\n      pop\n        /* \"zk/myTornado.sol\":2328:2340  uint256 left */\n      0x00\n        /* \"zk/myTornado.sol\":2351:2364  uint256 right */\n      dup1\n        /* \"zk/myTornado.sol\":2375:2396  uint256[2] memory ins */\n      tag_75\n      tag_76\n      jump\t// in\n    tag_75:\n        /* \"zk/myTornado.sol\":2421:2428  uint8 i */\n      0x00\n        /* \"zk/myTornado.sol\":2417:3158  for(uint8 i = 0; i < treeLevel; i++){... */\n    tag_77:\n        /* \"zk/myTornado.sol\":2438:2447  treeLevel */\n      0x02\n      0x14\n      swap1\n      sload\n      swap1\n      0x0100\n      exp\n      swap1\n      div\n      0xff\n      and\n        /* \"zk/myTornado.sol\":2434:2447  i < treeLevel */\n      0xff\n      and\n        /* \"zk/myTornado.sol\":2434:2435  i */\n      dup2\n        /* \"zk/myTornado.sol\":2434:2447  i < treeLevel */\n      0xff\n      and\n      lt\n        /* \"zk/myTornado.sol\":2417:3158  for(uint8 i = 0; i < treeLevel; i++){... */\n      iszero\n      tag_78\n      jumpi\n        /* \"zk/myTornado.sol\":2503:2504  0 */\n      0x00\n        /* \"zk/myTornado.sol\":2498:2499  2 */\n      0x02\n        /* \"zk/myTornado.sol\":2485:2495  currentIdx */\n      dup8\n        /* \"zk/myTornado.sol\":2485:2499  currentIdx % 2 */\n      tag_80\n      swap2\n      swap1\n      tag_81\n      jump\t// in\n    tag_80:\n        /* \"zk/myTornado.sol\":2485:2504  currentIdx % 2 == 0 */\n      sub\n        /* \"zk/myTornado.sol\":2482:2887  if(currentIdx % 2 == 0){... */\n      tag_82\n      jumpi\n        /* \"zk/myTornado.sol\":2531:2542  currentHash */\n      dup5\n        /* \"zk/myTornado.sol\":2524:2542  left = currentHash */\n      swap4\n      pop\n        /* \"zk/myTornado.sol\":2569:2582  levelDefaults */\n      0x08\n        /* \"zk/myTornado.sol\":2583:2584  i */\n      dup2\n        /* \"zk/myTornado.sol\":2569:2585  levelDefaults[i] */\n      0xff\n      and\n      0x0a\n      dup2\n      lt\n      tag_83\n      jumpi\n      tag_84\n      tag_49\n      jump\t// in\n    tag_84:\n    tag_83:\n      add\n      sload\n        /* \"zk/myTornado.sol\":2561:2585  right = levelDefaults[i] */\n      swap3\n      pop\n        /* \"zk/myTornado.sol\":2622:2635  levelDefaults */\n      0x08\n        /* \"zk/myTornado.sol\":2636:2637  i */\n      dup2\n        /* \"zk/myTornado.sol\":2622:2638  levelDefaults[i] */\n      0xff\n      and\n      0x0a\n      dup2\n      lt\n      tag_86\n      jumpi\n      tag_87\n      tag_49\n      jump\t// in\n    tag_87:\n    tag_86:\n      add\n      sload\n        /* \"zk/myTornado.sol\":2604:2616  hashPairings */\n      dup9\n        /* \"zk/myTornado.sol\":2617:2618  i */\n      dup3\n        /* \"zk/myTornado.sol\":2604:2619  hashPairings[i] */\n      0xff\n      and\n      0x0a\n      dup2\n      lt\n      tag_89\n      jumpi\n      tag_90\n      tag_49\n      jump\t// in\n    tag_90:\n    tag_89:\n      0x20\n      mul\n      add\n        /* \"zk/myTornado.sol\":2604:2638  hashPairings[i] = levelDefaults[i] */\n      dup2\n      dup2\n      mstore\n      pop\n      pop\n        /* \"zk/myTornado.sol\":2677:2678  0 */\n      0x00\n        /* \"zk/myTornado.sol\":2657:2671  hashDirections */\n      dup8\n        /* \"zk/myTornado.sol\":2672:2673  i */\n      dup3\n        /* \"zk/myTornado.sol\":2657:2674  hashDirections[i] */\n      0xff\n      and\n      0x0a\n      dup2\n      lt\n      tag_91\n      jumpi\n      tag_92\n      tag_49\n      jump\t// in\n    tag_92:\n    tag_91:\n      0x20\n      mul\n      add\n        /* \"zk/myTornado.sol\":2657:2678  hashDirections[i] = 0 */\n      swap1\n      0xff\n      and\n      swap1\n      dup2\n      0xff\n      and\n      dup2\n      mstore\n      pop\n      pop\n        /* \"zk/myTornado.sol\":2482:2887  if(currentIdx % 2 == 0){... */\n      jump(tag_93)\n    tag_82:\n        /* \"zk/myTornado.sol\":2724:2737  lastLevelHash */\n      0x05\n        /* \"zk/myTornado.sol\":2724:2740  lastLevelHash[i] */\n      0x00\n        /* \"zk/myTornado.sol\":2738:2739  i */\n      dup3\n        /* \"zk/myTornado.sol\":2724:2740  lastLevelHash[i] */\n      0xff\n      and\n      0xff\n      and\n      dup2\n      mstore\n      0x20\n      add\n      swap1\n      dup2\n      mstore\n      0x20\n      add\n      0x00\n      keccak256\n      sload\n        /* \"zk/myTornado.sol\":2717:2740  left = lastLevelHash[i] */\n      swap4\n      pop\n        /* \"zk/myTornado.sol\":2767:2778  currentHash */\n      dup5\n        /* \"zk/myTornado.sol\":2759:2778  right = currentHash */\n      swap3\n      pop\n        /* \"zk/myTornado.sol\":2815:2828  lastLevelHash */\n      0x05\n        /* \"zk/myTornado.sol\":2815:2831  lastLevelHash[i] */\n      0x00\n        /* \"zk/myTornado.sol\":2829:2830  i */\n      dup3\n        /* \"zk/myTornado.sol\":2815:2831  lastLevelHash[i] */\n      0xff\n      and\n      0xff\n      and\n      dup2\n      mstore\n      0x20\n      add\n      swap1\n      dup2\n      mstore\n      0x20\n      add\n      0x00\n      keccak256\n      sload\n        /* \"zk/myTornado.sol\":2797:2809  hashPairings */\n      dup9\n        /* \"zk/myTornado.sol\":2810:2811  i */\n      dup3\n        /* \"zk/myTornado.sol\":2797:2812  hashPairings[i] */\n      0xff\n      and\n      0x0a\n      dup2\n      lt\n      tag_94\n      jumpi\n      tag_95\n      tag_49\n      jump\t// in\n    tag_95:\n    tag_94:\n      0x20\n      mul\n      add\n        /* \"zk/myTornado.sol\":2797:2831  hashPairings[i] = lastLevelHash[i] */\n      dup2\n      dup2\n      mstore\n      pop\n      pop\n        /* \"zk/myTornado.sol\":2870:2871  1 */\n      0x01\n        /* \"zk/myTornado.sol\":2850:2864  hashDirections */\n      dup8\n        /* \"zk/myTornado.sol\":2865:2866  i */\n      dup3\n        /* \"zk/myTornado.sol\":2850:2867  hashDirections[i] */\n      0xff\n      and\n      0x0a\n      dup2\n      lt\n      tag_96\n      jumpi\n      tag_97\n      tag_49\n      jump\t// in\n    tag_97:\n    tag_96:\n      0x20\n      mul\n      add\n        /* \"zk/myTornado.sol\":2850:2871  hashDirections[i] = 1 */\n      swap1\n      0xff\n      and\n      swap1\n      dup2\n      0xff\n      and\n      dup2\n      mstore\n      pop\n      pop\n        /* \"zk/myTornado.sol\":2482:2887  if(currentIdx % 2 == 0){... */\n    tag_93:\n        /* \"zk/myTornado.sol\":2920:2931  currentHash */\n      dup5\n        /* \"zk/myTornado.sol\":2901:2914  lastLevelHash */\n      0x05\n        /* \"zk/myTornado.sol\":2901:2917  lastLevelHash[i] */\n      0x00\n        /* \"zk/myTornado.sol\":2915:2916  i */\n      dup4\n        /* \"zk/myTornado.sol\":2901:2917  lastLevelHash[i] */\n      0xff\n      and\n      0xff\n      and\n      dup2\n      mstore\n      0x20\n      add\n      swap1\n      dup2\n      mstore\n      0x20\n      add\n      0x00\n      keccak256\n        /* \"zk/myTornado.sol\":2901:2931  lastLevelHash[i] = currentHash */\n      dup2\n      swap1\n      sstore\n      pop\n        /* \"zk/myTornado.sol\":2957:2961  left */\n      dup4\n        /* \"zk/myTornado.sol\":2948:2951  ins */\n      dup3\n        /* \"zk/myTornado.sol\":2952:2953  0 */\n      0x00\n        /* \"zk/myTornado.sol\":2948:2954  ins[0] */\n      0x02\n      dup2\n      lt\n      tag_98\n      jumpi\n      tag_99\n      tag_49\n      jump\t// in\n    tag_99:\n    tag_98:\n      0x20\n      mul\n      add\n        /* \"zk/myTornado.sol\":2948:2961  ins[0] = left */\n      dup2\n      dup2\n      mstore\n      pop\n      pop\n        /* \"zk/myTornado.sol\":2985:2990  right */\n      dup3\n        /* \"zk/myTornado.sol\":2976:2979  ins */\n      dup3\n        /* \"zk/myTornado.sol\":2980:2981  1 */\n      0x01\n        /* \"zk/myTornado.sol\":2976:2982  ins[1] */\n      0x02\n      dup2\n      lt\n      tag_100\n      jumpi\n      tag_101\n      tag_49\n      jump\t// in\n    tag_101:\n    tag_100:\n      0x20\n      mul\n      add\n        /* \"zk/myTornado.sol\":2976:2990  ins[1] = right */\n      dup2\n      dup2\n      mstore\n      pop\n      pop\n        /* \"zk/myTornado.sol\":3008:3017  uint256 h */\n      0x00\n        /* \"zk/myTornado.sol\":3021:3027  hasher */\n      0x02\n      0x00\n      swap1\n      sload\n      swap1\n      0x0100\n      exp\n      swap1\n      div\n      0xffffffffffffffffffffffffffffffffffffffff\n      and\n        /* \"zk/myTornado.sol\":3021:3039  hasher.MiMC5Sponge */\n      0xffffffffffffffffffffffffffffffffffffffff\n      and\n      0xd622e5a4\n        /* \"zk/myTornado.sol\":3046:3052  150000 */\n      0x0249f0\n        /* \"zk/myTornado.sol\":3055:3058  ins */\n      dup6\n        /* \"zk/myTornado.sol\":3060:3071  _commitment */\n      dup15\n        /* \"zk/myTornado.sol\":3021:3072  hasher.MiMC5Sponge{ gas: 150000 }(ins, _commitment) */\n      mload(0x40)\n      dup5\n      0xffffffff\n      and\n      0xe0\n      shl\n      dup2\n      mstore\n      0x04\n      add\n      tag_102\n      swap3\n      swap2\n      swap1\n      tag_103\n      jump\t// in\n    tag_102:\n      0x20\n      mload(0x40)\n      dup1\n      dup4\n      sub\n      dup2\n      dup8\n      dup7\n      staticcall\n      iszero\n      dup1\n      iszero\n      tag_105\n      jumpi\n      returndatasize\n      0x00\n      dup1\n      returndatacopy\n      revert(0x00, returndatasize)\n    tag_105:\n      pop\n      pop\n      pop\n      pop\n      pop\n      mload(0x40)\n      returndatasize\n      not(0x1f)\n      0x1f\n      dup3\n      add\n      and\n      dup3\n      add\n      dup1\n      0x40\n      mstore\n      pop\n      dup2\n      add\n      swap1\n      tag_106\n      swap2\n      swap1\n      tag_107\n      jump\t// in\n    tag_106:\n        /* \"zk/myTornado.sol\":3007:3072  (uint256 h) = hasher.MiMC5Sponge{ gas: 150000 }(ins, _commitment) */\n      swap1\n      pop\n        /* \"zk/myTornado.sol\":3103:3104  h */\n      dup1\n        /* \"zk/myTornado.sol\":3089:3104  currentHash = h */\n      swap6\n      pop\n        /* \"zk/myTornado.sol\":3145:3146  2 */\n      0x02\n        /* \"zk/myTornado.sol\":3132:3142  currentIdx */\n      dup8\n        /* \"zk/myTornado.sol\":3132:3146  currentIdx / 2 */\n      tag_108\n      swap2\n      swap1\n      tag_109\n      jump\t// in\n    tag_108:\n        /* \"zk/myTornado.sol\":3119:3146  currentIdx = currentIdx / 2 */\n      swap7\n      pop\n        /* \"zk/myTornado.sol\":2453:3158  {... */\n      pop\n        /* \"zk/myTornado.sol\":2449:2452  i++ */\n      dup1\n      dup1\n      tag_110\n      swap1\n      tag_111\n      jump\t// in\n    tag_110:\n      swap2\n      pop\n      pop\n        /* \"zk/myTornado.sol\":2417:3158  for(uint8 i = 0; i < treeLevel; i++){... */\n      jump(tag_77)\n    tag_78:\n      pop\n        /* \"zk/myTornado.sol\":3180:3191  currentHash */\n      dup4\n        /* \"zk/myTornado.sol\":3170:3191  newRoot = currentHash */\n      swap8\n      pop\n        /* \"zk/myTornado.sol\":3219:3223  true */\n      0x01\n        /* \"zk/myTornado.sol\":3202:3207  roots */\n      0x04\n        /* \"zk/myTornado.sol\":3202:3216  roots[newRoot] */\n      0x00\n        /* \"zk/myTornado.sol\":3208:3215  newRoot */\n      dup11\n        /* \"zk/myTornado.sol\":3202:3216  roots[newRoot] */\n      dup2\n      mstore\n      0x20\n      add\n      swap1\n      dup2\n      mstore\n      0x20\n      add\n      0x00\n      keccak256\n      0x00\n        /* \"zk/myTornado.sol\":3202:3223  roots[newRoot] = true */\n      0x0100\n      exp\n      dup2\n      sload\n      dup2\n      0xff\n      mul\n      not\n      and\n      swap1\n      dup4\n      iszero\n      iszero\n      mul\n      or\n      swap1\n      sstore\n      pop\n        /* \"zk/myTornado.sol\":3249:3250  1 */\n      0x01\n        /* \"zk/myTornado.sol\":3234:3245  nextLeafIdx */\n      0x03\n      0x00\n        /* \"zk/myTornado.sol\":3234:3250  nextLeafIdx += 1 */\n      dup3\n      dup3\n      sload\n      tag_112\n      swap2\n      swap1\n      tag_113\n      jump\t// in\n    tag_112:\n      swap3\n      pop\n      pop\n      dup2\n      swap1\n      sstore\n      pop\n        /* \"zk/myTornado.sol\":3290:3294  true */\n      0x01\n        /* \"zk/myTornado.sol\":3263:3274  commitments */\n      0x07\n        /* \"zk/myTornado.sol\":3263:3287  commitments[_commitment] */\n      0x00\n        /* \"zk/myTornado.sol\":3275:3286  _commitment */\n      dup12\n        /* \"zk/myTornado.sol\":3263:3287  commitments[_commitment] */\n      dup2\n      mstore\n      0x20\n      add\n      swap1\n      dup2\n      mstore\n      0x20\n      add\n      0x00\n      keccak256\n      0x00\n        /* \"zk/myTornado.sol\":3263:3294  commitments[_commitment] = true */\n      0x0100\n      exp\n      dup2\n      sload\n      dup2\n      0xff\n      mul\n      not\n      and\n      swap1\n      dup4\n      iszero\n      iszero\n      mul\n      or\n      swap1\n      sstore\n      pop\n        /* \"zk/myTornado.sol\":3310:3356  Deposit(newRoot, hashPairings, hashDirections) */\n      0xe6ab8667cb740d6c65a4ad321c031eb42f6c5085d5753238d1b2e1e370c13483\n        /* \"zk/myTornado.sol\":3318:3325  newRoot */\n      dup9\n        /* \"zk/myTornado.sol\":3327:3339  hashPairings */\n      dup9\n        /* \"zk/myTornado.sol\":3341:3355  hashDirections */\n      dup9\n        /* \"zk/myTornado.sol\":3310:3356  Deposit(newRoot, hashPairings, hashDirections) */\n      mload(0x40)\n      tag_114\n      swap4\n      swap3\n      swap2\n      swap1\n      tag_115\n      jump\t// in\n    tag_114:\n      mload(0x40)\n      dup1\n      swap2\n      sub\n      swap1\n      log1\n        /* \"zk/myTornado.sol\":1985:3364  {... */\n      pop\n      pop\n      pop\n      pop\n      pop\n      pop\n      pop\n      pop\n        /* \"zk/ReentrancyGuard.sol\":2355:2375  _nonReentrantAfter() */\n      tag_116\n        /* \"zk/ReentrancyGuard.sol\":2355:2373  _nonReentrantAfter */\n      tag_117\n        /* \"zk/ReentrancyGuard.sol\":2355:2375  _nonReentrantAfter() */\n      jump\t// in\n    tag_116:\n        /* \"zk/myTornado.sol\":1925:3364  function deposit(uint256 _commitment) external nonReentrant {... */\n      pop\n      jump\t// out\n        /* \"zk/myTornado.sol\":384:411  uint8 public treeLevel = 10 */\n    tag_39:\n      0x02\n      0x14\n      swap1\n      sload\n      swap1\n      0x0100\n      exp\n      swap1\n      div\n      0xff\n      and\n      dup2\n      jump\t// out\n        /* \"zk/myTornado.sol\":457:494  mapping(uint256 => bool) public roots */\n    tag_44:\n      mstore(0x20, 0x04)\n      dup1\n      0x00\n      mstore\n      keccak256(0x00, 0x40)\n      0x00\n      swap2\n      pop\n      sload\n      swap1\n      0x0100\n      exp\n      swap1\n      div\n      0xff\n      and\n      dup2\n      jump\t// out\n        /* \"zk/ReentrancyGuard.sol\":2391:2684  function _nonReentrantBefore() private {... */\n    tag_61:\n        /* \"zk/ReentrancyGuard.sol\":1793:1794  2 */\n      0x02\n        /* \"zk/ReentrancyGuard.sol\":2525:2532  _status */\n      sload(0x00)\n        /* \"zk/ReentrancyGuard.sol\":2525:2544  _status != _ENTERED */\n      sub\n        /* \"zk/ReentrancyGuard.sol\":2517:2580  require(_status != _ENTERED, \"ReentrancyGuard: reentrant call\") */\n      tag_119\n      jumpi\n      mload(0x40)\n      0x08c379a000000000000000000000000000000000000000000000000000000000\n      dup2\n      mstore\n      0x04\n      add\n      tag_120\n      swap1\n      tag_121\n      jump\t// in\n    tag_120:\n      mload(0x40)\n      dup1\n      swap2\n      sub\n      swap1\n      revert\n    tag_119:\n        /* \"zk/ReentrancyGuard.sol\":1793:1794  2 */\n      0x02\n        /* \"zk/ReentrancyGuard.sol\":2658:2665  _status */\n      0x00\n        /* \"zk/ReentrancyGuard.sol\":2658:2676  _status = _ENTERED */\n      dup2\n      swap1\n      sstore\n      pop\n        /* \"zk/ReentrancyGuard.sol\":2391:2684  function _nonReentrantBefore() private {... */\n      jump\t// out\n        /* \"zk/ReentrancyGuard.sol\":2692:2905  function _nonReentrantAfter() private {... */\n    tag_117:\n        /* \"zk/ReentrancyGuard.sol\":1749:1750  1 */\n      0x01\n        /* \"zk/ReentrancyGuard.sol\":2875:2882  _status */\n      0x00\n        /* \"zk/ReentrancyGuard.sol\":2875:2897  _status = _NOT_ENTERED */\n      dup2\n      swap1\n      sstore\n      pop\n        /* \"zk/ReentrancyGuard.sol\":2692:2905  function _nonReentrantAfter() private {... */\n      jump\t// out\n    tag_72:\n      mload(0x40)\n      dup1\n      0x0140\n      add\n      0x40\n      mstore\n      dup1\n      0x0a\n      swap1\n      0x20\n      dup3\n      mul\n      dup1\n      calldatasize\n      dup4\n      calldatacopy\n      dup1\n      dup3\n      add\n      swap2\n      pop\n      pop\n      swap1\n      pop\n      pop\n      swap1\n      jump\t// out\n    tag_74:\n      mload(0x40)\n      dup1\n      0x0140\n      add\n      0x40\n      mstore\n      dup1\n      0x0a\n      swap1\n      0x20\n      dup3\n      mul\n      dup1\n      calldatasize\n      dup4\n      calldatacopy\n      dup1\n      dup3\n      add\n      swap2\n      pop\n      pop\n      swap1\n      pop\n      pop\n      swap1\n      jump\t// out\n    tag_76:\n      mload(0x40)\n      dup1\n      0x40\n      add\n      0x40\n      mstore\n      dup1\n      0x02\n      swap1\n      0x20\n      dup3\n      mul\n      dup1\n      calldatasize\n      dup4\n      calldatacopy\n      dup1\n      dup3\n      add\n      swap2\n      pop\n      pop\n      swap1\n      pop\n      pop\n      swap1\n      jump\t// out\n        /* \"#utility.yul\":7:82   */\n    tag_123:\n        /* \"#utility.yul\":40:46   */\n      0x00\n        /* \"#utility.yul\":73:75   */\n      0x40\n        /* \"#utility.yul\":67:76   */\n      mload\n        /* \"#utility.yul\":57:76   */\n      swap1\n      pop\n        /* \"#utility.yul\":7:82   */\n      swap1\n      jump\t// out\n        /* \"#utility.yul\":88:205   */\n    tag_124:\n        /* \"#utility.yul\":197:198   */\n      0x00\n        /* \"#utility.yul\":194:195   */\n      dup1\n        /* \"#utility.yul\":187:199   */\n      revert\n        /* \"#utility.yul\":334:411   */\n    tag_126:\n        /* \"#utility.yul\":371:378   */\n      0x00\n        /* \"#utility.yul\":400:405   */\n      dup2\n        /* \"#utility.yul\":389:405   */\n      swap1\n      pop\n        /* \"#utility.yul\":334:411   */\n      swap2\n      swap1\n      pop\n      jump\t// out\n        /* \"#utility.yul\":417:539   */\n    tag_127:\n        /* \"#utility.yul\":490:514   */\n      tag_200\n        /* \"#utility.yul\":508:513   */\n      dup2\n        /* \"#utility.yul\":490:514   */\n      tag_126\n      jump\t// in\n    tag_200:\n        /* \"#utility.yul\":483:488   */\n      dup2\n        /* \"#utility.yul\":480:515   */\n      eq\n        /* \"#utility.yul\":470:533   */\n      tag_201\n      jumpi\n        /* \"#utility.yul\":529:530   */\n      0x00\n        /* \"#utility.yul\":526:527   */\n      dup1\n        /* \"#utility.yul\":519:531   */\n      revert\n        /* \"#utility.yul\":470:533   */\n    tag_201:\n        /* \"#utility.yul\":417:539   */\n      pop\n      jump\t// out\n        /* \"#utility.yul\":545:684   */\n    tag_128:\n        /* \"#utility.yul\":591:596   */\n      0x00\n        /* \"#utility.yul\":629:635   */\n      dup2\n        /* \"#utility.yul\":616:636   */\n      calldataload\n        /* \"#utility.yul\":607:636   */\n      swap1\n      pop\n        /* \"#utility.yul\":645:678   */\n      tag_203\n        /* \"#utility.yul\":672:677   */\n      dup2\n        /* \"#utility.yul\":645:678   */\n      tag_127\n      jump\t// in\n    tag_203:\n        /* \"#utility.yul\":545:684   */\n      swap3\n      swap2\n      pop\n      pop\n      jump\t// out\n        /* \"#utility.yul\":690:1019   */\n    tag_14:\n        /* \"#utility.yul\":749:755   */\n      0x00\n        /* \"#utility.yul\":798:800   */\n      0x20\n        /* \"#utility.yul\":786:795   */\n      dup3\n        /* \"#utility.yul\":777:784   */\n      dup5\n        /* \"#utility.yul\":773:796   */\n      sub\n        /* \"#utility.yul\":769:801   */\n      slt\n        /* \"#utility.yul\":766:885   */\n      iszero\n      tag_205\n      jumpi\n        /* \"#utility.yul\":804:883   */\n      tag_206\n      tag_124\n      jump\t// in\n    tag_206:\n        /* \"#utility.yul\":766:885   */\n    tag_205:\n        /* \"#utility.yul\":924:925   */\n      0x00\n        /* \"#utility.yul\":949:1002   */\n      tag_207\n        /* \"#utility.yul\":994:1001   */\n      dup5\n        /* \"#utility.yul\":985:991   */\n      dup3\n        /* \"#utility.yul\":974:983   */\n      dup6\n        /* \"#utility.yul\":970:992   */\n      add\n        /* \"#utility.yul\":949:1002   */\n      tag_128\n      jump\t// in\n    tag_207:\n        /* \"#utility.yul\":939:1002   */\n      swap2\n      pop\n        /* \"#utility.yul\":895:1012   */\n      pop\n        /* \"#utility.yul\":690:1019   */\n      swap3\n      swap2\n      pop\n      pop\n      jump\t// out\n        /* \"#utility.yul\":1025:1115   */\n    tag_129:\n        /* \"#utility.yul\":1059:1066   */\n      0x00\n        /* \"#utility.yul\":1102:1107   */\n      dup2\n        /* \"#utility.yul\":1095:1108   */\n      iszero\n        /* \"#utility.yul\":1088:1109   */\n      iszero\n        /* \"#utility.yul\":1077:1109   */\n      swap1\n      pop\n        /* \"#utility.yul\":1025:1115   */\n      swap2\n      swap1\n      pop\n      jump\t// out\n        /* \"#utility.yul\":1121:1230   */\n    tag_130:\n        /* \"#utility.yul\":1202:1223   */\n      tag_210\n        /* \"#utility.yul\":1217:1222   */\n      dup2\n        /* \"#utility.yul\":1202:1223   */\n      tag_129\n      jump\t// in\n    tag_210:\n        /* \"#utility.yul\":1197:1200   */\n      dup3\n        /* \"#utility.yul\":1190:1224   */\n      mstore\n        /* \"#utility.yul\":1121:1230   */\n      pop\n      pop\n      jump\t// out\n        /* \"#utility.yul\":1236:1446   */\n    tag_17:\n        /* \"#utility.yul\":1323:1327   */\n      0x00\n        /* \"#utility.yul\":1361:1363   */\n      0x20\n        /* \"#utility.yul\":1350:1359   */\n      dup3\n        /* \"#utility.yul\":1346:1364   */\n      add\n        /* \"#utility.yul\":1338:1364   */\n      swap1\n      pop\n        /* \"#utility.yul\":1374:1439   */\n      tag_212\n        /* \"#utility.yul\":1436:1437   */\n      0x00\n        /* \"#utility.yul\":1425:1434   */\n      dup4\n        /* \"#utility.yul\":1421:1438   */\n      add\n        /* \"#utility.yul\":1412:1418   */\n      dup5\n        /* \"#utility.yul\":1374:1439   */\n      tag_130\n      jump\t// in\n    tag_212:\n        /* \"#utility.yul\":1236:1446   */\n      swap3\n      swap2\n      pop\n      pop\n      jump\t// out\n        /* \"#utility.yul\":1452:1578   */\n    tag_131:\n        /* \"#utility.yul\":1489:1496   */\n      0x00\n        /* \"#utility.yul\":1529:1571   */\n      0xffffffffffffffffffffffffffffffffffffffff\n        /* \"#utility.yul\":1522:1527   */\n      dup3\n        /* \"#utility.yul\":1518:1572   */\n      and\n        /* \"#utility.yul\":1507:1572   */\n      swap1\n      pop\n        /* \"#utility.yul\":1452:1578   */\n      swap2\n      swap1\n      pop\n      jump\t// out\n        /* \"#utility.yul\":1584:1644   */\n    tag_132:\n        /* \"#utility.yul\":1612:1615   */\n      0x00\n        /* \"#utility.yul\":1633:1638   */\n      dup2\n        /* \"#utility.yul\":1626:1638   */\n      swap1\n      pop\n        /* \"#utility.yul\":1584:1644   */\n      swap2\n      swap1\n      pop\n      jump\t// out\n        /* \"#utility.yul\":1650:1792   */\n    tag_133:\n        /* \"#utility.yul\":1700:1709   */\n      0x00\n        /* \"#utility.yul\":1733:1786   */\n      tag_216\n        /* \"#utility.yul\":1751:1785   */\n      tag_217\n        /* \"#utility.yul\":1760:1784   */\n      tag_218\n        /* \"#utility.yul\":1778:1783   */\n      dup5\n        /* \"#utility.yul\":1760:1784   */\n      tag_131\n      jump\t// in\n    tag_218:\n        /* \"#utility.yul\":1751:1785   */\n      tag_132\n      jump\t// in\n    tag_217:\n        /* \"#utility.yul\":1733:1786   */\n      tag_131\n      jump\t// in\n    tag_216:\n        /* \"#utility.yul\":1720:1786   */\n      swap1\n      pop\n        /* \"#utility.yul\":1650:1792   */\n      swap2\n      swap1\n      pop\n      jump\t// out\n        /* \"#utility.yul\":1798:1924   */\n    tag_134:\n        /* \"#utility.yul\":1848:1857   */\n      0x00\n        /* \"#utility.yul\":1881:1918   */\n      tag_220\n        /* \"#utility.yul\":1912:1917   */\n      dup3\n        /* \"#utility.yul\":1881:1918   */\n      tag_133\n      jump\t// in\n    tag_220:\n        /* \"#utility.yul\":1868:1918   */\n      swap1\n      pop\n        /* \"#utility.yul\":1798:1924   */\n      swap2\n      swap1\n      pop\n      jump\t// out\n        /* \"#utility.yul\":1930:2073   */\n    tag_135:\n        /* \"#utility.yul\":1997:2006   */\n      0x00\n        /* \"#utility.yul\":2030:2067   */\n      tag_222\n        /* \"#utility.yul\":2061:2066   */\n      dup3\n        /* \"#utility.yul\":2030:2067   */\n      tag_134\n      jump\t// in\n    tag_222:\n        /* \"#utility.yul\":2017:2067   */\n      swap1\n      pop\n        /* \"#utility.yul\":1930:2073   */\n      swap2\n      swap1\n      pop\n      jump\t// out\n        /* \"#utility.yul\":2079:2244   */\n    tag_136:\n        /* \"#utility.yul\":2183:2237   */\n      tag_224\n        /* \"#utility.yul\":2231:2236   */\n      dup2\n        /* \"#utility.yul\":2183:2237   */\n      tag_135\n      jump\t// in\n    tag_224:\n        /* \"#utility.yul\":2178:2181   */\n      dup3\n        /* \"#utility.yul\":2171:2238   */\n      mstore\n        /* \"#utility.yul\":2079:2244   */\n      pop\n      pop\n      jump\t// out\n        /* \"#utility.yul\":2250:2506   */\n    tag_21:\n        /* \"#utility.yul\":2360:2364   */\n      0x00\n        /* \"#utility.yul\":2398:2400   */\n      0x20\n        /* \"#utility.yul\":2387:2396   */\n      dup3\n        /* \"#utility.yul\":2383:2401   */\n      add\n        /* \"#utility.yul\":2375:2401   */\n      swap1\n      pop\n        /* \"#utility.yul\":2411:2499   */\n      tag_226\n        /* \"#utility.yul\":2496:2497   */\n      0x00\n        /* \"#utility.yul\":2485:2494   */\n      dup4\n        /* \"#utility.yul\":2481:2498   */\n      add\n        /* \"#utility.yul\":2472:2478   */\n      dup5\n        /* \"#utility.yul\":2411:2499   */\n      tag_136\n      jump\t// in\n    tag_226:\n        /* \"#utility.yul\":2250:2506   */\n      swap3\n      swap2\n      pop\n      pop\n      jump\t// out\n        /* \"#utility.yul\":2512:2630   */\n    tag_137:\n        /* \"#utility.yul\":2599:2623   */\n      tag_228\n        /* \"#utility.yul\":2617:2622   */\n      dup2\n        /* \"#utility.yul\":2599:2623   */\n      tag_126\n      jump\t// in\n    tag_228:\n        /* \"#utility.yul\":2594:2597   */\n      dup3\n        /* \"#utility.yul\":2587:2624   */\n      mstore\n        /* \"#utility.yul\":2512:2630   */\n      pop\n      pop\n      jump\t// out\n        /* \"#utility.yul\":2636:2858   */\n    tag_25:\n        /* \"#utility.yul\":2729:2733   */\n      0x00\n        /* \"#utility.yul\":2767:2769   */\n      0x20\n        /* \"#utility.yul\":2756:2765   */\n      dup3\n        /* \"#utility.yul\":2752:2770   */\n      add\n        /* \"#utility.yul\":2744:2770   */\n      swap1\n      pop\n        /* \"#utility.yul\":2780:2851   */\n      tag_230\n        /* \"#utility.yul\":2848:2849   */\n      0x00\n        /* \"#utility.yul\":2837:2846   */\n      dup4\n        /* \"#utility.yul\":2833:2850   */\n      add\n        /* \"#utility.yul\":2824:2830   */\n      dup5\n        /* \"#utility.yul\":2780:2851   */\n      tag_137\n      jump\t// in\n    tag_230:\n        /* \"#utility.yul\":2636:2858   */\n      swap3\n      swap2\n      pop\n      pop\n      jump\t// out\n        /* \"#utility.yul\":2864:2981   */\n    tag_138:\n        /* \"#utility.yul\":2973:2974   */\n      0x00\n        /* \"#utility.yul\":2970:2971   */\n      dup1\n        /* \"#utility.yul\":2963:2975   */\n      revert\n        /* \"#utility.yul\":2987:3089   */\n    tag_139:\n        /* \"#utility.yul\":3028:3034   */\n      0x00\n        /* \"#utility.yul\":3079:3081   */\n      0x1f\n        /* \"#utility.yul\":3075:3082   */\n      not\n        /* \"#utility.yul\":3070:3072   */\n      0x1f\n        /* \"#utility.yul\":3063:3068   */\n      dup4\n        /* \"#utility.yul\":3059:3073   */\n      add\n        /* \"#utility.yul\":3055:3083   */\n      and\n        /* \"#utility.yul\":3045:3083   */\n      swap1\n      pop\n        /* \"#utility.yul\":2987:3089   */\n      swap2\n      swap1\n      pop\n      jump\t// out\n        /* \"#utility.yul\":3095:3275   */\n    tag_140:\n        /* \"#utility.yul\":3143:3220   */\n      0x4e487b7100000000000000000000000000000000000000000000000000000000\n        /* \"#utility.yul\":3140:3141   */\n      0x00\n        /* \"#utility.yul\":3133:3221   */\n      mstore\n        /* \"#utility.yul\":3240:3244   */\n      0x41\n        /* \"#utility.yul\":3237:3238   */\n      0x04\n        /* \"#utility.yul\":3230:3245   */\n      mstore\n        /* \"#utility.yul\":3264:3268   */\n      0x24\n        /* \"#utility.yul\":3261:3262   */\n      0x00\n        /* \"#utility.yul\":3254:3269   */\n      revert\n        /* \"#utility.yul\":3281:3562   */\n    tag_141:\n        /* \"#utility.yul\":3364:3391   */\n      tag_235\n        /* \"#utility.yul\":3386:3390   */\n      dup3\n        /* \"#utility.yul\":3364:3391   */\n      tag_139\n      jump\t// in\n    tag_235:\n        /* \"#utility.yul\":3356:3362   */\n      dup2\n        /* \"#utility.yul\":3352:3392   */\n      add\n        /* \"#utility.yul\":3494:3500   */\n      dup2\n        /* \"#utility.yul\":3482:3492   */\n      dup2\n        /* \"#utility.yul\":3479:3501   */\n      lt\n        /* \"#utility.yul\":3458:3476   */\n      0xffffffffffffffff\n        /* \"#utility.yul\":3446:3456   */\n      dup3\n        /* \"#utility.yul\":3443:3477   */\n      gt\n        /* \"#utility.yul\":3440:3502   */\n      or\n        /* \"#utility.yul\":3437:3525   */\n      iszero\n      tag_236\n      jumpi\n        /* \"#utility.yul\":3505:3523   */\n      tag_237\n      tag_140\n      jump\t// in\n    tag_237:\n        /* \"#utility.yul\":3437:3525   */\n    tag_236:\n        /* \"#utility.yul\":3545:3555   */\n      dup1\n        /* \"#utility.yul\":3541:3543   */\n      0x40\n        /* \"#utility.yul\":3534:3556   */\n      mstore\n        /* \"#utility.yul\":3324:3562   */\n      pop\n        /* \"#utility.yul\":3281:3562   */\n      pop\n      pop\n      jump\t// out\n        /* \"#utility.yul\":3568:3697   */\n    tag_142:\n        /* \"#utility.yul\":3602:3608   */\n      0x00\n        /* \"#utility.yul\":3629:3649   */\n      tag_239\n      tag_123\n      jump\t// in\n    tag_239:\n        /* \"#utility.yul\":3619:3649   */\n      swap1\n      pop\n        /* \"#utility.yul\":3658:3691   */\n      tag_240\n        /* \"#utility.yul\":3686:3690   */\n      dup3\n        /* \"#utility.yul\":3678:3684   */\n      dup3\n        /* \"#utility.yul\":3658:3691   */\n      tag_141\n      jump\t// in\n    tag_240:\n        /* \"#utility.yul\":3568:3697   */\n      swap2\n      swap1\n      pop\n      jump\t// out\n        /* \"#utility.yul\":3703:3952   */\n    tag_143:\n        /* \"#utility.yul\":3778:3782   */\n      0x00\n        /* \"#utility.yul\":3868:3886   */\n      0xffffffffffffffff\n        /* \"#utility.yul\":3860:3866   */\n      dup3\n        /* \"#utility.yul\":3857:3887   */\n      gt\n        /* \"#utility.yul\":3854:3910   */\n      iszero\n      tag_242\n      jumpi\n        /* \"#utility.yul\":3890:3908   */\n      tag_243\n      tag_140\n      jump\t// in\n    tag_243:\n        /* \"#utility.yul\":3854:3910   */\n    tag_242:\n        /* \"#utility.yul\":3940:3944   */\n      0x20\n        /* \"#utility.yul\":3932:3938   */\n      dup3\n        /* \"#utility.yul\":3928:3945   */\n      mul\n        /* \"#utility.yul\":3920:3945   */\n      swap1\n      pop\n        /* \"#utility.yul\":3703:3952   */\n      swap2\n      swap1\n      pop\n      jump\t// out\n        /* \"#utility.yul\":3958:4075   */\n    tag_144:\n        /* \"#utility.yul\":4067:4068   */\n      0x00\n        /* \"#utility.yul\":4064:4065   */\n      dup1\n        /* \"#utility.yul\":4057:4069   */\n      revert\n        /* \"#utility.yul\":4099:4742   */\n    tag_145:\n        /* \"#utility.yul\":4193:4198   */\n      0x00\n        /* \"#utility.yul\":4218:4297   */\n      tag_246\n        /* \"#utility.yul\":4234:4296   */\n      tag_247\n        /* \"#utility.yul\":4289:4295   */\n      dup5\n        /* \"#utility.yul\":4234:4296   */\n      tag_143\n      jump\t// in\n    tag_247:\n        /* \"#utility.yul\":4218:4297   */\n      tag_142\n      jump\t// in\n    tag_246:\n        /* \"#utility.yul\":4209:4297   */\n      swap1\n      pop\n        /* \"#utility.yul\":4317:4322   */\n      dup1\n        /* \"#utility.yul\":4370:4374   */\n      0x20\n        /* \"#utility.yul\":4362:4368   */\n      dup5\n        /* \"#utility.yul\":4358:4375   */\n      mul\n        /* \"#utility.yul\":4350:4356   */\n      dup4\n        /* \"#utility.yul\":4346:4376   */\n      add\n        /* \"#utility.yul\":4399:4402   */\n      dup6\n        /* \"#utility.yul\":4391:4397   */\n      dup2\n        /* \"#utility.yul\":4388:4403   */\n      gt\n        /* \"#utility.yul\":4385:4507   */\n      iszero\n      tag_248\n      jumpi\n        /* \"#utility.yul\":4418:4497   */\n      tag_249\n      tag_144\n      jump\t// in\n    tag_249:\n        /* \"#utility.yul\":4385:4507   */\n    tag_248:\n        /* \"#utility.yul\":4533:4539   */\n      dup4\n        /* \"#utility.yul\":4516:4736   */\n    tag_250:\n        /* \"#utility.yul\":4550:4556   */\n      dup2\n        /* \"#utility.yul\":4545:4548   */\n      dup2\n        /* \"#utility.yul\":4542:4557   */\n      lt\n        /* \"#utility.yul\":4516:4736   */\n      iszero\n      tag_252\n      jumpi\n        /* \"#utility.yul\":4625:4628   */\n      dup1\n        /* \"#utility.yul\":4654:4691   */\n      tag_253\n        /* \"#utility.yul\":4687:4690   */\n      dup9\n        /* \"#utility.yul\":4675:4685   */\n      dup3\n        /* \"#utility.yul\":4654:4691   */\n      tag_128\n      jump\t// in\n    tag_253:\n        /* \"#utility.yul\":4649:4652   */\n      dup5\n        /* \"#utility.yul\":4642:4692   */\n      mstore\n        /* \"#utility.yul\":4721:4725   */\n      0x20\n        /* \"#utility.yul\":4716:4719   */\n      dup5\n        /* \"#utility.yul\":4712:4726   */\n      add\n        /* \"#utility.yul\":4705:4726   */\n      swap4\n      pop\n        /* \"#utility.yul\":4592:4736   */\n      pop\n        /* \"#utility.yul\":4576:4580   */\n      0x20\n        /* \"#utility.yul\":4571:4574   */\n      dup2\n        /* \"#utility.yul\":4567:4581   */\n      add\n        /* \"#utility.yul\":4560:4581   */\n      swap1\n      pop\n        /* \"#utility.yul\":4516:4736   */\n      jump(tag_250)\n    tag_252:\n        /* \"#utility.yul\":4520:4541   */\n      pop\n        /* \"#utility.yul\":4199:4742   */\n      pop\n      pop\n        /* \"#utility.yul\":4099:4742   */\n      swap4\n      swap3\n      pop\n      pop\n      pop\n      jump\t// out\n        /* \"#utility.yul\":4766:5105   */\n    tag_146:\n        /* \"#utility.yul\":4835:4840   */\n      0x00\n        /* \"#utility.yul\":4884:4887   */\n      dup3\n        /* \"#utility.yul\":4877:4881   */\n      0x1f\n        /* \"#utility.yul\":4869:4875   */\n      dup4\n        /* \"#utility.yul\":4865:4882   */\n      add\n        /* \"#utility.yul\":4861:4888   */\n      slt\n        /* \"#utility.yul\":4851:4973   */\n      tag_255\n      jumpi\n        /* \"#utility.yul\":4892:4971   */\n      tag_256\n      tag_138\n      jump\t// in\n    tag_256:\n        /* \"#utility.yul\":4851:4973   */\n    tag_255:\n        /* \"#utility.yul\":4996:5000   */\n      0x02\n        /* \"#utility.yul\":5018:5099   */\n      tag_257\n        /* \"#utility.yul\":5095:5098   */\n      dup5\n        /* \"#utility.yul\":5087:5093   */\n      dup3\n        /* \"#utility.yul\":5079:5085   */\n      dup6\n        /* \"#utility.yul\":5018:5099   */\n      tag_145\n      jump\t// in\n    tag_257:\n        /* \"#utility.yul\":5009:5099   */\n      swap2\n      pop\n        /* \"#utility.yul\":4841:5105   */\n      pop\n        /* \"#utility.yul\":4766:5105   */\n      swap3\n      swap2\n      pop\n      pop\n      jump\t// out\n        /* \"#utility.yul\":5111:5383   */\n    tag_147:\n        /* \"#utility.yul\":5209:5213   */\n      0x00\n        /* \"#utility.yul\":5299:5317   */\n      0xffffffffffffffff\n        /* \"#utility.yul\":5291:5297   */\n      dup3\n        /* \"#utility.yul\":5288:5318   */\n      gt\n        /* \"#utility.yul\":5285:5341   */\n      iszero\n      tag_259\n      jumpi\n        /* \"#utility.yul\":5321:5339   */\n      tag_260\n      tag_140\n      jump\t// in\n    tag_260:\n        /* \"#utility.yul\":5285:5341   */\n    tag_259:\n        /* \"#utility.yul\":5371:5375   */\n      0x20\n        /* \"#utility.yul\":5363:5369   */\n      dup3\n        /* \"#utility.yul\":5359:5376   */\n      mul\n        /* \"#utility.yul\":5351:5376   */\n      swap1\n      pop\n        /* \"#utility.yul\":5111:5383   */\n      swap2\n      swap1\n      pop\n      jump\t// out\n        /* \"#utility.yul\":5410:6122   */\n    tag_148:\n        /* \"#utility.yul\":5527:5532   */\n      0x00\n        /* \"#utility.yul\":5552:5654   */\n      tag_262\n        /* \"#utility.yul\":5568:5653   */\n      tag_263\n        /* \"#utility.yul\":5646:5652   */\n      dup5\n        /* \"#utility.yul\":5568:5653   */\n      tag_147\n      jump\t// in\n    tag_263:\n        /* \"#utility.yul\":5552:5654   */\n      tag_142\n      jump\t// in\n    tag_262:\n        /* \"#utility.yul\":5543:5654   */\n      swap1\n      pop\n        /* \"#utility.yul\":5674:5679   */\n      dup1\n        /* \"#utility.yul\":5727:5731   */\n      0x40\n        /* \"#utility.yul\":5719:5725   */\n      dup5\n        /* \"#utility.yul\":5715:5732   */\n      mul\n        /* \"#utility.yul\":5707:5713   */\n      dup4\n        /* \"#utility.yul\":5703:5733   */\n      add\n        /* \"#utility.yul\":5756:5759   */\n      dup6\n        /* \"#utility.yul\":5748:5754   */\n      dup2\n        /* \"#utility.yul\":5745:5760   */\n      gt\n        /* \"#utility.yul\":5742:5864   */\n      iszero\n      tag_264\n      jumpi\n        /* \"#utility.yul\":5775:5854   */\n      tag_265\n      tag_144\n      jump\t// in\n    tag_265:\n        /* \"#utility.yul\":5742:5864   */\n    tag_264:\n        /* \"#utility.yul\":5890:5896   */\n      dup4\n        /* \"#utility.yul\":5873:6116   */\n    tag_266:\n        /* \"#utility.yul\":5907:5913   */\n      dup2\n        /* \"#utility.yul\":5902:5905   */\n      dup2\n        /* \"#utility.yul\":5899:5914   */\n      lt\n        /* \"#utility.yul\":5873:6116   */\n      iszero\n      tag_268\n      jumpi\n        /* \"#utility.yul\":5982:5985   */\n      dup1\n        /* \"#utility.yul\":6011:6071   */\n      tag_269\n        /* \"#utility.yul\":6067:6070   */\n      dup9\n        /* \"#utility.yul\":6055:6065   */\n      dup3\n        /* \"#utility.yul\":6011:6071   */\n      tag_146\n      jump\t// in\n    tag_269:\n        /* \"#utility.yul\":6006:6009   */\n      dup5\n        /* \"#utility.yul\":5999:6072   */\n      mstore\n        /* \"#utility.yul\":6101:6105   */\n      0x20\n        /* \"#utility.yul\":6096:6099   */\n      dup5\n        /* \"#utility.yul\":6092:6106   */\n      add\n        /* \"#utility.yul\":6085:6106   */\n      swap4\n      pop\n        /* \"#utility.yul\":5949:6116   */\n      pop\n        /* \"#utility.yul\":5933:5937   */\n      0x40\n        /* \"#utility.yul\":5928:5931   */\n      dup2\n        /* \"#utility.yul\":5924:5938   */\n      add\n        /* \"#utility.yul\":5917:5938   */\n      swap1\n      pop\n        /* \"#utility.yul\":5873:6116   */\n      jump(tag_266)\n    tag_268:\n        /* \"#utility.yul\":5877:5898   */\n      pop\n        /* \"#utility.yul\":5533:6122   */\n      pop\n      pop\n        /* \"#utility.yul\":5410:6122   */\n      swap4\n      swap3\n      pop\n      pop\n      pop\n      jump\t// out\n        /* \"#utility.yul\":6149:6534   */\n    tag_149:\n        /* \"#utility.yul\":6241:6246   */\n      0x00\n        /* \"#utility.yul\":6290:6293   */\n      dup3\n        /* \"#utility.yul\":6283:6287   */\n      0x1f\n        /* \"#utility.yul\":6275:6281   */\n      dup4\n        /* \"#utility.yul\":6271:6288   */\n      add\n        /* \"#utility.yul\":6267:6294   */\n      slt\n        /* \"#utility.yul\":6257:6379   */\n      tag_271\n      jumpi\n        /* \"#utility.yul\":6298:6377   */\n      tag_272\n      tag_138\n      jump\t// in\n    tag_272:\n        /* \"#utility.yul\":6257:6379   */\n    tag_271:\n        /* \"#utility.yul\":6402:6406   */\n      0x02\n        /* \"#utility.yul\":6424:6528   */\n      tag_273\n        /* \"#utility.yul\":6524:6527   */\n      dup5\n        /* \"#utility.yul\":6516:6522   */\n      dup3\n        /* \"#utility.yul\":6508:6514   */\n      dup6\n        /* \"#utility.yul\":6424:6528   */\n      tag_148\n      jump\t// in\n    tag_273:\n        /* \"#utility.yul\":6415:6528   */\n      swap2\n      pop\n        /* \"#utility.yul\":6247:6534   */\n      pop\n        /* \"#utility.yul\":6149:6534   */\n      swap3\n      swap2\n      pop\n      pop\n      jump\t// out\n        /* \"#utility.yul\":6540:7537   */\n    tag_32:\n        /* \"#utility.yul\":6741:6747   */\n      0x00\n        /* \"#utility.yul\":6749:6755   */\n      dup1\n        /* \"#utility.yul\":6757:6763   */\n      0x00\n        /* \"#utility.yul\":6765:6771   */\n      dup1\n        /* \"#utility.yul\":6814:6817   */\n      0x0140\n        /* \"#utility.yul\":6802:6811   */\n      dup6\n        /* \"#utility.yul\":6793:6800   */\n      dup8\n        /* \"#utility.yul\":6789:6812   */\n      sub\n        /* \"#utility.yul\":6785:6818   */\n      slt\n        /* \"#utility.yul\":6782:6902   */\n      iszero\n      tag_275\n      jumpi\n        /* \"#utility.yul\":6821:6900   */\n      tag_276\n      tag_124\n      jump\t// in\n    tag_276:\n        /* \"#utility.yul\":6782:6902   */\n    tag_275:\n        /* \"#utility.yul\":6941:6942   */\n      0x00\n        /* \"#utility.yul\":6966:7042   */\n      tag_277\n        /* \"#utility.yul\":7034:7041   */\n      dup8\n        /* \"#utility.yul\":7025:7031   */\n      dup3\n        /* \"#utility.yul\":7014:7023   */\n      dup9\n        /* \"#utility.yul\":7010:7032   */\n      add\n        /* \"#utility.yul\":6966:7042   */\n      tag_146\n      jump\t// in\n    tag_277:\n        /* \"#utility.yul\":6956:7042   */\n      swap5\n      pop\n        /* \"#utility.yul\":6912:7052   */\n      pop\n        /* \"#utility.yul\":7091:7093   */\n      0x40\n        /* \"#utility.yul\":7117:7216   */\n      tag_278\n        /* \"#utility.yul\":7208:7215   */\n      dup8\n        /* \"#utility.yul\":7199:7205   */\n      dup3\n        /* \"#utility.yul\":7188:7197   */\n      dup9\n        /* \"#utility.yul\":7184:7206   */\n      add\n        /* \"#utility.yul\":7117:7216   */\n      tag_149\n      jump\t// in\n    tag_278:\n        /* \"#utility.yul\":7107:7216   */\n      swap4\n      pop\n        /* \"#utility.yul\":7062:7226   */\n      pop\n        /* \"#utility.yul\":7265:7268   */\n      0xc0\n        /* \"#utility.yul\":7292:7368   */\n      tag_279\n        /* \"#utility.yul\":7360:7367   */\n      dup8\n        /* \"#utility.yul\":7351:7357   */\n      dup3\n        /* \"#utility.yul\":7340:7349   */\n      dup9\n        /* \"#utility.yul\":7336:7358   */\n      add\n        /* \"#utility.yul\":7292:7368   */\n      tag_146\n      jump\t// in\n    tag_279:\n        /* \"#utility.yul\":7282:7368   */\n      swap3\n      pop\n        /* \"#utility.yul\":7236:7378   */\n      pop\n        /* \"#utility.yul\":7417:7420   */\n      0x0100\n        /* \"#utility.yul\":7444:7520   */\n      tag_280\n        /* \"#utility.yul\":7512:7519   */\n      dup8\n        /* \"#utility.yul\":7503:7509   */\n      dup3\n        /* \"#utility.yul\":7492:7501   */\n      dup9\n        /* \"#utility.yul\":7488:7510   */\n      add\n        /* \"#utility.yul\":7444:7520   */\n      tag_146\n      jump\t// in\n    tag_280:\n        /* \"#utility.yul\":7434:7520   */\n      swap2\n      pop\n        /* \"#utility.yul\":7388:7530   */\n      pop\n        /* \"#utility.yul\":6540:7537   */\n      swap3\n      swap6\n      swap2\n      swap5\n      pop\n      swap3\n      pop\n      jump\t// out\n        /* \"#utility.yul\":7543:7629   */\n    tag_150:\n        /* \"#utility.yul\":7578:7585   */\n      0x00\n        /* \"#utility.yul\":7618:7622   */\n      0xff\n        /* \"#utility.yul\":7611:7616   */\n      dup3\n        /* \"#utility.yul\":7607:7623   */\n      and\n        /* \"#utility.yul\":7596:7623   */\n      swap1\n      pop\n        /* \"#utility.yul\":7543:7629   */\n      swap2\n      swap1\n      pop\n      jump\t// out\n        /* \"#utility.yul\":7635:7747   */\n    tag_151:\n        /* \"#utility.yul\":7718:7740   */\n      tag_283\n        /* \"#utility.yul\":7734:7739   */\n      dup2\n        /* \"#utility.yul\":7718:7740   */\n      tag_150\n      jump\t// in\n    tag_283:\n        /* \"#utility.yul\":7713:7716   */\n      dup3\n        /* \"#utility.yul\":7706:7741   */\n      mstore\n        /* \"#utility.yul\":7635:7747   */\n      pop\n      pop\n      jump\t// out\n        /* \"#utility.yul\":7753:7967   */\n    tag_41:\n        /* \"#utility.yul\":7842:7846   */\n      0x00\n        /* \"#utility.yul\":7880:7882   */\n      0x20\n        /* \"#utility.yul\":7869:7878   */\n      dup3\n        /* \"#utility.yul\":7865:7883   */\n      add\n        /* \"#utility.yul\":7857:7883   */\n      swap1\n      pop\n        /* \"#utility.yul\":7893:7960   */\n      tag_285\n        /* \"#utility.yul\":7957:7958   */\n      0x00\n        /* \"#utility.yul\":7946:7955   */\n      dup4\n        /* \"#utility.yul\":7942:7959   */\n      add\n        /* \"#utility.yul\":7933:7939   */\n      dup5\n        /* \"#utility.yul\":7893:7960   */\n      tag_151\n      jump\t// in\n    tag_285:\n        /* \"#utility.yul\":7753:7967   */\n      swap3\n      swap2\n      pop\n      pop\n      jump\t// out\n        /* \"#utility.yul\":7973:8153   */\n    tag_49:\n        /* \"#utility.yul\":8021:8098   */\n      0x4e487b7100000000000000000000000000000000000000000000000000000000\n        /* \"#utility.yul\":8018:8019   */\n      0x00\n        /* \"#utility.yul\":8011:8099   */\n      mstore\n        /* \"#utility.yul\":8118:8122   */\n      0x32\n        /* \"#utility.yul\":8115:8116   */\n      0x04\n        /* \"#utility.yul\":8108:8123   */\n      mstore\n        /* \"#utility.yul\":8142:8146   */\n      0x24\n        /* \"#utility.yul\":8139:8140   */\n      0x00\n        /* \"#utility.yul\":8132:8147   */\n      revert\n        /* \"#utility.yul\":8159:8263   */\n    tag_152:\n        /* \"#utility.yul\":8224:8230   */\n      0x00\n        /* \"#utility.yul\":8252:8256   */\n      0x02\n        /* \"#utility.yul\":8242:8256   */\n      swap1\n      pop\n        /* \"#utility.yul\":8159:8263   */\n      swap2\n      swap1\n      pop\n      jump\t// out\n        /* \"#utility.yul\":8269:8412   */\n    tag_153:\n        /* \"#utility.yul\":8366:8377   */\n      0x00\n        /* \"#utility.yul\":8403:8406   */\n      dup2\n        /* \"#utility.yul\":8388:8406   */\n      swap1\n      pop\n        /* \"#utility.yul\":8269:8412   */\n      swap3\n      swap2\n      pop\n      pop\n      jump\t// out\n        /* \"#utility.yul\":8418:8516   */\n    tag_154:\n        /* \"#utility.yul\":8483:8487   */\n      0x00\n        /* \"#utility.yul\":8506:8509   */\n      dup2\n        /* \"#utility.yul\":8498:8509   */\n      swap1\n      pop\n        /* \"#utility.yul\":8418:8516   */\n      swap2\n      swap1\n      pop\n      jump\t// out\n        /* \"#utility.yul\":8522:8630   */\n    tag_155:\n        /* \"#utility.yul\":8599:8623   */\n      tag_291\n        /* \"#utility.yul\":8617:8622   */\n      dup2\n        /* \"#utility.yul\":8599:8623   */\n      tag_126\n      jump\t// in\n    tag_291:\n        /* \"#utility.yul\":8594:8597   */\n      dup3\n        /* \"#utility.yul\":8587:8624   */\n      mstore\n        /* \"#utility.yul\":8522:8630   */\n      pop\n      pop\n      jump\t// out\n        /* \"#utility.yul\":8636:8815   */\n    tag_156:\n        /* \"#utility.yul\":8705:8715   */\n      0x00\n        /* \"#utility.yul\":8726:8772   */\n      tag_293\n        /* \"#utility.yul\":8768:8771   */\n      dup4\n        /* \"#utility.yul\":8760:8766   */\n      dup4\n        /* \"#utility.yul\":8726:8772   */\n      tag_155\n      jump\t// in\n    tag_293:\n        /* \"#utility.yul\":8804:8808   */\n      0x20\n        /* \"#utility.yul\":8799:8802   */\n      dup4\n        /* \"#utility.yul\":8795:8809   */\n      add\n        /* \"#utility.yul\":8781:8809   */\n      swap1\n      pop\n        /* \"#utility.yul\":8636:8815   */\n      swap3\n      swap2\n      pop\n      pop\n      jump\t// out\n        /* \"#utility.yul\":8821:8932   */\n    tag_157:\n        /* \"#utility.yul\":8889:8893   */\n      0x00\n        /* \"#utility.yul\":8921:8925   */\n      0x20\n        /* \"#utility.yul\":8916:8919   */\n      dup3\n        /* \"#utility.yul\":8912:8926   */\n      add\n        /* \"#utility.yul\":8904:8926   */\n      swap1\n      pop\n        /* \"#utility.yul\":8821:8932   */\n      swap2\n      swap1\n      pop\n      jump\t// out\n        /* \"#utility.yul\":8970:9664   */\n    tag_158:\n        /* \"#utility.yul\":9106:9158   */\n      tag_296\n        /* \"#utility.yul\":9152:9157   */\n      dup2\n        /* \"#utility.yul\":9106:9158   */\n      tag_152\n      jump\t// in\n    tag_296:\n        /* \"#utility.yul\":9174:9258   */\n      tag_297\n        /* \"#utility.yul\":9251:9257   */\n      dup2\n        /* \"#utility.yul\":9246:9249   */\n      dup5\n        /* \"#utility.yul\":9174:9258   */\n      tag_153\n      jump\t// in\n    tag_297:\n        /* \"#utility.yul\":9167:9258   */\n      swap3\n      pop\n        /* \"#utility.yul\":9282:9336   */\n      tag_298\n        /* \"#utility.yul\":9330:9335   */\n      dup3\n        /* \"#utility.yul\":9282:9336   */\n      tag_154\n      jump\t// in\n    tag_298:\n        /* \"#utility.yul\":9359:9366   */\n      dup1\n        /* \"#utility.yul\":9390:9391   */\n      0x00\n        /* \"#utility.yul\":9375:9657   */\n    tag_299:\n        /* \"#utility.yul\":9400:9406   */\n      dup4\n        /* \"#utility.yul\":9397:9398   */\n      dup2\n        /* \"#utility.yul\":9394:9407   */\n      lt\n        /* \"#utility.yul\":9375:9657   */\n      iszero\n      tag_301\n      jumpi\n        /* \"#utility.yul\":9476:9482   */\n      dup2\n        /* \"#utility.yul\":9470:9483   */\n      mload\n        /* \"#utility.yul\":9503:9566   */\n      tag_302\n        /* \"#utility.yul\":9562:9565   */\n      dup8\n        /* \"#utility.yul\":9547:9560   */\n      dup3\n        /* \"#utility.yul\":9503:9566   */\n      tag_156\n      jump\t// in\n    tag_302:\n        /* \"#utility.yul\":9496:9566   */\n      swap7\n      pop\n        /* \"#utility.yul\":9589:9647   */\n      tag_303\n        /* \"#utility.yul\":9640:9646   */\n      dup4\n        /* \"#utility.yul\":9589:9647   */\n      tag_157\n      jump\t// in\n    tag_303:\n        /* \"#utility.yul\":9579:9647   */\n      swap3\n      pop\n        /* \"#utility.yul\":9435:9657   */\n      pop\n        /* \"#utility.yul\":9422:9423   */\n      0x01\n        /* \"#utility.yul\":9419:9420   */\n      dup2\n        /* \"#utility.yul\":9415:9424   */\n      add\n        /* \"#utility.yul\":9410:9424   */\n      swap1\n      pop\n        /* \"#utility.yul\":9375:9657   */\n      jump(tag_299)\n    tag_301:\n        /* \"#utility.yul\":9379:9393   */\n      pop\n        /* \"#utility.yul\":9082:9664   */\n      pop\n      pop\n      pop\n        /* \"#utility.yul\":8970:9664   */\n      pop\n      pop\n      jump\t// out\n        /* \"#utility.yul\":9670:9797   */\n    tag_159:\n        /* \"#utility.yul\":9758:9764   */\n      0x00\n        /* \"#utility.yul\":9786:9790   */\n      0x02\n        /* \"#utility.yul\":9776:9790   */\n      swap1\n      pop\n        /* \"#utility.yul\":9670:9797   */\n      swap2\n      swap1\n      pop\n      jump\t// out\n        /* \"#utility.yul\":9803:9969   */\n    tag_160:\n        /* \"#utility.yul\":9923:9934   */\n      0x00\n        /* \"#utility.yul\":9960:9963   */\n      dup2\n        /* \"#utility.yul\":9945:9963   */\n      swap1\n      pop\n        /* \"#utility.yul\":9803:9969   */\n      swap3\n      swap2\n      pop\n      pop\n      jump\t// out\n        /* \"#utility.yul\":9975:10096   */\n    tag_161:\n        /* \"#utility.yul\":10063:10067   */\n      0x00\n        /* \"#utility.yul\":10086:10089   */\n      dup2\n        /* \"#utility.yul\":10078:10089   */\n      swap1\n      pop\n        /* \"#utility.yul\":9975:10096   */\n      swap2\n      swap1\n      pop\n      jump\t// out\n        /* \"#utility.yul\":10102:10235   */\n    tag_162:\n        /* \"#utility.yul\":10189:10200   */\n      0x00\n        /* \"#utility.yul\":10226:10229   */\n      dup2\n        /* \"#utility.yul\":10211:10229   */\n      swap1\n      pop\n        /* \"#utility.yul\":10102:10235   */\n      swap3\n      swap2\n      pop\n      pop\n      jump\t// out\n        /* \"#utility.yul\":10273:10947   */\n    tag_163:\n        /* \"#utility.yul\":10399:10451   */\n      tag_309\n        /* \"#utility.yul\":10445:10450   */\n      dup2\n        /* \"#utility.yul\":10399:10451   */\n      tag_152\n      jump\t// in\n    tag_309:\n        /* \"#utility.yul\":10467:10541   */\n      tag_310\n        /* \"#utility.yul\":10534:10540   */\n      dup2\n        /* \"#utility.yul\":10529:10532   */\n      dup5\n        /* \"#utility.yul\":10467:10541   */\n      tag_162\n      jump\t// in\n    tag_310:\n        /* \"#utility.yul\":10460:10541   */\n      swap3\n      pop\n        /* \"#utility.yul\":10565:10619   */\n      tag_311\n        /* \"#utility.yul\":10613:10618   */\n      dup3\n        /* \"#utility.yul\":10565:10619   */\n      tag_154\n      jump\t// in\n    tag_311:\n        /* \"#utility.yul\":10642:10649   */\n      dup1\n        /* \"#utility.yul\":10673:10674   */\n      0x00\n        /* \"#utility.yul\":10658:10940   */\n    tag_312:\n        /* \"#utility.yul\":10683:10689   */\n      dup4\n        /* \"#utility.yul\":10680:10681   */\n      dup2\n        /* \"#utility.yul\":10677:10690   */\n      lt\n        /* \"#utility.yul\":10658:10940   */\n      iszero\n      tag_314\n      jumpi\n        /* \"#utility.yul\":10759:10765   */\n      dup2\n        /* \"#utility.yul\":10753:10766   */\n      mload\n        /* \"#utility.yul\":10786:10849   */\n      tag_315\n        /* \"#utility.yul\":10845:10848   */\n      dup8\n        /* \"#utility.yul\":10830:10843   */\n      dup3\n        /* \"#utility.yul\":10786:10849   */\n      tag_156\n      jump\t// in\n    tag_315:\n        /* \"#utility.yul\":10779:10849   */\n      swap7\n      pop\n        /* \"#utility.yul\":10872:10930   */\n      tag_316\n        /* \"#utility.yul\":10923:10929   */\n      dup4\n        /* \"#utility.yul\":10872:10930   */\n      tag_157\n      jump\t// in\n    tag_316:\n        /* \"#utility.yul\":10862:10930   */\n      swap3\n      pop\n        /* \"#utility.yul\":10718:10940   */\n      pop\n        /* \"#utility.yul\":10705:10706   */\n      0x01\n        /* \"#utility.yul\":10702:10703   */\n      dup2\n        /* \"#utility.yul\":10698:10707   */\n      add\n        /* \"#utility.yul\":10693:10707   */\n      swap1\n      pop\n        /* \"#utility.yul\":10658:10940   */\n      jump(tag_312)\n    tag_314:\n        /* \"#utility.yul\":10662:10676   */\n      pop\n        /* \"#utility.yul\":10375:10947   */\n      pop\n      pop\n      pop\n        /* \"#utility.yul\":10273:10947   */\n      pop\n      pop\n      jump\t// out\n        /* \"#utility.yul\":10953:11224   */\n    tag_164:\n        /* \"#utility.yul\":11068:11078   */\n      0x00\n        /* \"#utility.yul\":11089:11181   */\n      tag_318\n        /* \"#utility.yul\":11177:11180   */\n      dup4\n        /* \"#utility.yul\":11169:11175   */\n      dup4\n        /* \"#utility.yul\":11089:11181   */\n      tag_163\n      jump\t// in\n    tag_318:\n        /* \"#utility.yul\":11213:11217   */\n      0x40\n        /* \"#utility.yul\":11208:11211   */\n      dup4\n        /* \"#utility.yul\":11204:11218   */\n      add\n        /* \"#utility.yul\":11190:11218   */\n      swap1\n      pop\n        /* \"#utility.yul\":10953:11224   */\n      swap3\n      swap2\n      pop\n      pop\n      jump\t// out\n        /* \"#utility.yul\":11230:11364   */\n    tag_165:\n        /* \"#utility.yul\":11321:11325   */\n      0x00\n        /* \"#utility.yul\":11353:11357   */\n      0x20\n        /* \"#utility.yul\":11348:11351   */\n      dup3\n        /* \"#utility.yul\":11344:11358   */\n      add\n        /* \"#utility.yul\":11336:11358   */\n      swap1\n      pop\n        /* \"#utility.yul\":11230:11364   */\n      swap2\n      swap1\n      pop\n      jump\t// out\n        /* \"#utility.yul\":11408:12286   */\n    tag_166:\n        /* \"#utility.yul\":11590:11665   */\n      tag_321\n        /* \"#utility.yul\":11659:11664   */\n      dup2\n        /* \"#utility.yul\":11590:11665   */\n      tag_159\n      jump\t// in\n    tag_321:\n        /* \"#utility.yul\":11681:11788   */\n      tag_322\n        /* \"#utility.yul\":11781:11787   */\n      dup2\n        /* \"#utility.yul\":11776:11779   */\n      dup5\n        /* \"#utility.yul\":11681:11788   */\n      tag_160\n      jump\t// in\n    tag_322:\n        /* \"#utility.yul\":11674:11788   */\n      swap3\n      pop\n        /* \"#utility.yul\":11812:11889   */\n      tag_323\n        /* \"#utility.yul\":11883:11888   */\n      dup3\n        /* \"#utility.yul\":11812:11889   */\n      tag_161\n      jump\t// in\n    tag_323:\n        /* \"#utility.yul\":11912:11919   */\n      dup1\n        /* \"#utility.yul\":11943:11944   */\n      0x00\n        /* \"#utility.yul\":11928:12279   */\n    tag_324:\n        /* \"#utility.yul\":11953:11959   */\n      dup4\n        /* \"#utility.yul\":11950:11951   */\n      dup2\n        /* \"#utility.yul\":11947:11960   */\n      lt\n        /* \"#utility.yul\":11928:12279   */\n      iszero\n      tag_326\n      jumpi\n        /* \"#utility.yul\":12029:12035   */\n      dup2\n        /* \"#utility.yul\":12023:12036   */\n      mload\n        /* \"#utility.yul\":12056:12165   */\n      tag_327\n        /* \"#utility.yul\":12161:12164   */\n      dup8\n        /* \"#utility.yul\":12146:12159   */\n      dup3\n        /* \"#utility.yul\":12056:12165   */\n      tag_164\n      jump\t// in\n    tag_327:\n        /* \"#utility.yul\":12049:12165   */\n      swap7\n      pop\n        /* \"#utility.yul\":12188:12269   */\n      tag_328\n        /* \"#utility.yul\":12262:12268   */\n      dup4\n        /* \"#utility.yul\":12188:12269   */\n      tag_165\n      jump\t// in\n    tag_328:\n        /* \"#utility.yul\":12178:12269   */\n      swap3\n      pop\n        /* \"#utility.yul\":11988:12279   */\n      pop\n        /* \"#utility.yul\":11975:11976   */\n      0x01\n        /* \"#utility.yul\":11972:11973   */\n      dup2\n        /* \"#utility.yul\":11968:11977   */\n      add\n        /* \"#utility.yul\":11963:11977   */\n      swap1\n      pop\n        /* \"#utility.yul\":11928:12279   */\n      jump(tag_324)\n    tag_326:\n        /* \"#utility.yul\":11932:11946   */\n      pop\n        /* \"#utility.yul\":11566:12286   */\n      pop\n      pop\n      pop\n        /* \"#utility.yul\":11408:12286   */\n      pop\n      pop\n      jump\t// out\n        /* \"#utility.yul\":12292:13307   */\n    tag_54:\n        /* \"#utility.yul\":12699:12703   */\n      0x00\n        /* \"#utility.yul\":12737:12740   */\n      0x0140\n        /* \"#utility.yul\":12726:12735   */\n      dup3\n        /* \"#utility.yul\":12722:12741   */\n      add\n        /* \"#utility.yul\":12714:12741   */\n      swap1\n      pop\n        /* \"#utility.yul\":12751:12868   */\n      tag_330\n        /* \"#utility.yul\":12865:12866   */\n      0x00\n        /* \"#utility.yul\":12854:12863   */\n      dup4\n        /* \"#utility.yul\":12850:12867   */\n      add\n        /* \"#utility.yul\":12841:12847   */\n      dup8\n        /* \"#utility.yul\":12751:12868   */\n      tag_158\n      jump\t// in\n    tag_330:\n        /* \"#utility.yul\":12878:13042   */\n      tag_331\n        /* \"#utility.yul\":13038:13040   */\n      0x40\n        /* \"#utility.yul\":13027:13036   */\n      dup4\n        /* \"#utility.yul\":13023:13041   */\n      add\n        /* \"#utility.yul\":13014:13020   */\n      dup7\n        /* \"#utility.yul\":12878:13042   */\n      tag_166\n      jump\t// in\n    tag_331:\n        /* \"#utility.yul\":13052:13171   */\n      tag_332\n        /* \"#utility.yul\":13166:13169   */\n      0xc0\n        /* \"#utility.yul\":13155:13164   */\n      dup4\n        /* \"#utility.yul\":13151:13170   */\n      add\n        /* \"#utility.yul\":13142:13148   */\n      dup6\n        /* \"#utility.yul\":13052:13171   */\n      tag_158\n      jump\t// in\n    tag_332:\n        /* \"#utility.yul\":13181:13300   */\n      tag_333\n        /* \"#utility.yul\":13295:13298   */\n      0x0100\n        /* \"#utility.yul\":13284:13293   */\n      dup4\n        /* \"#utility.yul\":13280:13299   */\n      add\n        /* \"#utility.yul\":13271:13277   */\n      dup5\n        /* \"#utility.yul\":13181:13300   */\n      tag_158\n      jump\t// in\n    tag_333:\n        /* \"#utility.yul\":12292:13307   */\n      swap6\n      swap5\n      pop\n      pop\n      pop\n      pop\n      pop\n      jump\t// out\n        /* \"#utility.yul\":13313:13429   */\n    tag_167:\n        /* \"#utility.yul\":13383:13404   */\n      tag_335\n        /* \"#utility.yul\":13398:13403   */\n      dup2\n        /* \"#utility.yul\":13383:13404   */\n      tag_129\n      jump\t// in\n    tag_335:\n        /* \"#utility.yul\":13376:13381   */\n      dup2\n        /* \"#utility.yul\":13373:13405   */\n      eq\n        /* \"#utility.yul\":13363:13423   */\n      tag_336\n      jumpi\n        /* \"#utility.yul\":13419:13420   */\n      0x00\n        /* \"#utility.yul\":13416:13417   */\n      dup1\n        /* \"#utility.yul\":13409:13421   */\n      revert\n        /* \"#utility.yul\":13363:13423   */\n    tag_336:\n        /* \"#utility.yul\":13313:13429   */\n      pop\n      jump\t// out\n        /* \"#utility.yul\":13435:13572   */\n    tag_168:\n        /* \"#utility.yul\":13489:13494   */\n      0x00\n        /* \"#utility.yul\":13520:13526   */\n      dup2\n        /* \"#utility.yul\":13514:13527   */\n      mload\n        /* \"#utility.yul\":13505:13527   */\n      swap1\n      pop\n        /* \"#utility.yul\":13536:13566   */\n      tag_338\n        /* \"#utility.yul\":13560:13565   */\n      dup2\n        /* \"#utility.yul\":13536:13566   */\n      tag_167\n      jump\t// in\n    tag_338:\n        /* \"#utility.yul\":13435:13572   */\n      swap3\n      swap2\n      pop\n      pop\n      jump\t// out\n        /* \"#utility.yul\":13578:13923   */\n    tag_58:\n        /* \"#utility.yul\":13645:13651   */\n      0x00\n        /* \"#utility.yul\":13694:13696   */\n      0x20\n        /* \"#utility.yul\":13682:13691   */\n      dup3\n        /* \"#utility.yul\":13673:13680   */\n      dup5\n        /* \"#utility.yul\":13669:13692   */\n      sub\n        /* \"#utility.yul\":13665:13697   */\n      slt\n        /* \"#utility.yul\":13662:13781   */\n      iszero\n      tag_340\n      jumpi\n        /* \"#utility.yul\":13700:13779   */\n      tag_341\n      tag_124\n      jump\t// in\n    tag_341:\n        /* \"#utility.yul\":13662:13781   */\n    tag_340:\n        /* \"#utility.yul\":13820:13821   */\n      0x00\n        /* \"#utility.yul\":13845:13906   */\n      tag_342\n        /* \"#utility.yul\":13898:13905   */\n      dup5\n        /* \"#utility.yul\":13889:13895   */\n      dup3\n        /* \"#utility.yul\":13878:13887   */\n      dup6\n        /* \"#utility.yul\":13874:13896   */\n      add\n        /* \"#utility.yul\":13845:13906   */\n      tag_168\n      jump\t// in\n    tag_342:\n        /* \"#utility.yul\":13835:13906   */\n      swap2\n      pop\n        /* \"#utility.yul\":13791:13916   */\n      pop\n        /* \"#utility.yul\":13578:13923   */\n      swap3\n      swap2\n      pop\n      pop\n      jump\t// out\n        /* \"#utility.yul\":13929:14098   */\n    tag_169:\n        /* \"#utility.yul\":14013:14024   */\n      0x00\n        /* \"#utility.yul\":14047:14053   */\n      dup3\n        /* \"#utility.yul\":14042:14045   */\n      dup3\n        /* \"#utility.yul\":14035:14054   */\n      mstore\n        /* \"#utility.yul\":14087:14091   */\n      0x20\n        /* \"#utility.yul\":14082:14085   */\n      dup3\n        /* \"#utility.yul\":14078:14092   */\n      add\n        /* \"#utility.yul\":14063:14092   */\n      swap1\n      pop\n        /* \"#utility.yul\":13929:14098   */\n      swap3\n      swap2\n      pop\n      pop\n      jump\t// out\n        /* \"#utility.yul\":14104:14273   */\n    tag_170:\n        /* \"#utility.yul\":14244:14265   */\n      0x6578697374696e672d636f6d6d69746d656e7400000000000000000000000000\n        /* \"#utility.yul\":14240:14241   */\n      0x00\n        /* \"#utility.yul\":14232:14238   */\n      dup3\n        /* \"#utility.yul\":14228:14242   */\n      add\n        /* \"#utility.yul\":14221:14266   */\n      mstore\n        /* \"#utility.yul\":14104:14273   */\n      pop\n      jump\t// out\n        /* \"#utility.yul\":14279:14645   */\n    tag_171:\n        /* \"#utility.yul\":14421:14424   */\n      0x00\n        /* \"#utility.yul\":14442:14509   */\n      tag_346\n        /* \"#utility.yul\":14506:14508   */\n      0x13\n        /* \"#utility.yul\":14501:14504   */\n      dup4\n        /* \"#utility.yul\":14442:14509   */\n      tag_169\n      jump\t// in\n    tag_346:\n        /* \"#utility.yul\":14435:14509   */\n      swap2\n      pop\n        /* \"#utility.yul\":14518:14611   */\n      tag_347\n        /* \"#utility.yul\":14607:14610   */\n      dup3\n        /* \"#utility.yul\":14518:14611   */\n      tag_170\n      jump\t// in\n    tag_347:\n        /* \"#utility.yul\":14636:14638   */\n      0x20\n        /* \"#utility.yul\":14631:14634   */\n      dup3\n        /* \"#utility.yul\":14627:14639   */\n      add\n        /* \"#utility.yul\":14620:14639   */\n      swap1\n      pop\n        /* \"#utility.yul\":14279:14645   */\n      swap2\n      swap1\n      pop\n      jump\t// out\n        /* \"#utility.yul\":14651:15070   */\n    tag_65:\n        /* \"#utility.yul\":14817:14821   */\n      0x00\n        /* \"#utility.yul\":14855:14857   */\n      0x20\n        /* \"#utility.yul\":14844:14853   */\n      dup3\n        /* \"#utility.yul\":14840:14858   */\n      add\n        /* \"#utility.yul\":14832:14858   */\n      swap1\n      pop\n        /* \"#utility.yul\":14904:14913   */\n      dup2\n        /* \"#utility.yul\":14898:14902   */\n      dup2\n        /* \"#utility.yul\":14894:14914   */\n      sub\n        /* \"#utility.yul\":14890:14891   */\n      0x00\n        /* \"#utility.yul\":14879:14888   */\n      dup4\n        /* \"#utility.yul\":14875:14892   */\n      add\n        /* \"#utility.yul\":14868:14915   */\n      mstore\n        /* \"#utility.yul\":14932:15063   */\n      tag_349\n        /* \"#utility.yul\":15058:15062   */\n      dup2\n        /* \"#utility.yul\":14932:15063   */\n      tag_171\n      jump\t// in\n    tag_349:\n        /* \"#utility.yul\":14924:15063   */\n      swap1\n      pop\n        /* \"#utility.yul\":14651:15070   */\n      swap2\n      swap1\n      pop\n      jump\t// out\n        /* \"#utility.yul\":15076:15256   */\n    tag_172:\n        /* \"#utility.yul\":15124:15201   */\n      0x4e487b7100000000000000000000000000000000000000000000000000000000\n        /* \"#utility.yul\":15121:15122   */\n      0x00\n        /* \"#utility.yul\":15114:15202   */\n      mstore\n        /* \"#utility.yul\":15221:15225   */\n      0x11\n        /* \"#utility.yul\":15218:15219   */\n      0x04\n        /* \"#utility.yul\":15211:15226   */\n      mstore\n        /* \"#utility.yul\":15245:15249   */\n      0x24\n        /* \"#utility.yul\":15242:15243   */\n      0x00\n        /* \"#utility.yul\":15235:15250   */\n      revert\n        /* \"#utility.yul\":15262:15364   */\n    tag_173:\n        /* \"#utility.yul\":15304:15312   */\n      0x00\n        /* \"#utility.yul\":15351:15356   */\n      dup2\n        /* \"#utility.yul\":15348:15349   */\n      0x01\n        /* \"#utility.yul\":15344:15357   */\n      shr\n        /* \"#utility.yul\":15323:15357   */\n      swap1\n      pop\n        /* \"#utility.yul\":15262:15364   */\n      swap2\n      swap1\n      pop\n      jump\t// out\n        /* \"#utility.yul\":15370:16218   */\n    tag_174:\n        /* \"#utility.yul\":15431:15436   */\n      0x00\n        /* \"#utility.yul\":15438:15442   */\n      dup1\n        /* \"#utility.yul\":15462:15468   */\n      dup3\n        /* \"#utility.yul\":15453:15468   */\n      swap2\n      pop\n        /* \"#utility.yul\":15486:15491   */\n      dup4\n        /* \"#utility.yul\":15477:15491   */\n      swap1\n      pop\n        /* \"#utility.yul\":15500:16212   */\n    tag_353:\n        /* \"#utility.yul\":15521:15522   */\n      0x01\n        /* \"#utility.yul\":15511:15519   */\n      dup6\n        /* \"#utility.yul\":15508:15523   */\n      gt\n        /* \"#utility.yul\":15500:16212   */\n      iszero\n      tag_355\n      jumpi\n        /* \"#utility.yul\":15616:15620   */\n      dup1\n        /* \"#utility.yul\":15611:15614   */\n      dup7\n        /* \"#utility.yul\":15607:15621   */\n      div\n        /* \"#utility.yul\":15601:15605   */\n      dup2\n        /* \"#utility.yul\":15598:15622   */\n      gt\n        /* \"#utility.yul\":15595:15645   */\n      iszero\n      tag_356\n      jumpi\n        /* \"#utility.yul\":15625:15643   */\n      tag_357\n      tag_172\n      jump\t// in\n    tag_357:\n        /* \"#utility.yul\":15595:15645   */\n    tag_356:\n        /* \"#utility.yul\":15675:15676   */\n      0x01\n        /* \"#utility.yul\":15665:15673   */\n      dup6\n        /* \"#utility.yul\":15661:15677   */\n      and\n        /* \"#utility.yul\":15658:16109   */\n      iszero\n      tag_358\n      jumpi\n        /* \"#utility.yul\":16090:16094   */\n      dup1\n        /* \"#utility.yul\":16083:16088   */\n      dup3\n        /* \"#utility.yul\":16079:16095   */\n      mul\n        /* \"#utility.yul\":16070:16095   */\n      swap2\n      pop\n        /* \"#utility.yul\":15658:16109   */\n    tag_358:\n        /* \"#utility.yul\":16140:16144   */\n      dup1\n        /* \"#utility.yul\":16134:16138   */\n      dup2\n        /* \"#utility.yul\":16130:16145   */\n      mul\n        /* \"#utility.yul\":16122:16145   */\n      swap1\n      pop\n        /* \"#utility.yul\":16170:16202   */\n      tag_359\n        /* \"#utility.yul\":16193:16201   */\n      dup6\n        /* \"#utility.yul\":16170:16202   */\n      tag_173\n      jump\t// in\n    tag_359:\n        /* \"#utility.yul\":16158:16202   */\n      swap5\n      pop\n        /* \"#utility.yul\":15500:16212   */\n      jump(tag_353)\n    tag_355:\n        /* \"#utility.yul\":15370:16218   */\n      swap5\n      pop\n      swap5\n      swap3\n      pop\n      pop\n      pop\n      jump\t// out\n        /* \"#utility.yul\":16224:17297   */\n    tag_175:\n        /* \"#utility.yul\":16278:16283   */\n      0x00\n        /* \"#utility.yul\":16469:16477   */\n      dup3\n        /* \"#utility.yul\":16459:16499   */\n      tag_361\n      jumpi\n        /* \"#utility.yul\":16490:16491   */\n      0x01\n        /* \"#utility.yul\":16481:16491   */\n      swap1\n      pop\n        /* \"#utility.yul\":16492:16497   */\n      jump(tag_360)\n        /* \"#utility.yul\":16459:16499   */\n    tag_361:\n        /* \"#utility.yul\":16518:16522   */\n      dup2\n        /* \"#utility.yul\":16508:16544   */\n      tag_362\n      jumpi\n        /* \"#utility.yul\":16535:16536   */\n      0x00\n        /* \"#utility.yul\":16526:16536   */\n      swap1\n      pop\n        /* \"#utility.yul\":16537:16542   */\n      jump(tag_360)\n        /* \"#utility.yul\":16508:16544   */\n    tag_362:\n        /* \"#utility.yul\":16604:16608   */\n      dup2\n        /* \"#utility.yul\":16652:16653   */\n      0x01\n        /* \"#utility.yul\":16647:16674   */\n      dup2\n      eq\n      tag_364\n      jumpi\n        /* \"#utility.yul\":16688:16689   */\n      0x02\n        /* \"#utility.yul\":16683:16874   */\n      dup2\n      eq\n      tag_365\n      jumpi\n        /* \"#utility.yul\":16597:16874   */\n      jump(tag_363)\n        /* \"#utility.yul\":16647:16674   */\n    tag_364:\n        /* \"#utility.yul\":16665:16666   */\n      0x01\n        /* \"#utility.yul\":16656:16666   */\n      swap2\n      pop\n        /* \"#utility.yul\":16667:16672   */\n      pop\n      jump(tag_360)\n        /* \"#utility.yul\":16683:16874   */\n    tag_365:\n        /* \"#utility.yul\":16728:16731   */\n      0xff\n        /* \"#utility.yul\":16718:16726   */\n      dup5\n        /* \"#utility.yul\":16715:16732   */\n      gt\n        /* \"#utility.yul\":16712:16755   */\n      iszero\n      tag_366\n      jumpi\n        /* \"#utility.yul\":16735:16753   */\n      tag_367\n      tag_172\n      jump\t// in\n    tag_367:\n        /* \"#utility.yul\":16712:16755   */\n    tag_366:\n        /* \"#utility.yul\":16784:16792   */\n      dup4\n        /* \"#utility.yul\":16781:16782   */\n      0x02\n        /* \"#utility.yul\":16777:16793   */\n      exp\n        /* \"#utility.yul\":16768:16793   */\n      swap2\n      pop\n        /* \"#utility.yul\":16819:16822   */\n      dup5\n        /* \"#utility.yul\":16812:16817   */\n      dup3\n        /* \"#utility.yul\":16809:16823   */\n      gt\n        /* \"#utility.yul\":16806:16846   */\n      iszero\n      tag_368\n      jumpi\n        /* \"#utility.yul\":16826:16844   */\n      tag_369\n      tag_172\n      jump\t// in\n    tag_369:\n        /* \"#utility.yul\":16806:16846   */\n    tag_368:\n        /* \"#utility.yul\":16859:16864   */\n      pop\n      jump(tag_360)\n        /* \"#utility.yul\":16597:16874   */\n    tag_363:\n      pop\n        /* \"#utility.yul\":16983:16985   */\n      0x20\n        /* \"#utility.yul\":16973:16981   */\n      dup4\n        /* \"#utility.yul\":16970:16986   */\n      lt\n        /* \"#utility.yul\":16964:16967   */\n      0x0133\n        /* \"#utility.yul\":16958:16962   */\n      dup4\n        /* \"#utility.yul\":16955:16968   */\n      lt\n        /* \"#utility.yul\":16951:16987   */\n      and\n        /* \"#utility.yul\":16933:16935   */\n      0x4e\n        /* \"#utility.yul\":16923:16931   */\n      dup5\n        /* \"#utility.yul\":16920:16936   */\n      lt\n        /* \"#utility.yul\":16915:16917   */\n      0x0b\n        /* \"#utility.yul\":16909:16913   */\n      dup5\n        /* \"#utility.yul\":16906:16918   */\n      lt\n        /* \"#utility.yul\":16902:16937   */\n      and\n        /* \"#utility.yul\":16886:16997   */\n      or\n        /* \"#utility.yul\":16883:17129   */\n      iszero\n      tag_370\n      jumpi\n        /* \"#utility.yul\":17039:17047   */\n      dup3\n        /* \"#utility.yul\":17033:17037   */\n      dup3\n        /* \"#utility.yul\":17029:17048   */\n      exp\n        /* \"#utility.yul\":17020:17048   */\n      swap1\n      pop\n        /* \"#utility.yul\":17074:17077   */\n      dup4\n        /* \"#utility.yul\":17067:17072   */\n      dup2\n        /* \"#utility.yul\":17064:17078   */\n      gt\n        /* \"#utility.yul\":17061:17101   */\n      iszero\n      tag_371\n      jumpi\n        /* \"#utility.yul\":17081:17099   */\n      tag_372\n      tag_172\n      jump\t// in\n    tag_372:\n        /* \"#utility.yul\":17061:17101   */\n    tag_371:\n        /* \"#utility.yul\":17114:17119   */\n      jump(tag_360)\n        /* \"#utility.yul\":16883:17129   */\n    tag_370:\n        /* \"#utility.yul\":17154:17196   */\n      tag_373\n        /* \"#utility.yul\":17192:17195   */\n      dup5\n        /* \"#utility.yul\":17182:17190   */\n      dup5\n        /* \"#utility.yul\":17176:17180   */\n      dup5\n        /* \"#utility.yul\":17173:17174   */\n      0x01\n        /* \"#utility.yul\":17154:17196   */\n      tag_174\n      jump\t// in\n    tag_373:\n        /* \"#utility.yul\":17139:17196   */\n      swap3\n      pop\n      swap1\n      pop\n        /* \"#utility.yul\":17228:17232   */\n      dup2\n        /* \"#utility.yul\":17223:17226   */\n      dup5\n        /* \"#utility.yul\":17219:17233   */\n      div\n        /* \"#utility.yul\":17212:17217   */\n      dup2\n        /* \"#utility.yul\":17209:17234   */\n      gt\n        /* \"#utility.yul\":17206:17257   */\n      iszero\n      tag_374\n      jumpi\n        /* \"#utility.yul\":17237:17255   */\n      tag_375\n      tag_172\n      jump\t// in\n    tag_375:\n        /* \"#utility.yul\":17206:17257   */\n    tag_374:\n        /* \"#utility.yul\":17286:17290   */\n      dup2\n        /* \"#utility.yul\":17279:17284   */\n      dup2\n        /* \"#utility.yul\":17275:17291   */\n      mul\n        /* \"#utility.yul\":17266:17291   */\n      swap1\n      pop\n        /* \"#utility.yul\":16224:17297   */\n    tag_360:\n      swap4\n      swap3\n      pop\n      pop\n      pop\n      jump\t// out\n        /* \"#utility.yul\":17303:17584   */\n    tag_67:\n        /* \"#utility.yul\":17361:17366   */\n      0x00\n        /* \"#utility.yul\":17385:17408   */\n      tag_377\n        /* \"#utility.yul\":17403:17407   */\n      dup3\n        /* \"#utility.yul\":17385:17408   */\n      tag_126\n      jump\t// in\n    tag_377:\n        /* \"#utility.yul\":17377:17408   */\n      swap2\n      pop\n        /* \"#utility.yul\":17429:17454   */\n      tag_378\n        /* \"#utility.yul\":17445:17453   */\n      dup4\n        /* \"#utility.yul\":17429:17454   */\n      tag_150\n      jump\t// in\n    tag_378:\n        /* \"#utility.yul\":17417:17454   */\n      swap3\n      pop\n        /* \"#utility.yul\":17473:17577   */\n      tag_379\n        /* \"#utility.yul\":17510:17576   */\n      0xffffffffffffffffffffffffffffffffffffffffffffffffffffffffffffffff\n        /* \"#utility.yul\":17500:17508   */\n      dup5\n        /* \"#utility.yul\":17494:17498   */\n      dup5\n        /* \"#utility.yul\":17473:17577   */\n      tag_175\n      jump\t// in\n    tag_379:\n        /* \"#utility.yul\":17464:17577   */\n      swap1\n      pop\n        /* \"#utility.yul\":17303:17584   */\n      swap3\n      swap2\n      pop\n      pop\n      jump\t// out\n        /* \"#utility.yul\":17590:17749   */\n    tag_176:\n        /* \"#utility.yul\":17730:17741   */\n      0x747265652d66756c6c0000000000000000000000000000000000000000000000\n        /* \"#utility.yul\":17726:17727   */\n      0x00\n        /* \"#utility.yul\":17718:17724   */\n      dup3\n        /* \"#utility.yul\":17714:17728   */\n      add\n        /* \"#utility.yul\":17707:17742   */\n      mstore\n        /* \"#utility.yul\":17590:17749   */\n      pop\n      jump\t// out\n        /* \"#utility.yul\":17755:18120   */\n    tag_177:\n        /* \"#utility.yul\":17897:17900   */\n      0x00\n        /* \"#utility.yul\":17918:17984   */\n      tag_382\n        /* \"#utility.yul\":17982:17983   */\n      0x09\n        /* \"#utility.yul\":17977:17980   */\n      dup4\n        /* \"#utility.yul\":17918:17984   */\n      tag_169\n      jump\t// in\n    tag_382:\n        /* \"#utility.yul\":17911:17984   */\n      swap2\n      pop\n        /* \"#utility.yul\":17993:18086   */\n      tag_383\n        /* \"#utility.yul\":18082:18085   */\n      dup3\n        /* \"#utility.yul\":17993:18086   */\n      tag_176\n      jump\t// in\n    tag_383:\n        /* \"#utility.yul\":18111:18113   */\n      0x20\n        /* \"#utility.yul\":18106:18109   */\n      dup3\n        /* \"#utility.yul\":18102:18114   */\n      add\n        /* \"#utility.yul\":18095:18114   */\n      swap1\n      pop\n        /* \"#utility.yul\":17755:18120   */\n      swap2\n      swap1\n      pop\n      jump\t// out\n        /* \"#utility.yul\":18126:18545   */\n    tag_70:\n        /* \"#utility.yul\":18292:18296   */\n      0x00\n        /* \"#utility.yul\":18330:18332   */\n      0x20\n        /* \"#utility.yul\":18319:18328   */\n      dup3\n        /* \"#utility.yul\":18315:18333   */\n      add\n        /* \"#utility.yul\":18307:18333   */\n      swap1\n      pop\n        /* \"#utility.yul\":18379:18388   */\n      dup2\n        /* \"#utility.yul\":18373:18377   */\n      dup2\n        /* \"#utility.yul\":18369:18389   */\n      sub\n        /* \"#utility.yul\":18365:18366   */\n      0x00\n        /* \"#utility.yul\":18354:18363   */\n      dup4\n        /* \"#utility.yul\":18350:18367   */\n      add\n        /* \"#utility.yul\":18343:18390   */\n      mstore\n        /* \"#utility.yul\":18407:18538   */\n      tag_385\n        /* \"#utility.yul\":18533:18537   */\n      dup2\n        /* \"#utility.yul\":18407:18538   */\n      tag_177\n      jump\t// in\n    tag_385:\n        /* \"#utility.yul\":18399:18538   */\n      swap1\n      pop\n        /* \"#utility.yul\":18126:18545   */\n      swap2\n      swap1\n      pop\n      jump\t// out\n        /* \"#utility.yul\":18551:18731   */\n    tag_178:\n        /* \"#utility.yul\":18599:18676   */\n      0x4e487b7100000000000000000000000000000000000000000000000000000000\n        /* \"#utility.yul\":18596:18597   */\n      0x00\n        /* \"#utility.yul\":18589:18677   */\n      mstore\n        /* \"#utility.yul\":18696:18700   */\n      0x12\n        /* \"#utility.yul\":18693:18694   */\n      0x04\n        /* \"#utility.yul\":18686:18701   */\n      mstore\n        /* \"#utility.yul\":18720:18724   */\n      0x24\n        /* \"#utility.yul\":18717:18718   */\n      0x00\n        /* \"#utility.yul\":18710:18725   */\n      revert\n        /* \"#utility.yul\":18737:18913   */\n    tag_81:\n        /* \"#utility.yul\":18769:18770   */\n      0x00\n        /* \"#utility.yul\":18786:18806   */\n      tag_388\n        /* \"#utility.yul\":18804:18805   */\n      dup3\n        /* \"#utility.yul\":18786:18806   */\n      tag_126\n      jump\t// in\n    tag_388:\n        /* \"#utility.yul\":18781:18806   */\n      swap2\n      pop\n        /* \"#utility.yul\":18820:18840   */\n      tag_389\n        /* \"#utility.yul\":18838:18839   */\n      dup4\n        /* \"#utility.yul\":18820:18840   */\n      tag_126\n      jump\t// in\n    tag_389:\n        /* \"#utility.yul\":18815:18840   */\n      swap3\n      pop\n        /* \"#utility.yul\":18859:18860   */\n      dup3\n        /* \"#utility.yul\":18849:18884   */\n      tag_390\n      jumpi\n        /* \"#utility.yul\":18864:18882   */\n      tag_391\n      tag_178\n      jump\t// in\n    tag_391:\n        /* \"#utility.yul\":18849:18884   */\n    tag_390:\n        /* \"#utility.yul\":18905:18906   */\n      dup3\n        /* \"#utility.yul\":18902:18903   */\n      dup3\n        /* \"#utility.yul\":18898:18907   */\n      mod\n        /* \"#utility.yul\":18893:18907   */\n      swap1\n      pop\n        /* \"#utility.yul\":18737:18913   */\n      swap3\n      swap2\n      pop\n      pop\n      jump\t// out\n        /* \"#utility.yul\":18919:19343   */\n    tag_103:\n        /* \"#utility.yul\":19086:19090   */\n      0x00\n        /* \"#utility.yul\":19124:19126   */\n      0x60\n        /* \"#utility.yul\":19113:19122   */\n      dup3\n        /* \"#utility.yul\":19109:19127   */\n      add\n        /* \"#utility.yul\":19101:19127   */\n      swap1\n      pop\n        /* \"#utility.yul\":19137:19254   */\n      tag_393\n        /* \"#utility.yul\":19251:19252   */\n      0x00\n        /* \"#utility.yul\":19240:19249   */\n      dup4\n        /* \"#utility.yul\":19236:19253   */\n      add\n        /* \"#utility.yul\":19227:19233   */\n      dup6\n        /* \"#utility.yul\":19137:19254   */\n      tag_158\n      jump\t// in\n    tag_393:\n        /* \"#utility.yul\":19264:19336   */\n      tag_394\n        /* \"#utility.yul\":19332:19334   */\n      0x40\n        /* \"#utility.yul\":19321:19330   */\n      dup4\n        /* \"#utility.yul\":19317:19335   */\n      add\n        /* \"#utility.yul\":19308:19314   */\n      dup5\n        /* \"#utility.yul\":19264:19336   */\n      tag_137\n      jump\t// in\n    tag_394:\n        /* \"#utility.yul\":18919:19343   */\n      swap4\n      swap3\n      pop\n      pop\n      pop\n      jump\t// out\n        /* \"#utility.yul\":19349:19492   */\n    tag_179:\n        /* \"#utility.yul\":19406:19411   */\n      0x00\n        /* \"#utility.yul\":19437:19443   */\n      dup2\n        /* \"#utility.yul\":19431:19444   */\n      mload\n        /* \"#utility.yul\":19422:19444   */\n      swap1\n      pop\n        /* \"#utility.yul\":19453:19486   */\n      tag_396\n        /* \"#utility.yul\":19480:19485   */\n      dup2\n        /* \"#utility.yul\":19453:19486   */\n      tag_127\n      jump\t// in\n    tag_396:\n        /* \"#utility.yul\":19349:19492   */\n      swap3\n      swap2\n      pop\n      pop\n      jump\t// out\n        /* \"#utility.yul\":19498:19849   */\n    tag_107:\n        /* \"#utility.yul\":19568:19574   */\n      0x00\n        /* \"#utility.yul\":19617:19619   */\n      0x20\n        /* \"#utility.yul\":19605:19614   */\n      dup3\n        /* \"#utility.yul\":19596:19603   */\n      dup5\n        /* \"#utility.yul\":19592:19615   */\n      sub\n        /* \"#utility.yul\":19588:19620   */\n      slt\n        /* \"#utility.yul\":19585:19704   */\n      iszero\n      tag_398\n      jumpi\n        /* \"#utility.yul\":19623:19702   */\n      tag_399\n      tag_124\n      jump\t// in\n    tag_399:\n        /* \"#utility.yul\":19585:19704   */\n    tag_398:\n        /* \"#utility.yul\":19743:19744   */\n      0x00\n        /* \"#utility.yul\":19768:19832   */\n      tag_400\n        /* \"#utility.yul\":19824:19831   */\n      dup5\n        /* \"#utility.yul\":19815:19821   */\n      dup3\n        /* \"#utility.yul\":19804:19813   */\n      dup6\n        /* \"#utility.yul\":19800:19822   */\n      add\n        /* \"#utility.yul\":19768:19832   */\n      tag_179\n      jump\t// in\n    tag_400:\n        /* \"#utility.yul\":19758:19832   */\n      swap2\n      pop\n        /* \"#utility.yul\":19714:19842   */\n      pop\n        /* \"#utility.yul\":19498:19849   */\n      swap3\n      swap2\n      pop\n      pop\n      jump\t// out\n        /* \"#utility.yul\":19855:20040   */\n    tag_109:\n        /* \"#utility.yul\":19895:19896   */\n      0x00\n        /* \"#utility.yul\":19912:19932   */\n      tag_402\n        /* \"#utility.yul\":19930:19931   */\n      dup3\n        /* \"#utility.yul\":19912:19932   */\n      tag_126\n      jump\t// in\n    tag_402:\n        /* \"#utility.yul\":19907:19932   */\n      swap2\n      pop\n        /* \"#utility.yul\":19946:19966   */\n      tag_403\n        /* \"#utility.yul\":19964:19965   */\n      dup4\n        /* \"#utility.yul\":19946:19966   */\n      tag_126\n      jump\t// in\n    tag_403:\n        /* \"#utility.yul\":19941:19966   */\n      swap3\n      pop\n        /* \"#utility.yul\":19985:19986   */\n      dup3\n        /* \"#utility.yul\":19975:20010   */\n      tag_404\n      jumpi\n        /* \"#utility.yul\":19990:20008   */\n      tag_405\n      tag_178\n      jump\t// in\n    tag_405:\n        /* \"#utility.yul\":19975:20010   */\n    tag_404:\n        /* \"#utility.yul\":20032:20033   */\n      dup3\n        /* \"#utility.yul\":20029:20030   */\n      dup3\n        /* \"#utility.yul\":20025:20034   */\n      div\n        /* \"#utility.yul\":20020:20034   */\n      swap1\n      pop\n        /* \"#utility.yul\":19855:20040   */\n      swap3\n      swap2\n      pop\n      pop\n      jump\t// out\n        /* \"#utility.yul\":20046:20213   */\n    tag_111:\n        /* \"#utility.yul\":20083:20086   */\n      0x00\n        /* \"#utility.yul\":20106:20128   */\n      tag_407\n        /* \"#utility.yul\":20122:20127   */\n      dup3\n        /* \"#utility.yul\":20106:20128   */\n      tag_150\n      jump\t// in\n    tag_407:\n        /* \"#utility.yul\":20097:20128   */\n      swap2\n      pop\n        /* \"#utility.yul\":20150:20154   */\n      0xff\n        /* \"#utility.yul\":20143:20148   */\n      dup3\n        /* \"#utility.yul\":20140:20155   */\n      sub\n        /* \"#utility.yul\":20137:20178   */\n      tag_408\n      jumpi\n        /* \"#utility.yul\":20158:20176   */\n      tag_409\n      tag_172\n      jump\t// in\n    tag_409:\n        /* \"#utility.yul\":20137:20178   */\n    tag_408:\n        /* \"#utility.yul\":20205:20206   */\n      0x01\n        /* \"#utility.yul\":20198:20203   */\n      dup3\n        /* \"#utility.yul\":20194:20207   */\n      add\n        /* \"#utility.yul\":20187:20207   */\n      swap1\n      pop\n        /* \"#utility.yul\":20046:20213   */\n      swap2\n      swap1\n      pop\n      jump\t// out\n        /* \"#utility.yul\":20219:20410   */\n    tag_113:\n        /* \"#utility.yul\":20259:20262   */\n      0x00\n        /* \"#utility.yul\":20278:20298   */\n      tag_411\n        /* \"#utility.yul\":20296:20297   */\n      dup3\n        /* \"#utility.yul\":20278:20298   */\n      tag_126\n      jump\t// in\n    tag_411:\n        /* \"#utility.yul\":20273:20298   */\n      swap2\n      pop\n        /* \"#utility.yul\":20312:20332   */\n      tag_412\n        /* \"#utility.yul\":20330:20331   */\n      dup4\n        /* \"#utility.yul\":20312:20332   */\n      tag_126\n      jump\t// in\n    tag_412:\n        /* \"#utility.yul\":20307:20332   */\n      swap3\n      pop\n        /* \"#utility.yul\":20355:20356   */\n      dup3\n        /* \"#utility.yul\":20352:20353   */\n      dup3\n        /* \"#utility.yul\":20348:20357   */\n      add\n        /* \"#utility.yul\":20341:20357   */\n      swap1\n      pop\n        /* \"#utility.yul\":20376:20379   */\n      dup1\n        /* \"#utility.yul\":20373:20374   */\n      dup3\n        /* \"#utility.yul\":20370:20380   */\n      gt\n        /* \"#utility.yul\":20367:20403   */\n      iszero\n      tag_413\n      jumpi\n        /* \"#utility.yul\":20383:20401   */\n      tag_414\n      tag_172\n      jump\t// in\n    tag_414:\n        /* \"#utility.yul\":20367:20403   */\n    tag_413:\n        /* \"#utility.yul\":20219:20410   */\n      swap3\n      swap2\n      pop\n      pop\n      jump\t// out\n        /* \"#utility.yul\":20416:20521   */\n    tag_180:\n        /* \"#utility.yul\":20482:20488   */\n      0x00\n        /* \"#utility.yul\":20510:20514   */\n      0x0a\n        /* \"#utility.yul\":20500:20514   */\n      swap1\n      pop\n        /* \"#utility.yul\":20416:20521   */\n      swap2\n      swap1\n      pop\n      jump\t// out\n        /* \"#utility.yul\":20527:20671   */\n    tag_181:\n        /* \"#utility.yul\":20625:20636   */\n      0x00\n        /* \"#utility.yul\":20662:20665   */\n      dup2\n        /* \"#utility.yul\":20647:20665   */\n      swap1\n      pop\n        /* \"#utility.yul\":20527:20671   */\n      swap3\n      swap2\n      pop\n      pop\n      jump\t// out\n        /* \"#utility.yul\":20677:20776   */\n    tag_182:\n        /* \"#utility.yul\":20743:20747   */\n      0x00\n        /* \"#utility.yul\":20766:20769   */\n      dup2\n        /* \"#utility.yul\":20758:20769   */\n      swap1\n      pop\n        /* \"#utility.yul\":20677:20776   */\n      swap2\n      swap1\n      pop\n      jump\t// out\n        /* \"#utility.yul\":20782:20894   */\n    tag_183:\n        /* \"#utility.yul\":20851:20855   */\n      0x00\n        /* \"#utility.yul\":20883:20887   */\n      0x20\n        /* \"#utility.yul\":20878:20881   */\n      dup3\n        /* \"#utility.yul\":20874:20888   */\n      add\n        /* \"#utility.yul\":20866:20888   */\n      swap1\n      pop\n        /* \"#utility.yul\":20782:20894   */\n      swap2\n      swap1\n      pop\n      jump\t// out\n        /* \"#utility.yul\":20934:21634   */\n    tag_184:\n        /* \"#utility.yul\":21072:21125   */\n      tag_420\n        /* \"#utility.yul\":21119:21124   */\n      dup2\n        /* \"#utility.yul\":21072:21125   */\n      tag_180\n      jump\t// in\n    tag_420:\n        /* \"#utility.yul\":21141:21226   */\n      tag_421\n        /* \"#utility.yul\":21219:21225   */\n      dup2\n        /* \"#utility.yul\":21214:21217   */\n      dup5\n        /* \"#utility.yul\":21141:21226   */\n      tag_181\n      jump\t// in\n    tag_421:\n        /* \"#utility.yul\":21134:21226   */\n      swap3\n      pop\n        /* \"#utility.yul\":21250:21305   */\n      tag_422\n        /* \"#utility.yul\":21299:21304   */\n      dup3\n        /* \"#utility.yul\":21250:21305   */\n      tag_182\n      jump\t// in\n    tag_422:\n        /* \"#utility.yul\":21328:21335   */\n      dup1\n        /* \"#utility.yul\":21359:21360   */\n      0x00\n        /* \"#utility.yul\":21344:21627   */\n    tag_423:\n        /* \"#utility.yul\":21369:21375   */\n      dup4\n        /* \"#utility.yul\":21366:21367   */\n      dup2\n        /* \"#utility.yul\":21363:21376   */\n      lt\n        /* \"#utility.yul\":21344:21627   */\n      iszero\n      tag_425\n      jumpi\n        /* \"#utility.yul\":21445:21451   */\n      dup2\n        /* \"#utility.yul\":21439:21452   */\n      mload\n        /* \"#utility.yul\":21472:21535   */\n      tag_426\n        /* \"#utility.yul\":21531:21534   */\n      dup8\n        /* \"#utility.yul\":21516:21529   */\n      dup3\n        /* \"#utility.yul\":21472:21535   */\n      tag_156\n      jump\t// in\n    tag_426:\n        /* \"#utility.yul\":21465:21535   */\n      swap7\n      pop\n        /* \"#utility.yul\":21558:21617   */\n      tag_427\n        /* \"#utility.yul\":21610:21616   */\n      dup4\n        /* \"#utility.yul\":21558:21617   */\n      tag_183\n      jump\t// in\n    tag_427:\n        /* \"#utility.yul\":21548:21617   */\n      swap3\n      pop\n        /* \"#utility.yul\":21404:21627   */\n      pop\n        /* \"#utility.yul\":21391:21392   */\n      0x01\n        /* \"#utility.yul\":21388:21389   */\n      dup2\n        /* \"#utility.yul\":21384:21393   */\n      add\n        /* \"#utility.yul\":21379:21393   */\n      swap1\n      pop\n        /* \"#utility.yul\":21344:21627   */\n      jump(tag_423)\n    tag_425:\n        /* \"#utility.yul\":21348:21362   */\n      pop\n        /* \"#utility.yul\":21048:21634   */\n      pop\n      pop\n      pop\n        /* \"#utility.yul\":20934:21634   */\n      pop\n      pop\n      jump\t// out\n        /* \"#utility.yul\":21640:21743   */\n    tag_185:\n        /* \"#utility.yul\":21704:21710   */\n      0x00\n        /* \"#utility.yul\":21732:21736   */\n      0x0a\n        /* \"#utility.yul\":21722:21736   */\n      swap1\n      pop\n        /* \"#utility.yul\":21640:21743   */\n      swap2\n      swap1\n      pop\n      jump\t// out\n        /* \"#utility.yul\":21749:21891   */\n    tag_186:\n        /* \"#utility.yul\":21845:21856   */\n      0x00\n        /* \"#utility.yul\":21882:21885   */\n      dup2\n        /* \"#utility.yul\":21867:21885   */\n      swap1\n      pop\n        /* \"#utility.yul\":21749:21891   */\n      swap3\n      swap2\n      pop\n      pop\n      jump\t// out\n        /* \"#utility.yul\":21897:21994   */\n    tag_187:\n        /* \"#utility.yul\":21961:21965   */\n      0x00\n        /* \"#utility.yul\":21984:21987   */\n      dup2\n        /* \"#utility.yul\":21976:21987   */\n      swap1\n      pop\n        /* \"#utility.yul\":21897:21994   */\n      swap2\n      swap1\n      pop\n      jump\t// out\n        /* \"#utility.yul\":22000:22102   */\n    tag_188:\n        /* \"#utility.yul\":22073:22095   */\n      tag_432\n        /* \"#utility.yul\":22089:22094   */\n      dup2\n        /* \"#utility.yul\":22073:22095   */\n      tag_150\n      jump\t// in\n    tag_432:\n        /* \"#utility.yul\":22068:22071   */\n      dup3\n        /* \"#utility.yul\":22061:22096   */\n      mstore\n        /* \"#utility.yul\":22000:22102   */\n      pop\n      pop\n      jump\t// out\n        /* \"#utility.yul\":22108:22279   */\n    tag_189:\n        /* \"#utility.yul\":22173:22183   */\n      0x00\n        /* \"#utility.yul\":22194:22236   */\n      tag_434\n        /* \"#utility.yul\":22232:22235   */\n      dup4\n        /* \"#utility.yul\":22224:22230   */\n      dup4\n        /* \"#utility.yul\":22194:22236   */\n      tag_188\n      jump\t// in\n    tag_434:\n        /* \"#utility.yul\":22268:22272   */\n      0x20\n        /* \"#utility.yul\":22263:22266   */\n      dup4\n        /* \"#utility.yul\":22259:22273   */\n      add\n        /* \"#utility.yul\":22245:22273   */\n      swap1\n      pop\n        /* \"#utility.yul\":22108:22279   */\n      swap3\n      swap2\n      pop\n      pop\n      jump\t// out\n        /* \"#utility.yul\":22285:22395   */\n    tag_190:\n        /* \"#utility.yul\":22352:22356   */\n      0x00\n        /* \"#utility.yul\":22384:22388   */\n      0x20\n        /* \"#utility.yul\":22379:22382   */\n      dup3\n        /* \"#utility.yul\":22375:22389   */\n      add\n        /* \"#utility.yul\":22367:22389   */\n      swap1\n      pop\n        /* \"#utility.yul\":22285:22395   */\n      swap2\n      swap1\n      pop\n      jump\t// out\n        /* \"#utility.yul\":22431:23115   */\n    tag_191:\n        /* \"#utility.yul\":22565:22616   */\n      tag_437\n        /* \"#utility.yul\":22610:22615   */\n      dup2\n        /* \"#utility.yul\":22565:22616   */\n      tag_185\n      jump\t// in\n    tag_437:\n        /* \"#utility.yul\":22632:22715   */\n      tag_438\n        /* \"#utility.yul\":22708:22714   */\n      dup2\n        /* \"#utility.yul\":22703:22706   */\n      dup5\n        /* \"#utility.yul\":22632:22715   */\n      tag_186\n      jump\t// in\n    tag_438:\n        /* \"#utility.yul\":22625:22715   */\n      swap3\n      pop\n        /* \"#utility.yul\":22739:22792   */\n      tag_439\n        /* \"#utility.yul\":22786:22791   */\n      dup3\n        /* \"#utility.yul\":22739:22792   */\n      tag_187\n      jump\t// in\n    tag_439:\n        /* \"#utility.yul\":22815:22822   */\n      dup1\n        /* \"#utility.yul\":22846:22847   */\n      0x00\n        /* \"#utility.yul\":22831:23108   */\n    tag_440:\n        /* \"#utility.yul\":22856:22862   */\n      dup4\n        /* \"#utility.yul\":22853:22854   */\n      dup2\n        /* \"#utility.yul\":22850:22863   */\n      lt\n        /* \"#utility.yul\":22831:23108   */\n      iszero\n      tag_442\n      jumpi\n        /* \"#utility.yul\":22932:22938   */\n      dup2\n        /* \"#utility.yul\":22926:22939   */\n      mload\n        /* \"#utility.yul\":22959:23018   */\n      tag_443\n        /* \"#utility.yul\":23014:23017   */\n      dup8\n        /* \"#utility.yul\":22999:23012   */\n      dup3\n        /* \"#utility.yul\":22959:23018   */\n      tag_189\n      jump\t// in\n    tag_443:\n        /* \"#utility.yul\":22952:23018   */\n      swap7\n      pop\n        /* \"#utility.yul\":23041:23098   */\n      tag_444\n        /* \"#utility.yul\":23091:23097   */\n      dup4\n        /* \"#utility.yul\":23041:23098   */\n      tag_190\n      jump\t// in\n    tag_444:\n        /* \"#utility.yul\":23031:23098   */\n      swap3\n      pop\n        /* \"#utility.yul\":22891:23108   */\n      pop\n        /* \"#utility.yul\":22878:22879   */\n      0x01\n        /* \"#utility.yul\":22875:22876   */\n      dup2\n        /* \"#utility.yul\":22871:22880   */\n      add\n        /* \"#utility.yul\":22866:22880   */\n      swap1\n      pop\n        /* \"#utility.yul\":22831:23108   */\n      jump(tag_440)\n    tag_442:\n        /* \"#utility.yul\":22835:22849   */\n      pop\n        /* \"#utility.yul\":22541:23115   */\n      pop\n      pop\n      pop\n        /* \"#utility.yul\":22431:23115   */\n      pop\n      pop\n      jump\t// out\n        /* \"#utility.yul\":23121:23749   */\n    tag_115:\n        /* \"#utility.yul\":23362:23366   */\n      0x00\n        /* \"#utility.yul\":23400:23403   */\n      0x02a0\n        /* \"#utility.yul\":23389:23398   */\n      dup3\n        /* \"#utility.yul\":23385:23404   */\n      add\n        /* \"#utility.yul\":23377:23404   */\n      swap1\n      pop\n        /* \"#utility.yul\":23414:23485   */\n      tag_446\n        /* \"#utility.yul\":23482:23483   */\n      0x00\n        /* \"#utility.yul\":23471:23480   */\n      dup4\n        /* \"#utility.yul\":23467:23484   */\n      add\n        /* \"#utility.yul\":23458:23464   */\n      dup7\n        /* \"#utility.yul\":23414:23485   */\n      tag_137\n      jump\t// in\n    tag_446:\n        /* \"#utility.yul\":23495:23615   */\n      tag_447\n        /* \"#utility.yul\":23611:23613   */\n      0x20\n        /* \"#utility.yul\":23600:23609   */\n      dup4\n        /* \"#utility.yul\":23596:23614   */\n      add\n        /* \"#utility.yul\":23587:23593   */\n      dup6\n        /* \"#utility.yul\":23495:23615   */\n      tag_184\n      jump\t// in\n    tag_447:\n        /* \"#utility.yul\":23625:23742   */\n      tag_448\n        /* \"#utility.yul\":23737:23740   */\n      0x0160\n        /* \"#utility.yul\":23726:23735   */\n      dup4\n        /* \"#utility.yul\":23722:23741   */\n      add\n        /* \"#utility.yul\":23713:23719   */\n      dup5\n        /* \"#utility.yul\":23625:23742   */\n      tag_191\n      jump\t// in\n    tag_448:\n        /* \"#utility.yul\":23121:23749   */\n      swap5\n      swap4\n      pop\n      pop\n      pop\n      pop\n      jump\t// out\n        /* \"#utility.yul\":23755:23936   */\n    tag_192:\n        /* \"#utility.yul\":23895:23928   */\n      0x5265656e7472616e637947756172643a207265656e7472616e742063616c6c00\n        /* \"#utility.yul\":23891:23892   */\n      0x00\n        /* \"#utility.yul\":23883:23889   */\n      dup3\n        /* \"#utility.yul\":23879:23893   */\n      add\n        /* \"#utility.yul\":23872:23929   */\n      mstore\n        /* \"#utility.yul\":23755:23936   */\n      pop\n      jump\t// out\n        /* \"#utility.yul\":23942:24308   */\n    tag_193:\n        /* \"#utility.yul\":24084:24087   */\n      0x00\n        /* \"#utility.yul\":24105:24172   */\n      tag_451\n        /* \"#utility.yul\":24169:24171   */\n      0x1f\n        /* \"#utility.yul\":24164:24167   */\n      dup4\n        /* \"#utility.yul\":24105:24172   */\n      tag_169\n      jump\t// in\n    tag_451:\n        /* \"#utility.yul\":24098:24172   */\n      swap2\n      pop\n        /* \"#utility.yul\":24181:24274   */\n      tag_452\n        /* \"#utility.yul\":24270:24273   */\n      dup3\n        /* \"#utility.yul\":24181:24274   */\n      tag_192\n      jump\t// in\n    tag_452:\n        /* \"#utility.yul\":24299:24301   */\n      0x20\n        /* \"#utility.yul\":24294:24297   */\n      dup3\n        /* \"#utility.yul\":24290:24302   */\n      add\n        /* \"#utility.yul\":24283:24302   */\n      swap1\n      pop\n        /* \"#utility.yul\":23942:24308   */\n      swap2\n      swap1\n      pop\n      jump\t// out\n        /* \"#utility.yul\":24314:24733   */\n    tag_121:\n        /* \"#utility.yul\":24480:24484   */\n      0x00\n        /* \"#utility.yul\":24518:24520   */\n      0x20\n        /* \"#utility.yul\":24507:24516   */\n      dup3\n        /* \"#utility.yul\":24503:24521   */\n      add\n        /* \"#utility.yul\":24495:24521   */\n      swap1\n      pop\n        /* \"#utility.yul\":24567:24576   */\n      dup2\n        /* \"#utility.yul\":24561:24565   */\n      dup2\n        /* \"#utility.yul\":24557:24577   */\n      sub\n        /* \"#utility.yul\":24553:24554   */\n      0x00\n        /* \"#utility.yul\":24542:24551   */\n      dup4\n        /* \"#utility.yul\":24538:24555   */\n      add\n        /* \"#utility.yul\":24531:24578   */\n      mstore\n        /* \"#utility.yul\":24595:24726   */\n      tag_454\n        /* \"#utility.yul\":24721:24725   */\n      dup2\n        /* \"#utility.yul\":24595:24726   */\n      tag_193\n      jump\t// in\n    tag_454:\n        /* \"#utility.yul\":24587:24726   */\n      swap1\n      pop\n        /* \"#utility.yul\":24314:24733   */\n      swap2\n      swap1\n      pop\n      jump\t// out\n\n    auxdata: 0xa26469706673582212204f7aa01c9caedba5a421e12ffa1801f12163a68b4b567d77ed7217efd9d0328364736f6c63430008110033\n}\n",
				"bytecode": {
					"linkReferences": {},
					"object": "6080604052600a600260146101000a81548160ff021916908360ff16021790555060006003556040518061014001604052807f33418cd1669b4e7f4bf473ec2db9a489b3d6f9f11b91d0b3b6004432ab53d60b81526020017f350ffb7c45ccf8940c163b192252495b614def57272b6f8d9a53a5b3e44ef8bd81526020017fc8acb7af851baf91a82b1ad46b01ac506ce80387170890dea377d21e8520258481526020017f5171d273154b2764aa5903210e16bd1899b18648d1358d41887a113227e9acc581526020017f986c06cb04d613f57cf7a1da410e0f22c794e1ec1ae125898cfc9662a5e5be5981526020017f6eb9a05106eff3031621027680204b2e9326b0e5191bd62f3cd7bf7f6d94d02781526020017fa1cbc8691493398c061f547b4882edbb6a38ce1730c8a2605e9d8138d4ad122681526020017f850aa72f3d8bc65181e9c29d76f7614e2f939ade9442abac29fc8a0329deeffd81526020017fe9c6f678752dbfc89028bf8b9b1cce608b34b742b75fbae878ec2c6ae803dc1e81526020017fa9e22c2e1f4531bc4389032bb472b97c25a7298d27ba4fefd75439a1be46f77f815250600890600a620001bd92919062000283565b50348015620001cb57600080fd5b506040516200188a3803806200188a8339818101604052810190620001f1919062000351565b600160008190555081600260006101000a81548173ffffffffffffffffffffffffffffffffffffffff021916908373ffffffffffffffffffffffffffffffffffffffff16021790555080600160006101000a81548173ffffffffffffffffffffffffffffffffffffffff021916908373ffffffffffffffffffffffffffffffffffffffff160217905550505062000398565b82600a8101928215620002b5579160200282015b82811115620002b457825182559160200191906001019062000297565b5b509050620002c49190620002c8565b5090565b5b80821115620002e3576000816000905550600101620002c9565b5090565b600080fd5b600073ffffffffffffffffffffffffffffffffffffffff82169050919050565b60006200031982620002ec565b9050919050565b6200032b816200030c565b81146200033757600080fd5b50565b6000815190506200034b8162000320565b92915050565b600080604083850312156200036b576200036a620002e7565b5b60006200037b858286016200033a565b92505060206200038e858286016200033a565b9150509250929050565b6114e280620003a86000396000f3fe608060405234801561001057600080fd5b50600436106100885760003560e01c80639e028a5d1161005b5780639e028a5d14610129578063b6b55f2514610159578063b8e7956414610175578063c2b40ae41461019357610088565b80631f79a1e91461008d5780632b7ac3f3146100bd57806345e0523f146100db57806349ce8997146100f9575b600080fd5b6100a760048036038101906100a291906108b2565b6101c3565b6040516100b491906108fa565b60405180910390f35b6100c56101e3565b6040516100d29190610994565b60405180910390f35b6100e3610209565b6040516100f091906109be565b60405180910390f35b610113600480360381019061010e91906108b2565b61020f565b60405161012091906108fa565b60405180910390f35b610143600480360381019061013e9190610bd1565b61022f565b60405161015091906108fa565b60405180910390f35b610173600480360381019061016e91906108b2565b610363565b005b61017d610779565b60405161018a9190610c56565b60405180910390f35b6101ad60048036038101906101a891906108b2565b61078c565b6040516101ba91906108fa565b60405180910390f35b60066020528060005260406000206000915054906101000a900460ff1681565b600160009054906101000a900473ffffffffffffffffffffffffffffffffffffffff1681565b60035481565b60076020528060005260406000206000915054906101000a900460ff1681565b6000808260006002811061024657610245610c71565b5b6020020151905060008360016002811061026357610262610c71565b5b602002015190506004600083815260200190815260200160002060009054906101000a900460ff1661029a5760009250505061035b565b6000600160009054906101000a900473ffffffffffffffffffffffffffffffffffffffff1673ffffffffffffffffffffffffffffffffffffffff1663f5c9d69e8989896040518060400160405280898152602001888152506040518563ffffffff1660e01b81526004016103119493929190610e49565b602060405180830381865afa15801561032e573d6000803e3d6000fd5b505050506040513d601f19601f820116820180604052508101906103529190610ebc565b90508093505050505b949350505050565b61036b6107ac565b6007600082815260200190815260200160002060009054906101000a900460ff16156103cc576040517f08c379a00000000000000000000000000000000000000000000000000000000081526004016103c390610f46565b60405180910390fd5b600260149054906101000a900460ff1660026103e891906110c8565b6003541061042b576040517f08c379a00000000000000000000000000000000000000000000000000000000081526004016104229061115f565b60405180910390fd5b6000610435610805565b61043d610828565b60006003549050600085905060008061045461084b565b60005b600260149054906101000a900460ff1660ff168160ff1610156106b557600060028761048391906111ae565b0361050c5784935060088160ff16600a81106104a2576104a1610c71565b5b0154925060088160ff16600a81106104bd576104bc610c71565b5b0154888260ff16600a81106104d5576104d4610c71565b5b6020020181815250506000878260ff16600a81106104f6576104f5610c71565b5b602002019060ff16908160ff168152505061058e565b600560008260ff1660ff168152602001908152602001600020549350849250600560008260ff1660ff16815260200190815260200160002054888260ff16600a811061055b5761055a610c71565b5b6020020181815250506001878260ff16600a811061057c5761057b610c71565b5b602002019060ff16908160ff16815250505b84600560008360ff1660ff1681526020019081526020016000208190555083826000600281106105c1576105c0610c71565b5b60200201818152505082826001600281106105df576105de610c71565b5b6020020181815250506000600260009054906101000a900473ffffffffffffffffffffffffffffffffffffffff1673ffffffffffffffffffffffffffffffffffffffff1663d622e5a4620249f0858e6040518463ffffffff1660e01b815260040161064b9291906111df565b6020604051808303818786fa158015610668573d6000803e3d6000fd5b50505050506040513d601f19601f8201168201806040525081019061068d919061121d565b905080955060028761069f919061124a565b96505080806106ad9061127b565b915050610457565b508397506001600460008a815260200190815260200160002060006101000a81548160ff0219169083151502179055506001600360008282546106f891906112a4565b925050819055506001600760008b815260200190815260200160002060006101000a81548160ff0219169083151502179055507fe6ab8667cb740d6c65a4ad321c031eb42f6c5085d5753238d1b2e1e370c1348388888860405161075e93929190611407565b60405180910390a150505050505050506107766107fb565b50565b600260149054906101000a900460ff1681565b60046020528060005260406000206000915054906101000a900460ff1681565b6002600054036107f1576040517f08c379a00000000000000000000000000000000000000000000000000000000081526004016107e89061148c565b60405180910390fd5b6002600081905550565b6001600081905550565b604051806101400160405280600a90602082028036833780820191505090505090565b604051806101400160405280600a90602082028036833780820191505090505090565b6040518060400160405280600290602082028036833780820191505090505090565b6000604051905090565b600080fd5b6000819050919050565b61088f8161087c565b811461089a57600080fd5b50565b6000813590506108ac81610886565b92915050565b6000602082840312156108c8576108c7610877565b5b60006108d68482850161089d565b91505092915050565b60008115159050919050565b6108f4816108df565b82525050565b600060208201905061090f60008301846108eb565b92915050565b600073ffffffffffffffffffffffffffffffffffffffff82169050919050565b6000819050919050565b600061095a61095561095084610915565b610935565b610915565b9050919050565b600061096c8261093f565b9050919050565b600061097e82610961565b9050919050565b61098e81610973565b82525050565b60006020820190506109a96000830184610985565b92915050565b6109b88161087c565b82525050565b60006020820190506109d360008301846109af565b92915050565b600080fd5b6000601f19601f8301169050919050565b7f4e487b7100000000000000000000000000000000000000000000000000000000600052604160045260246000fd5b610a27826109de565b810181811067ffffffffffffffff82111715610a4657610a456109ef565b5b80604052505050565b6000610a5961086d565b9050610a658282610a1e565b919050565b600067ffffffffffffffff821115610a8557610a846109ef565b5b602082029050919050565b600080fd5b6000610aa8610aa384610a6a565b610a4f565b90508060208402830185811115610ac257610ac1610a90565b5b835b81811015610aeb5780610ad7888261089d565b845260208401935050602081019050610ac4565b5050509392505050565b600082601f830112610b0a57610b096109d9565b5b6002610b17848285610a95565b91505092915050565b600067ffffffffffffffff821115610b3b57610b3a6109ef565b5b602082029050919050565b6000610b59610b5484610b20565b610a4f565b90508060408402830185811115610b7357610b72610a90565b5b835b81811015610b9c5780610b888882610af5565b845260208401935050604081019050610b75565b5050509392505050565b600082601f830112610bbb57610bba6109d9565b5b6002610bc8848285610b46565b91505092915050565b6000806000806101408587031215610bec57610beb610877565b5b6000610bfa87828801610af5565b9450506040610c0b87828801610ba6565b93505060c0610c1c87828801610af5565b925050610100610c2e87828801610af5565b91505092959194509250565b600060ff82169050919050565b610c5081610c3a565b82525050565b6000602082019050610c6b6000830184610c47565b92915050565b7f4e487b7100000000000000000000000000000000000000000000000000000000600052603260045260246000fd5b600060029050919050565b600081905092915050565b6000819050919050565b610cc98161087c565b82525050565b6000610cdb8383610cc0565b60208301905092915050565b6000602082019050919050565b610cfd81610ca0565b610d078184610cab565b9250610d1282610cb6565b8060005b83811015610d43578151610d2a8782610ccf565b9650610d3583610ce7565b925050600181019050610d16565b505050505050565b600060029050919050565b600081905092915050565b6000819050919050565b600081905092915050565b610d7f81610ca0565b610d898184610d6b565b9250610d9482610cb6565b8060005b83811015610dc5578151610dac8782610ccf565b9650610db783610ce7565b925050600181019050610d98565b505050505050565b6000610dd98383610d76565b60408301905092915050565b6000602082019050919050565b610dfb81610d4b565b610e058184610d56565b9250610e1082610d61565b8060005b83811015610e41578151610e288782610dcd565b9650610e3383610de5565b925050600181019050610e14565b505050505050565b600061014082019050610e5f6000830187610cf4565b610e6c6040830186610df2565b610e7960c0830185610cf4565b610e87610100830184610cf4565b95945050505050565b610e99816108df565b8114610ea457600080fd5b50565b600081519050610eb681610e90565b92915050565b600060208284031215610ed257610ed1610877565b5b6000610ee084828501610ea7565b91505092915050565b600082825260208201905092915050565b7f6578697374696e672d636f6d6d69746d656e7400000000000000000000000000600082015250565b6000610f30601383610ee9565b9150610f3b82610efa565b602082019050919050565b60006020820190508181036000830152610f5f81610f23565b9050919050565b7f4e487b7100000000000000000000000000000000000000000000000000000000600052601160045260246000fd5b60008160011c9050919050565b6000808291508390505b6001851115610fec57808604811115610fc857610fc7610f66565b5b6001851615610fd75780820291505b8081029050610fe585610f95565b9450610fac565b94509492505050565b60008261100557600190506110c1565b8161101357600090506110c1565b8160018114611029576002811461103357611062565b60019150506110c1565b60ff84111561104557611044610f66565b5b8360020a91508482111561105c5761105b610f66565b5b506110c1565b5060208310610133831016604e8410600b84101617156110975782820a90508381111561109257611091610f66565b5b6110c1565b6110a48484846001610fa2565b925090508184048111156110bb576110ba610f66565b5b81810290505b9392505050565b60006110d38261087c565b91506110de83610c3a565b925061110b7fffffffffffffffffffffffffffffffffffffffffffffffffffffffffffffffff8484610ff5565b905092915050565b7f747265652d66756c6c0000000000000000000000000000000000000000000000600082015250565b6000611149600983610ee9565b915061115482611113565b602082019050919050565b600060208201905081810360008301526111788161113c565b9050919050565b7f4e487b7100000000000000000000000000000000000000000000000000000000600052601260045260246000fd5b60006111b98261087c565b91506111c48361087c565b9250826111d4576111d361117f565b5b828206905092915050565b60006060820190506111f46000830185610cf4565b61120160408301846109af565b9392505050565b60008151905061121781610886565b92915050565b60006020828403121561123357611232610877565b5b600061124184828501611208565b91505092915050565b60006112558261087c565b91506112608361087c565b9250826112705761126f61117f565b5b828204905092915050565b600061128682610c3a565b915060ff820361129957611298610f66565b5b600182019050919050565b60006112af8261087c565b91506112ba8361087c565b92508282019050808211156112d2576112d1610f66565b5b92915050565b6000600a9050919050565b600081905092915050565b6000819050919050565b6000602082019050919050565b61130e816112d8565b61131881846112e3565b9250611323826112ee565b8060005b8381101561135457815161133b8782610ccf565b9650611346836112f8565b925050600181019050611327565b505050505050565b6000600a9050919050565b600081905092915050565b6000819050919050565b61138581610c3a565b82525050565b6000611397838361137c565b60208301905092915050565b6000602082019050919050565b6113b98161135c565b6113c38184611367565b92506113ce82611372565b8060005b838110156113ff5781516113e6878261138b565b96506113f1836113a3565b9250506001810190506113d2565b505050505050565b60006102a08201905061141d60008301866109af565b61142a6020830185611305565b6114386101608301846113b0565b949350505050565b7f5265656e7472616e637947756172643a207265656e7472616e742063616c6c00600082015250565b6000611476601f83610ee9565b915061148182611440565b602082019050919050565b600060208201905081810360008301526114a581611469565b905091905056fea26469706673582212204f7aa01c9caedba5a421e12ffa1801f12163a68b4b567d77ed7217efd9d0328364736f6c63430008110033",
					"opcodes": "PUSH1 0x80 PUSH1 0x40 MSTORE PUSH1 0xA PUSH1 0x2 PUSH1 0x14 PUSH2 0x100 EXP DUP2 SLOAD DUP2 PUSH1 0xFF MUL NOT AND SWAP1 DUP4 PUSH1 0xFF AND MUL OR SWAP1 SSTORE POP PUSH1 0x0 PUSH1 0x3 SSTORE PUSH1 0x40 MLOAD DUP1 PUSH2 0x140 ADD PUSH1 0x40 MSTORE DUP1 PUSH32 0x33418CD1669B4E7F4BF473EC2DB9A489B3D6F9F11B91D0B3B6004432AB53D60B DUP2 MSTORE PUSH1 0x20 ADD PUSH32 0x350FFB7C45CCF8940C163B192252495B614DEF57272B6F8D9A53A5B3E44EF8BD DUP2 MSTORE PUSH1 0x20 ADD PUSH32 0xC8ACB7AF851BAF91A82B1AD46B01AC506CE80387170890DEA377D21E85202584 DUP2 MSTORE PUSH1 0x20 ADD PUSH32 0x5171D273154B2764AA5903210E16BD1899B18648D1358D41887A113227E9ACC5 DUP2 MSTORE PUSH1 0x20 ADD PUSH32 0x986C06CB04D613F57CF7A1DA410E0F22C794E1EC1AE125898CFC9662A5E5BE59 DUP2 MSTORE PUSH1 0x20 ADD PUSH32 0x6EB9A05106EFF3031621027680204B2E9326B0E5191BD62F3CD7BF7F6D94D027 DUP2 MSTORE PUSH1 0x20 ADD PUSH32 0xA1CBC8691493398C061F547B4882EDBB6A38CE1730C8A2605E9D8138D4AD1226 DUP2 MSTORE PUSH1 0x20 ADD PUSH32 0x850AA72F3D8BC65181E9C29D76F7614E2F939ADE9442ABAC29FC8A0329DEEFFD DUP2 MSTORE PUSH1 0x20 ADD PUSH32 0xE9C6F678752DBFC89028BF8B9B1CCE608B34B742B75FBAE878EC2C6AE803DC1E DUP2 MSTORE PUSH1 0x20 ADD PUSH32 0xA9E22C2E1F4531BC4389032BB472B97C25A7298D27BA4FEFD75439A1BE46F77F DUP2 MSTORE POP PUSH1 0x8 SWAP1 PUSH1 0xA PUSH3 0x1BD SWAP3 SWAP2 SWAP1 PUSH3 0x283 JUMP JUMPDEST POP CALLVALUE DUP1 ISZERO PUSH3 0x1CB JUMPI PUSH1 0x0 DUP1 REVERT JUMPDEST POP PUSH1 0x40 MLOAD PUSH3 0x188A CODESIZE SUB DUP1 PUSH3 0x188A DUP4 CODECOPY DUP2 DUP2 ADD PUSH1 0x40 MSTORE DUP2 ADD SWAP1 PUSH3 0x1F1 SWAP2 SWAP1 PUSH3 0x351 JUMP JUMPDEST PUSH1 0x1 PUSH1 0x0 DUP2 SWAP1 SSTORE POP DUP2 PUSH1 0x2 PUSH1 0x0 PUSH2 0x100 EXP DUP2 SLOAD DUP2 PUSH20 0xFFFFFFFFFFFFFFFFFFFFFFFFFFFFFFFFFFFFFFFF MUL NOT AND SWAP1 DUP4 PUSH20 0xFFFFFFFFFFFFFFFFFFFFFFFFFFFFFFFFFFFFFFFF AND MUL OR SWAP1 SSTORE POP DUP1 PUSH1 0x1 PUSH1 0x0 PUSH2 0x100 EXP DUP2 SLOAD DUP2 PUSH20 0xFFFFFFFFFFFFFFFFFFFFFFFFFFFFFFFFFFFFFFFF MUL NOT AND SWAP1 DUP4 PUSH20 0xFFFFFFFFFFFFFFFFFFFFFFFFFFFFFFFFFFFFFFFF AND MUL OR SWAP1 SSTORE POP POP POP PUSH3 0x398 JUMP JUMPDEST DUP3 PUSH1 0xA DUP2 ADD SWAP3 DUP3 ISZERO PUSH3 0x2B5 JUMPI SWAP2 PUSH1 0x20 MUL DUP3 ADD JUMPDEST DUP3 DUP2 GT ISZERO PUSH3 0x2B4 JUMPI DUP3 MLOAD DUP3 SSTORE SWAP2 PUSH1 0x20 ADD SWAP2 SWAP1 PUSH1 0x1 ADD SWAP1 PUSH3 0x297 JUMP JUMPDEST JUMPDEST POP SWAP1 POP PUSH3 0x2C4 SWAP2 SWAP1 PUSH3 0x2C8 JUMP JUMPDEST POP SWAP1 JUMP JUMPDEST JUMPDEST DUP1 DUP3 GT ISZERO PUSH3 0x2E3 JUMPI PUSH1 0x0 DUP2 PUSH1 0x0 SWAP1 SSTORE POP PUSH1 0x1 ADD PUSH3 0x2C9 JUMP JUMPDEST POP SWAP1 JUMP JUMPDEST PUSH1 0x0 DUP1 REVERT JUMPDEST PUSH1 0x0 PUSH20 0xFFFFFFFFFFFFFFFFFFFFFFFFFFFFFFFFFFFFFFFF DUP3 AND SWAP1 POP SWAP2 SWAP1 POP JUMP JUMPDEST PUSH1 0x0 PUSH3 0x319 DUP3 PUSH3 0x2EC JUMP JUMPDEST SWAP1 POP SWAP2 SWAP1 POP JUMP JUMPDEST PUSH3 0x32B DUP2 PUSH3 0x30C JUMP JUMPDEST DUP2 EQ PUSH3 0x337 JUMPI PUSH1 0x0 DUP1 REVERT JUMPDEST POP JUMP JUMPDEST PUSH1 0x0 DUP2 MLOAD SWAP1 POP PUSH3 0x34B DUP2 PUSH3 0x320 JUMP JUMPDEST SWAP3 SWAP2 POP POP JUMP JUMPDEST PUSH1 0x0 DUP1 PUSH1 0x40 DUP4 DUP6 SUB SLT ISZERO PUSH3 0x36B JUMPI PUSH3 0x36A PUSH3 0x2E7 JUMP JUMPDEST JUMPDEST PUSH1 0x0 PUSH3 0x37B DUP6 DUP3 DUP7 ADD PUSH3 0x33A JUMP JUMPDEST SWAP3 POP POP PUSH1 0x20 PUSH3 0x38E DUP6 DUP3 DUP7 ADD PUSH3 0x33A JUMP JUMPDEST SWAP2 POP POP SWAP3 POP SWAP3 SWAP1 POP JUMP JUMPDEST PUSH2 0x14E2 DUP1 PUSH3 0x3A8 PUSH1 0x0 CODECOPY PUSH1 0x0 RETURN INVALID PUSH1 0x80 PUSH1 0x40 MSTORE CALLVALUE DUP1 ISZERO PUSH2 0x10 JUMPI PUSH1 0x0 DUP1 REVERT JUMPDEST POP PUSH1 0x4 CALLDATASIZE LT PUSH2 0x88 JUMPI PUSH1 0x0 CALLDATALOAD PUSH1 0xE0 SHR DUP1 PUSH4 0x9E028A5D GT PUSH2 0x5B JUMPI DUP1 PUSH4 0x9E028A5D EQ PUSH2 0x129 JUMPI DUP1 PUSH4 0xB6B55F25 EQ PUSH2 0x159 JUMPI DUP1 PUSH4 0xB8E79564 EQ PUSH2 0x175 JUMPI DUP1 PUSH4 0xC2B40AE4 EQ PUSH2 0x193 JUMPI PUSH2 0x88 JUMP JUMPDEST DUP1 PUSH4 0x1F79A1E9 EQ PUSH2 0x8D JUMPI DUP1 PUSH4 0x2B7AC3F3 EQ PUSH2 0xBD JUMPI DUP1 PUSH4 0x45E0523F EQ PUSH2 0xDB JUMPI DUP1 PUSH4 0x49CE8997 EQ PUSH2 0xF9 JUMPI JUMPDEST PUSH1 0x0 DUP1 REVERT JUMPDEST PUSH2 0xA7 PUSH1 0x4 DUP1 CALLDATASIZE SUB DUP2 ADD SWAP1 PUSH2 0xA2 SWAP2 SWAP1 PUSH2 0x8B2 JUMP JUMPDEST PUSH2 0x1C3 JUMP JUMPDEST PUSH1 0x40 MLOAD PUSH2 0xB4 SWAP2 SWAP1 PUSH2 0x8FA JUMP JUMPDEST PUSH1 0x40 MLOAD DUP1 SWAP2 SUB SWAP1 RETURN JUMPDEST PUSH2 0xC5 PUSH2 0x1E3 JUMP JUMPDEST PUSH1 0x40 MLOAD PUSH2 0xD2 SWAP2 SWAP1 PUSH2 0x994 JUMP JUMPDEST PUSH1 0x40 MLOAD DUP1 SWAP2 SUB SWAP1 RETURN JUMPDEST PUSH2 0xE3 PUSH2 0x209 JUMP JUMPDEST PUSH1 0x40 MLOAD PUSH2 0xF0 SWAP2 SWAP1 PUSH2 0x9BE JUMP JUMPDEST PUSH1 0x40 MLOAD DUP1 SWAP2 SUB SWAP1 RETURN JUMPDEST PUSH2 0x113 PUSH1 0x4 DUP1 CALLDATASIZE SUB DUP2 ADD SWAP1 PUSH2 0x10E SWAP2 SWAP1 PUSH2 0x8B2 JUMP JUMPDEST PUSH2 0x20F JUMP JUMPDEST PUSH1 0x40 MLOAD PUSH2 0x120 SWAP2 SWAP1 PUSH2 0x8FA JUMP JUMPDEST PUSH1 0x40 MLOAD DUP1 SWAP2 SUB SWAP1 RETURN JUMPDEST PUSH2 0x143 PUSH1 0x4 DUP1 CALLDATASIZE SUB DUP2 ADD SWAP1 PUSH2 0x13E SWAP2 SWAP1 PUSH2 0xBD1 JUMP JUMPDEST PUSH2 0x22F JUMP JUMPDEST PUSH1 0x40 MLOAD PUSH2 0x150 SWAP2 SWAP1 PUSH2 0x8FA JUMP JUMPDEST PUSH1 0x40 MLOAD DUP1 SWAP2 SUB SWAP1 RETURN JUMPDEST PUSH2 0x173 PUSH1 0x4 DUP1 CALLDATASIZE SUB DUP2 ADD SWAP1 PUSH2 0x16E SWAP2 SWAP1 PUSH2 0x8B2 JUMP JUMPDEST PUSH2 0x363 JUMP JUMPDEST STOP JUMPDEST PUSH2 0x17D PUSH2 0x779 JUMP JUMPDEST PUSH1 0x40 MLOAD PUSH2 0x18A SWAP2 SWAP1 PUSH2 0xC56 JUMP JUMPDEST PUSH1 0x40 MLOAD DUP1 SWAP2 SUB SWAP1 RETURN JUMPDEST PUSH2 0x1AD PUSH1 0x4 DUP1 CALLDATASIZE SUB DUP2 ADD SWAP1 PUSH2 0x1A8 SWAP2 SWAP1 PUSH2 0x8B2 JUMP JUMPDEST PUSH2 0x78C JUMP JUMPDEST PUSH1 0x40 MLOAD PUSH2 0x1BA SWAP2 SWAP1 PUSH2 0x8FA JUMP JUMPDEST PUSH1 0x40 MLOAD DUP1 SWAP2 SUB SWAP1 RETURN JUMPDEST PUSH1 0x6 PUSH1 0x20 MSTORE DUP1 PUSH1 0x0 MSTORE PUSH1 0x40 PUSH1 0x0 KECCAK256 PUSH1 0x0 SWAP2 POP SLOAD SWAP1 PUSH2 0x100 EXP SWAP1 DIV PUSH1 0xFF AND DUP2 JUMP JUMPDEST PUSH1 0x1 PUSH1 0x0 SWAP1 SLOAD SWAP1 PUSH2 0x100 EXP SWAP1 DIV PUSH20 0xFFFFFFFFFFFFFFFFFFFFFFFFFFFFFFFFFFFFFFFF AND DUP2 JUMP JUMPDEST PUSH1 0x3 SLOAD DUP2 JUMP JUMPDEST PUSH1 0x7 PUSH1 0x20 MSTORE DUP1 PUSH1 0x0 MSTORE PUSH1 0x40 PUSH1 0x0 KECCAK256 PUSH1 0x0 SWAP2 POP SLOAD SWAP1 PUSH2 0x100 EXP SWAP1 DIV PUSH1 0xFF AND DUP2 JUMP JUMPDEST PUSH1 0x0 DUP1 DUP3 PUSH1 0x0 PUSH1 0x2 DUP2 LT PUSH2 0x246 JUMPI PUSH2 0x245 PUSH2 0xC71 JUMP JUMPDEST JUMPDEST PUSH1 0x20 MUL ADD MLOAD SWAP1 POP PUSH1 0x0 DUP4 PUSH1 0x1 PUSH1 0x2 DUP2 LT PUSH2 0x263 JUMPI PUSH2 0x262 PUSH2 0xC71 JUMP JUMPDEST JUMPDEST PUSH1 0x20 MUL ADD MLOAD SWAP1 POP PUSH1 0x4 PUSH1 0x0 DUP4 DUP2 MSTORE PUSH1 0x20 ADD SWAP1 DUP2 MSTORE PUSH1 0x20 ADD PUSH1 0x0 KECCAK256 PUSH1 0x0 SWAP1 SLOAD SWAP1 PUSH2 0x100 EXP SWAP1 DIV PUSH1 0xFF AND PUSH2 0x29A JUMPI PUSH1 0x0 SWAP3 POP POP POP PUSH2 0x35B JUMP JUMPDEST PUSH1 0x0 PUSH1 0x1 PUSH1 0x0 SWAP1 SLOAD SWAP1 PUSH2 0x100 EXP SWAP1 DIV PUSH20 0xFFFFFFFFFFFFFFFFFFFFFFFFFFFFFFFFFFFFFFFF AND PUSH20 0xFFFFFFFFFFFFFFFFFFFFFFFFFFFFFFFFFFFFFFFF AND PUSH4 0xF5C9D69E DUP10 DUP10 DUP10 PUSH1 0x40 MLOAD DUP1 PUSH1 0x40 ADD PUSH1 0x40 MSTORE DUP1 DUP10 DUP2 MSTORE PUSH1 0x20 ADD DUP9 DUP2 MSTORE POP PUSH1 0x40 MLOAD DUP6 PUSH4 0xFFFFFFFF AND PUSH1 0xE0 SHL DUP2 MSTORE PUSH1 0x4 ADD PUSH2 0x311 SWAP5 SWAP4 SWAP3 SWAP2 SWAP1 PUSH2 0xE49 JUMP JUMPDEST PUSH1 0x20 PUSH1 0x40 MLOAD DUP1 DUP4 SUB DUP2 DUP7 GAS STATICCALL ISZERO DUP1 ISZERO PUSH2 0x32E JUMPI RETURNDATASIZE PUSH1 0x0 DUP1 RETURNDATACOPY RETURNDATASIZE PUSH1 0x0 REVERT JUMPDEST POP POP POP POP PUSH1 0x40 MLOAD RETURNDATASIZE PUSH1 0x1F NOT PUSH1 0x1F DUP3 ADD AND DUP3 ADD DUP1 PUSH1 0x40 MSTORE POP DUP2 ADD SWAP1 PUSH2 0x352 SWAP2 SWAP1 PUSH2 0xEBC JUMP JUMPDEST SWAP1 POP DUP1 SWAP4 POP POP POP POP JUMPDEST SWAP5 SWAP4 POP POP POP POP JUMP JUMPDEST PUSH2 0x36B PUSH2 0x7AC JUMP JUMPDEST PUSH1 0x7 PUSH1 0x0 DUP3 DUP2 MSTORE PUSH1 0x20 ADD SWAP1 DUP2 MSTORE PUSH1 0x20 ADD PUSH1 0x0 KECCAK256 PUSH1 0x0 SWAP1 SLOAD SWAP1 PUSH2 0x100 EXP SWAP1 DIV PUSH1 0xFF AND ISZERO PUSH2 0x3CC JUMPI PUSH1 0x40 MLOAD PUSH32 0x8C379A000000000000000000000000000000000000000000000000000000000 DUP2 MSTORE PUSH1 0x4 ADD PUSH2 0x3C3 SWAP1 PUSH2 0xF46 JUMP JUMPDEST PUSH1 0x40 MLOAD DUP1 SWAP2 SUB SWAP1 REVERT JUMPDEST PUSH1 0x2 PUSH1 0x14 SWAP1 SLOAD SWAP1 PUSH2 0x100 EXP SWAP1 DIV PUSH1 0xFF AND PUSH1 0x2 PUSH2 0x3E8 SWAP2 SWAP1 PUSH2 0x10C8 JUMP JUMPDEST PUSH1 0x3 SLOAD LT PUSH2 0x42B JUMPI PUSH1 0x40 MLOAD PUSH32 0x8C379A000000000000000000000000000000000000000000000000000000000 DUP2 MSTORE PUSH1 0x4 ADD PUSH2 0x422 SWAP1 PUSH2 0x115F JUMP JUMPDEST PUSH1 0x40 MLOAD DUP1 SWAP2 SUB SWAP1 REVERT JUMPDEST PUSH1 0x0 PUSH2 0x435 PUSH2 0x805 JUMP JUMPDEST PUSH2 0x43D PUSH2 0x828 JUMP JUMPDEST PUSH1 0x0 PUSH1 0x3 SLOAD SWAP1 POP PUSH1 0x0 DUP6 SWAP1 POP PUSH1 0x0 DUP1 PUSH2 0x454 PUSH2 0x84B JUMP JUMPDEST PUSH1 0x0 JUMPDEST PUSH1 0x2 PUSH1 0x14 SWAP1 SLOAD SWAP1 PUSH2 0x100 EXP SWAP1 DIV PUSH1 0xFF AND PUSH1 0xFF AND DUP2 PUSH1 0xFF AND LT ISZERO PUSH2 0x6B5 JUMPI PUSH1 0x0 PUSH1 0x2 DUP8 PUSH2 0x483 SWAP2 SWAP1 PUSH2 0x11AE JUMP JUMPDEST SUB PUSH2 0x50C JUMPI DUP5 SWAP4 POP PUSH1 0x8 DUP2 PUSH1 0xFF AND PUSH1 0xA DUP2 LT PUSH2 0x4A2 JUMPI PUSH2 0x4A1 PUSH2 0xC71 JUMP JUMPDEST JUMPDEST ADD SLOAD SWAP3 POP PUSH1 0x8 DUP2 PUSH1 0xFF AND PUSH1 0xA DUP2 LT PUSH2 0x4BD JUMPI PUSH2 0x4BC PUSH2 0xC71 JUMP JUMPDEST JUMPDEST ADD SLOAD DUP9 DUP3 PUSH1 0xFF AND PUSH1 0xA DUP2 LT PUSH2 0x4D5 JUMPI PUSH2 0x4D4 PUSH2 0xC71 JUMP JUMPDEST JUMPDEST PUSH1 0x20 MUL ADD DUP2 DUP2 MSTORE POP POP PUSH1 0x0 DUP8 DUP3 PUSH1 0xFF AND PUSH1 0xA DUP2 LT PUSH2 0x4F6 JUMPI PUSH2 0x4F5 PUSH2 0xC71 JUMP JUMPDEST JUMPDEST PUSH1 0x20 MUL ADD SWAP1 PUSH1 0xFF AND SWAP1 DUP2 PUSH1 0xFF AND DUP2 MSTORE POP POP PUSH2 0x58E JUMP JUMPDEST PUSH1 0x5 PUSH1 0x0 DUP3 PUSH1 0xFF AND PUSH1 0xFF AND DUP2 MSTORE PUSH1 0x20 ADD SWAP1 DUP2 MSTORE PUSH1 0x20 ADD PUSH1 0x0 KECCAK256 SLOAD SWAP4 POP DUP5 SWAP3 POP PUSH1 0x5 PUSH1 0x0 DUP3 PUSH1 0xFF AND PUSH1 0xFF AND DUP2 MSTORE PUSH1 0x20 ADD SWAP1 DUP2 MSTORE PUSH1 0x20 ADD PUSH1 0x0 KECCAK256 SLOAD DUP9 DUP3 PUSH1 0xFF AND PUSH1 0xA DUP2 LT PUSH2 0x55B JUMPI PUSH2 0x55A PUSH2 0xC71 JUMP JUMPDEST JUMPDEST PUSH1 0x20 MUL ADD DUP2 DUP2 MSTORE POP POP PUSH1 0x1 DUP8 DUP3 PUSH1 0xFF AND PUSH1 0xA DUP2 LT PUSH2 0x57C JUMPI PUSH2 0x57B PUSH2 0xC71 JUMP JUMPDEST JUMPDEST PUSH1 0x20 MUL ADD SWAP1 PUSH1 0xFF AND SWAP1 DUP2 PUSH1 0xFF AND DUP2 MSTORE POP POP JUMPDEST DUP5 PUSH1 0x5 PUSH1 0x0 DUP4 PUSH1 0xFF AND PUSH1 0xFF AND DUP2 MSTORE PUSH1 0x20 ADD SWAP1 DUP2 MSTORE PUSH1 0x20 ADD PUSH1 0x0 KECCAK256 DUP2 SWAP1 SSTORE POP DUP4 DUP3 PUSH1 0x0 PUSH1 0x2 DUP2 LT PUSH2 0x5C1 JUMPI PUSH2 0x5C0 PUSH2 0xC71 JUMP JUMPDEST JUMPDEST PUSH1 0x20 MUL ADD DUP2 DUP2 MSTORE POP POP DUP3 DUP3 PUSH1 0x1 PUSH1 0x2 DUP2 LT PUSH2 0x5DF JUMPI PUSH2 0x5DE PUSH2 0xC71 JUMP JUMPDEST JUMPDEST PUSH1 0x20 MUL ADD DUP2 DUP2 MSTORE POP POP PUSH1 0x0 PUSH1 0x2 PUSH1 0x0 SWAP1 SLOAD SWAP1 PUSH2 0x100 EXP SWAP1 DIV PUSH20 0xFFFFFFFFFFFFFFFFFFFFFFFFFFFFFFFFFFFFFFFF AND PUSH20 0xFFFFFFFFFFFFFFFFFFFFFFFFFFFFFFFFFFFFFFFF AND PUSH4 0xD622E5A4 PUSH3 0x249F0 DUP6 DUP15 PUSH1 0x40 MLOAD DUP5 PUSH4 0xFFFFFFFF AND PUSH1 0xE0 SHL DUP2 MSTORE PUSH1 0x4 ADD PUSH2 0x64B SWAP3 SWAP2 SWAP1 PUSH2 0x11DF JUMP JUMPDEST PUSH1 0x20 PUSH1 0x40 MLOAD DUP1 DUP4 SUB DUP2 DUP8 DUP7 STATICCALL ISZERO DUP1 ISZERO PUSH2 0x668 JUMPI RETURNDATASIZE PUSH1 0x0 DUP1 RETURNDATACOPY RETURNDATASIZE PUSH1 0x0 REVERT JUMPDEST POP POP POP POP POP PUSH1 0x40 MLOAD RETURNDATASIZE PUSH1 0x1F NOT PUSH1 0x1F DUP3 ADD AND DUP3 ADD DUP1 PUSH1 0x40 MSTORE POP DUP2 ADD SWAP1 PUSH2 0x68D SWAP2 SWAP1 PUSH2 0x121D JUMP JUMPDEST SWAP1 POP DUP1 SWAP6 POP PUSH1 0x2 DUP8 PUSH2 0x69F SWAP2 SWAP1 PUSH2 0x124A JUMP JUMPDEST SWAP7 POP POP DUP1 DUP1 PUSH2 0x6AD SWAP1 PUSH2 0x127B JUMP JUMPDEST SWAP2 POP POP PUSH2 0x457 JUMP JUMPDEST POP DUP4 SWAP8 POP PUSH1 0x1 PUSH1 0x4 PUSH1 0x0 DUP11 DUP2 MSTORE PUSH1 0x20 ADD SWAP1 DUP2 MSTORE PUSH1 0x20 ADD PUSH1 0x0 KECCAK256 PUSH1 0x0 PUSH2 0x100 EXP DUP2 SLOAD DUP2 PUSH1 0xFF MUL NOT AND SWAP1 DUP4 ISZERO ISZERO MUL OR SWAP1 SSTORE POP PUSH1 0x1 PUSH1 0x3 PUSH1 0x0 DUP3 DUP3 SLOAD PUSH2 0x6F8 SWAP2 SWAP1 PUSH2 0x12A4 JUMP JUMPDEST SWAP3 POP POP DUP2 SWAP1 SSTORE POP PUSH1 0x1 PUSH1 0x7 PUSH1 0x0 DUP12 DUP2 MSTORE PUSH1 0x20 ADD SWAP1 DUP2 MSTORE PUSH1 0x20 ADD PUSH1 0x0 KECCAK256 PUSH1 0x0 PUSH2 0x100 EXP DUP2 SLOAD DUP2 PUSH1 0xFF MUL NOT AND SWAP1 DUP4 ISZERO ISZERO MUL OR SWAP1 SSTORE POP PUSH32 0xE6AB8667CB740D6C65A4AD321C031EB42F6C5085D5753238D1B2E1E370C13483 DUP9 DUP9 DUP9 PUSH1 0x40 MLOAD PUSH2 0x75E SWAP4 SWAP3 SWAP2 SWAP1 PUSH2 0x1407 JUMP JUMPDEST PUSH1 0x40 MLOAD DUP1 SWAP2 SUB SWAP1 LOG1 POP POP POP POP POP POP POP POP PUSH2 0x776 PUSH2 0x7FB JUMP JUMPDEST POP JUMP JUMPDEST PUSH1 0x2 PUSH1 0x14 SWAP1 SLOAD SWAP1 PUSH2 0x100 EXP SWAP1 DIV PUSH1 0xFF AND DUP2 JUMP JUMPDEST PUSH1 0x4 PUSH1 0x20 MSTORE DUP1 PUSH1 0x0 MSTORE PUSH1 0x40 PUSH1 0x0 KECCAK256 PUSH1 0x0 SWAP2 POP SLOAD SWAP1 PUSH2 0x100 EXP SWAP1 DIV PUSH1 0xFF AND DUP2 JUMP JUMPDEST PUSH1 0x2 PUSH1 0x0 SLOAD SUB PUSH2 0x7F1 JUMPI PUSH1 0x40 MLOAD PUSH32 0x8C379A000000000000000000000000000000000000000000000000000000000 DUP2 MSTORE PUSH1 0x4 ADD PUSH2 0x7E8 SWAP1 PUSH2 0x148C JUMP JUMPDEST PUSH1 0x40 MLOAD DUP1 SWAP2 SUB SWAP1 REVERT JUMPDEST PUSH1 0x2 PUSH1 0x0 DUP2 SWAP1 SSTORE POP JUMP JUMPDEST PUSH1 0x1 PUSH1 0x0 DUP2 SWAP1 SSTORE POP JUMP JUMPDEST PUSH1 0x40 MLOAD DUP1 PUSH2 0x140 ADD PUSH1 0x40 MSTORE DUP1 PUSH1 0xA SWAP1 PUSH1 0x20 DUP3 MUL DUP1 CALLDATASIZE DUP4 CALLDATACOPY DUP1 DUP3 ADD SWAP2 POP POP SWAP1 POP POP SWAP1 JUMP JUMPDEST PUSH1 0x40 MLOAD DUP1 PUSH2 0x140 ADD PUSH1 0x40 MSTORE DUP1 PUSH1 0xA SWAP1 PUSH1 0x20 DUP3 MUL DUP1 CALLDATASIZE DUP4 CALLDATACOPY DUP1 DUP3 ADD SWAP2 POP POP SWAP1 POP POP SWAP1 JUMP JUMPDEST PUSH1 0x40 MLOAD DUP1 PUSH1 0x40 ADD PUSH1 0x40 MSTORE DUP1 PUSH1 0x2 SWAP1 PUSH1 0x20 DUP3 MUL DUP1 CALLDATASIZE DUP4 CALLDATACOPY DUP1 DUP3 ADD SWAP2 POP POP SWAP1 POP POP SWAP1 JUMP JUMPDEST PUSH1 0x0 PUSH1 0x40 MLOAD SWAP1 POP SWAP1 JUMP JUMPDEST PUSH1 0x0 DUP1 REVERT JUMPDEST PUSH1 0x0 DUP2 SWAP1 POP SWAP2 SWAP1 POP JUMP JUMPDEST PUSH2 0x88F DUP2 PUSH2 0x87C JUMP JUMPDEST DUP2 EQ PUSH2 0x89A JUMPI PUSH1 0x0 DUP1 REVERT JUMPDEST POP JUMP JUMPDEST PUSH1 0x0 DUP2 CALLDATALOAD SWAP1 POP PUSH2 0x8AC DUP2 PUSH2 0x886 JUMP JUMPDEST SWAP3 SWAP2 POP POP JUMP JUMPDEST PUSH1 0x0 PUSH1 0x20 DUP3 DUP5 SUB SLT ISZERO PUSH2 0x8C8 JUMPI PUSH2 0x8C7 PUSH2 0x877 JUMP JUMPDEST JUMPDEST PUSH1 0x0 PUSH2 0x8D6 DUP5 DUP3 DUP6 ADD PUSH2 0x89D JUMP JUMPDEST SWAP2 POP POP SWAP3 SWAP2 POP POP JUMP JUMPDEST PUSH1 0x0 DUP2 ISZERO ISZERO SWAP1 POP SWAP2 SWAP1 POP JUMP JUMPDEST PUSH2 0x8F4 DUP2 PUSH2 0x8DF JUMP JUMPDEST DUP3 MSTORE POP POP JUMP JUMPDEST PUSH1 0x0 PUSH1 0x20 DUP3 ADD SWAP1 POP PUSH2 0x90F PUSH1 0x0 DUP4 ADD DUP5 PUSH2 0x8EB JUMP JUMPDEST SWAP3 SWAP2 POP POP JUMP JUMPDEST PUSH1 0x0 PUSH20 0xFFFFFFFFFFFFFFFFFFFFFFFFFFFFFFFFFFFFFFFF DUP3 AND SWAP1 POP SWAP2 SWAP1 POP JUMP JUMPDEST PUSH1 0x0 DUP2 SWAP1 POP SWAP2 SWAP1 POP JUMP JUMPDEST PUSH1 0x0 PUSH2 0x95A PUSH2 0x955 PUSH2 0x950 DUP5 PUSH2 0x915 JUMP JUMPDEST PUSH2 0x935 JUMP JUMPDEST PUSH2 0x915 JUMP JUMPDEST SWAP1 POP SWAP2 SWAP1 POP JUMP JUMPDEST PUSH1 0x0 PUSH2 0x96C DUP3 PUSH2 0x93F JUMP JUMPDEST SWAP1 POP SWAP2 SWAP1 POP JUMP JUMPDEST PUSH1 0x0 PUSH2 0x97E DUP3 PUSH2 0x961 JUMP JUMPDEST SWAP1 POP SWAP2 SWAP1 POP JUMP JUMPDEST PUSH2 0x98E DUP2 PUSH2 0x973 JUMP JUMPDEST DUP3 MSTORE POP POP JUMP JUMPDEST PUSH1 0x0 PUSH1 0x20 DUP3 ADD SWAP1 POP PUSH2 0x9A9 PUSH1 0x0 DUP4 ADD DUP5 PUSH2 0x985 JUMP JUMPDEST SWAP3 SWAP2 POP POP JUMP JUMPDEST PUSH2 0x9B8 DUP2 PUSH2 0x87C JUMP JUMPDEST DUP3 MSTORE POP POP JUMP JUMPDEST PUSH1 0x0 PUSH1 0x20 DUP3 ADD SWAP1 POP PUSH2 0x9D3 PUSH1 0x0 DUP4 ADD DUP5 PUSH2 0x9AF JUMP JUMPDEST SWAP3 SWAP2 POP POP JUMP JUMPDEST PUSH1 0x0 DUP1 REVERT JUMPDEST PUSH1 0x0 PUSH1 0x1F NOT PUSH1 0x1F DUP4 ADD AND SWAP1 POP SWAP2 SWAP1 POP JUMP JUMPDEST PUSH32 0x4E487B7100000000000000000000000000000000000000000000000000000000 PUSH1 0x0 MSTORE PUSH1 0x41 PUSH1 0x4 MSTORE PUSH1 0x24 PUSH1 0x0 REVERT JUMPDEST PUSH2 0xA27 DUP3 PUSH2 0x9DE JUMP JUMPDEST DUP2 ADD DUP2 DUP2 LT PUSH8 0xFFFFFFFFFFFFFFFF DUP3 GT OR ISZERO PUSH2 0xA46 JUMPI PUSH2 0xA45 PUSH2 0x9EF JUMP JUMPDEST JUMPDEST DUP1 PUSH1 0x40 MSTORE POP POP POP JUMP JUMPDEST PUSH1 0x0 PUSH2 0xA59 PUSH2 0x86D JUMP JUMPDEST SWAP1 POP PUSH2 0xA65 DUP3 DUP3 PUSH2 0xA1E JUMP JUMPDEST SWAP2 SWAP1 POP JUMP JUMPDEST PUSH1 0x0 PUSH8 0xFFFFFFFFFFFFFFFF DUP3 GT ISZERO PUSH2 0xA85 JUMPI PUSH2 0xA84 PUSH2 0x9EF JUMP JUMPDEST JUMPDEST PUSH1 0x20 DUP3 MUL SWAP1 POP SWAP2 SWAP1 POP JUMP JUMPDEST PUSH1 0x0 DUP1 REVERT JUMPDEST PUSH1 0x0 PUSH2 0xAA8 PUSH2 0xAA3 DUP5 PUSH2 0xA6A JUMP JUMPDEST PUSH2 0xA4F JUMP JUMPDEST SWAP1 POP DUP1 PUSH1 0x20 DUP5 MUL DUP4 ADD DUP6 DUP2 GT ISZERO PUSH2 0xAC2 JUMPI PUSH2 0xAC1 PUSH2 0xA90 JUMP JUMPDEST JUMPDEST DUP4 JUMPDEST DUP2 DUP2 LT ISZERO PUSH2 0xAEB JUMPI DUP1 PUSH2 0xAD7 DUP9 DUP3 PUSH2 0x89D JUMP JUMPDEST DUP5 MSTORE PUSH1 0x20 DUP5 ADD SWAP4 POP POP PUSH1 0x20 DUP2 ADD SWAP1 POP PUSH2 0xAC4 JUMP JUMPDEST POP POP POP SWAP4 SWAP3 POP POP POP JUMP JUMPDEST PUSH1 0x0 DUP3 PUSH1 0x1F DUP4 ADD SLT PUSH2 0xB0A JUMPI PUSH2 0xB09 PUSH2 0x9D9 JUMP JUMPDEST JUMPDEST PUSH1 0x2 PUSH2 0xB17 DUP5 DUP3 DUP6 PUSH2 0xA95 JUMP JUMPDEST SWAP2 POP POP SWAP3 SWAP2 POP POP JUMP JUMPDEST PUSH1 0x0 PUSH8 0xFFFFFFFFFFFFFFFF DUP3 GT ISZERO PUSH2 0xB3B JUMPI PUSH2 0xB3A PUSH2 0x9EF JUMP JUMPDEST JUMPDEST PUSH1 0x20 DUP3 MUL SWAP1 POP SWAP2 SWAP1 POP JUMP JUMPDEST PUSH1 0x0 PUSH2 0xB59 PUSH2 0xB54 DUP5 PUSH2 0xB20 JUMP JUMPDEST PUSH2 0xA4F JUMP JUMPDEST SWAP1 POP DUP1 PUSH1 0x40 DUP5 MUL DUP4 ADD DUP6 DUP2 GT ISZERO PUSH2 0xB73 JUMPI PUSH2 0xB72 PUSH2 0xA90 JUMP JUMPDEST JUMPDEST DUP4 JUMPDEST DUP2 DUP2 LT ISZERO PUSH2 0xB9C JUMPI DUP1 PUSH2 0xB88 DUP9 DUP3 PUSH2 0xAF5 JUMP JUMPDEST DUP5 MSTORE PUSH1 0x20 DUP5 ADD SWAP4 POP POP PUSH1 0x40 DUP2 ADD SWAP1 POP PUSH2 0xB75 JUMP JUMPDEST POP POP POP SWAP4 SWAP3 POP POP POP JUMP JUMPDEST PUSH1 0x0 DUP3 PUSH1 0x1F DUP4 ADD SLT PUSH2 0xBBB JUMPI PUSH2 0xBBA PUSH2 0x9D9 JUMP JUMPDEST JUMPDEST PUSH1 0x2 PUSH2 0xBC8 DUP5 DUP3 DUP6 PUSH2 0xB46 JUMP JUMPDEST SWAP2 POP POP SWAP3 SWAP2 POP POP JUMP JUMPDEST PUSH1 0x0 DUP1 PUSH1 0x0 DUP1 PUSH2 0x140 DUP6 DUP8 SUB SLT ISZERO PUSH2 0xBEC JUMPI PUSH2 0xBEB PUSH2 0x877 JUMP JUMPDEST JUMPDEST PUSH1 0x0 PUSH2 0xBFA DUP8 DUP3 DUP9 ADD PUSH2 0xAF5 JUMP JUMPDEST SWAP5 POP POP PUSH1 0x40 PUSH2 0xC0B DUP8 DUP3 DUP9 ADD PUSH2 0xBA6 JUMP JUMPDEST SWAP4 POP POP PUSH1 0xC0 PUSH2 0xC1C DUP8 DUP3 DUP9 ADD PUSH2 0xAF5 JUMP JUMPDEST SWAP3 POP POP PUSH2 0x100 PUSH2 0xC2E DUP8 DUP3 DUP9 ADD PUSH2 0xAF5 JUMP JUMPDEST SWAP2 POP POP SWAP3 SWAP6 SWAP2 SWAP5 POP SWAP3 POP JUMP JUMPDEST PUSH1 0x0 PUSH1 0xFF DUP3 AND SWAP1 POP SWAP2 SWAP1 POP JUMP JUMPDEST PUSH2 0xC50 DUP2 PUSH2 0xC3A JUMP JUMPDEST DUP3 MSTORE POP POP JUMP JUMPDEST PUSH1 0x0 PUSH1 0x20 DUP3 ADD SWAP1 POP PUSH2 0xC6B PUSH1 0x0 DUP4 ADD DUP5 PUSH2 0xC47 JUMP JUMPDEST SWAP3 SWAP2 POP POP JUMP JUMPDEST PUSH32 0x4E487B7100000000000000000000000000000000000000000000000000000000 PUSH1 0x0 MSTORE PUSH1 0x32 PUSH1 0x4 MSTORE PUSH1 0x24 PUSH1 0x0 REVERT JUMPDEST PUSH1 0x0 PUSH1 0x2 SWAP1 POP SWAP2 SWAP1 POP JUMP JUMPDEST PUSH1 0x0 DUP2 SWAP1 POP SWAP3 SWAP2 POP POP JUMP JUMPDEST PUSH1 0x0 DUP2 SWAP1 POP SWAP2 SWAP1 POP JUMP JUMPDEST PUSH2 0xCC9 DUP2 PUSH2 0x87C JUMP JUMPDEST DUP3 MSTORE POP POP JUMP JUMPDEST PUSH1 0x0 PUSH2 0xCDB DUP4 DUP4 PUSH2 0xCC0 JUMP JUMPDEST PUSH1 0x20 DUP4 ADD SWAP1 POP SWAP3 SWAP2 POP POP JUMP JUMPDEST PUSH1 0x0 PUSH1 0x20 DUP3 ADD SWAP1 POP SWAP2 SWAP1 POP JUMP JUMPDEST PUSH2 0xCFD DUP2 PUSH2 0xCA0 JUMP JUMPDEST PUSH2 0xD07 DUP2 DUP5 PUSH2 0xCAB JUMP JUMPDEST SWAP3 POP PUSH2 0xD12 DUP3 PUSH2 0xCB6 JUMP JUMPDEST DUP1 PUSH1 0x0 JUMPDEST DUP4 DUP2 LT ISZERO PUSH2 0xD43 JUMPI DUP2 MLOAD PUSH2 0xD2A DUP8 DUP3 PUSH2 0xCCF JUMP JUMPDEST SWAP7 POP PUSH2 0xD35 DUP4 PUSH2 0xCE7 JUMP JUMPDEST SWAP3 POP POP PUSH1 0x1 DUP2 ADD SWAP1 POP PUSH2 0xD16 JUMP JUMPDEST POP POP POP POP POP POP JUMP JUMPDEST PUSH1 0x0 PUSH1 0x2 SWAP1 POP SWAP2 SWAP1 POP JUMP JUMPDEST PUSH1 0x0 DUP2 SWAP1 POP SWAP3 SWAP2 POP POP JUMP JUMPDEST PUSH1 0x0 DUP2 SWAP1 POP SWAP2 SWAP1 POP JUMP JUMPDEST PUSH1 0x0 DUP2 SWAP1 POP SWAP3 SWAP2 POP POP JUMP JUMPDEST PUSH2 0xD7F DUP2 PUSH2 0xCA0 JUMP JUMPDEST PUSH2 0xD89 DUP2 DUP5 PUSH2 0xD6B JUMP JUMPDEST SWAP3 POP PUSH2 0xD94 DUP3 PUSH2 0xCB6 JUMP JUMPDEST DUP1 PUSH1 0x0 JUMPDEST DUP4 DUP2 LT ISZERO PUSH2 0xDC5 JUMPI DUP2 MLOAD PUSH2 0xDAC DUP8 DUP3 PUSH2 0xCCF JUMP JUMPDEST SWAP7 POP PUSH2 0xDB7 DUP4 PUSH2 0xCE7 JUMP JUMPDEST SWAP3 POP POP PUSH1 0x1 DUP2 ADD SWAP1 POP PUSH2 0xD98 JUMP JUMPDEST POP POP POP POP POP POP JUMP JUMPDEST PUSH1 0x0 PUSH2 0xDD9 DUP4 DUP4 PUSH2 0xD76 JUMP JUMPDEST PUSH1 0x40 DUP4 ADD SWAP1 POP SWAP3 SWAP2 POP POP JUMP JUMPDEST PUSH1 0x0 PUSH1 0x20 DUP3 ADD SWAP1 POP SWAP2 SWAP1 POP JUMP JUMPDEST PUSH2 0xDFB DUP2 PUSH2 0xD4B JUMP JUMPDEST PUSH2 0xE05 DUP2 DUP5 PUSH2 0xD56 JUMP JUMPDEST SWAP3 POP PUSH2 0xE10 DUP3 PUSH2 0xD61 JUMP JUMPDEST DUP1 PUSH1 0x0 JUMPDEST DUP4 DUP2 LT ISZERO PUSH2 0xE41 JUMPI DUP2 MLOAD PUSH2 0xE28 DUP8 DUP3 PUSH2 0xDCD JUMP JUMPDEST SWAP7 POP PUSH2 0xE33 DUP4 PUSH2 0xDE5 JUMP JUMPDEST SWAP3 POP POP PUSH1 0x1 DUP2 ADD SWAP1 POP PUSH2 0xE14 JUMP JUMPDEST POP POP POP POP POP POP JUMP JUMPDEST PUSH1 0x0 PUSH2 0x140 DUP3 ADD SWAP1 POP PUSH2 0xE5F PUSH1 0x0 DUP4 ADD DUP8 PUSH2 0xCF4 JUMP JUMPDEST PUSH2 0xE6C PUSH1 0x40 DUP4 ADD DUP7 PUSH2 0xDF2 JUMP JUMPDEST PUSH2 0xE79 PUSH1 0xC0 DUP4 ADD DUP6 PUSH2 0xCF4 JUMP JUMPDEST PUSH2 0xE87 PUSH2 0x100 DUP4 ADD DUP5 PUSH2 0xCF4 JUMP JUMPDEST SWAP6 SWAP5 POP POP POP POP POP JUMP JUMPDEST PUSH2 0xE99 DUP2 PUSH2 0x8DF JUMP JUMPDEST DUP2 EQ PUSH2 0xEA4 JUMPI PUSH1 0x0 DUP1 REVERT JUMPDEST POP JUMP JUMPDEST PUSH1 0x0 DUP2 MLOAD SWAP1 POP PUSH2 0xEB6 DUP2 PUSH2 0xE90 JUMP JUMPDEST SWAP3 SWAP2 POP POP JUMP JUMPDEST PUSH1 0x0 PUSH1 0x20 DUP3 DUP5 SUB SLT ISZERO PUSH2 0xED2 JUMPI PUSH2 0xED1 PUSH2 0x877 JUMP JUMPDEST JUMPDEST PUSH1 0x0 PUSH2 0xEE0 DUP5 DUP3 DUP6 ADD PUSH2 0xEA7 JUMP JUMPDEST SWAP2 POP POP SWAP3 SWAP2 POP POP JUMP JUMPDEST PUSH1 0x0 DUP3 DUP3 MSTORE PUSH1 0x20 DUP3 ADD SWAP1 POP SWAP3 SWAP2 POP POP JUMP JUMPDEST PUSH32 0x6578697374696E672D636F6D6D69746D656E7400000000000000000000000000 PUSH1 0x0 DUP3 ADD MSTORE POP JUMP JUMPDEST PUSH1 0x0 PUSH2 0xF30 PUSH1 0x13 DUP4 PUSH2 0xEE9 JUMP JUMPDEST SWAP2 POP PUSH2 0xF3B DUP3 PUSH2 0xEFA JUMP JUMPDEST PUSH1 0x20 DUP3 ADD SWAP1 POP SWAP2 SWAP1 POP JUMP JUMPDEST PUSH1 0x0 PUSH1 0x20 DUP3 ADD SWAP1 POP DUP2 DUP2 SUB PUSH1 0x0 DUP4 ADD MSTORE PUSH2 0xF5F DUP2 PUSH2 0xF23 JUMP JUMPDEST SWAP1 POP SWAP2 SWAP1 POP JUMP JUMPDEST PUSH32 0x4E487B7100000000000000000000000000000000000000000000000000000000 PUSH1 0x0 MSTORE PUSH1 0x11 PUSH1 0x4 MSTORE PUSH1 0x24 PUSH1 0x0 REVERT JUMPDEST PUSH1 0x0 DUP2 PUSH1 0x1 SHR SWAP1 POP SWAP2 SWAP1 POP JUMP JUMPDEST PUSH1 0x0 DUP1 DUP3 SWAP2 POP DUP4 SWAP1 POP JUMPDEST PUSH1 0x1 DUP6 GT ISZERO PUSH2 0xFEC JUMPI DUP1 DUP7 DIV DUP2 GT ISZERO PUSH2 0xFC8 JUMPI PUSH2 0xFC7 PUSH2 0xF66 JUMP JUMPDEST JUMPDEST PUSH1 0x1 DUP6 AND ISZERO PUSH2 0xFD7 JUMPI DUP1 DUP3 MUL SWAP2 POP JUMPDEST DUP1 DUP2 MUL SWAP1 POP PUSH2 0xFE5 DUP6 PUSH2 0xF95 JUMP JUMPDEST SWAP5 POP PUSH2 0xFAC JUMP JUMPDEST SWAP5 POP SWAP5 SWAP3 POP POP POP JUMP JUMPDEST PUSH1 0x0 DUP3 PUSH2 0x1005 JUMPI PUSH1 0x1 SWAP1 POP PUSH2 0x10C1 JUMP JUMPDEST DUP2 PUSH2 0x1013 JUMPI PUSH1 0x0 SWAP1 POP PUSH2 0x10C1 JUMP JUMPDEST DUP2 PUSH1 0x1 DUP2 EQ PUSH2 0x1029 JUMPI PUSH1 0x2 DUP2 EQ PUSH2 0x1033 JUMPI PUSH2 0x1062 JUMP JUMPDEST PUSH1 0x1 SWAP2 POP POP PUSH2 0x10C1 JUMP JUMPDEST PUSH1 0xFF DUP5 GT ISZERO PUSH2 0x1045 JUMPI PUSH2 0x1044 PUSH2 0xF66 JUMP JUMPDEST JUMPDEST DUP4 PUSH1 0x2 EXP SWAP2 POP DUP5 DUP3 GT ISZERO PUSH2 0x105C JUMPI PUSH2 0x105B PUSH2 0xF66 JUMP JUMPDEST JUMPDEST POP PUSH2 0x10C1 JUMP JUMPDEST POP PUSH1 0x20 DUP4 LT PUSH2 0x133 DUP4 LT AND PUSH1 0x4E DUP5 LT PUSH1 0xB DUP5 LT AND OR ISZERO PUSH2 0x1097 JUMPI DUP3 DUP3 EXP SWAP1 POP DUP4 DUP2 GT ISZERO PUSH2 0x1092 JUMPI PUSH2 0x1091 PUSH2 0xF66 JUMP JUMPDEST JUMPDEST PUSH2 0x10C1 JUMP JUMPDEST PUSH2 0x10A4 DUP5 DUP5 DUP5 PUSH1 0x1 PUSH2 0xFA2 JUMP JUMPDEST SWAP3 POP SWAP1 POP DUP2 DUP5 DIV DUP2 GT ISZERO PUSH2 0x10BB JUMPI PUSH2 0x10BA PUSH2 0xF66 JUMP JUMPDEST JUMPDEST DUP2 DUP2 MUL SWAP1 POP JUMPDEST SWAP4 SWAP3 POP POP POP JUMP JUMPDEST PUSH1 0x0 PUSH2 0x10D3 DUP3 PUSH2 0x87C JUMP JUMPDEST SWAP2 POP PUSH2 0x10DE DUP4 PUSH2 0xC3A JUMP JUMPDEST SWAP3 POP PUSH2 0x110B PUSH32 0xFFFFFFFFFFFFFFFFFFFFFFFFFFFFFFFFFFFFFFFFFFFFFFFFFFFFFFFFFFFFFFFF DUP5 DUP5 PUSH2 0xFF5 JUMP JUMPDEST SWAP1 POP SWAP3 SWAP2 POP POP JUMP JUMPDEST PUSH32 0x747265652D66756C6C0000000000000000000000000000000000000000000000 PUSH1 0x0 DUP3 ADD MSTORE POP JUMP JUMPDEST PUSH1 0x0 PUSH2 0x1149 PUSH1 0x9 DUP4 PUSH2 0xEE9 JUMP JUMPDEST SWAP2 POP PUSH2 0x1154 DUP3 PUSH2 0x1113 JUMP JUMPDEST PUSH1 0x20 DUP3 ADD SWAP1 POP SWAP2 SWAP1 POP JUMP JUMPDEST PUSH1 0x0 PUSH1 0x20 DUP3 ADD SWAP1 POP DUP2 DUP2 SUB PUSH1 0x0 DUP4 ADD MSTORE PUSH2 0x1178 DUP2 PUSH2 0x113C JUMP JUMPDEST SWAP1 POP SWAP2 SWAP1 POP JUMP JUMPDEST PUSH32 0x4E487B7100000000000000000000000000000000000000000000000000000000 PUSH1 0x0 MSTORE PUSH1 0x12 PUSH1 0x4 MSTORE PUSH1 0x24 PUSH1 0x0 REVERT JUMPDEST PUSH1 0x0 PUSH2 0x11B9 DUP3 PUSH2 0x87C JUMP JUMPDEST SWAP2 POP PUSH2 0x11C4 DUP4 PUSH2 0x87C JUMP JUMPDEST SWAP3 POP DUP3 PUSH2 0x11D4 JUMPI PUSH2 0x11D3 PUSH2 0x117F JUMP JUMPDEST JUMPDEST DUP3 DUP3 MOD SWAP1 POP SWAP3 SWAP2 POP POP JUMP JUMPDEST PUSH1 0x0 PUSH1 0x60 DUP3 ADD SWAP1 POP PUSH2 0x11F4 PUSH1 0x0 DUP4 ADD DUP6 PUSH2 0xCF4 JUMP JUMPDEST PUSH2 0x1201 PUSH1 0x40 DUP4 ADD DUP5 PUSH2 0x9AF JUMP JUMPDEST SWAP4 SWAP3 POP POP POP JUMP JUMPDEST PUSH1 0x0 DUP2 MLOAD SWAP1 POP PUSH2 0x1217 DUP2 PUSH2 0x886 JUMP JUMPDEST SWAP3 SWAP2 POP POP JUMP JUMPDEST PUSH1 0x0 PUSH1 0x20 DUP3 DUP5 SUB SLT ISZERO PUSH2 0x1233 JUMPI PUSH2 0x1232 PUSH2 0x877 JUMP JUMPDEST JUMPDEST PUSH1 0x0 PUSH2 0x1241 DUP5 DUP3 DUP6 ADD PUSH2 0x1208 JUMP JUMPDEST SWAP2 POP POP SWAP3 SWAP2 POP POP JUMP JUMPDEST PUSH1 0x0 PUSH2 0x1255 DUP3 PUSH2 0x87C JUMP JUMPDEST SWAP2 POP PUSH2 0x1260 DUP4 PUSH2 0x87C JUMP JUMPDEST SWAP3 POP DUP3 PUSH2 0x1270 JUMPI PUSH2 0x126F PUSH2 0x117F JUMP JUMPDEST JUMPDEST DUP3 DUP3 DIV SWAP1 POP SWAP3 SWAP2 POP POP JUMP JUMPDEST PUSH1 0x0 PUSH2 0x1286 DUP3 PUSH2 0xC3A JUMP JUMPDEST SWAP2 POP PUSH1 0xFF DUP3 SUB PUSH2 0x1299 JUMPI PUSH2 0x1298 PUSH2 0xF66 JUMP JUMPDEST JUMPDEST PUSH1 0x1 DUP3 ADD SWAP1 POP SWAP2 SWAP1 POP JUMP JUMPDEST PUSH1 0x0 PUSH2 0x12AF DUP3 PUSH2 0x87C JUMP JUMPDEST SWAP2 POP PUSH2 0x12BA DUP4 PUSH2 0x87C JUMP JUMPDEST SWAP3 POP DUP3 DUP3 ADD SWAP1 POP DUP1 DUP3 GT ISZERO PUSH2 0x12D2 JUMPI PUSH2 0x12D1 PUSH2 0xF66 JUMP JUMPDEST JUMPDEST SWAP3 SWAP2 POP POP JUMP JUMPDEST PUSH1 0x0 PUSH1 0xA SWAP1 POP SWAP2 SWAP1 POP JUMP JUMPDEST PUSH1 0x0 DUP2 SWAP1 POP SWAP3 SWAP2 POP POP JUMP JUMPDEST PUSH1 0x0 DUP2 SWAP1 POP SWAP2 SWAP1 POP JUMP JUMPDEST PUSH1 0x0 PUSH1 0x20 DUP3 ADD SWAP1 POP SWAP2 SWAP1 POP JUMP JUMPDEST PUSH2 0x130E DUP2 PUSH2 0x12D8 JUMP JUMPDEST PUSH2 0x1318 DUP2 DUP5 PUSH2 0x12E3 JUMP JUMPDEST SWAP3 POP PUSH2 0x1323 DUP3 PUSH2 0x12EE JUMP JUMPDEST DUP1 PUSH1 0x0 JUMPDEST DUP4 DUP2 LT ISZERO PUSH2 0x1354 JUMPI DUP2 MLOAD PUSH2 0x133B DUP8 DUP3 PUSH2 0xCCF JUMP JUMPDEST SWAP7 POP PUSH2 0x1346 DUP4 PUSH2 0x12F8 JUMP JUMPDEST SWAP3 POP POP PUSH1 0x1 DUP2 ADD SWAP1 POP PUSH2 0x1327 JUMP JUMPDEST POP POP POP POP POP POP JUMP JUMPDEST PUSH1 0x0 PUSH1 0xA SWAP1 POP SWAP2 SWAP1 POP JUMP JUMPDEST PUSH1 0x0 DUP2 SWAP1 POP SWAP3 SWAP2 POP POP JUMP JUMPDEST PUSH1 0x0 DUP2 SWAP1 POP SWAP2 SWAP1 POP JUMP JUMPDEST PUSH2 0x1385 DUP2 PUSH2 0xC3A JUMP JUMPDEST DUP3 MSTORE POP POP JUMP JUMPDEST PUSH1 0x0 PUSH2 0x1397 DUP4 DUP4 PUSH2 0x137C JUMP JUMPDEST PUSH1 0x20 DUP4 ADD SWAP1 POP SWAP3 SWAP2 POP POP JUMP JUMPDEST PUSH1 0x0 PUSH1 0x20 DUP3 ADD SWAP1 POP SWAP2 SWAP1 POP JUMP JUMPDEST PUSH2 0x13B9 DUP2 PUSH2 0x135C JUMP JUMPDEST PUSH2 0x13C3 DUP2 DUP5 PUSH2 0x1367 JUMP JUMPDEST SWAP3 POP PUSH2 0x13CE DUP3 PUSH2 0x1372 JUMP JUMPDEST DUP1 PUSH1 0x0 JUMPDEST DUP4 DUP2 LT ISZERO PUSH2 0x13FF JUMPI DUP2 MLOAD PUSH2 0x13E6 DUP8 DUP3 PUSH2 0x138B JUMP JUMPDEST SWAP7 POP PUSH2 0x13F1 DUP4 PUSH2 0x13A3 JUMP JUMPDEST SWAP3 POP POP PUSH1 0x1 DUP2 ADD SWAP1 POP PUSH2 0x13D2 JUMP JUMPDEST POP POP POP POP POP POP JUMP JUMPDEST PUSH1 0x0 PUSH2 0x2A0 DUP3 ADD SWAP1 POP PUSH2 0x141D PUSH1 0x0 DUP4 ADD DUP7 PUSH2 0x9AF JUMP JUMPDEST PUSH2 0x142A PUSH1 0x20 DUP4 ADD DUP6 PUSH2 0x1305 JUMP JUMPDEST PUSH2 0x1438 PUSH2 0x160 DUP4 ADD DUP5 PUSH2 0x13B0 JUMP JUMPDEST SWAP5 SWAP4 POP POP POP POP JUMP JUMPDEST PUSH32 0x5265656E7472616E637947756172643A207265656E7472616E742063616C6C00 PUSH1 0x0 DUP3 ADD MSTORE POP JUMP JUMPDEST PUSH1 0x0 PUSH2 0x1476 PUSH1 0x1F DUP4 PUSH2 0xEE9 JUMP JUMPDEST SWAP2 POP PUSH2 0x1481 DUP3 PUSH2 0x1440 JUMP JUMPDEST PUSH1 0x20 DUP3 ADD SWAP1 POP SWAP2 SWAP1 POP JUMP JUMPDEST PUSH1 0x0 PUSH1 0x20 DUP3 ADD SWAP1 POP DUP2 DUP2 SUB PUSH1 0x0 DUP4 ADD MSTORE PUSH2 0x14A5 DUP2 PUSH2 0x1469 JUMP JUMPDEST SWAP1 POP SWAP2 SWAP1 POP JUMP INVALID LOG2 PUSH5 0x6970667358 0x22 SLT KECCAK256 0x4F PUSH27 0xA01C9CAEDBA5A421E12FFA1801F12163A68B4B567D77ED7217EFD9 0xD0 ORIGIN DUP4 PUSH5 0x736F6C6343 STOP ADDMOD GT STOP CALLER "
				},
				"gasEstimates": {
					"creation": {
						"codeDepositCost": "1069200",
						"executionCost": "infinite",
						"totalCost": "infinite"
					},
					"external": {
						"canWithdraw(uint256[2],uint256[2][2],uint256[2],uint256[2])": "infinite",
						"commitments(uint256)": "2863",
						"deposit(uint256)": "infinite",
						"nextLeafIdx()": "2474",
						"nullifierHashes(uint256)": "2797",
						"roots(uint256)": "2862",
						"treeLevel()": "2565",
						"verifier()": "infinite"
					}
				},
				"methodIdentifiers": {
					"canWithdraw(uint256[2],uint256[2][2],uint256[2],uint256[2])": "9e028a5d",
					"commitments(uint256)": "49ce8997",
					"deposit(uint256)": "b6b55f25",
					"nextLeafIdx()": "45e0523f",
					"nullifierHashes(uint256)": "1f79a1e9",
					"roots(uint256)": "c2b40ae4",
					"treeLevel()": "b8e79564",
					"verifier()": "2b7ac3f3"
				}
			},
			"storageLayout": {
				"storage": [
					{
						"astId": 210,
						"contract": "zk/myTornado.sol:Tornado",
						"label": "_status",
						"offset": 0,
						"slot": "0",
						"type": "t_uint256"
					},
					{
						"astId": 297,
						"contract": "zk/myTornado.sol:Tornado",
						"label": "verifier",
						"offset": 0,
						"slot": "1",
						"type": "t_contract(IVerifier)292"
					},
					{
						"astId": 300,
						"contract": "zk/myTornado.sol:Tornado",
						"label": "hasher",
						"offset": 0,
						"slot": "2",
						"type": "t_contract(Hasher)199"
					},
					{
						"astId": 303,
						"contract": "zk/myTornado.sol:Tornado",
						"label": "treeLevel",
						"offset": 20,
						"slot": "2",
						"type": "t_uint8"
					},
					{
						"astId": 306,
						"contract": "zk/myTornado.sol:Tornado",
						"label": "nextLeafIdx",
						"offset": 0,
						"slot": "3",
						"type": "t_uint256"
					},
					{
						"astId": 310,
						"contract": "zk/myTornado.sol:Tornado",
						"label": "roots",
						"offset": 0,
						"slot": "4",
						"type": "t_mapping(t_uint256,t_bool)"
					},
					{
						"astId": 314,
						"contract": "zk/myTornado.sol:Tornado",
						"label": "lastLevelHash",
						"offset": 0,
						"slot": "5",
						"type": "t_mapping(t_uint8,t_uint256)"
					},
					{
						"astId": 318,
						"contract": "zk/myTornado.sol:Tornado",
						"label": "nullifierHashes",
						"offset": 0,
						"slot": "6",
						"type": "t_mapping(t_uint256,t_bool)"
					},
					{
						"astId": 322,
						"contract": "zk/myTornado.sol:Tornado",
						"label": "commitments",
						"offset": 0,
						"slot": "7",
						"type": "t_mapping(t_uint256,t_bool)"
					},
					{
						"astId": 337,
						"contract": "zk/myTornado.sol:Tornado",
						"label": "levelDefaults",
						"offset": 0,
						"slot": "8",
						"type": "t_array(t_uint256)10_storage"
					}
				],
				"types": {
					"t_array(t_uint256)10_storage": {
						"base": "t_uint256",
						"encoding": "inplace",
						"label": "uint256[10]",
						"numberOfBytes": "320"
					},
					"t_bool": {
						"encoding": "inplace",
						"label": "bool",
						"numberOfBytes": "1"
					},
					"t_contract(Hasher)199": {
						"encoding": "inplace",
						"label": "contract Hasher",
						"numberOfBytes": "20"
					},
					"t_contract(IVerifier)292": {
						"encoding": "inplace",
						"label": "contract IVerifier",
						"numberOfBytes": "20"
					},
					"t_mapping(t_uint256,t_bool)": {
						"encoding": "mapping",
						"key": "t_uint256",
						"label": "mapping(uint256 => bool)",
						"numberOfBytes": "32",
						"value": "t_bool"
					},
					"t_mapping(t_uint8,t_uint256)": {
						"encoding": "mapping",
						"key": "t_uint8",
						"label": "mapping(uint8 => uint256)",
						"numberOfBytes": "32",
						"value": "t_uint256"
					},
					"t_uint256": {
						"encoding": "inplace",
						"label": "uint256",
						"numberOfBytes": "32"
					},
					"t_uint8": {
						"encoding": "inplace",
						"label": "uint8",
						"numberOfBytes": "1"
					}
				}
			},
			"userdoc": {
				"kind": "user",
				"methods": {},
				"version": 1
			}
		}
	}
}