{
	"zk/MiMCSponge.sol": {
		"Hasher": {
			"abi": [
				{
					"inputs": [
						{
							"internalType": "uint256[2]",
							"name": "_ins",
							"type": "uint256[2]"
						},
						{
							"internalType": "uint256",
							"name": "_k",
							"type": "uint256"
						}
					],
					"name": "MiMC5Sponge",
					"outputs": [
						{
							"internalType": "uint256",
							"name": "h",
							"type": "uint256"
						}
					],
					"stateMutability": "view",
					"type": "function"
				}
			],
			"devdoc": {
				"kind": "dev",
				"methods": {},
				"version": 1
			},
			"evm": {
				"assembly": "    /* \"zk/MiMCSponge.sol\":60:2966  contract Hasher {... */\n  mstore(0x40, 0x80)\n    /* \"zk/MiMCSponge.sol\":95:172  21888242871839275222246405745257275088548364400416034343698204186575808495617 */\n  0x30644e72e131a029b85045b68181585d2833e84879b9709143e1f593f0000001\n    /* \"zk/MiMCSponge.sol\":83:172  uint256 p = 21888242871839275222246405745257275088548364400416034343698204186575808495617 */\n  0x00\n  sstore\n    /* \"zk/MiMCSponge.sol\":179:1887  uint256[20] c = [... */\n  mload(0x40)\n  dup1\n  0x0280\n  add\n  0x40\n  mstore\n  dup1\n    /* \"zk/MiMCSponge.sol\":206:207  0 */\n  0x00\n    /* \"zk/MiMCSponge.sol\":179:1887  uint256[20] c = [... */\n  dup2\n  mstore\n  0x20\n  add\n    /* \"zk/MiMCSponge.sol\":218:295  25823191961023811529686723375255045606187170120624741056268890390838310270028 */\n  0x391768a085a953882c2200e315dc6b6353e4791466d524980f97b786716ef44c\n    /* \"zk/MiMCSponge.sol\":179:1887  uint256[20] c = [... */\n  dup2\n  mstore\n  0x20\n  add\n    /* \"zk/MiMCSponge.sol\":306:383  71153255768872006974285801937521995907343848376936063113800887806988124358800 */\n  0x9d4f50cb64b2c7a8f7b2c17065bac3a4ef451cd9718db14693cc75cbb8630890\n    /* \"zk/MiMCSponge.sol\":179:1887  uint256[20] c = [... */\n  dup2\n  mstore\n  0x20\n  add\n    /* \"zk/MiMCSponge.sol\":394:471  51253176922899201987938365653129780755804051536550826601168630951148399005246 */\n  0x71504526d8cd57565fca39e86feeb52100fecb23f9b81ab0ac066aef68328e3e\n    /* \"zk/MiMCSponge.sol\":179:1887  uint256[20] c = [... */\n  dup2\n  mstore\n  0x20\n  add\n    /* \"zk/MiMCSponge.sol\":482:559  66651710483985382365580181188706173532487386392003341306307921015066514594406 */\n  0x935b8800cf73aa9b083a4bdbfea0f4efeb5e0b1bb927455b4bc8a4bcc58e9a66\n    /* \"zk/MiMCSponge.sol\":179:1887  uint256[20] c = [... */\n  dup2\n  mstore\n  0x20\n  add\n    /* \"zk/MiMCSponge.sol\":570:647  45887003413921204775397977044284378920236104620216194900669591190628189327887 */\n  0x65731fa0feccca6cba08c176f5443dbaea0de6ae20993a97f6b709785897d20f\n    /* \"zk/MiMCSponge.sol\":179:1887  uint256[20] c = [... */\n  dup2\n  mstore\n  0x20\n  add\n    /* \"zk/MiMCSponge.sol\":658:735  14399999722617037892747232478295923748665564430258345135947757381904956977453 */\n  0x1fd61c6b69084af504ea1fa012821bb4af507d64efd9934b9bbf36705290f12d\n    /* \"zk/MiMCSponge.sol\":179:1887  uint256[20] c = [... */\n  dup2\n  mstore\n  0x20\n  add\n    /* \"zk/MiMCSponge.sol\":746:823  29376176727758177809204424209125257629638239807319618360680345079470240949145 */\n  0x40f253aa05d71624fe6759a1f5edd323d110996b3fcfba07abdf171a5f9de399\n    /* \"zk/MiMCSponge.sol\":179:1887  uint256[20] c = [... */\n  dup2\n  mstore\n  0x20\n  add\n    /* \"zk/MiMCSponge.sol\":834:911  13768859312518298840937540532277016512087005174650120937309279832230513110846 */\n  0x1e70e5f07fda6b0119e5c8f11aa869db08e948e2bc688cb4db0b4ee543c46f3e\n    /* \"zk/MiMCSponge.sol\":179:1887  uint256[20] c = [... */\n  dup2\n  mstore\n  0x20\n  add\n    /* \"zk/MiMCSponge.sol\":922:999  54749662990362840569021981534456448557155682756506853240029023635346061661615 */\n  0x790b360b1e8223e3834cfd88dd07eb3e4fb59e8bd83626fbdc9583d8877a15af\n    /* \"zk/MiMCSponge.sol\":179:1887  uint256[20] c = [... */\n  dup2\n  mstore\n  0x20\n  add\n    /* \"zk/MiMCSponge.sol\":1010:1087  25161436470718351277017231215227846535148280460947816286575563945185127975034 */\n  0x37a0de4d2c56628d40f1638628efb49c4c741fe881cf8a6e865ec71688b4487a\n    /* \"zk/MiMCSponge.sol\":179:1887  uint256[20] c = [... */\n  dup2\n  mstore\n  0x20\n  add\n    /* \"zk/MiMCSponge.sol\":1098:1175  90370030464179443930112165274275271350651484239155016554738639197417116558730 */\n  0xc7cb9fe85afe2450c4da8a32983cc0e6070d253c86e59bfd1fd24fcaa91c658a\n    /* \"zk/MiMCSponge.sol\":179:1887  uint256[20] c = [... */\n  dup2\n  mstore\n  0x20\n  add\n    /* \"zk/MiMCSponge.sol\":1186:1263  92014788260850167582827910417652439562305280453223492851660096740204889381255 */\n  0xcb6e8649b6a56e9277be3bf1d943244b79048284cdd78743a74863e58b9e1987\n    /* \"zk/MiMCSponge.sol\":179:1887  uint256[20] c = [... */\n  dup2\n  mstore\n  0x20\n  add\n    /* \"zk/MiMCSponge.sol\":1274:1351  40376490640073034398204558905403523738912091909516510156577526370637723469243 */\n  0x594448aa40d994274590a8a5c4ab87b374317b4bbc013841ce844e4bf19805bb\n    /* \"zk/MiMCSponge.sol\":179:1887  uint256[20] c = [... */\n  dup2\n  mstore\n  0x20\n  add\n    /* \"zk/MiMCSponge.sol\":1362:1437  903792244391531377123276432892896247924738784402045372115602887103675299839 */\n  0x01ff873d84b64b0d73eddd73625d1b5686a3d1f31db8d0086b3101bdb5a6f7ff\n    /* \"zk/MiMCSponge.sol\":179:1887  uint256[20] c = [... */\n  dup2\n  mstore\n  0x20\n  add\n    /* \"zk/MiMCSponge.sol\":1448:1526  112203415202699791888928570309186854585561656615192232544262649073999791317171 */\n  0xf810e1e9fad9cdb55d70a243eccd090c85f836ce991bb2190b0f0aab32d8e0b3\n    /* \"zk/MiMCSponge.sol\":179:1887  uint256[20] c = [... */\n  dup2\n  mstore\n  0x20\n  add\n    /* \"zk/MiMCSponge.sol\":1537:1615  114801681136748880679062548782792743842998635558909635247841799223004802934045 */\n  0xfdcf72e9d11d20a02478305a7183c50ed3ddde3c9e80b2bf5efdaca8f87d651d\n    /* \"zk/MiMCSponge.sol\":179:1887  uint256[20] c = [... */\n  dup2\n  mstore\n  0x20\n  add\n    /* \"zk/MiMCSponge.sol\":1626:1704  111440818948676816539978930514468038603327388809824089593328295503672011604028 */\n  0xf66144aed21cec88adbe8c8f6cd05ee5407d8c06d39607d62584909149d3403c\n    /* \"zk/MiMCSponge.sol\":179:1887  uint256[20] c = [... */\n  dup2\n  mstore\n  0x20\n  add\n    /* \"zk/MiMCSponge.sol\":1715:1792  64965960071752809090438003157362764845283225351402746675238539375404528707397 */\n  0x8fa16e2ad5a7a87d70003c61c1d2a08fc9ab669e6b95350f28e01a15745c2745\n    /* \"zk/MiMCSponge.sol\":179:1887  uint256[20] c = [... */\n  dup2\n  mstore\n  0x20\n  add\n    /* \"zk/MiMCSponge.sol\":1803:1880  98428510787134995495896453413714864789970336245473413374424598985988309743097 */\n  0xd99c9018257d4ec8c901b111feb6857c4219c3340ac68bf54ce4448a530375f9\n    /* \"zk/MiMCSponge.sol\":179:1887  uint256[20] c = [... */\n  dup2\n  mstore\n  pop\n  0x01\n  swap1\n  0x14\n  tag_1\n  swap3\n  swap2\n  swap1\n  tag_2\n  jump\t// in\ntag_1:\n  pop\n    /* \"zk/MiMCSponge.sol\":60:2966  contract Hasher {... */\n  callvalue\n  dup1\n  iszero\n  tag_3\n  jumpi\n  0x00\n  dup1\n  revert\ntag_3:\n  pop\n  jump(tag_4)\ntag_2:\n  dup3\n  0x14\n  dup2\n  add\n  swap3\n  dup3\n  iszero\n  tag_5\n  jumpi\n  swap2\n  0x20\n  mul\n  dup3\n  add\ntag_6:\n  dup3\n  dup2\n  gt\n  iszero\n  tag_7\n  jumpi\n  dup3\n  mload\n  dup3\n  sstore\n  swap2\n  0x20\n  add\n  swap2\n  swap1\n  0x01\n  add\n  swap1\n  jump(tag_6)\ntag_7:\ntag_5:\n  pop\n  swap1\n  pop\n  tag_8\n  swap2\n  swap1\n  tag_9\n  jump\t// in\ntag_8:\n  pop\n  swap1\n  jump\t// out\ntag_9:\ntag_10:\n  dup1\n  dup3\n  gt\n  iszero\n  tag_11\n  jumpi\n  0x00\n  dup2\n  0x00\n  swap1\n  sstore\n  pop\n  0x01\n  add\n  jump(tag_10)\ntag_11:\n  pop\n  swap1\n  jump\t// out\ntag_4:\n  dataSize(sub_0)\n  dup1\n  dataOffset(sub_0)\n  0x00\n  codecopy\n  0x00\n  return\nstop\n\nsub_0: assembly {\n        /* \"zk/MiMCSponge.sol\":60:2966  contract Hasher {... */\n      mstore(0x40, 0x80)\n      callvalue\n      dup1\n      iszero\n      tag_1\n      jumpi\n      0x00\n      dup1\n      revert\n    tag_1:\n      pop\n      jumpi(tag_2, lt(calldatasize, 0x04))\n      shr(0xe0, calldataload(0x00))\n      dup1\n      0xd622e5a4\n      eq\n      tag_3\n      jumpi\n    tag_2:\n      0x00\n      dup1\n      revert\n        /* \"zk/MiMCSponge.sol\":2615:2963  function MiMC5Sponge(uint256[2] memory _ins, uint256 _k) external view returns(uint256 h) {... */\n    tag_3:\n      tag_4\n      0x04\n      dup1\n      calldatasize\n      sub\n      dup2\n      add\n      swap1\n      tag_5\n      swap2\n      swap1\n      tag_6\n      jump\t// in\n    tag_5:\n      tag_7\n      jump\t// in\n    tag_4:\n      mload(0x40)\n      tag_8\n      swap2\n      swap1\n      tag_9\n      jump\t// in\n    tag_8:\n      mload(0x40)\n      dup1\n      swap2\n      sub\n      swap1\n      return\n    tag_7:\n        /* \"zk/MiMCSponge.sol\":2694:2703  uint256 h */\n      0x00\n        /* \"zk/MiMCSponge.sol\":2716:2729  uint256 lastR */\n      dup1\n        /* \"zk/MiMCSponge.sol\":2732:2733  0 */\n      0x00\n        /* \"zk/MiMCSponge.sol\":2716:2733  uint256 lastR = 0 */\n      swap1\n      pop\n        /* \"zk/MiMCSponge.sol\":2744:2757  uint256 lastC */\n      0x00\n        /* \"zk/MiMCSponge.sol\":2778:2785  uint8 i */\n      dup1\n        /* \"zk/MiMCSponge.sol\":2774:2934  for(uint8 i = 0; i < _ins.length; i++){... */\n    tag_11:\n        /* \"zk/MiMCSponge.sol\":2795:2806  _ins.length */\n      0x02\n        /* \"zk/MiMCSponge.sol\":2791:2792  i */\n      dup2\n        /* \"zk/MiMCSponge.sol\":2791:2806  i < _ins.length */\n      0xff\n      and\n      lt\n        /* \"zk/MiMCSponge.sol\":2774:2934  for(uint8 i = 0; i < _ins.length; i++){... */\n      iszero\n      tag_12\n      jumpi\n        /* \"zk/MiMCSponge.sol\":2858:2859  p */\n      sload(0x00)\n        /* \"zk/MiMCSponge.sol\":2835:2860  addmod(lastR, _ins[i], p) */\n      dup1\n      tag_14\n      jumpi\n      tag_15\n      tag_16\n      jump\t// in\n    tag_15:\n    tag_14:\n        /* \"zk/MiMCSponge.sol\":2849:2853  _ins */\n      dup7\n        /* \"zk/MiMCSponge.sol\":2854:2855  i */\n      dup3\n        /* \"zk/MiMCSponge.sol\":2849:2856  _ins[i] */\n      0xff\n      and\n      0x02\n      dup2\n      lt\n      tag_17\n      jumpi\n      tag_18\n      tag_19\n      jump\t// in\n    tag_18:\n    tag_17:\n      0x20\n      mul\n      add\n      mload\n        /* \"zk/MiMCSponge.sol\":2842:2847  lastR */\n      dup5\n        /* \"zk/MiMCSponge.sol\":2835:2860  addmod(lastR, _ins[i], p) */\n      addmod\n        /* \"zk/MiMCSponge.sol\":2827:2860  lastR = addmod(lastR, _ins[i], p) */\n      swap3\n      pop\n        /* \"zk/MiMCSponge.sol\":2892:2922  MiMC5Feistel(lastR, lastC, _k) */\n      tag_20\n        /* \"zk/MiMCSponge.sol\":2905:2910  lastR */\n      dup4\n        /* \"zk/MiMCSponge.sol\":2912:2917  lastC */\n      dup4\n        /* \"zk/MiMCSponge.sol\":2919:2921  _k */\n      dup8\n        /* \"zk/MiMCSponge.sol\":2892:2904  MiMC5Feistel */\n      tag_21\n        /* \"zk/MiMCSponge.sol\":2892:2922  MiMC5Feistel(lastR, lastC, _k) */\n      jump\t// in\n    tag_20:\n        /* \"zk/MiMCSponge.sol\":2875:2922  (lastR, lastC) = MiMC5Feistel(lastR, lastC, _k) */\n      dup1\n      swap4\n      pop\n      dup2\n      swap5\n      pop\n      pop\n      pop\n        /* \"zk/MiMCSponge.sol\":2808:2811  i++ */\n      dup1\n      dup1\n      tag_22\n      swap1\n      tag_23\n      jump\t// in\n    tag_22:\n      swap2\n      pop\n      pop\n        /* \"zk/MiMCSponge.sol\":2774:2934  for(uint8 i = 0; i < _ins.length; i++){... */\n      jump(tag_11)\n    tag_12:\n      pop\n        /* \"zk/MiMCSponge.sol\":2950:2955  lastR */\n      dup2\n        /* \"zk/MiMCSponge.sol\":2946:2955  h = lastR */\n      swap3\n      pop\n        /* \"zk/MiMCSponge.sol\":2705:2963  {... */\n      pop\n      pop\n        /* \"zk/MiMCSponge.sol\":2615:2963  function MiMC5Sponge(uint256[2] memory _ins, uint256 _k) external view returns(uint256 h) {... */\n      swap3\n      swap2\n      pop\n      pop\n      jump\t// out\n        /* \"zk/MiMCSponge.sol\":1896:2609  function MiMC5Feistel(uint256 _iL, uint256 _iR, uint256 _k) internal view returns(uint256 oL, uint256 oR) {... */\n    tag_21:\n        /* \"zk/MiMCSponge.sol\":1978:1988  uint256 oL */\n      0x00\n        /* \"zk/MiMCSponge.sol\":1990:2000  uint256 oR */\n      dup1\n        /* \"zk/MiMCSponge.sol\":2013:2026  uint8 nRounds */\n      0x00\n        /* \"zk/MiMCSponge.sol\":2029:2031  20 */\n      0x14\n        /* \"zk/MiMCSponge.sol\":2013:2031  uint8 nRounds = 20 */\n      swap1\n      pop\n        /* \"zk/MiMCSponge.sol\":2044:2057  uint256 lastL */\n      0x00\n        /* \"zk/MiMCSponge.sol\":2060:2063  _iL */\n      dup7\n        /* \"zk/MiMCSponge.sol\":2044:2063  uint256 lastL = _iL */\n      swap1\n      pop\n        /* \"zk/MiMCSponge.sol\":2074:2087  uint256 lastR */\n      0x00\n        /* \"zk/MiMCSponge.sol\":2090:2093  _iR */\n      dup7\n        /* \"zk/MiMCSponge.sol\":2074:2093  uint256 lastR = _iR */\n      swap1\n      pop\n        /* \"zk/MiMCSponge.sol\":2106:2118  uint256 mask */\n      0x00\n        /* \"zk/MiMCSponge.sol\":2129:2142  uint256 mask2 */\n      dup1\n        /* \"zk/MiMCSponge.sol\":2153:2166  uint256 mask4 */\n      0x00\n        /* \"zk/MiMCSponge.sol\":2177:2189  uint256 temp */\n      dup1\n        /* \"zk/MiMCSponge.sol\":2206:2213  uint8 i */\n      0x00\n        /* \"zk/MiMCSponge.sol\":2202:2568  for(uint8 i = 0; i < nRounds; i++){... */\n    tag_25:\n        /* \"zk/MiMCSponge.sol\":2223:2230  nRounds */\n      dup8\n        /* \"zk/MiMCSponge.sol\":2219:2230  i < nRounds */\n      0xff\n      and\n        /* \"zk/MiMCSponge.sol\":2219:2220  i */\n      dup2\n        /* \"zk/MiMCSponge.sol\":2219:2230  i < nRounds */\n      0xff\n      and\n      lt\n        /* \"zk/MiMCSponge.sol\":2202:2568  for(uint8 i = 0; i < nRounds; i++){... */\n      iszero\n      tag_26\n      jumpi\n        /* \"zk/MiMCSponge.sol\":2276:2277  p */\n      sload(0x00)\n        /* \"zk/MiMCSponge.sol\":2258:2278  addmod(lastR, _k, p) */\n      dup1\n      tag_28\n      jumpi\n      tag_29\n      tag_16\n      jump\t// in\n    tag_29:\n    tag_28:\n        /* \"zk/MiMCSponge.sol\":2272:2274  _k */\n      dup12\n        /* \"zk/MiMCSponge.sol\":2265:2270  lastR */\n      dup8\n        /* \"zk/MiMCSponge.sol\":2258:2278  addmod(lastR, _k, p) */\n      addmod\n        /* \"zk/MiMCSponge.sol\":2251:2278  mask = addmod(lastR, _k, p) */\n      swap5\n      pop\n        /* \"zk/MiMCSponge.sol\":2319:2320  p */\n      sload(0x00)\n        /* \"zk/MiMCSponge.sol\":2300:2321  addmod(mask, c[i], p) */\n      dup1\n      tag_30\n      jumpi\n      tag_31\n      tag_16\n      jump\t// in\n    tag_31:\n    tag_30:\n        /* \"zk/MiMCSponge.sol\":2313:2314  c */\n      0x01\n        /* \"zk/MiMCSponge.sol\":2315:2316  i */\n      dup3\n        /* \"zk/MiMCSponge.sol\":2313:2317  c[i] */\n      0xff\n      and\n      0x14\n      dup2\n      lt\n      tag_32\n      jumpi\n      tag_33\n      tag_19\n      jump\t// in\n    tag_33:\n    tag_32:\n      add\n      sload\n        /* \"zk/MiMCSponge.sol\":2307:2311  mask */\n      dup7\n        /* \"zk/MiMCSponge.sol\":2300:2321  addmod(mask, c[i], p) */\n      addmod\n        /* \"zk/MiMCSponge.sol\":2293:2321  mask = addmod(mask, c[i], p) */\n      swap5\n      pop\n        /* \"zk/MiMCSponge.sol\":2363:2364  p */\n      sload(0x00)\n        /* \"zk/MiMCSponge.sol\":2344:2365  mulmod(mask, mask, p) */\n      dup1\n      tag_35\n      jumpi\n      tag_36\n      tag_16\n      jump\t// in\n    tag_36:\n    tag_35:\n        /* \"zk/MiMCSponge.sol\":2357:2361  mask */\n      dup6\n        /* \"zk/MiMCSponge.sol\":2351:2355  mask */\n      dup7\n        /* \"zk/MiMCSponge.sol\":2344:2365  mulmod(mask, mask, p) */\n      mulmod\n        /* \"zk/MiMCSponge.sol\":2336:2365  mask2 = mulmod(mask, mask, p) */\n      swap4\n      pop\n        /* \"zk/MiMCSponge.sol\":2409:2410  p */\n      sload(0x00)\n        /* \"zk/MiMCSponge.sol\":2388:2411  mulmod(mask2, mask2, p) */\n      dup1\n      tag_37\n      jumpi\n      tag_38\n      tag_16\n      jump\t// in\n    tag_38:\n    tag_37:\n        /* \"zk/MiMCSponge.sol\":2402:2407  mask2 */\n      dup5\n        /* \"zk/MiMCSponge.sol\":2395:2400  mask2 */\n      dup6\n        /* \"zk/MiMCSponge.sol\":2388:2411  mulmod(mask2, mask2, p) */\n      mulmod\n        /* \"zk/MiMCSponge.sol\":2380:2411  mask4 = mulmod(mask2, mask2, p) */\n      swap3\n      pop\n        /* \"zk/MiMCSponge.sol\":2453:2454  p */\n      sload(0x00)\n        /* \"zk/MiMCSponge.sol\":2433:2455  mulmod(mask4, mask, p) */\n      dup1\n      tag_39\n      jumpi\n      tag_40\n      tag_16\n      jump\t// in\n    tag_40:\n    tag_39:\n        /* \"zk/MiMCSponge.sol\":2447:2451  mask */\n      dup6\n        /* \"zk/MiMCSponge.sol\":2440:2445  mask4 */\n      dup5\n        /* \"zk/MiMCSponge.sol\":2433:2455  mulmod(mask4, mask, p) */\n      mulmod\n        /* \"zk/MiMCSponge.sol\":2426:2455  mask = mulmod(mask4, mask, p) */\n      swap5\n      pop\n        /* \"zk/MiMCSponge.sol\":2479:2484  lastR */\n      dup6\n        /* \"zk/MiMCSponge.sol\":2472:2484  temp = lastR */\n      swap2\n      pop\n        /* \"zk/MiMCSponge.sol\":2527:2528  p */\n      sload(0x00)\n        /* \"zk/MiMCSponge.sol\":2507:2529  addmod(lastL, mask, p) */\n      dup1\n      tag_41\n      jumpi\n      tag_42\n      tag_16\n      jump\t// in\n    tag_42:\n    tag_41:\n        /* \"zk/MiMCSponge.sol\":2521:2525  mask */\n      dup6\n        /* \"zk/MiMCSponge.sol\":2514:2519  lastL */\n      dup9\n        /* \"zk/MiMCSponge.sol\":2507:2529  addmod(lastL, mask, p) */\n      addmod\n        /* \"zk/MiMCSponge.sol\":2499:2529  lastR = addmod(lastL, mask, p) */\n      swap6\n      pop\n        /* \"zk/MiMCSponge.sol\":2552:2556  temp */\n      dup2\n        /* \"zk/MiMCSponge.sol\":2544:2556  lastL = temp */\n      swap7\n      pop\n        /* \"zk/MiMCSponge.sol\":2232:2235  i++ */\n      dup1\n      dup1\n      tag_43\n      swap1\n      tag_23\n      jump\t// in\n    tag_43:\n      swap2\n      pop\n      pop\n        /* \"zk/MiMCSponge.sol\":2202:2568  for(uint8 i = 0; i < nRounds; i++){... */\n      jump(tag_25)\n    tag_26:\n      pop\n        /* \"zk/MiMCSponge.sol\":2588:2593  lastL */\n      dup6\n        /* \"zk/MiMCSponge.sol\":2595:2600  lastR */\n      dup6\n        /* \"zk/MiMCSponge.sol\":2580:2601  return (lastL, lastR) */\n      swap9\n      pop\n      swap9\n      pop\n      pop\n      pop\n      pop\n      pop\n      pop\n      pop\n      pop\n        /* \"zk/MiMCSponge.sol\":1896:2609  function MiMC5Feistel(uint256 _iL, uint256 _iR, uint256 _k) internal view returns(uint256 oL, uint256 oR) {... */\n      swap4\n      pop\n      swap4\n      swap2\n      pop\n      pop\n      jump\t// out\n        /* \"#utility.yul\":7:82   */\n    tag_44:\n        /* \"#utility.yul\":40:46   */\n      0x00\n        /* \"#utility.yul\":73:75   */\n      0x40\n        /* \"#utility.yul\":67:76   */\n      mload\n        /* \"#utility.yul\":57:76   */\n      swap1\n      pop\n        /* \"#utility.yul\":7:82   */\n      swap1\n      jump\t// out\n        /* \"#utility.yul\":88:205   */\n    tag_45:\n        /* \"#utility.yul\":197:198   */\n      0x00\n        /* \"#utility.yul\":194:195   */\n      dup1\n        /* \"#utility.yul\":187:199   */\n      revert\n        /* \"#utility.yul\":334:451   */\n    tag_47:\n        /* \"#utility.yul\":443:444   */\n      0x00\n        /* \"#utility.yul\":440:441   */\n      dup1\n        /* \"#utility.yul\":433:445   */\n      revert\n        /* \"#utility.yul\":457:559   */\n    tag_48:\n        /* \"#utility.yul\":498:504   */\n      0x00\n        /* \"#utility.yul\":549:551   */\n      0x1f\n        /* \"#utility.yul\":545:552   */\n      not\n        /* \"#utility.yul\":540:542   */\n      0x1f\n        /* \"#utility.yul\":533:538   */\n      dup4\n        /* \"#utility.yul\":529:543   */\n      add\n        /* \"#utility.yul\":525:553   */\n      and\n        /* \"#utility.yul\":515:553   */\n      swap1\n      pop\n        /* \"#utility.yul\":457:559   */\n      swap2\n      swap1\n      pop\n      jump\t// out\n        /* \"#utility.yul\":565:745   */\n    tag_49:\n        /* \"#utility.yul\":613:690   */\n      0x4e487b7100000000000000000000000000000000000000000000000000000000\n        /* \"#utility.yul\":610:611   */\n      0x00\n        /* \"#utility.yul\":603:691   */\n      mstore\n        /* \"#utility.yul\":710:714   */\n      0x41\n        /* \"#utility.yul\":707:708   */\n      0x04\n        /* \"#utility.yul\":700:715   */\n      mstore\n        /* \"#utility.yul\":734:738   */\n      0x24\n        /* \"#utility.yul\":731:732   */\n      0x00\n        /* \"#utility.yul\":724:739   */\n      revert\n        /* \"#utility.yul\":751:1032   */\n    tag_50:\n        /* \"#utility.yul\":834:861   */\n      tag_70\n        /* \"#utility.yul\":856:860   */\n      dup3\n        /* \"#utility.yul\":834:861   */\n      tag_48\n      jump\t// in\n    tag_70:\n        /* \"#utility.yul\":826:832   */\n      dup2\n        /* \"#utility.yul\":822:862   */\n      add\n        /* \"#utility.yul\":964:970   */\n      dup2\n        /* \"#utility.yul\":952:962   */\n      dup2\n        /* \"#utility.yul\":949:971   */\n      lt\n        /* \"#utility.yul\":928:946   */\n      0xffffffffffffffff\n        /* \"#utility.yul\":916:926   */\n      dup3\n        /* \"#utility.yul\":913:947   */\n      gt\n        /* \"#utility.yul\":910:972   */\n      or\n        /* \"#utility.yul\":907:995   */\n      iszero\n      tag_71\n      jumpi\n        /* \"#utility.yul\":975:993   */\n      tag_72\n      tag_49\n      jump\t// in\n    tag_72:\n        /* \"#utility.yul\":907:995   */\n    tag_71:\n        /* \"#utility.yul\":1015:1025   */\n      dup1\n        /* \"#utility.yul\":1011:1013   */\n      0x40\n        /* \"#utility.yul\":1004:1026   */\n      mstore\n        /* \"#utility.yul\":794:1032   */\n      pop\n        /* \"#utility.yul\":751:1032   */\n      pop\n      pop\n      jump\t// out\n        /* \"#utility.yul\":1038:1167   */\n    tag_51:\n        /* \"#utility.yul\":1072:1078   */\n      0x00\n        /* \"#utility.yul\":1099:1119   */\n      tag_74\n      tag_44\n      jump\t// in\n    tag_74:\n        /* \"#utility.yul\":1089:1119   */\n      swap1\n      pop\n        /* \"#utility.yul\":1128:1161   */\n      tag_75\n        /* \"#utility.yul\":1156:1160   */\n      dup3\n        /* \"#utility.yul\":1148:1154   */\n      dup3\n        /* \"#utility.yul\":1128:1161   */\n      tag_50\n      jump\t// in\n    tag_75:\n        /* \"#utility.yul\":1038:1167   */\n      swap2\n      swap1\n      pop\n      jump\t// out\n        /* \"#utility.yul\":1173:1422   */\n    tag_52:\n        /* \"#utility.yul\":1248:1252   */\n      0x00\n        /* \"#utility.yul\":1338:1356   */\n      0xffffffffffffffff\n        /* \"#utility.yul\":1330:1336   */\n      dup3\n        /* \"#utility.yul\":1327:1357   */\n      gt\n        /* \"#utility.yul\":1324:1380   */\n      iszero\n      tag_77\n      jumpi\n        /* \"#utility.yul\":1360:1378   */\n      tag_78\n      tag_49\n      jump\t// in\n    tag_78:\n        /* \"#utility.yul\":1324:1380   */\n    tag_77:\n        /* \"#utility.yul\":1410:1414   */\n      0x20\n        /* \"#utility.yul\":1402:1408   */\n      dup3\n        /* \"#utility.yul\":1398:1415   */\n      mul\n        /* \"#utility.yul\":1390:1415   */\n      swap1\n      pop\n        /* \"#utility.yul\":1173:1422   */\n      swap2\n      swap1\n      pop\n      jump\t// out\n        /* \"#utility.yul\":1428:1545   */\n    tag_53:\n        /* \"#utility.yul\":1537:1538   */\n      0x00\n        /* \"#utility.yul\":1534:1535   */\n      dup1\n        /* \"#utility.yul\":1527:1539   */\n      revert\n        /* \"#utility.yul\":1551:1628   */\n    tag_54:\n        /* \"#utility.yul\":1588:1595   */\n      0x00\n        /* \"#utility.yul\":1617:1622   */\n      dup2\n        /* \"#utility.yul\":1606:1622   */\n      swap1\n      pop\n        /* \"#utility.yul\":1551:1628   */\n      swap2\n      swap1\n      pop\n      jump\t// out\n        /* \"#utility.yul\":1634:1756   */\n    tag_55:\n        /* \"#utility.yul\":1707:1731   */\n      tag_82\n        /* \"#utility.yul\":1725:1730   */\n      dup2\n        /* \"#utility.yul\":1707:1731   */\n      tag_54\n      jump\t// in\n    tag_82:\n        /* \"#utility.yul\":1700:1705   */\n      dup2\n        /* \"#utility.yul\":1697:1732   */\n      eq\n        /* \"#utility.yul\":1687:1750   */\n      tag_83\n      jumpi\n        /* \"#utility.yul\":1746:1747   */\n      0x00\n        /* \"#utility.yul\":1743:1744   */\n      dup1\n        /* \"#utility.yul\":1736:1748   */\n      revert\n        /* \"#utility.yul\":1687:1750   */\n    tag_83:\n        /* \"#utility.yul\":1634:1756   */\n      pop\n      jump\t// out\n        /* \"#utility.yul\":1762:1901   */\n    tag_56:\n        /* \"#utility.yul\":1808:1813   */\n      0x00\n        /* \"#utility.yul\":1846:1852   */\n      dup2\n        /* \"#utility.yul\":1833:1853   */\n      calldataload\n        /* \"#utility.yul\":1824:1853   */\n      swap1\n      pop\n        /* \"#utility.yul\":1862:1895   */\n      tag_85\n        /* \"#utility.yul\":1889:1894   */\n      dup2\n        /* \"#utility.yul\":1862:1895   */\n      tag_55\n      jump\t// in\n    tag_85:\n        /* \"#utility.yul\":1762:1901   */\n      swap3\n      swap2\n      pop\n      pop\n      jump\t// out\n        /* \"#utility.yul\":1925:2568   */\n    tag_57:\n        /* \"#utility.yul\":2019:2024   */\n      0x00\n        /* \"#utility.yul\":2044:2123   */\n      tag_87\n        /* \"#utility.yul\":2060:2122   */\n      tag_88\n        /* \"#utility.yul\":2115:2121   */\n      dup5\n        /* \"#utility.yul\":2060:2122   */\n      tag_52\n      jump\t// in\n    tag_88:\n        /* \"#utility.yul\":2044:2123   */\n      tag_51\n      jump\t// in\n    tag_87:\n        /* \"#utility.yul\":2035:2123   */\n      swap1\n      pop\n        /* \"#utility.yul\":2143:2148   */\n      dup1\n        /* \"#utility.yul\":2196:2200   */\n      0x20\n        /* \"#utility.yul\":2188:2194   */\n      dup5\n        /* \"#utility.yul\":2184:2201   */\n      mul\n        /* \"#utility.yul\":2176:2182   */\n      dup4\n        /* \"#utility.yul\":2172:2202   */\n      add\n        /* \"#utility.yul\":2225:2228   */\n      dup6\n        /* \"#utility.yul\":2217:2223   */\n      dup2\n        /* \"#utility.yul\":2214:2229   */\n      gt\n        /* \"#utility.yul\":2211:2333   */\n      iszero\n      tag_89\n      jumpi\n        /* \"#utility.yul\":2244:2323   */\n      tag_90\n      tag_53\n      jump\t// in\n    tag_90:\n        /* \"#utility.yul\":2211:2333   */\n    tag_89:\n        /* \"#utility.yul\":2359:2365   */\n      dup4\n        /* \"#utility.yul\":2342:2562   */\n    tag_91:\n        /* \"#utility.yul\":2376:2382   */\n      dup2\n        /* \"#utility.yul\":2371:2374   */\n      dup2\n        /* \"#utility.yul\":2368:2383   */\n      lt\n        /* \"#utility.yul\":2342:2562   */\n      iszero\n      tag_93\n      jumpi\n        /* \"#utility.yul\":2451:2454   */\n      dup1\n        /* \"#utility.yul\":2480:2517   */\n      tag_94\n        /* \"#utility.yul\":2513:2516   */\n      dup9\n        /* \"#utility.yul\":2501:2511   */\n      dup3\n        /* \"#utility.yul\":2480:2517   */\n      tag_56\n      jump\t// in\n    tag_94:\n        /* \"#utility.yul\":2475:2478   */\n      dup5\n        /* \"#utility.yul\":2468:2518   */\n      mstore\n        /* \"#utility.yul\":2547:2551   */\n      0x20\n        /* \"#utility.yul\":2542:2545   */\n      dup5\n        /* \"#utility.yul\":2538:2552   */\n      add\n        /* \"#utility.yul\":2531:2552   */\n      swap4\n      pop\n        /* \"#utility.yul\":2418:2562   */\n      pop\n        /* \"#utility.yul\":2402:2406   */\n      0x20\n        /* \"#utility.yul\":2397:2400   */\n      dup2\n        /* \"#utility.yul\":2393:2407   */\n      add\n        /* \"#utility.yul\":2386:2407   */\n      swap1\n      pop\n        /* \"#utility.yul\":2342:2562   */\n      jump(tag_91)\n    tag_93:\n        /* \"#utility.yul\":2346:2367   */\n      pop\n        /* \"#utility.yul\":2025:2568   */\n      pop\n      pop\n        /* \"#utility.yul\":1925:2568   */\n      swap4\n      swap3\n      pop\n      pop\n      pop\n      jump\t// out\n        /* \"#utility.yul\":2592:2931   */\n    tag_58:\n        /* \"#utility.yul\":2661:2666   */\n      0x00\n        /* \"#utility.yul\":2710:2713   */\n      dup3\n        /* \"#utility.yul\":2703:2707   */\n      0x1f\n        /* \"#utility.yul\":2695:2701   */\n      dup4\n        /* \"#utility.yul\":2691:2708   */\n      add\n        /* \"#utility.yul\":2687:2714   */\n      slt\n        /* \"#utility.yul\":2677:2799   */\n      tag_96\n      jumpi\n        /* \"#utility.yul\":2718:2797   */\n      tag_97\n      tag_47\n      jump\t// in\n    tag_97:\n        /* \"#utility.yul\":2677:2799   */\n    tag_96:\n        /* \"#utility.yul\":2822:2826   */\n      0x02\n        /* \"#utility.yul\":2844:2925   */\n      tag_98\n        /* \"#utility.yul\":2921:2924   */\n      dup5\n        /* \"#utility.yul\":2913:2919   */\n      dup3\n        /* \"#utility.yul\":2905:2911   */\n      dup6\n        /* \"#utility.yul\":2844:2925   */\n      tag_57\n      jump\t// in\n    tag_98:\n        /* \"#utility.yul\":2835:2925   */\n      swap2\n      pop\n        /* \"#utility.yul\":2667:2931   */\n      pop\n        /* \"#utility.yul\":2592:2931   */\n      swap3\n      swap2\n      pop\n      pop\n      jump\t// out\n        /* \"#utility.yul\":2937:3457   */\n    tag_6:\n        /* \"#utility.yul\":3028:3034   */\n      0x00\n        /* \"#utility.yul\":3036:3042   */\n      dup1\n        /* \"#utility.yul\":3085:3087   */\n      0x60\n        /* \"#utility.yul\":3073:3082   */\n      dup4\n        /* \"#utility.yul\":3064:3071   */\n      dup6\n        /* \"#utility.yul\":3060:3083   */\n      sub\n        /* \"#utility.yul\":3056:3088   */\n      slt\n        /* \"#utility.yul\":3053:3172   */\n      iszero\n      tag_100\n      jumpi\n        /* \"#utility.yul\":3091:3170   */\n      tag_101\n      tag_45\n      jump\t// in\n    tag_101:\n        /* \"#utility.yul\":3053:3172   */\n    tag_100:\n        /* \"#utility.yul\":3211:3212   */\n      0x00\n        /* \"#utility.yul\":3236:3312   */\n      tag_102\n        /* \"#utility.yul\":3304:3311   */\n      dup6\n        /* \"#utility.yul\":3295:3301   */\n      dup3\n        /* \"#utility.yul\":3284:3293   */\n      dup7\n        /* \"#utility.yul\":3280:3302   */\n      add\n        /* \"#utility.yul\":3236:3312   */\n      tag_58\n      jump\t// in\n    tag_102:\n        /* \"#utility.yul\":3226:3312   */\n      swap3\n      pop\n        /* \"#utility.yul\":3182:3322   */\n      pop\n        /* \"#utility.yul\":3361:3363   */\n      0x40\n        /* \"#utility.yul\":3387:3440   */\n      tag_103\n        /* \"#utility.yul\":3432:3439   */\n      dup6\n        /* \"#utility.yul\":3423:3429   */\n      dup3\n        /* \"#utility.yul\":3412:3421   */\n      dup7\n        /* \"#utility.yul\":3408:3430   */\n      add\n        /* \"#utility.yul\":3387:3440   */\n      tag_56\n      jump\t// in\n    tag_103:\n        /* \"#utility.yul\":3377:3440   */\n      swap2\n      pop\n        /* \"#utility.yul\":3332:3450   */\n      pop\n        /* \"#utility.yul\":2937:3457   */\n      swap3\n      pop\n      swap3\n      swap1\n      pop\n      jump\t// out\n        /* \"#utility.yul\":3463:3581   */\n    tag_59:\n        /* \"#utility.yul\":3550:3574   */\n      tag_105\n        /* \"#utility.yul\":3568:3573   */\n      dup2\n        /* \"#utility.yul\":3550:3574   */\n      tag_54\n      jump\t// in\n    tag_105:\n        /* \"#utility.yul\":3545:3548   */\n      dup3\n        /* \"#utility.yul\":3538:3575   */\n      mstore\n        /* \"#utility.yul\":3463:3581   */\n      pop\n      pop\n      jump\t// out\n        /* \"#utility.yul\":3587:3809   */\n    tag_9:\n        /* \"#utility.yul\":3680:3684   */\n      0x00\n        /* \"#utility.yul\":3718:3720   */\n      0x20\n        /* \"#utility.yul\":3707:3716   */\n      dup3\n        /* \"#utility.yul\":3703:3721   */\n      add\n        /* \"#utility.yul\":3695:3721   */\n      swap1\n      pop\n        /* \"#utility.yul\":3731:3802   */\n      tag_107\n        /* \"#utility.yul\":3799:3800   */\n      0x00\n        /* \"#utility.yul\":3788:3797   */\n      dup4\n        /* \"#utility.yul\":3784:3801   */\n      add\n        /* \"#utility.yul\":3775:3781   */\n      dup5\n        /* \"#utility.yul\":3731:3802   */\n      tag_59\n      jump\t// in\n    tag_107:\n        /* \"#utility.yul\":3587:3809   */\n      swap3\n      swap2\n      pop\n      pop\n      jump\t// out\n        /* \"#utility.yul\":3815:3995   */\n    tag_16:\n        /* \"#utility.yul\":3863:3940   */\n      0x4e487b7100000000000000000000000000000000000000000000000000000000\n        /* \"#utility.yul\":3860:3861   */\n      0x00\n        /* \"#utility.yul\":3853:3941   */\n      mstore\n        /* \"#utility.yul\":3960:3964   */\n      0x12\n        /* \"#utility.yul\":3957:3958   */\n      0x04\n        /* \"#utility.yul\":3950:3965   */\n      mstore\n        /* \"#utility.yul\":3984:3988   */\n      0x24\n        /* \"#utility.yul\":3981:3982   */\n      0x00\n        /* \"#utility.yul\":3974:3989   */\n      revert\n        /* \"#utility.yul\":4001:4181   */\n    tag_19:\n        /* \"#utility.yul\":4049:4126   */\n      0x4e487b7100000000000000000000000000000000000000000000000000000000\n        /* \"#utility.yul\":4046:4047   */\n      0x00\n        /* \"#utility.yul\":4039:4127   */\n      mstore\n        /* \"#utility.yul\":4146:4150   */\n      0x32\n        /* \"#utility.yul\":4143:4144   */\n      0x04\n        /* \"#utility.yul\":4136:4151   */\n      mstore\n        /* \"#utility.yul\":4170:4174   */\n      0x24\n        /* \"#utility.yul\":4167:4168   */\n      0x00\n        /* \"#utility.yul\":4160:4175   */\n      revert\n        /* \"#utility.yul\":4187:4367   */\n    tag_60:\n        /* \"#utility.yul\":4235:4312   */\n      0x4e487b7100000000000000000000000000000000000000000000000000000000\n        /* \"#utility.yul\":4232:4233   */\n      0x00\n        /* \"#utility.yul\":4225:4313   */\n      mstore\n        /* \"#utility.yul\":4332:4336   */\n      0x11\n        /* \"#utility.yul\":4329:4330   */\n      0x04\n        /* \"#utility.yul\":4322:4337   */\n      mstore\n        /* \"#utility.yul\":4356:4360   */\n      0x24\n        /* \"#utility.yul\":4353:4354   */\n      0x00\n        /* \"#utility.yul\":4346:4361   */\n      revert\n        /* \"#utility.yul\":4373:4459   */\n    tag_61:\n        /* \"#utility.yul\":4408:4415   */\n      0x00\n        /* \"#utility.yul\":4448:4452   */\n      0xff\n        /* \"#utility.yul\":4441:4446   */\n      dup3\n        /* \"#utility.yul\":4437:4453   */\n      and\n        /* \"#utility.yul\":4426:4453   */\n      swap1\n      pop\n        /* \"#utility.yul\":4373:4459   */\n      swap2\n      swap1\n      pop\n      jump\t// out\n        /* \"#utility.yul\":4465:4632   */\n    tag_23:\n        /* \"#utility.yul\":4502:4505   */\n      0x00\n        /* \"#utility.yul\":4525:4547   */\n      tag_113\n        /* \"#utility.yul\":4541:4546   */\n      dup3\n        /* \"#utility.yul\":4525:4547   */\n      tag_61\n      jump\t// in\n    tag_113:\n        /* \"#utility.yul\":4516:4547   */\n      swap2\n      pop\n        /* \"#utility.yul\":4569:4573   */\n      0xff\n        /* \"#utility.yul\":4562:4567   */\n      dup3\n        /* \"#utility.yul\":4559:4574   */\n      sub\n        /* \"#utility.yul\":4556:4597   */\n      tag_114\n      jumpi\n        /* \"#utility.yul\":4577:4595   */\n      tag_115\n      tag_60\n      jump\t// in\n    tag_115:\n        /* \"#utility.yul\":4556:4597   */\n    tag_114:\n        /* \"#utility.yul\":4624:4625   */\n      0x01\n        /* \"#utility.yul\":4617:4622   */\n      dup3\n        /* \"#utility.yul\":4613:4626   */\n      add\n        /* \"#utility.yul\":4606:4626   */\n      swap1\n      pop\n        /* \"#utility.yul\":4465:4632   */\n      swap2\n      swap1\n      pop\n      jump\t// out\n\n    auxdata: 0xa26469706673582212205de6fee123c3c133b43d63902fda34e6dccaee6f508825d3fc9e7d7c955ecd5564736f6c63430008110033\n}\n",
				"bytecode": {
					"linkReferences": {},
					"object": "60806040527f30644e72e131a029b85045b68181585d2833e84879b9709143e1f593f0000001600055604051806102800160405280600081526020017f391768a085a953882c2200e315dc6b6353e4791466d524980f97b786716ef44c81526020017f9d4f50cb64b2c7a8f7b2c17065bac3a4ef451cd9718db14693cc75cbb863089081526020017f71504526d8cd57565fca39e86feeb52100fecb23f9b81ab0ac066aef68328e3e81526020017f935b8800cf73aa9b083a4bdbfea0f4efeb5e0b1bb927455b4bc8a4bcc58e9a6681526020017f65731fa0feccca6cba08c176f5443dbaea0de6ae20993a97f6b709785897d20f81526020017f1fd61c6b69084af504ea1fa012821bb4af507d64efd9934b9bbf36705290f12d81526020017f40f253aa05d71624fe6759a1f5edd323d110996b3fcfba07abdf171a5f9de39981526020017f1e70e5f07fda6b0119e5c8f11aa869db08e948e2bc688cb4db0b4ee543c46f3e81526020017f790b360b1e8223e3834cfd88dd07eb3e4fb59e8bd83626fbdc9583d8877a15af81526020017f37a0de4d2c56628d40f1638628efb49c4c741fe881cf8a6e865ec71688b4487a81526020017fc7cb9fe85afe2450c4da8a32983cc0e6070d253c86e59bfd1fd24fcaa91c658a81526020017fcb6e8649b6a56e9277be3bf1d943244b79048284cdd78743a74863e58b9e198781526020017f594448aa40d994274590a8a5c4ab87b374317b4bbc013841ce844e4bf19805bb81526020017f01ff873d84b64b0d73eddd73625d1b5686a3d1f31db8d0086b3101bdb5a6f7ff81526020017ff810e1e9fad9cdb55d70a243eccd090c85f836ce991bb2190b0f0aab32d8e0b381526020017ffdcf72e9d11d20a02478305a7183c50ed3ddde3c9e80b2bf5efdaca8f87d651d81526020017ff66144aed21cec88adbe8c8f6cd05ee5407d8c06d39607d62584909149d3403c81526020017f8fa16e2ad5a7a87d70003c61c1d2a08fc9ab669e6b95350f28e01a15745c274581526020017fd99c9018257d4ec8c901b111feb6857c4219c3340ac68bf54ce4448a530375f9815250600190601461031b92919061032e565b5034801561032857600080fd5b5061038b565b826014810192821561035d579160200282015b8281111561035c578251825591602001919060010190610341565b5b50905061036a919061036e565b5090565b5b8082111561038757600081600090555060010161036f565b5090565b6104bd8061039a6000396000f3fe608060405234801561001057600080fd5b506004361061002b5760003560e01c8063d622e5a414610030575b600080fd5b61004a6004803603810190610045919061035a565b610060565b60405161005791906103a9565b60405180910390f35b600080600090506000805b60028160ff1610156100cd5760005480610088576100876103c4565b5b868260ff166002811061009e5761009d6103f3565b5b6020020151840892506100b28383876100d9565b809350819450505080806100c59061045e565b91505061006b565b50819250505092915050565b6000806000601490506000869050600086905060008060008060005b8760ff168160ff1610156101b85760005480610114576101136103c4565b5b8b870894506000548061012a576101296103c4565b5b60018260ff1660148110610141576101406103f3565b5b01548608945060005480610158576101576103c4565b5b85860993506000548061016e5761016d6103c4565b5b848509925060005480610184576101836103c4565b5b85840994508591506000548061019d5761019c6103c4565b5b858808955081965080806101b09061045e565b9150506100f5565b5085859850985050505050505050935093915050565b6000604051905090565b600080fd5b600080fd5b6000601f19601f8301169050919050565b7f4e487b7100000000000000000000000000000000000000000000000000000000600052604160045260246000fd5b61022b826101e2565b810181811067ffffffffffffffff8211171561024a576102496101f3565b5b80604052505050565b600061025d6101ce565b90506102698282610222565b919050565b600067ffffffffffffffff821115610289576102886101f3565b5b602082029050919050565b600080fd5b6000819050919050565b6102ac81610299565b81146102b757600080fd5b50565b6000813590506102c9816102a3565b92915050565b60006102e26102dd8461026e565b610253565b905080602084028301858111156102fc576102fb610294565b5b835b81811015610325578061031188826102ba565b8452602084019350506020810190506102fe565b5050509392505050565b600082601f830112610344576103436101dd565b5b60026103518482856102cf565b91505092915050565b60008060608385031215610371576103706101d8565b5b600061037f8582860161032f565b9250506040610390858286016102ba565b9150509250929050565b6103a381610299565b82525050565b60006020820190506103be600083018461039a565b92915050565b7f4e487b7100000000000000000000000000000000000000000000000000000000600052601260045260246000fd5b7f4e487b7100000000000000000000000000000000000000000000000000000000600052603260045260246000fd5b7f4e487b7100000000000000000000000000000000000000000000000000000000600052601160045260246000fd5b600060ff82169050919050565b600061046982610451565b915060ff820361047c5761047b610422565b5b60018201905091905056fea26469706673582212205de6fee123c3c133b43d63902fda34e6dccaee6f508825d3fc9e7d7c955ecd5564736f6c63430008110033",
					"opcodes": "PUSH1 0x80 PUSH1 0x40 MSTORE PUSH32 0x30644E72E131A029B85045B68181585D2833E84879B9709143E1F593F0000001 PUSH1 0x0 SSTORE PUSH1 0x40 MLOAD DUP1 PUSH2 0x280 ADD PUSH1 0x40 MSTORE DUP1 PUSH1 0x0 DUP2 MSTORE PUSH1 0x20 ADD PUSH32 0x391768A085A953882C2200E315DC6B6353E4791466D524980F97B786716EF44C DUP2 MSTORE PUSH1 0x20 ADD PUSH32 0x9D4F50CB64B2C7A8F7B2C17065BAC3A4EF451CD9718DB14693CC75CBB8630890 DUP2 MSTORE PUSH1 0x20 ADD PUSH32 0x71504526D8CD57565FCA39E86FEEB52100FECB23F9B81AB0AC066AEF68328E3E DUP2 MSTORE PUSH1 0x20 ADD PUSH32 0x935B8800CF73AA9B083A4BDBFEA0F4EFEB5E0B1BB927455B4BC8A4BCC58E9A66 DUP2 MSTORE PUSH1 0x20 ADD PUSH32 0x65731FA0FECCCA6CBA08C176F5443DBAEA0DE6AE20993A97F6B709785897D20F DUP2 MSTORE PUSH1 0x20 ADD PUSH32 0x1FD61C6B69084AF504EA1FA012821BB4AF507D64EFD9934B9BBF36705290F12D DUP2 MSTORE PUSH1 0x20 ADD PUSH32 0x40F253AA05D71624FE6759A1F5EDD323D110996B3FCFBA07ABDF171A5F9DE399 DUP2 MSTORE PUSH1 0x20 ADD PUSH32 0x1E70E5F07FDA6B0119E5C8F11AA869DB08E948E2BC688CB4DB0B4EE543C46F3E DUP2 MSTORE PUSH1 0x20 ADD PUSH32 0x790B360B1E8223E3834CFD88DD07EB3E4FB59E8BD83626FBDC9583D8877A15AF DUP2 MSTORE PUSH1 0x20 ADD PUSH32 0x37A0DE4D2C56628D40F1638628EFB49C4C741FE881CF8A6E865EC71688B4487A DUP2 MSTORE PUSH1 0x20 ADD PUSH32 0xC7CB9FE85AFE2450C4DA8A32983CC0E6070D253C86E59BFD1FD24FCAA91C658A DUP2 MSTORE PUSH1 0x20 ADD PUSH32 0xCB6E8649B6A56E9277BE3BF1D943244B79048284CDD78743A74863E58B9E1987 DUP2 MSTORE PUSH1 0x20 ADD PUSH32 0x594448AA40D994274590A8A5C4AB87B374317B4BBC013841CE844E4BF19805BB DUP2 MSTORE PUSH1 0x20 ADD PUSH32 0x1FF873D84B64B0D73EDDD73625D1B5686A3D1F31DB8D0086B3101BDB5A6F7FF DUP2 MSTORE PUSH1 0x20 ADD PUSH32 0xF810E1E9FAD9CDB55D70A243ECCD090C85F836CE991BB2190B0F0AAB32D8E0B3 DUP2 MSTORE PUSH1 0x20 ADD PUSH32 0xFDCF72E9D11D20A02478305A7183C50ED3DDDE3C9E80B2BF5EFDACA8F87D651D DUP2 MSTORE PUSH1 0x20 ADD PUSH32 0xF66144AED21CEC88ADBE8C8F6CD05EE5407D8C06D39607D62584909149D3403C DUP2 MSTORE PUSH1 0x20 ADD PUSH32 0x8FA16E2AD5A7A87D70003C61C1D2A08FC9AB669E6B95350F28E01A15745C2745 DUP2 MSTORE PUSH1 0x20 ADD PUSH32 0xD99C9018257D4EC8C901B111FEB6857C4219C3340AC68BF54CE4448A530375F9 DUP2 MSTORE POP PUSH1 0x1 SWAP1 PUSH1 0x14 PUSH2 0x31B SWAP3 SWAP2 SWAP1 PUSH2 0x32E JUMP JUMPDEST POP CALLVALUE DUP1 ISZERO PUSH2 0x328 JUMPI PUSH1 0x0 DUP1 REVERT JUMPDEST POP PUSH2 0x38B JUMP JUMPDEST DUP3 PUSH1 0x14 DUP2 ADD SWAP3 DUP3 ISZERO PUSH2 0x35D JUMPI SWAP2 PUSH1 0x20 MUL DUP3 ADD JUMPDEST DUP3 DUP2 GT ISZERO PUSH2 0x35C JUMPI DUP3 MLOAD DUP3 SSTORE SWAP2 PUSH1 0x20 ADD SWAP2 SWAP1 PUSH1 0x1 ADD SWAP1 PUSH2 0x341 JUMP JUMPDEST JUMPDEST POP SWAP1 POP PUSH2 0x36A SWAP2 SWAP1 PUSH2 0x36E JUMP JUMPDEST POP SWAP1 JUMP JUMPDEST JUMPDEST DUP1 DUP3 GT ISZERO PUSH2 0x387 JUMPI PUSH1 0x0 DUP2 PUSH1 0x0 SWAP1 SSTORE POP PUSH1 0x1 ADD PUSH2 0x36F JUMP JUMPDEST POP SWAP1 JUMP JUMPDEST PUSH2 0x4BD DUP1 PUSH2 0x39A PUSH1 0x0 CODECOPY PUSH1 0x0 RETURN INVALID PUSH1 0x80 PUSH1 0x40 MSTORE CALLVALUE DUP1 ISZERO PUSH2 0x10 JUMPI PUSH1 0x0 DUP1 REVERT JUMPDEST POP PUSH1 0x4 CALLDATASIZE LT PUSH2 0x2B JUMPI PUSH1 0x0 CALLDATALOAD PUSH1 0xE0 SHR DUP1 PUSH4 0xD622E5A4 EQ PUSH2 0x30 JUMPI JUMPDEST PUSH1 0x0 DUP1 REVERT JUMPDEST PUSH2 0x4A PUSH1 0x4 DUP1 CALLDATASIZE SUB DUP2 ADD SWAP1 PUSH2 0x45 SWAP2 SWAP1 PUSH2 0x35A JUMP JUMPDEST PUSH2 0x60 JUMP JUMPDEST PUSH1 0x40 MLOAD PUSH2 0x57 SWAP2 SWAP1 PUSH2 0x3A9 JUMP JUMPDEST PUSH1 0x40 MLOAD DUP1 SWAP2 SUB SWAP1 RETURN JUMPDEST PUSH1 0x0 DUP1 PUSH1 0x0 SWAP1 POP PUSH1 0x0 DUP1 JUMPDEST PUSH1 0x2 DUP2 PUSH1 0xFF AND LT ISZERO PUSH2 0xCD JUMPI PUSH1 0x0 SLOAD DUP1 PUSH2 0x88 JUMPI PUSH2 0x87 PUSH2 0x3C4 JUMP JUMPDEST JUMPDEST DUP7 DUP3 PUSH1 0xFF AND PUSH1 0x2 DUP2 LT PUSH2 0x9E JUMPI PUSH2 0x9D PUSH2 0x3F3 JUMP JUMPDEST JUMPDEST PUSH1 0x20 MUL ADD MLOAD DUP5 ADDMOD SWAP3 POP PUSH2 0xB2 DUP4 DUP4 DUP8 PUSH2 0xD9 JUMP JUMPDEST DUP1 SWAP4 POP DUP2 SWAP5 POP POP POP DUP1 DUP1 PUSH2 0xC5 SWAP1 PUSH2 0x45E JUMP JUMPDEST SWAP2 POP POP PUSH2 0x6B JUMP JUMPDEST POP DUP2 SWAP3 POP POP POP SWAP3 SWAP2 POP POP JUMP JUMPDEST PUSH1 0x0 DUP1 PUSH1 0x0 PUSH1 0x14 SWAP1 POP PUSH1 0x0 DUP7 SWAP1 POP PUSH1 0x0 DUP7 SWAP1 POP PUSH1 0x0 DUP1 PUSH1 0x0 DUP1 PUSH1 0x0 JUMPDEST DUP8 PUSH1 0xFF AND DUP2 PUSH1 0xFF AND LT ISZERO PUSH2 0x1B8 JUMPI PUSH1 0x0 SLOAD DUP1 PUSH2 0x114 JUMPI PUSH2 0x113 PUSH2 0x3C4 JUMP JUMPDEST JUMPDEST DUP12 DUP8 ADDMOD SWAP5 POP PUSH1 0x0 SLOAD DUP1 PUSH2 0x12A JUMPI PUSH2 0x129 PUSH2 0x3C4 JUMP JUMPDEST JUMPDEST PUSH1 0x1 DUP3 PUSH1 0xFF AND PUSH1 0x14 DUP2 LT PUSH2 0x141 JUMPI PUSH2 0x140 PUSH2 0x3F3 JUMP JUMPDEST JUMPDEST ADD SLOAD DUP7 ADDMOD SWAP5 POP PUSH1 0x0 SLOAD DUP1 PUSH2 0x158 JUMPI PUSH2 0x157 PUSH2 0x3C4 JUMP JUMPDEST JUMPDEST DUP6 DUP7 MULMOD SWAP4 POP PUSH1 0x0 SLOAD DUP1 PUSH2 0x16E JUMPI PUSH2 0x16D PUSH2 0x3C4 JUMP JUMPDEST JUMPDEST DUP5 DUP6 MULMOD SWAP3 POP PUSH1 0x0 SLOAD DUP1 PUSH2 0x184 JUMPI PUSH2 0x183 PUSH2 0x3C4 JUMP JUMPDEST JUMPDEST DUP6 DUP5 MULMOD SWAP5 POP DUP6 SWAP2 POP PUSH1 0x0 SLOAD DUP1 PUSH2 0x19D JUMPI PUSH2 0x19C PUSH2 0x3C4 JUMP JUMPDEST JUMPDEST DUP6 DUP9 ADDMOD SWAP6 POP DUP2 SWAP7 POP DUP1 DUP1 PUSH2 0x1B0 SWAP1 PUSH2 0x45E JUMP JUMPDEST SWAP2 POP POP PUSH2 0xF5 JUMP JUMPDEST POP DUP6 DUP6 SWAP9 POP SWAP9 POP POP POP POP POP POP POP POP SWAP4 POP SWAP4 SWAP2 POP POP JUMP JUMPDEST PUSH1 0x0 PUSH1 0x40 MLOAD SWAP1 POP SWAP1 JUMP JUMPDEST PUSH1 0x0 DUP1 REVERT JUMPDEST PUSH1 0x0 DUP1 REVERT JUMPDEST PUSH1 0x0 PUSH1 0x1F NOT PUSH1 0x1F DUP4 ADD AND SWAP1 POP SWAP2 SWAP1 POP JUMP JUMPDEST PUSH32 0x4E487B7100000000000000000000000000000000000000000000000000000000 PUSH1 0x0 MSTORE PUSH1 0x41 PUSH1 0x4 MSTORE PUSH1 0x24 PUSH1 0x0 REVERT JUMPDEST PUSH2 0x22B DUP3 PUSH2 0x1E2 JUMP JUMPDEST DUP2 ADD DUP2 DUP2 LT PUSH8 0xFFFFFFFFFFFFFFFF DUP3 GT OR ISZERO PUSH2 0x24A JUMPI PUSH2 0x249 PUSH2 0x1F3 JUMP JUMPDEST JUMPDEST DUP1 PUSH1 0x40 MSTORE POP POP POP JUMP JUMPDEST PUSH1 0x0 PUSH2 0x25D PUSH2 0x1CE JUMP JUMPDEST SWAP1 POP PUSH2 0x269 DUP3 DUP3 PUSH2 0x222 JUMP JUMPDEST SWAP2 SWAP1 POP JUMP JUMPDEST PUSH1 0x0 PUSH8 0xFFFFFFFFFFFFFFFF DUP3 GT ISZERO PUSH2 0x289 JUMPI PUSH2 0x288 PUSH2 0x1F3 JUMP JUMPDEST JUMPDEST PUSH1 0x20 DUP3 MUL SWAP1 POP SWAP2 SWAP1 POP JUMP JUMPDEST PUSH1 0x0 DUP1 REVERT JUMPDEST PUSH1 0x0 DUP2 SWAP1 POP SWAP2 SWAP1 POP JUMP JUMPDEST PUSH2 0x2AC DUP2 PUSH2 0x299 JUMP JUMPDEST DUP2 EQ PUSH2 0x2B7 JUMPI PUSH1 0x0 DUP1 REVERT JUMPDEST POP JUMP JUMPDEST PUSH1 0x0 DUP2 CALLDATALOAD SWAP1 POP PUSH2 0x2C9 DUP2 PUSH2 0x2A3 JUMP JUMPDEST SWAP3 SWAP2 POP POP JUMP JUMPDEST PUSH1 0x0 PUSH2 0x2E2 PUSH2 0x2DD DUP5 PUSH2 0x26E JUMP JUMPDEST PUSH2 0x253 JUMP JUMPDEST SWAP1 POP DUP1 PUSH1 0x20 DUP5 MUL DUP4 ADD DUP6 DUP2 GT ISZERO PUSH2 0x2FC JUMPI PUSH2 0x2FB PUSH2 0x294 JUMP JUMPDEST JUMPDEST DUP4 JUMPDEST DUP2 DUP2 LT ISZERO PUSH2 0x325 JUMPI DUP1 PUSH2 0x311 DUP9 DUP3 PUSH2 0x2BA JUMP JUMPDEST DUP5 MSTORE PUSH1 0x20 DUP5 ADD SWAP4 POP POP PUSH1 0x20 DUP2 ADD SWAP1 POP PUSH2 0x2FE JUMP JUMPDEST POP POP POP SWAP4 SWAP3 POP POP POP JUMP JUMPDEST PUSH1 0x0 DUP3 PUSH1 0x1F DUP4 ADD SLT PUSH2 0x344 JUMPI PUSH2 0x343 PUSH2 0x1DD JUMP JUMPDEST JUMPDEST PUSH1 0x2 PUSH2 0x351 DUP5 DUP3 DUP6 PUSH2 0x2CF JUMP JUMPDEST SWAP2 POP POP SWAP3 SWAP2 POP POP JUMP JUMPDEST PUSH1 0x0 DUP1 PUSH1 0x60 DUP4 DUP6 SUB SLT ISZERO PUSH2 0x371 JUMPI PUSH2 0x370 PUSH2 0x1D8 JUMP JUMPDEST JUMPDEST PUSH1 0x0 PUSH2 0x37F DUP6 DUP3 DUP7 ADD PUSH2 0x32F JUMP JUMPDEST SWAP3 POP POP PUSH1 0x40 PUSH2 0x390 DUP6 DUP3 DUP7 ADD PUSH2 0x2BA JUMP JUMPDEST SWAP2 POP POP SWAP3 POP SWAP3 SWAP1 POP JUMP JUMPDEST PUSH2 0x3A3 DUP2 PUSH2 0x299 JUMP JUMPDEST DUP3 MSTORE POP POP JUMP JUMPDEST PUSH1 0x0 PUSH1 0x20 DUP3 ADD SWAP1 POP PUSH2 0x3BE PUSH1 0x0 DUP4 ADD DUP5 PUSH2 0x39A JUMP JUMPDEST SWAP3 SWAP2 POP POP JUMP JUMPDEST PUSH32 0x4E487B7100000000000000000000000000000000000000000000000000000000 PUSH1 0x0 MSTORE PUSH1 0x12 PUSH1 0x4 MSTORE PUSH1 0x24 PUSH1 0x0 REVERT JUMPDEST PUSH32 0x4E487B7100000000000000000000000000000000000000000000000000000000 PUSH1 0x0 MSTORE PUSH1 0x32 PUSH1 0x4 MSTORE PUSH1 0x24 PUSH1 0x0 REVERT JUMPDEST PUSH32 0x4E487B7100000000000000000000000000000000000000000000000000000000 PUSH1 0x0 MSTORE PUSH1 0x11 PUSH1 0x4 MSTORE PUSH1 0x24 PUSH1 0x0 REVERT JUMPDEST PUSH1 0x0 PUSH1 0xFF DUP3 AND SWAP1 POP SWAP2 SWAP1 POP JUMP JUMPDEST PUSH1 0x0 PUSH2 0x469 DUP3 PUSH2 0x451 JUMP JUMPDEST SWAP2 POP PUSH1 0xFF DUP3 SUB PUSH2 0x47C JUMPI PUSH2 0x47B PUSH2 0x422 JUMP JUMPDEST JUMPDEST PUSH1 0x1 DUP3 ADD SWAP1 POP SWAP2 SWAP1 POP JUMP INVALID LOG2 PUSH5 0x6970667358 0x22 SLT KECCAK256 0x5D 0xE6 INVALID 0xE1 0x23 0xC3 0xC1 CALLER 0xB4 RETURNDATASIZE PUSH4 0x902FDA34 0xE6 0xDC 0xCA 0xEE PUSH16 0x508825D3FC9E7D7C955ECD5564736F6C PUSH4 0x43000811 STOP CALLER "
				},
				"gasEstimates": {
					"creation": {
						"codeDepositCost": "242600",
						"executionCost": "infinite",
						"totalCost": "infinite"
					},
					"external": {
						"MiMC5Sponge(uint256[2],uint256)": "infinite"
					},
					"internal": {
						"MiMC5Feistel(uint256,uint256,uint256)": "infinite"
					}
				},
				"methodIdentifiers": {
					"MiMC5Sponge(uint256[2],uint256)": "d622e5a4"
				}
			},
			"storageLayout": {
				"storage": [
					{
						"astId": 4,
						"contract": "zk/MiMCSponge.sol:Hasher",
						"label": "p",
						"offset": 0,
						"slot": "0",
						"type": "t_uint256"
					},
					{
						"astId": 29,
						"contract": "zk/MiMCSponge.sol:Hasher",
						"label": "c",
						"offset": 0,
						"slot": "1",
						"type": "t_array(t_uint256)20_storage"
					}
				],
				"types": {
					"t_array(t_uint256)20_storage": {
						"base": "t_uint256",
						"encoding": "inplace",
						"label": "uint256[20]",
						"numberOfBytes": "640"
					},
					"t_uint256": {
						"encoding": "inplace",
						"label": "uint256",
						"numberOfBytes": "32"
					}
				}
			},
			"userdoc": {
				"kind": "user",
				"methods": {},
				"version": 1
			}
		}
	}
}