{
	"telefonica/dynamicCentenario.sol": {
		"DynamicNFT": {
			"abi": [
				{
					"inputs": [
						{
							"internalType": "string",
							"name": "_initBaseURI",
							"type": "string"
						}
					],
					"stateMutability": "nonpayable",
					"type": "constructor"
				},
				{
					"inputs": [
						{
							"internalType": "address",
							"name": "sender",
							"type": "address"
						},
						{
							"internalType": "uint256",
							"name": "tokenId",
							"type": "uint256"
						},
						{
							"internalType": "address",
							"name": "owner",
							"type": "address"
						}
					],
					"name": "ERC721IncorrectOwner",
					"type": "error"
				},
				{
					"inputs": [
						{
							"internalType": "address",
							"name": "operator",
							"type": "address"
						},
						{
							"internalType": "uint256",
							"name": "tokenId",
							"type": "uint256"
						}
					],
					"name": "ERC721InsufficientApproval",
					"type": "error"
				},
				{
					"inputs": [
						{
							"internalType": "address",
							"name": "approver",
							"type": "address"
						}
					],
					"name": "ERC721InvalidApprover",
					"type": "error"
				},
				{
					"inputs": [
						{
							"internalType": "address",
							"name": "operator",
							"type": "address"
						}
					],
					"name": "ERC721InvalidOperator",
					"type": "error"
				},
				{
					"inputs": [
						{
							"internalType": "address",
							"name": "owner",
							"type": "address"
						}
					],
					"name": "ERC721InvalidOwner",
					"type": "error"
				},
				{
					"inputs": [
						{
							"internalType": "address",
							"name": "receiver",
							"type": "address"
						}
					],
					"name": "ERC721InvalidReceiver",
					"type": "error"
				},
				{
					"inputs": [
						{
							"internalType": "address",
							"name": "sender",
							"type": "address"
						}
					],
					"name": "ERC721InvalidSender",
					"type": "error"
				},
				{
					"inputs": [
						{
							"internalType": "uint256",
							"name": "tokenId",
							"type": "uint256"
						}
					],
					"name": "ERC721NonexistentToken",
					"type": "error"
				},
				{
					"anonymous": false,
					"inputs": [
						{
							"indexed": true,
							"internalType": "address",
							"name": "owner",
							"type": "address"
						},
						{
							"indexed": true,
							"internalType": "address",
							"name": "approved",
							"type": "address"
						},
						{
							"indexed": true,
							"internalType": "uint256",
							"name": "tokenId",
							"type": "uint256"
						}
					],
					"name": "Approval",
					"type": "event"
				},
				{
					"anonymous": false,
					"inputs": [
						{
							"indexed": true,
							"internalType": "address",
							"name": "owner",
							"type": "address"
						},
						{
							"indexed": true,
							"internalType": "address",
							"name": "operator",
							"type": "address"
						},
						{
							"indexed": false,
							"internalType": "bool",
							"name": "approved",
							"type": "bool"
						}
					],
					"name": "ApprovalForAll",
					"type": "event"
				},
				{
					"anonymous": false,
					"inputs": [
						{
							"indexed": true,
							"internalType": "address",
							"name": "previousOwner",
							"type": "address"
						},
						{
							"indexed": true,
							"internalType": "address",
							"name": "newOwner",
							"type": "address"
						}
					],
					"name": "OwnershipTransferred",
					"type": "event"
				},
				{
					"anonymous": false,
					"inputs": [
						{
							"indexed": true,
							"internalType": "address",
							"name": "from",
							"type": "address"
						},
						{
							"indexed": true,
							"internalType": "address",
							"name": "to",
							"type": "address"
						},
						{
							"indexed": true,
							"internalType": "uint256",
							"name": "tokenId",
							"type": "uint256"
						}
					],
					"name": "Transfer",
					"type": "event"
				},
				{
					"inputs": [
						{
							"internalType": "address",
							"name": "to",
							"type": "address"
						},
						{
							"internalType": "uint256",
							"name": "tokenId",
							"type": "uint256"
						}
					],
					"name": "approve",
					"outputs": [],
					"stateMutability": "nonpayable",
					"type": "function"
				},
				{
					"inputs": [
						{
							"internalType": "address",
							"name": "owner",
							"type": "address"
						}
					],
					"name": "balanceOf",
					"outputs": [
						{
							"internalType": "uint256",
							"name": "",
							"type": "uint256"
						}
					],
					"stateMutability": "view",
					"type": "function"
				},
				{
					"inputs": [],
					"name": "deploymentTimestamp",
					"outputs": [
						{
							"internalType": "uint256",
							"name": "",
							"type": "uint256"
						}
					],
					"stateMutability": "view",
					"type": "function"
				},
				{
					"inputs": [
						{
							"internalType": "uint256",
							"name": "tokenId",
							"type": "uint256"
						}
					],
					"name": "getApproved",
					"outputs": [
						{
							"internalType": "address",
							"name": "",
							"type": "address"
						}
					],
					"stateMutability": "view",
					"type": "function"
				},
				{
					"inputs": [
						{
							"internalType": "address",
							"name": "owner",
							"type": "address"
						},
						{
							"internalType": "address",
							"name": "operator",
							"type": "address"
						}
					],
					"name": "isApprovedForAll",
					"outputs": [
						{
							"internalType": "bool",
							"name": "",
							"type": "bool"
						}
					],
					"stateMutability": "view",
					"type": "function"
				},
				{
					"inputs": [],
					"name": "name",
					"outputs": [
						{
							"internalType": "string",
							"name": "",
							"type": "string"
						}
					],
					"stateMutability": "view",
					"type": "function"
				},
				{
					"inputs": [],
					"name": "owner",
					"outputs": [
						{
							"internalType": "address",
							"name": "",
							"type": "address"
						}
					],
					"stateMutability": "view",
					"type": "function"
				},
				{
					"inputs": [
						{
							"internalType": "uint256",
							"name": "tokenId",
							"type": "uint256"
						}
					],
					"name": "ownerOf",
					"outputs": [
						{
							"internalType": "address",
							"name": "",
							"type": "address"
						}
					],
					"stateMutability": "view",
					"type": "function"
				},
				{
					"inputs": [],
					"name": "renounceOwnership",
					"outputs": [],
					"stateMutability": "nonpayable",
					"type": "function"
				},
				{
					"inputs": [
						{
							"internalType": "address",
							"name": "to",
							"type": "address"
						}
					],
					"name": "safeMint",
					"outputs": [],
					"stateMutability": "nonpayable",
					"type": "function"
				},
				{
					"inputs": [
						{
							"internalType": "address",
							"name": "from",
							"type": "address"
						},
						{
							"internalType": "address",
							"name": "to",
							"type": "address"
						},
						{
							"internalType": "uint256",
							"name": "tokenId",
							"type": "uint256"
						}
					],
					"name": "safeTransferFrom",
					"outputs": [],
					"stateMutability": "nonpayable",
					"type": "function"
				},
				{
					"inputs": [
						{
							"internalType": "address",
							"name": "from",
							"type": "address"
						},
						{
							"internalType": "address",
							"name": "to",
							"type": "address"
						},
						{
							"internalType": "uint256",
							"name": "tokenId",
							"type": "uint256"
						},
						{
							"internalType": "bytes",
							"name": "data",
							"type": "bytes"
						}
					],
					"name": "safeTransferFrom",
					"outputs": [],
					"stateMutability": "nonpayable",
					"type": "function"
				},
				{
					"inputs": [
						{
							"internalType": "address",
							"name": "operator",
							"type": "address"
						},
						{
							"internalType": "bool",
							"name": "approved",
							"type": "bool"
						}
					],
					"name": "setApprovalForAll",
					"outputs": [],
					"stateMutability": "nonpayable",
					"type": "function"
				},
				{
					"inputs": [
						{
							"internalType": "bytes4",
							"name": "interfaceId",
							"type": "bytes4"
						}
					],
					"name": "supportsInterface",
					"outputs": [
						{
							"internalType": "bool",
							"name": "",
							"type": "bool"
						}
					],
					"stateMutability": "view",
					"type": "function"
				},
				{
					"inputs": [],
					"name": "symbol",
					"outputs": [
						{
							"internalType": "string",
							"name": "",
							"type": "string"
						}
					],
					"stateMutability": "view",
					"type": "function"
				},
				{
					"inputs": [
						{
							"internalType": "uint256",
							"name": "tokenId",
							"type": "uint256"
						}
					],
					"name": "tokenURI",
					"outputs": [
						{
							"internalType": "string",
							"name": "",
							"type": "string"
						}
					],
					"stateMutability": "view",
					"type": "function"
				},
				{
					"inputs": [
						{
							"internalType": "address",
							"name": "from",
							"type": "address"
						},
						{
							"internalType": "address",
							"name": "to",
							"type": "address"
						},
						{
							"internalType": "uint256",
							"name": "tokenId",
							"type": "uint256"
						}
					],
					"name": "transferFrom",
					"outputs": [],
					"stateMutability": "nonpayable",
					"type": "function"
				},
				{
					"inputs": [
						{
							"internalType": "address",
							"name": "newOwner",
							"type": "address"
						}
					],
					"name": "transferOwnership",
					"outputs": [],
					"stateMutability": "nonpayable",
					"type": "function"
				}
			],
			"devdoc": {
				"errors": {
					"ERC721IncorrectOwner(address,uint256,address)": [
						{
							"details": "Indicates an error related to the ownership over a particular token. Used in transfers.",
							"params": {
								"owner": "Address of the current owner of a token.",
								"sender": "Address whose tokens are being transferred.",
								"tokenId": "Identifier number of a token."
							}
						}
					],
					"ERC721InsufficientApproval(address,uint256)": [
						{
							"details": "Indicates a failure with the `operator`’s approval. Used in transfers.",
							"params": {
								"operator": "Address that may be allowed to operate on tokens without being their owner.",
								"tokenId": "Identifier number of a token."
							}
						}
					],
					"ERC721InvalidApprover(address)": [
						{
							"details": "Indicates a failure with the `approver` of a token to be approved. Used in approvals.",
							"params": {
								"approver": "Address initiating an approval operation."
							}
						}
					],
					"ERC721InvalidOperator(address)": [
						{
							"details": "Indicates a failure with the `operator` to be approved. Used in approvals.",
							"params": {
								"operator": "Address that may be allowed to operate on tokens without being their owner."
							}
						}
					],
					"ERC721InvalidOwner(address)": [
						{
							"details": "Indicates that an address can't be an owner. For example, `address(0)` is a forbidden owner in EIP-20. Used in balance queries.",
							"params": {
								"owner": "Address of the current owner of a token."
							}
						}
					],
					"ERC721InvalidReceiver(address)": [
						{
							"details": "Indicates a failure with the token `receiver`. Used in transfers.",
							"params": {
								"receiver": "Address to which tokens are being transferred."
							}
						}
					],
					"ERC721InvalidSender(address)": [
						{
							"details": "Indicates a failure with the token `sender`. Used in transfers.",
							"params": {
								"sender": "Address whose tokens are being transferred."
							}
						}
					],
					"ERC721NonexistentToken(uint256)": [
						{
							"details": "Indicates a `tokenId` whose `owner` is the zero address.",
							"params": {
								"tokenId": "Identifier number of a token."
							}
						}
					]
				},
				"events": {
					"Approval(address,address,uint256)": {
						"details": "Emitted when `owner` enables `approved` to manage the `tokenId` token."
					},
					"ApprovalForAll(address,address,bool)": {
						"details": "Emitted when `owner` enables or disables (`approved`) `operator` to manage all of its assets."
					},
					"Transfer(address,address,uint256)": {
						"details": "Emitted when `tokenId` token is transferred from `from` to `to`."
					}
				},
				"kind": "dev",
				"methods": {
					"approve(address,uint256)": {
						"details": "See {IERC721-approve}."
					},
					"balanceOf(address)": {
						"details": "See {IERC721-balanceOf}."
					},
					"getApproved(uint256)": {
						"details": "See {IERC721-getApproved}."
					},
					"isApprovedForAll(address,address)": {
						"details": "See {IERC721-isApprovedForAll}."
					},
					"name()": {
						"details": "See {IERC721Metadata-name}."
					},
					"owner()": {
						"details": "Returns the address of the current owner."
					},
					"ownerOf(uint256)": {
						"details": "See {IERC721-ownerOf}."
					},
					"renounceOwnership()": {
						"details": "Leaves the contract without owner. It will not be possible to call `onlyOwner` functions. Can only be called by the current owner. NOTE: Renouncing ownership will leave the contract without an owner, thereby disabling any functionality that is only available to the owner."
					},
					"safeTransferFrom(address,address,uint256)": {
						"details": "See {IERC721-safeTransferFrom}."
					},
					"safeTransferFrom(address,address,uint256,bytes)": {
						"details": "See {IERC721-safeTransferFrom}."
					},
					"setApprovalForAll(address,bool)": {
						"details": "See {IERC721-setApprovalForAll}."
					},
					"supportsInterface(bytes4)": {
						"details": "See {IERC165-supportsInterface}."
					},
					"symbol()": {
						"details": "See {IERC721Metadata-symbol}."
					},
					"tokenURI(uint256)": {
						"details": "See {IERC721Metadata-tokenURI}."
					},
					"transferFrom(address,address,uint256)": {
						"details": "See {IERC721-transferFrom}."
					},
					"transferOwnership(address)": {
						"details": "Transfers ownership of the contract to a new account (`newOwner`). Can only be called by the current owner."
					}
				},
				"version": 1
			},
			"evm": {
				"assembly": "    /* \"telefonica/dynamicCentenario.sol\":229:2097  contract DynamicNFT is ERC721, Ownable {... */\n  mstore(0x40, 0xa0)\n    /* \"telefonica/dynamicCentenario.sol\":633:790  constructor(string memory _initBaseURI) ERC721(\"DynamicNFT\", \"DYN\") {... */\n  callvalue\n  dup1\n  iszero\n  tag_1\n  jumpi\n  0x00\n  dup1\n  revert\ntag_1:\n  pop\n  mload(0x40)\n  sub(codesize, bytecodeSize)\n  dup1\n  bytecodeSize\n  dup4\n  codecopy\n  dup2\n  dup2\n  add\n  0x40\n  mstore\n  dup2\n  add\n  swap1\n  tag_2\n  swap2\n  swap1\n  tag_3\n  jump\t// in\ntag_2:\n    /* \"@openzeppelin/contracts/token/ERC721/ERC721.sol\":1381:1494  constructor(string memory name_, string memory symbol_) {... */\n  mload(0x40)\n  dup1\n  0x40\n  add\n  0x40\n  mstore\n  dup1\n  0x0a\n  dup2\n  mstore\n  0x20\n  add\n  0x44796e616d69634e465400000000000000000000000000000000000000000000\n  dup2\n  mstore\n  pop\n  mload(0x40)\n  dup1\n  0x40\n  add\n  0x40\n  mstore\n  dup1\n  0x03\n  dup2\n  mstore\n  0x20\n  add\n  0x44594e0000000000000000000000000000000000000000000000000000000000\n  dup2\n  mstore\n  pop\n    /* \"@openzeppelin/contracts/token/ERC721/ERC721.sol\":1455:1460  name_ */\n  dup2\n    /* \"@openzeppelin/contracts/token/ERC721/ERC721.sol\":1447:1452  _name */\n  0x00\n    /* \"@openzeppelin/contracts/token/ERC721/ERC721.sol\":1447:1460  _name = name_ */\n  swap1\n  dup2\n  tag_8\n  swap2\n  swap1\n  tag_9\n  jump\t// in\ntag_8:\n  pop\n    /* \"@openzeppelin/contracts/token/ERC721/ERC721.sol\":1480:1487  symbol_ */\n  dup1\n    /* \"@openzeppelin/contracts/token/ERC721/ERC721.sol\":1470:1477  _symbol */\n  0x01\n    /* \"@openzeppelin/contracts/token/ERC721/ERC721.sol\":1470:1487  _symbol = symbol_ */\n  swap1\n  dup2\n  tag_10\n  swap2\n  swap1\n  tag_9\n  jump\t// in\ntag_10:\n  pop\n    /* \"@openzeppelin/contracts/token/ERC721/ERC721.sol\":1381:1494  constructor(string memory name_, string memory symbol_) {... */\n  pop\n  pop\n    /* \"@openzeppelin/contracts/access/Ownable.sol\":936:968  _transferOwnership(_msgSender()) */\n  tag_12\n    /* \"@openzeppelin/contracts/access/Ownable.sol\":955:967  _msgSender() */\n  tag_13\n    /* \"@openzeppelin/contracts/access/Ownable.sol\":955:965  _msgSender */\n  shl(0x20, tag_14)\n    /* \"@openzeppelin/contracts/access/Ownable.sol\":955:967  _msgSender() */\n  0x20\n  shr\n  jump\t// in\ntag_13:\n    /* \"@openzeppelin/contracts/access/Ownable.sol\":936:954  _transferOwnership */\n  shl(0x20, tag_15)\n    /* \"@openzeppelin/contracts/access/Ownable.sol\":936:968  _transferOwnership(_msgSender()) */\n  0x20\n  shr\n  jump\t// in\ntag_12:\n    /* \"telefonica/dynamicCentenario.sol\":722:734  _initBaseURI */\n  dup1\n    /* \"telefonica/dynamicCentenario.sol\":712:719  baseURI */\n  0x08\n    /* \"telefonica/dynamicCentenario.sol\":712:734  baseURI = _initBaseURI */\n  swap1\n  dup2\n  tag_17\n  swap2\n  swap1\n  tag_9\n  jump\t// in\ntag_17:\n  pop\n    /* \"telefonica/dynamicCentenario.sol\":767:782  block.timestamp */\n  timestamp\n    /* \"telefonica/dynamicCentenario.sol\":745:782  deploymentTimestamp = block.timestamp */\n  0x80\n  dup2\n  dup2\n  mstore\n  pop\n  pop\n    /* \"telefonica/dynamicCentenario.sol\":633:790  constructor(string memory _initBaseURI) ERC721(\"DynamicNFT\", \"DYN\") {... */\n  pop\n    /* \"telefonica/dynamicCentenario.sol\":229:2097  contract DynamicNFT is ERC721, Ownable {... */\n  jump(tag_18)\n    /* \"@openzeppelin/contracts/utils/Context.sol\":640:736  function _msgSender() internal view virtual returns (address) {... */\ntag_14:\n    /* \"@openzeppelin/contracts/utils/Context.sol\":693:700  address */\n  0x00\n    /* \"@openzeppelin/contracts/utils/Context.sol\":719:729  msg.sender */\n  caller\n    /* \"@openzeppelin/contracts/utils/Context.sol\":712:729  return msg.sender */\n  swap1\n  pop\n    /* \"@openzeppelin/contracts/utils/Context.sol\":640:736  function _msgSender() internal view virtual returns (address) {... */\n  swap1\n  jump\t// out\n    /* \"@openzeppelin/contracts/access/Ownable.sol\":2426:2613  function _transferOwnership(address newOwner) internal virtual {... */\ntag_15:\n    /* \"@openzeppelin/contracts/access/Ownable.sol\":2499:2515  address oldOwner */\n  0x00\n    /* \"@openzeppelin/contracts/access/Ownable.sol\":2518:2524  _owner */\n  0x06\n  0x00\n  swap1\n  sload\n  swap1\n  0x0100\n  exp\n  swap1\n  div\n  0xffffffffffffffffffffffffffffffffffffffff\n  and\n    /* \"@openzeppelin/contracts/access/Ownable.sol\":2499:2524  address oldOwner = _owner */\n  swap1\n  pop\n    /* \"@openzeppelin/contracts/access/Ownable.sol\":2543:2551  newOwner */\n  dup2\n    /* \"@openzeppelin/contracts/access/Ownable.sol\":2534:2540  _owner */\n  0x06\n  0x00\n    /* \"@openzeppelin/contracts/access/Ownable.sol\":2534:2551  _owner = newOwner */\n  0x0100\n  exp\n  dup2\n  sload\n  dup2\n  0xffffffffffffffffffffffffffffffffffffffff\n  mul\n  not\n  and\n  swap1\n  dup4\n  0xffffffffffffffffffffffffffffffffffffffff\n  and\n  mul\n  or\n  swap1\n  sstore\n  pop\n    /* \"@openzeppelin/contracts/access/Ownable.sol\":2597:2605  newOwner */\n  dup2\n    /* \"@openzeppelin/contracts/access/Ownable.sol\":2566:2606  OwnershipTransferred(oldOwner, newOwner) */\n  0xffffffffffffffffffffffffffffffffffffffff\n  and\n    /* \"@openzeppelin/contracts/access/Ownable.sol\":2587:2595  oldOwner */\n  dup2\n    /* \"@openzeppelin/contracts/access/Ownable.sol\":2566:2606  OwnershipTransferred(oldOwner, newOwner) */\n  0xffffffffffffffffffffffffffffffffffffffff\n  and\n  0x8be0079c531659141344cd1fd0a4f28419497f9722a3daafe3b4186f6b6457e0\n  mload(0x40)\n  mload(0x40)\n  dup1\n  swap2\n  sub\n  swap1\n  log3\n    /* \"@openzeppelin/contracts/access/Ownable.sol\":2489:2613  {... */\n  pop\n    /* \"@openzeppelin/contracts/access/Ownable.sol\":2426:2613  function _transferOwnership(address newOwner) internal virtual {... */\n  pop\n  jump\t// out\n    /* \"#utility.yul\":7:82   */\ntag_21:\n    /* \"#utility.yul\":40:46   */\n  0x00\n    /* \"#utility.yul\":73:75   */\n  0x40\n    /* \"#utility.yul\":67:76   */\n  mload\n    /* \"#utility.yul\":57:76   */\n  swap1\n  pop\n    /* \"#utility.yul\":7:82   */\n  swap1\n  jump\t// out\n    /* \"#utility.yul\":88:205   */\ntag_22:\n    /* \"#utility.yul\":197:198   */\n  0x00\n    /* \"#utility.yul\":194:195   */\n  dup1\n    /* \"#utility.yul\":187:199   */\n  revert\n    /* \"#utility.yul\":211:328   */\ntag_23:\n    /* \"#utility.yul\":320:321   */\n  0x00\n    /* \"#utility.yul\":317:318   */\n  dup1\n    /* \"#utility.yul\":310:322   */\n  revert\n    /* \"#utility.yul\":334:451   */\ntag_24:\n    /* \"#utility.yul\":443:444   */\n  0x00\n    /* \"#utility.yul\":440:441   */\n  dup1\n    /* \"#utility.yul\":433:445   */\n  revert\n    /* \"#utility.yul\":457:574   */\ntag_25:\n    /* \"#utility.yul\":566:567   */\n  0x00\n    /* \"#utility.yul\":563:564   */\n  dup1\n    /* \"#utility.yul\":556:568   */\n  revert\n    /* \"#utility.yul\":580:682   */\ntag_26:\n    /* \"#utility.yul\":621:627   */\n  0x00\n    /* \"#utility.yul\":672:674   */\n  0x1f\n    /* \"#utility.yul\":668:675   */\n  not\n    /* \"#utility.yul\":663:665   */\n  0x1f\n    /* \"#utility.yul\":656:661   */\n  dup4\n    /* \"#utility.yul\":652:666   */\n  add\n    /* \"#utility.yul\":648:676   */\n  and\n    /* \"#utility.yul\":638:676   */\n  swap1\n  pop\n    /* \"#utility.yul\":580:682   */\n  swap2\n  swap1\n  pop\n  jump\t// out\n    /* \"#utility.yul\":688:868   */\ntag_27:\n    /* \"#utility.yul\":736:813   */\n  0x4e487b7100000000000000000000000000000000000000000000000000000000\n    /* \"#utility.yul\":733:734   */\n  0x00\n    /* \"#utility.yul\":726:814   */\n  mstore\n    /* \"#utility.yul\":833:837   */\n  0x41\n    /* \"#utility.yul\":830:831   */\n  0x04\n    /* \"#utility.yul\":823:838   */\n  mstore\n    /* \"#utility.yul\":857:861   */\n  0x24\n    /* \"#utility.yul\":854:855   */\n  0x00\n    /* \"#utility.yul\":847:862   */\n  revert\n    /* \"#utility.yul\":874:1155   */\ntag_28:\n    /* \"#utility.yul\":957:984   */\n  tag_62\n    /* \"#utility.yul\":979:983   */\n  dup3\n    /* \"#utility.yul\":957:984   */\n  tag_26\n  jump\t// in\ntag_62:\n    /* \"#utility.yul\":949:955   */\n  dup2\n    /* \"#utility.yul\":945:985   */\n  add\n    /* \"#utility.yul\":1087:1093   */\n  dup2\n    /* \"#utility.yul\":1075:1085   */\n  dup2\n    /* \"#utility.yul\":1072:1094   */\n  lt\n    /* \"#utility.yul\":1051:1069   */\n  0xffffffffffffffff\n    /* \"#utility.yul\":1039:1049   */\n  dup3\n    /* \"#utility.yul\":1036:1070   */\n  gt\n    /* \"#utility.yul\":1033:1095   */\n  or\n    /* \"#utility.yul\":1030:1118   */\n  iszero\n  tag_63\n  jumpi\n    /* \"#utility.yul\":1098:1116   */\n  tag_64\n  tag_27\n  jump\t// in\ntag_64:\n    /* \"#utility.yul\":1030:1118   */\ntag_63:\n    /* \"#utility.yul\":1138:1148   */\n  dup1\n    /* \"#utility.yul\":1134:1136   */\n  0x40\n    /* \"#utility.yul\":1127:1149   */\n  mstore\n    /* \"#utility.yul\":917:1155   */\n  pop\n    /* \"#utility.yul\":874:1155   */\n  pop\n  pop\n  jump\t// out\n    /* \"#utility.yul\":1161:1290   */\ntag_29:\n    /* \"#utility.yul\":1195:1201   */\n  0x00\n    /* \"#utility.yul\":1222:1242   */\n  tag_66\n  tag_21\n  jump\t// in\ntag_66:\n    /* \"#utility.yul\":1212:1242   */\n  swap1\n  pop\n    /* \"#utility.yul\":1251:1284   */\n  tag_67\n    /* \"#utility.yul\":1279:1283   */\n  dup3\n    /* \"#utility.yul\":1271:1277   */\n  dup3\n    /* \"#utility.yul\":1251:1284   */\n  tag_28\n  jump\t// in\ntag_67:\n    /* \"#utility.yul\":1161:1290   */\n  swap2\n  swap1\n  pop\n  jump\t// out\n    /* \"#utility.yul\":1296:1604   */\ntag_30:\n    /* \"#utility.yul\":1358:1362   */\n  0x00\n    /* \"#utility.yul\":1448:1466   */\n  0xffffffffffffffff\n    /* \"#utility.yul\":1440:1446   */\n  dup3\n    /* \"#utility.yul\":1437:1467   */\n  gt\n    /* \"#utility.yul\":1434:1490   */\n  iszero\n  tag_69\n  jumpi\n    /* \"#utility.yul\":1470:1488   */\n  tag_70\n  tag_27\n  jump\t// in\ntag_70:\n    /* \"#utility.yul\":1434:1490   */\ntag_69:\n    /* \"#utility.yul\":1508:1537   */\n  tag_71\n    /* \"#utility.yul\":1530:1536   */\n  dup3\n    /* \"#utility.yul\":1508:1537   */\n  tag_26\n  jump\t// in\ntag_71:\n    /* \"#utility.yul\":1500:1537   */\n  swap1\n  pop\n    /* \"#utility.yul\":1592:1596   */\n  0x20\n    /* \"#utility.yul\":1586:1590   */\n  dup2\n    /* \"#utility.yul\":1582:1597   */\n  add\n    /* \"#utility.yul\":1574:1597   */\n  swap1\n  pop\n    /* \"#utility.yul\":1296:1604   */\n  swap2\n  swap1\n  pop\n  jump\t// out\n    /* \"#utility.yul\":1610:1856   */\ntag_31:\n    /* \"#utility.yul\":1691:1692   */\n  0x00\n    /* \"#utility.yul\":1701:1814   */\ntag_73:\n    /* \"#utility.yul\":1715:1721   */\n  dup4\n    /* \"#utility.yul\":1712:1713   */\n  dup2\n    /* \"#utility.yul\":1709:1722   */\n  lt\n    /* \"#utility.yul\":1701:1814   */\n  iszero\n  tag_75\n  jumpi\n    /* \"#utility.yul\":1800:1801   */\n  dup1\n    /* \"#utility.yul\":1795:1798   */\n  dup3\n    /* \"#utility.yul\":1791:1802   */\n  add\n    /* \"#utility.yul\":1785:1803   */\n  mload\n    /* \"#utility.yul\":1781:1782   */\n  dup2\n    /* \"#utility.yul\":1776:1779   */\n  dup5\n    /* \"#utility.yul\":1772:1783   */\n  add\n    /* \"#utility.yul\":1765:1804   */\n  mstore\n    /* \"#utility.yul\":1737:1739   */\n  0x20\n    /* \"#utility.yul\":1734:1735   */\n  dup2\n    /* \"#utility.yul\":1730:1740   */\n  add\n    /* \"#utility.yul\":1725:1740   */\n  swap1\n  pop\n    /* \"#utility.yul\":1701:1814   */\n  jump(tag_73)\ntag_75:\n    /* \"#utility.yul\":1848:1849   */\n  0x00\n    /* \"#utility.yul\":1839:1845   */\n  dup5\n    /* \"#utility.yul\":1834:1837   */\n  dup5\n    /* \"#utility.yul\":1830:1846   */\n  add\n    /* \"#utility.yul\":1823:1850   */\n  mstore\n    /* \"#utility.yul\":1672:1856   */\n  pop\n    /* \"#utility.yul\":1610:1856   */\n  pop\n  pop\n  pop\n  jump\t// out\n    /* \"#utility.yul\":1862:2296   */\ntag_32:\n    /* \"#utility.yul\":1951:1956   */\n  0x00\n    /* \"#utility.yul\":1976:2042   */\n  tag_77\n    /* \"#utility.yul\":1992:2041   */\n  tag_78\n    /* \"#utility.yul\":2034:2040   */\n  dup5\n    /* \"#utility.yul\":1992:2041   */\n  tag_30\n  jump\t// in\ntag_78:\n    /* \"#utility.yul\":1976:2042   */\n  tag_29\n  jump\t// in\ntag_77:\n    /* \"#utility.yul\":1967:2042   */\n  swap1\n  pop\n    /* \"#utility.yul\":2065:2071   */\n  dup3\n    /* \"#utility.yul\":2058:2063   */\n  dup2\n    /* \"#utility.yul\":2051:2072   */\n  mstore\n    /* \"#utility.yul\":2103:2107   */\n  0x20\n    /* \"#utility.yul\":2096:2101   */\n  dup2\n    /* \"#utility.yul\":2092:2108   */\n  add\n    /* \"#utility.yul\":2141:2144   */\n  dup5\n    /* \"#utility.yul\":2132:2138   */\n  dup5\n    /* \"#utility.yul\":2127:2130   */\n  dup5\n    /* \"#utility.yul\":2123:2139   */\n  add\n    /* \"#utility.yul\":2120:2145   */\n  gt\n    /* \"#utility.yul\":2117:2229   */\n  iszero\n  tag_79\n  jumpi\n    /* \"#utility.yul\":2148:2227   */\n  tag_80\n  tag_25\n  jump\t// in\ntag_80:\n    /* \"#utility.yul\":2117:2229   */\ntag_79:\n    /* \"#utility.yul\":2238:2290   */\n  tag_81\n    /* \"#utility.yul\":2283:2289   */\n  dup5\n    /* \"#utility.yul\":2278:2281   */\n  dup3\n    /* \"#utility.yul\":2273:2276   */\n  dup6\n    /* \"#utility.yul\":2238:2290   */\n  tag_31\n  jump\t// in\ntag_81:\n    /* \"#utility.yul\":1957:2296   */\n  pop\n    /* \"#utility.yul\":1862:2296   */\n  swap4\n  swap3\n  pop\n  pop\n  pop\n  jump\t// out\n    /* \"#utility.yul\":2316:2671   */\ntag_33:\n    /* \"#utility.yul\":2383:2388   */\n  0x00\n    /* \"#utility.yul\":2432:2435   */\n  dup3\n    /* \"#utility.yul\":2425:2429   */\n  0x1f\n    /* \"#utility.yul\":2417:2423   */\n  dup4\n    /* \"#utility.yul\":2413:2430   */\n  add\n    /* \"#utility.yul\":2409:2436   */\n  slt\n    /* \"#utility.yul\":2399:2521   */\n  tag_83\n  jumpi\n    /* \"#utility.yul\":2440:2519   */\n  tag_84\n  tag_24\n  jump\t// in\ntag_84:\n    /* \"#utility.yul\":2399:2521   */\ntag_83:\n    /* \"#utility.yul\":2550:2556   */\n  dup2\n    /* \"#utility.yul\":2544:2557   */\n  mload\n    /* \"#utility.yul\":2575:2665   */\n  tag_85\n    /* \"#utility.yul\":2661:2664   */\n  dup5\n    /* \"#utility.yul\":2653:2659   */\n  dup3\n    /* \"#utility.yul\":2646:2650   */\n  0x20\n    /* \"#utility.yul\":2638:2644   */\n  dup7\n    /* \"#utility.yul\":2634:2651   */\n  add\n    /* \"#utility.yul\":2575:2665   */\n  tag_32\n  jump\t// in\ntag_85:\n    /* \"#utility.yul\":2566:2665   */\n  swap2\n  pop\n    /* \"#utility.yul\":2389:2671   */\n  pop\n    /* \"#utility.yul\":2316:2671   */\n  swap3\n  swap2\n  pop\n  pop\n  jump\t// out\n    /* \"#utility.yul\":2677:3201   */\ntag_3:\n    /* \"#utility.yul\":2757:2763   */\n  0x00\n    /* \"#utility.yul\":2806:2808   */\n  0x20\n    /* \"#utility.yul\":2794:2803   */\n  dup3\n    /* \"#utility.yul\":2785:2792   */\n  dup5\n    /* \"#utility.yul\":2781:2804   */\n  sub\n    /* \"#utility.yul\":2777:2809   */\n  slt\n    /* \"#utility.yul\":2774:2893   */\n  iszero\n  tag_87\n  jumpi\n    /* \"#utility.yul\":2812:2891   */\n  tag_88\n  tag_22\n  jump\t// in\ntag_88:\n    /* \"#utility.yul\":2774:2893   */\ntag_87:\n    /* \"#utility.yul\":2953:2954   */\n  0x00\n    /* \"#utility.yul\":2942:2951   */\n  dup3\n    /* \"#utility.yul\":2938:2955   */\n  add\n    /* \"#utility.yul\":2932:2956   */\n  mload\n    /* \"#utility.yul\":2983:3001   */\n  0xffffffffffffffff\n    /* \"#utility.yul\":2975:2981   */\n  dup2\n    /* \"#utility.yul\":2972:3002   */\n  gt\n    /* \"#utility.yul\":2969:3086   */\n  iszero\n  tag_89\n  jumpi\n    /* \"#utility.yul\":3005:3084   */\n  tag_90\n  tag_23\n  jump\t// in\ntag_90:\n    /* \"#utility.yul\":2969:3086   */\ntag_89:\n    /* \"#utility.yul\":3110:3184   */\n  tag_91\n    /* \"#utility.yul\":3176:3183   */\n  dup5\n    /* \"#utility.yul\":3167:3173   */\n  dup3\n    /* \"#utility.yul\":3156:3165   */\n  dup6\n    /* \"#utility.yul\":3152:3174   */\n  add\n    /* \"#utility.yul\":3110:3184   */\n  tag_33\n  jump\t// in\ntag_91:\n    /* \"#utility.yul\":3100:3184   */\n  swap2\n  pop\n    /* \"#utility.yul\":2903:3194   */\n  pop\n    /* \"#utility.yul\":2677:3201   */\n  swap3\n  swap2\n  pop\n  pop\n  jump\t// out\n    /* \"#utility.yul\":3207:3306   */\ntag_34:\n    /* \"#utility.yul\":3259:3265   */\n  0x00\n    /* \"#utility.yul\":3293:3298   */\n  dup2\n    /* \"#utility.yul\":3287:3299   */\n  mload\n    /* \"#utility.yul\":3277:3299   */\n  swap1\n  pop\n    /* \"#utility.yul\":3207:3306   */\n  swap2\n  swap1\n  pop\n  jump\t// out\n    /* \"#utility.yul\":3312:3492   */\ntag_35:\n    /* \"#utility.yul\":3360:3437   */\n  0x4e487b7100000000000000000000000000000000000000000000000000000000\n    /* \"#utility.yul\":3357:3358   */\n  0x00\n    /* \"#utility.yul\":3350:3438   */\n  mstore\n    /* \"#utility.yul\":3457:3461   */\n  0x22\n    /* \"#utility.yul\":3454:3455   */\n  0x04\n    /* \"#utility.yul\":3447:3462   */\n  mstore\n    /* \"#utility.yul\":3481:3485   */\n  0x24\n    /* \"#utility.yul\":3478:3479   */\n  0x00\n    /* \"#utility.yul\":3471:3486   */\n  revert\n    /* \"#utility.yul\":3498:3818   */\ntag_36:\n    /* \"#utility.yul\":3542:3548   */\n  0x00\n    /* \"#utility.yul\":3579:3580   */\n  0x02\n    /* \"#utility.yul\":3573:3577   */\n  dup3\n    /* \"#utility.yul\":3569:3581   */\n  div\n    /* \"#utility.yul\":3559:3581   */\n  swap1\n  pop\n    /* \"#utility.yul\":3626:3627   */\n  0x01\n    /* \"#utility.yul\":3620:3624   */\n  dup3\n    /* \"#utility.yul\":3616:3628   */\n  and\n    /* \"#utility.yul\":3647:3665   */\n  dup1\n    /* \"#utility.yul\":3637:3718   */\n  tag_95\n  jumpi\n    /* \"#utility.yul\":3703:3707   */\n  0x7f\n    /* \"#utility.yul\":3695:3701   */\n  dup3\n    /* \"#utility.yul\":3691:3708   */\n  and\n    /* \"#utility.yul\":3681:3708   */\n  swap2\n  pop\n    /* \"#utility.yul\":3637:3718   */\ntag_95:\n    /* \"#utility.yul\":3765:3767   */\n  0x20\n    /* \"#utility.yul\":3757:3763   */\n  dup3\n    /* \"#utility.yul\":3754:3768   */\n  lt\n    /* \"#utility.yul\":3734:3752   */\n  dup2\n    /* \"#utility.yul\":3731:3769   */\n  sub\n    /* \"#utility.yul\":3728:3812   */\n  tag_96\n  jumpi\n    /* \"#utility.yul\":3784:3802   */\n  tag_97\n  tag_35\n  jump\t// in\ntag_97:\n    /* \"#utility.yul\":3728:3812   */\ntag_96:\n    /* \"#utility.yul\":3549:3818   */\n  pop\n    /* \"#utility.yul\":3498:3818   */\n  swap2\n  swap1\n  pop\n  jump\t// out\n    /* \"#utility.yul\":3824:3965   */\ntag_37:\n    /* \"#utility.yul\":3873:3877   */\n  0x00\n    /* \"#utility.yul\":3896:3899   */\n  dup2\n    /* \"#utility.yul\":3888:3899   */\n  swap1\n  pop\n    /* \"#utility.yul\":3919:3922   */\n  dup2\n    /* \"#utility.yul\":3916:3917   */\n  0x00\n    /* \"#utility.yul\":3909:3923   */\n  mstore\n    /* \"#utility.yul\":3953:3957   */\n  0x20\n    /* \"#utility.yul\":3950:3951   */\n  0x00\n    /* \"#utility.yul\":3940:3958   */\n  keccak256\n    /* \"#utility.yul\":3932:3958   */\n  swap1\n  pop\n    /* \"#utility.yul\":3824:3965   */\n  swap2\n  swap1\n  pop\n  jump\t// out\n    /* \"#utility.yul\":3971:4064   */\ntag_38:\n    /* \"#utility.yul\":4008:4014   */\n  0x00\n    /* \"#utility.yul\":4055:4057   */\n  0x20\n    /* \"#utility.yul\":4050:4052   */\n  0x1f\n    /* \"#utility.yul\":4043:4048   */\n  dup4\n    /* \"#utility.yul\":4039:4053   */\n  add\n    /* \"#utility.yul\":4035:4058   */\n  div\n    /* \"#utility.yul\":4025:4058   */\n  swap1\n  pop\n    /* \"#utility.yul\":3971:4064   */\n  swap2\n  swap1\n  pop\n  jump\t// out\n    /* \"#utility.yul\":4070:4177   */\ntag_39:\n    /* \"#utility.yul\":4114:4122   */\n  0x00\n    /* \"#utility.yul\":4164:4169   */\n  dup3\n    /* \"#utility.yul\":4158:4162   */\n  dup3\n    /* \"#utility.yul\":4154:4170   */\n  shl\n    /* \"#utility.yul\":4133:4170   */\n  swap1\n  pop\n    /* \"#utility.yul\":4070:4177   */\n  swap3\n  swap2\n  pop\n  pop\n  jump\t// out\n    /* \"#utility.yul\":4183:4576   */\ntag_40:\n    /* \"#utility.yul\":4252:4258   */\n  0x00\n    /* \"#utility.yul\":4302:4303   */\n  0x08\n    /* \"#utility.yul\":4290:4300   */\n  dup4\n    /* \"#utility.yul\":4286:4304   */\n  mul\n    /* \"#utility.yul\":4325:4422   */\n  tag_102\n    /* \"#utility.yul\":4355:4421   */\n  0xffffffffffffffffffffffffffffffffffffffffffffffffffffffffffffffff\n    /* \"#utility.yul\":4344:4353   */\n  dup3\n    /* \"#utility.yul\":4325:4422   */\n  tag_39\n  jump\t// in\ntag_102:\n    /* \"#utility.yul\":4443:4482   */\n  tag_103\n    /* \"#utility.yul\":4473:4481   */\n  dup7\n    /* \"#utility.yul\":4462:4471   */\n  dup4\n    /* \"#utility.yul\":4443:4482   */\n  tag_39\n  jump\t// in\ntag_103:\n    /* \"#utility.yul\":4431:4482   */\n  swap6\n  pop\n    /* \"#utility.yul\":4515:4519   */\n  dup1\n    /* \"#utility.yul\":4511:4520   */\n  not\n    /* \"#utility.yul\":4504:4509   */\n  dup5\n    /* \"#utility.yul\":4500:4521   */\n  and\n    /* \"#utility.yul\":4491:4521   */\n  swap4\n  pop\n    /* \"#utility.yul\":4564:4568   */\n  dup1\n    /* \"#utility.yul\":4554:4562   */\n  dup7\n    /* \"#utility.yul\":4550:4569   */\n  and\n    /* \"#utility.yul\":4543:4548   */\n  dup5\n    /* \"#utility.yul\":4540:4570   */\n  or\n    /* \"#utility.yul\":4530:4570   */\n  swap3\n  pop\n    /* \"#utility.yul\":4259:4576   */\n  pop\n  pop\n    /* \"#utility.yul\":4183:4576   */\n  swap4\n  swap3\n  pop\n  pop\n  pop\n  jump\t// out\n    /* \"#utility.yul\":4582:4659   */\ntag_41:\n    /* \"#utility.yul\":4619:4626   */\n  0x00\n    /* \"#utility.yul\":4648:4653   */\n  dup2\n    /* \"#utility.yul\":4637:4653   */\n  swap1\n  pop\n    /* \"#utility.yul\":4582:4659   */\n  swap2\n  swap1\n  pop\n  jump\t// out\n    /* \"#utility.yul\":4665:4725   */\ntag_42:\n    /* \"#utility.yul\":4693:4696   */\n  0x00\n    /* \"#utility.yul\":4714:4719   */\n  dup2\n    /* \"#utility.yul\":4707:4719   */\n  swap1\n  pop\n    /* \"#utility.yul\":4665:4725   */\n  swap2\n  swap1\n  pop\n  jump\t// out\n    /* \"#utility.yul\":4731:4873   */\ntag_43:\n    /* \"#utility.yul\":4781:4790   */\n  0x00\n    /* \"#utility.yul\":4814:4867   */\n  tag_107\n    /* \"#utility.yul\":4832:4866   */\n  tag_108\n    /* \"#utility.yul\":4841:4865   */\n  tag_109\n    /* \"#utility.yul\":4859:4864   */\n  dup5\n    /* \"#utility.yul\":4841:4865   */\n  tag_41\n  jump\t// in\ntag_109:\n    /* \"#utility.yul\":4832:4866   */\n  tag_42\n  jump\t// in\ntag_108:\n    /* \"#utility.yul\":4814:4867   */\n  tag_41\n  jump\t// in\ntag_107:\n    /* \"#utility.yul\":4801:4867   */\n  swap1\n  pop\n    /* \"#utility.yul\":4731:4873   */\n  swap2\n  swap1\n  pop\n  jump\t// out\n    /* \"#utility.yul\":4879:4954   */\ntag_44:\n    /* \"#utility.yul\":4922:4925   */\n  0x00\n    /* \"#utility.yul\":4943:4948   */\n  dup2\n    /* \"#utility.yul\":4936:4948   */\n  swap1\n  pop\n    /* \"#utility.yul\":4879:4954   */\n  swap2\n  swap1\n  pop\n  jump\t// out\n    /* \"#utility.yul\":4960:5229   */\ntag_45:\n    /* \"#utility.yul\":5070:5109   */\n  tag_112\n    /* \"#utility.yul\":5101:5108   */\n  dup4\n    /* \"#utility.yul\":5070:5109   */\n  tag_43\n  jump\t// in\ntag_112:\n    /* \"#utility.yul\":5131:5222   */\n  tag_113\n    /* \"#utility.yul\":5180:5221   */\n  tag_114\n    /* \"#utility.yul\":5204:5220   */\n  dup3\n    /* \"#utility.yul\":5180:5221   */\n  tag_44\n  jump\t// in\ntag_114:\n    /* \"#utility.yul\":5172:5178   */\n  dup5\n    /* \"#utility.yul\":5165:5169   */\n  dup5\n    /* \"#utility.yul\":5159:5170   */\n  sload\n    /* \"#utility.yul\":5131:5222   */\n  tag_40\n  jump\t// in\ntag_113:\n    /* \"#utility.yul\":5125:5129   */\n  dup3\n    /* \"#utility.yul\":5118:5223   */\n  sstore\n    /* \"#utility.yul\":5036:5229   */\n  pop\n    /* \"#utility.yul\":4960:5229   */\n  pop\n  pop\n  pop\n  jump\t// out\n    /* \"#utility.yul\":5235:5308   */\ntag_46:\n    /* \"#utility.yul\":5280:5283   */\n  0x00\n    /* \"#utility.yul\":5235:5308   */\n  swap1\n  jump\t// out\n    /* \"#utility.yul\":5314:5503   */\ntag_47:\n    /* \"#utility.yul\":5391:5423   */\n  tag_117\n  tag_46\n  jump\t// in\ntag_117:\n    /* \"#utility.yul\":5432:5497   */\n  tag_118\n    /* \"#utility.yul\":5490:5496   */\n  dup2\n    /* \"#utility.yul\":5482:5488   */\n  dup5\n    /* \"#utility.yul\":5476:5480   */\n  dup5\n    /* \"#utility.yul\":5432:5497   */\n  tag_45\n  jump\t// in\ntag_118:\n    /* \"#utility.yul\":5367:5503   */\n  pop\n    /* \"#utility.yul\":5314:5503   */\n  pop\n  pop\n  jump\t// out\n    /* \"#utility.yul\":5509:5695   */\ntag_48:\n    /* \"#utility.yul\":5569:5689   */\ntag_120:\n    /* \"#utility.yul\":5586:5589   */\n  dup2\n    /* \"#utility.yul\":5579:5584   */\n  dup2\n    /* \"#utility.yul\":5576:5590   */\n  lt\n    /* \"#utility.yul\":5569:5689   */\n  iszero\n  tag_122\n  jumpi\n    /* \"#utility.yul\":5640:5679   */\n  tag_123\n    /* \"#utility.yul\":5677:5678   */\n  0x00\n    /* \"#utility.yul\":5670:5675   */\n  dup3\n    /* \"#utility.yul\":5640:5679   */\n  tag_47\n  jump\t// in\ntag_123:\n    /* \"#utility.yul\":5613:5614   */\n  0x01\n    /* \"#utility.yul\":5606:5611   */\n  dup2\n    /* \"#utility.yul\":5602:5615   */\n  add\n    /* \"#utility.yul\":5593:5615   */\n  swap1\n  pop\n    /* \"#utility.yul\":5569:5689   */\n  jump(tag_120)\ntag_122:\n    /* \"#utility.yul\":5509:5695   */\n  pop\n  pop\n  jump\t// out\n    /* \"#utility.yul\":5701:6244   */\ntag_49:\n    /* \"#utility.yul\":5802:5804   */\n  0x1f\n    /* \"#utility.yul\":5797:5800   */\n  dup3\n    /* \"#utility.yul\":5794:5805   */\n  gt\n    /* \"#utility.yul\":5791:6237   */\n  iszero\n  tag_125\n  jumpi\n    /* \"#utility.yul\":5836:5874   */\n  tag_126\n    /* \"#utility.yul\":5868:5873   */\n  dup2\n    /* \"#utility.yul\":5836:5874   */\n  tag_37\n  jump\t// in\ntag_126:\n    /* \"#utility.yul\":5920:5949   */\n  tag_127\n    /* \"#utility.yul\":5938:5948   */\n  dup5\n    /* \"#utility.yul\":5920:5949   */\n  tag_38\n  jump\t// in\ntag_127:\n    /* \"#utility.yul\":5910:5918   */\n  dup2\n    /* \"#utility.yul\":5906:5950   */\n  add\n    /* \"#utility.yul\":6103:6105   */\n  0x20\n    /* \"#utility.yul\":6091:6101   */\n  dup6\n    /* \"#utility.yul\":6088:6106   */\n  lt\n    /* \"#utility.yul\":6085:6134   */\n  iszero\n  tag_128\n  jumpi\n    /* \"#utility.yul\":6124:6132   */\n  dup2\n    /* \"#utility.yul\":6109:6132   */\n  swap1\n  pop\n    /* \"#utility.yul\":6085:6134   */\ntag_128:\n    /* \"#utility.yul\":6147:6227   */\n  tag_129\n    /* \"#utility.yul\":6203:6225   */\n  tag_130\n    /* \"#utility.yul\":6221:6224   */\n  dup6\n    /* \"#utility.yul\":6203:6225   */\n  tag_38\n  jump\t// in\ntag_130:\n    /* \"#utility.yul\":6193:6201   */\n  dup4\n    /* \"#utility.yul\":6189:6226   */\n  add\n    /* \"#utility.yul\":6176:6187   */\n  dup3\n    /* \"#utility.yul\":6147:6227   */\n  tag_48\n  jump\t// in\ntag_129:\n    /* \"#utility.yul\":5806:6237   */\n  pop\n  pop\n    /* \"#utility.yul\":5791:6237   */\ntag_125:\n    /* \"#utility.yul\":5701:6244   */\n  pop\n  pop\n  pop\n  jump\t// out\n    /* \"#utility.yul\":6250:6367   */\ntag_50:\n    /* \"#utility.yul\":6304:6312   */\n  0x00\n    /* \"#utility.yul\":6354:6359   */\n  dup3\n    /* \"#utility.yul\":6348:6352   */\n  dup3\n    /* \"#utility.yul\":6344:6360   */\n  shr\n    /* \"#utility.yul\":6323:6360   */\n  swap1\n  pop\n    /* \"#utility.yul\":6250:6367   */\n  swap3\n  swap2\n  pop\n  pop\n  jump\t// out\n    /* \"#utility.yul\":6373:6542   */\ntag_51:\n    /* \"#utility.yul\":6417:6423   */\n  0x00\n    /* \"#utility.yul\":6450:6501   */\n  tag_133\n    /* \"#utility.yul\":6498:6499   */\n  0x00\n    /* \"#utility.yul\":6494:6500   */\n  not\n    /* \"#utility.yul\":6486:6491   */\n  dup5\n    /* \"#utility.yul\":6483:6484   */\n  0x08\n    /* \"#utility.yul\":6479:6492   */\n  mul\n    /* \"#utility.yul\":6450:6501   */\n  tag_50\n  jump\t// in\ntag_133:\n    /* \"#utility.yul\":6446:6502   */\n  not\n    /* \"#utility.yul\":6531:6535   */\n  dup1\n    /* \"#utility.yul\":6525:6529   */\n  dup4\n    /* \"#utility.yul\":6521:6536   */\n  and\n    /* \"#utility.yul\":6511:6536   */\n  swap2\n  pop\n    /* \"#utility.yul\":6424:6542   */\n  pop\n    /* \"#utility.yul\":6373:6542   */\n  swap3\n  swap2\n  pop\n  pop\n  jump\t// out\n    /* \"#utility.yul\":6547:6842   */\ntag_52:\n    /* \"#utility.yul\":6623:6627   */\n  0x00\n    /* \"#utility.yul\":6769:6798   */\n  tag_135\n    /* \"#utility.yul\":6794:6797   */\n  dup4\n    /* \"#utility.yul\":6788:6792   */\n  dup4\n    /* \"#utility.yul\":6769:6798   */\n  tag_51\n  jump\t// in\ntag_135:\n    /* \"#utility.yul\":6761:6798   */\n  swap2\n  pop\n    /* \"#utility.yul\":6831:6834   */\n  dup3\n    /* \"#utility.yul\":6828:6829   */\n  0x02\n    /* \"#utility.yul\":6824:6835   */\n  mul\n    /* \"#utility.yul\":6818:6822   */\n  dup3\n    /* \"#utility.yul\":6815:6836   */\n  or\n    /* \"#utility.yul\":6807:6836   */\n  swap1\n  pop\n    /* \"#utility.yul\":6547:6842   */\n  swap3\n  swap2\n  pop\n  pop\n  jump\t// out\n    /* \"#utility.yul\":6847:8242   */\ntag_9:\n    /* \"#utility.yul\":6964:7001   */\n  tag_137\n    /* \"#utility.yul\":6997:7000   */\n  dup3\n    /* \"#utility.yul\":6964:7001   */\n  tag_34\n  jump\t// in\ntag_137:\n    /* \"#utility.yul\":7066:7084   */\n  0xffffffffffffffff\n    /* \"#utility.yul\":7058:7064   */\n  dup2\n    /* \"#utility.yul\":7055:7085   */\n  gt\n    /* \"#utility.yul\":7052:7108   */\n  iszero\n  tag_138\n  jumpi\n    /* \"#utility.yul\":7088:7106   */\n  tag_139\n  tag_27\n  jump\t// in\ntag_139:\n    /* \"#utility.yul\":7052:7108   */\ntag_138:\n    /* \"#utility.yul\":7132:7170   */\n  tag_140\n    /* \"#utility.yul\":7164:7168   */\n  dup3\n    /* \"#utility.yul\":7158:7169   */\n  sload\n    /* \"#utility.yul\":7132:7170   */\n  tag_36\n  jump\t// in\ntag_140:\n    /* \"#utility.yul\":7217:7284   */\n  tag_141\n    /* \"#utility.yul\":7277:7283   */\n  dup3\n    /* \"#utility.yul\":7269:7275   */\n  dup3\n    /* \"#utility.yul\":7263:7267   */\n  dup6\n    /* \"#utility.yul\":7217:7284   */\n  tag_49\n  jump\t// in\ntag_141:\n    /* \"#utility.yul\":7311:7312   */\n  0x00\n    /* \"#utility.yul\":7335:7339   */\n  0x20\n    /* \"#utility.yul\":7322:7339   */\n  swap1\n  pop\n    /* \"#utility.yul\":7367:7369   */\n  0x1f\n    /* \"#utility.yul\":7359:7365   */\n  dup4\n    /* \"#utility.yul\":7356:7370   */\n  gt\n    /* \"#utility.yul\":7384:7385   */\n  0x01\n    /* \"#utility.yul\":7379:7997   */\n  dup2\n  eq\n  tag_143\n  jumpi\n    /* \"#utility.yul\":8041:8042   */\n  0x00\n    /* \"#utility.yul\":8058:8064   */\n  dup5\n    /* \"#utility.yul\":8055:8132   */\n  iszero\n  tag_144\n  jumpi\n    /* \"#utility.yul\":8107:8116   */\n  dup3\n    /* \"#utility.yul\":8102:8105   */\n  dup8\n    /* \"#utility.yul\":8098:8117   */\n  add\n    /* \"#utility.yul\":8092:8118   */\n  mload\n    /* \"#utility.yul\":8083:8118   */\n  swap1\n  pop\n    /* \"#utility.yul\":8055:8132   */\ntag_144:\n    /* \"#utility.yul\":8158:8225   */\n  tag_145\n    /* \"#utility.yul\":8218:8224   */\n  dup6\n    /* \"#utility.yul\":8211:8216   */\n  dup3\n    /* \"#utility.yul\":8158:8225   */\n  tag_52\n  jump\t// in\ntag_145:\n    /* \"#utility.yul\":8152:8156   */\n  dup7\n    /* \"#utility.yul\":8145:8226   */\n  sstore\n    /* \"#utility.yul\":8014:8236   */\n  pop\n    /* \"#utility.yul\":7349:8236   */\n  jump(tag_142)\n    /* \"#utility.yul\":7379:7997   */\ntag_143:\n    /* \"#utility.yul\":7431:7435   */\n  0x1f\n    /* \"#utility.yul\":7427:7436   */\n  not\n    /* \"#utility.yul\":7419:7425   */\n  dup5\n    /* \"#utility.yul\":7415:7437   */\n  and\n    /* \"#utility.yul\":7465:7502   */\n  tag_146\n    /* \"#utility.yul\":7497:7501   */\n  dup7\n    /* \"#utility.yul\":7465:7502   */\n  tag_37\n  jump\t// in\ntag_146:\n    /* \"#utility.yul\":7524:7525   */\n  0x00\n    /* \"#utility.yul\":7538:7746   */\ntag_147:\n    /* \"#utility.yul\":7552:7559   */\n  dup3\n    /* \"#utility.yul\":7549:7550   */\n  dup2\n    /* \"#utility.yul\":7546:7560   */\n  lt\n    /* \"#utility.yul\":7538:7746   */\n  iszero\n  tag_149\n  jumpi\n    /* \"#utility.yul\":7631:7640   */\n  dup5\n    /* \"#utility.yul\":7626:7629   */\n  dup10\n    /* \"#utility.yul\":7622:7641   */\n  add\n    /* \"#utility.yul\":7616:7642   */\n  mload\n    /* \"#utility.yul\":7608:7614   */\n  dup3\n    /* \"#utility.yul\":7601:7643   */\n  sstore\n    /* \"#utility.yul\":7682:7683   */\n  0x01\n    /* \"#utility.yul\":7674:7680   */\n  dup3\n    /* \"#utility.yul\":7670:7684   */\n  add\n    /* \"#utility.yul\":7660:7684   */\n  swap2\n  pop\n    /* \"#utility.yul\":7729:7731   */\n  0x20\n    /* \"#utility.yul\":7718:7727   */\n  dup6\n    /* \"#utility.yul\":7714:7732   */\n  add\n    /* \"#utility.yul\":7701:7732   */\n  swap5\n  pop\n    /* \"#utility.yul\":7575:7579   */\n  0x20\n    /* \"#utility.yul\":7572:7573   */\n  dup2\n    /* \"#utility.yul\":7568:7580   */\n  add\n    /* \"#utility.yul\":7563:7580   */\n  swap1\n  pop\n    /* \"#utility.yul\":7538:7746   */\n  jump(tag_147)\ntag_149:\n    /* \"#utility.yul\":7774:7780   */\n  dup7\n    /* \"#utility.yul\":7765:7772   */\n  dup4\n    /* \"#utility.yul\":7762:7781   */\n  lt\n    /* \"#utility.yul\":7759:7938   */\n  iszero\n  tag_150\n  jumpi\n    /* \"#utility.yul\":7832:7841   */\n  dup5\n    /* \"#utility.yul\":7827:7830   */\n  dup10\n    /* \"#utility.yul\":7823:7842   */\n  add\n    /* \"#utility.yul\":7817:7843   */\n  mload\n    /* \"#utility.yul\":7875:7923   */\n  tag_151\n    /* \"#utility.yul\":7917:7921   */\n  0x1f\n    /* \"#utility.yul\":7909:7915   */\n  dup10\n    /* \"#utility.yul\":7905:7922   */\n  and\n    /* \"#utility.yul\":7894:7903   */\n  dup3\n    /* \"#utility.yul\":7875:7923   */\n  tag_51\n  jump\t// in\ntag_151:\n    /* \"#utility.yul\":7867:7873   */\n  dup4\n    /* \"#utility.yul\":7860:7924   */\n  sstore\n    /* \"#utility.yul\":7782:7938   */\n  pop\n    /* \"#utility.yul\":7759:7938   */\ntag_150:\n    /* \"#utility.yul\":7984:7985   */\n  0x01\n    /* \"#utility.yul\":7980:7981   */\n  0x02\n    /* \"#utility.yul\":7972:7978   */\n  dup9\n    /* \"#utility.yul\":7968:7982   */\n  mul\n    /* \"#utility.yul\":7964:7986   */\n  add\n    /* \"#utility.yul\":7958:7962   */\n  dup9\n    /* \"#utility.yul\":7951:7987   */\n  sstore\n    /* \"#utility.yul\":7386:7997   */\n  pop\n  pop\n  pop\n    /* \"#utility.yul\":7349:8236   */\ntag_142:\n  pop\n    /* \"#utility.yul\":6939:8242   */\n  pop\n  pop\n  pop\n    /* \"#utility.yul\":6847:8242   */\n  pop\n  pop\n  jump\t// out\n    /* \"telefonica/dynamicCentenario.sol\":229:2097  contract DynamicNFT is ERC721, Ownable {... */\ntag_18:\n  mload(0x80)\n  codecopy(0x00, dataOffset(sub_0), dataSize(sub_0))\n  0x00\n  assignImmutable(\"0x099447b62022b2640f8025af23f8d6bc930224ee86f2d69c4320fd2eae55594f\")\n  return(0x00, dataSize(sub_0))\nstop\n\nsub_0: assembly {\n        /* \"telefonica/dynamicCentenario.sol\":229:2097  contract DynamicNFT is ERC721, Ownable {... */\n      mstore(0x40, 0x80)\n      callvalue\n      dup1\n      iszero\n      tag_1\n      jumpi\n      0x00\n      dup1\n      revert\n    tag_1:\n      pop\n      jumpi(tag_2, lt(calldatasize, 0x04))\n      shr(0xe0, calldataload(0x00))\n      dup1\n      0x715018a6\n      gt\n      tag_21\n      jumpi\n      dup1\n      0xb88d4fde\n      gt\n      tag_22\n      jumpi\n      dup1\n      0xb88d4fde\n      eq\n      tag_16\n      jumpi\n      dup1\n      0xbfc12c05\n      eq\n      tag_17\n      jumpi\n      dup1\n      0xc87b56dd\n      eq\n      tag_18\n      jumpi\n      dup1\n      0xe985e9c5\n      eq\n      tag_19\n      jumpi\n      dup1\n      0xf2fde38b\n      eq\n      tag_20\n      jumpi\n      jump(tag_2)\n    tag_22:\n      dup1\n      0x715018a6\n      eq\n      tag_12\n      jumpi\n      dup1\n      0x8da5cb5b\n      eq\n      tag_13\n      jumpi\n      dup1\n      0x95d89b41\n      eq\n      tag_14\n      jumpi\n      dup1\n      0xa22cb465\n      eq\n      tag_15\n      jumpi\n      jump(tag_2)\n    tag_21:\n      dup1\n      0x23b872dd\n      gt\n      tag_23\n      jumpi\n      dup1\n      0x23b872dd\n      eq\n      tag_7\n      jumpi\n      dup1\n      0x40d097c3\n      eq\n      tag_8\n      jumpi\n      dup1\n      0x42842e0e\n      eq\n      tag_9\n      jumpi\n      dup1\n      0x6352211e\n      eq\n      tag_10\n      jumpi\n      dup1\n      0x70a08231\n      eq\n      tag_11\n      jumpi\n      jump(tag_2)\n    tag_23:\n      dup1\n      0x01ffc9a7\n      eq\n      tag_3\n      jumpi\n      dup1\n      0x06fdde03\n      eq\n      tag_4\n      jumpi\n      dup1\n      0x081812fc\n      eq\n      tag_5\n      jumpi\n      dup1\n      0x095ea7b3\n      eq\n      tag_6\n      jumpi\n    tag_2:\n      0x00\n      dup1\n      revert\n        /* \"@openzeppelin/contracts/token/ERC721/ERC721.sol\":1561:1861  function supportsInterface(bytes4 interfaceId) public view virtual override(ERC165, IERC165) returns (bool) {... */\n    tag_3:\n      tag_24\n      0x04\n      dup1\n      calldatasize\n      sub\n      dup2\n      add\n      swap1\n      tag_25\n      swap2\n      swap1\n      tag_26\n      jump\t// in\n    tag_25:\n      tag_27\n      jump\t// in\n    tag_24:\n      mload(0x40)\n      tag_28\n      swap2\n      swap1\n      tag_29\n      jump\t// in\n    tag_28:\n      mload(0x40)\n      dup1\n      swap2\n      sub\n      swap1\n      return\n        /* \"@openzeppelin/contracts/token/ERC721/ERC721.sol\":2365:2454  function name() public view virtual returns (string memory) {... */\n    tag_4:\n      tag_30\n      tag_31\n      jump\t// in\n    tag_30:\n      mload(0x40)\n      tag_32\n      swap2\n      swap1\n      tag_33\n      jump\t// in\n    tag_32:\n      mload(0x40)\n      dup1\n      swap2\n      sub\n      swap1\n      return\n        /* \"@openzeppelin/contracts/token/ERC721/ERC721.sol\":3497:3651  function getApproved(uint256 tokenId) public view virtual returns (address) {... */\n    tag_5:\n      tag_34\n      0x04\n      dup1\n      calldatasize\n      sub\n      dup2\n      add\n      swap1\n      tag_35\n      swap2\n      swap1\n      tag_36\n      jump\t// in\n    tag_35:\n      tag_37\n      jump\t// in\n    tag_34:\n      mload(0x40)\n      tag_38\n      swap2\n      swap1\n      tag_39\n      jump\t// in\n    tag_38:\n      mload(0x40)\n      dup1\n      swap2\n      sub\n      swap1\n      return\n        /* \"@openzeppelin/contracts/token/ERC721/ERC721.sol\":3323:3436  function approve(address to, uint256 tokenId) public virtual {... */\n    tag_6:\n      tag_40\n      0x04\n      dup1\n      calldatasize\n      sub\n      dup2\n      add\n      swap1\n      tag_41\n      swap2\n      swap1\n      tag_42\n      jump\t// in\n    tag_41:\n      tag_43\n      jump\t// in\n    tag_40:\n      stop\n        /* \"@openzeppelin/contracts/token/ERC721/ERC721.sol\":4143:4721  function transferFrom(address from, address to, uint256 tokenId) public virtual {... */\n    tag_7:\n      tag_44\n      0x04\n      dup1\n      calldatasize\n      sub\n      dup2\n      add\n      swap1\n      tag_45\n      swap2\n      swap1\n      tag_46\n      jump\t// in\n    tag_45:\n      tag_47\n      jump\t// in\n    tag_44:\n      stop\n        /* \"telefonica/dynamicCentenario.sol\":798:1040  function safeMint(address to) public onlyOwner {... */\n    tag_8:\n      tag_48\n      0x04\n      dup1\n      calldatasize\n      sub\n      dup2\n      add\n      swap1\n      tag_49\n      swap2\n      swap1\n      tag_50\n      jump\t// in\n    tag_49:\n      tag_51\n      jump\t// in\n    tag_48:\n      stop\n        /* \"@openzeppelin/contracts/token/ERC721/ERC721.sol\":4787:4919  function safeTransferFrom(address from, address to, uint256 tokenId) public {... */\n    tag_9:\n      tag_52\n      0x04\n      dup1\n      calldatasize\n      sub\n      dup2\n      add\n      swap1\n      tag_53\n      swap2\n      swap1\n      tag_46\n      jump\t// in\n    tag_53:\n      tag_54\n      jump\t// in\n    tag_52:\n      stop\n        /* \"@openzeppelin/contracts/token/ERC721/ERC721.sol\":2185:2303  function ownerOf(uint256 tokenId) public view virtual returns (address) {... */\n    tag_10:\n      tag_55\n      0x04\n      dup1\n      calldatasize\n      sub\n      dup2\n      add\n      swap1\n      tag_56\n      swap2\n      swap1\n      tag_36\n      jump\t// in\n    tag_56:\n      tag_57\n      jump\t// in\n    tag_55:\n      mload(0x40)\n      tag_58\n      swap2\n      swap1\n      tag_39\n      jump\t// in\n    tag_58:\n      mload(0x40)\n      dup1\n      swap2\n      sub\n      swap1\n      return\n        /* \"@openzeppelin/contracts/token/ERC721/ERC721.sol\":1920:2128  function balanceOf(address owner) public view virtual returns (uint256) {... */\n    tag_11:\n      tag_59\n      0x04\n      dup1\n      calldatasize\n      sub\n      dup2\n      add\n      swap1\n      tag_60\n      swap2\n      swap1\n      tag_50\n      jump\t// in\n    tag_60:\n      tag_61\n      jump\t// in\n    tag_59:\n      mload(0x40)\n      tag_62\n      swap2\n      swap1\n      tag_63\n      jump\t// in\n    tag_62:\n      mload(0x40)\n      dup1\n      swap2\n      sub\n      swap1\n      return\n        /* \"@openzeppelin/contracts/access/Ownable.sol\":1824:1925  function renounceOwnership() public virtual onlyOwner {... */\n    tag_12:\n      tag_64\n      tag_65\n      jump\t// in\n    tag_64:\n      stop\n        /* \"@openzeppelin/contracts/access/Ownable.sol\":1201:1286  function owner() public view virtual returns (address) {... */\n    tag_13:\n      tag_66\n      tag_67\n      jump\t// in\n    tag_66:\n      mload(0x40)\n      tag_68\n      swap2\n      swap1\n      tag_39\n      jump\t// in\n    tag_68:\n      mload(0x40)\n      dup1\n      swap2\n      sub\n      swap1\n      return\n        /* \"@openzeppelin/contracts/token/ERC721/ERC721.sol\":2518:2611  function symbol() public view virtual returns (string memory) {... */\n    tag_14:\n      tag_69\n      tag_70\n      jump\t// in\n    tag_69:\n      mload(0x40)\n      tag_71\n      swap2\n      swap1\n      tag_33\n      jump\t// in\n    tag_71:\n      mload(0x40)\n      dup1\n      swap2\n      sub\n      swap1\n      return\n        /* \"@openzeppelin/contracts/token/ERC721/ERC721.sol\":3718:3862  function setApprovalForAll(address operator, bool approved) public virtual {... */\n    tag_15:\n      tag_72\n      0x04\n      dup1\n      calldatasize\n      sub\n      dup2\n      add\n      swap1\n      tag_73\n      swap2\n      swap1\n      tag_74\n      jump\t// in\n    tag_73:\n      tag_75\n      jump\t// in\n    tag_72:\n      stop\n        /* \"@openzeppelin/contracts/token/ERC721/ERC721.sol\":4985:5193  function safeTransferFrom(address from, address to, uint256 tokenId, bytes memory data) public virtual {... */\n    tag_16:\n      tag_76\n      0x04\n      dup1\n      calldatasize\n      sub\n      dup2\n      add\n      swap1\n      tag_77\n      swap2\n      swap1\n      tag_78\n      jump\t// in\n    tag_77:\n      tag_79\n      jump\t// in\n    tag_76:\n      stop\n        /* \"telefonica/dynamicCentenario.sol\":455:499  uint256 public immutable deploymentTimestamp */\n    tag_17:\n      tag_80\n      tag_81\n      jump\t// in\n    tag_80:\n      mload(0x40)\n      tag_82\n      swap2\n      swap1\n      tag_63\n      jump\t// in\n    tag_82:\n      mload(0x40)\n      dup1\n      swap2\n      sub\n      swap1\n      return\n        /* \"telefonica/dynamicCentenario.sol\":1164:2092  function tokenURI(uint256 tokenId) public view virtual override returns (string memory) {... */\n    tag_18:\n      tag_83\n      0x04\n      dup1\n      calldatasize\n      sub\n      dup2\n      add\n      swap1\n      tag_84\n      swap2\n      swap1\n      tag_36\n      jump\t// in\n    tag_84:\n      tag_85\n      jump\t// in\n    tag_83:\n      mload(0x40)\n      tag_86\n      swap2\n      swap1\n      tag_33\n      jump\t// in\n    tag_86:\n      mload(0x40)\n      dup1\n      swap2\n      sub\n      swap1\n      return\n        /* \"@openzeppelin/contracts/token/ERC721/ERC721.sol\":3928:4081  function isApprovedForAll(address owner, address operator) public view virtual returns (bool) {... */\n    tag_19:\n      tag_87\n      0x04\n      dup1\n      calldatasize\n      sub\n      dup2\n      add\n      swap1\n      tag_88\n      swap2\n      swap1\n      tag_89\n      jump\t// in\n    tag_88:\n      tag_90\n      jump\t// in\n    tag_87:\n      mload(0x40)\n      tag_91\n      swap2\n      swap1\n      tag_29\n      jump\t// in\n    tag_91:\n      mload(0x40)\n      dup1\n      swap2\n      sub\n      swap1\n      return\n        /* \"@openzeppelin/contracts/access/Ownable.sol\":2074:2272  function transferOwnership(address newOwner) public virtual onlyOwner {... */\n    tag_20:\n      tag_92\n      0x04\n      dup1\n      calldatasize\n      sub\n      dup2\n      add\n      swap1\n      tag_93\n      swap2\n      swap1\n      tag_50\n      jump\t// in\n    tag_93:\n      tag_94\n      jump\t// in\n    tag_92:\n      stop\n        /* \"@openzeppelin/contracts/token/ERC721/ERC721.sol\":1561:1861  function supportsInterface(bytes4 interfaceId) public view virtual override(ERC165, IERC165) returns (bool) {... */\n    tag_27:\n        /* \"@openzeppelin/contracts/token/ERC721/ERC721.sol\":1663:1667  bool */\n      0x00\n        /* \"@openzeppelin/contracts/token/ERC721/ERC721.sol\":1713:1738  type(IERC721).interfaceId */\n      0x80ac58cd00000000000000000000000000000000000000000000000000000000\n        /* \"@openzeppelin/contracts/token/ERC721/ERC721.sol\":1698:1738  interfaceId == type(IERC721).interfaceId */\n      not(0xffffffffffffffffffffffffffffffffffffffffffffffffffffffff)\n      and\n        /* \"@openzeppelin/contracts/token/ERC721/ERC721.sol\":1698:1709  interfaceId */\n      dup3\n        /* \"@openzeppelin/contracts/token/ERC721/ERC721.sol\":1698:1738  interfaceId == type(IERC721).interfaceId */\n      not(0xffffffffffffffffffffffffffffffffffffffffffffffffffffffff)\n      and\n      eq\n        /* \"@openzeppelin/contracts/token/ERC721/ERC721.sol\":1698:1802  interfaceId == type(IERC721).interfaceId ||... */\n      dup1\n      tag_96\n      jumpi\n      pop\n        /* \"@openzeppelin/contracts/token/ERC721/ERC721.sol\":1769:1802  type(IERC721Metadata).interfaceId */\n      0x5b5e139f00000000000000000000000000000000000000000000000000000000\n        /* \"@openzeppelin/contracts/token/ERC721/ERC721.sol\":1754:1802  interfaceId == type(IERC721Metadata).interfaceId */\n      not(0xffffffffffffffffffffffffffffffffffffffffffffffffffffffff)\n      and\n        /* \"@openzeppelin/contracts/token/ERC721/ERC721.sol\":1754:1765  interfaceId */\n      dup3\n        /* \"@openzeppelin/contracts/token/ERC721/ERC721.sol\":1754:1802  interfaceId == type(IERC721Metadata).interfaceId */\n      not(0xffffffffffffffffffffffffffffffffffffffffffffffffffffffff)\n      and\n      eq\n        /* \"@openzeppelin/contracts/token/ERC721/ERC721.sol\":1698:1802  interfaceId == type(IERC721).interfaceId ||... */\n    tag_96:\n        /* \"@openzeppelin/contracts/token/ERC721/ERC721.sol\":1698:1854  interfaceId == type(IERC721).interfaceId ||... */\n      dup1\n      tag_97\n      jumpi\n      pop\n        /* \"@openzeppelin/contracts/token/ERC721/ERC721.sol\":1818:1854  super.supportsInterface(interfaceId) */\n      tag_98\n        /* \"@openzeppelin/contracts/token/ERC721/ERC721.sol\":1842:1853  interfaceId */\n      dup3\n        /* \"@openzeppelin/contracts/token/ERC721/ERC721.sol\":1818:1841  super.supportsInterface */\n      tag_99\n        /* \"@openzeppelin/contracts/token/ERC721/ERC721.sol\":1818:1854  super.supportsInterface(interfaceId) */\n      jump\t// in\n    tag_98:\n        /* \"@openzeppelin/contracts/token/ERC721/ERC721.sol\":1698:1854  interfaceId == type(IERC721).interfaceId ||... */\n    tag_97:\n        /* \"@openzeppelin/contracts/token/ERC721/ERC721.sol\":1679:1854  return... */\n      swap1\n      pop\n        /* \"@openzeppelin/contracts/token/ERC721/ERC721.sol\":1561:1861  function supportsInterface(bytes4 interfaceId) public view virtual override(ERC165, IERC165) returns (bool) {... */\n      swap2\n      swap1\n      pop\n      jump\t// out\n        /* \"@openzeppelin/contracts/token/ERC721/ERC721.sol\":2365:2454  function name() public view virtual returns (string memory) {... */\n    tag_31:\n        /* \"@openzeppelin/contracts/token/ERC721/ERC721.sol\":2410:2423  string memory */\n      0x60\n        /* \"@openzeppelin/contracts/token/ERC721/ERC721.sol\":2442:2447  _name */\n      0x00\n        /* \"@openzeppelin/contracts/token/ERC721/ERC721.sol\":2435:2447  return _name */\n      dup1\n      sload\n      tag_101\n      swap1\n      tag_102\n      jump\t// in\n    tag_101:\n      dup1\n      0x1f\n      add\n      0x20\n      dup1\n      swap2\n      div\n      mul\n      0x20\n      add\n      mload(0x40)\n      swap1\n      dup2\n      add\n      0x40\n      mstore\n      dup1\n      swap3\n      swap2\n      swap1\n      dup2\n      dup2\n      mstore\n      0x20\n      add\n      dup3\n      dup1\n      sload\n      tag_103\n      swap1\n      tag_102\n      jump\t// in\n    tag_103:\n      dup1\n      iszero\n      tag_104\n      jumpi\n      dup1\n      0x1f\n      lt\n      tag_105\n      jumpi\n      0x0100\n      dup1\n      dup4\n      sload\n      div\n      mul\n      dup4\n      mstore\n      swap2\n      0x20\n      add\n      swap2\n      jump(tag_104)\n    tag_105:\n      dup3\n      add\n      swap2\n      swap1\n      0x00\n      mstore\n      keccak256(0x00, 0x20)\n      swap1\n    tag_106:\n      dup2\n      sload\n      dup2\n      mstore\n      swap1\n      0x01\n      add\n      swap1\n      0x20\n      add\n      dup1\n      dup4\n      gt\n      tag_106\n      jumpi\n      dup3\n      swap1\n      sub\n      0x1f\n      and\n      dup3\n      add\n      swap2\n    tag_104:\n      pop\n      pop\n      pop\n      pop\n      pop\n      swap1\n      pop\n        /* \"@openzeppelin/contracts/token/ERC721/ERC721.sol\":2365:2454  function name() public view virtual returns (string memory) {... */\n      swap1\n      jump\t// out\n        /* \"@openzeppelin/contracts/token/ERC721/ERC721.sol\":3497:3651  function getApproved(uint256 tokenId) public view virtual returns (address) {... */\n    tag_37:\n        /* \"@openzeppelin/contracts/token/ERC721/ERC721.sol\":3564:3571  address */\n      0x00\n        /* \"@openzeppelin/contracts/token/ERC721/ERC721.sol\":3583:3605  _requireOwned(tokenId) */\n      tag_108\n        /* \"@openzeppelin/contracts/token/ERC721/ERC721.sol\":3597:3604  tokenId */\n      dup3\n        /* \"@openzeppelin/contracts/token/ERC721/ERC721.sol\":3583:3596  _requireOwned */\n      tag_109\n        /* \"@openzeppelin/contracts/token/ERC721/ERC721.sol\":3583:3605  _requireOwned(tokenId) */\n      jump\t// in\n    tag_108:\n      pop\n        /* \"@openzeppelin/contracts/token/ERC721/ERC721.sol\":3623:3644  _getApproved(tokenId) */\n      tag_110\n        /* \"@openzeppelin/contracts/token/ERC721/ERC721.sol\":3636:3643  tokenId */\n      dup3\n        /* \"@openzeppelin/contracts/token/ERC721/ERC721.sol\":3623:3635  _getApproved */\n      tag_111\n        /* \"@openzeppelin/contracts/token/ERC721/ERC721.sol\":3623:3644  _getApproved(tokenId) */\n      jump\t// in\n    tag_110:\n        /* \"@openzeppelin/contracts/token/ERC721/ERC721.sol\":3616:3644  return _getApproved(tokenId) */\n      swap1\n      pop\n        /* \"@openzeppelin/contracts/token/ERC721/ERC721.sol\":3497:3651  function getApproved(uint256 tokenId) public view virtual returns (address) {... */\n      swap2\n      swap1\n      pop\n      jump\t// out\n        /* \"@openzeppelin/contracts/token/ERC721/ERC721.sol\":3323:3436  function approve(address to, uint256 tokenId) public virtual {... */\n    tag_43:\n        /* \"@openzeppelin/contracts/token/ERC721/ERC721.sol\":3394:3429  _approve(to, tokenId, _msgSender()) */\n      tag_113\n        /* \"@openzeppelin/contracts/token/ERC721/ERC721.sol\":3403:3405  to */\n      dup3\n        /* \"@openzeppelin/contracts/token/ERC721/ERC721.sol\":3407:3414  tokenId */\n      dup3\n        /* \"@openzeppelin/contracts/token/ERC721/ERC721.sol\":3416:3428  _msgSender() */\n      tag_114\n        /* \"@openzeppelin/contracts/token/ERC721/ERC721.sol\":3416:3426  _msgSender */\n      tag_115\n        /* \"@openzeppelin/contracts/token/ERC721/ERC721.sol\":3416:3428  _msgSender() */\n      jump\t// in\n    tag_114:\n        /* \"@openzeppelin/contracts/token/ERC721/ERC721.sol\":3394:3402  _approve */\n      tag_116\n        /* \"@openzeppelin/contracts/token/ERC721/ERC721.sol\":3394:3429  _approve(to, tokenId, _msgSender()) */\n      jump\t// in\n    tag_113:\n        /* \"@openzeppelin/contracts/token/ERC721/ERC721.sol\":3323:3436  function approve(address to, uint256 tokenId) public virtual {... */\n      pop\n      pop\n      jump\t// out\n        /* \"@openzeppelin/contracts/token/ERC721/ERC721.sol\":4143:4721  function transferFrom(address from, address to, uint256 tokenId) public virtual {... */\n    tag_47:\n        /* \"@openzeppelin/contracts/token/ERC721/ERC721.sol\":4251:4252  0 */\n      0x00\n        /* \"@openzeppelin/contracts/token/ERC721/ERC721.sol\":4237:4253  to == address(0) */\n      0xffffffffffffffffffffffffffffffffffffffff\n      and\n        /* \"@openzeppelin/contracts/token/ERC721/ERC721.sol\":4237:4239  to */\n      dup3\n        /* \"@openzeppelin/contracts/token/ERC721/ERC721.sol\":4237:4253  to == address(0) */\n      0xffffffffffffffffffffffffffffffffffffffff\n      and\n      sub\n        /* \"@openzeppelin/contracts/token/ERC721/ERC721.sol\":4233:4320  if (to == address(0)) {... */\n      tag_118\n      jumpi\n        /* \"@openzeppelin/contracts/token/ERC721/ERC721.sol\":4306:4307  0 */\n      0x00\n        /* \"@openzeppelin/contracts/token/ERC721/ERC721.sol\":4276:4309  ERC721InvalidReceiver(address(0)) */\n      mload(0x40)\n      0x64a0ae9200000000000000000000000000000000000000000000000000000000\n      dup2\n      mstore\n      0x04\n      add\n      tag_119\n      swap2\n      swap1\n      tag_39\n      jump\t// in\n    tag_119:\n      mload(0x40)\n      dup1\n      swap2\n      sub\n      swap1\n      revert\n        /* \"@openzeppelin/contracts/token/ERC721/ERC721.sol\":4233:4320  if (to == address(0)) {... */\n    tag_118:\n        /* \"@openzeppelin/contracts/token/ERC721/ERC721.sol\":4538:4559  address previousOwner */\n      0x00\n        /* \"@openzeppelin/contracts/token/ERC721/ERC721.sol\":4562:4596  _update(to, tokenId, _msgSender()) */\n      tag_120\n        /* \"@openzeppelin/contracts/token/ERC721/ERC721.sol\":4570:4572  to */\n      dup4\n        /* \"@openzeppelin/contracts/token/ERC721/ERC721.sol\":4574:4581  tokenId */\n      dup4\n        /* \"@openzeppelin/contracts/token/ERC721/ERC721.sol\":4583:4595  _msgSender() */\n      tag_121\n        /* \"@openzeppelin/contracts/token/ERC721/ERC721.sol\":4583:4593  _msgSender */\n      tag_115\n        /* \"@openzeppelin/contracts/token/ERC721/ERC721.sol\":4583:4595  _msgSender() */\n      jump\t// in\n    tag_121:\n        /* \"@openzeppelin/contracts/token/ERC721/ERC721.sol\":4562:4569  _update */\n      tag_122\n        /* \"@openzeppelin/contracts/token/ERC721/ERC721.sol\":4562:4596  _update(to, tokenId, _msgSender()) */\n      jump\t// in\n    tag_120:\n        /* \"@openzeppelin/contracts/token/ERC721/ERC721.sol\":4538:4596  address previousOwner = _update(to, tokenId, _msgSender()) */\n      swap1\n      pop\n        /* \"@openzeppelin/contracts/token/ERC721/ERC721.sol\":4627:4631  from */\n      dup4\n        /* \"@openzeppelin/contracts/token/ERC721/ERC721.sol\":4610:4631  previousOwner != from */\n      0xffffffffffffffffffffffffffffffffffffffff\n      and\n        /* \"@openzeppelin/contracts/token/ERC721/ERC721.sol\":4610:4623  previousOwner */\n      dup2\n        /* \"@openzeppelin/contracts/token/ERC721/ERC721.sol\":4610:4631  previousOwner != from */\n      0xffffffffffffffffffffffffffffffffffffffff\n      and\n      eq\n        /* \"@openzeppelin/contracts/token/ERC721/ERC721.sol\":4606:4715  if (previousOwner != from) {... */\n      tag_123\n      jumpi\n        /* \"@openzeppelin/contracts/token/ERC721/ERC721.sol\":4675:4679  from */\n      dup4\n        /* \"@openzeppelin/contracts/token/ERC721/ERC721.sol\":4681:4688  tokenId */\n      dup3\n        /* \"@openzeppelin/contracts/token/ERC721/ERC721.sol\":4690:4703  previousOwner */\n      dup3\n        /* \"@openzeppelin/contracts/token/ERC721/ERC721.sol\":4654:4704  ERC721IncorrectOwner(from, tokenId, previousOwner) */\n      mload(0x40)\n      0x64283d7b00000000000000000000000000000000000000000000000000000000\n      dup2\n      mstore\n      0x04\n      add\n      tag_124\n      swap4\n      swap3\n      swap2\n      swap1\n      tag_125\n      jump\t// in\n    tag_124:\n      mload(0x40)\n      dup1\n      swap2\n      sub\n      swap1\n      revert\n        /* \"@openzeppelin/contracts/token/ERC721/ERC721.sol\":4606:4715  if (previousOwner != from) {... */\n    tag_123:\n        /* \"@openzeppelin/contracts/token/ERC721/ERC721.sol\":4223:4721  {... */\n      pop\n        /* \"@openzeppelin/contracts/token/ERC721/ERC721.sol\":4143:4721  function transferFrom(address from, address to, uint256 tokenId) public virtual {... */\n      pop\n      pop\n      pop\n      jump\t// out\n        /* \"telefonica/dynamicCentenario.sol\":798:1040  function safeMint(address to) public onlyOwner {... */\n    tag_51:\n        /* \"@openzeppelin/contracts/access/Ownable.sol\":1094:1107  _checkOwner() */\n      tag_127\n        /* \"@openzeppelin/contracts/access/Ownable.sol\":1094:1105  _checkOwner */\n      tag_128\n        /* \"@openzeppelin/contracts/access/Ownable.sol\":1094:1107  _checkOwner() */\n      jump\t// in\n    tag_127:\n        /* \"telefonica/dynamicCentenario.sol\":856:871  uint256 tokenId */\n      0x00\n        /* \"telefonica/dynamicCentenario.sol\":874:899  _tokenIdCounter.current() */\n      tag_130\n        /* \"telefonica/dynamicCentenario.sol\":874:889  _tokenIdCounter */\n      0x07\n        /* \"telefonica/dynamicCentenario.sol\":874:897  _tokenIdCounter.current */\n      tag_131\n        /* \"telefonica/dynamicCentenario.sol\":874:899  _tokenIdCounter.current() */\n      jump\t// in\n    tag_130:\n        /* \"telefonica/dynamicCentenario.sol\":856:899  uint256 tokenId = _tokenIdCounter.current() */\n      swap1\n      pop\n        /* \"telefonica/dynamicCentenario.sol\":910:937  _tokenIdCounter.increment() */\n      tag_132\n        /* \"telefonica/dynamicCentenario.sol\":910:925  _tokenIdCounter */\n      0x07\n        /* \"telefonica/dynamicCentenario.sol\":910:935  _tokenIdCounter.increment */\n      tag_133\n        /* \"telefonica/dynamicCentenario.sol\":910:937  _tokenIdCounter.increment() */\n      jump\t// in\n    tag_132:\n        /* \"telefonica/dynamicCentenario.sol\":948:970  _safeMint(to, tokenId) */\n      tag_134\n        /* \"telefonica/dynamicCentenario.sol\":958:960  to */\n      dup3\n        /* \"telefonica/dynamicCentenario.sol\":962:969  tokenId */\n      dup3\n        /* \"telefonica/dynamicCentenario.sol\":948:957  _safeMint */\n      tag_135\n        /* \"telefonica/dynamicCentenario.sol\":948:970  _safeMint(to, tokenId) */\n      jump\t// in\n    tag_134:\n        /* \"telefonica/dynamicCentenario.sol\":1017:1032  block.timestamp */\n      timestamp\n        /* \"telefonica/dynamicCentenario.sol\":981:1005  _tokenCreationTimestamps */\n      0x09\n        /* \"telefonica/dynamicCentenario.sol\":981:1014  _tokenCreationTimestamps[tokenId] */\n      0x00\n        /* \"telefonica/dynamicCentenario.sol\":1006:1013  tokenId */\n      dup4\n        /* \"telefonica/dynamicCentenario.sol\":981:1014  _tokenCreationTimestamps[tokenId] */\n      dup2\n      mstore\n      0x20\n      add\n      swap1\n      dup2\n      mstore\n      0x20\n      add\n      0x00\n      keccak256\n        /* \"telefonica/dynamicCentenario.sol\":981:1032  _tokenCreationTimestamps[tokenId] = block.timestamp */\n      dup2\n      swap1\n      sstore\n      pop\n        /* \"telefonica/dynamicCentenario.sol\":845:1040  {... */\n      pop\n        /* \"telefonica/dynamicCentenario.sol\":798:1040  function safeMint(address to) public onlyOwner {... */\n      pop\n      jump\t// out\n        /* \"@openzeppelin/contracts/token/ERC721/ERC721.sol\":4787:4919  function safeTransferFrom(address from, address to, uint256 tokenId) public {... */\n    tag_54:\n        /* \"@openzeppelin/contracts/token/ERC721/ERC721.sol\":4873:4912  safeTransferFrom(from, to, tokenId, \"\") */\n      tag_137\n        /* \"@openzeppelin/contracts/token/ERC721/ERC721.sol\":4890:4894  from */\n      dup4\n        /* \"@openzeppelin/contracts/token/ERC721/ERC721.sol\":4896:4898  to */\n      dup4\n        /* \"@openzeppelin/contracts/token/ERC721/ERC721.sol\":4900:4907  tokenId */\n      dup4\n        /* \"@openzeppelin/contracts/token/ERC721/ERC721.sol\":4873:4912  safeTransferFrom(from, to, tokenId, \"\") */\n      mload(0x40)\n      dup1\n      0x20\n      add\n      0x40\n      mstore\n      dup1\n      0x00\n      dup2\n      mstore\n      pop\n        /* \"@openzeppelin/contracts/token/ERC721/ERC721.sol\":4873:4889  safeTransferFrom */\n      tag_79\n        /* \"@openzeppelin/contracts/token/ERC721/ERC721.sol\":4873:4912  safeTransferFrom(from, to, tokenId, \"\") */\n      jump\t// in\n    tag_137:\n        /* \"@openzeppelin/contracts/token/ERC721/ERC721.sol\":4787:4919  function safeTransferFrom(address from, address to, uint256 tokenId) public {... */\n      pop\n      pop\n      pop\n      jump\t// out\n        /* \"@openzeppelin/contracts/token/ERC721/ERC721.sol\":2185:2303  function ownerOf(uint256 tokenId) public view virtual returns (address) {... */\n    tag_57:\n        /* \"@openzeppelin/contracts/token/ERC721/ERC721.sol\":2248:2255  address */\n      0x00\n        /* \"@openzeppelin/contracts/token/ERC721/ERC721.sol\":2274:2296  _requireOwned(tokenId) */\n      tag_139\n        /* \"@openzeppelin/contracts/token/ERC721/ERC721.sol\":2288:2295  tokenId */\n      dup3\n        /* \"@openzeppelin/contracts/token/ERC721/ERC721.sol\":2274:2287  _requireOwned */\n      tag_109\n        /* \"@openzeppelin/contracts/token/ERC721/ERC721.sol\":2274:2296  _requireOwned(tokenId) */\n      jump\t// in\n    tag_139:\n        /* \"@openzeppelin/contracts/token/ERC721/ERC721.sol\":2267:2296  return _requireOwned(tokenId) */\n      swap1\n      pop\n        /* \"@openzeppelin/contracts/token/ERC721/ERC721.sol\":2185:2303  function ownerOf(uint256 tokenId) public view virtual returns (address) {... */\n      swap2\n      swap1\n      pop\n      jump\t// out\n        /* \"@openzeppelin/contracts/token/ERC721/ERC721.sol\":1920:2128  function balanceOf(address owner) public view virtual returns (uint256) {... */\n    tag_61:\n        /* \"@openzeppelin/contracts/token/ERC721/ERC721.sol\":1983:1990  uint256 */\n      0x00\n        /* \"@openzeppelin/contracts/token/ERC721/ERC721.sol\":2023:2024  0 */\n      dup1\n        /* \"@openzeppelin/contracts/token/ERC721/ERC721.sol\":2006:2025  owner == address(0) */\n      0xffffffffffffffffffffffffffffffffffffffff\n      and\n        /* \"@openzeppelin/contracts/token/ERC721/ERC721.sol\":2006:2011  owner */\n      dup3\n        /* \"@openzeppelin/contracts/token/ERC721/ERC721.sol\":2006:2025  owner == address(0) */\n      0xffffffffffffffffffffffffffffffffffffffff\n      and\n      sub\n        /* \"@openzeppelin/contracts/token/ERC721/ERC721.sol\":2002:2089  if (owner == address(0)) {... */\n      tag_141\n      jumpi\n        /* \"@openzeppelin/contracts/token/ERC721/ERC721.sol\":2075:2076  0 */\n      0x00\n        /* \"@openzeppelin/contracts/token/ERC721/ERC721.sol\":2048:2078  ERC721InvalidOwner(address(0)) */\n      mload(0x40)\n      0x89c62b6400000000000000000000000000000000000000000000000000000000\n      dup2\n      mstore\n      0x04\n      add\n      tag_142\n      swap2\n      swap1\n      tag_39\n      jump\t// in\n    tag_142:\n      mload(0x40)\n      dup1\n      swap2\n      sub\n      swap1\n      revert\n        /* \"@openzeppelin/contracts/token/ERC721/ERC721.sol\":2002:2089  if (owner == address(0)) {... */\n    tag_141:\n        /* \"@openzeppelin/contracts/token/ERC721/ERC721.sol\":2105:2114  _balances */\n      0x03\n        /* \"@openzeppelin/contracts/token/ERC721/ERC721.sol\":2105:2121  _balances[owner] */\n      0x00\n        /* \"@openzeppelin/contracts/token/ERC721/ERC721.sol\":2115:2120  owner */\n      dup4\n        /* \"@openzeppelin/contracts/token/ERC721/ERC721.sol\":2105:2121  _balances[owner] */\n      0xffffffffffffffffffffffffffffffffffffffff\n      and\n      0xffffffffffffffffffffffffffffffffffffffff\n      and\n      dup2\n      mstore\n      0x20\n      add\n      swap1\n      dup2\n      mstore\n      0x20\n      add\n      0x00\n      keccak256\n      sload\n        /* \"@openzeppelin/contracts/token/ERC721/ERC721.sol\":2098:2121  return _balances[owner] */\n      swap1\n      pop\n        /* \"@openzeppelin/contracts/token/ERC721/ERC721.sol\":1920:2128  function balanceOf(address owner) public view virtual returns (uint256) {... */\n      swap2\n      swap1\n      pop\n      jump\t// out\n        /* \"@openzeppelin/contracts/access/Ownable.sol\":1824:1925  function renounceOwnership() public virtual onlyOwner {... */\n    tag_65:\n        /* \"@openzeppelin/contracts/access/Ownable.sol\":1094:1107  _checkOwner() */\n      tag_144\n        /* \"@openzeppelin/contracts/access/Ownable.sol\":1094:1105  _checkOwner */\n      tag_128\n        /* \"@openzeppelin/contracts/access/Ownable.sol\":1094:1107  _checkOwner() */\n      jump\t// in\n    tag_144:\n        /* \"@openzeppelin/contracts/access/Ownable.sol\":1888:1918  _transferOwnership(address(0)) */\n      tag_146\n        /* \"@openzeppelin/contracts/access/Ownable.sol\":1915:1916  0 */\n      0x00\n        /* \"@openzeppelin/contracts/access/Ownable.sol\":1888:1906  _transferOwnership */\n      tag_147\n        /* \"@openzeppelin/contracts/access/Ownable.sol\":1888:1918  _transferOwnership(address(0)) */\n      jump\t// in\n    tag_146:\n        /* \"@openzeppelin/contracts/access/Ownable.sol\":1824:1925  function renounceOwnership() public virtual onlyOwner {... */\n      jump\t// out\n        /* \"@openzeppelin/contracts/access/Ownable.sol\":1201:1286  function owner() public view virtual returns (address) {... */\n    tag_67:\n        /* \"@openzeppelin/contracts/access/Ownable.sol\":1247:1254  address */\n      0x00\n        /* \"@openzeppelin/contracts/access/Ownable.sol\":1273:1279  _owner */\n      0x06\n      0x00\n      swap1\n      sload\n      swap1\n      0x0100\n      exp\n      swap1\n      div\n      0xffffffffffffffffffffffffffffffffffffffff\n      and\n        /* \"@openzeppelin/contracts/access/Ownable.sol\":1266:1279  return _owner */\n      swap1\n      pop\n        /* \"@openzeppelin/contracts/access/Ownable.sol\":1201:1286  function owner() public view virtual returns (address) {... */\n      swap1\n      jump\t// out\n        /* \"@openzeppelin/contracts/token/ERC721/ERC721.sol\":2518:2611  function symbol() public view virtual returns (string memory) {... */\n    tag_70:\n        /* \"@openzeppelin/contracts/token/ERC721/ERC721.sol\":2565:2578  string memory */\n      0x60\n        /* \"@openzeppelin/contracts/token/ERC721/ERC721.sol\":2597:2604  _symbol */\n      0x01\n        /* \"@openzeppelin/contracts/token/ERC721/ERC721.sol\":2590:2604  return _symbol */\n      dup1\n      sload\n      tag_150\n      swap1\n      tag_102\n      jump\t// in\n    tag_150:\n      dup1\n      0x1f\n      add\n      0x20\n      dup1\n      swap2\n      div\n      mul\n      0x20\n      add\n      mload(0x40)\n      swap1\n      dup2\n      add\n      0x40\n      mstore\n      dup1\n      swap3\n      swap2\n      swap1\n      dup2\n      dup2\n      mstore\n      0x20\n      add\n      dup3\n      dup1\n      sload\n      tag_151\n      swap1\n      tag_102\n      jump\t// in\n    tag_151:\n      dup1\n      iszero\n      tag_152\n      jumpi\n      dup1\n      0x1f\n      lt\n      tag_153\n      jumpi\n      0x0100\n      dup1\n      dup4\n      sload\n      div\n      mul\n      dup4\n      mstore\n      swap2\n      0x20\n      add\n      swap2\n      jump(tag_152)\n    tag_153:\n      dup3\n      add\n      swap2\n      swap1\n      0x00\n      mstore\n      keccak256(0x00, 0x20)\n      swap1\n    tag_154:\n      dup2\n      sload\n      dup2\n      mstore\n      swap1\n      0x01\n      add\n      swap1\n      0x20\n      add\n      dup1\n      dup4\n      gt\n      tag_154\n      jumpi\n      dup3\n      swap1\n      sub\n      0x1f\n      and\n      dup3\n      add\n      swap2\n    tag_152:\n      pop\n      pop\n      pop\n      pop\n      pop\n      swap1\n      pop\n        /* \"@openzeppelin/contracts/token/ERC721/ERC721.sol\":2518:2611  function symbol() public view virtual returns (string memory) {... */\n      swap1\n      jump\t// out\n        /* \"@openzeppelin/contracts/token/ERC721/ERC721.sol\":3718:3862  function setApprovalForAll(address operator, bool approved) public virtual {... */\n    tag_75:\n        /* \"@openzeppelin/contracts/token/ERC721/ERC721.sol\":3803:3855  _setApprovalForAll(_msgSender(), operator, approved) */\n      tag_156\n        /* \"@openzeppelin/contracts/token/ERC721/ERC721.sol\":3822:3834  _msgSender() */\n      tag_157\n        /* \"@openzeppelin/contracts/token/ERC721/ERC721.sol\":3822:3832  _msgSender */\n      tag_115\n        /* \"@openzeppelin/contracts/token/ERC721/ERC721.sol\":3822:3834  _msgSender() */\n      jump\t// in\n    tag_157:\n        /* \"@openzeppelin/contracts/token/ERC721/ERC721.sol\":3836:3844  operator */\n      dup4\n        /* \"@openzeppelin/contracts/token/ERC721/ERC721.sol\":3846:3854  approved */\n      dup4\n        /* \"@openzeppelin/contracts/token/ERC721/ERC721.sol\":3803:3821  _setApprovalForAll */\n      tag_158\n        /* \"@openzeppelin/contracts/token/ERC721/ERC721.sol\":3803:3855  _setApprovalForAll(_msgSender(), operator, approved) */\n      jump\t// in\n    tag_156:\n        /* \"@openzeppelin/contracts/token/ERC721/ERC721.sol\":3718:3862  function setApprovalForAll(address operator, bool approved) public virtual {... */\n      pop\n      pop\n      jump\t// out\n        /* \"@openzeppelin/contracts/token/ERC721/ERC721.sol\":4985:5193  function safeTransferFrom(address from, address to, uint256 tokenId, bytes memory data) public virtual {... */\n    tag_79:\n        /* \"@openzeppelin/contracts/token/ERC721/ERC721.sol\":5098:5129  transferFrom(from, to, tokenId) */\n      tag_160\n        /* \"@openzeppelin/contracts/token/ERC721/ERC721.sol\":5111:5115  from */\n      dup5\n        /* \"@openzeppelin/contracts/token/ERC721/ERC721.sol\":5117:5119  to */\n      dup5\n        /* \"@openzeppelin/contracts/token/ERC721/ERC721.sol\":5121:5128  tokenId */\n      dup5\n        /* \"@openzeppelin/contracts/token/ERC721/ERC721.sol\":5098:5110  transferFrom */\n      tag_47\n        /* \"@openzeppelin/contracts/token/ERC721/ERC721.sol\":5098:5129  transferFrom(from, to, tokenId) */\n      jump\t// in\n    tag_160:\n        /* \"@openzeppelin/contracts/token/ERC721/ERC721.sol\":5139:5186  _checkOnERC721Received(from, to, tokenId, data) */\n      tag_161\n        /* \"@openzeppelin/contracts/token/ERC721/ERC721.sol\":5162:5166  from */\n      dup5\n        /* \"@openzeppelin/contracts/token/ERC721/ERC721.sol\":5168:5170  to */\n      dup5\n        /* \"@openzeppelin/contracts/token/ERC721/ERC721.sol\":5172:5179  tokenId */\n      dup5\n        /* \"@openzeppelin/contracts/token/ERC721/ERC721.sol\":5181:5185  data */\n      dup5\n        /* \"@openzeppelin/contracts/token/ERC721/ERC721.sol\":5139:5161  _checkOnERC721Received */\n      tag_162\n        /* \"@openzeppelin/contracts/token/ERC721/ERC721.sol\":5139:5186  _checkOnERC721Received(from, to, tokenId, data) */\n      jump\t// in\n    tag_161:\n        /* \"@openzeppelin/contracts/token/ERC721/ERC721.sol\":4985:5193  function safeTransferFrom(address from, address to, uint256 tokenId, bytes memory data) public virtual {... */\n      pop\n      pop\n      pop\n      pop\n      jump\t// out\n        /* \"telefonica/dynamicCentenario.sol\":455:499  uint256 public immutable deploymentTimestamp */\n    tag_81:\n      immutable(\"0x099447b62022b2640f8025af23f8d6bc930224ee86f2d69c4320fd2eae55594f\")\n      dup2\n      jump\t// out\n        /* \"telefonica/dynamicCentenario.sol\":1164:2092  function tokenURI(uint256 tokenId) public view virtual override returns (string memory) {... */\n    tag_85:\n        /* \"telefonica/dynamicCentenario.sol\":1237:1250  string memory */\n      0x60\n        /* \"telefonica/dynamicCentenario.sol\":1382:1383  0 */\n      0x00\n        /* \"telefonica/dynamicCentenario.sol\":1354:1384  ownerOf(tokenId) != address(0) */\n      0xffffffffffffffffffffffffffffffffffffffff\n      and\n        /* \"telefonica/dynamicCentenario.sol\":1354:1370  ownerOf(tokenId) */\n      tag_164\n        /* \"telefonica/dynamicCentenario.sol\":1362:1369  tokenId */\n      dup4\n        /* \"telefonica/dynamicCentenario.sol\":1354:1361  ownerOf */\n      tag_57\n        /* \"telefonica/dynamicCentenario.sol\":1354:1370  ownerOf(tokenId) */\n      jump\t// in\n    tag_164:\n        /* \"telefonica/dynamicCentenario.sol\":1354:1384  ownerOf(tokenId) != address(0) */\n      0xffffffffffffffffffffffffffffffffffffffff\n      and\n      sub\n        /* \"telefonica/dynamicCentenario.sol\":1346:1436  require(ownerOf(tokenId) != address(0), \"ERC721Metadata: URI query for nonexistent token\") */\n      tag_165\n      jumpi\n      mload(0x40)\n      0x08c379a000000000000000000000000000000000000000000000000000000000\n      dup2\n      mstore\n      0x04\n      add\n      tag_166\n      swap1\n      tag_167\n      jump\t// in\n    tag_166:\n      mload(0x40)\n      dup1\n      swap2\n      sub\n      swap1\n      revert\n    tag_165:\n        /* \"telefonica/dynamicCentenario.sol\":1476:1494  uint256 twentyDays */\n      0x00\n        /* \"telefonica/dynamicCentenario.sol\":1497:1504  20 days */\n      0x1a5e00\n        /* \"telefonica/dynamicCentenario.sol\":1476:1504  uint256 twentyDays = 20 days */\n      swap1\n      pop\n        /* \"telefonica/dynamicCentenario.sol\":1515:1530  uint256 oneYear */\n      0x00\n        /* \"telefonica/dynamicCentenario.sol\":1533:1541  365 days */\n      0x01e13380\n        /* \"telefonica/dynamicCentenario.sol\":1515:1541  uint256 oneYear = 365 days */\n      swap1\n      pop\n        /* \"telefonica/dynamicCentenario.sol\":1554:1579  uint256 timeSinceCreation */\n      0x00\n        /* \"telefonica/dynamicCentenario.sol\":1600:1624  _tokenCreationTimestamps */\n      0x09\n        /* \"telefonica/dynamicCentenario.sol\":1600:1633  _tokenCreationTimestamps[tokenId] */\n      0x00\n        /* \"telefonica/dynamicCentenario.sol\":1625:1632  tokenId */\n      dup7\n        /* \"telefonica/dynamicCentenario.sol\":1600:1633  _tokenCreationTimestamps[tokenId] */\n      dup2\n      mstore\n      0x20\n      add\n      swap1\n      dup2\n      mstore\n      0x20\n      add\n      0x00\n      keccak256\n      sload\n        /* \"telefonica/dynamicCentenario.sol\":1582:1597  block.timestamp */\n      timestamp\n        /* \"telefonica/dynamicCentenario.sol\":1582:1633  block.timestamp - _tokenCreationTimestamps[tokenId] */\n      tag_168\n      swap2\n      swap1\n      tag_169\n      jump\t// in\n    tag_168:\n        /* \"telefonica/dynamicCentenario.sol\":1554:1633  uint256 timeSinceCreation = block.timestamp - _tokenCreationTimestamps[tokenId] */\n      swap1\n      pop\n        /* \"telefonica/dynamicCentenario.sol\":1753:1763  twentyDays */\n      dup3\n        /* \"telefonica/dynamicCentenario.sol\":1733:1750  timeSinceCreation */\n      dup2\n        /* \"telefonica/dynamicCentenario.sol\":1733:1763  timeSinceCreation < twentyDays */\n      lt\n        /* \"telefonica/dynamicCentenario.sol\":1729:2085  if (timeSinceCreation < twentyDays) {... */\n      iszero\n      tag_170\n      jumpi\n        /* \"telefonica/dynamicCentenario.sol\":1811:1821  _baseURI() */\n      tag_171\n        /* \"telefonica/dynamicCentenario.sol\":1811:1819  _baseURI */\n      tag_172\n        /* \"telefonica/dynamicCentenario.sol\":1811:1821  _baseURI() */\n      jump\t// in\n    tag_171:\n        /* \"telefonica/dynamicCentenario.sol\":1794:1844  abi.encodePacked(_baseURI(), \"initial_image.json\") */\n      add(0x20, mload(0x40))\n      tag_173\n      swap2\n      swap1\n      tag_174\n      jump\t// in\n    tag_173:\n      mload(0x40)\n      0x20\n      dup2\n      dup4\n      sub\n      sub\n      dup2\n      mstore\n      swap1\n      0x40\n      mstore\n        /* \"telefonica/dynamicCentenario.sol\":1780:1845  return string(abi.encodePacked(_baseURI(), \"initial_image.json\")) */\n      swap4\n      pop\n      pop\n      pop\n      pop\n      jump(tag_163)\n        /* \"telefonica/dynamicCentenario.sol\":1729:2085  if (timeSinceCreation < twentyDays) {... */\n    tag_170:\n        /* \"telefonica/dynamicCentenario.sol\":1887:1894  oneYear */\n      dup2\n        /* \"telefonica/dynamicCentenario.sol\":1867:1884  timeSinceCreation */\n      dup2\n        /* \"telefonica/dynamicCentenario.sol\":1867:1894  timeSinceCreation < oneYear */\n      lt\n        /* \"telefonica/dynamicCentenario.sol\":1863:2085  if (timeSinceCreation < oneYear) {... */\n      iszero\n      tag_176\n      jumpi\n        /* \"telefonica/dynamicCentenario.sol\":1942:1952  _baseURI() */\n      tag_177\n        /* \"telefonica/dynamicCentenario.sol\":1942:1950  _baseURI */\n      tag_172\n        /* \"telefonica/dynamicCentenario.sol\":1942:1952  _baseURI() */\n      jump\t// in\n    tag_177:\n        /* \"telefonica/dynamicCentenario.sol\":1925:1975  abi.encodePacked(_baseURI(), \"20_days_image.json\") */\n      add(0x20, mload(0x40))\n      tag_178\n      swap2\n      swap1\n      tag_179\n      jump\t// in\n    tag_178:\n      mload(0x40)\n      0x20\n      dup2\n      dup4\n      sub\n      sub\n      dup2\n      mstore\n      swap1\n      0x40\n      mstore\n        /* \"telefonica/dynamicCentenario.sol\":1911:1976  return string(abi.encodePacked(_baseURI(), \"20_days_image.json\")) */\n      swap4\n      pop\n      pop\n      pop\n      pop\n      jump(tag_163)\n        /* \"telefonica/dynamicCentenario.sol\":1863:2085  if (timeSinceCreation < oneYear) {... */\n    tag_176:\n        /* \"telefonica/dynamicCentenario.sol\":2040:2050  _baseURI() */\n      tag_181\n        /* \"telefonica/dynamicCentenario.sol\":2040:2048  _baseURI */\n      tag_172\n        /* \"telefonica/dynamicCentenario.sol\":2040:2050  _baseURI() */\n      jump\t// in\n    tag_181:\n        /* \"telefonica/dynamicCentenario.sol\":2023:2072  abi.encodePacked(_baseURI(), \"1_year_image.json\") */\n      add(0x20, mload(0x40))\n      tag_182\n      swap2\n      swap1\n      tag_183\n      jump\t// in\n    tag_182:\n      mload(0x40)\n      0x20\n      dup2\n      dup4\n      sub\n      sub\n      dup2\n      mstore\n      swap1\n      0x40\n      mstore\n        /* \"telefonica/dynamicCentenario.sol\":2009:2073  return string(abi.encodePacked(_baseURI(), \"1_year_image.json\")) */\n      swap4\n      pop\n      pop\n      pop\n      pop\n        /* \"telefonica/dynamicCentenario.sol\":1164:2092  function tokenURI(uint256 tokenId) public view virtual override returns (string memory) {... */\n    tag_163:\n      swap2\n      swap1\n      pop\n      jump\t// out\n        /* \"@openzeppelin/contracts/token/ERC721/ERC721.sol\":3928:4081  function isApprovedForAll(address owner, address operator) public view virtual returns (bool) {... */\n    tag_90:\n        /* \"@openzeppelin/contracts/token/ERC721/ERC721.sol\":4016:4020  bool */\n      0x00\n        /* \"@openzeppelin/contracts/token/ERC721/ERC721.sol\":4039:4057  _operatorApprovals */\n      0x05\n        /* \"@openzeppelin/contracts/token/ERC721/ERC721.sol\":4039:4064  _operatorApprovals[owner] */\n      0x00\n        /* \"@openzeppelin/contracts/token/ERC721/ERC721.sol\":4058:4063  owner */\n      dup5\n        /* \"@openzeppelin/contracts/token/ERC721/ERC721.sol\":4039:4064  _operatorApprovals[owner] */\n      0xffffffffffffffffffffffffffffffffffffffff\n      and\n      0xffffffffffffffffffffffffffffffffffffffff\n      and\n      dup2\n      mstore\n      0x20\n      add\n      swap1\n      dup2\n      mstore\n      0x20\n      add\n      0x00\n      keccak256\n        /* \"@openzeppelin/contracts/token/ERC721/ERC721.sol\":4039:4074  _operatorApprovals[owner][operator] */\n      0x00\n        /* \"@openzeppelin/contracts/token/ERC721/ERC721.sol\":4065:4073  operator */\n      dup4\n        /* \"@openzeppelin/contracts/token/ERC721/ERC721.sol\":4039:4074  _operatorApprovals[owner][operator] */\n      0xffffffffffffffffffffffffffffffffffffffff\n      and\n      0xffffffffffffffffffffffffffffffffffffffff\n      and\n      dup2\n      mstore\n      0x20\n      add\n      swap1\n      dup2\n      mstore\n      0x20\n      add\n      0x00\n      keccak256\n      0x00\n      swap1\n      sload\n      swap1\n      0x0100\n      exp\n      swap1\n      div\n      0xff\n      and\n        /* \"@openzeppelin/contracts/token/ERC721/ERC721.sol\":4032:4074  return _operatorApprovals[owner][operator] */\n      swap1\n      pop\n        /* \"@openzeppelin/contracts/token/ERC721/ERC721.sol\":3928:4081  function isApprovedForAll(address owner, address operator) public view virtual returns (bool) {... */\n      swap3\n      swap2\n      pop\n      pop\n      jump\t// out\n        /* \"@openzeppelin/contracts/access/Ownable.sol\":2074:2272  function transferOwnership(address newOwner) public virtual onlyOwner {... */\n    tag_94:\n        /* \"@openzeppelin/contracts/access/Ownable.sol\":1094:1107  _checkOwner() */\n      tag_186\n        /* \"@openzeppelin/contracts/access/Ownable.sol\":1094:1105  _checkOwner */\n      tag_128\n        /* \"@openzeppelin/contracts/access/Ownable.sol\":1094:1107  _checkOwner() */\n      jump\t// in\n    tag_186:\n        /* \"@openzeppelin/contracts/access/Ownable.sol\":2182:2183  0 */\n      0x00\n        /* \"@openzeppelin/contracts/access/Ownable.sol\":2162:2184  newOwner != address(0) */\n      0xffffffffffffffffffffffffffffffffffffffff\n      and\n        /* \"@openzeppelin/contracts/access/Ownable.sol\":2162:2170  newOwner */\n      dup2\n        /* \"@openzeppelin/contracts/access/Ownable.sol\":2162:2184  newOwner != address(0) */\n      0xffffffffffffffffffffffffffffffffffffffff\n      and\n      sub\n        /* \"@openzeppelin/contracts/access/Ownable.sol\":2154:2227  require(newOwner != address(0), \"Ownable: new owner is the zero address\") */\n      tag_188\n      jumpi\n      mload(0x40)\n      0x08c379a000000000000000000000000000000000000000000000000000000000\n      dup2\n      mstore\n      0x04\n      add\n      tag_189\n      swap1\n      tag_190\n      jump\t// in\n    tag_189:\n      mload(0x40)\n      dup1\n      swap2\n      sub\n      swap1\n      revert\n    tag_188:\n        /* \"@openzeppelin/contracts/access/Ownable.sol\":2237:2265  _transferOwnership(newOwner) */\n      tag_191\n        /* \"@openzeppelin/contracts/access/Ownable.sol\":2256:2264  newOwner */\n      dup2\n        /* \"@openzeppelin/contracts/access/Ownable.sol\":2237:2255  _transferOwnership */\n      tag_147\n        /* \"@openzeppelin/contracts/access/Ownable.sol\":2237:2265  _transferOwnership(newOwner) */\n      jump\t// in\n    tag_191:\n        /* \"@openzeppelin/contracts/access/Ownable.sol\":2074:2272  function transferOwnership(address newOwner) public virtual onlyOwner {... */\n      pop\n      jump\t// out\n        /* \"@openzeppelin/contracts/utils/introspection/ERC165.sol\":762:908  function supportsInterface(bytes4 interfaceId) public view virtual returns (bool) {... */\n    tag_99:\n        /* \"@openzeppelin/contracts/utils/introspection/ERC165.sol\":838:842  bool */\n      0x00\n        /* \"@openzeppelin/contracts/utils/introspection/ERC165.sol\":876:901  type(IERC165).interfaceId */\n      0x01ffc9a700000000000000000000000000000000000000000000000000000000\n        /* \"@openzeppelin/contracts/utils/introspection/ERC165.sol\":861:901  interfaceId == type(IERC165).interfaceId */\n      not(0xffffffffffffffffffffffffffffffffffffffffffffffffffffffff)\n      and\n        /* \"@openzeppelin/contracts/utils/introspection/ERC165.sol\":861:872  interfaceId */\n      dup3\n        /* \"@openzeppelin/contracts/utils/introspection/ERC165.sol\":861:901  interfaceId == type(IERC165).interfaceId */\n      not(0xffffffffffffffffffffffffffffffffffffffffffffffffffffffff)\n      and\n      eq\n        /* \"@openzeppelin/contracts/utils/introspection/ERC165.sol\":854:901  return interfaceId == type(IERC165).interfaceId */\n      swap1\n      pop\n        /* \"@openzeppelin/contracts/utils/introspection/ERC165.sol\":762:908  function supportsInterface(bytes4 interfaceId) public view virtual returns (bool) {... */\n      swap2\n      swap1\n      pop\n      jump\t// out\n        /* \"@openzeppelin/contracts/token/ERC721/ERC721.sol\":16138:16379  function _requireOwned(uint256 tokenId) internal view returns (address) {... */\n    tag_109:\n        /* \"@openzeppelin/contracts/token/ERC721/ERC721.sol\":16201:16208  address */\n      0x00\n        /* \"@openzeppelin/contracts/token/ERC721/ERC721.sol\":16220:16233  address owner */\n      dup1\n        /* \"@openzeppelin/contracts/token/ERC721/ERC721.sol\":16236:16253  _ownerOf(tokenId) */\n      tag_194\n        /* \"@openzeppelin/contracts/token/ERC721/ERC721.sol\":16245:16252  tokenId */\n      dup4\n        /* \"@openzeppelin/contracts/token/ERC721/ERC721.sol\":16236:16244  _ownerOf */\n      tag_195\n        /* \"@openzeppelin/contracts/token/ERC721/ERC721.sol\":16236:16253  _ownerOf(tokenId) */\n      jump\t// in\n    tag_194:\n        /* \"@openzeppelin/contracts/token/ERC721/ERC721.sol\":16220:16253  address owner = _ownerOf(tokenId) */\n      swap1\n      pop\n        /* \"@openzeppelin/contracts/token/ERC721/ERC721.sol\":16284:16285  0 */\n      0x00\n        /* \"@openzeppelin/contracts/token/ERC721/ERC721.sol\":16267:16286  owner == address(0) */\n      0xffffffffffffffffffffffffffffffffffffffff\n      and\n        /* \"@openzeppelin/contracts/token/ERC721/ERC721.sol\":16267:16272  owner */\n      dup2\n        /* \"@openzeppelin/contracts/token/ERC721/ERC721.sol\":16267:16286  owner == address(0) */\n      0xffffffffffffffffffffffffffffffffffffffff\n      and\n      sub\n        /* \"@openzeppelin/contracts/token/ERC721/ERC721.sol\":16263:16351  if (owner == address(0)) {... */\n      tag_196\n      jumpi\n        /* \"@openzeppelin/contracts/token/ERC721/ERC721.sol\":16332:16339  tokenId */\n      dup3\n        /* \"@openzeppelin/contracts/token/ERC721/ERC721.sol\":16309:16340  ERC721NonexistentToken(tokenId) */\n      mload(0x40)\n      0x7e27328900000000000000000000000000000000000000000000000000000000\n      dup2\n      mstore\n      0x04\n      add\n      tag_197\n      swap2\n      swap1\n      tag_63\n      jump\t// in\n    tag_197:\n      mload(0x40)\n      dup1\n      swap2\n      sub\n      swap1\n      revert\n        /* \"@openzeppelin/contracts/token/ERC721/ERC721.sol\":16263:16351  if (owner == address(0)) {... */\n    tag_196:\n        /* \"@openzeppelin/contracts/token/ERC721/ERC721.sol\":16367:16372  owner */\n      dup1\n        /* \"@openzeppelin/contracts/token/ERC721/ERC721.sol\":16360:16372  return owner */\n      swap2\n      pop\n      pop\n        /* \"@openzeppelin/contracts/token/ERC721/ERC721.sol\":16138:16379  function _requireOwned(uint256 tokenId) internal view returns (address) {... */\n      swap2\n      swap1\n      pop\n      jump\t// out\n        /* \"@openzeppelin/contracts/token/ERC721/ERC721.sol\":5938:6065  function _getApproved(uint256 tokenId) internal view virtual returns (address) {... */\n    tag_111:\n        /* \"@openzeppelin/contracts/token/ERC721/ERC721.sol\":6008:6015  address */\n      0x00\n        /* \"@openzeppelin/contracts/token/ERC721/ERC721.sol\":6034:6049  _tokenApprovals */\n      0x04\n        /* \"@openzeppelin/contracts/token/ERC721/ERC721.sol\":6034:6058  _tokenApprovals[tokenId] */\n      0x00\n        /* \"@openzeppelin/contracts/token/ERC721/ERC721.sol\":6050:6057  tokenId */\n      dup4\n        /* \"@openzeppelin/contracts/token/ERC721/ERC721.sol\":6034:6058  _tokenApprovals[tokenId] */\n      dup2\n      mstore\n      0x20\n      add\n      swap1\n      dup2\n      mstore\n      0x20\n      add\n      0x00\n      keccak256\n      0x00\n      swap1\n      sload\n      swap1\n      0x0100\n      exp\n      swap1\n      div\n      0xffffffffffffffffffffffffffffffffffffffff\n      and\n        /* \"@openzeppelin/contracts/token/ERC721/ERC721.sol\":6027:6058  return _tokenApprovals[tokenId] */\n      swap1\n      pop\n        /* \"@openzeppelin/contracts/token/ERC721/ERC721.sol\":5938:6065  function _getApproved(uint256 tokenId) internal view virtual returns (address) {... */\n      swap2\n      swap1\n      pop\n      jump\t// out\n        /* \"@openzeppelin/contracts/utils/Context.sol\":640:736  function _msgSender() internal view virtual returns (address) {... */\n    tag_115:\n        /* \"@openzeppelin/contracts/utils/Context.sol\":693:700  address */\n      0x00\n        /* \"@openzeppelin/contracts/utils/Context.sol\":719:729  msg.sender */\n      caller\n        /* \"@openzeppelin/contracts/utils/Context.sol\":712:729  return msg.sender */\n      swap1\n      pop\n        /* \"@openzeppelin/contracts/utils/Context.sol\":640:736  function _msgSender() internal view virtual returns (address) {... */\n      swap1\n      jump\t// out\n        /* \"@openzeppelin/contracts/token/ERC721/ERC721.sol\":14418:14538  function _approve(address to, uint256 tokenId, address auth) internal {... */\n    tag_116:\n        /* \"@openzeppelin/contracts/token/ERC721/ERC721.sol\":14498:14531  _approve(to, tokenId, auth, true) */\n      tag_201\n        /* \"@openzeppelin/contracts/token/ERC721/ERC721.sol\":14507:14509  to */\n      dup4\n        /* \"@openzeppelin/contracts/token/ERC721/ERC721.sol\":14511:14518  tokenId */\n      dup4\n        /* \"@openzeppelin/contracts/token/ERC721/ERC721.sol\":14520:14524  auth */\n      dup4\n        /* \"@openzeppelin/contracts/token/ERC721/ERC721.sol\":14526:14530  true */\n      0x01\n        /* \"@openzeppelin/contracts/token/ERC721/ERC721.sol\":14498:14506  _approve */\n      tag_202\n        /* \"@openzeppelin/contracts/token/ERC721/ERC721.sol\":14498:14531  _approve(to, tokenId, auth, true) */\n      jump\t// in\n    tag_201:\n        /* \"@openzeppelin/contracts/token/ERC721/ERC721.sol\":14418:14538  function _approve(address to, uint256 tokenId, address auth) internal {... */\n      pop\n      pop\n      pop\n      jump\t// out\n        /* \"@openzeppelin/contracts/token/ERC721/ERC721.sol\":8838:9633  function _update(address to, uint256 tokenId, address auth) internal virtual returns (address) {... */\n    tag_122:\n        /* \"@openzeppelin/contracts/token/ERC721/ERC721.sol\":8924:8931  address */\n      0x00\n        /* \"@openzeppelin/contracts/token/ERC721/ERC721.sol\":8943:8955  address from */\n      dup1\n        /* \"@openzeppelin/contracts/token/ERC721/ERC721.sol\":8958:8975  _ownerOf(tokenId) */\n      tag_204\n        /* \"@openzeppelin/contracts/token/ERC721/ERC721.sol\":8967:8974  tokenId */\n      dup5\n        /* \"@openzeppelin/contracts/token/ERC721/ERC721.sol\":8958:8966  _ownerOf */\n      tag_195\n        /* \"@openzeppelin/contracts/token/ERC721/ERC721.sol\":8958:8975  _ownerOf(tokenId) */\n      jump\t// in\n    tag_204:\n        /* \"@openzeppelin/contracts/token/ERC721/ERC721.sol\":8943:8975  address from = _ownerOf(tokenId) */\n      swap1\n      pop\n        /* \"@openzeppelin/contracts/token/ERC721/ERC721.sol\":9051:9052  0 */\n      0x00\n        /* \"@openzeppelin/contracts/token/ERC721/ERC721.sol\":9035:9053  auth != address(0) */\n      0xffffffffffffffffffffffffffffffffffffffff\n      and\n        /* \"@openzeppelin/contracts/token/ERC721/ERC721.sol\":9035:9039  auth */\n      dup4\n        /* \"@openzeppelin/contracts/token/ERC721/ERC721.sol\":9035:9053  auth != address(0) */\n      0xffffffffffffffffffffffffffffffffffffffff\n      and\n      eq\n        /* \"@openzeppelin/contracts/token/ERC721/ERC721.sol\":9031:9117  if (auth != address(0)) {... */\n      tag_205\n      jumpi\n        /* \"@openzeppelin/contracts/token/ERC721/ERC721.sol\":9069:9106  _checkAuthorized(from, auth, tokenId) */\n      tag_206\n        /* \"@openzeppelin/contracts/token/ERC721/ERC721.sol\":9086:9090  from */\n      dup2\n        /* \"@openzeppelin/contracts/token/ERC721/ERC721.sol\":9092:9096  auth */\n      dup5\n        /* \"@openzeppelin/contracts/token/ERC721/ERC721.sol\":9098:9105  tokenId */\n      dup7\n        /* \"@openzeppelin/contracts/token/ERC721/ERC721.sol\":9069:9085  _checkAuthorized */\n      tag_207\n        /* \"@openzeppelin/contracts/token/ERC721/ERC721.sol\":9069:9106  _checkAuthorized(from, auth, tokenId) */\n      jump\t// in\n    tag_206:\n        /* \"@openzeppelin/contracts/token/ERC721/ERC721.sol\":9031:9117  if (auth != address(0)) {... */\n    tag_205:\n        /* \"@openzeppelin/contracts/token/ERC721/ERC721.sol\":9177:9178  0 */\n      0x00\n        /* \"@openzeppelin/contracts/token/ERC721/ERC721.sol\":9161:9179  from != address(0) */\n      0xffffffffffffffffffffffffffffffffffffffff\n      and\n        /* \"@openzeppelin/contracts/token/ERC721/ERC721.sol\":9161:9165  from */\n      dup2\n        /* \"@openzeppelin/contracts/token/ERC721/ERC721.sol\":9161:9179  from != address(0) */\n      0xffffffffffffffffffffffffffffffffffffffff\n      and\n      eq\n        /* \"@openzeppelin/contracts/token/ERC721/ERC721.sol\":9157:9413  if (from != address(0)) {... */\n      tag_208\n      jumpi\n        /* \"@openzeppelin/contracts/token/ERC721/ERC721.sol\":9277:9325  _approve(address(0), tokenId, address(0), false) */\n      tag_209\n        /* \"@openzeppelin/contracts/token/ERC721/ERC721.sol\":9294:9295  0 */\n      0x00\n        /* \"@openzeppelin/contracts/token/ERC721/ERC721.sol\":9298:9305  tokenId */\n      dup6\n        /* \"@openzeppelin/contracts/token/ERC721/ERC721.sol\":9315:9316  0 */\n      0x00\n        /* \"@openzeppelin/contracts/token/ERC721/ERC721.sol\":9319:9324  false */\n      dup1\n        /* \"@openzeppelin/contracts/token/ERC721/ERC721.sol\":9277:9285  _approve */\n      tag_202\n        /* \"@openzeppelin/contracts/token/ERC721/ERC721.sol\":9277:9325  _approve(address(0), tokenId, address(0), false) */\n      jump\t// in\n    tag_209:\n        /* \"@openzeppelin/contracts/token/ERC721/ERC721.sol\":9387:9388  1 */\n      0x01\n        /* \"@openzeppelin/contracts/token/ERC721/ERC721.sol\":9368:9377  _balances */\n      0x03\n        /* \"@openzeppelin/contracts/token/ERC721/ERC721.sol\":9368:9383  _balances[from] */\n      0x00\n        /* \"@openzeppelin/contracts/token/ERC721/ERC721.sol\":9378:9382  from */\n      dup4\n        /* \"@openzeppelin/contracts/token/ERC721/ERC721.sol\":9368:9383  _balances[from] */\n      0xffffffffffffffffffffffffffffffffffffffff\n      and\n      0xffffffffffffffffffffffffffffffffffffffff\n      and\n      dup2\n      mstore\n      0x20\n      add\n      swap1\n      dup2\n      mstore\n      0x20\n      add\n      0x00\n      keccak256\n      0x00\n        /* \"@openzeppelin/contracts/token/ERC721/ERC721.sol\":9368:9388  _balances[from] -= 1 */\n      dup3\n      dup3\n      sload\n      sub\n      swap3\n      pop\n      pop\n      dup2\n      swap1\n      sstore\n      pop\n        /* \"@openzeppelin/contracts/token/ERC721/ERC721.sol\":9157:9413  if (from != address(0)) {... */\n    tag_208:\n        /* \"@openzeppelin/contracts/token/ERC721/ERC721.sol\":9441:9442  0 */\n      0x00\n        /* \"@openzeppelin/contracts/token/ERC721/ERC721.sol\":9427:9443  to != address(0) */\n      0xffffffffffffffffffffffffffffffffffffffff\n      and\n        /* \"@openzeppelin/contracts/token/ERC721/ERC721.sol\":9427:9429  to */\n      dup6\n        /* \"@openzeppelin/contracts/token/ERC721/ERC721.sol\":9427:9443  to != address(0) */\n      0xffffffffffffffffffffffffffffffffffffffff\n      and\n      eq\n        /* \"@openzeppelin/contracts/token/ERC721/ERC721.sol\":9423:9530  if (to != address(0)) {... */\n      tag_210\n      jumpi\n        /* \"@openzeppelin/contracts/token/ERC721/ERC721.sol\":9504:9505  1 */\n      0x01\n        /* \"@openzeppelin/contracts/token/ERC721/ERC721.sol\":9487:9496  _balances */\n      0x03\n        /* \"@openzeppelin/contracts/token/ERC721/ERC721.sol\":9487:9500  _balances[to] */\n      0x00\n        /* \"@openzeppelin/contracts/token/ERC721/ERC721.sol\":9497:9499  to */\n      dup8\n        /* \"@openzeppelin/contracts/token/ERC721/ERC721.sol\":9487:9500  _balances[to] */\n      0xffffffffffffffffffffffffffffffffffffffff\n      and\n      0xffffffffffffffffffffffffffffffffffffffff\n      and\n      dup2\n      mstore\n      0x20\n      add\n      swap1\n      dup2\n      mstore\n      0x20\n      add\n      0x00\n      keccak256\n      0x00\n        /* \"@openzeppelin/contracts/token/ERC721/ERC721.sol\":9487:9505  _balances[to] += 1 */\n      dup3\n      dup3\n      sload\n      add\n      swap3\n      pop\n      pop\n      dup2\n      swap1\n      sstore\n      pop\n        /* \"@openzeppelin/contracts/token/ERC721/ERC721.sol\":9423:9530  if (to != address(0)) {... */\n    tag_210:\n        /* \"@openzeppelin/contracts/token/ERC721/ERC721.sol\":9559:9561  to */\n      dup5\n        /* \"@openzeppelin/contracts/token/ERC721/ERC721.sol\":9540:9547  _owners */\n      0x02\n        /* \"@openzeppelin/contracts/token/ERC721/ERC721.sol\":9540:9556  _owners[tokenId] */\n      0x00\n        /* \"@openzeppelin/contracts/token/ERC721/ERC721.sol\":9548:9555  tokenId */\n      dup7\n        /* \"@openzeppelin/contracts/token/ERC721/ERC721.sol\":9540:9556  _owners[tokenId] */\n      dup2\n      mstore\n      0x20\n      add\n      swap1\n      dup2\n      mstore\n      0x20\n      add\n      0x00\n      keccak256\n      0x00\n        /* \"@openzeppelin/contracts/token/ERC721/ERC721.sol\":9540:9561  _owners[tokenId] = to */\n      0x0100\n      exp\n      dup2\n      sload\n      dup2\n      0xffffffffffffffffffffffffffffffffffffffff\n      mul\n      not\n      and\n      swap1\n      dup4\n      0xffffffffffffffffffffffffffffffffffffffff\n      and\n      mul\n      or\n      swap1\n      sstore\n      pop\n        /* \"@openzeppelin/contracts/token/ERC721/ERC721.sol\":9596:9603  tokenId */\n      dup4\n        /* \"@openzeppelin/contracts/token/ERC721/ERC721.sol\":9592:9594  to */\n      dup6\n        /* \"@openzeppelin/contracts/token/ERC721/ERC721.sol\":9577:9604  Transfer(from, to, tokenId) */\n      0xffffffffffffffffffffffffffffffffffffffff\n      and\n        /* \"@openzeppelin/contracts/token/ERC721/ERC721.sol\":9586:9590  from */\n      dup3\n        /* \"@openzeppelin/contracts/token/ERC721/ERC721.sol\":9577:9604  Transfer(from, to, tokenId) */\n      0xffffffffffffffffffffffffffffffffffffffff\n      and\n      0xddf252ad1be2c89b69c2b068fc378daa952ba7f163c4a11628f55a4df523b3ef\n      mload(0x40)\n      mload(0x40)\n      dup1\n      swap2\n      sub\n      swap1\n      log4\n        /* \"@openzeppelin/contracts/token/ERC721/ERC721.sol\":9622:9626  from */\n      dup1\n        /* \"@openzeppelin/contracts/token/ERC721/ERC721.sol\":9615:9626  return from */\n      swap2\n      pop\n      pop\n        /* \"@openzeppelin/contracts/token/ERC721/ERC721.sol\":8838:9633  function _update(address to, uint256 tokenId, address auth) internal virtual returns (address) {... */\n      swap4\n      swap3\n      pop\n      pop\n      pop\n      jump\t// out\n        /* \"@openzeppelin/contracts/access/Ownable.sol\":1359:1489  function _checkOwner() internal view virtual {... */\n    tag_128:\n        /* \"@openzeppelin/contracts/access/Ownable.sol\":1433:1445  _msgSender() */\n      tag_212\n        /* \"@openzeppelin/contracts/access/Ownable.sol\":1433:1443  _msgSender */\n      tag_115\n        /* \"@openzeppelin/contracts/access/Ownable.sol\":1433:1445  _msgSender() */\n      jump\t// in\n    tag_212:\n        /* \"@openzeppelin/contracts/access/Ownable.sol\":1422:1445  owner() == _msgSender() */\n      0xffffffffffffffffffffffffffffffffffffffff\n      and\n        /* \"@openzeppelin/contracts/access/Ownable.sol\":1422:1429  owner() */\n      tag_213\n        /* \"@openzeppelin/contracts/access/Ownable.sol\":1422:1427  owner */\n      tag_67\n        /* \"@openzeppelin/contracts/access/Ownable.sol\":1422:1429  owner() */\n      jump\t// in\n    tag_213:\n        /* \"@openzeppelin/contracts/access/Ownable.sol\":1422:1445  owner() == _msgSender() */\n      0xffffffffffffffffffffffffffffffffffffffff\n      and\n      eq\n        /* \"@openzeppelin/contracts/access/Ownable.sol\":1414:1482  require(owner() == _msgSender(), \"Ownable: caller is not the owner\") */\n      tag_214\n      jumpi\n      mload(0x40)\n      0x08c379a000000000000000000000000000000000000000000000000000000000\n      dup2\n      mstore\n      0x04\n      add\n      tag_215\n      swap1\n      tag_216\n      jump\t// in\n    tag_215:\n      mload(0x40)\n      dup1\n      swap2\n      sub\n      swap1\n      revert\n    tag_214:\n        /* \"@openzeppelin/contracts/access/Ownable.sol\":1359:1489  function _checkOwner() internal view virtual {... */\n      jump\t// out\n        /* \"@openzeppelin/contracts/utils/Counters.sol\":827:939  function current(Counter storage counter) internal view returns (uint256) {... */\n    tag_131:\n        /* \"@openzeppelin/contracts/utils/Counters.sol\":892:899  uint256 */\n      0x00\n        /* \"@openzeppelin/contracts/utils/Counters.sol\":918:925  counter */\n      dup2\n        /* \"@openzeppelin/contracts/utils/Counters.sol\":918:932  counter._value */\n      0x00\n      add\n      sload\n        /* \"@openzeppelin/contracts/utils/Counters.sol\":911:932  return counter._value */\n      swap1\n      pop\n        /* \"@openzeppelin/contracts/utils/Counters.sol\":827:939  function current(Counter storage counter) internal view returns (uint256) {... */\n      swap2\n      swap1\n      pop\n      jump\t// out\n        /* \"@openzeppelin/contracts/utils/Counters.sol\":945:1068  function increment(Counter storage counter) internal {... */\n    tag_133:\n        /* \"@openzeppelin/contracts/utils/Counters.sol\":1050:1051  1 */\n      0x01\n        /* \"@openzeppelin/contracts/utils/Counters.sol\":1032:1039  counter */\n      dup2\n        /* \"@openzeppelin/contracts/utils/Counters.sol\":1032:1046  counter._value */\n      0x00\n      add\n      0x00\n        /* \"@openzeppelin/contracts/utils/Counters.sol\":1032:1051  counter._value += 1 */\n      dup3\n      dup3\n      sload\n      add\n      swap3\n      pop\n      pop\n      dup2\n      swap1\n      sstore\n      pop\n        /* \"@openzeppelin/contracts/utils/Counters.sol\":945:1068  function increment(Counter storage counter) internal {... */\n      pop\n      jump\t// out\n        /* \"@openzeppelin/contracts/token/ERC721/ERC721.sol\":10633:10733  function _safeMint(address to, uint256 tokenId) internal {... */\n    tag_135:\n        /* \"@openzeppelin/contracts/token/ERC721/ERC721.sol\":10700:10726  _safeMint(to, tokenId, \"\") */\n      tag_220\n        /* \"@openzeppelin/contracts/token/ERC721/ERC721.sol\":10710:10712  to */\n      dup3\n        /* \"@openzeppelin/contracts/token/ERC721/ERC721.sol\":10714:10721  tokenId */\n      dup3\n        /* \"@openzeppelin/contracts/token/ERC721/ERC721.sol\":10700:10726  _safeMint(to, tokenId, \"\") */\n      mload(0x40)\n      dup1\n      0x20\n      add\n      0x40\n      mstore\n      dup1\n      0x00\n      dup2\n      mstore\n      pop\n        /* \"@openzeppelin/contracts/token/ERC721/ERC721.sol\":10700:10709  _safeMint */\n      tag_221\n        /* \"@openzeppelin/contracts/token/ERC721/ERC721.sol\":10700:10726  _safeMint(to, tokenId, \"\") */\n      jump\t// in\n    tag_220:\n        /* \"@openzeppelin/contracts/token/ERC721/ERC721.sol\":10633:10733  function _safeMint(address to, uint256 tokenId) internal {... */\n      pop\n      pop\n      jump\t// out\n        /* \"@openzeppelin/contracts/access/Ownable.sol\":2426:2613  function _transferOwnership(address newOwner) internal virtual {... */\n    tag_147:\n        /* \"@openzeppelin/contracts/access/Ownable.sol\":2499:2515  address oldOwner */\n      0x00\n        /* \"@openzeppelin/contracts/access/Ownable.sol\":2518:2524  _owner */\n      0x06\n      0x00\n      swap1\n      sload\n      swap1\n      0x0100\n      exp\n      swap1\n      div\n      0xffffffffffffffffffffffffffffffffffffffff\n      and\n        /* \"@openzeppelin/contracts/access/Ownable.sol\":2499:2524  address oldOwner = _owner */\n      swap1\n      pop\n        /* \"@openzeppelin/contracts/access/Ownable.sol\":2543:2551  newOwner */\n      dup2\n        /* \"@openzeppelin/contracts/access/Ownable.sol\":2534:2540  _owner */\n      0x06\n      0x00\n        /* \"@openzeppelin/contracts/access/Ownable.sol\":2534:2551  _owner = newOwner */\n      0x0100\n      exp\n      dup2\n      sload\n      dup2\n      0xffffffffffffffffffffffffffffffffffffffff\n      mul\n      not\n      and\n      swap1\n      dup4\n      0xffffffffffffffffffffffffffffffffffffffff\n      and\n      mul\n      or\n      swap1\n      sstore\n      pop\n        /* \"@openzeppelin/contracts/access/Ownable.sol\":2597:2605  newOwner */\n      dup2\n        /* \"@openzeppelin/contracts/access/Ownable.sol\":2566:2606  OwnershipTransferred(oldOwner, newOwner) */\n      0xffffffffffffffffffffffffffffffffffffffff\n      and\n        /* \"@openzeppelin/contracts/access/Ownable.sol\":2587:2595  oldOwner */\n      dup2\n        /* \"@openzeppelin/contracts/access/Ownable.sol\":2566:2606  OwnershipTransferred(oldOwner, newOwner) */\n      0xffffffffffffffffffffffffffffffffffffffff\n      and\n      0x8be0079c531659141344cd1fd0a4f28419497f9722a3daafe3b4186f6b6457e0\n      mload(0x40)\n      mload(0x40)\n      dup1\n      swap2\n      sub\n      swap1\n      log3\n        /* \"@openzeppelin/contracts/access/Ownable.sol\":2489:2613  {... */\n      pop\n        /* \"@openzeppelin/contracts/access/Ownable.sol\":2426:2613  function _transferOwnership(address newOwner) internal virtual {... */\n      pop\n      jump\t// out\n        /* \"@openzeppelin/contracts/token/ERC721/ERC721.sol\":15591:15903  function _setApprovalForAll(address owner, address operator, bool approved) internal virtual {... */\n    tag_158:\n        /* \"@openzeppelin/contracts/token/ERC721/ERC721.sol\":15718:15719  0 */\n      0x00\n        /* \"@openzeppelin/contracts/token/ERC721/ERC721.sol\":15698:15720  operator == address(0) */\n      0xffffffffffffffffffffffffffffffffffffffff\n      and\n        /* \"@openzeppelin/contracts/token/ERC721/ERC721.sol\":15698:15706  operator */\n      dup3\n        /* \"@openzeppelin/contracts/token/ERC721/ERC721.sol\":15698:15720  operator == address(0) */\n      0xffffffffffffffffffffffffffffffffffffffff\n      and\n      sub\n        /* \"@openzeppelin/contracts/token/ERC721/ERC721.sol\":15694:15785  if (operator == address(0)) {... */\n      tag_224\n      jumpi\n        /* \"@openzeppelin/contracts/token/ERC721/ERC721.sol\":15765:15773  operator */\n      dup2\n        /* \"@openzeppelin/contracts/token/ERC721/ERC721.sol\":15743:15774  ERC721InvalidOperator(operator) */\n      mload(0x40)\n      0x5b08ba1800000000000000000000000000000000000000000000000000000000\n      dup2\n      mstore\n      0x04\n      add\n      tag_225\n      swap2\n      swap1\n      tag_39\n      jump\t// in\n    tag_225:\n      mload(0x40)\n      dup1\n      swap2\n      sub\n      swap1\n      revert\n        /* \"@openzeppelin/contracts/token/ERC721/ERC721.sol\":15694:15785  if (operator == address(0)) {... */\n    tag_224:\n        /* \"@openzeppelin/contracts/token/ERC721/ERC721.sol\":15832:15840  approved */\n      dup1\n        /* \"@openzeppelin/contracts/token/ERC721/ERC721.sol\":15794:15812  _operatorApprovals */\n      0x05\n        /* \"@openzeppelin/contracts/token/ERC721/ERC721.sol\":15794:15819  _operatorApprovals[owner] */\n      0x00\n        /* \"@openzeppelin/contracts/token/ERC721/ERC721.sol\":15813:15818  owner */\n      dup6\n        /* \"@openzeppelin/contracts/token/ERC721/ERC721.sol\":15794:15819  _operatorApprovals[owner] */\n      0xffffffffffffffffffffffffffffffffffffffff\n      and\n      0xffffffffffffffffffffffffffffffffffffffff\n      and\n      dup2\n      mstore\n      0x20\n      add\n      swap1\n      dup2\n      mstore\n      0x20\n      add\n      0x00\n      keccak256\n        /* \"@openzeppelin/contracts/token/ERC721/ERC721.sol\":15794:15829  _operatorApprovals[owner][operator] */\n      0x00\n        /* \"@openzeppelin/contracts/token/ERC721/ERC721.sol\":15820:15828  operator */\n      dup5\n        /* \"@openzeppelin/contracts/token/ERC721/ERC721.sol\":15794:15829  _operatorApprovals[owner][operator] */\n      0xffffffffffffffffffffffffffffffffffffffff\n      and\n      0xffffffffffffffffffffffffffffffffffffffff\n      and\n      dup2\n      mstore\n      0x20\n      add\n      swap1\n      dup2\n      mstore\n      0x20\n      add\n      0x00\n      keccak256\n      0x00\n        /* \"@openzeppelin/contracts/token/ERC721/ERC721.sol\":15794:15840  _operatorApprovals[owner][operator] = approved */\n      0x0100\n      exp\n      dup2\n      sload\n      dup2\n      0xff\n      mul\n      not\n      and\n      swap1\n      dup4\n      iszero\n      iszero\n      mul\n      or\n      swap1\n      sstore\n      pop\n        /* \"@openzeppelin/contracts/token/ERC721/ERC721.sol\":15877:15885  operator */\n      dup2\n        /* \"@openzeppelin/contracts/token/ERC721/ERC721.sol\":15855:15896  ApprovalForAll(owner, operator, approved) */\n      0xffffffffffffffffffffffffffffffffffffffff\n      and\n        /* \"@openzeppelin/contracts/token/ERC721/ERC721.sol\":15870:15875  owner */\n      dup4\n        /* \"@openzeppelin/contracts/token/ERC721/ERC721.sol\":15855:15896  ApprovalForAll(owner, operator, approved) */\n      0xffffffffffffffffffffffffffffffffffffffff\n      and\n      0x17307eab39ab6107e8899845ad3d59bd9653f200f220920489ca2b5937696c31\n        /* \"@openzeppelin/contracts/token/ERC721/ERC721.sol\":15887:15895  approved */\n      dup4\n        /* \"@openzeppelin/contracts/token/ERC721/ERC721.sol\":15855:15896  ApprovalForAll(owner, operator, approved) */\n      mload(0x40)\n      tag_226\n      swap2\n      swap1\n      tag_29\n      jump\t// in\n    tag_226:\n      mload(0x40)\n      dup1\n      swap2\n      sub\n      swap1\n      log3\n        /* \"@openzeppelin/contracts/token/ERC721/ERC721.sol\":15591:15903  function _setApprovalForAll(address owner, address operator, bool approved) internal virtual {... */\n      pop\n      pop\n      pop\n      jump\t// out\n        /* \"@openzeppelin/contracts/token/ERC721/ERC721.sol\":16918:17700  function _checkOnERC721Received(address from, address to, uint256 tokenId, bytes memory data) private {... */\n    tag_162:\n        /* \"@openzeppelin/contracts/token/ERC721/ERC721.sol\":17051:17052  0 */\n      0x00\n        /* \"@openzeppelin/contracts/token/ERC721/ERC721.sol\":17034:17036  to */\n      dup4\n        /* \"@openzeppelin/contracts/token/ERC721/ERC721.sol\":17034:17048  to.code.length */\n      0xffffffffffffffffffffffffffffffffffffffff\n      and\n      extcodesize\n        /* \"@openzeppelin/contracts/token/ERC721/ERC721.sol\":17034:17052  to.code.length > 0 */\n      gt\n        /* \"@openzeppelin/contracts/token/ERC721/ERC721.sol\":17030:17694  if (to.code.length > 0) {... */\n      iszero\n      tag_228\n      jumpi\n        /* \"@openzeppelin/contracts/token/ERC721/ERC721.sol\":17088:17090  to */\n      dup3\n        /* \"@openzeppelin/contracts/token/ERC721/ERC721.sol\":17072:17108  IERC721Receiver(to).onERC721Received */\n      0xffffffffffffffffffffffffffffffffffffffff\n      and\n      0x150b7a02\n        /* \"@openzeppelin/contracts/token/ERC721/ERC721.sol\":17109:17121  _msgSender() */\n      tag_229\n        /* \"@openzeppelin/contracts/token/ERC721/ERC721.sol\":17109:17119  _msgSender */\n      tag_115\n        /* \"@openzeppelin/contracts/token/ERC721/ERC721.sol\":17109:17121  _msgSender() */\n      jump\t// in\n    tag_229:\n        /* \"@openzeppelin/contracts/token/ERC721/ERC721.sol\":17123:17127  from */\n      dup7\n        /* \"@openzeppelin/contracts/token/ERC721/ERC721.sol\":17129:17136  tokenId */\n      dup6\n        /* \"@openzeppelin/contracts/token/ERC721/ERC721.sol\":17138:17142  data */\n      dup6\n        /* \"@openzeppelin/contracts/token/ERC721/ERC721.sol\":17072:17143  IERC721Receiver(to).onERC721Received(_msgSender(), from, tokenId, data) */\n      mload(0x40)\n      dup6\n      0xffffffff\n      and\n      0xe0\n      shl\n      dup2\n      mstore\n      0x04\n      add\n      tag_230\n      swap5\n      swap4\n      swap3\n      swap2\n      swap1\n      tag_231\n      jump\t// in\n    tag_230:\n      0x20\n      mload(0x40)\n      dup1\n      dup4\n      sub\n      dup2\n      0x00\n      dup8\n      gas\n      call\n      swap3\n      pop\n      pop\n      pop\n      dup1\n      iszero\n      tag_232\n      jumpi\n      pop\n      mload(0x40)\n      returndatasize\n      not(0x1f)\n      0x1f\n      dup3\n      add\n      and\n      dup3\n      add\n      dup1\n      0x40\n      mstore\n      pop\n      dup2\n      add\n      swap1\n      tag_233\n      swap2\n      swap1\n      tag_234\n      jump\t// in\n    tag_233:\n      0x01\n    tag_232:\n        /* \"@openzeppelin/contracts/token/ERC721/ERC721.sol\":17068:17684  try IERC721Receiver(to).onERC721Received(_msgSender(), from, tokenId, data) returns (bytes4 retval) {... */\n      tag_235\n      jumpi\n      returndatasize\n      dup1\n      0x00\n      dup2\n      eq\n      tag_240\n      jumpi\n      mload(0x40)\n      swap2\n      pop\n      and(add(returndatasize, 0x3f), not(0x1f))\n      dup3\n      add\n      0x40\n      mstore\n      returndatasize\n      dup3\n      mstore\n      returndatasize\n      0x00\n      0x20\n      dup5\n      add\n      returndatacopy\n      jump(tag_239)\n    tag_240:\n      0x60\n      swap2\n      pop\n    tag_239:\n      pop\n        /* \"@openzeppelin/contracts/token/ERC721/ERC721.sol\":17398:17399  0 */\n      0x00\n        /* \"@openzeppelin/contracts/token/ERC721/ERC721.sol\":17381:17387  reason */\n      dup2\n        /* \"@openzeppelin/contracts/token/ERC721/ERC721.sol\":17381:17394  reason.length */\n      mload\n        /* \"@openzeppelin/contracts/token/ERC721/ERC721.sol\":17381:17399  reason.length == 0 */\n      sub\n        /* \"@openzeppelin/contracts/token/ERC721/ERC721.sol\":17377:17670  if (reason.length == 0) {... */\n      tag_241\n      jumpi\n        /* \"@openzeppelin/contracts/token/ERC721/ERC721.sol\":17452:17454  to */\n      dup4\n        /* \"@openzeppelin/contracts/token/ERC721/ERC721.sol\":17430:17455  ERC721InvalidReceiver(to) */\n      mload(0x40)\n      0x64a0ae9200000000000000000000000000000000000000000000000000000000\n      dup2\n      mstore\n      0x04\n      add\n      tag_242\n      swap2\n      swap1\n      tag_39\n      jump\t// in\n    tag_242:\n      mload(0x40)\n      dup1\n      swap2\n      sub\n      swap1\n      revert\n        /* \"@openzeppelin/contracts/token/ERC721/ERC721.sol\":17377:17670  if (reason.length == 0) {... */\n    tag_241:\n        /* \"@openzeppelin/contracts/token/ERC721/ERC721.sol\":17622:17628  reason */\n      dup1\n        /* \"@openzeppelin/contracts/token/ERC721/ERC721.sol\":17616:17629  mload(reason) */\n      mload\n        /* \"@openzeppelin/contracts/token/ERC721/ERC721.sol\":17607:17613  reason */\n      dup2\n        /* \"@openzeppelin/contracts/token/ERC721/ERC721.sol\":17603:17605  32 */\n      0x20\n        /* \"@openzeppelin/contracts/token/ERC721/ERC721.sol\":17599:17614  add(32, reason) */\n      add\n        /* \"@openzeppelin/contracts/token/ERC721/ERC721.sol\":17592:17630  revert(add(32, reason), mload(reason)) */\n      revert\n        /* \"@openzeppelin/contracts/token/ERC721/ERC721.sol\":17068:17684  try IERC721Receiver(to).onERC721Received(_msgSender(), from, tokenId, data) returns (bytes4 retval) {... */\n    tag_235:\n        /* \"@openzeppelin/contracts/token/ERC721/ERC721.sol\":17200:17241  IERC721Receiver.onERC721Received.selector */\n      shl(0xe0, 0x150b7a02)\n        /* \"@openzeppelin/contracts/token/ERC721/ERC721.sol\":17190:17241  retval != IERC721Receiver.onERC721Received.selector */\n      not(0xffffffffffffffffffffffffffffffffffffffffffffffffffffffff)\n      and\n        /* \"@openzeppelin/contracts/token/ERC721/ERC721.sol\":17190:17196  retval */\n      dup2\n        /* \"@openzeppelin/contracts/token/ERC721/ERC721.sol\":17190:17241  retval != IERC721Receiver.onERC721Received.selector */\n      not(0xffffffffffffffffffffffffffffffffffffffffffffffffffffffff)\n      and\n      eq\n        /* \"@openzeppelin/contracts/token/ERC721/ERC721.sol\":17186:17316  if (retval != IERC721Receiver.onERC721Received.selector) {... */\n      tag_245\n      jumpi\n        /* \"@openzeppelin/contracts/token/ERC721/ERC721.sol\":17294:17296  to */\n      dup4\n        /* \"@openzeppelin/contracts/token/ERC721/ERC721.sol\":17272:17297  ERC721InvalidReceiver(to) */\n      mload(0x40)\n      0x64a0ae9200000000000000000000000000000000000000000000000000000000\n      dup2\n      mstore\n      0x04\n      add\n      tag_246\n      swap2\n      swap1\n      tag_39\n      jump\t// in\n    tag_246:\n      mload(0x40)\n      dup1\n      swap2\n      sub\n      swap1\n      revert\n        /* \"@openzeppelin/contracts/token/ERC721/ERC721.sol\":17186:17316  if (retval != IERC721Receiver.onERC721Received.selector) {... */\n    tag_245:\n        /* \"@openzeppelin/contracts/token/ERC721/ERC721.sol\":17144:17330  returns (bytes4 retval) {... */\n      pop\n        /* \"@openzeppelin/contracts/token/ERC721/ERC721.sol\":17030:17694  if (to.code.length > 0) {... */\n    tag_228:\n        /* \"@openzeppelin/contracts/token/ERC721/ERC721.sol\":16918:17700  function _checkOnERC721Received(address from, address to, uint256 tokenId, bytes memory data) private {... */\n      pop\n      pop\n      pop\n      pop\n      jump\t// out\n        /* \"telefonica/dynamicCentenario.sol\":1048:1156  function _baseURI() internal view virtual override returns (string memory) {... */\n    tag_172:\n        /* \"telefonica/dynamicCentenario.sol\":1108:1121  string memory */\n      0x60\n        /* \"telefonica/dynamicCentenario.sol\":1141:1148  baseURI */\n      0x08\n        /* \"telefonica/dynamicCentenario.sol\":1134:1148  return baseURI */\n      dup1\n      sload\n      tag_248\n      swap1\n      tag_102\n      jump\t// in\n    tag_248:\n      dup1\n      0x1f\n      add\n      0x20\n      dup1\n      swap2\n      div\n      mul\n      0x20\n      add\n      mload(0x40)\n      swap1\n      dup2\n      add\n      0x40\n      mstore\n      dup1\n      swap3\n      swap2\n      swap1\n      dup2\n      dup2\n      mstore\n      0x20\n      add\n      dup3\n      dup1\n      sload\n      tag_249\n      swap1\n      tag_102\n      jump\t// in\n    tag_249:\n      dup1\n      iszero\n      tag_250\n      jumpi\n      dup1\n      0x1f\n      lt\n      tag_251\n      jumpi\n      0x0100\n      dup1\n      dup4\n      sload\n      div\n      mul\n      dup4\n      mstore\n      swap2\n      0x20\n      add\n      swap2\n      jump(tag_250)\n    tag_251:\n      dup3\n      add\n      swap2\n      swap1\n      0x00\n      mstore\n      keccak256(0x00, 0x20)\n      swap1\n    tag_252:\n      dup2\n      sload\n      dup2\n      mstore\n      swap1\n      0x01\n      add\n      swap1\n      0x20\n      add\n      dup1\n      dup4\n      gt\n      tag_252\n      jumpi\n      dup3\n      swap1\n      sub\n      0x1f\n      and\n      dup3\n      add\n      swap2\n    tag_250:\n      pop\n      pop\n      pop\n      pop\n      pop\n      swap1\n      pop\n        /* \"telefonica/dynamicCentenario.sol\":1048:1156  function _baseURI() internal view virtual override returns (string memory) {... */\n      swap1\n      jump\t// out\n        /* \"@openzeppelin/contracts/token/ERC721/ERC721.sol\":5707:5822  function _ownerOf(uint256 tokenId) internal view virtual returns (address) {... */\n    tag_195:\n        /* \"@openzeppelin/contracts/token/ERC721/ERC721.sol\":5773:5780  address */\n      0x00\n        /* \"@openzeppelin/contracts/token/ERC721/ERC721.sol\":5799:5806  _owners */\n      0x02\n        /* \"@openzeppelin/contracts/token/ERC721/ERC721.sol\":5799:5815  _owners[tokenId] */\n      0x00\n        /* \"@openzeppelin/contracts/token/ERC721/ERC721.sol\":5807:5814  tokenId */\n      dup4\n        /* \"@openzeppelin/contracts/token/ERC721/ERC721.sol\":5799:5815  _owners[tokenId] */\n      dup2\n      mstore\n      0x20\n      add\n      swap1\n      dup2\n      mstore\n      0x20\n      add\n      0x00\n      keccak256\n      0x00\n      swap1\n      sload\n      swap1\n      0x0100\n      exp\n      swap1\n      div\n      0xffffffffffffffffffffffffffffffffffffffff\n      and\n        /* \"@openzeppelin/contracts/token/ERC721/ERC721.sol\":5792:5815  return _owners[tokenId] */\n      swap1\n      pop\n        /* \"@openzeppelin/contracts/token/ERC721/ERC721.sol\":5707:5822  function _ownerOf(uint256 tokenId) internal view virtual returns (address) {... */\n      swap2\n      swap1\n      pop\n      jump\t// out\n        /* \"@openzeppelin/contracts/token/ERC721/ERC721.sol\":14720:15382  function _approve(address to, uint256 tokenId, address auth, bool emitEvent) internal virtual {... */\n    tag_202:\n        /* \"@openzeppelin/contracts/token/ERC721/ERC721.sol\":14880:14889  emitEvent */\n      dup1\n        /* \"@openzeppelin/contracts/token/ERC721/ERC721.sol\":14880:14911  emitEvent || auth != address(0) */\n      dup1\n      tag_255\n      jumpi\n      pop\n        /* \"@openzeppelin/contracts/token/ERC721/ERC721.sol\":14909:14910  0 */\n      0x00\n        /* \"@openzeppelin/contracts/token/ERC721/ERC721.sol\":14893:14911  auth != address(0) */\n      0xffffffffffffffffffffffffffffffffffffffff\n      and\n        /* \"@openzeppelin/contracts/token/ERC721/ERC721.sol\":14893:14897  auth */\n      dup3\n        /* \"@openzeppelin/contracts/token/ERC721/ERC721.sol\":14893:14911  auth != address(0) */\n      0xffffffffffffffffffffffffffffffffffffffff\n      and\n      eq\n      iszero\n        /* \"@openzeppelin/contracts/token/ERC721/ERC721.sol\":14880:14911  emitEvent || auth != address(0) */\n    tag_255:\n        /* \"@openzeppelin/contracts/token/ERC721/ERC721.sol\":14876:15336  if (emitEvent || auth != address(0)) {... */\n      iszero\n      tag_256\n      jumpi\n        /* \"@openzeppelin/contracts/token/ERC721/ERC721.sol\":14927:14940  address owner */\n      0x00\n        /* \"@openzeppelin/contracts/token/ERC721/ERC721.sol\":14943:14965  _requireOwned(tokenId) */\n      tag_257\n        /* \"@openzeppelin/contracts/token/ERC721/ERC721.sol\":14957:14964  tokenId */\n      dup5\n        /* \"@openzeppelin/contracts/token/ERC721/ERC721.sol\":14943:14956  _requireOwned */\n      tag_109\n        /* \"@openzeppelin/contracts/token/ERC721/ERC721.sol\":14943:14965  _requireOwned(tokenId) */\n      jump\t// in\n    tag_257:\n        /* \"@openzeppelin/contracts/token/ERC721/ERC721.sol\":14927:14965  address owner = _requireOwned(tokenId) */\n      swap1\n      pop\n        /* \"@openzeppelin/contracts/token/ERC721/ERC721.sol\":15109:15110  0 */\n      0x00\n        /* \"@openzeppelin/contracts/token/ERC721/ERC721.sol\":15093:15111  auth != address(0) */\n      0xffffffffffffffffffffffffffffffffffffffff\n      and\n        /* \"@openzeppelin/contracts/token/ERC721/ERC721.sol\":15093:15097  auth */\n      dup4\n        /* \"@openzeppelin/contracts/token/ERC721/ERC721.sol\":15093:15111  auth != address(0) */\n      0xffffffffffffffffffffffffffffffffffffffff\n      and\n      eq\n      iszero\n        /* \"@openzeppelin/contracts/token/ERC721/ERC721.sol\":15093:15128  auth != address(0) && owner != auth */\n      dup1\n      iszero\n      tag_258\n      jumpi\n      pop\n        /* \"@openzeppelin/contracts/token/ERC721/ERC721.sol\":15124:15128  auth */\n      dup3\n        /* \"@openzeppelin/contracts/token/ERC721/ERC721.sol\":15115:15128  owner != auth */\n      0xffffffffffffffffffffffffffffffffffffffff\n      and\n        /* \"@openzeppelin/contracts/token/ERC721/ERC721.sol\":15115:15120  owner */\n      dup2\n        /* \"@openzeppelin/contracts/token/ERC721/ERC721.sol\":15115:15128  owner != auth */\n      0xffffffffffffffffffffffffffffffffffffffff\n      and\n      eq\n      iszero\n        /* \"@openzeppelin/contracts/token/ERC721/ERC721.sol\":15093:15128  auth != address(0) && owner != auth */\n    tag_258:\n        /* \"@openzeppelin/contracts/token/ERC721/ERC721.sol\":15093:15162  auth != address(0) && owner != auth && !isApprovedForAll(owner, auth) */\n      dup1\n      iszero\n      tag_259\n      jumpi\n      pop\n        /* \"@openzeppelin/contracts/token/ERC721/ERC721.sol\":15133:15162  isApprovedForAll(owner, auth) */\n      tag_260\n        /* \"@openzeppelin/contracts/token/ERC721/ERC721.sol\":15150:15155  owner */\n      dup2\n        /* \"@openzeppelin/contracts/token/ERC721/ERC721.sol\":15157:15161  auth */\n      dup5\n        /* \"@openzeppelin/contracts/token/ERC721/ERC721.sol\":15133:15149  isApprovedForAll */\n      tag_90\n        /* \"@openzeppelin/contracts/token/ERC721/ERC721.sol\":15133:15162  isApprovedForAll(owner, auth) */\n      jump\t// in\n    tag_260:\n        /* \"@openzeppelin/contracts/token/ERC721/ERC721.sol\":15132:15162  !isApprovedForAll(owner, auth) */\n      iszero\n        /* \"@openzeppelin/contracts/token/ERC721/ERC721.sol\":15093:15162  auth != address(0) && owner != auth && !isApprovedForAll(owner, auth) */\n    tag_259:\n        /* \"@openzeppelin/contracts/token/ERC721/ERC721.sol\":15089:15231  if (auth != address(0) && owner != auth && !isApprovedForAll(owner, auth)) {... */\n      iszero\n      tag_261\n      jumpi\n        /* \"@openzeppelin/contracts/token/ERC721/ERC721.sol\":15211:15215  auth */\n      dup3\n        /* \"@openzeppelin/contracts/token/ERC721/ERC721.sol\":15189:15216  ERC721InvalidApprover(auth) */\n      mload(0x40)\n      0xa9fbf51f00000000000000000000000000000000000000000000000000000000\n      dup2\n      mstore\n      0x04\n      add\n      tag_262\n      swap2\n      swap1\n      tag_39\n      jump\t// in\n    tag_262:\n      mload(0x40)\n      dup1\n      swap2\n      sub\n      swap1\n      revert\n        /* \"@openzeppelin/contracts/token/ERC721/ERC721.sol\":15089:15231  if (auth != address(0) && owner != auth && !isApprovedForAll(owner, auth)) {... */\n    tag_261:\n        /* \"@openzeppelin/contracts/token/ERC721/ERC721.sol\":15249:15258  emitEvent */\n      dup2\n        /* \"@openzeppelin/contracts/token/ERC721/ERC721.sol\":15245:15326  if (emitEvent) {... */\n      iszero\n      tag_263\n      jumpi\n        /* \"@openzeppelin/contracts/token/ERC721/ERC721.sol\":15303:15310  tokenId */\n      dup4\n        /* \"@openzeppelin/contracts/token/ERC721/ERC721.sol\":15299:15301  to */\n      dup6\n        /* \"@openzeppelin/contracts/token/ERC721/ERC721.sol\":15283:15311  Approval(owner, to, tokenId) */\n      0xffffffffffffffffffffffffffffffffffffffff\n      and\n        /* \"@openzeppelin/contracts/token/ERC721/ERC721.sol\":15292:15297  owner */\n      dup3\n        /* \"@openzeppelin/contracts/token/ERC721/ERC721.sol\":15283:15311  Approval(owner, to, tokenId) */\n      0xffffffffffffffffffffffffffffffffffffffff\n      and\n      0x8c5be1e5ebec7d5bd14f71427d1e84f3dd0314c0f7b2291e5b200ac8c7c3b925\n      mload(0x40)\n      mload(0x40)\n      dup1\n      swap2\n      sub\n      swap1\n      log4\n        /* \"@openzeppelin/contracts/token/ERC721/ERC721.sol\":15245:15326  if (emitEvent) {... */\n    tag_263:\n        /* \"@openzeppelin/contracts/token/ERC721/ERC721.sol\":14913:15336  {... */\n      pop\n        /* \"@openzeppelin/contracts/token/ERC721/ERC721.sol\":14876:15336  if (emitEvent || auth != address(0)) {... */\n    tag_256:\n        /* \"@openzeppelin/contracts/token/ERC721/ERC721.sol\":15373:15375  to */\n      dup4\n        /* \"@openzeppelin/contracts/token/ERC721/ERC721.sol\":15346:15361  _tokenApprovals */\n      0x04\n        /* \"@openzeppelin/contracts/token/ERC721/ERC721.sol\":15346:15370  _tokenApprovals[tokenId] */\n      0x00\n        /* \"@openzeppelin/contracts/token/ERC721/ERC721.sol\":15362:15369  tokenId */\n      dup6\n        /* \"@openzeppelin/contracts/token/ERC721/ERC721.sol\":15346:15370  _tokenApprovals[tokenId] */\n      dup2\n      mstore\n      0x20\n      add\n      swap1\n      dup2\n      mstore\n      0x20\n      add\n      0x00\n      keccak256\n      0x00\n        /* \"@openzeppelin/contracts/token/ERC721/ERC721.sol\":15346:15375  _tokenApprovals[tokenId] = to */\n      0x0100\n      exp\n      dup2\n      sload\n      dup2\n      0xffffffffffffffffffffffffffffffffffffffff\n      mul\n      not\n      and\n      swap1\n      dup4\n      0xffffffffffffffffffffffffffffffffffffffff\n      and\n      mul\n      or\n      swap1\n      sstore\n      pop\n        /* \"@openzeppelin/contracts/token/ERC721/ERC721.sol\":14720:15382  function _approve(address to, uint256 tokenId, address auth, bool emitEvent) internal virtual {... */\n      pop\n      pop\n      pop\n      pop\n      jump\t// out\n        /* \"@openzeppelin/contracts/token/ERC721/ERC721.sol\":7082:7450  function _checkAuthorized(address owner, address spender, uint256 tokenId) internal view virtual {... */\n    tag_207:\n        /* \"@openzeppelin/contracts/token/ERC721/ERC721.sol\":7194:7232  _isAuthorized(owner, spender, tokenId) */\n      tag_265\n        /* \"@openzeppelin/contracts/token/ERC721/ERC721.sol\":7208:7213  owner */\n      dup4\n        /* \"@openzeppelin/contracts/token/ERC721/ERC721.sol\":7215:7222  spender */\n      dup4\n        /* \"@openzeppelin/contracts/token/ERC721/ERC721.sol\":7224:7231  tokenId */\n      dup4\n        /* \"@openzeppelin/contracts/token/ERC721/ERC721.sol\":7194:7207  _isAuthorized */\n      tag_266\n        /* \"@openzeppelin/contracts/token/ERC721/ERC721.sol\":7194:7232  _isAuthorized(owner, spender, tokenId) */\n      jump\t// in\n    tag_265:\n        /* \"@openzeppelin/contracts/token/ERC721/ERC721.sol\":7189:7444  if (!_isAuthorized(owner, spender, tokenId)) {... */\n      tag_267\n      jumpi\n        /* \"@openzeppelin/contracts/token/ERC721/ERC721.sol\":7269:7270  0 */\n      0x00\n        /* \"@openzeppelin/contracts/token/ERC721/ERC721.sol\":7252:7271  owner == address(0) */\n      0xffffffffffffffffffffffffffffffffffffffff\n      and\n        /* \"@openzeppelin/contracts/token/ERC721/ERC721.sol\":7252:7257  owner */\n      dup4\n        /* \"@openzeppelin/contracts/token/ERC721/ERC721.sol\":7252:7271  owner == address(0) */\n      0xffffffffffffffffffffffffffffffffffffffff\n      and\n      sub\n        /* \"@openzeppelin/contracts/token/ERC721/ERC721.sol\":7248:7434  if (owner == address(0)) {... */\n      tag_268\n      jumpi\n        /* \"@openzeppelin/contracts/token/ERC721/ERC721.sol\":7321:7328  tokenId */\n      dup1\n        /* \"@openzeppelin/contracts/token/ERC721/ERC721.sol\":7298:7329  ERC721NonexistentToken(tokenId) */\n      mload(0x40)\n      0x7e27328900000000000000000000000000000000000000000000000000000000\n      dup2\n      mstore\n      0x04\n      add\n      tag_269\n      swap2\n      swap1\n      tag_63\n      jump\t// in\n    tag_269:\n      mload(0x40)\n      dup1\n      swap2\n      sub\n      swap1\n      revert\n        /* \"@openzeppelin/contracts/token/ERC721/ERC721.sol\":7248:7434  if (owner == address(0)) {... */\n    tag_268:\n        /* \"@openzeppelin/contracts/token/ERC721/ERC721.sol\":7402:7409  spender */\n      dup2\n        /* \"@openzeppelin/contracts/token/ERC721/ERC721.sol\":7411:7418  tokenId */\n      dup2\n        /* \"@openzeppelin/contracts/token/ERC721/ERC721.sol\":7375:7419  ERC721InsufficientApproval(spender, tokenId) */\n      mload(0x40)\n      0x177e802f00000000000000000000000000000000000000000000000000000000\n      dup2\n      mstore\n      0x04\n      add\n      tag_271\n      swap3\n      swap2\n      swap1\n      tag_272\n      jump\t// in\n    tag_271:\n      mload(0x40)\n      dup1\n      swap2\n      sub\n      swap1\n      revert\n        /* \"@openzeppelin/contracts/token/ERC721/ERC721.sol\":7189:7444  if (!_isAuthorized(owner, spender, tokenId)) {... */\n    tag_267:\n        /* \"@openzeppelin/contracts/token/ERC721/ERC721.sol\":7082:7450  function _checkAuthorized(address owner, address spender, uint256 tokenId) internal view virtual {... */\n      pop\n      pop\n      pop\n      jump\t// out\n        /* \"@openzeppelin/contracts/token/ERC721/ERC721.sol\":10954:11136  function _safeMint(address to, uint256 tokenId, bytes memory data) internal virtual {... */\n    tag_221:\n        /* \"@openzeppelin/contracts/token/ERC721/ERC721.sol\":11048:11066  _mint(to, tokenId) */\n      tag_274\n        /* \"@openzeppelin/contracts/token/ERC721/ERC721.sol\":11054:11056  to */\n      dup4\n        /* \"@openzeppelin/contracts/token/ERC721/ERC721.sol\":11058:11065  tokenId */\n      dup4\n        /* \"@openzeppelin/contracts/token/ERC721/ERC721.sol\":11048:11053  _mint */\n      tag_275\n        /* \"@openzeppelin/contracts/token/ERC721/ERC721.sol\":11048:11066  _mint(to, tokenId) */\n      jump\t// in\n    tag_274:\n        /* \"@openzeppelin/contracts/token/ERC721/ERC721.sol\":11076:11129  _checkOnERC721Received(address(0), to, tokenId, data) */\n      tag_276\n        /* \"@openzeppelin/contracts/token/ERC721/ERC721.sol\":11107:11108  0 */\n      0x00\n        /* \"@openzeppelin/contracts/token/ERC721/ERC721.sol\":11111:11113  to */\n      dup5\n        /* \"@openzeppelin/contracts/token/ERC721/ERC721.sol\":11115:11122  tokenId */\n      dup5\n        /* \"@openzeppelin/contracts/token/ERC721/ERC721.sol\":11124:11128  data */\n      dup5\n        /* \"@openzeppelin/contracts/token/ERC721/ERC721.sol\":11076:11098  _checkOnERC721Received */\n      tag_162\n        /* \"@openzeppelin/contracts/token/ERC721/ERC721.sol\":11076:11129  _checkOnERC721Received(address(0), to, tokenId, data) */\n      jump\t// in\n    tag_276:\n        /* \"@openzeppelin/contracts/token/ERC721/ERC721.sol\":10954:11136  function _safeMint(address to, uint256 tokenId, bytes memory data) internal virtual {... */\n      pop\n      pop\n      pop\n      jump\t// out\n        /* \"@openzeppelin/contracts/token/ERC721/ERC721.sol\":6376:6648  function _isAuthorized(address owner, address spender, uint256 tokenId) internal view virtual returns (bool) {... */\n    tag_266:\n        /* \"@openzeppelin/contracts/token/ERC721/ERC721.sol\":6479:6483  bool */\n      0x00\n        /* \"@openzeppelin/contracts/token/ERC721/ERC721.sol\":6533:6534  0 */\n      dup1\n        /* \"@openzeppelin/contracts/token/ERC721/ERC721.sol\":6514:6535  spender != address(0) */\n      0xffffffffffffffffffffffffffffffffffffffff\n      and\n        /* \"@openzeppelin/contracts/token/ERC721/ERC721.sol\":6514:6521  spender */\n      dup4\n        /* \"@openzeppelin/contracts/token/ERC721/ERC721.sol\":6514:6535  spender != address(0) */\n      0xffffffffffffffffffffffffffffffffffffffff\n      and\n      eq\n      iszero\n        /* \"@openzeppelin/contracts/token/ERC721/ERC721.sol\":6514:6641  spender != address(0) &&... */\n      dup1\n      iszero\n      tag_278\n      jumpi\n      pop\n        /* \"@openzeppelin/contracts/token/ERC721/ERC721.sol\":6561:6568  spender */\n      dup3\n        /* \"@openzeppelin/contracts/token/ERC721/ERC721.sol\":6552:6568  owner == spender */\n      0xffffffffffffffffffffffffffffffffffffffff\n      and\n        /* \"@openzeppelin/contracts/token/ERC721/ERC721.sol\":6552:6557  owner */\n      dup5\n        /* \"@openzeppelin/contracts/token/ERC721/ERC721.sol\":6552:6568  owner == spender */\n      0xffffffffffffffffffffffffffffffffffffffff\n      and\n      eq\n        /* \"@openzeppelin/contracts/token/ERC721/ERC721.sol\":6552:6604  owner == spender || isApprovedForAll(owner, spender) */\n      dup1\n      tag_279\n      jumpi\n      pop\n        /* \"@openzeppelin/contracts/token/ERC721/ERC721.sol\":6572:6604  isApprovedForAll(owner, spender) */\n      tag_280\n        /* \"@openzeppelin/contracts/token/ERC721/ERC721.sol\":6589:6594  owner */\n      dup5\n        /* \"@openzeppelin/contracts/token/ERC721/ERC721.sol\":6596:6603  spender */\n      dup5\n        /* \"@openzeppelin/contracts/token/ERC721/ERC721.sol\":6572:6588  isApprovedForAll */\n      tag_90\n        /* \"@openzeppelin/contracts/token/ERC721/ERC721.sol\":6572:6604  isApprovedForAll(owner, spender) */\n      jump\t// in\n    tag_280:\n        /* \"@openzeppelin/contracts/token/ERC721/ERC721.sol\":6552:6604  owner == spender || isApprovedForAll(owner, spender) */\n    tag_279:\n        /* \"@openzeppelin/contracts/token/ERC721/ERC721.sol\":6552:6640  owner == spender || isApprovedForAll(owner, spender) || _getApproved(tokenId) == spender */\n      dup1\n      tag_281\n      jumpi\n      pop\n        /* \"@openzeppelin/contracts/token/ERC721/ERC721.sol\":6633:6640  spender */\n      dup3\n        /* \"@openzeppelin/contracts/token/ERC721/ERC721.sol\":6608:6640  _getApproved(tokenId) == spender */\n      0xffffffffffffffffffffffffffffffffffffffff\n      and\n        /* \"@openzeppelin/contracts/token/ERC721/ERC721.sol\":6608:6629  _getApproved(tokenId) */\n      tag_282\n        /* \"@openzeppelin/contracts/token/ERC721/ERC721.sol\":6621:6628  tokenId */\n      dup4\n        /* \"@openzeppelin/contracts/token/ERC721/ERC721.sol\":6608:6620  _getApproved */\n      tag_111\n        /* \"@openzeppelin/contracts/token/ERC721/ERC721.sol\":6608:6629  _getApproved(tokenId) */\n      jump\t// in\n    tag_282:\n        /* \"@openzeppelin/contracts/token/ERC721/ERC721.sol\":6608:6640  _getApproved(tokenId) == spender */\n      0xffffffffffffffffffffffffffffffffffffffff\n      and\n      eq\n        /* \"@openzeppelin/contracts/token/ERC721/ERC721.sol\":6552:6640  owner == spender || isApprovedForAll(owner, spender) || _getApproved(tokenId) == spender */\n    tag_281:\n        /* \"@openzeppelin/contracts/token/ERC721/ERC721.sol\":6514:6641  spender != address(0) &&... */\n    tag_278:\n        /* \"@openzeppelin/contracts/token/ERC721/ERC721.sol\":6495:6641  return... */\n      swap1\n      pop\n        /* \"@openzeppelin/contracts/token/ERC721/ERC721.sol\":6376:6648  function _isAuthorized(address owner, address spender, uint256 tokenId) internal view virtual returns (bool) {... */\n      swap4\n      swap3\n      pop\n      pop\n      pop\n      jump\t// out\n        /* \"@openzeppelin/contracts/token/ERC721/ERC721.sol\":9955:10282  function _mint(address to, uint256 tokenId) internal {... */\n    tag_275:\n        /* \"@openzeppelin/contracts/token/ERC721/ERC721.sol\":10036:10037  0 */\n      0x00\n        /* \"@openzeppelin/contracts/token/ERC721/ERC721.sol\":10022:10038  to == address(0) */\n      0xffffffffffffffffffffffffffffffffffffffff\n      and\n        /* \"@openzeppelin/contracts/token/ERC721/ERC721.sol\":10022:10024  to */\n      dup3\n        /* \"@openzeppelin/contracts/token/ERC721/ERC721.sol\":10022:10038  to == address(0) */\n      0xffffffffffffffffffffffffffffffffffffffff\n      and\n      sub\n        /* \"@openzeppelin/contracts/token/ERC721/ERC721.sol\":10018:10105  if (to == address(0)) {... */\n      tag_284\n      jumpi\n        /* \"@openzeppelin/contracts/token/ERC721/ERC721.sol\":10091:10092  0 */\n      0x00\n        /* \"@openzeppelin/contracts/token/ERC721/ERC721.sol\":10061:10094  ERC721InvalidReceiver(address(0)) */\n      mload(0x40)\n      0x64a0ae9200000000000000000000000000000000000000000000000000000000\n      dup2\n      mstore\n      0x04\n      add\n      tag_285\n      swap2\n      swap1\n      tag_39\n      jump\t// in\n    tag_285:\n      mload(0x40)\n      dup1\n      swap2\n      sub\n      swap1\n      revert\n        /* \"@openzeppelin/contracts/token/ERC721/ERC721.sol\":10018:10105  if (to == address(0)) {... */\n    tag_284:\n        /* \"@openzeppelin/contracts/token/ERC721/ERC721.sol\":10114:10135  address previousOwner */\n      0x00\n        /* \"@openzeppelin/contracts/token/ERC721/ERC721.sol\":10138:10170  _update(to, tokenId, address(0)) */\n      tag_286\n        /* \"@openzeppelin/contracts/token/ERC721/ERC721.sol\":10146:10148  to */\n      dup4\n        /* \"@openzeppelin/contracts/token/ERC721/ERC721.sol\":10150:10157  tokenId */\n      dup4\n        /* \"@openzeppelin/contracts/token/ERC721/ERC721.sol\":10167:10168  0 */\n      0x00\n        /* \"@openzeppelin/contracts/token/ERC721/ERC721.sol\":10138:10145  _update */\n      tag_122\n        /* \"@openzeppelin/contracts/token/ERC721/ERC721.sol\":10138:10170  _update(to, tokenId, address(0)) */\n      jump\t// in\n    tag_286:\n        /* \"@openzeppelin/contracts/token/ERC721/ERC721.sol\":10114:10170  address previousOwner = _update(to, tokenId, address(0)) */\n      swap1\n      pop\n        /* \"@openzeppelin/contracts/token/ERC721/ERC721.sol\":10209:10210  0 */\n      0x00\n        /* \"@openzeppelin/contracts/token/ERC721/ERC721.sol\":10184:10211  previousOwner != address(0) */\n      0xffffffffffffffffffffffffffffffffffffffff\n      and\n        /* \"@openzeppelin/contracts/token/ERC721/ERC721.sol\":10184:10197  previousOwner */\n      dup2\n        /* \"@openzeppelin/contracts/token/ERC721/ERC721.sol\":10184:10211  previousOwner != address(0) */\n      0xffffffffffffffffffffffffffffffffffffffff\n      and\n      eq\n        /* \"@openzeppelin/contracts/token/ERC721/ERC721.sol\":10180:10276  if (previousOwner != address(0)) {... */\n      tag_287\n      jumpi\n        /* \"@openzeppelin/contracts/token/ERC721/ERC721.sol\":10262:10263  0 */\n      0x00\n        /* \"@openzeppelin/contracts/token/ERC721/ERC721.sol\":10234:10265  ERC721InvalidSender(address(0)) */\n      mload(0x40)\n      0x73c6ac6e00000000000000000000000000000000000000000000000000000000\n      dup2\n      mstore\n      0x04\n      add\n      tag_288\n      swap2\n      swap1\n      tag_39\n      jump\t// in\n    tag_288:\n      mload(0x40)\n      dup1\n      swap2\n      sub\n      swap1\n      revert\n        /* \"@openzeppelin/contracts/token/ERC721/ERC721.sol\":10180:10276  if (previousOwner != address(0)) {... */\n    tag_287:\n        /* \"@openzeppelin/contracts/token/ERC721/ERC721.sol\":10008:10282  {... */\n      pop\n        /* \"@openzeppelin/contracts/token/ERC721/ERC721.sol\":9955:10282  function _mint(address to, uint256 tokenId) internal {... */\n      pop\n      pop\n      jump\t// out\n        /* \"#utility.yul\":7:82   */\n    tag_289:\n        /* \"#utility.yul\":40:46   */\n      0x00\n        /* \"#utility.yul\":73:75   */\n      0x40\n        /* \"#utility.yul\":67:76   */\n      mload\n        /* \"#utility.yul\":57:76   */\n      swap1\n      pop\n        /* \"#utility.yul\":7:82   */\n      swap1\n      jump\t// out\n        /* \"#utility.yul\":88:205   */\n    tag_290:\n        /* \"#utility.yul\":197:198   */\n      0x00\n        /* \"#utility.yul\":194:195   */\n      dup1\n        /* \"#utility.yul\":187:199   */\n      revert\n        /* \"#utility.yul\":211:328   */\n    tag_291:\n        /* \"#utility.yul\":320:321   */\n      0x00\n        /* \"#utility.yul\":317:318   */\n      dup1\n        /* \"#utility.yul\":310:322   */\n      revert\n        /* \"#utility.yul\":334:483   */\n    tag_292:\n        /* \"#utility.yul\":370:377   */\n      0x00\n        /* \"#utility.yul\":410:476   */\n      0xffffffff00000000000000000000000000000000000000000000000000000000\n        /* \"#utility.yul\":403:408   */\n      dup3\n        /* \"#utility.yul\":399:477   */\n      and\n        /* \"#utility.yul\":388:477   */\n      swap1\n      pop\n        /* \"#utility.yul\":334:483   */\n      swap2\n      swap1\n      pop\n      jump\t// out\n        /* \"#utility.yul\":489:609   */\n    tag_293:\n        /* \"#utility.yul\":561:584   */\n      tag_348\n        /* \"#utility.yul\":578:583   */\n      dup2\n        /* \"#utility.yul\":561:584   */\n      tag_292\n      jump\t// in\n    tag_348:\n        /* \"#utility.yul\":554:559   */\n      dup2\n        /* \"#utility.yul\":551:585   */\n      eq\n        /* \"#utility.yul\":541:603   */\n      tag_349\n      jumpi\n        /* \"#utility.yul\":599:600   */\n      0x00\n        /* \"#utility.yul\":596:597   */\n      dup1\n        /* \"#utility.yul\":589:601   */\n      revert\n        /* \"#utility.yul\":541:603   */\n    tag_349:\n        /* \"#utility.yul\":489:609   */\n      pop\n      jump\t// out\n        /* \"#utility.yul\":615:752   */\n    tag_294:\n        /* \"#utility.yul\":660:665   */\n      0x00\n        /* \"#utility.yul\":698:704   */\n      dup2\n        /* \"#utility.yul\":685:705   */\n      calldataload\n        /* \"#utility.yul\":676:705   */\n      swap1\n      pop\n        /* \"#utility.yul\":714:746   */\n      tag_351\n        /* \"#utility.yul\":740:745   */\n      dup2\n        /* \"#utility.yul\":714:746   */\n      tag_293\n      jump\t// in\n    tag_351:\n        /* \"#utility.yul\":615:752   */\n      swap3\n      swap2\n      pop\n      pop\n      jump\t// out\n        /* \"#utility.yul\":758:1085   */\n    tag_26:\n        /* \"#utility.yul\":816:822   */\n      0x00\n        /* \"#utility.yul\":865:867   */\n      0x20\n        /* \"#utility.yul\":853:862   */\n      dup3\n        /* \"#utility.yul\":844:851   */\n      dup5\n        /* \"#utility.yul\":840:863   */\n      sub\n        /* \"#utility.yul\":836:868   */\n      slt\n        /* \"#utility.yul\":833:952   */\n      iszero\n      tag_353\n      jumpi\n        /* \"#utility.yul\":871:950   */\n      tag_354\n      tag_290\n      jump\t// in\n    tag_354:\n        /* \"#utility.yul\":833:952   */\n    tag_353:\n        /* \"#utility.yul\":991:992   */\n      0x00\n        /* \"#utility.yul\":1016:1068   */\n      tag_355\n        /* \"#utility.yul\":1060:1067   */\n      dup5\n        /* \"#utility.yul\":1051:1057   */\n      dup3\n        /* \"#utility.yul\":1040:1049   */\n      dup6\n        /* \"#utility.yul\":1036:1058   */\n      add\n        /* \"#utility.yul\":1016:1068   */\n      tag_294\n      jump\t// in\n    tag_355:\n        /* \"#utility.yul\":1006:1068   */\n      swap2\n      pop\n        /* \"#utility.yul\":962:1078   */\n      pop\n        /* \"#utility.yul\":758:1085   */\n      swap3\n      swap2\n      pop\n      pop\n      jump\t// out\n        /* \"#utility.yul\":1091:1181   */\n    tag_295:\n        /* \"#utility.yul\":1125:1132   */\n      0x00\n        /* \"#utility.yul\":1168:1173   */\n      dup2\n        /* \"#utility.yul\":1161:1174   */\n      iszero\n        /* \"#utility.yul\":1154:1175   */\n      iszero\n        /* \"#utility.yul\":1143:1175   */\n      swap1\n      pop\n        /* \"#utility.yul\":1091:1181   */\n      swap2\n      swap1\n      pop\n      jump\t// out\n        /* \"#utility.yul\":1187:1296   */\n    tag_296:\n        /* \"#utility.yul\":1268:1289   */\n      tag_358\n        /* \"#utility.yul\":1283:1288   */\n      dup2\n        /* \"#utility.yul\":1268:1289   */\n      tag_295\n      jump\t// in\n    tag_358:\n        /* \"#utility.yul\":1263:1266   */\n      dup3\n        /* \"#utility.yul\":1256:1290   */\n      mstore\n        /* \"#utility.yul\":1187:1296   */\n      pop\n      pop\n      jump\t// out\n        /* \"#utility.yul\":1302:1512   */\n    tag_29:\n        /* \"#utility.yul\":1389:1393   */\n      0x00\n        /* \"#utility.yul\":1427:1429   */\n      0x20\n        /* \"#utility.yul\":1416:1425   */\n      dup3\n        /* \"#utility.yul\":1412:1430   */\n      add\n        /* \"#utility.yul\":1404:1430   */\n      swap1\n      pop\n        /* \"#utility.yul\":1440:1505   */\n      tag_360\n        /* \"#utility.yul\":1502:1503   */\n      0x00\n        /* \"#utility.yul\":1491:1500   */\n      dup4\n        /* \"#utility.yul\":1487:1504   */\n      add\n        /* \"#utility.yul\":1478:1484   */\n      dup5\n        /* \"#utility.yul\":1440:1505   */\n      tag_296\n      jump\t// in\n    tag_360:\n        /* \"#utility.yul\":1302:1512   */\n      swap3\n      swap2\n      pop\n      pop\n      jump\t// out\n        /* \"#utility.yul\":1518:1617   */\n    tag_297:\n        /* \"#utility.yul\":1570:1576   */\n      0x00\n        /* \"#utility.yul\":1604:1609   */\n      dup2\n        /* \"#utility.yul\":1598:1610   */\n      mload\n        /* \"#utility.yul\":1588:1610   */\n      swap1\n      pop\n        /* \"#utility.yul\":1518:1617   */\n      swap2\n      swap1\n      pop\n      jump\t// out\n        /* \"#utility.yul\":1623:1792   */\n    tag_298:\n        /* \"#utility.yul\":1707:1718   */\n      0x00\n        /* \"#utility.yul\":1741:1747   */\n      dup3\n        /* \"#utility.yul\":1736:1739   */\n      dup3\n        /* \"#utility.yul\":1729:1748   */\n      mstore\n        /* \"#utility.yul\":1781:1785   */\n      0x20\n        /* \"#utility.yul\":1776:1779   */\n      dup3\n        /* \"#utility.yul\":1772:1786   */\n      add\n        /* \"#utility.yul\":1757:1786   */\n      swap1\n      pop\n        /* \"#utility.yul\":1623:1792   */\n      swap3\n      swap2\n      pop\n      pop\n      jump\t// out\n        /* \"#utility.yul\":1798:2044   */\n    tag_299:\n        /* \"#utility.yul\":1879:1880   */\n      0x00\n        /* \"#utility.yul\":1889:2002   */\n    tag_364:\n        /* \"#utility.yul\":1903:1909   */\n      dup4\n        /* \"#utility.yul\":1900:1901   */\n      dup2\n        /* \"#utility.yul\":1897:1910   */\n      lt\n        /* \"#utility.yul\":1889:2002   */\n      iszero\n      tag_366\n      jumpi\n        /* \"#utility.yul\":1988:1989   */\n      dup1\n        /* \"#utility.yul\":1983:1986   */\n      dup3\n        /* \"#utility.yul\":1979:1990   */\n      add\n        /* \"#utility.yul\":1973:1991   */\n      mload\n        /* \"#utility.yul\":1969:1970   */\n      dup2\n        /* \"#utility.yul\":1964:1967   */\n      dup5\n        /* \"#utility.yul\":1960:1971   */\n      add\n        /* \"#utility.yul\":1953:1992   */\n      mstore\n        /* \"#utility.yul\":1925:1927   */\n      0x20\n        /* \"#utility.yul\":1922:1923   */\n      dup2\n        /* \"#utility.yul\":1918:1928   */\n      add\n        /* \"#utility.yul\":1913:1928   */\n      swap1\n      pop\n        /* \"#utility.yul\":1889:2002   */\n      jump(tag_364)\n    tag_366:\n        /* \"#utility.yul\":2036:2037   */\n      0x00\n        /* \"#utility.yul\":2027:2033   */\n      dup5\n        /* \"#utility.yul\":2022:2025   */\n      dup5\n        /* \"#utility.yul\":2018:2034   */\n      add\n        /* \"#utility.yul\":2011:2038   */\n      mstore\n        /* \"#utility.yul\":1860:2044   */\n      pop\n        /* \"#utility.yul\":1798:2044   */\n      pop\n      pop\n      pop\n      jump\t// out\n        /* \"#utility.yul\":2050:2152   */\n    tag_300:\n        /* \"#utility.yul\":2091:2097   */\n      0x00\n        /* \"#utility.yul\":2142:2144   */\n      0x1f\n        /* \"#utility.yul\":2138:2145   */\n      not\n        /* \"#utility.yul\":2133:2135   */\n      0x1f\n        /* \"#utility.yul\":2126:2131   */\n      dup4\n        /* \"#utility.yul\":2122:2136   */\n      add\n        /* \"#utility.yul\":2118:2146   */\n      and\n        /* \"#utility.yul\":2108:2146   */\n      swap1\n      pop\n        /* \"#utility.yul\":2050:2152   */\n      swap2\n      swap1\n      pop\n      jump\t// out\n        /* \"#utility.yul\":2158:2535   */\n    tag_301:\n        /* \"#utility.yul\":2246:2249   */\n      0x00\n        /* \"#utility.yul\":2274:2313   */\n      tag_369\n        /* \"#utility.yul\":2307:2312   */\n      dup3\n        /* \"#utility.yul\":2274:2313   */\n      tag_297\n      jump\t// in\n    tag_369:\n        /* \"#utility.yul\":2329:2400   */\n      tag_370\n        /* \"#utility.yul\":2393:2399   */\n      dup2\n        /* \"#utility.yul\":2388:2391   */\n      dup6\n        /* \"#utility.yul\":2329:2400   */\n      tag_298\n      jump\t// in\n    tag_370:\n        /* \"#utility.yul\":2322:2400   */\n      swap4\n      pop\n        /* \"#utility.yul\":2409:2474   */\n      tag_371\n        /* \"#utility.yul\":2467:2473   */\n      dup2\n        /* \"#utility.yul\":2462:2465   */\n      dup6\n        /* \"#utility.yul\":2455:2459   */\n      0x20\n        /* \"#utility.yul\":2448:2453   */\n      dup7\n        /* \"#utility.yul\":2444:2460   */\n      add\n        /* \"#utility.yul\":2409:2474   */\n      tag_299\n      jump\t// in\n    tag_371:\n        /* \"#utility.yul\":2499:2528   */\n      tag_372\n        /* \"#utility.yul\":2521:2527   */\n      dup2\n        /* \"#utility.yul\":2499:2528   */\n      tag_300\n      jump\t// in\n    tag_372:\n        /* \"#utility.yul\":2494:2497   */\n      dup5\n        /* \"#utility.yul\":2490:2529   */\n      add\n        /* \"#utility.yul\":2483:2529   */\n      swap2\n      pop\n        /* \"#utility.yul\":2250:2535   */\n      pop\n        /* \"#utility.yul\":2158:2535   */\n      swap3\n      swap2\n      pop\n      pop\n      jump\t// out\n        /* \"#utility.yul\":2541:2854   */\n    tag_33:\n        /* \"#utility.yul\":2654:2658   */\n      0x00\n        /* \"#utility.yul\":2692:2694   */\n      0x20\n        /* \"#utility.yul\":2681:2690   */\n      dup3\n        /* \"#utility.yul\":2677:2695   */\n      add\n        /* \"#utility.yul\":2669:2695   */\n      swap1\n      pop\n        /* \"#utility.yul\":2741:2750   */\n      dup2\n        /* \"#utility.yul\":2735:2739   */\n      dup2\n        /* \"#utility.yul\":2731:2751   */\n      sub\n        /* \"#utility.yul\":2727:2728   */\n      0x00\n        /* \"#utility.yul\":2716:2725   */\n      dup4\n        /* \"#utility.yul\":2712:2729   */\n      add\n        /* \"#utility.yul\":2705:2752   */\n      mstore\n        /* \"#utility.yul\":2769:2847   */\n      tag_374\n        /* \"#utility.yul\":2842:2846   */\n      dup2\n        /* \"#utility.yul\":2833:2839   */\n      dup5\n        /* \"#utility.yul\":2769:2847   */\n      tag_301\n      jump\t// in\n    tag_374:\n        /* \"#utility.yul\":2761:2847   */\n      swap1\n      pop\n        /* \"#utility.yul\":2541:2854   */\n      swap3\n      swap2\n      pop\n      pop\n      jump\t// out\n        /* \"#utility.yul\":2860:2937   */\n    tag_302:\n        /* \"#utility.yul\":2897:2904   */\n      0x00\n        /* \"#utility.yul\":2926:2931   */\n      dup2\n        /* \"#utility.yul\":2915:2931   */\n      swap1\n      pop\n        /* \"#utility.yul\":2860:2937   */\n      swap2\n      swap1\n      pop\n      jump\t// out\n        /* \"#utility.yul\":2943:3065   */\n    tag_303:\n        /* \"#utility.yul\":3016:3040   */\n      tag_377\n        /* \"#utility.yul\":3034:3039   */\n      dup2\n        /* \"#utility.yul\":3016:3040   */\n      tag_302\n      jump\t// in\n    tag_377:\n        /* \"#utility.yul\":3009:3014   */\n      dup2\n        /* \"#utility.yul\":3006:3041   */\n      eq\n        /* \"#utility.yul\":2996:3059   */\n      tag_378\n      jumpi\n        /* \"#utility.yul\":3055:3056   */\n      0x00\n        /* \"#utility.yul\":3052:3053   */\n      dup1\n        /* \"#utility.yul\":3045:3057   */\n      revert\n        /* \"#utility.yul\":2996:3059   */\n    tag_378:\n        /* \"#utility.yul\":2943:3065   */\n      pop\n      jump\t// out\n        /* \"#utility.yul\":3071:3210   */\n    tag_304:\n        /* \"#utility.yul\":3117:3122   */\n      0x00\n        /* \"#utility.yul\":3155:3161   */\n      dup2\n        /* \"#utility.yul\":3142:3162   */\n      calldataload\n        /* \"#utility.yul\":3133:3162   */\n      swap1\n      pop\n        /* \"#utility.yul\":3171:3204   */\n      tag_380\n        /* \"#utility.yul\":3198:3203   */\n      dup2\n        /* \"#utility.yul\":3171:3204   */\n      tag_303\n      jump\t// in\n    tag_380:\n        /* \"#utility.yul\":3071:3210   */\n      swap3\n      swap2\n      pop\n      pop\n      jump\t// out\n        /* \"#utility.yul\":3216:3545   */\n    tag_36:\n        /* \"#utility.yul\":3275:3281   */\n      0x00\n        /* \"#utility.yul\":3324:3326   */\n      0x20\n        /* \"#utility.yul\":3312:3321   */\n      dup3\n        /* \"#utility.yul\":3303:3310   */\n      dup5\n        /* \"#utility.yul\":3299:3322   */\n      sub\n        /* \"#utility.yul\":3295:3327   */\n      slt\n        /* \"#utility.yul\":3292:3411   */\n      iszero\n      tag_382\n      jumpi\n        /* \"#utility.yul\":3330:3409   */\n      tag_383\n      tag_290\n      jump\t// in\n    tag_383:\n        /* \"#utility.yul\":3292:3411   */\n    tag_382:\n        /* \"#utility.yul\":3450:3451   */\n      0x00\n        /* \"#utility.yul\":3475:3528   */\n      tag_384\n        /* \"#utility.yul\":3520:3527   */\n      dup5\n        /* \"#utility.yul\":3511:3517   */\n      dup3\n        /* \"#utility.yul\":3500:3509   */\n      dup6\n        /* \"#utility.yul\":3496:3518   */\n      add\n        /* \"#utility.yul\":3475:3528   */\n      tag_304\n      jump\t// in\n    tag_384:\n        /* \"#utility.yul\":3465:3528   */\n      swap2\n      pop\n        /* \"#utility.yul\":3421:3538   */\n      pop\n        /* \"#utility.yul\":3216:3545   */\n      swap3\n      swap2\n      pop\n      pop\n      jump\t// out\n        /* \"#utility.yul\":3551:3677   */\n    tag_305:\n        /* \"#utility.yul\":3588:3595   */\n      0x00\n        /* \"#utility.yul\":3628:3670   */\n      0xffffffffffffffffffffffffffffffffffffffff\n        /* \"#utility.yul\":3621:3626   */\n      dup3\n        /* \"#utility.yul\":3617:3671   */\n      and\n        /* \"#utility.yul\":3606:3671   */\n      swap1\n      pop\n        /* \"#utility.yul\":3551:3677   */\n      swap2\n      swap1\n      pop\n      jump\t// out\n        /* \"#utility.yul\":3683:3779   */\n    tag_306:\n        /* \"#utility.yul\":3720:3727   */\n      0x00\n        /* \"#utility.yul\":3749:3773   */\n      tag_387\n        /* \"#utility.yul\":3767:3772   */\n      dup3\n        /* \"#utility.yul\":3749:3773   */\n      tag_305\n      jump\t// in\n    tag_387:\n        /* \"#utility.yul\":3738:3773   */\n      swap1\n      pop\n        /* \"#utility.yul\":3683:3779   */\n      swap2\n      swap1\n      pop\n      jump\t// out\n        /* \"#utility.yul\":3785:3903   */\n    tag_307:\n        /* \"#utility.yul\":3872:3896   */\n      tag_389\n        /* \"#utility.yul\":3890:3895   */\n      dup2\n        /* \"#utility.yul\":3872:3896   */\n      tag_306\n      jump\t// in\n    tag_389:\n        /* \"#utility.yul\":3867:3870   */\n      dup3\n        /* \"#utility.yul\":3860:3897   */\n      mstore\n        /* \"#utility.yul\":3785:3903   */\n      pop\n      pop\n      jump\t// out\n        /* \"#utility.yul\":3909:4131   */\n    tag_39:\n        /* \"#utility.yul\":4002:4006   */\n      0x00\n        /* \"#utility.yul\":4040:4042   */\n      0x20\n        /* \"#utility.yul\":4029:4038   */\n      dup3\n        /* \"#utility.yul\":4025:4043   */\n      add\n        /* \"#utility.yul\":4017:4043   */\n      swap1\n      pop\n        /* \"#utility.yul\":4053:4124   */\n      tag_391\n        /* \"#utility.yul\":4121:4122   */\n      0x00\n        /* \"#utility.yul\":4110:4119   */\n      dup4\n        /* \"#utility.yul\":4106:4123   */\n      add\n        /* \"#utility.yul\":4097:4103   */\n      dup5\n        /* \"#utility.yul\":4053:4124   */\n      tag_307\n      jump\t// in\n    tag_391:\n        /* \"#utility.yul\":3909:4131   */\n      swap3\n      swap2\n      pop\n      pop\n      jump\t// out\n        /* \"#utility.yul\":4137:4259   */\n    tag_308:\n        /* \"#utility.yul\":4210:4234   */\n      tag_393\n        /* \"#utility.yul\":4228:4233   */\n      dup2\n        /* \"#utility.yul\":4210:4234   */\n      tag_306\n      jump\t// in\n    tag_393:\n        /* \"#utility.yul\":4203:4208   */\n      dup2\n        /* \"#utility.yul\":4200:4235   */\n      eq\n        /* \"#utility.yul\":4190:4253   */\n      tag_394\n      jumpi\n        /* \"#utility.yul\":4249:4250   */\n      0x00\n        /* \"#utility.yul\":4246:4247   */\n      dup1\n        /* \"#utility.yul\":4239:4251   */\n      revert\n        /* \"#utility.yul\":4190:4253   */\n    tag_394:\n        /* \"#utility.yul\":4137:4259   */\n      pop\n      jump\t// out\n        /* \"#utility.yul\":4265:4404   */\n    tag_309:\n        /* \"#utility.yul\":4311:4316   */\n      0x00\n        /* \"#utility.yul\":4349:4355   */\n      dup2\n        /* \"#utility.yul\":4336:4356   */\n      calldataload\n        /* \"#utility.yul\":4327:4356   */\n      swap1\n      pop\n        /* \"#utility.yul\":4365:4398   */\n      tag_396\n        /* \"#utility.yul\":4392:4397   */\n      dup2\n        /* \"#utility.yul\":4365:4398   */\n      tag_308\n      jump\t// in\n    tag_396:\n        /* \"#utility.yul\":4265:4404   */\n      swap3\n      swap2\n      pop\n      pop\n      jump\t// out\n        /* \"#utility.yul\":4410:4884   */\n    tag_42:\n        /* \"#utility.yul\":4478:4484   */\n      0x00\n        /* \"#utility.yul\":4486:4492   */\n      dup1\n        /* \"#utility.yul\":4535:4537   */\n      0x40\n        /* \"#utility.yul\":4523:4532   */\n      dup4\n        /* \"#utility.yul\":4514:4521   */\n      dup6\n        /* \"#utility.yul\":4510:4533   */\n      sub\n        /* \"#utility.yul\":4506:4538   */\n      slt\n        /* \"#utility.yul\":4503:4622   */\n      iszero\n      tag_398\n      jumpi\n        /* \"#utility.yul\":4541:4620   */\n      tag_399\n      tag_290\n      jump\t// in\n    tag_399:\n        /* \"#utility.yul\":4503:4622   */\n    tag_398:\n        /* \"#utility.yul\":4661:4662   */\n      0x00\n        /* \"#utility.yul\":4686:4739   */\n      tag_400\n        /* \"#utility.yul\":4731:4738   */\n      dup6\n        /* \"#utility.yul\":4722:4728   */\n      dup3\n        /* \"#utility.yul\":4711:4720   */\n      dup7\n        /* \"#utility.yul\":4707:4729   */\n      add\n        /* \"#utility.yul\":4686:4739   */\n      tag_309\n      jump\t// in\n    tag_400:\n        /* \"#utility.yul\":4676:4739   */\n      swap3\n      pop\n        /* \"#utility.yul\":4632:4749   */\n      pop\n        /* \"#utility.yul\":4788:4790   */\n      0x20\n        /* \"#utility.yul\":4814:4867   */\n      tag_401\n        /* \"#utility.yul\":4859:4866   */\n      dup6\n        /* \"#utility.yul\":4850:4856   */\n      dup3\n        /* \"#utility.yul\":4839:4848   */\n      dup7\n        /* \"#utility.yul\":4835:4857   */\n      add\n        /* \"#utility.yul\":4814:4867   */\n      tag_304\n      jump\t// in\n    tag_401:\n        /* \"#utility.yul\":4804:4867   */\n      swap2\n      pop\n        /* \"#utility.yul\":4759:4877   */\n      pop\n        /* \"#utility.yul\":4410:4884   */\n      swap3\n      pop\n      swap3\n      swap1\n      pop\n      jump\t// out\n        /* \"#utility.yul\":4890:5509   */\n    tag_46:\n        /* \"#utility.yul\":4967:4973   */\n      0x00\n        /* \"#utility.yul\":4975:4981   */\n      dup1\n        /* \"#utility.yul\":4983:4989   */\n      0x00\n        /* \"#utility.yul\":5032:5034   */\n      0x60\n        /* \"#utility.yul\":5020:5029   */\n      dup5\n        /* \"#utility.yul\":5011:5018   */\n      dup7\n        /* \"#utility.yul\":5007:5030   */\n      sub\n        /* \"#utility.yul\":5003:5035   */\n      slt\n        /* \"#utility.yul\":5000:5119   */\n      iszero\n      tag_403\n      jumpi\n        /* \"#utility.yul\":5038:5117   */\n      tag_404\n      tag_290\n      jump\t// in\n    tag_404:\n        /* \"#utility.yul\":5000:5119   */\n    tag_403:\n        /* \"#utility.yul\":5158:5159   */\n      0x00\n        /* \"#utility.yul\":5183:5236   */\n      tag_405\n        /* \"#utility.yul\":5228:5235   */\n      dup7\n        /* \"#utility.yul\":5219:5225   */\n      dup3\n        /* \"#utility.yul\":5208:5217   */\n      dup8\n        /* \"#utility.yul\":5204:5226   */\n      add\n        /* \"#utility.yul\":5183:5236   */\n      tag_309\n      jump\t// in\n    tag_405:\n        /* \"#utility.yul\":5173:5236   */\n      swap4\n      pop\n        /* \"#utility.yul\":5129:5246   */\n      pop\n        /* \"#utility.yul\":5285:5287   */\n      0x20\n        /* \"#utility.yul\":5311:5364   */\n      tag_406\n        /* \"#utility.yul\":5356:5363   */\n      dup7\n        /* \"#utility.yul\":5347:5353   */\n      dup3\n        /* \"#utility.yul\":5336:5345   */\n      dup8\n        /* \"#utility.yul\":5332:5354   */\n      add\n        /* \"#utility.yul\":5311:5364   */\n      tag_309\n      jump\t// in\n    tag_406:\n        /* \"#utility.yul\":5301:5364   */\n      swap3\n      pop\n        /* \"#utility.yul\":5256:5374   */\n      pop\n        /* \"#utility.yul\":5413:5415   */\n      0x40\n        /* \"#utility.yul\":5439:5492   */\n      tag_407\n        /* \"#utility.yul\":5484:5491   */\n      dup7\n        /* \"#utility.yul\":5475:5481   */\n      dup3\n        /* \"#utility.yul\":5464:5473   */\n      dup8\n        /* \"#utility.yul\":5460:5482   */\n      add\n        /* \"#utility.yul\":5439:5492   */\n      tag_304\n      jump\t// in\n    tag_407:\n        /* \"#utility.yul\":5429:5492   */\n      swap2\n      pop\n        /* \"#utility.yul\":5384:5502   */\n      pop\n        /* \"#utility.yul\":4890:5509   */\n      swap3\n      pop\n      swap3\n      pop\n      swap3\n      jump\t// out\n        /* \"#utility.yul\":5515:5844   */\n    tag_50:\n        /* \"#utility.yul\":5574:5580   */\n      0x00\n        /* \"#utility.yul\":5623:5625   */\n      0x20\n        /* \"#utility.yul\":5611:5620   */\n      dup3\n        /* \"#utility.yul\":5602:5609   */\n      dup5\n        /* \"#utility.yul\":5598:5621   */\n      sub\n        /* \"#utility.yul\":5594:5626   */\n      slt\n        /* \"#utility.yul\":5591:5710   */\n      iszero\n      tag_409\n      jumpi\n        /* \"#utility.yul\":5629:5708   */\n      tag_410\n      tag_290\n      jump\t// in\n    tag_410:\n        /* \"#utility.yul\":5591:5710   */\n    tag_409:\n        /* \"#utility.yul\":5749:5750   */\n      0x00\n        /* \"#utility.yul\":5774:5827   */\n      tag_411\n        /* \"#utility.yul\":5819:5826   */\n      dup5\n        /* \"#utility.yul\":5810:5816   */\n      dup3\n        /* \"#utility.yul\":5799:5808   */\n      dup6\n        /* \"#utility.yul\":5795:5817   */\n      add\n        /* \"#utility.yul\":5774:5827   */\n      tag_309\n      jump\t// in\n    tag_411:\n        /* \"#utility.yul\":5764:5827   */\n      swap2\n      pop\n        /* \"#utility.yul\":5720:5837   */\n      pop\n        /* \"#utility.yul\":5515:5844   */\n      swap3\n      swap2\n      pop\n      pop\n      jump\t// out\n        /* \"#utility.yul\":5850:5968   */\n    tag_310:\n        /* \"#utility.yul\":5937:5961   */\n      tag_413\n        /* \"#utility.yul\":5955:5960   */\n      dup2\n        /* \"#utility.yul\":5937:5961   */\n      tag_302\n      jump\t// in\n    tag_413:\n        /* \"#utility.yul\":5932:5935   */\n      dup3\n        /* \"#utility.yul\":5925:5962   */\n      mstore\n        /* \"#utility.yul\":5850:5968   */\n      pop\n      pop\n      jump\t// out\n        /* \"#utility.yul\":5974:6196   */\n    tag_63:\n        /* \"#utility.yul\":6067:6071   */\n      0x00\n        /* \"#utility.yul\":6105:6107   */\n      0x20\n        /* \"#utility.yul\":6094:6103   */\n      dup3\n        /* \"#utility.yul\":6090:6108   */\n      add\n        /* \"#utility.yul\":6082:6108   */\n      swap1\n      pop\n        /* \"#utility.yul\":6118:6189   */\n      tag_415\n        /* \"#utility.yul\":6186:6187   */\n      0x00\n        /* \"#utility.yul\":6175:6184   */\n      dup4\n        /* \"#utility.yul\":6171:6188   */\n      add\n        /* \"#utility.yul\":6162:6168   */\n      dup5\n        /* \"#utility.yul\":6118:6189   */\n      tag_310\n      jump\t// in\n    tag_415:\n        /* \"#utility.yul\":5974:6196   */\n      swap3\n      swap2\n      pop\n      pop\n      jump\t// out\n        /* \"#utility.yul\":6202:6318   */\n    tag_311:\n        /* \"#utility.yul\":6272:6293   */\n      tag_417\n        /* \"#utility.yul\":6287:6292   */\n      dup2\n        /* \"#utility.yul\":6272:6293   */\n      tag_295\n      jump\t// in\n    tag_417:\n        /* \"#utility.yul\":6265:6270   */\n      dup2\n        /* \"#utility.yul\":6262:6294   */\n      eq\n        /* \"#utility.yul\":6252:6312   */\n      tag_418\n      jumpi\n        /* \"#utility.yul\":6308:6309   */\n      0x00\n        /* \"#utility.yul\":6305:6306   */\n      dup1\n        /* \"#utility.yul\":6298:6310   */\n      revert\n        /* \"#utility.yul\":6252:6312   */\n    tag_418:\n        /* \"#utility.yul\":6202:6318   */\n      pop\n      jump\t// out\n        /* \"#utility.yul\":6324:6457   */\n    tag_312:\n        /* \"#utility.yul\":6367:6372   */\n      0x00\n        /* \"#utility.yul\":6405:6411   */\n      dup2\n        /* \"#utility.yul\":6392:6412   */\n      calldataload\n        /* \"#utility.yul\":6383:6412   */\n      swap1\n      pop\n        /* \"#utility.yul\":6421:6451   */\n      tag_420\n        /* \"#utility.yul\":6445:6450   */\n      dup2\n        /* \"#utility.yul\":6421:6451   */\n      tag_311\n      jump\t// in\n    tag_420:\n        /* \"#utility.yul\":6324:6457   */\n      swap3\n      swap2\n      pop\n      pop\n      jump\t// out\n        /* \"#utility.yul\":6463:6931   */\n    tag_74:\n        /* \"#utility.yul\":6528:6534   */\n      0x00\n        /* \"#utility.yul\":6536:6542   */\n      dup1\n        /* \"#utility.yul\":6585:6587   */\n      0x40\n        /* \"#utility.yul\":6573:6582   */\n      dup4\n        /* \"#utility.yul\":6564:6571   */\n      dup6\n        /* \"#utility.yul\":6560:6583   */\n      sub\n        /* \"#utility.yul\":6556:6588   */\n      slt\n        /* \"#utility.yul\":6553:6672   */\n      iszero\n      tag_422\n      jumpi\n        /* \"#utility.yul\":6591:6670   */\n      tag_423\n      tag_290\n      jump\t// in\n    tag_423:\n        /* \"#utility.yul\":6553:6672   */\n    tag_422:\n        /* \"#utility.yul\":6711:6712   */\n      0x00\n        /* \"#utility.yul\":6736:6789   */\n      tag_424\n        /* \"#utility.yul\":6781:6788   */\n      dup6\n        /* \"#utility.yul\":6772:6778   */\n      dup3\n        /* \"#utility.yul\":6761:6770   */\n      dup7\n        /* \"#utility.yul\":6757:6779   */\n      add\n        /* \"#utility.yul\":6736:6789   */\n      tag_309\n      jump\t// in\n    tag_424:\n        /* \"#utility.yul\":6726:6789   */\n      swap3\n      pop\n        /* \"#utility.yul\":6682:6799   */\n      pop\n        /* \"#utility.yul\":6838:6840   */\n      0x20\n        /* \"#utility.yul\":6864:6914   */\n      tag_425\n        /* \"#utility.yul\":6906:6913   */\n      dup6\n        /* \"#utility.yul\":6897:6903   */\n      dup3\n        /* \"#utility.yul\":6886:6895   */\n      dup7\n        /* \"#utility.yul\":6882:6904   */\n      add\n        /* \"#utility.yul\":6864:6914   */\n      tag_312\n      jump\t// in\n    tag_425:\n        /* \"#utility.yul\":6854:6914   */\n      swap2\n      pop\n        /* \"#utility.yul\":6809:6924   */\n      pop\n        /* \"#utility.yul\":6463:6931   */\n      swap3\n      pop\n      swap3\n      swap1\n      pop\n      jump\t// out\n        /* \"#utility.yul\":6937:7054   */\n    tag_313:\n        /* \"#utility.yul\":7046:7047   */\n      0x00\n        /* \"#utility.yul\":7043:7044   */\n      dup1\n        /* \"#utility.yul\":7036:7048   */\n      revert\n        /* \"#utility.yul\":7060:7177   */\n    tag_314:\n        /* \"#utility.yul\":7169:7170   */\n      0x00\n        /* \"#utility.yul\":7166:7167   */\n      dup1\n        /* \"#utility.yul\":7159:7171   */\n      revert\n        /* \"#utility.yul\":7183:7363   */\n    tag_315:\n        /* \"#utility.yul\":7231:7308   */\n      0x4e487b7100000000000000000000000000000000000000000000000000000000\n        /* \"#utility.yul\":7228:7229   */\n      0x00\n        /* \"#utility.yul\":7221:7309   */\n      mstore\n        /* \"#utility.yul\":7328:7332   */\n      0x41\n        /* \"#utility.yul\":7325:7326   */\n      0x04\n        /* \"#utility.yul\":7318:7333   */\n      mstore\n        /* \"#utility.yul\":7352:7356   */\n      0x24\n        /* \"#utility.yul\":7349:7350   */\n      0x00\n        /* \"#utility.yul\":7342:7357   */\n      revert\n        /* \"#utility.yul\":7369:7650   */\n    tag_316:\n        /* \"#utility.yul\":7452:7479   */\n      tag_430\n        /* \"#utility.yul\":7474:7478   */\n      dup3\n        /* \"#utility.yul\":7452:7479   */\n      tag_300\n      jump\t// in\n    tag_430:\n        /* \"#utility.yul\":7444:7450   */\n      dup2\n        /* \"#utility.yul\":7440:7480   */\n      add\n        /* \"#utility.yul\":7582:7588   */\n      dup2\n        /* \"#utility.yul\":7570:7580   */\n      dup2\n        /* \"#utility.yul\":7567:7589   */\n      lt\n        /* \"#utility.yul\":7546:7564   */\n      0xffffffffffffffff\n        /* \"#utility.yul\":7534:7544   */\n      dup3\n        /* \"#utility.yul\":7531:7565   */\n      gt\n        /* \"#utility.yul\":7528:7590   */\n      or\n        /* \"#utility.yul\":7525:7613   */\n      iszero\n      tag_431\n      jumpi\n        /* \"#utility.yul\":7593:7611   */\n      tag_432\n      tag_315\n      jump\t// in\n    tag_432:\n        /* \"#utility.yul\":7525:7613   */\n    tag_431:\n        /* \"#utility.yul\":7633:7643   */\n      dup1\n        /* \"#utility.yul\":7629:7631   */\n      0x40\n        /* \"#utility.yul\":7622:7644   */\n      mstore\n        /* \"#utility.yul\":7412:7650   */\n      pop\n        /* \"#utility.yul\":7369:7650   */\n      pop\n      pop\n      jump\t// out\n        /* \"#utility.yul\":7656:7785   */\n    tag_317:\n        /* \"#utility.yul\":7690:7696   */\n      0x00\n        /* \"#utility.yul\":7717:7737   */\n      tag_434\n      tag_289\n      jump\t// in\n    tag_434:\n        /* \"#utility.yul\":7707:7737   */\n      swap1\n      pop\n        /* \"#utility.yul\":7746:7779   */\n      tag_435\n        /* \"#utility.yul\":7774:7778   */\n      dup3\n        /* \"#utility.yul\":7766:7772   */\n      dup3\n        /* \"#utility.yul\":7746:7779   */\n      tag_316\n      jump\t// in\n    tag_435:\n        /* \"#utility.yul\":7656:7785   */\n      swap2\n      swap1\n      pop\n      jump\t// out\n        /* \"#utility.yul\":7791:8098   */\n    tag_318:\n        /* \"#utility.yul\":7852:7856   */\n      0x00\n        /* \"#utility.yul\":7942:7960   */\n      0xffffffffffffffff\n        /* \"#utility.yul\":7934:7940   */\n      dup3\n        /* \"#utility.yul\":7931:7961   */\n      gt\n        /* \"#utility.yul\":7928:7984   */\n      iszero\n      tag_437\n      jumpi\n        /* \"#utility.yul\":7964:7982   */\n      tag_438\n      tag_315\n      jump\t// in\n    tag_438:\n        /* \"#utility.yul\":7928:7984   */\n    tag_437:\n        /* \"#utility.yul\":8002:8031   */\n      tag_439\n        /* \"#utility.yul\":8024:8030   */\n      dup3\n        /* \"#utility.yul\":8002:8031   */\n      tag_300\n      jump\t// in\n    tag_439:\n        /* \"#utility.yul\":7994:8031   */\n      swap1\n      pop\n        /* \"#utility.yul\":8086:8090   */\n      0x20\n        /* \"#utility.yul\":8080:8084   */\n      dup2\n        /* \"#utility.yul\":8076:8091   */\n      add\n        /* \"#utility.yul\":8068:8091   */\n      swap1\n      pop\n        /* \"#utility.yul\":7791:8098   */\n      swap2\n      swap1\n      pop\n      jump\t// out\n        /* \"#utility.yul\":8104:8250   */\n    tag_319:\n        /* \"#utility.yul\":8201:8207   */\n      dup3\n        /* \"#utility.yul\":8196:8199   */\n      dup2\n        /* \"#utility.yul\":8191:8194   */\n      dup4\n        /* \"#utility.yul\":8178:8208   */\n      calldatacopy\n        /* \"#utility.yul\":8242:8243   */\n      0x00\n        /* \"#utility.yul\":8233:8239   */\n      dup4\n        /* \"#utility.yul\":8228:8231   */\n      dup4\n        /* \"#utility.yul\":8224:8240   */\n      add\n        /* \"#utility.yul\":8217:8244   */\n      mstore\n        /* \"#utility.yul\":8104:8250   */\n      pop\n      pop\n      pop\n      jump\t// out\n        /* \"#utility.yul\":8256:8679   */\n    tag_320:\n        /* \"#utility.yul\":8333:8338   */\n      0x00\n        /* \"#utility.yul\":8358:8423   */\n      tag_442\n        /* \"#utility.yul\":8374:8422   */\n      tag_443\n        /* \"#utility.yul\":8415:8421   */\n      dup5\n        /* \"#utility.yul\":8374:8422   */\n      tag_318\n      jump\t// in\n    tag_443:\n        /* \"#utility.yul\":8358:8423   */\n      tag_317\n      jump\t// in\n    tag_442:\n        /* \"#utility.yul\":8349:8423   */\n      swap1\n      pop\n        /* \"#utility.yul\":8446:8452   */\n      dup3\n        /* \"#utility.yul\":8439:8444   */\n      dup2\n        /* \"#utility.yul\":8432:8453   */\n      mstore\n        /* \"#utility.yul\":8484:8488   */\n      0x20\n        /* \"#utility.yul\":8477:8482   */\n      dup2\n        /* \"#utility.yul\":8473:8489   */\n      add\n        /* \"#utility.yul\":8522:8525   */\n      dup5\n        /* \"#utility.yul\":8513:8519   */\n      dup5\n        /* \"#utility.yul\":8508:8511   */\n      dup5\n        /* \"#utility.yul\":8504:8520   */\n      add\n        /* \"#utility.yul\":8501:8526   */\n      gt\n        /* \"#utility.yul\":8498:8610   */\n      iszero\n      tag_444\n      jumpi\n        /* \"#utility.yul\":8529:8608   */\n      tag_445\n      tag_314\n      jump\t// in\n    tag_445:\n        /* \"#utility.yul\":8498:8610   */\n    tag_444:\n        /* \"#utility.yul\":8619:8673   */\n      tag_446\n        /* \"#utility.yul\":8666:8672   */\n      dup5\n        /* \"#utility.yul\":8661:8664   */\n      dup3\n        /* \"#utility.yul\":8656:8659   */\n      dup6\n        /* \"#utility.yul\":8619:8673   */\n      tag_319\n      jump\t// in\n    tag_446:\n        /* \"#utility.yul\":8339:8679   */\n      pop\n        /* \"#utility.yul\":8256:8679   */\n      swap4\n      swap3\n      pop\n      pop\n      pop\n      jump\t// out\n        /* \"#utility.yul\":8698:9036   */\n    tag_321:\n        /* \"#utility.yul\":8753:8758   */\n      0x00\n        /* \"#utility.yul\":8802:8805   */\n      dup3\n        /* \"#utility.yul\":8795:8799   */\n      0x1f\n        /* \"#utility.yul\":8787:8793   */\n      dup4\n        /* \"#utility.yul\":8783:8800   */\n      add\n        /* \"#utility.yul\":8779:8806   */\n      slt\n        /* \"#utility.yul\":8769:8891   */\n      tag_448\n      jumpi\n        /* \"#utility.yul\":8810:8889   */\n      tag_449\n      tag_313\n      jump\t// in\n    tag_449:\n        /* \"#utility.yul\":8769:8891   */\n    tag_448:\n        /* \"#utility.yul\":8927:8933   */\n      dup2\n        /* \"#utility.yul\":8914:8934   */\n      calldataload\n        /* \"#utility.yul\":8952:9030   */\n      tag_450\n        /* \"#utility.yul\":9026:9029   */\n      dup5\n        /* \"#utility.yul\":9018:9024   */\n      dup3\n        /* \"#utility.yul\":9011:9015   */\n      0x20\n        /* \"#utility.yul\":9003:9009   */\n      dup7\n        /* \"#utility.yul\":8999:9016   */\n      add\n        /* \"#utility.yul\":8952:9030   */\n      tag_320\n      jump\t// in\n    tag_450:\n        /* \"#utility.yul\":8943:9030   */\n      swap2\n      pop\n        /* \"#utility.yul\":8759:9036   */\n      pop\n        /* \"#utility.yul\":8698:9036   */\n      swap3\n      swap2\n      pop\n      pop\n      jump\t// out\n        /* \"#utility.yul\":9042:9985   */\n    tag_78:\n        /* \"#utility.yul\":9137:9143   */\n      0x00\n        /* \"#utility.yul\":9145:9151   */\n      dup1\n        /* \"#utility.yul\":9153:9159   */\n      0x00\n        /* \"#utility.yul\":9161:9167   */\n      dup1\n        /* \"#utility.yul\":9210:9213   */\n      0x80\n        /* \"#utility.yul\":9198:9207   */\n      dup6\n        /* \"#utility.yul\":9189:9196   */\n      dup8\n        /* \"#utility.yul\":9185:9208   */\n      sub\n        /* \"#utility.yul\":9181:9214   */\n      slt\n        /* \"#utility.yul\":9178:9298   */\n      iszero\n      tag_452\n      jumpi\n        /* \"#utility.yul\":9217:9296   */\n      tag_453\n      tag_290\n      jump\t// in\n    tag_453:\n        /* \"#utility.yul\":9178:9298   */\n    tag_452:\n        /* \"#utility.yul\":9337:9338   */\n      0x00\n        /* \"#utility.yul\":9362:9415   */\n      tag_454\n        /* \"#utility.yul\":9407:9414   */\n      dup8\n        /* \"#utility.yul\":9398:9404   */\n      dup3\n        /* \"#utility.yul\":9387:9396   */\n      dup9\n        /* \"#utility.yul\":9383:9405   */\n      add\n        /* \"#utility.yul\":9362:9415   */\n      tag_309\n      jump\t// in\n    tag_454:\n        /* \"#utility.yul\":9352:9415   */\n      swap5\n      pop\n        /* \"#utility.yul\":9308:9425   */\n      pop\n        /* \"#utility.yul\":9464:9466   */\n      0x20\n        /* \"#utility.yul\":9490:9543   */\n      tag_455\n        /* \"#utility.yul\":9535:9542   */\n      dup8\n        /* \"#utility.yul\":9526:9532   */\n      dup3\n        /* \"#utility.yul\":9515:9524   */\n      dup9\n        /* \"#utility.yul\":9511:9533   */\n      add\n        /* \"#utility.yul\":9490:9543   */\n      tag_309\n      jump\t// in\n    tag_455:\n        /* \"#utility.yul\":9480:9543   */\n      swap4\n      pop\n        /* \"#utility.yul\":9435:9553   */\n      pop\n        /* \"#utility.yul\":9592:9594   */\n      0x40\n        /* \"#utility.yul\":9618:9671   */\n      tag_456\n        /* \"#utility.yul\":9663:9670   */\n      dup8\n        /* \"#utility.yul\":9654:9660   */\n      dup3\n        /* \"#utility.yul\":9643:9652   */\n      dup9\n        /* \"#utility.yul\":9639:9661   */\n      add\n        /* \"#utility.yul\":9618:9671   */\n      tag_304\n      jump\t// in\n    tag_456:\n        /* \"#utility.yul\":9608:9671   */\n      swap3\n      pop\n        /* \"#utility.yul\":9563:9681   */\n      pop\n        /* \"#utility.yul\":9748:9750   */\n      0x60\n        /* \"#utility.yul\":9737:9746   */\n      dup6\n        /* \"#utility.yul\":9733:9751   */\n      add\n        /* \"#utility.yul\":9720:9752   */\n      calldataload\n        /* \"#utility.yul\":9779:9797   */\n      0xffffffffffffffff\n        /* \"#utility.yul\":9771:9777   */\n      dup2\n        /* \"#utility.yul\":9768:9798   */\n      gt\n        /* \"#utility.yul\":9765:9882   */\n      iszero\n      tag_457\n      jumpi\n        /* \"#utility.yul\":9801:9880   */\n      tag_458\n      tag_291\n      jump\t// in\n    tag_458:\n        /* \"#utility.yul\":9765:9882   */\n    tag_457:\n        /* \"#utility.yul\":9906:9968   */\n      tag_459\n        /* \"#utility.yul\":9960:9967   */\n      dup8\n        /* \"#utility.yul\":9951:9957   */\n      dup3\n        /* \"#utility.yul\":9940:9949   */\n      dup9\n        /* \"#utility.yul\":9936:9958   */\n      add\n        /* \"#utility.yul\":9906:9968   */\n      tag_321\n      jump\t// in\n    tag_459:\n        /* \"#utility.yul\":9896:9968   */\n      swap2\n      pop\n        /* \"#utility.yul\":9691:9978   */\n      pop\n        /* \"#utility.yul\":9042:9985   */\n      swap3\n      swap6\n      swap2\n      swap5\n      pop\n      swap3\n      pop\n      jump\t// out\n        /* \"#utility.yul\":9991:10465   */\n    tag_89:\n        /* \"#utility.yul\":10059:10065   */\n      0x00\n        /* \"#utility.yul\":10067:10073   */\n      dup1\n        /* \"#utility.yul\":10116:10118   */\n      0x40\n        /* \"#utility.yul\":10104:10113   */\n      dup4\n        /* \"#utility.yul\":10095:10102   */\n      dup6\n        /* \"#utility.yul\":10091:10114   */\n      sub\n        /* \"#utility.yul\":10087:10119   */\n      slt\n        /* \"#utility.yul\":10084:10203   */\n      iszero\n      tag_461\n      jumpi\n        /* \"#utility.yul\":10122:10201   */\n      tag_462\n      tag_290\n      jump\t// in\n    tag_462:\n        /* \"#utility.yul\":10084:10203   */\n    tag_461:\n        /* \"#utility.yul\":10242:10243   */\n      0x00\n        /* \"#utility.yul\":10267:10320   */\n      tag_463\n        /* \"#utility.yul\":10312:10319   */\n      dup6\n        /* \"#utility.yul\":10303:10309   */\n      dup3\n        /* \"#utility.yul\":10292:10301   */\n      dup7\n        /* \"#utility.yul\":10288:10310   */\n      add\n        /* \"#utility.yul\":10267:10320   */\n      tag_309\n      jump\t// in\n    tag_463:\n        /* \"#utility.yul\":10257:10320   */\n      swap3\n      pop\n        /* \"#utility.yul\":10213:10330   */\n      pop\n        /* \"#utility.yul\":10369:10371   */\n      0x20\n        /* \"#utility.yul\":10395:10448   */\n      tag_464\n        /* \"#utility.yul\":10440:10447   */\n      dup6\n        /* \"#utility.yul\":10431:10437   */\n      dup3\n        /* \"#utility.yul\":10420:10429   */\n      dup7\n        /* \"#utility.yul\":10416:10438   */\n      add\n        /* \"#utility.yul\":10395:10448   */\n      tag_309\n      jump\t// in\n    tag_464:\n        /* \"#utility.yul\":10385:10448   */\n      swap2\n      pop\n        /* \"#utility.yul\":10340:10458   */\n      pop\n        /* \"#utility.yul\":9991:10465   */\n      swap3\n      pop\n      swap3\n      swap1\n      pop\n      jump\t// out\n        /* \"#utility.yul\":10471:10651   */\n    tag_322:\n        /* \"#utility.yul\":10519:10596   */\n      0x4e487b7100000000000000000000000000000000000000000000000000000000\n        /* \"#utility.yul\":10516:10517   */\n      0x00\n        /* \"#utility.yul\":10509:10597   */\n      mstore\n        /* \"#utility.yul\":10616:10620   */\n      0x22\n        /* \"#utility.yul\":10613:10614   */\n      0x04\n        /* \"#utility.yul\":10606:10621   */\n      mstore\n        /* \"#utility.yul\":10640:10644   */\n      0x24\n        /* \"#utility.yul\":10637:10638   */\n      0x00\n        /* \"#utility.yul\":10630:10645   */\n      revert\n        /* \"#utility.yul\":10657:10977   */\n    tag_102:\n        /* \"#utility.yul\":10701:10707   */\n      0x00\n        /* \"#utility.yul\":10738:10739   */\n      0x02\n        /* \"#utility.yul\":10732:10736   */\n      dup3\n        /* \"#utility.yul\":10728:10740   */\n      div\n        /* \"#utility.yul\":10718:10740   */\n      swap1\n      pop\n        /* \"#utility.yul\":10785:10786   */\n      0x01\n        /* \"#utility.yul\":10779:10783   */\n      dup3\n        /* \"#utility.yul\":10775:10787   */\n      and\n        /* \"#utility.yul\":10806:10824   */\n      dup1\n        /* \"#utility.yul\":10796:10877   */\n      tag_467\n      jumpi\n        /* \"#utility.yul\":10862:10866   */\n      0x7f\n        /* \"#utility.yul\":10854:10860   */\n      dup3\n        /* \"#utility.yul\":10850:10867   */\n      and\n        /* \"#utility.yul\":10840:10867   */\n      swap2\n      pop\n        /* \"#utility.yul\":10796:10877   */\n    tag_467:\n        /* \"#utility.yul\":10924:10926   */\n      0x20\n        /* \"#utility.yul\":10916:10922   */\n      dup3\n        /* \"#utility.yul\":10913:10927   */\n      lt\n        /* \"#utility.yul\":10893:10911   */\n      dup2\n        /* \"#utility.yul\":10890:10928   */\n      sub\n        /* \"#utility.yul\":10887:10971   */\n      tag_468\n      jumpi\n        /* \"#utility.yul\":10943:10961   */\n      tag_469\n      tag_322\n      jump\t// in\n    tag_469:\n        /* \"#utility.yul\":10887:10971   */\n    tag_468:\n        /* \"#utility.yul\":10708:10977   */\n      pop\n        /* \"#utility.yul\":10657:10977   */\n      swap2\n      swap1\n      pop\n      jump\t// out\n        /* \"#utility.yul\":10983:11425   */\n    tag_125:\n        /* \"#utility.yul\":11132:11136   */\n      0x00\n        /* \"#utility.yul\":11170:11172   */\n      0x60\n        /* \"#utility.yul\":11159:11168   */\n      dup3\n        /* \"#utility.yul\":11155:11173   */\n      add\n        /* \"#utility.yul\":11147:11173   */\n      swap1\n      pop\n        /* \"#utility.yul\":11183:11254   */\n      tag_471\n        /* \"#utility.yul\":11251:11252   */\n      0x00\n        /* \"#utility.yul\":11240:11249   */\n      dup4\n        /* \"#utility.yul\":11236:11253   */\n      add\n        /* \"#utility.yul\":11227:11233   */\n      dup7\n        /* \"#utility.yul\":11183:11254   */\n      tag_307\n      jump\t// in\n    tag_471:\n        /* \"#utility.yul\":11264:11336   */\n      tag_472\n        /* \"#utility.yul\":11332:11334   */\n      0x20\n        /* \"#utility.yul\":11321:11330   */\n      dup4\n        /* \"#utility.yul\":11317:11335   */\n      add\n        /* \"#utility.yul\":11308:11314   */\n      dup6\n        /* \"#utility.yul\":11264:11336   */\n      tag_310\n      jump\t// in\n    tag_472:\n        /* \"#utility.yul\":11346:11418   */\n      tag_473\n        /* \"#utility.yul\":11414:11416   */\n      0x40\n        /* \"#utility.yul\":11403:11412   */\n      dup4\n        /* \"#utility.yul\":11399:11417   */\n      add\n        /* \"#utility.yul\":11390:11396   */\n      dup5\n        /* \"#utility.yul\":11346:11418   */\n      tag_307\n      jump\t// in\n    tag_473:\n        /* \"#utility.yul\":10983:11425   */\n      swap5\n      swap4\n      pop\n      pop\n      pop\n      pop\n      jump\t// out\n        /* \"#utility.yul\":11431:11665   */\n    tag_323:\n        /* \"#utility.yul\":11571:11605   */\n      0x4552433732314d657461646174613a2055524920717565727920666f72206e6f\n        /* \"#utility.yul\":11567:11568   */\n      0x00\n        /* \"#utility.yul\":11559:11565   */\n      dup3\n        /* \"#utility.yul\":11555:11569   */\n      add\n        /* \"#utility.yul\":11548:11606   */\n      mstore\n        /* \"#utility.yul\":11640:11657   */\n      0x6e6578697374656e7420746f6b656e0000000000000000000000000000000000\n        /* \"#utility.yul\":11635:11637   */\n      0x20\n        /* \"#utility.yul\":11627:11633   */\n      dup3\n        /* \"#utility.yul\":11623:11638   */\n      add\n        /* \"#utility.yul\":11616:11658   */\n      mstore\n        /* \"#utility.yul\":11431:11665   */\n      pop\n      jump\t// out\n        /* \"#utility.yul\":11671:12037   */\n    tag_324:\n        /* \"#utility.yul\":11813:11816   */\n      0x00\n        /* \"#utility.yul\":11834:11901   */\n      tag_476\n        /* \"#utility.yul\":11898:11900   */\n      0x2f\n        /* \"#utility.yul\":11893:11896   */\n      dup4\n        /* \"#utility.yul\":11834:11901   */\n      tag_298\n      jump\t// in\n    tag_476:\n        /* \"#utility.yul\":11827:11901   */\n      swap2\n      pop\n        /* \"#utility.yul\":11910:12003   */\n      tag_477\n        /* \"#utility.yul\":11999:12002   */\n      dup3\n        /* \"#utility.yul\":11910:12003   */\n      tag_323\n      jump\t// in\n    tag_477:\n        /* \"#utility.yul\":12028:12030   */\n      0x40\n        /* \"#utility.yul\":12023:12026   */\n      dup3\n        /* \"#utility.yul\":12019:12031   */\n      add\n        /* \"#utility.yul\":12012:12031   */\n      swap1\n      pop\n        /* \"#utility.yul\":11671:12037   */\n      swap2\n      swap1\n      pop\n      jump\t// out\n        /* \"#utility.yul\":12043:12462   */\n    tag_167:\n        /* \"#utility.yul\":12209:12213   */\n      0x00\n        /* \"#utility.yul\":12247:12249   */\n      0x20\n        /* \"#utility.yul\":12236:12245   */\n      dup3\n        /* \"#utility.yul\":12232:12250   */\n      add\n        /* \"#utility.yul\":12224:12250   */\n      swap1\n      pop\n        /* \"#utility.yul\":12296:12305   */\n      dup2\n        /* \"#utility.yul\":12290:12294   */\n      dup2\n        /* \"#utility.yul\":12286:12306   */\n      sub\n        /* \"#utility.yul\":12282:12283   */\n      0x00\n        /* \"#utility.yul\":12271:12280   */\n      dup4\n        /* \"#utility.yul\":12267:12284   */\n      add\n        /* \"#utility.yul\":12260:12307   */\n      mstore\n        /* \"#utility.yul\":12324:12455   */\n      tag_479\n        /* \"#utility.yul\":12450:12454   */\n      dup2\n        /* \"#utility.yul\":12324:12455   */\n      tag_324\n      jump\t// in\n    tag_479:\n        /* \"#utility.yul\":12316:12455   */\n      swap1\n      pop\n        /* \"#utility.yul\":12043:12462   */\n      swap2\n      swap1\n      pop\n      jump\t// out\n        /* \"#utility.yul\":12468:12648   */\n    tag_325:\n        /* \"#utility.yul\":12516:12593   */\n      0x4e487b7100000000000000000000000000000000000000000000000000000000\n        /* \"#utility.yul\":12513:12514   */\n      0x00\n        /* \"#utility.yul\":12506:12594   */\n      mstore\n        /* \"#utility.yul\":12613:12617   */\n      0x11\n        /* \"#utility.yul\":12610:12611   */\n      0x04\n        /* \"#utility.yul\":12603:12618   */\n      mstore\n        /* \"#utility.yul\":12637:12641   */\n      0x24\n        /* \"#utility.yul\":12634:12635   */\n      0x00\n        /* \"#utility.yul\":12627:12642   */\n      revert\n        /* \"#utility.yul\":12654:12848   */\n    tag_169:\n        /* \"#utility.yul\":12694:12698   */\n      0x00\n        /* \"#utility.yul\":12714:12734   */\n      tag_482\n        /* \"#utility.yul\":12732:12733   */\n      dup3\n        /* \"#utility.yul\":12714:12734   */\n      tag_302\n      jump\t// in\n    tag_482:\n        /* \"#utility.yul\":12709:12734   */\n      swap2\n      pop\n        /* \"#utility.yul\":12748:12768   */\n      tag_483\n        /* \"#utility.yul\":12766:12767   */\n      dup4\n        /* \"#utility.yul\":12748:12768   */\n      tag_302\n      jump\t// in\n    tag_483:\n        /* \"#utility.yul\":12743:12768   */\n      swap3\n      pop\n        /* \"#utility.yul\":12792:12793   */\n      dup3\n        /* \"#utility.yul\":12789:12790   */\n      dup3\n        /* \"#utility.yul\":12785:12794   */\n      sub\n        /* \"#utility.yul\":12777:12794   */\n      swap1\n      pop\n        /* \"#utility.yul\":12816:12817   */\n      dup2\n        /* \"#utility.yul\":12810:12814   */\n      dup2\n        /* \"#utility.yul\":12807:12818   */\n      gt\n        /* \"#utility.yul\":12804:12841   */\n      iszero\n      tag_484\n      jumpi\n        /* \"#utility.yul\":12821:12839   */\n      tag_485\n      tag_325\n      jump\t// in\n    tag_485:\n        /* \"#utility.yul\":12804:12841   */\n    tag_484:\n        /* \"#utility.yul\":12654:12848   */\n      swap3\n      swap2\n      pop\n      pop\n      jump\t// out\n        /* \"#utility.yul\":12854:13002   */\n    tag_326:\n        /* \"#utility.yul\":12956:12967   */\n      0x00\n        /* \"#utility.yul\":12993:12996   */\n      dup2\n        /* \"#utility.yul\":12978:12996   */\n      swap1\n      pop\n        /* \"#utility.yul\":12854:13002   */\n      swap3\n      swap2\n      pop\n      pop\n      jump\t// out\n        /* \"#utility.yul\":13008:13398   */\n    tag_327:\n        /* \"#utility.yul\":13114:13117   */\n      0x00\n        /* \"#utility.yul\":13142:13181   */\n      tag_488\n        /* \"#utility.yul\":13175:13180   */\n      dup3\n        /* \"#utility.yul\":13142:13181   */\n      tag_297\n      jump\t// in\n    tag_488:\n        /* \"#utility.yul\":13197:13286   */\n      tag_489\n        /* \"#utility.yul\":13279:13285   */\n      dup2\n        /* \"#utility.yul\":13274:13277   */\n      dup6\n        /* \"#utility.yul\":13197:13286   */\n      tag_326\n      jump\t// in\n    tag_489:\n        /* \"#utility.yul\":13190:13286   */\n      swap4\n      pop\n        /* \"#utility.yul\":13295:13360   */\n      tag_490\n        /* \"#utility.yul\":13353:13359   */\n      dup2\n        /* \"#utility.yul\":13348:13351   */\n      dup6\n        /* \"#utility.yul\":13341:13345   */\n      0x20\n        /* \"#utility.yul\":13334:13339   */\n      dup7\n        /* \"#utility.yul\":13330:13346   */\n      add\n        /* \"#utility.yul\":13295:13360   */\n      tag_299\n      jump\t// in\n    tag_490:\n        /* \"#utility.yul\":13385:13391   */\n      dup1\n        /* \"#utility.yul\":13380:13383   */\n      dup5\n        /* \"#utility.yul\":13376:13392   */\n      add\n        /* \"#utility.yul\":13369:13392   */\n      swap2\n      pop\n        /* \"#utility.yul\":13118:13398   */\n      pop\n        /* \"#utility.yul\":13008:13398   */\n      swap3\n      swap2\n      pop\n      pop\n      jump\t// out\n        /* \"#utility.yul\":13404:13572   */\n    tag_328:\n        /* \"#utility.yul\":13544:13564   */\n      0x696e697469616c5f696d6167652e6a736f6e0000000000000000000000000000\n        /* \"#utility.yul\":13540:13541   */\n      0x00\n        /* \"#utility.yul\":13532:13538   */\n      dup3\n        /* \"#utility.yul\":13528:13542   */\n      add\n        /* \"#utility.yul\":13521:13565   */\n      mstore\n        /* \"#utility.yul\":13404:13572   */\n      pop\n      jump\t// out\n        /* \"#utility.yul\":13578:13980   */\n    tag_329:\n        /* \"#utility.yul\":13738:13741   */\n      0x00\n        /* \"#utility.yul\":13759:13844   */\n      tag_493\n        /* \"#utility.yul\":13841:13843   */\n      0x12\n        /* \"#utility.yul\":13836:13839   */\n      dup4\n        /* \"#utility.yul\":13759:13844   */\n      tag_326\n      jump\t// in\n    tag_493:\n        /* \"#utility.yul\":13752:13844   */\n      swap2\n      pop\n        /* \"#utility.yul\":13853:13946   */\n      tag_494\n        /* \"#utility.yul\":13942:13945   */\n      dup3\n        /* \"#utility.yul\":13853:13946   */\n      tag_328\n      jump\t// in\n    tag_494:\n        /* \"#utility.yul\":13971:13973   */\n      0x12\n        /* \"#utility.yul\":13966:13969   */\n      dup3\n        /* \"#utility.yul\":13962:13974   */\n      add\n        /* \"#utility.yul\":13955:13974   */\n      swap1\n      pop\n        /* \"#utility.yul\":13578:13980   */\n      swap2\n      swap1\n      pop\n      jump\t// out\n        /* \"#utility.yul\":13986:14527   */\n    tag_174:\n        /* \"#utility.yul\":14219:14222   */\n      0x00\n        /* \"#utility.yul\":14241:14336   */\n      tag_496\n        /* \"#utility.yul\":14332:14335   */\n      dup3\n        /* \"#utility.yul\":14323:14329   */\n      dup5\n        /* \"#utility.yul\":14241:14336   */\n      tag_327\n      jump\t// in\n    tag_496:\n        /* \"#utility.yul\":14234:14336   */\n      swap2\n      pop\n        /* \"#utility.yul\":14353:14501   */\n      tag_497\n        /* \"#utility.yul\":14497:14500   */\n      dup3\n        /* \"#utility.yul\":14353:14501   */\n      tag_329\n      jump\t// in\n    tag_497:\n        /* \"#utility.yul\":14346:14501   */\n      swap2\n      pop\n        /* \"#utility.yul\":14518:14521   */\n      dup2\n        /* \"#utility.yul\":14511:14521   */\n      swap1\n      pop\n        /* \"#utility.yul\":13986:14527   */\n      swap3\n      swap2\n      pop\n      pop\n      jump\t// out\n        /* \"#utility.yul\":14533:14701   */\n    tag_330:\n        /* \"#utility.yul\":14673:14693   */\n      0x32305f646179735f696d6167652e6a736f6e0000000000000000000000000000\n        /* \"#utility.yul\":14669:14670   */\n      0x00\n        /* \"#utility.yul\":14661:14667   */\n      dup3\n        /* \"#utility.yul\":14657:14671   */\n      add\n        /* \"#utility.yul\":14650:14694   */\n      mstore\n        /* \"#utility.yul\":14533:14701   */\n      pop\n      jump\t// out\n        /* \"#utility.yul\":14707:15109   */\n    tag_331:\n        /* \"#utility.yul\":14867:14870   */\n      0x00\n        /* \"#utility.yul\":14888:14973   */\n      tag_500\n        /* \"#utility.yul\":14970:14972   */\n      0x12\n        /* \"#utility.yul\":14965:14968   */\n      dup4\n        /* \"#utility.yul\":14888:14973   */\n      tag_326\n      jump\t// in\n    tag_500:\n        /* \"#utility.yul\":14881:14973   */\n      swap2\n      pop\n        /* \"#utility.yul\":14982:15075   */\n      tag_501\n        /* \"#utility.yul\":15071:15074   */\n      dup3\n        /* \"#utility.yul\":14982:15075   */\n      tag_330\n      jump\t// in\n    tag_501:\n        /* \"#utility.yul\":15100:15102   */\n      0x12\n        /* \"#utility.yul\":15095:15098   */\n      dup3\n        /* \"#utility.yul\":15091:15103   */\n      add\n        /* \"#utility.yul\":15084:15103   */\n      swap1\n      pop\n        /* \"#utility.yul\":14707:15109   */\n      swap2\n      swap1\n      pop\n      jump\t// out\n        /* \"#utility.yul\":15115:15656   */\n    tag_179:\n        /* \"#utility.yul\":15348:15351   */\n      0x00\n        /* \"#utility.yul\":15370:15465   */\n      tag_503\n        /* \"#utility.yul\":15461:15464   */\n      dup3\n        /* \"#utility.yul\":15452:15458   */\n      dup5\n        /* \"#utility.yul\":15370:15465   */\n      tag_327\n      jump\t// in\n    tag_503:\n        /* \"#utility.yul\":15363:15465   */\n      swap2\n      pop\n        /* \"#utility.yul\":15482:15630   */\n      tag_504\n        /* \"#utility.yul\":15626:15629   */\n      dup3\n        /* \"#utility.yul\":15482:15630   */\n      tag_331\n      jump\t// in\n    tag_504:\n        /* \"#utility.yul\":15475:15630   */\n      swap2\n      pop\n        /* \"#utility.yul\":15647:15650   */\n      dup2\n        /* \"#utility.yul\":15640:15650   */\n      swap1\n      pop\n        /* \"#utility.yul\":15115:15656   */\n      swap3\n      swap2\n      pop\n      pop\n      jump\t// out\n        /* \"#utility.yul\":15662:15829   */\n    tag_332:\n        /* \"#utility.yul\":15802:15821   */\n      0x315f796561725f696d6167652e6a736f6e000000000000000000000000000000\n        /* \"#utility.yul\":15798:15799   */\n      0x00\n        /* \"#utility.yul\":15790:15796   */\n      dup3\n        /* \"#utility.yul\":15786:15800   */\n      add\n        /* \"#utility.yul\":15779:15822   */\n      mstore\n        /* \"#utility.yul\":15662:15829   */\n      pop\n      jump\t// out\n        /* \"#utility.yul\":15835:16237   */\n    tag_333:\n        /* \"#utility.yul\":15995:15998   */\n      0x00\n        /* \"#utility.yul\":16016:16101   */\n      tag_507\n        /* \"#utility.yul\":16098:16100   */\n      0x11\n        /* \"#utility.yul\":16093:16096   */\n      dup4\n        /* \"#utility.yul\":16016:16101   */\n      tag_326\n      jump\t// in\n    tag_507:\n        /* \"#utility.yul\":16009:16101   */\n      swap2\n      pop\n        /* \"#utility.yul\":16110:16203   */\n      tag_508\n        /* \"#utility.yul\":16199:16202   */\n      dup3\n        /* \"#utility.yul\":16110:16203   */\n      tag_332\n      jump\t// in\n    tag_508:\n        /* \"#utility.yul\":16228:16230   */\n      0x11\n        /* \"#utility.yul\":16223:16226   */\n      dup3\n        /* \"#utility.yul\":16219:16231   */\n      add\n        /* \"#utility.yul\":16212:16231   */\n      swap1\n      pop\n        /* \"#utility.yul\":15835:16237   */\n      swap2\n      swap1\n      pop\n      jump\t// out\n        /* \"#utility.yul\":16243:16784   */\n    tag_183:\n        /* \"#utility.yul\":16476:16479   */\n      0x00\n        /* \"#utility.yul\":16498:16593   */\n      tag_510\n        /* \"#utility.yul\":16589:16592   */\n      dup3\n        /* \"#utility.yul\":16580:16586   */\n      dup5\n        /* \"#utility.yul\":16498:16593   */\n      tag_327\n      jump\t// in\n    tag_510:\n        /* \"#utility.yul\":16491:16593   */\n      swap2\n      pop\n        /* \"#utility.yul\":16610:16758   */\n      tag_511\n        /* \"#utility.yul\":16754:16757   */\n      dup3\n        /* \"#utility.yul\":16610:16758   */\n      tag_333\n      jump\t// in\n    tag_511:\n        /* \"#utility.yul\":16603:16758   */\n      swap2\n      pop\n        /* \"#utility.yul\":16775:16778   */\n      dup2\n        /* \"#utility.yul\":16768:16778   */\n      swap1\n      pop\n        /* \"#utility.yul\":16243:16784   */\n      swap3\n      swap2\n      pop\n      pop\n      jump\t// out\n        /* \"#utility.yul\":16790:17015   */\n    tag_334:\n        /* \"#utility.yul\":16930:16964   */\n      0x4f776e61626c653a206e6577206f776e657220697320746865207a65726f2061\n        /* \"#utility.yul\":16926:16927   */\n      0x00\n        /* \"#utility.yul\":16918:16924   */\n      dup3\n        /* \"#utility.yul\":16914:16928   */\n      add\n        /* \"#utility.yul\":16907:16965   */\n      mstore\n        /* \"#utility.yul\":16999:17007   */\n      0x6464726573730000000000000000000000000000000000000000000000000000\n        /* \"#utility.yul\":16994:16996   */\n      0x20\n        /* \"#utility.yul\":16986:16992   */\n      dup3\n        /* \"#utility.yul\":16982:16997   */\n      add\n        /* \"#utility.yul\":16975:17008   */\n      mstore\n        /* \"#utility.yul\":16790:17015   */\n      pop\n      jump\t// out\n        /* \"#utility.yul\":17021:17387   */\n    tag_335:\n        /* \"#utility.yul\":17163:17166   */\n      0x00\n        /* \"#utility.yul\":17184:17251   */\n      tag_514\n        /* \"#utility.yul\":17248:17250   */\n      0x26\n        /* \"#utility.yul\":17243:17246   */\n      dup4\n        /* \"#utility.yul\":17184:17251   */\n      tag_298\n      jump\t// in\n    tag_514:\n        /* \"#utility.yul\":17177:17251   */\n      swap2\n      pop\n        /* \"#utility.yul\":17260:17353   */\n      tag_515\n        /* \"#utility.yul\":17349:17352   */\n      dup3\n        /* \"#utility.yul\":17260:17353   */\n      tag_334\n      jump\t// in\n    tag_515:\n        /* \"#utility.yul\":17378:17380   */\n      0x40\n        /* \"#utility.yul\":17373:17376   */\n      dup3\n        /* \"#utility.yul\":17369:17381   */\n      add\n        /* \"#utility.yul\":17362:17381   */\n      swap1\n      pop\n        /* \"#utility.yul\":17021:17387   */\n      swap2\n      swap1\n      pop\n      jump\t// out\n        /* \"#utility.yul\":17393:17812   */\n    tag_190:\n        /* \"#utility.yul\":17559:17563   */\n      0x00\n        /* \"#utility.yul\":17597:17599   */\n      0x20\n        /* \"#utility.yul\":17586:17595   */\n      dup3\n        /* \"#utility.yul\":17582:17600   */\n      add\n        /* \"#utility.yul\":17574:17600   */\n      swap1\n      pop\n        /* \"#utility.yul\":17646:17655   */\n      dup2\n        /* \"#utility.yul\":17640:17644   */\n      dup2\n        /* \"#utility.yul\":17636:17656   */\n      sub\n        /* \"#utility.yul\":17632:17633   */\n      0x00\n        /* \"#utility.yul\":17621:17630   */\n      dup4\n        /* \"#utility.yul\":17617:17634   */\n      add\n        /* \"#utility.yul\":17610:17657   */\n      mstore\n        /* \"#utility.yul\":17674:17805   */\n      tag_517\n        /* \"#utility.yul\":17800:17804   */\n      dup2\n        /* \"#utility.yul\":17674:17805   */\n      tag_335\n      jump\t// in\n    tag_517:\n        /* \"#utility.yul\":17666:17805   */\n      swap1\n      pop\n        /* \"#utility.yul\":17393:17812   */\n      swap2\n      swap1\n      pop\n      jump\t// out\n        /* \"#utility.yul\":17818:18000   */\n    tag_336:\n        /* \"#utility.yul\":17958:17992   */\n      0x4f776e61626c653a2063616c6c6572206973206e6f7420746865206f776e6572\n        /* \"#utility.yul\":17954:17955   */\n      0x00\n        /* \"#utility.yul\":17946:17952   */\n      dup3\n        /* \"#utility.yul\":17942:17956   */\n      add\n        /* \"#utility.yul\":17935:17993   */\n      mstore\n        /* \"#utility.yul\":17818:18000   */\n      pop\n      jump\t// out\n        /* \"#utility.yul\":18006:18372   */\n    tag_337:\n        /* \"#utility.yul\":18148:18151   */\n      0x00\n        /* \"#utility.yul\":18169:18236   */\n      tag_520\n        /* \"#utility.yul\":18233:18235   */\n      0x20\n        /* \"#utility.yul\":18228:18231   */\n      dup4\n        /* \"#utility.yul\":18169:18236   */\n      tag_298\n      jump\t// in\n    tag_520:\n        /* \"#utility.yul\":18162:18236   */\n      swap2\n      pop\n        /* \"#utility.yul\":18245:18338   */\n      tag_521\n        /* \"#utility.yul\":18334:18337   */\n      dup3\n        /* \"#utility.yul\":18245:18338   */\n      tag_336\n      jump\t// in\n    tag_521:\n        /* \"#utility.yul\":18363:18365   */\n      0x20\n        /* \"#utility.yul\":18358:18361   */\n      dup3\n        /* \"#utility.yul\":18354:18366   */\n      add\n        /* \"#utility.yul\":18347:18366   */\n      swap1\n      pop\n        /* \"#utility.yul\":18006:18372   */\n      swap2\n      swap1\n      pop\n      jump\t// out\n        /* \"#utility.yul\":18378:18797   */\n    tag_216:\n        /* \"#utility.yul\":18544:18548   */\n      0x00\n        /* \"#utility.yul\":18582:18584   */\n      0x20\n        /* \"#utility.yul\":18571:18580   */\n      dup3\n        /* \"#utility.yul\":18567:18585   */\n      add\n        /* \"#utility.yul\":18559:18585   */\n      swap1\n      pop\n        /* \"#utility.yul\":18631:18640   */\n      dup2\n        /* \"#utility.yul\":18625:18629   */\n      dup2\n        /* \"#utility.yul\":18621:18641   */\n      sub\n        /* \"#utility.yul\":18617:18618   */\n      0x00\n        /* \"#utility.yul\":18606:18615   */\n      dup4\n        /* \"#utility.yul\":18602:18619   */\n      add\n        /* \"#utility.yul\":18595:18642   */\n      mstore\n        /* \"#utility.yul\":18659:18790   */\n      tag_523\n        /* \"#utility.yul\":18785:18789   */\n      dup2\n        /* \"#utility.yul\":18659:18790   */\n      tag_337\n      jump\t// in\n    tag_523:\n        /* \"#utility.yul\":18651:18790   */\n      swap1\n      pop\n        /* \"#utility.yul\":18378:18797   */\n      swap2\n      swap1\n      pop\n      jump\t// out\n        /* \"#utility.yul\":18803:18901   */\n    tag_338:\n        /* \"#utility.yul\":18854:18860   */\n      0x00\n        /* \"#utility.yul\":18888:18893   */\n      dup2\n        /* \"#utility.yul\":18882:18894   */\n      mload\n        /* \"#utility.yul\":18872:18894   */\n      swap1\n      pop\n        /* \"#utility.yul\":18803:18901   */\n      swap2\n      swap1\n      pop\n      jump\t// out\n        /* \"#utility.yul\":18907:19075   */\n    tag_339:\n        /* \"#utility.yul\":18990:19001   */\n      0x00\n        /* \"#utility.yul\":19024:19030   */\n      dup3\n        /* \"#utility.yul\":19019:19022   */\n      dup3\n        /* \"#utility.yul\":19012:19031   */\n      mstore\n        /* \"#utility.yul\":19064:19068   */\n      0x20\n        /* \"#utility.yul\":19059:19062   */\n      dup3\n        /* \"#utility.yul\":19055:19069   */\n      add\n        /* \"#utility.yul\":19040:19069   */\n      swap1\n      pop\n        /* \"#utility.yul\":18907:19075   */\n      swap3\n      swap2\n      pop\n      pop\n      jump\t// out\n        /* \"#utility.yul\":19081:19454   */\n    tag_340:\n        /* \"#utility.yul\":19167:19170   */\n      0x00\n        /* \"#utility.yul\":19195:19233   */\n      tag_527\n        /* \"#utility.yul\":19227:19232   */\n      dup3\n        /* \"#utility.yul\":19195:19233   */\n      tag_338\n      jump\t// in\n    tag_527:\n        /* \"#utility.yul\":19249:19319   */\n      tag_528\n        /* \"#utility.yul\":19312:19318   */\n      dup2\n        /* \"#utility.yul\":19307:19310   */\n      dup6\n        /* \"#utility.yul\":19249:19319   */\n      tag_339\n      jump\t// in\n    tag_528:\n        /* \"#utility.yul\":19242:19319   */\n      swap4\n      pop\n        /* \"#utility.yul\":19328:19393   */\n      tag_529\n        /* \"#utility.yul\":19386:19392   */\n      dup2\n        /* \"#utility.yul\":19381:19384   */\n      dup6\n        /* \"#utility.yul\":19374:19378   */\n      0x20\n        /* \"#utility.yul\":19367:19372   */\n      dup7\n        /* \"#utility.yul\":19363:19379   */\n      add\n        /* \"#utility.yul\":19328:19393   */\n      tag_299\n      jump\t// in\n    tag_529:\n        /* \"#utility.yul\":19418:19447   */\n      tag_530\n        /* \"#utility.yul\":19440:19446   */\n      dup2\n        /* \"#utility.yul\":19418:19447   */\n      tag_300\n      jump\t// in\n    tag_530:\n        /* \"#utility.yul\":19413:19416   */\n      dup5\n        /* \"#utility.yul\":19409:19448   */\n      add\n        /* \"#utility.yul\":19402:19448   */\n      swap2\n      pop\n        /* \"#utility.yul\":19171:19454   */\n      pop\n        /* \"#utility.yul\":19081:19454   */\n      swap3\n      swap2\n      pop\n      pop\n      jump\t// out\n        /* \"#utility.yul\":19460:20100   */\n    tag_231:\n        /* \"#utility.yul\":19655:19659   */\n      0x00\n        /* \"#utility.yul\":19693:19696   */\n      0x80\n        /* \"#utility.yul\":19682:19691   */\n      dup3\n        /* \"#utility.yul\":19678:19697   */\n      add\n        /* \"#utility.yul\":19670:19697   */\n      swap1\n      pop\n        /* \"#utility.yul\":19707:19778   */\n      tag_532\n        /* \"#utility.yul\":19775:19776   */\n      0x00\n        /* \"#utility.yul\":19764:19773   */\n      dup4\n        /* \"#utility.yul\":19760:19777   */\n      add\n        /* \"#utility.yul\":19751:19757   */\n      dup8\n        /* \"#utility.yul\":19707:19778   */\n      tag_307\n      jump\t// in\n    tag_532:\n        /* \"#utility.yul\":19788:19860   */\n      tag_533\n        /* \"#utility.yul\":19856:19858   */\n      0x20\n        /* \"#utility.yul\":19845:19854   */\n      dup4\n        /* \"#utility.yul\":19841:19859   */\n      add\n        /* \"#utility.yul\":19832:19838   */\n      dup7\n        /* \"#utility.yul\":19788:19860   */\n      tag_307\n      jump\t// in\n    tag_533:\n        /* \"#utility.yul\":19870:19942   */\n      tag_534\n        /* \"#utility.yul\":19938:19940   */\n      0x40\n        /* \"#utility.yul\":19927:19936   */\n      dup4\n        /* \"#utility.yul\":19923:19941   */\n      add\n        /* \"#utility.yul\":19914:19920   */\n      dup6\n        /* \"#utility.yul\":19870:19942   */\n      tag_310\n      jump\t// in\n    tag_534:\n        /* \"#utility.yul\":19989:19998   */\n      dup2\n        /* \"#utility.yul\":19983:19987   */\n      dup2\n        /* \"#utility.yul\":19979:19999   */\n      sub\n        /* \"#utility.yul\":19974:19976   */\n      0x60\n        /* \"#utility.yul\":19963:19972   */\n      dup4\n        /* \"#utility.yul\":19959:19977   */\n      add\n        /* \"#utility.yul\":19952:20000   */\n      mstore\n        /* \"#utility.yul\":20017:20093   */\n      tag_535\n        /* \"#utility.yul\":20088:20092   */\n      dup2\n        /* \"#utility.yul\":20079:20085   */\n      dup5\n        /* \"#utility.yul\":20017:20093   */\n      tag_340\n      jump\t// in\n    tag_535:\n        /* \"#utility.yul\":20009:20093   */\n      swap1\n      pop\n        /* \"#utility.yul\":19460:20100   */\n      swap6\n      swap5\n      pop\n      pop\n      pop\n      pop\n      pop\n      jump\t// out\n        /* \"#utility.yul\":20106:20247   */\n    tag_341:\n        /* \"#utility.yul\":20162:20167   */\n      0x00\n        /* \"#utility.yul\":20193:20199   */\n      dup2\n        /* \"#utility.yul\":20187:20200   */\n      mload\n        /* \"#utility.yul\":20178:20200   */\n      swap1\n      pop\n        /* \"#utility.yul\":20209:20241   */\n      tag_537\n        /* \"#utility.yul\":20235:20240   */\n      dup2\n        /* \"#utility.yul\":20209:20241   */\n      tag_293\n      jump\t// in\n    tag_537:\n        /* \"#utility.yul\":20106:20247   */\n      swap3\n      swap2\n      pop\n      pop\n      jump\t// out\n        /* \"#utility.yul\":20253:20602   */\n    tag_234:\n        /* \"#utility.yul\":20322:20328   */\n      0x00\n        /* \"#utility.yul\":20371:20373   */\n      0x20\n        /* \"#utility.yul\":20359:20368   */\n      dup3\n        /* \"#utility.yul\":20350:20357   */\n      dup5\n        /* \"#utility.yul\":20346:20369   */\n      sub\n        /* \"#utility.yul\":20342:20374   */\n      slt\n        /* \"#utility.yul\":20339:20458   */\n      iszero\n      tag_539\n      jumpi\n        /* \"#utility.yul\":20377:20456   */\n      tag_540\n      tag_290\n      jump\t// in\n    tag_540:\n        /* \"#utility.yul\":20339:20458   */\n    tag_539:\n        /* \"#utility.yul\":20497:20498   */\n      0x00\n        /* \"#utility.yul\":20522:20585   */\n      tag_541\n        /* \"#utility.yul\":20577:20584   */\n      dup5\n        /* \"#utility.yul\":20568:20574   */\n      dup3\n        /* \"#utility.yul\":20557:20566   */\n      dup6\n        /* \"#utility.yul\":20553:20575   */\n      add\n        /* \"#utility.yul\":20522:20585   */\n      tag_341\n      jump\t// in\n    tag_541:\n        /* \"#utility.yul\":20512:20585   */\n      swap2\n      pop\n        /* \"#utility.yul\":20468:20595   */\n      pop\n        /* \"#utility.yul\":20253:20602   */\n      swap3\n      swap2\n      pop\n      pop\n      jump\t// out\n        /* \"#utility.yul\":20608:20940   */\n    tag_272:\n        /* \"#utility.yul\":20729:20733   */\n      0x00\n        /* \"#utility.yul\":20767:20769   */\n      0x40\n        /* \"#utility.yul\":20756:20765   */\n      dup3\n        /* \"#utility.yul\":20752:20770   */\n      add\n        /* \"#utility.yul\":20744:20770   */\n      swap1\n      pop\n        /* \"#utility.yul\":20780:20851   */\n      tag_543\n        /* \"#utility.yul\":20848:20849   */\n      0x00\n        /* \"#utility.yul\":20837:20846   */\n      dup4\n        /* \"#utility.yul\":20833:20850   */\n      add\n        /* \"#utility.yul\":20824:20830   */\n      dup6\n        /* \"#utility.yul\":20780:20851   */\n      tag_307\n      jump\t// in\n    tag_543:\n        /* \"#utility.yul\":20861:20933   */\n      tag_544\n        /* \"#utility.yul\":20929:20931   */\n      0x20\n        /* \"#utility.yul\":20918:20927   */\n      dup4\n        /* \"#utility.yul\":20914:20932   */\n      add\n        /* \"#utility.yul\":20905:20911   */\n      dup5\n        /* \"#utility.yul\":20861:20933   */\n      tag_310\n      jump\t// in\n    tag_544:\n        /* \"#utility.yul\":20608:20940   */\n      swap4\n      swap3\n      pop\n      pop\n      pop\n      jump\t// out\n\n    auxdata: 0xa26469706673582212208f1869c96c87a03fac30da41be60505e94eebc134bf37fa71ee2a390181b67b664736f6c63430008180033\n}\n",
				"bytecode": {
					"linkReferences": {},
					"object": "60a060405234801562000010575f80fd5b506040516200294638038062002946833981810160405281019062000036919062000357565b6040518060400160405280600a81526020017f44796e616d69634e4654000000000000000000000000000000000000000000008152506040518060400160405280600381526020017f44594e0000000000000000000000000000000000000000000000000000000000815250815f9081620000b29190620005dd565b508060019081620000c49190620005dd565b505050620000e7620000db6200010860201b60201c565b6200010f60201b60201c565b8060089081620000f89190620005dd565b50426080818152505050620006c1565b5f33905090565b5f60065f9054906101000a900473ffffffffffffffffffffffffffffffffffffffff1690508160065f6101000a81548173ffffffffffffffffffffffffffffffffffffffff021916908373ffffffffffffffffffffffffffffffffffffffff1602179055508173ffffffffffffffffffffffffffffffffffffffff168173ffffffffffffffffffffffffffffffffffffffff167f8be0079c531659141344cd1fd0a4f28419497f9722a3daafe3b4186f6b6457e060405160405180910390a35050565b5f604051905090565b5f80fd5b5f80fd5b5f80fd5b5f80fd5b5f601f19601f8301169050919050565b7f4e487b71000000000000000000000000000000000000000000000000000000005f52604160045260245ffd5b6200023382620001eb565b810181811067ffffffffffffffff82111715620002555762000254620001fb565b5b80604052505050565b5f62000269620001d2565b905062000277828262000228565b919050565b5f67ffffffffffffffff821115620002995762000298620001fb565b5b620002a482620001eb565b9050602081019050919050565b5f5b83811015620002d0578082015181840152602081019050620002b3565b5f8484015250505050565b5f620002f1620002eb846200027c565b6200025e565b90508281526020810184848401111562000310576200030f620001e7565b5b6200031d848285620002b1565b509392505050565b5f82601f8301126200033c576200033b620001e3565b5b81516200034e848260208601620002db565b91505092915050565b5f602082840312156200036f576200036e620001db565b5b5f82015167ffffffffffffffff8111156200038f576200038e620001df565b5b6200039d8482850162000325565b91505092915050565b5f81519050919050565b7f4e487b71000000000000000000000000000000000000000000000000000000005f52602260045260245ffd5b5f6002820490506001821680620003f557607f821691505b6020821081036200040b576200040a620003b0565b5b50919050565b5f819050815f5260205f209050919050565b5f6020601f8301049050919050565b5f82821b905092915050565b5f600883026200046f7fffffffffffffffffffffffffffffffffffffffffffffffffffffffffffffffff8262000432565b6200047b868362000432565b95508019841693508086168417925050509392505050565b5f819050919050565b5f819050919050565b5f620004c5620004bf620004b98462000493565b6200049c565b62000493565b9050919050565b5f819050919050565b620004e083620004a5565b620004f8620004ef82620004cc565b8484546200043e565b825550505050565b5f90565b6200050e62000500565b6200051b818484620004d5565b505050565b5b818110156200054257620005365f8262000504565b60018101905062000521565b5050565b601f82111562000591576200055b8162000411565b620005668462000423565b8101602085101562000576578190505b6200058e620005858562000423565b83018262000520565b50505b505050565b5f82821c905092915050565b5f620005b35f198460080262000596565b1980831691505092915050565b5f620005cd8383620005a2565b9150826002028217905092915050565b620005e882620003a6565b67ffffffffffffffff811115620006045762000603620001fb565b5b620006108254620003dd565b6200061d82828562000546565b5f60209050601f83116001811462000653575f84156200063e578287015190505b6200064a8582620005c0565b865550620006b9565b601f198416620006638662000411565b5f5b828110156200068c5784890151825560018201915060208501945060208101905062000665565b86831015620006ac5784890151620006a8601f891682620005a2565b8355505b6001600288020188555050505b505050505050565b60805161226c620006da5f395f610847015261226c5ff3fe608060405234801561000f575f80fd5b5060043610610114575f3560e01c8063715018a6116100a0578063b88d4fde1161006f578063b88d4fde146102c8578063bfc12c05146102e4578063c87b56dd14610302578063e985e9c514610332578063f2fde38b1461036257610114565b8063715018a6146102665780638da5cb5b1461027057806395d89b411461028e578063a22cb465146102ac57610114565b806323b872dd116100e757806323b872dd146101b257806340d097c3146101ce57806342842e0e146101ea5780636352211e1461020657806370a082311461023657610114565b806301ffc9a71461011857806306fdde0314610148578063081812fc14610166578063095ea7b314610196575b5f80fd5b610132600480360381019061012d9190611828565b61037e565b60405161013f919061186d565b60405180910390f35b61015061045f565b60405161015d9190611910565b60405180910390f35b610180600480360381019061017b9190611963565b6104ee565b60405161018d91906119cd565b60405180910390f35b6101b060048036038101906101ab9190611a10565b610509565b005b6101cc60048036038101906101c79190611a4e565b61051f565b005b6101e860048036038101906101e39190611a9e565b61061e565b005b61020460048036038101906101ff9190611a4e565b610661565b005b610220600480360381019061021b9190611963565b610680565b60405161022d91906119cd565b60405180910390f35b610250600480360381019061024b9190611a9e565b610691565b60405161025d9190611ad8565b60405180910390f35b61026e610747565b005b61027861075a565b60405161028591906119cd565b60405180910390f35b610296610782565b6040516102a39190611910565b60405180910390f35b6102c660048036038101906102c19190611b1b565b610812565b005b6102e260048036038101906102dd9190611c85565b610828565b005b6102ec610845565b6040516102f99190611ad8565b60405180910390f35b61031c60048036038101906103179190611963565b610869565b6040516103299190611910565b60405180910390f35b61034c60048036038101906103479190611d05565b6109b4565b604051610359919061186d565b60405180910390f35b61037c60048036038101906103779190611a9e565b610a42565b005b5f7f80ac58cd000000000000000000000000000000000000000000000000000000007bffffffffffffffffffffffffffffffffffffffffffffffffffffffff1916827bffffffffffffffffffffffffffffffffffffffffffffffffffffffff1916148061044857507f5b5e139f000000000000000000000000000000000000000000000000000000007bffffffffffffffffffffffffffffffffffffffffffffffffffffffff1916827bffffffffffffffffffffffffffffffffffffffffffffffffffffffff1916145b80610458575061045782610ac4565b5b9050919050565b60605f805461046d90611d70565b80601f016020809104026020016040519081016040528092919081815260200182805461049990611d70565b80156104e45780601f106104bb576101008083540402835291602001916104e4565b820191905f5260205f20905b8154815290600101906020018083116104c757829003601f168201915b5050505050905090565b5f6104f882610b2d565b5061050282610bb3565b9050919050565b61051b8282610516610bec565b610bf3565b5050565b5f73ffffffffffffffffffffffffffffffffffffffff168273ffffffffffffffffffffffffffffffffffffffff160361058f575f6040517f64a0ae9200000000000000000000000000000000000000000000000000000000815260040161058691906119cd565b60405180910390fd5b5f6105a2838361059d610bec565b610c05565b90508373ffffffffffffffffffffffffffffffffffffffff168173ffffffffffffffffffffffffffffffffffffffff1614610618578382826040517f64283d7b00000000000000000000000000000000000000000000000000000000815260040161060f93929190611da0565b60405180910390fd5b50505050565b610626610e10565b5f6106316007610e8e565b905061063d6007610e9a565b6106478282610eae565b4260095f8381526020019081526020015f20819055505050565b61067b83838360405180602001604052805f815250610828565b505050565b5f61068a82610b2d565b9050919050565b5f8073ffffffffffffffffffffffffffffffffffffffff168273ffffffffffffffffffffffffffffffffffffffff1603610702575f6040517f89c62b640000000000000000000000000000000000000000000000000000000081526004016106f991906119cd565b60405180910390fd5b60035f8373ffffffffffffffffffffffffffffffffffffffff1673ffffffffffffffffffffffffffffffffffffffff1681526020019081526020015f20549050919050565b61074f610e10565b6107585f610ecb565b565b5f60065f9054906101000a900473ffffffffffffffffffffffffffffffffffffffff16905090565b60606001805461079190611d70565b80601f01602080910402602001604051908101604052809291908181526020018280546107bd90611d70565b80156108085780601f106107df57610100808354040283529160200191610808565b820191905f5260205f20905b8154815290600101906020018083116107eb57829003601f168201915b5050505050905090565b61082461081d610bec565b8383610f8e565b5050565b61083384848461051f565b61083f848484846110f7565b50505050565b7f000000000000000000000000000000000000000000000000000000000000000081565b60605f73ffffffffffffffffffffffffffffffffffffffff1661088b83610680565b73ffffffffffffffffffffffffffffffffffffffff16036108e1576040517f08c379a00000000000000000000000000000000000000000000000000000000081526004016108d890611e45565b60405180910390fd5b5f621a5e0090505f6301e1338090505f60095f8681526020019081526020015f20544261090e9190611e90565b905082811015610949576109206112a9565b6040516020016109309190611f47565b60405160208183030381529060405293505050506109af565b81811015610982576109596112a9565b6040516020016109699190611fb2565b60405160208183030381529060405293505050506109af565b61098a6112a9565b60405160200161099a919061201d565b60405160208183030381529060405293505050505b919050565b5f60055f8473ffffffffffffffffffffffffffffffffffffffff1673ffffffffffffffffffffffffffffffffffffffff1681526020019081526020015f205f8373ffffffffffffffffffffffffffffffffffffffff1673ffffffffffffffffffffffffffffffffffffffff1681526020019081526020015f205f9054906101000a900460ff16905092915050565b610a4a610e10565b5f73ffffffffffffffffffffffffffffffffffffffff168173ffffffffffffffffffffffffffffffffffffffff1603610ab8576040517f08c379a0000000000000000000000000000000000000000000000000000000008152600401610aaf906120ae565b60405180910390fd5b610ac181610ecb565b50565b5f7f01ffc9a7000000000000000000000000000000000000000000000000000000007bffffffffffffffffffffffffffffffffffffffffffffffffffffffff1916827bffffffffffffffffffffffffffffffffffffffffffffffffffffffff1916149050919050565b5f80610b3883611339565b90505f73ffffffffffffffffffffffffffffffffffffffff168173ffffffffffffffffffffffffffffffffffffffff1603610baa57826040517f7e273289000000000000000000000000000000000000000000000000000000008152600401610ba19190611ad8565b60405180910390fd5b80915050919050565b5f60045f8381526020019081526020015f205f9054906101000a900473ffffffffffffffffffffffffffffffffffffffff169050919050565b5f33905090565b610c008383836001611372565b505050565b5f80610c1084611339565b90505f73ffffffffffffffffffffffffffffffffffffffff168373ffffffffffffffffffffffffffffffffffffffff1614610c5157610c50818486611531565b5b5f73ffffffffffffffffffffffffffffffffffffffff168173ffffffffffffffffffffffffffffffffffffffff1614610cdc57610c905f855f80611372565b600160035f8373ffffffffffffffffffffffffffffffffffffffff1673ffffffffffffffffffffffffffffffffffffffff1681526020019081526020015f205f82825403925050819055505b5f73ffffffffffffffffffffffffffffffffffffffff168573ffffffffffffffffffffffffffffffffffffffff1614610d5b57600160035f8773ffffffffffffffffffffffffffffffffffffffff1673ffffffffffffffffffffffffffffffffffffffff1681526020019081526020015f205f82825401925050819055505b8460025f8681526020019081526020015f205f6101000a81548173ffffffffffffffffffffffffffffffffffffffff021916908373ffffffffffffffffffffffffffffffffffffffff160217905550838573ffffffffffffffffffffffffffffffffffffffff168273ffffffffffffffffffffffffffffffffffffffff167fddf252ad1be2c89b69c2b068fc378daa952ba7f163c4a11628f55a4df523b3ef60405160405180910390a4809150509392505050565b610e18610bec565b73ffffffffffffffffffffffffffffffffffffffff16610e3661075a565b73ffffffffffffffffffffffffffffffffffffffff1614610e8c576040517f08c379a0000000000000000000000000000000000000000000000000000000008152600401610e8390612116565b60405180910390fd5b565b5f815f01549050919050565b6001815f015f828254019250508190555050565b610ec7828260405180602001604052805f8152506115f4565b5050565b5f60065f9054906101000a900473ffffffffffffffffffffffffffffffffffffffff1690508160065f6101000a81548173ffffffffffffffffffffffffffffffffffffffff021916908373ffffffffffffffffffffffffffffffffffffffff1602179055508173ffffffffffffffffffffffffffffffffffffffff168173ffffffffffffffffffffffffffffffffffffffff167f8be0079c531659141344cd1fd0a4f28419497f9722a3daafe3b4186f6b6457e060405160405180910390a35050565b5f73ffffffffffffffffffffffffffffffffffffffff168273ffffffffffffffffffffffffffffffffffffffff1603610ffe57816040517f5b08ba18000000000000000000000000000000000000000000000000000000008152600401610ff591906119cd565b60405180910390fd5b8060055f8573ffffffffffffffffffffffffffffffffffffffff1673ffffffffffffffffffffffffffffffffffffffff1681526020019081526020015f205f8473ffffffffffffffffffffffffffffffffffffffff1673ffffffffffffffffffffffffffffffffffffffff1681526020019081526020015f205f6101000a81548160ff0219169083151502179055508173ffffffffffffffffffffffffffffffffffffffff168373ffffffffffffffffffffffffffffffffffffffff167f17307eab39ab6107e8899845ad3d59bd9653f200f220920489ca2b5937696c31836040516110ea919061186d565b60405180910390a3505050565b5f8373ffffffffffffffffffffffffffffffffffffffff163b11156112a3578273ffffffffffffffffffffffffffffffffffffffff1663150b7a0261113a610bec565b8685856040518563ffffffff1660e01b815260040161115c9493929190612186565b6020604051808303815f875af192505050801561119757506040513d601f19601f8201168201806040525081019061119491906121e4565b60015b611218573d805f81146111c5576040519150601f19603f3d011682016040523d82523d5f602084013e6111ca565b606091505b505f81510361121057836040517f64a0ae9200000000000000000000000000000000000000000000000000000000815260040161120791906119cd565b60405180910390fd5b805181602001fd5b63150b7a0260e01b7bffffffffffffffffffffffffffffffffffffffffffffffffffffffff1916817bffffffffffffffffffffffffffffffffffffffffffffffffffffffff1916146112a157836040517f64a0ae9200000000000000000000000000000000000000000000000000000000815260040161129891906119cd565b60405180910390fd5b505b50505050565b6060600880546112b890611d70565b80601f01602080910402602001604051908101604052809291908181526020018280546112e490611d70565b801561132f5780601f106113065761010080835404028352916020019161132f565b820191905f5260205f20905b81548152906001019060200180831161131257829003601f168201915b5050505050905090565b5f60025f8381526020019081526020015f205f9054906101000a900473ffffffffffffffffffffffffffffffffffffffff169050919050565b80806113aa57505f73ffffffffffffffffffffffffffffffffffffffff168273ffffffffffffffffffffffffffffffffffffffff1614155b156114dc575f6113b984610b2d565b90505f73ffffffffffffffffffffffffffffffffffffffff168373ffffffffffffffffffffffffffffffffffffffff161415801561142357508273ffffffffffffffffffffffffffffffffffffffff168173ffffffffffffffffffffffffffffffffffffffff1614155b8015611436575061143481846109b4565b155b1561147857826040517fa9fbf51f00000000000000000000000000000000000000000000000000000000815260040161146f91906119cd565b60405180910390fd5b81156114da57838573ffffffffffffffffffffffffffffffffffffffff168273ffffffffffffffffffffffffffffffffffffffff167f8c5be1e5ebec7d5bd14f71427d1e84f3dd0314c0f7b2291e5b200ac8c7c3b92560405160405180910390a45b505b8360045f8581526020019081526020015f205f6101000a81548173ffffffffffffffffffffffffffffffffffffffff021916908373ffffffffffffffffffffffffffffffffffffffff16021790555050505050565b61153c83838361160f565b6115ef575f73ffffffffffffffffffffffffffffffffffffffff168373ffffffffffffffffffffffffffffffffffffffff16036115b057806040517f7e2732890000000000000000000000000000000000000000000000000000000081526004016115a79190611ad8565b60405180910390fd5b81816040517f177e802f0000000000000000000000000000000000000000000000000000000081526004016115e692919061220f565b60405180910390fd5b505050565b6115fe83836116cf565b61160a5f8484846110f7565b505050565b5f8073ffffffffffffffffffffffffffffffffffffffff168373ffffffffffffffffffffffffffffffffffffffff16141580156116c657508273ffffffffffffffffffffffffffffffffffffffff168473ffffffffffffffffffffffffffffffffffffffff161480611687575061168684846109b4565b5b806116c557508273ffffffffffffffffffffffffffffffffffffffff166116ad83610bb3565b73ffffffffffffffffffffffffffffffffffffffff16145b5b90509392505050565b5f73ffffffffffffffffffffffffffffffffffffffff168273ffffffffffffffffffffffffffffffffffffffff160361173f575f6040517f64a0ae9200000000000000000000000000000000000000000000000000000000815260040161173691906119cd565b60405180910390fd5b5f61174b83835f610c05565b90505f73ffffffffffffffffffffffffffffffffffffffff168173ffffffffffffffffffffffffffffffffffffffff16146117bd575f6040517f73c6ac6e0000000000000000000000000000000000000000000000000000000081526004016117b491906119cd565b60405180910390fd5b505050565b5f604051905090565b5f80fd5b5f80fd5b5f7fffffffff0000000000000000000000000000000000000000000000000000000082169050919050565b611807816117d3565b8114611811575f80fd5b50565b5f81359050611822816117fe565b92915050565b5f6020828403121561183d5761183c6117cb565b5b5f61184a84828501611814565b91505092915050565b5f8115159050919050565b61186781611853565b82525050565b5f6020820190506118805f83018461185e565b92915050565b5f81519050919050565b5f82825260208201905092915050565b5f5b838110156118bd5780820151818401526020810190506118a2565b5f8484015250505050565b5f601f19601f8301169050919050565b5f6118e282611886565b6118ec8185611890565b93506118fc8185602086016118a0565b611905816118c8565b840191505092915050565b5f6020820190508181035f83015261192881846118d8565b905092915050565b5f819050919050565b61194281611930565b811461194c575f80fd5b50565b5f8135905061195d81611939565b92915050565b5f60208284031215611978576119776117cb565b5b5f6119858482850161194f565b91505092915050565b5f73ffffffffffffffffffffffffffffffffffffffff82169050919050565b5f6119b78261198e565b9050919050565b6119c7816119ad565b82525050565b5f6020820190506119e05f8301846119be565b92915050565b6119ef816119ad565b81146119f9575f80fd5b50565b5f81359050611a0a816119e6565b92915050565b5f8060408385031215611a2657611a256117cb565b5b5f611a33858286016119fc565b9250506020611a448582860161194f565b9150509250929050565b5f805f60608486031215611a6557611a646117cb565b5b5f611a72868287016119fc565b9350506020611a83868287016119fc565b9250506040611a948682870161194f565b9150509250925092565b5f60208284031215611ab357611ab26117cb565b5b5f611ac0848285016119fc565b91505092915050565b611ad281611930565b82525050565b5f602082019050611aeb5f830184611ac9565b92915050565b611afa81611853565b8114611b04575f80fd5b50565b5f81359050611b1581611af1565b92915050565b5f8060408385031215611b3157611b306117cb565b5b5f611b3e858286016119fc565b9250506020611b4f85828601611b07565b9150509250929050565b5f80fd5b5f80fd5b7f4e487b71000000000000000000000000000000000000000000000000000000005f52604160045260245ffd5b611b97826118c8565b810181811067ffffffffffffffff82111715611bb657611bb5611b61565b5b80604052505050565b5f611bc86117c2565b9050611bd48282611b8e565b919050565b5f67ffffffffffffffff821115611bf357611bf2611b61565b5b611bfc826118c8565b9050602081019050919050565b828183375f83830152505050565b5f611c29611c2484611bd9565b611bbf565b905082815260208101848484011115611c4557611c44611b5d565b5b611c50848285611c09565b509392505050565b5f82601f830112611c6c57611c6b611b59565b5b8135611c7c848260208601611c17565b91505092915050565b5f805f8060808587031215611c9d57611c9c6117cb565b5b5f611caa878288016119fc565b9450506020611cbb878288016119fc565b9350506040611ccc8782880161194f565b925050606085013567ffffffffffffffff811115611ced57611cec6117cf565b5b611cf987828801611c58565b91505092959194509250565b5f8060408385031215611d1b57611d1a6117cb565b5b5f611d28858286016119fc565b9250506020611d39858286016119fc565b9150509250929050565b7f4e487b71000000000000000000000000000000000000000000000000000000005f52602260045260245ffd5b5f6002820490506001821680611d8757607f821691505b602082108103611d9a57611d99611d43565b5b50919050565b5f606082019050611db35f8301866119be565b611dc06020830185611ac9565b611dcd60408301846119be565b949350505050565b7f4552433732314d657461646174613a2055524920717565727920666f72206e6f5f8201527f6e6578697374656e7420746f6b656e0000000000000000000000000000000000602082015250565b5f611e2f602f83611890565b9150611e3a82611dd5565b604082019050919050565b5f6020820190508181035f830152611e5c81611e23565b9050919050565b7f4e487b71000000000000000000000000000000000000000000000000000000005f52601160045260245ffd5b5f611e9a82611930565b9150611ea583611930565b9250828203905081811115611ebd57611ebc611e63565b5b92915050565b5f81905092915050565b5f611ed782611886565b611ee18185611ec3565b9350611ef18185602086016118a0565b80840191505092915050565b7f696e697469616c5f696d6167652e6a736f6e00000000000000000000000000005f82015250565b5f611f31601283611ec3565b9150611f3c82611efd565b601282019050919050565b5f611f528284611ecd565b9150611f5d82611f25565b915081905092915050565b7f32305f646179735f696d6167652e6a736f6e00000000000000000000000000005f82015250565b5f611f9c601283611ec3565b9150611fa782611f68565b601282019050919050565b5f611fbd8284611ecd565b9150611fc882611f90565b915081905092915050565b7f315f796561725f696d6167652e6a736f6e0000000000000000000000000000005f82015250565b5f612007601183611ec3565b915061201282611fd3565b601182019050919050565b5f6120288284611ecd565b915061203382611ffb565b915081905092915050565b7f4f776e61626c653a206e6577206f776e657220697320746865207a65726f20615f8201527f6464726573730000000000000000000000000000000000000000000000000000602082015250565b5f612098602683611890565b91506120a38261203e565b604082019050919050565b5f6020820190508181035f8301526120c58161208c565b9050919050565b7f4f776e61626c653a2063616c6c6572206973206e6f7420746865206f776e65725f82015250565b5f612100602083611890565b915061210b826120cc565b602082019050919050565b5f6020820190508181035f83015261212d816120f4565b9050919050565b5f81519050919050565b5f82825260208201905092915050565b5f61215882612134565b612162818561213e565b93506121728185602086016118a0565b61217b816118c8565b840191505092915050565b5f6080820190506121995f8301876119be565b6121a660208301866119be565b6121b36040830185611ac9565b81810360608301526121c5818461214e565b905095945050505050565b5f815190506121de816117fe565b92915050565b5f602082840312156121f9576121f86117cb565b5b5f612206848285016121d0565b91505092915050565b5f6040820190506122225f8301856119be565b61222f6020830184611ac9565b939250505056fea26469706673582212208f1869c96c87a03fac30da41be60505e94eebc134bf37fa71ee2a390181b67b664736f6c63430008180033",
					"opcodes": "PUSH1 0xA0 PUSH1 0x40 MSTORE CALLVALUE DUP1 ISZERO PUSH3 0x10 JUMPI PUSH0 DUP1 REVERT JUMPDEST POP PUSH1 0x40 MLOAD PUSH3 0x2946 CODESIZE SUB DUP1 PUSH3 0x2946 DUP4 CODECOPY DUP2 DUP2 ADD PUSH1 0x40 MSTORE DUP2 ADD SWAP1 PUSH3 0x36 SWAP2 SWAP1 PUSH3 0x357 JUMP JUMPDEST PUSH1 0x40 MLOAD DUP1 PUSH1 0x40 ADD PUSH1 0x40 MSTORE DUP1 PUSH1 0xA DUP2 MSTORE PUSH1 0x20 ADD PUSH32 0x44796E616D69634E465400000000000000000000000000000000000000000000 DUP2 MSTORE POP PUSH1 0x40 MLOAD DUP1 PUSH1 0x40 ADD PUSH1 0x40 MSTORE DUP1 PUSH1 0x3 DUP2 MSTORE PUSH1 0x20 ADD PUSH32 0x44594E0000000000000000000000000000000000000000000000000000000000 DUP2 MSTORE POP DUP2 PUSH0 SWAP1 DUP2 PUSH3 0xB2 SWAP2 SWAP1 PUSH3 0x5DD JUMP JUMPDEST POP DUP1 PUSH1 0x1 SWAP1 DUP2 PUSH3 0xC4 SWAP2 SWAP1 PUSH3 0x5DD JUMP JUMPDEST POP POP POP PUSH3 0xE7 PUSH3 0xDB PUSH3 0x108 PUSH1 0x20 SHL PUSH1 0x20 SHR JUMP JUMPDEST PUSH3 0x10F PUSH1 0x20 SHL PUSH1 0x20 SHR JUMP JUMPDEST DUP1 PUSH1 0x8 SWAP1 DUP2 PUSH3 0xF8 SWAP2 SWAP1 PUSH3 0x5DD JUMP JUMPDEST POP TIMESTAMP PUSH1 0x80 DUP2 DUP2 MSTORE POP POP POP PUSH3 0x6C1 JUMP JUMPDEST PUSH0 CALLER SWAP1 POP SWAP1 JUMP JUMPDEST PUSH0 PUSH1 0x6 PUSH0 SWAP1 SLOAD SWAP1 PUSH2 0x100 EXP SWAP1 DIV PUSH20 0xFFFFFFFFFFFFFFFFFFFFFFFFFFFFFFFFFFFFFFFF AND SWAP1 POP DUP2 PUSH1 0x6 PUSH0 PUSH2 0x100 EXP DUP2 SLOAD DUP2 PUSH20 0xFFFFFFFFFFFFFFFFFFFFFFFFFFFFFFFFFFFFFFFF MUL NOT AND SWAP1 DUP4 PUSH20 0xFFFFFFFFFFFFFFFFFFFFFFFFFFFFFFFFFFFFFFFF AND MUL OR SWAP1 SSTORE POP DUP2 PUSH20 0xFFFFFFFFFFFFFFFFFFFFFFFFFFFFFFFFFFFFFFFF AND DUP2 PUSH20 0xFFFFFFFFFFFFFFFFFFFFFFFFFFFFFFFFFFFFFFFF AND PUSH32 0x8BE0079C531659141344CD1FD0A4F28419497F9722A3DAAFE3B4186F6B6457E0 PUSH1 0x40 MLOAD PUSH1 0x40 MLOAD DUP1 SWAP2 SUB SWAP1 LOG3 POP POP JUMP JUMPDEST PUSH0 PUSH1 0x40 MLOAD SWAP1 POP SWAP1 JUMP JUMPDEST PUSH0 DUP1 REVERT JUMPDEST PUSH0 DUP1 REVERT JUMPDEST PUSH0 DUP1 REVERT JUMPDEST PUSH0 DUP1 REVERT JUMPDEST PUSH0 PUSH1 0x1F NOT PUSH1 0x1F DUP4 ADD AND SWAP1 POP SWAP2 SWAP1 POP JUMP JUMPDEST PUSH32 0x4E487B7100000000000000000000000000000000000000000000000000000000 PUSH0 MSTORE PUSH1 0x41 PUSH1 0x4 MSTORE PUSH1 0x24 PUSH0 REVERT JUMPDEST PUSH3 0x233 DUP3 PUSH3 0x1EB JUMP JUMPDEST DUP2 ADD DUP2 DUP2 LT PUSH8 0xFFFFFFFFFFFFFFFF DUP3 GT OR ISZERO PUSH3 0x255 JUMPI PUSH3 0x254 PUSH3 0x1FB JUMP JUMPDEST JUMPDEST DUP1 PUSH1 0x40 MSTORE POP POP POP JUMP JUMPDEST PUSH0 PUSH3 0x269 PUSH3 0x1D2 JUMP JUMPDEST SWAP1 POP PUSH3 0x277 DUP3 DUP3 PUSH3 0x228 JUMP JUMPDEST SWAP2 SWAP1 POP JUMP JUMPDEST PUSH0 PUSH8 0xFFFFFFFFFFFFFFFF DUP3 GT ISZERO PUSH3 0x299 JUMPI PUSH3 0x298 PUSH3 0x1FB JUMP JUMPDEST JUMPDEST PUSH3 0x2A4 DUP3 PUSH3 0x1EB JUMP JUMPDEST SWAP1 POP PUSH1 0x20 DUP2 ADD SWAP1 POP SWAP2 SWAP1 POP JUMP JUMPDEST PUSH0 JUMPDEST DUP4 DUP2 LT ISZERO PUSH3 0x2D0 JUMPI DUP1 DUP3 ADD MLOAD DUP2 DUP5 ADD MSTORE PUSH1 0x20 DUP2 ADD SWAP1 POP PUSH3 0x2B3 JUMP JUMPDEST PUSH0 DUP5 DUP5 ADD MSTORE POP POP POP POP JUMP JUMPDEST PUSH0 PUSH3 0x2F1 PUSH3 0x2EB DUP5 PUSH3 0x27C JUMP JUMPDEST PUSH3 0x25E JUMP JUMPDEST SWAP1 POP DUP3 DUP2 MSTORE PUSH1 0x20 DUP2 ADD DUP5 DUP5 DUP5 ADD GT ISZERO PUSH3 0x310 JUMPI PUSH3 0x30F PUSH3 0x1E7 JUMP JUMPDEST JUMPDEST PUSH3 0x31D DUP5 DUP3 DUP6 PUSH3 0x2B1 JUMP JUMPDEST POP SWAP4 SWAP3 POP POP POP JUMP JUMPDEST PUSH0 DUP3 PUSH1 0x1F DUP4 ADD SLT PUSH3 0x33C JUMPI PUSH3 0x33B PUSH3 0x1E3 JUMP JUMPDEST JUMPDEST DUP2 MLOAD PUSH3 0x34E DUP5 DUP3 PUSH1 0x20 DUP7 ADD PUSH3 0x2DB JUMP JUMPDEST SWAP2 POP POP SWAP3 SWAP2 POP POP JUMP JUMPDEST PUSH0 PUSH1 0x20 DUP3 DUP5 SUB SLT ISZERO PUSH3 0x36F JUMPI PUSH3 0x36E PUSH3 0x1DB JUMP JUMPDEST JUMPDEST PUSH0 DUP3 ADD MLOAD PUSH8 0xFFFFFFFFFFFFFFFF DUP2 GT ISZERO PUSH3 0x38F JUMPI PUSH3 0x38E PUSH3 0x1DF JUMP JUMPDEST JUMPDEST PUSH3 0x39D DUP5 DUP3 DUP6 ADD PUSH3 0x325 JUMP JUMPDEST SWAP2 POP POP SWAP3 SWAP2 POP POP JUMP JUMPDEST PUSH0 DUP2 MLOAD SWAP1 POP SWAP2 SWAP1 POP JUMP JUMPDEST PUSH32 0x4E487B7100000000000000000000000000000000000000000000000000000000 PUSH0 MSTORE PUSH1 0x22 PUSH1 0x4 MSTORE PUSH1 0x24 PUSH0 REVERT JUMPDEST PUSH0 PUSH1 0x2 DUP3 DIV SWAP1 POP PUSH1 0x1 DUP3 AND DUP1 PUSH3 0x3F5 JUMPI PUSH1 0x7F DUP3 AND SWAP2 POP JUMPDEST PUSH1 0x20 DUP3 LT DUP2 SUB PUSH3 0x40B JUMPI PUSH3 0x40A PUSH3 0x3B0 JUMP JUMPDEST JUMPDEST POP SWAP2 SWAP1 POP JUMP JUMPDEST PUSH0 DUP2 SWAP1 POP DUP2 PUSH0 MSTORE PUSH1 0x20 PUSH0 KECCAK256 SWAP1 POP SWAP2 SWAP1 POP JUMP JUMPDEST PUSH0 PUSH1 0x20 PUSH1 0x1F DUP4 ADD DIV SWAP1 POP SWAP2 SWAP1 POP JUMP JUMPDEST PUSH0 DUP3 DUP3 SHL SWAP1 POP SWAP3 SWAP2 POP POP JUMP JUMPDEST PUSH0 PUSH1 0x8 DUP4 MUL PUSH3 0x46F PUSH32 0xFFFFFFFFFFFFFFFFFFFFFFFFFFFFFFFFFFFFFFFFFFFFFFFFFFFFFFFFFFFFFFFF DUP3 PUSH3 0x432 JUMP JUMPDEST PUSH3 0x47B DUP7 DUP4 PUSH3 0x432 JUMP JUMPDEST SWAP6 POP DUP1 NOT DUP5 AND SWAP4 POP DUP1 DUP7 AND DUP5 OR SWAP3 POP POP POP SWAP4 SWAP3 POP POP POP JUMP JUMPDEST PUSH0 DUP2 SWAP1 POP SWAP2 SWAP1 POP JUMP JUMPDEST PUSH0 DUP2 SWAP1 POP SWAP2 SWAP1 POP JUMP JUMPDEST PUSH0 PUSH3 0x4C5 PUSH3 0x4BF PUSH3 0x4B9 DUP5 PUSH3 0x493 JUMP JUMPDEST PUSH3 0x49C JUMP JUMPDEST PUSH3 0x493 JUMP JUMPDEST SWAP1 POP SWAP2 SWAP1 POP JUMP JUMPDEST PUSH0 DUP2 SWAP1 POP SWAP2 SWAP1 POP JUMP JUMPDEST PUSH3 0x4E0 DUP4 PUSH3 0x4A5 JUMP JUMPDEST PUSH3 0x4F8 PUSH3 0x4EF DUP3 PUSH3 0x4CC JUMP JUMPDEST DUP5 DUP5 SLOAD PUSH3 0x43E JUMP JUMPDEST DUP3 SSTORE POP POP POP POP JUMP JUMPDEST PUSH0 SWAP1 JUMP JUMPDEST PUSH3 0x50E PUSH3 0x500 JUMP JUMPDEST PUSH3 0x51B DUP2 DUP5 DUP5 PUSH3 0x4D5 JUMP JUMPDEST POP POP POP JUMP JUMPDEST JUMPDEST DUP2 DUP2 LT ISZERO PUSH3 0x542 JUMPI PUSH3 0x536 PUSH0 DUP3 PUSH3 0x504 JUMP JUMPDEST PUSH1 0x1 DUP2 ADD SWAP1 POP PUSH3 0x521 JUMP JUMPDEST POP POP JUMP JUMPDEST PUSH1 0x1F DUP3 GT ISZERO PUSH3 0x591 JUMPI PUSH3 0x55B DUP2 PUSH3 0x411 JUMP JUMPDEST PUSH3 0x566 DUP5 PUSH3 0x423 JUMP JUMPDEST DUP2 ADD PUSH1 0x20 DUP6 LT ISZERO PUSH3 0x576 JUMPI DUP2 SWAP1 POP JUMPDEST PUSH3 0x58E PUSH3 0x585 DUP6 PUSH3 0x423 JUMP JUMPDEST DUP4 ADD DUP3 PUSH3 0x520 JUMP JUMPDEST POP POP JUMPDEST POP POP POP JUMP JUMPDEST PUSH0 DUP3 DUP3 SHR SWAP1 POP SWAP3 SWAP2 POP POP JUMP JUMPDEST PUSH0 PUSH3 0x5B3 PUSH0 NOT DUP5 PUSH1 0x8 MUL PUSH3 0x596 JUMP JUMPDEST NOT DUP1 DUP4 AND SWAP2 POP POP SWAP3 SWAP2 POP POP JUMP JUMPDEST PUSH0 PUSH3 0x5CD DUP4 DUP4 PUSH3 0x5A2 JUMP JUMPDEST SWAP2 POP DUP3 PUSH1 0x2 MUL DUP3 OR SWAP1 POP SWAP3 SWAP2 POP POP JUMP JUMPDEST PUSH3 0x5E8 DUP3 PUSH3 0x3A6 JUMP JUMPDEST PUSH8 0xFFFFFFFFFFFFFFFF DUP2 GT ISZERO PUSH3 0x604 JUMPI PUSH3 0x603 PUSH3 0x1FB JUMP JUMPDEST JUMPDEST PUSH3 0x610 DUP3 SLOAD PUSH3 0x3DD JUMP JUMPDEST PUSH3 0x61D DUP3 DUP3 DUP6 PUSH3 0x546 JUMP JUMPDEST PUSH0 PUSH1 0x20 SWAP1 POP PUSH1 0x1F DUP4 GT PUSH1 0x1 DUP2 EQ PUSH3 0x653 JUMPI PUSH0 DUP5 ISZERO PUSH3 0x63E JUMPI DUP3 DUP8 ADD MLOAD SWAP1 POP JUMPDEST PUSH3 0x64A DUP6 DUP3 PUSH3 0x5C0 JUMP JUMPDEST DUP7 SSTORE POP PUSH3 0x6B9 JUMP JUMPDEST PUSH1 0x1F NOT DUP5 AND PUSH3 0x663 DUP7 PUSH3 0x411 JUMP JUMPDEST PUSH0 JUMPDEST DUP3 DUP2 LT ISZERO PUSH3 0x68C JUMPI DUP5 DUP10 ADD MLOAD DUP3 SSTORE PUSH1 0x1 DUP3 ADD SWAP2 POP PUSH1 0x20 DUP6 ADD SWAP5 POP PUSH1 0x20 DUP2 ADD SWAP1 POP PUSH3 0x665 JUMP JUMPDEST DUP7 DUP4 LT ISZERO PUSH3 0x6AC JUMPI DUP5 DUP10 ADD MLOAD PUSH3 0x6A8 PUSH1 0x1F DUP10 AND DUP3 PUSH3 0x5A2 JUMP JUMPDEST DUP4 SSTORE POP JUMPDEST PUSH1 0x1 PUSH1 0x2 DUP9 MUL ADD DUP9 SSTORE POP POP POP JUMPDEST POP POP POP POP POP POP JUMP JUMPDEST PUSH1 0x80 MLOAD PUSH2 0x226C PUSH3 0x6DA PUSH0 CODECOPY PUSH0 PUSH2 0x847 ADD MSTORE PUSH2 0x226C PUSH0 RETURN INVALID PUSH1 0x80 PUSH1 0x40 MSTORE CALLVALUE DUP1 ISZERO PUSH2 0xF JUMPI PUSH0 DUP1 REVERT JUMPDEST POP PUSH1 0x4 CALLDATASIZE LT PUSH2 0x114 JUMPI PUSH0 CALLDATALOAD PUSH1 0xE0 SHR DUP1 PUSH4 0x715018A6 GT PUSH2 0xA0 JUMPI DUP1 PUSH4 0xB88D4FDE GT PUSH2 0x6F JUMPI DUP1 PUSH4 0xB88D4FDE EQ PUSH2 0x2C8 JUMPI DUP1 PUSH4 0xBFC12C05 EQ PUSH2 0x2E4 JUMPI DUP1 PUSH4 0xC87B56DD EQ PUSH2 0x302 JUMPI DUP1 PUSH4 0xE985E9C5 EQ PUSH2 0x332 JUMPI DUP1 PUSH4 0xF2FDE38B EQ PUSH2 0x362 JUMPI PUSH2 0x114 JUMP JUMPDEST DUP1 PUSH4 0x715018A6 EQ PUSH2 0x266 JUMPI DUP1 PUSH4 0x8DA5CB5B EQ PUSH2 0x270 JUMPI DUP1 PUSH4 0x95D89B41 EQ PUSH2 0x28E JUMPI DUP1 PUSH4 0xA22CB465 EQ PUSH2 0x2AC JUMPI PUSH2 0x114 JUMP JUMPDEST DUP1 PUSH4 0x23B872DD GT PUSH2 0xE7 JUMPI DUP1 PUSH4 0x23B872DD EQ PUSH2 0x1B2 JUMPI DUP1 PUSH4 0x40D097C3 EQ PUSH2 0x1CE JUMPI DUP1 PUSH4 0x42842E0E EQ PUSH2 0x1EA JUMPI DUP1 PUSH4 0x6352211E EQ PUSH2 0x206 JUMPI DUP1 PUSH4 0x70A08231 EQ PUSH2 0x236 JUMPI PUSH2 0x114 JUMP JUMPDEST DUP1 PUSH4 0x1FFC9A7 EQ PUSH2 0x118 JUMPI DUP1 PUSH4 0x6FDDE03 EQ PUSH2 0x148 JUMPI DUP1 PUSH4 0x81812FC EQ PUSH2 0x166 JUMPI DUP1 PUSH4 0x95EA7B3 EQ PUSH2 0x196 JUMPI JUMPDEST PUSH0 DUP1 REVERT JUMPDEST PUSH2 0x132 PUSH1 0x4 DUP1 CALLDATASIZE SUB DUP2 ADD SWAP1 PUSH2 0x12D SWAP2 SWAP1 PUSH2 0x1828 JUMP JUMPDEST PUSH2 0x37E JUMP JUMPDEST PUSH1 0x40 MLOAD PUSH2 0x13F SWAP2 SWAP1 PUSH2 0x186D JUMP JUMPDEST PUSH1 0x40 MLOAD DUP1 SWAP2 SUB SWAP1 RETURN JUMPDEST PUSH2 0x150 PUSH2 0x45F JUMP JUMPDEST PUSH1 0x40 MLOAD PUSH2 0x15D SWAP2 SWAP1 PUSH2 0x1910 JUMP JUMPDEST PUSH1 0x40 MLOAD DUP1 SWAP2 SUB SWAP1 RETURN JUMPDEST PUSH2 0x180 PUSH1 0x4 DUP1 CALLDATASIZE SUB DUP2 ADD SWAP1 PUSH2 0x17B SWAP2 SWAP1 PUSH2 0x1963 JUMP JUMPDEST PUSH2 0x4EE JUMP JUMPDEST PUSH1 0x40 MLOAD PUSH2 0x18D SWAP2 SWAP1 PUSH2 0x19CD JUMP JUMPDEST PUSH1 0x40 MLOAD DUP1 SWAP2 SUB SWAP1 RETURN JUMPDEST PUSH2 0x1B0 PUSH1 0x4 DUP1 CALLDATASIZE SUB DUP2 ADD SWAP1 PUSH2 0x1AB SWAP2 SWAP1 PUSH2 0x1A10 JUMP JUMPDEST PUSH2 0x509 JUMP JUMPDEST STOP JUMPDEST PUSH2 0x1CC PUSH1 0x4 DUP1 CALLDATASIZE SUB DUP2 ADD SWAP1 PUSH2 0x1C7 SWAP2 SWAP1 PUSH2 0x1A4E JUMP JUMPDEST PUSH2 0x51F JUMP JUMPDEST STOP JUMPDEST PUSH2 0x1E8 PUSH1 0x4 DUP1 CALLDATASIZE SUB DUP2 ADD SWAP1 PUSH2 0x1E3 SWAP2 SWAP1 PUSH2 0x1A9E JUMP JUMPDEST PUSH2 0x61E JUMP JUMPDEST STOP JUMPDEST PUSH2 0x204 PUSH1 0x4 DUP1 CALLDATASIZE SUB DUP2 ADD SWAP1 PUSH2 0x1FF SWAP2 SWAP1 PUSH2 0x1A4E JUMP JUMPDEST PUSH2 0x661 JUMP JUMPDEST STOP JUMPDEST PUSH2 0x220 PUSH1 0x4 DUP1 CALLDATASIZE SUB DUP2 ADD SWAP1 PUSH2 0x21B SWAP2 SWAP1 PUSH2 0x1963 JUMP JUMPDEST PUSH2 0x680 JUMP JUMPDEST PUSH1 0x40 MLOAD PUSH2 0x22D SWAP2 SWAP1 PUSH2 0x19CD JUMP JUMPDEST PUSH1 0x40 MLOAD DUP1 SWAP2 SUB SWAP1 RETURN JUMPDEST PUSH2 0x250 PUSH1 0x4 DUP1 CALLDATASIZE SUB DUP2 ADD SWAP1 PUSH2 0x24B SWAP2 SWAP1 PUSH2 0x1A9E JUMP JUMPDEST PUSH2 0x691 JUMP JUMPDEST PUSH1 0x40 MLOAD PUSH2 0x25D SWAP2 SWAP1 PUSH2 0x1AD8 JUMP JUMPDEST PUSH1 0x40 MLOAD DUP1 SWAP2 SUB SWAP1 RETURN JUMPDEST PUSH2 0x26E PUSH2 0x747 JUMP JUMPDEST STOP JUMPDEST PUSH2 0x278 PUSH2 0x75A JUMP JUMPDEST PUSH1 0x40 MLOAD PUSH2 0x285 SWAP2 SWAP1 PUSH2 0x19CD JUMP JUMPDEST PUSH1 0x40 MLOAD DUP1 SWAP2 SUB SWAP1 RETURN JUMPDEST PUSH2 0x296 PUSH2 0x782 JUMP JUMPDEST PUSH1 0x40 MLOAD PUSH2 0x2A3 SWAP2 SWAP1 PUSH2 0x1910 JUMP JUMPDEST PUSH1 0x40 MLOAD DUP1 SWAP2 SUB SWAP1 RETURN JUMPDEST PUSH2 0x2C6 PUSH1 0x4 DUP1 CALLDATASIZE SUB DUP2 ADD SWAP1 PUSH2 0x2C1 SWAP2 SWAP1 PUSH2 0x1B1B JUMP JUMPDEST PUSH2 0x812 JUMP JUMPDEST STOP JUMPDEST PUSH2 0x2E2 PUSH1 0x4 DUP1 CALLDATASIZE SUB DUP2 ADD SWAP1 PUSH2 0x2DD SWAP2 SWAP1 PUSH2 0x1C85 JUMP JUMPDEST PUSH2 0x828 JUMP JUMPDEST STOP JUMPDEST PUSH2 0x2EC PUSH2 0x845 JUMP JUMPDEST PUSH1 0x40 MLOAD PUSH2 0x2F9 SWAP2 SWAP1 PUSH2 0x1AD8 JUMP JUMPDEST PUSH1 0x40 MLOAD DUP1 SWAP2 SUB SWAP1 RETURN JUMPDEST PUSH2 0x31C PUSH1 0x4 DUP1 CALLDATASIZE SUB DUP2 ADD SWAP1 PUSH2 0x317 SWAP2 SWAP1 PUSH2 0x1963 JUMP JUMPDEST PUSH2 0x869 JUMP JUMPDEST PUSH1 0x40 MLOAD PUSH2 0x329 SWAP2 SWAP1 PUSH2 0x1910 JUMP JUMPDEST PUSH1 0x40 MLOAD DUP1 SWAP2 SUB SWAP1 RETURN JUMPDEST PUSH2 0x34C PUSH1 0x4 DUP1 CALLDATASIZE SUB DUP2 ADD SWAP1 PUSH2 0x347 SWAP2 SWAP1 PUSH2 0x1D05 JUMP JUMPDEST PUSH2 0x9B4 JUMP JUMPDEST PUSH1 0x40 MLOAD PUSH2 0x359 SWAP2 SWAP1 PUSH2 0x186D JUMP JUMPDEST PUSH1 0x40 MLOAD DUP1 SWAP2 SUB SWAP1 RETURN JUMPDEST PUSH2 0x37C PUSH1 0x4 DUP1 CALLDATASIZE SUB DUP2 ADD SWAP1 PUSH2 0x377 SWAP2 SWAP1 PUSH2 0x1A9E JUMP JUMPDEST PUSH2 0xA42 JUMP JUMPDEST STOP JUMPDEST PUSH0 PUSH32 0x80AC58CD00000000000000000000000000000000000000000000000000000000 PUSH28 0xFFFFFFFFFFFFFFFFFFFFFFFFFFFFFFFFFFFFFFFFFFFFFFFFFFFFFFFF NOT AND DUP3 PUSH28 0xFFFFFFFFFFFFFFFFFFFFFFFFFFFFFFFFFFFFFFFFFFFFFFFFFFFFFFFF NOT AND EQ DUP1 PUSH2 0x448 JUMPI POP PUSH32 0x5B5E139F00000000000000000000000000000000000000000000000000000000 PUSH28 0xFFFFFFFFFFFFFFFFFFFFFFFFFFFFFFFFFFFFFFFFFFFFFFFFFFFFFFFF NOT AND DUP3 PUSH28 0xFFFFFFFFFFFFFFFFFFFFFFFFFFFFFFFFFFFFFFFFFFFFFFFFFFFFFFFF NOT AND EQ JUMPDEST DUP1 PUSH2 0x458 JUMPI POP PUSH2 0x457 DUP3 PUSH2 0xAC4 JUMP JUMPDEST JUMPDEST SWAP1 POP SWAP2 SWAP1 POP JUMP JUMPDEST PUSH1 0x60 PUSH0 DUP1 SLOAD PUSH2 0x46D SWAP1 PUSH2 0x1D70 JUMP JUMPDEST DUP1 PUSH1 0x1F ADD PUSH1 0x20 DUP1 SWAP2 DIV MUL PUSH1 0x20 ADD PUSH1 0x40 MLOAD SWAP1 DUP2 ADD PUSH1 0x40 MSTORE DUP1 SWAP3 SWAP2 SWAP1 DUP2 DUP2 MSTORE PUSH1 0x20 ADD DUP3 DUP1 SLOAD PUSH2 0x499 SWAP1 PUSH2 0x1D70 JUMP JUMPDEST DUP1 ISZERO PUSH2 0x4E4 JUMPI DUP1 PUSH1 0x1F LT PUSH2 0x4BB JUMPI PUSH2 0x100 DUP1 DUP4 SLOAD DIV MUL DUP4 MSTORE SWAP2 PUSH1 0x20 ADD SWAP2 PUSH2 0x4E4 JUMP JUMPDEST DUP3 ADD SWAP2 SWAP1 PUSH0 MSTORE PUSH1 0x20 PUSH0 KECCAK256 SWAP1 JUMPDEST DUP2 SLOAD DUP2 MSTORE SWAP1 PUSH1 0x1 ADD SWAP1 PUSH1 0x20 ADD DUP1 DUP4 GT PUSH2 0x4C7 JUMPI DUP3 SWAP1 SUB PUSH1 0x1F AND DUP3 ADD SWAP2 JUMPDEST POP POP POP POP POP SWAP1 POP SWAP1 JUMP JUMPDEST PUSH0 PUSH2 0x4F8 DUP3 PUSH2 0xB2D JUMP JUMPDEST POP PUSH2 0x502 DUP3 PUSH2 0xBB3 JUMP JUMPDEST SWAP1 POP SWAP2 SWAP1 POP JUMP JUMPDEST PUSH2 0x51B DUP3 DUP3 PUSH2 0x516 PUSH2 0xBEC JUMP JUMPDEST PUSH2 0xBF3 JUMP JUMPDEST POP POP JUMP JUMPDEST PUSH0 PUSH20 0xFFFFFFFFFFFFFFFFFFFFFFFFFFFFFFFFFFFFFFFF AND DUP3 PUSH20 0xFFFFFFFFFFFFFFFFFFFFFFFFFFFFFFFFFFFFFFFF AND SUB PUSH2 0x58F JUMPI PUSH0 PUSH1 0x40 MLOAD PUSH32 0x64A0AE9200000000000000000000000000000000000000000000000000000000 DUP2 MSTORE PUSH1 0x4 ADD PUSH2 0x586 SWAP2 SWAP1 PUSH2 0x19CD JUMP JUMPDEST PUSH1 0x40 MLOAD DUP1 SWAP2 SUB SWAP1 REVERT JUMPDEST PUSH0 PUSH2 0x5A2 DUP4 DUP4 PUSH2 0x59D PUSH2 0xBEC JUMP JUMPDEST PUSH2 0xC05 JUMP JUMPDEST SWAP1 POP DUP4 PUSH20 0xFFFFFFFFFFFFFFFFFFFFFFFFFFFFFFFFFFFFFFFF AND DUP2 PUSH20 0xFFFFFFFFFFFFFFFFFFFFFFFFFFFFFFFFFFFFFFFF AND EQ PUSH2 0x618 JUMPI DUP4 DUP3 DUP3 PUSH1 0x40 MLOAD PUSH32 0x64283D7B00000000000000000000000000000000000000000000000000000000 DUP2 MSTORE PUSH1 0x4 ADD PUSH2 0x60F SWAP4 SWAP3 SWAP2 SWAP1 PUSH2 0x1DA0 JUMP JUMPDEST PUSH1 0x40 MLOAD DUP1 SWAP2 SUB SWAP1 REVERT JUMPDEST POP POP POP POP JUMP JUMPDEST PUSH2 0x626 PUSH2 0xE10 JUMP JUMPDEST PUSH0 PUSH2 0x631 PUSH1 0x7 PUSH2 0xE8E JUMP JUMPDEST SWAP1 POP PUSH2 0x63D PUSH1 0x7 PUSH2 0xE9A JUMP JUMPDEST PUSH2 0x647 DUP3 DUP3 PUSH2 0xEAE JUMP JUMPDEST TIMESTAMP PUSH1 0x9 PUSH0 DUP4 DUP2 MSTORE PUSH1 0x20 ADD SWAP1 DUP2 MSTORE PUSH1 0x20 ADD PUSH0 KECCAK256 DUP2 SWAP1 SSTORE POP POP POP JUMP JUMPDEST PUSH2 0x67B DUP4 DUP4 DUP4 PUSH1 0x40 MLOAD DUP1 PUSH1 0x20 ADD PUSH1 0x40 MSTORE DUP1 PUSH0 DUP2 MSTORE POP PUSH2 0x828 JUMP JUMPDEST POP POP POP JUMP JUMPDEST PUSH0 PUSH2 0x68A DUP3 PUSH2 0xB2D JUMP JUMPDEST SWAP1 POP SWAP2 SWAP1 POP JUMP JUMPDEST PUSH0 DUP1 PUSH20 0xFFFFFFFFFFFFFFFFFFFFFFFFFFFFFFFFFFFFFFFF AND DUP3 PUSH20 0xFFFFFFFFFFFFFFFFFFFFFFFFFFFFFFFFFFFFFFFF AND SUB PUSH2 0x702 JUMPI PUSH0 PUSH1 0x40 MLOAD PUSH32 0x89C62B6400000000000000000000000000000000000000000000000000000000 DUP2 MSTORE PUSH1 0x4 ADD PUSH2 0x6F9 SWAP2 SWAP1 PUSH2 0x19CD JUMP JUMPDEST PUSH1 0x40 MLOAD DUP1 SWAP2 SUB SWAP1 REVERT JUMPDEST PUSH1 0x3 PUSH0 DUP4 PUSH20 0xFFFFFFFFFFFFFFFFFFFFFFFFFFFFFFFFFFFFFFFF AND PUSH20 0xFFFFFFFFFFFFFFFFFFFFFFFFFFFFFFFFFFFFFFFF AND DUP2 MSTORE PUSH1 0x20 ADD SWAP1 DUP2 MSTORE PUSH1 0x20 ADD PUSH0 KECCAK256 SLOAD SWAP1 POP SWAP2 SWAP1 POP JUMP JUMPDEST PUSH2 0x74F PUSH2 0xE10 JUMP JUMPDEST PUSH2 0x758 PUSH0 PUSH2 0xECB JUMP JUMPDEST JUMP JUMPDEST PUSH0 PUSH1 0x6 PUSH0 SWAP1 SLOAD SWAP1 PUSH2 0x100 EXP SWAP1 DIV PUSH20 0xFFFFFFFFFFFFFFFFFFFFFFFFFFFFFFFFFFFFFFFF AND SWAP1 POP SWAP1 JUMP JUMPDEST PUSH1 0x60 PUSH1 0x1 DUP1 SLOAD PUSH2 0x791 SWAP1 PUSH2 0x1D70 JUMP JUMPDEST DUP1 PUSH1 0x1F ADD PUSH1 0x20 DUP1 SWAP2 DIV MUL PUSH1 0x20 ADD PUSH1 0x40 MLOAD SWAP1 DUP2 ADD PUSH1 0x40 MSTORE DUP1 SWAP3 SWAP2 SWAP1 DUP2 DUP2 MSTORE PUSH1 0x20 ADD DUP3 DUP1 SLOAD PUSH2 0x7BD SWAP1 PUSH2 0x1D70 JUMP JUMPDEST DUP1 ISZERO PUSH2 0x808 JUMPI DUP1 PUSH1 0x1F LT PUSH2 0x7DF JUMPI PUSH2 0x100 DUP1 DUP4 SLOAD DIV MUL DUP4 MSTORE SWAP2 PUSH1 0x20 ADD SWAP2 PUSH2 0x808 JUMP JUMPDEST DUP3 ADD SWAP2 SWAP1 PUSH0 MSTORE PUSH1 0x20 PUSH0 KECCAK256 SWAP1 JUMPDEST DUP2 SLOAD DUP2 MSTORE SWAP1 PUSH1 0x1 ADD SWAP1 PUSH1 0x20 ADD DUP1 DUP4 GT PUSH2 0x7EB JUMPI DUP3 SWAP1 SUB PUSH1 0x1F AND DUP3 ADD SWAP2 JUMPDEST POP POP POP POP POP SWAP1 POP SWAP1 JUMP JUMPDEST PUSH2 0x824 PUSH2 0x81D PUSH2 0xBEC JUMP JUMPDEST DUP4 DUP4 PUSH2 0xF8E JUMP JUMPDEST POP POP JUMP JUMPDEST PUSH2 0x833 DUP5 DUP5 DUP5 PUSH2 0x51F JUMP JUMPDEST PUSH2 0x83F DUP5 DUP5 DUP5 DUP5 PUSH2 0x10F7 JUMP JUMPDEST POP POP POP POP JUMP JUMPDEST PUSH32 0x0 DUP2 JUMP JUMPDEST PUSH1 0x60 PUSH0 PUSH20 0xFFFFFFFFFFFFFFFFFFFFFFFFFFFFFFFFFFFFFFFF AND PUSH2 0x88B DUP4 PUSH2 0x680 JUMP JUMPDEST PUSH20 0xFFFFFFFFFFFFFFFFFFFFFFFFFFFFFFFFFFFFFFFF AND SUB PUSH2 0x8E1 JUMPI PUSH1 0x40 MLOAD PUSH32 0x8C379A000000000000000000000000000000000000000000000000000000000 DUP2 MSTORE PUSH1 0x4 ADD PUSH2 0x8D8 SWAP1 PUSH2 0x1E45 JUMP JUMPDEST PUSH1 0x40 MLOAD DUP1 SWAP2 SUB SWAP1 REVERT JUMPDEST PUSH0 PUSH3 0x1A5E00 SWAP1 POP PUSH0 PUSH4 0x1E13380 SWAP1 POP PUSH0 PUSH1 0x9 PUSH0 DUP7 DUP2 MSTORE PUSH1 0x20 ADD SWAP1 DUP2 MSTORE PUSH1 0x20 ADD PUSH0 KECCAK256 SLOAD TIMESTAMP PUSH2 0x90E SWAP2 SWAP1 PUSH2 0x1E90 JUMP JUMPDEST SWAP1 POP DUP3 DUP2 LT ISZERO PUSH2 0x949 JUMPI PUSH2 0x920 PUSH2 0x12A9 JUMP JUMPDEST PUSH1 0x40 MLOAD PUSH1 0x20 ADD PUSH2 0x930 SWAP2 SWAP1 PUSH2 0x1F47 JUMP JUMPDEST PUSH1 0x40 MLOAD PUSH1 0x20 DUP2 DUP4 SUB SUB DUP2 MSTORE SWAP1 PUSH1 0x40 MSTORE SWAP4 POP POP POP POP PUSH2 0x9AF JUMP JUMPDEST DUP2 DUP2 LT ISZERO PUSH2 0x982 JUMPI PUSH2 0x959 PUSH2 0x12A9 JUMP JUMPDEST PUSH1 0x40 MLOAD PUSH1 0x20 ADD PUSH2 0x969 SWAP2 SWAP1 PUSH2 0x1FB2 JUMP JUMPDEST PUSH1 0x40 MLOAD PUSH1 0x20 DUP2 DUP4 SUB SUB DUP2 MSTORE SWAP1 PUSH1 0x40 MSTORE SWAP4 POP POP POP POP PUSH2 0x9AF JUMP JUMPDEST PUSH2 0x98A PUSH2 0x12A9 JUMP JUMPDEST PUSH1 0x40 MLOAD PUSH1 0x20 ADD PUSH2 0x99A SWAP2 SWAP1 PUSH2 0x201D JUMP JUMPDEST PUSH1 0x40 MLOAD PUSH1 0x20 DUP2 DUP4 SUB SUB DUP2 MSTORE SWAP1 PUSH1 0x40 MSTORE SWAP4 POP POP POP POP JUMPDEST SWAP2 SWAP1 POP JUMP JUMPDEST PUSH0 PUSH1 0x5 PUSH0 DUP5 PUSH20 0xFFFFFFFFFFFFFFFFFFFFFFFFFFFFFFFFFFFFFFFF AND PUSH20 0xFFFFFFFFFFFFFFFFFFFFFFFFFFFFFFFFFFFFFFFF AND DUP2 MSTORE PUSH1 0x20 ADD SWAP1 DUP2 MSTORE PUSH1 0x20 ADD PUSH0 KECCAK256 PUSH0 DUP4 PUSH20 0xFFFFFFFFFFFFFFFFFFFFFFFFFFFFFFFFFFFFFFFF AND PUSH20 0xFFFFFFFFFFFFFFFFFFFFFFFFFFFFFFFFFFFFFFFF AND DUP2 MSTORE PUSH1 0x20 ADD SWAP1 DUP2 MSTORE PUSH1 0x20 ADD PUSH0 KECCAK256 PUSH0 SWAP1 SLOAD SWAP1 PUSH2 0x100 EXP SWAP1 DIV PUSH1 0xFF AND SWAP1 POP SWAP3 SWAP2 POP POP JUMP JUMPDEST PUSH2 0xA4A PUSH2 0xE10 JUMP JUMPDEST PUSH0 PUSH20 0xFFFFFFFFFFFFFFFFFFFFFFFFFFFFFFFFFFFFFFFF AND DUP2 PUSH20 0xFFFFFFFFFFFFFFFFFFFFFFFFFFFFFFFFFFFFFFFF AND SUB PUSH2 0xAB8 JUMPI PUSH1 0x40 MLOAD PUSH32 0x8C379A000000000000000000000000000000000000000000000000000000000 DUP2 MSTORE PUSH1 0x4 ADD PUSH2 0xAAF SWAP1 PUSH2 0x20AE JUMP JUMPDEST PUSH1 0x40 MLOAD DUP1 SWAP2 SUB SWAP1 REVERT JUMPDEST PUSH2 0xAC1 DUP2 PUSH2 0xECB JUMP JUMPDEST POP JUMP JUMPDEST PUSH0 PUSH32 0x1FFC9A700000000000000000000000000000000000000000000000000000000 PUSH28 0xFFFFFFFFFFFFFFFFFFFFFFFFFFFFFFFFFFFFFFFFFFFFFFFFFFFFFFFF NOT AND DUP3 PUSH28 0xFFFFFFFFFFFFFFFFFFFFFFFFFFFFFFFFFFFFFFFFFFFFFFFFFFFFFFFF NOT AND EQ SWAP1 POP SWAP2 SWAP1 POP JUMP JUMPDEST PUSH0 DUP1 PUSH2 0xB38 DUP4 PUSH2 0x1339 JUMP JUMPDEST SWAP1 POP PUSH0 PUSH20 0xFFFFFFFFFFFFFFFFFFFFFFFFFFFFFFFFFFFFFFFF AND DUP2 PUSH20 0xFFFFFFFFFFFFFFFFFFFFFFFFFFFFFFFFFFFFFFFF AND SUB PUSH2 0xBAA JUMPI DUP3 PUSH1 0x40 MLOAD PUSH32 0x7E27328900000000000000000000000000000000000000000000000000000000 DUP2 MSTORE PUSH1 0x4 ADD PUSH2 0xBA1 SWAP2 SWAP1 PUSH2 0x1AD8 JUMP JUMPDEST PUSH1 0x40 MLOAD DUP1 SWAP2 SUB SWAP1 REVERT JUMPDEST DUP1 SWAP2 POP POP SWAP2 SWAP1 POP JUMP JUMPDEST PUSH0 PUSH1 0x4 PUSH0 DUP4 DUP2 MSTORE PUSH1 0x20 ADD SWAP1 DUP2 MSTORE PUSH1 0x20 ADD PUSH0 KECCAK256 PUSH0 SWAP1 SLOAD SWAP1 PUSH2 0x100 EXP SWAP1 DIV PUSH20 0xFFFFFFFFFFFFFFFFFFFFFFFFFFFFFFFFFFFFFFFF AND SWAP1 POP SWAP2 SWAP1 POP JUMP JUMPDEST PUSH0 CALLER SWAP1 POP SWAP1 JUMP JUMPDEST PUSH2 0xC00 DUP4 DUP4 DUP4 PUSH1 0x1 PUSH2 0x1372 JUMP JUMPDEST POP POP POP JUMP JUMPDEST PUSH0 DUP1 PUSH2 0xC10 DUP5 PUSH2 0x1339 JUMP JUMPDEST SWAP1 POP PUSH0 PUSH20 0xFFFFFFFFFFFFFFFFFFFFFFFFFFFFFFFFFFFFFFFF AND DUP4 PUSH20 0xFFFFFFFFFFFFFFFFFFFFFFFFFFFFFFFFFFFFFFFF AND EQ PUSH2 0xC51 JUMPI PUSH2 0xC50 DUP2 DUP5 DUP7 PUSH2 0x1531 JUMP JUMPDEST JUMPDEST PUSH0 PUSH20 0xFFFFFFFFFFFFFFFFFFFFFFFFFFFFFFFFFFFFFFFF AND DUP2 PUSH20 0xFFFFFFFFFFFFFFFFFFFFFFFFFFFFFFFFFFFFFFFF AND EQ PUSH2 0xCDC JUMPI PUSH2 0xC90 PUSH0 DUP6 PUSH0 DUP1 PUSH2 0x1372 JUMP JUMPDEST PUSH1 0x1 PUSH1 0x3 PUSH0 DUP4 PUSH20 0xFFFFFFFFFFFFFFFFFFFFFFFFFFFFFFFFFFFFFFFF AND PUSH20 0xFFFFFFFFFFFFFFFFFFFFFFFFFFFFFFFFFFFFFFFF AND DUP2 MSTORE PUSH1 0x20 ADD SWAP1 DUP2 MSTORE PUSH1 0x20 ADD PUSH0 KECCAK256 PUSH0 DUP3 DUP3 SLOAD SUB SWAP3 POP POP DUP2 SWAP1 SSTORE POP JUMPDEST PUSH0 PUSH20 0xFFFFFFFFFFFFFFFFFFFFFFFFFFFFFFFFFFFFFFFF AND DUP6 PUSH20 0xFFFFFFFFFFFFFFFFFFFFFFFFFFFFFFFFFFFFFFFF AND EQ PUSH2 0xD5B JUMPI PUSH1 0x1 PUSH1 0x3 PUSH0 DUP8 PUSH20 0xFFFFFFFFFFFFFFFFFFFFFFFFFFFFFFFFFFFFFFFF AND PUSH20 0xFFFFFFFFFFFFFFFFFFFFFFFFFFFFFFFFFFFFFFFF AND DUP2 MSTORE PUSH1 0x20 ADD SWAP1 DUP2 MSTORE PUSH1 0x20 ADD PUSH0 KECCAK256 PUSH0 DUP3 DUP3 SLOAD ADD SWAP3 POP POP DUP2 SWAP1 SSTORE POP JUMPDEST DUP5 PUSH1 0x2 PUSH0 DUP7 DUP2 MSTORE PUSH1 0x20 ADD SWAP1 DUP2 MSTORE PUSH1 0x20 ADD PUSH0 KECCAK256 PUSH0 PUSH2 0x100 EXP DUP2 SLOAD DUP2 PUSH20 0xFFFFFFFFFFFFFFFFFFFFFFFFFFFFFFFFFFFFFFFF MUL NOT AND SWAP1 DUP4 PUSH20 0xFFFFFFFFFFFFFFFFFFFFFFFFFFFFFFFFFFFFFFFF AND MUL OR SWAP1 SSTORE POP DUP4 DUP6 PUSH20 0xFFFFFFFFFFFFFFFFFFFFFFFFFFFFFFFFFFFFFFFF AND DUP3 PUSH20 0xFFFFFFFFFFFFFFFFFFFFFFFFFFFFFFFFFFFFFFFF AND PUSH32 0xDDF252AD1BE2C89B69C2B068FC378DAA952BA7F163C4A11628F55A4DF523B3EF PUSH1 0x40 MLOAD PUSH1 0x40 MLOAD DUP1 SWAP2 SUB SWAP1 LOG4 DUP1 SWAP2 POP POP SWAP4 SWAP3 POP POP POP JUMP JUMPDEST PUSH2 0xE18 PUSH2 0xBEC JUMP JUMPDEST PUSH20 0xFFFFFFFFFFFFFFFFFFFFFFFFFFFFFFFFFFFFFFFF AND PUSH2 0xE36 PUSH2 0x75A JUMP JUMPDEST PUSH20 0xFFFFFFFFFFFFFFFFFFFFFFFFFFFFFFFFFFFFFFFF AND EQ PUSH2 0xE8C JUMPI PUSH1 0x40 MLOAD PUSH32 0x8C379A000000000000000000000000000000000000000000000000000000000 DUP2 MSTORE PUSH1 0x4 ADD PUSH2 0xE83 SWAP1 PUSH2 0x2116 JUMP JUMPDEST PUSH1 0x40 MLOAD DUP1 SWAP2 SUB SWAP1 REVERT JUMPDEST JUMP JUMPDEST PUSH0 DUP2 PUSH0 ADD SLOAD SWAP1 POP SWAP2 SWAP1 POP JUMP JUMPDEST PUSH1 0x1 DUP2 PUSH0 ADD PUSH0 DUP3 DUP3 SLOAD ADD SWAP3 POP POP DUP2 SWAP1 SSTORE POP POP JUMP JUMPDEST PUSH2 0xEC7 DUP3 DUP3 PUSH1 0x40 MLOAD DUP1 PUSH1 0x20 ADD PUSH1 0x40 MSTORE DUP1 PUSH0 DUP2 MSTORE POP PUSH2 0x15F4 JUMP JUMPDEST POP POP JUMP JUMPDEST PUSH0 PUSH1 0x6 PUSH0 SWAP1 SLOAD SWAP1 PUSH2 0x100 EXP SWAP1 DIV PUSH20 0xFFFFFFFFFFFFFFFFFFFFFFFFFFFFFFFFFFFFFFFF AND SWAP1 POP DUP2 PUSH1 0x6 PUSH0 PUSH2 0x100 EXP DUP2 SLOAD DUP2 PUSH20 0xFFFFFFFFFFFFFFFFFFFFFFFFFFFFFFFFFFFFFFFF MUL NOT AND SWAP1 DUP4 PUSH20 0xFFFFFFFFFFFFFFFFFFFFFFFFFFFFFFFFFFFFFFFF AND MUL OR SWAP1 SSTORE POP DUP2 PUSH20 0xFFFFFFFFFFFFFFFFFFFFFFFFFFFFFFFFFFFFFFFF AND DUP2 PUSH20 0xFFFFFFFFFFFFFFFFFFFFFFFFFFFFFFFFFFFFFFFF AND PUSH32 0x8BE0079C531659141344CD1FD0A4F28419497F9722A3DAAFE3B4186F6B6457E0 PUSH1 0x40 MLOAD PUSH1 0x40 MLOAD DUP1 SWAP2 SUB SWAP1 LOG3 POP POP JUMP JUMPDEST PUSH0 PUSH20 0xFFFFFFFFFFFFFFFFFFFFFFFFFFFFFFFFFFFFFFFF AND DUP3 PUSH20 0xFFFFFFFFFFFFFFFFFFFFFFFFFFFFFFFFFFFFFFFF AND SUB PUSH2 0xFFE JUMPI DUP2 PUSH1 0x40 MLOAD PUSH32 0x5B08BA1800000000000000000000000000000000000000000000000000000000 DUP2 MSTORE PUSH1 0x4 ADD PUSH2 0xFF5 SWAP2 SWAP1 PUSH2 0x19CD JUMP JUMPDEST PUSH1 0x40 MLOAD DUP1 SWAP2 SUB SWAP1 REVERT JUMPDEST DUP1 PUSH1 0x5 PUSH0 DUP6 PUSH20 0xFFFFFFFFFFFFFFFFFFFFFFFFFFFFFFFFFFFFFFFF AND PUSH20 0xFFFFFFFFFFFFFFFFFFFFFFFFFFFFFFFFFFFFFFFF AND DUP2 MSTORE PUSH1 0x20 ADD SWAP1 DUP2 MSTORE PUSH1 0x20 ADD PUSH0 KECCAK256 PUSH0 DUP5 PUSH20 0xFFFFFFFFFFFFFFFFFFFFFFFFFFFFFFFFFFFFFFFF AND PUSH20 0xFFFFFFFFFFFFFFFFFFFFFFFFFFFFFFFFFFFFFFFF AND DUP2 MSTORE PUSH1 0x20 ADD SWAP1 DUP2 MSTORE PUSH1 0x20 ADD PUSH0 KECCAK256 PUSH0 PUSH2 0x100 EXP DUP2 SLOAD DUP2 PUSH1 0xFF MUL NOT AND SWAP1 DUP4 ISZERO ISZERO MUL OR SWAP1 SSTORE POP DUP2 PUSH20 0xFFFFFFFFFFFFFFFFFFFFFFFFFFFFFFFFFFFFFFFF AND DUP4 PUSH20 0xFFFFFFFFFFFFFFFFFFFFFFFFFFFFFFFFFFFFFFFF AND PUSH32 0x17307EAB39AB6107E8899845AD3D59BD9653F200F220920489CA2B5937696C31 DUP4 PUSH1 0x40 MLOAD PUSH2 0x10EA SWAP2 SWAP1 PUSH2 0x186D JUMP JUMPDEST PUSH1 0x40 MLOAD DUP1 SWAP2 SUB SWAP1 LOG3 POP POP POP JUMP JUMPDEST PUSH0 DUP4 PUSH20 0xFFFFFFFFFFFFFFFFFFFFFFFFFFFFFFFFFFFFFFFF AND EXTCODESIZE GT ISZERO PUSH2 0x12A3 JUMPI DUP3 PUSH20 0xFFFFFFFFFFFFFFFFFFFFFFFFFFFFFFFFFFFFFFFF AND PUSH4 0x150B7A02 PUSH2 0x113A PUSH2 0xBEC JUMP JUMPDEST DUP7 DUP6 DUP6 PUSH1 0x40 MLOAD DUP6 PUSH4 0xFFFFFFFF AND PUSH1 0xE0 SHL DUP2 MSTORE PUSH1 0x4 ADD PUSH2 0x115C SWAP5 SWAP4 SWAP3 SWAP2 SWAP1 PUSH2 0x2186 JUMP JUMPDEST PUSH1 0x20 PUSH1 0x40 MLOAD DUP1 DUP4 SUB DUP2 PUSH0 DUP8 GAS CALL SWAP3 POP POP POP DUP1 ISZERO PUSH2 0x1197 JUMPI POP PUSH1 0x40 MLOAD RETURNDATASIZE PUSH1 0x1F NOT PUSH1 0x1F DUP3 ADD AND DUP3 ADD DUP1 PUSH1 0x40 MSTORE POP DUP2 ADD SWAP1 PUSH2 0x1194 SWAP2 SWAP1 PUSH2 0x21E4 JUMP JUMPDEST PUSH1 0x1 JUMPDEST PUSH2 0x1218 JUMPI RETURNDATASIZE DUP1 PUSH0 DUP2 EQ PUSH2 0x11C5 JUMPI PUSH1 0x40 MLOAD SWAP2 POP PUSH1 0x1F NOT PUSH1 0x3F RETURNDATASIZE ADD AND DUP3 ADD PUSH1 0x40 MSTORE RETURNDATASIZE DUP3 MSTORE RETURNDATASIZE PUSH0 PUSH1 0x20 DUP5 ADD RETURNDATACOPY PUSH2 0x11CA JUMP JUMPDEST PUSH1 0x60 SWAP2 POP JUMPDEST POP PUSH0 DUP2 MLOAD SUB PUSH2 0x1210 JUMPI DUP4 PUSH1 0x40 MLOAD PUSH32 0x64A0AE9200000000000000000000000000000000000000000000000000000000 DUP2 MSTORE PUSH1 0x4 ADD PUSH2 0x1207 SWAP2 SWAP1 PUSH2 0x19CD JUMP JUMPDEST PUSH1 0x40 MLOAD DUP1 SWAP2 SUB SWAP1 REVERT JUMPDEST DUP1 MLOAD DUP2 PUSH1 0x20 ADD REVERT JUMPDEST PUSH4 0x150B7A02 PUSH1 0xE0 SHL PUSH28 0xFFFFFFFFFFFFFFFFFFFFFFFFFFFFFFFFFFFFFFFFFFFFFFFFFFFFFFFF NOT AND DUP2 PUSH28 0xFFFFFFFFFFFFFFFFFFFFFFFFFFFFFFFFFFFFFFFFFFFFFFFFFFFFFFFF NOT AND EQ PUSH2 0x12A1 JUMPI DUP4 PUSH1 0x40 MLOAD PUSH32 0x64A0AE9200000000000000000000000000000000000000000000000000000000 DUP2 MSTORE PUSH1 0x4 ADD PUSH2 0x1298 SWAP2 SWAP1 PUSH2 0x19CD JUMP JUMPDEST PUSH1 0x40 MLOAD DUP1 SWAP2 SUB SWAP1 REVERT JUMPDEST POP JUMPDEST POP POP POP POP JUMP JUMPDEST PUSH1 0x60 PUSH1 0x8 DUP1 SLOAD PUSH2 0x12B8 SWAP1 PUSH2 0x1D70 JUMP JUMPDEST DUP1 PUSH1 0x1F ADD PUSH1 0x20 DUP1 SWAP2 DIV MUL PUSH1 0x20 ADD PUSH1 0x40 MLOAD SWAP1 DUP2 ADD PUSH1 0x40 MSTORE DUP1 SWAP3 SWAP2 SWAP1 DUP2 DUP2 MSTORE PUSH1 0x20 ADD DUP3 DUP1 SLOAD PUSH2 0x12E4 SWAP1 PUSH2 0x1D70 JUMP JUMPDEST DUP1 ISZERO PUSH2 0x132F JUMPI DUP1 PUSH1 0x1F LT PUSH2 0x1306 JUMPI PUSH2 0x100 DUP1 DUP4 SLOAD DIV MUL DUP4 MSTORE SWAP2 PUSH1 0x20 ADD SWAP2 PUSH2 0x132F JUMP JUMPDEST DUP3 ADD SWAP2 SWAP1 PUSH0 MSTORE PUSH1 0x20 PUSH0 KECCAK256 SWAP1 JUMPDEST DUP2 SLOAD DUP2 MSTORE SWAP1 PUSH1 0x1 ADD SWAP1 PUSH1 0x20 ADD DUP1 DUP4 GT PUSH2 0x1312 JUMPI DUP3 SWAP1 SUB PUSH1 0x1F AND DUP3 ADD SWAP2 JUMPDEST POP POP POP POP POP SWAP1 POP SWAP1 JUMP JUMPDEST PUSH0 PUSH1 0x2 PUSH0 DUP4 DUP2 MSTORE PUSH1 0x20 ADD SWAP1 DUP2 MSTORE PUSH1 0x20 ADD PUSH0 KECCAK256 PUSH0 SWAP1 SLOAD SWAP1 PUSH2 0x100 EXP SWAP1 DIV PUSH20 0xFFFFFFFFFFFFFFFFFFFFFFFFFFFFFFFFFFFFFFFF AND SWAP1 POP SWAP2 SWAP1 POP JUMP JUMPDEST DUP1 DUP1 PUSH2 0x13AA JUMPI POP PUSH0 PUSH20 0xFFFFFFFFFFFFFFFFFFFFFFFFFFFFFFFFFFFFFFFF AND DUP3 PUSH20 0xFFFFFFFFFFFFFFFFFFFFFFFFFFFFFFFFFFFFFFFF AND EQ ISZERO JUMPDEST ISZERO PUSH2 0x14DC JUMPI PUSH0 PUSH2 0x13B9 DUP5 PUSH2 0xB2D JUMP JUMPDEST SWAP1 POP PUSH0 PUSH20 0xFFFFFFFFFFFFFFFFFFFFFFFFFFFFFFFFFFFFFFFF AND DUP4 PUSH20 0xFFFFFFFFFFFFFFFFFFFFFFFFFFFFFFFFFFFFFFFF AND EQ ISZERO DUP1 ISZERO PUSH2 0x1423 JUMPI POP DUP3 PUSH20 0xFFFFFFFFFFFFFFFFFFFFFFFFFFFFFFFFFFFFFFFF AND DUP2 PUSH20 0xFFFFFFFFFFFFFFFFFFFFFFFFFFFFFFFFFFFFFFFF AND EQ ISZERO JUMPDEST DUP1 ISZERO PUSH2 0x1436 JUMPI POP PUSH2 0x1434 DUP2 DUP5 PUSH2 0x9B4 JUMP JUMPDEST ISZERO JUMPDEST ISZERO PUSH2 0x1478 JUMPI DUP3 PUSH1 0x40 MLOAD PUSH32 0xA9FBF51F00000000000000000000000000000000000000000000000000000000 DUP2 MSTORE PUSH1 0x4 ADD PUSH2 0x146F SWAP2 SWAP1 PUSH2 0x19CD JUMP JUMPDEST PUSH1 0x40 MLOAD DUP1 SWAP2 SUB SWAP1 REVERT JUMPDEST DUP2 ISZERO PUSH2 0x14DA JUMPI DUP4 DUP6 PUSH20 0xFFFFFFFFFFFFFFFFFFFFFFFFFFFFFFFFFFFFFFFF AND DUP3 PUSH20 0xFFFFFFFFFFFFFFFFFFFFFFFFFFFFFFFFFFFFFFFF AND PUSH32 0x8C5BE1E5EBEC7D5BD14F71427D1E84F3DD0314C0F7B2291E5B200AC8C7C3B925 PUSH1 0x40 MLOAD PUSH1 0x40 MLOAD DUP1 SWAP2 SUB SWAP1 LOG4 JUMPDEST POP JUMPDEST DUP4 PUSH1 0x4 PUSH0 DUP6 DUP2 MSTORE PUSH1 0x20 ADD SWAP1 DUP2 MSTORE PUSH1 0x20 ADD PUSH0 KECCAK256 PUSH0 PUSH2 0x100 EXP DUP2 SLOAD DUP2 PUSH20 0xFFFFFFFFFFFFFFFFFFFFFFFFFFFFFFFFFFFFFFFF MUL NOT AND SWAP1 DUP4 PUSH20 0xFFFFFFFFFFFFFFFFFFFFFFFFFFFFFFFFFFFFFFFF AND MUL OR SWAP1 SSTORE POP POP POP POP POP JUMP JUMPDEST PUSH2 0x153C DUP4 DUP4 DUP4 PUSH2 0x160F JUMP JUMPDEST PUSH2 0x15EF JUMPI PUSH0 PUSH20 0xFFFFFFFFFFFFFFFFFFFFFFFFFFFFFFFFFFFFFFFF AND DUP4 PUSH20 0xFFFFFFFFFFFFFFFFFFFFFFFFFFFFFFFFFFFFFFFF AND SUB PUSH2 0x15B0 JUMPI DUP1 PUSH1 0x40 MLOAD PUSH32 0x7E27328900000000000000000000000000000000000000000000000000000000 DUP2 MSTORE PUSH1 0x4 ADD PUSH2 0x15A7 SWAP2 SWAP1 PUSH2 0x1AD8 JUMP JUMPDEST PUSH1 0x40 MLOAD DUP1 SWAP2 SUB SWAP1 REVERT JUMPDEST DUP2 DUP2 PUSH1 0x40 MLOAD PUSH32 0x177E802F00000000000000000000000000000000000000000000000000000000 DUP2 MSTORE PUSH1 0x4 ADD PUSH2 0x15E6 SWAP3 SWAP2 SWAP1 PUSH2 0x220F JUMP JUMPDEST PUSH1 0x40 MLOAD DUP1 SWAP2 SUB SWAP1 REVERT JUMPDEST POP POP POP JUMP JUMPDEST PUSH2 0x15FE DUP4 DUP4 PUSH2 0x16CF JUMP JUMPDEST PUSH2 0x160A PUSH0 DUP5 DUP5 DUP5 PUSH2 0x10F7 JUMP JUMPDEST POP POP POP JUMP JUMPDEST PUSH0 DUP1 PUSH20 0xFFFFFFFFFFFFFFFFFFFFFFFFFFFFFFFFFFFFFFFF AND DUP4 PUSH20 0xFFFFFFFFFFFFFFFFFFFFFFFFFFFFFFFFFFFFFFFF AND EQ ISZERO DUP1 ISZERO PUSH2 0x16C6 JUMPI POP DUP3 PUSH20 0xFFFFFFFFFFFFFFFFFFFFFFFFFFFFFFFFFFFFFFFF AND DUP5 PUSH20 0xFFFFFFFFFFFFFFFFFFFFFFFFFFFFFFFFFFFFFFFF AND EQ DUP1 PUSH2 0x1687 JUMPI POP PUSH2 0x1686 DUP5 DUP5 PUSH2 0x9B4 JUMP JUMPDEST JUMPDEST DUP1 PUSH2 0x16C5 JUMPI POP DUP3 PUSH20 0xFFFFFFFFFFFFFFFFFFFFFFFFFFFFFFFFFFFFFFFF AND PUSH2 0x16AD DUP4 PUSH2 0xBB3 JUMP JUMPDEST PUSH20 0xFFFFFFFFFFFFFFFFFFFFFFFFFFFFFFFFFFFFFFFF AND EQ JUMPDEST JUMPDEST SWAP1 POP SWAP4 SWAP3 POP POP POP JUMP JUMPDEST PUSH0 PUSH20 0xFFFFFFFFFFFFFFFFFFFFFFFFFFFFFFFFFFFFFFFF AND DUP3 PUSH20 0xFFFFFFFFFFFFFFFFFFFFFFFFFFFFFFFFFFFFFFFF AND SUB PUSH2 0x173F JUMPI PUSH0 PUSH1 0x40 MLOAD PUSH32 0x64A0AE9200000000000000000000000000000000000000000000000000000000 DUP2 MSTORE PUSH1 0x4 ADD PUSH2 0x1736 SWAP2 SWAP1 PUSH2 0x19CD JUMP JUMPDEST PUSH1 0x40 MLOAD DUP1 SWAP2 SUB SWAP1 REVERT JUMPDEST PUSH0 PUSH2 0x174B DUP4 DUP4 PUSH0 PUSH2 0xC05 JUMP JUMPDEST SWAP1 POP PUSH0 PUSH20 0xFFFFFFFFFFFFFFFFFFFFFFFFFFFFFFFFFFFFFFFF AND DUP2 PUSH20 0xFFFFFFFFFFFFFFFFFFFFFFFFFFFFFFFFFFFFFFFF AND EQ PUSH2 0x17BD JUMPI PUSH0 PUSH1 0x40 MLOAD PUSH32 0x73C6AC6E00000000000000000000000000000000000000000000000000000000 DUP2 MSTORE PUSH1 0x4 ADD PUSH2 0x17B4 SWAP2 SWAP1 PUSH2 0x19CD JUMP JUMPDEST PUSH1 0x40 MLOAD DUP1 SWAP2 SUB SWAP1 REVERT JUMPDEST POP POP POP JUMP JUMPDEST PUSH0 PUSH1 0x40 MLOAD SWAP1 POP SWAP1 JUMP JUMPDEST PUSH0 DUP1 REVERT JUMPDEST PUSH0 DUP1 REVERT JUMPDEST PUSH0 PUSH32 0xFFFFFFFF00000000000000000000000000000000000000000000000000000000 DUP3 AND SWAP1 POP SWAP2 SWAP1 POP JUMP JUMPDEST PUSH2 0x1807 DUP2 PUSH2 0x17D3 JUMP JUMPDEST DUP2 EQ PUSH2 0x1811 JUMPI PUSH0 DUP1 REVERT JUMPDEST POP JUMP JUMPDEST PUSH0 DUP2 CALLDATALOAD SWAP1 POP PUSH2 0x1822 DUP2 PUSH2 0x17FE JUMP JUMPDEST SWAP3 SWAP2 POP POP JUMP JUMPDEST PUSH0 PUSH1 0x20 DUP3 DUP5 SUB SLT ISZERO PUSH2 0x183D JUMPI PUSH2 0x183C PUSH2 0x17CB JUMP JUMPDEST JUMPDEST PUSH0 PUSH2 0x184A DUP5 DUP3 DUP6 ADD PUSH2 0x1814 JUMP JUMPDEST SWAP2 POP POP SWAP3 SWAP2 POP POP JUMP JUMPDEST PUSH0 DUP2 ISZERO ISZERO SWAP1 POP SWAP2 SWAP1 POP JUMP JUMPDEST PUSH2 0x1867 DUP2 PUSH2 0x1853 JUMP JUMPDEST DUP3 MSTORE POP POP JUMP JUMPDEST PUSH0 PUSH1 0x20 DUP3 ADD SWAP1 POP PUSH2 0x1880 PUSH0 DUP4 ADD DUP5 PUSH2 0x185E JUMP JUMPDEST SWAP3 SWAP2 POP POP JUMP JUMPDEST PUSH0 DUP2 MLOAD SWAP1 POP SWAP2 SWAP1 POP JUMP JUMPDEST PUSH0 DUP3 DUP3 MSTORE PUSH1 0x20 DUP3 ADD SWAP1 POP SWAP3 SWAP2 POP POP JUMP JUMPDEST PUSH0 JUMPDEST DUP4 DUP2 LT ISZERO PUSH2 0x18BD JUMPI DUP1 DUP3 ADD MLOAD DUP2 DUP5 ADD MSTORE PUSH1 0x20 DUP2 ADD SWAP1 POP PUSH2 0x18A2 JUMP JUMPDEST PUSH0 DUP5 DUP5 ADD MSTORE POP POP POP POP JUMP JUMPDEST PUSH0 PUSH1 0x1F NOT PUSH1 0x1F DUP4 ADD AND SWAP1 POP SWAP2 SWAP1 POP JUMP JUMPDEST PUSH0 PUSH2 0x18E2 DUP3 PUSH2 0x1886 JUMP JUMPDEST PUSH2 0x18EC DUP2 DUP6 PUSH2 0x1890 JUMP JUMPDEST SWAP4 POP PUSH2 0x18FC DUP2 DUP6 PUSH1 0x20 DUP7 ADD PUSH2 0x18A0 JUMP JUMPDEST PUSH2 0x1905 DUP2 PUSH2 0x18C8 JUMP JUMPDEST DUP5 ADD SWAP2 POP POP SWAP3 SWAP2 POP POP JUMP JUMPDEST PUSH0 PUSH1 0x20 DUP3 ADD SWAP1 POP DUP2 DUP2 SUB PUSH0 DUP4 ADD MSTORE PUSH2 0x1928 DUP2 DUP5 PUSH2 0x18D8 JUMP JUMPDEST SWAP1 POP SWAP3 SWAP2 POP POP JUMP JUMPDEST PUSH0 DUP2 SWAP1 POP SWAP2 SWAP1 POP JUMP JUMPDEST PUSH2 0x1942 DUP2 PUSH2 0x1930 JUMP JUMPDEST DUP2 EQ PUSH2 0x194C JUMPI PUSH0 DUP1 REVERT JUMPDEST POP JUMP JUMPDEST PUSH0 DUP2 CALLDATALOAD SWAP1 POP PUSH2 0x195D DUP2 PUSH2 0x1939 JUMP JUMPDEST SWAP3 SWAP2 POP POP JUMP JUMPDEST PUSH0 PUSH1 0x20 DUP3 DUP5 SUB SLT ISZERO PUSH2 0x1978 JUMPI PUSH2 0x1977 PUSH2 0x17CB JUMP JUMPDEST JUMPDEST PUSH0 PUSH2 0x1985 DUP5 DUP3 DUP6 ADD PUSH2 0x194F JUMP JUMPDEST SWAP2 POP POP SWAP3 SWAP2 POP POP JUMP JUMPDEST PUSH0 PUSH20 0xFFFFFFFFFFFFFFFFFFFFFFFFFFFFFFFFFFFFFFFF DUP3 AND SWAP1 POP SWAP2 SWAP1 POP JUMP JUMPDEST PUSH0 PUSH2 0x19B7 DUP3 PUSH2 0x198E JUMP JUMPDEST SWAP1 POP SWAP2 SWAP1 POP JUMP JUMPDEST PUSH2 0x19C7 DUP2 PUSH2 0x19AD JUMP JUMPDEST DUP3 MSTORE POP POP JUMP JUMPDEST PUSH0 PUSH1 0x20 DUP3 ADD SWAP1 POP PUSH2 0x19E0 PUSH0 DUP4 ADD DUP5 PUSH2 0x19BE JUMP JUMPDEST SWAP3 SWAP2 POP POP JUMP JUMPDEST PUSH2 0x19EF DUP2 PUSH2 0x19AD JUMP JUMPDEST DUP2 EQ PUSH2 0x19F9 JUMPI PUSH0 DUP1 REVERT JUMPDEST POP JUMP JUMPDEST PUSH0 DUP2 CALLDATALOAD SWAP1 POP PUSH2 0x1A0A DUP2 PUSH2 0x19E6 JUMP JUMPDEST SWAP3 SWAP2 POP POP JUMP JUMPDEST PUSH0 DUP1 PUSH1 0x40 DUP4 DUP6 SUB SLT ISZERO PUSH2 0x1A26 JUMPI PUSH2 0x1A25 PUSH2 0x17CB JUMP JUMPDEST JUMPDEST PUSH0 PUSH2 0x1A33 DUP6 DUP3 DUP7 ADD PUSH2 0x19FC JUMP JUMPDEST SWAP3 POP POP PUSH1 0x20 PUSH2 0x1A44 DUP6 DUP3 DUP7 ADD PUSH2 0x194F JUMP JUMPDEST SWAP2 POP POP SWAP3 POP SWAP3 SWAP1 POP JUMP JUMPDEST PUSH0 DUP1 PUSH0 PUSH1 0x60 DUP5 DUP7 SUB SLT ISZERO PUSH2 0x1A65 JUMPI PUSH2 0x1A64 PUSH2 0x17CB JUMP JUMPDEST JUMPDEST PUSH0 PUSH2 0x1A72 DUP7 DUP3 DUP8 ADD PUSH2 0x19FC JUMP JUMPDEST SWAP4 POP POP PUSH1 0x20 PUSH2 0x1A83 DUP7 DUP3 DUP8 ADD PUSH2 0x19FC JUMP JUMPDEST SWAP3 POP POP PUSH1 0x40 PUSH2 0x1A94 DUP7 DUP3 DUP8 ADD PUSH2 0x194F JUMP JUMPDEST SWAP2 POP POP SWAP3 POP SWAP3 POP SWAP3 JUMP JUMPDEST PUSH0 PUSH1 0x20 DUP3 DUP5 SUB SLT ISZERO PUSH2 0x1AB3 JUMPI PUSH2 0x1AB2 PUSH2 0x17CB JUMP JUMPDEST JUMPDEST PUSH0 PUSH2 0x1AC0 DUP5 DUP3 DUP6 ADD PUSH2 0x19FC JUMP JUMPDEST SWAP2 POP POP SWAP3 SWAP2 POP POP JUMP JUMPDEST PUSH2 0x1AD2 DUP2 PUSH2 0x1930 JUMP JUMPDEST DUP3 MSTORE POP POP JUMP JUMPDEST PUSH0 PUSH1 0x20 DUP3 ADD SWAP1 POP PUSH2 0x1AEB PUSH0 DUP4 ADD DUP5 PUSH2 0x1AC9 JUMP JUMPDEST SWAP3 SWAP2 POP POP JUMP JUMPDEST PUSH2 0x1AFA DUP2 PUSH2 0x1853 JUMP JUMPDEST DUP2 EQ PUSH2 0x1B04 JUMPI PUSH0 DUP1 REVERT JUMPDEST POP JUMP JUMPDEST PUSH0 DUP2 CALLDATALOAD SWAP1 POP PUSH2 0x1B15 DUP2 PUSH2 0x1AF1 JUMP JUMPDEST SWAP3 SWAP2 POP POP JUMP JUMPDEST PUSH0 DUP1 PUSH1 0x40 DUP4 DUP6 SUB SLT ISZERO PUSH2 0x1B31 JUMPI PUSH2 0x1B30 PUSH2 0x17CB JUMP JUMPDEST JUMPDEST PUSH0 PUSH2 0x1B3E DUP6 DUP3 DUP7 ADD PUSH2 0x19FC JUMP JUMPDEST SWAP3 POP POP PUSH1 0x20 PUSH2 0x1B4F DUP6 DUP3 DUP7 ADD PUSH2 0x1B07 JUMP JUMPDEST SWAP2 POP POP SWAP3 POP SWAP3 SWAP1 POP JUMP JUMPDEST PUSH0 DUP1 REVERT JUMPDEST PUSH0 DUP1 REVERT JUMPDEST PUSH32 0x4E487B7100000000000000000000000000000000000000000000000000000000 PUSH0 MSTORE PUSH1 0x41 PUSH1 0x4 MSTORE PUSH1 0x24 PUSH0 REVERT JUMPDEST PUSH2 0x1B97 DUP3 PUSH2 0x18C8 JUMP JUMPDEST DUP2 ADD DUP2 DUP2 LT PUSH8 0xFFFFFFFFFFFFFFFF DUP3 GT OR ISZERO PUSH2 0x1BB6 JUMPI PUSH2 0x1BB5 PUSH2 0x1B61 JUMP JUMPDEST JUMPDEST DUP1 PUSH1 0x40 MSTORE POP POP POP JUMP JUMPDEST PUSH0 PUSH2 0x1BC8 PUSH2 0x17C2 JUMP JUMPDEST SWAP1 POP PUSH2 0x1BD4 DUP3 DUP3 PUSH2 0x1B8E JUMP JUMPDEST SWAP2 SWAP1 POP JUMP JUMPDEST PUSH0 PUSH8 0xFFFFFFFFFFFFFFFF DUP3 GT ISZERO PUSH2 0x1BF3 JUMPI PUSH2 0x1BF2 PUSH2 0x1B61 JUMP JUMPDEST JUMPDEST PUSH2 0x1BFC DUP3 PUSH2 0x18C8 JUMP JUMPDEST SWAP1 POP PUSH1 0x20 DUP2 ADD SWAP1 POP SWAP2 SWAP1 POP JUMP JUMPDEST DUP3 DUP2 DUP4 CALLDATACOPY PUSH0 DUP4 DUP4 ADD MSTORE POP POP POP JUMP JUMPDEST PUSH0 PUSH2 0x1C29 PUSH2 0x1C24 DUP5 PUSH2 0x1BD9 JUMP JUMPDEST PUSH2 0x1BBF JUMP JUMPDEST SWAP1 POP DUP3 DUP2 MSTORE PUSH1 0x20 DUP2 ADD DUP5 DUP5 DUP5 ADD GT ISZERO PUSH2 0x1C45 JUMPI PUSH2 0x1C44 PUSH2 0x1B5D JUMP JUMPDEST JUMPDEST PUSH2 0x1C50 DUP5 DUP3 DUP6 PUSH2 0x1C09 JUMP JUMPDEST POP SWAP4 SWAP3 POP POP POP JUMP JUMPDEST PUSH0 DUP3 PUSH1 0x1F DUP4 ADD SLT PUSH2 0x1C6C JUMPI PUSH2 0x1C6B PUSH2 0x1B59 JUMP JUMPDEST JUMPDEST DUP2 CALLDATALOAD PUSH2 0x1C7C DUP5 DUP3 PUSH1 0x20 DUP7 ADD PUSH2 0x1C17 JUMP JUMPDEST SWAP2 POP POP SWAP3 SWAP2 POP POP JUMP JUMPDEST PUSH0 DUP1 PUSH0 DUP1 PUSH1 0x80 DUP6 DUP8 SUB SLT ISZERO PUSH2 0x1C9D JUMPI PUSH2 0x1C9C PUSH2 0x17CB JUMP JUMPDEST JUMPDEST PUSH0 PUSH2 0x1CAA DUP8 DUP3 DUP9 ADD PUSH2 0x19FC JUMP JUMPDEST SWAP5 POP POP PUSH1 0x20 PUSH2 0x1CBB DUP8 DUP3 DUP9 ADD PUSH2 0x19FC JUMP JUMPDEST SWAP4 POP POP PUSH1 0x40 PUSH2 0x1CCC DUP8 DUP3 DUP9 ADD PUSH2 0x194F JUMP JUMPDEST SWAP3 POP POP PUSH1 0x60 DUP6 ADD CALLDATALOAD PUSH8 0xFFFFFFFFFFFFFFFF DUP2 GT ISZERO PUSH2 0x1CED JUMPI PUSH2 0x1CEC PUSH2 0x17CF JUMP JUMPDEST JUMPDEST PUSH2 0x1CF9 DUP8 DUP3 DUP9 ADD PUSH2 0x1C58 JUMP JUMPDEST SWAP2 POP POP SWAP3 SWAP6 SWAP2 SWAP5 POP SWAP3 POP JUMP JUMPDEST PUSH0 DUP1 PUSH1 0x40 DUP4 DUP6 SUB SLT ISZERO PUSH2 0x1D1B JUMPI PUSH2 0x1D1A PUSH2 0x17CB JUMP JUMPDEST JUMPDEST PUSH0 PUSH2 0x1D28 DUP6 DUP3 DUP7 ADD PUSH2 0x19FC JUMP JUMPDEST SWAP3 POP POP PUSH1 0x20 PUSH2 0x1D39 DUP6 DUP3 DUP7 ADD PUSH2 0x19FC JUMP JUMPDEST SWAP2 POP POP SWAP3 POP SWAP3 SWAP1 POP JUMP JUMPDEST PUSH32 0x4E487B7100000000000000000000000000000000000000000000000000000000 PUSH0 MSTORE PUSH1 0x22 PUSH1 0x4 MSTORE PUSH1 0x24 PUSH0 REVERT JUMPDEST PUSH0 PUSH1 0x2 DUP3 DIV SWAP1 POP PUSH1 0x1 DUP3 AND DUP1 PUSH2 0x1D87 JUMPI PUSH1 0x7F DUP3 AND SWAP2 POP JUMPDEST PUSH1 0x20 DUP3 LT DUP2 SUB PUSH2 0x1D9A JUMPI PUSH2 0x1D99 PUSH2 0x1D43 JUMP JUMPDEST JUMPDEST POP SWAP2 SWAP1 POP JUMP JUMPDEST PUSH0 PUSH1 0x60 DUP3 ADD SWAP1 POP PUSH2 0x1DB3 PUSH0 DUP4 ADD DUP7 PUSH2 0x19BE JUMP JUMPDEST PUSH2 0x1DC0 PUSH1 0x20 DUP4 ADD DUP6 PUSH2 0x1AC9 JUMP JUMPDEST PUSH2 0x1DCD PUSH1 0x40 DUP4 ADD DUP5 PUSH2 0x19BE JUMP JUMPDEST SWAP5 SWAP4 POP POP POP POP JUMP JUMPDEST PUSH32 0x4552433732314D657461646174613A2055524920717565727920666F72206E6F PUSH0 DUP3 ADD MSTORE PUSH32 0x6E6578697374656E7420746F6B656E0000000000000000000000000000000000 PUSH1 0x20 DUP3 ADD MSTORE POP JUMP JUMPDEST PUSH0 PUSH2 0x1E2F PUSH1 0x2F DUP4 PUSH2 0x1890 JUMP JUMPDEST SWAP2 POP PUSH2 0x1E3A DUP3 PUSH2 0x1DD5 JUMP JUMPDEST PUSH1 0x40 DUP3 ADD SWAP1 POP SWAP2 SWAP1 POP JUMP JUMPDEST PUSH0 PUSH1 0x20 DUP3 ADD SWAP1 POP DUP2 DUP2 SUB PUSH0 DUP4 ADD MSTORE PUSH2 0x1E5C DUP2 PUSH2 0x1E23 JUMP JUMPDEST SWAP1 POP SWAP2 SWAP1 POP JUMP JUMPDEST PUSH32 0x4E487B7100000000000000000000000000000000000000000000000000000000 PUSH0 MSTORE PUSH1 0x11 PUSH1 0x4 MSTORE PUSH1 0x24 PUSH0 REVERT JUMPDEST PUSH0 PUSH2 0x1E9A DUP3 PUSH2 0x1930 JUMP JUMPDEST SWAP2 POP PUSH2 0x1EA5 DUP4 PUSH2 0x1930 JUMP JUMPDEST SWAP3 POP DUP3 DUP3 SUB SWAP1 POP DUP2 DUP2 GT ISZERO PUSH2 0x1EBD JUMPI PUSH2 0x1EBC PUSH2 0x1E63 JUMP JUMPDEST JUMPDEST SWAP3 SWAP2 POP POP JUMP JUMPDEST PUSH0 DUP2 SWAP1 POP SWAP3 SWAP2 POP POP JUMP JUMPDEST PUSH0 PUSH2 0x1ED7 DUP3 PUSH2 0x1886 JUMP JUMPDEST PUSH2 0x1EE1 DUP2 DUP6 PUSH2 0x1EC3 JUMP JUMPDEST SWAP4 POP PUSH2 0x1EF1 DUP2 DUP6 PUSH1 0x20 DUP7 ADD PUSH2 0x18A0 JUMP JUMPDEST DUP1 DUP5 ADD SWAP2 POP POP SWAP3 SWAP2 POP POP JUMP JUMPDEST PUSH32 0x696E697469616C5F696D6167652E6A736F6E0000000000000000000000000000 PUSH0 DUP3 ADD MSTORE POP JUMP JUMPDEST PUSH0 PUSH2 0x1F31 PUSH1 0x12 DUP4 PUSH2 0x1EC3 JUMP JUMPDEST SWAP2 POP PUSH2 0x1F3C DUP3 PUSH2 0x1EFD JUMP JUMPDEST PUSH1 0x12 DUP3 ADD SWAP1 POP SWAP2 SWAP1 POP JUMP JUMPDEST PUSH0 PUSH2 0x1F52 DUP3 DUP5 PUSH2 0x1ECD JUMP JUMPDEST SWAP2 POP PUSH2 0x1F5D DUP3 PUSH2 0x1F25 JUMP JUMPDEST SWAP2 POP DUP2 SWAP1 POP SWAP3 SWAP2 POP POP JUMP JUMPDEST PUSH32 0x32305F646179735F696D6167652E6A736F6E0000000000000000000000000000 PUSH0 DUP3 ADD MSTORE POP JUMP JUMPDEST PUSH0 PUSH2 0x1F9C PUSH1 0x12 DUP4 PUSH2 0x1EC3 JUMP JUMPDEST SWAP2 POP PUSH2 0x1FA7 DUP3 PUSH2 0x1F68 JUMP JUMPDEST PUSH1 0x12 DUP3 ADD SWAP1 POP SWAP2 SWAP1 POP JUMP JUMPDEST PUSH0 PUSH2 0x1FBD DUP3 DUP5 PUSH2 0x1ECD JUMP JUMPDEST SWAP2 POP PUSH2 0x1FC8 DUP3 PUSH2 0x1F90 JUMP JUMPDEST SWAP2 POP DUP2 SWAP1 POP SWAP3 SWAP2 POP POP JUMP JUMPDEST PUSH32 0x315F796561725F696D6167652E6A736F6E000000000000000000000000000000 PUSH0 DUP3 ADD MSTORE POP JUMP JUMPDEST PUSH0 PUSH2 0x2007 PUSH1 0x11 DUP4 PUSH2 0x1EC3 JUMP JUMPDEST SWAP2 POP PUSH2 0x2012 DUP3 PUSH2 0x1FD3 JUMP JUMPDEST PUSH1 0x11 DUP3 ADD SWAP1 POP SWAP2 SWAP1 POP JUMP JUMPDEST PUSH0 PUSH2 0x2028 DUP3 DUP5 PUSH2 0x1ECD JUMP JUMPDEST SWAP2 POP PUSH2 0x2033 DUP3 PUSH2 0x1FFB JUMP JUMPDEST SWAP2 POP DUP2 SWAP1 POP SWAP3 SWAP2 POP POP JUMP JUMPDEST PUSH32 0x4F776E61626C653A206E6577206F776E657220697320746865207A65726F2061 PUSH0 DUP3 ADD MSTORE PUSH32 0x6464726573730000000000000000000000000000000000000000000000000000 PUSH1 0x20 DUP3 ADD MSTORE POP JUMP JUMPDEST PUSH0 PUSH2 0x2098 PUSH1 0x26 DUP4 PUSH2 0x1890 JUMP JUMPDEST SWAP2 POP PUSH2 0x20A3 DUP3 PUSH2 0x203E JUMP JUMPDEST PUSH1 0x40 DUP3 ADD SWAP1 POP SWAP2 SWAP1 POP JUMP JUMPDEST PUSH0 PUSH1 0x20 DUP3 ADD SWAP1 POP DUP2 DUP2 SUB PUSH0 DUP4 ADD MSTORE PUSH2 0x20C5 DUP2 PUSH2 0x208C JUMP JUMPDEST SWAP1 POP SWAP2 SWAP1 POP JUMP JUMPDEST PUSH32 0x4F776E61626C653A2063616C6C6572206973206E6F7420746865206F776E6572 PUSH0 DUP3 ADD MSTORE POP JUMP JUMPDEST PUSH0 PUSH2 0x2100 PUSH1 0x20 DUP4 PUSH2 0x1890 JUMP JUMPDEST SWAP2 POP PUSH2 0x210B DUP3 PUSH2 0x20CC JUMP JUMPDEST PUSH1 0x20 DUP3 ADD SWAP1 POP SWAP2 SWAP1 POP JUMP JUMPDEST PUSH0 PUSH1 0x20 DUP3 ADD SWAP1 POP DUP2 DUP2 SUB PUSH0 DUP4 ADD MSTORE PUSH2 0x212D DUP2 PUSH2 0x20F4 JUMP JUMPDEST SWAP1 POP SWAP2 SWAP1 POP JUMP JUMPDEST PUSH0 DUP2 MLOAD SWAP1 POP SWAP2 SWAP1 POP JUMP JUMPDEST PUSH0 DUP3 DUP3 MSTORE PUSH1 0x20 DUP3 ADD SWAP1 POP SWAP3 SWAP2 POP POP JUMP JUMPDEST PUSH0 PUSH2 0x2158 DUP3 PUSH2 0x2134 JUMP JUMPDEST PUSH2 0x2162 DUP2 DUP6 PUSH2 0x213E JUMP JUMPDEST SWAP4 POP PUSH2 0x2172 DUP2 DUP6 PUSH1 0x20 DUP7 ADD PUSH2 0x18A0 JUMP JUMPDEST PUSH2 0x217B DUP2 PUSH2 0x18C8 JUMP JUMPDEST DUP5 ADD SWAP2 POP POP SWAP3 SWAP2 POP POP JUMP JUMPDEST PUSH0 PUSH1 0x80 DUP3 ADD SWAP1 POP PUSH2 0x2199 PUSH0 DUP4 ADD DUP8 PUSH2 0x19BE JUMP JUMPDEST PUSH2 0x21A6 PUSH1 0x20 DUP4 ADD DUP7 PUSH2 0x19BE JUMP JUMPDEST PUSH2 0x21B3 PUSH1 0x40 DUP4 ADD DUP6 PUSH2 0x1AC9 JUMP JUMPDEST DUP2 DUP2 SUB PUSH1 0x60 DUP4 ADD MSTORE PUSH2 0x21C5 DUP2 DUP5 PUSH2 0x214E JUMP JUMPDEST SWAP1 POP SWAP6 SWAP5 POP POP POP POP POP JUMP JUMPDEST PUSH0 DUP2 MLOAD SWAP1 POP PUSH2 0x21DE DUP2 PUSH2 0x17FE JUMP JUMPDEST SWAP3 SWAP2 POP POP JUMP JUMPDEST PUSH0 PUSH1 0x20 DUP3 DUP5 SUB SLT ISZERO PUSH2 0x21F9 JUMPI PUSH2 0x21F8 PUSH2 0x17CB JUMP JUMPDEST JUMPDEST PUSH0 PUSH2 0x2206 DUP5 DUP3 DUP6 ADD PUSH2 0x21D0 JUMP JUMPDEST SWAP2 POP POP SWAP3 SWAP2 POP POP JUMP JUMPDEST PUSH0 PUSH1 0x40 DUP3 ADD SWAP1 POP PUSH2 0x2222 PUSH0 DUP4 ADD DUP6 PUSH2 0x19BE JUMP JUMPDEST PUSH2 0x222F PUSH1 0x20 DUP4 ADD DUP5 PUSH2 0x1AC9 JUMP JUMPDEST SWAP4 SWAP3 POP POP POP JUMP INVALID LOG2 PUSH5 0x6970667358 0x22 SLT KECCAK256 DUP16 XOR PUSH10 0xC96C87A03FAC30DA41BE PUSH1 0x50 MCOPY SWAP5 0xEE 0xBC SGT 0x4B RETURN PUSH32 0xA71EE2A390181B67B664736F6C63430008180033000000000000000000000000 "
				},
				"gasEstimates": {
					"creation": {
						"codeDepositCost": "1762400",
						"executionCost": "infinite",
						"totalCost": "infinite"
					},
					"external": {
						"approve(address,uint256)": "infinite",
						"balanceOf(address)": "infinite",
						"deploymentTimestamp()": "infinite",
						"getApproved(uint256)": "infinite",
						"isApprovedForAll(address,address)": "infinite",
						"name()": "infinite",
						"owner()": "2560",
						"ownerOf(uint256)": "infinite",
						"renounceOwnership()": "30413",
						"safeMint(address)": "infinite",
						"safeTransferFrom(address,address,uint256)": "infinite",
						"safeTransferFrom(address,address,uint256,bytes)": "infinite",
						"setApprovalForAll(address,bool)": "infinite",
						"supportsInterface(bytes4)": "787",
						"symbol()": "infinite",
						"tokenURI(uint256)": "infinite",
						"transferFrom(address,address,uint256)": "infinite",
						"transferOwnership(address)": "30841"
					},
					"internal": {
						"_baseURI()": "infinite"
					}
				},
				"methodIdentifiers": {
					"approve(address,uint256)": "095ea7b3",
					"balanceOf(address)": "70a08231",
					"deploymentTimestamp()": "bfc12c05",
					"getApproved(uint256)": "081812fc",
					"isApprovedForAll(address,address)": "e985e9c5",
					"name()": "06fdde03",
					"owner()": "8da5cb5b",
					"ownerOf(uint256)": "6352211e",
					"renounceOwnership()": "715018a6",
					"safeMint(address)": "40d097c3",
					"safeTransferFrom(address,address,uint256)": "42842e0e",
					"safeTransferFrom(address,address,uint256,bytes)": "b88d4fde",
					"setApprovalForAll(address,bool)": "a22cb465",
					"supportsInterface(bytes4)": "01ffc9a7",
					"symbol()": "95d89b41",
					"tokenURI(uint256)": "c87b56dd",
					"transferFrom(address,address,uint256)": "23b872dd",
					"transferOwnership(address)": "f2fde38b"
				}
			},
			"storageLayout": {
				"storage": [
					{
						"astId": 282,
						"contract": "telefonica/dynamicCentenario.sol:DynamicNFT",
						"label": "_name",
						"offset": 0,
						"slot": "0",
						"type": "t_string_storage"
					},
					{
						"astId": 284,
						"contract": "telefonica/dynamicCentenario.sol:DynamicNFT",
						"label": "_symbol",
						"offset": 0,
						"slot": "1",
						"type": "t_string_storage"
					},
					{
						"astId": 288,
						"contract": "telefonica/dynamicCentenario.sol:DynamicNFT",
						"label": "_owners",
						"offset": 0,
						"slot": "2",
						"type": "t_mapping(t_uint256,t_address)"
					},
					{
						"astId": 292,
						"contract": "telefonica/dynamicCentenario.sol:DynamicNFT",
						"label": "_balances",
						"offset": 0,
						"slot": "3",
						"type": "t_mapping(t_address,t_uint256)"
					},
					{
						"astId": 296,
						"contract": "telefonica/dynamicCentenario.sol:DynamicNFT",
						"label": "_tokenApprovals",
						"offset": 0,
						"slot": "4",
						"type": "t_mapping(t_uint256,t_address)"
					},
					{
						"astId": 302,
						"contract": "telefonica/dynamicCentenario.sol:DynamicNFT",
						"label": "_operatorApprovals",
						"offset": 0,
						"slot": "5",
						"type": "t_mapping(t_address,t_mapping(t_address,t_bool))"
					},
					{
						"astId": 7,
						"contract": "telefonica/dynamicCentenario.sol:DynamicNFT",
						"label": "_owner",
						"offset": 0,
						"slot": "6",
						"type": "t_address"
					},
					{
						"astId": 2983,
						"contract": "telefonica/dynamicCentenario.sol:DynamicNFT",
						"label": "_tokenIdCounter",
						"offset": 0,
						"slot": "7",
						"type": "t_struct(Counter)1449_storage"
					},
					{
						"astId": 2985,
						"contract": "telefonica/dynamicCentenario.sol:DynamicNFT",
						"label": "baseURI",
						"offset": 0,
						"slot": "8",
						"type": "t_string_storage"
					},
					{
						"astId": 2991,
						"contract": "telefonica/dynamicCentenario.sol:DynamicNFT",
						"label": "_tokenCreationTimestamps",
						"offset": 0,
						"slot": "9",
						"type": "t_mapping(t_uint256,t_uint256)"
					}
				],
				"types": {
					"t_address": {
						"encoding": "inplace",
						"label": "address",
						"numberOfBytes": "20"
					},
					"t_bool": {
						"encoding": "inplace",
						"label": "bool",
						"numberOfBytes": "1"
					},
					"t_mapping(t_address,t_bool)": {
						"encoding": "mapping",
						"key": "t_address",
						"label": "mapping(address => bool)",
						"numberOfBytes": "32",
						"value": "t_bool"
					},
					"t_mapping(t_address,t_mapping(t_address,t_bool))": {
						"encoding": "mapping",
						"key": "t_address",
						"label": "mapping(address => mapping(address => bool))",
						"numberOfBytes": "32",
						"value": "t_mapping(t_address,t_bool)"
					},
					"t_mapping(t_address,t_uint256)": {
						"encoding": "mapping",
						"key": "t_address",
						"label": "mapping(address => uint256)",
						"numberOfBytes": "32",
						"value": "t_uint256"
					},
					"t_mapping(t_uint256,t_address)": {
						"encoding": "mapping",
						"key": "t_uint256",
						"label": "mapping(uint256 => address)",
						"numberOfBytes": "32",
						"value": "t_address"
					},
					"t_mapping(t_uint256,t_uint256)": {
						"encoding": "mapping",
						"key": "t_uint256",
						"label": "mapping(uint256 => uint256)",
						"numberOfBytes": "32",
						"value": "t_uint256"
					},
					"t_string_storage": {
						"encoding": "bytes",
						"label": "string",
						"numberOfBytes": "32"
					},
					"t_struct(Counter)1449_storage": {
						"encoding": "inplace",
						"label": "struct Counters.Counter",
						"members": [
							{
								"astId": 1448,
								"contract": "telefonica/dynamicCentenario.sol:DynamicNFT",
								"label": "_value",
								"offset": 0,
								"slot": "0",
								"type": "t_uint256"
							}
						],
						"numberOfBytes": "32"
					},
					"t_uint256": {
						"encoding": "inplace",
						"label": "uint256",
						"numberOfBytes": "32"
					}
				}
			},
			"userdoc": {
				"kind": "user",
				"methods": {},
				"version": 1
			}
		}
	}
}