{
	"telefonica/redeploy.sol": {
		"Proposal": {
			"abi": [
				{
					"anonymous": false,
					"inputs": [
						{
							"indexed": false,
							"internalType": "string",
							"name": "message",
							"type": "string"
						}
					],
					"name": "Log",
					"type": "event"
				},
				{
					"inputs": [],
					"name": "emergencyStop",
					"outputs": [],
					"stateMutability": "nonpayable",
					"type": "function"
				},
				{
					"inputs": [],
					"name": "executeProposal",
					"outputs": [],
					"stateMutability": "nonpayable",
					"type": "function"
				}
			],
			"devdoc": {
				"kind": "dev",
				"methods": {},
				"version": 1
			},
			"evm": {
				"assembly": "    /* \"telefonica/redeploy.sol\":436:688  contract Proposal {... */\n  mstore(0x40, 0x80)\n  callvalue\n  dup1\n  iszero\n  tag_1\n  jumpi\n  0x00\n  dup1\n  revert\ntag_1:\n  pop\n  dataSize(sub_0)\n  dup1\n  dataOffset(sub_0)\n  0x00\n  codecopy\n  0x00\n  return\nstop\n\nsub_0: assembly {\n        /* \"telefonica/redeploy.sol\":436:688  contract Proposal {... */\n      mstore(0x40, 0x80)\n      callvalue\n      dup1\n      iszero\n      tag_1\n      jumpi\n      0x00\n      dup1\n      revert\n    tag_1:\n      pop\n      jumpi(tag_2, lt(calldatasize, 0x04))\n      shr(0xe0, calldataload(0x00))\n      dup1\n      0x373058b8\n      eq\n      tag_3\n      jumpi\n      dup1\n      0x63a599a4\n      eq\n      tag_4\n      jumpi\n    tag_2:\n      0x00\n      dup1\n      revert\n        /* \"telefonica/redeploy.sol\":495:591  function executeProposal() external {... */\n    tag_3:\n      tag_5\n      tag_6\n      jump\t// in\n    tag_5:\n      stop\n        /* \"telefonica/redeploy.sol\":599:685  function emergencyStop() external {... */\n    tag_4:\n      tag_7\n      tag_8\n      jump\t// in\n    tag_7:\n      stop\n        /* \"telefonica/redeploy.sol\":495:591  function executeProposal() external {... */\n    tag_6:\n        /* \"telefonica/redeploy.sol\":547:583  Log(\"Executed code approved by DAO\") */\n      0xcf34ef537ac33ee1ac626ca1587a0a7e8e51561e5514f8cb36afa1c5102b3bab\n      mload(0x40)\n      tag_10\n      swap1\n      tag_11\n      jump\t// in\n    tag_10:\n      mload(0x40)\n      dup1\n      swap2\n      sub\n      swap1\n      log1\n        /* \"telefonica/redeploy.sol\":495:591  function executeProposal() external {... */\n      jump\t// out\n        /* \"telefonica/redeploy.sol\":599:685  function emergencyStop() external {... */\n    tag_8:\n        /* \"telefonica/redeploy.sol\":673:674  0 */\n      0x00\n        /* \"telefonica/redeploy.sol\":644:677  selfdestruct(payable(address(0))) */\n      0xffffffffffffffffffffffffffffffffffffffff\n      and\n      selfdestruct\n        /* \"#utility.yul\":7:176   */\n    tag_13:\n        /* \"#utility.yul\":91:102   */\n      0x00\n        /* \"#utility.yul\":125:131   */\n      dup3\n        /* \"#utility.yul\":120:123   */\n      dup3\n        /* \"#utility.yul\":113:132   */\n      mstore\n        /* \"#utility.yul\":165:169   */\n      0x20\n        /* \"#utility.yul\":160:163   */\n      dup3\n        /* \"#utility.yul\":156:170   */\n      add\n        /* \"#utility.yul\":141:170   */\n      swap1\n      pop\n        /* \"#utility.yul\":7:176   */\n      swap3\n      swap2\n      pop\n      pop\n      jump\t// out\n        /* \"#utility.yul\":182:361   */\n    tag_14:\n        /* \"#utility.yul\":322:353   */\n      0x457865637574656420636f646520617070726f7665642062792044414f000000\n        /* \"#utility.yul\":318:319   */\n      0x00\n        /* \"#utility.yul\":310:316   */\n      dup3\n        /* \"#utility.yul\":306:320   */\n      add\n        /* \"#utility.yul\":299:354   */\n      mstore\n        /* \"#utility.yul\":182:361   */\n      pop\n      jump\t// out\n        /* \"#utility.yul\":367:733   */\n    tag_15:\n        /* \"#utility.yul\":509:512   */\n      0x00\n        /* \"#utility.yul\":530:597   */\n      tag_20\n        /* \"#utility.yul\":594:596   */\n      0x1d\n        /* \"#utility.yul\":589:592   */\n      dup4\n        /* \"#utility.yul\":530:597   */\n      tag_13\n      jump\t// in\n    tag_20:\n        /* \"#utility.yul\":523:597   */\n      swap2\n      pop\n        /* \"#utility.yul\":606:699   */\n      tag_21\n        /* \"#utility.yul\":695:698   */\n      dup3\n        /* \"#utility.yul\":606:699   */\n      tag_14\n      jump\t// in\n    tag_21:\n        /* \"#utility.yul\":724:726   */\n      0x20\n        /* \"#utility.yul\":719:722   */\n      dup3\n        /* \"#utility.yul\":715:727   */\n      add\n        /* \"#utility.yul\":708:727   */\n      swap1\n      pop\n        /* \"#utility.yul\":367:733   */\n      swap2\n      swap1\n      pop\n      jump\t// out\n        /* \"#utility.yul\":739:1158   */\n    tag_11:\n        /* \"#utility.yul\":905:909   */\n      0x00\n        /* \"#utility.yul\":943:945   */\n      0x20\n        /* \"#utility.yul\":932:941   */\n      dup3\n        /* \"#utility.yul\":928:946   */\n      add\n        /* \"#utility.yul\":920:946   */\n      swap1\n      pop\n        /* \"#utility.yul\":992:1001   */\n      dup2\n        /* \"#utility.yul\":986:990   */\n      dup2\n        /* \"#utility.yul\":982:1002   */\n      sub\n        /* \"#utility.yul\":978:979   */\n      0x00\n        /* \"#utility.yul\":967:976   */\n      dup4\n        /* \"#utility.yul\":963:980   */\n      add\n        /* \"#utility.yul\":956:1003   */\n      mstore\n        /* \"#utility.yul\":1020:1151   */\n      tag_23\n        /* \"#utility.yul\":1146:1150   */\n      dup2\n        /* \"#utility.yul\":1020:1151   */\n      tag_15\n      jump\t// in\n    tag_23:\n        /* \"#utility.yul\":1012:1151   */\n      swap1\n      pop\n        /* \"#utility.yul\":739:1158   */\n      swap2\n      swap1\n      pop\n      jump\t// out\n\n    auxdata: 0xa2646970667358221220948bd9ddf1078709ca59b42698dbe73302b0f47ec794281e6c145c0b7e36a6e664736f6c63430008120033\n}\n",
				"bytecode": {
					"linkReferences": {},
					"object": "608060405234801561001057600080fd5b50610153806100206000396000f3fe608060405234801561001057600080fd5b50600436106100365760003560e01c8063373058b81461003b57806363a599a414610045575b600080fd5b61004361004f565b005b61004d610086565b005b7fcf34ef537ac33ee1ac626ca1587a0a7e8e51561e5514f8cb36afa1c5102b3bab60405161007c906100fd565b60405180910390a1565b600073ffffffffffffffffffffffffffffffffffffffff16ff5b600082825260208201905092915050565b7f457865637574656420636f646520617070726f7665642062792044414f000000600082015250565b60006100e7601d836100a0565b91506100f2826100b1565b602082019050919050565b60006020820190508181036000830152610116816100da565b905091905056fea2646970667358221220948bd9ddf1078709ca59b42698dbe73302b0f47ec794281e6c145c0b7e36a6e664736f6c63430008120033",
					"opcodes": "PUSH1 0x80 PUSH1 0x40 MSTORE CALLVALUE DUP1 ISZERO PUSH2 0x10 JUMPI PUSH1 0x0 DUP1 REVERT JUMPDEST POP PUSH2 0x153 DUP1 PUSH2 0x20 PUSH1 0x0 CODECOPY PUSH1 0x0 RETURN INVALID PUSH1 0x80 PUSH1 0x40 MSTORE CALLVALUE DUP1 ISZERO PUSH2 0x10 JUMPI PUSH1 0x0 DUP1 REVERT JUMPDEST POP PUSH1 0x4 CALLDATASIZE LT PUSH2 0x36 JUMPI PUSH1 0x0 CALLDATALOAD PUSH1 0xE0 SHR DUP1 PUSH4 0x373058B8 EQ PUSH2 0x3B JUMPI DUP1 PUSH4 0x63A599A4 EQ PUSH2 0x45 JUMPI JUMPDEST PUSH1 0x0 DUP1 REVERT JUMPDEST PUSH2 0x43 PUSH2 0x4F JUMP JUMPDEST STOP JUMPDEST PUSH2 0x4D PUSH2 0x86 JUMP JUMPDEST STOP JUMPDEST PUSH32 0xCF34EF537AC33EE1AC626CA1587A0A7E8E51561E5514F8CB36AFA1C5102B3BAB PUSH1 0x40 MLOAD PUSH2 0x7C SWAP1 PUSH2 0xFD JUMP JUMPDEST PUSH1 0x40 MLOAD DUP1 SWAP2 SUB SWAP1 LOG1 JUMP JUMPDEST PUSH1 0x0 PUSH20 0xFFFFFFFFFFFFFFFFFFFFFFFFFFFFFFFFFFFFFFFF AND SELFDESTRUCT JUMPDEST PUSH1 0x0 DUP3 DUP3 MSTORE PUSH1 0x20 DUP3 ADD SWAP1 POP SWAP3 SWAP2 POP POP JUMP JUMPDEST PUSH32 0x457865637574656420636F646520617070726F7665642062792044414F000000 PUSH1 0x0 DUP3 ADD MSTORE POP JUMP JUMPDEST PUSH1 0x0 PUSH2 0xE7 PUSH1 0x1D DUP4 PUSH2 0xA0 JUMP JUMPDEST SWAP2 POP PUSH2 0xF2 DUP3 PUSH2 0xB1 JUMP JUMPDEST PUSH1 0x20 DUP3 ADD SWAP1 POP SWAP2 SWAP1 POP JUMP JUMPDEST PUSH1 0x0 PUSH1 0x20 DUP3 ADD SWAP1 POP DUP2 DUP2 SUB PUSH1 0x0 DUP4 ADD MSTORE PUSH2 0x116 DUP2 PUSH2 0xDA JUMP JUMPDEST SWAP1 POP SWAP2 SWAP1 POP JUMP INVALID LOG2 PUSH5 0x6970667358 0x22 SLT KECCAK256 SWAP5 DUP12 0xD9 0xDD CALL SMOD DUP8 MULMOD 0xCA MSIZE 0xB4 0x26 SWAP9 0xDB 0xE7 CALLER MUL 0xB0 DELEGATECALL PUSH31 0xC794281E6C145C0B7E36A6E664736F6C634300081200330000000000000000 "
				},
				"gasEstimates": {
					"creation": {
						"codeDepositCost": "67800",
						"executionCost": "117",
						"totalCost": "67917"
					},
					"external": {
						"emergencyStop()": "27744",
						"executeProposal()": "1924"
					}
				},
				"methodIdentifiers": {
					"emergencyStop()": "63a599a4",
					"executeProposal()": "373058b8"
				}
			},
			"storageLayout": {
				"storage": [],
				"types": null
			},
			"userdoc": {
				"kind": "user",
				"methods": {},
				"version": 1
			}
		}
	}
}