{
	"telefonica/recompensasFamilia.sol": {
		"TaskCompensation": {
			"abi": [
				{
					"inputs": [
						{
							"internalType": "address",
							"name": "_tokenAddress",
							"type": "address"
						}
					],
					"stateMutability": "nonpayable",
					"type": "constructor"
				},
				{
					"anonymous": false,
					"inputs": [
						{
							"indexed": false,
							"internalType": "uint256",
							"name": "taskId",
							"type": "uint256"
						},
						{
							"indexed": false,
							"internalType": "address",
							"name": "taskDoer",
							"type": "address"
						},
						{
							"indexed": false,
							"internalType": "uint256",
							"name": "reward",
							"type": "uint256"
						}
					],
					"name": "TaskApprovedAndRewardSent",
					"type": "event"
				},
				{
					"anonymous": false,
					"inputs": [
						{
							"indexed": false,
							"internalType": "uint256",
							"name": "taskId",
							"type": "uint256"
						},
						{
							"indexed": false,
							"internalType": "address",
							"name": "taskDoer",
							"type": "address"
						},
						{
							"indexed": false,
							"internalType": "uint256",
							"name": "reward",
							"type": "uint256"
						}
					],
					"name": "TaskCreated",
					"type": "event"
				},
				{
					"inputs": [
						{
							"internalType": "uint256",
							"name": "taskId",
							"type": "uint256"
						}
					],
					"name": "approveTask",
					"outputs": [],
					"stateMutability": "nonpayable",
					"type": "function"
				},
				{
					"inputs": [
						{
							"internalType": "address",
							"name": "_taskDoer",
							"type": "address"
						},
						{
							"internalType": "uint256",
							"name": "_reward",
							"type": "uint256"
						}
					],
					"name": "createTask",
					"outputs": [],
					"stateMutability": "nonpayable",
					"type": "function"
				},
				{
					"inputs": [],
					"name": "nextTaskId",
					"outputs": [
						{
							"internalType": "uint256",
							"name": "",
							"type": "uint256"
						}
					],
					"stateMutability": "view",
					"type": "function"
				},
				{
					"inputs": [],
					"name": "owner",
					"outputs": [
						{
							"internalType": "address",
							"name": "",
							"type": "address"
						}
					],
					"stateMutability": "view",
					"type": "function"
				},
				{
					"inputs": [
						{
							"internalType": "uint256",
							"name": "",
							"type": "uint256"
						}
					],
					"name": "tasks",
					"outputs": [
						{
							"internalType": "address",
							"name": "taskDoer",
							"type": "address"
						},
						{
							"internalType": "uint256",
							"name": "reward",
							"type": "uint256"
						},
						{
							"internalType": "bool",
							"name": "completed",
							"type": "bool"
						}
					],
					"stateMutability": "view",
					"type": "function"
				},
				{
					"inputs": [],
					"name": "token",
					"outputs": [
						{
							"internalType": "contract IERC20",
							"name": "",
							"type": "address"
						}
					],
					"stateMutability": "view",
					"type": "function"
				}
			],
			"devdoc": {
				"kind": "dev",
				"methods": {},
				"version": 1
			},
			"evm": {
				"assembly": "    /* \"telefonica/recompensasFamilia.sol\":271:2288  contract TaskCompensation {... */\n  mstore(0x40, 0x80)\n    /* \"telefonica/recompensasFamilia.sol\":845:982  constructor(address _tokenAddress) {... */\n  callvalue\n  dup1\n  iszero\n  tag_1\n  jumpi\n  0x00\n  dup1\n  revert\ntag_1:\n  pop\n  mload(0x40)\n  sub(codesize, bytecodeSize)\n  dup1\n  bytecodeSize\n  dup4\n  codecopy\n  dup2\n  dup2\n  add\n  0x40\n  mstore\n  dup2\n  add\n  swap1\n  tag_2\n  swap2\n  swap1\n  tag_3\n  jump\t// in\ntag_2:\n    /* \"telefonica/recompensasFamilia.sol\":906:919  _tokenAddress */\n  dup1\n    /* \"telefonica/recompensasFamilia.sol\":891:896  token */\n  0x00\n  dup1\n    /* \"telefonica/recompensasFamilia.sol\":891:920  token = IERC20(_tokenAddress) */\n  0x0100\n  exp\n  dup2\n  sload\n  dup2\n  0xffffffffffffffffffffffffffffffffffffffff\n  mul\n  not\n  and\n  swap1\n  dup4\n  0xffffffffffffffffffffffffffffffffffffffff\n  and\n  mul\n  or\n  swap1\n  sstore\n  pop\n    /* \"telefonica/recompensasFamilia.sol\":939:949  msg.sender */\n  caller\n    /* \"telefonica/recompensasFamilia.sol\":931:936  owner */\n  0x01\n  0x00\n    /* \"telefonica/recompensasFamilia.sol\":931:949  owner = msg.sender */\n  0x0100\n  exp\n  dup2\n  sload\n  dup2\n  0xffffffffffffffffffffffffffffffffffffffff\n  mul\n  not\n  and\n  swap1\n  dup4\n  0xffffffffffffffffffffffffffffffffffffffff\n  and\n  mul\n  or\n  swap1\n  sstore\n  pop\n    /* \"telefonica/recompensasFamilia.sol\":973:974  1 */\n  0x01\n    /* \"telefonica/recompensasFamilia.sol\":960:970  nextTaskId */\n  0x03\n    /* \"telefonica/recompensasFamilia.sol\":960:974  nextTaskId = 1 */\n  dup2\n  swap1\n  sstore\n  pop\n    /* \"telefonica/recompensasFamilia.sol\":845:982  constructor(address _tokenAddress) {... */\n  pop\n    /* \"telefonica/recompensasFamilia.sol\":271:2288  contract TaskCompensation {... */\n  jump(tag_6)\n    /* \"#utility.yul\":88:205   */\ntag_8:\n    /* \"#utility.yul\":197:198   */\n  0x00\n    /* \"#utility.yul\":194:195   */\n  dup1\n    /* \"#utility.yul\":187:199   */\n  revert\n    /* \"#utility.yul\":334:460   */\ntag_10:\n    /* \"#utility.yul\":371:378   */\n  0x00\n    /* \"#utility.yul\":411:453   */\n  0xffffffffffffffffffffffffffffffffffffffff\n    /* \"#utility.yul\":404:409   */\n  dup3\n    /* \"#utility.yul\":400:454   */\n  and\n    /* \"#utility.yul\":389:454   */\n  swap1\n  pop\n    /* \"#utility.yul\":334:460   */\n  swap2\n  swap1\n  pop\n  jump\t// out\n    /* \"#utility.yul\":466:562   */\ntag_11:\n    /* \"#utility.yul\":503:510   */\n  0x00\n    /* \"#utility.yul\":532:556   */\n  tag_20\n    /* \"#utility.yul\":550:555   */\n  dup3\n    /* \"#utility.yul\":532:556   */\n  tag_10\n  jump\t// in\ntag_20:\n    /* \"#utility.yul\":521:556   */\n  swap1\n  pop\n    /* \"#utility.yul\":466:562   */\n  swap2\n  swap1\n  pop\n  jump\t// out\n    /* \"#utility.yul\":568:690   */\ntag_12:\n    /* \"#utility.yul\":641:665   */\n  tag_22\n    /* \"#utility.yul\":659:664   */\n  dup2\n    /* \"#utility.yul\":641:665   */\n  tag_11\n  jump\t// in\ntag_22:\n    /* \"#utility.yul\":634:639   */\n  dup2\n    /* \"#utility.yul\":631:666   */\n  eq\n    /* \"#utility.yul\":621:684   */\n  tag_23\n  jumpi\n    /* \"#utility.yul\":680:681   */\n  0x00\n    /* \"#utility.yul\":677:678   */\n  dup1\n    /* \"#utility.yul\":670:682   */\n  revert\n    /* \"#utility.yul\":621:684   */\ntag_23:\n    /* \"#utility.yul\":568:690   */\n  pop\n  jump\t// out\n    /* \"#utility.yul\":696:839   */\ntag_13:\n    /* \"#utility.yul\":753:758   */\n  0x00\n    /* \"#utility.yul\":784:790   */\n  dup2\n    /* \"#utility.yul\":778:791   */\n  mload\n    /* \"#utility.yul\":769:791   */\n  swap1\n  pop\n    /* \"#utility.yul\":800:833   */\n  tag_25\n    /* \"#utility.yul\":827:832   */\n  dup2\n    /* \"#utility.yul\":800:833   */\n  tag_12\n  jump\t// in\ntag_25:\n    /* \"#utility.yul\":696:839   */\n  swap3\n  swap2\n  pop\n  pop\n  jump\t// out\n    /* \"#utility.yul\":845:1196   */\ntag_3:\n    /* \"#utility.yul\":915:921   */\n  0x00\n    /* \"#utility.yul\":964:966   */\n  0x20\n    /* \"#utility.yul\":952:961   */\n  dup3\n    /* \"#utility.yul\":943:950   */\n  dup5\n    /* \"#utility.yul\":939:962   */\n  sub\n    /* \"#utility.yul\":935:967   */\n  slt\n    /* \"#utility.yul\":932:1051   */\n  iszero\n  tag_27\n  jumpi\n    /* \"#utility.yul\":970:1049   */\n  tag_28\n  tag_8\n  jump\t// in\ntag_28:\n    /* \"#utility.yul\":932:1051   */\ntag_27:\n    /* \"#utility.yul\":1090:1091   */\n  0x00\n    /* \"#utility.yul\":1115:1179   */\n  tag_29\n    /* \"#utility.yul\":1171:1178   */\n  dup5\n    /* \"#utility.yul\":1162:1168   */\n  dup3\n    /* \"#utility.yul\":1151:1160   */\n  dup6\n    /* \"#utility.yul\":1147:1169   */\n  add\n    /* \"#utility.yul\":1115:1179   */\n  tag_13\n  jump\t// in\ntag_29:\n    /* \"#utility.yul\":1105:1179   */\n  swap2\n  pop\n    /* \"#utility.yul\":1061:1189   */\n  pop\n    /* \"#utility.yul\":845:1196   */\n  swap3\n  swap2\n  pop\n  pop\n  jump\t// out\n    /* \"telefonica/recompensasFamilia.sol\":271:2288  contract TaskCompensation {... */\ntag_6:\n  dataSize(sub_0)\n  dup1\n  dataOffset(sub_0)\n  0x00\n  codecopy\n  0x00\n  return\nstop\n\nsub_0: assembly {\n        /* \"telefonica/recompensasFamilia.sol\":271:2288  contract TaskCompensation {... */\n      mstore(0x40, 0x80)\n      callvalue\n      dup1\n      iszero\n      tag_1\n      jumpi\n      0x00\n      dup1\n      revert\n    tag_1:\n      pop\n      jumpi(tag_2, lt(calldatasize, 0x04))\n      shr(0xe0, calldataload(0x00))\n      dup1\n      0x0a07fae6\n      eq\n      tag_3\n      jumpi\n      dup1\n      0x8d977672\n      eq\n      tag_4\n      jumpi\n      dup1\n      0x8da5cb5b\n      eq\n      tag_5\n      jumpi\n      dup1\n      0xf50e99fc\n      eq\n      tag_6\n      jumpi\n      dup1\n      0xfc0c546a\n      eq\n      tag_7\n      jumpi\n      dup1\n      0xfdc3d8d7\n      eq\n      tag_8\n      jumpi\n    tag_2:\n      0x00\n      dup1\n      revert\n        /* \"telefonica/recompensasFamilia.sol\":1746:2285  function approveTask(uint256 taskId) external onlyOwner {... */\n    tag_3:\n      tag_9\n      0x04\n      dup1\n      calldatasize\n      sub\n      dup2\n      add\n      swap1\n      tag_10\n      swap2\n      swap1\n      tag_11\n      jump\t// in\n    tag_10:\n      tag_12\n      jump\t// in\n    tag_9:\n      stop\n        /* \"telefonica/recompensasFamilia.sol\":464:501  mapping(uint256 => Task) public tasks */\n    tag_4:\n      tag_13\n      0x04\n      dup1\n      calldatasize\n      sub\n      dup2\n      add\n      swap1\n      tag_14\n      swap2\n      swap1\n      tag_11\n      jump\t// in\n    tag_14:\n      tag_15\n      jump\t// in\n    tag_13:\n      mload(0x40)\n      tag_16\n      swap4\n      swap3\n      swap2\n      swap1\n      tag_17\n      jump\t// in\n    tag_16:\n      mload(0x40)\n      dup1\n      swap2\n      sub\n      swap1\n      return\n        /* \"telefonica/recompensasFamilia.sol\":330:350  address public owner */\n    tag_5:\n      tag_18\n      tag_19\n      jump\t// in\n    tag_18:\n      mload(0x40)\n      tag_20\n      swap2\n      swap1\n      tag_21\n      jump\t// in\n    tag_20:\n      mload(0x40)\n      dup1\n      swap2\n      sub\n      swap1\n      return\n        /* \"telefonica/recompensasFamilia.sol\":1172:1650  function createTask(address _taskDoer, uint256 _reward) external onlyOwner {... */\n    tag_6:\n      tag_22\n      0x04\n      dup1\n      calldatasize\n      sub\n      dup2\n      add\n      swap1\n      tag_23\n      swap2\n      swap1\n      tag_24\n      jump\t// in\n    tag_23:\n      tag_25\n      jump\t// in\n    tag_22:\n      stop\n        /* \"telefonica/recompensasFamilia.sol\":304:323  IERC20 public token */\n    tag_7:\n      tag_26\n      tag_27\n      jump\t// in\n    tag_26:\n      mload(0x40)\n      tag_28\n      swap2\n      swap1\n      tag_29\n      jump\t// in\n    tag_28:\n      mload(0x40)\n      dup1\n      swap2\n      sub\n      swap1\n      return\n        /* \"telefonica/recompensasFamilia.sol\":508:533  uint256 public nextTaskId */\n    tag_8:\n      tag_30\n      tag_31\n      jump\t// in\n    tag_30:\n      mload(0x40)\n      tag_32\n      swap2\n      swap1\n      tag_33\n      jump\t// in\n    tag_32:\n      mload(0x40)\n      dup1\n      swap2\n      sub\n      swap1\n      return\n        /* \"telefonica/recompensasFamilia.sol\":1746:2285  function approveTask(uint256 taskId) external onlyOwner {... */\n    tag_12:\n        /* \"telefonica/recompensasFamilia.sol\":1044:1049  owner */\n      0x01\n      0x00\n      swap1\n      sload\n      swap1\n      0x0100\n      exp\n      swap1\n      div\n      0xffffffffffffffffffffffffffffffffffffffff\n      and\n        /* \"telefonica/recompensasFamilia.sol\":1030:1049  msg.sender == owner */\n      0xffffffffffffffffffffffffffffffffffffffff\n      and\n        /* \"telefonica/recompensasFamilia.sol\":1030:1040  msg.sender */\n      caller\n        /* \"telefonica/recompensasFamilia.sol\":1030:1049  msg.sender == owner */\n      0xffffffffffffffffffffffffffffffffffffffff\n      and\n      eq\n        /* \"telefonica/recompensasFamilia.sol\":1022:1067  require(msg.sender == owner, \"Not the owner\") */\n      tag_35\n      jumpi\n      mload(0x40)\n      0x08c379a000000000000000000000000000000000000000000000000000000000\n      dup2\n      mstore\n      0x04\n      add\n      tag_36\n      swap1\n      tag_37\n      jump\t// in\n    tag_36:\n      mload(0x40)\n      dup1\n      swap2\n      sub\n      swap1\n      revert\n    tag_35:\n        /* \"telefonica/recompensasFamilia.sol\":1813:1830  Task storage task */\n      0x00\n        /* \"telefonica/recompensasFamilia.sol\":1833:1838  tasks */\n      0x02\n        /* \"telefonica/recompensasFamilia.sol\":1833:1846  tasks[taskId] */\n      0x00\n        /* \"telefonica/recompensasFamilia.sol\":1839:1845  taskId */\n      dup4\n        /* \"telefonica/recompensasFamilia.sol\":1833:1846  tasks[taskId] */\n      dup2\n      mstore\n      0x20\n      add\n      swap1\n      dup2\n      mstore\n      0x20\n      add\n      0x00\n      keccak256\n        /* \"telefonica/recompensasFamilia.sol\":1813:1846  Task storage task = tasks[taskId] */\n      swap1\n      pop\n        /* \"telefonica/recompensasFamilia.sol\":1866:1870  task */\n      dup1\n        /* \"telefonica/recompensasFamilia.sol\":1866:1880  task.completed */\n      0x02\n      add\n      0x00\n      swap1\n      sload\n      swap1\n      0x0100\n      exp\n      swap1\n      div\n      0xff\n      and\n        /* \"telefonica/recompensasFamilia.sol\":1865:1880  !task.completed */\n      iszero\n        /* \"telefonica/recompensasFamilia.sol\":1857:1907  require(!task.completed, \"Task already completed\") */\n      tag_39\n      jumpi\n      mload(0x40)\n      0x08c379a000000000000000000000000000000000000000000000000000000000\n      dup2\n      mstore\n      0x04\n      add\n      tag_40\n      swap1\n      tag_41\n      jump\t// in\n    tag_40:\n      mload(0x40)\n      dup1\n      swap2\n      sub\n      swap1\n      revert\n    tag_39:\n        /* \"telefonica/recompensasFamilia.sol\":1940:1941  0 */\n      0x00\n        /* \"telefonica/recompensasFamilia.sol\":1926:1930  task */\n      dup2\n        /* \"telefonica/recompensasFamilia.sol\":1926:1937  task.reward */\n      0x01\n      add\n      sload\n        /* \"telefonica/recompensasFamilia.sol\":1926:1941  task.reward > 0 */\n      gt\n        /* \"telefonica/recompensasFamilia.sol\":1918:1964  require(task.reward > 0, \"Reward must be set\") */\n      tag_42\n      jumpi\n      mload(0x40)\n      0x08c379a000000000000000000000000000000000000000000000000000000000\n      dup2\n      mstore\n      0x04\n      add\n      tag_43\n      swap1\n      tag_44\n      jump\t// in\n    tag_43:\n      mload(0x40)\n      dup1\n      swap2\n      sub\n      swap1\n      revert\n    tag_42:\n        /* \"telefonica/recompensasFamilia.sol\":2002:2006  true */\n      0x01\n        /* \"telefonica/recompensasFamilia.sol\":1985:1989  task */\n      dup2\n        /* \"telefonica/recompensasFamilia.sol\":1985:1999  task.completed */\n      0x02\n      add\n      0x00\n        /* \"telefonica/recompensasFamilia.sol\":1985:2006  task.completed = true */\n      0x0100\n      exp\n      dup2\n      sload\n      dup2\n      0xff\n      mul\n      not\n      and\n      swap1\n      dup4\n      iszero\n      iszero\n      mul\n      or\n      swap1\n      sstore\n      pop\n        /* \"telefonica/recompensasFamilia.sol\":2025:2030  token */\n      0x00\n      dup1\n      sload\n      swap1\n      0x0100\n      exp\n      swap1\n      div\n      0xffffffffffffffffffffffffffffffffffffffff\n      and\n        /* \"telefonica/recompensasFamilia.sol\":2025:2039  token.transfer */\n      0xffffffffffffffffffffffffffffffffffffffff\n      and\n      0xa9059cbb\n        /* \"telefonica/recompensasFamilia.sol\":2040:2044  task */\n      dup3\n        /* \"telefonica/recompensasFamilia.sol\":2040:2053  task.taskDoer */\n      0x00\n      add\n      0x00\n      swap1\n      sload\n      swap1\n      0x0100\n      exp\n      swap1\n      div\n      0xffffffffffffffffffffffffffffffffffffffff\n      and\n        /* \"telefonica/recompensasFamilia.sol\":2055:2059  task */\n      dup4\n        /* \"telefonica/recompensasFamilia.sol\":2055:2066  task.reward */\n      0x01\n      add\n      sload\n        /* \"telefonica/recompensasFamilia.sol\":2025:2067  token.transfer(task.taskDoer, task.reward) */\n      mload(0x40)\n      dup4\n      0xffffffff\n      and\n      0xe0\n      shl\n      dup2\n      mstore\n      0x04\n      add\n      tag_45\n      swap3\n      swap2\n      swap1\n      tag_46\n      jump\t// in\n    tag_45:\n      0x20\n      mload(0x40)\n      dup1\n      dup4\n      sub\n      dup2\n      0x00\n      dup8\n      gas\n      call\n      iszero\n      dup1\n      iszero\n      tag_48\n      jumpi\n      returndatasize\n      0x00\n      dup1\n      returndatacopy\n      revert(0x00, returndatasize)\n    tag_48:\n      pop\n      pop\n      pop\n      pop\n      mload(0x40)\n      returndatasize\n      not(0x1f)\n      0x1f\n      dup3\n      add\n      and\n      dup3\n      add\n      dup1\n      0x40\n      mstore\n      pop\n      dup2\n      add\n      swap1\n      tag_49\n      swap2\n      swap1\n      tag_50\n      jump\t// in\n    tag_49:\n        /* \"telefonica/recompensasFamilia.sol\":2017:2094  require(token.transfer(task.taskDoer, task.reward), \"Reward transfer failed\") */\n      tag_51\n      jumpi\n      mload(0x40)\n      0x08c379a000000000000000000000000000000000000000000000000000000000\n      dup2\n      mstore\n      0x04\n      add\n      tag_52\n      swap1\n      tag_53\n      jump\t// in\n    tag_52:\n      mload(0x40)\n      dup1\n      swap2\n      sub\n      swap1\n      revert\n    tag_51:\n        /* \"telefonica/recompensasFamilia.sol\":2120:2181  TaskApprovedAndRewardSent(taskId, task.taskDoer, task.reward) */\n      0xeaa2efc12cac7a82a6702386cc6f33c13309d320384f0f796ce6b426841f5301\n        /* \"telefonica/recompensasFamilia.sol\":2146:2152  taskId */\n      dup3\n        /* \"telefonica/recompensasFamilia.sol\":2154:2158  task */\n      dup3\n        /* \"telefonica/recompensasFamilia.sol\":2154:2167  task.taskDoer */\n      0x00\n      add\n      0x00\n      swap1\n      sload\n      swap1\n      0x0100\n      exp\n      swap1\n      div\n      0xffffffffffffffffffffffffffffffffffffffff\n      and\n        /* \"telefonica/recompensasFamilia.sol\":2169:2173  task */\n      dup4\n        /* \"telefonica/recompensasFamilia.sol\":2169:2180  task.reward */\n      0x01\n      add\n      sload\n        /* \"telefonica/recompensasFamilia.sol\":2120:2181  TaskApprovedAndRewardSent(taskId, task.taskDoer, task.reward) */\n      mload(0x40)\n      tag_54\n      swap4\n      swap3\n      swap2\n      swap1\n      tag_55\n      jump\t// in\n    tag_54:\n      mload(0x40)\n      dup1\n      swap2\n      sub\n      swap1\n      log1\n        /* \"telefonica/recompensasFamilia.sol\":2276:2277  0 */\n      0x00\n        /* \"telefonica/recompensasFamilia.sol\":2262:2266  task */\n      dup2\n        /* \"telefonica/recompensasFamilia.sol\":2262:2273  task.reward */\n      0x01\n      add\n        /* \"telefonica/recompensasFamilia.sol\":2262:2277  task.reward = 0 */\n      dup2\n      swap1\n      sstore\n      pop\n        /* \"telefonica/recompensasFamilia.sol\":1802:2285  {... */\n      pop\n        /* \"telefonica/recompensasFamilia.sol\":1746:2285  function approveTask(uint256 taskId) external onlyOwner {... */\n      pop\n      jump\t// out\n        /* \"telefonica/recompensasFamilia.sol\":464:501  mapping(uint256 => Task) public tasks */\n    tag_15:\n      mstore(0x20, 0x02)\n      dup1\n      0x00\n      mstore\n      keccak256(0x00, 0x40)\n      0x00\n      swap2\n      pop\n      swap1\n      pop\n      dup1\n      0x00\n      add\n      0x00\n      swap1\n      sload\n      swap1\n      0x0100\n      exp\n      swap1\n      div\n      0xffffffffffffffffffffffffffffffffffffffff\n      and\n      swap1\n      dup1\n      0x01\n      add\n      sload\n      swap1\n      dup1\n      0x02\n      add\n      0x00\n      swap1\n      sload\n      swap1\n      0x0100\n      exp\n      swap1\n      div\n      0xff\n      and\n      swap1\n      pop\n      dup4\n      jump\t// out\n        /* \"telefonica/recompensasFamilia.sol\":330:350  address public owner */\n    tag_19:\n      0x01\n      0x00\n      swap1\n      sload\n      swap1\n      0x0100\n      exp\n      swap1\n      div\n      0xffffffffffffffffffffffffffffffffffffffff\n      and\n      dup2\n      jump\t// out\n        /* \"telefonica/recompensasFamilia.sol\":1172:1650  function createTask(address _taskDoer, uint256 _reward) external onlyOwner {... */\n    tag_25:\n        /* \"telefonica/recompensasFamilia.sol\":1044:1049  owner */\n      0x01\n      0x00\n      swap1\n      sload\n      swap1\n      0x0100\n      exp\n      swap1\n      div\n      0xffffffffffffffffffffffffffffffffffffffff\n      and\n        /* \"telefonica/recompensasFamilia.sol\":1030:1049  msg.sender == owner */\n      0xffffffffffffffffffffffffffffffffffffffff\n      and\n        /* \"telefonica/recompensasFamilia.sol\":1030:1040  msg.sender */\n      caller\n        /* \"telefonica/recompensasFamilia.sol\":1030:1049  msg.sender == owner */\n      0xffffffffffffffffffffffffffffffffffffffff\n      and\n      eq\n        /* \"telefonica/recompensasFamilia.sol\":1022:1067  require(msg.sender == owner, \"Not the owner\") */\n      tag_57\n      jumpi\n      mload(0x40)\n      0x08c379a000000000000000000000000000000000000000000000000000000000\n      dup2\n      mstore\n      0x04\n      add\n      tag_58\n      swap1\n      tag_37\n      jump\t// in\n    tag_58:\n      mload(0x40)\n      dup1\n      swap2\n      sub\n      swap1\n      revert\n    tag_57:\n        /* \"telefonica/recompensasFamilia.sol\":1276:1277  0 */\n      0x00\n        /* \"telefonica/recompensasFamilia.sol\":1266:1273  _reward */\n      dup2\n        /* \"telefonica/recompensasFamilia.sol\":1266:1277  _reward > 0 */\n      gt\n        /* \"telefonica/recompensasFamilia.sol\":1258:1311  require(_reward > 0, \"Reward must be greater than 0\") */\n      tag_60\n      jumpi\n      mload(0x40)\n      0x08c379a000000000000000000000000000000000000000000000000000000000\n      dup2\n      mstore\n      0x04\n      add\n      tag_61\n      swap1\n      tag_62\n      jump\t// in\n    tag_61:\n      mload(0x40)\n      dup1\n      swap2\n      sub\n      swap1\n      revert\n    tag_60:\n        /* \"telefonica/recompensasFamilia.sol\":1322:1336  uint256 taskId */\n      0x00\n        /* \"telefonica/recompensasFamilia.sol\":1339:1349  nextTaskId */\n      0x03\n      0x00\n        /* \"telefonica/recompensasFamilia.sol\":1339:1351  nextTaskId++ */\n      dup2\n      sload\n      dup1\n      swap3\n      swap2\n      swap1\n      tag_63\n      swap1\n      tag_64\n      jump\t// in\n    tag_63:\n      swap2\n      swap1\n      pop\n      sstore\n        /* \"telefonica/recompensasFamilia.sol\":1322:1351  uint256 taskId = nextTaskId++ */\n      swap1\n      pop\n        /* \"telefonica/recompensasFamilia.sol\":1370:1375  token */\n      0x00\n      dup1\n      sload\n      swap1\n      0x0100\n      exp\n      swap1\n      div\n      0xffffffffffffffffffffffffffffffffffffffff\n      and\n        /* \"telefonica/recompensasFamilia.sol\":1370:1388  token.transferFrom */\n      0xffffffffffffffffffffffffffffffffffffffff\n      and\n      0x23b872dd\n        /* \"telefonica/recompensasFamilia.sol\":1389:1399  msg.sender */\n      caller\n        /* \"telefonica/recompensasFamilia.sol\":1409:1413  this */\n      address\n        /* \"telefonica/recompensasFamilia.sol\":1416:1423  _reward */\n      dup6\n        /* \"telefonica/recompensasFamilia.sol\":1370:1424  token.transferFrom(msg.sender, address(this), _reward) */\n      mload(0x40)\n      dup5\n      0xffffffff\n      and\n      0xe0\n      shl\n      dup2\n      mstore\n      0x04\n      add\n      tag_65\n      swap4\n      swap3\n      swap2\n      swap1\n      tag_66\n      jump\t// in\n    tag_65:\n      0x20\n      mload(0x40)\n      dup1\n      dup4\n      sub\n      dup2\n      0x00\n      dup8\n      gas\n      call\n      iszero\n      dup1\n      iszero\n      tag_68\n      jumpi\n      returndatasize\n      0x00\n      dup1\n      returndatacopy\n      revert(0x00, returndatasize)\n    tag_68:\n      pop\n      pop\n      pop\n      pop\n      mload(0x40)\n      returndatasize\n      not(0x1f)\n      0x1f\n      dup3\n      add\n      and\n      dup3\n      add\n      dup1\n      0x40\n      mstore\n      pop\n      dup2\n      add\n      swap1\n      tag_69\n      swap2\n      swap1\n      tag_50\n      jump\t// in\n    tag_69:\n        /* \"telefonica/recompensasFamilia.sol\":1362:1444  require(token.transferFrom(msg.sender, address(this), _reward), \"Transfer failed\") */\n      tag_70\n      jumpi\n      mload(0x40)\n      0x08c379a000000000000000000000000000000000000000000000000000000000\n      dup2\n      mstore\n      0x04\n      add\n      tag_71\n      swap1\n      tag_72\n      jump\t// in\n    tag_71:\n      mload(0x40)\n      dup1\n      swap2\n      sub\n      swap1\n      revert\n    tag_70:\n        /* \"telefonica/recompensasFamilia.sol\":1473:1585  Task({... */\n      mload(0x40)\n      dup1\n      0x60\n      add\n      0x40\n      mstore\n      dup1\n        /* \"telefonica/recompensasFamilia.sol\":1503:1512  _taskDoer */\n      dup5\n        /* \"telefonica/recompensasFamilia.sol\":1473:1585  Task({... */\n      0xffffffffffffffffffffffffffffffffffffffff\n      and\n      dup2\n      mstore\n      0x20\n      add\n        /* \"telefonica/recompensasFamilia.sol\":1535:1542  _reward */\n      dup4\n        /* \"telefonica/recompensasFamilia.sol\":1473:1585  Task({... */\n      dup2\n      mstore\n      0x20\n      add\n        /* \"telefonica/recompensasFamilia.sol\":1568:1573  false */\n      0x00\n        /* \"telefonica/recompensasFamilia.sol\":1473:1585  Task({... */\n      iszero\n      iszero\n      dup2\n      mstore\n      pop\n        /* \"telefonica/recompensasFamilia.sol\":1457:1462  tasks */\n      0x02\n        /* \"telefonica/recompensasFamilia.sol\":1457:1470  tasks[taskId] */\n      0x00\n        /* \"telefonica/recompensasFamilia.sol\":1463:1469  taskId */\n      dup4\n        /* \"telefonica/recompensasFamilia.sol\":1457:1470  tasks[taskId] */\n      dup2\n      mstore\n      0x20\n      add\n      swap1\n      dup2\n      mstore\n      0x20\n      add\n      0x00\n      keccak256\n        /* \"telefonica/recompensasFamilia.sol\":1457:1585  tasks[taskId] = Task({... */\n      0x00\n      dup3\n      add\n      mload\n      dup2\n      0x00\n      add\n      exp(0x0100, 0x00)\n      dup2\n      sload\n      dup2\n      0xffffffffffffffffffffffffffffffffffffffff\n      mul\n      not\n      and\n      swap1\n      dup4\n      0xffffffffffffffffffffffffffffffffffffffff\n      and\n      mul\n      or\n      swap1\n      sstore\n      pop\n      0x20\n      dup3\n      add\n      mload\n      dup2\n      0x01\n      add\n      sstore\n      0x40\n      dup3\n      add\n      mload\n      dup2\n      0x02\n      add\n      exp(0x0100, 0x00)\n      dup2\n      sload\n      dup2\n      0xff\n      mul\n      not\n      and\n      swap1\n      dup4\n      iszero\n      iszero\n      mul\n      or\n      swap1\n      sstore\n      pop\n      swap1\n      pop\n      pop\n        /* \"telefonica/recompensasFamilia.sol\":1603:1642  TaskCreated(taskId, _taskDoer, _reward) */\n      0x6cf53aa7292e664152c2ea948c3b3c95d4b05c36daeb2626d0293473c4a4a153\n        /* \"telefonica/recompensasFamilia.sol\":1615:1621  taskId */\n      dup2\n        /* \"telefonica/recompensasFamilia.sol\":1623:1632  _taskDoer */\n      dup5\n        /* \"telefonica/recompensasFamilia.sol\":1634:1641  _reward */\n      dup5\n        /* \"telefonica/recompensasFamilia.sol\":1603:1642  TaskCreated(taskId, _taskDoer, _reward) */\n      mload(0x40)\n      tag_73\n      swap4\n      swap3\n      swap2\n      swap1\n      tag_55\n      jump\t// in\n    tag_73:\n      mload(0x40)\n      dup1\n      swap2\n      sub\n      swap1\n      log1\n        /* \"telefonica/recompensasFamilia.sol\":1247:1650  {... */\n      pop\n        /* \"telefonica/recompensasFamilia.sol\":1172:1650  function createTask(address _taskDoer, uint256 _reward) external onlyOwner {... */\n      pop\n      pop\n      jump\t// out\n        /* \"telefonica/recompensasFamilia.sol\":304:323  IERC20 public token */\n    tag_27:\n      0x00\n      dup1\n      sload\n      swap1\n      0x0100\n      exp\n      swap1\n      div\n      0xffffffffffffffffffffffffffffffffffffffff\n      and\n      dup2\n      jump\t// out\n        /* \"telefonica/recompensasFamilia.sol\":508:533  uint256 public nextTaskId */\n    tag_31:\n      sload(0x03)\n      dup2\n      jump\t// out\n        /* \"#utility.yul\":88:205   */\n    tag_75:\n        /* \"#utility.yul\":197:198   */\n      0x00\n        /* \"#utility.yul\":194:195   */\n      dup1\n        /* \"#utility.yul\":187:199   */\n      revert\n        /* \"#utility.yul\":334:411   */\n    tag_77:\n        /* \"#utility.yul\":371:378   */\n      0x00\n        /* \"#utility.yul\":400:405   */\n      dup2\n        /* \"#utility.yul\":389:405   */\n      swap1\n      pop\n        /* \"#utility.yul\":334:411   */\n      swap2\n      swap1\n      pop\n      jump\t// out\n        /* \"#utility.yul\":417:539   */\n    tag_78:\n        /* \"#utility.yul\":490:514   */\n      tag_115\n        /* \"#utility.yul\":508:513   */\n      dup2\n        /* \"#utility.yul\":490:514   */\n      tag_77\n      jump\t// in\n    tag_115:\n        /* \"#utility.yul\":483:488   */\n      dup2\n        /* \"#utility.yul\":480:515   */\n      eq\n        /* \"#utility.yul\":470:533   */\n      tag_116\n      jumpi\n        /* \"#utility.yul\":529:530   */\n      0x00\n        /* \"#utility.yul\":526:527   */\n      dup1\n        /* \"#utility.yul\":519:531   */\n      revert\n        /* \"#utility.yul\":470:533   */\n    tag_116:\n        /* \"#utility.yul\":417:539   */\n      pop\n      jump\t// out\n        /* \"#utility.yul\":545:684   */\n    tag_79:\n        /* \"#utility.yul\":591:596   */\n      0x00\n        /* \"#utility.yul\":629:635   */\n      dup2\n        /* \"#utility.yul\":616:636   */\n      calldataload\n        /* \"#utility.yul\":607:636   */\n      swap1\n      pop\n        /* \"#utility.yul\":645:678   */\n      tag_118\n        /* \"#utility.yul\":672:677   */\n      dup2\n        /* \"#utility.yul\":645:678   */\n      tag_78\n      jump\t// in\n    tag_118:\n        /* \"#utility.yul\":545:684   */\n      swap3\n      swap2\n      pop\n      pop\n      jump\t// out\n        /* \"#utility.yul\":690:1019   */\n    tag_11:\n        /* \"#utility.yul\":749:755   */\n      0x00\n        /* \"#utility.yul\":798:800   */\n      0x20\n        /* \"#utility.yul\":786:795   */\n      dup3\n        /* \"#utility.yul\":777:784   */\n      dup5\n        /* \"#utility.yul\":773:796   */\n      sub\n        /* \"#utility.yul\":769:801   */\n      slt\n        /* \"#utility.yul\":766:885   */\n      iszero\n      tag_120\n      jumpi\n        /* \"#utility.yul\":804:883   */\n      tag_121\n      tag_75\n      jump\t// in\n    tag_121:\n        /* \"#utility.yul\":766:885   */\n    tag_120:\n        /* \"#utility.yul\":924:925   */\n      0x00\n        /* \"#utility.yul\":949:1002   */\n      tag_122\n        /* \"#utility.yul\":994:1001   */\n      dup5\n        /* \"#utility.yul\":985:991   */\n      dup3\n        /* \"#utility.yul\":974:983   */\n      dup6\n        /* \"#utility.yul\":970:992   */\n      add\n        /* \"#utility.yul\":949:1002   */\n      tag_79\n      jump\t// in\n    tag_122:\n        /* \"#utility.yul\":939:1002   */\n      swap2\n      pop\n        /* \"#utility.yul\":895:1012   */\n      pop\n        /* \"#utility.yul\":690:1019   */\n      swap3\n      swap2\n      pop\n      pop\n      jump\t// out\n        /* \"#utility.yul\":1025:1151   */\n    tag_80:\n        /* \"#utility.yul\":1062:1069   */\n      0x00\n        /* \"#utility.yul\":1102:1144   */\n      0xffffffffffffffffffffffffffffffffffffffff\n        /* \"#utility.yul\":1095:1100   */\n      dup3\n        /* \"#utility.yul\":1091:1145   */\n      and\n        /* \"#utility.yul\":1080:1145   */\n      swap1\n      pop\n        /* \"#utility.yul\":1025:1151   */\n      swap2\n      swap1\n      pop\n      jump\t// out\n        /* \"#utility.yul\":1157:1253   */\n    tag_81:\n        /* \"#utility.yul\":1194:1201   */\n      0x00\n        /* \"#utility.yul\":1223:1247   */\n      tag_125\n        /* \"#utility.yul\":1241:1246   */\n      dup3\n        /* \"#utility.yul\":1223:1247   */\n      tag_80\n      jump\t// in\n    tag_125:\n        /* \"#utility.yul\":1212:1247   */\n      swap1\n      pop\n        /* \"#utility.yul\":1157:1253   */\n      swap2\n      swap1\n      pop\n      jump\t// out\n        /* \"#utility.yul\":1259:1377   */\n    tag_82:\n        /* \"#utility.yul\":1346:1370   */\n      tag_127\n        /* \"#utility.yul\":1364:1369   */\n      dup2\n        /* \"#utility.yul\":1346:1370   */\n      tag_81\n      jump\t// in\n    tag_127:\n        /* \"#utility.yul\":1341:1344   */\n      dup3\n        /* \"#utility.yul\":1334:1371   */\n      mstore\n        /* \"#utility.yul\":1259:1377   */\n      pop\n      pop\n      jump\t// out\n        /* \"#utility.yul\":1383:1501   */\n    tag_83:\n        /* \"#utility.yul\":1470:1494   */\n      tag_129\n        /* \"#utility.yul\":1488:1493   */\n      dup2\n        /* \"#utility.yul\":1470:1494   */\n      tag_77\n      jump\t// in\n    tag_129:\n        /* \"#utility.yul\":1465:1468   */\n      dup3\n        /* \"#utility.yul\":1458:1495   */\n      mstore\n        /* \"#utility.yul\":1383:1501   */\n      pop\n      pop\n      jump\t// out\n        /* \"#utility.yul\":1507:1597   */\n    tag_84:\n        /* \"#utility.yul\":1541:1548   */\n      0x00\n        /* \"#utility.yul\":1584:1589   */\n      dup2\n        /* \"#utility.yul\":1577:1590   */\n      iszero\n        /* \"#utility.yul\":1570:1591   */\n      iszero\n        /* \"#utility.yul\":1559:1591   */\n      swap1\n      pop\n        /* \"#utility.yul\":1507:1597   */\n      swap2\n      swap1\n      pop\n      jump\t// out\n        /* \"#utility.yul\":1603:1712   */\n    tag_85:\n        /* \"#utility.yul\":1684:1705   */\n      tag_132\n        /* \"#utility.yul\":1699:1704   */\n      dup2\n        /* \"#utility.yul\":1684:1705   */\n      tag_84\n      jump\t// in\n    tag_132:\n        /* \"#utility.yul\":1679:1682   */\n      dup3\n        /* \"#utility.yul\":1672:1706   */\n      mstore\n        /* \"#utility.yul\":1603:1712   */\n      pop\n      pop\n      jump\t// out\n        /* \"#utility.yul\":1718:2148   */\n    tag_17:\n        /* \"#utility.yul\":1861:1865   */\n      0x00\n        /* \"#utility.yul\":1899:1901   */\n      0x60\n        /* \"#utility.yul\":1888:1897   */\n      dup3\n        /* \"#utility.yul\":1884:1902   */\n      add\n        /* \"#utility.yul\":1876:1902   */\n      swap1\n      pop\n        /* \"#utility.yul\":1912:1983   */\n      tag_134\n        /* \"#utility.yul\":1980:1981   */\n      0x00\n        /* \"#utility.yul\":1969:1978   */\n      dup4\n        /* \"#utility.yul\":1965:1982   */\n      add\n        /* \"#utility.yul\":1956:1962   */\n      dup7\n        /* \"#utility.yul\":1912:1983   */\n      tag_82\n      jump\t// in\n    tag_134:\n        /* \"#utility.yul\":1993:2065   */\n      tag_135\n        /* \"#utility.yul\":2061:2063   */\n      0x20\n        /* \"#utility.yul\":2050:2059   */\n      dup4\n        /* \"#utility.yul\":2046:2064   */\n      add\n        /* \"#utility.yul\":2037:2043   */\n      dup6\n        /* \"#utility.yul\":1993:2065   */\n      tag_83\n      jump\t// in\n    tag_135:\n        /* \"#utility.yul\":2075:2141   */\n      tag_136\n        /* \"#utility.yul\":2137:2139   */\n      0x40\n        /* \"#utility.yul\":2126:2135   */\n      dup4\n        /* \"#utility.yul\":2122:2140   */\n      add\n        /* \"#utility.yul\":2113:2119   */\n      dup5\n        /* \"#utility.yul\":2075:2141   */\n      tag_85\n      jump\t// in\n    tag_136:\n        /* \"#utility.yul\":1718:2148   */\n      swap5\n      swap4\n      pop\n      pop\n      pop\n      pop\n      jump\t// out\n        /* \"#utility.yul\":2154:2376   */\n    tag_21:\n        /* \"#utility.yul\":2247:2251   */\n      0x00\n        /* \"#utility.yul\":2285:2287   */\n      0x20\n        /* \"#utility.yul\":2274:2283   */\n      dup3\n        /* \"#utility.yul\":2270:2288   */\n      add\n        /* \"#utility.yul\":2262:2288   */\n      swap1\n      pop\n        /* \"#utility.yul\":2298:2369   */\n      tag_138\n        /* \"#utility.yul\":2366:2367   */\n      0x00\n        /* \"#utility.yul\":2355:2364   */\n      dup4\n        /* \"#utility.yul\":2351:2368   */\n      add\n        /* \"#utility.yul\":2342:2348   */\n      dup5\n        /* \"#utility.yul\":2298:2369   */\n      tag_82\n      jump\t// in\n    tag_138:\n        /* \"#utility.yul\":2154:2376   */\n      swap3\n      swap2\n      pop\n      pop\n      jump\t// out\n        /* \"#utility.yul\":2382:2504   */\n    tag_86:\n        /* \"#utility.yul\":2455:2479   */\n      tag_140\n        /* \"#utility.yul\":2473:2478   */\n      dup2\n        /* \"#utility.yul\":2455:2479   */\n      tag_81\n      jump\t// in\n    tag_140:\n        /* \"#utility.yul\":2448:2453   */\n      dup2\n        /* \"#utility.yul\":2445:2480   */\n      eq\n        /* \"#utility.yul\":2435:2498   */\n      tag_141\n      jumpi\n        /* \"#utility.yul\":2494:2495   */\n      0x00\n        /* \"#utility.yul\":2491:2492   */\n      dup1\n        /* \"#utility.yul\":2484:2496   */\n      revert\n        /* \"#utility.yul\":2435:2498   */\n    tag_141:\n        /* \"#utility.yul\":2382:2504   */\n      pop\n      jump\t// out\n        /* \"#utility.yul\":2510:2649   */\n    tag_87:\n        /* \"#utility.yul\":2556:2561   */\n      0x00\n        /* \"#utility.yul\":2594:2600   */\n      dup2\n        /* \"#utility.yul\":2581:2601   */\n      calldataload\n        /* \"#utility.yul\":2572:2601   */\n      swap1\n      pop\n        /* \"#utility.yul\":2610:2643   */\n      tag_143\n        /* \"#utility.yul\":2637:2642   */\n      dup2\n        /* \"#utility.yul\":2610:2643   */\n      tag_86\n      jump\t// in\n    tag_143:\n        /* \"#utility.yul\":2510:2649   */\n      swap3\n      swap2\n      pop\n      pop\n      jump\t// out\n        /* \"#utility.yul\":2655:3129   */\n    tag_24:\n        /* \"#utility.yul\":2723:2729   */\n      0x00\n        /* \"#utility.yul\":2731:2737   */\n      dup1\n        /* \"#utility.yul\":2780:2782   */\n      0x40\n        /* \"#utility.yul\":2768:2777   */\n      dup4\n        /* \"#utility.yul\":2759:2766   */\n      dup6\n        /* \"#utility.yul\":2755:2778   */\n      sub\n        /* \"#utility.yul\":2751:2783   */\n      slt\n        /* \"#utility.yul\":2748:2867   */\n      iszero\n      tag_145\n      jumpi\n        /* \"#utility.yul\":2786:2865   */\n      tag_146\n      tag_75\n      jump\t// in\n    tag_146:\n        /* \"#utility.yul\":2748:2867   */\n    tag_145:\n        /* \"#utility.yul\":2906:2907   */\n      0x00\n        /* \"#utility.yul\":2931:2984   */\n      tag_147\n        /* \"#utility.yul\":2976:2983   */\n      dup6\n        /* \"#utility.yul\":2967:2973   */\n      dup3\n        /* \"#utility.yul\":2956:2965   */\n      dup7\n        /* \"#utility.yul\":2952:2974   */\n      add\n        /* \"#utility.yul\":2931:2984   */\n      tag_87\n      jump\t// in\n    tag_147:\n        /* \"#utility.yul\":2921:2984   */\n      swap3\n      pop\n        /* \"#utility.yul\":2877:2994   */\n      pop\n        /* \"#utility.yul\":3033:3035   */\n      0x20\n        /* \"#utility.yul\":3059:3112   */\n      tag_148\n        /* \"#utility.yul\":3104:3111   */\n      dup6\n        /* \"#utility.yul\":3095:3101   */\n      dup3\n        /* \"#utility.yul\":3084:3093   */\n      dup7\n        /* \"#utility.yul\":3080:3102   */\n      add\n        /* \"#utility.yul\":3059:3112   */\n      tag_79\n      jump\t// in\n    tag_148:\n        /* \"#utility.yul\":3049:3112   */\n      swap2\n      pop\n        /* \"#utility.yul\":3004:3122   */\n      pop\n        /* \"#utility.yul\":2655:3129   */\n      swap3\n      pop\n      swap3\n      swap1\n      pop\n      jump\t// out\n        /* \"#utility.yul\":3135:3195   */\n    tag_88:\n        /* \"#utility.yul\":3163:3166   */\n      0x00\n        /* \"#utility.yul\":3184:3189   */\n      dup2\n        /* \"#utility.yul\":3177:3189   */\n      swap1\n      pop\n        /* \"#utility.yul\":3135:3195   */\n      swap2\n      swap1\n      pop\n      jump\t// out\n        /* \"#utility.yul\":3201:3343   */\n    tag_89:\n        /* \"#utility.yul\":3251:3260   */\n      0x00\n        /* \"#utility.yul\":3284:3337   */\n      tag_151\n        /* \"#utility.yul\":3302:3336   */\n      tag_152\n        /* \"#utility.yul\":3311:3335   */\n      tag_153\n        /* \"#utility.yul\":3329:3334   */\n      dup5\n        /* \"#utility.yul\":3311:3335   */\n      tag_80\n      jump\t// in\n    tag_153:\n        /* \"#utility.yul\":3302:3336   */\n      tag_88\n      jump\t// in\n    tag_152:\n        /* \"#utility.yul\":3284:3337   */\n      tag_80\n      jump\t// in\n    tag_151:\n        /* \"#utility.yul\":3271:3337   */\n      swap1\n      pop\n        /* \"#utility.yul\":3201:3343   */\n      swap2\n      swap1\n      pop\n      jump\t// out\n        /* \"#utility.yul\":3349:3475   */\n    tag_90:\n        /* \"#utility.yul\":3399:3408   */\n      0x00\n        /* \"#utility.yul\":3432:3469   */\n      tag_155\n        /* \"#utility.yul\":3463:3468   */\n      dup3\n        /* \"#utility.yul\":3432:3469   */\n      tag_89\n      jump\t// in\n    tag_155:\n        /* \"#utility.yul\":3419:3469   */\n      swap1\n      pop\n        /* \"#utility.yul\":3349:3475   */\n      swap2\n      swap1\n      pop\n      jump\t// out\n        /* \"#utility.yul\":3481:3620   */\n    tag_91:\n        /* \"#utility.yul\":3544:3553   */\n      0x00\n        /* \"#utility.yul\":3577:3614   */\n      tag_157\n        /* \"#utility.yul\":3608:3613   */\n      dup3\n        /* \"#utility.yul\":3577:3614   */\n      tag_90\n      jump\t// in\n    tag_157:\n        /* \"#utility.yul\":3564:3614   */\n      swap1\n      pop\n        /* \"#utility.yul\":3481:3620   */\n      swap2\n      swap1\n      pop\n      jump\t// out\n        /* \"#utility.yul\":3626:3783   */\n    tag_92:\n        /* \"#utility.yul\":3726:3776   */\n      tag_159\n        /* \"#utility.yul\":3770:3775   */\n      dup2\n        /* \"#utility.yul\":3726:3776   */\n      tag_91\n      jump\t// in\n    tag_159:\n        /* \"#utility.yul\":3721:3724   */\n      dup3\n        /* \"#utility.yul\":3714:3777   */\n      mstore\n        /* \"#utility.yul\":3626:3783   */\n      pop\n      pop\n      jump\t// out\n        /* \"#utility.yul\":3789:4037   */\n    tag_29:\n        /* \"#utility.yul\":3895:3899   */\n      0x00\n        /* \"#utility.yul\":3933:3935   */\n      0x20\n        /* \"#utility.yul\":3922:3931   */\n      dup3\n        /* \"#utility.yul\":3918:3936   */\n      add\n        /* \"#utility.yul\":3910:3936   */\n      swap1\n      pop\n        /* \"#utility.yul\":3946:4030   */\n      tag_161\n        /* \"#utility.yul\":4027:4028   */\n      0x00\n        /* \"#utility.yul\":4016:4025   */\n      dup4\n        /* \"#utility.yul\":4012:4029   */\n      add\n        /* \"#utility.yul\":4003:4009   */\n      dup5\n        /* \"#utility.yul\":3946:4030   */\n      tag_92\n      jump\t// in\n    tag_161:\n        /* \"#utility.yul\":3789:4037   */\n      swap3\n      swap2\n      pop\n      pop\n      jump\t// out\n        /* \"#utility.yul\":4043:4265   */\n    tag_33:\n        /* \"#utility.yul\":4136:4140   */\n      0x00\n        /* \"#utility.yul\":4174:4176   */\n      0x20\n        /* \"#utility.yul\":4163:4172   */\n      dup3\n        /* \"#utility.yul\":4159:4177   */\n      add\n        /* \"#utility.yul\":4151:4177   */\n      swap1\n      pop\n        /* \"#utility.yul\":4187:4258   */\n      tag_163\n        /* \"#utility.yul\":4255:4256   */\n      0x00\n        /* \"#utility.yul\":4244:4253   */\n      dup4\n        /* \"#utility.yul\":4240:4257   */\n      add\n        /* \"#utility.yul\":4231:4237   */\n      dup5\n        /* \"#utility.yul\":4187:4258   */\n      tag_83\n      jump\t// in\n    tag_163:\n        /* \"#utility.yul\":4043:4265   */\n      swap3\n      swap2\n      pop\n      pop\n      jump\t// out\n        /* \"#utility.yul\":4271:4440   */\n    tag_93:\n        /* \"#utility.yul\":4355:4366   */\n      0x00\n        /* \"#utility.yul\":4389:4395   */\n      dup3\n        /* \"#utility.yul\":4384:4387   */\n      dup3\n        /* \"#utility.yul\":4377:4396   */\n      mstore\n        /* \"#utility.yul\":4429:4433   */\n      0x20\n        /* \"#utility.yul\":4424:4427   */\n      dup3\n        /* \"#utility.yul\":4420:4434   */\n      add\n        /* \"#utility.yul\":4405:4434   */\n      swap1\n      pop\n        /* \"#utility.yul\":4271:4440   */\n      swap3\n      swap2\n      pop\n      pop\n      jump\t// out\n        /* \"#utility.yul\":4446:4609   */\n    tag_94:\n        /* \"#utility.yul\":4586:4601   */\n      0x4e6f7420746865206f776e657200000000000000000000000000000000000000\n        /* \"#utility.yul\":4582:4583   */\n      0x00\n        /* \"#utility.yul\":4574:4580   */\n      dup3\n        /* \"#utility.yul\":4570:4584   */\n      add\n        /* \"#utility.yul\":4563:4602   */\n      mstore\n        /* \"#utility.yul\":4446:4609   */\n      pop\n      jump\t// out\n        /* \"#utility.yul\":4615:4981   */\n    tag_95:\n        /* \"#utility.yul\":4757:4760   */\n      0x00\n        /* \"#utility.yul\":4778:4845   */\n      tag_167\n        /* \"#utility.yul\":4842:4844   */\n      0x0d\n        /* \"#utility.yul\":4837:4840   */\n      dup4\n        /* \"#utility.yul\":4778:4845   */\n      tag_93\n      jump\t// in\n    tag_167:\n        /* \"#utility.yul\":4771:4845   */\n      swap2\n      pop\n        /* \"#utility.yul\":4854:4947   */\n      tag_168\n        /* \"#utility.yul\":4943:4946   */\n      dup3\n        /* \"#utility.yul\":4854:4947   */\n      tag_94\n      jump\t// in\n    tag_168:\n        /* \"#utility.yul\":4972:4974   */\n      0x20\n        /* \"#utility.yul\":4967:4970   */\n      dup3\n        /* \"#utility.yul\":4963:4975   */\n      add\n        /* \"#utility.yul\":4956:4975   */\n      swap1\n      pop\n        /* \"#utility.yul\":4615:4981   */\n      swap2\n      swap1\n      pop\n      jump\t// out\n        /* \"#utility.yul\":4987:5406   */\n    tag_37:\n        /* \"#utility.yul\":5153:5157   */\n      0x00\n        /* \"#utility.yul\":5191:5193   */\n      0x20\n        /* \"#utility.yul\":5180:5189   */\n      dup3\n        /* \"#utility.yul\":5176:5194   */\n      add\n        /* \"#utility.yul\":5168:5194   */\n      swap1\n      pop\n        /* \"#utility.yul\":5240:5249   */\n      dup2\n        /* \"#utility.yul\":5234:5238   */\n      dup2\n        /* \"#utility.yul\":5230:5250   */\n      sub\n        /* \"#utility.yul\":5226:5227   */\n      0x00\n        /* \"#utility.yul\":5215:5224   */\n      dup4\n        /* \"#utility.yul\":5211:5228   */\n      add\n        /* \"#utility.yul\":5204:5251   */\n      mstore\n        /* \"#utility.yul\":5268:5399   */\n      tag_170\n        /* \"#utility.yul\":5394:5398   */\n      dup2\n        /* \"#utility.yul\":5268:5399   */\n      tag_95\n      jump\t// in\n    tag_170:\n        /* \"#utility.yul\":5260:5399   */\n      swap1\n      pop\n        /* \"#utility.yul\":4987:5406   */\n      swap2\n      swap1\n      pop\n      jump\t// out\n        /* \"#utility.yul\":5412:5584   */\n    tag_96:\n        /* \"#utility.yul\":5552:5576   */\n      0x5461736b20616c726561647920636f6d706c6574656400000000000000000000\n        /* \"#utility.yul\":5548:5549   */\n      0x00\n        /* \"#utility.yul\":5540:5546   */\n      dup3\n        /* \"#utility.yul\":5536:5550   */\n      add\n        /* \"#utility.yul\":5529:5577   */\n      mstore\n        /* \"#utility.yul\":5412:5584   */\n      pop\n      jump\t// out\n        /* \"#utility.yul\":5590:5956   */\n    tag_97:\n        /* \"#utility.yul\":5732:5735   */\n      0x00\n        /* \"#utility.yul\":5753:5820   */\n      tag_173\n        /* \"#utility.yul\":5817:5819   */\n      0x16\n        /* \"#utility.yul\":5812:5815   */\n      dup4\n        /* \"#utility.yul\":5753:5820   */\n      tag_93\n      jump\t// in\n    tag_173:\n        /* \"#utility.yul\":5746:5820   */\n      swap2\n      pop\n        /* \"#utility.yul\":5829:5922   */\n      tag_174\n        /* \"#utility.yul\":5918:5921   */\n      dup3\n        /* \"#utility.yul\":5829:5922   */\n      tag_96\n      jump\t// in\n    tag_174:\n        /* \"#utility.yul\":5947:5949   */\n      0x20\n        /* \"#utility.yul\":5942:5945   */\n      dup3\n        /* \"#utility.yul\":5938:5950   */\n      add\n        /* \"#utility.yul\":5931:5950   */\n      swap1\n      pop\n        /* \"#utility.yul\":5590:5956   */\n      swap2\n      swap1\n      pop\n      jump\t// out\n        /* \"#utility.yul\":5962:6381   */\n    tag_41:\n        /* \"#utility.yul\":6128:6132   */\n      0x00\n        /* \"#utility.yul\":6166:6168   */\n      0x20\n        /* \"#utility.yul\":6155:6164   */\n      dup3\n        /* \"#utility.yul\":6151:6169   */\n      add\n        /* \"#utility.yul\":6143:6169   */\n      swap1\n      pop\n        /* \"#utility.yul\":6215:6224   */\n      dup2\n        /* \"#utility.yul\":6209:6213   */\n      dup2\n        /* \"#utility.yul\":6205:6225   */\n      sub\n        /* \"#utility.yul\":6201:6202   */\n      0x00\n        /* \"#utility.yul\":6190:6199   */\n      dup4\n        /* \"#utility.yul\":6186:6203   */\n      add\n        /* \"#utility.yul\":6179:6226   */\n      mstore\n        /* \"#utility.yul\":6243:6374   */\n      tag_176\n        /* \"#utility.yul\":6369:6373   */\n      dup2\n        /* \"#utility.yul\":6243:6374   */\n      tag_97\n      jump\t// in\n    tag_176:\n        /* \"#utility.yul\":6235:6374   */\n      swap1\n      pop\n        /* \"#utility.yul\":5962:6381   */\n      swap2\n      swap1\n      pop\n      jump\t// out\n        /* \"#utility.yul\":6387:6555   */\n    tag_98:\n        /* \"#utility.yul\":6527:6547   */\n      0x526577617264206d757374206265207365740000000000000000000000000000\n        /* \"#utility.yul\":6523:6524   */\n      0x00\n        /* \"#utility.yul\":6515:6521   */\n      dup3\n        /* \"#utility.yul\":6511:6525   */\n      add\n        /* \"#utility.yul\":6504:6548   */\n      mstore\n        /* \"#utility.yul\":6387:6555   */\n      pop\n      jump\t// out\n        /* \"#utility.yul\":6561:6927   */\n    tag_99:\n        /* \"#utility.yul\":6703:6706   */\n      0x00\n        /* \"#utility.yul\":6724:6791   */\n      tag_179\n        /* \"#utility.yul\":6788:6790   */\n      0x12\n        /* \"#utility.yul\":6783:6786   */\n      dup4\n        /* \"#utility.yul\":6724:6791   */\n      tag_93\n      jump\t// in\n    tag_179:\n        /* \"#utility.yul\":6717:6791   */\n      swap2\n      pop\n        /* \"#utility.yul\":6800:6893   */\n      tag_180\n        /* \"#utility.yul\":6889:6892   */\n      dup3\n        /* \"#utility.yul\":6800:6893   */\n      tag_98\n      jump\t// in\n    tag_180:\n        /* \"#utility.yul\":6918:6920   */\n      0x20\n        /* \"#utility.yul\":6913:6916   */\n      dup3\n        /* \"#utility.yul\":6909:6921   */\n      add\n        /* \"#utility.yul\":6902:6921   */\n      swap1\n      pop\n        /* \"#utility.yul\":6561:6927   */\n      swap2\n      swap1\n      pop\n      jump\t// out\n        /* \"#utility.yul\":6933:7352   */\n    tag_44:\n        /* \"#utility.yul\":7099:7103   */\n      0x00\n        /* \"#utility.yul\":7137:7139   */\n      0x20\n        /* \"#utility.yul\":7126:7135   */\n      dup3\n        /* \"#utility.yul\":7122:7140   */\n      add\n        /* \"#utility.yul\":7114:7140   */\n      swap1\n      pop\n        /* \"#utility.yul\":7186:7195   */\n      dup2\n        /* \"#utility.yul\":7180:7184   */\n      dup2\n        /* \"#utility.yul\":7176:7196   */\n      sub\n        /* \"#utility.yul\":7172:7173   */\n      0x00\n        /* \"#utility.yul\":7161:7170   */\n      dup4\n        /* \"#utility.yul\":7157:7174   */\n      add\n        /* \"#utility.yul\":7150:7197   */\n      mstore\n        /* \"#utility.yul\":7214:7345   */\n      tag_182\n        /* \"#utility.yul\":7340:7344   */\n      dup2\n        /* \"#utility.yul\":7214:7345   */\n      tag_99\n      jump\t// in\n    tag_182:\n        /* \"#utility.yul\":7206:7345   */\n      swap1\n      pop\n        /* \"#utility.yul\":6933:7352   */\n      swap2\n      swap1\n      pop\n      jump\t// out\n        /* \"#utility.yul\":7358:7690   */\n    tag_46:\n        /* \"#utility.yul\":7479:7483   */\n      0x00\n        /* \"#utility.yul\":7517:7519   */\n      0x40\n        /* \"#utility.yul\":7506:7515   */\n      dup3\n        /* \"#utility.yul\":7502:7520   */\n      add\n        /* \"#utility.yul\":7494:7520   */\n      swap1\n      pop\n        /* \"#utility.yul\":7530:7601   */\n      tag_184\n        /* \"#utility.yul\":7598:7599   */\n      0x00\n        /* \"#utility.yul\":7587:7596   */\n      dup4\n        /* \"#utility.yul\":7583:7600   */\n      add\n        /* \"#utility.yul\":7574:7580   */\n      dup6\n        /* \"#utility.yul\":7530:7601   */\n      tag_82\n      jump\t// in\n    tag_184:\n        /* \"#utility.yul\":7611:7683   */\n      tag_185\n        /* \"#utility.yul\":7679:7681   */\n      0x20\n        /* \"#utility.yul\":7668:7677   */\n      dup4\n        /* \"#utility.yul\":7664:7682   */\n      add\n        /* \"#utility.yul\":7655:7661   */\n      dup5\n        /* \"#utility.yul\":7611:7683   */\n      tag_83\n      jump\t// in\n    tag_185:\n        /* \"#utility.yul\":7358:7690   */\n      swap4\n      swap3\n      pop\n      pop\n      pop\n      jump\t// out\n        /* \"#utility.yul\":7696:7812   */\n    tag_100:\n        /* \"#utility.yul\":7766:7787   */\n      tag_187\n        /* \"#utility.yul\":7781:7786   */\n      dup2\n        /* \"#utility.yul\":7766:7787   */\n      tag_84\n      jump\t// in\n    tag_187:\n        /* \"#utility.yul\":7759:7764   */\n      dup2\n        /* \"#utility.yul\":7756:7788   */\n      eq\n        /* \"#utility.yul\":7746:7806   */\n      tag_188\n      jumpi\n        /* \"#utility.yul\":7802:7803   */\n      0x00\n        /* \"#utility.yul\":7799:7800   */\n      dup1\n        /* \"#utility.yul\":7792:7804   */\n      revert\n        /* \"#utility.yul\":7746:7806   */\n    tag_188:\n        /* \"#utility.yul\":7696:7812   */\n      pop\n      jump\t// out\n        /* \"#utility.yul\":7818:7955   */\n    tag_101:\n        /* \"#utility.yul\":7872:7877   */\n      0x00\n        /* \"#utility.yul\":7903:7909   */\n      dup2\n        /* \"#utility.yul\":7897:7910   */\n      mload\n        /* \"#utility.yul\":7888:7910   */\n      swap1\n      pop\n        /* \"#utility.yul\":7919:7949   */\n      tag_190\n        /* \"#utility.yul\":7943:7948   */\n      dup2\n        /* \"#utility.yul\":7919:7949   */\n      tag_100\n      jump\t// in\n    tag_190:\n        /* \"#utility.yul\":7818:7955   */\n      swap3\n      swap2\n      pop\n      pop\n      jump\t// out\n        /* \"#utility.yul\":7961:8306   */\n    tag_50:\n        /* \"#utility.yul\":8028:8034   */\n      0x00\n        /* \"#utility.yul\":8077:8079   */\n      0x20\n        /* \"#utility.yul\":8065:8074   */\n      dup3\n        /* \"#utility.yul\":8056:8063   */\n      dup5\n        /* \"#utility.yul\":8052:8075   */\n      sub\n        /* \"#utility.yul\":8048:8080   */\n      slt\n        /* \"#utility.yul\":8045:8164   */\n      iszero\n      tag_192\n      jumpi\n        /* \"#utility.yul\":8083:8162   */\n      tag_193\n      tag_75\n      jump\t// in\n    tag_193:\n        /* \"#utility.yul\":8045:8164   */\n    tag_192:\n        /* \"#utility.yul\":8203:8204   */\n      0x00\n        /* \"#utility.yul\":8228:8289   */\n      tag_194\n        /* \"#utility.yul\":8281:8288   */\n      dup5\n        /* \"#utility.yul\":8272:8278   */\n      dup3\n        /* \"#utility.yul\":8261:8270   */\n      dup6\n        /* \"#utility.yul\":8257:8279   */\n      add\n        /* \"#utility.yul\":8228:8289   */\n      tag_101\n      jump\t// in\n    tag_194:\n        /* \"#utility.yul\":8218:8289   */\n      swap2\n      pop\n        /* \"#utility.yul\":8174:8299   */\n      pop\n        /* \"#utility.yul\":7961:8306   */\n      swap3\n      swap2\n      pop\n      pop\n      jump\t// out\n        /* \"#utility.yul\":8312:8484   */\n    tag_102:\n        /* \"#utility.yul\":8452:8476   */\n      0x526577617264207472616e73666572206661696c656400000000000000000000\n        /* \"#utility.yul\":8448:8449   */\n      0x00\n        /* \"#utility.yul\":8440:8446   */\n      dup3\n        /* \"#utility.yul\":8436:8450   */\n      add\n        /* \"#utility.yul\":8429:8477   */\n      mstore\n        /* \"#utility.yul\":8312:8484   */\n      pop\n      jump\t// out\n        /* \"#utility.yul\":8490:8856   */\n    tag_103:\n        /* \"#utility.yul\":8632:8635   */\n      0x00\n        /* \"#utility.yul\":8653:8720   */\n      tag_197\n        /* \"#utility.yul\":8717:8719   */\n      0x16\n        /* \"#utility.yul\":8712:8715   */\n      dup4\n        /* \"#utility.yul\":8653:8720   */\n      tag_93\n      jump\t// in\n    tag_197:\n        /* \"#utility.yul\":8646:8720   */\n      swap2\n      pop\n        /* \"#utility.yul\":8729:8822   */\n      tag_198\n        /* \"#utility.yul\":8818:8821   */\n      dup3\n        /* \"#utility.yul\":8729:8822   */\n      tag_102\n      jump\t// in\n    tag_198:\n        /* \"#utility.yul\":8847:8849   */\n      0x20\n        /* \"#utility.yul\":8842:8845   */\n      dup3\n        /* \"#utility.yul\":8838:8850   */\n      add\n        /* \"#utility.yul\":8831:8850   */\n      swap1\n      pop\n        /* \"#utility.yul\":8490:8856   */\n      swap2\n      swap1\n      pop\n      jump\t// out\n        /* \"#utility.yul\":8862:9281   */\n    tag_53:\n        /* \"#utility.yul\":9028:9032   */\n      0x00\n        /* \"#utility.yul\":9066:9068   */\n      0x20\n        /* \"#utility.yul\":9055:9064   */\n      dup3\n        /* \"#utility.yul\":9051:9069   */\n      add\n        /* \"#utility.yul\":9043:9069   */\n      swap1\n      pop\n        /* \"#utility.yul\":9115:9124   */\n      dup2\n        /* \"#utility.yul\":9109:9113   */\n      dup2\n        /* \"#utility.yul\":9105:9125   */\n      sub\n        /* \"#utility.yul\":9101:9102   */\n      0x00\n        /* \"#utility.yul\":9090:9099   */\n      dup4\n        /* \"#utility.yul\":9086:9103   */\n      add\n        /* \"#utility.yul\":9079:9126   */\n      mstore\n        /* \"#utility.yul\":9143:9274   */\n      tag_200\n        /* \"#utility.yul\":9269:9273   */\n      dup2\n        /* \"#utility.yul\":9143:9274   */\n      tag_103\n      jump\t// in\n    tag_200:\n        /* \"#utility.yul\":9135:9274   */\n      swap1\n      pop\n        /* \"#utility.yul\":8862:9281   */\n      swap2\n      swap1\n      pop\n      jump\t// out\n        /* \"#utility.yul\":9287:9729   */\n    tag_55:\n        /* \"#utility.yul\":9436:9440   */\n      0x00\n        /* \"#utility.yul\":9474:9476   */\n      0x60\n        /* \"#utility.yul\":9463:9472   */\n      dup3\n        /* \"#utility.yul\":9459:9477   */\n      add\n        /* \"#utility.yul\":9451:9477   */\n      swap1\n      pop\n        /* \"#utility.yul\":9487:9558   */\n      tag_202\n        /* \"#utility.yul\":9555:9556   */\n      0x00\n        /* \"#utility.yul\":9544:9553   */\n      dup4\n        /* \"#utility.yul\":9540:9557   */\n      add\n        /* \"#utility.yul\":9531:9537   */\n      dup7\n        /* \"#utility.yul\":9487:9558   */\n      tag_83\n      jump\t// in\n    tag_202:\n        /* \"#utility.yul\":9568:9640   */\n      tag_203\n        /* \"#utility.yul\":9636:9638   */\n      0x20\n        /* \"#utility.yul\":9625:9634   */\n      dup4\n        /* \"#utility.yul\":9621:9639   */\n      add\n        /* \"#utility.yul\":9612:9618   */\n      dup6\n        /* \"#utility.yul\":9568:9640   */\n      tag_82\n      jump\t// in\n    tag_203:\n        /* \"#utility.yul\":9650:9722   */\n      tag_204\n        /* \"#utility.yul\":9718:9720   */\n      0x40\n        /* \"#utility.yul\":9707:9716   */\n      dup4\n        /* \"#utility.yul\":9703:9721   */\n      add\n        /* \"#utility.yul\":9694:9700   */\n      dup5\n        /* \"#utility.yul\":9650:9722   */\n      tag_83\n      jump\t// in\n    tag_204:\n        /* \"#utility.yul\":9287:9729   */\n      swap5\n      swap4\n      pop\n      pop\n      pop\n      pop\n      jump\t// out\n        /* \"#utility.yul\":9735:9914   */\n    tag_104:\n        /* \"#utility.yul\":9875:9906   */\n      0x526577617264206d7573742062652067726561746572207468616e2030000000\n        /* \"#utility.yul\":9871:9872   */\n      0x00\n        /* \"#utility.yul\":9863:9869   */\n      dup3\n        /* \"#utility.yul\":9859:9873   */\n      add\n        /* \"#utility.yul\":9852:9907   */\n      mstore\n        /* \"#utility.yul\":9735:9914   */\n      pop\n      jump\t// out\n        /* \"#utility.yul\":9920:10286   */\n    tag_105:\n        /* \"#utility.yul\":10062:10065   */\n      0x00\n        /* \"#utility.yul\":10083:10150   */\n      tag_207\n        /* \"#utility.yul\":10147:10149   */\n      0x1d\n        /* \"#utility.yul\":10142:10145   */\n      dup4\n        /* \"#utility.yul\":10083:10150   */\n      tag_93\n      jump\t// in\n    tag_207:\n        /* \"#utility.yul\":10076:10150   */\n      swap2\n      pop\n        /* \"#utility.yul\":10159:10252   */\n      tag_208\n        /* \"#utility.yul\":10248:10251   */\n      dup3\n        /* \"#utility.yul\":10159:10252   */\n      tag_104\n      jump\t// in\n    tag_208:\n        /* \"#utility.yul\":10277:10279   */\n      0x20\n        /* \"#utility.yul\":10272:10275   */\n      dup3\n        /* \"#utility.yul\":10268:10280   */\n      add\n        /* \"#utility.yul\":10261:10280   */\n      swap1\n      pop\n        /* \"#utility.yul\":9920:10286   */\n      swap2\n      swap1\n      pop\n      jump\t// out\n        /* \"#utility.yul\":10292:10711   */\n    tag_62:\n        /* \"#utility.yul\":10458:10462   */\n      0x00\n        /* \"#utility.yul\":10496:10498   */\n      0x20\n        /* \"#utility.yul\":10485:10494   */\n      dup3\n        /* \"#utility.yul\":10481:10499   */\n      add\n        /* \"#utility.yul\":10473:10499   */\n      swap1\n      pop\n        /* \"#utility.yul\":10545:10554   */\n      dup2\n        /* \"#utility.yul\":10539:10543   */\n      dup2\n        /* \"#utility.yul\":10535:10555   */\n      sub\n        /* \"#utility.yul\":10531:10532   */\n      0x00\n        /* \"#utility.yul\":10520:10529   */\n      dup4\n        /* \"#utility.yul\":10516:10533   */\n      add\n        /* \"#utility.yul\":10509:10556   */\n      mstore\n        /* \"#utility.yul\":10573:10704   */\n      tag_210\n        /* \"#utility.yul\":10699:10703   */\n      dup2\n        /* \"#utility.yul\":10573:10704   */\n      tag_105\n      jump\t// in\n    tag_210:\n        /* \"#utility.yul\":10565:10704   */\n      swap1\n      pop\n        /* \"#utility.yul\":10292:10711   */\n      swap2\n      swap1\n      pop\n      jump\t// out\n        /* \"#utility.yul\":10717:10897   */\n    tag_106:\n        /* \"#utility.yul\":10765:10842   */\n      0x4e487b7100000000000000000000000000000000000000000000000000000000\n        /* \"#utility.yul\":10762:10763   */\n      0x00\n        /* \"#utility.yul\":10755:10843   */\n      mstore\n        /* \"#utility.yul\":10862:10866   */\n      0x11\n        /* \"#utility.yul\":10859:10860   */\n      0x04\n        /* \"#utility.yul\":10852:10867   */\n      mstore\n        /* \"#utility.yul\":10886:10890   */\n      0x24\n        /* \"#utility.yul\":10883:10884   */\n      0x00\n        /* \"#utility.yul\":10876:10891   */\n      revert\n        /* \"#utility.yul\":10903:11136   */\n    tag_64:\n        /* \"#utility.yul\":10942:10945   */\n      0x00\n        /* \"#utility.yul\":10965:10989   */\n      tag_213\n        /* \"#utility.yul\":10983:10988   */\n      dup3\n        /* \"#utility.yul\":10965:10989   */\n      tag_77\n      jump\t// in\n    tag_213:\n        /* \"#utility.yul\":10956:10989   */\n      swap2\n      pop\n        /* \"#utility.yul\":11011:11077   */\n      0xffffffffffffffffffffffffffffffffffffffffffffffffffffffffffffffff\n        /* \"#utility.yul\":11004:11009   */\n      dup3\n        /* \"#utility.yul\":11001:11078   */\n      sub\n        /* \"#utility.yul\":10998:11101   */\n      tag_214\n      jumpi\n        /* \"#utility.yul\":11081:11099   */\n      tag_215\n      tag_106\n      jump\t// in\n    tag_215:\n        /* \"#utility.yul\":10998:11101   */\n    tag_214:\n        /* \"#utility.yul\":11128:11129   */\n      0x01\n        /* \"#utility.yul\":11121:11126   */\n      dup3\n        /* \"#utility.yul\":11117:11130   */\n      add\n        /* \"#utility.yul\":11110:11130   */\n      swap1\n      pop\n        /* \"#utility.yul\":10903:11136   */\n      swap2\n      swap1\n      pop\n      jump\t// out\n        /* \"#utility.yul\":11142:11584   */\n    tag_66:\n        /* \"#utility.yul\":11291:11295   */\n      0x00\n        /* \"#utility.yul\":11329:11331   */\n      0x60\n        /* \"#utility.yul\":11318:11327   */\n      dup3\n        /* \"#utility.yul\":11314:11332   */\n      add\n        /* \"#utility.yul\":11306:11332   */\n      swap1\n      pop\n        /* \"#utility.yul\":11342:11413   */\n      tag_217\n        /* \"#utility.yul\":11410:11411   */\n      0x00\n        /* \"#utility.yul\":11399:11408   */\n      dup4\n        /* \"#utility.yul\":11395:11412   */\n      add\n        /* \"#utility.yul\":11386:11392   */\n      dup7\n        /* \"#utility.yul\":11342:11413   */\n      tag_82\n      jump\t// in\n    tag_217:\n        /* \"#utility.yul\":11423:11495   */\n      tag_218\n        /* \"#utility.yul\":11491:11493   */\n      0x20\n        /* \"#utility.yul\":11480:11489   */\n      dup4\n        /* \"#utility.yul\":11476:11494   */\n      add\n        /* \"#utility.yul\":11467:11473   */\n      dup6\n        /* \"#utility.yul\":11423:11495   */\n      tag_82\n      jump\t// in\n    tag_218:\n        /* \"#utility.yul\":11505:11577   */\n      tag_219\n        /* \"#utility.yul\":11573:11575   */\n      0x40\n        /* \"#utility.yul\":11562:11571   */\n      dup4\n        /* \"#utility.yul\":11558:11576   */\n      add\n        /* \"#utility.yul\":11549:11555   */\n      dup5\n        /* \"#utility.yul\":11505:11577   */\n      tag_83\n      jump\t// in\n    tag_219:\n        /* \"#utility.yul\":11142:11584   */\n      swap5\n      swap4\n      pop\n      pop\n      pop\n      pop\n      jump\t// out\n        /* \"#utility.yul\":11590:11755   */\n    tag_107:\n        /* \"#utility.yul\":11730:11747   */\n      0x5472616e73666572206661696c65640000000000000000000000000000000000\n        /* \"#utility.yul\":11726:11727   */\n      0x00\n        /* \"#utility.yul\":11718:11724   */\n      dup3\n        /* \"#utility.yul\":11714:11728   */\n      add\n        /* \"#utility.yul\":11707:11748   */\n      mstore\n        /* \"#utility.yul\":11590:11755   */\n      pop\n      jump\t// out\n        /* \"#utility.yul\":11761:12127   */\n    tag_108:\n        /* \"#utility.yul\":11903:11906   */\n      0x00\n        /* \"#utility.yul\":11924:11991   */\n      tag_222\n        /* \"#utility.yul\":11988:11990   */\n      0x0f\n        /* \"#utility.yul\":11983:11986   */\n      dup4\n        /* \"#utility.yul\":11924:11991   */\n      tag_93\n      jump\t// in\n    tag_222:\n        /* \"#utility.yul\":11917:11991   */\n      swap2\n      pop\n        /* \"#utility.yul\":12000:12093   */\n      tag_223\n        /* \"#utility.yul\":12089:12092   */\n      dup3\n        /* \"#utility.yul\":12000:12093   */\n      tag_107\n      jump\t// in\n    tag_223:\n        /* \"#utility.yul\":12118:12120   */\n      0x20\n        /* \"#utility.yul\":12113:12116   */\n      dup3\n        /* \"#utility.yul\":12109:12121   */\n      add\n        /* \"#utility.yul\":12102:12121   */\n      swap1\n      pop\n        /* \"#utility.yul\":11761:12127   */\n      swap2\n      swap1\n      pop\n      jump\t// out\n        /* \"#utility.yul\":12133:12552   */\n    tag_72:\n        /* \"#utility.yul\":12299:12303   */\n      0x00\n        /* \"#utility.yul\":12337:12339   */\n      0x20\n        /* \"#utility.yul\":12326:12335   */\n      dup3\n        /* \"#utility.yul\":12322:12340   */\n      add\n        /* \"#utility.yul\":12314:12340   */\n      swap1\n      pop\n        /* \"#utility.yul\":12386:12395   */\n      dup2\n        /* \"#utility.yul\":12380:12384   */\n      dup2\n        /* \"#utility.yul\":12376:12396   */\n      sub\n        /* \"#utility.yul\":12372:12373   */\n      0x00\n        /* \"#utility.yul\":12361:12370   */\n      dup4\n        /* \"#utility.yul\":12357:12374   */\n      add\n        /* \"#utility.yul\":12350:12397   */\n      mstore\n        /* \"#utility.yul\":12414:12545   */\n      tag_225\n        /* \"#utility.yul\":12540:12544   */\n      dup2\n        /* \"#utility.yul\":12414:12545   */\n      tag_108\n      jump\t// in\n    tag_225:\n        /* \"#utility.yul\":12406:12545   */\n      swap1\n      pop\n        /* \"#utility.yul\":12133:12552   */\n      swap2\n      swap1\n      pop\n      jump\t// out\n\n    auxdata: 0xa2646970667358221220481edf19d4307927687a1a865da5c225318aa7fb94698c634d62c083e3ab593b64736f6c63430008160033\n}\n",
				"bytecode": {
					"linkReferences": {},
					"object": "608060405234801561000f575f80fd5b50604051610eb4380380610eb48339818101604052810190610031919061011c565b805f806101000a81548173ffffffffffffffffffffffffffffffffffffffff021916908373ffffffffffffffffffffffffffffffffffffffff1602179055503360015f6101000a81548173ffffffffffffffffffffffffffffffffffffffff021916908373ffffffffffffffffffffffffffffffffffffffff160217905550600160038190555050610147565b5f80fd5b5f73ffffffffffffffffffffffffffffffffffffffff82169050919050565b5f6100eb826100c2565b9050919050565b6100fb816100e1565b8114610105575f80fd5b50565b5f81519050610116816100f2565b92915050565b5f60208284031215610131576101306100be565b5b5f61013e84828501610108565b91505092915050565b610d60806101545f395ff3fe608060405234801561000f575f80fd5b5060043610610060575f3560e01c80630a07fae6146100645780638d977672146100805780638da5cb5b146100b2578063f50e99fc146100d0578063fc0c546a146100ec578063fdc3d8d71461010a575b5f80fd5b61007e6004803603810190610079919061077a565b610128565b005b61009a6004803603810190610095919061077a565b6103eb565b6040516100a99392919061080d565b60405180910390f35b6100ba61043c565b6040516100c79190610842565b60405180910390f35b6100ea60048036038101906100e59190610885565b610461565b005b6100f461071a565b604051610101919061091e565b60405180910390f35b61011261073d565b60405161011f9190610937565b60405180910390f35b60015f9054906101000a900473ffffffffffffffffffffffffffffffffffffffff1673ffffffffffffffffffffffffffffffffffffffff163373ffffffffffffffffffffffffffffffffffffffff16146101b7576040517f08c379a00000000000000000000000000000000000000000000000000000000081526004016101ae906109aa565b60405180910390fd5b5f60025f8381526020019081526020015f209050806002015f9054906101000a900460ff161561021c576040517f08c379a000000000000000000000000000000000000000000000000000000000815260040161021390610a12565b60405180910390fd5b5f816001015411610262576040517f08c379a000000000000000000000000000000000000000000000000000000000815260040161025990610a7a565b60405180910390fd5b6001816002015f6101000a81548160ff0219169083151502179055505f8054906101000a900473ffffffffffffffffffffffffffffffffffffffff1673ffffffffffffffffffffffffffffffffffffffff1663a9059cbb825f015f9054906101000a900473ffffffffffffffffffffffffffffffffffffffff1683600101546040518363ffffffff1660e01b81526004016102fe929190610a98565b6020604051808303815f875af115801561031a573d5f803e3d5ffd5b505050506040513d601f19601f8201168201806040525081019061033e9190610ae9565b61037d576040517f08c379a000000000000000000000000000000000000000000000000000000000815260040161037490610b5e565b60405180910390fd5b7feaa2efc12cac7a82a6702386cc6f33c13309d320384f0f796ce6b426841f530182825f015f9054906101000a900473ffffffffffffffffffffffffffffffffffffffff1683600101546040516103d693929190610b7c565b60405180910390a15f81600101819055505050565b6002602052805f5260405f205f91509050805f015f9054906101000a900473ffffffffffffffffffffffffffffffffffffffff1690806001015490806002015f9054906101000a900460ff16905083565b60015f9054906101000a900473ffffffffffffffffffffffffffffffffffffffff1681565b60015f9054906101000a900473ffffffffffffffffffffffffffffffffffffffff1673ffffffffffffffffffffffffffffffffffffffff163373ffffffffffffffffffffffffffffffffffffffff16146104f0576040517f08c379a00000000000000000000000000000000000000000000000000000000081526004016104e7906109aa565b60405180910390fd5b5f8111610532576040517f08c379a000000000000000000000000000000000000000000000000000000000815260040161052990610bfb565b60405180910390fd5b5f60035f81548092919061054590610c46565b9190505590505f8054906101000a900473ffffffffffffffffffffffffffffffffffffffff1673ffffffffffffffffffffffffffffffffffffffff166323b872dd3330856040518463ffffffff1660e01b81526004016105a793929190610c8d565b6020604051808303815f875af11580156105c3573d5f803e3d5ffd5b505050506040513d601f19601f820116820180604052508101906105e79190610ae9565b610626576040517f08c379a000000000000000000000000000000000000000000000000000000000815260040161061d90610d0c565b60405180910390fd5b60405180606001604052808473ffffffffffffffffffffffffffffffffffffffff1681526020018381526020015f151581525060025f8381526020019081526020015f205f820151815f015f6101000a81548173ffffffffffffffffffffffffffffffffffffffff021916908373ffffffffffffffffffffffffffffffffffffffff160217905550602082015181600101556040820151816002015f6101000a81548160ff0219169083151502179055509050507f6cf53aa7292e664152c2ea948c3b3c95d4b05c36daeb2626d0293473c4a4a15381848460405161070d93929190610b7c565b60405180910390a1505050565b5f8054906101000a900473ffffffffffffffffffffffffffffffffffffffff1681565b60035481565b5f80fd5b5f819050919050565b61075981610747565b8114610763575f80fd5b50565b5f8135905061077481610750565b92915050565b5f6020828403121561078f5761078e610743565b5b5f61079c84828501610766565b91505092915050565b5f73ffffffffffffffffffffffffffffffffffffffff82169050919050565b5f6107ce826107a5565b9050919050565b6107de816107c4565b82525050565b6107ed81610747565b82525050565b5f8115159050919050565b610807816107f3565b82525050565b5f6060820190506108205f8301866107d5565b61082d60208301856107e4565b61083a60408301846107fe565b949350505050565b5f6020820190506108555f8301846107d5565b92915050565b610864816107c4565b811461086e575f80fd5b50565b5f8135905061087f8161085b565b92915050565b5f806040838503121561089b5761089a610743565b5b5f6108a885828601610871565b92505060206108b985828601610766565b9150509250929050565b5f819050919050565b5f6108e66108e16108dc846107a5565b6108c3565b6107a5565b9050919050565b5f6108f7826108cc565b9050919050565b5f610908826108ed565b9050919050565b610918816108fe565b82525050565b5f6020820190506109315f83018461090f565b92915050565b5f60208201905061094a5f8301846107e4565b92915050565b5f82825260208201905092915050565b7f4e6f7420746865206f776e6572000000000000000000000000000000000000005f82015250565b5f610994600d83610950565b915061099f82610960565b602082019050919050565b5f6020820190508181035f8301526109c181610988565b9050919050565b7f5461736b20616c726561647920636f6d706c65746564000000000000000000005f82015250565b5f6109fc601683610950565b9150610a07826109c8565b602082019050919050565b5f6020820190508181035f830152610a29816109f0565b9050919050565b7f526577617264206d7573742062652073657400000000000000000000000000005f82015250565b5f610a64601283610950565b9150610a6f82610a30565b602082019050919050565b5f6020820190508181035f830152610a9181610a58565b9050919050565b5f604082019050610aab5f8301856107d5565b610ab860208301846107e4565b9392505050565b610ac8816107f3565b8114610ad2575f80fd5b50565b5f81519050610ae381610abf565b92915050565b5f60208284031215610afe57610afd610743565b5b5f610b0b84828501610ad5565b91505092915050565b7f526577617264207472616e73666572206661696c6564000000000000000000005f82015250565b5f610b48601683610950565b9150610b5382610b14565b602082019050919050565b5f6020820190508181035f830152610b7581610b3c565b9050919050565b5f606082019050610b8f5f8301866107e4565b610b9c60208301856107d5565b610ba960408301846107e4565b949350505050565b7f526577617264206d7573742062652067726561746572207468616e20300000005f82015250565b5f610be5601d83610950565b9150610bf082610bb1565b602082019050919050565b5f6020820190508181035f830152610c1281610bd9565b9050919050565b7f4e487b71000000000000000000000000000000000000000000000000000000005f52601160045260245ffd5b5f610c5082610747565b91507fffffffffffffffffffffffffffffffffffffffffffffffffffffffffffffffff8203610c8257610c81610c19565b5b600182019050919050565b5f606082019050610ca05f8301866107d5565b610cad60208301856107d5565b610cba60408301846107e4565b949350505050565b7f5472616e73666572206661696c656400000000000000000000000000000000005f82015250565b5f610cf6600f83610950565b9150610d0182610cc2565b602082019050919050565b5f6020820190508181035f830152610d2381610cea565b905091905056fea2646970667358221220481edf19d4307927687a1a865da5c225318aa7fb94698c634d62c083e3ab593b64736f6c63430008160033",
					"opcodes": "PUSH1 0x80 PUSH1 0x40 MSTORE CALLVALUE DUP1 ISZERO PUSH2 0xF JUMPI PUSH0 DUP1 REVERT JUMPDEST POP PUSH1 0x40 MLOAD PUSH2 0xEB4 CODESIZE SUB DUP1 PUSH2 0xEB4 DUP4 CODECOPY DUP2 DUP2 ADD PUSH1 0x40 MSTORE DUP2 ADD SWAP1 PUSH2 0x31 SWAP2 SWAP1 PUSH2 0x11C JUMP JUMPDEST DUP1 PUSH0 DUP1 PUSH2 0x100 EXP DUP2 SLOAD DUP2 PUSH20 0xFFFFFFFFFFFFFFFFFFFFFFFFFFFFFFFFFFFFFFFF MUL NOT AND SWAP1 DUP4 PUSH20 0xFFFFFFFFFFFFFFFFFFFFFFFFFFFFFFFFFFFFFFFF AND MUL OR SWAP1 SSTORE POP CALLER PUSH1 0x1 PUSH0 PUSH2 0x100 EXP DUP2 SLOAD DUP2 PUSH20 0xFFFFFFFFFFFFFFFFFFFFFFFFFFFFFFFFFFFFFFFF MUL NOT AND SWAP1 DUP4 PUSH20 0xFFFFFFFFFFFFFFFFFFFFFFFFFFFFFFFFFFFFFFFF AND MUL OR SWAP1 SSTORE POP PUSH1 0x1 PUSH1 0x3 DUP2 SWAP1 SSTORE POP POP PUSH2 0x147 JUMP JUMPDEST PUSH0 DUP1 REVERT JUMPDEST PUSH0 PUSH20 0xFFFFFFFFFFFFFFFFFFFFFFFFFFFFFFFFFFFFFFFF DUP3 AND SWAP1 POP SWAP2 SWAP1 POP JUMP JUMPDEST PUSH0 PUSH2 0xEB DUP3 PUSH2 0xC2 JUMP JUMPDEST SWAP1 POP SWAP2 SWAP1 POP JUMP JUMPDEST PUSH2 0xFB DUP2 PUSH2 0xE1 JUMP JUMPDEST DUP2 EQ PUSH2 0x105 JUMPI PUSH0 DUP1 REVERT JUMPDEST POP JUMP JUMPDEST PUSH0 DUP2 MLOAD SWAP1 POP PUSH2 0x116 DUP2 PUSH2 0xF2 JUMP JUMPDEST SWAP3 SWAP2 POP POP JUMP JUMPDEST PUSH0 PUSH1 0x20 DUP3 DUP5 SUB SLT ISZERO PUSH2 0x131 JUMPI PUSH2 0x130 PUSH2 0xBE JUMP JUMPDEST JUMPDEST PUSH0 PUSH2 0x13E DUP5 DUP3 DUP6 ADD PUSH2 0x108 JUMP JUMPDEST SWAP2 POP POP SWAP3 SWAP2 POP POP JUMP JUMPDEST PUSH2 0xD60 DUP1 PUSH2 0x154 PUSH0 CODECOPY PUSH0 RETURN INVALID PUSH1 0x80 PUSH1 0x40 MSTORE CALLVALUE DUP1 ISZERO PUSH2 0xF JUMPI PUSH0 DUP1 REVERT JUMPDEST POP PUSH1 0x4 CALLDATASIZE LT PUSH2 0x60 JUMPI PUSH0 CALLDATALOAD PUSH1 0xE0 SHR DUP1 PUSH4 0xA07FAE6 EQ PUSH2 0x64 JUMPI DUP1 PUSH4 0x8D977672 EQ PUSH2 0x80 JUMPI DUP1 PUSH4 0x8DA5CB5B EQ PUSH2 0xB2 JUMPI DUP1 PUSH4 0xF50E99FC EQ PUSH2 0xD0 JUMPI DUP1 PUSH4 0xFC0C546A EQ PUSH2 0xEC JUMPI DUP1 PUSH4 0xFDC3D8D7 EQ PUSH2 0x10A JUMPI JUMPDEST PUSH0 DUP1 REVERT JUMPDEST PUSH2 0x7E PUSH1 0x4 DUP1 CALLDATASIZE SUB DUP2 ADD SWAP1 PUSH2 0x79 SWAP2 SWAP1 PUSH2 0x77A JUMP JUMPDEST PUSH2 0x128 JUMP JUMPDEST STOP JUMPDEST PUSH2 0x9A PUSH1 0x4 DUP1 CALLDATASIZE SUB DUP2 ADD SWAP1 PUSH2 0x95 SWAP2 SWAP1 PUSH2 0x77A JUMP JUMPDEST PUSH2 0x3EB JUMP JUMPDEST PUSH1 0x40 MLOAD PUSH2 0xA9 SWAP4 SWAP3 SWAP2 SWAP1 PUSH2 0x80D JUMP JUMPDEST PUSH1 0x40 MLOAD DUP1 SWAP2 SUB SWAP1 RETURN JUMPDEST PUSH2 0xBA PUSH2 0x43C JUMP JUMPDEST PUSH1 0x40 MLOAD PUSH2 0xC7 SWAP2 SWAP1 PUSH2 0x842 JUMP JUMPDEST PUSH1 0x40 MLOAD DUP1 SWAP2 SUB SWAP1 RETURN JUMPDEST PUSH2 0xEA PUSH1 0x4 DUP1 CALLDATASIZE SUB DUP2 ADD SWAP1 PUSH2 0xE5 SWAP2 SWAP1 PUSH2 0x885 JUMP JUMPDEST PUSH2 0x461 JUMP JUMPDEST STOP JUMPDEST PUSH2 0xF4 PUSH2 0x71A JUMP JUMPDEST PUSH1 0x40 MLOAD PUSH2 0x101 SWAP2 SWAP1 PUSH2 0x91E JUMP JUMPDEST PUSH1 0x40 MLOAD DUP1 SWAP2 SUB SWAP1 RETURN JUMPDEST PUSH2 0x112 PUSH2 0x73D JUMP JUMPDEST PUSH1 0x40 MLOAD PUSH2 0x11F SWAP2 SWAP1 PUSH2 0x937 JUMP JUMPDEST PUSH1 0x40 MLOAD DUP1 SWAP2 SUB SWAP1 RETURN JUMPDEST PUSH1 0x1 PUSH0 SWAP1 SLOAD SWAP1 PUSH2 0x100 EXP SWAP1 DIV PUSH20 0xFFFFFFFFFFFFFFFFFFFFFFFFFFFFFFFFFFFFFFFF AND PUSH20 0xFFFFFFFFFFFFFFFFFFFFFFFFFFFFFFFFFFFFFFFF AND CALLER PUSH20 0xFFFFFFFFFFFFFFFFFFFFFFFFFFFFFFFFFFFFFFFF AND EQ PUSH2 0x1B7 JUMPI PUSH1 0x40 MLOAD PUSH32 0x8C379A000000000000000000000000000000000000000000000000000000000 DUP2 MSTORE PUSH1 0x4 ADD PUSH2 0x1AE SWAP1 PUSH2 0x9AA JUMP JUMPDEST PUSH1 0x40 MLOAD DUP1 SWAP2 SUB SWAP1 REVERT JUMPDEST PUSH0 PUSH1 0x2 PUSH0 DUP4 DUP2 MSTORE PUSH1 0x20 ADD SWAP1 DUP2 MSTORE PUSH1 0x20 ADD PUSH0 KECCAK256 SWAP1 POP DUP1 PUSH1 0x2 ADD PUSH0 SWAP1 SLOAD SWAP1 PUSH2 0x100 EXP SWAP1 DIV PUSH1 0xFF AND ISZERO PUSH2 0x21C JUMPI PUSH1 0x40 MLOAD PUSH32 0x8C379A000000000000000000000000000000000000000000000000000000000 DUP2 MSTORE PUSH1 0x4 ADD PUSH2 0x213 SWAP1 PUSH2 0xA12 JUMP JUMPDEST PUSH1 0x40 MLOAD DUP1 SWAP2 SUB SWAP1 REVERT JUMPDEST PUSH0 DUP2 PUSH1 0x1 ADD SLOAD GT PUSH2 0x262 JUMPI PUSH1 0x40 MLOAD PUSH32 0x8C379A000000000000000000000000000000000000000000000000000000000 DUP2 MSTORE PUSH1 0x4 ADD PUSH2 0x259 SWAP1 PUSH2 0xA7A JUMP JUMPDEST PUSH1 0x40 MLOAD DUP1 SWAP2 SUB SWAP1 REVERT JUMPDEST PUSH1 0x1 DUP2 PUSH1 0x2 ADD PUSH0 PUSH2 0x100 EXP DUP2 SLOAD DUP2 PUSH1 0xFF MUL NOT AND SWAP1 DUP4 ISZERO ISZERO MUL OR SWAP1 SSTORE POP PUSH0 DUP1 SLOAD SWAP1 PUSH2 0x100 EXP SWAP1 DIV PUSH20 0xFFFFFFFFFFFFFFFFFFFFFFFFFFFFFFFFFFFFFFFF AND PUSH20 0xFFFFFFFFFFFFFFFFFFFFFFFFFFFFFFFFFFFFFFFF AND PUSH4 0xA9059CBB DUP3 PUSH0 ADD PUSH0 SWAP1 SLOAD SWAP1 PUSH2 0x100 EXP SWAP1 DIV PUSH20 0xFFFFFFFFFFFFFFFFFFFFFFFFFFFFFFFFFFFFFFFF AND DUP4 PUSH1 0x1 ADD SLOAD PUSH1 0x40 MLOAD DUP4 PUSH4 0xFFFFFFFF AND PUSH1 0xE0 SHL DUP2 MSTORE PUSH1 0x4 ADD PUSH2 0x2FE SWAP3 SWAP2 SWAP1 PUSH2 0xA98 JUMP JUMPDEST PUSH1 0x20 PUSH1 0x40 MLOAD DUP1 DUP4 SUB DUP2 PUSH0 DUP8 GAS CALL ISZERO DUP1 ISZERO PUSH2 0x31A JUMPI RETURNDATASIZE PUSH0 DUP1 RETURNDATACOPY RETURNDATASIZE PUSH0 REVERT JUMPDEST POP POP POP POP PUSH1 0x40 MLOAD RETURNDATASIZE PUSH1 0x1F NOT PUSH1 0x1F DUP3 ADD AND DUP3 ADD DUP1 PUSH1 0x40 MSTORE POP DUP2 ADD SWAP1 PUSH2 0x33E SWAP2 SWAP1 PUSH2 0xAE9 JUMP JUMPDEST PUSH2 0x37D JUMPI PUSH1 0x40 MLOAD PUSH32 0x8C379A000000000000000000000000000000000000000000000000000000000 DUP2 MSTORE PUSH1 0x4 ADD PUSH2 0x374 SWAP1 PUSH2 0xB5E JUMP JUMPDEST PUSH1 0x40 MLOAD DUP1 SWAP2 SUB SWAP1 REVERT JUMPDEST PUSH32 0xEAA2EFC12CAC7A82A6702386CC6F33C13309D320384F0F796CE6B426841F5301 DUP3 DUP3 PUSH0 ADD PUSH0 SWAP1 SLOAD SWAP1 PUSH2 0x100 EXP SWAP1 DIV PUSH20 0xFFFFFFFFFFFFFFFFFFFFFFFFFFFFFFFFFFFFFFFF AND DUP4 PUSH1 0x1 ADD SLOAD PUSH1 0x40 MLOAD PUSH2 0x3D6 SWAP4 SWAP3 SWAP2 SWAP1 PUSH2 0xB7C JUMP JUMPDEST PUSH1 0x40 MLOAD DUP1 SWAP2 SUB SWAP1 LOG1 PUSH0 DUP2 PUSH1 0x1 ADD DUP2 SWAP1 SSTORE POP POP POP JUMP JUMPDEST PUSH1 0x2 PUSH1 0x20 MSTORE DUP1 PUSH0 MSTORE PUSH1 0x40 PUSH0 KECCAK256 PUSH0 SWAP2 POP SWAP1 POP DUP1 PUSH0 ADD PUSH0 SWAP1 SLOAD SWAP1 PUSH2 0x100 EXP SWAP1 DIV PUSH20 0xFFFFFFFFFFFFFFFFFFFFFFFFFFFFFFFFFFFFFFFF AND SWAP1 DUP1 PUSH1 0x1 ADD SLOAD SWAP1 DUP1 PUSH1 0x2 ADD PUSH0 SWAP1 SLOAD SWAP1 PUSH2 0x100 EXP SWAP1 DIV PUSH1 0xFF AND SWAP1 POP DUP4 JUMP JUMPDEST PUSH1 0x1 PUSH0 SWAP1 SLOAD SWAP1 PUSH2 0x100 EXP SWAP1 DIV PUSH20 0xFFFFFFFFFFFFFFFFFFFFFFFFFFFFFFFFFFFFFFFF AND DUP2 JUMP JUMPDEST PUSH1 0x1 PUSH0 SWAP1 SLOAD SWAP1 PUSH2 0x100 EXP SWAP1 DIV PUSH20 0xFFFFFFFFFFFFFFFFFFFFFFFFFFFFFFFFFFFFFFFF AND PUSH20 0xFFFFFFFFFFFFFFFFFFFFFFFFFFFFFFFFFFFFFFFF AND CALLER PUSH20 0xFFFFFFFFFFFFFFFFFFFFFFFFFFFFFFFFFFFFFFFF AND EQ PUSH2 0x4F0 JUMPI PUSH1 0x40 MLOAD PUSH32 0x8C379A000000000000000000000000000000000000000000000000000000000 DUP2 MSTORE PUSH1 0x4 ADD PUSH2 0x4E7 SWAP1 PUSH2 0x9AA JUMP JUMPDEST PUSH1 0x40 MLOAD DUP1 SWAP2 SUB SWAP1 REVERT JUMPDEST PUSH0 DUP2 GT PUSH2 0x532 JUMPI PUSH1 0x40 MLOAD PUSH32 0x8C379A000000000000000000000000000000000000000000000000000000000 DUP2 MSTORE PUSH1 0x4 ADD PUSH2 0x529 SWAP1 PUSH2 0xBFB JUMP JUMPDEST PUSH1 0x40 MLOAD DUP1 SWAP2 SUB SWAP1 REVERT JUMPDEST PUSH0 PUSH1 0x3 PUSH0 DUP2 SLOAD DUP1 SWAP3 SWAP2 SWAP1 PUSH2 0x545 SWAP1 PUSH2 0xC46 JUMP JUMPDEST SWAP2 SWAP1 POP SSTORE SWAP1 POP PUSH0 DUP1 SLOAD SWAP1 PUSH2 0x100 EXP SWAP1 DIV PUSH20 0xFFFFFFFFFFFFFFFFFFFFFFFFFFFFFFFFFFFFFFFF AND PUSH20 0xFFFFFFFFFFFFFFFFFFFFFFFFFFFFFFFFFFFFFFFF AND PUSH4 0x23B872DD CALLER ADDRESS DUP6 PUSH1 0x40 MLOAD DUP5 PUSH4 0xFFFFFFFF AND PUSH1 0xE0 SHL DUP2 MSTORE PUSH1 0x4 ADD PUSH2 0x5A7 SWAP4 SWAP3 SWAP2 SWAP1 PUSH2 0xC8D JUMP JUMPDEST PUSH1 0x20 PUSH1 0x40 MLOAD DUP1 DUP4 SUB DUP2 PUSH0 DUP8 GAS CALL ISZERO DUP1 ISZERO PUSH2 0x5C3 JUMPI RETURNDATASIZE PUSH0 DUP1 RETURNDATACOPY RETURNDATASIZE PUSH0 REVERT JUMPDEST POP POP POP POP PUSH1 0x40 MLOAD RETURNDATASIZE PUSH1 0x1F NOT PUSH1 0x1F DUP3 ADD AND DUP3 ADD DUP1 PUSH1 0x40 MSTORE POP DUP2 ADD SWAP1 PUSH2 0x5E7 SWAP2 SWAP1 PUSH2 0xAE9 JUMP JUMPDEST PUSH2 0x626 JUMPI PUSH1 0x40 MLOAD PUSH32 0x8C379A000000000000000000000000000000000000000000000000000000000 DUP2 MSTORE PUSH1 0x4 ADD PUSH2 0x61D SWAP1 PUSH2 0xD0C JUMP JUMPDEST PUSH1 0x40 MLOAD DUP1 SWAP2 SUB SWAP1 REVERT JUMPDEST PUSH1 0x40 MLOAD DUP1 PUSH1 0x60 ADD PUSH1 0x40 MSTORE DUP1 DUP5 PUSH20 0xFFFFFFFFFFFFFFFFFFFFFFFFFFFFFFFFFFFFFFFF AND DUP2 MSTORE PUSH1 0x20 ADD DUP4 DUP2 MSTORE PUSH1 0x20 ADD PUSH0 ISZERO ISZERO DUP2 MSTORE POP PUSH1 0x2 PUSH0 DUP4 DUP2 MSTORE PUSH1 0x20 ADD SWAP1 DUP2 MSTORE PUSH1 0x20 ADD PUSH0 KECCAK256 PUSH0 DUP3 ADD MLOAD DUP2 PUSH0 ADD PUSH0 PUSH2 0x100 EXP DUP2 SLOAD DUP2 PUSH20 0xFFFFFFFFFFFFFFFFFFFFFFFFFFFFFFFFFFFFFFFF MUL NOT AND SWAP1 DUP4 PUSH20 0xFFFFFFFFFFFFFFFFFFFFFFFFFFFFFFFFFFFFFFFF AND MUL OR SWAP1 SSTORE POP PUSH1 0x20 DUP3 ADD MLOAD DUP2 PUSH1 0x1 ADD SSTORE PUSH1 0x40 DUP3 ADD MLOAD DUP2 PUSH1 0x2 ADD PUSH0 PUSH2 0x100 EXP DUP2 SLOAD DUP2 PUSH1 0xFF MUL NOT AND SWAP1 DUP4 ISZERO ISZERO MUL OR SWAP1 SSTORE POP SWAP1 POP POP PUSH32 0x6CF53AA7292E664152C2EA948C3B3C95D4B05C36DAEB2626D0293473C4A4A153 DUP2 DUP5 DUP5 PUSH1 0x40 MLOAD PUSH2 0x70D SWAP4 SWAP3 SWAP2 SWAP1 PUSH2 0xB7C JUMP JUMPDEST PUSH1 0x40 MLOAD DUP1 SWAP2 SUB SWAP1 LOG1 POP POP POP JUMP JUMPDEST PUSH0 DUP1 SLOAD SWAP1 PUSH2 0x100 EXP SWAP1 DIV PUSH20 0xFFFFFFFFFFFFFFFFFFFFFFFFFFFFFFFFFFFFFFFF AND DUP2 JUMP JUMPDEST PUSH1 0x3 SLOAD DUP2 JUMP JUMPDEST PUSH0 DUP1 REVERT JUMPDEST PUSH0 DUP2 SWAP1 POP SWAP2 SWAP1 POP JUMP JUMPDEST PUSH2 0x759 DUP2 PUSH2 0x747 JUMP JUMPDEST DUP2 EQ PUSH2 0x763 JUMPI PUSH0 DUP1 REVERT JUMPDEST POP JUMP JUMPDEST PUSH0 DUP2 CALLDATALOAD SWAP1 POP PUSH2 0x774 DUP2 PUSH2 0x750 JUMP JUMPDEST SWAP3 SWAP2 POP POP JUMP JUMPDEST PUSH0 PUSH1 0x20 DUP3 DUP5 SUB SLT ISZERO PUSH2 0x78F JUMPI PUSH2 0x78E PUSH2 0x743 JUMP JUMPDEST JUMPDEST PUSH0 PUSH2 0x79C DUP5 DUP3 DUP6 ADD PUSH2 0x766 JUMP JUMPDEST SWAP2 POP POP SWAP3 SWAP2 POP POP JUMP JUMPDEST PUSH0 PUSH20 0xFFFFFFFFFFFFFFFFFFFFFFFFFFFFFFFFFFFFFFFF DUP3 AND SWAP1 POP SWAP2 SWAP1 POP JUMP JUMPDEST PUSH0 PUSH2 0x7CE DUP3 PUSH2 0x7A5 JUMP JUMPDEST SWAP1 POP SWAP2 SWAP1 POP JUMP JUMPDEST PUSH2 0x7DE DUP2 PUSH2 0x7C4 JUMP JUMPDEST DUP3 MSTORE POP POP JUMP JUMPDEST PUSH2 0x7ED DUP2 PUSH2 0x747 JUMP JUMPDEST DUP3 MSTORE POP POP JUMP JUMPDEST PUSH0 DUP2 ISZERO ISZERO SWAP1 POP SWAP2 SWAP1 POP JUMP JUMPDEST PUSH2 0x807 DUP2 PUSH2 0x7F3 JUMP JUMPDEST DUP3 MSTORE POP POP JUMP JUMPDEST PUSH0 PUSH1 0x60 DUP3 ADD SWAP1 POP PUSH2 0x820 PUSH0 DUP4 ADD DUP7 PUSH2 0x7D5 JUMP JUMPDEST PUSH2 0x82D PUSH1 0x20 DUP4 ADD DUP6 PUSH2 0x7E4 JUMP JUMPDEST PUSH2 0x83A PUSH1 0x40 DUP4 ADD DUP5 PUSH2 0x7FE JUMP JUMPDEST SWAP5 SWAP4 POP POP POP POP JUMP JUMPDEST PUSH0 PUSH1 0x20 DUP3 ADD SWAP1 POP PUSH2 0x855 PUSH0 DUP4 ADD DUP5 PUSH2 0x7D5 JUMP JUMPDEST SWAP3 SWAP2 POP POP JUMP JUMPDEST PUSH2 0x864 DUP2 PUSH2 0x7C4 JUMP JUMPDEST DUP2 EQ PUSH2 0x86E JUMPI PUSH0 DUP1 REVERT JUMPDEST POP JUMP JUMPDEST PUSH0 DUP2 CALLDATALOAD SWAP1 POP PUSH2 0x87F DUP2 PUSH2 0x85B JUMP JUMPDEST SWAP3 SWAP2 POP POP JUMP JUMPDEST PUSH0 DUP1 PUSH1 0x40 DUP4 DUP6 SUB SLT ISZERO PUSH2 0x89B JUMPI PUSH2 0x89A PUSH2 0x743 JUMP JUMPDEST JUMPDEST PUSH0 PUSH2 0x8A8 DUP6 DUP3 DUP7 ADD PUSH2 0x871 JUMP JUMPDEST SWAP3 POP POP PUSH1 0x20 PUSH2 0x8B9 DUP6 DUP3 DUP7 ADD PUSH2 0x766 JUMP JUMPDEST SWAP2 POP POP SWAP3 POP SWAP3 SWAP1 POP JUMP JUMPDEST PUSH0 DUP2 SWAP1 POP SWAP2 SWAP1 POP JUMP JUMPDEST PUSH0 PUSH2 0x8E6 PUSH2 0x8E1 PUSH2 0x8DC DUP5 PUSH2 0x7A5 JUMP JUMPDEST PUSH2 0x8C3 JUMP JUMPDEST PUSH2 0x7A5 JUMP JUMPDEST SWAP1 POP SWAP2 SWAP1 POP JUMP JUMPDEST PUSH0 PUSH2 0x8F7 DUP3 PUSH2 0x8CC JUMP JUMPDEST SWAP1 POP SWAP2 SWAP1 POP JUMP JUMPDEST PUSH0 PUSH2 0x908 DUP3 PUSH2 0x8ED JUMP JUMPDEST SWAP1 POP SWAP2 SWAP1 POP JUMP JUMPDEST PUSH2 0x918 DUP2 PUSH2 0x8FE JUMP JUMPDEST DUP3 MSTORE POP POP JUMP JUMPDEST PUSH0 PUSH1 0x20 DUP3 ADD SWAP1 POP PUSH2 0x931 PUSH0 DUP4 ADD DUP5 PUSH2 0x90F JUMP JUMPDEST SWAP3 SWAP2 POP POP JUMP JUMPDEST PUSH0 PUSH1 0x20 DUP3 ADD SWAP1 POP PUSH2 0x94A PUSH0 DUP4 ADD DUP5 PUSH2 0x7E4 JUMP JUMPDEST SWAP3 SWAP2 POP POP JUMP JUMPDEST PUSH0 DUP3 DUP3 MSTORE PUSH1 0x20 DUP3 ADD SWAP1 POP SWAP3 SWAP2 POP POP JUMP JUMPDEST PUSH32 0x4E6F7420746865206F776E657200000000000000000000000000000000000000 PUSH0 DUP3 ADD MSTORE POP JUMP JUMPDEST PUSH0 PUSH2 0x994 PUSH1 0xD DUP4 PUSH2 0x950 JUMP JUMPDEST SWAP2 POP PUSH2 0x99F DUP3 PUSH2 0x960 JUMP JUMPDEST PUSH1 0x20 DUP3 ADD SWAP1 POP SWAP2 SWAP1 POP JUMP JUMPDEST PUSH0 PUSH1 0x20 DUP3 ADD SWAP1 POP DUP2 DUP2 SUB PUSH0 DUP4 ADD MSTORE PUSH2 0x9C1 DUP2 PUSH2 0x988 JUMP JUMPDEST SWAP1 POP SWAP2 SWAP1 POP JUMP JUMPDEST PUSH32 0x5461736B20616C726561647920636F6D706C6574656400000000000000000000 PUSH0 DUP3 ADD MSTORE POP JUMP JUMPDEST PUSH0 PUSH2 0x9FC PUSH1 0x16 DUP4 PUSH2 0x950 JUMP JUMPDEST SWAP2 POP PUSH2 0xA07 DUP3 PUSH2 0x9C8 JUMP JUMPDEST PUSH1 0x20 DUP3 ADD SWAP1 POP SWAP2 SWAP1 POP JUMP JUMPDEST PUSH0 PUSH1 0x20 DUP3 ADD SWAP1 POP DUP2 DUP2 SUB PUSH0 DUP4 ADD MSTORE PUSH2 0xA29 DUP2 PUSH2 0x9F0 JUMP JUMPDEST SWAP1 POP SWAP2 SWAP1 POP JUMP JUMPDEST PUSH32 0x526577617264206D757374206265207365740000000000000000000000000000 PUSH0 DUP3 ADD MSTORE POP JUMP JUMPDEST PUSH0 PUSH2 0xA64 PUSH1 0x12 DUP4 PUSH2 0x950 JUMP JUMPDEST SWAP2 POP PUSH2 0xA6F DUP3 PUSH2 0xA30 JUMP JUMPDEST PUSH1 0x20 DUP3 ADD SWAP1 POP SWAP2 SWAP1 POP JUMP JUMPDEST PUSH0 PUSH1 0x20 DUP3 ADD SWAP1 POP DUP2 DUP2 SUB PUSH0 DUP4 ADD MSTORE PUSH2 0xA91 DUP2 PUSH2 0xA58 JUMP JUMPDEST SWAP1 POP SWAP2 SWAP1 POP JUMP JUMPDEST PUSH0 PUSH1 0x40 DUP3 ADD SWAP1 POP PUSH2 0xAAB PUSH0 DUP4 ADD DUP6 PUSH2 0x7D5 JUMP JUMPDEST PUSH2 0xAB8 PUSH1 0x20 DUP4 ADD DUP5 PUSH2 0x7E4 JUMP JUMPDEST SWAP4 SWAP3 POP POP POP JUMP JUMPDEST PUSH2 0xAC8 DUP2 PUSH2 0x7F3 JUMP JUMPDEST DUP2 EQ PUSH2 0xAD2 JUMPI PUSH0 DUP1 REVERT JUMPDEST POP JUMP JUMPDEST PUSH0 DUP2 MLOAD SWAP1 POP PUSH2 0xAE3 DUP2 PUSH2 0xABF JUMP JUMPDEST SWAP3 SWAP2 POP POP JUMP JUMPDEST PUSH0 PUSH1 0x20 DUP3 DUP5 SUB SLT ISZERO PUSH2 0xAFE JUMPI PUSH2 0xAFD PUSH2 0x743 JUMP JUMPDEST JUMPDEST PUSH0 PUSH2 0xB0B DUP5 DUP3 DUP6 ADD PUSH2 0xAD5 JUMP JUMPDEST SWAP2 POP POP SWAP3 SWAP2 POP POP JUMP JUMPDEST PUSH32 0x526577617264207472616E73666572206661696C656400000000000000000000 PUSH0 DUP3 ADD MSTORE POP JUMP JUMPDEST PUSH0 PUSH2 0xB48 PUSH1 0x16 DUP4 PUSH2 0x950 JUMP JUMPDEST SWAP2 POP PUSH2 0xB53 DUP3 PUSH2 0xB14 JUMP JUMPDEST PUSH1 0x20 DUP3 ADD SWAP1 POP SWAP2 SWAP1 POP JUMP JUMPDEST PUSH0 PUSH1 0x20 DUP3 ADD SWAP1 POP DUP2 DUP2 SUB PUSH0 DUP4 ADD MSTORE PUSH2 0xB75 DUP2 PUSH2 0xB3C JUMP JUMPDEST SWAP1 POP SWAP2 SWAP1 POP JUMP JUMPDEST PUSH0 PUSH1 0x60 DUP3 ADD SWAP1 POP PUSH2 0xB8F PUSH0 DUP4 ADD DUP7 PUSH2 0x7E4 JUMP JUMPDEST PUSH2 0xB9C PUSH1 0x20 DUP4 ADD DUP6 PUSH2 0x7D5 JUMP JUMPDEST PUSH2 0xBA9 PUSH1 0x40 DUP4 ADD DUP5 PUSH2 0x7E4 JUMP JUMPDEST SWAP5 SWAP4 POP POP POP POP JUMP JUMPDEST PUSH32 0x526577617264206D7573742062652067726561746572207468616E2030000000 PUSH0 DUP3 ADD MSTORE POP JUMP JUMPDEST PUSH0 PUSH2 0xBE5 PUSH1 0x1D DUP4 PUSH2 0x950 JUMP JUMPDEST SWAP2 POP PUSH2 0xBF0 DUP3 PUSH2 0xBB1 JUMP JUMPDEST PUSH1 0x20 DUP3 ADD SWAP1 POP SWAP2 SWAP1 POP JUMP JUMPDEST PUSH0 PUSH1 0x20 DUP3 ADD SWAP1 POP DUP2 DUP2 SUB PUSH0 DUP4 ADD MSTORE PUSH2 0xC12 DUP2 PUSH2 0xBD9 JUMP JUMPDEST SWAP1 POP SWAP2 SWAP1 POP JUMP JUMPDEST PUSH32 0x4E487B7100000000000000000000000000000000000000000000000000000000 PUSH0 MSTORE PUSH1 0x11 PUSH1 0x4 MSTORE PUSH1 0x24 PUSH0 REVERT JUMPDEST PUSH0 PUSH2 0xC50 DUP3 PUSH2 0x747 JUMP JUMPDEST SWAP2 POP PUSH32 0xFFFFFFFFFFFFFFFFFFFFFFFFFFFFFFFFFFFFFFFFFFFFFFFFFFFFFFFFFFFFFFFF DUP3 SUB PUSH2 0xC82 JUMPI PUSH2 0xC81 PUSH2 0xC19 JUMP JUMPDEST JUMPDEST PUSH1 0x1 DUP3 ADD SWAP1 POP SWAP2 SWAP1 POP JUMP JUMPDEST PUSH0 PUSH1 0x60 DUP3 ADD SWAP1 POP PUSH2 0xCA0 PUSH0 DUP4 ADD DUP7 PUSH2 0x7D5 JUMP JUMPDEST PUSH2 0xCAD PUSH1 0x20 DUP4 ADD DUP6 PUSH2 0x7D5 JUMP JUMPDEST PUSH2 0xCBA PUSH1 0x40 DUP4 ADD DUP5 PUSH2 0x7E4 JUMP JUMPDEST SWAP5 SWAP4 POP POP POP POP JUMP JUMPDEST PUSH32 0x5472616E73666572206661696C65640000000000000000000000000000000000 PUSH0 DUP3 ADD MSTORE POP JUMP JUMPDEST PUSH0 PUSH2 0xCF6 PUSH1 0xF DUP4 PUSH2 0x950 JUMP JUMPDEST SWAP2 POP PUSH2 0xD01 DUP3 PUSH2 0xCC2 JUMP JUMPDEST PUSH1 0x20 DUP3 ADD SWAP1 POP SWAP2 SWAP1 POP JUMP JUMPDEST PUSH0 PUSH1 0x20 DUP3 ADD SWAP1 POP DUP2 DUP2 SUB PUSH0 DUP4 ADD MSTORE PUSH2 0xD23 DUP2 PUSH2 0xCEA JUMP JUMPDEST SWAP1 POP SWAP2 SWAP1 POP JUMP INVALID LOG2 PUSH5 0x6970667358 0x22 SLT KECCAK256 BASEFEE 0x1E 0xDF NOT 0xD4 ADDRESS PUSH26 0x27687A1A865DA5C225318AA7FB94698C634D62C083E3AB593B64 PUSH20 0x6F6C634300081600330000000000000000000000 "
				},
				"gasEstimates": {
					"creation": {
						"codeDepositCost": "684800",
						"executionCost": "infinite",
						"totalCost": "infinite"
					},
					"external": {
						"approveTask(uint256)": "infinite",
						"createTask(address,uint256)": "infinite",
						"nextTaskId()": "2513",
						"owner()": "2530",
						"tasks(uint256)": "infinite",
						"token()": "infinite"
					}
				},
				"methodIdentifiers": {
					"approveTask(uint256)": "0a07fae6",
					"createTask(address,uint256)": "f50e99fc",
					"nextTaskId()": "fdc3d8d7",
					"owner()": "8da5cb5b",
					"tasks(uint256)": "8d977672",
					"token()": "fc0c546a"
				}
			},
			"storageLayout": {
				"storage": [
					{
						"astId": 25,
						"contract": "telefonica/recompensasFamilia.sol:TaskCompensation",
						"label": "token",
						"offset": 0,
						"slot": "0",
						"type": "t_contract(IERC20)22"
					},
					{
						"astId": 27,
						"contract": "telefonica/recompensasFamilia.sol:TaskCompensation",
						"label": "owner",
						"offset": 0,
						"slot": "1",
						"type": "t_address"
					},
					{
						"astId": 39,
						"contract": "telefonica/recompensasFamilia.sol:TaskCompensation",
						"label": "tasks",
						"offset": 0,
						"slot": "2",
						"type": "t_mapping(t_uint256,t_struct(Task)34_storage)"
					},
					{
						"astId": 41,
						"contract": "telefonica/recompensasFamilia.sol:TaskCompensation",
						"label": "nextTaskId",
						"offset": 0,
						"slot": "3",
						"type": "t_uint256"
					}
				],
				"types": {
					"t_address": {
						"encoding": "inplace",
						"label": "address",
						"numberOfBytes": "20"
					},
					"t_bool": {
						"encoding": "inplace",
						"label": "bool",
						"numberOfBytes": "1"
					},
					"t_contract(IERC20)22": {
						"encoding": "inplace",
						"label": "contract IERC20",
						"numberOfBytes": "20"
					},
					"t_mapping(t_uint256,t_struct(Task)34_storage)": {
						"encoding": "mapping",
						"key": "t_uint256",
						"label": "mapping(uint256 => struct TaskCompensation.Task)",
						"numberOfBytes": "32",
						"value": "t_struct(Task)34_storage"
					},
					"t_struct(Task)34_storage": {
						"encoding": "inplace",
						"label": "struct TaskCompensation.Task",
						"members": [
							{
								"astId": 29,
								"contract": "telefonica/recompensasFamilia.sol:TaskCompensation",
								"label": "taskDoer",
								"offset": 0,
								"slot": "0",
								"type": "t_address"
							},
							{
								"astId": 31,
								"contract": "telefonica/recompensasFamilia.sol:TaskCompensation",
								"label": "reward",
								"offset": 0,
								"slot": "1",
								"type": "t_uint256"
							},
							{
								"astId": 33,
								"contract": "telefonica/recompensasFamilia.sol:TaskCompensation",
								"label": "completed",
								"offset": 0,
								"slot": "2",
								"type": "t_bool"
							}
						],
						"numberOfBytes": "96"
					},
					"t_uint256": {
						"encoding": "inplace",
						"label": "uint256",
						"numberOfBytes": "32"
					}
				}
			},
			"userdoc": {
				"kind": "user",
				"methods": {},
				"version": 1
			}
		}
	}
}