{
	"tests/decompilert.sol": {
		"MultiSigWallet": {
			"abi": [
				{
					"inputs": [
						{
							"internalType": "address",
							"name": "_firstOwner",
							"type": "address"
						}
					],
					"stateMutability": "nonpayable",
					"type": "constructor"
				},
				{
					"anonymous": false,
					"inputs": [
						{
							"indexed": true,
							"internalType": "address",
							"name": "owner",
							"type": "address"
						},
						{
							"indexed": true,
							"internalType": "uint256",
							"name": "txIndex",
							"type": "uint256"
						}
					],
					"name": "ConfirmTransaction",
					"type": "event"
				},
				{
					"anonymous": false,
					"inputs": [
						{
							"indexed": true,
							"internalType": "address",
							"name": "sender",
							"type": "address"
						},
						{
							"indexed": false,
							"internalType": "uint256",
							"name": "amount",
							"type": "uint256"
						},
						{
							"indexed": false,
							"internalType": "uint256",
							"name": "balance",
							"type": "uint256"
						}
					],
					"name": "Deposit",
					"type": "event"
				},
				{
					"anonymous": false,
					"inputs": [
						{
							"indexed": true,
							"internalType": "address",
							"name": "owner",
							"type": "address"
						},
						{
							"indexed": true,
							"internalType": "uint256",
							"name": "txIndex",
							"type": "uint256"
						}
					],
					"name": "ExecuteTransaction",
					"type": "event"
				},
				{
					"anonymous": false,
					"inputs": [
						{
							"indexed": true,
							"internalType": "address",
							"name": "owner",
							"type": "address"
						}
					],
					"name": "OwnerAdded",
					"type": "event"
				},
				{
					"anonymous": false,
					"inputs": [
						{
							"indexed": true,
							"internalType": "address",
							"name": "owner",
							"type": "address"
						}
					],
					"name": "OwnerRemoved",
					"type": "event"
				},
				{
					"anonymous": false,
					"inputs": [
						{
							"indexed": true,
							"internalType": "address",
							"name": "owner",
							"type": "address"
						},
						{
							"indexed": true,
							"internalType": "uint256",
							"name": "txIndex",
							"type": "uint256"
						}
					],
					"name": "RevokeConfirmation",
					"type": "event"
				},
				{
					"anonymous": false,
					"inputs": [
						{
							"indexed": true,
							"internalType": "address",
							"name": "owner",
							"type": "address"
						},
						{
							"indexed": true,
							"internalType": "uint256",
							"name": "txIndex",
							"type": "uint256"
						},
						{
							"indexed": true,
							"internalType": "address",
							"name": "to",
							"type": "address"
						},
						{
							"indexed": false,
							"internalType": "uint256",
							"name": "value",
							"type": "uint256"
						},
						{
							"indexed": false,
							"internalType": "bytes",
							"name": "data",
							"type": "bytes"
						}
					],
					"name": "SubmitTransaction",
					"type": "event"
				},
				{
					"inputs": [],
					"name": "MAX_OWNERS",
					"outputs": [
						{
							"internalType": "uint256",
							"name": "",
							"type": "uint256"
						}
					],
					"stateMutability": "view",
					"type": "function"
				},
				{
					"inputs": [
						{
							"internalType": "address",
							"name": "_newOwner",
							"type": "address"
						}
					],
					"name": "addOwner",
					"outputs": [],
					"stateMutability": "nonpayable",
					"type": "function"
				},
				{
					"inputs": [
						{
							"internalType": "uint256",
							"name": "_txIndex",
							"type": "uint256"
						}
					],
					"name": "confirmTransaction",
					"outputs": [],
					"stateMutability": "nonpayable",
					"type": "function"
				},
				{
					"inputs": [],
					"name": "cost",
					"outputs": [
						{
							"internalType": "uint256",
							"name": "",
							"type": "uint256"
						}
					],
					"stateMutability": "view",
					"type": "function"
				},
				{
					"inputs": [],
					"name": "exchangeAmount",
					"outputs": [
						{
							"internalType": "uint256",
							"name": "",
							"type": "uint256"
						}
					],
					"stateMutability": "view",
					"type": "function"
				},
				{
					"inputs": [
						{
							"internalType": "uint256",
							"name": "_exchangeAmount",
							"type": "uint256"
						}
					],
					"name": "exchangeArgentina",
					"outputs": [
						{
							"internalType": "uint256",
							"name": "",
							"type": "uint256"
						}
					],
					"stateMutability": "nonpayable",
					"type": "function"
				},
				{
					"inputs": [
						{
							"internalType": "uint256",
							"name": "_exchangeAmount",
							"type": "uint256"
						}
					],
					"name": "exchangeFrance",
					"outputs": [
						{
							"internalType": "uint256",
							"name": "",
							"type": "uint256"
						}
					],
					"stateMutability": "nonpayable",
					"type": "function"
				},
				{
					"inputs": [
						{
							"internalType": "uint256",
							"name": "_exchangeAmount",
							"type": "uint256"
						}
					],
					"name": "exchangeLondon",
					"outputs": [
						{
							"internalType": "uint256",
							"name": "",
							"type": "uint256"
						}
					],
					"stateMutability": "nonpayable",
					"type": "function"
				},
				{
					"inputs": [
						{
							"internalType": "uint256",
							"name": "_exchangeAmount",
							"type": "uint256"
						}
					],
					"name": "exchangePoland",
					"outputs": [
						{
							"internalType": "uint256",
							"name": "",
							"type": "uint256"
						}
					],
					"stateMutability": "nonpayable",
					"type": "function"
				},
				{
					"inputs": [
						{
							"internalType": "uint256",
							"name": "_txIndex",
							"type": "uint256"
						}
					],
					"name": "executeTransaction",
					"outputs": [],
					"stateMutability": "nonpayable",
					"type": "function"
				},
				{
					"inputs": [],
					"name": "getFlag",
					"outputs": [
						{
							"internalType": "string",
							"name": "",
							"type": "string"
						}
					],
					"stateMutability": "view",
					"type": "function"
				},
				{
					"inputs": [],
					"name": "getOwners",
					"outputs": [
						{
							"internalType": "address[]",
							"name": "",
							"type": "address[]"
						}
					],
					"stateMutability": "view",
					"type": "function"
				},
				{
					"inputs": [
						{
							"internalType": "uint256",
							"name": "_txIndex",
							"type": "uint256"
						}
					],
					"name": "getTransaction",
					"outputs": [
						{
							"internalType": "address",
							"name": "to",
							"type": "address"
						},
						{
							"internalType": "uint256",
							"name": "value",
							"type": "uint256"
						},
						{
							"internalType": "bytes",
							"name": "data",
							"type": "bytes"
						},
						{
							"internalType": "bool",
							"name": "executed",
							"type": "bool"
						},
						{
							"internalType": "uint256",
							"name": "numConfirmations",
							"type": "uint256"
						}
					],
					"stateMutability": "view",
					"type": "function"
				},
				{
					"inputs": [],
					"name": "getTransactionCount",
					"outputs": [
						{
							"internalType": "uint256",
							"name": "",
							"type": "uint256"
						}
					],
					"stateMutability": "view",
					"type": "function"
				},
				{
					"inputs": [
						{
							"internalType": "uint256",
							"name": "",
							"type": "uint256"
						},
						{
							"internalType": "address",
							"name": "",
							"type": "address"
						}
					],
					"name": "isConfirmed",
					"outputs": [
						{
							"internalType": "bool",
							"name": "",
							"type": "bool"
						}
					],
					"stateMutability": "view",
					"type": "function"
				},
				{
					"inputs": [
						{
							"internalType": "address",
							"name": "",
							"type": "address"
						}
					],
					"name": "isOwner",
					"outputs": [
						{
							"internalType": "bool",
							"name": "",
							"type": "bool"
						}
					],
					"stateMutability": "view",
					"type": "function"
				},
				{
					"inputs": [],
					"name": "numConfirmationsRequired",
					"outputs": [
						{
							"internalType": "uint256",
							"name": "",
							"type": "uint256"
						}
					],
					"stateMutability": "view",
					"type": "function"
				},
				{
					"inputs": [
						{
							"internalType": "uint256",
							"name": "",
							"type": "uint256"
						}
					],
					"name": "owners",
					"outputs": [
						{
							"internalType": "address",
							"name": "",
							"type": "address"
						}
					],
					"stateMutability": "view",
					"type": "function"
				},
				{
					"inputs": [
						{
							"internalType": "address",
							"name": "_owner",
							"type": "address"
						}
					],
					"name": "removeOwner",
					"outputs": [],
					"stateMutability": "nonpayable",
					"type": "function"
				},
				{
					"inputs": [
						{
							"internalType": "uint256",
							"name": "_txIndex",
							"type": "uint256"
						}
					],
					"name": "revokeConfirmation",
					"outputs": [],
					"stateMutability": "nonpayable",
					"type": "function"
				},
				{
					"inputs": [
						{
							"internalType": "address",
							"name": "_to",
							"type": "address"
						},
						{
							"internalType": "uint256",
							"name": "_value",
							"type": "uint256"
						},
						{
							"internalType": "bytes",
							"name": "_data",
							"type": "bytes"
						}
					],
					"name": "submitTransaction",
					"outputs": [],
					"stateMutability": "nonpayable",
					"type": "function"
				},
				{
					"inputs": [
						{
							"internalType": "uint256",
							"name": "",
							"type": "uint256"
						}
					],
					"name": "transactions",
					"outputs": [
						{
							"internalType": "address",
							"name": "to",
							"type": "address"
						},
						{
							"internalType": "uint256",
							"name": "value",
							"type": "uint256"
						},
						{
							"internalType": "bytes",
							"name": "data",
							"type": "bytes"
						},
						{
							"internalType": "bool",
							"name": "executed",
							"type": "bool"
						},
						{
							"internalType": "uint256",
							"name": "numConfirmations",
							"type": "uint256"
						}
					],
					"stateMutability": "view",
					"type": "function"
				},
				{
					"stateMutability": "payable",
					"type": "receive"
				}
			],
			"devdoc": {
				"kind": "dev",
				"methods": {},
				"version": 1
			},
			"evm": {
				"assembly": "    /* \"tests/decompilert.sol\":61:7320  contract MultiSigWallet {... */\n  mstore(0x40, 0x80)\n    /* \"tests/decompilert.sol\":815:816  2 */\n  0x02\n    /* \"tests/decompilert.sol\":776:816  uint public numConfirmationsRequired = 2 */\n  dup1\n  sstore\n    /* \"tests/decompilert.sol\":854:855  2 */\n  0x02\n    /* \"tests/decompilert.sol\":825:855  uint256 private commission = 2 */\n  0x03\n  sstore\n    /* \"tests/decompilert.sol\":1730:1906  constructor(address _firstOwner) {... */\n  callvalue\n  dup1\n  iszero\n  tag_1\n  jumpi\n  0x00\n  dup1\n  revert\ntag_1:\n  pop\n  mload(0x40)\n  sub(codesize, bytecodeSize)\n  dup1\n  bytecodeSize\n  dup4\n  codecopy\n  dup2\n  dup2\n  add\n  0x40\n  mstore\n  dup2\n  add\n  swap1\n  tag_2\n  swap2\n  swap1\n  tag_3\n  jump\t// in\ntag_2:\n    /* \"tests/decompilert.sol\":1805:1806  0 */\n  0x00\n    /* \"tests/decompilert.sol\":1782:1807  _firstOwner != address(0) */\n  0xffffffffffffffffffffffffffffffffffffffff\n  and\n    /* \"tests/decompilert.sol\":1782:1793  _firstOwner */\n  dup2\n    /* \"tests/decompilert.sol\":1782:1807  _firstOwner != address(0) */\n  0xffffffffffffffffffffffffffffffffffffffff\n  and\n  sub\n    /* \"tests/decompilert.sol\":1774:1825  require(_firstOwner != address(0), \"invalid owner\") */\n  tag_6\n  jumpi\n  mload(0x40)\n  0x08c379a000000000000000000000000000000000000000000000000000000000\n  dup2\n  mstore\n  0x04\n  add\n  tag_7\n  swap1\n  tag_8\n  jump\t// in\ntag_7:\n  mload(0x40)\n  dup1\n  swap2\n  sub\n  swap1\n  revert\ntag_6:\n    /* \"tests/decompilert.sol\":1859:1863  true */\n  0x01\n    /* \"tests/decompilert.sol\":1836:1843  isOwner */\n  dup1\n    /* \"tests/decompilert.sol\":1836:1856  isOwner[_firstOwner] */\n  0x00\n    /* \"tests/decompilert.sol\":1844:1855  _firstOwner */\n  dup4\n    /* \"tests/decompilert.sol\":1836:1856  isOwner[_firstOwner] */\n  0xffffffffffffffffffffffffffffffffffffffff\n  and\n  0xffffffffffffffffffffffffffffffffffffffff\n  and\n  dup2\n  mstore\n  0x20\n  add\n  swap1\n  dup2\n  mstore\n  0x20\n  add\n  0x00\n  keccak256\n  0x00\n    /* \"tests/decompilert.sol\":1836:1863  isOwner[_firstOwner] = true */\n  0x0100\n  exp\n  dup2\n  sload\n  dup2\n  0xff\n  mul\n  not\n  and\n  swap1\n  dup4\n  iszero\n  iszero\n  mul\n  or\n  swap1\n  sstore\n  pop\n    /* \"tests/decompilert.sol\":1874:1880  owners */\n  0x00\n    /* \"tests/decompilert.sol\":1886:1897  _firstOwner */\n  dup2\n    /* \"tests/decompilert.sol\":1874:1898  owners.push(_firstOwner) */\n  swap1\n  dup1\n  0x01\n  dup2\n  sload\n  add\n  dup1\n  dup3\n  sstore\n  dup1\n  swap2\n  pop\n  pop\n  0x01\n  swap1\n  sub\n  swap1\n  0x00\n  mstore\n  keccak256(0x00, 0x20)\n  add\n  0x00\n  swap1\n  swap2\n  swap1\n  swap2\n  swap1\n  swap2\n  0x0100\n  exp\n  dup2\n  sload\n  dup2\n  0xffffffffffffffffffffffffffffffffffffffff\n  mul\n  not\n  and\n  swap1\n  dup4\n  0xffffffffffffffffffffffffffffffffffffffff\n  and\n  mul\n  or\n  swap1\n  sstore\n  pop\n    /* \"tests/decompilert.sol\":1730:1906  constructor(address _firstOwner) {... */\n  pop\n    /* \"tests/decompilert.sol\":61:7320  contract MultiSigWallet {... */\n  jump(tag_10)\n    /* \"#utility.yul\":88:205   */\ntag_12:\n    /* \"#utility.yul\":197:198   */\n  0x00\n    /* \"#utility.yul\":194:195   */\n  dup1\n    /* \"#utility.yul\":187:199   */\n  revert\n    /* \"#utility.yul\":334:460   */\ntag_14:\n    /* \"#utility.yul\":371:378   */\n  0x00\n    /* \"#utility.yul\":411:453   */\n  0xffffffffffffffffffffffffffffffffffffffff\n    /* \"#utility.yul\":404:409   */\n  dup3\n    /* \"#utility.yul\":400:454   */\n  and\n    /* \"#utility.yul\":389:454   */\n  swap1\n  pop\n    /* \"#utility.yul\":334:460   */\n  swap2\n  swap1\n  pop\n  jump\t// out\n    /* \"#utility.yul\":466:562   */\ntag_15:\n    /* \"#utility.yul\":503:510   */\n  0x00\n    /* \"#utility.yul\":532:556   */\n  tag_27\n    /* \"#utility.yul\":550:555   */\n  dup3\n    /* \"#utility.yul\":532:556   */\n  tag_14\n  jump\t// in\ntag_27:\n    /* \"#utility.yul\":521:556   */\n  swap1\n  pop\n    /* \"#utility.yul\":466:562   */\n  swap2\n  swap1\n  pop\n  jump\t// out\n    /* \"#utility.yul\":568:690   */\ntag_16:\n    /* \"#utility.yul\":641:665   */\n  tag_29\n    /* \"#utility.yul\":659:664   */\n  dup2\n    /* \"#utility.yul\":641:665   */\n  tag_15\n  jump\t// in\ntag_29:\n    /* \"#utility.yul\":634:639   */\n  dup2\n    /* \"#utility.yul\":631:666   */\n  eq\n    /* \"#utility.yul\":621:684   */\n  tag_30\n  jumpi\n    /* \"#utility.yul\":680:681   */\n  0x00\n    /* \"#utility.yul\":677:678   */\n  dup1\n    /* \"#utility.yul\":670:682   */\n  revert\n    /* \"#utility.yul\":621:684   */\ntag_30:\n    /* \"#utility.yul\":568:690   */\n  pop\n  jump\t// out\n    /* \"#utility.yul\":696:839   */\ntag_17:\n    /* \"#utility.yul\":753:758   */\n  0x00\n    /* \"#utility.yul\":784:790   */\n  dup2\n    /* \"#utility.yul\":778:791   */\n  mload\n    /* \"#utility.yul\":769:791   */\n  swap1\n  pop\n    /* \"#utility.yul\":800:833   */\n  tag_32\n    /* \"#utility.yul\":827:832   */\n  dup2\n    /* \"#utility.yul\":800:833   */\n  tag_16\n  jump\t// in\ntag_32:\n    /* \"#utility.yul\":696:839   */\n  swap3\n  swap2\n  pop\n  pop\n  jump\t// out\n    /* \"#utility.yul\":845:1196   */\ntag_3:\n    /* \"#utility.yul\":915:921   */\n  0x00\n    /* \"#utility.yul\":964:966   */\n  0x20\n    /* \"#utility.yul\":952:961   */\n  dup3\n    /* \"#utility.yul\":943:950   */\n  dup5\n    /* \"#utility.yul\":939:962   */\n  sub\n    /* \"#utility.yul\":935:967   */\n  slt\n    /* \"#utility.yul\":932:1051   */\n  iszero\n  tag_34\n  jumpi\n    /* \"#utility.yul\":970:1049   */\n  tag_35\n  tag_12\n  jump\t// in\ntag_35:\n    /* \"#utility.yul\":932:1051   */\ntag_34:\n    /* \"#utility.yul\":1090:1091   */\n  0x00\n    /* \"#utility.yul\":1115:1179   */\n  tag_36\n    /* \"#utility.yul\":1171:1178   */\n  dup5\n    /* \"#utility.yul\":1162:1168   */\n  dup3\n    /* \"#utility.yul\":1151:1160   */\n  dup6\n    /* \"#utility.yul\":1147:1169   */\n  add\n    /* \"#utility.yul\":1115:1179   */\n  tag_17\n  jump\t// in\ntag_36:\n    /* \"#utility.yul\":1105:1179   */\n  swap2\n  pop\n    /* \"#utility.yul\":1061:1189   */\n  pop\n    /* \"#utility.yul\":845:1196   */\n  swap3\n  swap2\n  pop\n  pop\n  jump\t// out\n    /* \"#utility.yul\":1202:1371   */\ntag_18:\n    /* \"#utility.yul\":1286:1297   */\n  0x00\n    /* \"#utility.yul\":1320:1326   */\n  dup3\n    /* \"#utility.yul\":1315:1318   */\n  dup3\n    /* \"#utility.yul\":1308:1327   */\n  mstore\n    /* \"#utility.yul\":1360:1364   */\n  0x20\n    /* \"#utility.yul\":1355:1358   */\n  dup3\n    /* \"#utility.yul\":1351:1365   */\n  add\n    /* \"#utility.yul\":1336:1365   */\n  swap1\n  pop\n    /* \"#utility.yul\":1202:1371   */\n  swap3\n  swap2\n  pop\n  pop\n  jump\t// out\n    /* \"#utility.yul\":1377:1540   */\ntag_19:\n    /* \"#utility.yul\":1517:1532   */\n  0x696e76616c6964206f776e657200000000000000000000000000000000000000\n    /* \"#utility.yul\":1513:1514   */\n  0x00\n    /* \"#utility.yul\":1505:1511   */\n  dup3\n    /* \"#utility.yul\":1501:1515   */\n  add\n    /* \"#utility.yul\":1494:1533   */\n  mstore\n    /* \"#utility.yul\":1377:1540   */\n  pop\n  jump\t// out\n    /* \"#utility.yul\":1546:1912   */\ntag_20:\n    /* \"#utility.yul\":1688:1691   */\n  0x00\n    /* \"#utility.yul\":1709:1776   */\n  tag_40\n    /* \"#utility.yul\":1773:1775   */\n  0x0d\n    /* \"#utility.yul\":1768:1771   */\n  dup4\n    /* \"#utility.yul\":1709:1776   */\n  tag_18\n  jump\t// in\ntag_40:\n    /* \"#utility.yul\":1702:1776   */\n  swap2\n  pop\n    /* \"#utility.yul\":1785:1878   */\n  tag_41\n    /* \"#utility.yul\":1874:1877   */\n  dup3\n    /* \"#utility.yul\":1785:1878   */\n  tag_19\n  jump\t// in\ntag_41:\n    /* \"#utility.yul\":1903:1905   */\n  0x20\n    /* \"#utility.yul\":1898:1901   */\n  dup3\n    /* \"#utility.yul\":1894:1906   */\n  add\n    /* \"#utility.yul\":1887:1906   */\n  swap1\n  pop\n    /* \"#utility.yul\":1546:1912   */\n  swap2\n  swap1\n  pop\n  jump\t// out\n    /* \"#utility.yul\":1918:2337   */\ntag_8:\n    /* \"#utility.yul\":2084:2088   */\n  0x00\n    /* \"#utility.yul\":2122:2124   */\n  0x20\n    /* \"#utility.yul\":2111:2120   */\n  dup3\n    /* \"#utility.yul\":2107:2125   */\n  add\n    /* \"#utility.yul\":2099:2125   */\n  swap1\n  pop\n    /* \"#utility.yul\":2171:2180   */\n  dup2\n    /* \"#utility.yul\":2165:2169   */\n  dup2\n    /* \"#utility.yul\":2161:2181   */\n  sub\n    /* \"#utility.yul\":2157:2158   */\n  0x00\n    /* \"#utility.yul\":2146:2155   */\n  dup4\n    /* \"#utility.yul\":2142:2159   */\n  add\n    /* \"#utility.yul\":2135:2182   */\n  mstore\n    /* \"#utility.yul\":2199:2330   */\n  tag_43\n    /* \"#utility.yul\":2325:2329   */\n  dup2\n    /* \"#utility.yul\":2199:2330   */\n  tag_20\n  jump\t// in\ntag_43:\n    /* \"#utility.yul\":2191:2330   */\n  swap1\n  pop\n    /* \"#utility.yul\":1918:2337   */\n  swap2\n  swap1\n  pop\n  jump\t// out\n    /* \"tests/decompilert.sol\":61:7320  contract MultiSigWallet {... */\ntag_10:\n  dataSize(sub_0)\n  dup1\n  dataOffset(sub_0)\n  0x00\n  codecopy\n  0x00\n  return\nstop\n\nsub_0: assembly {\n        /* \"tests/decompilert.sol\":61:7320  contract MultiSigWallet {... */\n      mstore(0x40, 0x80)\n      jumpi(tag_1, lt(calldatasize, 0x04))\n      shr(0xe0, calldataload(0x00))\n      dup1\n      0x80f59a65\n      gt\n      tag_25\n      jumpi\n      dup1\n      0xc6427474\n      gt\n      tag_26\n      jumpi\n      dup1\n      0xc6427474\n      eq\n      tag_19\n      jumpi\n      dup1\n      0xd0549b85\n      eq\n      tag_20\n      jumpi\n      dup1\n      0xee22610b\n      eq\n      tag_21\n      jumpi\n      dup1\n      0xf247f02d\n      eq\n      tag_22\n      jumpi\n      dup1\n      0xf6291e43\n      eq\n      tag_23\n      jumpi\n      dup1\n      0xf9633930\n      eq\n      tag_24\n      jumpi\n      jump(tag_2)\n    tag_26:\n      dup1\n      0x80f59a65\n      eq\n      tag_14\n      jumpi\n      dup1\n      0x82539a0d\n      eq\n      tag_15\n      jumpi\n      dup1\n      0x9ace38c2\n      eq\n      tag_16\n      jumpi\n      dup1\n      0xa0e67e2b\n      eq\n      tag_17\n      jumpi\n      dup1\n      0xc01a8c84\n      eq\n      tag_18\n      jumpi\n      jump(tag_2)\n    tag_25:\n      dup1\n      0x20ea8d86\n      gt\n      tag_27\n      jumpi\n      dup1\n      0x20ea8d86\n      eq\n      tag_8\n      jumpi\n      dup1\n      0x2e7700f0\n      eq\n      tag_9\n      jumpi\n      dup1\n      0x2f54bf6e\n      eq\n      tag_10\n      jumpi\n      dup1\n      0x33ea3dc8\n      eq\n      tag_11\n      jumpi\n      dup1\n      0x610539b4\n      eq\n      tag_12\n      jumpi\n      dup1\n      0x7065cb48\n      eq\n      tag_13\n      jumpi\n      jump(tag_2)\n    tag_27:\n      dup1\n      0x025e7c27\n      eq\n      tag_3\n      jumpi\n      dup1\n      0x0b8bb146\n      eq\n      tag_4\n      jumpi\n      dup1\n      0x13faede6\n      eq\n      tag_5\n      jumpi\n      dup1\n      0x15d57992\n      eq\n      tag_6\n      jumpi\n      dup1\n      0x173825d9\n      eq\n      tag_7\n      jumpi\n      jump(tag_2)\n    tag_1:\n      jumpi(tag_2, calldatasize)\n        /* \"tests/decompilert.sol\":2805:2815  msg.sender */\n      caller\n        /* \"tests/decompilert.sol\":2797:2850  Deposit(msg.sender, msg.value, address(this).balance) */\n      0xffffffffffffffffffffffffffffffffffffffff\n      and\n      0x90890809c654f11d6e72a28fa60149770a0d11ec6c92319d6ceb2bb0a4ea1a15\n        /* \"tests/decompilert.sol\":2817:2826  msg.value */\n      callvalue\n        /* \"tests/decompilert.sol\":2828:2849  address(this).balance */\n      selfbalance\n        /* \"tests/decompilert.sol\":2797:2850  Deposit(msg.sender, msg.value, address(this).balance) */\n      mload(0x40)\n      tag_30\n      swap3\n      swap2\n      swap1\n      tag_31\n      jump\t// in\n    tag_30:\n      mload(0x40)\n      dup1\n      swap2\n      sub\n      swap1\n      log2\n        /* \"tests/decompilert.sol\":61:7320  contract MultiSigWallet {... */\n      stop\n    tag_2:\n      0x00\n      dup1\n      revert\n        /* \"tests/decompilert.sol\":658:681  address[] public owners */\n    tag_3:\n      callvalue\n      dup1\n      iszero\n      tag_32\n      jumpi\n      0x00\n      dup1\n      revert\n    tag_32:\n      pop\n      tag_33\n      0x04\n      dup1\n      calldatasize\n      sub\n      dup2\n      add\n      swap1\n      tag_34\n      swap2\n      swap1\n      tag_35\n      jump\t// in\n    tag_34:\n      tag_36\n      jump\t// in\n    tag_33:\n      mload(0x40)\n      tag_37\n      swap2\n      swap1\n      tag_38\n      jump\t// in\n    tag_37:\n      mload(0x40)\n      dup1\n      swap2\n      sub\n      swap1\n      return\n        /* \"tests/decompilert.sol\":734:769  uint public constant MAX_OWNERS = 3 */\n    tag_4:\n      callvalue\n      dup1\n      iszero\n      tag_39\n      jumpi\n      0x00\n      dup1\n      revert\n    tag_39:\n      pop\n      tag_40\n      tag_41\n      jump\t// in\n    tag_40:\n      mload(0x40)\n      tag_42\n      swap2\n      swap1\n      tag_43\n      jump\t// in\n    tag_42:\n      mload(0x40)\n      dup1\n      swap2\n      sub\n      swap1\n      return\n        /* \"tests/decompilert.sol\":898:917  uint256 public cost */\n    tag_5:\n      callvalue\n      dup1\n      iszero\n      tag_44\n      jumpi\n      0x00\n      dup1\n      revert\n    tag_44:\n      pop\n      tag_45\n      tag_46\n      jump\t// in\n    tag_45:\n      mload(0x40)\n      tag_47\n      swap2\n      swap1\n      tag_43\n      jump\t// in\n    tag_47:\n      mload(0x40)\n      dup1\n      swap2\n      sub\n      swap1\n      return\n        /* \"tests/decompilert.sol\":6275:6494  function exchangePoland(uint256 _exchangeAmount) public returns (uint256) {... */\n    tag_6:\n      callvalue\n      dup1\n      iszero\n      tag_48\n      jumpi\n      0x00\n      dup1\n      revert\n    tag_48:\n      pop\n      tag_49\n      0x04\n      dup1\n      calldatasize\n      sub\n      dup2\n      add\n      swap1\n      tag_50\n      swap2\n      swap1\n      tag_35\n      jump\t// in\n    tag_50:\n      tag_51\n      jump\t// in\n    tag_49:\n      mload(0x40)\n      tag_52\n      swap2\n      swap1\n      tag_43\n      jump\t// in\n    tag_52:\n      mload(0x40)\n      dup1\n      swap2\n      sub\n      swap1\n      return\n        /* \"tests/decompilert.sol\":2275:2746  function removeOwner(address _owner) public {... */\n    tag_7:\n      callvalue\n      dup1\n      iszero\n      tag_53\n      jumpi\n      0x00\n      dup1\n      revert\n    tag_53:\n      pop\n      tag_54\n      0x04\n      dup1\n      calldatasize\n      sub\n      dup2\n      add\n      swap1\n      tag_55\n      swap2\n      swap1\n      tag_56\n      jump\t// in\n    tag_55:\n      tag_57\n      jump\t// in\n    tag_54:\n      stop\n        /* \"tests/decompilert.sol\":4375:4823  function revokeConfirmation(uint _txIndex)... */\n    tag_8:\n      callvalue\n      dup1\n      iszero\n      tag_58\n      jumpi\n      0x00\n      dup1\n      revert\n    tag_58:\n      pop\n      tag_59\n      0x04\n      dup1\n      calldatasize\n      sub\n      dup2\n      add\n      swap1\n      tag_60\n      swap2\n      swap1\n      tag_35\n      jump\t// in\n    tag_60:\n      tag_61\n      jump\t// in\n    tag_59:\n      stop\n        /* \"tests/decompilert.sol\":4931:5034  function getTransactionCount() public view returns (uint) {... */\n    tag_9:\n      callvalue\n      dup1\n      iszero\n      tag_62\n      jumpi\n      0x00\n      dup1\n      revert\n    tag_62:\n      pop\n      tag_63\n      tag_64\n      jump\t// in\n    tag_63:\n      mload(0x40)\n      tag_65\n      swap2\n      swap1\n      tag_43\n      jump\t// in\n    tag_65:\n      mload(0x40)\n      dup1\n      swap2\n      sub\n      swap1\n      return\n        /* \"tests/decompilert.sol\":688:727  mapping(address => bool) public isOwner */\n    tag_10:\n      callvalue\n      dup1\n      iszero\n      tag_66\n      jumpi\n      0x00\n      dup1\n      revert\n    tag_66:\n      pop\n      tag_67\n      0x04\n      dup1\n      calldatasize\n      sub\n      dup2\n      add\n      swap1\n      tag_68\n      swap2\n      swap1\n      tag_56\n      jump\t// in\n    tag_68:\n      tag_69\n      jump\t// in\n    tag_67:\n      mload(0x40)\n      tag_70\n      swap2\n      swap1\n      tag_71\n      jump\t// in\n    tag_70:\n      mload(0x40)\n      dup1\n      swap2\n      sub\n      swap1\n      return\n        /* \"tests/decompilert.sol\":5042:5583  function getTransaction(... */\n    tag_11:\n      callvalue\n      dup1\n      iszero\n      tag_72\n      jumpi\n      0x00\n      dup1\n      revert\n    tag_72:\n      pop\n      tag_73\n      0x04\n      dup1\n      calldatasize\n      sub\n      dup2\n      add\n      swap1\n      tag_74\n      swap2\n      swap1\n      tag_35\n      jump\t// in\n    tag_74:\n      tag_75\n      jump\t// in\n    tag_73:\n      mload(0x40)\n      tag_76\n      swap6\n      swap5\n      swap4\n      swap3\n      swap2\n      swap1\n      tag_77\n      jump\t// in\n    tag_76:\n      mload(0x40)\n      dup1\n      swap2\n      sub\n      swap1\n      return\n        /* \"tests/decompilert.sol\":5591:5810  function exchangeLondon(uint256 _exchangeAmount) public returns (uint256) {... */\n    tag_12:\n      callvalue\n      dup1\n      iszero\n      tag_78\n      jumpi\n      0x00\n      dup1\n      revert\n    tag_78:\n      pop\n      tag_79\n      0x04\n      dup1\n      calldatasize\n      sub\n      dup2\n      add\n      swap1\n      tag_80\n      swap2\n      swap1\n      tag_35\n      jump\t// in\n    tag_80:\n      tag_81\n      jump\t// in\n    tag_79:\n      mload(0x40)\n      tag_82\n      swap2\n      swap1\n      tag_43\n      jump\t// in\n    tag_82:\n      mload(0x40)\n      dup1\n      swap2\n      sub\n      swap1\n      return\n        /* \"tests/decompilert.sol\":1914:2267  function addOwner(address _newOwner) public {... */\n    tag_13:\n      callvalue\n      dup1\n      iszero\n      tag_83\n      jumpi\n      0x00\n      dup1\n      revert\n    tag_83:\n      pop\n      tag_84\n      0x04\n      dup1\n      calldatasize\n      sub\n      dup2\n      add\n      swap1\n      tag_85\n      swap2\n      swap1\n      tag_56\n      jump\t// in\n    tag_85:\n      tag_86\n      jump\t// in\n    tag_84:\n      stop\n        /* \"tests/decompilert.sol\":1106:1166  mapping(uint => mapping(address => bool)) public isConfirmed */\n    tag_14:\n      callvalue\n      dup1\n      iszero\n      tag_87\n      jumpi\n      0x00\n      dup1\n      revert\n    tag_87:\n      pop\n      tag_88\n      0x04\n      dup1\n      calldatasize\n      sub\n      dup2\n      add\n      swap1\n      tag_89\n      swap2\n      swap1\n      tag_90\n      jump\t// in\n    tag_89:\n      tag_91\n      jump\t// in\n    tag_88:\n      mload(0x40)\n      tag_92\n      swap2\n      swap1\n      tag_71\n      jump\t// in\n    tag_92:\n      mload(0x40)\n      dup1\n      swap2\n      sub\n      swap1\n      return\n        /* \"tests/decompilert.sol\":6045:6267  function exchangeArgentina(uint256 _exchangeAmount) public returns (uint256) {... */\n    tag_15:\n      callvalue\n      dup1\n      iszero\n      tag_93\n      jumpi\n      0x00\n      dup1\n      revert\n    tag_93:\n      pop\n      tag_94\n      0x04\n      dup1\n      calldatasize\n      sub\n      dup2\n      add\n      swap1\n      tag_95\n      swap2\n      swap1\n      tag_35\n      jump\t// in\n    tag_95:\n      tag_96\n      jump\t// in\n    tag_94:\n      mload(0x40)\n      tag_97\n      swap2\n      swap1\n      tag_43\n      jump\t// in\n    tag_97:\n      mload(0x40)\n      dup1\n      swap2\n      sub\n      swap1\n      return\n        /* \"tests/decompilert.sol\":1173:1206  Transaction[] public transactions */\n    tag_16:\n      callvalue\n      dup1\n      iszero\n      tag_98\n      jumpi\n      0x00\n      dup1\n      revert\n    tag_98:\n      pop\n      tag_99\n      0x04\n      dup1\n      calldatasize\n      sub\n      dup2\n      add\n      swap1\n      tag_100\n      swap2\n      swap1\n      tag_35\n      jump\t// in\n    tag_100:\n      tag_101\n      jump\t// in\n    tag_99:\n      mload(0x40)\n      tag_102\n      swap6\n      swap5\n      swap4\n      swap3\n      swap2\n      swap1\n      tag_77\n      jump\t// in\n    tag_102:\n      mload(0x40)\n      dup1\n      swap2\n      sub\n      swap1\n      return\n        /* \"tests/decompilert.sol\":4831:4923  function getOwners() public view returns (address[] memory) {... */\n    tag_17:\n      callvalue\n      dup1\n      iszero\n      tag_103\n      jumpi\n      0x00\n      dup1\n      revert\n    tag_103:\n      pop\n      tag_104\n      tag_105\n      jump\t// in\n    tag_104:\n      mload(0x40)\n      tag_106\n      swap2\n      swap1\n      tag_107\n      jump\t// in\n    tag_106:\n      mload(0x40)\n      dup1\n      swap2\n      sub\n      swap1\n      return\n        /* \"tests/decompilert.sol\":3371:3773  function confirmTransaction(uint _txIndex)... */\n    tag_18:\n      callvalue\n      dup1\n      iszero\n      tag_108\n      jumpi\n      0x00\n      dup1\n      revert\n    tag_108:\n      pop\n      tag_109\n      0x04\n      dup1\n      calldatasize\n      sub\n      dup2\n      add\n      swap1\n      tag_110\n      swap2\n      swap1\n      tag_35\n      jump\t// in\n    tag_110:\n      tag_111\n      jump\t// in\n    tag_109:\n      stop\n        /* \"tests/decompilert.sol\":2866:3363  function submitTransaction(... */\n    tag_19:\n      callvalue\n      dup1\n      iszero\n      tag_112\n      jumpi\n      0x00\n      dup1\n      revert\n    tag_112:\n      pop\n      tag_113\n      0x04\n      dup1\n      calldatasize\n      sub\n      dup2\n      add\n      swap1\n      tag_114\n      swap2\n      swap1\n      tag_115\n      jump\t// in\n    tag_114:\n      tag_116\n      jump\t// in\n    tag_113:\n      stop\n        /* \"tests/decompilert.sol\":776:816  uint public numConfirmationsRequired = 2 */\n    tag_20:\n      callvalue\n      dup1\n      iszero\n      tag_117\n      jumpi\n      0x00\n      dup1\n      revert\n    tag_117:\n      pop\n      tag_118\n      tag_119\n      jump\t// in\n    tag_118:\n      mload(0x40)\n      tag_120\n      swap2\n      swap1\n      tag_43\n      jump\t// in\n    tag_120:\n      mload(0x40)\n      dup1\n      swap2\n      sub\n      swap1\n      return\n        /* \"tests/decompilert.sol\":3781:4367  function executeTransaction(uint _txIndex)... */\n    tag_21:\n      callvalue\n      dup1\n      iszero\n      tag_121\n      jumpi\n      0x00\n      dup1\n      revert\n    tag_121:\n      pop\n      tag_122\n      0x04\n      dup1\n      calldatasize\n      sub\n      dup2\n      add\n      swap1\n      tag_123\n      swap2\n      swap1\n      tag_35\n      jump\t// in\n    tag_123:\n      tag_124\n      jump\t// in\n    tag_122:\n      stop\n        /* \"tests/decompilert.sol\":862:891  uint256 public exchangeAmount */\n    tag_22:\n      callvalue\n      dup1\n      iszero\n      tag_125\n      jumpi\n      0x00\n      dup1\n      revert\n    tag_125:\n      pop\n      tag_126\n      tag_127\n      jump\t// in\n    tag_126:\n      mload(0x40)\n      tag_128\n      swap2\n      swap1\n      tag_43\n      jump\t// in\n    tag_128:\n      mload(0x40)\n      dup1\n      swap2\n      sub\n      swap1\n      return\n        /* \"tests/decompilert.sol\":5818:6037  function exchangeFrance(uint256 _exchangeAmount) public returns (uint256) {... */\n    tag_23:\n      callvalue\n      dup1\n      iszero\n      tag_129\n      jumpi\n      0x00\n      dup1\n      revert\n    tag_129:\n      pop\n      tag_130\n      0x04\n      dup1\n      calldatasize\n      sub\n      dup2\n      add\n      swap1\n      tag_131\n      swap2\n      swap1\n      tag_35\n      jump\t// in\n    tag_131:\n      tag_132\n      jump\t// in\n    tag_130:\n      mload(0x40)\n      tag_133\n      swap2\n      swap1\n      tag_43\n      jump\t// in\n    tag_133:\n      mload(0x40)\n      dup1\n      swap2\n      sub\n      swap1\n      return\n        /* \"tests/decompilert.sol\":6502:6656  function getFlag() public view returns (string memory) {... */\n    tag_24:\n      callvalue\n      dup1\n      iszero\n      tag_134\n      jumpi\n      0x00\n      dup1\n      revert\n    tag_134:\n      pop\n      tag_135\n      tag_136\n      jump\t// in\n    tag_135:\n      mload(0x40)\n      tag_137\n      swap2\n      swap1\n      tag_138\n      jump\t// in\n    tag_137:\n      mload(0x40)\n      dup1\n      swap2\n      sub\n      swap1\n      return\n        /* \"tests/decompilert.sol\":658:681  address[] public owners */\n    tag_36:\n      0x00\n      dup2\n      dup2\n      sload\n      dup2\n      lt\n      tag_139\n      jumpi\n      0x00\n      dup1\n      revert\n    tag_139:\n      swap1\n      0x00\n      mstore\n      keccak256(0x00, 0x20)\n      add\n      0x00\n      swap2\n      pop\n      sload\n      swap1\n      0x0100\n      exp\n      swap1\n      div\n      0xffffffffffffffffffffffffffffffffffffffff\n      and\n      dup2\n      jump\t// out\n        /* \"tests/decompilert.sol\":734:769  uint public constant MAX_OWNERS = 3 */\n    tag_41:\n        /* \"tests/decompilert.sol\":768:769  3 */\n      0x03\n        /* \"tests/decompilert.sol\":734:769  uint public constant MAX_OWNERS = 3 */\n      dup2\n      jump\t// out\n        /* \"tests/decompilert.sol\":898:917  uint256 public cost */\n    tag_46:\n      sload(0x05)\n      dup2\n      jump\t// out\n        /* \"tests/decompilert.sol\":6275:6494  function exchangePoland(uint256 _exchangeAmount) public returns (uint256) {... */\n    tag_51:\n        /* \"tests/decompilert.sol\":6340:6347  uint256 */\n      0x00\n        /* \"tests/decompilert.sol\":6391:6392  4 */\n      0x04\n        /* \"tests/decompilert.sol\":6386:6387  4 */\n      dup1\n        /* \"tests/decompilert.sol\":6368:6383  _exchangeAmount */\n      dup4\n        /* \"tests/decompilert.sol\":6368:6387  _exchangeAmount / 4 */\n      tag_142\n      swap2\n      swap1\n      tag_143\n      jump\t// in\n    tag_142:\n        /* \"tests/decompilert.sol\":6367:6392  (_exchangeAmount / 4) * 4 */\n      tag_144\n      swap2\n      swap1\n      tag_145\n      jump\t// in\n    tag_144:\n        /* \"tests/decompilert.sol\":6360:6364  cost */\n      0x05\n        /* \"tests/decompilert.sol\":6360:6392  cost = (_exchangeAmount / 4) * 4 */\n      dup2\n      swap1\n      sstore\n      pop\n        /* \"tests/decompilert.sol\":6411:6421  commission */\n      sload(0x03)\n        /* \"tests/decompilert.sol\":6403:6407  cost */\n      0x05\n      0x00\n        /* \"tests/decompilert.sol\":6403:6421  cost += commission */\n      dup3\n      dup3\n      sload\n      tag_146\n      swap2\n      swap1\n      tag_147\n      jump\t// in\n    tag_146:\n      swap3\n      pop\n      pop\n      dup2\n      swap1\n      sstore\n      pop\n        /* \"tests/decompilert.sol\":6449:6464  _exchangeAmount */\n      dup2\n        /* \"tests/decompilert.sol\":6432:6446  exchangeAmount */\n      0x04\n        /* \"tests/decompilert.sol\":6432:6464  exchangeAmount = _exchangeAmount */\n      dup2\n      swap1\n      sstore\n      pop\n        /* \"tests/decompilert.sol\":6482:6486  cost */\n      sload(0x05)\n        /* \"tests/decompilert.sol\":6475:6486  return cost */\n      swap1\n      pop\n        /* \"tests/decompilert.sol\":6275:6494  function exchangePoland(uint256 _exchangeAmount) public returns (uint256) {... */\n      swap2\n      swap1\n      pop\n      jump\t// out\n        /* \"tests/decompilert.sol\":2275:2746  function removeOwner(address _owner) public {... */\n    tag_57:\n        /* \"tests/decompilert.sol\":2338:2345  isOwner */\n      0x01\n        /* \"tests/decompilert.sol\":2338:2353  isOwner[_owner] */\n      0x00\n        /* \"tests/decompilert.sol\":2346:2352  _owner */\n      dup3\n        /* \"tests/decompilert.sol\":2338:2353  isOwner[_owner] */\n      0xffffffffffffffffffffffffffffffffffffffff\n      and\n      0xffffffffffffffffffffffffffffffffffffffff\n      and\n      dup2\n      mstore\n      0x20\n      add\n      swap1\n      dup2\n      mstore\n      0x20\n      add\n      0x00\n      keccak256\n      0x00\n      swap1\n      sload\n      swap1\n      0x0100\n      exp\n      swap1\n      div\n      0xff\n      and\n        /* \"tests/decompilert.sol\":2330:2370  require(isOwner[_owner], \"not an owner\") */\n      tag_149\n      jumpi\n      mload(0x40)\n      0x08c379a000000000000000000000000000000000000000000000000000000000\n      dup2\n      mstore\n      0x04\n      add\n      tag_150\n      swap1\n      tag_151\n      jump\t// in\n    tag_150:\n      mload(0x40)\n      dup1\n      swap2\n      sub\n      swap1\n      revert\n    tag_149:\n        /* \"tests/decompilert.sol\":2405:2406  1 */\n      0x01\n        /* \"tests/decompilert.sol\":2389:2395  owners */\n      0x00\n        /* \"tests/decompilert.sol\":2389:2402  owners.length */\n      dup1\n      sload\n      swap1\n      pop\n        /* \"tests/decompilert.sol\":2389:2406  owners.length > 1 */\n      gt\n        /* \"tests/decompilert.sol\":2381:2435  require(owners.length > 1, \"cannot remove last owner\") */\n      tag_152\n      jumpi\n      mload(0x40)\n      0x08c379a000000000000000000000000000000000000000000000000000000000\n      dup2\n      mstore\n      0x04\n      add\n      tag_153\n      swap1\n      tag_154\n      jump\t// in\n    tag_153:\n      mload(0x40)\n      dup1\n      swap2\n      sub\n      swap1\n      revert\n    tag_152:\n        /* \"tests/decompilert.sol\":2466:2471  false */\n      0x00\n        /* \"tests/decompilert.sol\":2448:2455  isOwner */\n      0x01\n        /* \"tests/decompilert.sol\":2448:2463  isOwner[_owner] */\n      0x00\n        /* \"tests/decompilert.sol\":2456:2462  _owner */\n      dup4\n        /* \"tests/decompilert.sol\":2448:2463  isOwner[_owner] */\n      0xffffffffffffffffffffffffffffffffffffffff\n      and\n      0xffffffffffffffffffffffffffffffffffffffff\n      and\n      dup2\n      mstore\n      0x20\n      add\n      swap1\n      dup2\n      mstore\n      0x20\n      add\n      0x00\n      keccak256\n      0x00\n        /* \"tests/decompilert.sol\":2448:2471  isOwner[_owner] = false */\n      0x0100\n      exp\n      dup2\n      sload\n      dup2\n      0xff\n      mul\n      not\n      and\n      swap1\n      dup4\n      iszero\n      iszero\n      mul\n      or\n      swap1\n      sstore\n      pop\n        /* \"tests/decompilert.sol\":2487:2493  uint i */\n      0x00\n        /* \"tests/decompilert.sol\":2482:2701  for (uint i = 0; i < owners.length; i++) {... */\n    tag_155:\n        /* \"tests/decompilert.sol\":2503:2509  owners */\n      0x00\n        /* \"tests/decompilert.sol\":2503:2516  owners.length */\n      dup1\n      sload\n      swap1\n      pop\n        /* \"tests/decompilert.sol\":2499:2500  i */\n      dup2\n        /* \"tests/decompilert.sol\":2499:2516  i < owners.length */\n      lt\n        /* \"tests/decompilert.sol\":2482:2701  for (uint i = 0; i < owners.length; i++) {... */\n      iszero\n      tag_156\n      jumpi\n        /* \"tests/decompilert.sol\":2555:2561  _owner */\n      dup2\n        /* \"tests/decompilert.sol\":2542:2561  owners[i] == _owner */\n      0xffffffffffffffffffffffffffffffffffffffff\n      and\n        /* \"tests/decompilert.sol\":2542:2548  owners */\n      0x00\n        /* \"tests/decompilert.sol\":2549:2550  i */\n      dup3\n        /* \"tests/decompilert.sol\":2542:2551  owners[i] */\n      dup2\n      sload\n      dup2\n      lt\n      tag_158\n      jumpi\n      tag_159\n      tag_160\n      jump\t// in\n    tag_159:\n    tag_158:\n      swap1\n      0x00\n      mstore\n      keccak256(0x00, 0x20)\n      add\n      0x00\n      swap1\n      sload\n      swap1\n      0x0100\n      exp\n      swap1\n      div\n      0xffffffffffffffffffffffffffffffffffffffff\n      and\n        /* \"tests/decompilert.sol\":2542:2561  owners[i] == _owner */\n      0xffffffffffffffffffffffffffffffffffffffff\n      and\n      sub\n        /* \"tests/decompilert.sol\":2538:2690  if (owners[i] == _owner) {... */\n      tag_162\n      jumpi\n        /* \"tests/decompilert.sol\":2594:2600  owners */\n      0x00\n        /* \"tests/decompilert.sol\":2617:2618  1 */\n      0x01\n        /* \"tests/decompilert.sol\":2601:2607  owners */\n      0x00\n        /* \"tests/decompilert.sol\":2601:2614  owners.length */\n      dup1\n      sload\n      swap1\n      pop\n        /* \"tests/decompilert.sol\":2601:2618  owners.length - 1 */\n      tag_163\n      swap2\n      swap1\n      tag_164\n      jump\t// in\n    tag_163:\n        /* \"tests/decompilert.sol\":2594:2619  owners[owners.length - 1] */\n      dup2\n      sload\n      dup2\n      lt\n      tag_165\n      jumpi\n      tag_166\n      tag_160\n      jump\t// in\n    tag_166:\n    tag_165:\n      swap1\n      0x00\n      mstore\n      keccak256(0x00, 0x20)\n      add\n      0x00\n      swap1\n      sload\n      swap1\n      0x0100\n      exp\n      swap1\n      div\n      0xffffffffffffffffffffffffffffffffffffffff\n      and\n        /* \"tests/decompilert.sol\":2582:2588  owners */\n      0x00\n        /* \"tests/decompilert.sol\":2589:2590  i */\n      dup3\n        /* \"tests/decompilert.sol\":2582:2591  owners[i] */\n      dup2\n      sload\n      dup2\n      lt\n      tag_168\n      jumpi\n      tag_169\n      tag_160\n      jump\t// in\n    tag_169:\n    tag_168:\n      swap1\n      0x00\n      mstore\n      keccak256(0x00, 0x20)\n      add\n      0x00\n        /* \"tests/decompilert.sol\":2582:2619  owners[i] = owners[owners.length - 1] */\n      0x0100\n      exp\n      dup2\n      sload\n      dup2\n      0xffffffffffffffffffffffffffffffffffffffff\n      mul\n      not\n      and\n      swap1\n      dup4\n      0xffffffffffffffffffffffffffffffffffffffff\n      and\n      mul\n      or\n      swap1\n      sstore\n      pop\n        /* \"tests/decompilert.sol\":2638:2644  owners */\n      0x00\n        /* \"tests/decompilert.sol\":2638:2650  owners.pop() */\n      dup1\n      sload\n      dup1\n      tag_171\n      jumpi\n      tag_172\n      tag_173\n      jump\t// in\n    tag_172:\n    tag_171:\n      0x01\n      swap1\n      sub\n      dup2\n      dup2\n      swap1\n      0x00\n      mstore\n      keccak256(0x00, 0x20)\n      add\n      exp(0x0100, 0x00)\n      dup2\n      sload\n      swap1\n      0xffffffffffffffffffffffffffffffffffffffff\n      mul\n      not\n      and\n      swap1\n      sstore\n      swap1\n      sstore\n        /* \"tests/decompilert.sol\":2669:2674  break */\n      jump(tag_156)\n        /* \"tests/decompilert.sol\":2538:2690  if (owners[i] == _owner) {... */\n    tag_162:\n        /* \"tests/decompilert.sol\":2518:2521  i++ */\n      dup1\n      dup1\n      0x01\n      add\n      swap2\n      pop\n      pop\n        /* \"tests/decompilert.sol\":2482:2701  for (uint i = 0; i < owners.length; i++) {... */\n      jump(tag_155)\n    tag_156:\n      pop\n        /* \"tests/decompilert.sol\":2731:2737  _owner */\n      dup1\n        /* \"tests/decompilert.sol\":2718:2738  OwnerRemoved(_owner) */\n      0xffffffffffffffffffffffffffffffffffffffff\n      and\n      0x58619076adf5bb0943d100ef88d52d7c3fd691b19d3a9071b555b651fbf418da\n      mload(0x40)\n      mload(0x40)\n      dup1\n      swap2\n      sub\n      swap1\n      log2\n        /* \"tests/decompilert.sol\":2275:2746  function removeOwner(address _owner) public {... */\n      pop\n      jump\t// out\n        /* \"tests/decompilert.sol\":4375:4823  function revokeConfirmation(uint _txIndex)... */\n    tag_61:\n        /* \"tests/decompilert.sol\":1255:1262  isOwner */\n      0x01\n        /* \"tests/decompilert.sol\":1255:1274  isOwner[msg.sender] */\n      0x00\n        /* \"tests/decompilert.sol\":1263:1273  msg.sender */\n      caller\n        /* \"tests/decompilert.sol\":1255:1274  isOwner[msg.sender] */\n      0xffffffffffffffffffffffffffffffffffffffff\n      and\n      0xffffffffffffffffffffffffffffffffffffffff\n      and\n      dup2\n      mstore\n      0x20\n      add\n      swap1\n      dup2\n      mstore\n      0x20\n      add\n      0x00\n      keccak256\n      0x00\n      swap1\n      sload\n      swap1\n      0x0100\n      exp\n      swap1\n      div\n      0xff\n      and\n        /* \"tests/decompilert.sol\":1247:1288  require(isOwner[msg.sender], \"not owner\") */\n      tag_176\n      jumpi\n      mload(0x40)\n      0x08c379a000000000000000000000000000000000000000000000000000000000\n      dup2\n      mstore\n      0x04\n      add\n      tag_177\n      swap1\n      tag_178\n      jump\t// in\n    tag_177:\n      mload(0x40)\n      dup1\n      swap2\n      sub\n      swap1\n      revert\n    tag_176:\n        /* \"tests/decompilert.sol\":4471:4479  _txIndex */\n      dup1\n        /* \"tests/decompilert.sol\":1379:1391  transactions */\n      0x08\n        /* \"tests/decompilert.sol\":1379:1398  transactions.length */\n      dup1\n      sload\n      swap1\n      pop\n        /* \"tests/decompilert.sol\":1368:1376  _txIndex */\n      dup2\n        /* \"tests/decompilert.sol\":1368:1398  _txIndex < transactions.length */\n      lt\n        /* \"tests/decompilert.sol\":1360:1420  require(_txIndex < transactions.length, \"tx does not exist\") */\n      tag_180\n      jumpi\n      mload(0x40)\n      0x08c379a000000000000000000000000000000000000000000000000000000000\n      dup2\n      mstore\n      0x04\n      add\n      tag_181\n      swap1\n      tag_182\n      jump\t// in\n    tag_181:\n      mload(0x40)\n      dup1\n      swap2\n      sub\n      swap1\n      revert\n    tag_180:\n        /* \"tests/decompilert.sol\":4502:4510  _txIndex */\n      dup2\n        /* \"tests/decompilert.sol\":1504:1516  transactions */\n      0x08\n        /* \"tests/decompilert.sol\":1517:1525  _txIndex */\n      dup2\n        /* \"tests/decompilert.sol\":1504:1526  transactions[_txIndex] */\n      dup2\n      sload\n      dup2\n      lt\n      tag_184\n      jumpi\n      tag_185\n      tag_160\n      jump\t// in\n    tag_185:\n    tag_184:\n      swap1\n      0x00\n      mstore\n      keccak256(0x00, 0x20)\n      swap1\n      0x05\n      mul\n      add\n        /* \"tests/decompilert.sol\":1504:1535  transactions[_txIndex].executed */\n      0x03\n      add\n      0x00\n      swap1\n      sload\n      swap1\n      0x0100\n      exp\n      swap1\n      div\n      0xff\n      and\n        /* \"tests/decompilert.sol\":1503:1535  !transactions[_txIndex].executed */\n      iszero\n        /* \"tests/decompilert.sol\":1495:1559  require(!transactions[_txIndex].executed, \"tx already executed\") */\n      tag_187\n      jumpi\n      mload(0x40)\n      0x08c379a000000000000000000000000000000000000000000000000000000000\n      dup2\n      mstore\n      0x04\n      add\n      tag_188\n      swap1\n      tag_189\n      jump\t// in\n    tag_188:\n      mload(0x40)\n      dup1\n      swap2\n      sub\n      swap1\n      revert\n    tag_187:\n        /* \"tests/decompilert.sol\":4528:4559  Transaction storage transaction */\n      0x00\n        /* \"tests/decompilert.sol\":4562:4574  transactions */\n      0x08\n        /* \"tests/decompilert.sol\":4575:4583  _txIndex */\n      dup5\n        /* \"tests/decompilert.sol\":4562:4584  transactions[_txIndex] */\n      dup2\n      sload\n      dup2\n      lt\n      tag_191\n      jumpi\n      tag_192\n      tag_160\n      jump\t// in\n    tag_192:\n    tag_191:\n      swap1\n      0x00\n      mstore\n      keccak256(0x00, 0x20)\n      swap1\n      0x05\n      mul\n      add\n        /* \"tests/decompilert.sol\":4528:4584  Transaction storage transaction = transactions[_txIndex] */\n      swap1\n      pop\n        /* \"tests/decompilert.sol\":4605:4616  isConfirmed */\n      0x07\n        /* \"tests/decompilert.sol\":4605:4626  isConfirmed[_txIndex] */\n      0x00\n        /* \"tests/decompilert.sol\":4617:4625  _txIndex */\n      dup6\n        /* \"tests/decompilert.sol\":4605:4626  isConfirmed[_txIndex] */\n      dup2\n      mstore\n      0x20\n      add\n      swap1\n      dup2\n      mstore\n      0x20\n      add\n      0x00\n      keccak256\n        /* \"tests/decompilert.sol\":4605:4638  isConfirmed[_txIndex][msg.sender] */\n      0x00\n        /* \"tests/decompilert.sol\":4627:4637  msg.sender */\n      caller\n        /* \"tests/decompilert.sol\":4605:4638  isConfirmed[_txIndex][msg.sender] */\n      0xffffffffffffffffffffffffffffffffffffffff\n      and\n      0xffffffffffffffffffffffffffffffffffffffff\n      and\n      dup2\n      mstore\n      0x20\n      add\n      swap1\n      dup2\n      mstore\n      0x20\n      add\n      0x00\n      keccak256\n      0x00\n      swap1\n      sload\n      swap1\n      0x0100\n      exp\n      swap1\n      div\n      0xff\n      and\n        /* \"tests/decompilert.sol\":4597:4659  require(isConfirmed[_txIndex][msg.sender], \"tx not confirmed\") */\n      tag_194\n      jumpi\n      mload(0x40)\n      0x08c379a000000000000000000000000000000000000000000000000000000000\n      dup2\n      mstore\n      0x04\n      add\n      tag_195\n      swap1\n      tag_196\n      jump\t// in\n    tag_195:\n      mload(0x40)\n      dup1\n      swap2\n      sub\n      swap1\n      revert\n    tag_194:\n        /* \"tests/decompilert.sol\":4704:4705  1 */\n      0x01\n        /* \"tests/decompilert.sol\":4672:4683  transaction */\n      dup2\n        /* \"tests/decompilert.sol\":4672:4700  transaction.numConfirmations */\n      0x04\n      add\n      0x00\n        /* \"tests/decompilert.sol\":4672:4705  transaction.numConfirmations -= 1 */\n      dup3\n      dup3\n      sload\n      tag_197\n      swap2\n      swap1\n      tag_164\n      jump\t// in\n    tag_197:\n      swap3\n      pop\n      pop\n      dup2\n      swap1\n      sstore\n      pop\n        /* \"tests/decompilert.sol\":4752:4757  false */\n      0x00\n        /* \"tests/decompilert.sol\":4716:4727  isConfirmed */\n      0x07\n        /* \"tests/decompilert.sol\":4716:4737  isConfirmed[_txIndex] */\n      0x00\n        /* \"tests/decompilert.sol\":4728:4736  _txIndex */\n      dup7\n        /* \"tests/decompilert.sol\":4716:4737  isConfirmed[_txIndex] */\n      dup2\n      mstore\n      0x20\n      add\n      swap1\n      dup2\n      mstore\n      0x20\n      add\n      0x00\n      keccak256\n        /* \"tests/decompilert.sol\":4716:4749  isConfirmed[_txIndex][msg.sender] */\n      0x00\n        /* \"tests/decompilert.sol\":4738:4748  msg.sender */\n      caller\n        /* \"tests/decompilert.sol\":4716:4749  isConfirmed[_txIndex][msg.sender] */\n      0xffffffffffffffffffffffffffffffffffffffff\n      and\n      0xffffffffffffffffffffffffffffffffffffffff\n      and\n      dup2\n      mstore\n      0x20\n      add\n      swap1\n      dup2\n      mstore\n      0x20\n      add\n      0x00\n      keccak256\n      0x00\n        /* \"tests/decompilert.sol\":4716:4757  isConfirmed[_txIndex][msg.sender] = false */\n      0x0100\n      exp\n      dup2\n      sload\n      dup2\n      0xff\n      mul\n      not\n      and\n      swap1\n      dup4\n      iszero\n      iszero\n      mul\n      or\n      swap1\n      sstore\n      pop\n        /* \"tests/decompilert.sol\":4806:4814  _txIndex */\n      dup4\n        /* \"tests/decompilert.sol\":4794:4804  msg.sender */\n      caller\n        /* \"tests/decompilert.sol\":4775:4815  RevokeConfirmation(msg.sender, _txIndex) */\n      0xffffffffffffffffffffffffffffffffffffffff\n      and\n      0xf0dca620e2e81f7841d07bcc105e1704fb01475b278a9d4c236e1c62945edd55\n      mload(0x40)\n      mload(0x40)\n      dup1\n      swap2\n      sub\n      swap1\n      log3\n        /* \"tests/decompilert.sol\":4517:4823  {... */\n      pop\n        /* \"tests/decompilert.sol\":1431:1432  _ */\n      pop\n        /* \"tests/decompilert.sol\":1299:1300  _ */\n      pop\n        /* \"tests/decompilert.sol\":4375:4823  function revokeConfirmation(uint _txIndex)... */\n      pop\n      jump\t// out\n        /* \"tests/decompilert.sol\":4931:5034  function getTransactionCount() public view returns (uint) {... */\n    tag_64:\n        /* \"tests/decompilert.sol\":4983:4987  uint */\n      0x00\n        /* \"tests/decompilert.sol\":5007:5019  transactions */\n      0x08\n        /* \"tests/decompilert.sol\":5007:5026  transactions.length */\n      dup1\n      sload\n      swap1\n      pop\n        /* \"tests/decompilert.sol\":5000:5026  return transactions.length */\n      swap1\n      pop\n        /* \"tests/decompilert.sol\":4931:5034  function getTransactionCount() public view returns (uint) {... */\n      swap1\n      jump\t// out\n        /* \"tests/decompilert.sol\":688:727  mapping(address => bool) public isOwner */\n    tag_69:\n      mstore(0x20, 0x01)\n      dup1\n      0x00\n      mstore\n      keccak256(0x00, 0x40)\n      0x00\n      swap2\n      pop\n      sload\n      swap1\n      0x0100\n      exp\n      swap1\n      div\n      0xff\n      and\n      dup2\n      jump\t// out\n        /* \"tests/decompilert.sol\":5042:5583  function getTransaction(... */\n    tag_75:\n        /* \"tests/decompilert.sol\":5159:5169  address to */\n      0x00\n        /* \"tests/decompilert.sol\":5184:5194  uint value */\n      dup1\n        /* \"tests/decompilert.sol\":5209:5226  bytes memory data */\n      0x60\n        /* \"tests/decompilert.sol\":5241:5254  bool executed */\n      0x00\n        /* \"tests/decompilert.sol\":5269:5290  uint numConfirmations */\n      dup1\n        /* \"tests/decompilert.sol\":5318:5349  Transaction storage transaction */\n      0x00\n        /* \"tests/decompilert.sol\":5352:5364  transactions */\n      0x08\n        /* \"tests/decompilert.sol\":5365:5373  _txIndex */\n      dup8\n        /* \"tests/decompilert.sol\":5352:5374  transactions[_txIndex] */\n      dup2\n      sload\n      dup2\n      lt\n      tag_200\n      jumpi\n      tag_201\n      tag_160\n      jump\t// in\n    tag_201:\n    tag_200:\n      swap1\n      0x00\n      mstore\n      keccak256(0x00, 0x20)\n      swap1\n      0x05\n      mul\n      add\n        /* \"tests/decompilert.sol\":5318:5374  Transaction storage transaction = transactions[_txIndex] */\n      swap1\n      pop\n        /* \"tests/decompilert.sol\":5409:5420  transaction */\n      dup1\n        /* \"tests/decompilert.sol\":5409:5423  transaction.to */\n      0x00\n      add\n      0x00\n      swap1\n      sload\n      swap1\n      0x0100\n      exp\n      swap1\n      div\n      0xffffffffffffffffffffffffffffffffffffffff\n      and\n        /* \"tests/decompilert.sol\":5438:5449  transaction */\n      dup2\n        /* \"tests/decompilert.sol\":5438:5455  transaction.value */\n      0x01\n      add\n      sload\n        /* \"tests/decompilert.sol\":5470:5481  transaction */\n      dup3\n        /* \"tests/decompilert.sol\":5470:5486  transaction.data */\n      0x02\n      add\n        /* \"tests/decompilert.sol\":5501:5512  transaction */\n      dup4\n        /* \"tests/decompilert.sol\":5501:5521  transaction.executed */\n      0x03\n      add\n      0x00\n      swap1\n      sload\n      swap1\n      0x0100\n      exp\n      swap1\n      div\n      0xff\n      and\n        /* \"tests/decompilert.sol\":5536:5547  transaction */\n      dup5\n        /* \"tests/decompilert.sol\":5536:5564  transaction.numConfirmations */\n      0x04\n      add\n      sload\n        /* \"tests/decompilert.sol\":5387:5575  return (... */\n      dup3\n      dup1\n      sload\n      tag_203\n      swap1\n      tag_204\n      jump\t// in\n    tag_203:\n      dup1\n      0x1f\n      add\n      0x20\n      dup1\n      swap2\n      div\n      mul\n      0x20\n      add\n      mload(0x40)\n      swap1\n      dup2\n      add\n      0x40\n      mstore\n      dup1\n      swap3\n      swap2\n      swap1\n      dup2\n      dup2\n      mstore\n      0x20\n      add\n      dup3\n      dup1\n      sload\n      tag_205\n      swap1\n      tag_204\n      jump\t// in\n    tag_205:\n      dup1\n      iszero\n      tag_206\n      jumpi\n      dup1\n      0x1f\n      lt\n      tag_207\n      jumpi\n      0x0100\n      dup1\n      dup4\n      sload\n      div\n      mul\n      dup4\n      mstore\n      swap2\n      0x20\n      add\n      swap2\n      jump(tag_206)\n    tag_207:\n      dup3\n      add\n      swap2\n      swap1\n      0x00\n      mstore\n      keccak256(0x00, 0x20)\n      swap1\n    tag_208:\n      dup2\n      sload\n      dup2\n      mstore\n      swap1\n      0x01\n      add\n      swap1\n      0x20\n      add\n      dup1\n      dup4\n      gt\n      tag_208\n      jumpi\n      dup3\n      swap1\n      sub\n      0x1f\n      and\n      dup3\n      add\n      swap2\n    tag_206:\n      pop\n      pop\n      pop\n      pop\n      pop\n      swap3\n      pop\n      swap6\n      pop\n      swap6\n      pop\n      swap6\n      pop\n      swap6\n      pop\n      swap6\n      pop\n      pop\n        /* \"tests/decompilert.sol\":5042:5583  function getTransaction(... */\n      swap2\n      swap4\n      swap6\n      swap1\n      swap3\n      swap5\n      pop\n      jump\t// out\n        /* \"tests/decompilert.sol\":5591:5810  function exchangeLondon(uint256 _exchangeAmount) public returns (uint256) {... */\n    tag_81:\n        /* \"tests/decompilert.sol\":5656:5663  uint256 */\n      0x00\n        /* \"tests/decompilert.sol\":5707:5708  4 */\n      0x04\n        /* \"tests/decompilert.sol\":5702:5703  4 */\n      dup1\n        /* \"tests/decompilert.sol\":5684:5699  _exchangeAmount */\n      dup4\n        /* \"tests/decompilert.sol\":5684:5703  _exchangeAmount + 4 */\n      tag_210\n      swap2\n      swap1\n      tag_147\n      jump\t// in\n    tag_210:\n        /* \"tests/decompilert.sol\":5683:5708  (_exchangeAmount + 4) - 4 */\n      tag_211\n      swap2\n      swap1\n      tag_164\n      jump\t// in\n    tag_211:\n        /* \"tests/decompilert.sol\":5676:5680  cost */\n      0x05\n        /* \"tests/decompilert.sol\":5676:5708  cost = (_exchangeAmount + 4) - 4 */\n      dup2\n      swap1\n      sstore\n      pop\n        /* \"tests/decompilert.sol\":5727:5737  commission */\n      sload(0x03)\n        /* \"tests/decompilert.sol\":5719:5723  cost */\n      0x05\n      0x00\n        /* \"tests/decompilert.sol\":5719:5737  cost += commission */\n      dup3\n      dup3\n      sload\n      tag_212\n      swap2\n      swap1\n      tag_147\n      jump\t// in\n    tag_212:\n      swap3\n      pop\n      pop\n      dup2\n      swap1\n      sstore\n      pop\n        /* \"tests/decompilert.sol\":5765:5780  _exchangeAmount */\n      dup2\n        /* \"tests/decompilert.sol\":5748:5762  exchangeAmount */\n      0x04\n        /* \"tests/decompilert.sol\":5748:5780  exchangeAmount = _exchangeAmount */\n      dup2\n      swap1\n      sstore\n      pop\n        /* \"tests/decompilert.sol\":5798:5802  cost */\n      sload(0x05)\n        /* \"tests/decompilert.sol\":5791:5802  return cost */\n      swap1\n      pop\n        /* \"tests/decompilert.sol\":5591:5810  function exchangeLondon(uint256 _exchangeAmount) public returns (uint256) {... */\n      swap2\n      swap1\n      pop\n      jump\t// out\n        /* \"tests/decompilert.sol\":1914:2267  function addOwner(address _newOwner) public {... */\n    tag_86:\n        /* \"tests/decompilert.sol\":1998:1999  0 */\n      0x00\n        /* \"tests/decompilert.sol\":1977:2000  _newOwner != address(0) */\n      0xffffffffffffffffffffffffffffffffffffffff\n      and\n        /* \"tests/decompilert.sol\":1977:1986  _newOwner */\n      dup2\n        /* \"tests/decompilert.sol\":1977:2000  _newOwner != address(0) */\n      0xffffffffffffffffffffffffffffffffffffffff\n      and\n      sub\n        /* \"tests/decompilert.sol\":1969:2018  require(_newOwner != address(0), \"invalid owner\") */\n      tag_214\n      jumpi\n      mload(0x40)\n      0x08c379a000000000000000000000000000000000000000000000000000000000\n      dup2\n      mstore\n      0x04\n      add\n      tag_215\n      swap1\n      tag_216\n      jump\t// in\n    tag_215:\n      mload(0x40)\n      dup1\n      swap2\n      sub\n      swap1\n      revert\n    tag_214:\n        /* \"tests/decompilert.sol\":2038:2045  isOwner */\n      0x01\n        /* \"tests/decompilert.sol\":2038:2056  isOwner[_newOwner] */\n      0x00\n        /* \"tests/decompilert.sol\":2046:2055  _newOwner */\n      dup3\n        /* \"tests/decompilert.sol\":2038:2056  isOwner[_newOwner] */\n      0xffffffffffffffffffffffffffffffffffffffff\n      and\n      0xffffffffffffffffffffffffffffffffffffffff\n      and\n      dup2\n      mstore\n      0x20\n      add\n      swap1\n      dup2\n      mstore\n      0x20\n      add\n      0x00\n      keccak256\n      0x00\n      swap1\n      sload\n      swap1\n      0x0100\n      exp\n      swap1\n      div\n      0xff\n      and\n        /* \"tests/decompilert.sol\":2037:2056  !isOwner[_newOwner] */\n      iszero\n        /* \"tests/decompilert.sol\":2029:2081  require(!isOwner[_newOwner], \"owner already exists\") */\n      tag_217\n      jumpi\n      mload(0x40)\n      0x08c379a000000000000000000000000000000000000000000000000000000000\n      dup2\n      mstore\n      0x04\n      add\n      tag_218\n      swap1\n      tag_219\n      jump\t// in\n    tag_218:\n      mload(0x40)\n      dup1\n      swap2\n      sub\n      swap1\n      revert\n    tag_217:\n        /* \"tests/decompilert.sol\":768:769  3 */\n      0x03\n        /* \"tests/decompilert.sol\":2100:2106  owners */\n      0x00\n        /* \"tests/decompilert.sol\":2100:2113  owners.length */\n      dup1\n      sload\n      swap1\n      pop\n        /* \"tests/decompilert.sol\":2100:2126  owners.length < MAX_OWNERS */\n      lt\n        /* \"tests/decompilert.sol\":2092:2149  require(owners.length < MAX_OWNERS, \"max owners reached\") */\n      tag_220\n      jumpi\n      mload(0x40)\n      0x08c379a000000000000000000000000000000000000000000000000000000000\n      dup2\n      mstore\n      0x04\n      add\n      tag_221\n      swap1\n      tag_222\n      jump\t// in\n    tag_221:\n      mload(0x40)\n      dup1\n      swap2\n      sub\n      swap1\n      revert\n    tag_220:\n        /* \"tests/decompilert.sol\":2183:2187  true */\n      0x01\n        /* \"tests/decompilert.sol\":2162:2169  isOwner */\n      dup1\n        /* \"tests/decompilert.sol\":2162:2180  isOwner[_newOwner] */\n      0x00\n        /* \"tests/decompilert.sol\":2170:2179  _newOwner */\n      dup4\n        /* \"tests/decompilert.sol\":2162:2180  isOwner[_newOwner] */\n      0xffffffffffffffffffffffffffffffffffffffff\n      and\n      0xffffffffffffffffffffffffffffffffffffffff\n      and\n      dup2\n      mstore\n      0x20\n      add\n      swap1\n      dup2\n      mstore\n      0x20\n      add\n      0x00\n      keccak256\n      0x00\n        /* \"tests/decompilert.sol\":2162:2187  isOwner[_newOwner] = true */\n      0x0100\n      exp\n      dup2\n      sload\n      dup2\n      0xff\n      mul\n      not\n      and\n      swap1\n      dup4\n      iszero\n      iszero\n      mul\n      or\n      swap1\n      sstore\n      pop\n        /* \"tests/decompilert.sol\":2198:2204  owners */\n      0x00\n        /* \"tests/decompilert.sol\":2210:2219  _newOwner */\n      dup2\n        /* \"tests/decompilert.sol\":2198:2220  owners.push(_newOwner) */\n      swap1\n      dup1\n      0x01\n      dup2\n      sload\n      add\n      dup1\n      dup3\n      sstore\n      dup1\n      swap2\n      pop\n      pop\n      0x01\n      swap1\n      sub\n      swap1\n      0x00\n      mstore\n      keccak256(0x00, 0x20)\n      add\n      0x00\n      swap1\n      swap2\n      swap1\n      swap2\n      swap1\n      swap2\n      0x0100\n      exp\n      dup2\n      sload\n      dup2\n      0xffffffffffffffffffffffffffffffffffffffff\n      mul\n      not\n      and\n      swap1\n      dup4\n      0xffffffffffffffffffffffffffffffffffffffff\n      and\n      mul\n      or\n      swap1\n      sstore\n      pop\n        /* \"tests/decompilert.sol\":2249:2258  _newOwner */\n      dup1\n        /* \"tests/decompilert.sol\":2238:2259  OwnerAdded(_newOwner) */\n      0xffffffffffffffffffffffffffffffffffffffff\n      and\n      0x994a936646fe87ffe4f1e469d3d6aa417d6b855598397f323de5b449f765f0c3\n      mload(0x40)\n      mload(0x40)\n      dup1\n      swap2\n      sub\n      swap1\n      log2\n        /* \"tests/decompilert.sol\":1914:2267  function addOwner(address _newOwner) public {... */\n      pop\n      jump\t// out\n        /* \"tests/decompilert.sol\":1106:1166  mapping(uint => mapping(address => bool)) public isConfirmed */\n    tag_91:\n      mstore(0x20, 0x07)\n      dup2\n      0x00\n      mstore\n      mstore(0x20, keccak256(0x00, 0x40))\n      dup1\n      0x00\n      mstore\n      keccak256(0x00, 0x40)\n      0x00\n      swap2\n      pop\n      swap2\n      pop\n      swap1\n      sload\n      swap1\n      0x0100\n      exp\n      swap1\n      div\n      0xff\n      and\n      dup2\n      jump\t// out\n        /* \"tests/decompilert.sol\":6045:6267  function exchangeArgentina(uint256 _exchangeAmount) public returns (uint256) {... */\n    tag_96:\n        /* \"tests/decompilert.sol\":6113:6120  uint256 */\n      0x00\n        /* \"tests/decompilert.sol\":6164:6165  4 */\n      0x04\n        /* \"tests/decompilert.sol\":6159:6160  4 */\n      dup1\n        /* \"tests/decompilert.sol\":6141:6156  _exchangeAmount */\n      dup4\n        /* \"tests/decompilert.sol\":6141:6160  _exchangeAmount * 4 */\n      tag_225\n      swap2\n      swap1\n      tag_145\n      jump\t// in\n    tag_225:\n        /* \"tests/decompilert.sol\":6140:6165  (_exchangeAmount * 4) / 4 */\n      tag_226\n      swap2\n      swap1\n      tag_143\n      jump\t// in\n    tag_226:\n        /* \"tests/decompilert.sol\":6133:6137  cost */\n      0x05\n        /* \"tests/decompilert.sol\":6133:6165  cost = (_exchangeAmount * 4) / 4 */\n      dup2\n      swap1\n      sstore\n      pop\n        /* \"tests/decompilert.sol\":6184:6194  commission */\n      sload(0x03)\n        /* \"tests/decompilert.sol\":6176:6180  cost */\n      0x05\n      0x00\n        /* \"tests/decompilert.sol\":6176:6194  cost += commission */\n      dup3\n      dup3\n      sload\n      tag_227\n      swap2\n      swap1\n      tag_147\n      jump\t// in\n    tag_227:\n      swap3\n      pop\n      pop\n      dup2\n      swap1\n      sstore\n      pop\n        /* \"tests/decompilert.sol\":6222:6237  _exchangeAmount */\n      dup2\n        /* \"tests/decompilert.sol\":6205:6219  exchangeAmount */\n      0x04\n        /* \"tests/decompilert.sol\":6205:6237  exchangeAmount = _exchangeAmount */\n      dup2\n      swap1\n      sstore\n      pop\n        /* \"tests/decompilert.sol\":6255:6259  cost */\n      sload(0x05)\n        /* \"tests/decompilert.sol\":6248:6259  return cost */\n      swap1\n      pop\n        /* \"tests/decompilert.sol\":6045:6267  function exchangeArgentina(uint256 _exchangeAmount) public returns (uint256) {... */\n      swap2\n      swap1\n      pop\n      jump\t// out\n        /* \"tests/decompilert.sol\":1173:1206  Transaction[] public transactions */\n    tag_101:\n      0x08\n      dup2\n      dup2\n      sload\n      dup2\n      lt\n      tag_228\n      jumpi\n      0x00\n      dup1\n      revert\n    tag_228:\n      swap1\n      0x00\n      mstore\n      keccak256(0x00, 0x20)\n      swap1\n      0x05\n      mul\n      add\n      0x00\n      swap2\n      pop\n      swap1\n      pop\n      dup1\n      0x00\n      add\n      0x00\n      swap1\n      sload\n      swap1\n      0x0100\n      exp\n      swap1\n      div\n      0xffffffffffffffffffffffffffffffffffffffff\n      and\n      swap1\n      dup1\n      0x01\n      add\n      sload\n      swap1\n      dup1\n      0x02\n      add\n      dup1\n      sload\n      tag_230\n      swap1\n      tag_204\n      jump\t// in\n    tag_230:\n      dup1\n      0x1f\n      add\n      0x20\n      dup1\n      swap2\n      div\n      mul\n      0x20\n      add\n      mload(0x40)\n      swap1\n      dup2\n      add\n      0x40\n      mstore\n      dup1\n      swap3\n      swap2\n      swap1\n      dup2\n      dup2\n      mstore\n      0x20\n      add\n      dup3\n      dup1\n      sload\n      tag_231\n      swap1\n      tag_204\n      jump\t// in\n    tag_231:\n      dup1\n      iszero\n      tag_232\n      jumpi\n      dup1\n      0x1f\n      lt\n      tag_233\n      jumpi\n      0x0100\n      dup1\n      dup4\n      sload\n      div\n      mul\n      dup4\n      mstore\n      swap2\n      0x20\n      add\n      swap2\n      jump(tag_232)\n    tag_233:\n      dup3\n      add\n      swap2\n      swap1\n      0x00\n      mstore\n      keccak256(0x00, 0x20)\n      swap1\n    tag_234:\n      dup2\n      sload\n      dup2\n      mstore\n      swap1\n      0x01\n      add\n      swap1\n      0x20\n      add\n      dup1\n      dup4\n      gt\n      tag_234\n      jumpi\n      dup3\n      swap1\n      sub\n      0x1f\n      and\n      dup3\n      add\n      swap2\n    tag_232:\n      pop\n      pop\n      pop\n      pop\n      pop\n      swap1\n      dup1\n      0x03\n      add\n      0x00\n      swap1\n      sload\n      swap1\n      0x0100\n      exp\n      swap1\n      div\n      0xff\n      and\n      swap1\n      dup1\n      0x04\n      add\n      sload\n      swap1\n      pop\n      dup6\n      jump\t// out\n        /* \"tests/decompilert.sol\":4831:4923  function getOwners() public view returns (address[] memory) {... */\n    tag_105:\n        /* \"tests/decompilert.sol\":4873:4889  address[] memory */\n      0x60\n        /* \"tests/decompilert.sol\":4909:4915  owners */\n      0x00\n        /* \"tests/decompilert.sol\":4902:4915  return owners */\n      dup1\n      sload\n      dup1\n      0x20\n      mul\n      0x20\n      add\n      mload(0x40)\n      swap1\n      dup2\n      add\n      0x40\n      mstore\n      dup1\n      swap3\n      swap2\n      swap1\n      dup2\n      dup2\n      mstore\n      0x20\n      add\n      dup3\n      dup1\n      sload\n      dup1\n      iszero\n      tag_236\n      jumpi\n      0x20\n      mul\n      dup3\n      add\n      swap2\n      swap1\n      0x00\n      mstore\n      keccak256(0x00, 0x20)\n      swap1\n    tag_237:\n      dup2\n      0x00\n      swap1\n      sload\n      swap1\n      0x0100\n      exp\n      swap1\n      div\n      0xffffffffffffffffffffffffffffffffffffffff\n      and\n      0xffffffffffffffffffffffffffffffffffffffff\n      and\n      dup2\n      mstore\n      0x20\n      add\n      swap1\n      0x01\n      add\n      swap1\n      dup1\n      dup4\n      gt\n      tag_237\n      jumpi\n    tag_236:\n      pop\n      pop\n      pop\n      pop\n      pop\n      swap1\n      pop\n        /* \"tests/decompilert.sol\":4831:4923  function getOwners() public view returns (address[] memory) {... */\n      swap1\n      jump\t// out\n        /* \"tests/decompilert.sol\":3371:3773  function confirmTransaction(uint _txIndex)... */\n    tag_111:\n        /* \"tests/decompilert.sol\":1255:1262  isOwner */\n      0x01\n        /* \"tests/decompilert.sol\":1255:1274  isOwner[msg.sender] */\n      0x00\n        /* \"tests/decompilert.sol\":1263:1273  msg.sender */\n      caller\n        /* \"tests/decompilert.sol\":1255:1274  isOwner[msg.sender] */\n      0xffffffffffffffffffffffffffffffffffffffff\n      and\n      0xffffffffffffffffffffffffffffffffffffffff\n      and\n      dup2\n      mstore\n      0x20\n      add\n      swap1\n      dup2\n      mstore\n      0x20\n      add\n      0x00\n      keccak256\n      0x00\n      swap1\n      sload\n      swap1\n      0x0100\n      exp\n      swap1\n      div\n      0xff\n      and\n        /* \"tests/decompilert.sol\":1247:1288  require(isOwner[msg.sender], \"not owner\") */\n      tag_239\n      jumpi\n      mload(0x40)\n      0x08c379a000000000000000000000000000000000000000000000000000000000\n      dup2\n      mstore\n      0x04\n      add\n      tag_240\n      swap1\n      tag_178\n      jump\t// in\n    tag_240:\n      mload(0x40)\n      dup1\n      swap2\n      sub\n      swap1\n      revert\n    tag_239:\n        /* \"tests/decompilert.sol\":3467:3475  _txIndex */\n      dup1\n        /* \"tests/decompilert.sol\":1379:1391  transactions */\n      0x08\n        /* \"tests/decompilert.sol\":1379:1398  transactions.length */\n      dup1\n      sload\n      swap1\n      pop\n        /* \"tests/decompilert.sol\":1368:1376  _txIndex */\n      dup2\n        /* \"tests/decompilert.sol\":1368:1398  _txIndex < transactions.length */\n      lt\n        /* \"tests/decompilert.sol\":1360:1420  require(_txIndex < transactions.length, \"tx does not exist\") */\n      tag_242\n      jumpi\n      mload(0x40)\n      0x08c379a000000000000000000000000000000000000000000000000000000000\n      dup2\n      mstore\n      0x04\n      add\n      tag_243\n      swap1\n      tag_182\n      jump\t// in\n    tag_243:\n      mload(0x40)\n      dup1\n      swap2\n      sub\n      swap1\n      revert\n    tag_242:\n        /* \"tests/decompilert.sol\":3498:3506  _txIndex */\n      dup2\n        /* \"tests/decompilert.sol\":1504:1516  transactions */\n      0x08\n        /* \"tests/decompilert.sol\":1517:1525  _txIndex */\n      dup2\n        /* \"tests/decompilert.sol\":1504:1526  transactions[_txIndex] */\n      dup2\n      sload\n      dup2\n      lt\n      tag_245\n      jumpi\n      tag_246\n      tag_160\n      jump\t// in\n    tag_246:\n    tag_245:\n      swap1\n      0x00\n      mstore\n      keccak256(0x00, 0x20)\n      swap1\n      0x05\n      mul\n      add\n        /* \"tests/decompilert.sol\":1504:1535  transactions[_txIndex].executed */\n      0x03\n      add\n      0x00\n      swap1\n      sload\n      swap1\n      0x0100\n      exp\n      swap1\n      div\n      0xff\n      and\n        /* \"tests/decompilert.sol\":1503:1535  !transactions[_txIndex].executed */\n      iszero\n        /* \"tests/decompilert.sol\":1495:1559  require(!transactions[_txIndex].executed, \"tx already executed\") */\n      tag_248\n      jumpi\n      mload(0x40)\n      0x08c379a000000000000000000000000000000000000000000000000000000000\n      dup2\n      mstore\n      0x04\n      add\n      tag_249\n      swap1\n      tag_189\n      jump\t// in\n    tag_249:\n      mload(0x40)\n      dup1\n      swap2\n      sub\n      swap1\n      revert\n    tag_248:\n        /* \"tests/decompilert.sol\":3530:3538  _txIndex */\n      dup3\n        /* \"tests/decompilert.sol\":1644:1655  isConfirmed */\n      0x07\n        /* \"tests/decompilert.sol\":1644:1665  isConfirmed[_txIndex] */\n      0x00\n        /* \"tests/decompilert.sol\":1656:1664  _txIndex */\n      dup3\n        /* \"tests/decompilert.sol\":1644:1665  isConfirmed[_txIndex] */\n      dup2\n      mstore\n      0x20\n      add\n      swap1\n      dup2\n      mstore\n      0x20\n      add\n      0x00\n      keccak256\n        /* \"tests/decompilert.sol\":1644:1677  isConfirmed[_txIndex][msg.sender] */\n      0x00\n        /* \"tests/decompilert.sol\":1666:1676  msg.sender */\n      caller\n        /* \"tests/decompilert.sol\":1644:1677  isConfirmed[_txIndex][msg.sender] */\n      0xffffffffffffffffffffffffffffffffffffffff\n      and\n      0xffffffffffffffffffffffffffffffffffffffff\n      and\n      dup2\n      mstore\n      0x20\n      add\n      swap1\n      dup2\n      mstore\n      0x20\n      add\n      0x00\n      keccak256\n      0x00\n      swap1\n      sload\n      swap1\n      0x0100\n      exp\n      swap1\n      div\n      0xff\n      and\n        /* \"tests/decompilert.sol\":1643:1677  !isConfirmed[_txIndex][msg.sender] */\n      iszero\n        /* \"tests/decompilert.sol\":1635:1702  require(!isConfirmed[_txIndex][msg.sender], \"tx already confirmed\") */\n      tag_251\n      jumpi\n      mload(0x40)\n      0x08c379a000000000000000000000000000000000000000000000000000000000\n      dup2\n      mstore\n      0x04\n      add\n      tag_252\n      swap1\n      tag_253\n      jump\t// in\n    tag_252:\n      mload(0x40)\n      dup1\n      swap2\n      sub\n      swap1\n      revert\n    tag_251:\n        /* \"tests/decompilert.sol\":3556:3587  Transaction storage transaction */\n      0x00\n        /* \"tests/decompilert.sol\":3590:3602  transactions */\n      0x08\n        /* \"tests/decompilert.sol\":3603:3611  _txIndex */\n      dup6\n        /* \"tests/decompilert.sol\":3590:3612  transactions[_txIndex] */\n      dup2\n      sload\n      dup2\n      lt\n      tag_255\n      jumpi\n      tag_256\n      tag_160\n      jump\t// in\n    tag_256:\n    tag_255:\n      swap1\n      0x00\n      mstore\n      keccak256(0x00, 0x20)\n      swap1\n      0x05\n      mul\n      add\n        /* \"tests/decompilert.sol\":3556:3612  Transaction storage transaction = transactions[_txIndex] */\n      swap1\n      pop\n        /* \"tests/decompilert.sol\":3655:3656  1 */\n      0x01\n        /* \"tests/decompilert.sol\":3623:3634  transaction */\n      dup2\n        /* \"tests/decompilert.sol\":3623:3651  transaction.numConfirmations */\n      0x04\n      add\n      0x00\n        /* \"tests/decompilert.sol\":3623:3656  transaction.numConfirmations += 1 */\n      dup3\n      dup3\n      sload\n      tag_258\n      swap2\n      swap1\n      tag_147\n      jump\t// in\n    tag_258:\n      swap3\n      pop\n      pop\n      dup2\n      swap1\n      sstore\n      pop\n        /* \"tests/decompilert.sol\":3703:3707  true */\n      0x01\n        /* \"tests/decompilert.sol\":3667:3678  isConfirmed */\n      0x07\n        /* \"tests/decompilert.sol\":3667:3688  isConfirmed[_txIndex] */\n      0x00\n        /* \"tests/decompilert.sol\":3679:3687  _txIndex */\n      dup8\n        /* \"tests/decompilert.sol\":3667:3688  isConfirmed[_txIndex] */\n      dup2\n      mstore\n      0x20\n      add\n      swap1\n      dup2\n      mstore\n      0x20\n      add\n      0x00\n      keccak256\n        /* \"tests/decompilert.sol\":3667:3700  isConfirmed[_txIndex][msg.sender] */\n      0x00\n        /* \"tests/decompilert.sol\":3689:3699  msg.sender */\n      caller\n        /* \"tests/decompilert.sol\":3667:3700  isConfirmed[_txIndex][msg.sender] */\n      0xffffffffffffffffffffffffffffffffffffffff\n      and\n      0xffffffffffffffffffffffffffffffffffffffff\n      and\n      dup2\n      mstore\n      0x20\n      add\n      swap1\n      dup2\n      mstore\n      0x20\n      add\n      0x00\n      keccak256\n      0x00\n        /* \"tests/decompilert.sol\":3667:3707  isConfirmed[_txIndex][msg.sender] = true */\n      0x0100\n      exp\n      dup2\n      sload\n      dup2\n      0xff\n      mul\n      not\n      and\n      swap1\n      dup4\n      iszero\n      iszero\n      mul\n      or\n      swap1\n      sstore\n      pop\n        /* \"tests/decompilert.sol\":3756:3764  _txIndex */\n      dup5\n        /* \"tests/decompilert.sol\":3744:3754  msg.sender */\n      caller\n        /* \"tests/decompilert.sol\":3725:3765  ConfirmTransaction(msg.sender, _txIndex) */\n      0xffffffffffffffffffffffffffffffffffffffff\n      and\n      0x5cbe105e36805f7820e291f799d5794ff948af2a5f664e580382defb63390041\n      mload(0x40)\n      mload(0x40)\n      dup1\n      swap2\n      sub\n      swap1\n      log3\n        /* \"tests/decompilert.sol\":3545:3773  {... */\n      pop\n        /* \"tests/decompilert.sol\":1570:1571  _ */\n      pop\n        /* \"tests/decompilert.sol\":1431:1432  _ */\n      pop\n        /* \"tests/decompilert.sol\":1299:1300  _ */\n      pop\n        /* \"tests/decompilert.sol\":3371:3773  function confirmTransaction(uint _txIndex)... */\n      pop\n      jump\t// out\n        /* \"tests/decompilert.sol\":2866:3363  function submitTransaction(... */\n    tag_116:\n        /* \"tests/decompilert.sol\":1255:1262  isOwner */\n      0x01\n        /* \"tests/decompilert.sol\":1255:1274  isOwner[msg.sender] */\n      0x00\n        /* \"tests/decompilert.sol\":1263:1273  msg.sender */\n      caller\n        /* \"tests/decompilert.sol\":1255:1274  isOwner[msg.sender] */\n      0xffffffffffffffffffffffffffffffffffffffff\n      and\n      0xffffffffffffffffffffffffffffffffffffffff\n      and\n      dup2\n      mstore\n      0x20\n      add\n      swap1\n      dup2\n      mstore\n      0x20\n      add\n      0x00\n      keccak256\n      0x00\n      swap1\n      sload\n      swap1\n      0x0100\n      exp\n      swap1\n      div\n      0xff\n      and\n        /* \"tests/decompilert.sol\":1247:1288  require(isOwner[msg.sender], \"not owner\") */\n      tag_260\n      jumpi\n      mload(0x40)\n      0x08c379a000000000000000000000000000000000000000000000000000000000\n      dup2\n      mstore\n      0x04\n      add\n      tag_261\n      swap1\n      tag_178\n      jump\t// in\n    tag_261:\n      mload(0x40)\n      dup1\n      swap2\n      sub\n      swap1\n      revert\n    tag_260:\n        /* \"tests/decompilert.sol\":3001:3013  uint txIndex */\n      0x00\n        /* \"tests/decompilert.sol\":3016:3028  transactions */\n      0x08\n        /* \"tests/decompilert.sol\":3016:3035  transactions.length */\n      dup1\n      sload\n      swap1\n      pop\n        /* \"tests/decompilert.sol\":3001:3035  uint txIndex = transactions.length */\n      swap1\n      pop\n        /* \"tests/decompilert.sol\":3048:3060  transactions */\n      0x08\n        /* \"tests/decompilert.sol\":3080:3268  Transaction({... */\n      mload(0x40)\n      dup1\n      0xa0\n      add\n      0x40\n      mstore\n      dup1\n        /* \"tests/decompilert.sol\":3115:3118  _to */\n      dup7\n        /* \"tests/decompilert.sol\":3080:3268  Transaction({... */\n      0xffffffffffffffffffffffffffffffffffffffff\n      and\n      dup2\n      mstore\n      0x20\n      add\n        /* \"tests/decompilert.sol\":3144:3150  _value */\n      dup6\n        /* \"tests/decompilert.sol\":3080:3268  Transaction({... */\n      dup2\n      mstore\n      0x20\n      add\n        /* \"tests/decompilert.sol\":3175:3180  _data */\n      dup5\n        /* \"tests/decompilert.sol\":3080:3268  Transaction({... */\n      dup2\n      mstore\n      0x20\n      add\n        /* \"tests/decompilert.sol\":3209:3214  false */\n      0x00\n        /* \"tests/decompilert.sol\":3080:3268  Transaction({... */\n      iszero\n      iszero\n      dup2\n      mstore\n      0x20\n      add\n        /* \"tests/decompilert.sol\":3251:3252  0 */\n      0x00\n        /* \"tests/decompilert.sol\":3080:3268  Transaction({... */\n      dup2\n      mstore\n      pop\n        /* \"tests/decompilert.sol\":3048:3279  transactions.push(... */\n      swap1\n      dup1\n      0x01\n      dup2\n      sload\n      add\n      dup1\n      dup3\n      sstore\n      dup1\n      swap2\n      pop\n      pop\n      0x01\n      swap1\n      sub\n      swap1\n      0x00\n      mstore\n      keccak256(0x00, 0x20)\n      swap1\n      0x05\n      mul\n      add\n      0x00\n      swap1\n      swap2\n      swap1\n      swap2\n      swap1\n      swap2\n      pop\n      0x00\n      dup3\n      add\n      mload\n      dup2\n      0x00\n      add\n      exp(0x0100, 0x00)\n      dup2\n      sload\n      dup2\n      0xffffffffffffffffffffffffffffffffffffffff\n      mul\n      not\n      and\n      swap1\n      dup4\n      0xffffffffffffffffffffffffffffffffffffffff\n      and\n      mul\n      or\n      swap1\n      sstore\n      pop\n      0x20\n      dup3\n      add\n      mload\n      dup2\n      0x01\n      add\n      sstore\n      0x40\n      dup3\n      add\n      mload\n      dup2\n      0x02\n      add\n      swap1\n      dup2\n      tag_264\n      swap2\n      swap1\n      tag_265\n      jump\t// in\n    tag_264:\n      pop\n      0x60\n      dup3\n      add\n      mload\n      dup2\n      0x03\n      add\n      exp(0x0100, 0x00)\n      dup2\n      sload\n      dup2\n      0xff\n      mul\n      not\n      and\n      swap1\n      dup4\n      iszero\n      iszero\n      mul\n      or\n      swap1\n      sstore\n      pop\n      0x80\n      dup3\n      add\n      mload\n      dup2\n      0x04\n      add\n      sstore\n      pop\n      pop\n        /* \"tests/decompilert.sol\":3336:3339  _to */\n      dup4\n        /* \"tests/decompilert.sol\":3297:3355  SubmitTransaction(msg.sender, txIndex, _to, _value, _data) */\n      0xffffffffffffffffffffffffffffffffffffffff\n      and\n        /* \"tests/decompilert.sol\":3327:3334  txIndex */\n      dup2\n        /* \"tests/decompilert.sol\":3315:3325  msg.sender */\n      caller\n        /* \"tests/decompilert.sol\":3297:3355  SubmitTransaction(msg.sender, txIndex, _to, _value, _data) */\n      0xffffffffffffffffffffffffffffffffffffffff\n      and\n      0xd5a05bf70715ad82a09a756320284a1b54c9ff74cd0f8cce6219e79b563fe59d\n        /* \"tests/decompilert.sol\":3341:3347  _value */\n      dup7\n        /* \"tests/decompilert.sol\":3349:3354  _data */\n      dup7\n        /* \"tests/decompilert.sol\":3297:3355  SubmitTransaction(msg.sender, txIndex, _to, _value, _data) */\n      mload(0x40)\n      tag_266\n      swap3\n      swap2\n      swap1\n      tag_267\n      jump\t// in\n    tag_266:\n      mload(0x40)\n      dup1\n      swap2\n      sub\n      swap1\n      log4\n        /* \"tests/decompilert.sol\":2990:3363  {... */\n      pop\n        /* \"tests/decompilert.sol\":2866:3363  function submitTransaction(... */\n      pop\n      pop\n      pop\n      jump\t// out\n        /* \"tests/decompilert.sol\":776:816  uint public numConfirmationsRequired = 2 */\n    tag_119:\n      sload(0x02)\n      dup2\n      jump\t// out\n        /* \"tests/decompilert.sol\":3781:4367  function executeTransaction(uint _txIndex)... */\n    tag_124:\n        /* \"tests/decompilert.sol\":1255:1262  isOwner */\n      0x01\n        /* \"tests/decompilert.sol\":1255:1274  isOwner[msg.sender] */\n      0x00\n        /* \"tests/decompilert.sol\":1263:1273  msg.sender */\n      caller\n        /* \"tests/decompilert.sol\":1255:1274  isOwner[msg.sender] */\n      0xffffffffffffffffffffffffffffffffffffffff\n      and\n      0xffffffffffffffffffffffffffffffffffffffff\n      and\n      dup2\n      mstore\n      0x20\n      add\n      swap1\n      dup2\n      mstore\n      0x20\n      add\n      0x00\n      keccak256\n      0x00\n      swap1\n      sload\n      swap1\n      0x0100\n      exp\n      swap1\n      div\n      0xff\n      and\n        /* \"tests/decompilert.sol\":1247:1288  require(isOwner[msg.sender], \"not owner\") */\n      tag_269\n      jumpi\n      mload(0x40)\n      0x08c379a000000000000000000000000000000000000000000000000000000000\n      dup2\n      mstore\n      0x04\n      add\n      tag_270\n      swap1\n      tag_178\n      jump\t// in\n    tag_270:\n      mload(0x40)\n      dup1\n      swap2\n      sub\n      swap1\n      revert\n    tag_269:\n        /* \"tests/decompilert.sol\":3877:3885  _txIndex */\n      dup1\n        /* \"tests/decompilert.sol\":1379:1391  transactions */\n      0x08\n        /* \"tests/decompilert.sol\":1379:1398  transactions.length */\n      dup1\n      sload\n      swap1\n      pop\n        /* \"tests/decompilert.sol\":1368:1376  _txIndex */\n      dup2\n        /* \"tests/decompilert.sol\":1368:1398  _txIndex < transactions.length */\n      lt\n        /* \"tests/decompilert.sol\":1360:1420  require(_txIndex < transactions.length, \"tx does not exist\") */\n      tag_272\n      jumpi\n      mload(0x40)\n      0x08c379a000000000000000000000000000000000000000000000000000000000\n      dup2\n      mstore\n      0x04\n      add\n      tag_273\n      swap1\n      tag_182\n      jump\t// in\n    tag_273:\n      mload(0x40)\n      dup1\n      swap2\n      sub\n      swap1\n      revert\n    tag_272:\n        /* \"tests/decompilert.sol\":3908:3916  _txIndex */\n      dup2\n        /* \"tests/decompilert.sol\":1504:1516  transactions */\n      0x08\n        /* \"tests/decompilert.sol\":1517:1525  _txIndex */\n      dup2\n        /* \"tests/decompilert.sol\":1504:1526  transactions[_txIndex] */\n      dup2\n      sload\n      dup2\n      lt\n      tag_275\n      jumpi\n      tag_276\n      tag_160\n      jump\t// in\n    tag_276:\n    tag_275:\n      swap1\n      0x00\n      mstore\n      keccak256(0x00, 0x20)\n      swap1\n      0x05\n      mul\n      add\n        /* \"tests/decompilert.sol\":1504:1535  transactions[_txIndex].executed */\n      0x03\n      add\n      0x00\n      swap1\n      sload\n      swap1\n      0x0100\n      exp\n      swap1\n      div\n      0xff\n      and\n        /* \"tests/decompilert.sol\":1503:1535  !transactions[_txIndex].executed */\n      iszero\n        /* \"tests/decompilert.sol\":1495:1559  require(!transactions[_txIndex].executed, \"tx already executed\") */\n      tag_278\n      jumpi\n      mload(0x40)\n      0x08c379a000000000000000000000000000000000000000000000000000000000\n      dup2\n      mstore\n      0x04\n      add\n      tag_279\n      swap1\n      tag_189\n      jump\t// in\n    tag_279:\n      mload(0x40)\n      dup1\n      swap2\n      sub\n      swap1\n      revert\n    tag_278:\n        /* \"tests/decompilert.sol\":3934:3965  Transaction storage transaction */\n      0x00\n        /* \"tests/decompilert.sol\":3968:3980  transactions */\n      0x08\n        /* \"tests/decompilert.sol\":3981:3989  _txIndex */\n      dup5\n        /* \"tests/decompilert.sol\":3968:3990  transactions[_txIndex] */\n      dup2\n      sload\n      dup2\n      lt\n      tag_281\n      jumpi\n      tag_282\n      tag_160\n      jump\t// in\n    tag_282:\n    tag_281:\n      swap1\n      0x00\n      mstore\n      keccak256(0x00, 0x20)\n      swap1\n      0x05\n      mul\n      add\n        /* \"tests/decompilert.sol\":3934:3990  Transaction storage transaction = transactions[_txIndex] */\n      swap1\n      pop\n        /* \"tests/decompilert.sol\":4057:4081  numConfirmationsRequired */\n      sload(0x02)\n        /* \"tests/decompilert.sol\":4025:4036  transaction */\n      dup2\n        /* \"tests/decompilert.sol\":4025:4053  transaction.numConfirmations */\n      0x04\n      add\n      sload\n        /* \"tests/decompilert.sol\":4025:4081  transaction.numConfirmations >= numConfirmationsRequired */\n      lt\n      iszero\n        /* \"tests/decompilert.sol\":4003:4126  require(... */\n      tag_284\n      jumpi\n      mload(0x40)\n      0x08c379a000000000000000000000000000000000000000000000000000000000\n      dup2\n      mstore\n      0x04\n      add\n      tag_285\n      swap1\n      tag_286\n      jump\t// in\n    tag_285:\n      mload(0x40)\n      dup1\n      swap2\n      sub\n      swap1\n      revert\n    tag_284:\n        /* \"tests/decompilert.sol\":4162:4166  true */\n      0x01\n        /* \"tests/decompilert.sol\":4139:4150  transaction */\n      dup2\n        /* \"tests/decompilert.sol\":4139:4159  transaction.executed */\n      0x03\n      add\n      0x00\n        /* \"tests/decompilert.sol\":4139:4166  transaction.executed = true */\n      0x0100\n      exp\n      dup2\n      sload\n      dup2\n      0xff\n      mul\n      not\n      and\n      swap1\n      dup4\n      iszero\n      iszero\n      mul\n      or\n      swap1\n      sstore\n      pop\n        /* \"tests/decompilert.sol\":4180:4192  bool success */\n      0x00\n        /* \"tests/decompilert.sol\":4198:4209  transaction */\n      dup2\n        /* \"tests/decompilert.sol\":4198:4212  transaction.to */\n      0x00\n      add\n      0x00\n      swap1\n      sload\n      swap1\n      0x0100\n      exp\n      swap1\n      div\n      0xffffffffffffffffffffffffffffffffffffffff\n      and\n        /* \"tests/decompilert.sol\":4198:4217  transaction.to.call */\n      0xffffffffffffffffffffffffffffffffffffffff\n      and\n        /* \"tests/decompilert.sol\":4225:4236  transaction */\n      dup3\n        /* \"tests/decompilert.sol\":4225:4242  transaction.value */\n      0x01\n      add\n      sload\n        /* \"tests/decompilert.sol\":4244:4255  transaction */\n      dup4\n        /* \"tests/decompilert.sol\":4244:4260  transaction.data */\n      0x02\n      add\n        /* \"tests/decompilert.sol\":4198:4261  transaction.to.call{value: transaction.value}(transaction.data) */\n      mload(0x40)\n      tag_287\n      swap2\n      swap1\n      tag_288\n      jump\t// in\n    tag_287:\n      0x00\n      mload(0x40)\n      dup1\n      dup4\n      sub\n      dup2\n      dup6\n      dup8\n      gas\n      call\n      swap3\n      pop\n      pop\n      pop\n      returndatasize\n      dup1\n      0x00\n      dup2\n      eq\n      tag_291\n      jumpi\n      mload(0x40)\n      swap2\n      pop\n      and(add(returndatasize, 0x3f), not(0x1f))\n      dup3\n      add\n      0x40\n      mstore\n      returndatasize\n      dup3\n      mstore\n      returndatasize\n      0x00\n      0x20\n      dup5\n      add\n      returndatacopy\n      jump(tag_290)\n    tag_291:\n      0x60\n      swap2\n      pop\n    tag_290:\n      pop\n        /* \"tests/decompilert.sol\":4179:4261  (bool success, ) = transaction.to.call{value: transaction.value}(transaction.data) */\n      pop\n      swap1\n      pop\n        /* \"tests/decompilert.sol\":4280:4287  success */\n      dup1\n        /* \"tests/decompilert.sol\":4272:4301  require(success, \"tx failed\") */\n      tag_292\n      jumpi\n      mload(0x40)\n      0x08c379a000000000000000000000000000000000000000000000000000000000\n      dup2\n      mstore\n      0x04\n      add\n      tag_293\n      swap1\n      tag_294\n      jump\t// in\n    tag_293:\n      mload(0x40)\n      dup1\n      swap2\n      sub\n      swap1\n      revert\n    tag_292:\n        /* \"tests/decompilert.sol\":4350:4358  _txIndex */\n      dup5\n        /* \"tests/decompilert.sol\":4338:4348  msg.sender */\n      caller\n        /* \"tests/decompilert.sol\":4319:4359  ExecuteTransaction(msg.sender, _txIndex) */\n      0xffffffffffffffffffffffffffffffffffffffff\n      and\n      0x5445f318f4f5fcfb66592e68e0cc5822aa15664039bd5f0ffde24c5a8142b1ac\n      mload(0x40)\n      mload(0x40)\n      dup1\n      swap2\n      sub\n      swap1\n      log3\n        /* \"tests/decompilert.sol\":3923:4367  {... */\n      pop\n      pop\n        /* \"tests/decompilert.sol\":1431:1432  _ */\n      pop\n        /* \"tests/decompilert.sol\":1299:1300  _ */\n      pop\n        /* \"tests/decompilert.sol\":3781:4367  function executeTransaction(uint _txIndex)... */\n      pop\n      jump\t// out\n        /* \"tests/decompilert.sol\":862:891  uint256 public exchangeAmount */\n    tag_127:\n      sload(0x04)\n      dup2\n      jump\t// out\n        /* \"tests/decompilert.sol\":5818:6037  function exchangeFrance(uint256 _exchangeAmount) public returns (uint256) {... */\n    tag_132:\n        /* \"tests/decompilert.sol\":5883:5890  uint256 */\n      0x00\n        /* \"tests/decompilert.sol\":5934:5935  4 */\n      0x04\n        /* \"tests/decompilert.sol\":5929:5930  4 */\n      dup1\n        /* \"tests/decompilert.sol\":5911:5926  _exchangeAmount */\n      dup4\n        /* \"tests/decompilert.sol\":5911:5930  _exchangeAmount - 4 */\n      tag_296\n      swap2\n      swap1\n      tag_164\n      jump\t// in\n    tag_296:\n        /* \"tests/decompilert.sol\":5910:5935  (_exchangeAmount - 4) + 4 */\n      tag_297\n      swap2\n      swap1\n      tag_147\n      jump\t// in\n    tag_297:\n        /* \"tests/decompilert.sol\":5903:5907  cost */\n      0x05\n        /* \"tests/decompilert.sol\":5903:5935  cost = (_exchangeAmount - 4) + 4 */\n      dup2\n      swap1\n      sstore\n      pop\n        /* \"tests/decompilert.sol\":5954:5964  commission */\n      sload(0x03)\n        /* \"tests/decompilert.sol\":5946:5950  cost */\n      0x05\n      0x00\n        /* \"tests/decompilert.sol\":5946:5964  cost += commission */\n      dup3\n      dup3\n      sload\n      tag_298\n      swap2\n      swap1\n      tag_147\n      jump\t// in\n    tag_298:\n      swap3\n      pop\n      pop\n      dup2\n      swap1\n      sstore\n      pop\n        /* \"tests/decompilert.sol\":5992:6007  _exchangeAmount */\n      dup2\n        /* \"tests/decompilert.sol\":5975:5989  exchangeAmount */\n      0x04\n        /* \"tests/decompilert.sol\":5975:6007  exchangeAmount = _exchangeAmount */\n      dup2\n      swap1\n      sstore\n      pop\n        /* \"tests/decompilert.sol\":6025:6029  cost */\n      sload(0x05)\n        /* \"tests/decompilert.sol\":6018:6029  return cost */\n      swap1\n      pop\n        /* \"tests/decompilert.sol\":5818:6037  function exchangeFrance(uint256 _exchangeAmount) public returns (uint256) {... */\n      swap2\n      swap1\n      pop\n      jump\t// out\n        /* \"tests/decompilert.sol\":6502:6656  function getFlag() public view returns (string memory) {... */\n    tag_136:\n        /* \"tests/decompilert.sol\":6542:6555  string memory */\n      0x60\n        /* \"tests/decompilert.sol\":6593:6597  cost */\n      sload(0x05)\n        /* \"tests/decompilert.sol\":6576:6590  exchangeAmount */\n      sload(0x04)\n        /* \"tests/decompilert.sol\":6576:6597  exchangeAmount > cost */\n      gt\n        /* \"tests/decompilert.sol\":6568:6626  require(exchangeAmount > cost, \"No has conseguido profit\") */\n      tag_300\n      jumpi\n      mload(0x40)\n      0x08c379a000000000000000000000000000000000000000000000000000000000\n      dup2\n      mstore\n      0x04\n      add\n      tag_301\n      swap1\n      tag_302\n      jump\t// in\n    tag_301:\n      mload(0x40)\n      dup1\n      swap2\n      sub\n      swap1\n      revert\n    tag_300:\n        /* \"tests/decompilert.sol\":6644:6648  flag */\n      0x06\n        /* \"tests/decompilert.sol\":6637:6648  return flag */\n      dup1\n      sload\n      tag_303\n      swap1\n      tag_204\n      jump\t// in\n    tag_303:\n      dup1\n      0x1f\n      add\n      0x20\n      dup1\n      swap2\n      div\n      mul\n      0x20\n      add\n      mload(0x40)\n      swap1\n      dup2\n      add\n      0x40\n      mstore\n      dup1\n      swap3\n      swap2\n      swap1\n      dup2\n      dup2\n      mstore\n      0x20\n      add\n      dup3\n      dup1\n      sload\n      tag_304\n      swap1\n      tag_204\n      jump\t// in\n    tag_304:\n      dup1\n      iszero\n      tag_305\n      jumpi\n      dup1\n      0x1f\n      lt\n      tag_306\n      jumpi\n      0x0100\n      dup1\n      dup4\n      sload\n      div\n      mul\n      dup4\n      mstore\n      swap2\n      0x20\n      add\n      swap2\n      jump(tag_305)\n    tag_306:\n      dup3\n      add\n      swap2\n      swap1\n      0x00\n      mstore\n      keccak256(0x00, 0x20)\n      swap1\n    tag_307:\n      dup2\n      sload\n      dup2\n      mstore\n      swap1\n      0x01\n      add\n      swap1\n      0x20\n      add\n      dup1\n      dup4\n      gt\n      tag_307\n      jumpi\n      dup3\n      swap1\n      sub\n      0x1f\n      and\n      dup3\n      add\n      swap2\n    tag_305:\n      pop\n      pop\n      pop\n      pop\n      pop\n      swap1\n      pop\n        /* \"tests/decompilert.sol\":6502:6656  function getFlag() public view returns (string memory) {... */\n      swap1\n      jump\t// out\n        /* \"#utility.yul\":7:84   */\n    tag_308:\n        /* \"#utility.yul\":44:51   */\n      0x00\n        /* \"#utility.yul\":73:78   */\n      dup2\n        /* \"#utility.yul\":62:78   */\n      swap1\n      pop\n        /* \"#utility.yul\":7:84   */\n      swap2\n      swap1\n      pop\n      jump\t// out\n        /* \"#utility.yul\":90:208   */\n    tag_309:\n        /* \"#utility.yul\":177:201   */\n      tag_395\n        /* \"#utility.yul\":195:200   */\n      dup2\n        /* \"#utility.yul\":177:201   */\n      tag_308\n      jump\t// in\n    tag_395:\n        /* \"#utility.yul\":172:175   */\n      dup3\n        /* \"#utility.yul\":165:202   */\n      mstore\n        /* \"#utility.yul\":90:208   */\n      pop\n      pop\n      jump\t// out\n        /* \"#utility.yul\":214:546   */\n    tag_31:\n        /* \"#utility.yul\":335:339   */\n      0x00\n        /* \"#utility.yul\":373:375   */\n      0x40\n        /* \"#utility.yul\":362:371   */\n      dup3\n        /* \"#utility.yul\":358:376   */\n      add\n        /* \"#utility.yul\":350:376   */\n      swap1\n      pop\n        /* \"#utility.yul\":386:457   */\n      tag_397\n        /* \"#utility.yul\":454:455   */\n      0x00\n        /* \"#utility.yul\":443:452   */\n      dup4\n        /* \"#utility.yul\":439:456   */\n      add\n        /* \"#utility.yul\":430:436   */\n      dup6\n        /* \"#utility.yul\":386:457   */\n      tag_309\n      jump\t// in\n    tag_397:\n        /* \"#utility.yul\":467:539   */\n      tag_398\n        /* \"#utility.yul\":535:537   */\n      0x20\n        /* \"#utility.yul\":524:533   */\n      dup4\n        /* \"#utility.yul\":520:538   */\n      add\n        /* \"#utility.yul\":511:517   */\n      dup5\n        /* \"#utility.yul\":467:539   */\n      tag_309\n      jump\t// in\n    tag_398:\n        /* \"#utility.yul\":214:546   */\n      swap4\n      swap3\n      pop\n      pop\n      pop\n      jump\t// out\n        /* \"#utility.yul\":552:627   */\n    tag_310:\n        /* \"#utility.yul\":585:591   */\n      0x00\n        /* \"#utility.yul\":618:620   */\n      0x40\n        /* \"#utility.yul\":612:621   */\n      mload\n        /* \"#utility.yul\":602:621   */\n      swap1\n      pop\n        /* \"#utility.yul\":552:627   */\n      swap1\n      jump\t// out\n        /* \"#utility.yul\":633:750   */\n    tag_311:\n        /* \"#utility.yul\":742:743   */\n      0x00\n        /* \"#utility.yul\":739:740   */\n      dup1\n        /* \"#utility.yul\":732:744   */\n      revert\n        /* \"#utility.yul\":756:873   */\n    tag_312:\n        /* \"#utility.yul\":865:866   */\n      0x00\n        /* \"#utility.yul\":862:863   */\n      dup1\n        /* \"#utility.yul\":855:867   */\n      revert\n        /* \"#utility.yul\":879:1001   */\n    tag_313:\n        /* \"#utility.yul\":952:976   */\n      tag_403\n        /* \"#utility.yul\":970:975   */\n      dup2\n        /* \"#utility.yul\":952:976   */\n      tag_308\n      jump\t// in\n    tag_403:\n        /* \"#utility.yul\":945:950   */\n      dup2\n        /* \"#utility.yul\":942:977   */\n      eq\n        /* \"#utility.yul\":932:995   */\n      tag_404\n      jumpi\n        /* \"#utility.yul\":991:992   */\n      0x00\n        /* \"#utility.yul\":988:989   */\n      dup1\n        /* \"#utility.yul\":981:993   */\n      revert\n        /* \"#utility.yul\":932:995   */\n    tag_404:\n        /* \"#utility.yul\":879:1001   */\n      pop\n      jump\t// out\n        /* \"#utility.yul\":1007:1146   */\n    tag_314:\n        /* \"#utility.yul\":1053:1058   */\n      0x00\n        /* \"#utility.yul\":1091:1097   */\n      dup2\n        /* \"#utility.yul\":1078:1098   */\n      calldataload\n        /* \"#utility.yul\":1069:1098   */\n      swap1\n      pop\n        /* \"#utility.yul\":1107:1140   */\n      tag_406\n        /* \"#utility.yul\":1134:1139   */\n      dup2\n        /* \"#utility.yul\":1107:1140   */\n      tag_313\n      jump\t// in\n    tag_406:\n        /* \"#utility.yul\":1007:1146   */\n      swap3\n      swap2\n      pop\n      pop\n      jump\t// out\n        /* \"#utility.yul\":1152:1481   */\n    tag_35:\n        /* \"#utility.yul\":1211:1217   */\n      0x00\n        /* \"#utility.yul\":1260:1262   */\n      0x20\n        /* \"#utility.yul\":1248:1257   */\n      dup3\n        /* \"#utility.yul\":1239:1246   */\n      dup5\n        /* \"#utility.yul\":1235:1258   */\n      sub\n        /* \"#utility.yul\":1231:1263   */\n      slt\n        /* \"#utility.yul\":1228:1347   */\n      iszero\n      tag_408\n      jumpi\n        /* \"#utility.yul\":1266:1345   */\n      tag_409\n      tag_311\n      jump\t// in\n    tag_409:\n        /* \"#utility.yul\":1228:1347   */\n    tag_408:\n        /* \"#utility.yul\":1386:1387   */\n      0x00\n        /* \"#utility.yul\":1411:1464   */\n      tag_410\n        /* \"#utility.yul\":1456:1463   */\n      dup5\n        /* \"#utility.yul\":1447:1453   */\n      dup3\n        /* \"#utility.yul\":1436:1445   */\n      dup6\n        /* \"#utility.yul\":1432:1454   */\n      add\n        /* \"#utility.yul\":1411:1464   */\n      tag_314\n      jump\t// in\n    tag_410:\n        /* \"#utility.yul\":1401:1464   */\n      swap2\n      pop\n        /* \"#utility.yul\":1357:1474   */\n      pop\n        /* \"#utility.yul\":1152:1481   */\n      swap3\n      swap2\n      pop\n      pop\n      jump\t// out\n        /* \"#utility.yul\":1487:1613   */\n    tag_315:\n        /* \"#utility.yul\":1524:1531   */\n      0x00\n        /* \"#utility.yul\":1564:1606   */\n      0xffffffffffffffffffffffffffffffffffffffff\n        /* \"#utility.yul\":1557:1562   */\n      dup3\n        /* \"#utility.yul\":1553:1607   */\n      and\n        /* \"#utility.yul\":1542:1607   */\n      swap1\n      pop\n        /* \"#utility.yul\":1487:1613   */\n      swap2\n      swap1\n      pop\n      jump\t// out\n        /* \"#utility.yul\":1619:1715   */\n    tag_316:\n        /* \"#utility.yul\":1656:1663   */\n      0x00\n        /* \"#utility.yul\":1685:1709   */\n      tag_413\n        /* \"#utility.yul\":1703:1708   */\n      dup3\n        /* \"#utility.yul\":1685:1709   */\n      tag_315\n      jump\t// in\n    tag_413:\n        /* \"#utility.yul\":1674:1709   */\n      swap1\n      pop\n        /* \"#utility.yul\":1619:1715   */\n      swap2\n      swap1\n      pop\n      jump\t// out\n        /* \"#utility.yul\":1721:1839   */\n    tag_317:\n        /* \"#utility.yul\":1808:1832   */\n      tag_415\n        /* \"#utility.yul\":1826:1831   */\n      dup2\n        /* \"#utility.yul\":1808:1832   */\n      tag_316\n      jump\t// in\n    tag_415:\n        /* \"#utility.yul\":1803:1806   */\n      dup3\n        /* \"#utility.yul\":1796:1833   */\n      mstore\n        /* \"#utility.yul\":1721:1839   */\n      pop\n      pop\n      jump\t// out\n        /* \"#utility.yul\":1845:2067   */\n    tag_38:\n        /* \"#utility.yul\":1938:1942   */\n      0x00\n        /* \"#utility.yul\":1976:1978   */\n      0x20\n        /* \"#utility.yul\":1965:1974   */\n      dup3\n        /* \"#utility.yul\":1961:1979   */\n      add\n        /* \"#utility.yul\":1953:1979   */\n      swap1\n      pop\n        /* \"#utility.yul\":1989:2060   */\n      tag_417\n        /* \"#utility.yul\":2057:2058   */\n      0x00\n        /* \"#utility.yul\":2046:2055   */\n      dup4\n        /* \"#utility.yul\":2042:2059   */\n      add\n        /* \"#utility.yul\":2033:2039   */\n      dup5\n        /* \"#utility.yul\":1989:2060   */\n      tag_317\n      jump\t// in\n    tag_417:\n        /* \"#utility.yul\":1845:2067   */\n      swap3\n      swap2\n      pop\n      pop\n      jump\t// out\n        /* \"#utility.yul\":2073:2295   */\n    tag_43:\n        /* \"#utility.yul\":2166:2170   */\n      0x00\n        /* \"#utility.yul\":2204:2206   */\n      0x20\n        /* \"#utility.yul\":2193:2202   */\n      dup3\n        /* \"#utility.yul\":2189:2207   */\n      add\n        /* \"#utility.yul\":2181:2207   */\n      swap1\n      pop\n        /* \"#utility.yul\":2217:2288   */\n      tag_419\n        /* \"#utility.yul\":2285:2286   */\n      0x00\n        /* \"#utility.yul\":2274:2283   */\n      dup4\n        /* \"#utility.yul\":2270:2287   */\n      add\n        /* \"#utility.yul\":2261:2267   */\n      dup5\n        /* \"#utility.yul\":2217:2288   */\n      tag_309\n      jump\t// in\n    tag_419:\n        /* \"#utility.yul\":2073:2295   */\n      swap3\n      swap2\n      pop\n      pop\n      jump\t// out\n        /* \"#utility.yul\":2301:2423   */\n    tag_318:\n        /* \"#utility.yul\":2374:2398   */\n      tag_421\n        /* \"#utility.yul\":2392:2397   */\n      dup2\n        /* \"#utility.yul\":2374:2398   */\n      tag_316\n      jump\t// in\n    tag_421:\n        /* \"#utility.yul\":2367:2372   */\n      dup2\n        /* \"#utility.yul\":2364:2399   */\n      eq\n        /* \"#utility.yul\":2354:2417   */\n      tag_422\n      jumpi\n        /* \"#utility.yul\":2413:2414   */\n      0x00\n        /* \"#utility.yul\":2410:2411   */\n      dup1\n        /* \"#utility.yul\":2403:2415   */\n      revert\n        /* \"#utility.yul\":2354:2417   */\n    tag_422:\n        /* \"#utility.yul\":2301:2423   */\n      pop\n      jump\t// out\n        /* \"#utility.yul\":2429:2568   */\n    tag_319:\n        /* \"#utility.yul\":2475:2480   */\n      0x00\n        /* \"#utility.yul\":2513:2519   */\n      dup2\n        /* \"#utility.yul\":2500:2520   */\n      calldataload\n        /* \"#utility.yul\":2491:2520   */\n      swap1\n      pop\n        /* \"#utility.yul\":2529:2562   */\n      tag_424\n        /* \"#utility.yul\":2556:2561   */\n      dup2\n        /* \"#utility.yul\":2529:2562   */\n      tag_318\n      jump\t// in\n    tag_424:\n        /* \"#utility.yul\":2429:2568   */\n      swap3\n      swap2\n      pop\n      pop\n      jump\t// out\n        /* \"#utility.yul\":2574:2903   */\n    tag_56:\n        /* \"#utility.yul\":2633:2639   */\n      0x00\n        /* \"#utility.yul\":2682:2684   */\n      0x20\n        /* \"#utility.yul\":2670:2679   */\n      dup3\n        /* \"#utility.yul\":2661:2668   */\n      dup5\n        /* \"#utility.yul\":2657:2680   */\n      sub\n        /* \"#utility.yul\":2653:2685   */\n      slt\n        /* \"#utility.yul\":2650:2769   */\n      iszero\n      tag_426\n      jumpi\n        /* \"#utility.yul\":2688:2767   */\n      tag_427\n      tag_311\n      jump\t// in\n    tag_427:\n        /* \"#utility.yul\":2650:2769   */\n    tag_426:\n        /* \"#utility.yul\":2808:2809   */\n      0x00\n        /* \"#utility.yul\":2833:2886   */\n      tag_428\n        /* \"#utility.yul\":2878:2885   */\n      dup5\n        /* \"#utility.yul\":2869:2875   */\n      dup3\n        /* \"#utility.yul\":2858:2867   */\n      dup6\n        /* \"#utility.yul\":2854:2876   */\n      add\n        /* \"#utility.yul\":2833:2886   */\n      tag_319\n      jump\t// in\n    tag_428:\n        /* \"#utility.yul\":2823:2886   */\n      swap2\n      pop\n        /* \"#utility.yul\":2779:2896   */\n      pop\n        /* \"#utility.yul\":2574:2903   */\n      swap3\n      swap2\n      pop\n      pop\n      jump\t// out\n        /* \"#utility.yul\":2909:2999   */\n    tag_320:\n        /* \"#utility.yul\":2943:2950   */\n      0x00\n        /* \"#utility.yul\":2986:2991   */\n      dup2\n        /* \"#utility.yul\":2979:2992   */\n      iszero\n        /* \"#utility.yul\":2972:2993   */\n      iszero\n        /* \"#utility.yul\":2961:2993   */\n      swap1\n      pop\n        /* \"#utility.yul\":2909:2999   */\n      swap2\n      swap1\n      pop\n      jump\t// out\n        /* \"#utility.yul\":3005:3114   */\n    tag_321:\n        /* \"#utility.yul\":3086:3107   */\n      tag_431\n        /* \"#utility.yul\":3101:3106   */\n      dup2\n        /* \"#utility.yul\":3086:3107   */\n      tag_320\n      jump\t// in\n    tag_431:\n        /* \"#utility.yul\":3081:3084   */\n      dup3\n        /* \"#utility.yul\":3074:3108   */\n      mstore\n        /* \"#utility.yul\":3005:3114   */\n      pop\n      pop\n      jump\t// out\n        /* \"#utility.yul\":3120:3330   */\n    tag_71:\n        /* \"#utility.yul\":3207:3211   */\n      0x00\n        /* \"#utility.yul\":3245:3247   */\n      0x20\n        /* \"#utility.yul\":3234:3243   */\n      dup3\n        /* \"#utility.yul\":3230:3248   */\n      add\n        /* \"#utility.yul\":3222:3248   */\n      swap1\n      pop\n        /* \"#utility.yul\":3258:3323   */\n      tag_433\n        /* \"#utility.yul\":3320:3321   */\n      0x00\n        /* \"#utility.yul\":3309:3318   */\n      dup4\n        /* \"#utility.yul\":3305:3322   */\n      add\n        /* \"#utility.yul\":3296:3302   */\n      dup5\n        /* \"#utility.yul\":3258:3323   */\n      tag_321\n      jump\t// in\n    tag_433:\n        /* \"#utility.yul\":3120:3330   */\n      swap3\n      swap2\n      pop\n      pop\n      jump\t// out\n        /* \"#utility.yul\":3336:3434   */\n    tag_322:\n        /* \"#utility.yul\":3387:3393   */\n      0x00\n        /* \"#utility.yul\":3421:3426   */\n      dup2\n        /* \"#utility.yul\":3415:3427   */\n      mload\n        /* \"#utility.yul\":3405:3427   */\n      swap1\n      pop\n        /* \"#utility.yul\":3336:3434   */\n      swap2\n      swap1\n      pop\n      jump\t// out\n        /* \"#utility.yul\":3440:3608   */\n    tag_323:\n        /* \"#utility.yul\":3523:3534   */\n      0x00\n        /* \"#utility.yul\":3557:3563   */\n      dup3\n        /* \"#utility.yul\":3552:3555   */\n      dup3\n        /* \"#utility.yul\":3545:3564   */\n      mstore\n        /* \"#utility.yul\":3597:3601   */\n      0x20\n        /* \"#utility.yul\":3592:3595   */\n      dup3\n        /* \"#utility.yul\":3588:3602   */\n      add\n        /* \"#utility.yul\":3573:3602   */\n      swap1\n      pop\n        /* \"#utility.yul\":3440:3608   */\n      swap3\n      swap2\n      pop\n      pop\n      jump\t// out\n        /* \"#utility.yul\":3614:3860   */\n    tag_324:\n        /* \"#utility.yul\":3695:3696   */\n      0x00\n        /* \"#utility.yul\":3705:3818   */\n    tag_437:\n        /* \"#utility.yul\":3719:3725   */\n      dup4\n        /* \"#utility.yul\":3716:3717   */\n      dup2\n        /* \"#utility.yul\":3713:3726   */\n      lt\n        /* \"#utility.yul\":3705:3818   */\n      iszero\n      tag_439\n      jumpi\n        /* \"#utility.yul\":3804:3805   */\n      dup1\n        /* \"#utility.yul\":3799:3802   */\n      dup3\n        /* \"#utility.yul\":3795:3806   */\n      add\n        /* \"#utility.yul\":3789:3807   */\n      mload\n        /* \"#utility.yul\":3785:3786   */\n      dup2\n        /* \"#utility.yul\":3780:3783   */\n      dup5\n        /* \"#utility.yul\":3776:3787   */\n      add\n        /* \"#utility.yul\":3769:3808   */\n      mstore\n        /* \"#utility.yul\":3741:3743   */\n      0x20\n        /* \"#utility.yul\":3738:3739   */\n      dup2\n        /* \"#utility.yul\":3734:3744   */\n      add\n        /* \"#utility.yul\":3729:3744   */\n      swap1\n      pop\n        /* \"#utility.yul\":3705:3818   */\n      jump(tag_437)\n    tag_439:\n        /* \"#utility.yul\":3852:3853   */\n      0x00\n        /* \"#utility.yul\":3843:3849   */\n      dup5\n        /* \"#utility.yul\":3838:3841   */\n      dup5\n        /* \"#utility.yul\":3834:3850   */\n      add\n        /* \"#utility.yul\":3827:3854   */\n      mstore\n        /* \"#utility.yul\":3676:3860   */\n      pop\n        /* \"#utility.yul\":3614:3860   */\n      pop\n      pop\n      pop\n      jump\t// out\n        /* \"#utility.yul\":3866:3968   */\n    tag_325:\n        /* \"#utility.yul\":3907:3913   */\n      0x00\n        /* \"#utility.yul\":3958:3960   */\n      0x1f\n        /* \"#utility.yul\":3954:3961   */\n      not\n        /* \"#utility.yul\":3949:3951   */\n      0x1f\n        /* \"#utility.yul\":3942:3947   */\n      dup4\n        /* \"#utility.yul\":3938:3952   */\n      add\n        /* \"#utility.yul\":3934:3962   */\n      and\n        /* \"#utility.yul\":3924:3962   */\n      swap1\n      pop\n        /* \"#utility.yul\":3866:3968   */\n      swap2\n      swap1\n      pop\n      jump\t// out\n        /* \"#utility.yul\":3974:4347   */\n    tag_326:\n        /* \"#utility.yul\":4060:4063   */\n      0x00\n        /* \"#utility.yul\":4088:4126   */\n      tag_442\n        /* \"#utility.yul\":4120:4125   */\n      dup3\n        /* \"#utility.yul\":4088:4126   */\n      tag_322\n      jump\t// in\n    tag_442:\n        /* \"#utility.yul\":4142:4212   */\n      tag_443\n        /* \"#utility.yul\":4205:4211   */\n      dup2\n        /* \"#utility.yul\":4200:4203   */\n      dup6\n        /* \"#utility.yul\":4142:4212   */\n      tag_323\n      jump\t// in\n    tag_443:\n        /* \"#utility.yul\":4135:4212   */\n      swap4\n      pop\n        /* \"#utility.yul\":4221:4286   */\n      tag_444\n        /* \"#utility.yul\":4279:4285   */\n      dup2\n        /* \"#utility.yul\":4274:4277   */\n      dup6\n        /* \"#utility.yul\":4267:4271   */\n      0x20\n        /* \"#utility.yul\":4260:4265   */\n      dup7\n        /* \"#utility.yul\":4256:4272   */\n      add\n        /* \"#utility.yul\":4221:4286   */\n      tag_324\n      jump\t// in\n    tag_444:\n        /* \"#utility.yul\":4311:4340   */\n      tag_445\n        /* \"#utility.yul\":4333:4339   */\n      dup2\n        /* \"#utility.yul\":4311:4340   */\n      tag_325\n      jump\t// in\n    tag_445:\n        /* \"#utility.yul\":4306:4309   */\n      dup5\n        /* \"#utility.yul\":4302:4341   */\n      add\n        /* \"#utility.yul\":4295:4341   */\n      swap2\n      pop\n        /* \"#utility.yul\":4064:4347   */\n      pop\n        /* \"#utility.yul\":3974:4347   */\n      swap3\n      swap2\n      pop\n      pop\n      jump\t// out\n        /* \"#utility.yul\":4353:5092   */\n    tag_77:\n        /* \"#utility.yul\":4570:4574   */\n      0x00\n        /* \"#utility.yul\":4608:4611   */\n      0xa0\n        /* \"#utility.yul\":4597:4606   */\n      dup3\n        /* \"#utility.yul\":4593:4612   */\n      add\n        /* \"#utility.yul\":4585:4612   */\n      swap1\n      pop\n        /* \"#utility.yul\":4622:4693   */\n      tag_447\n        /* \"#utility.yul\":4690:4691   */\n      0x00\n        /* \"#utility.yul\":4679:4688   */\n      dup4\n        /* \"#utility.yul\":4675:4692   */\n      add\n        /* \"#utility.yul\":4666:4672   */\n      dup9\n        /* \"#utility.yul\":4622:4693   */\n      tag_317\n      jump\t// in\n    tag_447:\n        /* \"#utility.yul\":4703:4775   */\n      tag_448\n        /* \"#utility.yul\":4771:4773   */\n      0x20\n        /* \"#utility.yul\":4760:4769   */\n      dup4\n        /* \"#utility.yul\":4756:4774   */\n      add\n        /* \"#utility.yul\":4747:4753   */\n      dup8\n        /* \"#utility.yul\":4703:4775   */\n      tag_309\n      jump\t// in\n    tag_448:\n        /* \"#utility.yul\":4822:4831   */\n      dup2\n        /* \"#utility.yul\":4816:4820   */\n      dup2\n        /* \"#utility.yul\":4812:4832   */\n      sub\n        /* \"#utility.yul\":4807:4809   */\n      0x40\n        /* \"#utility.yul\":4796:4805   */\n      dup4\n        /* \"#utility.yul\":4792:4810   */\n      add\n        /* \"#utility.yul\":4785:4833   */\n      mstore\n        /* \"#utility.yul\":4850:4926   */\n      tag_449\n        /* \"#utility.yul\":4921:4925   */\n      dup2\n        /* \"#utility.yul\":4912:4918   */\n      dup7\n        /* \"#utility.yul\":4850:4926   */\n      tag_326\n      jump\t// in\n    tag_449:\n        /* \"#utility.yul\":4842:4926   */\n      swap1\n      pop\n        /* \"#utility.yul\":4936:5002   */\n      tag_450\n        /* \"#utility.yul\":4998:5000   */\n      0x60\n        /* \"#utility.yul\":4987:4996   */\n      dup4\n        /* \"#utility.yul\":4983:5001   */\n      add\n        /* \"#utility.yul\":4974:4980   */\n      dup6\n        /* \"#utility.yul\":4936:5002   */\n      tag_321\n      jump\t// in\n    tag_450:\n        /* \"#utility.yul\":5012:5085   */\n      tag_451\n        /* \"#utility.yul\":5080:5083   */\n      0x80\n        /* \"#utility.yul\":5069:5078   */\n      dup4\n        /* \"#utility.yul\":5065:5084   */\n      add\n        /* \"#utility.yul\":5056:5062   */\n      dup5\n        /* \"#utility.yul\":5012:5085   */\n      tag_309\n      jump\t// in\n    tag_451:\n        /* \"#utility.yul\":4353:5092   */\n      swap7\n      swap6\n      pop\n      pop\n      pop\n      pop\n      pop\n      pop\n      jump\t// out\n        /* \"#utility.yul\":5098:5572   */\n    tag_90:\n        /* \"#utility.yul\":5166:5172   */\n      0x00\n        /* \"#utility.yul\":5174:5180   */\n      dup1\n        /* \"#utility.yul\":5223:5225   */\n      0x40\n        /* \"#utility.yul\":5211:5220   */\n      dup4\n        /* \"#utility.yul\":5202:5209   */\n      dup6\n        /* \"#utility.yul\":5198:5221   */\n      sub\n        /* \"#utility.yul\":5194:5226   */\n      slt\n        /* \"#utility.yul\":5191:5310   */\n      iszero\n      tag_453\n      jumpi\n        /* \"#utility.yul\":5229:5308   */\n      tag_454\n      tag_311\n      jump\t// in\n    tag_454:\n        /* \"#utility.yul\":5191:5310   */\n    tag_453:\n        /* \"#utility.yul\":5349:5350   */\n      0x00\n        /* \"#utility.yul\":5374:5427   */\n      tag_455\n        /* \"#utility.yul\":5419:5426   */\n      dup6\n        /* \"#utility.yul\":5410:5416   */\n      dup3\n        /* \"#utility.yul\":5399:5408   */\n      dup7\n        /* \"#utility.yul\":5395:5417   */\n      add\n        /* \"#utility.yul\":5374:5427   */\n      tag_314\n      jump\t// in\n    tag_455:\n        /* \"#utility.yul\":5364:5427   */\n      swap3\n      pop\n        /* \"#utility.yul\":5320:5437   */\n      pop\n        /* \"#utility.yul\":5476:5478   */\n      0x20\n        /* \"#utility.yul\":5502:5555   */\n      tag_456\n        /* \"#utility.yul\":5547:5554   */\n      dup6\n        /* \"#utility.yul\":5538:5544   */\n      dup3\n        /* \"#utility.yul\":5527:5536   */\n      dup7\n        /* \"#utility.yul\":5523:5545   */\n      add\n        /* \"#utility.yul\":5502:5555   */\n      tag_319\n      jump\t// in\n    tag_456:\n        /* \"#utility.yul\":5492:5555   */\n      swap2\n      pop\n        /* \"#utility.yul\":5447:5565   */\n      pop\n        /* \"#utility.yul\":5098:5572   */\n      swap3\n      pop\n      swap3\n      swap1\n      pop\n      jump\t// out\n        /* \"#utility.yul\":5578:5692   */\n    tag_327:\n        /* \"#utility.yul\":5645:5651   */\n      0x00\n        /* \"#utility.yul\":5679:5684   */\n      dup2\n        /* \"#utility.yul\":5673:5685   */\n      mload\n        /* \"#utility.yul\":5663:5685   */\n      swap1\n      pop\n        /* \"#utility.yul\":5578:5692   */\n      swap2\n      swap1\n      pop\n      jump\t// out\n        /* \"#utility.yul\":5698:5882   */\n    tag_328:\n        /* \"#utility.yul\":5797:5808   */\n      0x00\n        /* \"#utility.yul\":5831:5837   */\n      dup3\n        /* \"#utility.yul\":5826:5829   */\n      dup3\n        /* \"#utility.yul\":5819:5838   */\n      mstore\n        /* \"#utility.yul\":5871:5875   */\n      0x20\n        /* \"#utility.yul\":5866:5869   */\n      dup3\n        /* \"#utility.yul\":5862:5876   */\n      add\n        /* \"#utility.yul\":5847:5876   */\n      swap1\n      pop\n        /* \"#utility.yul\":5698:5882   */\n      swap3\n      swap2\n      pop\n      pop\n      jump\t// out\n        /* \"#utility.yul\":5888:6020   */\n    tag_329:\n        /* \"#utility.yul\":5955:5959   */\n      0x00\n        /* \"#utility.yul\":5978:5981   */\n      dup2\n        /* \"#utility.yul\":5970:5981   */\n      swap1\n      pop\n        /* \"#utility.yul\":6008:6012   */\n      0x20\n        /* \"#utility.yul\":6003:6006   */\n      dup3\n        /* \"#utility.yul\":5999:6013   */\n      add\n        /* \"#utility.yul\":5991:6013   */\n      swap1\n      pop\n        /* \"#utility.yul\":5888:6020   */\n      swap2\n      swap1\n      pop\n      jump\t// out\n        /* \"#utility.yul\":6026:6134   */\n    tag_330:\n        /* \"#utility.yul\":6103:6127   */\n      tag_461\n        /* \"#utility.yul\":6121:6126   */\n      dup2\n        /* \"#utility.yul\":6103:6127   */\n      tag_316\n      jump\t// in\n    tag_461:\n        /* \"#utility.yul\":6098:6101   */\n      dup3\n        /* \"#utility.yul\":6091:6128   */\n      mstore\n        /* \"#utility.yul\":6026:6134   */\n      pop\n      pop\n      jump\t// out\n        /* \"#utility.yul\":6140:6319   */\n    tag_331:\n        /* \"#utility.yul\":6209:6219   */\n      0x00\n        /* \"#utility.yul\":6230:6276   */\n      tag_463\n        /* \"#utility.yul\":6272:6275   */\n      dup4\n        /* \"#utility.yul\":6264:6270   */\n      dup4\n        /* \"#utility.yul\":6230:6276   */\n      tag_330\n      jump\t// in\n    tag_463:\n        /* \"#utility.yul\":6308:6312   */\n      0x20\n        /* \"#utility.yul\":6303:6306   */\n      dup4\n        /* \"#utility.yul\":6299:6313   */\n      add\n        /* \"#utility.yul\":6285:6313   */\n      swap1\n      pop\n        /* \"#utility.yul\":6140:6319   */\n      swap3\n      swap2\n      pop\n      pop\n      jump\t// out\n        /* \"#utility.yul\":6325:6438   */\n    tag_332:\n        /* \"#utility.yul\":6395:6399   */\n      0x00\n        /* \"#utility.yul\":6427:6431   */\n      0x20\n        /* \"#utility.yul\":6422:6425   */\n      dup3\n        /* \"#utility.yul\":6418:6432   */\n      add\n        /* \"#utility.yul\":6410:6432   */\n      swap1\n      pop\n        /* \"#utility.yul\":6325:6438   */\n      swap2\n      swap1\n      pop\n      jump\t// out\n        /* \"#utility.yul\":6474:7206   */\n    tag_333:\n        /* \"#utility.yul\":6593:6596   */\n      0x00\n        /* \"#utility.yul\":6622:6676   */\n      tag_466\n        /* \"#utility.yul\":6670:6675   */\n      dup3\n        /* \"#utility.yul\":6622:6676   */\n      tag_327\n      jump\t// in\n    tag_466:\n        /* \"#utility.yul\":6692:6778   */\n      tag_467\n        /* \"#utility.yul\":6771:6777   */\n      dup2\n        /* \"#utility.yul\":6766:6769   */\n      dup6\n        /* \"#utility.yul\":6692:6778   */\n      tag_328\n      jump\t// in\n    tag_467:\n        /* \"#utility.yul\":6685:6778   */\n      swap4\n      pop\n        /* \"#utility.yul\":6802:6858   */\n      tag_468\n        /* \"#utility.yul\":6852:6857   */\n      dup4\n        /* \"#utility.yul\":6802:6858   */\n      tag_329\n      jump\t// in\n    tag_468:\n        /* \"#utility.yul\":6881:6888   */\n      dup1\n        /* \"#utility.yul\":6912:6913   */\n      0x00\n        /* \"#utility.yul\":6897:7181   */\n    tag_469:\n        /* \"#utility.yul\":6922:6928   */\n      dup4\n        /* \"#utility.yul\":6919:6920   */\n      dup2\n        /* \"#utility.yul\":6916:6929   */\n      lt\n        /* \"#utility.yul\":6897:7181   */\n      iszero\n      tag_471\n      jumpi\n        /* \"#utility.yul\":6998:7004   */\n      dup2\n        /* \"#utility.yul\":6992:7005   */\n      mload\n        /* \"#utility.yul\":7025:7088   */\n      tag_472\n        /* \"#utility.yul\":7084:7087   */\n      dup9\n        /* \"#utility.yul\":7069:7082   */\n      dup3\n        /* \"#utility.yul\":7025:7088   */\n      tag_331\n      jump\t// in\n    tag_472:\n        /* \"#utility.yul\":7018:7088   */\n      swap8\n      pop\n        /* \"#utility.yul\":7111:7171   */\n      tag_473\n        /* \"#utility.yul\":7164:7170   */\n      dup4\n        /* \"#utility.yul\":7111:7171   */\n      tag_332\n      jump\t// in\n    tag_473:\n        /* \"#utility.yul\":7101:7171   */\n      swap3\n      pop\n        /* \"#utility.yul\":6957:7181   */\n      pop\n        /* \"#utility.yul\":6944:6945   */\n      0x01\n        /* \"#utility.yul\":6941:6942   */\n      dup2\n        /* \"#utility.yul\":6937:6946   */\n      add\n        /* \"#utility.yul\":6932:6946   */\n      swap1\n      pop\n        /* \"#utility.yul\":6897:7181   */\n      jump(tag_469)\n    tag_471:\n        /* \"#utility.yul\":6901:6915   */\n      pop\n        /* \"#utility.yul\":7197:7200   */\n      dup6\n        /* \"#utility.yul\":7190:7200   */\n      swap4\n      pop\n        /* \"#utility.yul\":6598:7206   */\n      pop\n      pop\n      pop\n        /* \"#utility.yul\":6474:7206   */\n      swap3\n      swap2\n      pop\n      pop\n      jump\t// out\n        /* \"#utility.yul\":7212:7585   */\n    tag_107:\n        /* \"#utility.yul\":7355:7359   */\n      0x00\n        /* \"#utility.yul\":7393:7395   */\n      0x20\n        /* \"#utility.yul\":7382:7391   */\n      dup3\n        /* \"#utility.yul\":7378:7396   */\n      add\n        /* \"#utility.yul\":7370:7396   */\n      swap1\n      pop\n        /* \"#utility.yul\":7442:7451   */\n      dup2\n        /* \"#utility.yul\":7436:7440   */\n      dup2\n        /* \"#utility.yul\":7432:7452   */\n      sub\n        /* \"#utility.yul\":7428:7429   */\n      0x00\n        /* \"#utility.yul\":7417:7426   */\n      dup4\n        /* \"#utility.yul\":7413:7430   */\n      add\n        /* \"#utility.yul\":7406:7453   */\n      mstore\n        /* \"#utility.yul\":7470:7578   */\n      tag_475\n        /* \"#utility.yul\":7573:7577   */\n      dup2\n        /* \"#utility.yul\":7564:7570   */\n      dup5\n        /* \"#utility.yul\":7470:7578   */\n      tag_333\n      jump\t// in\n    tag_475:\n        /* \"#utility.yul\":7462:7578   */\n      swap1\n      pop\n        /* \"#utility.yul\":7212:7585   */\n      swap3\n      swap2\n      pop\n      pop\n      jump\t// out\n        /* \"#utility.yul\":7591:7708   */\n    tag_334:\n        /* \"#utility.yul\":7700:7701   */\n      0x00\n        /* \"#utility.yul\":7697:7698   */\n      dup1\n        /* \"#utility.yul\":7690:7702   */\n      revert\n        /* \"#utility.yul\":7714:7831   */\n    tag_335:\n        /* \"#utility.yul\":7823:7824   */\n      0x00\n        /* \"#utility.yul\":7820:7821   */\n      dup1\n        /* \"#utility.yul\":7813:7825   */\n      revert\n        /* \"#utility.yul\":7837:8017   */\n    tag_336:\n        /* \"#utility.yul\":7885:7962   */\n      0x4e487b7100000000000000000000000000000000000000000000000000000000\n        /* \"#utility.yul\":7882:7883   */\n      0x00\n        /* \"#utility.yul\":7875:7963   */\n      mstore\n        /* \"#utility.yul\":7982:7986   */\n      0x41\n        /* \"#utility.yul\":7979:7980   */\n      0x04\n        /* \"#utility.yul\":7972:7987   */\n      mstore\n        /* \"#utility.yul\":8006:8010   */\n      0x24\n        /* \"#utility.yul\":8003:8004   */\n      0x00\n        /* \"#utility.yul\":7996:8011   */\n      revert\n        /* \"#utility.yul\":8023:8304   */\n    tag_337:\n        /* \"#utility.yul\":8106:8133   */\n      tag_480\n        /* \"#utility.yul\":8128:8132   */\n      dup3\n        /* \"#utility.yul\":8106:8133   */\n      tag_325\n      jump\t// in\n    tag_480:\n        /* \"#utility.yul\":8098:8104   */\n      dup2\n        /* \"#utility.yul\":8094:8134   */\n      add\n        /* \"#utility.yul\":8236:8242   */\n      dup2\n        /* \"#utility.yul\":8224:8234   */\n      dup2\n        /* \"#utility.yul\":8221:8243   */\n      lt\n        /* \"#utility.yul\":8200:8218   */\n      0xffffffffffffffff\n        /* \"#utility.yul\":8188:8198   */\n      dup3\n        /* \"#utility.yul\":8185:8219   */\n      gt\n        /* \"#utility.yul\":8182:8244   */\n      or\n        /* \"#utility.yul\":8179:8267   */\n      iszero\n      tag_481\n      jumpi\n        /* \"#utility.yul\":8247:8265   */\n      tag_482\n      tag_336\n      jump\t// in\n    tag_482:\n        /* \"#utility.yul\":8179:8267   */\n    tag_481:\n        /* \"#utility.yul\":8287:8297   */\n      dup1\n        /* \"#utility.yul\":8283:8285   */\n      0x40\n        /* \"#utility.yul\":8276:8298   */\n      mstore\n        /* \"#utility.yul\":8066:8304   */\n      pop\n        /* \"#utility.yul\":8023:8304   */\n      pop\n      pop\n      jump\t// out\n        /* \"#utility.yul\":8310:8439   */\n    tag_338:\n        /* \"#utility.yul\":8344:8350   */\n      0x00\n        /* \"#utility.yul\":8371:8391   */\n      tag_484\n      tag_310\n      jump\t// in\n    tag_484:\n        /* \"#utility.yul\":8361:8391   */\n      swap1\n      pop\n        /* \"#utility.yul\":8400:8433   */\n      tag_485\n        /* \"#utility.yul\":8428:8432   */\n      dup3\n        /* \"#utility.yul\":8420:8426   */\n      dup3\n        /* \"#utility.yul\":8400:8433   */\n      tag_337\n      jump\t// in\n    tag_485:\n        /* \"#utility.yul\":8310:8439   */\n      swap2\n      swap1\n      pop\n      jump\t// out\n        /* \"#utility.yul\":8445:8752   */\n    tag_339:\n        /* \"#utility.yul\":8506:8510   */\n      0x00\n        /* \"#utility.yul\":8596:8614   */\n      0xffffffffffffffff\n        /* \"#utility.yul\":8588:8594   */\n      dup3\n        /* \"#utility.yul\":8585:8615   */\n      gt\n        /* \"#utility.yul\":8582:8638   */\n      iszero\n      tag_487\n      jumpi\n        /* \"#utility.yul\":8618:8636   */\n      tag_488\n      tag_336\n      jump\t// in\n    tag_488:\n        /* \"#utility.yul\":8582:8638   */\n    tag_487:\n        /* \"#utility.yul\":8656:8685   */\n      tag_489\n        /* \"#utility.yul\":8678:8684   */\n      dup3\n        /* \"#utility.yul\":8656:8685   */\n      tag_325\n      jump\t// in\n    tag_489:\n        /* \"#utility.yul\":8648:8685   */\n      swap1\n      pop\n        /* \"#utility.yul\":8740:8744   */\n      0x20\n        /* \"#utility.yul\":8734:8738   */\n      dup2\n        /* \"#utility.yul\":8730:8745   */\n      add\n        /* \"#utility.yul\":8722:8745   */\n      swap1\n      pop\n        /* \"#utility.yul\":8445:8752   */\n      swap2\n      swap1\n      pop\n      jump\t// out\n        /* \"#utility.yul\":8758:8904   */\n    tag_340:\n        /* \"#utility.yul\":8855:8861   */\n      dup3\n        /* \"#utility.yul\":8850:8853   */\n      dup2\n        /* \"#utility.yul\":8845:8848   */\n      dup4\n        /* \"#utility.yul\":8832:8862   */\n      calldatacopy\n        /* \"#utility.yul\":8896:8897   */\n      0x00\n        /* \"#utility.yul\":8887:8893   */\n      dup4\n        /* \"#utility.yul\":8882:8885   */\n      dup4\n        /* \"#utility.yul\":8878:8894   */\n      add\n        /* \"#utility.yul\":8871:8898   */\n      mstore\n        /* \"#utility.yul\":8758:8904   */\n      pop\n      pop\n      pop\n      jump\t// out\n        /* \"#utility.yul\":8910:9333   */\n    tag_341:\n        /* \"#utility.yul\":8987:8992   */\n      0x00\n        /* \"#utility.yul\":9012:9077   */\n      tag_492\n        /* \"#utility.yul\":9028:9076   */\n      tag_493\n        /* \"#utility.yul\":9069:9075   */\n      dup5\n        /* \"#utility.yul\":9028:9076   */\n      tag_339\n      jump\t// in\n    tag_493:\n        /* \"#utility.yul\":9012:9077   */\n      tag_338\n      jump\t// in\n    tag_492:\n        /* \"#utility.yul\":9003:9077   */\n      swap1\n      pop\n        /* \"#utility.yul\":9100:9106   */\n      dup3\n        /* \"#utility.yul\":9093:9098   */\n      dup2\n        /* \"#utility.yul\":9086:9107   */\n      mstore\n        /* \"#utility.yul\":9138:9142   */\n      0x20\n        /* \"#utility.yul\":9131:9136   */\n      dup2\n        /* \"#utility.yul\":9127:9143   */\n      add\n        /* \"#utility.yul\":9176:9179   */\n      dup5\n        /* \"#utility.yul\":9167:9173   */\n      dup5\n        /* \"#utility.yul\":9162:9165   */\n      dup5\n        /* \"#utility.yul\":9158:9174   */\n      add\n        /* \"#utility.yul\":9155:9180   */\n      gt\n        /* \"#utility.yul\":9152:9264   */\n      iszero\n      tag_494\n      jumpi\n        /* \"#utility.yul\":9183:9262   */\n      tag_495\n      tag_335\n      jump\t// in\n    tag_495:\n        /* \"#utility.yul\":9152:9264   */\n    tag_494:\n        /* \"#utility.yul\":9273:9327   */\n      tag_496\n        /* \"#utility.yul\":9320:9326   */\n      dup5\n        /* \"#utility.yul\":9315:9318   */\n      dup3\n        /* \"#utility.yul\":9310:9313   */\n      dup6\n        /* \"#utility.yul\":9273:9327   */\n      tag_340\n      jump\t// in\n    tag_496:\n        /* \"#utility.yul\":8993:9333   */\n      pop\n        /* \"#utility.yul\":8910:9333   */\n      swap4\n      swap3\n      pop\n      pop\n      pop\n      jump\t// out\n        /* \"#utility.yul\":9352:9690   */\n    tag_342:\n        /* \"#utility.yul\":9407:9412   */\n      0x00\n        /* \"#utility.yul\":9456:9459   */\n      dup3\n        /* \"#utility.yul\":9449:9453   */\n      0x1f\n        /* \"#utility.yul\":9441:9447   */\n      dup4\n        /* \"#utility.yul\":9437:9454   */\n      add\n        /* \"#utility.yul\":9433:9460   */\n      slt\n        /* \"#utility.yul\":9423:9545   */\n      tag_498\n      jumpi\n        /* \"#utility.yul\":9464:9543   */\n      tag_499\n      tag_334\n      jump\t// in\n    tag_499:\n        /* \"#utility.yul\":9423:9545   */\n    tag_498:\n        /* \"#utility.yul\":9581:9587   */\n      dup2\n        /* \"#utility.yul\":9568:9588   */\n      calldataload\n        /* \"#utility.yul\":9606:9684   */\n      tag_500\n        /* \"#utility.yul\":9680:9683   */\n      dup5\n        /* \"#utility.yul\":9672:9678   */\n      dup3\n        /* \"#utility.yul\":9665:9669   */\n      0x20\n        /* \"#utility.yul\":9657:9663   */\n      dup7\n        /* \"#utility.yul\":9653:9670   */\n      add\n        /* \"#utility.yul\":9606:9684   */\n      tag_341\n      jump\t// in\n    tag_500:\n        /* \"#utility.yul\":9597:9684   */\n      swap2\n      pop\n        /* \"#utility.yul\":9413:9690   */\n      pop\n        /* \"#utility.yul\":9352:9690   */\n      swap3\n      swap2\n      pop\n      pop\n      jump\t// out\n        /* \"#utility.yul\":9696:10493   */\n    tag_115:\n        /* \"#utility.yul\":9782:9788   */\n      0x00\n        /* \"#utility.yul\":9790:9796   */\n      dup1\n        /* \"#utility.yul\":9798:9804   */\n      0x00\n        /* \"#utility.yul\":9847:9849   */\n      0x60\n        /* \"#utility.yul\":9835:9844   */\n      dup5\n        /* \"#utility.yul\":9826:9833   */\n      dup7\n        /* \"#utility.yul\":9822:9845   */\n      sub\n        /* \"#utility.yul\":9818:9850   */\n      slt\n        /* \"#utility.yul\":9815:9934   */\n      iszero\n      tag_502\n      jumpi\n        /* \"#utility.yul\":9853:9932   */\n      tag_503\n      tag_311\n      jump\t// in\n    tag_503:\n        /* \"#utility.yul\":9815:9934   */\n    tag_502:\n        /* \"#utility.yul\":9973:9974   */\n      0x00\n        /* \"#utility.yul\":9998:10051   */\n      tag_504\n        /* \"#utility.yul\":10043:10050   */\n      dup7\n        /* \"#utility.yul\":10034:10040   */\n      dup3\n        /* \"#utility.yul\":10023:10032   */\n      dup8\n        /* \"#utility.yul\":10019:10041   */\n      add\n        /* \"#utility.yul\":9998:10051   */\n      tag_319\n      jump\t// in\n    tag_504:\n        /* \"#utility.yul\":9988:10051   */\n      swap4\n      pop\n        /* \"#utility.yul\":9944:10061   */\n      pop\n        /* \"#utility.yul\":10100:10102   */\n      0x20\n        /* \"#utility.yul\":10126:10179   */\n      tag_505\n        /* \"#utility.yul\":10171:10178   */\n      dup7\n        /* \"#utility.yul\":10162:10168   */\n      dup3\n        /* \"#utility.yul\":10151:10160   */\n      dup8\n        /* \"#utility.yul\":10147:10169   */\n      add\n        /* \"#utility.yul\":10126:10179   */\n      tag_314\n      jump\t// in\n    tag_505:\n        /* \"#utility.yul\":10116:10179   */\n      swap3\n      pop\n        /* \"#utility.yul\":10071:10189   */\n      pop\n        /* \"#utility.yul\":10256:10258   */\n      0x40\n        /* \"#utility.yul\":10245:10254   */\n      dup5\n        /* \"#utility.yul\":10241:10259   */\n      add\n        /* \"#utility.yul\":10228:10260   */\n      calldataload\n        /* \"#utility.yul\":10287:10305   */\n      0xffffffffffffffff\n        /* \"#utility.yul\":10279:10285   */\n      dup2\n        /* \"#utility.yul\":10276:10306   */\n      gt\n        /* \"#utility.yul\":10273:10390   */\n      iszero\n      tag_506\n      jumpi\n        /* \"#utility.yul\":10309:10388   */\n      tag_507\n      tag_312\n      jump\t// in\n    tag_507:\n        /* \"#utility.yul\":10273:10390   */\n    tag_506:\n        /* \"#utility.yul\":10414:10476   */\n      tag_508\n        /* \"#utility.yul\":10468:10475   */\n      dup7\n        /* \"#utility.yul\":10459:10465   */\n      dup3\n        /* \"#utility.yul\":10448:10457   */\n      dup8\n        /* \"#utility.yul\":10444:10466   */\n      add\n        /* \"#utility.yul\":10414:10476   */\n      tag_342\n      jump\t// in\n    tag_508:\n        /* \"#utility.yul\":10404:10476   */\n      swap2\n      pop\n        /* \"#utility.yul\":10199:10486   */\n      pop\n        /* \"#utility.yul\":9696:10493   */\n      swap3\n      pop\n      swap3\n      pop\n      swap3\n      jump\t// out\n        /* \"#utility.yul\":10499:10598   */\n    tag_343:\n        /* \"#utility.yul\":10551:10557   */\n      0x00\n        /* \"#utility.yul\":10585:10590   */\n      dup2\n        /* \"#utility.yul\":10579:10591   */\n      mload\n        /* \"#utility.yul\":10569:10591   */\n      swap1\n      pop\n        /* \"#utility.yul\":10499:10598   */\n      swap2\n      swap1\n      pop\n      jump\t// out\n        /* \"#utility.yul\":10604:10773   */\n    tag_344:\n        /* \"#utility.yul\":10688:10699   */\n      0x00\n        /* \"#utility.yul\":10722:10728   */\n      dup3\n        /* \"#utility.yul\":10717:10720   */\n      dup3\n        /* \"#utility.yul\":10710:10729   */\n      mstore\n        /* \"#utility.yul\":10762:10766   */\n      0x20\n        /* \"#utility.yul\":10757:10760   */\n      dup3\n        /* \"#utility.yul\":10753:10767   */\n      add\n        /* \"#utility.yul\":10738:10767   */\n      swap1\n      pop\n        /* \"#utility.yul\":10604:10773   */\n      swap3\n      swap2\n      pop\n      pop\n      jump\t// out\n        /* \"#utility.yul\":10779:11156   */\n    tag_345:\n        /* \"#utility.yul\":10867:10870   */\n      0x00\n        /* \"#utility.yul\":10895:10934   */\n      tag_512\n        /* \"#utility.yul\":10928:10933   */\n      dup3\n        /* \"#utility.yul\":10895:10934   */\n      tag_343\n      jump\t// in\n    tag_512:\n        /* \"#utility.yul\":10950:11021   */\n      tag_513\n        /* \"#utility.yul\":11014:11020   */\n      dup2\n        /* \"#utility.yul\":11009:11012   */\n      dup6\n        /* \"#utility.yul\":10950:11021   */\n      tag_344\n      jump\t// in\n    tag_513:\n        /* \"#utility.yul\":10943:11021   */\n      swap4\n      pop\n        /* \"#utility.yul\":11030:11095   */\n      tag_514\n        /* \"#utility.yul\":11088:11094   */\n      dup2\n        /* \"#utility.yul\":11083:11086   */\n      dup6\n        /* \"#utility.yul\":11076:11080   */\n      0x20\n        /* \"#utility.yul\":11069:11074   */\n      dup7\n        /* \"#utility.yul\":11065:11081   */\n      add\n        /* \"#utility.yul\":11030:11095   */\n      tag_324\n      jump\t// in\n    tag_514:\n        /* \"#utility.yul\":11120:11149   */\n      tag_515\n        /* \"#utility.yul\":11142:11148   */\n      dup2\n        /* \"#utility.yul\":11120:11149   */\n      tag_325\n      jump\t// in\n    tag_515:\n        /* \"#utility.yul\":11115:11118   */\n      dup5\n        /* \"#utility.yul\":11111:11150   */\n      add\n        /* \"#utility.yul\":11104:11150   */\n      swap2\n      pop\n        /* \"#utility.yul\":10871:11156   */\n      pop\n        /* \"#utility.yul\":10779:11156   */\n      swap3\n      swap2\n      pop\n      pop\n      jump\t// out\n        /* \"#utility.yul\":11162:11475   */\n    tag_138:\n        /* \"#utility.yul\":11275:11279   */\n      0x00\n        /* \"#utility.yul\":11313:11315   */\n      0x20\n        /* \"#utility.yul\":11302:11311   */\n      dup3\n        /* \"#utility.yul\":11298:11316   */\n      add\n        /* \"#utility.yul\":11290:11316   */\n      swap1\n      pop\n        /* \"#utility.yul\":11362:11371   */\n      dup2\n        /* \"#utility.yul\":11356:11360   */\n      dup2\n        /* \"#utility.yul\":11352:11372   */\n      sub\n        /* \"#utility.yul\":11348:11349   */\n      0x00\n        /* \"#utility.yul\":11337:11346   */\n      dup4\n        /* \"#utility.yul\":11333:11350   */\n      add\n        /* \"#utility.yul\":11326:11373   */\n      mstore\n        /* \"#utility.yul\":11390:11468   */\n      tag_517\n        /* \"#utility.yul\":11463:11467   */\n      dup2\n        /* \"#utility.yul\":11454:11460   */\n      dup5\n        /* \"#utility.yul\":11390:11468   */\n      tag_345\n      jump\t// in\n    tag_517:\n        /* \"#utility.yul\":11382:11468   */\n      swap1\n      pop\n        /* \"#utility.yul\":11162:11475   */\n      swap3\n      swap2\n      pop\n      pop\n      jump\t// out\n        /* \"#utility.yul\":11481:11661   */\n    tag_346:\n        /* \"#utility.yul\":11529:11606   */\n      0x4e487b7100000000000000000000000000000000000000000000000000000000\n        /* \"#utility.yul\":11526:11527   */\n      0x00\n        /* \"#utility.yul\":11519:11607   */\n      mstore\n        /* \"#utility.yul\":11626:11630   */\n      0x12\n        /* \"#utility.yul\":11623:11624   */\n      0x04\n        /* \"#utility.yul\":11616:11631   */\n      mstore\n        /* \"#utility.yul\":11650:11654   */\n      0x24\n        /* \"#utility.yul\":11647:11648   */\n      0x00\n        /* \"#utility.yul\":11640:11655   */\n      revert\n        /* \"#utility.yul\":11667:11847   */\n    tag_347:\n        /* \"#utility.yul\":11715:11792   */\n      0x4e487b7100000000000000000000000000000000000000000000000000000000\n        /* \"#utility.yul\":11712:11713   */\n      0x00\n        /* \"#utility.yul\":11705:11793   */\n      mstore\n        /* \"#utility.yul\":11812:11816   */\n      0x11\n        /* \"#utility.yul\":11809:11810   */\n      0x04\n        /* \"#utility.yul\":11802:11817   */\n      mstore\n        /* \"#utility.yul\":11836:11840   */\n      0x24\n        /* \"#utility.yul\":11833:11834   */\n      0x00\n        /* \"#utility.yul\":11826:11841   */\n      revert\n        /* \"#utility.yul\":11853:12038   */\n    tag_143:\n        /* \"#utility.yul\":11893:11894   */\n      0x00\n        /* \"#utility.yul\":11910:11930   */\n      tag_521\n        /* \"#utility.yul\":11928:11929   */\n      dup3\n        /* \"#utility.yul\":11910:11930   */\n      tag_308\n      jump\t// in\n    tag_521:\n        /* \"#utility.yul\":11905:11930   */\n      swap2\n      pop\n        /* \"#utility.yul\":11944:11964   */\n      tag_522\n        /* \"#utility.yul\":11962:11963   */\n      dup4\n        /* \"#utility.yul\":11944:11964   */\n      tag_308\n      jump\t// in\n    tag_522:\n        /* \"#utility.yul\":11939:11964   */\n      swap3\n      pop\n        /* \"#utility.yul\":11983:11984   */\n      dup3\n        /* \"#utility.yul\":11973:12008   */\n      tag_523\n      jumpi\n        /* \"#utility.yul\":11988:12006   */\n      tag_524\n      tag_346\n      jump\t// in\n    tag_524:\n        /* \"#utility.yul\":11973:12008   */\n    tag_523:\n        /* \"#utility.yul\":12030:12031   */\n      dup3\n        /* \"#utility.yul\":12027:12028   */\n      dup3\n        /* \"#utility.yul\":12023:12032   */\n      div\n        /* \"#utility.yul\":12018:12032   */\n      swap1\n      pop\n        /* \"#utility.yul\":11853:12038   */\n      swap3\n      swap2\n      pop\n      pop\n      jump\t// out\n        /* \"#utility.yul\":12044:12454   */\n    tag_145:\n        /* \"#utility.yul\":12084:12091   */\n      0x00\n        /* \"#utility.yul\":12107:12127   */\n      tag_526\n        /* \"#utility.yul\":12125:12126   */\n      dup3\n        /* \"#utility.yul\":12107:12127   */\n      tag_308\n      jump\t// in\n    tag_526:\n        /* \"#utility.yul\":12102:12127   */\n      swap2\n      pop\n        /* \"#utility.yul\":12141:12161   */\n      tag_527\n        /* \"#utility.yul\":12159:12160   */\n      dup4\n        /* \"#utility.yul\":12141:12161   */\n      tag_308\n      jump\t// in\n    tag_527:\n        /* \"#utility.yul\":12136:12161   */\n      swap3\n      pop\n        /* \"#utility.yul\":12196:12197   */\n      dup3\n        /* \"#utility.yul\":12193:12194   */\n      dup3\n        /* \"#utility.yul\":12189:12198   */\n      mul\n        /* \"#utility.yul\":12218:12248   */\n      tag_528\n        /* \"#utility.yul\":12236:12247   */\n      dup2\n        /* \"#utility.yul\":12218:12248   */\n      tag_308\n      jump\t// in\n    tag_528:\n        /* \"#utility.yul\":12207:12248   */\n      swap2\n      pop\n        /* \"#utility.yul\":12397:12398   */\n      dup3\n        /* \"#utility.yul\":12388:12395   */\n      dup3\n        /* \"#utility.yul\":12384:12399   */\n      div\n        /* \"#utility.yul\":12381:12382   */\n      dup5\n        /* \"#utility.yul\":12378:12400   */\n      eq\n        /* \"#utility.yul\":12358:12359   */\n      dup4\n        /* \"#utility.yul\":12351:12360   */\n      iszero\n        /* \"#utility.yul\":12331:12414   */\n      or\n        /* \"#utility.yul\":12308:12447   */\n      tag_529\n      jumpi\n        /* \"#utility.yul\":12427:12445   */\n      tag_530\n      tag_347\n      jump\t// in\n    tag_530:\n        /* \"#utility.yul\":12308:12447   */\n    tag_529:\n        /* \"#utility.yul\":12092:12454   */\n      pop\n        /* \"#utility.yul\":12044:12454   */\n      swap3\n      swap2\n      pop\n      pop\n      jump\t// out\n        /* \"#utility.yul\":12460:12651   */\n    tag_147:\n        /* \"#utility.yul\":12500:12503   */\n      0x00\n        /* \"#utility.yul\":12519:12539   */\n      tag_532\n        /* \"#utility.yul\":12537:12538   */\n      dup3\n        /* \"#utility.yul\":12519:12539   */\n      tag_308\n      jump\t// in\n    tag_532:\n        /* \"#utility.yul\":12514:12539   */\n      swap2\n      pop\n        /* \"#utility.yul\":12553:12573   */\n      tag_533\n        /* \"#utility.yul\":12571:12572   */\n      dup4\n        /* \"#utility.yul\":12553:12573   */\n      tag_308\n      jump\t// in\n    tag_533:\n        /* \"#utility.yul\":12548:12573   */\n      swap3\n      pop\n        /* \"#utility.yul\":12596:12597   */\n      dup3\n        /* \"#utility.yul\":12593:12594   */\n      dup3\n        /* \"#utility.yul\":12589:12598   */\n      add\n        /* \"#utility.yul\":12582:12598   */\n      swap1\n      pop\n        /* \"#utility.yul\":12617:12620   */\n      dup1\n        /* \"#utility.yul\":12614:12615   */\n      dup3\n        /* \"#utility.yul\":12611:12621   */\n      gt\n        /* \"#utility.yul\":12608:12644   */\n      iszero\n      tag_534\n      jumpi\n        /* \"#utility.yul\":12624:12642   */\n      tag_535\n      tag_347\n      jump\t// in\n    tag_535:\n        /* \"#utility.yul\":12608:12644   */\n    tag_534:\n        /* \"#utility.yul\":12460:12651   */\n      swap3\n      swap2\n      pop\n      pop\n      jump\t// out\n        /* \"#utility.yul\":12657:12819   */\n    tag_348:\n        /* \"#utility.yul\":12797:12811   */\n      0x6e6f7420616e206f776e65720000000000000000000000000000000000000000\n        /* \"#utility.yul\":12793:12794   */\n      0x00\n        /* \"#utility.yul\":12785:12791   */\n      dup3\n        /* \"#utility.yul\":12781:12795   */\n      add\n        /* \"#utility.yul\":12774:12812   */\n      mstore\n        /* \"#utility.yul\":12657:12819   */\n      pop\n      jump\t// out\n        /* \"#utility.yul\":12825:13191   */\n    tag_349:\n        /* \"#utility.yul\":12967:12970   */\n      0x00\n        /* \"#utility.yul\":12988:13055   */\n      tag_538\n        /* \"#utility.yul\":13052:13054   */\n      0x0c\n        /* \"#utility.yul\":13047:13050   */\n      dup4\n        /* \"#utility.yul\":12988:13055   */\n      tag_344\n      jump\t// in\n    tag_538:\n        /* \"#utility.yul\":12981:13055   */\n      swap2\n      pop\n        /* \"#utility.yul\":13064:13157   */\n      tag_539\n        /* \"#utility.yul\":13153:13156   */\n      dup3\n        /* \"#utility.yul\":13064:13157   */\n      tag_348\n      jump\t// in\n    tag_539:\n        /* \"#utility.yul\":13182:13184   */\n      0x20\n        /* \"#utility.yul\":13177:13180   */\n      dup3\n        /* \"#utility.yul\":13173:13185   */\n      add\n        /* \"#utility.yul\":13166:13185   */\n      swap1\n      pop\n        /* \"#utility.yul\":12825:13191   */\n      swap2\n      swap1\n      pop\n      jump\t// out\n        /* \"#utility.yul\":13197:13616   */\n    tag_151:\n        /* \"#utility.yul\":13363:13367   */\n      0x00\n        /* \"#utility.yul\":13401:13403   */\n      0x20\n        /* \"#utility.yul\":13390:13399   */\n      dup3\n        /* \"#utility.yul\":13386:13404   */\n      add\n        /* \"#utility.yul\":13378:13404   */\n      swap1\n      pop\n        /* \"#utility.yul\":13450:13459   */\n      dup2\n        /* \"#utility.yul\":13444:13448   */\n      dup2\n        /* \"#utility.yul\":13440:13460   */\n      sub\n        /* \"#utility.yul\":13436:13437   */\n      0x00\n        /* \"#utility.yul\":13425:13434   */\n      dup4\n        /* \"#utility.yul\":13421:13438   */\n      add\n        /* \"#utility.yul\":13414:13461   */\n      mstore\n        /* \"#utility.yul\":13478:13609   */\n      tag_541\n        /* \"#utility.yul\":13604:13608   */\n      dup2\n        /* \"#utility.yul\":13478:13609   */\n      tag_349\n      jump\t// in\n    tag_541:\n        /* \"#utility.yul\":13470:13609   */\n      swap1\n      pop\n        /* \"#utility.yul\":13197:13616   */\n      swap2\n      swap1\n      pop\n      jump\t// out\n        /* \"#utility.yul\":13622:13796   */\n    tag_350:\n        /* \"#utility.yul\":13762:13788   */\n      0x63616e6e6f742072656d6f7665206c617374206f776e65720000000000000000\n        /* \"#utility.yul\":13758:13759   */\n      0x00\n        /* \"#utility.yul\":13750:13756   */\n      dup3\n        /* \"#utility.yul\":13746:13760   */\n      add\n        /* \"#utility.yul\":13739:13789   */\n      mstore\n        /* \"#utility.yul\":13622:13796   */\n      pop\n      jump\t// out\n        /* \"#utility.yul\":13802:14168   */\n    tag_351:\n        /* \"#utility.yul\":13944:13947   */\n      0x00\n        /* \"#utility.yul\":13965:14032   */\n      tag_544\n        /* \"#utility.yul\":14029:14031   */\n      0x18\n        /* \"#utility.yul\":14024:14027   */\n      dup4\n        /* \"#utility.yul\":13965:14032   */\n      tag_344\n      jump\t// in\n    tag_544:\n        /* \"#utility.yul\":13958:14032   */\n      swap2\n      pop\n        /* \"#utility.yul\":14041:14134   */\n      tag_545\n        /* \"#utility.yul\":14130:14133   */\n      dup3\n        /* \"#utility.yul\":14041:14134   */\n      tag_350\n      jump\t// in\n    tag_545:\n        /* \"#utility.yul\":14159:14161   */\n      0x20\n        /* \"#utility.yul\":14154:14157   */\n      dup3\n        /* \"#utility.yul\":14150:14162   */\n      add\n        /* \"#utility.yul\":14143:14162   */\n      swap1\n      pop\n        /* \"#utility.yul\":13802:14168   */\n      swap2\n      swap1\n      pop\n      jump\t// out\n        /* \"#utility.yul\":14174:14593   */\n    tag_154:\n        /* \"#utility.yul\":14340:14344   */\n      0x00\n        /* \"#utility.yul\":14378:14380   */\n      0x20\n        /* \"#utility.yul\":14367:14376   */\n      dup3\n        /* \"#utility.yul\":14363:14381   */\n      add\n        /* \"#utility.yul\":14355:14381   */\n      swap1\n      pop\n        /* \"#utility.yul\":14427:14436   */\n      dup2\n        /* \"#utility.yul\":14421:14425   */\n      dup2\n        /* \"#utility.yul\":14417:14437   */\n      sub\n        /* \"#utility.yul\":14413:14414   */\n      0x00\n        /* \"#utility.yul\":14402:14411   */\n      dup4\n        /* \"#utility.yul\":14398:14415   */\n      add\n        /* \"#utility.yul\":14391:14438   */\n      mstore\n        /* \"#utility.yul\":14455:14586   */\n      tag_547\n        /* \"#utility.yul\":14581:14585   */\n      dup2\n        /* \"#utility.yul\":14455:14586   */\n      tag_351\n      jump\t// in\n    tag_547:\n        /* \"#utility.yul\":14447:14586   */\n      swap1\n      pop\n        /* \"#utility.yul\":14174:14593   */\n      swap2\n      swap1\n      pop\n      jump\t// out\n        /* \"#utility.yul\":14599:14779   */\n    tag_160:\n        /* \"#utility.yul\":14647:14724   */\n      0x4e487b7100000000000000000000000000000000000000000000000000000000\n        /* \"#utility.yul\":14644:14645   */\n      0x00\n        /* \"#utility.yul\":14637:14725   */\n      mstore\n        /* \"#utility.yul\":14744:14748   */\n      0x32\n        /* \"#utility.yul\":14741:14742   */\n      0x04\n        /* \"#utility.yul\":14734:14749   */\n      mstore\n        /* \"#utility.yul\":14768:14772   */\n      0x24\n        /* \"#utility.yul\":14765:14766   */\n      0x00\n        /* \"#utility.yul\":14758:14773   */\n      revert\n        /* \"#utility.yul\":14785:14979   */\n    tag_164:\n        /* \"#utility.yul\":14825:14829   */\n      0x00\n        /* \"#utility.yul\":14845:14865   */\n      tag_550\n        /* \"#utility.yul\":14863:14864   */\n      dup3\n        /* \"#utility.yul\":14845:14865   */\n      tag_308\n      jump\t// in\n    tag_550:\n        /* \"#utility.yul\":14840:14865   */\n      swap2\n      pop\n        /* \"#utility.yul\":14879:14899   */\n      tag_551\n        /* \"#utility.yul\":14897:14898   */\n      dup4\n        /* \"#utility.yul\":14879:14899   */\n      tag_308\n      jump\t// in\n    tag_551:\n        /* \"#utility.yul\":14874:14899   */\n      swap3\n      pop\n        /* \"#utility.yul\":14923:14924   */\n      dup3\n        /* \"#utility.yul\":14920:14921   */\n      dup3\n        /* \"#utility.yul\":14916:14925   */\n      sub\n        /* \"#utility.yul\":14908:14925   */\n      swap1\n      pop\n        /* \"#utility.yul\":14947:14948   */\n      dup2\n        /* \"#utility.yul\":14941:14945   */\n      dup2\n        /* \"#utility.yul\":14938:14949   */\n      gt\n        /* \"#utility.yul\":14935:14972   */\n      iszero\n      tag_552\n      jumpi\n        /* \"#utility.yul\":14952:14970   */\n      tag_553\n      tag_347\n      jump\t// in\n    tag_553:\n        /* \"#utility.yul\":14935:14972   */\n    tag_552:\n        /* \"#utility.yul\":14785:14979   */\n      swap3\n      swap2\n      pop\n      pop\n      jump\t// out\n        /* \"#utility.yul\":14985:15165   */\n    tag_173:\n        /* \"#utility.yul\":15033:15110   */\n      0x4e487b7100000000000000000000000000000000000000000000000000000000\n        /* \"#utility.yul\":15030:15031   */\n      0x00\n        /* \"#utility.yul\":15023:15111   */\n      mstore\n        /* \"#utility.yul\":15130:15134   */\n      0x31\n        /* \"#utility.yul\":15127:15128   */\n      0x04\n        /* \"#utility.yul\":15120:15135   */\n      mstore\n        /* \"#utility.yul\":15154:15158   */\n      0x24\n        /* \"#utility.yul\":15151:15152   */\n      0x00\n        /* \"#utility.yul\":15144:15159   */\n      revert\n        /* \"#utility.yul\":15171:15330   */\n    tag_352:\n        /* \"#utility.yul\":15311:15322   */\n      0x6e6f74206f776e65720000000000000000000000000000000000000000000000\n        /* \"#utility.yul\":15307:15308   */\n      0x00\n        /* \"#utility.yul\":15299:15305   */\n      dup3\n        /* \"#utility.yul\":15295:15309   */\n      add\n        /* \"#utility.yul\":15288:15323   */\n      mstore\n        /* \"#utility.yul\":15171:15330   */\n      pop\n      jump\t// out\n        /* \"#utility.yul\":15336:15701   */\n    tag_353:\n        /* \"#utility.yul\":15478:15481   */\n      0x00\n        /* \"#utility.yul\":15499:15565   */\n      tag_557\n        /* \"#utility.yul\":15563:15564   */\n      0x09\n        /* \"#utility.yul\":15558:15561   */\n      dup4\n        /* \"#utility.yul\":15499:15565   */\n      tag_344\n      jump\t// in\n    tag_557:\n        /* \"#utility.yul\":15492:15565   */\n      swap2\n      pop\n        /* \"#utility.yul\":15574:15667   */\n      tag_558\n        /* \"#utility.yul\":15663:15666   */\n      dup3\n        /* \"#utility.yul\":15574:15667   */\n      tag_352\n      jump\t// in\n    tag_558:\n        /* \"#utility.yul\":15692:15694   */\n      0x20\n        /* \"#utility.yul\":15687:15690   */\n      dup3\n        /* \"#utility.yul\":15683:15695   */\n      add\n        /* \"#utility.yul\":15676:15695   */\n      swap1\n      pop\n        /* \"#utility.yul\":15336:15701   */\n      swap2\n      swap1\n      pop\n      jump\t// out\n        /* \"#utility.yul\":15707:16126   */\n    tag_178:\n        /* \"#utility.yul\":15873:15877   */\n      0x00\n        /* \"#utility.yul\":15911:15913   */\n      0x20\n        /* \"#utility.yul\":15900:15909   */\n      dup3\n        /* \"#utility.yul\":15896:15914   */\n      add\n        /* \"#utility.yul\":15888:15914   */\n      swap1\n      pop\n        /* \"#utility.yul\":15960:15969   */\n      dup2\n        /* \"#utility.yul\":15954:15958   */\n      dup2\n        /* \"#utility.yul\":15950:15970   */\n      sub\n        /* \"#utility.yul\":15946:15947   */\n      0x00\n        /* \"#utility.yul\":15935:15944   */\n      dup4\n        /* \"#utility.yul\":15931:15948   */\n      add\n        /* \"#utility.yul\":15924:15971   */\n      mstore\n        /* \"#utility.yul\":15988:16119   */\n      tag_560\n        /* \"#utility.yul\":16114:16118   */\n      dup2\n        /* \"#utility.yul\":15988:16119   */\n      tag_353\n      jump\t// in\n    tag_560:\n        /* \"#utility.yul\":15980:16119   */\n      swap1\n      pop\n        /* \"#utility.yul\":15707:16126   */\n      swap2\n      swap1\n      pop\n      jump\t// out\n        /* \"#utility.yul\":16132:16299   */\n    tag_354:\n        /* \"#utility.yul\":16272:16291   */\n      0x747820646f6573206e6f74206578697374000000000000000000000000000000\n        /* \"#utility.yul\":16268:16269   */\n      0x00\n        /* \"#utility.yul\":16260:16266   */\n      dup3\n        /* \"#utility.yul\":16256:16270   */\n      add\n        /* \"#utility.yul\":16249:16292   */\n      mstore\n        /* \"#utility.yul\":16132:16299   */\n      pop\n      jump\t// out\n        /* \"#utility.yul\":16305:16671   */\n    tag_355:\n        /* \"#utility.yul\":16447:16450   */\n      0x00\n        /* \"#utility.yul\":16468:16535   */\n      tag_563\n        /* \"#utility.yul\":16532:16534   */\n      0x11\n        /* \"#utility.yul\":16527:16530   */\n      dup4\n        /* \"#utility.yul\":16468:16535   */\n      tag_344\n      jump\t// in\n    tag_563:\n        /* \"#utility.yul\":16461:16535   */\n      swap2\n      pop\n        /* \"#utility.yul\":16544:16637   */\n      tag_564\n        /* \"#utility.yul\":16633:16636   */\n      dup3\n        /* \"#utility.yul\":16544:16637   */\n      tag_354\n      jump\t// in\n    tag_564:\n        /* \"#utility.yul\":16662:16664   */\n      0x20\n        /* \"#utility.yul\":16657:16660   */\n      dup3\n        /* \"#utility.yul\":16653:16665   */\n      add\n        /* \"#utility.yul\":16646:16665   */\n      swap1\n      pop\n        /* \"#utility.yul\":16305:16671   */\n      swap2\n      swap1\n      pop\n      jump\t// out\n        /* \"#utility.yul\":16677:17096   */\n    tag_182:\n        /* \"#utility.yul\":16843:16847   */\n      0x00\n        /* \"#utility.yul\":16881:16883   */\n      0x20\n        /* \"#utility.yul\":16870:16879   */\n      dup3\n        /* \"#utility.yul\":16866:16884   */\n      add\n        /* \"#utility.yul\":16858:16884   */\n      swap1\n      pop\n        /* \"#utility.yul\":16930:16939   */\n      dup2\n        /* \"#utility.yul\":16924:16928   */\n      dup2\n        /* \"#utility.yul\":16920:16940   */\n      sub\n        /* \"#utility.yul\":16916:16917   */\n      0x00\n        /* \"#utility.yul\":16905:16914   */\n      dup4\n        /* \"#utility.yul\":16901:16918   */\n      add\n        /* \"#utility.yul\":16894:16941   */\n      mstore\n        /* \"#utility.yul\":16958:17089   */\n      tag_566\n        /* \"#utility.yul\":17084:17088   */\n      dup2\n        /* \"#utility.yul\":16958:17089   */\n      tag_355\n      jump\t// in\n    tag_566:\n        /* \"#utility.yul\":16950:17089   */\n      swap1\n      pop\n        /* \"#utility.yul\":16677:17096   */\n      swap2\n      swap1\n      pop\n      jump\t// out\n        /* \"#utility.yul\":17102:17271   */\n    tag_356:\n        /* \"#utility.yul\":17242:17263   */\n      0x747820616c726561647920657865637574656400000000000000000000000000\n        /* \"#utility.yul\":17238:17239   */\n      0x00\n        /* \"#utility.yul\":17230:17236   */\n      dup3\n        /* \"#utility.yul\":17226:17240   */\n      add\n        /* \"#utility.yul\":17219:17264   */\n      mstore\n        /* \"#utility.yul\":17102:17271   */\n      pop\n      jump\t// out\n        /* \"#utility.yul\":17277:17643   */\n    tag_357:\n        /* \"#utility.yul\":17419:17422   */\n      0x00\n        /* \"#utility.yul\":17440:17507   */\n      tag_569\n        /* \"#utility.yul\":17504:17506   */\n      0x13\n        /* \"#utility.yul\":17499:17502   */\n      dup4\n        /* \"#utility.yul\":17440:17507   */\n      tag_344\n      jump\t// in\n    tag_569:\n        /* \"#utility.yul\":17433:17507   */\n      swap2\n      pop\n        /* \"#utility.yul\":17516:17609   */\n      tag_570\n        /* \"#utility.yul\":17605:17608   */\n      dup3\n        /* \"#utility.yul\":17516:17609   */\n      tag_356\n      jump\t// in\n    tag_570:\n        /* \"#utility.yul\":17634:17636   */\n      0x20\n        /* \"#utility.yul\":17629:17632   */\n      dup3\n        /* \"#utility.yul\":17625:17637   */\n      add\n        /* \"#utility.yul\":17618:17637   */\n      swap1\n      pop\n        /* \"#utility.yul\":17277:17643   */\n      swap2\n      swap1\n      pop\n      jump\t// out\n        /* \"#utility.yul\":17649:18068   */\n    tag_189:\n        /* \"#utility.yul\":17815:17819   */\n      0x00\n        /* \"#utility.yul\":17853:17855   */\n      0x20\n        /* \"#utility.yul\":17842:17851   */\n      dup3\n        /* \"#utility.yul\":17838:17856   */\n      add\n        /* \"#utility.yul\":17830:17856   */\n      swap1\n      pop\n        /* \"#utility.yul\":17902:17911   */\n      dup2\n        /* \"#utility.yul\":17896:17900   */\n      dup2\n        /* \"#utility.yul\":17892:17912   */\n      sub\n        /* \"#utility.yul\":17888:17889   */\n      0x00\n        /* \"#utility.yul\":17877:17886   */\n      dup4\n        /* \"#utility.yul\":17873:17890   */\n      add\n        /* \"#utility.yul\":17866:17913   */\n      mstore\n        /* \"#utility.yul\":17930:18061   */\n      tag_572\n        /* \"#utility.yul\":18056:18060   */\n      dup2\n        /* \"#utility.yul\":17930:18061   */\n      tag_357\n      jump\t// in\n    tag_572:\n        /* \"#utility.yul\":17922:18061   */\n      swap1\n      pop\n        /* \"#utility.yul\":17649:18068   */\n      swap2\n      swap1\n      pop\n      jump\t// out\n        /* \"#utility.yul\":18074:18240   */\n    tag_358:\n        /* \"#utility.yul\":18214:18232   */\n      0x7478206e6f7420636f6e6669726d656400000000000000000000000000000000\n        /* \"#utility.yul\":18210:18211   */\n      0x00\n        /* \"#utility.yul\":18202:18208   */\n      dup3\n        /* \"#utility.yul\":18198:18212   */\n      add\n        /* \"#utility.yul\":18191:18233   */\n      mstore\n        /* \"#utility.yul\":18074:18240   */\n      pop\n      jump\t// out\n        /* \"#utility.yul\":18246:18612   */\n    tag_359:\n        /* \"#utility.yul\":18388:18391   */\n      0x00\n        /* \"#utility.yul\":18409:18476   */\n      tag_575\n        /* \"#utility.yul\":18473:18475   */\n      0x10\n        /* \"#utility.yul\":18468:18471   */\n      dup4\n        /* \"#utility.yul\":18409:18476   */\n      tag_344\n      jump\t// in\n    tag_575:\n        /* \"#utility.yul\":18402:18476   */\n      swap2\n      pop\n        /* \"#utility.yul\":18485:18578   */\n      tag_576\n        /* \"#utility.yul\":18574:18577   */\n      dup3\n        /* \"#utility.yul\":18485:18578   */\n      tag_358\n      jump\t// in\n    tag_576:\n        /* \"#utility.yul\":18603:18605   */\n      0x20\n        /* \"#utility.yul\":18598:18601   */\n      dup3\n        /* \"#utility.yul\":18594:18606   */\n      add\n        /* \"#utility.yul\":18587:18606   */\n      swap1\n      pop\n        /* \"#utility.yul\":18246:18612   */\n      swap2\n      swap1\n      pop\n      jump\t// out\n        /* \"#utility.yul\":18618:19037   */\n    tag_196:\n        /* \"#utility.yul\":18784:18788   */\n      0x00\n        /* \"#utility.yul\":18822:18824   */\n      0x20\n        /* \"#utility.yul\":18811:18820   */\n      dup3\n        /* \"#utility.yul\":18807:18825   */\n      add\n        /* \"#utility.yul\":18799:18825   */\n      swap1\n      pop\n        /* \"#utility.yul\":18871:18880   */\n      dup2\n        /* \"#utility.yul\":18865:18869   */\n      dup2\n        /* \"#utility.yul\":18861:18881   */\n      sub\n        /* \"#utility.yul\":18857:18858   */\n      0x00\n        /* \"#utility.yul\":18846:18855   */\n      dup4\n        /* \"#utility.yul\":18842:18859   */\n      add\n        /* \"#utility.yul\":18835:18882   */\n      mstore\n        /* \"#utility.yul\":18899:19030   */\n      tag_578\n        /* \"#utility.yul\":19025:19029   */\n      dup2\n        /* \"#utility.yul\":18899:19030   */\n      tag_359\n      jump\t// in\n    tag_578:\n        /* \"#utility.yul\":18891:19030   */\n      swap1\n      pop\n        /* \"#utility.yul\":18618:19037   */\n      swap2\n      swap1\n      pop\n      jump\t// out\n        /* \"#utility.yul\":19043:19223   */\n    tag_360:\n        /* \"#utility.yul\":19091:19168   */\n      0x4e487b7100000000000000000000000000000000000000000000000000000000\n        /* \"#utility.yul\":19088:19089   */\n      0x00\n        /* \"#utility.yul\":19081:19169   */\n      mstore\n        /* \"#utility.yul\":19188:19192   */\n      0x22\n        /* \"#utility.yul\":19185:19186   */\n      0x04\n        /* \"#utility.yul\":19178:19193   */\n      mstore\n        /* \"#utility.yul\":19212:19216   */\n      0x24\n        /* \"#utility.yul\":19209:19210   */\n      0x00\n        /* \"#utility.yul\":19202:19217   */\n      revert\n        /* \"#utility.yul\":19229:19549   */\n    tag_204:\n        /* \"#utility.yul\":19273:19279   */\n      0x00\n        /* \"#utility.yul\":19310:19311   */\n      0x02\n        /* \"#utility.yul\":19304:19308   */\n      dup3\n        /* \"#utility.yul\":19300:19312   */\n      div\n        /* \"#utility.yul\":19290:19312   */\n      swap1\n      pop\n        /* \"#utility.yul\":19357:19358   */\n      0x01\n        /* \"#utility.yul\":19351:19355   */\n      dup3\n        /* \"#utility.yul\":19347:19359   */\n      and\n        /* \"#utility.yul\":19378:19396   */\n      dup1\n        /* \"#utility.yul\":19368:19449   */\n      tag_581\n      jumpi\n        /* \"#utility.yul\":19434:19438   */\n      0x7f\n        /* \"#utility.yul\":19426:19432   */\n      dup3\n        /* \"#utility.yul\":19422:19439   */\n      and\n        /* \"#utility.yul\":19412:19439   */\n      swap2\n      pop\n        /* \"#utility.yul\":19368:19449   */\n    tag_581:\n        /* \"#utility.yul\":19496:19498   */\n      0x20\n        /* \"#utility.yul\":19488:19494   */\n      dup3\n        /* \"#utility.yul\":19485:19499   */\n      lt\n        /* \"#utility.yul\":19465:19483   */\n      dup2\n        /* \"#utility.yul\":19462:19500   */\n      sub\n        /* \"#utility.yul\":19459:19543   */\n      tag_582\n      jumpi\n        /* \"#utility.yul\":19515:19533   */\n      tag_583\n      tag_360\n      jump\t// in\n    tag_583:\n        /* \"#utility.yul\":19459:19543   */\n    tag_582:\n        /* \"#utility.yul\":19280:19549   */\n      pop\n        /* \"#utility.yul\":19229:19549   */\n      swap2\n      swap1\n      pop\n      jump\t// out\n        /* \"#utility.yul\":19555:19718   */\n    tag_361:\n        /* \"#utility.yul\":19695:19710   */\n      0x696e76616c6964206f776e657200000000000000000000000000000000000000\n        /* \"#utility.yul\":19691:19692   */\n      0x00\n        /* \"#utility.yul\":19683:19689   */\n      dup3\n        /* \"#utility.yul\":19679:19693   */\n      add\n        /* \"#utility.yul\":19672:19711   */\n      mstore\n        /* \"#utility.yul\":19555:19718   */\n      pop\n      jump\t// out\n        /* \"#utility.yul\":19724:20090   */\n    tag_362:\n        /* \"#utility.yul\":19866:19869   */\n      0x00\n        /* \"#utility.yul\":19887:19954   */\n      tag_586\n        /* \"#utility.yul\":19951:19953   */\n      0x0d\n        /* \"#utility.yul\":19946:19949   */\n      dup4\n        /* \"#utility.yul\":19887:19954   */\n      tag_344\n      jump\t// in\n    tag_586:\n        /* \"#utility.yul\":19880:19954   */\n      swap2\n      pop\n        /* \"#utility.yul\":19963:20056   */\n      tag_587\n        /* \"#utility.yul\":20052:20055   */\n      dup3\n        /* \"#utility.yul\":19963:20056   */\n      tag_361\n      jump\t// in\n    tag_587:\n        /* \"#utility.yul\":20081:20083   */\n      0x20\n        /* \"#utility.yul\":20076:20079   */\n      dup3\n        /* \"#utility.yul\":20072:20084   */\n      add\n        /* \"#utility.yul\":20065:20084   */\n      swap1\n      pop\n        /* \"#utility.yul\":19724:20090   */\n      swap2\n      swap1\n      pop\n      jump\t// out\n        /* \"#utility.yul\":20096:20515   */\n    tag_216:\n        /* \"#utility.yul\":20262:20266   */\n      0x00\n        /* \"#utility.yul\":20300:20302   */\n      0x20\n        /* \"#utility.yul\":20289:20298   */\n      dup3\n        /* \"#utility.yul\":20285:20303   */\n      add\n        /* \"#utility.yul\":20277:20303   */\n      swap1\n      pop\n        /* \"#utility.yul\":20349:20358   */\n      dup2\n        /* \"#utility.yul\":20343:20347   */\n      dup2\n        /* \"#utility.yul\":20339:20359   */\n      sub\n        /* \"#utility.yul\":20335:20336   */\n      0x00\n        /* \"#utility.yul\":20324:20333   */\n      dup4\n        /* \"#utility.yul\":20320:20337   */\n      add\n        /* \"#utility.yul\":20313:20360   */\n      mstore\n        /* \"#utility.yul\":20377:20508   */\n      tag_589\n        /* \"#utility.yul\":20503:20507   */\n      dup2\n        /* \"#utility.yul\":20377:20508   */\n      tag_362\n      jump\t// in\n    tag_589:\n        /* \"#utility.yul\":20369:20508   */\n      swap1\n      pop\n        /* \"#utility.yul\":20096:20515   */\n      swap2\n      swap1\n      pop\n      jump\t// out\n        /* \"#utility.yul\":20521:20691   */\n    tag_363:\n        /* \"#utility.yul\":20661:20683   */\n      0x6f776e657220616c726561647920657869737473000000000000000000000000\n        /* \"#utility.yul\":20657:20658   */\n      0x00\n        /* \"#utility.yul\":20649:20655   */\n      dup3\n        /* \"#utility.yul\":20645:20659   */\n      add\n        /* \"#utility.yul\":20638:20684   */\n      mstore\n        /* \"#utility.yul\":20521:20691   */\n      pop\n      jump\t// out\n        /* \"#utility.yul\":20697:21063   */\n    tag_364:\n        /* \"#utility.yul\":20839:20842   */\n      0x00\n        /* \"#utility.yul\":20860:20927   */\n      tag_592\n        /* \"#utility.yul\":20924:20926   */\n      0x14\n        /* \"#utility.yul\":20919:20922   */\n      dup4\n        /* \"#utility.yul\":20860:20927   */\n      tag_344\n      jump\t// in\n    tag_592:\n        /* \"#utility.yul\":20853:20927   */\n      swap2\n      pop\n        /* \"#utility.yul\":20936:21029   */\n      tag_593\n        /* \"#utility.yul\":21025:21028   */\n      dup3\n        /* \"#utility.yul\":20936:21029   */\n      tag_363\n      jump\t// in\n    tag_593:\n        /* \"#utility.yul\":21054:21056   */\n      0x20\n        /* \"#utility.yul\":21049:21052   */\n      dup3\n        /* \"#utility.yul\":21045:21057   */\n      add\n        /* \"#utility.yul\":21038:21057   */\n      swap1\n      pop\n        /* \"#utility.yul\":20697:21063   */\n      swap2\n      swap1\n      pop\n      jump\t// out\n        /* \"#utility.yul\":21069:21488   */\n    tag_219:\n        /* \"#utility.yul\":21235:21239   */\n      0x00\n        /* \"#utility.yul\":21273:21275   */\n      0x20\n        /* \"#utility.yul\":21262:21271   */\n      dup3\n        /* \"#utility.yul\":21258:21276   */\n      add\n        /* \"#utility.yul\":21250:21276   */\n      swap1\n      pop\n        /* \"#utility.yul\":21322:21331   */\n      dup2\n        /* \"#utility.yul\":21316:21320   */\n      dup2\n        /* \"#utility.yul\":21312:21332   */\n      sub\n        /* \"#utility.yul\":21308:21309   */\n      0x00\n        /* \"#utility.yul\":21297:21306   */\n      dup4\n        /* \"#utility.yul\":21293:21310   */\n      add\n        /* \"#utility.yul\":21286:21333   */\n      mstore\n        /* \"#utility.yul\":21350:21481   */\n      tag_595\n        /* \"#utility.yul\":21476:21480   */\n      dup2\n        /* \"#utility.yul\":21350:21481   */\n      tag_364\n      jump\t// in\n    tag_595:\n        /* \"#utility.yul\":21342:21481   */\n      swap1\n      pop\n        /* \"#utility.yul\":21069:21488   */\n      swap2\n      swap1\n      pop\n      jump\t// out\n        /* \"#utility.yul\":21494:21662   */\n    tag_365:\n        /* \"#utility.yul\":21634:21654   */\n      0x6d6178206f776e65727320726561636865640000000000000000000000000000\n        /* \"#utility.yul\":21630:21631   */\n      0x00\n        /* \"#utility.yul\":21622:21628   */\n      dup3\n        /* \"#utility.yul\":21618:21632   */\n      add\n        /* \"#utility.yul\":21611:21655   */\n      mstore\n        /* \"#utility.yul\":21494:21662   */\n      pop\n      jump\t// out\n        /* \"#utility.yul\":21668:22034   */\n    tag_366:\n        /* \"#utility.yul\":21810:21813   */\n      0x00\n        /* \"#utility.yul\":21831:21898   */\n      tag_598\n        /* \"#utility.yul\":21895:21897   */\n      0x12\n        /* \"#utility.yul\":21890:21893   */\n      dup4\n        /* \"#utility.yul\":21831:21898   */\n      tag_344\n      jump\t// in\n    tag_598:\n        /* \"#utility.yul\":21824:21898   */\n      swap2\n      pop\n        /* \"#utility.yul\":21907:22000   */\n      tag_599\n        /* \"#utility.yul\":21996:21999   */\n      dup3\n        /* \"#utility.yul\":21907:22000   */\n      tag_365\n      jump\t// in\n    tag_599:\n        /* \"#utility.yul\":22025:22027   */\n      0x20\n        /* \"#utility.yul\":22020:22023   */\n      dup3\n        /* \"#utility.yul\":22016:22028   */\n      add\n        /* \"#utility.yul\":22009:22028   */\n      swap1\n      pop\n        /* \"#utility.yul\":21668:22034   */\n      swap2\n      swap1\n      pop\n      jump\t// out\n        /* \"#utility.yul\":22040:22459   */\n    tag_222:\n        /* \"#utility.yul\":22206:22210   */\n      0x00\n        /* \"#utility.yul\":22244:22246   */\n      0x20\n        /* \"#utility.yul\":22233:22242   */\n      dup3\n        /* \"#utility.yul\":22229:22247   */\n      add\n        /* \"#utility.yul\":22221:22247   */\n      swap1\n      pop\n        /* \"#utility.yul\":22293:22302   */\n      dup2\n        /* \"#utility.yul\":22287:22291   */\n      dup2\n        /* \"#utility.yul\":22283:22303   */\n      sub\n        /* \"#utility.yul\":22279:22280   */\n      0x00\n        /* \"#utility.yul\":22268:22277   */\n      dup4\n        /* \"#utility.yul\":22264:22281   */\n      add\n        /* \"#utility.yul\":22257:22304   */\n      mstore\n        /* \"#utility.yul\":22321:22452   */\n      tag_601\n        /* \"#utility.yul\":22447:22451   */\n      dup2\n        /* \"#utility.yul\":22321:22452   */\n      tag_366\n      jump\t// in\n    tag_601:\n        /* \"#utility.yul\":22313:22452   */\n      swap1\n      pop\n        /* \"#utility.yul\":22040:22459   */\n      swap2\n      swap1\n      pop\n      jump\t// out\n        /* \"#utility.yul\":22465:22635   */\n    tag_367:\n        /* \"#utility.yul\":22605:22627   */\n      0x747820616c726561647920636f6e6669726d6564000000000000000000000000\n        /* \"#utility.yul\":22601:22602   */\n      0x00\n        /* \"#utility.yul\":22593:22599   */\n      dup3\n        /* \"#utility.yul\":22589:22603   */\n      add\n        /* \"#utility.yul\":22582:22628   */\n      mstore\n        /* \"#utility.yul\":22465:22635   */\n      pop\n      jump\t// out\n        /* \"#utility.yul\":22641:23007   */\n    tag_368:\n        /* \"#utility.yul\":22783:22786   */\n      0x00\n        /* \"#utility.yul\":22804:22871   */\n      tag_604\n        /* \"#utility.yul\":22868:22870   */\n      0x14\n        /* \"#utility.yul\":22863:22866   */\n      dup4\n        /* \"#utility.yul\":22804:22871   */\n      tag_344\n      jump\t// in\n    tag_604:\n        /* \"#utility.yul\":22797:22871   */\n      swap2\n      pop\n        /* \"#utility.yul\":22880:22973   */\n      tag_605\n        /* \"#utility.yul\":22969:22972   */\n      dup3\n        /* \"#utility.yul\":22880:22973   */\n      tag_367\n      jump\t// in\n    tag_605:\n        /* \"#utility.yul\":22998:23000   */\n      0x20\n        /* \"#utility.yul\":22993:22996   */\n      dup3\n        /* \"#utility.yul\":22989:23001   */\n      add\n        /* \"#utility.yul\":22982:23001   */\n      swap1\n      pop\n        /* \"#utility.yul\":22641:23007   */\n      swap2\n      swap1\n      pop\n      jump\t// out\n        /* \"#utility.yul\":23013:23432   */\n    tag_253:\n        /* \"#utility.yul\":23179:23183   */\n      0x00\n        /* \"#utility.yul\":23217:23219   */\n      0x20\n        /* \"#utility.yul\":23206:23215   */\n      dup3\n        /* \"#utility.yul\":23202:23220   */\n      add\n        /* \"#utility.yul\":23194:23220   */\n      swap1\n      pop\n        /* \"#utility.yul\":23266:23275   */\n      dup2\n        /* \"#utility.yul\":23260:23264   */\n      dup2\n        /* \"#utility.yul\":23256:23276   */\n      sub\n        /* \"#utility.yul\":23252:23253   */\n      0x00\n        /* \"#utility.yul\":23241:23250   */\n      dup4\n        /* \"#utility.yul\":23237:23254   */\n      add\n        /* \"#utility.yul\":23230:23277   */\n      mstore\n        /* \"#utility.yul\":23294:23425   */\n      tag_607\n        /* \"#utility.yul\":23420:23424   */\n      dup2\n        /* \"#utility.yul\":23294:23425   */\n      tag_368\n      jump\t// in\n    tag_607:\n        /* \"#utility.yul\":23286:23425   */\n      swap1\n      pop\n        /* \"#utility.yul\":23013:23432   */\n      swap2\n      swap1\n      pop\n      jump\t// out\n        /* \"#utility.yul\":23438:23578   */\n    tag_369:\n        /* \"#utility.yul\":23486:23490   */\n      0x00\n        /* \"#utility.yul\":23509:23512   */\n      dup2\n        /* \"#utility.yul\":23501:23512   */\n      swap1\n      pop\n        /* \"#utility.yul\":23532:23535   */\n      dup2\n        /* \"#utility.yul\":23529:23530   */\n      0x00\n        /* \"#utility.yul\":23522:23536   */\n      mstore\n        /* \"#utility.yul\":23566:23570   */\n      0x20\n        /* \"#utility.yul\":23563:23564   */\n      0x00\n        /* \"#utility.yul\":23553:23571   */\n      keccak256\n        /* \"#utility.yul\":23545:23571   */\n      swap1\n      pop\n        /* \"#utility.yul\":23438:23578   */\n      swap2\n      swap1\n      pop\n      jump\t// out\n        /* \"#utility.yul\":23584:23677   */\n    tag_370:\n        /* \"#utility.yul\":23621:23627   */\n      0x00\n        /* \"#utility.yul\":23668:23670   */\n      0x20\n        /* \"#utility.yul\":23663:23665   */\n      0x1f\n        /* \"#utility.yul\":23656:23661   */\n      dup4\n        /* \"#utility.yul\":23652:23666   */\n      add\n        /* \"#utility.yul\":23648:23671   */\n      div\n        /* \"#utility.yul\":23638:23671   */\n      swap1\n      pop\n        /* \"#utility.yul\":23584:23677   */\n      swap2\n      swap1\n      pop\n      jump\t// out\n        /* \"#utility.yul\":23683:23790   */\n    tag_371:\n        /* \"#utility.yul\":23727:23735   */\n      0x00\n        /* \"#utility.yul\":23777:23782   */\n      dup3\n        /* \"#utility.yul\":23771:23775   */\n      dup3\n        /* \"#utility.yul\":23767:23783   */\n      shl\n        /* \"#utility.yul\":23746:23783   */\n      swap1\n      pop\n        /* \"#utility.yul\":23683:23790   */\n      swap3\n      swap2\n      pop\n      pop\n      jump\t// out\n        /* \"#utility.yul\":23796:24189   */\n    tag_372:\n        /* \"#utility.yul\":23865:23871   */\n      0x00\n        /* \"#utility.yul\":23915:23916   */\n      0x08\n        /* \"#utility.yul\":23903:23913   */\n      dup4\n        /* \"#utility.yul\":23899:23917   */\n      mul\n        /* \"#utility.yul\":23938:24035   */\n      tag_612\n        /* \"#utility.yul\":23968:24034   */\n      0xffffffffffffffffffffffffffffffffffffffffffffffffffffffffffffffff\n        /* \"#utility.yul\":23957:23966   */\n      dup3\n        /* \"#utility.yul\":23938:24035   */\n      tag_371\n      jump\t// in\n    tag_612:\n        /* \"#utility.yul\":24056:24095   */\n      tag_613\n        /* \"#utility.yul\":24086:24094   */\n      dup7\n        /* \"#utility.yul\":24075:24084   */\n      dup4\n        /* \"#utility.yul\":24056:24095   */\n      tag_371\n      jump\t// in\n    tag_613:\n        /* \"#utility.yul\":24044:24095   */\n      swap6\n      pop\n        /* \"#utility.yul\":24128:24132   */\n      dup1\n        /* \"#utility.yul\":24124:24133   */\n      not\n        /* \"#utility.yul\":24117:24122   */\n      dup5\n        /* \"#utility.yul\":24113:24134   */\n      and\n        /* \"#utility.yul\":24104:24134   */\n      swap4\n      pop\n        /* \"#utility.yul\":24177:24181   */\n      dup1\n        /* \"#utility.yul\":24167:24175   */\n      dup7\n        /* \"#utility.yul\":24163:24182   */\n      and\n        /* \"#utility.yul\":24156:24161   */\n      dup5\n        /* \"#utility.yul\":24153:24183   */\n      or\n        /* \"#utility.yul\":24143:24183   */\n      swap3\n      pop\n        /* \"#utility.yul\":23872:24189   */\n      pop\n      pop\n        /* \"#utility.yul\":23796:24189   */\n      swap4\n      swap3\n      pop\n      pop\n      pop\n      jump\t// out\n        /* \"#utility.yul\":24195:24255   */\n    tag_373:\n        /* \"#utility.yul\":24223:24226   */\n      0x00\n        /* \"#utility.yul\":24244:24249   */\n      dup2\n        /* \"#utility.yul\":24237:24249   */\n      swap1\n      pop\n        /* \"#utility.yul\":24195:24255   */\n      swap2\n      swap1\n      pop\n      jump\t// out\n        /* \"#utility.yul\":24261:24403   */\n    tag_374:\n        /* \"#utility.yul\":24311:24320   */\n      0x00\n        /* \"#utility.yul\":24344:24397   */\n      tag_616\n        /* \"#utility.yul\":24362:24396   */\n      tag_617\n        /* \"#utility.yul\":24371:24395   */\n      tag_618\n        /* \"#utility.yul\":24389:24394   */\n      dup5\n        /* \"#utility.yul\":24371:24395   */\n      tag_308\n      jump\t// in\n    tag_618:\n        /* \"#utility.yul\":24362:24396   */\n      tag_373\n      jump\t// in\n    tag_617:\n        /* \"#utility.yul\":24344:24397   */\n      tag_308\n      jump\t// in\n    tag_616:\n        /* \"#utility.yul\":24331:24397   */\n      swap1\n      pop\n        /* \"#utility.yul\":24261:24403   */\n      swap2\n      swap1\n      pop\n      jump\t// out\n        /* \"#utility.yul\":24409:24484   */\n    tag_375:\n        /* \"#utility.yul\":24452:24455   */\n      0x00\n        /* \"#utility.yul\":24473:24478   */\n      dup2\n        /* \"#utility.yul\":24466:24478   */\n      swap1\n      pop\n        /* \"#utility.yul\":24409:24484   */\n      swap2\n      swap1\n      pop\n      jump\t// out\n        /* \"#utility.yul\":24490:24759   */\n    tag_376:\n        /* \"#utility.yul\":24600:24639   */\n      tag_621\n        /* \"#utility.yul\":24631:24638   */\n      dup4\n        /* \"#utility.yul\":24600:24639   */\n      tag_374\n      jump\t// in\n    tag_621:\n        /* \"#utility.yul\":24661:24752   */\n      tag_622\n        /* \"#utility.yul\":24710:24751   */\n      tag_623\n        /* \"#utility.yul\":24734:24750   */\n      dup3\n        /* \"#utility.yul\":24710:24751   */\n      tag_375\n      jump\t// in\n    tag_623:\n        /* \"#utility.yul\":24702:24708   */\n      dup5\n        /* \"#utility.yul\":24695:24699   */\n      dup5\n        /* \"#utility.yul\":24689:24700   */\n      sload\n        /* \"#utility.yul\":24661:24752   */\n      tag_372\n      jump\t// in\n    tag_622:\n        /* \"#utility.yul\":24655:24659   */\n      dup3\n        /* \"#utility.yul\":24648:24753   */\n      sstore\n        /* \"#utility.yul\":24566:24759   */\n      pop\n        /* \"#utility.yul\":24490:24759   */\n      pop\n      pop\n      pop\n      jump\t// out\n        /* \"#utility.yul\":24765:24838   */\n    tag_377:\n        /* \"#utility.yul\":24810:24813   */\n      0x00\n        /* \"#utility.yul\":24765:24838   */\n      swap1\n      jump\t// out\n        /* \"#utility.yul\":24844:25033   */\n    tag_378:\n        /* \"#utility.yul\":24921:24953   */\n      tag_626\n      tag_377\n      jump\t// in\n    tag_626:\n        /* \"#utility.yul\":24962:25027   */\n      tag_627\n        /* \"#utility.yul\":25020:25026   */\n      dup2\n        /* \"#utility.yul\":25012:25018   */\n      dup5\n        /* \"#utility.yul\":25006:25010   */\n      dup5\n        /* \"#utility.yul\":24962:25027   */\n      tag_376\n      jump\t// in\n    tag_627:\n        /* \"#utility.yul\":24897:25033   */\n      pop\n        /* \"#utility.yul\":24844:25033   */\n      pop\n      pop\n      jump\t// out\n        /* \"#utility.yul\":25039:25225   */\n    tag_379:\n        /* \"#utility.yul\":25099:25219   */\n    tag_629:\n        /* \"#utility.yul\":25116:25119   */\n      dup2\n        /* \"#utility.yul\":25109:25114   */\n      dup2\n        /* \"#utility.yul\":25106:25120   */\n      lt\n        /* \"#utility.yul\":25099:25219   */\n      iszero\n      tag_631\n      jumpi\n        /* \"#utility.yul\":25170:25209   */\n      tag_632\n        /* \"#utility.yul\":25207:25208   */\n      0x00\n        /* \"#utility.yul\":25200:25205   */\n      dup3\n        /* \"#utility.yul\":25170:25209   */\n      tag_378\n      jump\t// in\n    tag_632:\n        /* \"#utility.yul\":25143:25144   */\n      0x01\n        /* \"#utility.yul\":25136:25141   */\n      dup2\n        /* \"#utility.yul\":25132:25145   */\n      add\n        /* \"#utility.yul\":25123:25145   */\n      swap1\n      pop\n        /* \"#utility.yul\":25099:25219   */\n      jump(tag_629)\n    tag_631:\n        /* \"#utility.yul\":25039:25225   */\n      pop\n      pop\n      jump\t// out\n        /* \"#utility.yul\":25231:25772   */\n    tag_380:\n        /* \"#utility.yul\":25331:25333   */\n      0x1f\n        /* \"#utility.yul\":25326:25329   */\n      dup3\n        /* \"#utility.yul\":25323:25334   */\n      gt\n        /* \"#utility.yul\":25320:25765   */\n      iszero\n      tag_634\n      jumpi\n        /* \"#utility.yul\":25365:25402   */\n      tag_635\n        /* \"#utility.yul\":25396:25401   */\n      dup2\n        /* \"#utility.yul\":25365:25402   */\n      tag_369\n      jump\t// in\n    tag_635:\n        /* \"#utility.yul\":25448:25477   */\n      tag_636\n        /* \"#utility.yul\":25466:25476   */\n      dup5\n        /* \"#utility.yul\":25448:25477   */\n      tag_370\n      jump\t// in\n    tag_636:\n        /* \"#utility.yul\":25438:25446   */\n      dup2\n        /* \"#utility.yul\":25434:25478   */\n      add\n        /* \"#utility.yul\":25631:25633   */\n      0x20\n        /* \"#utility.yul\":25619:25629   */\n      dup6\n        /* \"#utility.yul\":25616:25634   */\n      lt\n        /* \"#utility.yul\":25613:25662   */\n      iszero\n      tag_637\n      jumpi\n        /* \"#utility.yul\":25652:25660   */\n      dup2\n        /* \"#utility.yul\":25637:25660   */\n      swap1\n      pop\n        /* \"#utility.yul\":25613:25662   */\n    tag_637:\n        /* \"#utility.yul\":25675:25755   */\n      tag_638\n        /* \"#utility.yul\":25731:25753   */\n      tag_639\n        /* \"#utility.yul\":25749:25752   */\n      dup6\n        /* \"#utility.yul\":25731:25753   */\n      tag_370\n      jump\t// in\n    tag_639:\n        /* \"#utility.yul\":25721:25729   */\n      dup4\n        /* \"#utility.yul\":25717:25754   */\n      add\n        /* \"#utility.yul\":25704:25715   */\n      dup3\n        /* \"#utility.yul\":25675:25755   */\n      tag_379\n      jump\t// in\n    tag_638:\n        /* \"#utility.yul\":25335:25765   */\n      pop\n      pop\n        /* \"#utility.yul\":25320:25765   */\n    tag_634:\n        /* \"#utility.yul\":25231:25772   */\n      pop\n      pop\n      pop\n      jump\t// out\n        /* \"#utility.yul\":25778:25895   */\n    tag_381:\n        /* \"#utility.yul\":25832:25840   */\n      0x00\n        /* \"#utility.yul\":25882:25887   */\n      dup3\n        /* \"#utility.yul\":25876:25880   */\n      dup3\n        /* \"#utility.yul\":25872:25888   */\n      shr\n        /* \"#utility.yul\":25851:25888   */\n      swap1\n      pop\n        /* \"#utility.yul\":25778:25895   */\n      swap3\n      swap2\n      pop\n      pop\n      jump\t// out\n        /* \"#utility.yul\":25901:26070   */\n    tag_382:\n        /* \"#utility.yul\":25945:25951   */\n      0x00\n        /* \"#utility.yul\":25978:26029   */\n      tag_642\n        /* \"#utility.yul\":26026:26027   */\n      0x00\n        /* \"#utility.yul\":26022:26028   */\n      not\n        /* \"#utility.yul\":26014:26019   */\n      dup5\n        /* \"#utility.yul\":26011:26012   */\n      0x08\n        /* \"#utility.yul\":26007:26020   */\n      mul\n        /* \"#utility.yul\":25978:26029   */\n      tag_381\n      jump\t// in\n    tag_642:\n        /* \"#utility.yul\":25974:26030   */\n      not\n        /* \"#utility.yul\":26059:26063   */\n      dup1\n        /* \"#utility.yul\":26053:26057   */\n      dup4\n        /* \"#utility.yul\":26049:26064   */\n      and\n        /* \"#utility.yul\":26039:26064   */\n      swap2\n      pop\n        /* \"#utility.yul\":25952:26070   */\n      pop\n        /* \"#utility.yul\":25901:26070   */\n      swap3\n      swap2\n      pop\n      pop\n      jump\t// out\n        /* \"#utility.yul\":26075:26370   */\n    tag_383:\n        /* \"#utility.yul\":26151:26155   */\n      0x00\n        /* \"#utility.yul\":26297:26326   */\n      tag_644\n        /* \"#utility.yul\":26322:26325   */\n      dup4\n        /* \"#utility.yul\":26316:26320   */\n      dup4\n        /* \"#utility.yul\":26297:26326   */\n      tag_382\n      jump\t// in\n    tag_644:\n        /* \"#utility.yul\":26289:26326   */\n      swap2\n      pop\n        /* \"#utility.yul\":26359:26362   */\n      dup3\n        /* \"#utility.yul\":26356:26357   */\n      0x02\n        /* \"#utility.yul\":26352:26363   */\n      mul\n        /* \"#utility.yul\":26346:26350   */\n      dup3\n        /* \"#utility.yul\":26343:26364   */\n      or\n        /* \"#utility.yul\":26335:26364   */\n      swap1\n      pop\n        /* \"#utility.yul\":26075:26370   */\n      swap3\n      swap2\n      pop\n      pop\n      jump\t// out\n        /* \"#utility.yul\":26375:27765   */\n    tag_265:\n        /* \"#utility.yul\":26490:26526   */\n      tag_646\n        /* \"#utility.yul\":26522:26525   */\n      dup3\n        /* \"#utility.yul\":26490:26526   */\n      tag_322\n      jump\t// in\n    tag_646:\n        /* \"#utility.yul\":26591:26609   */\n      0xffffffffffffffff\n        /* \"#utility.yul\":26583:26589   */\n      dup2\n        /* \"#utility.yul\":26580:26610   */\n      gt\n        /* \"#utility.yul\":26577:26633   */\n      iszero\n      tag_647\n      jumpi\n        /* \"#utility.yul\":26613:26631   */\n      tag_648\n      tag_336\n      jump\t// in\n    tag_648:\n        /* \"#utility.yul\":26577:26633   */\n    tag_647:\n        /* \"#utility.yul\":26657:26695   */\n      tag_649\n        /* \"#utility.yul\":26689:26693   */\n      dup3\n        /* \"#utility.yul\":26683:26694   */\n      sload\n        /* \"#utility.yul\":26657:26695   */\n      tag_204\n      jump\t// in\n    tag_649:\n        /* \"#utility.yul\":26742:26808   */\n      tag_650\n        /* \"#utility.yul\":26801:26807   */\n      dup3\n        /* \"#utility.yul\":26793:26799   */\n      dup3\n        /* \"#utility.yul\":26787:26791   */\n      dup6\n        /* \"#utility.yul\":26742:26808   */\n      tag_380\n      jump\t// in\n    tag_650:\n        /* \"#utility.yul\":26835:26836   */\n      0x00\n        /* \"#utility.yul\":26859:26863   */\n      0x20\n        /* \"#utility.yul\":26846:26863   */\n      swap1\n      pop\n        /* \"#utility.yul\":26891:26893   */\n      0x1f\n        /* \"#utility.yul\":26883:26889   */\n      dup4\n        /* \"#utility.yul\":26880:26894   */\n      gt\n        /* \"#utility.yul\":26908:26909   */\n      0x01\n        /* \"#utility.yul\":26903:27520   */\n      dup2\n      eq\n      tag_652\n      jumpi\n        /* \"#utility.yul\":27564:27565   */\n      0x00\n        /* \"#utility.yul\":27581:27587   */\n      dup5\n        /* \"#utility.yul\":27578:27655   */\n      iszero\n      tag_653\n      jumpi\n        /* \"#utility.yul\":27630:27639   */\n      dup3\n        /* \"#utility.yul\":27625:27628   */\n      dup8\n        /* \"#utility.yul\":27621:27640   */\n      add\n        /* \"#utility.yul\":27615:27641   */\n      mload\n        /* \"#utility.yul\":27606:27641   */\n      swap1\n      pop\n        /* \"#utility.yul\":27578:27655   */\n    tag_653:\n        /* \"#utility.yul\":27681:27748   */\n      tag_654\n        /* \"#utility.yul\":27741:27747   */\n      dup6\n        /* \"#utility.yul\":27734:27739   */\n      dup3\n        /* \"#utility.yul\":27681:27748   */\n      tag_383\n      jump\t// in\n    tag_654:\n        /* \"#utility.yul\":27675:27679   */\n      dup7\n        /* \"#utility.yul\":27668:27749   */\n      sstore\n        /* \"#utility.yul\":27537:27759   */\n      pop\n        /* \"#utility.yul\":26873:27759   */\n      jump(tag_651)\n        /* \"#utility.yul\":26903:27520   */\n    tag_652:\n        /* \"#utility.yul\":26955:26959   */\n      0x1f\n        /* \"#utility.yul\":26951:26960   */\n      not\n        /* \"#utility.yul\":26943:26949   */\n      dup5\n        /* \"#utility.yul\":26939:26961   */\n      and\n        /* \"#utility.yul\":26989:27025   */\n      tag_655\n        /* \"#utility.yul\":27020:27024   */\n      dup7\n        /* \"#utility.yul\":26989:27025   */\n      tag_369\n      jump\t// in\n    tag_655:\n        /* \"#utility.yul\":27047:27048   */\n      0x00\n        /* \"#utility.yul\":27061:27269   */\n    tag_656:\n        /* \"#utility.yul\":27075:27082   */\n      dup3\n        /* \"#utility.yul\":27072:27073   */\n      dup2\n        /* \"#utility.yul\":27069:27083   */\n      lt\n        /* \"#utility.yul\":27061:27269   */\n      iszero\n      tag_658\n      jumpi\n        /* \"#utility.yul\":27154:27163   */\n      dup5\n        /* \"#utility.yul\":27149:27152   */\n      dup10\n        /* \"#utility.yul\":27145:27164   */\n      add\n        /* \"#utility.yul\":27139:27165   */\n      mload\n        /* \"#utility.yul\":27131:27137   */\n      dup3\n        /* \"#utility.yul\":27124:27166   */\n      sstore\n        /* \"#utility.yul\":27205:27206   */\n      0x01\n        /* \"#utility.yul\":27197:27203   */\n      dup3\n        /* \"#utility.yul\":27193:27207   */\n      add\n        /* \"#utility.yul\":27183:27207   */\n      swap2\n      pop\n        /* \"#utility.yul\":27252:27254   */\n      0x20\n        /* \"#utility.yul\":27241:27250   */\n      dup6\n        /* \"#utility.yul\":27237:27255   */\n      add\n        /* \"#utility.yul\":27224:27255   */\n      swap5\n      pop\n        /* \"#utility.yul\":27098:27102   */\n      0x20\n        /* \"#utility.yul\":27095:27096   */\n      dup2\n        /* \"#utility.yul\":27091:27103   */\n      add\n        /* \"#utility.yul\":27086:27103   */\n      swap1\n      pop\n        /* \"#utility.yul\":27061:27269   */\n      jump(tag_656)\n    tag_658:\n        /* \"#utility.yul\":27297:27303   */\n      dup7\n        /* \"#utility.yul\":27288:27295   */\n      dup4\n        /* \"#utility.yul\":27285:27304   */\n      lt\n        /* \"#utility.yul\":27282:27461   */\n      iszero\n      tag_659\n      jumpi\n        /* \"#utility.yul\":27355:27364   */\n      dup5\n        /* \"#utility.yul\":27350:27353   */\n      dup10\n        /* \"#utility.yul\":27346:27365   */\n      add\n        /* \"#utility.yul\":27340:27366   */\n      mload\n        /* \"#utility.yul\":27398:27446   */\n      tag_660\n        /* \"#utility.yul\":27440:27444   */\n      0x1f\n        /* \"#utility.yul\":27432:27438   */\n      dup10\n        /* \"#utility.yul\":27428:27445   */\n      and\n        /* \"#utility.yul\":27417:27426   */\n      dup3\n        /* \"#utility.yul\":27398:27446   */\n      tag_382\n      jump\t// in\n    tag_660:\n        /* \"#utility.yul\":27390:27396   */\n      dup4\n        /* \"#utility.yul\":27383:27447   */\n      sstore\n        /* \"#utility.yul\":27305:27461   */\n      pop\n        /* \"#utility.yul\":27282:27461   */\n    tag_659:\n        /* \"#utility.yul\":27507:27508   */\n      0x01\n        /* \"#utility.yul\":27503:27504   */\n      0x02\n        /* \"#utility.yul\":27495:27501   */\n      dup9\n        /* \"#utility.yul\":27491:27505   */\n      mul\n        /* \"#utility.yul\":27487:27509   */\n      add\n        /* \"#utility.yul\":27481:27485   */\n      dup9\n        /* \"#utility.yul\":27474:27510   */\n      sstore\n        /* \"#utility.yul\":26910:27520   */\n      pop\n      pop\n      pop\n        /* \"#utility.yul\":26873:27759   */\n    tag_651:\n      pop\n        /* \"#utility.yul\":26465:27765   */\n      pop\n      pop\n      pop\n        /* \"#utility.yul\":26375:27765   */\n      pop\n      pop\n      jump\t// out\n        /* \"#utility.yul\":27771:28190   */\n    tag_267:\n        /* \"#utility.yul\":27910:27914   */\n      0x00\n        /* \"#utility.yul\":27948:27950   */\n      0x40\n        /* \"#utility.yul\":27937:27946   */\n      dup3\n        /* \"#utility.yul\":27933:27951   */\n      add\n        /* \"#utility.yul\":27925:27951   */\n      swap1\n      pop\n        /* \"#utility.yul\":27961:28032   */\n      tag_662\n        /* \"#utility.yul\":28029:28030   */\n      0x00\n        /* \"#utility.yul\":28018:28027   */\n      dup4\n        /* \"#utility.yul\":28014:28031   */\n      add\n        /* \"#utility.yul\":28005:28011   */\n      dup6\n        /* \"#utility.yul\":27961:28032   */\n      tag_309\n      jump\t// in\n    tag_662:\n        /* \"#utility.yul\":28079:28088   */\n      dup2\n        /* \"#utility.yul\":28073:28077   */\n      dup2\n        /* \"#utility.yul\":28069:28089   */\n      sub\n        /* \"#utility.yul\":28064:28066   */\n      0x20\n        /* \"#utility.yul\":28053:28062   */\n      dup4\n        /* \"#utility.yul\":28049:28067   */\n      add\n        /* \"#utility.yul\":28042:28090   */\n      mstore\n        /* \"#utility.yul\":28107:28183   */\n      tag_663\n        /* \"#utility.yul\":28178:28182   */\n      dup2\n        /* \"#utility.yul\":28169:28175   */\n      dup5\n        /* \"#utility.yul\":28107:28183   */\n      tag_326\n      jump\t// in\n    tag_663:\n        /* \"#utility.yul\":28099:28183   */\n      swap1\n      pop\n        /* \"#utility.yul\":27771:28190   */\n      swap4\n      swap3\n      pop\n      pop\n      pop\n      jump\t// out\n        /* \"#utility.yul\":28196:28363   */\n    tag_384:\n        /* \"#utility.yul\":28336:28355   */\n      0x63616e6e6f742065786563757465207478000000000000000000000000000000\n        /* \"#utility.yul\":28332:28333   */\n      0x00\n        /* \"#utility.yul\":28324:28330   */\n      dup3\n        /* \"#utility.yul\":28320:28334   */\n      add\n        /* \"#utility.yul\":28313:28356   */\n      mstore\n        /* \"#utility.yul\":28196:28363   */\n      pop\n      jump\t// out\n        /* \"#utility.yul\":28369:28735   */\n    tag_385:\n        /* \"#utility.yul\":28511:28514   */\n      0x00\n        /* \"#utility.yul\":28532:28599   */\n      tag_666\n        /* \"#utility.yul\":28596:28598   */\n      0x11\n        /* \"#utility.yul\":28591:28594   */\n      dup4\n        /* \"#utility.yul\":28532:28599   */\n      tag_344\n      jump\t// in\n    tag_666:\n        /* \"#utility.yul\":28525:28599   */\n      swap2\n      pop\n        /* \"#utility.yul\":28608:28701   */\n      tag_667\n        /* \"#utility.yul\":28697:28700   */\n      dup3\n        /* \"#utility.yul\":28608:28701   */\n      tag_384\n      jump\t// in\n    tag_667:\n        /* \"#utility.yul\":28726:28728   */\n      0x20\n        /* \"#utility.yul\":28721:28724   */\n      dup3\n        /* \"#utility.yul\":28717:28729   */\n      add\n        /* \"#utility.yul\":28710:28729   */\n      swap1\n      pop\n        /* \"#utility.yul\":28369:28735   */\n      swap2\n      swap1\n      pop\n      jump\t// out\n        /* \"#utility.yul\":28741:29160   */\n    tag_286:\n        /* \"#utility.yul\":28907:28911   */\n      0x00\n        /* \"#utility.yul\":28945:28947   */\n      0x20\n        /* \"#utility.yul\":28934:28943   */\n      dup3\n        /* \"#utility.yul\":28930:28948   */\n      add\n        /* \"#utility.yul\":28922:28948   */\n      swap1\n      pop\n        /* \"#utility.yul\":28994:29003   */\n      dup2\n        /* \"#utility.yul\":28988:28992   */\n      dup2\n        /* \"#utility.yul\":28984:29004   */\n      sub\n        /* \"#utility.yul\":28980:28981   */\n      0x00\n        /* \"#utility.yul\":28969:28978   */\n      dup4\n        /* \"#utility.yul\":28965:28982   */\n      add\n        /* \"#utility.yul\":28958:29005   */\n      mstore\n        /* \"#utility.yul\":29022:29153   */\n      tag_669\n        /* \"#utility.yul\":29148:29152   */\n      dup2\n        /* \"#utility.yul\":29022:29153   */\n      tag_385\n      jump\t// in\n    tag_669:\n        /* \"#utility.yul\":29014:29153   */\n      swap1\n      pop\n        /* \"#utility.yul\":28741:29160   */\n      swap2\n      swap1\n      pop\n      jump\t// out\n        /* \"#utility.yul\":29166:29313   */\n    tag_386:\n        /* \"#utility.yul\":29267:29278   */\n      0x00\n        /* \"#utility.yul\":29304:29307   */\n      dup2\n        /* \"#utility.yul\":29289:29307   */\n      swap1\n      pop\n        /* \"#utility.yul\":29166:29313   */\n      swap3\n      swap2\n      pop\n      pop\n      jump\t// out\n        /* \"#utility.yul\":29341:30211   */\n    tag_387:\n        /* \"#utility.yul\":29442:29445   */\n      0x00\n        /* \"#utility.yul\":29479:29484   */\n      dup2\n        /* \"#utility.yul\":29473:29485   */\n      sload\n        /* \"#utility.yul\":29508:29544   */\n      tag_672\n        /* \"#utility.yul\":29534:29543   */\n      dup2\n        /* \"#utility.yul\":29508:29544   */\n      tag_204\n      jump\t// in\n    tag_672:\n        /* \"#utility.yul\":29560:29648   */\n      tag_673\n        /* \"#utility.yul\":29641:29647   */\n      dup2\n        /* \"#utility.yul\":29636:29639   */\n      dup7\n        /* \"#utility.yul\":29560:29648   */\n      tag_386\n      jump\t// in\n    tag_673:\n        /* \"#utility.yul\":29553:29648   */\n      swap5\n      pop\n        /* \"#utility.yul\":29679:29680   */\n      0x01\n        /* \"#utility.yul\":29668:29677   */\n      dup3\n        /* \"#utility.yul\":29664:29681   */\n      and\n        /* \"#utility.yul\":29695:29696   */\n      0x00\n        /* \"#utility.yul\":29690:29856   */\n      dup2\n      eq\n      tag_675\n      jumpi\n        /* \"#utility.yul\":29870:29871   */\n      0x01\n        /* \"#utility.yul\":29865:30205   */\n      dup2\n      eq\n      tag_676\n      jumpi\n        /* \"#utility.yul\":29657:30205   */\n      jump(tag_674)\n        /* \"#utility.yul\":29690:29856   */\n    tag_675:\n        /* \"#utility.yul\":29774:29778   */\n      0xff\n        /* \"#utility.yul\":29770:29779   */\n      not\n        /* \"#utility.yul\":29759:29768   */\n      dup4\n        /* \"#utility.yul\":29755:29780   */\n      and\n        /* \"#utility.yul\":29750:29753   */\n      dup7\n        /* \"#utility.yul\":29743:29781   */\n      mstore\n        /* \"#utility.yul\":29836:29842   */\n      dup2\n        /* \"#utility.yul\":29829:29843   */\n      iszero\n        /* \"#utility.yul\":29822:29844   */\n      iszero\n        /* \"#utility.yul\":29814:29820   */\n      dup3\n        /* \"#utility.yul\":29810:29845   */\n      mul\n        /* \"#utility.yul\":29805:29808   */\n      dup7\n        /* \"#utility.yul\":29801:29846   */\n      add\n        /* \"#utility.yul\":29794:29846   */\n      swap4\n      pop\n        /* \"#utility.yul\":29690:29856   */\n      jump(tag_674)\n        /* \"#utility.yul\":29865:30205   */\n    tag_676:\n        /* \"#utility.yul\":29932:29969   */\n      tag_677\n        /* \"#utility.yul\":29963:29968   */\n      dup6\n        /* \"#utility.yul\":29932:29969   */\n      tag_369\n      jump\t// in\n    tag_677:\n        /* \"#utility.yul\":29991:29992   */\n      0x00\n        /* \"#utility.yul\":30005:30159   */\n    tag_678:\n        /* \"#utility.yul\":30019:30025   */\n      dup4\n        /* \"#utility.yul\":30016:30017   */\n      dup2\n        /* \"#utility.yul\":30013:30026   */\n      lt\n        /* \"#utility.yul\":30005:30159   */\n      iszero\n      tag_680\n      jumpi\n        /* \"#utility.yul\":30093:30100   */\n      dup2\n        /* \"#utility.yul\":30087:30101   */\n      sload\n        /* \"#utility.yul\":30083:30084   */\n      dup2\n        /* \"#utility.yul\":30078:30081   */\n      dup10\n        /* \"#utility.yul\":30074:30085   */\n      add\n        /* \"#utility.yul\":30067:30102   */\n      mstore\n        /* \"#utility.yul\":30143:30144   */\n      0x01\n        /* \"#utility.yul\":30134:30141   */\n      dup3\n        /* \"#utility.yul\":30130:30145   */\n      add\n        /* \"#utility.yul\":30119:30145   */\n      swap2\n      pop\n        /* \"#utility.yul\":30041:30045   */\n      0x20\n        /* \"#utility.yul\":30038:30039   */\n      dup2\n        /* \"#utility.yul\":30034:30046   */\n      add\n        /* \"#utility.yul\":30029:30046   */\n      swap1\n      pop\n        /* \"#utility.yul\":30005:30159   */\n      jump(tag_678)\n    tag_680:\n        /* \"#utility.yul\":30188:30194   */\n      dup4\n        /* \"#utility.yul\":30183:30186   */\n      dup9\n        /* \"#utility.yul\":30179:30195   */\n      add\n        /* \"#utility.yul\":30172:30195   */\n      swap6\n      pop\n        /* \"#utility.yul\":29872:30205   */\n      pop\n      pop\n        /* \"#utility.yul\":29657:30205   */\n    tag_674:\n      pop\n        /* \"#utility.yul\":29446:30211   */\n      pop\n      pop\n        /* \"#utility.yul\":29341:30211   */\n      swap3\n      swap2\n      pop\n      pop\n      jump\t// out\n        /* \"#utility.yul\":30217:30482   */\n    tag_288:\n        /* \"#utility.yul\":30344:30347   */\n      0x00\n        /* \"#utility.yul\":30366:30456   */\n      tag_682\n        /* \"#utility.yul\":30452:30455   */\n      dup3\n        /* \"#utility.yul\":30443:30449   */\n      dup5\n        /* \"#utility.yul\":30366:30456   */\n      tag_387\n      jump\t// in\n    tag_682:\n        /* \"#utility.yul\":30359:30456   */\n      swap2\n      pop\n        /* \"#utility.yul\":30473:30476   */\n      dup2\n        /* \"#utility.yul\":30466:30476   */\n      swap1\n      pop\n        /* \"#utility.yul\":30217:30482   */\n      swap3\n      swap2\n      pop\n      pop\n      jump\t// out\n        /* \"#utility.yul\":30488:30647   */\n    tag_388:\n        /* \"#utility.yul\":30628:30639   */\n      0x7478206661696c65640000000000000000000000000000000000000000000000\n        /* \"#utility.yul\":30624:30625   */\n      0x00\n        /* \"#utility.yul\":30616:30622   */\n      dup3\n        /* \"#utility.yul\":30612:30626   */\n      add\n        /* \"#utility.yul\":30605:30640   */\n      mstore\n        /* \"#utility.yul\":30488:30647   */\n      pop\n      jump\t// out\n        /* \"#utility.yul\":30653:31018   */\n    tag_389:\n        /* \"#utility.yul\":30795:30798   */\n      0x00\n        /* \"#utility.yul\":30816:30882   */\n      tag_685\n        /* \"#utility.yul\":30880:30881   */\n      0x09\n        /* \"#utility.yul\":30875:30878   */\n      dup4\n        /* \"#utility.yul\":30816:30882   */\n      tag_344\n      jump\t// in\n    tag_685:\n        /* \"#utility.yul\":30809:30882   */\n      swap2\n      pop\n        /* \"#utility.yul\":30891:30984   */\n      tag_686\n        /* \"#utility.yul\":30980:30983   */\n      dup3\n        /* \"#utility.yul\":30891:30984   */\n      tag_388\n      jump\t// in\n    tag_686:\n        /* \"#utility.yul\":31009:31011   */\n      0x20\n        /* \"#utility.yul\":31004:31007   */\n      dup3\n        /* \"#utility.yul\":31000:31012   */\n      add\n        /* \"#utility.yul\":30993:31012   */\n      swap1\n      pop\n        /* \"#utility.yul\":30653:31018   */\n      swap2\n      swap1\n      pop\n      jump\t// out\n        /* \"#utility.yul\":31024:31443   */\n    tag_294:\n        /* \"#utility.yul\":31190:31194   */\n      0x00\n        /* \"#utility.yul\":31228:31230   */\n      0x20\n        /* \"#utility.yul\":31217:31226   */\n      dup3\n        /* \"#utility.yul\":31213:31231   */\n      add\n        /* \"#utility.yul\":31205:31231   */\n      swap1\n      pop\n        /* \"#utility.yul\":31277:31286   */\n      dup2\n        /* \"#utility.yul\":31271:31275   */\n      dup2\n        /* \"#utility.yul\":31267:31287   */\n      sub\n        /* \"#utility.yul\":31263:31264   */\n      0x00\n        /* \"#utility.yul\":31252:31261   */\n      dup4\n        /* \"#utility.yul\":31248:31265   */\n      add\n        /* \"#utility.yul\":31241:31288   */\n      mstore\n        /* \"#utility.yul\":31305:31436   */\n      tag_688\n        /* \"#utility.yul\":31431:31435   */\n      dup2\n        /* \"#utility.yul\":31305:31436   */\n      tag_389\n      jump\t// in\n    tag_688:\n        /* \"#utility.yul\":31297:31436   */\n      swap1\n      pop\n        /* \"#utility.yul\":31024:31443   */\n      swap2\n      swap1\n      pop\n      jump\t// out\n        /* \"#utility.yul\":31449:31623   */\n    tag_390:\n        /* \"#utility.yul\":31589:31615   */\n      0x4e6f2068617320636f6e7365677569646f2070726f6669740000000000000000\n        /* \"#utility.yul\":31585:31586   */\n      0x00\n        /* \"#utility.yul\":31577:31583   */\n      dup3\n        /* \"#utility.yul\":31573:31587   */\n      add\n        /* \"#utility.yul\":31566:31616   */\n      mstore\n        /* \"#utility.yul\":31449:31623   */\n      pop\n      jump\t// out\n        /* \"#utility.yul\":31629:31995   */\n    tag_391:\n        /* \"#utility.yul\":31771:31774   */\n      0x00\n        /* \"#utility.yul\":31792:31859   */\n      tag_691\n        /* \"#utility.yul\":31856:31858   */\n      0x18\n        /* \"#utility.yul\":31851:31854   */\n      dup4\n        /* \"#utility.yul\":31792:31859   */\n      tag_344\n      jump\t// in\n    tag_691:\n        /* \"#utility.yul\":31785:31859   */\n      swap2\n      pop\n        /* \"#utility.yul\":31868:31961   */\n      tag_692\n        /* \"#utility.yul\":31957:31960   */\n      dup3\n        /* \"#utility.yul\":31868:31961   */\n      tag_390\n      jump\t// in\n    tag_692:\n        /* \"#utility.yul\":31986:31988   */\n      0x20\n        /* \"#utility.yul\":31981:31984   */\n      dup3\n        /* \"#utility.yul\":31977:31989   */\n      add\n        /* \"#utility.yul\":31970:31989   */\n      swap1\n      pop\n        /* \"#utility.yul\":31629:31995   */\n      swap2\n      swap1\n      pop\n      jump\t// out\n        /* \"#utility.yul\":32001:32420   */\n    tag_302:\n        /* \"#utility.yul\":32167:32171   */\n      0x00\n        /* \"#utility.yul\":32205:32207   */\n      0x20\n        /* \"#utility.yul\":32194:32203   */\n      dup3\n        /* \"#utility.yul\":32190:32208   */\n      add\n        /* \"#utility.yul\":32182:32208   */\n      swap1\n      pop\n        /* \"#utility.yul\":32254:32263   */\n      dup2\n        /* \"#utility.yul\":32248:32252   */\n      dup2\n        /* \"#utility.yul\":32244:32264   */\n      sub\n        /* \"#utility.yul\":32240:32241   */\n      0x00\n        /* \"#utility.yul\":32229:32238   */\n      dup4\n        /* \"#utility.yul\":32225:32242   */\n      add\n        /* \"#utility.yul\":32218:32265   */\n      mstore\n        /* \"#utility.yul\":32282:32413   */\n      tag_694\n        /* \"#utility.yul\":32408:32412   */\n      dup2\n        /* \"#utility.yul\":32282:32413   */\n      tag_391\n      jump\t// in\n    tag_694:\n        /* \"#utility.yul\":32274:32413   */\n      swap1\n      pop\n        /* \"#utility.yul\":32001:32420   */\n      swap2\n      swap1\n      pop\n      jump\t// out\n\n    auxdata: 0xa2646970667358221220c9ee5e9cc62db94a918019561b186fed39aa8820bfff86464fb376466e4e49ed64736f6c63430008170033\n}\n",
				"bytecode": {
					"linkReferences": {},
					"object": "608060405260028055600260035534801562000019575f80fd5b5060405162002d4038038062002d4083398181016040528101906200003f9190620001cf565b5f73ffffffffffffffffffffffffffffffffffffffff168173ffffffffffffffffffffffffffffffffffffffff1603620000b0576040517f08c379a0000000000000000000000000000000000000000000000000000000008152600401620000a7906200025d565b60405180910390fd5b6001805f8373ffffffffffffffffffffffffffffffffffffffff1673ffffffffffffffffffffffffffffffffffffffff1681526020019081526020015f205f6101000a81548160ff0219169083151502179055505f81908060018154018082558091505060019003905f5260205f20015f9091909190916101000a81548173ffffffffffffffffffffffffffffffffffffffff021916908373ffffffffffffffffffffffffffffffffffffffff160217905550506200027d565b5f80fd5b5f73ffffffffffffffffffffffffffffffffffffffff82169050919050565b5f62000199826200016e565b9050919050565b620001ab816200018d565b8114620001b6575f80fd5b50565b5f81519050620001c981620001a0565b92915050565b5f60208284031215620001e757620001e66200016a565b5b5f620001f684828501620001b9565b91505092915050565b5f82825260208201905092915050565b7f696e76616c6964206f776e6572000000000000000000000000000000000000005f82015250565b5f62000245600d83620001ff565b915062000252826200020f565b602082019050919050565b5f6020820190508181035f830152620002768162000237565b9050919050565b612ab5806200028b5f395ff3fe608060405260043610610138575f3560e01c806380f59a65116100aa578063c64274741161006e578063c6427474146104c3578063d0549b85146104eb578063ee22610b14610515578063f247f02d1461053d578063f6291e4314610567578063f9633930146105a35761018f565b806380f59a65146103b957806382539a0d146103f55780639ace38c214610431578063a0e67e2b14610471578063c01a8c841461049b5761018f565b806320ea8d86116100fc57806320ea8d86146102875780632e7700f0146102af5780632f54bf6e146102d957806333ea3dc814610315578063610539b4146103555780637065cb48146103915761018f565b8063025e7c27146101935780630b8bb146146101cf57806313faede6146101f957806315d5799214610223578063173825d91461025f5761018f565b3661018f573373ffffffffffffffffffffffffffffffffffffffff167f90890809c654f11d6e72a28fa60149770a0d11ec6c92319d6ceb2bb0a4ea1a153447604051610185929190611a8e565b60405180910390a2005b5f80fd5b34801561019e575f80fd5b506101b960048036038101906101b49190611af0565b6105cd565b6040516101c69190611b5a565b60405180910390f35b3480156101da575f80fd5b506101e3610607565b6040516101f09190611b73565b60405180910390f35b348015610204575f80fd5b5061020d61060c565b60405161021a9190611b73565b60405180910390f35b34801561022e575f80fd5b5061024960048036038101906102449190611af0565b610612565b6040516102569190611b73565b60405180910390f35b34801561026a575f80fd5b5061028560048036038101906102809190611bb6565b61065c565b005b348015610292575f80fd5b506102ad60048036038101906102a89190611af0565b61093a565b005b3480156102ba575f80fd5b506102c3610bff565b6040516102d09190611b73565b60405180910390f35b3480156102e4575f80fd5b506102ff60048036038101906102fa9190611bb6565b610c0b565b60405161030c9190611bfb565b60405180910390f35b348015610320575f80fd5b5061033b60048036038101906103369190611af0565b610c28565b60405161034c959493929190611c9e565b60405180910390f35b348015610360575f80fd5b5061037b60048036038101906103769190611af0565b610d31565b6040516103889190611b73565b60405180910390f35b34801561039c575f80fd5b506103b760048036038101906103b29190611bb6565b610d7b565b005b3480156103c4575f80fd5b506103df60048036038101906103da9190611cf6565b610fb3565b6040516103ec9190611bfb565b60405180910390f35b348015610400575f80fd5b5061041b60048036038101906104169190611af0565b610fdd565b6040516104289190611b73565b60405180910390f35b34801561043c575f80fd5b5061045760048036038101906104529190611af0565b611027565b604051610468959493929190611c9e565b60405180910390f35b34801561047c575f80fd5b50610485611119565b6040516104929190611deb565b60405180910390f35b3480156104a6575f80fd5b506104c160048036038101906104bc9190611af0565b6111a3565b005b3480156104ce575f80fd5b506104e960048036038101906104e49190611f37565b61146c565b005b3480156104f6575f80fd5b506104ff611662565b60405161050c9190611b73565b60405180910390f35b348015610520575f80fd5b5061053b60048036038101906105369190611af0565b611668565b005b348015610548575f80fd5b50610551611950565b60405161055e9190611b73565b60405180910390f35b348015610572575f80fd5b5061058d60048036038101906105889190611af0565b611956565b60405161059a9190611b73565b60405180910390f35b3480156105ae575f80fd5b506105b76119a0565b6040516105c49190611ff5565b60405180910390f35b5f81815481106105db575f80fd5b905f5260205f20015f915054906101000a900473ffffffffffffffffffffffffffffffffffffffff1681565b600381565b60055481565b5f60048083610621919061206f565b61062b919061209f565b60058190555060035460055f82825461064491906120e0565b92505081905550816004819055506005549050919050565b60015f8273ffffffffffffffffffffffffffffffffffffffff1673ffffffffffffffffffffffffffffffffffffffff1681526020019081526020015f205f9054906101000a900460ff166106e5576040517f08c379a00000000000000000000000000000000000000000000000000000000081526004016106dc9061215d565b60405180910390fd5b60015f805490501161072c576040517f08c379a0000000000000000000000000000000000000000000000000000000008152600401610723906121c5565b60405180910390fd5b5f60015f8373ffffffffffffffffffffffffffffffffffffffff1673ffffffffffffffffffffffffffffffffffffffff1681526020019081526020015f205f6101000a81548160ff0219169083151502179055505f5b5f805490508110156108f3578173ffffffffffffffffffffffffffffffffffffffff165f82815481106107b8576107b76121e3565b5b905f5260205f20015f9054906101000a900473ffffffffffffffffffffffffffffffffffffffff1673ffffffffffffffffffffffffffffffffffffffff16036108e6575f60015f8054905061080d9190612210565b8154811061081e5761081d6121e3565b5b905f5260205f20015f9054906101000a900473ffffffffffffffffffffffffffffffffffffffff165f8281548110610859576108586121e3565b5b905f5260205f20015f6101000a81548173ffffffffffffffffffffffffffffffffffffffff021916908373ffffffffffffffffffffffffffffffffffffffff1602179055505f8054806108af576108ae612243565b5b600190038181905f5260205f20015f6101000a81549073ffffffffffffffffffffffffffffffffffffffff021916905590556108f3565b8080600101915050610782565b508073ffffffffffffffffffffffffffffffffffffffff167f58619076adf5bb0943d100ef88d52d7c3fd691b19d3a9071b555b651fbf418da60405160405180910390a250565b60015f3373ffffffffffffffffffffffffffffffffffffffff1673ffffffffffffffffffffffffffffffffffffffff1681526020019081526020015f205f9054906101000a900460ff166109c3576040517f08c379a00000000000000000000000000000000000000000000000000000000081526004016109ba906122ba565b60405180910390fd5b806008805490508110610a0b576040517f08c379a0000000000000000000000000000000000000000000000000000000008152600401610a0290612322565b60405180910390fd5b8160088181548110610a2057610a1f6121e3565b5b905f5260205f2090600502016003015f9054906101000a900460ff1615610a7c576040517f08c379a0000000000000000000000000000000000000000000000000000000008152600401610a739061238a565b60405180910390fd5b5f60088481548110610a9157610a906121e3565b5b905f5260205f209060050201905060075f8581526020019081526020015f205f3373ffffffffffffffffffffffffffffffffffffffff1673ffffffffffffffffffffffffffffffffffffffff1681526020019081526020015f205f9054906101000a900460ff16610b37576040517f08c379a0000000000000000000000000000000000000000000000000000000008152600401610b2e906123f2565b60405180910390fd5b6001816004015f828254610b4b9190612210565b925050819055505f60075f8681526020019081526020015f205f3373ffffffffffffffffffffffffffffffffffffffff1673ffffffffffffffffffffffffffffffffffffffff1681526020019081526020015f205f6101000a81548160ff021916908315150217905550833373ffffffffffffffffffffffffffffffffffffffff167ff0dca620e2e81f7841d07bcc105e1704fb01475b278a9d4c236e1c62945edd5560405160405180910390a350505050565b5f600880549050905090565b6001602052805f5260405f205f915054906101000a900460ff1681565b5f8060605f805f60088781548110610c4357610c426121e3565b5b905f5260205f2090600502019050805f015f9054906101000a900473ffffffffffffffffffffffffffffffffffffffff16816001015482600201836003015f9054906101000a900460ff168460040154828054610c9f9061243d565b80601f0160208091040260200160405190810160405280929190818152602001828054610ccb9061243d565b8015610d165780601f10610ced57610100808354040283529160200191610d16565b820191905f5260205f20905b815481529060010190602001808311610cf957829003601f168201915b50505050509250955095509550955095505091939590929450565b5f60048083610d4091906120e0565b610d4a9190612210565b60058190555060035460055f828254610d6391906120e0565b92505081905550816004819055506005549050919050565b5f73ffffffffffffffffffffffffffffffffffffffff168173ffffffffffffffffffffffffffffffffffffffff1603610de9576040517f08c379a0000000000000000000000000000000000000000000000000000000008152600401610de0906124b7565b60405180910390fd5b60015f8273ffffffffffffffffffffffffffffffffffffffff1673ffffffffffffffffffffffffffffffffffffffff1681526020019081526020015f205f9054906101000a900460ff1615610e73576040517f08c379a0000000000000000000000000000000000000000000000000000000008152600401610e6a9061251f565b60405180910390fd5b60035f8054905010610eba576040517f08c379a0000000000000000000000000000000000000000000000000000000008152600401610eb190612587565b60405180910390fd5b6001805f8373ffffffffffffffffffffffffffffffffffffffff1673ffffffffffffffffffffffffffffffffffffffff1681526020019081526020015f205f6101000a81548160ff0219169083151502179055505f81908060018154018082558091505060019003905f5260205f20015f9091909190916101000a81548173ffffffffffffffffffffffffffffffffffffffff021916908373ffffffffffffffffffffffffffffffffffffffff1602179055508073ffffffffffffffffffffffffffffffffffffffff167f994a936646fe87ffe4f1e469d3d6aa417d6b855598397f323de5b449f765f0c360405160405180910390a250565b6007602052815f5260405f20602052805f5260405f205f915091509054906101000a900460ff1681565b5f60048083610fec919061209f565b610ff6919061206f565b60058190555060035460055f82825461100f91906120e0565b92505081905550816004819055506005549050919050565b60088181548110611036575f80fd5b905f5260205f2090600502015f91509050805f015f9054906101000a900473ffffffffffffffffffffffffffffffffffffffff16908060010154908060020180546110809061243d565b80601f01602080910402602001604051908101604052809291908181526020018280546110ac9061243d565b80156110f75780601f106110ce576101008083540402835291602001916110f7565b820191905f5260205f20905b8154815290600101906020018083116110da57829003601f168201915b505050505090806003015f9054906101000a900460ff16908060040154905085565b60605f80548060200260200160405190810160405280929190818152602001828054801561119957602002820191905f5260205f20905b815f9054906101000a900473ffffffffffffffffffffffffffffffffffffffff1673ffffffffffffffffffffffffffffffffffffffff1681526020019060010190808311611150575b5050505050905090565b60015f3373ffffffffffffffffffffffffffffffffffffffff1673ffffffffffffffffffffffffffffffffffffffff1681526020019081526020015f205f9054906101000a900460ff1661122c576040517f08c379a0000000000000000000000000000000000000000000000000000000008152600401611223906122ba565b60405180910390fd5b806008805490508110611274576040517f08c379a000000000000000000000000000000000000000000000000000000000815260040161126b90612322565b60405180910390fd5b8160088181548110611289576112886121e3565b5b905f5260205f2090600502016003015f9054906101000a900460ff16156112e5576040517f08c379a00000000000000000000000000000000000000000000000000000000081526004016112dc9061238a565b60405180910390fd5b8260075f8281526020019081526020015f205f3373ffffffffffffffffffffffffffffffffffffffff1673ffffffffffffffffffffffffffffffffffffffff1681526020019081526020015f205f9054906101000a900460ff161561137f576040517f08c379a0000000000000000000000000000000000000000000000000000000008152600401611376906125ef565b60405180910390fd5b5f60088581548110611394576113936121e3565b5b905f5260205f20906005020190506001816004015f8282546113b691906120e0565b92505081905550600160075f8781526020019081526020015f205f3373ffffffffffffffffffffffffffffffffffffffff1673ffffffffffffffffffffffffffffffffffffffff1681526020019081526020015f205f6101000a81548160ff021916908315150217905550843373ffffffffffffffffffffffffffffffffffffffff167f5cbe105e36805f7820e291f799d5794ff948af2a5f664e580382defb6339004160405160405180910390a35050505050565b60015f3373ffffffffffffffffffffffffffffffffffffffff1673ffffffffffffffffffffffffffffffffffffffff1681526020019081526020015f205f9054906101000a900460ff166114f5576040517f08c379a00000000000000000000000000000000000000000000000000000000081526004016114ec906122ba565b60405180910390fd5b5f600880549050905060086040518060a001604052808673ffffffffffffffffffffffffffffffffffffffff1681526020018581526020018481526020015f151581526020015f815250908060018154018082558091505060019003905f5260205f2090600502015f909190919091505f820151815f015f6101000a81548173ffffffffffffffffffffffffffffffffffffffff021916908373ffffffffffffffffffffffffffffffffffffffff1602179055506020820151816001015560408201518160020190816115c891906127aa565b506060820151816003015f6101000a81548160ff0219169083151502179055506080820151816004015550508373ffffffffffffffffffffffffffffffffffffffff16813373ffffffffffffffffffffffffffffffffffffffff167fd5a05bf70715ad82a09a756320284a1b54c9ff74cd0f8cce6219e79b563fe59d8686604051611654929190612879565b60405180910390a450505050565b60025481565b60015f3373ffffffffffffffffffffffffffffffffffffffff1673ffffffffffffffffffffffffffffffffffffffff1681526020019081526020015f205f9054906101000a900460ff166116f1576040517f08c379a00000000000000000000000000000000000000000000000000000000081526004016116e8906122ba565b60405180910390fd5b806008805490508110611739576040517f08c379a000000000000000000000000000000000000000000000000000000000815260040161173090612322565b60405180910390fd5b816008818154811061174e5761174d6121e3565b5b905f5260205f2090600502016003015f9054906101000a900460ff16156117aa576040517f08c379a00000000000000000000000000000000000000000000000000000000081526004016117a19061238a565b60405180910390fd5b5f600884815481106117bf576117be6121e3565b5b905f5260205f209060050201905060025481600401541015611816576040517f08c379a000000000000000000000000000000000000000000000000000000000815260040161180d906128f1565b60405180910390fd5b6001816003015f6101000a81548160ff0219169083151502179055505f815f015f9054906101000a900473ffffffffffffffffffffffffffffffffffffffff1673ffffffffffffffffffffffffffffffffffffffff168260010154836002016040516118829190612999565b5f6040518083038185875af1925050503d805f81146118bc576040519150601f19603f3d011682016040523d82523d5f602084013e6118c1565b606091505b5050905080611905576040517f08c379a00000000000000000000000000000000000000000000000000000000081526004016118fc906129f9565b60405180910390fd5b843373ffffffffffffffffffffffffffffffffffffffff167f5445f318f4f5fcfb66592e68e0cc5822aa15664039bd5f0ffde24c5a8142b1ac60405160405180910390a35050505050565b60045481565b5f600480836119659190612210565b61196f91906120e0565b60058190555060035460055f82825461198891906120e0565b92505081905550816004819055506005549050919050565b6060600554600454116119e8576040517f08c379a00000000000000000000000000000000000000000000000000000000081526004016119df90612a61565b60405180910390fd5b600680546119f59061243d565b80601f0160208091040260200160405190810160405280929190818152602001828054611a219061243d565b8015611a6c5780601f10611a4357610100808354040283529160200191611a6c565b820191905f5260205f20905b815481529060010190602001808311611a4f57829003601f168201915b5050505050905090565b5f819050919050565b611a8881611a76565b82525050565b5f604082019050611aa15f830185611a7f565b611aae6020830184611a7f565b9392505050565b5f604051905090565b5f80fd5b5f80fd5b611acf81611a76565b8114611ad9575f80fd5b50565b5f81359050611aea81611ac6565b92915050565b5f60208284031215611b0557611b04611abe565b5b5f611b1284828501611adc565b91505092915050565b5f73ffffffffffffffffffffffffffffffffffffffff82169050919050565b5f611b4482611b1b565b9050919050565b611b5481611b3a565b82525050565b5f602082019050611b6d5f830184611b4b565b92915050565b5f602082019050611b865f830184611a7f565b92915050565b611b9581611b3a565b8114611b9f575f80fd5b50565b5f81359050611bb081611b8c565b92915050565b5f60208284031215611bcb57611bca611abe565b5b5f611bd884828501611ba2565b91505092915050565b5f8115159050919050565b611bf581611be1565b82525050565b5f602082019050611c0e5f830184611bec565b92915050565b5f81519050919050565b5f82825260208201905092915050565b5f5b83811015611c4b578082015181840152602081019050611c30565b5f8484015250505050565b5f601f19601f8301169050919050565b5f611c7082611c14565b611c7a8185611c1e565b9350611c8a818560208601611c2e565b611c9381611c56565b840191505092915050565b5f60a082019050611cb15f830188611b4b565b611cbe6020830187611a7f565b8181036040830152611cd08186611c66565b9050611cdf6060830185611bec565b611cec6080830184611a7f565b9695505050505050565b5f8060408385031215611d0c57611d0b611abe565b5b5f611d1985828601611adc565b9250506020611d2a85828601611ba2565b9150509250929050565b5f81519050919050565b5f82825260208201905092915050565b5f819050602082019050919050565b611d6681611b3a565b82525050565b5f611d778383611d5d565b60208301905092915050565b5f602082019050919050565b5f611d9982611d34565b611da38185611d3e565b9350611dae83611d4e565b805f5b83811015611dde578151611dc58882611d6c565b9750611dd083611d83565b925050600181019050611db1565b5085935050505092915050565b5f6020820190508181035f830152611e038184611d8f565b905092915050565b5f80fd5b5f80fd5b7f4e487b71000000000000000000000000000000000000000000000000000000005f52604160045260245ffd5b611e4982611c56565b810181811067ffffffffffffffff82111715611e6857611e67611e13565b5b80604052505050565b5f611e7a611ab5565b9050611e868282611e40565b919050565b5f67ffffffffffffffff821115611ea557611ea4611e13565b5b611eae82611c56565b9050602081019050919050565b828183375f83830152505050565b5f611edb611ed684611e8b565b611e71565b905082815260208101848484011115611ef757611ef6611e0f565b5b611f02848285611ebb565b509392505050565b5f82601f830112611f1e57611f1d611e0b565b5b8135611f2e848260208601611ec9565b91505092915050565b5f805f60608486031215611f4e57611f4d611abe565b5b5f611f5b86828701611ba2565b9350506020611f6c86828701611adc565b925050604084013567ffffffffffffffff811115611f8d57611f8c611ac2565b5b611f9986828701611f0a565b9150509250925092565b5f81519050919050565b5f82825260208201905092915050565b5f611fc782611fa3565b611fd18185611fad565b9350611fe1818560208601611c2e565b611fea81611c56565b840191505092915050565b5f6020820190508181035f83015261200d8184611fbd565b905092915050565b7f4e487b71000000000000000000000000000000000000000000000000000000005f52601260045260245ffd5b7f4e487b71000000000000000000000000000000000000000000000000000000005f52601160045260245ffd5b5f61207982611a76565b915061208483611a76565b92508261209457612093612015565b5b828204905092915050565b5f6120a982611a76565b91506120b483611a76565b92508282026120c281611a76565b915082820484148315176120d9576120d8612042565b5b5092915050565b5f6120ea82611a76565b91506120f583611a76565b925082820190508082111561210d5761210c612042565b5b92915050565b7f6e6f7420616e206f776e657200000000000000000000000000000000000000005f82015250565b5f612147600c83611fad565b915061215282612113565b602082019050919050565b5f6020820190508181035f8301526121748161213b565b9050919050565b7f63616e6e6f742072656d6f7665206c617374206f776e657200000000000000005f82015250565b5f6121af601883611fad565b91506121ba8261217b565b602082019050919050565b5f6020820190508181035f8301526121dc816121a3565b9050919050565b7f4e487b71000000000000000000000000000000000000000000000000000000005f52603260045260245ffd5b5f61221a82611a76565b915061222583611a76565b925082820390508181111561223d5761223c612042565b5b92915050565b7f4e487b71000000000000000000000000000000000000000000000000000000005f52603160045260245ffd5b7f6e6f74206f776e657200000000000000000000000000000000000000000000005f82015250565b5f6122a4600983611fad565b91506122af82612270565b602082019050919050565b5f6020820190508181035f8301526122d181612298565b9050919050565b7f747820646f6573206e6f742065786973740000000000000000000000000000005f82015250565b5f61230c601183611fad565b9150612317826122d8565b602082019050919050565b5f6020820190508181035f83015261233981612300565b9050919050565b7f747820616c7265616479206578656375746564000000000000000000000000005f82015250565b5f612374601383611fad565b915061237f82612340565b602082019050919050565b5f6020820190508181035f8301526123a181612368565b9050919050565b7f7478206e6f7420636f6e6669726d6564000000000000000000000000000000005f82015250565b5f6123dc601083611fad565b91506123e7826123a8565b602082019050919050565b5f6020820190508181035f830152612409816123d0565b9050919050565b7f4e487b71000000000000000000000000000000000000000000000000000000005f52602260045260245ffd5b5f600282049050600182168061245457607f821691505b60208210810361246757612466612410565b5b50919050565b7f696e76616c6964206f776e6572000000000000000000000000000000000000005f82015250565b5f6124a1600d83611fad565b91506124ac8261246d565b602082019050919050565b5f6020820190508181035f8301526124ce81612495565b9050919050565b7f6f776e657220616c7265616479206578697374730000000000000000000000005f82015250565b5f612509601483611fad565b9150612514826124d5565b602082019050919050565b5f6020820190508181035f830152612536816124fd565b9050919050565b7f6d6178206f776e657273207265616368656400000000000000000000000000005f82015250565b5f612571601283611fad565b915061257c8261253d565b602082019050919050565b5f6020820190508181035f83015261259e81612565565b9050919050565b7f747820616c726561647920636f6e6669726d65640000000000000000000000005f82015250565b5f6125d9601483611fad565b91506125e4826125a5565b602082019050919050565b5f6020820190508181035f830152612606816125cd565b9050919050565b5f819050815f5260205f209050919050565b5f6020601f8301049050919050565b5f82821b905092915050565b5f600883026126697fffffffffffffffffffffffffffffffffffffffffffffffffffffffffffffffff8261262e565b612673868361262e565b95508019841693508086168417925050509392505050565b5f819050919050565b5f6126ae6126a96126a484611a76565b61268b565b611a76565b9050919050565b5f819050919050565b6126c783612694565b6126db6126d3826126b5565b84845461263a565b825550505050565b5f90565b6126ef6126e3565b6126fa8184846126be565b505050565b5b8181101561271d576127125f826126e7565b600181019050612700565b5050565b601f821115612762576127338161260d565b61273c8461261f565b8101602085101561274b578190505b61275f6127578561261f565b8301826126ff565b50505b505050565b5f82821c905092915050565b5f6127825f1984600802612767565b1980831691505092915050565b5f61279a8383612773565b9150826002028217905092915050565b6127b382611c14565b67ffffffffffffffff8111156127cc576127cb611e13565b5b6127d6825461243d565b6127e1828285612721565b5f60209050601f831160018114612812575f8415612800578287015190505b61280a858261278f565b865550612871565b601f1984166128208661260d565b5f5b8281101561284757848901518255600182019150602085019450602081019050612822565b868310156128645784890151612860601f891682612773565b8355505b6001600288020188555050505b505050505050565b5f60408201905061288c5f830185611a7f565b818103602083015261289e8184611c66565b90509392505050565b7f63616e6e6f7420657865637574652074780000000000000000000000000000005f82015250565b5f6128db601183611fad565b91506128e6826128a7565b602082019050919050565b5f6020820190508181035f830152612908816128cf565b9050919050565b5f81905092915050565b5f81546129258161243d565b61292f818661290f565b9450600182165f8114612949576001811461295e57612990565b60ff1983168652811515820286019350612990565b6129678561260d565b5f5b8381101561298857815481890152600182019150602081019050612969565b838801955050505b50505092915050565b5f6129a48284612919565b915081905092915050565b7f7478206661696c656400000000000000000000000000000000000000000000005f82015250565b5f6129e3600983611fad565b91506129ee826129af565b602082019050919050565b5f6020820190508181035f830152612a10816129d7565b9050919050565b7f4e6f2068617320636f6e7365677569646f2070726f66697400000000000000005f82015250565b5f612a4b601883611fad565b9150612a5682612a17565b602082019050919050565b5f6020820190508181035f830152612a7881612a3f565b905091905056fea2646970667358221220c9ee5e9cc62db94a918019561b186fed39aa8820bfff86464fb376466e4e49ed64736f6c63430008170033",
					"opcodes": "PUSH1 0x80 PUSH1 0x40 MSTORE PUSH1 0x2 DUP1 SSTORE PUSH1 0x2 PUSH1 0x3 SSTORE CALLVALUE DUP1 ISZERO PUSH3 0x19 JUMPI PUSH0 DUP1 REVERT JUMPDEST POP PUSH1 0x40 MLOAD PUSH3 0x2D40 CODESIZE SUB DUP1 PUSH3 0x2D40 DUP4 CODECOPY DUP2 DUP2 ADD PUSH1 0x40 MSTORE DUP2 ADD SWAP1 PUSH3 0x3F SWAP2 SWAP1 PUSH3 0x1CF JUMP JUMPDEST PUSH0 PUSH20 0xFFFFFFFFFFFFFFFFFFFFFFFFFFFFFFFFFFFFFFFF AND DUP2 PUSH20 0xFFFFFFFFFFFFFFFFFFFFFFFFFFFFFFFFFFFFFFFF AND SUB PUSH3 0xB0 JUMPI PUSH1 0x40 MLOAD PUSH32 0x8C379A000000000000000000000000000000000000000000000000000000000 DUP2 MSTORE PUSH1 0x4 ADD PUSH3 0xA7 SWAP1 PUSH3 0x25D JUMP JUMPDEST PUSH1 0x40 MLOAD DUP1 SWAP2 SUB SWAP1 REVERT JUMPDEST PUSH1 0x1 DUP1 PUSH0 DUP4 PUSH20 0xFFFFFFFFFFFFFFFFFFFFFFFFFFFFFFFFFFFFFFFF AND PUSH20 0xFFFFFFFFFFFFFFFFFFFFFFFFFFFFFFFFFFFFFFFF AND DUP2 MSTORE PUSH1 0x20 ADD SWAP1 DUP2 MSTORE PUSH1 0x20 ADD PUSH0 KECCAK256 PUSH0 PUSH2 0x100 EXP DUP2 SLOAD DUP2 PUSH1 0xFF MUL NOT AND SWAP1 DUP4 ISZERO ISZERO MUL OR SWAP1 SSTORE POP PUSH0 DUP2 SWAP1 DUP1 PUSH1 0x1 DUP2 SLOAD ADD DUP1 DUP3 SSTORE DUP1 SWAP2 POP POP PUSH1 0x1 SWAP1 SUB SWAP1 PUSH0 MSTORE PUSH1 0x20 PUSH0 KECCAK256 ADD PUSH0 SWAP1 SWAP2 SWAP1 SWAP2 SWAP1 SWAP2 PUSH2 0x100 EXP DUP2 SLOAD DUP2 PUSH20 0xFFFFFFFFFFFFFFFFFFFFFFFFFFFFFFFFFFFFFFFF MUL NOT AND SWAP1 DUP4 PUSH20 0xFFFFFFFFFFFFFFFFFFFFFFFFFFFFFFFFFFFFFFFF AND MUL OR SWAP1 SSTORE POP POP PUSH3 0x27D JUMP JUMPDEST PUSH0 DUP1 REVERT JUMPDEST PUSH0 PUSH20 0xFFFFFFFFFFFFFFFFFFFFFFFFFFFFFFFFFFFFFFFF DUP3 AND SWAP1 POP SWAP2 SWAP1 POP JUMP JUMPDEST PUSH0 PUSH3 0x199 DUP3 PUSH3 0x16E JUMP JUMPDEST SWAP1 POP SWAP2 SWAP1 POP JUMP JUMPDEST PUSH3 0x1AB DUP2 PUSH3 0x18D JUMP JUMPDEST DUP2 EQ PUSH3 0x1B6 JUMPI PUSH0 DUP1 REVERT JUMPDEST POP JUMP JUMPDEST PUSH0 DUP2 MLOAD SWAP1 POP PUSH3 0x1C9 DUP2 PUSH3 0x1A0 JUMP JUMPDEST SWAP3 SWAP2 POP POP JUMP JUMPDEST PUSH0 PUSH1 0x20 DUP3 DUP5 SUB SLT ISZERO PUSH3 0x1E7 JUMPI PUSH3 0x1E6 PUSH3 0x16A JUMP JUMPDEST JUMPDEST PUSH0 PUSH3 0x1F6 DUP5 DUP3 DUP6 ADD PUSH3 0x1B9 JUMP JUMPDEST SWAP2 POP POP SWAP3 SWAP2 POP POP JUMP JUMPDEST PUSH0 DUP3 DUP3 MSTORE PUSH1 0x20 DUP3 ADD SWAP1 POP SWAP3 SWAP2 POP POP JUMP JUMPDEST PUSH32 0x696E76616C6964206F776E657200000000000000000000000000000000000000 PUSH0 DUP3 ADD MSTORE POP JUMP JUMPDEST PUSH0 PUSH3 0x245 PUSH1 0xD DUP4 PUSH3 0x1FF JUMP JUMPDEST SWAP2 POP PUSH3 0x252 DUP3 PUSH3 0x20F JUMP JUMPDEST PUSH1 0x20 DUP3 ADD SWAP1 POP SWAP2 SWAP1 POP JUMP JUMPDEST PUSH0 PUSH1 0x20 DUP3 ADD SWAP1 POP DUP2 DUP2 SUB PUSH0 DUP4 ADD MSTORE PUSH3 0x276 DUP2 PUSH3 0x237 JUMP JUMPDEST SWAP1 POP SWAP2 SWAP1 POP JUMP JUMPDEST PUSH2 0x2AB5 DUP1 PUSH3 0x28B PUSH0 CODECOPY PUSH0 RETURN INVALID PUSH1 0x80 PUSH1 0x40 MSTORE PUSH1 0x4 CALLDATASIZE LT PUSH2 0x138 JUMPI PUSH0 CALLDATALOAD PUSH1 0xE0 SHR DUP1 PUSH4 0x80F59A65 GT PUSH2 0xAA JUMPI DUP1 PUSH4 0xC6427474 GT PUSH2 0x6E JUMPI DUP1 PUSH4 0xC6427474 EQ PUSH2 0x4C3 JUMPI DUP1 PUSH4 0xD0549B85 EQ PUSH2 0x4EB JUMPI DUP1 PUSH4 0xEE22610B EQ PUSH2 0x515 JUMPI DUP1 PUSH4 0xF247F02D EQ PUSH2 0x53D JUMPI DUP1 PUSH4 0xF6291E43 EQ PUSH2 0x567 JUMPI DUP1 PUSH4 0xF9633930 EQ PUSH2 0x5A3 JUMPI PUSH2 0x18F JUMP JUMPDEST DUP1 PUSH4 0x80F59A65 EQ PUSH2 0x3B9 JUMPI DUP1 PUSH4 0x82539A0D EQ PUSH2 0x3F5 JUMPI DUP1 PUSH4 0x9ACE38C2 EQ PUSH2 0x431 JUMPI DUP1 PUSH4 0xA0E67E2B EQ PUSH2 0x471 JUMPI DUP1 PUSH4 0xC01A8C84 EQ PUSH2 0x49B JUMPI PUSH2 0x18F JUMP JUMPDEST DUP1 PUSH4 0x20EA8D86 GT PUSH2 0xFC JUMPI DUP1 PUSH4 0x20EA8D86 EQ PUSH2 0x287 JUMPI DUP1 PUSH4 0x2E7700F0 EQ PUSH2 0x2AF JUMPI DUP1 PUSH4 0x2F54BF6E EQ PUSH2 0x2D9 JUMPI DUP1 PUSH4 0x33EA3DC8 EQ PUSH2 0x315 JUMPI DUP1 PUSH4 0x610539B4 EQ PUSH2 0x355 JUMPI DUP1 PUSH4 0x7065CB48 EQ PUSH2 0x391 JUMPI PUSH2 0x18F JUMP JUMPDEST DUP1 PUSH4 0x25E7C27 EQ PUSH2 0x193 JUMPI DUP1 PUSH4 0xB8BB146 EQ PUSH2 0x1CF JUMPI DUP1 PUSH4 0x13FAEDE6 EQ PUSH2 0x1F9 JUMPI DUP1 PUSH4 0x15D57992 EQ PUSH2 0x223 JUMPI DUP1 PUSH4 0x173825D9 EQ PUSH2 0x25F JUMPI PUSH2 0x18F JUMP JUMPDEST CALLDATASIZE PUSH2 0x18F JUMPI CALLER PUSH20 0xFFFFFFFFFFFFFFFFFFFFFFFFFFFFFFFFFFFFFFFF AND PUSH32 0x90890809C654F11D6E72A28FA60149770A0D11EC6C92319D6CEB2BB0A4EA1A15 CALLVALUE SELFBALANCE PUSH1 0x40 MLOAD PUSH2 0x185 SWAP3 SWAP2 SWAP1 PUSH2 0x1A8E JUMP JUMPDEST PUSH1 0x40 MLOAD DUP1 SWAP2 SUB SWAP1 LOG2 STOP JUMPDEST PUSH0 DUP1 REVERT JUMPDEST CALLVALUE DUP1 ISZERO PUSH2 0x19E JUMPI PUSH0 DUP1 REVERT JUMPDEST POP PUSH2 0x1B9 PUSH1 0x4 DUP1 CALLDATASIZE SUB DUP2 ADD SWAP1 PUSH2 0x1B4 SWAP2 SWAP1 PUSH2 0x1AF0 JUMP JUMPDEST PUSH2 0x5CD JUMP JUMPDEST PUSH1 0x40 MLOAD PUSH2 0x1C6 SWAP2 SWAP1 PUSH2 0x1B5A JUMP JUMPDEST PUSH1 0x40 MLOAD DUP1 SWAP2 SUB SWAP1 RETURN JUMPDEST CALLVALUE DUP1 ISZERO PUSH2 0x1DA JUMPI PUSH0 DUP1 REVERT JUMPDEST POP PUSH2 0x1E3 PUSH2 0x607 JUMP JUMPDEST PUSH1 0x40 MLOAD PUSH2 0x1F0 SWAP2 SWAP1 PUSH2 0x1B73 JUMP JUMPDEST PUSH1 0x40 MLOAD DUP1 SWAP2 SUB SWAP1 RETURN JUMPDEST CALLVALUE DUP1 ISZERO PUSH2 0x204 JUMPI PUSH0 DUP1 REVERT JUMPDEST POP PUSH2 0x20D PUSH2 0x60C JUMP JUMPDEST PUSH1 0x40 MLOAD PUSH2 0x21A SWAP2 SWAP1 PUSH2 0x1B73 JUMP JUMPDEST PUSH1 0x40 MLOAD DUP1 SWAP2 SUB SWAP1 RETURN JUMPDEST CALLVALUE DUP1 ISZERO PUSH2 0x22E JUMPI PUSH0 DUP1 REVERT JUMPDEST POP PUSH2 0x249 PUSH1 0x4 DUP1 CALLDATASIZE SUB DUP2 ADD SWAP1 PUSH2 0x244 SWAP2 SWAP1 PUSH2 0x1AF0 JUMP JUMPDEST PUSH2 0x612 JUMP JUMPDEST PUSH1 0x40 MLOAD PUSH2 0x256 SWAP2 SWAP1 PUSH2 0x1B73 JUMP JUMPDEST PUSH1 0x40 MLOAD DUP1 SWAP2 SUB SWAP1 RETURN JUMPDEST CALLVALUE DUP1 ISZERO PUSH2 0x26A JUMPI PUSH0 DUP1 REVERT JUMPDEST POP PUSH2 0x285 PUSH1 0x4 DUP1 CALLDATASIZE SUB DUP2 ADD SWAP1 PUSH2 0x280 SWAP2 SWAP1 PUSH2 0x1BB6 JUMP JUMPDEST PUSH2 0x65C JUMP JUMPDEST STOP JUMPDEST CALLVALUE DUP1 ISZERO PUSH2 0x292 JUMPI PUSH0 DUP1 REVERT JUMPDEST POP PUSH2 0x2AD PUSH1 0x4 DUP1 CALLDATASIZE SUB DUP2 ADD SWAP1 PUSH2 0x2A8 SWAP2 SWAP1 PUSH2 0x1AF0 JUMP JUMPDEST PUSH2 0x93A JUMP JUMPDEST STOP JUMPDEST CALLVALUE DUP1 ISZERO PUSH2 0x2BA JUMPI PUSH0 DUP1 REVERT JUMPDEST POP PUSH2 0x2C3 PUSH2 0xBFF JUMP JUMPDEST PUSH1 0x40 MLOAD PUSH2 0x2D0 SWAP2 SWAP1 PUSH2 0x1B73 JUMP JUMPDEST PUSH1 0x40 MLOAD DUP1 SWAP2 SUB SWAP1 RETURN JUMPDEST CALLVALUE DUP1 ISZERO PUSH2 0x2E4 JUMPI PUSH0 DUP1 REVERT JUMPDEST POP PUSH2 0x2FF PUSH1 0x4 DUP1 CALLDATASIZE SUB DUP2 ADD SWAP1 PUSH2 0x2FA SWAP2 SWAP1 PUSH2 0x1BB6 JUMP JUMPDEST PUSH2 0xC0B JUMP JUMPDEST PUSH1 0x40 MLOAD PUSH2 0x30C SWAP2 SWAP1 PUSH2 0x1BFB JUMP JUMPDEST PUSH1 0x40 MLOAD DUP1 SWAP2 SUB SWAP1 RETURN JUMPDEST CALLVALUE DUP1 ISZERO PUSH2 0x320 JUMPI PUSH0 DUP1 REVERT JUMPDEST POP PUSH2 0x33B PUSH1 0x4 DUP1 CALLDATASIZE SUB DUP2 ADD SWAP1 PUSH2 0x336 SWAP2 SWAP1 PUSH2 0x1AF0 JUMP JUMPDEST PUSH2 0xC28 JUMP JUMPDEST PUSH1 0x40 MLOAD PUSH2 0x34C SWAP6 SWAP5 SWAP4 SWAP3 SWAP2 SWAP1 PUSH2 0x1C9E JUMP JUMPDEST PUSH1 0x40 MLOAD DUP1 SWAP2 SUB SWAP1 RETURN JUMPDEST CALLVALUE DUP1 ISZERO PUSH2 0x360 JUMPI PUSH0 DUP1 REVERT JUMPDEST POP PUSH2 0x37B PUSH1 0x4 DUP1 CALLDATASIZE SUB DUP2 ADD SWAP1 PUSH2 0x376 SWAP2 SWAP1 PUSH2 0x1AF0 JUMP JUMPDEST PUSH2 0xD31 JUMP JUMPDEST PUSH1 0x40 MLOAD PUSH2 0x388 SWAP2 SWAP1 PUSH2 0x1B73 JUMP JUMPDEST PUSH1 0x40 MLOAD DUP1 SWAP2 SUB SWAP1 RETURN JUMPDEST CALLVALUE DUP1 ISZERO PUSH2 0x39C JUMPI PUSH0 DUP1 REVERT JUMPDEST POP PUSH2 0x3B7 PUSH1 0x4 DUP1 CALLDATASIZE SUB DUP2 ADD SWAP1 PUSH2 0x3B2 SWAP2 SWAP1 PUSH2 0x1BB6 JUMP JUMPDEST PUSH2 0xD7B JUMP JUMPDEST STOP JUMPDEST CALLVALUE DUP1 ISZERO PUSH2 0x3C4 JUMPI PUSH0 DUP1 REVERT JUMPDEST POP PUSH2 0x3DF PUSH1 0x4 DUP1 CALLDATASIZE SUB DUP2 ADD SWAP1 PUSH2 0x3DA SWAP2 SWAP1 PUSH2 0x1CF6 JUMP JUMPDEST PUSH2 0xFB3 JUMP JUMPDEST PUSH1 0x40 MLOAD PUSH2 0x3EC SWAP2 SWAP1 PUSH2 0x1BFB JUMP JUMPDEST PUSH1 0x40 MLOAD DUP1 SWAP2 SUB SWAP1 RETURN JUMPDEST CALLVALUE DUP1 ISZERO PUSH2 0x400 JUMPI PUSH0 DUP1 REVERT JUMPDEST POP PUSH2 0x41B PUSH1 0x4 DUP1 CALLDATASIZE SUB DUP2 ADD SWAP1 PUSH2 0x416 SWAP2 SWAP1 PUSH2 0x1AF0 JUMP JUMPDEST PUSH2 0xFDD JUMP JUMPDEST PUSH1 0x40 MLOAD PUSH2 0x428 SWAP2 SWAP1 PUSH2 0x1B73 JUMP JUMPDEST PUSH1 0x40 MLOAD DUP1 SWAP2 SUB SWAP1 RETURN JUMPDEST CALLVALUE DUP1 ISZERO PUSH2 0x43C JUMPI PUSH0 DUP1 REVERT JUMPDEST POP PUSH2 0x457 PUSH1 0x4 DUP1 CALLDATASIZE SUB DUP2 ADD SWAP1 PUSH2 0x452 SWAP2 SWAP1 PUSH2 0x1AF0 JUMP JUMPDEST PUSH2 0x1027 JUMP JUMPDEST PUSH1 0x40 MLOAD PUSH2 0x468 SWAP6 SWAP5 SWAP4 SWAP3 SWAP2 SWAP1 PUSH2 0x1C9E JUMP JUMPDEST PUSH1 0x40 MLOAD DUP1 SWAP2 SUB SWAP1 RETURN JUMPDEST CALLVALUE DUP1 ISZERO PUSH2 0x47C JUMPI PUSH0 DUP1 REVERT JUMPDEST POP PUSH2 0x485 PUSH2 0x1119 JUMP JUMPDEST PUSH1 0x40 MLOAD PUSH2 0x492 SWAP2 SWAP1 PUSH2 0x1DEB JUMP JUMPDEST PUSH1 0x40 MLOAD DUP1 SWAP2 SUB SWAP1 RETURN JUMPDEST CALLVALUE DUP1 ISZERO PUSH2 0x4A6 JUMPI PUSH0 DUP1 REVERT JUMPDEST POP PUSH2 0x4C1 PUSH1 0x4 DUP1 CALLDATASIZE SUB DUP2 ADD SWAP1 PUSH2 0x4BC SWAP2 SWAP1 PUSH2 0x1AF0 JUMP JUMPDEST PUSH2 0x11A3 JUMP JUMPDEST STOP JUMPDEST CALLVALUE DUP1 ISZERO PUSH2 0x4CE JUMPI PUSH0 DUP1 REVERT JUMPDEST POP PUSH2 0x4E9 PUSH1 0x4 DUP1 CALLDATASIZE SUB DUP2 ADD SWAP1 PUSH2 0x4E4 SWAP2 SWAP1 PUSH2 0x1F37 JUMP JUMPDEST PUSH2 0x146C JUMP JUMPDEST STOP JUMPDEST CALLVALUE DUP1 ISZERO PUSH2 0x4F6 JUMPI PUSH0 DUP1 REVERT JUMPDEST POP PUSH2 0x4FF PUSH2 0x1662 JUMP JUMPDEST PUSH1 0x40 MLOAD PUSH2 0x50C SWAP2 SWAP1 PUSH2 0x1B73 JUMP JUMPDEST PUSH1 0x40 MLOAD DUP1 SWAP2 SUB SWAP1 RETURN JUMPDEST CALLVALUE DUP1 ISZERO PUSH2 0x520 JUMPI PUSH0 DUP1 REVERT JUMPDEST POP PUSH2 0x53B PUSH1 0x4 DUP1 CALLDATASIZE SUB DUP2 ADD SWAP1 PUSH2 0x536 SWAP2 SWAP1 PUSH2 0x1AF0 JUMP JUMPDEST PUSH2 0x1668 JUMP JUMPDEST STOP JUMPDEST CALLVALUE DUP1 ISZERO PUSH2 0x548 JUMPI PUSH0 DUP1 REVERT JUMPDEST POP PUSH2 0x551 PUSH2 0x1950 JUMP JUMPDEST PUSH1 0x40 MLOAD PUSH2 0x55E SWAP2 SWAP1 PUSH2 0x1B73 JUMP JUMPDEST PUSH1 0x40 MLOAD DUP1 SWAP2 SUB SWAP1 RETURN JUMPDEST CALLVALUE DUP1 ISZERO PUSH2 0x572 JUMPI PUSH0 DUP1 REVERT JUMPDEST POP PUSH2 0x58D PUSH1 0x4 DUP1 CALLDATASIZE SUB DUP2 ADD SWAP1 PUSH2 0x588 SWAP2 SWAP1 PUSH2 0x1AF0 JUMP JUMPDEST PUSH2 0x1956 JUMP JUMPDEST PUSH1 0x40 MLOAD PUSH2 0x59A SWAP2 SWAP1 PUSH2 0x1B73 JUMP JUMPDEST PUSH1 0x40 MLOAD DUP1 SWAP2 SUB SWAP1 RETURN JUMPDEST CALLVALUE DUP1 ISZERO PUSH2 0x5AE JUMPI PUSH0 DUP1 REVERT JUMPDEST POP PUSH2 0x5B7 PUSH2 0x19A0 JUMP JUMPDEST PUSH1 0x40 MLOAD PUSH2 0x5C4 SWAP2 SWAP1 PUSH2 0x1FF5 JUMP JUMPDEST PUSH1 0x40 MLOAD DUP1 SWAP2 SUB SWAP1 RETURN JUMPDEST PUSH0 DUP2 DUP2 SLOAD DUP2 LT PUSH2 0x5DB JUMPI PUSH0 DUP1 REVERT JUMPDEST SWAP1 PUSH0 MSTORE PUSH1 0x20 PUSH0 KECCAK256 ADD PUSH0 SWAP2 POP SLOAD SWAP1 PUSH2 0x100 EXP SWAP1 DIV PUSH20 0xFFFFFFFFFFFFFFFFFFFFFFFFFFFFFFFFFFFFFFFF AND DUP2 JUMP JUMPDEST PUSH1 0x3 DUP2 JUMP JUMPDEST PUSH1 0x5 SLOAD DUP2 JUMP JUMPDEST PUSH0 PUSH1 0x4 DUP1 DUP4 PUSH2 0x621 SWAP2 SWAP1 PUSH2 0x206F JUMP JUMPDEST PUSH2 0x62B SWAP2 SWAP1 PUSH2 0x209F JUMP JUMPDEST PUSH1 0x5 DUP2 SWAP1 SSTORE POP PUSH1 0x3 SLOAD PUSH1 0x5 PUSH0 DUP3 DUP3 SLOAD PUSH2 0x644 SWAP2 SWAP1 PUSH2 0x20E0 JUMP JUMPDEST SWAP3 POP POP DUP2 SWAP1 SSTORE POP DUP2 PUSH1 0x4 DUP2 SWAP1 SSTORE POP PUSH1 0x5 SLOAD SWAP1 POP SWAP2 SWAP1 POP JUMP JUMPDEST PUSH1 0x1 PUSH0 DUP3 PUSH20 0xFFFFFFFFFFFFFFFFFFFFFFFFFFFFFFFFFFFFFFFF AND PUSH20 0xFFFFFFFFFFFFFFFFFFFFFFFFFFFFFFFFFFFFFFFF AND DUP2 MSTORE PUSH1 0x20 ADD SWAP1 DUP2 MSTORE PUSH1 0x20 ADD PUSH0 KECCAK256 PUSH0 SWAP1 SLOAD SWAP1 PUSH2 0x100 EXP SWAP1 DIV PUSH1 0xFF AND PUSH2 0x6E5 JUMPI PUSH1 0x40 MLOAD PUSH32 0x8C379A000000000000000000000000000000000000000000000000000000000 DUP2 MSTORE PUSH1 0x4 ADD PUSH2 0x6DC SWAP1 PUSH2 0x215D JUMP JUMPDEST PUSH1 0x40 MLOAD DUP1 SWAP2 SUB SWAP1 REVERT JUMPDEST PUSH1 0x1 PUSH0 DUP1 SLOAD SWAP1 POP GT PUSH2 0x72C JUMPI PUSH1 0x40 MLOAD PUSH32 0x8C379A000000000000000000000000000000000000000000000000000000000 DUP2 MSTORE PUSH1 0x4 ADD PUSH2 0x723 SWAP1 PUSH2 0x21C5 JUMP JUMPDEST PUSH1 0x40 MLOAD DUP1 SWAP2 SUB SWAP1 REVERT JUMPDEST PUSH0 PUSH1 0x1 PUSH0 DUP4 PUSH20 0xFFFFFFFFFFFFFFFFFFFFFFFFFFFFFFFFFFFFFFFF AND PUSH20 0xFFFFFFFFFFFFFFFFFFFFFFFFFFFFFFFFFFFFFFFF AND DUP2 MSTORE PUSH1 0x20 ADD SWAP1 DUP2 MSTORE PUSH1 0x20 ADD PUSH0 KECCAK256 PUSH0 PUSH2 0x100 EXP DUP2 SLOAD DUP2 PUSH1 0xFF MUL NOT AND SWAP1 DUP4 ISZERO ISZERO MUL OR SWAP1 SSTORE POP PUSH0 JUMPDEST PUSH0 DUP1 SLOAD SWAP1 POP DUP2 LT ISZERO PUSH2 0x8F3 JUMPI DUP2 PUSH20 0xFFFFFFFFFFFFFFFFFFFFFFFFFFFFFFFFFFFFFFFF AND PUSH0 DUP3 DUP2 SLOAD DUP2 LT PUSH2 0x7B8 JUMPI PUSH2 0x7B7 PUSH2 0x21E3 JUMP JUMPDEST JUMPDEST SWAP1 PUSH0 MSTORE PUSH1 0x20 PUSH0 KECCAK256 ADD PUSH0 SWAP1 SLOAD SWAP1 PUSH2 0x100 EXP SWAP1 DIV PUSH20 0xFFFFFFFFFFFFFFFFFFFFFFFFFFFFFFFFFFFFFFFF AND PUSH20 0xFFFFFFFFFFFFFFFFFFFFFFFFFFFFFFFFFFFFFFFF AND SUB PUSH2 0x8E6 JUMPI PUSH0 PUSH1 0x1 PUSH0 DUP1 SLOAD SWAP1 POP PUSH2 0x80D SWAP2 SWAP1 PUSH2 0x2210 JUMP JUMPDEST DUP2 SLOAD DUP2 LT PUSH2 0x81E JUMPI PUSH2 0x81D PUSH2 0x21E3 JUMP JUMPDEST JUMPDEST SWAP1 PUSH0 MSTORE PUSH1 0x20 PUSH0 KECCAK256 ADD PUSH0 SWAP1 SLOAD SWAP1 PUSH2 0x100 EXP SWAP1 DIV PUSH20 0xFFFFFFFFFFFFFFFFFFFFFFFFFFFFFFFFFFFFFFFF AND PUSH0 DUP3 DUP2 SLOAD DUP2 LT PUSH2 0x859 JUMPI PUSH2 0x858 PUSH2 0x21E3 JUMP JUMPDEST JUMPDEST SWAP1 PUSH0 MSTORE PUSH1 0x20 PUSH0 KECCAK256 ADD PUSH0 PUSH2 0x100 EXP DUP2 SLOAD DUP2 PUSH20 0xFFFFFFFFFFFFFFFFFFFFFFFFFFFFFFFFFFFFFFFF MUL NOT AND SWAP1 DUP4 PUSH20 0xFFFFFFFFFFFFFFFFFFFFFFFFFFFFFFFFFFFFFFFF AND MUL OR SWAP1 SSTORE POP PUSH0 DUP1 SLOAD DUP1 PUSH2 0x8AF JUMPI PUSH2 0x8AE PUSH2 0x2243 JUMP JUMPDEST JUMPDEST PUSH1 0x1 SWAP1 SUB DUP2 DUP2 SWAP1 PUSH0 MSTORE PUSH1 0x20 PUSH0 KECCAK256 ADD PUSH0 PUSH2 0x100 EXP DUP2 SLOAD SWAP1 PUSH20 0xFFFFFFFFFFFFFFFFFFFFFFFFFFFFFFFFFFFFFFFF MUL NOT AND SWAP1 SSTORE SWAP1 SSTORE PUSH2 0x8F3 JUMP JUMPDEST DUP1 DUP1 PUSH1 0x1 ADD SWAP2 POP POP PUSH2 0x782 JUMP JUMPDEST POP DUP1 PUSH20 0xFFFFFFFFFFFFFFFFFFFFFFFFFFFFFFFFFFFFFFFF AND PUSH32 0x58619076ADF5BB0943D100EF88D52D7C3FD691B19D3A9071B555B651FBF418DA PUSH1 0x40 MLOAD PUSH1 0x40 MLOAD DUP1 SWAP2 SUB SWAP1 LOG2 POP JUMP JUMPDEST PUSH1 0x1 PUSH0 CALLER PUSH20 0xFFFFFFFFFFFFFFFFFFFFFFFFFFFFFFFFFFFFFFFF AND PUSH20 0xFFFFFFFFFFFFFFFFFFFFFFFFFFFFFFFFFFFFFFFF AND DUP2 MSTORE PUSH1 0x20 ADD SWAP1 DUP2 MSTORE PUSH1 0x20 ADD PUSH0 KECCAK256 PUSH0 SWAP1 SLOAD SWAP1 PUSH2 0x100 EXP SWAP1 DIV PUSH1 0xFF AND PUSH2 0x9C3 JUMPI PUSH1 0x40 MLOAD PUSH32 0x8C379A000000000000000000000000000000000000000000000000000000000 DUP2 MSTORE PUSH1 0x4 ADD PUSH2 0x9BA SWAP1 PUSH2 0x22BA JUMP JUMPDEST PUSH1 0x40 MLOAD DUP1 SWAP2 SUB SWAP1 REVERT JUMPDEST DUP1 PUSH1 0x8 DUP1 SLOAD SWAP1 POP DUP2 LT PUSH2 0xA0B JUMPI PUSH1 0x40 MLOAD PUSH32 0x8C379A000000000000000000000000000000000000000000000000000000000 DUP2 MSTORE PUSH1 0x4 ADD PUSH2 0xA02 SWAP1 PUSH2 0x2322 JUMP JUMPDEST PUSH1 0x40 MLOAD DUP1 SWAP2 SUB SWAP1 REVERT JUMPDEST DUP2 PUSH1 0x8 DUP2 DUP2 SLOAD DUP2 LT PUSH2 0xA20 JUMPI PUSH2 0xA1F PUSH2 0x21E3 JUMP JUMPDEST JUMPDEST SWAP1 PUSH0 MSTORE PUSH1 0x20 PUSH0 KECCAK256 SWAP1 PUSH1 0x5 MUL ADD PUSH1 0x3 ADD PUSH0 SWAP1 SLOAD SWAP1 PUSH2 0x100 EXP SWAP1 DIV PUSH1 0xFF AND ISZERO PUSH2 0xA7C JUMPI PUSH1 0x40 MLOAD PUSH32 0x8C379A000000000000000000000000000000000000000000000000000000000 DUP2 MSTORE PUSH1 0x4 ADD PUSH2 0xA73 SWAP1 PUSH2 0x238A JUMP JUMPDEST PUSH1 0x40 MLOAD DUP1 SWAP2 SUB SWAP1 REVERT JUMPDEST PUSH0 PUSH1 0x8 DUP5 DUP2 SLOAD DUP2 LT PUSH2 0xA91 JUMPI PUSH2 0xA90 PUSH2 0x21E3 JUMP JUMPDEST JUMPDEST SWAP1 PUSH0 MSTORE PUSH1 0x20 PUSH0 KECCAK256 SWAP1 PUSH1 0x5 MUL ADD SWAP1 POP PUSH1 0x7 PUSH0 DUP6 DUP2 MSTORE PUSH1 0x20 ADD SWAP1 DUP2 MSTORE PUSH1 0x20 ADD PUSH0 KECCAK256 PUSH0 CALLER PUSH20 0xFFFFFFFFFFFFFFFFFFFFFFFFFFFFFFFFFFFFFFFF AND PUSH20 0xFFFFFFFFFFFFFFFFFFFFFFFFFFFFFFFFFFFFFFFF AND DUP2 MSTORE PUSH1 0x20 ADD SWAP1 DUP2 MSTORE PUSH1 0x20 ADD PUSH0 KECCAK256 PUSH0 SWAP1 SLOAD SWAP1 PUSH2 0x100 EXP SWAP1 DIV PUSH1 0xFF AND PUSH2 0xB37 JUMPI PUSH1 0x40 MLOAD PUSH32 0x8C379A000000000000000000000000000000000000000000000000000000000 DUP2 MSTORE PUSH1 0x4 ADD PUSH2 0xB2E SWAP1 PUSH2 0x23F2 JUMP JUMPDEST PUSH1 0x40 MLOAD DUP1 SWAP2 SUB SWAP1 REVERT JUMPDEST PUSH1 0x1 DUP2 PUSH1 0x4 ADD PUSH0 DUP3 DUP3 SLOAD PUSH2 0xB4B SWAP2 SWAP1 PUSH2 0x2210 JUMP JUMPDEST SWAP3 POP POP DUP2 SWAP1 SSTORE POP PUSH0 PUSH1 0x7 PUSH0 DUP7 DUP2 MSTORE PUSH1 0x20 ADD SWAP1 DUP2 MSTORE PUSH1 0x20 ADD PUSH0 KECCAK256 PUSH0 CALLER PUSH20 0xFFFFFFFFFFFFFFFFFFFFFFFFFFFFFFFFFFFFFFFF AND PUSH20 0xFFFFFFFFFFFFFFFFFFFFFFFFFFFFFFFFFFFFFFFF AND DUP2 MSTORE PUSH1 0x20 ADD SWAP1 DUP2 MSTORE PUSH1 0x20 ADD PUSH0 KECCAK256 PUSH0 PUSH2 0x100 EXP DUP2 SLOAD DUP2 PUSH1 0xFF MUL NOT AND SWAP1 DUP4 ISZERO ISZERO MUL OR SWAP1 SSTORE POP DUP4 CALLER PUSH20 0xFFFFFFFFFFFFFFFFFFFFFFFFFFFFFFFFFFFFFFFF AND PUSH32 0xF0DCA620E2E81F7841D07BCC105E1704FB01475B278A9D4C236E1C62945EDD55 PUSH1 0x40 MLOAD PUSH1 0x40 MLOAD DUP1 SWAP2 SUB SWAP1 LOG3 POP POP POP POP JUMP JUMPDEST PUSH0 PUSH1 0x8 DUP1 SLOAD SWAP1 POP SWAP1 POP SWAP1 JUMP JUMPDEST PUSH1 0x1 PUSH1 0x20 MSTORE DUP1 PUSH0 MSTORE PUSH1 0x40 PUSH0 KECCAK256 PUSH0 SWAP2 POP SLOAD SWAP1 PUSH2 0x100 EXP SWAP1 DIV PUSH1 0xFF AND DUP2 JUMP JUMPDEST PUSH0 DUP1 PUSH1 0x60 PUSH0 DUP1 PUSH0 PUSH1 0x8 DUP8 DUP2 SLOAD DUP2 LT PUSH2 0xC43 JUMPI PUSH2 0xC42 PUSH2 0x21E3 JUMP JUMPDEST JUMPDEST SWAP1 PUSH0 MSTORE PUSH1 0x20 PUSH0 KECCAK256 SWAP1 PUSH1 0x5 MUL ADD SWAP1 POP DUP1 PUSH0 ADD PUSH0 SWAP1 SLOAD SWAP1 PUSH2 0x100 EXP SWAP1 DIV PUSH20 0xFFFFFFFFFFFFFFFFFFFFFFFFFFFFFFFFFFFFFFFF AND DUP2 PUSH1 0x1 ADD SLOAD DUP3 PUSH1 0x2 ADD DUP4 PUSH1 0x3 ADD PUSH0 SWAP1 SLOAD SWAP1 PUSH2 0x100 EXP SWAP1 DIV PUSH1 0xFF AND DUP5 PUSH1 0x4 ADD SLOAD DUP3 DUP1 SLOAD PUSH2 0xC9F SWAP1 PUSH2 0x243D JUMP JUMPDEST DUP1 PUSH1 0x1F ADD PUSH1 0x20 DUP1 SWAP2 DIV MUL PUSH1 0x20 ADD PUSH1 0x40 MLOAD SWAP1 DUP2 ADD PUSH1 0x40 MSTORE DUP1 SWAP3 SWAP2 SWAP1 DUP2 DUP2 MSTORE PUSH1 0x20 ADD DUP3 DUP1 SLOAD PUSH2 0xCCB SWAP1 PUSH2 0x243D JUMP JUMPDEST DUP1 ISZERO PUSH2 0xD16 JUMPI DUP1 PUSH1 0x1F LT PUSH2 0xCED JUMPI PUSH2 0x100 DUP1 DUP4 SLOAD DIV MUL DUP4 MSTORE SWAP2 PUSH1 0x20 ADD SWAP2 PUSH2 0xD16 JUMP JUMPDEST DUP3 ADD SWAP2 SWAP1 PUSH0 MSTORE PUSH1 0x20 PUSH0 KECCAK256 SWAP1 JUMPDEST DUP2 SLOAD DUP2 MSTORE SWAP1 PUSH1 0x1 ADD SWAP1 PUSH1 0x20 ADD DUP1 DUP4 GT PUSH2 0xCF9 JUMPI DUP3 SWAP1 SUB PUSH1 0x1F AND DUP3 ADD SWAP2 JUMPDEST POP POP POP POP POP SWAP3 POP SWAP6 POP SWAP6 POP SWAP6 POP SWAP6 POP SWAP6 POP POP SWAP2 SWAP4 SWAP6 SWAP1 SWAP3 SWAP5 POP JUMP JUMPDEST PUSH0 PUSH1 0x4 DUP1 DUP4 PUSH2 0xD40 SWAP2 SWAP1 PUSH2 0x20E0 JUMP JUMPDEST PUSH2 0xD4A SWAP2 SWAP1 PUSH2 0x2210 JUMP JUMPDEST PUSH1 0x5 DUP2 SWAP1 SSTORE POP PUSH1 0x3 SLOAD PUSH1 0x5 PUSH0 DUP3 DUP3 SLOAD PUSH2 0xD63 SWAP2 SWAP1 PUSH2 0x20E0 JUMP JUMPDEST SWAP3 POP POP DUP2 SWAP1 SSTORE POP DUP2 PUSH1 0x4 DUP2 SWAP1 SSTORE POP PUSH1 0x5 SLOAD SWAP1 POP SWAP2 SWAP1 POP JUMP JUMPDEST PUSH0 PUSH20 0xFFFFFFFFFFFFFFFFFFFFFFFFFFFFFFFFFFFFFFFF AND DUP2 PUSH20 0xFFFFFFFFFFFFFFFFFFFFFFFFFFFFFFFFFFFFFFFF AND SUB PUSH2 0xDE9 JUMPI PUSH1 0x40 MLOAD PUSH32 0x8C379A000000000000000000000000000000000000000000000000000000000 DUP2 MSTORE PUSH1 0x4 ADD PUSH2 0xDE0 SWAP1 PUSH2 0x24B7 JUMP JUMPDEST PUSH1 0x40 MLOAD DUP1 SWAP2 SUB SWAP1 REVERT JUMPDEST PUSH1 0x1 PUSH0 DUP3 PUSH20 0xFFFFFFFFFFFFFFFFFFFFFFFFFFFFFFFFFFFFFFFF AND PUSH20 0xFFFFFFFFFFFFFFFFFFFFFFFFFFFFFFFFFFFFFFFF AND DUP2 MSTORE PUSH1 0x20 ADD SWAP1 DUP2 MSTORE PUSH1 0x20 ADD PUSH0 KECCAK256 PUSH0 SWAP1 SLOAD SWAP1 PUSH2 0x100 EXP SWAP1 DIV PUSH1 0xFF AND ISZERO PUSH2 0xE73 JUMPI PUSH1 0x40 MLOAD PUSH32 0x8C379A000000000000000000000000000000000000000000000000000000000 DUP2 MSTORE PUSH1 0x4 ADD PUSH2 0xE6A SWAP1 PUSH2 0x251F JUMP JUMPDEST PUSH1 0x40 MLOAD DUP1 SWAP2 SUB SWAP1 REVERT JUMPDEST PUSH1 0x3 PUSH0 DUP1 SLOAD SWAP1 POP LT PUSH2 0xEBA JUMPI PUSH1 0x40 MLOAD PUSH32 0x8C379A000000000000000000000000000000000000000000000000000000000 DUP2 MSTORE PUSH1 0x4 ADD PUSH2 0xEB1 SWAP1 PUSH2 0x2587 JUMP JUMPDEST PUSH1 0x40 MLOAD DUP1 SWAP2 SUB SWAP1 REVERT JUMPDEST PUSH1 0x1 DUP1 PUSH0 DUP4 PUSH20 0xFFFFFFFFFFFFFFFFFFFFFFFFFFFFFFFFFFFFFFFF AND PUSH20 0xFFFFFFFFFFFFFFFFFFFFFFFFFFFFFFFFFFFFFFFF AND DUP2 MSTORE PUSH1 0x20 ADD SWAP1 DUP2 MSTORE PUSH1 0x20 ADD PUSH0 KECCAK256 PUSH0 PUSH2 0x100 EXP DUP2 SLOAD DUP2 PUSH1 0xFF MUL NOT AND SWAP1 DUP4 ISZERO ISZERO MUL OR SWAP1 SSTORE POP PUSH0 DUP2 SWAP1 DUP1 PUSH1 0x1 DUP2 SLOAD ADD DUP1 DUP3 SSTORE DUP1 SWAP2 POP POP PUSH1 0x1 SWAP1 SUB SWAP1 PUSH0 MSTORE PUSH1 0x20 PUSH0 KECCAK256 ADD PUSH0 SWAP1 SWAP2 SWAP1 SWAP2 SWAP1 SWAP2 PUSH2 0x100 EXP DUP2 SLOAD DUP2 PUSH20 0xFFFFFFFFFFFFFFFFFFFFFFFFFFFFFFFFFFFFFFFF MUL NOT AND SWAP1 DUP4 PUSH20 0xFFFFFFFFFFFFFFFFFFFFFFFFFFFFFFFFFFFFFFFF AND MUL OR SWAP1 SSTORE POP DUP1 PUSH20 0xFFFFFFFFFFFFFFFFFFFFFFFFFFFFFFFFFFFFFFFF AND PUSH32 0x994A936646FE87FFE4F1E469D3D6AA417D6B855598397F323DE5B449F765F0C3 PUSH1 0x40 MLOAD PUSH1 0x40 MLOAD DUP1 SWAP2 SUB SWAP1 LOG2 POP JUMP JUMPDEST PUSH1 0x7 PUSH1 0x20 MSTORE DUP2 PUSH0 MSTORE PUSH1 0x40 PUSH0 KECCAK256 PUSH1 0x20 MSTORE DUP1 PUSH0 MSTORE PUSH1 0x40 PUSH0 KECCAK256 PUSH0 SWAP2 POP SWAP2 POP SWAP1 SLOAD SWAP1 PUSH2 0x100 EXP SWAP1 DIV PUSH1 0xFF AND DUP2 JUMP JUMPDEST PUSH0 PUSH1 0x4 DUP1 DUP4 PUSH2 0xFEC SWAP2 SWAP1 PUSH2 0x209F JUMP JUMPDEST PUSH2 0xFF6 SWAP2 SWAP1 PUSH2 0x206F JUMP JUMPDEST PUSH1 0x5 DUP2 SWAP1 SSTORE POP PUSH1 0x3 SLOAD PUSH1 0x5 PUSH0 DUP3 DUP3 SLOAD PUSH2 0x100F SWAP2 SWAP1 PUSH2 0x20E0 JUMP JUMPDEST SWAP3 POP POP DUP2 SWAP1 SSTORE POP DUP2 PUSH1 0x4 DUP2 SWAP1 SSTORE POP PUSH1 0x5 SLOAD SWAP1 POP SWAP2 SWAP1 POP JUMP JUMPDEST PUSH1 0x8 DUP2 DUP2 SLOAD DUP2 LT PUSH2 0x1036 JUMPI PUSH0 DUP1 REVERT JUMPDEST SWAP1 PUSH0 MSTORE PUSH1 0x20 PUSH0 KECCAK256 SWAP1 PUSH1 0x5 MUL ADD PUSH0 SWAP2 POP SWAP1 POP DUP1 PUSH0 ADD PUSH0 SWAP1 SLOAD SWAP1 PUSH2 0x100 EXP SWAP1 DIV PUSH20 0xFFFFFFFFFFFFFFFFFFFFFFFFFFFFFFFFFFFFFFFF AND SWAP1 DUP1 PUSH1 0x1 ADD SLOAD SWAP1 DUP1 PUSH1 0x2 ADD DUP1 SLOAD PUSH2 0x1080 SWAP1 PUSH2 0x243D JUMP JUMPDEST DUP1 PUSH1 0x1F ADD PUSH1 0x20 DUP1 SWAP2 DIV MUL PUSH1 0x20 ADD PUSH1 0x40 MLOAD SWAP1 DUP2 ADD PUSH1 0x40 MSTORE DUP1 SWAP3 SWAP2 SWAP1 DUP2 DUP2 MSTORE PUSH1 0x20 ADD DUP3 DUP1 SLOAD PUSH2 0x10AC SWAP1 PUSH2 0x243D JUMP JUMPDEST DUP1 ISZERO PUSH2 0x10F7 JUMPI DUP1 PUSH1 0x1F LT PUSH2 0x10CE JUMPI PUSH2 0x100 DUP1 DUP4 SLOAD DIV MUL DUP4 MSTORE SWAP2 PUSH1 0x20 ADD SWAP2 PUSH2 0x10F7 JUMP JUMPDEST DUP3 ADD SWAP2 SWAP1 PUSH0 MSTORE PUSH1 0x20 PUSH0 KECCAK256 SWAP1 JUMPDEST DUP2 SLOAD DUP2 MSTORE SWAP1 PUSH1 0x1 ADD SWAP1 PUSH1 0x20 ADD DUP1 DUP4 GT PUSH2 0x10DA JUMPI DUP3 SWAP1 SUB PUSH1 0x1F AND DUP3 ADD SWAP2 JUMPDEST POP POP POP POP POP SWAP1 DUP1 PUSH1 0x3 ADD PUSH0 SWAP1 SLOAD SWAP1 PUSH2 0x100 EXP SWAP1 DIV PUSH1 0xFF AND SWAP1 DUP1 PUSH1 0x4 ADD SLOAD SWAP1 POP DUP6 JUMP JUMPDEST PUSH1 0x60 PUSH0 DUP1 SLOAD DUP1 PUSH1 0x20 MUL PUSH1 0x20 ADD PUSH1 0x40 MLOAD SWAP1 DUP2 ADD PUSH1 0x40 MSTORE DUP1 SWAP3 SWAP2 SWAP1 DUP2 DUP2 MSTORE PUSH1 0x20 ADD DUP3 DUP1 SLOAD DUP1 ISZERO PUSH2 0x1199 JUMPI PUSH1 0x20 MUL DUP3 ADD SWAP2 SWAP1 PUSH0 MSTORE PUSH1 0x20 PUSH0 KECCAK256 SWAP1 JUMPDEST DUP2 PUSH0 SWAP1 SLOAD SWAP1 PUSH2 0x100 EXP SWAP1 DIV PUSH20 0xFFFFFFFFFFFFFFFFFFFFFFFFFFFFFFFFFFFFFFFF AND PUSH20 0xFFFFFFFFFFFFFFFFFFFFFFFFFFFFFFFFFFFFFFFF AND DUP2 MSTORE PUSH1 0x20 ADD SWAP1 PUSH1 0x1 ADD SWAP1 DUP1 DUP4 GT PUSH2 0x1150 JUMPI JUMPDEST POP POP POP POP POP SWAP1 POP SWAP1 JUMP JUMPDEST PUSH1 0x1 PUSH0 CALLER PUSH20 0xFFFFFFFFFFFFFFFFFFFFFFFFFFFFFFFFFFFFFFFF AND PUSH20 0xFFFFFFFFFFFFFFFFFFFFFFFFFFFFFFFFFFFFFFFF AND DUP2 MSTORE PUSH1 0x20 ADD SWAP1 DUP2 MSTORE PUSH1 0x20 ADD PUSH0 KECCAK256 PUSH0 SWAP1 SLOAD SWAP1 PUSH2 0x100 EXP SWAP1 DIV PUSH1 0xFF AND PUSH2 0x122C JUMPI PUSH1 0x40 MLOAD PUSH32 0x8C379A000000000000000000000000000000000000000000000000000000000 DUP2 MSTORE PUSH1 0x4 ADD PUSH2 0x1223 SWAP1 PUSH2 0x22BA JUMP JUMPDEST PUSH1 0x40 MLOAD DUP1 SWAP2 SUB SWAP1 REVERT JUMPDEST DUP1 PUSH1 0x8 DUP1 SLOAD SWAP1 POP DUP2 LT PUSH2 0x1274 JUMPI PUSH1 0x40 MLOAD PUSH32 0x8C379A000000000000000000000000000000000000000000000000000000000 DUP2 MSTORE PUSH1 0x4 ADD PUSH2 0x126B SWAP1 PUSH2 0x2322 JUMP JUMPDEST PUSH1 0x40 MLOAD DUP1 SWAP2 SUB SWAP1 REVERT JUMPDEST DUP2 PUSH1 0x8 DUP2 DUP2 SLOAD DUP2 LT PUSH2 0x1289 JUMPI PUSH2 0x1288 PUSH2 0x21E3 JUMP JUMPDEST JUMPDEST SWAP1 PUSH0 MSTORE PUSH1 0x20 PUSH0 KECCAK256 SWAP1 PUSH1 0x5 MUL ADD PUSH1 0x3 ADD PUSH0 SWAP1 SLOAD SWAP1 PUSH2 0x100 EXP SWAP1 DIV PUSH1 0xFF AND ISZERO PUSH2 0x12E5 JUMPI PUSH1 0x40 MLOAD PUSH32 0x8C379A000000000000000000000000000000000000000000000000000000000 DUP2 MSTORE PUSH1 0x4 ADD PUSH2 0x12DC SWAP1 PUSH2 0x238A JUMP JUMPDEST PUSH1 0x40 MLOAD DUP1 SWAP2 SUB SWAP1 REVERT JUMPDEST DUP3 PUSH1 0x7 PUSH0 DUP3 DUP2 MSTORE PUSH1 0x20 ADD SWAP1 DUP2 MSTORE PUSH1 0x20 ADD PUSH0 KECCAK256 PUSH0 CALLER PUSH20 0xFFFFFFFFFFFFFFFFFFFFFFFFFFFFFFFFFFFFFFFF AND PUSH20 0xFFFFFFFFFFFFFFFFFFFFFFFFFFFFFFFFFFFFFFFF AND DUP2 MSTORE PUSH1 0x20 ADD SWAP1 DUP2 MSTORE PUSH1 0x20 ADD PUSH0 KECCAK256 PUSH0 SWAP1 SLOAD SWAP1 PUSH2 0x100 EXP SWAP1 DIV PUSH1 0xFF AND ISZERO PUSH2 0x137F JUMPI PUSH1 0x40 MLOAD PUSH32 0x8C379A000000000000000000000000000000000000000000000000000000000 DUP2 MSTORE PUSH1 0x4 ADD PUSH2 0x1376 SWAP1 PUSH2 0x25EF JUMP JUMPDEST PUSH1 0x40 MLOAD DUP1 SWAP2 SUB SWAP1 REVERT JUMPDEST PUSH0 PUSH1 0x8 DUP6 DUP2 SLOAD DUP2 LT PUSH2 0x1394 JUMPI PUSH2 0x1393 PUSH2 0x21E3 JUMP JUMPDEST JUMPDEST SWAP1 PUSH0 MSTORE PUSH1 0x20 PUSH0 KECCAK256 SWAP1 PUSH1 0x5 MUL ADD SWAP1 POP PUSH1 0x1 DUP2 PUSH1 0x4 ADD PUSH0 DUP3 DUP3 SLOAD PUSH2 0x13B6 SWAP2 SWAP1 PUSH2 0x20E0 JUMP JUMPDEST SWAP3 POP POP DUP2 SWAP1 SSTORE POP PUSH1 0x1 PUSH1 0x7 PUSH0 DUP8 DUP2 MSTORE PUSH1 0x20 ADD SWAP1 DUP2 MSTORE PUSH1 0x20 ADD PUSH0 KECCAK256 PUSH0 CALLER PUSH20 0xFFFFFFFFFFFFFFFFFFFFFFFFFFFFFFFFFFFFFFFF AND PUSH20 0xFFFFFFFFFFFFFFFFFFFFFFFFFFFFFFFFFFFFFFFF AND DUP2 MSTORE PUSH1 0x20 ADD SWAP1 DUP2 MSTORE PUSH1 0x20 ADD PUSH0 KECCAK256 PUSH0 PUSH2 0x100 EXP DUP2 SLOAD DUP2 PUSH1 0xFF MUL NOT AND SWAP1 DUP4 ISZERO ISZERO MUL OR SWAP1 SSTORE POP DUP5 CALLER PUSH20 0xFFFFFFFFFFFFFFFFFFFFFFFFFFFFFFFFFFFFFFFF AND PUSH32 0x5CBE105E36805F7820E291F799D5794FF948AF2A5F664E580382DEFB63390041 PUSH1 0x40 MLOAD PUSH1 0x40 MLOAD DUP1 SWAP2 SUB SWAP1 LOG3 POP POP POP POP POP JUMP JUMPDEST PUSH1 0x1 PUSH0 CALLER PUSH20 0xFFFFFFFFFFFFFFFFFFFFFFFFFFFFFFFFFFFFFFFF AND PUSH20 0xFFFFFFFFFFFFFFFFFFFFFFFFFFFFFFFFFFFFFFFF AND DUP2 MSTORE PUSH1 0x20 ADD SWAP1 DUP2 MSTORE PUSH1 0x20 ADD PUSH0 KECCAK256 PUSH0 SWAP1 SLOAD SWAP1 PUSH2 0x100 EXP SWAP1 DIV PUSH1 0xFF AND PUSH2 0x14F5 JUMPI PUSH1 0x40 MLOAD PUSH32 0x8C379A000000000000000000000000000000000000000000000000000000000 DUP2 MSTORE PUSH1 0x4 ADD PUSH2 0x14EC SWAP1 PUSH2 0x22BA JUMP JUMPDEST PUSH1 0x40 MLOAD DUP1 SWAP2 SUB SWAP1 REVERT JUMPDEST PUSH0 PUSH1 0x8 DUP1 SLOAD SWAP1 POP SWAP1 POP PUSH1 0x8 PUSH1 0x40 MLOAD DUP1 PUSH1 0xA0 ADD PUSH1 0x40 MSTORE DUP1 DUP7 PUSH20 0xFFFFFFFFFFFFFFFFFFFFFFFFFFFFFFFFFFFFFFFF AND DUP2 MSTORE PUSH1 0x20 ADD DUP6 DUP2 MSTORE PUSH1 0x20 ADD DUP5 DUP2 MSTORE PUSH1 0x20 ADD PUSH0 ISZERO ISZERO DUP2 MSTORE PUSH1 0x20 ADD PUSH0 DUP2 MSTORE POP SWAP1 DUP1 PUSH1 0x1 DUP2 SLOAD ADD DUP1 DUP3 SSTORE DUP1 SWAP2 POP POP PUSH1 0x1 SWAP1 SUB SWAP1 PUSH0 MSTORE PUSH1 0x20 PUSH0 KECCAK256 SWAP1 PUSH1 0x5 MUL ADD PUSH0 SWAP1 SWAP2 SWAP1 SWAP2 SWAP1 SWAP2 POP PUSH0 DUP3 ADD MLOAD DUP2 PUSH0 ADD PUSH0 PUSH2 0x100 EXP DUP2 SLOAD DUP2 PUSH20 0xFFFFFFFFFFFFFFFFFFFFFFFFFFFFFFFFFFFFFFFF MUL NOT AND SWAP1 DUP4 PUSH20 0xFFFFFFFFFFFFFFFFFFFFFFFFFFFFFFFFFFFFFFFF AND MUL OR SWAP1 SSTORE POP PUSH1 0x20 DUP3 ADD MLOAD DUP2 PUSH1 0x1 ADD SSTORE PUSH1 0x40 DUP3 ADD MLOAD DUP2 PUSH1 0x2 ADD SWAP1 DUP2 PUSH2 0x15C8 SWAP2 SWAP1 PUSH2 0x27AA JUMP JUMPDEST POP PUSH1 0x60 DUP3 ADD MLOAD DUP2 PUSH1 0x3 ADD PUSH0 PUSH2 0x100 EXP DUP2 SLOAD DUP2 PUSH1 0xFF MUL NOT AND SWAP1 DUP4 ISZERO ISZERO MUL OR SWAP1 SSTORE POP PUSH1 0x80 DUP3 ADD MLOAD DUP2 PUSH1 0x4 ADD SSTORE POP POP DUP4 PUSH20 0xFFFFFFFFFFFFFFFFFFFFFFFFFFFFFFFFFFFFFFFF AND DUP2 CALLER PUSH20 0xFFFFFFFFFFFFFFFFFFFFFFFFFFFFFFFFFFFFFFFF AND PUSH32 0xD5A05BF70715AD82A09A756320284A1B54C9FF74CD0F8CCE6219E79B563FE59D DUP7 DUP7 PUSH1 0x40 MLOAD PUSH2 0x1654 SWAP3 SWAP2 SWAP1 PUSH2 0x2879 JUMP JUMPDEST PUSH1 0x40 MLOAD DUP1 SWAP2 SUB SWAP1 LOG4 POP POP POP POP JUMP JUMPDEST PUSH1 0x2 SLOAD DUP2 JUMP JUMPDEST PUSH1 0x1 PUSH0 CALLER PUSH20 0xFFFFFFFFFFFFFFFFFFFFFFFFFFFFFFFFFFFFFFFF AND PUSH20 0xFFFFFFFFFFFFFFFFFFFFFFFFFFFFFFFFFFFFFFFF AND DUP2 MSTORE PUSH1 0x20 ADD SWAP1 DUP2 MSTORE PUSH1 0x20 ADD PUSH0 KECCAK256 PUSH0 SWAP1 SLOAD SWAP1 PUSH2 0x100 EXP SWAP1 DIV PUSH1 0xFF AND PUSH2 0x16F1 JUMPI PUSH1 0x40 MLOAD PUSH32 0x8C379A000000000000000000000000000000000000000000000000000000000 DUP2 MSTORE PUSH1 0x4 ADD PUSH2 0x16E8 SWAP1 PUSH2 0x22BA JUMP JUMPDEST PUSH1 0x40 MLOAD DUP1 SWAP2 SUB SWAP1 REVERT JUMPDEST DUP1 PUSH1 0x8 DUP1 SLOAD SWAP1 POP DUP2 LT PUSH2 0x1739 JUMPI PUSH1 0x40 MLOAD PUSH32 0x8C379A000000000000000000000000000000000000000000000000000000000 DUP2 MSTORE PUSH1 0x4 ADD PUSH2 0x1730 SWAP1 PUSH2 0x2322 JUMP JUMPDEST PUSH1 0x40 MLOAD DUP1 SWAP2 SUB SWAP1 REVERT JUMPDEST DUP2 PUSH1 0x8 DUP2 DUP2 SLOAD DUP2 LT PUSH2 0x174E JUMPI PUSH2 0x174D PUSH2 0x21E3 JUMP JUMPDEST JUMPDEST SWAP1 PUSH0 MSTORE PUSH1 0x20 PUSH0 KECCAK256 SWAP1 PUSH1 0x5 MUL ADD PUSH1 0x3 ADD PUSH0 SWAP1 SLOAD SWAP1 PUSH2 0x100 EXP SWAP1 DIV PUSH1 0xFF AND ISZERO PUSH2 0x17AA JUMPI PUSH1 0x40 MLOAD PUSH32 0x8C379A000000000000000000000000000000000000000000000000000000000 DUP2 MSTORE PUSH1 0x4 ADD PUSH2 0x17A1 SWAP1 PUSH2 0x238A JUMP JUMPDEST PUSH1 0x40 MLOAD DUP1 SWAP2 SUB SWAP1 REVERT JUMPDEST PUSH0 PUSH1 0x8 DUP5 DUP2 SLOAD DUP2 LT PUSH2 0x17BF JUMPI PUSH2 0x17BE PUSH2 0x21E3 JUMP JUMPDEST JUMPDEST SWAP1 PUSH0 MSTORE PUSH1 0x20 PUSH0 KECCAK256 SWAP1 PUSH1 0x5 MUL ADD SWAP1 POP PUSH1 0x2 SLOAD DUP2 PUSH1 0x4 ADD SLOAD LT ISZERO PUSH2 0x1816 JUMPI PUSH1 0x40 MLOAD PUSH32 0x8C379A000000000000000000000000000000000000000000000000000000000 DUP2 MSTORE PUSH1 0x4 ADD PUSH2 0x180D SWAP1 PUSH2 0x28F1 JUMP JUMPDEST PUSH1 0x40 MLOAD DUP1 SWAP2 SUB SWAP1 REVERT JUMPDEST PUSH1 0x1 DUP2 PUSH1 0x3 ADD PUSH0 PUSH2 0x100 EXP DUP2 SLOAD DUP2 PUSH1 0xFF MUL NOT AND SWAP1 DUP4 ISZERO ISZERO MUL OR SWAP1 SSTORE POP PUSH0 DUP2 PUSH0 ADD PUSH0 SWAP1 SLOAD SWAP1 PUSH2 0x100 EXP SWAP1 DIV PUSH20 0xFFFFFFFFFFFFFFFFFFFFFFFFFFFFFFFFFFFFFFFF AND PUSH20 0xFFFFFFFFFFFFFFFFFFFFFFFFFFFFFFFFFFFFFFFF AND DUP3 PUSH1 0x1 ADD SLOAD DUP4 PUSH1 0x2 ADD PUSH1 0x40 MLOAD PUSH2 0x1882 SWAP2 SWAP1 PUSH2 0x2999 JUMP JUMPDEST PUSH0 PUSH1 0x40 MLOAD DUP1 DUP4 SUB DUP2 DUP6 DUP8 GAS CALL SWAP3 POP POP POP RETURNDATASIZE DUP1 PUSH0 DUP2 EQ PUSH2 0x18BC JUMPI PUSH1 0x40 MLOAD SWAP2 POP PUSH1 0x1F NOT PUSH1 0x3F RETURNDATASIZE ADD AND DUP3 ADD PUSH1 0x40 MSTORE RETURNDATASIZE DUP3 MSTORE RETURNDATASIZE PUSH0 PUSH1 0x20 DUP5 ADD RETURNDATACOPY PUSH2 0x18C1 JUMP JUMPDEST PUSH1 0x60 SWAP2 POP JUMPDEST POP POP SWAP1 POP DUP1 PUSH2 0x1905 JUMPI PUSH1 0x40 MLOAD PUSH32 0x8C379A000000000000000000000000000000000000000000000000000000000 DUP2 MSTORE PUSH1 0x4 ADD PUSH2 0x18FC SWAP1 PUSH2 0x29F9 JUMP JUMPDEST PUSH1 0x40 MLOAD DUP1 SWAP2 SUB SWAP1 REVERT JUMPDEST DUP5 CALLER PUSH20 0xFFFFFFFFFFFFFFFFFFFFFFFFFFFFFFFFFFFFFFFF AND PUSH32 0x5445F318F4F5FCFB66592E68E0CC5822AA15664039BD5F0FFDE24C5A8142B1AC PUSH1 0x40 MLOAD PUSH1 0x40 MLOAD DUP1 SWAP2 SUB SWAP1 LOG3 POP POP POP POP POP JUMP JUMPDEST PUSH1 0x4 SLOAD DUP2 JUMP JUMPDEST PUSH0 PUSH1 0x4 DUP1 DUP4 PUSH2 0x1965 SWAP2 SWAP1 PUSH2 0x2210 JUMP JUMPDEST PUSH2 0x196F SWAP2 SWAP1 PUSH2 0x20E0 JUMP JUMPDEST PUSH1 0x5 DUP2 SWAP1 SSTORE POP PUSH1 0x3 SLOAD PUSH1 0x5 PUSH0 DUP3 DUP3 SLOAD PUSH2 0x1988 SWAP2 SWAP1 PUSH2 0x20E0 JUMP JUMPDEST SWAP3 POP POP DUP2 SWAP1 SSTORE POP DUP2 PUSH1 0x4 DUP2 SWAP1 SSTORE POP PUSH1 0x5 SLOAD SWAP1 POP SWAP2 SWAP1 POP JUMP JUMPDEST PUSH1 0x60 PUSH1 0x5 SLOAD PUSH1 0x4 SLOAD GT PUSH2 0x19E8 JUMPI PUSH1 0x40 MLOAD PUSH32 0x8C379A000000000000000000000000000000000000000000000000000000000 DUP2 MSTORE PUSH1 0x4 ADD PUSH2 0x19DF SWAP1 PUSH2 0x2A61 JUMP JUMPDEST PUSH1 0x40 MLOAD DUP1 SWAP2 SUB SWAP1 REVERT JUMPDEST PUSH1 0x6 DUP1 SLOAD PUSH2 0x19F5 SWAP1 PUSH2 0x243D JUMP JUMPDEST DUP1 PUSH1 0x1F ADD PUSH1 0x20 DUP1 SWAP2 DIV MUL PUSH1 0x20 ADD PUSH1 0x40 MLOAD SWAP1 DUP2 ADD PUSH1 0x40 MSTORE DUP1 SWAP3 SWAP2 SWAP1 DUP2 DUP2 MSTORE PUSH1 0x20 ADD DUP3 DUP1 SLOAD PUSH2 0x1A21 SWAP1 PUSH2 0x243D JUMP JUMPDEST DUP1 ISZERO PUSH2 0x1A6C JUMPI DUP1 PUSH1 0x1F LT PUSH2 0x1A43 JUMPI PUSH2 0x100 DUP1 DUP4 SLOAD DIV MUL DUP4 MSTORE SWAP2 PUSH1 0x20 ADD SWAP2 PUSH2 0x1A6C JUMP JUMPDEST DUP3 ADD SWAP2 SWAP1 PUSH0 MSTORE PUSH1 0x20 PUSH0 KECCAK256 SWAP1 JUMPDEST DUP2 SLOAD DUP2 MSTORE SWAP1 PUSH1 0x1 ADD SWAP1 PUSH1 0x20 ADD DUP1 DUP4 GT PUSH2 0x1A4F JUMPI DUP3 SWAP1 SUB PUSH1 0x1F AND DUP3 ADD SWAP2 JUMPDEST POP POP POP POP POP SWAP1 POP SWAP1 JUMP JUMPDEST PUSH0 DUP2 SWAP1 POP SWAP2 SWAP1 POP JUMP JUMPDEST PUSH2 0x1A88 DUP2 PUSH2 0x1A76 JUMP JUMPDEST DUP3 MSTORE POP POP JUMP JUMPDEST PUSH0 PUSH1 0x40 DUP3 ADD SWAP1 POP PUSH2 0x1AA1 PUSH0 DUP4 ADD DUP6 PUSH2 0x1A7F JUMP JUMPDEST PUSH2 0x1AAE PUSH1 0x20 DUP4 ADD DUP5 PUSH2 0x1A7F JUMP JUMPDEST SWAP4 SWAP3 POP POP POP JUMP JUMPDEST PUSH0 PUSH1 0x40 MLOAD SWAP1 POP SWAP1 JUMP JUMPDEST PUSH0 DUP1 REVERT JUMPDEST PUSH0 DUP1 REVERT JUMPDEST PUSH2 0x1ACF DUP2 PUSH2 0x1A76 JUMP JUMPDEST DUP2 EQ PUSH2 0x1AD9 JUMPI PUSH0 DUP1 REVERT JUMPDEST POP JUMP JUMPDEST PUSH0 DUP2 CALLDATALOAD SWAP1 POP PUSH2 0x1AEA DUP2 PUSH2 0x1AC6 JUMP JUMPDEST SWAP3 SWAP2 POP POP JUMP JUMPDEST PUSH0 PUSH1 0x20 DUP3 DUP5 SUB SLT ISZERO PUSH2 0x1B05 JUMPI PUSH2 0x1B04 PUSH2 0x1ABE JUMP JUMPDEST JUMPDEST PUSH0 PUSH2 0x1B12 DUP5 DUP3 DUP6 ADD PUSH2 0x1ADC JUMP JUMPDEST SWAP2 POP POP SWAP3 SWAP2 POP POP JUMP JUMPDEST PUSH0 PUSH20 0xFFFFFFFFFFFFFFFFFFFFFFFFFFFFFFFFFFFFFFFF DUP3 AND SWAP1 POP SWAP2 SWAP1 POP JUMP JUMPDEST PUSH0 PUSH2 0x1B44 DUP3 PUSH2 0x1B1B JUMP JUMPDEST SWAP1 POP SWAP2 SWAP1 POP JUMP JUMPDEST PUSH2 0x1B54 DUP2 PUSH2 0x1B3A JUMP JUMPDEST DUP3 MSTORE POP POP JUMP JUMPDEST PUSH0 PUSH1 0x20 DUP3 ADD SWAP1 POP PUSH2 0x1B6D PUSH0 DUP4 ADD DUP5 PUSH2 0x1B4B JUMP JUMPDEST SWAP3 SWAP2 POP POP JUMP JUMPDEST PUSH0 PUSH1 0x20 DUP3 ADD SWAP1 POP PUSH2 0x1B86 PUSH0 DUP4 ADD DUP5 PUSH2 0x1A7F JUMP JUMPDEST SWAP3 SWAP2 POP POP JUMP JUMPDEST PUSH2 0x1B95 DUP2 PUSH2 0x1B3A JUMP JUMPDEST DUP2 EQ PUSH2 0x1B9F JUMPI PUSH0 DUP1 REVERT JUMPDEST POP JUMP JUMPDEST PUSH0 DUP2 CALLDATALOAD SWAP1 POP PUSH2 0x1BB0 DUP2 PUSH2 0x1B8C JUMP JUMPDEST SWAP3 SWAP2 POP POP JUMP JUMPDEST PUSH0 PUSH1 0x20 DUP3 DUP5 SUB SLT ISZERO PUSH2 0x1BCB JUMPI PUSH2 0x1BCA PUSH2 0x1ABE JUMP JUMPDEST JUMPDEST PUSH0 PUSH2 0x1BD8 DUP5 DUP3 DUP6 ADD PUSH2 0x1BA2 JUMP JUMPDEST SWAP2 POP POP SWAP3 SWAP2 POP POP JUMP JUMPDEST PUSH0 DUP2 ISZERO ISZERO SWAP1 POP SWAP2 SWAP1 POP JUMP JUMPDEST PUSH2 0x1BF5 DUP2 PUSH2 0x1BE1 JUMP JUMPDEST DUP3 MSTORE POP POP JUMP JUMPDEST PUSH0 PUSH1 0x20 DUP3 ADD SWAP1 POP PUSH2 0x1C0E PUSH0 DUP4 ADD DUP5 PUSH2 0x1BEC JUMP JUMPDEST SWAP3 SWAP2 POP POP JUMP JUMPDEST PUSH0 DUP2 MLOAD SWAP1 POP SWAP2 SWAP1 POP JUMP JUMPDEST PUSH0 DUP3 DUP3 MSTORE PUSH1 0x20 DUP3 ADD SWAP1 POP SWAP3 SWAP2 POP POP JUMP JUMPDEST PUSH0 JUMPDEST DUP4 DUP2 LT ISZERO PUSH2 0x1C4B JUMPI DUP1 DUP3 ADD MLOAD DUP2 DUP5 ADD MSTORE PUSH1 0x20 DUP2 ADD SWAP1 POP PUSH2 0x1C30 JUMP JUMPDEST PUSH0 DUP5 DUP5 ADD MSTORE POP POP POP POP JUMP JUMPDEST PUSH0 PUSH1 0x1F NOT PUSH1 0x1F DUP4 ADD AND SWAP1 POP SWAP2 SWAP1 POP JUMP JUMPDEST PUSH0 PUSH2 0x1C70 DUP3 PUSH2 0x1C14 JUMP JUMPDEST PUSH2 0x1C7A DUP2 DUP6 PUSH2 0x1C1E JUMP JUMPDEST SWAP4 POP PUSH2 0x1C8A DUP2 DUP6 PUSH1 0x20 DUP7 ADD PUSH2 0x1C2E JUMP JUMPDEST PUSH2 0x1C93 DUP2 PUSH2 0x1C56 JUMP JUMPDEST DUP5 ADD SWAP2 POP POP SWAP3 SWAP2 POP POP JUMP JUMPDEST PUSH0 PUSH1 0xA0 DUP3 ADD SWAP1 POP PUSH2 0x1CB1 PUSH0 DUP4 ADD DUP9 PUSH2 0x1B4B JUMP JUMPDEST PUSH2 0x1CBE PUSH1 0x20 DUP4 ADD DUP8 PUSH2 0x1A7F JUMP JUMPDEST DUP2 DUP2 SUB PUSH1 0x40 DUP4 ADD MSTORE PUSH2 0x1CD0 DUP2 DUP7 PUSH2 0x1C66 JUMP JUMPDEST SWAP1 POP PUSH2 0x1CDF PUSH1 0x60 DUP4 ADD DUP6 PUSH2 0x1BEC JUMP JUMPDEST PUSH2 0x1CEC PUSH1 0x80 DUP4 ADD DUP5 PUSH2 0x1A7F JUMP JUMPDEST SWAP7 SWAP6 POP POP POP POP POP POP JUMP JUMPDEST PUSH0 DUP1 PUSH1 0x40 DUP4 DUP6 SUB SLT ISZERO PUSH2 0x1D0C JUMPI PUSH2 0x1D0B PUSH2 0x1ABE JUMP JUMPDEST JUMPDEST PUSH0 PUSH2 0x1D19 DUP6 DUP3 DUP7 ADD PUSH2 0x1ADC JUMP JUMPDEST SWAP3 POP POP PUSH1 0x20 PUSH2 0x1D2A DUP6 DUP3 DUP7 ADD PUSH2 0x1BA2 JUMP JUMPDEST SWAP2 POP POP SWAP3 POP SWAP3 SWAP1 POP JUMP JUMPDEST PUSH0 DUP2 MLOAD SWAP1 POP SWAP2 SWAP1 POP JUMP JUMPDEST PUSH0 DUP3 DUP3 MSTORE PUSH1 0x20 DUP3 ADD SWAP1 POP SWAP3 SWAP2 POP POP JUMP JUMPDEST PUSH0 DUP2 SWAP1 POP PUSH1 0x20 DUP3 ADD SWAP1 POP SWAP2 SWAP1 POP JUMP JUMPDEST PUSH2 0x1D66 DUP2 PUSH2 0x1B3A JUMP JUMPDEST DUP3 MSTORE POP POP JUMP JUMPDEST PUSH0 PUSH2 0x1D77 DUP4 DUP4 PUSH2 0x1D5D JUMP JUMPDEST PUSH1 0x20 DUP4 ADD SWAP1 POP SWAP3 SWAP2 POP POP JUMP JUMPDEST PUSH0 PUSH1 0x20 DUP3 ADD SWAP1 POP SWAP2 SWAP1 POP JUMP JUMPDEST PUSH0 PUSH2 0x1D99 DUP3 PUSH2 0x1D34 JUMP JUMPDEST PUSH2 0x1DA3 DUP2 DUP6 PUSH2 0x1D3E JUMP JUMPDEST SWAP4 POP PUSH2 0x1DAE DUP4 PUSH2 0x1D4E JUMP JUMPDEST DUP1 PUSH0 JUMPDEST DUP4 DUP2 LT ISZERO PUSH2 0x1DDE JUMPI DUP2 MLOAD PUSH2 0x1DC5 DUP9 DUP3 PUSH2 0x1D6C JUMP JUMPDEST SWAP8 POP PUSH2 0x1DD0 DUP4 PUSH2 0x1D83 JUMP JUMPDEST SWAP3 POP POP PUSH1 0x1 DUP2 ADD SWAP1 POP PUSH2 0x1DB1 JUMP JUMPDEST POP DUP6 SWAP4 POP POP POP POP SWAP3 SWAP2 POP POP JUMP JUMPDEST PUSH0 PUSH1 0x20 DUP3 ADD SWAP1 POP DUP2 DUP2 SUB PUSH0 DUP4 ADD MSTORE PUSH2 0x1E03 DUP2 DUP5 PUSH2 0x1D8F JUMP JUMPDEST SWAP1 POP SWAP3 SWAP2 POP POP JUMP JUMPDEST PUSH0 DUP1 REVERT JUMPDEST PUSH0 DUP1 REVERT JUMPDEST PUSH32 0x4E487B7100000000000000000000000000000000000000000000000000000000 PUSH0 MSTORE PUSH1 0x41 PUSH1 0x4 MSTORE PUSH1 0x24 PUSH0 REVERT JUMPDEST PUSH2 0x1E49 DUP3 PUSH2 0x1C56 JUMP JUMPDEST DUP2 ADD DUP2 DUP2 LT PUSH8 0xFFFFFFFFFFFFFFFF DUP3 GT OR ISZERO PUSH2 0x1E68 JUMPI PUSH2 0x1E67 PUSH2 0x1E13 JUMP JUMPDEST JUMPDEST DUP1 PUSH1 0x40 MSTORE POP POP POP JUMP JUMPDEST PUSH0 PUSH2 0x1E7A PUSH2 0x1AB5 JUMP JUMPDEST SWAP1 POP PUSH2 0x1E86 DUP3 DUP3 PUSH2 0x1E40 JUMP JUMPDEST SWAP2 SWAP1 POP JUMP JUMPDEST PUSH0 PUSH8 0xFFFFFFFFFFFFFFFF DUP3 GT ISZERO PUSH2 0x1EA5 JUMPI PUSH2 0x1EA4 PUSH2 0x1E13 JUMP JUMPDEST JUMPDEST PUSH2 0x1EAE DUP3 PUSH2 0x1C56 JUMP JUMPDEST SWAP1 POP PUSH1 0x20 DUP2 ADD SWAP1 POP SWAP2 SWAP1 POP JUMP JUMPDEST DUP3 DUP2 DUP4 CALLDATACOPY PUSH0 DUP4 DUP4 ADD MSTORE POP POP POP JUMP JUMPDEST PUSH0 PUSH2 0x1EDB PUSH2 0x1ED6 DUP5 PUSH2 0x1E8B JUMP JUMPDEST PUSH2 0x1E71 JUMP JUMPDEST SWAP1 POP DUP3 DUP2 MSTORE PUSH1 0x20 DUP2 ADD DUP5 DUP5 DUP5 ADD GT ISZERO PUSH2 0x1EF7 JUMPI PUSH2 0x1EF6 PUSH2 0x1E0F JUMP JUMPDEST JUMPDEST PUSH2 0x1F02 DUP5 DUP3 DUP6 PUSH2 0x1EBB JUMP JUMPDEST POP SWAP4 SWAP3 POP POP POP JUMP JUMPDEST PUSH0 DUP3 PUSH1 0x1F DUP4 ADD SLT PUSH2 0x1F1E JUMPI PUSH2 0x1F1D PUSH2 0x1E0B JUMP JUMPDEST JUMPDEST DUP2 CALLDATALOAD PUSH2 0x1F2E DUP5 DUP3 PUSH1 0x20 DUP7 ADD PUSH2 0x1EC9 JUMP JUMPDEST SWAP2 POP POP SWAP3 SWAP2 POP POP JUMP JUMPDEST PUSH0 DUP1 PUSH0 PUSH1 0x60 DUP5 DUP7 SUB SLT ISZERO PUSH2 0x1F4E JUMPI PUSH2 0x1F4D PUSH2 0x1ABE JUMP JUMPDEST JUMPDEST PUSH0 PUSH2 0x1F5B DUP7 DUP3 DUP8 ADD PUSH2 0x1BA2 JUMP JUMPDEST SWAP4 POP POP PUSH1 0x20 PUSH2 0x1F6C DUP7 DUP3 DUP8 ADD PUSH2 0x1ADC JUMP JUMPDEST SWAP3 POP POP PUSH1 0x40 DUP5 ADD CALLDATALOAD PUSH8 0xFFFFFFFFFFFFFFFF DUP2 GT ISZERO PUSH2 0x1F8D JUMPI PUSH2 0x1F8C PUSH2 0x1AC2 JUMP JUMPDEST JUMPDEST PUSH2 0x1F99 DUP7 DUP3 DUP8 ADD PUSH2 0x1F0A JUMP JUMPDEST SWAP2 POP POP SWAP3 POP SWAP3 POP SWAP3 JUMP JUMPDEST PUSH0 DUP2 MLOAD SWAP1 POP SWAP2 SWAP1 POP JUMP JUMPDEST PUSH0 DUP3 DUP3 MSTORE PUSH1 0x20 DUP3 ADD SWAP1 POP SWAP3 SWAP2 POP POP JUMP JUMPDEST PUSH0 PUSH2 0x1FC7 DUP3 PUSH2 0x1FA3 JUMP JUMPDEST PUSH2 0x1FD1 DUP2 DUP6 PUSH2 0x1FAD JUMP JUMPDEST SWAP4 POP PUSH2 0x1FE1 DUP2 DUP6 PUSH1 0x20 DUP7 ADD PUSH2 0x1C2E JUMP JUMPDEST PUSH2 0x1FEA DUP2 PUSH2 0x1C56 JUMP JUMPDEST DUP5 ADD SWAP2 POP POP SWAP3 SWAP2 POP POP JUMP JUMPDEST PUSH0 PUSH1 0x20 DUP3 ADD SWAP1 POP DUP2 DUP2 SUB PUSH0 DUP4 ADD MSTORE PUSH2 0x200D DUP2 DUP5 PUSH2 0x1FBD JUMP JUMPDEST SWAP1 POP SWAP3 SWAP2 POP POP JUMP JUMPDEST PUSH32 0x4E487B7100000000000000000000000000000000000000000000000000000000 PUSH0 MSTORE PUSH1 0x12 PUSH1 0x4 MSTORE PUSH1 0x24 PUSH0 REVERT JUMPDEST PUSH32 0x4E487B7100000000000000000000000000000000000000000000000000000000 PUSH0 MSTORE PUSH1 0x11 PUSH1 0x4 MSTORE PUSH1 0x24 PUSH0 REVERT JUMPDEST PUSH0 PUSH2 0x2079 DUP3 PUSH2 0x1A76 JUMP JUMPDEST SWAP2 POP PUSH2 0x2084 DUP4 PUSH2 0x1A76 JUMP JUMPDEST SWAP3 POP DUP3 PUSH2 0x2094 JUMPI PUSH2 0x2093 PUSH2 0x2015 JUMP JUMPDEST JUMPDEST DUP3 DUP3 DIV SWAP1 POP SWAP3 SWAP2 POP POP JUMP JUMPDEST PUSH0 PUSH2 0x20A9 DUP3 PUSH2 0x1A76 JUMP JUMPDEST SWAP2 POP PUSH2 0x20B4 DUP4 PUSH2 0x1A76 JUMP JUMPDEST SWAP3 POP DUP3 DUP3 MUL PUSH2 0x20C2 DUP2 PUSH2 0x1A76 JUMP JUMPDEST SWAP2 POP DUP3 DUP3 DIV DUP5 EQ DUP4 ISZERO OR PUSH2 0x20D9 JUMPI PUSH2 0x20D8 PUSH2 0x2042 JUMP JUMPDEST JUMPDEST POP SWAP3 SWAP2 POP POP JUMP JUMPDEST PUSH0 PUSH2 0x20EA DUP3 PUSH2 0x1A76 JUMP JUMPDEST SWAP2 POP PUSH2 0x20F5 DUP4 PUSH2 0x1A76 JUMP JUMPDEST SWAP3 POP DUP3 DUP3 ADD SWAP1 POP DUP1 DUP3 GT ISZERO PUSH2 0x210D JUMPI PUSH2 0x210C PUSH2 0x2042 JUMP JUMPDEST JUMPDEST SWAP3 SWAP2 POP POP JUMP JUMPDEST PUSH32 0x6E6F7420616E206F776E65720000000000000000000000000000000000000000 PUSH0 DUP3 ADD MSTORE POP JUMP JUMPDEST PUSH0 PUSH2 0x2147 PUSH1 0xC DUP4 PUSH2 0x1FAD JUMP JUMPDEST SWAP2 POP PUSH2 0x2152 DUP3 PUSH2 0x2113 JUMP JUMPDEST PUSH1 0x20 DUP3 ADD SWAP1 POP SWAP2 SWAP1 POP JUMP JUMPDEST PUSH0 PUSH1 0x20 DUP3 ADD SWAP1 POP DUP2 DUP2 SUB PUSH0 DUP4 ADD MSTORE PUSH2 0x2174 DUP2 PUSH2 0x213B JUMP JUMPDEST SWAP1 POP SWAP2 SWAP1 POP JUMP JUMPDEST PUSH32 0x63616E6E6F742072656D6F7665206C617374206F776E65720000000000000000 PUSH0 DUP3 ADD MSTORE POP JUMP JUMPDEST PUSH0 PUSH2 0x21AF PUSH1 0x18 DUP4 PUSH2 0x1FAD JUMP JUMPDEST SWAP2 POP PUSH2 0x21BA DUP3 PUSH2 0x217B JUMP JUMPDEST PUSH1 0x20 DUP3 ADD SWAP1 POP SWAP2 SWAP1 POP JUMP JUMPDEST PUSH0 PUSH1 0x20 DUP3 ADD SWAP1 POP DUP2 DUP2 SUB PUSH0 DUP4 ADD MSTORE PUSH2 0x21DC DUP2 PUSH2 0x21A3 JUMP JUMPDEST SWAP1 POP SWAP2 SWAP1 POP JUMP JUMPDEST PUSH32 0x4E487B7100000000000000000000000000000000000000000000000000000000 PUSH0 MSTORE PUSH1 0x32 PUSH1 0x4 MSTORE PUSH1 0x24 PUSH0 REVERT JUMPDEST PUSH0 PUSH2 0x221A DUP3 PUSH2 0x1A76 JUMP JUMPDEST SWAP2 POP PUSH2 0x2225 DUP4 PUSH2 0x1A76 JUMP JUMPDEST SWAP3 POP DUP3 DUP3 SUB SWAP1 POP DUP2 DUP2 GT ISZERO PUSH2 0x223D JUMPI PUSH2 0x223C PUSH2 0x2042 JUMP JUMPDEST JUMPDEST SWAP3 SWAP2 POP POP JUMP JUMPDEST PUSH32 0x4E487B7100000000000000000000000000000000000000000000000000000000 PUSH0 MSTORE PUSH1 0x31 PUSH1 0x4 MSTORE PUSH1 0x24 PUSH0 REVERT JUMPDEST PUSH32 0x6E6F74206F776E65720000000000000000000000000000000000000000000000 PUSH0 DUP3 ADD MSTORE POP JUMP JUMPDEST PUSH0 PUSH2 0x22A4 PUSH1 0x9 DUP4 PUSH2 0x1FAD JUMP JUMPDEST SWAP2 POP PUSH2 0x22AF DUP3 PUSH2 0x2270 JUMP JUMPDEST PUSH1 0x20 DUP3 ADD SWAP1 POP SWAP2 SWAP1 POP JUMP JUMPDEST PUSH0 PUSH1 0x20 DUP3 ADD SWAP1 POP DUP2 DUP2 SUB PUSH0 DUP4 ADD MSTORE PUSH2 0x22D1 DUP2 PUSH2 0x2298 JUMP JUMPDEST SWAP1 POP SWAP2 SWAP1 POP JUMP JUMPDEST PUSH32 0x747820646F6573206E6F74206578697374000000000000000000000000000000 PUSH0 DUP3 ADD MSTORE POP JUMP JUMPDEST PUSH0 PUSH2 0x230C PUSH1 0x11 DUP4 PUSH2 0x1FAD JUMP JUMPDEST SWAP2 POP PUSH2 0x2317 DUP3 PUSH2 0x22D8 JUMP JUMPDEST PUSH1 0x20 DUP3 ADD SWAP1 POP SWAP2 SWAP1 POP JUMP JUMPDEST PUSH0 PUSH1 0x20 DUP3 ADD SWAP1 POP DUP2 DUP2 SUB PUSH0 DUP4 ADD MSTORE PUSH2 0x2339 DUP2 PUSH2 0x2300 JUMP JUMPDEST SWAP1 POP SWAP2 SWAP1 POP JUMP JUMPDEST PUSH32 0x747820616C726561647920657865637574656400000000000000000000000000 PUSH0 DUP3 ADD MSTORE POP JUMP JUMPDEST PUSH0 PUSH2 0x2374 PUSH1 0x13 DUP4 PUSH2 0x1FAD JUMP JUMPDEST SWAP2 POP PUSH2 0x237F DUP3 PUSH2 0x2340 JUMP JUMPDEST PUSH1 0x20 DUP3 ADD SWAP1 POP SWAP2 SWAP1 POP JUMP JUMPDEST PUSH0 PUSH1 0x20 DUP3 ADD SWAP1 POP DUP2 DUP2 SUB PUSH0 DUP4 ADD MSTORE PUSH2 0x23A1 DUP2 PUSH2 0x2368 JUMP JUMPDEST SWAP1 POP SWAP2 SWAP1 POP JUMP JUMPDEST PUSH32 0x7478206E6F7420636F6E6669726D656400000000000000000000000000000000 PUSH0 DUP3 ADD MSTORE POP JUMP JUMPDEST PUSH0 PUSH2 0x23DC PUSH1 0x10 DUP4 PUSH2 0x1FAD JUMP JUMPDEST SWAP2 POP PUSH2 0x23E7 DUP3 PUSH2 0x23A8 JUMP JUMPDEST PUSH1 0x20 DUP3 ADD SWAP1 POP SWAP2 SWAP1 POP JUMP JUMPDEST PUSH0 PUSH1 0x20 DUP3 ADD SWAP1 POP DUP2 DUP2 SUB PUSH0 DUP4 ADD MSTORE PUSH2 0x2409 DUP2 PUSH2 0x23D0 JUMP JUMPDEST SWAP1 POP SWAP2 SWAP1 POP JUMP JUMPDEST PUSH32 0x4E487B7100000000000000000000000000000000000000000000000000000000 PUSH0 MSTORE PUSH1 0x22 PUSH1 0x4 MSTORE PUSH1 0x24 PUSH0 REVERT JUMPDEST PUSH0 PUSH1 0x2 DUP3 DIV SWAP1 POP PUSH1 0x1 DUP3 AND DUP1 PUSH2 0x2454 JUMPI PUSH1 0x7F DUP3 AND SWAP2 POP JUMPDEST PUSH1 0x20 DUP3 LT DUP2 SUB PUSH2 0x2467 JUMPI PUSH2 0x2466 PUSH2 0x2410 JUMP JUMPDEST JUMPDEST POP SWAP2 SWAP1 POP JUMP JUMPDEST PUSH32 0x696E76616C6964206F776E657200000000000000000000000000000000000000 PUSH0 DUP3 ADD MSTORE POP JUMP JUMPDEST PUSH0 PUSH2 0x24A1 PUSH1 0xD DUP4 PUSH2 0x1FAD JUMP JUMPDEST SWAP2 POP PUSH2 0x24AC DUP3 PUSH2 0x246D JUMP JUMPDEST PUSH1 0x20 DUP3 ADD SWAP1 POP SWAP2 SWAP1 POP JUMP JUMPDEST PUSH0 PUSH1 0x20 DUP3 ADD SWAP1 POP DUP2 DUP2 SUB PUSH0 DUP4 ADD MSTORE PUSH2 0x24CE DUP2 PUSH2 0x2495 JUMP JUMPDEST SWAP1 POP SWAP2 SWAP1 POP JUMP JUMPDEST PUSH32 0x6F776E657220616C726561647920657869737473000000000000000000000000 PUSH0 DUP3 ADD MSTORE POP JUMP JUMPDEST PUSH0 PUSH2 0x2509 PUSH1 0x14 DUP4 PUSH2 0x1FAD JUMP JUMPDEST SWAP2 POP PUSH2 0x2514 DUP3 PUSH2 0x24D5 JUMP JUMPDEST PUSH1 0x20 DUP3 ADD SWAP1 POP SWAP2 SWAP1 POP JUMP JUMPDEST PUSH0 PUSH1 0x20 DUP3 ADD SWAP1 POP DUP2 DUP2 SUB PUSH0 DUP4 ADD MSTORE PUSH2 0x2536 DUP2 PUSH2 0x24FD JUMP JUMPDEST SWAP1 POP SWAP2 SWAP1 POP JUMP JUMPDEST PUSH32 0x6D6178206F776E65727320726561636865640000000000000000000000000000 PUSH0 DUP3 ADD MSTORE POP JUMP JUMPDEST PUSH0 PUSH2 0x2571 PUSH1 0x12 DUP4 PUSH2 0x1FAD JUMP JUMPDEST SWAP2 POP PUSH2 0x257C DUP3 PUSH2 0x253D JUMP JUMPDEST PUSH1 0x20 DUP3 ADD SWAP1 POP SWAP2 SWAP1 POP JUMP JUMPDEST PUSH0 PUSH1 0x20 DUP3 ADD SWAP1 POP DUP2 DUP2 SUB PUSH0 DUP4 ADD MSTORE PUSH2 0x259E DUP2 PUSH2 0x2565 JUMP JUMPDEST SWAP1 POP SWAP2 SWAP1 POP JUMP JUMPDEST PUSH32 0x747820616C726561647920636F6E6669726D6564000000000000000000000000 PUSH0 DUP3 ADD MSTORE POP JUMP JUMPDEST PUSH0 PUSH2 0x25D9 PUSH1 0x14 DUP4 PUSH2 0x1FAD JUMP JUMPDEST SWAP2 POP PUSH2 0x25E4 DUP3 PUSH2 0x25A5 JUMP JUMPDEST PUSH1 0x20 DUP3 ADD SWAP1 POP SWAP2 SWAP1 POP JUMP JUMPDEST PUSH0 PUSH1 0x20 DUP3 ADD SWAP1 POP DUP2 DUP2 SUB PUSH0 DUP4 ADD MSTORE PUSH2 0x2606 DUP2 PUSH2 0x25CD JUMP JUMPDEST SWAP1 POP SWAP2 SWAP1 POP JUMP JUMPDEST PUSH0 DUP2 SWAP1 POP DUP2 PUSH0 MSTORE PUSH1 0x20 PUSH0 KECCAK256 SWAP1 POP SWAP2 SWAP1 POP JUMP JUMPDEST PUSH0 PUSH1 0x20 PUSH1 0x1F DUP4 ADD DIV SWAP1 POP SWAP2 SWAP1 POP JUMP JUMPDEST PUSH0 DUP3 DUP3 SHL SWAP1 POP SWAP3 SWAP2 POP POP JUMP JUMPDEST PUSH0 PUSH1 0x8 DUP4 MUL PUSH2 0x2669 PUSH32 0xFFFFFFFFFFFFFFFFFFFFFFFFFFFFFFFFFFFFFFFFFFFFFFFFFFFFFFFFFFFFFFFF DUP3 PUSH2 0x262E JUMP JUMPDEST PUSH2 0x2673 DUP7 DUP4 PUSH2 0x262E JUMP JUMPDEST SWAP6 POP DUP1 NOT DUP5 AND SWAP4 POP DUP1 DUP7 AND DUP5 OR SWAP3 POP POP POP SWAP4 SWAP3 POP POP POP JUMP JUMPDEST PUSH0 DUP2 SWAP1 POP SWAP2 SWAP1 POP JUMP JUMPDEST PUSH0 PUSH2 0x26AE PUSH2 0x26A9 PUSH2 0x26A4 DUP5 PUSH2 0x1A76 JUMP JUMPDEST PUSH2 0x268B JUMP JUMPDEST PUSH2 0x1A76 JUMP JUMPDEST SWAP1 POP SWAP2 SWAP1 POP JUMP JUMPDEST PUSH0 DUP2 SWAP1 POP SWAP2 SWAP1 POP JUMP JUMPDEST PUSH2 0x26C7 DUP4 PUSH2 0x2694 JUMP JUMPDEST PUSH2 0x26DB PUSH2 0x26D3 DUP3 PUSH2 0x26B5 JUMP JUMPDEST DUP5 DUP5 SLOAD PUSH2 0x263A JUMP JUMPDEST DUP3 SSTORE POP POP POP POP JUMP JUMPDEST PUSH0 SWAP1 JUMP JUMPDEST PUSH2 0x26EF PUSH2 0x26E3 JUMP JUMPDEST PUSH2 0x26FA DUP2 DUP5 DUP5 PUSH2 0x26BE JUMP JUMPDEST POP POP POP JUMP JUMPDEST JUMPDEST DUP2 DUP2 LT ISZERO PUSH2 0x271D JUMPI PUSH2 0x2712 PUSH0 DUP3 PUSH2 0x26E7 JUMP JUMPDEST PUSH1 0x1 DUP2 ADD SWAP1 POP PUSH2 0x2700 JUMP JUMPDEST POP POP JUMP JUMPDEST PUSH1 0x1F DUP3 GT ISZERO PUSH2 0x2762 JUMPI PUSH2 0x2733 DUP2 PUSH2 0x260D JUMP JUMPDEST PUSH2 0x273C DUP5 PUSH2 0x261F JUMP JUMPDEST DUP2 ADD PUSH1 0x20 DUP6 LT ISZERO PUSH2 0x274B JUMPI DUP2 SWAP1 POP JUMPDEST PUSH2 0x275F PUSH2 0x2757 DUP6 PUSH2 0x261F JUMP JUMPDEST DUP4 ADD DUP3 PUSH2 0x26FF JUMP JUMPDEST POP POP JUMPDEST POP POP POP JUMP JUMPDEST PUSH0 DUP3 DUP3 SHR SWAP1 POP SWAP3 SWAP2 POP POP JUMP JUMPDEST PUSH0 PUSH2 0x2782 PUSH0 NOT DUP5 PUSH1 0x8 MUL PUSH2 0x2767 JUMP JUMPDEST NOT DUP1 DUP4 AND SWAP2 POP POP SWAP3 SWAP2 POP POP JUMP JUMPDEST PUSH0 PUSH2 0x279A DUP4 DUP4 PUSH2 0x2773 JUMP JUMPDEST SWAP2 POP DUP3 PUSH1 0x2 MUL DUP3 OR SWAP1 POP SWAP3 SWAP2 POP POP JUMP JUMPDEST PUSH2 0x27B3 DUP3 PUSH2 0x1C14 JUMP JUMPDEST PUSH8 0xFFFFFFFFFFFFFFFF DUP2 GT ISZERO PUSH2 0x27CC JUMPI PUSH2 0x27CB PUSH2 0x1E13 JUMP JUMPDEST JUMPDEST PUSH2 0x27D6 DUP3 SLOAD PUSH2 0x243D JUMP JUMPDEST PUSH2 0x27E1 DUP3 DUP3 DUP6 PUSH2 0x2721 JUMP JUMPDEST PUSH0 PUSH1 0x20 SWAP1 POP PUSH1 0x1F DUP4 GT PUSH1 0x1 DUP2 EQ PUSH2 0x2812 JUMPI PUSH0 DUP5 ISZERO PUSH2 0x2800 JUMPI DUP3 DUP8 ADD MLOAD SWAP1 POP JUMPDEST PUSH2 0x280A DUP6 DUP3 PUSH2 0x278F JUMP JUMPDEST DUP7 SSTORE POP PUSH2 0x2871 JUMP JUMPDEST PUSH1 0x1F NOT DUP5 AND PUSH2 0x2820 DUP7 PUSH2 0x260D JUMP JUMPDEST PUSH0 JUMPDEST DUP3 DUP2 LT ISZERO PUSH2 0x2847 JUMPI DUP5 DUP10 ADD MLOAD DUP3 SSTORE PUSH1 0x1 DUP3 ADD SWAP2 POP PUSH1 0x20 DUP6 ADD SWAP5 POP PUSH1 0x20 DUP2 ADD SWAP1 POP PUSH2 0x2822 JUMP JUMPDEST DUP7 DUP4 LT ISZERO PUSH2 0x2864 JUMPI DUP5 DUP10 ADD MLOAD PUSH2 0x2860 PUSH1 0x1F DUP10 AND DUP3 PUSH2 0x2773 JUMP JUMPDEST DUP4 SSTORE POP JUMPDEST PUSH1 0x1 PUSH1 0x2 DUP9 MUL ADD DUP9 SSTORE POP POP POP JUMPDEST POP POP POP POP POP POP JUMP JUMPDEST PUSH0 PUSH1 0x40 DUP3 ADD SWAP1 POP PUSH2 0x288C PUSH0 DUP4 ADD DUP6 PUSH2 0x1A7F JUMP JUMPDEST DUP2 DUP2 SUB PUSH1 0x20 DUP4 ADD MSTORE PUSH2 0x289E DUP2 DUP5 PUSH2 0x1C66 JUMP JUMPDEST SWAP1 POP SWAP4 SWAP3 POP POP POP JUMP JUMPDEST PUSH32 0x63616E6E6F742065786563757465207478000000000000000000000000000000 PUSH0 DUP3 ADD MSTORE POP JUMP JUMPDEST PUSH0 PUSH2 0x28DB PUSH1 0x11 DUP4 PUSH2 0x1FAD JUMP JUMPDEST SWAP2 POP PUSH2 0x28E6 DUP3 PUSH2 0x28A7 JUMP JUMPDEST PUSH1 0x20 DUP3 ADD SWAP1 POP SWAP2 SWAP1 POP JUMP JUMPDEST PUSH0 PUSH1 0x20 DUP3 ADD SWAP1 POP DUP2 DUP2 SUB PUSH0 DUP4 ADD MSTORE PUSH2 0x2908 DUP2 PUSH2 0x28CF JUMP JUMPDEST SWAP1 POP SWAP2 SWAP1 POP JUMP JUMPDEST PUSH0 DUP2 SWAP1 POP SWAP3 SWAP2 POP POP JUMP JUMPDEST PUSH0 DUP2 SLOAD PUSH2 0x2925 DUP2 PUSH2 0x243D JUMP JUMPDEST PUSH2 0x292F DUP2 DUP7 PUSH2 0x290F JUMP JUMPDEST SWAP5 POP PUSH1 0x1 DUP3 AND PUSH0 DUP2 EQ PUSH2 0x2949 JUMPI PUSH1 0x1 DUP2 EQ PUSH2 0x295E JUMPI PUSH2 0x2990 JUMP JUMPDEST PUSH1 0xFF NOT DUP4 AND DUP7 MSTORE DUP2 ISZERO ISZERO DUP3 MUL DUP7 ADD SWAP4 POP PUSH2 0x2990 JUMP JUMPDEST PUSH2 0x2967 DUP6 PUSH2 0x260D JUMP JUMPDEST PUSH0 JUMPDEST DUP4 DUP2 LT ISZERO PUSH2 0x2988 JUMPI DUP2 SLOAD DUP2 DUP10 ADD MSTORE PUSH1 0x1 DUP3 ADD SWAP2 POP PUSH1 0x20 DUP2 ADD SWAP1 POP PUSH2 0x2969 JUMP JUMPDEST DUP4 DUP9 ADD SWAP6 POP POP POP JUMPDEST POP POP POP SWAP3 SWAP2 POP POP JUMP JUMPDEST PUSH0 PUSH2 0x29A4 DUP3 DUP5 PUSH2 0x2919 JUMP JUMPDEST SWAP2 POP DUP2 SWAP1 POP SWAP3 SWAP2 POP POP JUMP JUMPDEST PUSH32 0x7478206661696C65640000000000000000000000000000000000000000000000 PUSH0 DUP3 ADD MSTORE POP JUMP JUMPDEST PUSH0 PUSH2 0x29E3 PUSH1 0x9 DUP4 PUSH2 0x1FAD JUMP JUMPDEST SWAP2 POP PUSH2 0x29EE DUP3 PUSH2 0x29AF JUMP JUMPDEST PUSH1 0x20 DUP3 ADD SWAP1 POP SWAP2 SWAP1 POP JUMP JUMPDEST PUSH0 PUSH1 0x20 DUP3 ADD SWAP1 POP DUP2 DUP2 SUB PUSH0 DUP4 ADD MSTORE PUSH2 0x2A10 DUP2 PUSH2 0x29D7 JUMP JUMPDEST SWAP1 POP SWAP2 SWAP1 POP JUMP JUMPDEST PUSH32 0x4E6F2068617320636F6E7365677569646F2070726F6669740000000000000000 PUSH0 DUP3 ADD MSTORE POP JUMP JUMPDEST PUSH0 PUSH2 0x2A4B PUSH1 0x18 DUP4 PUSH2 0x1FAD JUMP JUMPDEST SWAP2 POP PUSH2 0x2A56 DUP3 PUSH2 0x2A17 JUMP JUMPDEST PUSH1 0x20 DUP3 ADD SWAP1 POP SWAP2 SWAP1 POP JUMP JUMPDEST PUSH0 PUSH1 0x20 DUP3 ADD SWAP1 POP DUP2 DUP2 SUB PUSH0 DUP4 ADD MSTORE PUSH2 0x2A78 DUP2 PUSH2 0x2A3F JUMP JUMPDEST SWAP1 POP SWAP2 SWAP1 POP JUMP INVALID LOG2 PUSH5 0x6970667358 0x22 SLT KECCAK256 0xC9 0xEE 0x5E SWAP13 0xC6 0x2D 0xB9 0x4A SWAP2 DUP1 NOT JUMP SHL XOR PUSH16 0xED39AA8820BFFF86464FB376466E4E49 0xED PUSH5 0x736F6C6343 STOP ADDMOD OR STOP CALLER "
				},
				"gasEstimates": {
					"creation": {
						"codeDepositCost": "2186600",
						"executionCost": "infinite",
						"totalCost": "infinite"
					},
					"external": {
						"MAX_OWNERS()": "371",
						"addOwner(address)": "79079",
						"confirmTransaction(uint256)": "infinite",
						"cost()": "2493",
						"exchangeAmount()": "2513",
						"exchangeArgentina(uint256)": "infinite",
						"exchangeFrance(uint256)": "infinite",
						"exchangeLondon(uint256)": "infinite",
						"exchangePoland(uint256)": "infinite",
						"executeTransaction(uint256)": "infinite",
						"getFlag()": "infinite",
						"getOwners()": "infinite",
						"getTransaction(uint256)": "infinite",
						"getTransactionCount()": "2485",
						"isConfirmed(uint256,address)": "3094",
						"isOwner(address)": "2900",
						"numConfirmationsRequired()": "2469",
						"owners(uint256)": "4967",
						"removeOwner(address)": "infinite",
						"revokeConfirmation(uint256)": "infinite",
						"submitTransaction(address,uint256,bytes)": "infinite",
						"transactions(uint256)": "infinite"
					}
				},
				"methodIdentifiers": {
					"MAX_OWNERS()": "0b8bb146",
					"addOwner(address)": "7065cb48",
					"confirmTransaction(uint256)": "c01a8c84",
					"cost()": "13faede6",
					"exchangeAmount()": "f247f02d",
					"exchangeArgentina(uint256)": "82539a0d",
					"exchangeFrance(uint256)": "f6291e43",
					"exchangeLondon(uint256)": "610539b4",
					"exchangePoland(uint256)": "15d57992",
					"executeTransaction(uint256)": "ee22610b",
					"getFlag()": "f9633930",
					"getOwners()": "a0e67e2b",
					"getTransaction(uint256)": "33ea3dc8",
					"getTransactionCount()": "2e7700f0",
					"isConfirmed(uint256,address)": "80f59a65",
					"isOwner(address)": "2f54bf6e",
					"numConfirmationsRequired()": "d0549b85",
					"owners(uint256)": "025e7c27",
					"removeOwner(address)": "173825d9",
					"revokeConfirmation(uint256)": "20ea8d86",
					"submitTransaction(address,uint256,bytes)": "c6427474",
					"transactions(uint256)": "9ace38c2"
				}
			},
			"storageLayout": {
				"storage": [
					{
						"astId": 50,
						"contract": "tests/decompilert.sol:MultiSigWallet",
						"label": "owners",
						"offset": 0,
						"slot": "0",
						"type": "t_array(t_address)dyn_storage"
					},
					{
						"astId": 54,
						"contract": "tests/decompilert.sol:MultiSigWallet",
						"label": "isOwner",
						"offset": 0,
						"slot": "1",
						"type": "t_mapping(t_address,t_bool)"
					},
					{
						"astId": 60,
						"contract": "tests/decompilert.sol:MultiSigWallet",
						"label": "numConfirmationsRequired",
						"offset": 0,
						"slot": "2",
						"type": "t_uint256"
					},
					{
						"astId": 63,
						"contract": "tests/decompilert.sol:MultiSigWallet",
						"label": "commission",
						"offset": 0,
						"slot": "3",
						"type": "t_uint256"
					},
					{
						"astId": 65,
						"contract": "tests/decompilert.sol:MultiSigWallet",
						"label": "exchangeAmount",
						"offset": 0,
						"slot": "4",
						"type": "t_uint256"
					},
					{
						"astId": 67,
						"contract": "tests/decompilert.sol:MultiSigWallet",
						"label": "cost",
						"offset": 0,
						"slot": "5",
						"type": "t_uint256"
					},
					{
						"astId": 69,
						"contract": "tests/decompilert.sol:MultiSigWallet",
						"label": "flag",
						"offset": 0,
						"slot": "6",
						"type": "t_string_storage"
					},
					{
						"astId": 86,
						"contract": "tests/decompilert.sol:MultiSigWallet",
						"label": "isConfirmed",
						"offset": 0,
						"slot": "7",
						"type": "t_mapping(t_uint256,t_mapping(t_address,t_bool))"
					},
					{
						"astId": 90,
						"contract": "tests/decompilert.sol:MultiSigWallet",
						"label": "transactions",
						"offset": 0,
						"slot": "8",
						"type": "t_array(t_struct(Transaction)80_storage)dyn_storage"
					}
				],
				"types": {
					"t_address": {
						"encoding": "inplace",
						"label": "address",
						"numberOfBytes": "20"
					},
					"t_array(t_address)dyn_storage": {
						"base": "t_address",
						"encoding": "dynamic_array",
						"label": "address[]",
						"numberOfBytes": "32"
					},
					"t_array(t_struct(Transaction)80_storage)dyn_storage": {
						"base": "t_struct(Transaction)80_storage",
						"encoding": "dynamic_array",
						"label": "struct MultiSigWallet.Transaction[]",
						"numberOfBytes": "32"
					},
					"t_bool": {
						"encoding": "inplace",
						"label": "bool",
						"numberOfBytes": "1"
					},
					"t_bytes_storage": {
						"encoding": "bytes",
						"label": "bytes",
						"numberOfBytes": "32"
					},
					"t_mapping(t_address,t_bool)": {
						"encoding": "mapping",
						"key": "t_address",
						"label": "mapping(address => bool)",
						"numberOfBytes": "32",
						"value": "t_bool"
					},
					"t_mapping(t_uint256,t_mapping(t_address,t_bool))": {
						"encoding": "mapping",
						"key": "t_uint256",
						"label": "mapping(uint256 => mapping(address => bool))",
						"numberOfBytes": "32",
						"value": "t_mapping(t_address,t_bool)"
					},
					"t_string_storage": {
						"encoding": "bytes",
						"label": "string",
						"numberOfBytes": "32"
					},
					"t_struct(Transaction)80_storage": {
						"encoding": "inplace",
						"label": "struct MultiSigWallet.Transaction",
						"members": [
							{
								"astId": 71,
								"contract": "tests/decompilert.sol:MultiSigWallet",
								"label": "to",
								"offset": 0,
								"slot": "0",
								"type": "t_address"
							},
							{
								"astId": 73,
								"contract": "tests/decompilert.sol:MultiSigWallet",
								"label": "value",
								"offset": 0,
								"slot": "1",
								"type": "t_uint256"
							},
							{
								"astId": 75,
								"contract": "tests/decompilert.sol:MultiSigWallet",
								"label": "data",
								"offset": 0,
								"slot": "2",
								"type": "t_bytes_storage"
							},
							{
								"astId": 77,
								"contract": "tests/decompilert.sol:MultiSigWallet",
								"label": "executed",
								"offset": 0,
								"slot": "3",
								"type": "t_bool"
							},
							{
								"astId": 79,
								"contract": "tests/decompilert.sol:MultiSigWallet",
								"label": "numConfirmations",
								"offset": 0,
								"slot": "4",
								"type": "t_uint256"
							}
						],
						"numberOfBytes": "160"
					},
					"t_uint256": {
						"encoding": "inplace",
						"label": "uint256",
						"numberOfBytes": "32"
					}
				}
			},
			"userdoc": {
				"kind": "user",
				"methods": {},
				"version": 1
			}
		}
	}
}