{
	"newLevels/paresNones.sol": {
		"GuessTheRandomNumber": {
			"abi": [
				{
					"inputs": [
						{
							"internalType": "string",
							"name": "_flag",
							"type": "string"
						}
					],
					"stateMutability": "payable",
					"type": "constructor"
				},
				{
					"inputs": [],
					"name": "consecutiveWins",
					"outputs": [
						{
							"internalType": "uint256",
							"name": "",
							"type": "uint256"
						}
					],
					"stateMutability": "view",
					"type": "function"
				},
				{
					"inputs": [],
					"name": "getFlag",
					"outputs": [
						{
							"internalType": "string",
							"name": "",
							"type": "string"
						}
					],
					"stateMutability": "view",
					"type": "function"
				},
				{
					"inputs": [
						{
							"internalType": "uint256",
							"name": "_guess",
							"type": "uint256"
						}
					],
					"name": "guess",
					"outputs": [],
					"stateMutability": "nonpayable",
					"type": "function"
				},
				{
					"inputs": [],
					"name": "lastWinner",
					"outputs": [
						{
							"internalType": "address",
							"name": "",
							"type": "address"
						}
					],
					"stateMutability": "view",
					"type": "function"
				}
			],
			"devdoc": {
				"kind": "dev",
				"methods": {},
				"version": 1
			},
			"evm": {
				"assembly": "    /* \"newLevels/paresNones.sol\":59:1196  contract GuessTheRandomNumber {\r... */\n  mstore(0x40, 0x80)\n    /* \"newLevels/paresNones.sol\":193:329  constructor(string memory _flag) payable {\r... */\n  mload(0x40)\n  sub(codesize, bytecodeSize)\n  dup1\n  bytecodeSize\n  dup4\n  codecopy\n  dup2\n  dup2\n  add\n  0x40\n  mstore\n  0x20\n  dup2\n  lt\n  iszero\n  tag_1\n  jumpi\n  0x00\n  dup1\n  revert\ntag_1:\n  dup2\n  add\n  swap1\n  dup1\n  dup1\n  mload\n  mload(0x40)\n  swap4\n  swap3\n  swap2\n  swap1\n  dup5\n  0x0100000000\n  dup3\n  gt\n  iszero\n  tag_2\n  jumpi\n  0x00\n  dup1\n  revert\ntag_2:\n  dup4\n  dup3\n  add\n  swap2\n  pop\n  0x20\n  dup3\n  add\n  dup6\n  dup2\n  gt\n  iszero\n  tag_3\n  jumpi\n  0x00\n  dup1\n  revert\ntag_3:\n  dup3\n  mload\n  dup7\n  0x01\n  dup3\n  mul\n  dup4\n  add\n  gt\n  0x0100000000\n  dup3\n  gt\n  or\n  iszero\n  tag_4\n  jumpi\n  0x00\n  dup1\n  revert\ntag_4:\n  dup1\n  dup4\n  mstore\n  0x20\n  dup4\n  add\n  swap3\n  pop\n  pop\n  pop\n  swap1\n  dup1\n  mload\n  swap1\n  0x20\n  add\n  swap1\n  dup1\n  dup4\n  dup4\n  0x00\ntag_5:\n  dup4\n  dup2\n  lt\n  iszero\n  tag_7\n  jumpi\n  dup1\n  dup3\n  add\n  mload\n  dup2\n  dup5\n  add\n  mstore\n  0x20\n  dup2\n  add\n  swap1\n  pop\n  jump(tag_5)\ntag_7:\n  pop\n  pop\n  pop\n  pop\n  swap1\n  pop\n  swap1\n  dup2\n  add\n  swap1\n  0x1f\n  and\n  dup1\n  iszero\n  tag_8\n  jumpi\n  dup1\n  dup3\n  sub\n  dup1\n  mload\n  0x01\n  dup4\n  0x20\n  sub\n  0x0100\n  exp\n  sub\n  not\n  and\n  dup2\n  mstore\n  0x20\n  add\n  swap2\n  pop\ntag_8:\n  pop\n  0x40\n  mstore\n  pop\n  pop\n  pop\n    /* \"newLevels/paresNones.sol\":252:257  _flag */\n  dup1\n    /* \"newLevels/paresNones.sol\":245:249  flag */\n  0x01\n    /* \"newLevels/paresNones.sol\":245:257  flag = _flag */\n  swap1\n  dup1\n  mload\n  swap1\n  0x20\n  add\n  swap1\n  tag_11\n  swap3\n  swap2\n  swap1\n  tag_12\n  jump\t// in\ntag_11:\n  pop\n    /* \"newLevels/paresNones.sol\":286:287  0 */\n  0x00\n    /* \"newLevels/paresNones.sol\":268:283  consecutiveWins */\n  dup1\n    /* \"newLevels/paresNones.sol\":268:287  consecutiveWins = 0 */\n  dup2\n  swap1\n  sstore\n  pop\n    /* \"newLevels/paresNones.sol\":319:320  0 */\n  0x00\n    /* \"newLevels/paresNones.sol\":298:308  lastWinner */\n  0x02\n  0x00\n    /* \"newLevels/paresNones.sol\":298:321  lastWinner = address(0) */\n  0x0100\n  exp\n  dup2\n  sload\n  dup2\n  0xffffffffffffffffffffffffffffffffffffffff\n  mul\n  not\n  and\n  swap1\n  dup4\n  0xffffffffffffffffffffffffffffffffffffffff\n  and\n  mul\n  or\n  swap1\n  sstore\n  pop\n    /* \"newLevels/paresNones.sol\":193:329  constructor(string memory _flag) payable {\r... */\n  pop\n    /* \"newLevels/paresNones.sol\":59:1196  contract GuessTheRandomNumber {\r... */\n  jump(tag_13)\ntag_12:\n  dup3\n  dup1\n  sload\n  0x01\n  dup2\n  0x01\n  and\n  iszero\n  0x0100\n  mul\n  sub\n  and\n  0x02\n  swap1\n  div\n  swap1\n  0x00\n  mstore\n  keccak256(0x00, 0x20)\n  swap1\n  0x1f\n  add\n  0x20\n  swap1\n  div\n  dup2\n  add\n  swap3\n  dup3\n  tag_15\n  jumpi\n  0x00\n  dup6\n  sstore\n  jump(tag_14)\ntag_15:\n  dup3\n  0x1f\n  lt\n  tag_16\n  jumpi\n  dup1\n  mload\n  not(0xff)\n  and\n  dup4\n  dup1\n  add\n  or\n  dup6\n  sstore\n  jump(tag_14)\ntag_16:\n  dup3\n  dup1\n  add\n  0x01\n  add\n  dup6\n  sstore\n  dup3\n  iszero\n  tag_14\n  jumpi\n  swap2\n  dup3\n  add\ntag_17:\n  dup3\n  dup2\n  gt\n  iszero\n  tag_18\n  jumpi\n  dup3\n  mload\n  dup3\n  sstore\n  swap2\n  0x20\n  add\n  swap2\n  swap1\n  0x01\n  add\n  swap1\n  jump(tag_17)\ntag_18:\ntag_14:\n  pop\n  swap1\n  pop\n  tag_19\n  swap2\n  swap1\n  tag_20\n  jump\t// in\ntag_19:\n  pop\n  swap1\n  jump\t// out\ntag_20:\ntag_21:\n  dup1\n  dup3\n  gt\n  iszero\n  tag_22\n  jumpi\n  0x00\n  dup2\n  0x00\n  swap1\n  sstore\n  pop\n  0x01\n  add\n  jump(tag_21)\ntag_22:\n  pop\n  swap1\n  jump\t// out\ntag_13:\n  dataSize(sub_0)\n  dup1\n  dataOffset(sub_0)\n  0x00\n  codecopy\n  0x00\n  return\nstop\n\nsub_0: assembly {\n        /* \"newLevels/paresNones.sol\":59:1196  contract GuessTheRandomNumber {\r... */\n      mstore(0x40, 0x80)\n      callvalue\n      dup1\n      iszero\n      tag_1\n      jumpi\n      0x00\n      dup1\n      revert\n    tag_1:\n      pop\n      jumpi(tag_2, lt(calldatasize, 0x04))\n      shr(0xe0, calldataload(0x00))\n      dup1\n      0x9189fec1\n      eq\n      tag_3\n      jumpi\n      dup1\n      0xe6f334d7\n      eq\n      tag_4\n      jumpi\n      dup1\n      0xf9633930\n      eq\n      tag_5\n      jumpi\n      dup1\n      0xfe188184\n      eq\n      tag_6\n      jumpi\n    tag_2:\n      0x00\n      dup1\n      revert\n        /* \"newLevels/paresNones.sol\":337:1006  function guess(uint256 _guess) public {\r... */\n    tag_3:\n      tag_7\n      0x04\n      dup1\n      calldatasize\n      sub\n      0x20\n      dup2\n      lt\n      iszero\n      tag_8\n      jumpi\n      0x00\n      dup1\n      revert\n    tag_8:\n      dup2\n      add\n      swap1\n      dup1\n      dup1\n      calldataload\n      swap1\n      0x20\n      add\n      swap1\n      swap3\n      swap2\n      swap1\n      pop\n      pop\n      pop\n      tag_9\n      jump\t// in\n    tag_7:\n      stop\n        /* \"newLevels/paresNones.sol\":96:126  uint256 public consecutiveWins */\n    tag_4:\n      tag_10\n      tag_11\n      jump\t// in\n    tag_10:\n      mload(0x40)\n      dup1\n      dup3\n      dup2\n      mstore\n      0x20\n      add\n      swap2\n      pop\n      pop\n      mload(0x40)\n      dup1\n      swap2\n      sub\n      swap1\n      return\n        /* \"newLevels/paresNones.sol\":1014:1193  function getFlag() public view returns (string memory) {\r... */\n    tag_5:\n      tag_12\n      tag_13\n      jump\t// in\n    tag_12:\n      mload(0x40)\n      dup1\n      dup1\n      0x20\n      add\n      dup3\n      dup2\n      sub\n      dup3\n      mstore\n      dup4\n      dup2\n      dup2\n      mload\n      dup2\n      mstore\n      0x20\n      add\n      swap2\n      pop\n      dup1\n      mload\n      swap1\n      0x20\n      add\n      swap1\n      dup1\n      dup4\n      dup4\n      0x00\n    tag_14:\n      dup4\n      dup2\n      lt\n      iszero\n      tag_16\n      jumpi\n      dup1\n      dup3\n      add\n      mload\n      dup2\n      dup5\n      add\n      mstore\n      0x20\n      dup2\n      add\n      swap1\n      pop\n      jump(tag_14)\n    tag_16:\n      pop\n      pop\n      pop\n      pop\n      swap1\n      pop\n      swap1\n      dup2\n      add\n      swap1\n      0x1f\n      and\n      dup1\n      iszero\n      tag_17\n      jumpi\n      dup1\n      dup3\n      sub\n      dup1\n      mload\n      0x01\n      dup4\n      0x20\n      sub\n      0x0100\n      exp\n      sub\n      not\n      and\n      dup2\n      mstore\n      0x20\n      add\n      swap2\n      pop\n    tag_17:\n      pop\n      swap3\n      pop\n      pop\n      pop\n      mload(0x40)\n      dup1\n      swap2\n      sub\n      swap1\n      return\n        /* \"newLevels/paresNones.sol\":159:184  address public lastWinner */\n    tag_6:\n      tag_18\n      tag_19\n      jump\t// in\n    tag_18:\n      mload(0x40)\n      dup1\n      dup3\n      0xffffffffffffffffffffffffffffffffffffffff\n      and\n      dup2\n      mstore\n      0x20\n      add\n      swap2\n      pop\n      pop\n      mload(0x40)\n      dup1\n      swap2\n      sub\n      swap1\n      return\n        /* \"newLevels/paresNones.sol\":337:1006  function guess(uint256 _guess) public {\r... */\n    tag_9:\n        /* \"newLevels/paresNones.sol\":386:400  uint256 answer */\n      0x00\n        /* \"newLevels/paresNones.sol\":477:478  1 */\n      0x01\n        /* \"newLevels/paresNones.sol\":462:474  block.number */\n      number\n        /* \"newLevels/paresNones.sol\":462:478  block.number - 1 */\n      sub\n        /* \"newLevels/paresNones.sol\":452:479  blockhash(block.number - 1) */\n      blockhash\n        /* \"newLevels/paresNones.sol\":481:496  block.timestamp */\n      timestamp\n        /* \"newLevels/paresNones.sol\":435:497  abi.encodePacked(blockhash(block.number - 1), block.timestamp) */\n      add(0x20, mload(0x40))\n      dup1\n      dup4\n      dup2\n      mstore\n      0x20\n      add\n      dup3\n      dup2\n      mstore\n      0x20\n      add\n      swap3\n      pop\n      pop\n      pop\n      mload(0x40)\n      0x20\n      dup2\n      dup4\n      sub\n      sub\n      dup2\n      mstore\n      swap1\n      0x40\n      mstore\n        /* \"newLevels/paresNones.sol\":425:498  keccak256(abi.encodePacked(blockhash(block.number - 1), block.timestamp)) */\n      dup1\n      mload\n      swap1\n      0x20\n      add\n      keccak256\n        /* \"newLevels/paresNones.sol\":403:509  uint256(\r... */\n      0x00\n      shr\n        /* \"newLevels/paresNones.sol\":386:509  uint256 answer = uint256(\r... */\n      swap1\n      pop\n        /* \"newLevels/paresNones.sol\":544:550  answer */\n      dup1\n        /* \"newLevels/paresNones.sol\":534:540  _guess */\n      dup3\n        /* \"newLevels/paresNones.sol\":534:550  _guess == answer */\n      eq\n        /* \"newLevels/paresNones.sol\":530:999  if (_guess == answer) {\r... */\n      iszero\n      tag_21\n      jumpi\n        /* \"newLevels/paresNones.sol\":585:595  msg.sender */\n      caller\n        /* \"newLevels/paresNones.sol\":571:595  lastWinner == msg.sender */\n      0xffffffffffffffffffffffffffffffffffffffff\n      and\n        /* \"newLevels/paresNones.sol\":571:581  lastWinner */\n      0x02\n      0x00\n      swap1\n      sload\n      swap1\n      0x0100\n      exp\n      swap1\n      div\n      0xffffffffffffffffffffffffffffffffffffffff\n      and\n        /* \"newLevels/paresNones.sol\":571:595  lastWinner == msg.sender */\n      0xffffffffffffffffffffffffffffffffffffffff\n      and\n      eq\n        /* \"newLevels/paresNones.sol\":567:751  if (lastWinner == msg.sender) {\r... */\n      iszero\n      tag_22\n      jumpi\n        /* \"newLevels/paresNones.sol\":616:631  consecutiveWins */\n      0x00\n      dup1\n        /* \"newLevels/paresNones.sol\":616:633  consecutiveWins++ */\n      dup2\n      sload\n      dup1\n      swap3\n      swap2\n      swap1\n      0x01\n      add\n      swap2\n      swap1\n      pop\n      sstore\n      pop\n        /* \"newLevels/paresNones.sol\":567:751  if (lastWinner == msg.sender) {\r... */\n      jump(tag_23)\n    tag_22:\n        /* \"newLevels/paresNones.sol\":692:693  1 */\n      0x01\n        /* \"newLevels/paresNones.sol\":674:689  consecutiveWins */\n      0x00\n        /* \"newLevels/paresNones.sol\":674:693  consecutiveWins = 1 */\n      dup2\n      swap1\n      sstore\n      pop\n        /* \"newLevels/paresNones.sol\":725:735  msg.sender */\n      caller\n        /* \"newLevels/paresNones.sol\":712:722  lastWinner */\n      0x02\n      0x00\n        /* \"newLevels/paresNones.sol\":712:735  lastWinner = msg.sender */\n      0x0100\n      exp\n      dup2\n      sload\n      dup2\n      0xffffffffffffffffffffffffffffffffffffffff\n      mul\n      not\n      and\n      swap1\n      dup4\n      0xffffffffffffffffffffffffffffffffffffffff\n      and\n      mul\n      or\n      swap1\n      sstore\n      pop\n        /* \"newLevels/paresNones.sol\":567:751  if (lastWinner == msg.sender) {\r... */\n    tag_23:\n        /* \"newLevels/paresNones.sol\":790:792  10 */\n      0x0a\n        /* \"newLevels/paresNones.sol\":771:786  consecutiveWins */\n      sload(0x00)\n        /* \"newLevels/paresNones.sol\":771:792  consecutiveWins >= 10 */\n      lt\n        /* \"newLevels/paresNones.sol\":767:936  if (consecutiveWins >= 10) {\r... */\n      tag_24\n      jumpi\n        /* \"newLevels/paresNones.sol\":814:823  bool sent */\n      0x00\n        /* \"newLevels/paresNones.sol\":829:839  msg.sender */\n      caller\n        /* \"newLevels/paresNones.sol\":829:844  msg.sender.call */\n      0xffffffffffffffffffffffffffffffffffffffff\n      and\n        /* \"newLevels/paresNones.sol\":852:859  1 ether */\n      0x0de0b6b3a7640000\n        /* \"newLevels/paresNones.sol\":829:864  msg.sender.call{value: 1 ether}(\"\") */\n      mload(0x40)\n      dup1\n      0x00\n      add\n      swap1\n      pop\n      0x00\n      mload(0x40)\n      dup1\n      dup4\n      sub\n      dup2\n      dup6\n      dup8\n      gas\n      call\n      swap3\n      pop\n      pop\n      pop\n      returndatasize\n      dup1\n      0x00\n      dup2\n      eq\n      tag_27\n      jumpi\n      mload(0x40)\n      swap2\n      pop\n      and(add(returndatasize, 0x3f), not(0x1f))\n      dup3\n      add\n      0x40\n      mstore\n      returndatasize\n      dup3\n      mstore\n      returndatasize\n      0x00\n      0x20\n      dup5\n      add\n      returndatacopy\n      jump(tag_26)\n    tag_27:\n      0x60\n      swap2\n      pop\n    tag_26:\n      pop\n        /* \"newLevels/paresNones.sol\":813:864  (bool sent, ) = msg.sender.call{value: 1 ether}(\"\") */\n      pop\n      swap1\n      pop\n        /* \"newLevels/paresNones.sol\":891:895  sent */\n      dup1\n        /* \"newLevels/paresNones.sol\":883:920  require(sent, \"Failed to send Ether\") */\n      tag_28\n      jumpi\n      mload(0x40)\n      0x08c379a000000000000000000000000000000000000000000000000000000000\n      dup2\n      mstore\n      0x04\n      add\n      dup1\n      dup1\n      0x20\n      add\n      dup3\n      dup2\n      sub\n      dup3\n      mstore\n      0x14\n      dup2\n      mstore\n      0x20\n      add\n      dup1\n      0x4661696c656420746f2073656e64204574686572000000000000000000000000\n      dup2\n      mstore\n      pop\n      0x20\n      add\n      swap2\n      pop\n      pop\n      mload(0x40)\n      dup1\n      swap2\n      sub\n      swap1\n      revert\n    tag_28:\n        /* \"newLevels/paresNones.sol\":767:936  if (consecutiveWins >= 10) {\r... */\n      pop\n    tag_24:\n        /* \"newLevels/paresNones.sol\":530:999  if (_guess == answer) {\r... */\n      jump(tag_29)\n    tag_21:\n        /* \"newLevels/paresNones.sol\":986:987  0 */\n      0x00\n        /* \"newLevels/paresNones.sol\":968:983  consecutiveWins */\n      dup1\n        /* \"newLevels/paresNones.sol\":968:987  consecutiveWins = 0 */\n      dup2\n      swap1\n      sstore\n      pop\n        /* \"newLevels/paresNones.sol\":530:999  if (_guess == answer) {\r... */\n    tag_29:\n        /* \"newLevels/paresNones.sol\":337:1006  function guess(uint256 _guess) public {\r... */\n      pop\n      pop\n      jump\t// out\n        /* \"newLevels/paresNones.sol\":96:126  uint256 public consecutiveWins */\n    tag_11:\n      sload(0x00)\n      dup2\n      jump\t// out\n        /* \"newLevels/paresNones.sol\":1014:1193  function getFlag() public view returns (string memory) {\r... */\n    tag_13:\n        /* \"newLevels/paresNones.sol\":1054:1067  string memory */\n      0x60\n        /* \"newLevels/paresNones.sol\":1107:1109  10 */\n      0x0a\n        /* \"newLevels/paresNones.sol\":1088:1103  consecutiveWins */\n      sload(0x00)\n        /* \"newLevels/paresNones.sol\":1088:1109  consecutiveWins >= 10 */\n      lt\n      iszero\n        /* \"newLevels/paresNones.sol\":1088:1137  consecutiveWins >= 10 && lastWinner == msg.sender */\n      dup1\n      iszero\n      tag_31\n      jumpi\n      pop\n        /* \"newLevels/paresNones.sol\":1127:1137  msg.sender */\n      caller\n        /* \"newLevels/paresNones.sol\":1113:1137  lastWinner == msg.sender */\n      0xffffffffffffffffffffffffffffffffffffffff\n      and\n        /* \"newLevels/paresNones.sol\":1113:1123  lastWinner */\n      0x02\n      0x00\n      swap1\n      sload\n      swap1\n      0x0100\n      exp\n      swap1\n      div\n      0xffffffffffffffffffffffffffffffffffffffff\n      and\n        /* \"newLevels/paresNones.sol\":1113:1137  lastWinner == msg.sender */\n      0xffffffffffffffffffffffffffffffffffffffff\n      and\n      eq\n        /* \"newLevels/paresNones.sol\":1088:1137  consecutiveWins >= 10 && lastWinner == msg.sender */\n    tag_31:\n        /* \"newLevels/paresNones.sol\":1080:1163  require(consecutiveWins >= 10 && lastWinner == msg.sender, \"Not eligible for flag\") */\n      tag_32\n      jumpi\n      mload(0x40)\n      0x08c379a000000000000000000000000000000000000000000000000000000000\n      dup2\n      mstore\n      0x04\n      add\n      dup1\n      dup1\n      0x20\n      add\n      dup3\n      dup2\n      sub\n      dup3\n      mstore\n      0x15\n      dup2\n      mstore\n      0x20\n      add\n      dup1\n      0x4e6f7420656c696769626c6520666f7220666c61670000000000000000000000\n      dup2\n      mstore\n      pop\n      0x20\n      add\n      swap2\n      pop\n      pop\n      mload(0x40)\n      dup1\n      swap2\n      sub\n      swap1\n      revert\n    tag_32:\n        /* \"newLevels/paresNones.sol\":1181:1185  flag */\n      0x01\n        /* \"newLevels/paresNones.sol\":1174:1185  return flag */\n      dup1\n      sload\n      0x01\n      dup2\n      0x01\n      and\n      iszero\n      0x0100\n      mul\n      sub\n      and\n      0x02\n      swap1\n      div\n      dup1\n      0x1f\n      add\n      0x20\n      dup1\n      swap2\n      div\n      mul\n      0x20\n      add\n      mload(0x40)\n      swap1\n      dup2\n      add\n      0x40\n      mstore\n      dup1\n      swap3\n      swap2\n      swap1\n      dup2\n      dup2\n      mstore\n      0x20\n      add\n      dup3\n      dup1\n      sload\n      0x01\n      dup2\n      0x01\n      and\n      iszero\n      0x0100\n      mul\n      sub\n      and\n      0x02\n      swap1\n      div\n      dup1\n      iszero\n      tag_33\n      jumpi\n      dup1\n      0x1f\n      lt\n      tag_34\n      jumpi\n      0x0100\n      dup1\n      dup4\n      sload\n      div\n      mul\n      dup4\n      mstore\n      swap2\n      0x20\n      add\n      swap2\n      jump(tag_33)\n    tag_34:\n      dup3\n      add\n      swap2\n      swap1\n      0x00\n      mstore\n      keccak256(0x00, 0x20)\n      swap1\n    tag_35:\n      dup2\n      sload\n      dup2\n      mstore\n      swap1\n      0x01\n      add\n      swap1\n      0x20\n      add\n      dup1\n      dup4\n      gt\n      tag_35\n      jumpi\n      dup3\n      swap1\n      sub\n      0x1f\n      and\n      dup3\n      add\n      swap2\n    tag_33:\n      pop\n      pop\n      pop\n      pop\n      pop\n      swap1\n      pop\n        /* \"newLevels/paresNones.sol\":1014:1193  function getFlag() public view returns (string memory) {\r... */\n      swap1\n      jump\t// out\n        /* \"newLevels/paresNones.sol\":159:184  address public lastWinner */\n    tag_19:\n      0x02\n      0x00\n      swap1\n      sload\n      swap1\n      0x0100\n      exp\n      swap1\n      div\n      0xffffffffffffffffffffffffffffffffffffffff\n      and\n      dup2\n      jump\t// out\n\n    auxdata: 0xa264697066735822122012444de94934fe0133d4f136cae3d33a931a0b0b8281a95f693ebc4c8cd09d6e64736f6c63430007060033\n}\n",
				"bytecode": {
					"linkReferences": {},
					"object": "60806040526040516107243803806107248339818101604052602081101561002657600080fd5b810190808051604051939291908464010000000082111561004657600080fd5b8382019150602082018581111561005c57600080fd5b825186600182028301116401000000008211171561007957600080fd5b8083526020830192505050908051906020019080838360005b838110156100ad578082015181840152602081019050610092565b50505050905090810190601f1680156100da5780820380516001836020036101000a031916815260200191505b5060405250505080600190805190602001906100f7929190610147565b50600080819055506000600260006101000a81548173ffffffffffffffffffffffffffffffffffffffff021916908373ffffffffffffffffffffffffffffffffffffffff160217905550506101f2565b828054600181600116156101000203166002900490600052602060002090601f01602090048101928261017d57600085556101c4565b82601f1061019657805160ff19168380011785556101c4565b828001600101855582156101c4579182015b828111156101c35782518255916020019190600101906101a8565b5b5090506101d191906101d5565b5090565b5b808211156101ee5760008160009055506001016101d6565b5090565b610523806102016000396000f3fe608060405234801561001057600080fd5b506004361061004c5760003560e01c80639189fec114610051578063e6f334d71461007f578063f96339301461009d578063fe18818414610120575b600080fd5b61007d6004803603602081101561006757600080fd5b8101908080359060200190929190505050610154565b005b61008761034d565b6040518082815260200191505060405180910390f35b6100a5610353565b6040518080602001828103825283818151815260200191508051906020019080838360005b838110156100e55780820151818401526020810190506100ca565b50505050905090810190601f1680156101125780820380516001836020036101000a031916815260200191505b509250505060405180910390f35b6101286104c7565b604051808273ffffffffffffffffffffffffffffffffffffffff16815260200191505060405180910390f35b600060014303404260405160200180838152602001828152602001925050506040516020818303038152906040528051906020012060001c905080821415610341573373ffffffffffffffffffffffffffffffffffffffff16600260009054906101000a900473ffffffffffffffffffffffffffffffffffffffff1673ffffffffffffffffffffffffffffffffffffffff16141561020257600080815480929190600101919050555061024c565b600160008190555033600260006101000a81548173ffffffffffffffffffffffffffffffffffffffff021916908373ffffffffffffffffffffffffffffffffffffffff1602179055505b600a6000541061033c5760003373ffffffffffffffffffffffffffffffffffffffff16670de0b6b3a764000060405180600001905060006040518083038185875af1925050503d80600081146102be576040519150601f19603f3d011682016040523d82523d6000602084013e6102c3565b606091505b505090508061033a576040517f08c379a00000000000000000000000000000000000000000000000000000000081526004018080602001828103825260148152602001807f4661696c656420746f2073656e6420457468657200000000000000000000000081525060200191505060405180910390fd5b505b610349565b600080819055505b5050565b60005481565b6060600a600054101580156103b557503373ffffffffffffffffffffffffffffffffffffffff16600260009054906101000a900473ffffffffffffffffffffffffffffffffffffffff1673ffffffffffffffffffffffffffffffffffffffff16145b610427576040517f08c379a00000000000000000000000000000000000000000000000000000000081526004018080602001828103825260158152602001807f4e6f7420656c696769626c6520666f7220666c6167000000000000000000000081525060200191505060405180910390fd5b60018054600181600116156101000203166002900480601f0160208091040260200160405190810160405280929190818152602001828054600181600116156101000203166002900480156104bd5780601f10610492576101008083540402835291602001916104bd565b820191906000526020600020905b8154815290600101906020018083116104a057829003601f168201915b5050505050905090565b600260009054906101000a900473ffffffffffffffffffffffffffffffffffffffff168156fea264697066735822122012444de94934fe0133d4f136cae3d33a931a0b0b8281a95f693ebc4c8cd09d6e64736f6c63430007060033",
					"opcodes": "PUSH1 0x80 PUSH1 0x40 MSTORE PUSH1 0x40 MLOAD PUSH2 0x724 CODESIZE SUB DUP1 PUSH2 0x724 DUP4 CODECOPY DUP2 DUP2 ADD PUSH1 0x40 MSTORE PUSH1 0x20 DUP2 LT ISZERO PUSH2 0x26 JUMPI PUSH1 0x0 DUP1 REVERT JUMPDEST DUP2 ADD SWAP1 DUP1 DUP1 MLOAD PUSH1 0x40 MLOAD SWAP4 SWAP3 SWAP2 SWAP1 DUP5 PUSH5 0x100000000 DUP3 GT ISZERO PUSH2 0x46 JUMPI PUSH1 0x0 DUP1 REVERT JUMPDEST DUP4 DUP3 ADD SWAP2 POP PUSH1 0x20 DUP3 ADD DUP6 DUP2 GT ISZERO PUSH2 0x5C JUMPI PUSH1 0x0 DUP1 REVERT JUMPDEST DUP3 MLOAD DUP7 PUSH1 0x1 DUP3 MUL DUP4 ADD GT PUSH5 0x100000000 DUP3 GT OR ISZERO PUSH2 0x79 JUMPI PUSH1 0x0 DUP1 REVERT JUMPDEST DUP1 DUP4 MSTORE PUSH1 0x20 DUP4 ADD SWAP3 POP POP POP SWAP1 DUP1 MLOAD SWAP1 PUSH1 0x20 ADD SWAP1 DUP1 DUP4 DUP4 PUSH1 0x0 JUMPDEST DUP4 DUP2 LT ISZERO PUSH2 0xAD JUMPI DUP1 DUP3 ADD MLOAD DUP2 DUP5 ADD MSTORE PUSH1 0x20 DUP2 ADD SWAP1 POP PUSH2 0x92 JUMP JUMPDEST POP POP POP POP SWAP1 POP SWAP1 DUP2 ADD SWAP1 PUSH1 0x1F AND DUP1 ISZERO PUSH2 0xDA JUMPI DUP1 DUP3 SUB DUP1 MLOAD PUSH1 0x1 DUP4 PUSH1 0x20 SUB PUSH2 0x100 EXP SUB NOT AND DUP2 MSTORE PUSH1 0x20 ADD SWAP2 POP JUMPDEST POP PUSH1 0x40 MSTORE POP POP POP DUP1 PUSH1 0x1 SWAP1 DUP1 MLOAD SWAP1 PUSH1 0x20 ADD SWAP1 PUSH2 0xF7 SWAP3 SWAP2 SWAP1 PUSH2 0x147 JUMP JUMPDEST POP PUSH1 0x0 DUP1 DUP2 SWAP1 SSTORE POP PUSH1 0x0 PUSH1 0x2 PUSH1 0x0 PUSH2 0x100 EXP DUP2 SLOAD DUP2 PUSH20 0xFFFFFFFFFFFFFFFFFFFFFFFFFFFFFFFFFFFFFFFF MUL NOT AND SWAP1 DUP4 PUSH20 0xFFFFFFFFFFFFFFFFFFFFFFFFFFFFFFFFFFFFFFFF AND MUL OR SWAP1 SSTORE POP POP PUSH2 0x1F2 JUMP JUMPDEST DUP3 DUP1 SLOAD PUSH1 0x1 DUP2 PUSH1 0x1 AND ISZERO PUSH2 0x100 MUL SUB AND PUSH1 0x2 SWAP1 DIV SWAP1 PUSH1 0x0 MSTORE PUSH1 0x20 PUSH1 0x0 KECCAK256 SWAP1 PUSH1 0x1F ADD PUSH1 0x20 SWAP1 DIV DUP2 ADD SWAP3 DUP3 PUSH2 0x17D JUMPI PUSH1 0x0 DUP6 SSTORE PUSH2 0x1C4 JUMP JUMPDEST DUP3 PUSH1 0x1F LT PUSH2 0x196 JUMPI DUP1 MLOAD PUSH1 0xFF NOT AND DUP4 DUP1 ADD OR DUP6 SSTORE PUSH2 0x1C4 JUMP JUMPDEST DUP3 DUP1 ADD PUSH1 0x1 ADD DUP6 SSTORE DUP3 ISZERO PUSH2 0x1C4 JUMPI SWAP2 DUP3 ADD JUMPDEST DUP3 DUP2 GT ISZERO PUSH2 0x1C3 JUMPI DUP3 MLOAD DUP3 SSTORE SWAP2 PUSH1 0x20 ADD SWAP2 SWAP1 PUSH1 0x1 ADD SWAP1 PUSH2 0x1A8 JUMP JUMPDEST JUMPDEST POP SWAP1 POP PUSH2 0x1D1 SWAP2 SWAP1 PUSH2 0x1D5 JUMP JUMPDEST POP SWAP1 JUMP JUMPDEST JUMPDEST DUP1 DUP3 GT ISZERO PUSH2 0x1EE JUMPI PUSH1 0x0 DUP2 PUSH1 0x0 SWAP1 SSTORE POP PUSH1 0x1 ADD PUSH2 0x1D6 JUMP JUMPDEST POP SWAP1 JUMP JUMPDEST PUSH2 0x523 DUP1 PUSH2 0x201 PUSH1 0x0 CODECOPY PUSH1 0x0 RETURN INVALID PUSH1 0x80 PUSH1 0x40 MSTORE CALLVALUE DUP1 ISZERO PUSH2 0x10 JUMPI PUSH1 0x0 DUP1 REVERT JUMPDEST POP PUSH1 0x4 CALLDATASIZE LT PUSH2 0x4C JUMPI PUSH1 0x0 CALLDATALOAD PUSH1 0xE0 SHR DUP1 PUSH4 0x9189FEC1 EQ PUSH2 0x51 JUMPI DUP1 PUSH4 0xE6F334D7 EQ PUSH2 0x7F JUMPI DUP1 PUSH4 0xF9633930 EQ PUSH2 0x9D JUMPI DUP1 PUSH4 0xFE188184 EQ PUSH2 0x120 JUMPI JUMPDEST PUSH1 0x0 DUP1 REVERT JUMPDEST PUSH2 0x7D PUSH1 0x4 DUP1 CALLDATASIZE SUB PUSH1 0x20 DUP2 LT ISZERO PUSH2 0x67 JUMPI PUSH1 0x0 DUP1 REVERT JUMPDEST DUP2 ADD SWAP1 DUP1 DUP1 CALLDATALOAD SWAP1 PUSH1 0x20 ADD SWAP1 SWAP3 SWAP2 SWAP1 POP POP POP PUSH2 0x154 JUMP JUMPDEST STOP JUMPDEST PUSH2 0x87 PUSH2 0x34D JUMP JUMPDEST PUSH1 0x40 MLOAD DUP1 DUP3 DUP2 MSTORE PUSH1 0x20 ADD SWAP2 POP POP PUSH1 0x40 MLOAD DUP1 SWAP2 SUB SWAP1 RETURN JUMPDEST PUSH2 0xA5 PUSH2 0x353 JUMP JUMPDEST PUSH1 0x40 MLOAD DUP1 DUP1 PUSH1 0x20 ADD DUP3 DUP2 SUB DUP3 MSTORE DUP4 DUP2 DUP2 MLOAD DUP2 MSTORE PUSH1 0x20 ADD SWAP2 POP DUP1 MLOAD SWAP1 PUSH1 0x20 ADD SWAP1 DUP1 DUP4 DUP4 PUSH1 0x0 JUMPDEST DUP4 DUP2 LT ISZERO PUSH2 0xE5 JUMPI DUP1 DUP3 ADD MLOAD DUP2 DUP5 ADD MSTORE PUSH1 0x20 DUP2 ADD SWAP1 POP PUSH2 0xCA JUMP JUMPDEST POP POP POP POP SWAP1 POP SWAP1 DUP2 ADD SWAP1 PUSH1 0x1F AND DUP1 ISZERO PUSH2 0x112 JUMPI DUP1 DUP3 SUB DUP1 MLOAD PUSH1 0x1 DUP4 PUSH1 0x20 SUB PUSH2 0x100 EXP SUB NOT AND DUP2 MSTORE PUSH1 0x20 ADD SWAP2 POP JUMPDEST POP SWAP3 POP POP POP PUSH1 0x40 MLOAD DUP1 SWAP2 SUB SWAP1 RETURN JUMPDEST PUSH2 0x128 PUSH2 0x4C7 JUMP JUMPDEST PUSH1 0x40 MLOAD DUP1 DUP3 PUSH20 0xFFFFFFFFFFFFFFFFFFFFFFFFFFFFFFFFFFFFFFFF AND DUP2 MSTORE PUSH1 0x20 ADD SWAP2 POP POP PUSH1 0x40 MLOAD DUP1 SWAP2 SUB SWAP1 RETURN JUMPDEST PUSH1 0x0 PUSH1 0x1 NUMBER SUB BLOCKHASH TIMESTAMP PUSH1 0x40 MLOAD PUSH1 0x20 ADD DUP1 DUP4 DUP2 MSTORE PUSH1 0x20 ADD DUP3 DUP2 MSTORE PUSH1 0x20 ADD SWAP3 POP POP POP PUSH1 0x40 MLOAD PUSH1 0x20 DUP2 DUP4 SUB SUB DUP2 MSTORE SWAP1 PUSH1 0x40 MSTORE DUP1 MLOAD SWAP1 PUSH1 0x20 ADD KECCAK256 PUSH1 0x0 SHR SWAP1 POP DUP1 DUP3 EQ ISZERO PUSH2 0x341 JUMPI CALLER PUSH20 0xFFFFFFFFFFFFFFFFFFFFFFFFFFFFFFFFFFFFFFFF AND PUSH1 0x2 PUSH1 0x0 SWAP1 SLOAD SWAP1 PUSH2 0x100 EXP SWAP1 DIV PUSH20 0xFFFFFFFFFFFFFFFFFFFFFFFFFFFFFFFFFFFFFFFF AND PUSH20 0xFFFFFFFFFFFFFFFFFFFFFFFFFFFFFFFFFFFFFFFF AND EQ ISZERO PUSH2 0x202 JUMPI PUSH1 0x0 DUP1 DUP2 SLOAD DUP1 SWAP3 SWAP2 SWAP1 PUSH1 0x1 ADD SWAP2 SWAP1 POP SSTORE POP PUSH2 0x24C JUMP JUMPDEST PUSH1 0x1 PUSH1 0x0 DUP2 SWAP1 SSTORE POP CALLER PUSH1 0x2 PUSH1 0x0 PUSH2 0x100 EXP DUP2 SLOAD DUP2 PUSH20 0xFFFFFFFFFFFFFFFFFFFFFFFFFFFFFFFFFFFFFFFF MUL NOT AND SWAP1 DUP4 PUSH20 0xFFFFFFFFFFFFFFFFFFFFFFFFFFFFFFFFFFFFFFFF AND MUL OR SWAP1 SSTORE POP JUMPDEST PUSH1 0xA PUSH1 0x0 SLOAD LT PUSH2 0x33C JUMPI PUSH1 0x0 CALLER PUSH20 0xFFFFFFFFFFFFFFFFFFFFFFFFFFFFFFFFFFFFFFFF AND PUSH8 0xDE0B6B3A7640000 PUSH1 0x40 MLOAD DUP1 PUSH1 0x0 ADD SWAP1 POP PUSH1 0x0 PUSH1 0x40 MLOAD DUP1 DUP4 SUB DUP2 DUP6 DUP8 GAS CALL SWAP3 POP POP POP RETURNDATASIZE DUP1 PUSH1 0x0 DUP2 EQ PUSH2 0x2BE JUMPI PUSH1 0x40 MLOAD SWAP2 POP PUSH1 0x1F NOT PUSH1 0x3F RETURNDATASIZE ADD AND DUP3 ADD PUSH1 0x40 MSTORE RETURNDATASIZE DUP3 MSTORE RETURNDATASIZE PUSH1 0x0 PUSH1 0x20 DUP5 ADD RETURNDATACOPY PUSH2 0x2C3 JUMP JUMPDEST PUSH1 0x60 SWAP2 POP JUMPDEST POP POP SWAP1 POP DUP1 PUSH2 0x33A JUMPI PUSH1 0x40 MLOAD PUSH32 0x8C379A000000000000000000000000000000000000000000000000000000000 DUP2 MSTORE PUSH1 0x4 ADD DUP1 DUP1 PUSH1 0x20 ADD DUP3 DUP2 SUB DUP3 MSTORE PUSH1 0x14 DUP2 MSTORE PUSH1 0x20 ADD DUP1 PUSH32 0x4661696C656420746F2073656E64204574686572000000000000000000000000 DUP2 MSTORE POP PUSH1 0x20 ADD SWAP2 POP POP PUSH1 0x40 MLOAD DUP1 SWAP2 SUB SWAP1 REVERT JUMPDEST POP JUMPDEST PUSH2 0x349 JUMP JUMPDEST PUSH1 0x0 DUP1 DUP2 SWAP1 SSTORE POP JUMPDEST POP POP JUMP JUMPDEST PUSH1 0x0 SLOAD DUP2 JUMP JUMPDEST PUSH1 0x60 PUSH1 0xA PUSH1 0x0 SLOAD LT ISZERO DUP1 ISZERO PUSH2 0x3B5 JUMPI POP CALLER PUSH20 0xFFFFFFFFFFFFFFFFFFFFFFFFFFFFFFFFFFFFFFFF AND PUSH1 0x2 PUSH1 0x0 SWAP1 SLOAD SWAP1 PUSH2 0x100 EXP SWAP1 DIV PUSH20 0xFFFFFFFFFFFFFFFFFFFFFFFFFFFFFFFFFFFFFFFF AND PUSH20 0xFFFFFFFFFFFFFFFFFFFFFFFFFFFFFFFFFFFFFFFF AND EQ JUMPDEST PUSH2 0x427 JUMPI PUSH1 0x40 MLOAD PUSH32 0x8C379A000000000000000000000000000000000000000000000000000000000 DUP2 MSTORE PUSH1 0x4 ADD DUP1 DUP1 PUSH1 0x20 ADD DUP3 DUP2 SUB DUP3 MSTORE PUSH1 0x15 DUP2 MSTORE PUSH1 0x20 ADD DUP1 PUSH32 0x4E6F7420656C696769626C6520666F7220666C61670000000000000000000000 DUP2 MSTORE POP PUSH1 0x20 ADD SWAP2 POP POP PUSH1 0x40 MLOAD DUP1 SWAP2 SUB SWAP1 REVERT JUMPDEST PUSH1 0x1 DUP1 SLOAD PUSH1 0x1 DUP2 PUSH1 0x1 AND ISZERO PUSH2 0x100 MUL SUB AND PUSH1 0x2 SWAP1 DIV DUP1 PUSH1 0x1F ADD PUSH1 0x20 DUP1 SWAP2 DIV MUL PUSH1 0x20 ADD PUSH1 0x40 MLOAD SWAP1 DUP2 ADD PUSH1 0x40 MSTORE DUP1 SWAP3 SWAP2 SWAP1 DUP2 DUP2 MSTORE PUSH1 0x20 ADD DUP3 DUP1 SLOAD PUSH1 0x1 DUP2 PUSH1 0x1 AND ISZERO PUSH2 0x100 MUL SUB AND PUSH1 0x2 SWAP1 DIV DUP1 ISZERO PUSH2 0x4BD JUMPI DUP1 PUSH1 0x1F LT PUSH2 0x492 JUMPI PUSH2 0x100 DUP1 DUP4 SLOAD DIV MUL DUP4 MSTORE SWAP2 PUSH1 0x20 ADD SWAP2 PUSH2 0x4BD JUMP JUMPDEST DUP3 ADD SWAP2 SWAP1 PUSH1 0x0 MSTORE PUSH1 0x20 PUSH1 0x0 KECCAK256 SWAP1 JUMPDEST DUP2 SLOAD DUP2 MSTORE SWAP1 PUSH1 0x1 ADD SWAP1 PUSH1 0x20 ADD DUP1 DUP4 GT PUSH2 0x4A0 JUMPI DUP3 SWAP1 SUB PUSH1 0x1F AND DUP3 ADD SWAP2 JUMPDEST POP POP POP POP POP SWAP1 POP SWAP1 JUMP JUMPDEST PUSH1 0x2 PUSH1 0x0 SWAP1 SLOAD SWAP1 PUSH2 0x100 EXP SWAP1 DIV PUSH20 0xFFFFFFFFFFFFFFFFFFFFFFFFFFFFFFFFFFFFFFFF AND DUP2 JUMP INVALID LOG2 PUSH5 0x6970667358 0x22 SLT KECCAK256 SLT DIFFICULTY 0x4D 0xE9 0x49 CALLVALUE INVALID ADD CALLER 0xD4 CALL CALLDATASIZE 0xCA 0xE3 0xD3 GASPRICE SWAP4 BYTE SIGNEXTEND SIGNEXTEND DUP3 DUP2 0xA9 0x5F PUSH10 0x3EBC4C8CD09D6E64736F PUSH13 0x63430007060033000000000000 "
				},
				"gasEstimates": {
					"creation": {
						"codeDepositCost": "263000",
						"executionCost": "infinite",
						"totalCost": "infinite"
					},
					"external": {
						"consecutiveWins()": "1005",
						"getFlag()": "infinite",
						"guess(uint256)": "infinite",
						"lastWinner()": "1091"
					}
				},
				"methodIdentifiers": {
					"consecutiveWins()": "e6f334d7",
					"getFlag()": "f9633930",
					"guess(uint256)": "9189fec1",
					"lastWinner()": "fe188184"
				}
			},
			"storageLayout": {
				"storage": [
					{
						"astId": 3,
						"contract": "newLevels/paresNones.sol:GuessTheRandomNumber",
						"label": "consecutiveWins",
						"offset": 0,
						"slot": "0",
						"type": "t_uint256"
					},
					{
						"astId": 5,
						"contract": "newLevels/paresNones.sol:GuessTheRandomNumber",
						"label": "flag",
						"offset": 0,
						"slot": "1",
						"type": "t_string_storage"
					},
					{
						"astId": 7,
						"contract": "newLevels/paresNones.sol:GuessTheRandomNumber",
						"label": "lastWinner",
						"offset": 0,
						"slot": "2",
						"type": "t_address"
					}
				],
				"types": {
					"t_address": {
						"encoding": "inplace",
						"label": "address",
						"numberOfBytes": "20"
					},
					"t_string_storage": {
						"encoding": "bytes",
						"label": "string",
						"numberOfBytes": "32"
					},
					"t_uint256": {
						"encoding": "inplace",
						"label": "uint256",
						"numberOfBytes": "32"
					}
				}
			},
			"userdoc": {
				"kind": "user",
				"methods": {},
				"version": 1
			}
		}
	}
}