{
	"newLevels/transferToken.sol": {
		"MyContract": {
			"abi": [
				{
					"inputs": [
						{
							"internalType": "contract IERC20",
							"name": "_erc20Token",
							"type": "address"
						},
						{
							"internalType": "string",
							"name": "_flag",
							"type": "string"
						},
						{
							"internalType": "address",
							"name": "_old_women",
							"type": "address"
						}
					],
					"stateMutability": "nonpayable",
					"type": "constructor"
				},
				{
					"inputs": [],
					"name": "canReturnFlag",
					"outputs": [
						{
							"internalType": "bool",
							"name": "",
							"type": "bool"
						}
					],
					"stateMutability": "view",
					"type": "function"
				},
				{
					"inputs": [],
					"name": "erc20Token",
					"outputs": [
						{
							"internalType": "contract IERC20",
							"name": "",
							"type": "address"
						}
					],
					"stateMutability": "view",
					"type": "function"
				},
				{
					"inputs": [],
					"name": "getFlag",
					"outputs": [
						{
							"internalType": "string",
							"name": "",
							"type": "string"
						}
					],
					"stateMutability": "view",
					"type": "function"
				},
				{
					"inputs": [],
					"name": "old_women",
					"outputs": [
						{
							"internalType": "address",
							"name": "",
							"type": "address"
						}
					],
					"stateMutability": "view",
					"type": "function"
				},
				{
					"inputs": [
						{
							"internalType": "address",
							"name": "from",
							"type": "address"
						},
						{
							"internalType": "address",
							"name": "to",
							"type": "address"
						},
						{
							"internalType": "uint256",
							"name": "amount",
							"type": "uint256"
						}
					],
					"name": "transferToken",
					"outputs": [],
					"stateMutability": "nonpayable",
					"type": "function"
				}
			],
			"devdoc": {
				"kind": "dev",
				"methods": {},
				"version": 1
			},
			"evm": {
				"assembly": "    /* \"newLevels/transferToken.sol\":264:1001  contract MyContract {... */\n  mstore(0x40, 0x80)\n    /* \"newLevels/transferToken.sol\":413:585  constructor(IERC20 _erc20Token, string memory _flag, address _old_women) {... */\n  callvalue\n  dup1\n  iszero\n  tag_1\n  jumpi\n  0x00\n  dup1\n  revert\ntag_1:\n  pop\n  mload(0x40)\n  sub(codesize, bytecodeSize)\n  dup1\n  bytecodeSize\n  dup4\n  codecopy\n  dup2\n  dup2\n  add\n  0x40\n  mstore\n  dup2\n  add\n  swap1\n  tag_2\n  swap2\n  swap1\n  tag_3\n  jump\t// in\ntag_2:\n    /* \"newLevels/transferToken.sol\":510:521  _erc20Token */\n  dup3\n    /* \"newLevels/transferToken.sol\":497:507  erc20Token */\n  0x00\n  dup1\n    /* \"newLevels/transferToken.sol\":497:521  erc20Token = _erc20Token */\n  0x0100\n  exp\n  dup2\n  sload\n  dup2\n  0xffffffffffffffffffffffffffffffffffffffff\n  mul\n  not\n  and\n  swap1\n  dup4\n  0xffffffffffffffffffffffffffffffffffffffff\n  and\n  mul\n  or\n  swap1\n  sstore\n  pop\n    /* \"newLevels/transferToken.sol\":539:544  _flag */\n  dup2\n    /* \"newLevels/transferToken.sol\":532:536  flag */\n  0x01\n    /* \"newLevels/transferToken.sol\":532:544  flag = _flag */\n  swap1\n  dup2\n  tag_6\n  swap2\n  swap1\n  tag_7\n  jump\t// in\ntag_6:\n  pop\n    /* \"newLevels/transferToken.sol\":567:577  _old_women */\n  dup1\n    /* \"newLevels/transferToken.sol\":555:564  old_women */\n  0x02\n  0x01\n    /* \"newLevels/transferToken.sol\":555:577  old_women = _old_women */\n  0x0100\n  exp\n  dup2\n  sload\n  dup2\n  0xffffffffffffffffffffffffffffffffffffffff\n  mul\n  not\n  and\n  swap1\n  dup4\n  0xffffffffffffffffffffffffffffffffffffffff\n  and\n  mul\n  or\n  swap1\n  sstore\n  pop\n    /* \"newLevels/transferToken.sol\":413:585  constructor(IERC20 _erc20Token, string memory _flag, address _old_women) {... */\n  pop\n  pop\n  pop\n    /* \"newLevels/transferToken.sol\":264:1001  contract MyContract {... */\n  jump(tag_8)\n    /* \"#utility.yul\":7:82   */\ntag_9:\n    /* \"#utility.yul\":40:46   */\n  0x00\n    /* \"#utility.yul\":73:75   */\n  0x40\n    /* \"#utility.yul\":67:76   */\n  mload\n    /* \"#utility.yul\":57:76   */\n  swap1\n  pop\n    /* \"#utility.yul\":7:82   */\n  swap1\n  jump\t// out\n    /* \"#utility.yul\":88:205   */\ntag_10:\n    /* \"#utility.yul\":197:198   */\n  0x00\n    /* \"#utility.yul\":194:195   */\n  dup1\n    /* \"#utility.yul\":187:199   */\n  revert\n    /* \"#utility.yul\":211:328   */\ntag_11:\n    /* \"#utility.yul\":320:321   */\n  0x00\n    /* \"#utility.yul\":317:318   */\n  dup1\n    /* \"#utility.yul\":310:322   */\n  revert\n    /* \"#utility.yul\":334:460   */\ntag_12:\n    /* \"#utility.yul\":371:378   */\n  0x00\n    /* \"#utility.yul\":411:453   */\n  0xffffffffffffffffffffffffffffffffffffffff\n    /* \"#utility.yul\":404:409   */\n  dup3\n    /* \"#utility.yul\":400:454   */\n  and\n    /* \"#utility.yul\":389:454   */\n  swap1\n  pop\n    /* \"#utility.yul\":334:460   */\n  swap2\n  swap1\n  pop\n  jump\t// out\n    /* \"#utility.yul\":466:562   */\ntag_13:\n    /* \"#utility.yul\":503:510   */\n  0x00\n    /* \"#utility.yul\":532:556   */\n  tag_54\n    /* \"#utility.yul\":550:555   */\n  dup3\n    /* \"#utility.yul\":532:556   */\n  tag_12\n  jump\t// in\ntag_54:\n    /* \"#utility.yul\":521:556   */\n  swap1\n  pop\n    /* \"#utility.yul\":466:562   */\n  swap2\n  swap1\n  pop\n  jump\t// out\n    /* \"#utility.yul\":568:677   */\ntag_14:\n    /* \"#utility.yul\":618:625   */\n  0x00\n    /* \"#utility.yul\":647:671   */\n  tag_56\n    /* \"#utility.yul\":665:670   */\n  dup3\n    /* \"#utility.yul\":647:671   */\n  tag_13\n  jump\t// in\ntag_56:\n    /* \"#utility.yul\":636:671   */\n  swap1\n  pop\n    /* \"#utility.yul\":568:677   */\n  swap2\n  swap1\n  pop\n  jump\t// out\n    /* \"#utility.yul\":683:831   */\ntag_15:\n    /* \"#utility.yul\":769:806   */\n  tag_58\n    /* \"#utility.yul\":800:805   */\n  dup2\n    /* \"#utility.yul\":769:806   */\n  tag_14\n  jump\t// in\ntag_58:\n    /* \"#utility.yul\":762:767   */\n  dup2\n    /* \"#utility.yul\":759:807   */\n  eq\n    /* \"#utility.yul\":749:825   */\n  tag_59\n  jumpi\n    /* \"#utility.yul\":821:822   */\n  0x00\n    /* \"#utility.yul\":818:819   */\n  dup1\n    /* \"#utility.yul\":811:823   */\n  revert\n    /* \"#utility.yul\":749:825   */\ntag_59:\n    /* \"#utility.yul\":683:831   */\n  pop\n  jump\t// out\n    /* \"#utility.yul\":837:1006   */\ntag_16:\n    /* \"#utility.yul\":907:912   */\n  0x00\n    /* \"#utility.yul\":938:944   */\n  dup2\n    /* \"#utility.yul\":932:945   */\n  mload\n    /* \"#utility.yul\":923:945   */\n  swap1\n  pop\n    /* \"#utility.yul\":954:1000   */\n  tag_61\n    /* \"#utility.yul\":994:999   */\n  dup2\n    /* \"#utility.yul\":954:1000   */\n  tag_15\n  jump\t// in\ntag_61:\n    /* \"#utility.yul\":837:1006   */\n  swap3\n  swap2\n  pop\n  pop\n  jump\t// out\n    /* \"#utility.yul\":1012:1129   */\ntag_17:\n    /* \"#utility.yul\":1121:1122   */\n  0x00\n    /* \"#utility.yul\":1118:1119   */\n  dup1\n    /* \"#utility.yul\":1111:1123   */\n  revert\n    /* \"#utility.yul\":1135:1252   */\ntag_18:\n    /* \"#utility.yul\":1244:1245   */\n  0x00\n    /* \"#utility.yul\":1241:1242   */\n  dup1\n    /* \"#utility.yul\":1234:1246   */\n  revert\n    /* \"#utility.yul\":1258:1360   */\ntag_19:\n    /* \"#utility.yul\":1299:1305   */\n  0x00\n    /* \"#utility.yul\":1350:1352   */\n  0x1f\n    /* \"#utility.yul\":1346:1353   */\n  not\n    /* \"#utility.yul\":1341:1343   */\n  0x1f\n    /* \"#utility.yul\":1334:1339   */\n  dup4\n    /* \"#utility.yul\":1330:1344   */\n  add\n    /* \"#utility.yul\":1326:1354   */\n  and\n    /* \"#utility.yul\":1316:1354   */\n  swap1\n  pop\n    /* \"#utility.yul\":1258:1360   */\n  swap2\n  swap1\n  pop\n  jump\t// out\n    /* \"#utility.yul\":1366:1546   */\ntag_20:\n    /* \"#utility.yul\":1414:1491   */\n  0x4e487b7100000000000000000000000000000000000000000000000000000000\n    /* \"#utility.yul\":1411:1412   */\n  0x00\n    /* \"#utility.yul\":1404:1492   */\n  mstore\n    /* \"#utility.yul\":1511:1515   */\n  0x41\n    /* \"#utility.yul\":1508:1509   */\n  0x04\n    /* \"#utility.yul\":1501:1516   */\n  mstore\n    /* \"#utility.yul\":1535:1539   */\n  0x24\n    /* \"#utility.yul\":1532:1533   */\n  0x00\n    /* \"#utility.yul\":1525:1540   */\n  revert\n    /* \"#utility.yul\":1552:1833   */\ntag_21:\n    /* \"#utility.yul\":1635:1662   */\n  tag_67\n    /* \"#utility.yul\":1657:1661   */\n  dup3\n    /* \"#utility.yul\":1635:1662   */\n  tag_19\n  jump\t// in\ntag_67:\n    /* \"#utility.yul\":1627:1633   */\n  dup2\n    /* \"#utility.yul\":1623:1663   */\n  add\n    /* \"#utility.yul\":1765:1771   */\n  dup2\n    /* \"#utility.yul\":1753:1763   */\n  dup2\n    /* \"#utility.yul\":1750:1772   */\n  lt\n    /* \"#utility.yul\":1729:1747   */\n  0xffffffffffffffff\n    /* \"#utility.yul\":1717:1727   */\n  dup3\n    /* \"#utility.yul\":1714:1748   */\n  gt\n    /* \"#utility.yul\":1711:1773   */\n  or\n    /* \"#utility.yul\":1708:1796   */\n  iszero\n  tag_68\n  jumpi\n    /* \"#utility.yul\":1776:1794   */\n  tag_69\n  tag_20\n  jump\t// in\ntag_69:\n    /* \"#utility.yul\":1708:1796   */\ntag_68:\n    /* \"#utility.yul\":1816:1826   */\n  dup1\n    /* \"#utility.yul\":1812:1814   */\n  0x40\n    /* \"#utility.yul\":1805:1827   */\n  mstore\n    /* \"#utility.yul\":1595:1833   */\n  pop\n    /* \"#utility.yul\":1552:1833   */\n  pop\n  pop\n  jump\t// out\n    /* \"#utility.yul\":1839:1968   */\ntag_22:\n    /* \"#utility.yul\":1873:1879   */\n  0x00\n    /* \"#utility.yul\":1900:1920   */\n  tag_71\n  tag_9\n  jump\t// in\ntag_71:\n    /* \"#utility.yul\":1890:1920   */\n  swap1\n  pop\n    /* \"#utility.yul\":1929:1962   */\n  tag_72\n    /* \"#utility.yul\":1957:1961   */\n  dup3\n    /* \"#utility.yul\":1949:1955   */\n  dup3\n    /* \"#utility.yul\":1929:1962   */\n  tag_21\n  jump\t// in\ntag_72:\n    /* \"#utility.yul\":1839:1968   */\n  swap2\n  swap1\n  pop\n  jump\t// out\n    /* \"#utility.yul\":1974:2282   */\ntag_23:\n    /* \"#utility.yul\":2036:2040   */\n  0x00\n    /* \"#utility.yul\":2126:2144   */\n  0xffffffffffffffff\n    /* \"#utility.yul\":2118:2124   */\n  dup3\n    /* \"#utility.yul\":2115:2145   */\n  gt\n    /* \"#utility.yul\":2112:2168   */\n  iszero\n  tag_74\n  jumpi\n    /* \"#utility.yul\":2148:2166   */\n  tag_75\n  tag_20\n  jump\t// in\ntag_75:\n    /* \"#utility.yul\":2112:2168   */\ntag_74:\n    /* \"#utility.yul\":2186:2215   */\n  tag_76\n    /* \"#utility.yul\":2208:2214   */\n  dup3\n    /* \"#utility.yul\":2186:2215   */\n  tag_19\n  jump\t// in\ntag_76:\n    /* \"#utility.yul\":2178:2215   */\n  swap1\n  pop\n    /* \"#utility.yul\":2270:2274   */\n  0x20\n    /* \"#utility.yul\":2264:2268   */\n  dup2\n    /* \"#utility.yul\":2260:2275   */\n  add\n    /* \"#utility.yul\":2252:2275   */\n  swap1\n  pop\n    /* \"#utility.yul\":1974:2282   */\n  swap2\n  swap1\n  pop\n  jump\t// out\n    /* \"#utility.yul\":2288:2534   */\ntag_24:\n    /* \"#utility.yul\":2369:2370   */\n  0x00\n    /* \"#utility.yul\":2379:2492   */\ntag_78:\n    /* \"#utility.yul\":2393:2399   */\n  dup4\n    /* \"#utility.yul\":2390:2391   */\n  dup2\n    /* \"#utility.yul\":2387:2400   */\n  lt\n    /* \"#utility.yul\":2379:2492   */\n  iszero\n  tag_80\n  jumpi\n    /* \"#utility.yul\":2478:2479   */\n  dup1\n    /* \"#utility.yul\":2473:2476   */\n  dup3\n    /* \"#utility.yul\":2469:2480   */\n  add\n    /* \"#utility.yul\":2463:2481   */\n  mload\n    /* \"#utility.yul\":2459:2460   */\n  dup2\n    /* \"#utility.yul\":2454:2457   */\n  dup5\n    /* \"#utility.yul\":2450:2461   */\n  add\n    /* \"#utility.yul\":2443:2482   */\n  mstore\n    /* \"#utility.yul\":2415:2417   */\n  0x20\n    /* \"#utility.yul\":2412:2413   */\n  dup2\n    /* \"#utility.yul\":2408:2418   */\n  add\n    /* \"#utility.yul\":2403:2418   */\n  swap1\n  pop\n    /* \"#utility.yul\":2379:2492   */\n  jump(tag_78)\ntag_80:\n    /* \"#utility.yul\":2526:2527   */\n  0x00\n    /* \"#utility.yul\":2517:2523   */\n  dup5\n    /* \"#utility.yul\":2512:2515   */\n  dup5\n    /* \"#utility.yul\":2508:2524   */\n  add\n    /* \"#utility.yul\":2501:2528   */\n  mstore\n    /* \"#utility.yul\":2350:2534   */\n  pop\n    /* \"#utility.yul\":2288:2534   */\n  pop\n  pop\n  pop\n  jump\t// out\n    /* \"#utility.yul\":2540:2974   */\ntag_25:\n    /* \"#utility.yul\":2629:2634   */\n  0x00\n    /* \"#utility.yul\":2654:2720   */\n  tag_82\n    /* \"#utility.yul\":2670:2719   */\n  tag_83\n    /* \"#utility.yul\":2712:2718   */\n  dup5\n    /* \"#utility.yul\":2670:2719   */\n  tag_23\n  jump\t// in\ntag_83:\n    /* \"#utility.yul\":2654:2720   */\n  tag_22\n  jump\t// in\ntag_82:\n    /* \"#utility.yul\":2645:2720   */\n  swap1\n  pop\n    /* \"#utility.yul\":2743:2749   */\n  dup3\n    /* \"#utility.yul\":2736:2741   */\n  dup2\n    /* \"#utility.yul\":2729:2750   */\n  mstore\n    /* \"#utility.yul\":2781:2785   */\n  0x20\n    /* \"#utility.yul\":2774:2779   */\n  dup2\n    /* \"#utility.yul\":2770:2786   */\n  add\n    /* \"#utility.yul\":2819:2822   */\n  dup5\n    /* \"#utility.yul\":2810:2816   */\n  dup5\n    /* \"#utility.yul\":2805:2808   */\n  dup5\n    /* \"#utility.yul\":2801:2817   */\n  add\n    /* \"#utility.yul\":2798:2823   */\n  gt\n    /* \"#utility.yul\":2795:2907   */\n  iszero\n  tag_84\n  jumpi\n    /* \"#utility.yul\":2826:2905   */\n  tag_85\n  tag_18\n  jump\t// in\ntag_85:\n    /* \"#utility.yul\":2795:2907   */\ntag_84:\n    /* \"#utility.yul\":2916:2968   */\n  tag_86\n    /* \"#utility.yul\":2961:2967   */\n  dup5\n    /* \"#utility.yul\":2956:2959   */\n  dup3\n    /* \"#utility.yul\":2951:2954   */\n  dup6\n    /* \"#utility.yul\":2916:2968   */\n  tag_24\n  jump\t// in\ntag_86:\n    /* \"#utility.yul\":2635:2974   */\n  pop\n    /* \"#utility.yul\":2540:2974   */\n  swap4\n  swap3\n  pop\n  pop\n  pop\n  jump\t// out\n    /* \"#utility.yul\":2994:3349   */\ntag_26:\n    /* \"#utility.yul\":3061:3066   */\n  0x00\n    /* \"#utility.yul\":3110:3113   */\n  dup3\n    /* \"#utility.yul\":3103:3107   */\n  0x1f\n    /* \"#utility.yul\":3095:3101   */\n  dup4\n    /* \"#utility.yul\":3091:3108   */\n  add\n    /* \"#utility.yul\":3087:3114   */\n  slt\n    /* \"#utility.yul\":3077:3199   */\n  tag_88\n  jumpi\n    /* \"#utility.yul\":3118:3197   */\n  tag_89\n  tag_17\n  jump\t// in\ntag_89:\n    /* \"#utility.yul\":3077:3199   */\ntag_88:\n    /* \"#utility.yul\":3228:3234   */\n  dup2\n    /* \"#utility.yul\":3222:3235   */\n  mload\n    /* \"#utility.yul\":3253:3343   */\n  tag_90\n    /* \"#utility.yul\":3339:3342   */\n  dup5\n    /* \"#utility.yul\":3331:3337   */\n  dup3\n    /* \"#utility.yul\":3324:3328   */\n  0x20\n    /* \"#utility.yul\":3316:3322   */\n  dup7\n    /* \"#utility.yul\":3312:3329   */\n  add\n    /* \"#utility.yul\":3253:3343   */\n  tag_25\n  jump\t// in\ntag_90:\n    /* \"#utility.yul\":3244:3343   */\n  swap2\n  pop\n    /* \"#utility.yul\":3067:3349   */\n  pop\n    /* \"#utility.yul\":2994:3349   */\n  swap3\n  swap2\n  pop\n  pop\n  jump\t// out\n    /* \"#utility.yul\":3355:3477   */\ntag_27:\n    /* \"#utility.yul\":3428:3452   */\n  tag_92\n    /* \"#utility.yul\":3446:3451   */\n  dup2\n    /* \"#utility.yul\":3428:3452   */\n  tag_13\n  jump\t// in\ntag_92:\n    /* \"#utility.yul\":3421:3426   */\n  dup2\n    /* \"#utility.yul\":3418:3453   */\n  eq\n    /* \"#utility.yul\":3408:3471   */\n  tag_93\n  jumpi\n    /* \"#utility.yul\":3467:3468   */\n  0x00\n    /* \"#utility.yul\":3464:3465   */\n  dup1\n    /* \"#utility.yul\":3457:3469   */\n  revert\n    /* \"#utility.yul\":3408:3471   */\ntag_93:\n    /* \"#utility.yul\":3355:3477   */\n  pop\n  jump\t// out\n    /* \"#utility.yul\":3483:3626   */\ntag_28:\n    /* \"#utility.yul\":3540:3545   */\n  0x00\n    /* \"#utility.yul\":3571:3577   */\n  dup2\n    /* \"#utility.yul\":3565:3578   */\n  mload\n    /* \"#utility.yul\":3556:3578   */\n  swap1\n  pop\n    /* \"#utility.yul\":3587:3620   */\n  tag_95\n    /* \"#utility.yul\":3614:3619   */\n  dup2\n    /* \"#utility.yul\":3587:3620   */\n  tag_27\n  jump\t// in\ntag_95:\n    /* \"#utility.yul\":3483:3626   */\n  swap3\n  swap2\n  pop\n  pop\n  jump\t// out\n    /* \"#utility.yul\":3632:4494   */\ntag_3:\n    /* \"#utility.yul\":3743:3749   */\n  0x00\n    /* \"#utility.yul\":3751:3757   */\n  dup1\n    /* \"#utility.yul\":3759:3765   */\n  0x00\n    /* \"#utility.yul\":3808:3810   */\n  0x60\n    /* \"#utility.yul\":3796:3805   */\n  dup5\n    /* \"#utility.yul\":3787:3794   */\n  dup7\n    /* \"#utility.yul\":3783:3806   */\n  sub\n    /* \"#utility.yul\":3779:3811   */\n  slt\n    /* \"#utility.yul\":3776:3895   */\n  iszero\n  tag_97\n  jumpi\n    /* \"#utility.yul\":3814:3893   */\n  tag_98\n  tag_10\n  jump\t// in\ntag_98:\n    /* \"#utility.yul\":3776:3895   */\ntag_97:\n    /* \"#utility.yul\":3934:3935   */\n  0x00\n    /* \"#utility.yul\":3959:4036   */\n  tag_99\n    /* \"#utility.yul\":4028:4035   */\n  dup7\n    /* \"#utility.yul\":4019:4025   */\n  dup3\n    /* \"#utility.yul\":4008:4017   */\n  dup8\n    /* \"#utility.yul\":4004:4026   */\n  add\n    /* \"#utility.yul\":3959:4036   */\n  tag_16\n  jump\t// in\ntag_99:\n    /* \"#utility.yul\":3949:4036   */\n  swap4\n  pop\n    /* \"#utility.yul\":3905:4046   */\n  pop\n    /* \"#utility.yul\":4106:4108   */\n  0x20\n    /* \"#utility.yul\":4095:4104   */\n  dup5\n    /* \"#utility.yul\":4091:4109   */\n  add\n    /* \"#utility.yul\":4085:4110   */\n  mload\n    /* \"#utility.yul\":4137:4155   */\n  0xffffffffffffffff\n    /* \"#utility.yul\":4129:4135   */\n  dup2\n    /* \"#utility.yul\":4126:4156   */\n  gt\n    /* \"#utility.yul\":4123:4240   */\n  iszero\n  tag_100\n  jumpi\n    /* \"#utility.yul\":4159:4238   */\n  tag_101\n  tag_11\n  jump\t// in\ntag_101:\n    /* \"#utility.yul\":4123:4240   */\ntag_100:\n    /* \"#utility.yul\":4264:4338   */\n  tag_102\n    /* \"#utility.yul\":4330:4337   */\n  dup7\n    /* \"#utility.yul\":4321:4327   */\n  dup3\n    /* \"#utility.yul\":4310:4319   */\n  dup8\n    /* \"#utility.yul\":4306:4328   */\n  add\n    /* \"#utility.yul\":4264:4338   */\n  tag_26\n  jump\t// in\ntag_102:\n    /* \"#utility.yul\":4254:4338   */\n  swap3\n  pop\n    /* \"#utility.yul\":4056:4348   */\n  pop\n    /* \"#utility.yul\":4387:4389   */\n  0x40\n    /* \"#utility.yul\":4413:4477   */\n  tag_103\n    /* \"#utility.yul\":4469:4476   */\n  dup7\n    /* \"#utility.yul\":4460:4466   */\n  dup3\n    /* \"#utility.yul\":4449:4458   */\n  dup8\n    /* \"#utility.yul\":4445:4467   */\n  add\n    /* \"#utility.yul\":4413:4477   */\n  tag_28\n  jump\t// in\ntag_103:\n    /* \"#utility.yul\":4403:4477   */\n  swap2\n  pop\n    /* \"#utility.yul\":4358:4487   */\n  pop\n    /* \"#utility.yul\":3632:4494   */\n  swap3\n  pop\n  swap3\n  pop\n  swap3\n  jump\t// out\n    /* \"#utility.yul\":4500:4599   */\ntag_29:\n    /* \"#utility.yul\":4552:4558   */\n  0x00\n    /* \"#utility.yul\":4586:4591   */\n  dup2\n    /* \"#utility.yul\":4580:4592   */\n  mload\n    /* \"#utility.yul\":4570:4592   */\n  swap1\n  pop\n    /* \"#utility.yul\":4500:4599   */\n  swap2\n  swap1\n  pop\n  jump\t// out\n    /* \"#utility.yul\":4605:4785   */\ntag_30:\n    /* \"#utility.yul\":4653:4730   */\n  0x4e487b7100000000000000000000000000000000000000000000000000000000\n    /* \"#utility.yul\":4650:4651   */\n  0x00\n    /* \"#utility.yul\":4643:4731   */\n  mstore\n    /* \"#utility.yul\":4750:4754   */\n  0x22\n    /* \"#utility.yul\":4747:4748   */\n  0x04\n    /* \"#utility.yul\":4740:4755   */\n  mstore\n    /* \"#utility.yul\":4774:4778   */\n  0x24\n    /* \"#utility.yul\":4771:4772   */\n  0x00\n    /* \"#utility.yul\":4764:4779   */\n  revert\n    /* \"#utility.yul\":4791:5111   */\ntag_31:\n    /* \"#utility.yul\":4835:4841   */\n  0x00\n    /* \"#utility.yul\":4872:4873   */\n  0x02\n    /* \"#utility.yul\":4866:4870   */\n  dup3\n    /* \"#utility.yul\":4862:4874   */\n  div\n    /* \"#utility.yul\":4852:4874   */\n  swap1\n  pop\n    /* \"#utility.yul\":4919:4920   */\n  0x01\n    /* \"#utility.yul\":4913:4917   */\n  dup3\n    /* \"#utility.yul\":4909:4921   */\n  and\n    /* \"#utility.yul\":4940:4958   */\n  dup1\n    /* \"#utility.yul\":4930:5011   */\n  tag_107\n  jumpi\n    /* \"#utility.yul\":4996:5000   */\n  0x7f\n    /* \"#utility.yul\":4988:4994   */\n  dup3\n    /* \"#utility.yul\":4984:5001   */\n  and\n    /* \"#utility.yul\":4974:5001   */\n  swap2\n  pop\n    /* \"#utility.yul\":4930:5011   */\ntag_107:\n    /* \"#utility.yul\":5058:5060   */\n  0x20\n    /* \"#utility.yul\":5050:5056   */\n  dup3\n    /* \"#utility.yul\":5047:5061   */\n  lt\n    /* \"#utility.yul\":5027:5045   */\n  dup2\n    /* \"#utility.yul\":5024:5062   */\n  sub\n    /* \"#utility.yul\":5021:5105   */\n  tag_108\n  jumpi\n    /* \"#utility.yul\":5077:5095   */\n  tag_109\n  tag_30\n  jump\t// in\ntag_109:\n    /* \"#utility.yul\":5021:5105   */\ntag_108:\n    /* \"#utility.yul\":4842:5111   */\n  pop\n    /* \"#utility.yul\":4791:5111   */\n  swap2\n  swap1\n  pop\n  jump\t// out\n    /* \"#utility.yul\":5117:5258   */\ntag_32:\n    /* \"#utility.yul\":5166:5170   */\n  0x00\n    /* \"#utility.yul\":5189:5192   */\n  dup2\n    /* \"#utility.yul\":5181:5192   */\n  swap1\n  pop\n    /* \"#utility.yul\":5212:5215   */\n  dup2\n    /* \"#utility.yul\":5209:5210   */\n  0x00\n    /* \"#utility.yul\":5202:5216   */\n  mstore\n    /* \"#utility.yul\":5246:5250   */\n  0x20\n    /* \"#utility.yul\":5243:5244   */\n  0x00\n    /* \"#utility.yul\":5233:5251   */\n  keccak256\n    /* \"#utility.yul\":5225:5251   */\n  swap1\n  pop\n    /* \"#utility.yul\":5117:5258   */\n  swap2\n  swap1\n  pop\n  jump\t// out\n    /* \"#utility.yul\":5264:5357   */\ntag_33:\n    /* \"#utility.yul\":5301:5307   */\n  0x00\n    /* \"#utility.yul\":5348:5350   */\n  0x20\n    /* \"#utility.yul\":5343:5345   */\n  0x1f\n    /* \"#utility.yul\":5336:5341   */\n  dup4\n    /* \"#utility.yul\":5332:5346   */\n  add\n    /* \"#utility.yul\":5328:5351   */\n  div\n    /* \"#utility.yul\":5318:5351   */\n  swap1\n  pop\n    /* \"#utility.yul\":5264:5357   */\n  swap2\n  swap1\n  pop\n  jump\t// out\n    /* \"#utility.yul\":5363:5470   */\ntag_34:\n    /* \"#utility.yul\":5407:5415   */\n  0x00\n    /* \"#utility.yul\":5457:5462   */\n  dup3\n    /* \"#utility.yul\":5451:5455   */\n  dup3\n    /* \"#utility.yul\":5447:5463   */\n  shl\n    /* \"#utility.yul\":5426:5463   */\n  swap1\n  pop\n    /* \"#utility.yul\":5363:5470   */\n  swap3\n  swap2\n  pop\n  pop\n  jump\t// out\n    /* \"#utility.yul\":5476:5869   */\ntag_35:\n    /* \"#utility.yul\":5545:5551   */\n  0x00\n    /* \"#utility.yul\":5595:5596   */\n  0x08\n    /* \"#utility.yul\":5583:5593   */\n  dup4\n    /* \"#utility.yul\":5579:5597   */\n  mul\n    /* \"#utility.yul\":5618:5715   */\n  tag_114\n    /* \"#utility.yul\":5648:5714   */\n  0xffffffffffffffffffffffffffffffffffffffffffffffffffffffffffffffff\n    /* \"#utility.yul\":5637:5646   */\n  dup3\n    /* \"#utility.yul\":5618:5715   */\n  tag_34\n  jump\t// in\ntag_114:\n    /* \"#utility.yul\":5736:5775   */\n  tag_115\n    /* \"#utility.yul\":5766:5774   */\n  dup7\n    /* \"#utility.yul\":5755:5764   */\n  dup4\n    /* \"#utility.yul\":5736:5775   */\n  tag_34\n  jump\t// in\ntag_115:\n    /* \"#utility.yul\":5724:5775   */\n  swap6\n  pop\n    /* \"#utility.yul\":5808:5812   */\n  dup1\n    /* \"#utility.yul\":5804:5813   */\n  not\n    /* \"#utility.yul\":5797:5802   */\n  dup5\n    /* \"#utility.yul\":5793:5814   */\n  and\n    /* \"#utility.yul\":5784:5814   */\n  swap4\n  pop\n    /* \"#utility.yul\":5857:5861   */\n  dup1\n    /* \"#utility.yul\":5847:5855   */\n  dup7\n    /* \"#utility.yul\":5843:5862   */\n  and\n    /* \"#utility.yul\":5836:5841   */\n  dup5\n    /* \"#utility.yul\":5833:5863   */\n  or\n    /* \"#utility.yul\":5823:5863   */\n  swap3\n  pop\n    /* \"#utility.yul\":5552:5869   */\n  pop\n  pop\n    /* \"#utility.yul\":5476:5869   */\n  swap4\n  swap3\n  pop\n  pop\n  pop\n  jump\t// out\n    /* \"#utility.yul\":5875:5952   */\ntag_36:\n    /* \"#utility.yul\":5912:5919   */\n  0x00\n    /* \"#utility.yul\":5941:5946   */\n  dup2\n    /* \"#utility.yul\":5930:5946   */\n  swap1\n  pop\n    /* \"#utility.yul\":5875:5952   */\n  swap2\n  swap1\n  pop\n  jump\t// out\n    /* \"#utility.yul\":5958:6018   */\ntag_37:\n    /* \"#utility.yul\":5986:5989   */\n  0x00\n    /* \"#utility.yul\":6007:6012   */\n  dup2\n    /* \"#utility.yul\":6000:6012   */\n  swap1\n  pop\n    /* \"#utility.yul\":5958:6018   */\n  swap2\n  swap1\n  pop\n  jump\t// out\n    /* \"#utility.yul\":6024:6166   */\ntag_38:\n    /* \"#utility.yul\":6074:6083   */\n  0x00\n    /* \"#utility.yul\":6107:6160   */\n  tag_119\n    /* \"#utility.yul\":6125:6159   */\n  tag_120\n    /* \"#utility.yul\":6134:6158   */\n  tag_121\n    /* \"#utility.yul\":6152:6157   */\n  dup5\n    /* \"#utility.yul\":6134:6158   */\n  tag_36\n  jump\t// in\ntag_121:\n    /* \"#utility.yul\":6125:6159   */\n  tag_37\n  jump\t// in\ntag_120:\n    /* \"#utility.yul\":6107:6160   */\n  tag_36\n  jump\t// in\ntag_119:\n    /* \"#utility.yul\":6094:6160   */\n  swap1\n  pop\n    /* \"#utility.yul\":6024:6166   */\n  swap2\n  swap1\n  pop\n  jump\t// out\n    /* \"#utility.yul\":6172:6247   */\ntag_39:\n    /* \"#utility.yul\":6215:6218   */\n  0x00\n    /* \"#utility.yul\":6236:6241   */\n  dup2\n    /* \"#utility.yul\":6229:6241   */\n  swap1\n  pop\n    /* \"#utility.yul\":6172:6247   */\n  swap2\n  swap1\n  pop\n  jump\t// out\n    /* \"#utility.yul\":6253:6522   */\ntag_40:\n    /* \"#utility.yul\":6363:6402   */\n  tag_124\n    /* \"#utility.yul\":6394:6401   */\n  dup4\n    /* \"#utility.yul\":6363:6402   */\n  tag_38\n  jump\t// in\ntag_124:\n    /* \"#utility.yul\":6424:6515   */\n  tag_125\n    /* \"#utility.yul\":6473:6514   */\n  tag_126\n    /* \"#utility.yul\":6497:6513   */\n  dup3\n    /* \"#utility.yul\":6473:6514   */\n  tag_39\n  jump\t// in\ntag_126:\n    /* \"#utility.yul\":6465:6471   */\n  dup5\n    /* \"#utility.yul\":6458:6462   */\n  dup5\n    /* \"#utility.yul\":6452:6463   */\n  sload\n    /* \"#utility.yul\":6424:6515   */\n  tag_35\n  jump\t// in\ntag_125:\n    /* \"#utility.yul\":6418:6422   */\n  dup3\n    /* \"#utility.yul\":6411:6516   */\n  sstore\n    /* \"#utility.yul\":6329:6522   */\n  pop\n    /* \"#utility.yul\":6253:6522   */\n  pop\n  pop\n  pop\n  jump\t// out\n    /* \"#utility.yul\":6528:6601   */\ntag_41:\n    /* \"#utility.yul\":6573:6576   */\n  0x00\n    /* \"#utility.yul\":6528:6601   */\n  swap1\n  jump\t// out\n    /* \"#utility.yul\":6607:6796   */\ntag_42:\n    /* \"#utility.yul\":6684:6716   */\n  tag_129\n  tag_41\n  jump\t// in\ntag_129:\n    /* \"#utility.yul\":6725:6790   */\n  tag_130\n    /* \"#utility.yul\":6783:6789   */\n  dup2\n    /* \"#utility.yul\":6775:6781   */\n  dup5\n    /* \"#utility.yul\":6769:6773   */\n  dup5\n    /* \"#utility.yul\":6725:6790   */\n  tag_40\n  jump\t// in\ntag_130:\n    /* \"#utility.yul\":6660:6796   */\n  pop\n    /* \"#utility.yul\":6607:6796   */\n  pop\n  pop\n  jump\t// out\n    /* \"#utility.yul\":6802:6988   */\ntag_43:\n    /* \"#utility.yul\":6862:6982   */\ntag_132:\n    /* \"#utility.yul\":6879:6882   */\n  dup2\n    /* \"#utility.yul\":6872:6877   */\n  dup2\n    /* \"#utility.yul\":6869:6883   */\n  lt\n    /* \"#utility.yul\":6862:6982   */\n  iszero\n  tag_134\n  jumpi\n    /* \"#utility.yul\":6933:6972   */\n  tag_135\n    /* \"#utility.yul\":6970:6971   */\n  0x00\n    /* \"#utility.yul\":6963:6968   */\n  dup3\n    /* \"#utility.yul\":6933:6972   */\n  tag_42\n  jump\t// in\ntag_135:\n    /* \"#utility.yul\":6906:6907   */\n  0x01\n    /* \"#utility.yul\":6899:6904   */\n  dup2\n    /* \"#utility.yul\":6895:6908   */\n  add\n    /* \"#utility.yul\":6886:6908   */\n  swap1\n  pop\n    /* \"#utility.yul\":6862:6982   */\n  jump(tag_132)\ntag_134:\n    /* \"#utility.yul\":6802:6988   */\n  pop\n  pop\n  jump\t// out\n    /* \"#utility.yul\":6994:7537   */\ntag_44:\n    /* \"#utility.yul\":7095:7097   */\n  0x1f\n    /* \"#utility.yul\":7090:7093   */\n  dup3\n    /* \"#utility.yul\":7087:7098   */\n  gt\n    /* \"#utility.yul\":7084:7530   */\n  iszero\n  tag_137\n  jumpi\n    /* \"#utility.yul\":7129:7167   */\n  tag_138\n    /* \"#utility.yul\":7161:7166   */\n  dup2\n    /* \"#utility.yul\":7129:7167   */\n  tag_32\n  jump\t// in\ntag_138:\n    /* \"#utility.yul\":7213:7242   */\n  tag_139\n    /* \"#utility.yul\":7231:7241   */\n  dup5\n    /* \"#utility.yul\":7213:7242   */\n  tag_33\n  jump\t// in\ntag_139:\n    /* \"#utility.yul\":7203:7211   */\n  dup2\n    /* \"#utility.yul\":7199:7243   */\n  add\n    /* \"#utility.yul\":7396:7398   */\n  0x20\n    /* \"#utility.yul\":7384:7394   */\n  dup6\n    /* \"#utility.yul\":7381:7399   */\n  lt\n    /* \"#utility.yul\":7378:7427   */\n  iszero\n  tag_140\n  jumpi\n    /* \"#utility.yul\":7417:7425   */\n  dup2\n    /* \"#utility.yul\":7402:7425   */\n  swap1\n  pop\n    /* \"#utility.yul\":7378:7427   */\ntag_140:\n    /* \"#utility.yul\":7440:7520   */\n  tag_141\n    /* \"#utility.yul\":7496:7518   */\n  tag_142\n    /* \"#utility.yul\":7514:7517   */\n  dup6\n    /* \"#utility.yul\":7496:7518   */\n  tag_33\n  jump\t// in\ntag_142:\n    /* \"#utility.yul\":7486:7494   */\n  dup4\n    /* \"#utility.yul\":7482:7519   */\n  add\n    /* \"#utility.yul\":7469:7480   */\n  dup3\n    /* \"#utility.yul\":7440:7520   */\n  tag_43\n  jump\t// in\ntag_141:\n    /* \"#utility.yul\":7099:7530   */\n  pop\n  pop\n    /* \"#utility.yul\":7084:7530   */\ntag_137:\n    /* \"#utility.yul\":6994:7537   */\n  pop\n  pop\n  pop\n  jump\t// out\n    /* \"#utility.yul\":7543:7660   */\ntag_45:\n    /* \"#utility.yul\":7597:7605   */\n  0x00\n    /* \"#utility.yul\":7647:7652   */\n  dup3\n    /* \"#utility.yul\":7641:7645   */\n  dup3\n    /* \"#utility.yul\":7637:7653   */\n  shr\n    /* \"#utility.yul\":7616:7653   */\n  swap1\n  pop\n    /* \"#utility.yul\":7543:7660   */\n  swap3\n  swap2\n  pop\n  pop\n  jump\t// out\n    /* \"#utility.yul\":7666:7835   */\ntag_46:\n    /* \"#utility.yul\":7710:7716   */\n  0x00\n    /* \"#utility.yul\":7743:7794   */\n  tag_145\n    /* \"#utility.yul\":7791:7792   */\n  0x00\n    /* \"#utility.yul\":7787:7793   */\n  not\n    /* \"#utility.yul\":7779:7784   */\n  dup5\n    /* \"#utility.yul\":7776:7777   */\n  0x08\n    /* \"#utility.yul\":7772:7785   */\n  mul\n    /* \"#utility.yul\":7743:7794   */\n  tag_45\n  jump\t// in\ntag_145:\n    /* \"#utility.yul\":7739:7795   */\n  not\n    /* \"#utility.yul\":7824:7828   */\n  dup1\n    /* \"#utility.yul\":7818:7822   */\n  dup4\n    /* \"#utility.yul\":7814:7829   */\n  and\n    /* \"#utility.yul\":7804:7829   */\n  swap2\n  pop\n    /* \"#utility.yul\":7717:7835   */\n  pop\n    /* \"#utility.yul\":7666:7835   */\n  swap3\n  swap2\n  pop\n  pop\n  jump\t// out\n    /* \"#utility.yul\":7840:8135   */\ntag_47:\n    /* \"#utility.yul\":7916:7920   */\n  0x00\n    /* \"#utility.yul\":8062:8091   */\n  tag_147\n    /* \"#utility.yul\":8087:8090   */\n  dup4\n    /* \"#utility.yul\":8081:8085   */\n  dup4\n    /* \"#utility.yul\":8062:8091   */\n  tag_46\n  jump\t// in\ntag_147:\n    /* \"#utility.yul\":8054:8091   */\n  swap2\n  pop\n    /* \"#utility.yul\":8124:8127   */\n  dup3\n    /* \"#utility.yul\":8121:8122   */\n  0x02\n    /* \"#utility.yul\":8117:8128   */\n  mul\n    /* \"#utility.yul\":8111:8115   */\n  dup3\n    /* \"#utility.yul\":8108:8129   */\n  or\n    /* \"#utility.yul\":8100:8129   */\n  swap1\n  pop\n    /* \"#utility.yul\":7840:8135   */\n  swap3\n  swap2\n  pop\n  pop\n  jump\t// out\n    /* \"#utility.yul\":8140:9535   */\ntag_7:\n    /* \"#utility.yul\":8257:8294   */\n  tag_149\n    /* \"#utility.yul\":8290:8293   */\n  dup3\n    /* \"#utility.yul\":8257:8294   */\n  tag_29\n  jump\t// in\ntag_149:\n    /* \"#utility.yul\":8359:8377   */\n  0xffffffffffffffff\n    /* \"#utility.yul\":8351:8357   */\n  dup2\n    /* \"#utility.yul\":8348:8378   */\n  gt\n    /* \"#utility.yul\":8345:8401   */\n  iszero\n  tag_150\n  jumpi\n    /* \"#utility.yul\":8381:8399   */\n  tag_151\n  tag_20\n  jump\t// in\ntag_151:\n    /* \"#utility.yul\":8345:8401   */\ntag_150:\n    /* \"#utility.yul\":8425:8463   */\n  tag_152\n    /* \"#utility.yul\":8457:8461   */\n  dup3\n    /* \"#utility.yul\":8451:8462   */\n  sload\n    /* \"#utility.yul\":8425:8463   */\n  tag_31\n  jump\t// in\ntag_152:\n    /* \"#utility.yul\":8510:8577   */\n  tag_153\n    /* \"#utility.yul\":8570:8576   */\n  dup3\n    /* \"#utility.yul\":8562:8568   */\n  dup3\n    /* \"#utility.yul\":8556:8560   */\n  dup6\n    /* \"#utility.yul\":8510:8577   */\n  tag_44\n  jump\t// in\ntag_153:\n    /* \"#utility.yul\":8604:8605   */\n  0x00\n    /* \"#utility.yul\":8628:8632   */\n  0x20\n    /* \"#utility.yul\":8615:8632   */\n  swap1\n  pop\n    /* \"#utility.yul\":8660:8662   */\n  0x1f\n    /* \"#utility.yul\":8652:8658   */\n  dup4\n    /* \"#utility.yul\":8649:8663   */\n  gt\n    /* \"#utility.yul\":8677:8678   */\n  0x01\n    /* \"#utility.yul\":8672:9290   */\n  dup2\n  eq\n  tag_155\n  jumpi\n    /* \"#utility.yul\":9334:9335   */\n  0x00\n    /* \"#utility.yul\":9351:9357   */\n  dup5\n    /* \"#utility.yul\":9348:9425   */\n  iszero\n  tag_156\n  jumpi\n    /* \"#utility.yul\":9400:9409   */\n  dup3\n    /* \"#utility.yul\":9395:9398   */\n  dup8\n    /* \"#utility.yul\":9391:9410   */\n  add\n    /* \"#utility.yul\":9385:9411   */\n  mload\n    /* \"#utility.yul\":9376:9411   */\n  swap1\n  pop\n    /* \"#utility.yul\":9348:9425   */\ntag_156:\n    /* \"#utility.yul\":9451:9518   */\n  tag_157\n    /* \"#utility.yul\":9511:9517   */\n  dup6\n    /* \"#utility.yul\":9504:9509   */\n  dup3\n    /* \"#utility.yul\":9451:9518   */\n  tag_47\n  jump\t// in\ntag_157:\n    /* \"#utility.yul\":9445:9449   */\n  dup7\n    /* \"#utility.yul\":9438:9519   */\n  sstore\n    /* \"#utility.yul\":9307:9529   */\n  pop\n    /* \"#utility.yul\":8642:9529   */\n  jump(tag_154)\n    /* \"#utility.yul\":8672:9290   */\ntag_155:\n    /* \"#utility.yul\":8724:8728   */\n  0x1f\n    /* \"#utility.yul\":8720:8729   */\n  not\n    /* \"#utility.yul\":8712:8718   */\n  dup5\n    /* \"#utility.yul\":8708:8730   */\n  and\n    /* \"#utility.yul\":8758:8795   */\n  tag_158\n    /* \"#utility.yul\":8790:8794   */\n  dup7\n    /* \"#utility.yul\":8758:8795   */\n  tag_32\n  jump\t// in\ntag_158:\n    /* \"#utility.yul\":8817:8818   */\n  0x00\n    /* \"#utility.yul\":8831:9039   */\ntag_159:\n    /* \"#utility.yul\":8845:8852   */\n  dup3\n    /* \"#utility.yul\":8842:8843   */\n  dup2\n    /* \"#utility.yul\":8839:8853   */\n  lt\n    /* \"#utility.yul\":8831:9039   */\n  iszero\n  tag_161\n  jumpi\n    /* \"#utility.yul\":8924:8933   */\n  dup5\n    /* \"#utility.yul\":8919:8922   */\n  dup10\n    /* \"#utility.yul\":8915:8934   */\n  add\n    /* \"#utility.yul\":8909:8935   */\n  mload\n    /* \"#utility.yul\":8901:8907   */\n  dup3\n    /* \"#utility.yul\":8894:8936   */\n  sstore\n    /* \"#utility.yul\":8975:8976   */\n  0x01\n    /* \"#utility.yul\":8967:8973   */\n  dup3\n    /* \"#utility.yul\":8963:8977   */\n  add\n    /* \"#utility.yul\":8953:8977   */\n  swap2\n  pop\n    /* \"#utility.yul\":9022:9024   */\n  0x20\n    /* \"#utility.yul\":9011:9020   */\n  dup6\n    /* \"#utility.yul\":9007:9025   */\n  add\n    /* \"#utility.yul\":8994:9025   */\n  swap5\n  pop\n    /* \"#utility.yul\":8868:8872   */\n  0x20\n    /* \"#utility.yul\":8865:8866   */\n  dup2\n    /* \"#utility.yul\":8861:8873   */\n  add\n    /* \"#utility.yul\":8856:8873   */\n  swap1\n  pop\n    /* \"#utility.yul\":8831:9039   */\n  jump(tag_159)\ntag_161:\n    /* \"#utility.yul\":9067:9073   */\n  dup7\n    /* \"#utility.yul\":9058:9065   */\n  dup4\n    /* \"#utility.yul\":9055:9074   */\n  lt\n    /* \"#utility.yul\":9052:9231   */\n  iszero\n  tag_162\n  jumpi\n    /* \"#utility.yul\":9125:9134   */\n  dup5\n    /* \"#utility.yul\":9120:9123   */\n  dup10\n    /* \"#utility.yul\":9116:9135   */\n  add\n    /* \"#utility.yul\":9110:9136   */\n  mload\n    /* \"#utility.yul\":9168:9216   */\n  tag_163\n    /* \"#utility.yul\":9210:9214   */\n  0x1f\n    /* \"#utility.yul\":9202:9208   */\n  dup10\n    /* \"#utility.yul\":9198:9215   */\n  and\n    /* \"#utility.yul\":9187:9196   */\n  dup3\n    /* \"#utility.yul\":9168:9216   */\n  tag_46\n  jump\t// in\ntag_163:\n    /* \"#utility.yul\":9160:9166   */\n  dup4\n    /* \"#utility.yul\":9153:9217   */\n  sstore\n    /* \"#utility.yul\":9075:9231   */\n  pop\n    /* \"#utility.yul\":9052:9231   */\ntag_162:\n    /* \"#utility.yul\":9277:9278   */\n  0x01\n    /* \"#utility.yul\":9273:9274   */\n  0x02\n    /* \"#utility.yul\":9265:9271   */\n  dup9\n    /* \"#utility.yul\":9261:9275   */\n  mul\n    /* \"#utility.yul\":9257:9279   */\n  add\n    /* \"#utility.yul\":9251:9255   */\n  dup9\n    /* \"#utility.yul\":9244:9280   */\n  sstore\n    /* \"#utility.yul\":8679:9290   */\n  pop\n  pop\n  pop\n    /* \"#utility.yul\":8642:9529   */\ntag_154:\n  pop\n    /* \"#utility.yul\":8232:9535   */\n  pop\n  pop\n  pop\n    /* \"#utility.yul\":8140:9535   */\n  pop\n  pop\n  jump\t// out\n    /* \"newLevels/transferToken.sol\":264:1001  contract MyContract {... */\ntag_8:\n  dataSize(sub_0)\n  dup1\n  dataOffset(sub_0)\n  0x00\n  codecopy\n  0x00\n  return\nstop\n\nsub_0: assembly {\n        /* \"newLevels/transferToken.sol\":264:1001  contract MyContract {... */\n      mstore(0x40, 0x80)\n      callvalue\n      dup1\n      iszero\n      tag_1\n      jumpi\n      0x00\n      dup1\n      revert\n    tag_1:\n      pop\n      jumpi(tag_2, lt(calldatasize, 0x04))\n      shr(0xe0, calldataload(0x00))\n      dup1\n      0x8a13eea7\n      eq\n      tag_3\n      jumpi\n      dup1\n      0x96f01bde\n      eq\n      tag_4\n      jumpi\n      dup1\n      0xf5537ede\n      eq\n      tag_5\n      jumpi\n      dup1\n      0xf9633930\n      eq\n      tag_6\n      jumpi\n      dup1\n      0xfa48b77e\n      eq\n      tag_7\n      jumpi\n    tag_2:\n      0x00\n      dup1\n      revert\n        /* \"newLevels/transferToken.sol\":291:315  IERC20 public erc20Token */\n    tag_3:\n      tag_8\n      tag_9\n      jump\t// in\n    tag_8:\n      mload(0x40)\n      tag_10\n      swap2\n      swap1\n      tag_11\n      jump\t// in\n    tag_10:\n      mload(0x40)\n      dup1\n      swap2\n      sub\n      swap1\n      return\n        /* \"newLevels/transferToken.sol\":348:373  bool public canReturnFlag */\n    tag_4:\n      tag_12\n      tag_13\n      jump\t// in\n    tag_12:\n      mload(0x40)\n      tag_14\n      swap2\n      swap1\n      tag_15\n      jump\t// in\n    tag_14:\n      mload(0x40)\n      dup1\n      swap2\n      sub\n      swap1\n      return\n        /* \"newLevels/transferToken.sol\":593:765  function transferToken(address from, address to, uint256 amount) public {... */\n    tag_5:\n      tag_16\n      0x04\n      dup1\n      calldatasize\n      sub\n      dup2\n      add\n      swap1\n      tag_17\n      swap2\n      swap1\n      tag_18\n      jump\t// in\n    tag_17:\n      tag_19\n      jump\t// in\n    tag_16:\n      stop\n        /* \"newLevels/transferToken.sol\":773:998  function getFlag() public view returns (string memory) {... */\n    tag_6:\n      tag_20\n      tag_21\n      jump\t// in\n    tag_20:\n      mload(0x40)\n      tag_22\n      swap2\n      swap1\n      tag_23\n      jump\t// in\n    tag_22:\n      mload(0x40)\n      dup1\n      swap2\n      sub\n      swap1\n      return\n        /* \"newLevels/transferToken.sol\":380:404  address public old_women */\n    tag_7:\n      tag_24\n      tag_25\n      jump\t// in\n    tag_24:\n      mload(0x40)\n      tag_26\n      swap2\n      swap1\n      tag_27\n      jump\t// in\n    tag_26:\n      mload(0x40)\n      dup1\n      swap2\n      sub\n      swap1\n      return\n        /* \"newLevels/transferToken.sol\":291:315  IERC20 public erc20Token */\n    tag_9:\n      0x00\n      dup1\n      sload\n      swap1\n      0x0100\n      exp\n      swap1\n      div\n      0xffffffffffffffffffffffffffffffffffffffff\n      and\n      dup2\n      jump\t// out\n        /* \"newLevels/transferToken.sol\":348:373  bool public canReturnFlag */\n    tag_13:\n      0x02\n      0x00\n      swap1\n      sload\n      swap1\n      0x0100\n      exp\n      swap1\n      div\n      0xff\n      and\n      dup2\n      jump\t// out\n        /* \"newLevels/transferToken.sol\":593:765  function transferToken(address from, address to, uint256 amount) public {... */\n    tag_19:\n        /* \"newLevels/transferToken.sol\":684:694  erc20Token */\n      0x00\n      dup1\n      sload\n      swap1\n      0x0100\n      exp\n      swap1\n      div\n      0xffffffffffffffffffffffffffffffffffffffff\n      and\n        /* \"newLevels/transferToken.sol\":684:707  erc20Token.transferFrom */\n      0xffffffffffffffffffffffffffffffffffffffff\n      and\n      0x23b872dd\n        /* \"newLevels/transferToken.sol\":708:712  from */\n      dup5\n        /* \"newLevels/transferToken.sol\":714:716  to */\n      dup5\n        /* \"newLevels/transferToken.sol\":718:724  amount */\n      dup5\n        /* \"newLevels/transferToken.sol\":684:725  erc20Token.transferFrom(from, to, amount) */\n      mload(0x40)\n      dup5\n      0xffffffff\n      and\n      0xe0\n      shl\n      dup2\n      mstore\n      0x04\n      add\n      tag_29\n      swap4\n      swap3\n      swap2\n      swap1\n      tag_30\n      jump\t// in\n    tag_29:\n      0x20\n      mload(0x40)\n      dup1\n      dup4\n      sub\n      dup2\n      0x00\n      dup8\n      gas\n      call\n      iszero\n      dup1\n      iszero\n      tag_32\n      jumpi\n      returndatasize\n      0x00\n      dup1\n      returndatacopy\n      revert(0x00, returndatasize)\n    tag_32:\n      pop\n      pop\n      pop\n      pop\n      mload(0x40)\n      returndatasize\n      not(0x1f)\n      0x1f\n      dup3\n      add\n      and\n      dup3\n      add\n      dup1\n      0x40\n      mstore\n      pop\n      dup2\n      add\n      swap1\n      tag_33\n      swap2\n      swap1\n      tag_34\n      jump\t// in\n    tag_33:\n        /* \"newLevels/transferToken.sol\":676:726  require(erc20Token.transferFrom(from, to, amount)) */\n      tag_35\n      jumpi\n      0x00\n      dup1\n      revert\n    tag_35:\n        /* \"newLevels/transferToken.sol\":753:757  true */\n      0x01\n        /* \"newLevels/transferToken.sol\":737:750  canReturnFlag */\n      0x02\n      0x00\n        /* \"newLevels/transferToken.sol\":737:757  canReturnFlag = true */\n      0x0100\n      exp\n      dup2\n      sload\n      dup2\n      0xff\n      mul\n      not\n      and\n      swap1\n      dup4\n      iszero\n      iszero\n      mul\n      or\n      swap1\n      sstore\n      pop\n        /* \"newLevels/transferToken.sol\":593:765  function transferToken(address from, address to, uint256 amount) public {... */\n      pop\n      pop\n      pop\n      jump\t// out\n        /* \"newLevels/transferToken.sol\":773:998  function getFlag() public view returns (string memory) {... */\n    tag_21:\n        /* \"newLevels/transferToken.sol\":813:826  string memory */\n      0x60\n        /* \"newLevels/transferToken.sol\":881:882  0 */\n      0x00\n        /* \"newLevels/transferToken.sol\":847:857  erc20Token */\n      dup1\n      0x00\n      swap1\n      sload\n      swap1\n      0x0100\n      exp\n      swap1\n      div\n      0xffffffffffffffffffffffffffffffffffffffff\n      and\n        /* \"newLevels/transferToken.sol\":847:867  erc20Token.balanceOf */\n      0xffffffffffffffffffffffffffffffffffffffff\n      and\n      0x70a08231\n        /* \"newLevels/transferToken.sol\":868:877  old_women */\n      0x02\n      0x01\n      swap1\n      sload\n      swap1\n      0x0100\n      exp\n      swap1\n      div\n      0xffffffffffffffffffffffffffffffffffffffff\n      and\n        /* \"newLevels/transferToken.sol\":847:878  erc20Token.balanceOf(old_women) */\n      mload(0x40)\n      dup3\n      0xffffffff\n      and\n      0xe0\n      shl\n      dup2\n      mstore\n      0x04\n      add\n      tag_37\n      swap2\n      swap1\n      tag_27\n      jump\t// in\n    tag_37:\n      0x20\n      mload(0x40)\n      dup1\n      dup4\n      sub\n      dup2\n      dup7\n      gas\n      staticcall\n      iszero\n      dup1\n      iszero\n      tag_39\n      jumpi\n      returndatasize\n      0x00\n      dup1\n      returndatacopy\n      revert(0x00, returndatasize)\n    tag_39:\n      pop\n      pop\n      pop\n      pop\n      mload(0x40)\n      returndatasize\n      not(0x1f)\n      0x1f\n      dup3\n      add\n      and\n      dup3\n      add\n      dup1\n      0x40\n      mstore\n      pop\n      dup2\n      add\n      swap1\n      tag_40\n      swap2\n      swap1\n      tag_41\n      jump\t// in\n    tag_40:\n        /* \"newLevels/transferToken.sol\":847:882  erc20Token.balanceOf(old_women) > 0 */\n      gt\n        /* \"newLevels/transferToken.sol\":839:908  require(erc20Token.balanceOf(old_women) > 0, \"La anciana sigue mala\") */\n      tag_42\n      jumpi\n      mload(0x40)\n      0x08c379a000000000000000000000000000000000000000000000000000000000\n      dup2\n      mstore\n      0x04\n      add\n      tag_43\n      swap1\n      tag_44\n      jump\t// in\n    tag_43:\n      mload(0x40)\n      dup1\n      swap2\n      sub\n      swap1\n      revert\n    tag_42:\n        /* \"newLevels/transferToken.sol\":944:948  true */\n      0x01\n        /* \"newLevels/transferToken.sol\":927:948  canReturnFlag == true */\n      iszero\n      iszero\n        /* \"newLevels/transferToken.sol\":927:940  canReturnFlag */\n      0x02\n      0x00\n      swap1\n      sload\n      swap1\n      0x0100\n      exp\n      swap1\n      div\n      0xff\n      and\n        /* \"newLevels/transferToken.sol\":927:948  canReturnFlag == true */\n      iszero\n      iszero\n      eq\n        /* \"newLevels/transferToken.sol\":919:968  require(canReturnFlag == true, \"No puedes pasar\") */\n      tag_45\n      jumpi\n      mload(0x40)\n      0x08c379a000000000000000000000000000000000000000000000000000000000\n      dup2\n      mstore\n      0x04\n      add\n      tag_46\n      swap1\n      tag_47\n      jump\t// in\n    tag_46:\n      mload(0x40)\n      dup1\n      swap2\n      sub\n      swap1\n      revert\n    tag_45:\n        /* \"newLevels/transferToken.sol\":986:990  flag */\n      0x01\n        /* \"newLevels/transferToken.sol\":979:990  return flag */\n      dup1\n      sload\n      tag_48\n      swap1\n      tag_49\n      jump\t// in\n    tag_48:\n      dup1\n      0x1f\n      add\n      0x20\n      dup1\n      swap2\n      div\n      mul\n      0x20\n      add\n      mload(0x40)\n      swap1\n      dup2\n      add\n      0x40\n      mstore\n      dup1\n      swap3\n      swap2\n      swap1\n      dup2\n      dup2\n      mstore\n      0x20\n      add\n      dup3\n      dup1\n      sload\n      tag_50\n      swap1\n      tag_49\n      jump\t// in\n    tag_50:\n      dup1\n      iszero\n      tag_51\n      jumpi\n      dup1\n      0x1f\n      lt\n      tag_52\n      jumpi\n      0x0100\n      dup1\n      dup4\n      sload\n      div\n      mul\n      dup4\n      mstore\n      swap2\n      0x20\n      add\n      swap2\n      jump(tag_51)\n    tag_52:\n      dup3\n      add\n      swap2\n      swap1\n      0x00\n      mstore\n      keccak256(0x00, 0x20)\n      swap1\n    tag_53:\n      dup2\n      sload\n      dup2\n      mstore\n      swap1\n      0x01\n      add\n      swap1\n      0x20\n      add\n      dup1\n      dup4\n      gt\n      tag_53\n      jumpi\n      dup3\n      swap1\n      sub\n      0x1f\n      and\n      dup3\n      add\n      swap2\n    tag_51:\n      pop\n      pop\n      pop\n      pop\n      pop\n      swap1\n      pop\n        /* \"newLevels/transferToken.sol\":773:998  function getFlag() public view returns (string memory) {... */\n      swap1\n      jump\t// out\n        /* \"newLevels/transferToken.sol\":380:404  address public old_women */\n    tag_25:\n      0x02\n      0x01\n      swap1\n      sload\n      swap1\n      0x0100\n      exp\n      swap1\n      div\n      0xffffffffffffffffffffffffffffffffffffffff\n      and\n      dup2\n      jump\t// out\n        /* \"#utility.yul\":7:133   */\n    tag_54:\n        /* \"#utility.yul\":44:51   */\n      0x00\n        /* \"#utility.yul\":84:126   */\n      0xffffffffffffffffffffffffffffffffffffffff\n        /* \"#utility.yul\":77:82   */\n      dup3\n        /* \"#utility.yul\":73:127   */\n      and\n        /* \"#utility.yul\":62:127   */\n      swap1\n      pop\n        /* \"#utility.yul\":7:133   */\n      swap2\n      swap1\n      pop\n      jump\t// out\n        /* \"#utility.yul\":139:199   */\n    tag_55:\n        /* \"#utility.yul\":167:170   */\n      0x00\n        /* \"#utility.yul\":188:193   */\n      dup2\n        /* \"#utility.yul\":181:193   */\n      swap1\n      pop\n        /* \"#utility.yul\":139:199   */\n      swap2\n      swap1\n      pop\n      jump\t// out\n        /* \"#utility.yul\":205:347   */\n    tag_56:\n        /* \"#utility.yul\":255:264   */\n      0x00\n        /* \"#utility.yul\":288:341   */\n      tag_90\n        /* \"#utility.yul\":306:340   */\n      tag_91\n        /* \"#utility.yul\":315:339   */\n      tag_92\n        /* \"#utility.yul\":333:338   */\n      dup5\n        /* \"#utility.yul\":315:339   */\n      tag_54\n      jump\t// in\n    tag_92:\n        /* \"#utility.yul\":306:340   */\n      tag_55\n      jump\t// in\n    tag_91:\n        /* \"#utility.yul\":288:341   */\n      tag_54\n      jump\t// in\n    tag_90:\n        /* \"#utility.yul\":275:341   */\n      swap1\n      pop\n        /* \"#utility.yul\":205:347   */\n      swap2\n      swap1\n      pop\n      jump\t// out\n        /* \"#utility.yul\":353:479   */\n    tag_57:\n        /* \"#utility.yul\":403:412   */\n      0x00\n        /* \"#utility.yul\":436:473   */\n      tag_94\n        /* \"#utility.yul\":467:472   */\n      dup3\n        /* \"#utility.yul\":436:473   */\n      tag_56\n      jump\t// in\n    tag_94:\n        /* \"#utility.yul\":423:473   */\n      swap1\n      pop\n        /* \"#utility.yul\":353:479   */\n      swap2\n      swap1\n      pop\n      jump\t// out\n        /* \"#utility.yul\":485:624   */\n    tag_58:\n        /* \"#utility.yul\":548:557   */\n      0x00\n        /* \"#utility.yul\":581:618   */\n      tag_96\n        /* \"#utility.yul\":612:617   */\n      dup3\n        /* \"#utility.yul\":581:618   */\n      tag_57\n      jump\t// in\n    tag_96:\n        /* \"#utility.yul\":568:618   */\n      swap1\n      pop\n        /* \"#utility.yul\":485:624   */\n      swap2\n      swap1\n      pop\n      jump\t// out\n        /* \"#utility.yul\":630:787   */\n    tag_59:\n        /* \"#utility.yul\":730:780   */\n      tag_98\n        /* \"#utility.yul\":774:779   */\n      dup2\n        /* \"#utility.yul\":730:780   */\n      tag_58\n      jump\t// in\n    tag_98:\n        /* \"#utility.yul\":725:728   */\n      dup3\n        /* \"#utility.yul\":718:781   */\n      mstore\n        /* \"#utility.yul\":630:787   */\n      pop\n      pop\n      jump\t// out\n        /* \"#utility.yul\":793:1041   */\n    tag_11:\n        /* \"#utility.yul\":899:903   */\n      0x00\n        /* \"#utility.yul\":937:939   */\n      0x20\n        /* \"#utility.yul\":926:935   */\n      dup3\n        /* \"#utility.yul\":922:940   */\n      add\n        /* \"#utility.yul\":914:940   */\n      swap1\n      pop\n        /* \"#utility.yul\":950:1034   */\n      tag_100\n        /* \"#utility.yul\":1031:1032   */\n      0x00\n        /* \"#utility.yul\":1020:1029   */\n      dup4\n        /* \"#utility.yul\":1016:1033   */\n      add\n        /* \"#utility.yul\":1007:1013   */\n      dup5\n        /* \"#utility.yul\":950:1034   */\n      tag_59\n      jump\t// in\n    tag_100:\n        /* \"#utility.yul\":793:1041   */\n      swap3\n      swap2\n      pop\n      pop\n      jump\t// out\n        /* \"#utility.yul\":1047:1137   */\n    tag_60:\n        /* \"#utility.yul\":1081:1088   */\n      0x00\n        /* \"#utility.yul\":1124:1129   */\n      dup2\n        /* \"#utility.yul\":1117:1130   */\n      iszero\n        /* \"#utility.yul\":1110:1131   */\n      iszero\n        /* \"#utility.yul\":1099:1131   */\n      swap1\n      pop\n        /* \"#utility.yul\":1047:1137   */\n      swap2\n      swap1\n      pop\n      jump\t// out\n        /* \"#utility.yul\":1143:1252   */\n    tag_61:\n        /* \"#utility.yul\":1224:1245   */\n      tag_103\n        /* \"#utility.yul\":1239:1244   */\n      dup2\n        /* \"#utility.yul\":1224:1245   */\n      tag_60\n      jump\t// in\n    tag_103:\n        /* \"#utility.yul\":1219:1222   */\n      dup3\n        /* \"#utility.yul\":1212:1246   */\n      mstore\n        /* \"#utility.yul\":1143:1252   */\n      pop\n      pop\n      jump\t// out\n        /* \"#utility.yul\":1258:1468   */\n    tag_15:\n        /* \"#utility.yul\":1345:1349   */\n      0x00\n        /* \"#utility.yul\":1383:1385   */\n      0x20\n        /* \"#utility.yul\":1372:1381   */\n      dup3\n        /* \"#utility.yul\":1368:1386   */\n      add\n        /* \"#utility.yul\":1360:1386   */\n      swap1\n      pop\n        /* \"#utility.yul\":1396:1461   */\n      tag_105\n        /* \"#utility.yul\":1458:1459   */\n      0x00\n        /* \"#utility.yul\":1447:1456   */\n      dup4\n        /* \"#utility.yul\":1443:1460   */\n      add\n        /* \"#utility.yul\":1434:1440   */\n      dup5\n        /* \"#utility.yul\":1396:1461   */\n      tag_61\n      jump\t// in\n    tag_105:\n        /* \"#utility.yul\":1258:1468   */\n      swap3\n      swap2\n      pop\n      pop\n      jump\t// out\n        /* \"#utility.yul\":1555:1672   */\n    tag_63:\n        /* \"#utility.yul\":1664:1665   */\n      0x00\n        /* \"#utility.yul\":1661:1662   */\n      dup1\n        /* \"#utility.yul\":1654:1666   */\n      revert\n        /* \"#utility.yul\":1801:1897   */\n    tag_65:\n        /* \"#utility.yul\":1838:1845   */\n      0x00\n        /* \"#utility.yul\":1867:1891   */\n      tag_110\n        /* \"#utility.yul\":1885:1890   */\n      dup3\n        /* \"#utility.yul\":1867:1891   */\n      tag_54\n      jump\t// in\n    tag_110:\n        /* \"#utility.yul\":1856:1891   */\n      swap1\n      pop\n        /* \"#utility.yul\":1801:1897   */\n      swap2\n      swap1\n      pop\n      jump\t// out\n        /* \"#utility.yul\":1903:2025   */\n    tag_66:\n        /* \"#utility.yul\":1976:2000   */\n      tag_112\n        /* \"#utility.yul\":1994:1999   */\n      dup2\n        /* \"#utility.yul\":1976:2000   */\n      tag_65\n      jump\t// in\n    tag_112:\n        /* \"#utility.yul\":1969:1974   */\n      dup2\n        /* \"#utility.yul\":1966:2001   */\n      eq\n        /* \"#utility.yul\":1956:2019   */\n      tag_113\n      jumpi\n        /* \"#utility.yul\":2015:2016   */\n      0x00\n        /* \"#utility.yul\":2012:2013   */\n      dup1\n        /* \"#utility.yul\":2005:2017   */\n      revert\n        /* \"#utility.yul\":1956:2019   */\n    tag_113:\n        /* \"#utility.yul\":1903:2025   */\n      pop\n      jump\t// out\n        /* \"#utility.yul\":2031:2170   */\n    tag_67:\n        /* \"#utility.yul\":2077:2082   */\n      0x00\n        /* \"#utility.yul\":2115:2121   */\n      dup2\n        /* \"#utility.yul\":2102:2122   */\n      calldataload\n        /* \"#utility.yul\":2093:2122   */\n      swap1\n      pop\n        /* \"#utility.yul\":2131:2164   */\n      tag_115\n        /* \"#utility.yul\":2158:2163   */\n      dup2\n        /* \"#utility.yul\":2131:2164   */\n      tag_66\n      jump\t// in\n    tag_115:\n        /* \"#utility.yul\":2031:2170   */\n      swap3\n      swap2\n      pop\n      pop\n      jump\t// out\n        /* \"#utility.yul\":2176:2253   */\n    tag_68:\n        /* \"#utility.yul\":2213:2220   */\n      0x00\n        /* \"#utility.yul\":2242:2247   */\n      dup2\n        /* \"#utility.yul\":2231:2247   */\n      swap1\n      pop\n        /* \"#utility.yul\":2176:2253   */\n      swap2\n      swap1\n      pop\n      jump\t// out\n        /* \"#utility.yul\":2259:2381   */\n    tag_69:\n        /* \"#utility.yul\":2332:2356   */\n      tag_118\n        /* \"#utility.yul\":2350:2355   */\n      dup2\n        /* \"#utility.yul\":2332:2356   */\n      tag_68\n      jump\t// in\n    tag_118:\n        /* \"#utility.yul\":2325:2330   */\n      dup2\n        /* \"#utility.yul\":2322:2357   */\n      eq\n        /* \"#utility.yul\":2312:2375   */\n      tag_119\n      jumpi\n        /* \"#utility.yul\":2371:2372   */\n      0x00\n        /* \"#utility.yul\":2368:2369   */\n      dup1\n        /* \"#utility.yul\":2361:2373   */\n      revert\n        /* \"#utility.yul\":2312:2375   */\n    tag_119:\n        /* \"#utility.yul\":2259:2381   */\n      pop\n      jump\t// out\n        /* \"#utility.yul\":2387:2526   */\n    tag_70:\n        /* \"#utility.yul\":2433:2438   */\n      0x00\n        /* \"#utility.yul\":2471:2477   */\n      dup2\n        /* \"#utility.yul\":2458:2478   */\n      calldataload\n        /* \"#utility.yul\":2449:2478   */\n      swap1\n      pop\n        /* \"#utility.yul\":2487:2520   */\n      tag_121\n        /* \"#utility.yul\":2514:2519   */\n      dup2\n        /* \"#utility.yul\":2487:2520   */\n      tag_69\n      jump\t// in\n    tag_121:\n        /* \"#utility.yul\":2387:2526   */\n      swap3\n      swap2\n      pop\n      pop\n      jump\t// out\n        /* \"#utility.yul\":2532:3151   */\n    tag_18:\n        /* \"#utility.yul\":2609:2615   */\n      0x00\n        /* \"#utility.yul\":2617:2623   */\n      dup1\n        /* \"#utility.yul\":2625:2631   */\n      0x00\n        /* \"#utility.yul\":2674:2676   */\n      0x60\n        /* \"#utility.yul\":2662:2671   */\n      dup5\n        /* \"#utility.yul\":2653:2660   */\n      dup7\n        /* \"#utility.yul\":2649:2672   */\n      sub\n        /* \"#utility.yul\":2645:2677   */\n      slt\n        /* \"#utility.yul\":2642:2761   */\n      iszero\n      tag_123\n      jumpi\n        /* \"#utility.yul\":2680:2759   */\n      tag_124\n      tag_63\n      jump\t// in\n    tag_124:\n        /* \"#utility.yul\":2642:2761   */\n    tag_123:\n        /* \"#utility.yul\":2800:2801   */\n      0x00\n        /* \"#utility.yul\":2825:2878   */\n      tag_125\n        /* \"#utility.yul\":2870:2877   */\n      dup7\n        /* \"#utility.yul\":2861:2867   */\n      dup3\n        /* \"#utility.yul\":2850:2859   */\n      dup8\n        /* \"#utility.yul\":2846:2868   */\n      add\n        /* \"#utility.yul\":2825:2878   */\n      tag_67\n      jump\t// in\n    tag_125:\n        /* \"#utility.yul\":2815:2878   */\n      swap4\n      pop\n        /* \"#utility.yul\":2771:2888   */\n      pop\n        /* \"#utility.yul\":2927:2929   */\n      0x20\n        /* \"#utility.yul\":2953:3006   */\n      tag_126\n        /* \"#utility.yul\":2998:3005   */\n      dup7\n        /* \"#utility.yul\":2989:2995   */\n      dup3\n        /* \"#utility.yul\":2978:2987   */\n      dup8\n        /* \"#utility.yul\":2974:2996   */\n      add\n        /* \"#utility.yul\":2953:3006   */\n      tag_67\n      jump\t// in\n    tag_126:\n        /* \"#utility.yul\":2943:3006   */\n      swap3\n      pop\n        /* \"#utility.yul\":2898:3016   */\n      pop\n        /* \"#utility.yul\":3055:3057   */\n      0x40\n        /* \"#utility.yul\":3081:3134   */\n      tag_127\n        /* \"#utility.yul\":3126:3133   */\n      dup7\n        /* \"#utility.yul\":3117:3123   */\n      dup3\n        /* \"#utility.yul\":3106:3115   */\n      dup8\n        /* \"#utility.yul\":3102:3124   */\n      add\n        /* \"#utility.yul\":3081:3134   */\n      tag_70\n      jump\t// in\n    tag_127:\n        /* \"#utility.yul\":3071:3134   */\n      swap2\n      pop\n        /* \"#utility.yul\":3026:3144   */\n      pop\n        /* \"#utility.yul\":2532:3151   */\n      swap3\n      pop\n      swap3\n      pop\n      swap3\n      jump\t// out\n        /* \"#utility.yul\":3157:3256   */\n    tag_71:\n        /* \"#utility.yul\":3209:3215   */\n      0x00\n        /* \"#utility.yul\":3243:3248   */\n      dup2\n        /* \"#utility.yul\":3237:3249   */\n      mload\n        /* \"#utility.yul\":3227:3249   */\n      swap1\n      pop\n        /* \"#utility.yul\":3157:3256   */\n      swap2\n      swap1\n      pop\n      jump\t// out\n        /* \"#utility.yul\":3262:3431   */\n    tag_72:\n        /* \"#utility.yul\":3346:3357   */\n      0x00\n        /* \"#utility.yul\":3380:3386   */\n      dup3\n        /* \"#utility.yul\":3375:3378   */\n      dup3\n        /* \"#utility.yul\":3368:3387   */\n      mstore\n        /* \"#utility.yul\":3420:3424   */\n      0x20\n        /* \"#utility.yul\":3415:3418   */\n      dup3\n        /* \"#utility.yul\":3411:3425   */\n      add\n        /* \"#utility.yul\":3396:3425   */\n      swap1\n      pop\n        /* \"#utility.yul\":3262:3431   */\n      swap3\n      swap2\n      pop\n      pop\n      jump\t// out\n        /* \"#utility.yul\":3437:3683   */\n    tag_73:\n        /* \"#utility.yul\":3518:3519   */\n      0x00\n        /* \"#utility.yul\":3528:3641   */\n    tag_131:\n        /* \"#utility.yul\":3542:3548   */\n      dup4\n        /* \"#utility.yul\":3539:3540   */\n      dup2\n        /* \"#utility.yul\":3536:3549   */\n      lt\n        /* \"#utility.yul\":3528:3641   */\n      iszero\n      tag_133\n      jumpi\n        /* \"#utility.yul\":3627:3628   */\n      dup1\n        /* \"#utility.yul\":3622:3625   */\n      dup3\n        /* \"#utility.yul\":3618:3629   */\n      add\n        /* \"#utility.yul\":3612:3630   */\n      mload\n        /* \"#utility.yul\":3608:3609   */\n      dup2\n        /* \"#utility.yul\":3603:3606   */\n      dup5\n        /* \"#utility.yul\":3599:3610   */\n      add\n        /* \"#utility.yul\":3592:3631   */\n      mstore\n        /* \"#utility.yul\":3564:3566   */\n      0x20\n        /* \"#utility.yul\":3561:3562   */\n      dup2\n        /* \"#utility.yul\":3557:3567   */\n      add\n        /* \"#utility.yul\":3552:3567   */\n      swap1\n      pop\n        /* \"#utility.yul\":3528:3641   */\n      jump(tag_131)\n    tag_133:\n        /* \"#utility.yul\":3675:3676   */\n      0x00\n        /* \"#utility.yul\":3666:3672   */\n      dup5\n        /* \"#utility.yul\":3661:3664   */\n      dup5\n        /* \"#utility.yul\":3657:3673   */\n      add\n        /* \"#utility.yul\":3650:3677   */\n      mstore\n        /* \"#utility.yul\":3499:3683   */\n      pop\n        /* \"#utility.yul\":3437:3683   */\n      pop\n      pop\n      pop\n      jump\t// out\n        /* \"#utility.yul\":3689:3791   */\n    tag_74:\n        /* \"#utility.yul\":3730:3736   */\n      0x00\n        /* \"#utility.yul\":3781:3783   */\n      0x1f\n        /* \"#utility.yul\":3777:3784   */\n      not\n        /* \"#utility.yul\":3772:3774   */\n      0x1f\n        /* \"#utility.yul\":3765:3770   */\n      dup4\n        /* \"#utility.yul\":3761:3775   */\n      add\n        /* \"#utility.yul\":3757:3785   */\n      and\n        /* \"#utility.yul\":3747:3785   */\n      swap1\n      pop\n        /* \"#utility.yul\":3689:3791   */\n      swap2\n      swap1\n      pop\n      jump\t// out\n        /* \"#utility.yul\":3797:4174   */\n    tag_75:\n        /* \"#utility.yul\":3885:3888   */\n      0x00\n        /* \"#utility.yul\":3913:3952   */\n      tag_136\n        /* \"#utility.yul\":3946:3951   */\n      dup3\n        /* \"#utility.yul\":3913:3952   */\n      tag_71\n      jump\t// in\n    tag_136:\n        /* \"#utility.yul\":3968:4039   */\n      tag_137\n        /* \"#utility.yul\":4032:4038   */\n      dup2\n        /* \"#utility.yul\":4027:4030   */\n      dup6\n        /* \"#utility.yul\":3968:4039   */\n      tag_72\n      jump\t// in\n    tag_137:\n        /* \"#utility.yul\":3961:4039   */\n      swap4\n      pop\n        /* \"#utility.yul\":4048:4113   */\n      tag_138\n        /* \"#utility.yul\":4106:4112   */\n      dup2\n        /* \"#utility.yul\":4101:4104   */\n      dup6\n        /* \"#utility.yul\":4094:4098   */\n      0x20\n        /* \"#utility.yul\":4087:4092   */\n      dup7\n        /* \"#utility.yul\":4083:4099   */\n      add\n        /* \"#utility.yul\":4048:4113   */\n      tag_73\n      jump\t// in\n    tag_138:\n        /* \"#utility.yul\":4138:4167   */\n      tag_139\n        /* \"#utility.yul\":4160:4166   */\n      dup2\n        /* \"#utility.yul\":4138:4167   */\n      tag_74\n      jump\t// in\n    tag_139:\n        /* \"#utility.yul\":4133:4136   */\n      dup5\n        /* \"#utility.yul\":4129:4168   */\n      add\n        /* \"#utility.yul\":4122:4168   */\n      swap2\n      pop\n        /* \"#utility.yul\":3889:4174   */\n      pop\n        /* \"#utility.yul\":3797:4174   */\n      swap3\n      swap2\n      pop\n      pop\n      jump\t// out\n        /* \"#utility.yul\":4180:4493   */\n    tag_23:\n        /* \"#utility.yul\":4293:4297   */\n      0x00\n        /* \"#utility.yul\":4331:4333   */\n      0x20\n        /* \"#utility.yul\":4320:4329   */\n      dup3\n        /* \"#utility.yul\":4316:4334   */\n      add\n        /* \"#utility.yul\":4308:4334   */\n      swap1\n      pop\n        /* \"#utility.yul\":4380:4389   */\n      dup2\n        /* \"#utility.yul\":4374:4378   */\n      dup2\n        /* \"#utility.yul\":4370:4390   */\n      sub\n        /* \"#utility.yul\":4366:4367   */\n      0x00\n        /* \"#utility.yul\":4355:4364   */\n      dup4\n        /* \"#utility.yul\":4351:4368   */\n      add\n        /* \"#utility.yul\":4344:4391   */\n      mstore\n        /* \"#utility.yul\":4408:4486   */\n      tag_141\n        /* \"#utility.yul\":4481:4485   */\n      dup2\n        /* \"#utility.yul\":4472:4478   */\n      dup5\n        /* \"#utility.yul\":4408:4486   */\n      tag_75\n      jump\t// in\n    tag_141:\n        /* \"#utility.yul\":4400:4486   */\n      swap1\n      pop\n        /* \"#utility.yul\":4180:4493   */\n      swap3\n      swap2\n      pop\n      pop\n      jump\t// out\n        /* \"#utility.yul\":4499:4617   */\n    tag_76:\n        /* \"#utility.yul\":4586:4610   */\n      tag_143\n        /* \"#utility.yul\":4604:4609   */\n      dup2\n        /* \"#utility.yul\":4586:4610   */\n      tag_65\n      jump\t// in\n    tag_143:\n        /* \"#utility.yul\":4581:4584   */\n      dup3\n        /* \"#utility.yul\":4574:4611   */\n      mstore\n        /* \"#utility.yul\":4499:4617   */\n      pop\n      pop\n      jump\t// out\n        /* \"#utility.yul\":4623:4845   */\n    tag_27:\n        /* \"#utility.yul\":4716:4720   */\n      0x00\n        /* \"#utility.yul\":4754:4756   */\n      0x20\n        /* \"#utility.yul\":4743:4752   */\n      dup3\n        /* \"#utility.yul\":4739:4757   */\n      add\n        /* \"#utility.yul\":4731:4757   */\n      swap1\n      pop\n        /* \"#utility.yul\":4767:4838   */\n      tag_145\n        /* \"#utility.yul\":4835:4836   */\n      0x00\n        /* \"#utility.yul\":4824:4833   */\n      dup4\n        /* \"#utility.yul\":4820:4837   */\n      add\n        /* \"#utility.yul\":4811:4817   */\n      dup5\n        /* \"#utility.yul\":4767:4838   */\n      tag_76\n      jump\t// in\n    tag_145:\n        /* \"#utility.yul\":4623:4845   */\n      swap3\n      swap2\n      pop\n      pop\n      jump\t// out\n        /* \"#utility.yul\":4851:4969   */\n    tag_77:\n        /* \"#utility.yul\":4938:4962   */\n      tag_147\n        /* \"#utility.yul\":4956:4961   */\n      dup2\n        /* \"#utility.yul\":4938:4962   */\n      tag_68\n      jump\t// in\n    tag_147:\n        /* \"#utility.yul\":4933:4936   */\n      dup3\n        /* \"#utility.yul\":4926:4963   */\n      mstore\n        /* \"#utility.yul\":4851:4969   */\n      pop\n      pop\n      jump\t// out\n        /* \"#utility.yul\":4975:5417   */\n    tag_30:\n        /* \"#utility.yul\":5124:5128   */\n      0x00\n        /* \"#utility.yul\":5162:5164   */\n      0x60\n        /* \"#utility.yul\":5151:5160   */\n      dup3\n        /* \"#utility.yul\":5147:5165   */\n      add\n        /* \"#utility.yul\":5139:5165   */\n      swap1\n      pop\n        /* \"#utility.yul\":5175:5246   */\n      tag_149\n        /* \"#utility.yul\":5243:5244   */\n      0x00\n        /* \"#utility.yul\":5232:5241   */\n      dup4\n        /* \"#utility.yul\":5228:5245   */\n      add\n        /* \"#utility.yul\":5219:5225   */\n      dup7\n        /* \"#utility.yul\":5175:5246   */\n      tag_76\n      jump\t// in\n    tag_149:\n        /* \"#utility.yul\":5256:5328   */\n      tag_150\n        /* \"#utility.yul\":5324:5326   */\n      0x20\n        /* \"#utility.yul\":5313:5322   */\n      dup4\n        /* \"#utility.yul\":5309:5327   */\n      add\n        /* \"#utility.yul\":5300:5306   */\n      dup6\n        /* \"#utility.yul\":5256:5328   */\n      tag_76\n      jump\t// in\n    tag_150:\n        /* \"#utility.yul\":5338:5410   */\n      tag_151\n        /* \"#utility.yul\":5406:5408   */\n      0x40\n        /* \"#utility.yul\":5395:5404   */\n      dup4\n        /* \"#utility.yul\":5391:5409   */\n      add\n        /* \"#utility.yul\":5382:5388   */\n      dup5\n        /* \"#utility.yul\":5338:5410   */\n      tag_77\n      jump\t// in\n    tag_151:\n        /* \"#utility.yul\":4975:5417   */\n      swap5\n      swap4\n      pop\n      pop\n      pop\n      pop\n      jump\t// out\n        /* \"#utility.yul\":5423:5539   */\n    tag_78:\n        /* \"#utility.yul\":5493:5514   */\n      tag_153\n        /* \"#utility.yul\":5508:5513   */\n      dup2\n        /* \"#utility.yul\":5493:5514   */\n      tag_60\n      jump\t// in\n    tag_153:\n        /* \"#utility.yul\":5486:5491   */\n      dup2\n        /* \"#utility.yul\":5483:5515   */\n      eq\n        /* \"#utility.yul\":5473:5533   */\n      tag_154\n      jumpi\n        /* \"#utility.yul\":5529:5530   */\n      0x00\n        /* \"#utility.yul\":5526:5527   */\n      dup1\n        /* \"#utility.yul\":5519:5531   */\n      revert\n        /* \"#utility.yul\":5473:5533   */\n    tag_154:\n        /* \"#utility.yul\":5423:5539   */\n      pop\n      jump\t// out\n        /* \"#utility.yul\":5545:5682   */\n    tag_79:\n        /* \"#utility.yul\":5599:5604   */\n      0x00\n        /* \"#utility.yul\":5630:5636   */\n      dup2\n        /* \"#utility.yul\":5624:5637   */\n      mload\n        /* \"#utility.yul\":5615:5637   */\n      swap1\n      pop\n        /* \"#utility.yul\":5646:5676   */\n      tag_156\n        /* \"#utility.yul\":5670:5675   */\n      dup2\n        /* \"#utility.yul\":5646:5676   */\n      tag_78\n      jump\t// in\n    tag_156:\n        /* \"#utility.yul\":5545:5682   */\n      swap3\n      swap2\n      pop\n      pop\n      jump\t// out\n        /* \"#utility.yul\":5688:6033   */\n    tag_34:\n        /* \"#utility.yul\":5755:5761   */\n      0x00\n        /* \"#utility.yul\":5804:5806   */\n      0x20\n        /* \"#utility.yul\":5792:5801   */\n      dup3\n        /* \"#utility.yul\":5783:5790   */\n      dup5\n        /* \"#utility.yul\":5779:5802   */\n      sub\n        /* \"#utility.yul\":5775:5807   */\n      slt\n        /* \"#utility.yul\":5772:5891   */\n      iszero\n      tag_158\n      jumpi\n        /* \"#utility.yul\":5810:5889   */\n      tag_159\n      tag_63\n      jump\t// in\n    tag_159:\n        /* \"#utility.yul\":5772:5891   */\n    tag_158:\n        /* \"#utility.yul\":5930:5931   */\n      0x00\n        /* \"#utility.yul\":5955:6016   */\n      tag_160\n        /* \"#utility.yul\":6008:6015   */\n      dup5\n        /* \"#utility.yul\":5999:6005   */\n      dup3\n        /* \"#utility.yul\":5988:5997   */\n      dup6\n        /* \"#utility.yul\":5984:6006   */\n      add\n        /* \"#utility.yul\":5955:6016   */\n      tag_79\n      jump\t// in\n    tag_160:\n        /* \"#utility.yul\":5945:6016   */\n      swap2\n      pop\n        /* \"#utility.yul\":5901:6026   */\n      pop\n        /* \"#utility.yul\":5688:6033   */\n      swap3\n      swap2\n      pop\n      pop\n      jump\t// out\n        /* \"#utility.yul\":6039:6182   */\n    tag_80:\n        /* \"#utility.yul\":6096:6101   */\n      0x00\n        /* \"#utility.yul\":6127:6133   */\n      dup2\n        /* \"#utility.yul\":6121:6134   */\n      mload\n        /* \"#utility.yul\":6112:6134   */\n      swap1\n      pop\n        /* \"#utility.yul\":6143:6176   */\n      tag_162\n        /* \"#utility.yul\":6170:6175   */\n      dup2\n        /* \"#utility.yul\":6143:6176   */\n      tag_69\n      jump\t// in\n    tag_162:\n        /* \"#utility.yul\":6039:6182   */\n      swap3\n      swap2\n      pop\n      pop\n      jump\t// out\n        /* \"#utility.yul\":6188:6539   */\n    tag_41:\n        /* \"#utility.yul\":6258:6264   */\n      0x00\n        /* \"#utility.yul\":6307:6309   */\n      0x20\n        /* \"#utility.yul\":6295:6304   */\n      dup3\n        /* \"#utility.yul\":6286:6293   */\n      dup5\n        /* \"#utility.yul\":6282:6305   */\n      sub\n        /* \"#utility.yul\":6278:6310   */\n      slt\n        /* \"#utility.yul\":6275:6394   */\n      iszero\n      tag_164\n      jumpi\n        /* \"#utility.yul\":6313:6392   */\n      tag_165\n      tag_63\n      jump\t// in\n    tag_165:\n        /* \"#utility.yul\":6275:6394   */\n    tag_164:\n        /* \"#utility.yul\":6433:6434   */\n      0x00\n        /* \"#utility.yul\":6458:6522   */\n      tag_166\n        /* \"#utility.yul\":6514:6521   */\n      dup5\n        /* \"#utility.yul\":6505:6511   */\n      dup3\n        /* \"#utility.yul\":6494:6503   */\n      dup6\n        /* \"#utility.yul\":6490:6512   */\n      add\n        /* \"#utility.yul\":6458:6522   */\n      tag_80\n      jump\t// in\n    tag_166:\n        /* \"#utility.yul\":6448:6522   */\n      swap2\n      pop\n        /* \"#utility.yul\":6404:6532   */\n      pop\n        /* \"#utility.yul\":6188:6539   */\n      swap3\n      swap2\n      pop\n      pop\n      jump\t// out\n        /* \"#utility.yul\":6545:6716   */\n    tag_81:\n        /* \"#utility.yul\":6685:6708   */\n      0x4c6120616e6369616e61207369677565206d616c610000000000000000000000\n        /* \"#utility.yul\":6681:6682   */\n      0x00\n        /* \"#utility.yul\":6673:6679   */\n      dup3\n        /* \"#utility.yul\":6669:6683   */\n      add\n        /* \"#utility.yul\":6662:6709   */\n      mstore\n        /* \"#utility.yul\":6545:6716   */\n      pop\n      jump\t// out\n        /* \"#utility.yul\":6722:7088   */\n    tag_82:\n        /* \"#utility.yul\":6864:6867   */\n      0x00\n        /* \"#utility.yul\":6885:6952   */\n      tag_169\n        /* \"#utility.yul\":6949:6951   */\n      0x15\n        /* \"#utility.yul\":6944:6947   */\n      dup4\n        /* \"#utility.yul\":6885:6952   */\n      tag_72\n      jump\t// in\n    tag_169:\n        /* \"#utility.yul\":6878:6952   */\n      swap2\n      pop\n        /* \"#utility.yul\":6961:7054   */\n      tag_170\n        /* \"#utility.yul\":7050:7053   */\n      dup3\n        /* \"#utility.yul\":6961:7054   */\n      tag_81\n      jump\t// in\n    tag_170:\n        /* \"#utility.yul\":7079:7081   */\n      0x20\n        /* \"#utility.yul\":7074:7077   */\n      dup3\n        /* \"#utility.yul\":7070:7082   */\n      add\n        /* \"#utility.yul\":7063:7082   */\n      swap1\n      pop\n        /* \"#utility.yul\":6722:7088   */\n      swap2\n      swap1\n      pop\n      jump\t// out\n        /* \"#utility.yul\":7094:7513   */\n    tag_44:\n        /* \"#utility.yul\":7260:7264   */\n      0x00\n        /* \"#utility.yul\":7298:7300   */\n      0x20\n        /* \"#utility.yul\":7287:7296   */\n      dup3\n        /* \"#utility.yul\":7283:7301   */\n      add\n        /* \"#utility.yul\":7275:7301   */\n      swap1\n      pop\n        /* \"#utility.yul\":7347:7356   */\n      dup2\n        /* \"#utility.yul\":7341:7345   */\n      dup2\n        /* \"#utility.yul\":7337:7357   */\n      sub\n        /* \"#utility.yul\":7333:7334   */\n      0x00\n        /* \"#utility.yul\":7322:7331   */\n      dup4\n        /* \"#utility.yul\":7318:7335   */\n      add\n        /* \"#utility.yul\":7311:7358   */\n      mstore\n        /* \"#utility.yul\":7375:7506   */\n      tag_172\n        /* \"#utility.yul\":7501:7505   */\n      dup2\n        /* \"#utility.yul\":7375:7506   */\n      tag_82\n      jump\t// in\n    tag_172:\n        /* \"#utility.yul\":7367:7506   */\n      swap1\n      pop\n        /* \"#utility.yul\":7094:7513   */\n      swap2\n      swap1\n      pop\n      jump\t// out\n        /* \"#utility.yul\":7519:7684   */\n    tag_83:\n        /* \"#utility.yul\":7659:7676   */\n      0x4e6f207075656465732070617361720000000000000000000000000000000000\n        /* \"#utility.yul\":7655:7656   */\n      0x00\n        /* \"#utility.yul\":7647:7653   */\n      dup3\n        /* \"#utility.yul\":7643:7657   */\n      add\n        /* \"#utility.yul\":7636:7677   */\n      mstore\n        /* \"#utility.yul\":7519:7684   */\n      pop\n      jump\t// out\n        /* \"#utility.yul\":7690:8056   */\n    tag_84:\n        /* \"#utility.yul\":7832:7835   */\n      0x00\n        /* \"#utility.yul\":7853:7920   */\n      tag_175\n        /* \"#utility.yul\":7917:7919   */\n      0x0f\n        /* \"#utility.yul\":7912:7915   */\n      dup4\n        /* \"#utility.yul\":7853:7920   */\n      tag_72\n      jump\t// in\n    tag_175:\n        /* \"#utility.yul\":7846:7920   */\n      swap2\n      pop\n        /* \"#utility.yul\":7929:8022   */\n      tag_176\n        /* \"#utility.yul\":8018:8021   */\n      dup3\n        /* \"#utility.yul\":7929:8022   */\n      tag_83\n      jump\t// in\n    tag_176:\n        /* \"#utility.yul\":8047:8049   */\n      0x20\n        /* \"#utility.yul\":8042:8045   */\n      dup3\n        /* \"#utility.yul\":8038:8050   */\n      add\n        /* \"#utility.yul\":8031:8050   */\n      swap1\n      pop\n        /* \"#utility.yul\":7690:8056   */\n      swap2\n      swap1\n      pop\n      jump\t// out\n        /* \"#utility.yul\":8062:8481   */\n    tag_47:\n        /* \"#utility.yul\":8228:8232   */\n      0x00\n        /* \"#utility.yul\":8266:8268   */\n      0x20\n        /* \"#utility.yul\":8255:8264   */\n      dup3\n        /* \"#utility.yul\":8251:8269   */\n      add\n        /* \"#utility.yul\":8243:8269   */\n      swap1\n      pop\n        /* \"#utility.yul\":8315:8324   */\n      dup2\n        /* \"#utility.yul\":8309:8313   */\n      dup2\n        /* \"#utility.yul\":8305:8325   */\n      sub\n        /* \"#utility.yul\":8301:8302   */\n      0x00\n        /* \"#utility.yul\":8290:8299   */\n      dup4\n        /* \"#utility.yul\":8286:8303   */\n      add\n        /* \"#utility.yul\":8279:8326   */\n      mstore\n        /* \"#utility.yul\":8343:8474   */\n      tag_178\n        /* \"#utility.yul\":8469:8473   */\n      dup2\n        /* \"#utility.yul\":8343:8474   */\n      tag_84\n      jump\t// in\n    tag_178:\n        /* \"#utility.yul\":8335:8474   */\n      swap1\n      pop\n        /* \"#utility.yul\":8062:8481   */\n      swap2\n      swap1\n      pop\n      jump\t// out\n        /* \"#utility.yul\":8487:8667   */\n    tag_85:\n        /* \"#utility.yul\":8535:8612   */\n      0x4e487b7100000000000000000000000000000000000000000000000000000000\n        /* \"#utility.yul\":8532:8533   */\n      0x00\n        /* \"#utility.yul\":8525:8613   */\n      mstore\n        /* \"#utility.yul\":8632:8636   */\n      0x22\n        /* \"#utility.yul\":8629:8630   */\n      0x04\n        /* \"#utility.yul\":8622:8637   */\n      mstore\n        /* \"#utility.yul\":8656:8660   */\n      0x24\n        /* \"#utility.yul\":8653:8654   */\n      0x00\n        /* \"#utility.yul\":8646:8661   */\n      revert\n        /* \"#utility.yul\":8673:8993   */\n    tag_49:\n        /* \"#utility.yul\":8717:8723   */\n      0x00\n        /* \"#utility.yul\":8754:8755   */\n      0x02\n        /* \"#utility.yul\":8748:8752   */\n      dup3\n        /* \"#utility.yul\":8744:8756   */\n      div\n        /* \"#utility.yul\":8734:8756   */\n      swap1\n      pop\n        /* \"#utility.yul\":8801:8802   */\n      0x01\n        /* \"#utility.yul\":8795:8799   */\n      dup3\n        /* \"#utility.yul\":8791:8803   */\n      and\n        /* \"#utility.yul\":8822:8840   */\n      dup1\n        /* \"#utility.yul\":8812:8893   */\n      tag_181\n      jumpi\n        /* \"#utility.yul\":8878:8882   */\n      0x7f\n        /* \"#utility.yul\":8870:8876   */\n      dup3\n        /* \"#utility.yul\":8866:8883   */\n      and\n        /* \"#utility.yul\":8856:8883   */\n      swap2\n      pop\n        /* \"#utility.yul\":8812:8893   */\n    tag_181:\n        /* \"#utility.yul\":8940:8942   */\n      0x20\n        /* \"#utility.yul\":8932:8938   */\n      dup3\n        /* \"#utility.yul\":8929:8943   */\n      lt\n        /* \"#utility.yul\":8909:8927   */\n      dup2\n        /* \"#utility.yul\":8906:8944   */\n      sub\n        /* \"#utility.yul\":8903:8987   */\n      tag_182\n      jumpi\n        /* \"#utility.yul\":8959:8977   */\n      tag_183\n      tag_85\n      jump\t// in\n    tag_183:\n        /* \"#utility.yul\":8903:8987   */\n    tag_182:\n        /* \"#utility.yul\":8724:8993   */\n      pop\n        /* \"#utility.yul\":8673:8993   */\n      swap2\n      swap1\n      pop\n      jump\t// out\n\n    auxdata: 0xa26469706673582212204db5776a0bc18a4b1626ceb9b3a51003c09ff1a427f839d761ed90f9049ab4ec64736f6c63430008170033\n}\n",
				"bytecode": {
					"linkReferences": {},
					"object": "608060405234801562000010575f80fd5b5060405162000f1a38038062000f1a8339818101604052810190620000369190620002f9565b825f806101000a81548173ffffffffffffffffffffffffffffffffffffffff021916908373ffffffffffffffffffffffffffffffffffffffff1602179055508160019081620000869190620005a8565b5080600260016101000a81548173ffffffffffffffffffffffffffffffffffffffff021916908373ffffffffffffffffffffffffffffffffffffffff1602179055505050506200068c565b5f604051905090565b5f80fd5b5f80fd5b5f73ffffffffffffffffffffffffffffffffffffffff82169050919050565b5f6200010d82620000e2565b9050919050565b5f620001208262000101565b9050919050565b620001328162000114565b81146200013d575f80fd5b50565b5f81519050620001508162000127565b92915050565b5f80fd5b5f80fd5b5f601f19601f8301169050919050565b7f4e487b71000000000000000000000000000000000000000000000000000000005f52604160045260245ffd5b620001a6826200015e565b810181811067ffffffffffffffff82111715620001c857620001c76200016e565b5b80604052505050565b5f620001dc620000d1565b9050620001ea82826200019b565b919050565b5f67ffffffffffffffff8211156200020c576200020b6200016e565b5b62000217826200015e565b9050602081019050919050565b5f5b838110156200024357808201518184015260208101905062000226565b5f8484015250505050565b5f620002646200025e84620001ef565b620001d1565b9050828152602081018484840111156200028357620002826200015a565b5b6200029084828562000224565b509392505050565b5f82601f830112620002af57620002ae62000156565b5b8151620002c18482602086016200024e565b91505092915050565b620002d58162000101565b8114620002e0575f80fd5b50565b5f81519050620002f381620002ca565b92915050565b5f805f60608486031215620003135762000312620000da565b5b5f620003228682870162000140565b935050602084015167ffffffffffffffff811115620003465762000345620000de565b5b620003548682870162000298565b92505060406200036786828701620002e3565b9150509250925092565b5f81519050919050565b7f4e487b71000000000000000000000000000000000000000000000000000000005f52602260045260245ffd5b5f6002820490506001821680620003c057607f821691505b602082108103620003d657620003d56200037b565b5b50919050565b5f819050815f5260205f209050919050565b5f6020601f8301049050919050565b5f82821b905092915050565b5f600883026200043a7fffffffffffffffffffffffffffffffffffffffffffffffffffffffffffffffff82620003fd565b620004468683620003fd565b95508019841693508086168417925050509392505050565b5f819050919050565b5f819050919050565b5f620004906200048a62000484846200045e565b62000467565b6200045e565b9050919050565b5f819050919050565b620004ab8362000470565b620004c3620004ba8262000497565b84845462000409565b825550505050565b5f90565b620004d9620004cb565b620004e6818484620004a0565b505050565b5b818110156200050d57620005015f82620004cf565b600181019050620004ec565b5050565b601f8211156200055c576200052681620003dc565b6200053184620003ee565b8101602085101562000541578190505b620005596200055085620003ee565b830182620004eb565b50505b505050565b5f82821c905092915050565b5f6200057e5f198460080262000561565b1980831691505092915050565b5f6200059883836200056d565b9150826002028217905092915050565b620005b38262000371565b67ffffffffffffffff811115620005cf57620005ce6200016e565b5b620005db8254620003a8565b620005e882828562000511565b5f60209050601f8311600181146200061e575f841562000609578287015190505b6200061585826200058b565b86555062000684565b601f1984166200062e86620003dc565b5f5b82811015620006575784890151825560018201915060208501945060208101905062000630565b8683101562000677578489015162000673601f8916826200056d565b8355505b6001600288020188555050505b505050505050565b610880806200069a5f395ff3fe608060405234801561000f575f80fd5b5060043610610055575f3560e01c80638a13eea71461005957806396f01bde14610077578063f5537ede14610095578063f9633930146100b1578063fa48b77e146100cf575b5f80fd5b6100616100ed565b60405161006e9190610465565b60405180910390f35b61007f610110565b60405161008c9190610498565b60405180910390f35b6100af60048036038101906100aa9190610523565b610122565b005b6100b96101e5565b6040516100c691906105fd565b60405180910390f35b6100d76103c5565b6040516100e4919061062c565b60405180910390f35b5f8054906101000a900473ffffffffffffffffffffffffffffffffffffffff1681565b60025f9054906101000a900460ff1681565b5f8054906101000a900473ffffffffffffffffffffffffffffffffffffffff1673ffffffffffffffffffffffffffffffffffffffff166323b872dd8484846040518463ffffffff1660e01b815260040161017e93929190610654565b6020604051808303815f875af115801561019a573d5f803e3d5ffd5b505050506040513d601f19601f820116820180604052508101906101be91906106b3565b6101c6575f80fd5b600160025f6101000a81548160ff021916908315150217905550505050565b60605f805f9054906101000a900473ffffffffffffffffffffffffffffffffffffffff1673ffffffffffffffffffffffffffffffffffffffff166370a08231600260019054906101000a900473ffffffffffffffffffffffffffffffffffffffff166040518263ffffffff1660e01b8152600401610263919061062c565b602060405180830381865afa15801561027e573d5f803e3d5ffd5b505050506040513d601f19601f820116820180604052508101906102a291906106f2565b116102e2576040517f08c379a00000000000000000000000000000000000000000000000000000000081526004016102d990610767565b60405180910390fd5b6001151560025f9054906101000a900460ff16151514610337576040517f08c379a000000000000000000000000000000000000000000000000000000000815260040161032e906107cf565b60405180910390fd5b600180546103449061081a565b80601f01602080910402602001604051908101604052809291908181526020018280546103709061081a565b80156103bb5780601f10610392576101008083540402835291602001916103bb565b820191905f5260205f20905b81548152906001019060200180831161039e57829003601f168201915b5050505050905090565b600260019054906101000a900473ffffffffffffffffffffffffffffffffffffffff1681565b5f73ffffffffffffffffffffffffffffffffffffffff82169050919050565b5f819050919050565b5f61042d610428610423846103eb565b61040a565b6103eb565b9050919050565b5f61043e82610413565b9050919050565b5f61044f82610434565b9050919050565b61045f81610445565b82525050565b5f6020820190506104785f830184610456565b92915050565b5f8115159050919050565b6104928161047e565b82525050565b5f6020820190506104ab5f830184610489565b92915050565b5f80fd5b5f6104bf826103eb565b9050919050565b6104cf816104b5565b81146104d9575f80fd5b50565b5f813590506104ea816104c6565b92915050565b5f819050919050565b610502816104f0565b811461050c575f80fd5b50565b5f8135905061051d816104f9565b92915050565b5f805f6060848603121561053a576105396104b1565b5b5f610547868287016104dc565b9350506020610558868287016104dc565b92505060406105698682870161050f565b9150509250925092565b5f81519050919050565b5f82825260208201905092915050565b5f5b838110156105aa57808201518184015260208101905061058f565b5f8484015250505050565b5f601f19601f8301169050919050565b5f6105cf82610573565b6105d9818561057d565b93506105e981856020860161058d565b6105f2816105b5565b840191505092915050565b5f6020820190508181035f83015261061581846105c5565b905092915050565b610626816104b5565b82525050565b5f60208201905061063f5f83018461061d565b92915050565b61064e816104f0565b82525050565b5f6060820190506106675f83018661061d565b610674602083018561061d565b6106816040830184610645565b949350505050565b6106928161047e565b811461069c575f80fd5b50565b5f815190506106ad81610689565b92915050565b5f602082840312156106c8576106c76104b1565b5b5f6106d58482850161069f565b91505092915050565b5f815190506106ec816104f9565b92915050565b5f60208284031215610707576107066104b1565b5b5f610714848285016106de565b91505092915050565b7f4c6120616e6369616e61207369677565206d616c6100000000000000000000005f82015250565b5f61075160158361057d565b915061075c8261071d565b602082019050919050565b5f6020820190508181035f83015261077e81610745565b9050919050565b7f4e6f2070756564657320706173617200000000000000000000000000000000005f82015250565b5f6107b9600f8361057d565b91506107c482610785565b602082019050919050565b5f6020820190508181035f8301526107e6816107ad565b9050919050565b7f4e487b71000000000000000000000000000000000000000000000000000000005f52602260045260245ffd5b5f600282049050600182168061083157607f821691505b602082108103610844576108436107ed565b5b5091905056fea26469706673582212204db5776a0bc18a4b1626ceb9b3a51003c09ff1a427f839d761ed90f9049ab4ec64736f6c63430008170033",
					"opcodes": "PUSH1 0x80 PUSH1 0x40 MSTORE CALLVALUE DUP1 ISZERO PUSH3 0x10 JUMPI PUSH0 DUP1 REVERT JUMPDEST POP PUSH1 0x40 MLOAD PUSH3 0xF1A CODESIZE SUB DUP1 PUSH3 0xF1A DUP4 CODECOPY DUP2 DUP2 ADD PUSH1 0x40 MSTORE DUP2 ADD SWAP1 PUSH3 0x36 SWAP2 SWAP1 PUSH3 0x2F9 JUMP JUMPDEST DUP3 PUSH0 DUP1 PUSH2 0x100 EXP DUP2 SLOAD DUP2 PUSH20 0xFFFFFFFFFFFFFFFFFFFFFFFFFFFFFFFFFFFFFFFF MUL NOT AND SWAP1 DUP4 PUSH20 0xFFFFFFFFFFFFFFFFFFFFFFFFFFFFFFFFFFFFFFFF AND MUL OR SWAP1 SSTORE POP DUP2 PUSH1 0x1 SWAP1 DUP2 PUSH3 0x86 SWAP2 SWAP1 PUSH3 0x5A8 JUMP JUMPDEST POP DUP1 PUSH1 0x2 PUSH1 0x1 PUSH2 0x100 EXP DUP2 SLOAD DUP2 PUSH20 0xFFFFFFFFFFFFFFFFFFFFFFFFFFFFFFFFFFFFFFFF MUL NOT AND SWAP1 DUP4 PUSH20 0xFFFFFFFFFFFFFFFFFFFFFFFFFFFFFFFFFFFFFFFF AND MUL OR SWAP1 SSTORE POP POP POP POP PUSH3 0x68C JUMP JUMPDEST PUSH0 PUSH1 0x40 MLOAD SWAP1 POP SWAP1 JUMP JUMPDEST PUSH0 DUP1 REVERT JUMPDEST PUSH0 DUP1 REVERT JUMPDEST PUSH0 PUSH20 0xFFFFFFFFFFFFFFFFFFFFFFFFFFFFFFFFFFFFFFFF DUP3 AND SWAP1 POP SWAP2 SWAP1 POP JUMP JUMPDEST PUSH0 PUSH3 0x10D DUP3 PUSH3 0xE2 JUMP JUMPDEST SWAP1 POP SWAP2 SWAP1 POP JUMP JUMPDEST PUSH0 PUSH3 0x120 DUP3 PUSH3 0x101 JUMP JUMPDEST SWAP1 POP SWAP2 SWAP1 POP JUMP JUMPDEST PUSH3 0x132 DUP2 PUSH3 0x114 JUMP JUMPDEST DUP2 EQ PUSH3 0x13D JUMPI PUSH0 DUP1 REVERT JUMPDEST POP JUMP JUMPDEST PUSH0 DUP2 MLOAD SWAP1 POP PUSH3 0x150 DUP2 PUSH3 0x127 JUMP JUMPDEST SWAP3 SWAP2 POP POP JUMP JUMPDEST PUSH0 DUP1 REVERT JUMPDEST PUSH0 DUP1 REVERT JUMPDEST PUSH0 PUSH1 0x1F NOT PUSH1 0x1F DUP4 ADD AND SWAP1 POP SWAP2 SWAP1 POP JUMP JUMPDEST PUSH32 0x4E487B7100000000000000000000000000000000000000000000000000000000 PUSH0 MSTORE PUSH1 0x41 PUSH1 0x4 MSTORE PUSH1 0x24 PUSH0 REVERT JUMPDEST PUSH3 0x1A6 DUP3 PUSH3 0x15E JUMP JUMPDEST DUP2 ADD DUP2 DUP2 LT PUSH8 0xFFFFFFFFFFFFFFFF DUP3 GT OR ISZERO PUSH3 0x1C8 JUMPI PUSH3 0x1C7 PUSH3 0x16E JUMP JUMPDEST JUMPDEST DUP1 PUSH1 0x40 MSTORE POP POP POP JUMP JUMPDEST PUSH0 PUSH3 0x1DC PUSH3 0xD1 JUMP JUMPDEST SWAP1 POP PUSH3 0x1EA DUP3 DUP3 PUSH3 0x19B JUMP JUMPDEST SWAP2 SWAP1 POP JUMP JUMPDEST PUSH0 PUSH8 0xFFFFFFFFFFFFFFFF DUP3 GT ISZERO PUSH3 0x20C JUMPI PUSH3 0x20B PUSH3 0x16E JUMP JUMPDEST JUMPDEST PUSH3 0x217 DUP3 PUSH3 0x15E JUMP JUMPDEST SWAP1 POP PUSH1 0x20 DUP2 ADD SWAP1 POP SWAP2 SWAP1 POP JUMP JUMPDEST PUSH0 JUMPDEST DUP4 DUP2 LT ISZERO PUSH3 0x243 JUMPI DUP1 DUP3 ADD MLOAD DUP2 DUP5 ADD MSTORE PUSH1 0x20 DUP2 ADD SWAP1 POP PUSH3 0x226 JUMP JUMPDEST PUSH0 DUP5 DUP5 ADD MSTORE POP POP POP POP JUMP JUMPDEST PUSH0 PUSH3 0x264 PUSH3 0x25E DUP5 PUSH3 0x1EF JUMP JUMPDEST PUSH3 0x1D1 JUMP JUMPDEST SWAP1 POP DUP3 DUP2 MSTORE PUSH1 0x20 DUP2 ADD DUP5 DUP5 DUP5 ADD GT ISZERO PUSH3 0x283 JUMPI PUSH3 0x282 PUSH3 0x15A JUMP JUMPDEST JUMPDEST PUSH3 0x290 DUP5 DUP3 DUP6 PUSH3 0x224 JUMP JUMPDEST POP SWAP4 SWAP3 POP POP POP JUMP JUMPDEST PUSH0 DUP3 PUSH1 0x1F DUP4 ADD SLT PUSH3 0x2AF JUMPI PUSH3 0x2AE PUSH3 0x156 JUMP JUMPDEST JUMPDEST DUP2 MLOAD PUSH3 0x2C1 DUP5 DUP3 PUSH1 0x20 DUP7 ADD PUSH3 0x24E JUMP JUMPDEST SWAP2 POP POP SWAP3 SWAP2 POP POP JUMP JUMPDEST PUSH3 0x2D5 DUP2 PUSH3 0x101 JUMP JUMPDEST DUP2 EQ PUSH3 0x2E0 JUMPI PUSH0 DUP1 REVERT JUMPDEST POP JUMP JUMPDEST PUSH0 DUP2 MLOAD SWAP1 POP PUSH3 0x2F3 DUP2 PUSH3 0x2CA JUMP JUMPDEST SWAP3 SWAP2 POP POP JUMP JUMPDEST PUSH0 DUP1 PUSH0 PUSH1 0x60 DUP5 DUP7 SUB SLT ISZERO PUSH3 0x313 JUMPI PUSH3 0x312 PUSH3 0xDA JUMP JUMPDEST JUMPDEST PUSH0 PUSH3 0x322 DUP7 DUP3 DUP8 ADD PUSH3 0x140 JUMP JUMPDEST SWAP4 POP POP PUSH1 0x20 DUP5 ADD MLOAD PUSH8 0xFFFFFFFFFFFFFFFF DUP2 GT ISZERO PUSH3 0x346 JUMPI PUSH3 0x345 PUSH3 0xDE JUMP JUMPDEST JUMPDEST PUSH3 0x354 DUP7 DUP3 DUP8 ADD PUSH3 0x298 JUMP JUMPDEST SWAP3 POP POP PUSH1 0x40 PUSH3 0x367 DUP7 DUP3 DUP8 ADD PUSH3 0x2E3 JUMP JUMPDEST SWAP2 POP POP SWAP3 POP SWAP3 POP SWAP3 JUMP JUMPDEST PUSH0 DUP2 MLOAD SWAP1 POP SWAP2 SWAP1 POP JUMP JUMPDEST PUSH32 0x4E487B7100000000000000000000000000000000000000000000000000000000 PUSH0 MSTORE PUSH1 0x22 PUSH1 0x4 MSTORE PUSH1 0x24 PUSH0 REVERT JUMPDEST PUSH0 PUSH1 0x2 DUP3 DIV SWAP1 POP PUSH1 0x1 DUP3 AND DUP1 PUSH3 0x3C0 JUMPI PUSH1 0x7F DUP3 AND SWAP2 POP JUMPDEST PUSH1 0x20 DUP3 LT DUP2 SUB PUSH3 0x3D6 JUMPI PUSH3 0x3D5 PUSH3 0x37B JUMP JUMPDEST JUMPDEST POP SWAP2 SWAP1 POP JUMP JUMPDEST PUSH0 DUP2 SWAP1 POP DUP2 PUSH0 MSTORE PUSH1 0x20 PUSH0 KECCAK256 SWAP1 POP SWAP2 SWAP1 POP JUMP JUMPDEST PUSH0 PUSH1 0x20 PUSH1 0x1F DUP4 ADD DIV SWAP1 POP SWAP2 SWAP1 POP JUMP JUMPDEST PUSH0 DUP3 DUP3 SHL SWAP1 POP SWAP3 SWAP2 POP POP JUMP JUMPDEST PUSH0 PUSH1 0x8 DUP4 MUL PUSH3 0x43A PUSH32 0xFFFFFFFFFFFFFFFFFFFFFFFFFFFFFFFFFFFFFFFFFFFFFFFFFFFFFFFFFFFFFFFF DUP3 PUSH3 0x3FD JUMP JUMPDEST PUSH3 0x446 DUP7 DUP4 PUSH3 0x3FD JUMP JUMPDEST SWAP6 POP DUP1 NOT DUP5 AND SWAP4 POP DUP1 DUP7 AND DUP5 OR SWAP3 POP POP POP SWAP4 SWAP3 POP POP POP JUMP JUMPDEST PUSH0 DUP2 SWAP1 POP SWAP2 SWAP1 POP JUMP JUMPDEST PUSH0 DUP2 SWAP1 POP SWAP2 SWAP1 POP JUMP JUMPDEST PUSH0 PUSH3 0x490 PUSH3 0x48A PUSH3 0x484 DUP5 PUSH3 0x45E JUMP JUMPDEST PUSH3 0x467 JUMP JUMPDEST PUSH3 0x45E JUMP JUMPDEST SWAP1 POP SWAP2 SWAP1 POP JUMP JUMPDEST PUSH0 DUP2 SWAP1 POP SWAP2 SWAP1 POP JUMP JUMPDEST PUSH3 0x4AB DUP4 PUSH3 0x470 JUMP JUMPDEST PUSH3 0x4C3 PUSH3 0x4BA DUP3 PUSH3 0x497 JUMP JUMPDEST DUP5 DUP5 SLOAD PUSH3 0x409 JUMP JUMPDEST DUP3 SSTORE POP POP POP POP JUMP JUMPDEST PUSH0 SWAP1 JUMP JUMPDEST PUSH3 0x4D9 PUSH3 0x4CB JUMP JUMPDEST PUSH3 0x4E6 DUP2 DUP5 DUP5 PUSH3 0x4A0 JUMP JUMPDEST POP POP POP JUMP JUMPDEST JUMPDEST DUP2 DUP2 LT ISZERO PUSH3 0x50D JUMPI PUSH3 0x501 PUSH0 DUP3 PUSH3 0x4CF JUMP JUMPDEST PUSH1 0x1 DUP2 ADD SWAP1 POP PUSH3 0x4EC JUMP JUMPDEST POP POP JUMP JUMPDEST PUSH1 0x1F DUP3 GT ISZERO PUSH3 0x55C JUMPI PUSH3 0x526 DUP2 PUSH3 0x3DC JUMP JUMPDEST PUSH3 0x531 DUP5 PUSH3 0x3EE JUMP JUMPDEST DUP2 ADD PUSH1 0x20 DUP6 LT ISZERO PUSH3 0x541 JUMPI DUP2 SWAP1 POP JUMPDEST PUSH3 0x559 PUSH3 0x550 DUP6 PUSH3 0x3EE JUMP JUMPDEST DUP4 ADD DUP3 PUSH3 0x4EB JUMP JUMPDEST POP POP JUMPDEST POP POP POP JUMP JUMPDEST PUSH0 DUP3 DUP3 SHR SWAP1 POP SWAP3 SWAP2 POP POP JUMP JUMPDEST PUSH0 PUSH3 0x57E PUSH0 NOT DUP5 PUSH1 0x8 MUL PUSH3 0x561 JUMP JUMPDEST NOT DUP1 DUP4 AND SWAP2 POP POP SWAP3 SWAP2 POP POP JUMP JUMPDEST PUSH0 PUSH3 0x598 DUP4 DUP4 PUSH3 0x56D JUMP JUMPDEST SWAP2 POP DUP3 PUSH1 0x2 MUL DUP3 OR SWAP1 POP SWAP3 SWAP2 POP POP JUMP JUMPDEST PUSH3 0x5B3 DUP3 PUSH3 0x371 JUMP JUMPDEST PUSH8 0xFFFFFFFFFFFFFFFF DUP2 GT ISZERO PUSH3 0x5CF JUMPI PUSH3 0x5CE PUSH3 0x16E JUMP JUMPDEST JUMPDEST PUSH3 0x5DB DUP3 SLOAD PUSH3 0x3A8 JUMP JUMPDEST PUSH3 0x5E8 DUP3 DUP3 DUP6 PUSH3 0x511 JUMP JUMPDEST PUSH0 PUSH1 0x20 SWAP1 POP PUSH1 0x1F DUP4 GT PUSH1 0x1 DUP2 EQ PUSH3 0x61E JUMPI PUSH0 DUP5 ISZERO PUSH3 0x609 JUMPI DUP3 DUP8 ADD MLOAD SWAP1 POP JUMPDEST PUSH3 0x615 DUP6 DUP3 PUSH3 0x58B JUMP JUMPDEST DUP7 SSTORE POP PUSH3 0x684 JUMP JUMPDEST PUSH1 0x1F NOT DUP5 AND PUSH3 0x62E DUP7 PUSH3 0x3DC JUMP JUMPDEST PUSH0 JUMPDEST DUP3 DUP2 LT ISZERO PUSH3 0x657 JUMPI DUP5 DUP10 ADD MLOAD DUP3 SSTORE PUSH1 0x1 DUP3 ADD SWAP2 POP PUSH1 0x20 DUP6 ADD SWAP5 POP PUSH1 0x20 DUP2 ADD SWAP1 POP PUSH3 0x630 JUMP JUMPDEST DUP7 DUP4 LT ISZERO PUSH3 0x677 JUMPI DUP5 DUP10 ADD MLOAD PUSH3 0x673 PUSH1 0x1F DUP10 AND DUP3 PUSH3 0x56D JUMP JUMPDEST DUP4 SSTORE POP JUMPDEST PUSH1 0x1 PUSH1 0x2 DUP9 MUL ADD DUP9 SSTORE POP POP POP JUMPDEST POP POP POP POP POP POP JUMP JUMPDEST PUSH2 0x880 DUP1 PUSH3 0x69A PUSH0 CODECOPY PUSH0 RETURN INVALID PUSH1 0x80 PUSH1 0x40 MSTORE CALLVALUE DUP1 ISZERO PUSH2 0xF JUMPI PUSH0 DUP1 REVERT JUMPDEST POP PUSH1 0x4 CALLDATASIZE LT PUSH2 0x55 JUMPI PUSH0 CALLDATALOAD PUSH1 0xE0 SHR DUP1 PUSH4 0x8A13EEA7 EQ PUSH2 0x59 JUMPI DUP1 PUSH4 0x96F01BDE EQ PUSH2 0x77 JUMPI DUP1 PUSH4 0xF5537EDE EQ PUSH2 0x95 JUMPI DUP1 PUSH4 0xF9633930 EQ PUSH2 0xB1 JUMPI DUP1 PUSH4 0xFA48B77E EQ PUSH2 0xCF JUMPI JUMPDEST PUSH0 DUP1 REVERT JUMPDEST PUSH2 0x61 PUSH2 0xED JUMP JUMPDEST PUSH1 0x40 MLOAD PUSH2 0x6E SWAP2 SWAP1 PUSH2 0x465 JUMP JUMPDEST PUSH1 0x40 MLOAD DUP1 SWAP2 SUB SWAP1 RETURN JUMPDEST PUSH2 0x7F PUSH2 0x110 JUMP JUMPDEST PUSH1 0x40 MLOAD PUSH2 0x8C SWAP2 SWAP1 PUSH2 0x498 JUMP JUMPDEST PUSH1 0x40 MLOAD DUP1 SWAP2 SUB SWAP1 RETURN JUMPDEST PUSH2 0xAF PUSH1 0x4 DUP1 CALLDATASIZE SUB DUP2 ADD SWAP1 PUSH2 0xAA SWAP2 SWAP1 PUSH2 0x523 JUMP JUMPDEST PUSH2 0x122 JUMP JUMPDEST STOP JUMPDEST PUSH2 0xB9 PUSH2 0x1E5 JUMP JUMPDEST PUSH1 0x40 MLOAD PUSH2 0xC6 SWAP2 SWAP1 PUSH2 0x5FD JUMP JUMPDEST PUSH1 0x40 MLOAD DUP1 SWAP2 SUB SWAP1 RETURN JUMPDEST PUSH2 0xD7 PUSH2 0x3C5 JUMP JUMPDEST PUSH1 0x40 MLOAD PUSH2 0xE4 SWAP2 SWAP1 PUSH2 0x62C JUMP JUMPDEST PUSH1 0x40 MLOAD DUP1 SWAP2 SUB SWAP1 RETURN JUMPDEST PUSH0 DUP1 SLOAD SWAP1 PUSH2 0x100 EXP SWAP1 DIV PUSH20 0xFFFFFFFFFFFFFFFFFFFFFFFFFFFFFFFFFFFFFFFF AND DUP2 JUMP JUMPDEST PUSH1 0x2 PUSH0 SWAP1 SLOAD SWAP1 PUSH2 0x100 EXP SWAP1 DIV PUSH1 0xFF AND DUP2 JUMP JUMPDEST PUSH0 DUP1 SLOAD SWAP1 PUSH2 0x100 EXP SWAP1 DIV PUSH20 0xFFFFFFFFFFFFFFFFFFFFFFFFFFFFFFFFFFFFFFFF AND PUSH20 0xFFFFFFFFFFFFFFFFFFFFFFFFFFFFFFFFFFFFFFFF AND PUSH4 0x23B872DD DUP5 DUP5 DUP5 PUSH1 0x40 MLOAD DUP5 PUSH4 0xFFFFFFFF AND PUSH1 0xE0 SHL DUP2 MSTORE PUSH1 0x4 ADD PUSH2 0x17E SWAP4 SWAP3 SWAP2 SWAP1 PUSH2 0x654 JUMP JUMPDEST PUSH1 0x20 PUSH1 0x40 MLOAD DUP1 DUP4 SUB DUP2 PUSH0 DUP8 GAS CALL ISZERO DUP1 ISZERO PUSH2 0x19A JUMPI RETURNDATASIZE PUSH0 DUP1 RETURNDATACOPY RETURNDATASIZE PUSH0 REVERT JUMPDEST POP POP POP POP PUSH1 0x40 MLOAD RETURNDATASIZE PUSH1 0x1F NOT PUSH1 0x1F DUP3 ADD AND DUP3 ADD DUP1 PUSH1 0x40 MSTORE POP DUP2 ADD SWAP1 PUSH2 0x1BE SWAP2 SWAP1 PUSH2 0x6B3 JUMP JUMPDEST PUSH2 0x1C6 JUMPI PUSH0 DUP1 REVERT JUMPDEST PUSH1 0x1 PUSH1 0x2 PUSH0 PUSH2 0x100 EXP DUP2 SLOAD DUP2 PUSH1 0xFF MUL NOT AND SWAP1 DUP4 ISZERO ISZERO MUL OR SWAP1 SSTORE POP POP POP POP JUMP JUMPDEST PUSH1 0x60 PUSH0 DUP1 PUSH0 SWAP1 SLOAD SWAP1 PUSH2 0x100 EXP SWAP1 DIV PUSH20 0xFFFFFFFFFFFFFFFFFFFFFFFFFFFFFFFFFFFFFFFF AND PUSH20 0xFFFFFFFFFFFFFFFFFFFFFFFFFFFFFFFFFFFFFFFF AND PUSH4 0x70A08231 PUSH1 0x2 PUSH1 0x1 SWAP1 SLOAD SWAP1 PUSH2 0x100 EXP SWAP1 DIV PUSH20 0xFFFFFFFFFFFFFFFFFFFFFFFFFFFFFFFFFFFFFFFF AND PUSH1 0x40 MLOAD DUP3 PUSH4 0xFFFFFFFF AND PUSH1 0xE0 SHL DUP2 MSTORE PUSH1 0x4 ADD PUSH2 0x263 SWAP2 SWAP1 PUSH2 0x62C JUMP JUMPDEST PUSH1 0x20 PUSH1 0x40 MLOAD DUP1 DUP4 SUB DUP2 DUP7 GAS STATICCALL ISZERO DUP1 ISZERO PUSH2 0x27E JUMPI RETURNDATASIZE PUSH0 DUP1 RETURNDATACOPY RETURNDATASIZE PUSH0 REVERT JUMPDEST POP POP POP POP PUSH1 0x40 MLOAD RETURNDATASIZE PUSH1 0x1F NOT PUSH1 0x1F DUP3 ADD AND DUP3 ADD DUP1 PUSH1 0x40 MSTORE POP DUP2 ADD SWAP1 PUSH2 0x2A2 SWAP2 SWAP1 PUSH2 0x6F2 JUMP JUMPDEST GT PUSH2 0x2E2 JUMPI PUSH1 0x40 MLOAD PUSH32 0x8C379A000000000000000000000000000000000000000000000000000000000 DUP2 MSTORE PUSH1 0x4 ADD PUSH2 0x2D9 SWAP1 PUSH2 0x767 JUMP JUMPDEST PUSH1 0x40 MLOAD DUP1 SWAP2 SUB SWAP1 REVERT JUMPDEST PUSH1 0x1 ISZERO ISZERO PUSH1 0x2 PUSH0 SWAP1 SLOAD SWAP1 PUSH2 0x100 EXP SWAP1 DIV PUSH1 0xFF AND ISZERO ISZERO EQ PUSH2 0x337 JUMPI PUSH1 0x40 MLOAD PUSH32 0x8C379A000000000000000000000000000000000000000000000000000000000 DUP2 MSTORE PUSH1 0x4 ADD PUSH2 0x32E SWAP1 PUSH2 0x7CF JUMP JUMPDEST PUSH1 0x40 MLOAD DUP1 SWAP2 SUB SWAP1 REVERT JUMPDEST PUSH1 0x1 DUP1 SLOAD PUSH2 0x344 SWAP1 PUSH2 0x81A JUMP JUMPDEST DUP1 PUSH1 0x1F ADD PUSH1 0x20 DUP1 SWAP2 DIV MUL PUSH1 0x20 ADD PUSH1 0x40 MLOAD SWAP1 DUP2 ADD PUSH1 0x40 MSTORE DUP1 SWAP3 SWAP2 SWAP1 DUP2 DUP2 MSTORE PUSH1 0x20 ADD DUP3 DUP1 SLOAD PUSH2 0x370 SWAP1 PUSH2 0x81A JUMP JUMPDEST DUP1 ISZERO PUSH2 0x3BB JUMPI DUP1 PUSH1 0x1F LT PUSH2 0x392 JUMPI PUSH2 0x100 DUP1 DUP4 SLOAD DIV MUL DUP4 MSTORE SWAP2 PUSH1 0x20 ADD SWAP2 PUSH2 0x3BB JUMP JUMPDEST DUP3 ADD SWAP2 SWAP1 PUSH0 MSTORE PUSH1 0x20 PUSH0 KECCAK256 SWAP1 JUMPDEST DUP2 SLOAD DUP2 MSTORE SWAP1 PUSH1 0x1 ADD SWAP1 PUSH1 0x20 ADD DUP1 DUP4 GT PUSH2 0x39E JUMPI DUP3 SWAP1 SUB PUSH1 0x1F AND DUP3 ADD SWAP2 JUMPDEST POP POP POP POP POP SWAP1 POP SWAP1 JUMP JUMPDEST PUSH1 0x2 PUSH1 0x1 SWAP1 SLOAD SWAP1 PUSH2 0x100 EXP SWAP1 DIV PUSH20 0xFFFFFFFFFFFFFFFFFFFFFFFFFFFFFFFFFFFFFFFF AND DUP2 JUMP JUMPDEST PUSH0 PUSH20 0xFFFFFFFFFFFFFFFFFFFFFFFFFFFFFFFFFFFFFFFF DUP3 AND SWAP1 POP SWAP2 SWAP1 POP JUMP JUMPDEST PUSH0 DUP2 SWAP1 POP SWAP2 SWAP1 POP JUMP JUMPDEST PUSH0 PUSH2 0x42D PUSH2 0x428 PUSH2 0x423 DUP5 PUSH2 0x3EB JUMP JUMPDEST PUSH2 0x40A JUMP JUMPDEST PUSH2 0x3EB JUMP JUMPDEST SWAP1 POP SWAP2 SWAP1 POP JUMP JUMPDEST PUSH0 PUSH2 0x43E DUP3 PUSH2 0x413 JUMP JUMPDEST SWAP1 POP SWAP2 SWAP1 POP JUMP JUMPDEST PUSH0 PUSH2 0x44F DUP3 PUSH2 0x434 JUMP JUMPDEST SWAP1 POP SWAP2 SWAP1 POP JUMP JUMPDEST PUSH2 0x45F DUP2 PUSH2 0x445 JUMP JUMPDEST DUP3 MSTORE POP POP JUMP JUMPDEST PUSH0 PUSH1 0x20 DUP3 ADD SWAP1 POP PUSH2 0x478 PUSH0 DUP4 ADD DUP5 PUSH2 0x456 JUMP JUMPDEST SWAP3 SWAP2 POP POP JUMP JUMPDEST PUSH0 DUP2 ISZERO ISZERO SWAP1 POP SWAP2 SWAP1 POP JUMP JUMPDEST PUSH2 0x492 DUP2 PUSH2 0x47E JUMP JUMPDEST DUP3 MSTORE POP POP JUMP JUMPDEST PUSH0 PUSH1 0x20 DUP3 ADD SWAP1 POP PUSH2 0x4AB PUSH0 DUP4 ADD DUP5 PUSH2 0x489 JUMP JUMPDEST SWAP3 SWAP2 POP POP JUMP JUMPDEST PUSH0 DUP1 REVERT JUMPDEST PUSH0 PUSH2 0x4BF DUP3 PUSH2 0x3EB JUMP JUMPDEST SWAP1 POP SWAP2 SWAP1 POP JUMP JUMPDEST PUSH2 0x4CF DUP2 PUSH2 0x4B5 JUMP JUMPDEST DUP2 EQ PUSH2 0x4D9 JUMPI PUSH0 DUP1 REVERT JUMPDEST POP JUMP JUMPDEST PUSH0 DUP2 CALLDATALOAD SWAP1 POP PUSH2 0x4EA DUP2 PUSH2 0x4C6 JUMP JUMPDEST SWAP3 SWAP2 POP POP JUMP JUMPDEST PUSH0 DUP2 SWAP1 POP SWAP2 SWAP1 POP JUMP JUMPDEST PUSH2 0x502 DUP2 PUSH2 0x4F0 JUMP JUMPDEST DUP2 EQ PUSH2 0x50C JUMPI PUSH0 DUP1 REVERT JUMPDEST POP JUMP JUMPDEST PUSH0 DUP2 CALLDATALOAD SWAP1 POP PUSH2 0x51D DUP2 PUSH2 0x4F9 JUMP JUMPDEST SWAP3 SWAP2 POP POP JUMP JUMPDEST PUSH0 DUP1 PUSH0 PUSH1 0x60 DUP5 DUP7 SUB SLT ISZERO PUSH2 0x53A JUMPI PUSH2 0x539 PUSH2 0x4B1 JUMP JUMPDEST JUMPDEST PUSH0 PUSH2 0x547 DUP7 DUP3 DUP8 ADD PUSH2 0x4DC JUMP JUMPDEST SWAP4 POP POP PUSH1 0x20 PUSH2 0x558 DUP7 DUP3 DUP8 ADD PUSH2 0x4DC JUMP JUMPDEST SWAP3 POP POP PUSH1 0x40 PUSH2 0x569 DUP7 DUP3 DUP8 ADD PUSH2 0x50F JUMP JUMPDEST SWAP2 POP POP SWAP3 POP SWAP3 POP SWAP3 JUMP JUMPDEST PUSH0 DUP2 MLOAD SWAP1 POP SWAP2 SWAP1 POP JUMP JUMPDEST PUSH0 DUP3 DUP3 MSTORE PUSH1 0x20 DUP3 ADD SWAP1 POP SWAP3 SWAP2 POP POP JUMP JUMPDEST PUSH0 JUMPDEST DUP4 DUP2 LT ISZERO PUSH2 0x5AA JUMPI DUP1 DUP3 ADD MLOAD DUP2 DUP5 ADD MSTORE PUSH1 0x20 DUP2 ADD SWAP1 POP PUSH2 0x58F JUMP JUMPDEST PUSH0 DUP5 DUP5 ADD MSTORE POP POP POP POP JUMP JUMPDEST PUSH0 PUSH1 0x1F NOT PUSH1 0x1F DUP4 ADD AND SWAP1 POP SWAP2 SWAP1 POP JUMP JUMPDEST PUSH0 PUSH2 0x5CF DUP3 PUSH2 0x573 JUMP JUMPDEST PUSH2 0x5D9 DUP2 DUP6 PUSH2 0x57D JUMP JUMPDEST SWAP4 POP PUSH2 0x5E9 DUP2 DUP6 PUSH1 0x20 DUP7 ADD PUSH2 0x58D JUMP JUMPDEST PUSH2 0x5F2 DUP2 PUSH2 0x5B5 JUMP JUMPDEST DUP5 ADD SWAP2 POP POP SWAP3 SWAP2 POP POP JUMP JUMPDEST PUSH0 PUSH1 0x20 DUP3 ADD SWAP1 POP DUP2 DUP2 SUB PUSH0 DUP4 ADD MSTORE PUSH2 0x615 DUP2 DUP5 PUSH2 0x5C5 JUMP JUMPDEST SWAP1 POP SWAP3 SWAP2 POP POP JUMP JUMPDEST PUSH2 0x626 DUP2 PUSH2 0x4B5 JUMP JUMPDEST DUP3 MSTORE POP POP JUMP JUMPDEST PUSH0 PUSH1 0x20 DUP3 ADD SWAP1 POP PUSH2 0x63F PUSH0 DUP4 ADD DUP5 PUSH2 0x61D JUMP JUMPDEST SWAP3 SWAP2 POP POP JUMP JUMPDEST PUSH2 0x64E DUP2 PUSH2 0x4F0 JUMP JUMPDEST DUP3 MSTORE POP POP JUMP JUMPDEST PUSH0 PUSH1 0x60 DUP3 ADD SWAP1 POP PUSH2 0x667 PUSH0 DUP4 ADD DUP7 PUSH2 0x61D JUMP JUMPDEST PUSH2 0x674 PUSH1 0x20 DUP4 ADD DUP6 PUSH2 0x61D JUMP JUMPDEST PUSH2 0x681 PUSH1 0x40 DUP4 ADD DUP5 PUSH2 0x645 JUMP JUMPDEST SWAP5 SWAP4 POP POP POP POP JUMP JUMPDEST PUSH2 0x692 DUP2 PUSH2 0x47E JUMP JUMPDEST DUP2 EQ PUSH2 0x69C JUMPI PUSH0 DUP1 REVERT JUMPDEST POP JUMP JUMPDEST PUSH0 DUP2 MLOAD SWAP1 POP PUSH2 0x6AD DUP2 PUSH2 0x689 JUMP JUMPDEST SWAP3 SWAP2 POP POP JUMP JUMPDEST PUSH0 PUSH1 0x20 DUP3 DUP5 SUB SLT ISZERO PUSH2 0x6C8 JUMPI PUSH2 0x6C7 PUSH2 0x4B1 JUMP JUMPDEST JUMPDEST PUSH0 PUSH2 0x6D5 DUP5 DUP3 DUP6 ADD PUSH2 0x69F JUMP JUMPDEST SWAP2 POP POP SWAP3 SWAP2 POP POP JUMP JUMPDEST PUSH0 DUP2 MLOAD SWAP1 POP PUSH2 0x6EC DUP2 PUSH2 0x4F9 JUMP JUMPDEST SWAP3 SWAP2 POP POP JUMP JUMPDEST PUSH0 PUSH1 0x20 DUP3 DUP5 SUB SLT ISZERO PUSH2 0x707 JUMPI PUSH2 0x706 PUSH2 0x4B1 JUMP JUMPDEST JUMPDEST PUSH0 PUSH2 0x714 DUP5 DUP3 DUP6 ADD PUSH2 0x6DE JUMP JUMPDEST SWAP2 POP POP SWAP3 SWAP2 POP POP JUMP JUMPDEST PUSH32 0x4C6120616E6369616E61207369677565206D616C610000000000000000000000 PUSH0 DUP3 ADD MSTORE POP JUMP JUMPDEST PUSH0 PUSH2 0x751 PUSH1 0x15 DUP4 PUSH2 0x57D JUMP JUMPDEST SWAP2 POP PUSH2 0x75C DUP3 PUSH2 0x71D JUMP JUMPDEST PUSH1 0x20 DUP3 ADD SWAP1 POP SWAP2 SWAP1 POP JUMP JUMPDEST PUSH0 PUSH1 0x20 DUP3 ADD SWAP1 POP DUP2 DUP2 SUB PUSH0 DUP4 ADD MSTORE PUSH2 0x77E DUP2 PUSH2 0x745 JUMP JUMPDEST SWAP1 POP SWAP2 SWAP1 POP JUMP JUMPDEST PUSH32 0x4E6F207075656465732070617361720000000000000000000000000000000000 PUSH0 DUP3 ADD MSTORE POP JUMP JUMPDEST PUSH0 PUSH2 0x7B9 PUSH1 0xF DUP4 PUSH2 0x57D JUMP JUMPDEST SWAP2 POP PUSH2 0x7C4 DUP3 PUSH2 0x785 JUMP JUMPDEST PUSH1 0x20 DUP3 ADD SWAP1 POP SWAP2 SWAP1 POP JUMP JUMPDEST PUSH0 PUSH1 0x20 DUP3 ADD SWAP1 POP DUP2 DUP2 SUB PUSH0 DUP4 ADD MSTORE PUSH2 0x7E6 DUP2 PUSH2 0x7AD JUMP JUMPDEST SWAP1 POP SWAP2 SWAP1 POP JUMP JUMPDEST PUSH32 0x4E487B7100000000000000000000000000000000000000000000000000000000 PUSH0 MSTORE PUSH1 0x22 PUSH1 0x4 MSTORE PUSH1 0x24 PUSH0 REVERT JUMPDEST PUSH0 PUSH1 0x2 DUP3 DIV SWAP1 POP PUSH1 0x1 DUP3 AND DUP1 PUSH2 0x831 JUMPI PUSH1 0x7F DUP3 AND SWAP2 POP JUMPDEST PUSH1 0x20 DUP3 LT DUP2 SUB PUSH2 0x844 JUMPI PUSH2 0x843 PUSH2 0x7ED JUMP JUMPDEST JUMPDEST POP SWAP2 SWAP1 POP JUMP INVALID LOG2 PUSH5 0x6970667358 0x22 SLT KECCAK256 0x4D 0xB5 PUSH24 0x6A0BC18A4B1626CEB9B3A51003C09FF1A427F839D761ED90 0xF9 DIV SWAP11 0xB4 0xEC PUSH5 0x736F6C6343 STOP ADDMOD OR STOP CALLER "
				},
				"gasEstimates": {
					"creation": {
						"codeDepositCost": "435200",
						"executionCost": "infinite",
						"totalCost": "infinite"
					},
					"external": {
						"canReturnFlag()": "2466",
						"erc20Token()": "infinite",
						"getFlag()": "infinite",
						"old_women()": "2625",
						"transferToken(address,address,uint256)": "infinite"
					}
				},
				"methodIdentifiers": {
					"canReturnFlag()": "96f01bde",
					"erc20Token()": "8a13eea7",
					"getFlag()": "f9633930",
					"old_women()": "fa48b77e",
					"transferToken(address,address,uint256)": "f5537ede"
				}
			},
			"storageLayout": {
				"storage": [
					{
						"astId": 23,
						"contract": "newLevels/transferToken.sol:MyContract",
						"label": "erc20Token",
						"offset": 0,
						"slot": "0",
						"type": "t_contract(IERC20)20"
					},
					{
						"astId": 25,
						"contract": "newLevels/transferToken.sol:MyContract",
						"label": "flag",
						"offset": 0,
						"slot": "1",
						"type": "t_string_storage"
					},
					{
						"astId": 27,
						"contract": "newLevels/transferToken.sol:MyContract",
						"label": "canReturnFlag",
						"offset": 0,
						"slot": "2",
						"type": "t_bool"
					},
					{
						"astId": 29,
						"contract": "newLevels/transferToken.sol:MyContract",
						"label": "old_women",
						"offset": 1,
						"slot": "2",
						"type": "t_address"
					}
				],
				"types": {
					"t_address": {
						"encoding": "inplace",
						"label": "address",
						"numberOfBytes": "20"
					},
					"t_bool": {
						"encoding": "inplace",
						"label": "bool",
						"numberOfBytes": "1"
					},
					"t_contract(IERC20)20": {
						"encoding": "inplace",
						"label": "contract IERC20",
						"numberOfBytes": "20"
					},
					"t_string_storage": {
						"encoding": "bytes",
						"label": "string",
						"numberOfBytes": "32"
					}
				}
			},
			"userdoc": {
				"kind": "user",
				"methods": {},
				"version": 1
			}
		}
	}
}