{
	"newLevels/overflow.sol": {
		"SafeCounter": {
			"abi": [
				{
					"inputs": [
						{
							"internalType": "string",
							"name": "_flag",
							"type": "string"
						}
					],
					"stateMutability": "nonpayable",
					"type": "constructor"
				},
				{
					"inputs": [],
					"name": "decrement",
					"outputs": [],
					"stateMutability": "nonpayable",
					"type": "function"
				},
				{
					"inputs": [],
					"name": "getCount",
					"outputs": [
						{
							"internalType": "uint256",
							"name": "",
							"type": "uint256"
						}
					],
					"stateMutability": "view",
					"type": "function"
				},
				{
					"inputs": [],
					"name": "getFlag",
					"outputs": [
						{
							"internalType": "string",
							"name": "",
							"type": "string"
						}
					],
					"stateMutability": "view",
					"type": "function"
				},
				{
					"inputs": [],
					"name": "increment",
					"outputs": [],
					"stateMutability": "nonpayable",
					"type": "function"
				},
				{
					"inputs": [],
					"name": "multiply",
					"outputs": [],
					"stateMutability": "nonpayable",
					"type": "function"
				}
			],
			"devdoc": {
				"kind": "dev",
				"methods": {},
				"version": 1
			},
			"evm": {
				"assembly": "    /* \"newLevels/overflow.sol\":27:881  contract SafeCounter {\r... */\n  mstore(0x40, 0x80)\n    /* \"newLevels/overflow.sol\":117:208  constructor(string memory _flag) public {\r... */\n  callvalue\n  dup1\n  iszero\n  tag_1\n  jumpi\n  0x00\n  dup1\n  revert\ntag_1:\n  pop\n  mload(0x40)\n  sub(codesize, bytecodeSize)\n  dup1\n  bytecodeSize\n  dup4\n  codecopy\n  dup2\n  dup2\n  add\n  0x40\n  mstore\n  0x20\n  dup2\n  lt\n  iszero\n  tag_2\n  jumpi\n  0x00\n  dup1\n  revert\ntag_2:\n  dup2\n  add\n  swap1\n  dup1\n  dup1\n  mload\n  mload(0x40)\n  swap4\n  swap3\n  swap2\n  swap1\n  dup5\n  0x0100000000\n  dup3\n  gt\n  iszero\n  tag_3\n  jumpi\n  0x00\n  dup1\n  revert\ntag_3:\n  dup4\n  dup3\n  add\n  swap2\n  pop\n  0x20\n  dup3\n  add\n  dup6\n  dup2\n  gt\n  iszero\n  tag_4\n  jumpi\n  0x00\n  dup1\n  revert\ntag_4:\n  dup3\n  mload\n  dup7\n  0x01\n  dup3\n  mul\n  dup4\n  add\n  gt\n  0x0100000000\n  dup3\n  gt\n  or\n  iszero\n  tag_5\n  jumpi\n  0x00\n  dup1\n  revert\ntag_5:\n  dup1\n  dup4\n  mstore\n  0x20\n  dup4\n  add\n  swap3\n  pop\n  pop\n  pop\n  swap1\n  dup1\n  mload\n  swap1\n  0x20\n  add\n  swap1\n  dup1\n  dup4\n  dup4\n  0x00\ntag_6:\n  dup4\n  dup2\n  lt\n  iszero\n  tag_8\n  jumpi\n  dup1\n  dup3\n  add\n  mload\n  dup2\n  dup5\n  add\n  mstore\n  0x20\n  dup2\n  add\n  swap1\n  pop\n  jump(tag_6)\ntag_8:\n  pop\n  pop\n  pop\n  pop\n  swap1\n  pop\n  swap1\n  dup2\n  add\n  swap1\n  0x1f\n  and\n  dup1\n  iszero\n  tag_9\n  jumpi\n  dup1\n  dup3\n  sub\n  dup1\n  mload\n  0x01\n  dup4\n  0x20\n  sub\n  0x0100\n  exp\n  sub\n  not\n  and\n  dup2\n  mstore\n  0x20\n  add\n  swap2\n  pop\ntag_9:\n  pop\n  0x40\n  mstore\n  pop\n  pop\n  pop\n    /* \"newLevels/overflow.sol\":175:180  _flag */\n  dup1\n    /* \"newLevels/overflow.sol\":168:172  flag */\n  0x01\n    /* \"newLevels/overflow.sol\":168:180  flag = _flag */\n  swap1\n  dup1\n  mload\n  swap1\n  0x20\n  add\n  swap1\n  tag_12\n  swap3\n  swap2\n  swap1\n  tag_13\n  jump\t// in\ntag_12:\n  pop\n    /* \"newLevels/overflow.sol\":199:200  0 */\n  0x00\n    /* \"newLevels/overflow.sol\":191:196  count */\n  dup1\n    /* \"newLevels/overflow.sol\":191:200  count = 0 */\n  dup2\n  swap1\n  sstore\n  pop\n    /* \"newLevels/overflow.sol\":117:208  constructor(string memory _flag) public {\r... */\n  pop\n    /* \"newLevels/overflow.sol\":27:881  contract SafeCounter {\r... */\n  jump(tag_14)\ntag_13:\n  dup3\n  dup1\n  sload\n  0x01\n  dup2\n  0x01\n  and\n  iszero\n  0x0100\n  mul\n  sub\n  and\n  0x02\n  swap1\n  div\n  swap1\n  0x00\n  mstore\n  keccak256(0x00, 0x20)\n  swap1\n  0x1f\n  add\n  0x20\n  swap1\n  div\n  dup2\n  add\n  swap3\n  dup3\n  0x1f\n  lt\n  tag_16\n  jumpi\n  dup1\n  mload\n  not(0xff)\n  and\n  dup4\n  dup1\n  add\n  or\n  dup6\n  sstore\n  jump(tag_15)\ntag_16:\n  dup3\n  dup1\n  add\n  0x01\n  add\n  dup6\n  sstore\n  dup3\n  iszero\n  tag_15\n  jumpi\n  swap2\n  dup3\n  add\ntag_17:\n  dup3\n  dup2\n  gt\n  iszero\n  tag_18\n  jumpi\n  dup3\n  mload\n  dup3\n  sstore\n  swap2\n  0x20\n  add\n  swap2\n  swap1\n  0x01\n  add\n  swap1\n  jump(tag_17)\ntag_18:\ntag_15:\n  pop\n  swap1\n  pop\n  tag_19\n  swap2\n  swap1\n  tag_20\n  jump\t// in\ntag_19:\n  pop\n  swap1\n  jump\t// out\ntag_20:\ntag_21:\n  dup1\n  dup3\n  gt\n  iszero\n  tag_22\n  jumpi\n  0x00\n  dup2\n  0x00\n  swap1\n  sstore\n  pop\n  0x01\n  add\n  jump(tag_21)\ntag_22:\n  pop\n  swap1\n  jump\t// out\ntag_14:\n  dataSize(sub_0)\n  dup1\n  dataOffset(sub_0)\n  0x00\n  codecopy\n  0x00\n  return\nstop\n\nsub_0: assembly {\n        /* \"newLevels/overflow.sol\":27:881  contract SafeCounter {\r... */\n      mstore(0x40, 0x80)\n      callvalue\n      dup1\n      iszero\n      tag_1\n      jumpi\n      0x00\n      dup1\n      revert\n    tag_1:\n      pop\n      jumpi(tag_2, lt(calldatasize, 0x04))\n      shr(0xe0, calldataload(0x00))\n      dup1\n      0x2baeceb7\n      eq\n      tag_3\n      jumpi\n      dup1\n      0xa87d942c\n      eq\n      tag_4\n      jumpi\n      dup1\n      0xd09de08a\n      eq\n      tag_5\n      jumpi\n      dup1\n      0xf3593cd0\n      eq\n      tag_6\n      jumpi\n      dup1\n      0xf9633930\n      eq\n      tag_7\n      jumpi\n    tag_2:\n      0x00\n      dup1\n      revert\n        /* \"newLevels/overflow.sol\":216:304  function decrement() public {\r... */\n    tag_3:\n      tag_8\n      tag_9\n      jump\t// in\n    tag_8:\n      stop\n        /* \"newLevels/overflow.sol\":640:721  function getCount() public view returns (uint256) {\r... */\n    tag_4:\n      tag_10\n      tag_11\n      jump\t// in\n    tag_10:\n      mload(0x40)\n      dup1\n      dup3\n      dup2\n      mstore\n      0x20\n      add\n      swap2\n      pop\n      pop\n      mload(0x40)\n      dup1\n      swap2\n      sub\n      swap1\n      return\n        /* \"newLevels/overflow.sol\":312:441  function increment() public {\r... */\n    tag_5:\n      tag_12\n      tag_13\n      jump\t// in\n    tag_12:\n      stop\n        /* \"newLevels/overflow.sol\":449:632  function multiply() public {\r... */\n    tag_6:\n      tag_14\n      tag_15\n      jump\t// in\n    tag_14:\n      stop\n        /* \"newLevels/overflow.sol\":729:878  function getFlag() public view returns (string memory) {\r... */\n    tag_7:\n      tag_16\n      tag_17\n      jump\t// in\n    tag_16:\n      mload(0x40)\n      dup1\n      dup1\n      0x20\n      add\n      dup3\n      dup2\n      sub\n      dup3\n      mstore\n      dup4\n      dup2\n      dup2\n      mload\n      dup2\n      mstore\n      0x20\n      add\n      swap2\n      pop\n      dup1\n      mload\n      swap1\n      0x20\n      add\n      swap1\n      dup1\n      dup4\n      dup4\n      0x00\n    tag_18:\n      dup4\n      dup2\n      lt\n      iszero\n      tag_20\n      jumpi\n      dup1\n      dup3\n      add\n      mload\n      dup2\n      dup5\n      add\n      mstore\n      0x20\n      dup2\n      add\n      swap1\n      pop\n      jump(tag_18)\n    tag_20:\n      pop\n      pop\n      pop\n      pop\n      swap1\n      pop\n      swap1\n      dup2\n      add\n      swap1\n      0x1f\n      and\n      dup1\n      iszero\n      tag_21\n      jumpi\n      dup1\n      dup3\n      sub\n      dup1\n      mload\n      0x01\n      dup4\n      0x20\n      sub\n      0x0100\n      exp\n      sub\n      not\n      and\n      dup2\n      mstore\n      0x20\n      add\n      swap2\n      pop\n    tag_21:\n      pop\n      swap3\n      pop\n      pop\n      pop\n      mload(0x40)\n      dup1\n      swap2\n      sub\n      swap1\n      return\n        /* \"newLevels/overflow.sol\":216:304  function decrement() public {\r... */\n    tag_9:\n        /* \"newLevels/overflow.sol\":273:274  0 */\n      0x00\n        /* \"newLevels/overflow.sol\":264:269  count */\n      dup1\n      sload\n        /* \"newLevels/overflow.sol\":264:274  count >= 0 */\n      lt\n      iszero\n        /* \"newLevels/overflow.sol\":255:275  require (count >= 0) */\n      tag_23\n      jumpi\n      0x00\n      dup1\n      revert\n    tag_23:\n        /* \"newLevels/overflow.sol\":295:296  1 */\n      0x01\n        /* \"newLevels/overflow.sol\":286:291  count */\n      0x00\n      dup1\n        /* \"newLevels/overflow.sol\":286:296  count -= 1 */\n      dup3\n      dup3\n      sload\n      sub\n      swap3\n      pop\n      pop\n      dup2\n      swap1\n      sstore\n      pop\n        /* \"newLevels/overflow.sol\":216:304  function decrement() public {\r... */\n      jump\t// out\n        /* \"newLevels/overflow.sol\":640:721  function getCount() public view returns (uint256) {\r... */\n    tag_11:\n        /* \"newLevels/overflow.sol\":681:688  uint256 */\n      0x00\n        /* \"newLevels/overflow.sol\":708:713  count */\n      dup1\n      sload\n        /* \"newLevels/overflow.sol\":701:713  return count */\n      swap1\n      pop\n        /* \"newLevels/overflow.sol\":640:721  function getCount() public view returns (uint256) {\r... */\n      swap1\n      jump\t// out\n        /* \"newLevels/overflow.sol\":312:441  function increment() public {\r... */\n    tag_13:\n        /* \"newLevels/overflow.sol\":367:369  20 */\n      0x14\n        /* \"newLevels/overflow.sol\":359:364  count */\n      sload(0x00)\n        /* \"newLevels/overflow.sol\":359:369  count < 20 */\n      lt\n        /* \"newLevels/overflow.sol\":351:412  require(count < 20, \"Count Tiene que ser menor o igual a 20\") */\n      tag_26\n      jumpi\n      mload(0x40)\n      0x08c379a000000000000000000000000000000000000000000000000000000000\n      dup2\n      mstore\n      0x04\n      add\n      dup1\n      dup1\n      0x20\n      add\n      dup3\n      dup2\n      sub\n      dup3\n      mstore\n      0x26\n      dup2\n      mstore\n      0x20\n      add\n      dup1\n      data_810008b616cfe30a7c79e7dc48a37e49117b4988b8da114507253923a5685b70\n      0x26\n      swap2\n      codecopy\n      0x40\n      add\n      swap2\n      pop\n      pop\n      mload(0x40)\n      dup1\n      swap2\n      sub\n      swap1\n      revert\n    tag_26:\n        /* \"newLevels/overflow.sol\":432:433  1 */\n      0x01\n        /* \"newLevels/overflow.sol\":423:428  count */\n      0x00\n      dup1\n        /* \"newLevels/overflow.sol\":423:433  count += 1 */\n      dup3\n      dup3\n      sload\n      add\n      swap3\n      pop\n      pop\n      dup2\n      swap1\n      sstore\n      pop\n        /* \"newLevels/overflow.sol\":312:441  function increment() public {\r... */\n      jump\t// out\n        /* \"newLevels/overflow.sol\":449:632  function multiply() public {\r... */\n    tag_15:\n        /* \"newLevels/overflow.sol\":504:506  10 */\n      0x0a\n        /* \"newLevels/overflow.sol\":495:500  count */\n      sload(0x00)\n        /* \"newLevels/overflow.sol\":495:506  count <= 10 */\n      gt\n      iszero\n        /* \"newLevels/overflow.sol\":487:546  require(count <= 10, \"Demasiado grande para multiplicarlo\") */\n      tag_28\n      jumpi\n      mload(0x40)\n      0x08c379a000000000000000000000000000000000000000000000000000000000\n      dup2\n      mstore\n      0x04\n      add\n      dup1\n      dup1\n      0x20\n      add\n      dup3\n      dup2\n      sub\n      dup3\n      mstore\n      0x23\n      dup2\n      mstore\n      0x20\n      add\n      dup1\n      data_9e32b17ea4e459e9b6fac58c89e3177c2e53d2ee11127bf9edd87d59ac0fa8b2\n      0x23\n      swap2\n      codecopy\n      0x40\n      add\n      swap2\n      pop\n      pop\n      mload(0x40)\n      dup1\n      swap2\n      sub\n      swap1\n      revert\n    tag_28:\n        /* \"newLevels/overflow.sol\":557:579  uint256 multiplication */\n      0x00\n        /* \"newLevels/overflow.sol\":590:591  2 */\n      0x02\n        /* \"newLevels/overflow.sol\":582:587  count */\n      sload(0x00)\n        /* \"newLevels/overflow.sol\":582:591  count * 2 */\n      mul\n        /* \"newLevels/overflow.sol\":557:591  uint256 multiplication = count * 2 */\n      swap1\n      pop\n        /* \"newLevels/overflow.sol\":610:624  multiplication */\n      dup1\n        /* \"newLevels/overflow.sol\":602:607  count */\n      0x00\n        /* \"newLevels/overflow.sol\":602:624  count = multiplication */\n      dup2\n      swap1\n      sstore\n      pop\n        /* \"newLevels/overflow.sol\":449:632  function multiply() public {\r... */\n      pop\n      jump\t// out\n        /* \"newLevels/overflow.sol\":729:878  function getFlag() public view returns (string memory) {\r... */\n    tag_17:\n        /* \"newLevels/overflow.sol\":769:782  string memory */\n      0x60\n        /* \"newLevels/overflow.sol\":811:813  20 */\n      0x14\n        /* \"newLevels/overflow.sol\":803:808  count */\n      sload(0x00)\n        /* \"newLevels/overflow.sol\":803:813  count > 20 */\n      gt\n        /* \"newLevels/overflow.sol\":795:848  require(count > 20, \"Count tiene que ser mayor a 20\") */\n      tag_30\n      jumpi\n      mload(0x40)\n      0x08c379a000000000000000000000000000000000000000000000000000000000\n      dup2\n      mstore\n      0x04\n      add\n      dup1\n      dup1\n      0x20\n      add\n      dup3\n      dup2\n      sub\n      dup3\n      mstore\n      0x1e\n      dup2\n      mstore\n      0x20\n      add\n      dup1\n      0x436f756e74207469656e652071756520736572206d61796f7220612032300000\n      dup2\n      mstore\n      pop\n      0x20\n      add\n      swap2\n      pop\n      pop\n      mload(0x40)\n      dup1\n      swap2\n      sub\n      swap1\n      revert\n    tag_30:\n        /* \"newLevels/overflow.sol\":866:870  flag */\n      0x01\n        /* \"newLevels/overflow.sol\":859:870  return flag */\n      dup1\n      sload\n      0x01\n      dup2\n      0x01\n      and\n      iszero\n      0x0100\n      mul\n      sub\n      and\n      0x02\n      swap1\n      div\n      dup1\n      0x1f\n      add\n      0x20\n      dup1\n      swap2\n      div\n      mul\n      0x20\n      add\n      mload(0x40)\n      swap1\n      dup2\n      add\n      0x40\n      mstore\n      dup1\n      swap3\n      swap2\n      swap1\n      dup2\n      dup2\n      mstore\n      0x20\n      add\n      dup3\n      dup1\n      sload\n      0x01\n      dup2\n      0x01\n      and\n      iszero\n      0x0100\n      mul\n      sub\n      and\n      0x02\n      swap1\n      div\n      dup1\n      iszero\n      tag_31\n      jumpi\n      dup1\n      0x1f\n      lt\n      tag_32\n      jumpi\n      0x0100\n      dup1\n      dup4\n      sload\n      div\n      mul\n      dup4\n      mstore\n      swap2\n      0x20\n      add\n      swap2\n      jump(tag_31)\n    tag_32:\n      dup3\n      add\n      swap2\n      swap1\n      0x00\n      mstore\n      keccak256(0x00, 0x20)\n      swap1\n    tag_33:\n      dup2\n      sload\n      dup2\n      mstore\n      swap1\n      0x01\n      add\n      swap1\n      0x20\n      add\n      dup1\n      dup4\n      gt\n      tag_33\n      jumpi\n      dup3\n      swap1\n      sub\n      0x1f\n      and\n      dup3\n      add\n      swap2\n    tag_31:\n      pop\n      pop\n      pop\n      pop\n      pop\n      swap1\n      pop\n        /* \"newLevels/overflow.sol\":729:878  function getFlag() public view returns (string memory) {\r... */\n      swap1\n      jump\t// out\n    stop\n    data_810008b616cfe30a7c79e7dc48a37e49117b4988b8da114507253923a5685b70 436f756e74205469656e652071756520736572206d656e6f72206f20696775616c2061203230\n    data_9e32b17ea4e459e9b6fac58c89e3177c2e53d2ee11127bf9edd87d59ac0fa8b2 44656d61736961646f206772616e64652070617261206d756c7469706c696361726c6f\n\n    auxdata: 0xa264697066735822122036c41e130cb286f80ff1ea0a084800dd8db00893b70555057df5a819de78000964736f6c634300060c0033\n}\n",
				"bytecode": {
					"linkReferences": {},
					"object": "608060405234801561001057600080fd5b506040516105793803806105798339818101604052602081101561003357600080fd5b810190808051604051939291908464010000000082111561005357600080fd5b8382019150602082018581111561006957600080fd5b825186600182028301116401000000008211171561008657600080fd5b8083526020830192505050908051906020019080838360005b838110156100ba57808201518184015260208101905061009f565b50505050905090810190601f1680156100e75780820380516001836020036101000a031916815260200191505b506040525050508060019080519060200190610104929190610112565b5060008081905550506101af565b828054600181600116156101000203166002900490600052602060002090601f016020900481019282601f1061015357805160ff1916838001178555610181565b82800160010185558215610181579182015b82811115610180578251825591602001919060010190610165565b5b50905061018e9190610192565b5090565b5b808211156101ab576000816000905550600101610193565b5090565b6103bb806101be6000396000f3fe608060405234801561001057600080fd5b50600436106100575760003560e01c80632baeceb71461005c578063a87d942c14610066578063d09de08a14610084578063f3593cd01461008e578063f963393014610098575b600080fd5b61006461011b565b005b61006e61013c565b6040518082815260200191505060405180910390f35b61008c610145565b005b6100966101b2565b005b6100a0610222565b6040518080602001828103825283818151815260200191508051906020019080838360005b838110156100e05780820151818401526020810190506100c5565b50505050905090810190601f16801561010d5780820380516001836020036101000a031916815260200191505b509250505060405180910390f35b60008054101561012a57600080fd5b60016000808282540392505081905550565b60008054905090565b6014600054106101a0576040517f08c379a000000000000000000000000000000000000000000000000000000000815260040180806020018281038252602681526020018061033d6026913960400191505060405180910390fd5b60016000808282540192505081905550565b600a600054111561020e576040517f08c379a00000000000000000000000000000000000000000000000000000000081526004018080602001828103825260238152602001806103636023913960400191505060405180910390fd5b600060026000540290508060008190555050565b606060146000541161029c576040517f08c379a000000000000000000000000000000000000000000000000000000000815260040180806020018281038252601e8152602001807f436f756e74207469656e652071756520736572206d61796f722061203230000081525060200191505060405180910390fd5b60018054600181600116156101000203166002900480601f0160208091040260200160405190810160405280929190818152602001828054600181600116156101000203166002900480156103325780601f1061030757610100808354040283529160200191610332565b820191906000526020600020905b81548152906001019060200180831161031557829003601f168201915b505050505090509056fe436f756e74205469656e652071756520736572206d656e6f72206f20696775616c206120323044656d61736961646f206772616e64652070617261206d756c7469706c696361726c6fa264697066735822122036c41e130cb286f80ff1ea0a084800dd8db00893b70555057df5a819de78000964736f6c634300060c0033",
					"opcodes": "PUSH1 0x80 PUSH1 0x40 MSTORE CALLVALUE DUP1 ISZERO PUSH2 0x10 JUMPI PUSH1 0x0 DUP1 REVERT JUMPDEST POP PUSH1 0x40 MLOAD PUSH2 0x579 CODESIZE SUB DUP1 PUSH2 0x579 DUP4 CODECOPY DUP2 DUP2 ADD PUSH1 0x40 MSTORE PUSH1 0x20 DUP2 LT ISZERO PUSH2 0x33 JUMPI PUSH1 0x0 DUP1 REVERT JUMPDEST DUP2 ADD SWAP1 DUP1 DUP1 MLOAD PUSH1 0x40 MLOAD SWAP4 SWAP3 SWAP2 SWAP1 DUP5 PUSH5 0x100000000 DUP3 GT ISZERO PUSH2 0x53 JUMPI PUSH1 0x0 DUP1 REVERT JUMPDEST DUP4 DUP3 ADD SWAP2 POP PUSH1 0x20 DUP3 ADD DUP6 DUP2 GT ISZERO PUSH2 0x69 JUMPI PUSH1 0x0 DUP1 REVERT JUMPDEST DUP3 MLOAD DUP7 PUSH1 0x1 DUP3 MUL DUP4 ADD GT PUSH5 0x100000000 DUP3 GT OR ISZERO PUSH2 0x86 JUMPI PUSH1 0x0 DUP1 REVERT JUMPDEST DUP1 DUP4 MSTORE PUSH1 0x20 DUP4 ADD SWAP3 POP POP POP SWAP1 DUP1 MLOAD SWAP1 PUSH1 0x20 ADD SWAP1 DUP1 DUP4 DUP4 PUSH1 0x0 JUMPDEST DUP4 DUP2 LT ISZERO PUSH2 0xBA JUMPI DUP1 DUP3 ADD MLOAD DUP2 DUP5 ADD MSTORE PUSH1 0x20 DUP2 ADD SWAP1 POP PUSH2 0x9F JUMP JUMPDEST POP POP POP POP SWAP1 POP SWAP1 DUP2 ADD SWAP1 PUSH1 0x1F AND DUP1 ISZERO PUSH2 0xE7 JUMPI DUP1 DUP3 SUB DUP1 MLOAD PUSH1 0x1 DUP4 PUSH1 0x20 SUB PUSH2 0x100 EXP SUB NOT AND DUP2 MSTORE PUSH1 0x20 ADD SWAP2 POP JUMPDEST POP PUSH1 0x40 MSTORE POP POP POP DUP1 PUSH1 0x1 SWAP1 DUP1 MLOAD SWAP1 PUSH1 0x20 ADD SWAP1 PUSH2 0x104 SWAP3 SWAP2 SWAP1 PUSH2 0x112 JUMP JUMPDEST POP PUSH1 0x0 DUP1 DUP2 SWAP1 SSTORE POP POP PUSH2 0x1AF JUMP JUMPDEST DUP3 DUP1 SLOAD PUSH1 0x1 DUP2 PUSH1 0x1 AND ISZERO PUSH2 0x100 MUL SUB AND PUSH1 0x2 SWAP1 DIV SWAP1 PUSH1 0x0 MSTORE PUSH1 0x20 PUSH1 0x0 KECCAK256 SWAP1 PUSH1 0x1F ADD PUSH1 0x20 SWAP1 DIV DUP2 ADD SWAP3 DUP3 PUSH1 0x1F LT PUSH2 0x153 JUMPI DUP1 MLOAD PUSH1 0xFF NOT AND DUP4 DUP1 ADD OR DUP6 SSTORE PUSH2 0x181 JUMP JUMPDEST DUP3 DUP1 ADD PUSH1 0x1 ADD DUP6 SSTORE DUP3 ISZERO PUSH2 0x181 JUMPI SWAP2 DUP3 ADD JUMPDEST DUP3 DUP2 GT ISZERO PUSH2 0x180 JUMPI DUP3 MLOAD DUP3 SSTORE SWAP2 PUSH1 0x20 ADD SWAP2 SWAP1 PUSH1 0x1 ADD SWAP1 PUSH2 0x165 JUMP JUMPDEST JUMPDEST POP SWAP1 POP PUSH2 0x18E SWAP2 SWAP1 PUSH2 0x192 JUMP JUMPDEST POP SWAP1 JUMP JUMPDEST JUMPDEST DUP1 DUP3 GT ISZERO PUSH2 0x1AB JUMPI PUSH1 0x0 DUP2 PUSH1 0x0 SWAP1 SSTORE POP PUSH1 0x1 ADD PUSH2 0x193 JUMP JUMPDEST POP SWAP1 JUMP JUMPDEST PUSH2 0x3BB DUP1 PUSH2 0x1BE PUSH1 0x0 CODECOPY PUSH1 0x0 RETURN INVALID PUSH1 0x80 PUSH1 0x40 MSTORE CALLVALUE DUP1 ISZERO PUSH2 0x10 JUMPI PUSH1 0x0 DUP1 REVERT JUMPDEST POP PUSH1 0x4 CALLDATASIZE LT PUSH2 0x57 JUMPI PUSH1 0x0 CALLDATALOAD PUSH1 0xE0 SHR DUP1 PUSH4 0x2BAECEB7 EQ PUSH2 0x5C JUMPI DUP1 PUSH4 0xA87D942C EQ PUSH2 0x66 JUMPI DUP1 PUSH4 0xD09DE08A EQ PUSH2 0x84 JUMPI DUP1 PUSH4 0xF3593CD0 EQ PUSH2 0x8E JUMPI DUP1 PUSH4 0xF9633930 EQ PUSH2 0x98 JUMPI JUMPDEST PUSH1 0x0 DUP1 REVERT JUMPDEST PUSH2 0x64 PUSH2 0x11B JUMP JUMPDEST STOP JUMPDEST PUSH2 0x6E PUSH2 0x13C JUMP JUMPDEST PUSH1 0x40 MLOAD DUP1 DUP3 DUP2 MSTORE PUSH1 0x20 ADD SWAP2 POP POP PUSH1 0x40 MLOAD DUP1 SWAP2 SUB SWAP1 RETURN JUMPDEST PUSH2 0x8C PUSH2 0x145 JUMP JUMPDEST STOP JUMPDEST PUSH2 0x96 PUSH2 0x1B2 JUMP JUMPDEST STOP JUMPDEST PUSH2 0xA0 PUSH2 0x222 JUMP JUMPDEST PUSH1 0x40 MLOAD DUP1 DUP1 PUSH1 0x20 ADD DUP3 DUP2 SUB DUP3 MSTORE DUP4 DUP2 DUP2 MLOAD DUP2 MSTORE PUSH1 0x20 ADD SWAP2 POP DUP1 MLOAD SWAP1 PUSH1 0x20 ADD SWAP1 DUP1 DUP4 DUP4 PUSH1 0x0 JUMPDEST DUP4 DUP2 LT ISZERO PUSH2 0xE0 JUMPI DUP1 DUP3 ADD MLOAD DUP2 DUP5 ADD MSTORE PUSH1 0x20 DUP2 ADD SWAP1 POP PUSH2 0xC5 JUMP JUMPDEST POP POP POP POP SWAP1 POP SWAP1 DUP2 ADD SWAP1 PUSH1 0x1F AND DUP1 ISZERO PUSH2 0x10D JUMPI DUP1 DUP3 SUB DUP1 MLOAD PUSH1 0x1 DUP4 PUSH1 0x20 SUB PUSH2 0x100 EXP SUB NOT AND DUP2 MSTORE PUSH1 0x20 ADD SWAP2 POP JUMPDEST POP SWAP3 POP POP POP PUSH1 0x40 MLOAD DUP1 SWAP2 SUB SWAP1 RETURN JUMPDEST PUSH1 0x0 DUP1 SLOAD LT ISZERO PUSH2 0x12A JUMPI PUSH1 0x0 DUP1 REVERT JUMPDEST PUSH1 0x1 PUSH1 0x0 DUP1 DUP3 DUP3 SLOAD SUB SWAP3 POP POP DUP2 SWAP1 SSTORE POP JUMP JUMPDEST PUSH1 0x0 DUP1 SLOAD SWAP1 POP SWAP1 JUMP JUMPDEST PUSH1 0x14 PUSH1 0x0 SLOAD LT PUSH2 0x1A0 JUMPI PUSH1 0x40 MLOAD PUSH32 0x8C379A000000000000000000000000000000000000000000000000000000000 DUP2 MSTORE PUSH1 0x4 ADD DUP1 DUP1 PUSH1 0x20 ADD DUP3 DUP2 SUB DUP3 MSTORE PUSH1 0x26 DUP2 MSTORE PUSH1 0x20 ADD DUP1 PUSH2 0x33D PUSH1 0x26 SWAP2 CODECOPY PUSH1 0x40 ADD SWAP2 POP POP PUSH1 0x40 MLOAD DUP1 SWAP2 SUB SWAP1 REVERT JUMPDEST PUSH1 0x1 PUSH1 0x0 DUP1 DUP3 DUP3 SLOAD ADD SWAP3 POP POP DUP2 SWAP1 SSTORE POP JUMP JUMPDEST PUSH1 0xA PUSH1 0x0 SLOAD GT ISZERO PUSH2 0x20E JUMPI PUSH1 0x40 MLOAD PUSH32 0x8C379A000000000000000000000000000000000000000000000000000000000 DUP2 MSTORE PUSH1 0x4 ADD DUP1 DUP1 PUSH1 0x20 ADD DUP3 DUP2 SUB DUP3 MSTORE PUSH1 0x23 DUP2 MSTORE PUSH1 0x20 ADD DUP1 PUSH2 0x363 PUSH1 0x23 SWAP2 CODECOPY PUSH1 0x40 ADD SWAP2 POP POP PUSH1 0x40 MLOAD DUP1 SWAP2 SUB SWAP1 REVERT JUMPDEST PUSH1 0x0 PUSH1 0x2 PUSH1 0x0 SLOAD MUL SWAP1 POP DUP1 PUSH1 0x0 DUP2 SWAP1 SSTORE POP POP JUMP JUMPDEST PUSH1 0x60 PUSH1 0x14 PUSH1 0x0 SLOAD GT PUSH2 0x29C JUMPI PUSH1 0x40 MLOAD PUSH32 0x8C379A000000000000000000000000000000000000000000000000000000000 DUP2 MSTORE PUSH1 0x4 ADD DUP1 DUP1 PUSH1 0x20 ADD DUP3 DUP2 SUB DUP3 MSTORE PUSH1 0x1E DUP2 MSTORE PUSH1 0x20 ADD DUP1 PUSH32 0x436F756E74207469656E652071756520736572206D61796F7220612032300000 DUP2 MSTORE POP PUSH1 0x20 ADD SWAP2 POP POP PUSH1 0x40 MLOAD DUP1 SWAP2 SUB SWAP1 REVERT JUMPDEST PUSH1 0x1 DUP1 SLOAD PUSH1 0x1 DUP2 PUSH1 0x1 AND ISZERO PUSH2 0x100 MUL SUB AND PUSH1 0x2 SWAP1 DIV DUP1 PUSH1 0x1F ADD PUSH1 0x20 DUP1 SWAP2 DIV MUL PUSH1 0x20 ADD PUSH1 0x40 MLOAD SWAP1 DUP2 ADD PUSH1 0x40 MSTORE DUP1 SWAP3 SWAP2 SWAP1 DUP2 DUP2 MSTORE PUSH1 0x20 ADD DUP3 DUP1 SLOAD PUSH1 0x1 DUP2 PUSH1 0x1 AND ISZERO PUSH2 0x100 MUL SUB AND PUSH1 0x2 SWAP1 DIV DUP1 ISZERO PUSH2 0x332 JUMPI DUP1 PUSH1 0x1F LT PUSH2 0x307 JUMPI PUSH2 0x100 DUP1 DUP4 SLOAD DIV MUL DUP4 MSTORE SWAP2 PUSH1 0x20 ADD SWAP2 PUSH2 0x332 JUMP JUMPDEST DUP3 ADD SWAP2 SWAP1 PUSH1 0x0 MSTORE PUSH1 0x20 PUSH1 0x0 KECCAK256 SWAP1 JUMPDEST DUP2 SLOAD DUP2 MSTORE SWAP1 PUSH1 0x1 ADD SWAP1 PUSH1 0x20 ADD DUP1 DUP4 GT PUSH2 0x315 JUMPI DUP3 SWAP1 SUB PUSH1 0x1F AND DUP3 ADD SWAP2 JUMPDEST POP POP POP POP POP SWAP1 POP SWAP1 JUMP INVALID NUMBER PUSH16 0x756E74205469656E6520717565207365 PUSH19 0x206D656E6F72206F20696775616C2061203230 DIFFICULTY PUSH6 0x6D6173696164 PUSH16 0x206772616E64652070617261206D756C PUSH21 0x69706C696361726C6FA264697066735822122036C4 0x1E SGT 0xC 0xB2 DUP7 0xF8 0xF CALL 0xEA EXP ADDMOD 0x48 STOP 0xDD DUP14 0xB0 ADDMOD SWAP4 0xB7 SDIV SSTORE SDIV PUSH30 0xF5A819DE78000964736F6C634300060C0033000000000000000000000000 "
				},
				"gasEstimates": {
					"creation": {
						"codeDepositCost": "191000",
						"executionCost": "infinite",
						"totalCost": "infinite"
					},
					"external": {
						"decrement()": "21781",
						"getCount()": "1013",
						"getFlag()": "infinite",
						"increment()": "infinite",
						"multiply()": "infinite"
					}
				},
				"methodIdentifiers": {
					"decrement()": "2baeceb7",
					"getCount()": "a87d942c",
					"getFlag()": "f9633930",
					"increment()": "d09de08a",
					"multiply()": "f3593cd0"
				}
			},
			"storageLayout": {
				"storage": [
					{
						"astId": 3,
						"contract": "newLevels/overflow.sol:SafeCounter",
						"label": "count",
						"offset": 0,
						"slot": "0",
						"type": "t_uint256"
					},
					{
						"astId": 5,
						"contract": "newLevels/overflow.sol:SafeCounter",
						"label": "flag",
						"offset": 0,
						"slot": "1",
						"type": "t_string_storage"
					}
				],
				"types": {
					"t_string_storage": {
						"encoding": "bytes",
						"label": "string",
						"numberOfBytes": "32"
					},
					"t_uint256": {
						"encoding": "inplace",
						"label": "uint256",
						"numberOfBytes": "32"
					}
				}
			},
			"userdoc": {
				"kind": "user",
				"methods": {},
				"version": 1
			}
		}
	}
}