{
	"newLevels/solucionpargpt.sol": {
		"PredictAndGuess": {
			"abi": [
				{
					"inputs": [
						{
							"internalType": "address",
							"name": "_guessEvenOrOddContractAddress",
							"type": "address"
						}
					],
					"stateMutability": "nonpayable",
					"type": "constructor"
				},
				{
					"inputs": [],
					"name": "getFlagFromContract",
					"outputs": [
						{
							"internalType": "string",
							"name": "",
							"type": "string"
						}
					],
					"stateMutability": "nonpayable",
					"type": "function"
				},
				{
					"inputs": [],
					"name": "guessEvenOrOddContract",
					"outputs": [
						{
							"internalType": "contract IGuessEvenOrOdd",
							"name": "",
							"type": "address"
						}
					],
					"stateMutability": "view",
					"type": "function"
				},
				{
					"inputs": [],
					"name": "predictAndGuess",
					"outputs": [],
					"stateMutability": "nonpayable",
					"type": "function"
				}
			],
			"devdoc": {
				"kind": "dev",
				"methods": {},
				"version": 1
			},
			"evm": {
				"assembly": "    /* \"newLevels/solucionpargpt.sol\":172:824  contract PredictAndGuess {... */\n  mstore(0x40, 0x80)\n    /* \"newLevels/solucionpargpt.sol\":258:401  constructor(address _guessEvenOrOddContractAddress) {... */\n  callvalue\n  dup1\n  iszero\n  tag_1\n  jumpi\n  0x00\n  dup1\n  revert\ntag_1:\n  pop\n  mload(0x40)\n  sub(codesize, bytecodeSize)\n  dup1\n  bytecodeSize\n  dup4\n  codecopy\n  dup2\n  dup2\n  add\n  0x40\n  mstore\n  dup2\n  add\n  swap1\n  tag_2\n  swap2\n  swap1\n  tag_3\n  jump\t// in\ntag_2:\n    /* \"newLevels/solucionpargpt.sol\":362:392  _guessEvenOrOddContractAddress */\n  dup1\n    /* \"newLevels/solucionpargpt.sol\":321:343  guessEvenOrOddContract */\n  0x00\n  dup1\n    /* \"newLevels/solucionpargpt.sol\":321:393  guessEvenOrOddContract = IGuessEvenOrOdd(_guessEvenOrOddContractAddress) */\n  0x0100\n  exp\n  dup2\n  sload\n  dup2\n  0xffffffffffffffffffffffffffffffffffffffff\n  mul\n  not\n  and\n  swap1\n  dup4\n  0xffffffffffffffffffffffffffffffffffffffff\n  and\n  mul\n  or\n  swap1\n  sstore\n  pop\n    /* \"newLevels/solucionpargpt.sol\":258:401  constructor(address _guessEvenOrOddContractAddress) {... */\n  pop\n    /* \"newLevels/solucionpargpt.sol\":172:824  contract PredictAndGuess {... */\n  jump(tag_6)\n    /* \"#utility.yul\":88:205   */\ntag_8:\n    /* \"#utility.yul\":197:198   */\n  0x00\n    /* \"#utility.yul\":194:195   */\n  dup1\n    /* \"#utility.yul\":187:199   */\n  revert\n    /* \"#utility.yul\":334:460   */\ntag_10:\n    /* \"#utility.yul\":371:378   */\n  0x00\n    /* \"#utility.yul\":411:453   */\n  0xffffffffffffffffffffffffffffffffffffffff\n    /* \"#utility.yul\":404:409   */\n  dup3\n    /* \"#utility.yul\":400:454   */\n  and\n    /* \"#utility.yul\":389:454   */\n  swap1\n  pop\n    /* \"#utility.yul\":334:460   */\n  swap2\n  swap1\n  pop\n  jump\t// out\n    /* \"#utility.yul\":466:562   */\ntag_11:\n    /* \"#utility.yul\":503:510   */\n  0x00\n    /* \"#utility.yul\":532:556   */\n  tag_20\n    /* \"#utility.yul\":550:555   */\n  dup3\n    /* \"#utility.yul\":532:556   */\n  tag_10\n  jump\t// in\ntag_20:\n    /* \"#utility.yul\":521:556   */\n  swap1\n  pop\n    /* \"#utility.yul\":466:562   */\n  swap2\n  swap1\n  pop\n  jump\t// out\n    /* \"#utility.yul\":568:690   */\ntag_12:\n    /* \"#utility.yul\":641:665   */\n  tag_22\n    /* \"#utility.yul\":659:664   */\n  dup2\n    /* \"#utility.yul\":641:665   */\n  tag_11\n  jump\t// in\ntag_22:\n    /* \"#utility.yul\":634:639   */\n  dup2\n    /* \"#utility.yul\":631:666   */\n  eq\n    /* \"#utility.yul\":621:684   */\n  tag_23\n  jumpi\n    /* \"#utility.yul\":680:681   */\n  0x00\n    /* \"#utility.yul\":677:678   */\n  dup1\n    /* \"#utility.yul\":670:682   */\n  revert\n    /* \"#utility.yul\":621:684   */\ntag_23:\n    /* \"#utility.yul\":568:690   */\n  pop\n  jump\t// out\n    /* \"#utility.yul\":696:839   */\ntag_13:\n    /* \"#utility.yul\":753:758   */\n  0x00\n    /* \"#utility.yul\":784:790   */\n  dup2\n    /* \"#utility.yul\":778:791   */\n  mload\n    /* \"#utility.yul\":769:791   */\n  swap1\n  pop\n    /* \"#utility.yul\":800:833   */\n  tag_25\n    /* \"#utility.yul\":827:832   */\n  dup2\n    /* \"#utility.yul\":800:833   */\n  tag_12\n  jump\t// in\ntag_25:\n    /* \"#utility.yul\":696:839   */\n  swap3\n  swap2\n  pop\n  pop\n  jump\t// out\n    /* \"#utility.yul\":845:1196   */\ntag_3:\n    /* \"#utility.yul\":915:921   */\n  0x00\n    /* \"#utility.yul\":964:966   */\n  0x20\n    /* \"#utility.yul\":952:961   */\n  dup3\n    /* \"#utility.yul\":943:950   */\n  dup5\n    /* \"#utility.yul\":939:962   */\n  sub\n    /* \"#utility.yul\":935:967   */\n  slt\n    /* \"#utility.yul\":932:1051   */\n  iszero\n  tag_27\n  jumpi\n    /* \"#utility.yul\":970:1049   */\n  tag_28\n  tag_8\n  jump\t// in\ntag_28:\n    /* \"#utility.yul\":932:1051   */\ntag_27:\n    /* \"#utility.yul\":1090:1091   */\n  0x00\n    /* \"#utility.yul\":1115:1179   */\n  tag_29\n    /* \"#utility.yul\":1171:1178   */\n  dup5\n    /* \"#utility.yul\":1162:1168   */\n  dup3\n    /* \"#utility.yul\":1151:1160   */\n  dup6\n    /* \"#utility.yul\":1147:1169   */\n  add\n    /* \"#utility.yul\":1115:1179   */\n  tag_13\n  jump\t// in\ntag_29:\n    /* \"#utility.yul\":1105:1179   */\n  swap2\n  pop\n    /* \"#utility.yul\":1061:1189   */\n  pop\n    /* \"#utility.yul\":845:1196   */\n  swap3\n  swap2\n  pop\n  pop\n  jump\t// out\n    /* \"newLevels/solucionpargpt.sol\":172:824  contract PredictAndGuess {... */\ntag_6:\n  dataSize(sub_0)\n  dup1\n  dataOffset(sub_0)\n  0x00\n  codecopy\n  0x00\n  return\nstop\n\nsub_0: assembly {\n        /* \"newLevels/solucionpargpt.sol\":172:824  contract PredictAndGuess {... */\n      mstore(0x40, 0x80)\n      callvalue\n      dup1\n      iszero\n      tag_1\n      jumpi\n      0x00\n      dup1\n      revert\n    tag_1:\n      pop\n      jumpi(tag_2, lt(calldatasize, 0x04))\n      shr(0xe0, calldataload(0x00))\n      dup1\n      0x265b114d\n      eq\n      tag_3\n      jumpi\n      dup1\n      0x5152e98a\n      eq\n      tag_4\n      jumpi\n      dup1\n      0xbab1db31\n      eq\n      tag_5\n      jumpi\n    tag_2:\n      0x00\n      dup1\n      revert\n        /* \"newLevels/solucionpargpt.sol\":409:688  function predictAndGuess() public {... */\n    tag_3:\n      tag_6\n      tag_7\n      jump\t// in\n    tag_6:\n      stop\n        /* \"newLevels/solucionpargpt.sol\":204:249  IGuessEvenOrOdd public guessEvenOrOddContract */\n    tag_4:\n      tag_8\n      tag_9\n      jump\t// in\n    tag_8:\n      mload(0x40)\n      tag_10\n      swap2\n      swap1\n      tag_11\n      jump\t// in\n    tag_10:\n      mload(0x40)\n      dup1\n      swap2\n      sub\n      swap1\n      return\n        /* \"newLevels/solucionpargpt.sol\":696:817  function getFlagFromContract() public returns (string memory) {... */\n    tag_5:\n      tag_12\n      tag_13\n      jump\t// in\n    tag_12:\n      mload(0x40)\n      tag_14\n      swap2\n      swap1\n      tag_15\n      jump\t// in\n    tag_14:\n      mload(0x40)\n      dup1\n      swap2\n      sub\n      swap1\n      return\n        /* \"newLevels/solucionpargpt.sol\":409:688  function predictAndGuess() public {... */\n    tag_7:\n        /* \"newLevels/solucionpargpt.sol\":454:468  uint256 answer */\n      0x00\n        /* \"newLevels/solucionpargpt.sol\":545:546  1 */\n      0x01\n        /* \"newLevels/solucionpargpt.sol\":530:542  block.number */\n      number\n        /* \"newLevels/solucionpargpt.sol\":530:546  block.number - 1 */\n      tag_17\n      swap2\n      swap1\n      tag_18\n      jump\t// in\n    tag_17:\n        /* \"newLevels/solucionpargpt.sol\":520:547  blockhash(block.number - 1) */\n      blockhash\n        /* \"newLevels/solucionpargpt.sol\":549:564  block.timestamp */\n      timestamp\n        /* \"newLevels/solucionpargpt.sol\":503:565  abi.encodePacked(blockhash(block.number - 1), block.timestamp) */\n      add(0x20, mload(0x40))\n      tag_19\n      swap3\n      swap2\n      swap1\n      tag_20\n      jump\t// in\n    tag_19:\n      mload(0x40)\n      0x20\n      dup2\n      dup4\n      sub\n      sub\n      dup2\n      mstore\n      swap1\n      0x40\n      mstore\n        /* \"newLevels/solucionpargpt.sol\":493:566  keccak256(abi.encodePacked(blockhash(block.number - 1), block.timestamp)) */\n      dup1\n      mload\n      swap1\n      0x20\n      add\n      keccak256\n        /* \"newLevels/solucionpargpt.sol\":471:577  uint256(... */\n      0x00\n      shr\n        /* \"newLevels/solucionpargpt.sol\":454:577  uint256 answer = uint256(... */\n      swap1\n      pop\n        /* \"newLevels/solucionpargpt.sol\":590:610  uint256 answerParity */\n      0x00\n        /* \"newLevels/solucionpargpt.sol\":622:623  2 */\n      0x02\n        /* \"newLevels/solucionpargpt.sol\":613:619  answer */\n      dup3\n        /* \"newLevels/solucionpargpt.sol\":613:623  answer % 2 */\n      tag_21\n      swap2\n      swap1\n      tag_22\n      jump\t// in\n    tag_21:\n        /* \"newLevels/solucionpargpt.sol\":590:623  uint256 answerParity = answer % 2 */\n      swap1\n      pop\n        /* \"newLevels/solucionpargpt.sol\":636:658  guessEvenOrOddContract */\n      0x00\n      dup1\n      sload\n      swap1\n      0x0100\n      exp\n      swap1\n      div\n      0xffffffffffffffffffffffffffffffffffffffff\n      and\n        /* \"newLevels/solucionpargpt.sol\":636:666  guessEvenOrOddContract.evenOdd */\n      0xffffffffffffffffffffffffffffffffffffffff\n      and\n      0x446957f7\n        /* \"newLevels/solucionpargpt.sol\":667:679  answerParity */\n      dup3\n        /* \"newLevels/solucionpargpt.sol\":636:680  guessEvenOrOddContract.evenOdd(answerParity) */\n      mload(0x40)\n      dup3\n      0xffffffff\n      and\n      0xe0\n      shl\n      dup2\n      mstore\n      0x04\n      add\n      tag_23\n      swap2\n      swap1\n      tag_24\n      jump\t// in\n    tag_23:\n      0x00\n      mload(0x40)\n      dup1\n      dup4\n      sub\n      dup2\n      0x00\n      dup8\n      dup1\n      extcodesize\n      iszero\n      dup1\n      iszero\n      tag_25\n      jumpi\n      0x00\n      dup1\n      revert\n    tag_25:\n      pop\n      gas\n      call\n      iszero\n      dup1\n      iszero\n      tag_27\n      jumpi\n      returndatasize\n      0x00\n      dup1\n      returndatacopy\n      revert(0x00, returndatasize)\n    tag_27:\n      pop\n      pop\n      pop\n      pop\n        /* \"newLevels/solucionpargpt.sol\":443:688  {... */\n      pop\n      pop\n        /* \"newLevels/solucionpargpt.sol\":409:688  function predictAndGuess() public {... */\n      jump\t// out\n        /* \"newLevels/solucionpargpt.sol\":204:249  IGuessEvenOrOdd public guessEvenOrOddContract */\n    tag_9:\n      0x00\n      dup1\n      sload\n      swap1\n      0x0100\n      exp\n      swap1\n      div\n      0xffffffffffffffffffffffffffffffffffffffff\n      and\n      dup2\n      jump\t// out\n        /* \"newLevels/solucionpargpt.sol\":696:817  function getFlagFromContract() public returns (string memory) {... */\n    tag_13:\n        /* \"newLevels/solucionpargpt.sol\":743:756  string memory */\n      0x60\n        /* \"newLevels/solucionpargpt.sol\":776:798  guessEvenOrOddContract */\n      0x00\n      dup1\n      sload\n      swap1\n      0x0100\n      exp\n      swap1\n      div\n      0xffffffffffffffffffffffffffffffffffffffff\n      and\n        /* \"newLevels/solucionpargpt.sol\":776:806  guessEvenOrOddContract.getFlag */\n      0xffffffffffffffffffffffffffffffffffffffff\n      and\n      0xf9633930\n        /* \"newLevels/solucionpargpt.sol\":776:808  guessEvenOrOddContract.getFlag() */\n      mload(0x40)\n      dup2\n      0xffffffff\n      and\n      0xe0\n      shl\n      dup2\n      mstore\n      0x04\n      add\n      0x00\n      mload(0x40)\n      dup1\n      dup4\n      sub\n      dup2\n      0x00\n      dup8\n      gas\n      call\n      iszero\n      dup1\n      iszero\n      tag_30\n      jumpi\n      returndatasize\n      0x00\n      dup1\n      returndatacopy\n      revert(0x00, returndatasize)\n    tag_30:\n      pop\n      pop\n      pop\n      pop\n      mload(0x40)\n      returndatasize\n      0x00\n      dup3\n      returndatacopy\n      returndatasize\n      not(0x1f)\n      0x1f\n      dup3\n      add\n      and\n      dup3\n      add\n      dup1\n      0x40\n      mstore\n      pop\n      dup2\n      add\n      swap1\n      tag_31\n      swap2\n      swap1\n      tag_32\n      jump\t// in\n    tag_31:\n        /* \"newLevels/solucionpargpt.sol\":769:808  return guessEvenOrOddContract.getFlag() */\n      swap1\n      pop\n        /* \"newLevels/solucionpargpt.sol\":696:817  function getFlagFromContract() public returns (string memory) {... */\n      swap1\n      jump\t// out\n        /* \"#utility.yul\":7:133   */\n    tag_33:\n        /* \"#utility.yul\":44:51   */\n      0x00\n        /* \"#utility.yul\":84:126   */\n      0xffffffffffffffffffffffffffffffffffffffff\n        /* \"#utility.yul\":77:82   */\n      dup3\n        /* \"#utility.yul\":73:127   */\n      and\n        /* \"#utility.yul\":62:127   */\n      swap1\n      pop\n        /* \"#utility.yul\":7:133   */\n      swap2\n      swap1\n      pop\n      jump\t// out\n        /* \"#utility.yul\":139:199   */\n    tag_34:\n        /* \"#utility.yul\":167:170   */\n      0x00\n        /* \"#utility.yul\":188:193   */\n      dup2\n        /* \"#utility.yul\":181:193   */\n      swap1\n      pop\n        /* \"#utility.yul\":139:199   */\n      swap2\n      swap1\n      pop\n      jump\t// out\n        /* \"#utility.yul\":205:347   */\n    tag_35:\n        /* \"#utility.yul\":255:264   */\n      0x00\n        /* \"#utility.yul\":288:341   */\n      tag_68\n        /* \"#utility.yul\":306:340   */\n      tag_69\n        /* \"#utility.yul\":315:339   */\n      tag_70\n        /* \"#utility.yul\":333:338   */\n      dup5\n        /* \"#utility.yul\":315:339   */\n      tag_33\n      jump\t// in\n    tag_70:\n        /* \"#utility.yul\":306:340   */\n      tag_34\n      jump\t// in\n    tag_69:\n        /* \"#utility.yul\":288:341   */\n      tag_33\n      jump\t// in\n    tag_68:\n        /* \"#utility.yul\":275:341   */\n      swap1\n      pop\n        /* \"#utility.yul\":205:347   */\n      swap2\n      swap1\n      pop\n      jump\t// out\n        /* \"#utility.yul\":353:479   */\n    tag_36:\n        /* \"#utility.yul\":403:412   */\n      0x00\n        /* \"#utility.yul\":436:473   */\n      tag_72\n        /* \"#utility.yul\":467:472   */\n      dup3\n        /* \"#utility.yul\":436:473   */\n      tag_35\n      jump\t// in\n    tag_72:\n        /* \"#utility.yul\":423:473   */\n      swap1\n      pop\n        /* \"#utility.yul\":353:479   */\n      swap2\n      swap1\n      pop\n      jump\t// out\n        /* \"#utility.yul\":485:633   */\n    tag_37:\n        /* \"#utility.yul\":557:566   */\n      0x00\n        /* \"#utility.yul\":590:627   */\n      tag_74\n        /* \"#utility.yul\":621:626   */\n      dup3\n        /* \"#utility.yul\":590:627   */\n      tag_36\n      jump\t// in\n    tag_74:\n        /* \"#utility.yul\":577:627   */\n      swap1\n      pop\n        /* \"#utility.yul\":485:633   */\n      swap2\n      swap1\n      pop\n      jump\t// out\n        /* \"#utility.yul\":639:814   */\n    tag_38:\n        /* \"#utility.yul\":748:807   */\n      tag_76\n        /* \"#utility.yul\":801:806   */\n      dup2\n        /* \"#utility.yul\":748:807   */\n      tag_37\n      jump\t// in\n    tag_76:\n        /* \"#utility.yul\":743:746   */\n      dup3\n        /* \"#utility.yul\":736:808   */\n      mstore\n        /* \"#utility.yul\":639:814   */\n      pop\n      pop\n      jump\t// out\n        /* \"#utility.yul\":820:1086   */\n    tag_11:\n        /* \"#utility.yul\":935:939   */\n      0x00\n        /* \"#utility.yul\":973:975   */\n      0x20\n        /* \"#utility.yul\":962:971   */\n      dup3\n        /* \"#utility.yul\":958:976   */\n      add\n        /* \"#utility.yul\":950:976   */\n      swap1\n      pop\n        /* \"#utility.yul\":986:1079   */\n      tag_78\n        /* \"#utility.yul\":1076:1077   */\n      0x00\n        /* \"#utility.yul\":1065:1074   */\n      dup4\n        /* \"#utility.yul\":1061:1078   */\n      add\n        /* \"#utility.yul\":1052:1058   */\n      dup5\n        /* \"#utility.yul\":986:1079   */\n      tag_38\n      jump\t// in\n    tag_78:\n        /* \"#utility.yul\":820:1086   */\n      swap3\n      swap2\n      pop\n      pop\n      jump\t// out\n        /* \"#utility.yul\":1092:1191   */\n    tag_39:\n        /* \"#utility.yul\":1144:1150   */\n      0x00\n        /* \"#utility.yul\":1178:1183   */\n      dup2\n        /* \"#utility.yul\":1172:1184   */\n      mload\n        /* \"#utility.yul\":1162:1184   */\n      swap1\n      pop\n        /* \"#utility.yul\":1092:1191   */\n      swap2\n      swap1\n      pop\n      jump\t// out\n        /* \"#utility.yul\":1197:1366   */\n    tag_40:\n        /* \"#utility.yul\":1281:1292   */\n      0x00\n        /* \"#utility.yul\":1315:1321   */\n      dup3\n        /* \"#utility.yul\":1310:1313   */\n      dup3\n        /* \"#utility.yul\":1303:1322   */\n      mstore\n        /* \"#utility.yul\":1355:1359   */\n      0x20\n        /* \"#utility.yul\":1350:1353   */\n      dup3\n        /* \"#utility.yul\":1346:1360   */\n      add\n        /* \"#utility.yul\":1331:1360   */\n      swap1\n      pop\n        /* \"#utility.yul\":1197:1366   */\n      swap3\n      swap2\n      pop\n      pop\n      jump\t// out\n        /* \"#utility.yul\":1372:1618   */\n    tag_41:\n        /* \"#utility.yul\":1453:1454   */\n      0x00\n        /* \"#utility.yul\":1463:1576   */\n    tag_82:\n        /* \"#utility.yul\":1477:1483   */\n      dup4\n        /* \"#utility.yul\":1474:1475   */\n      dup2\n        /* \"#utility.yul\":1471:1484   */\n      lt\n        /* \"#utility.yul\":1463:1576   */\n      iszero\n      tag_84\n      jumpi\n        /* \"#utility.yul\":1562:1563   */\n      dup1\n        /* \"#utility.yul\":1557:1560   */\n      dup3\n        /* \"#utility.yul\":1553:1564   */\n      add\n        /* \"#utility.yul\":1547:1565   */\n      mload\n        /* \"#utility.yul\":1543:1544   */\n      dup2\n        /* \"#utility.yul\":1538:1541   */\n      dup5\n        /* \"#utility.yul\":1534:1545   */\n      add\n        /* \"#utility.yul\":1527:1566   */\n      mstore\n        /* \"#utility.yul\":1499:1501   */\n      0x20\n        /* \"#utility.yul\":1496:1497   */\n      dup2\n        /* \"#utility.yul\":1492:1502   */\n      add\n        /* \"#utility.yul\":1487:1502   */\n      swap1\n      pop\n        /* \"#utility.yul\":1463:1576   */\n      jump(tag_82)\n    tag_84:\n        /* \"#utility.yul\":1610:1611   */\n      0x00\n        /* \"#utility.yul\":1601:1607   */\n      dup5\n        /* \"#utility.yul\":1596:1599   */\n      dup5\n        /* \"#utility.yul\":1592:1608   */\n      add\n        /* \"#utility.yul\":1585:1612   */\n      mstore\n        /* \"#utility.yul\":1434:1618   */\n      pop\n        /* \"#utility.yul\":1372:1618   */\n      pop\n      pop\n      pop\n      jump\t// out\n        /* \"#utility.yul\":1624:1726   */\n    tag_42:\n        /* \"#utility.yul\":1665:1671   */\n      0x00\n        /* \"#utility.yul\":1716:1718   */\n      0x1f\n        /* \"#utility.yul\":1712:1719   */\n      not\n        /* \"#utility.yul\":1707:1709   */\n      0x1f\n        /* \"#utility.yul\":1700:1705   */\n      dup4\n        /* \"#utility.yul\":1696:1710   */\n      add\n        /* \"#utility.yul\":1692:1720   */\n      and\n        /* \"#utility.yul\":1682:1720   */\n      swap1\n      pop\n        /* \"#utility.yul\":1624:1726   */\n      swap2\n      swap1\n      pop\n      jump\t// out\n        /* \"#utility.yul\":1732:2109   */\n    tag_43:\n        /* \"#utility.yul\":1820:1823   */\n      0x00\n        /* \"#utility.yul\":1848:1887   */\n      tag_87\n        /* \"#utility.yul\":1881:1886   */\n      dup3\n        /* \"#utility.yul\":1848:1887   */\n      tag_39\n      jump\t// in\n    tag_87:\n        /* \"#utility.yul\":1903:1974   */\n      tag_88\n        /* \"#utility.yul\":1967:1973   */\n      dup2\n        /* \"#utility.yul\":1962:1965   */\n      dup6\n        /* \"#utility.yul\":1903:1974   */\n      tag_40\n      jump\t// in\n    tag_88:\n        /* \"#utility.yul\":1896:1974   */\n      swap4\n      pop\n        /* \"#utility.yul\":1983:2048   */\n      tag_89\n        /* \"#utility.yul\":2041:2047   */\n      dup2\n        /* \"#utility.yul\":2036:2039   */\n      dup6\n        /* \"#utility.yul\":2029:2033   */\n      0x20\n        /* \"#utility.yul\":2022:2027   */\n      dup7\n        /* \"#utility.yul\":2018:2034   */\n      add\n        /* \"#utility.yul\":1983:2048   */\n      tag_41\n      jump\t// in\n    tag_89:\n        /* \"#utility.yul\":2073:2102   */\n      tag_90\n        /* \"#utility.yul\":2095:2101   */\n      dup2\n        /* \"#utility.yul\":2073:2102   */\n      tag_42\n      jump\t// in\n    tag_90:\n        /* \"#utility.yul\":2068:2071   */\n      dup5\n        /* \"#utility.yul\":2064:2103   */\n      add\n        /* \"#utility.yul\":2057:2103   */\n      swap2\n      pop\n        /* \"#utility.yul\":1824:2109   */\n      pop\n        /* \"#utility.yul\":1732:2109   */\n      swap3\n      swap2\n      pop\n      pop\n      jump\t// out\n        /* \"#utility.yul\":2115:2428   */\n    tag_15:\n        /* \"#utility.yul\":2228:2232   */\n      0x00\n        /* \"#utility.yul\":2266:2268   */\n      0x20\n        /* \"#utility.yul\":2255:2264   */\n      dup3\n        /* \"#utility.yul\":2251:2269   */\n      add\n        /* \"#utility.yul\":2243:2269   */\n      swap1\n      pop\n        /* \"#utility.yul\":2315:2324   */\n      dup2\n        /* \"#utility.yul\":2309:2313   */\n      dup2\n        /* \"#utility.yul\":2305:2325   */\n      sub\n        /* \"#utility.yul\":2301:2302   */\n      0x00\n        /* \"#utility.yul\":2290:2299   */\n      dup4\n        /* \"#utility.yul\":2286:2303   */\n      add\n        /* \"#utility.yul\":2279:2326   */\n      mstore\n        /* \"#utility.yul\":2343:2421   */\n      tag_92\n        /* \"#utility.yul\":2416:2420   */\n      dup2\n        /* \"#utility.yul\":2407:2413   */\n      dup5\n        /* \"#utility.yul\":2343:2421   */\n      tag_43\n      jump\t// in\n    tag_92:\n        /* \"#utility.yul\":2335:2421   */\n      swap1\n      pop\n        /* \"#utility.yul\":2115:2428   */\n      swap3\n      swap2\n      pop\n      pop\n      jump\t// out\n        /* \"#utility.yul\":2434:2511   */\n    tag_44:\n        /* \"#utility.yul\":2471:2478   */\n      0x00\n        /* \"#utility.yul\":2500:2505   */\n      dup2\n        /* \"#utility.yul\":2489:2505   */\n      swap1\n      pop\n        /* \"#utility.yul\":2434:2511   */\n      swap2\n      swap1\n      pop\n      jump\t// out\n        /* \"#utility.yul\":2517:2697   */\n    tag_45:\n        /* \"#utility.yul\":2565:2642   */\n      0x4e487b7100000000000000000000000000000000000000000000000000000000\n        /* \"#utility.yul\":2562:2563   */\n      0x00\n        /* \"#utility.yul\":2555:2643   */\n      mstore\n        /* \"#utility.yul\":2662:2666   */\n      0x11\n        /* \"#utility.yul\":2659:2660   */\n      0x04\n        /* \"#utility.yul\":2652:2667   */\n      mstore\n        /* \"#utility.yul\":2686:2690   */\n      0x24\n        /* \"#utility.yul\":2683:2684   */\n      0x00\n        /* \"#utility.yul\":2676:2691   */\n      revert\n        /* \"#utility.yul\":2703:2897   */\n    tag_18:\n        /* \"#utility.yul\":2743:2747   */\n      0x00\n        /* \"#utility.yul\":2763:2783   */\n      tag_96\n        /* \"#utility.yul\":2781:2782   */\n      dup3\n        /* \"#utility.yul\":2763:2783   */\n      tag_44\n      jump\t// in\n    tag_96:\n        /* \"#utility.yul\":2758:2783   */\n      swap2\n      pop\n        /* \"#utility.yul\":2797:2817   */\n      tag_97\n        /* \"#utility.yul\":2815:2816   */\n      dup4\n        /* \"#utility.yul\":2797:2817   */\n      tag_44\n      jump\t// in\n    tag_97:\n        /* \"#utility.yul\":2792:2817   */\n      swap3\n      pop\n        /* \"#utility.yul\":2841:2842   */\n      dup3\n        /* \"#utility.yul\":2838:2839   */\n      dup3\n        /* \"#utility.yul\":2834:2843   */\n      sub\n        /* \"#utility.yul\":2826:2843   */\n      swap1\n      pop\n        /* \"#utility.yul\":2865:2866   */\n      dup2\n        /* \"#utility.yul\":2859:2863   */\n      dup2\n        /* \"#utility.yul\":2856:2867   */\n      gt\n        /* \"#utility.yul\":2853:2890   */\n      iszero\n      tag_98\n      jumpi\n        /* \"#utility.yul\":2870:2888   */\n      tag_99\n      tag_45\n      jump\t// in\n    tag_99:\n        /* \"#utility.yul\":2853:2890   */\n    tag_98:\n        /* \"#utility.yul\":2703:2897   */\n      swap3\n      swap2\n      pop\n      pop\n      jump\t// out\n        /* \"#utility.yul\":2903:2980   */\n    tag_46:\n        /* \"#utility.yul\":2940:2947   */\n      0x00\n        /* \"#utility.yul\":2969:2974   */\n      dup2\n        /* \"#utility.yul\":2958:2974   */\n      swap1\n      pop\n        /* \"#utility.yul\":2903:2980   */\n      swap2\n      swap1\n      pop\n      jump\t// out\n        /* \"#utility.yul\":2986:3065   */\n    tag_47:\n        /* \"#utility.yul\":3025:3032   */\n      0x00\n        /* \"#utility.yul\":3054:3059   */\n      dup2\n        /* \"#utility.yul\":3043:3059   */\n      swap1\n      pop\n        /* \"#utility.yul\":2986:3065   */\n      swap2\n      swap1\n      pop\n      jump\t// out\n        /* \"#utility.yul\":3071:3228   */\n    tag_48:\n        /* \"#utility.yul\":3176:3221   */\n      tag_103\n        /* \"#utility.yul\":3196:3220   */\n      tag_104\n        /* \"#utility.yul\":3214:3219   */\n      dup3\n        /* \"#utility.yul\":3196:3220   */\n      tag_46\n      jump\t// in\n    tag_104:\n        /* \"#utility.yul\":3176:3221   */\n      tag_47\n      jump\t// in\n    tag_103:\n        /* \"#utility.yul\":3171:3174   */\n      dup3\n        /* \"#utility.yul\":3164:3222   */\n      mstore\n        /* \"#utility.yul\":3071:3228   */\n      pop\n      pop\n      jump\t// out\n        /* \"#utility.yul\":3234:3313   */\n    tag_49:\n        /* \"#utility.yul\":3273:3280   */\n      0x00\n        /* \"#utility.yul\":3302:3307   */\n      dup2\n        /* \"#utility.yul\":3291:3307   */\n      swap1\n      pop\n        /* \"#utility.yul\":3234:3313   */\n      swap2\n      swap1\n      pop\n      jump\t// out\n        /* \"#utility.yul\":3319:3476   */\n    tag_50:\n        /* \"#utility.yul\":3424:3469   */\n      tag_107\n        /* \"#utility.yul\":3444:3468   */\n      tag_108\n        /* \"#utility.yul\":3462:3467   */\n      dup3\n        /* \"#utility.yul\":3444:3468   */\n      tag_44\n      jump\t// in\n    tag_108:\n        /* \"#utility.yul\":3424:3469   */\n      tag_49\n      jump\t// in\n    tag_107:\n        /* \"#utility.yul\":3419:3422   */\n      dup3\n        /* \"#utility.yul\":3412:3470   */\n      mstore\n        /* \"#utility.yul\":3319:3476   */\n      pop\n      pop\n      jump\t// out\n        /* \"#utility.yul\":3482:3879   */\n    tag_20:\n        /* \"#utility.yul\":3622:3625   */\n      0x00\n        /* \"#utility.yul\":3637:3712   */\n      tag_110\n        /* \"#utility.yul\":3708:3711   */\n      dup3\n        /* \"#utility.yul\":3699:3705   */\n      dup6\n        /* \"#utility.yul\":3637:3712   */\n      tag_48\n      jump\t// in\n    tag_110:\n        /* \"#utility.yul\":3737:3739   */\n      0x20\n        /* \"#utility.yul\":3732:3735   */\n      dup3\n        /* \"#utility.yul\":3728:3740   */\n      add\n        /* \"#utility.yul\":3721:3740   */\n      swap2\n      pop\n        /* \"#utility.yul\":3750:3825   */\n      tag_111\n        /* \"#utility.yul\":3821:3824   */\n      dup3\n        /* \"#utility.yul\":3812:3818   */\n      dup5\n        /* \"#utility.yul\":3750:3825   */\n      tag_50\n      jump\t// in\n    tag_111:\n        /* \"#utility.yul\":3850:3852   */\n      0x20\n        /* \"#utility.yul\":3845:3848   */\n      dup3\n        /* \"#utility.yul\":3841:3853   */\n      add\n        /* \"#utility.yul\":3834:3853   */\n      swap2\n      pop\n        /* \"#utility.yul\":3870:3873   */\n      dup2\n        /* \"#utility.yul\":3863:3873   */\n      swap1\n      pop\n        /* \"#utility.yul\":3482:3879   */\n      swap4\n      swap3\n      pop\n      pop\n      pop\n      jump\t// out\n        /* \"#utility.yul\":3885:4065   */\n    tag_51:\n        /* \"#utility.yul\":3933:4010   */\n      0x4e487b7100000000000000000000000000000000000000000000000000000000\n        /* \"#utility.yul\":3930:3931   */\n      0x00\n        /* \"#utility.yul\":3923:4011   */\n      mstore\n        /* \"#utility.yul\":4030:4034   */\n      0x12\n        /* \"#utility.yul\":4027:4028   */\n      0x04\n        /* \"#utility.yul\":4020:4035   */\n      mstore\n        /* \"#utility.yul\":4054:4058   */\n      0x24\n        /* \"#utility.yul\":4051:4052   */\n      0x00\n        /* \"#utility.yul\":4044:4059   */\n      revert\n        /* \"#utility.yul\":4071:4247   */\n    tag_22:\n        /* \"#utility.yul\":4103:4104   */\n      0x00\n        /* \"#utility.yul\":4120:4140   */\n      tag_114\n        /* \"#utility.yul\":4138:4139   */\n      dup3\n        /* \"#utility.yul\":4120:4140   */\n      tag_44\n      jump\t// in\n    tag_114:\n        /* \"#utility.yul\":4115:4140   */\n      swap2\n      pop\n        /* \"#utility.yul\":4154:4174   */\n      tag_115\n        /* \"#utility.yul\":4172:4173   */\n      dup4\n        /* \"#utility.yul\":4154:4174   */\n      tag_44\n      jump\t// in\n    tag_115:\n        /* \"#utility.yul\":4149:4174   */\n      swap3\n      pop\n        /* \"#utility.yul\":4193:4194   */\n      dup3\n        /* \"#utility.yul\":4183:4218   */\n      tag_116\n      jumpi\n        /* \"#utility.yul\":4198:4216   */\n      tag_117\n      tag_51\n      jump\t// in\n    tag_117:\n        /* \"#utility.yul\":4183:4218   */\n    tag_116:\n        /* \"#utility.yul\":4239:4240   */\n      dup3\n        /* \"#utility.yul\":4236:4237   */\n      dup3\n        /* \"#utility.yul\":4232:4241   */\n      mod\n        /* \"#utility.yul\":4227:4241   */\n      swap1\n      pop\n        /* \"#utility.yul\":4071:4247   */\n      swap3\n      swap2\n      pop\n      pop\n      jump\t// out\n        /* \"#utility.yul\":4253:4371   */\n    tag_52:\n        /* \"#utility.yul\":4340:4364   */\n      tag_119\n        /* \"#utility.yul\":4358:4363   */\n      dup2\n        /* \"#utility.yul\":4340:4364   */\n      tag_44\n      jump\t// in\n    tag_119:\n        /* \"#utility.yul\":4335:4338   */\n      dup3\n        /* \"#utility.yul\":4328:4365   */\n      mstore\n        /* \"#utility.yul\":4253:4371   */\n      pop\n      pop\n      jump\t// out\n        /* \"#utility.yul\":4377:4599   */\n    tag_24:\n        /* \"#utility.yul\":4470:4474   */\n      0x00\n        /* \"#utility.yul\":4508:4510   */\n      0x20\n        /* \"#utility.yul\":4497:4506   */\n      dup3\n        /* \"#utility.yul\":4493:4511   */\n      add\n        /* \"#utility.yul\":4485:4511   */\n      swap1\n      pop\n        /* \"#utility.yul\":4521:4592   */\n      tag_121\n        /* \"#utility.yul\":4589:4590   */\n      0x00\n        /* \"#utility.yul\":4578:4587   */\n      dup4\n        /* \"#utility.yul\":4574:4591   */\n      add\n        /* \"#utility.yul\":4565:4571   */\n      dup5\n        /* \"#utility.yul\":4521:4592   */\n      tag_52\n      jump\t// in\n    tag_121:\n        /* \"#utility.yul\":4377:4599   */\n      swap3\n      swap2\n      pop\n      pop\n      jump\t// out\n        /* \"#utility.yul\":4605:4680   */\n    tag_53:\n        /* \"#utility.yul\":4638:4644   */\n      0x00\n        /* \"#utility.yul\":4671:4673   */\n      0x40\n        /* \"#utility.yul\":4665:4674   */\n      mload\n        /* \"#utility.yul\":4655:4674   */\n      swap1\n      pop\n        /* \"#utility.yul\":4605:4680   */\n      swap1\n      jump\t// out\n        /* \"#utility.yul\":4686:4803   */\n    tag_54:\n        /* \"#utility.yul\":4795:4796   */\n      0x00\n        /* \"#utility.yul\":4792:4793   */\n      dup1\n        /* \"#utility.yul\":4785:4797   */\n      revert\n        /* \"#utility.yul\":4809:4926   */\n    tag_55:\n        /* \"#utility.yul\":4918:4919   */\n      0x00\n        /* \"#utility.yul\":4915:4916   */\n      dup1\n        /* \"#utility.yul\":4908:4920   */\n      revert\n        /* \"#utility.yul\":4932:5049   */\n    tag_56:\n        /* \"#utility.yul\":5041:5042   */\n      0x00\n        /* \"#utility.yul\":5038:5039   */\n      dup1\n        /* \"#utility.yul\":5031:5043   */\n      revert\n        /* \"#utility.yul\":5055:5172   */\n    tag_57:\n        /* \"#utility.yul\":5164:5165   */\n      0x00\n        /* \"#utility.yul\":5161:5162   */\n      dup1\n        /* \"#utility.yul\":5154:5166   */\n      revert\n        /* \"#utility.yul\":5178:5358   */\n    tag_58:\n        /* \"#utility.yul\":5226:5303   */\n      0x4e487b7100000000000000000000000000000000000000000000000000000000\n        /* \"#utility.yul\":5223:5224   */\n      0x00\n        /* \"#utility.yul\":5216:5304   */\n      mstore\n        /* \"#utility.yul\":5323:5327   */\n      0x41\n        /* \"#utility.yul\":5320:5321   */\n      0x04\n        /* \"#utility.yul\":5313:5328   */\n      mstore\n        /* \"#utility.yul\":5347:5351   */\n      0x24\n        /* \"#utility.yul\":5344:5345   */\n      0x00\n        /* \"#utility.yul\":5337:5352   */\n      revert\n        /* \"#utility.yul\":5364:5645   */\n    tag_59:\n        /* \"#utility.yul\":5447:5474   */\n      tag_129\n        /* \"#utility.yul\":5469:5473   */\n      dup3\n        /* \"#utility.yul\":5447:5474   */\n      tag_42\n      jump\t// in\n    tag_129:\n        /* \"#utility.yul\":5439:5445   */\n      dup2\n        /* \"#utility.yul\":5435:5475   */\n      add\n        /* \"#utility.yul\":5577:5583   */\n      dup2\n        /* \"#utility.yul\":5565:5575   */\n      dup2\n        /* \"#utility.yul\":5562:5584   */\n      lt\n        /* \"#utility.yul\":5541:5559   */\n      0xffffffffffffffff\n        /* \"#utility.yul\":5529:5539   */\n      dup3\n        /* \"#utility.yul\":5526:5560   */\n      gt\n        /* \"#utility.yul\":5523:5585   */\n      or\n        /* \"#utility.yul\":5520:5608   */\n      iszero\n      tag_130\n      jumpi\n        /* \"#utility.yul\":5588:5606   */\n      tag_131\n      tag_58\n      jump\t// in\n    tag_131:\n        /* \"#utility.yul\":5520:5608   */\n    tag_130:\n        /* \"#utility.yul\":5628:5638   */\n      dup1\n        /* \"#utility.yul\":5624:5626   */\n      0x40\n        /* \"#utility.yul\":5617:5639   */\n      mstore\n        /* \"#utility.yul\":5407:5645   */\n      pop\n        /* \"#utility.yul\":5364:5645   */\n      pop\n      pop\n      jump\t// out\n        /* \"#utility.yul\":5651:5780   */\n    tag_60:\n        /* \"#utility.yul\":5685:5691   */\n      0x00\n        /* \"#utility.yul\":5712:5732   */\n      tag_133\n      tag_53\n      jump\t// in\n    tag_133:\n        /* \"#utility.yul\":5702:5732   */\n      swap1\n      pop\n        /* \"#utility.yul\":5741:5774   */\n      tag_134\n        /* \"#utility.yul\":5769:5773   */\n      dup3\n        /* \"#utility.yul\":5761:5767   */\n      dup3\n        /* \"#utility.yul\":5741:5774   */\n      tag_59\n      jump\t// in\n    tag_134:\n        /* \"#utility.yul\":5651:5780   */\n      swap2\n      swap1\n      pop\n      jump\t// out\n        /* \"#utility.yul\":5786:6094   */\n    tag_61:\n        /* \"#utility.yul\":5848:5852   */\n      0x00\n        /* \"#utility.yul\":5938:5956   */\n      0xffffffffffffffff\n        /* \"#utility.yul\":5930:5936   */\n      dup3\n        /* \"#utility.yul\":5927:5957   */\n      gt\n        /* \"#utility.yul\":5924:5980   */\n      iszero\n      tag_136\n      jumpi\n        /* \"#utility.yul\":5960:5978   */\n      tag_137\n      tag_58\n      jump\t// in\n    tag_137:\n        /* \"#utility.yul\":5924:5980   */\n    tag_136:\n        /* \"#utility.yul\":5998:6027   */\n      tag_138\n        /* \"#utility.yul\":6020:6026   */\n      dup3\n        /* \"#utility.yul\":5998:6027   */\n      tag_42\n      jump\t// in\n    tag_138:\n        /* \"#utility.yul\":5990:6027   */\n      swap1\n      pop\n        /* \"#utility.yul\":6082:6086   */\n      0x20\n        /* \"#utility.yul\":6076:6080   */\n      dup2\n        /* \"#utility.yul\":6072:6087   */\n      add\n        /* \"#utility.yul\":6064:6087   */\n      swap1\n      pop\n        /* \"#utility.yul\":5786:6094   */\n      swap2\n      swap1\n      pop\n      jump\t// out\n        /* \"#utility.yul\":6100:6534   */\n    tag_62:\n        /* \"#utility.yul\":6189:6194   */\n      0x00\n        /* \"#utility.yul\":6214:6280   */\n      tag_140\n        /* \"#utility.yul\":6230:6279   */\n      tag_141\n        /* \"#utility.yul\":6272:6278   */\n      dup5\n        /* \"#utility.yul\":6230:6279   */\n      tag_61\n      jump\t// in\n    tag_141:\n        /* \"#utility.yul\":6214:6280   */\n      tag_60\n      jump\t// in\n    tag_140:\n        /* \"#utility.yul\":6205:6280   */\n      swap1\n      pop\n        /* \"#utility.yul\":6303:6309   */\n      dup3\n        /* \"#utility.yul\":6296:6301   */\n      dup2\n        /* \"#utility.yul\":6289:6310   */\n      mstore\n        /* \"#utility.yul\":6341:6345   */\n      0x20\n        /* \"#utility.yul\":6334:6339   */\n      dup2\n        /* \"#utility.yul\":6330:6346   */\n      add\n        /* \"#utility.yul\":6379:6382   */\n      dup5\n        /* \"#utility.yul\":6370:6376   */\n      dup5\n        /* \"#utility.yul\":6365:6368   */\n      dup5\n        /* \"#utility.yul\":6361:6377   */\n      add\n        /* \"#utility.yul\":6358:6383   */\n      gt\n        /* \"#utility.yul\":6355:6467   */\n      iszero\n      tag_142\n      jumpi\n        /* \"#utility.yul\":6386:6465   */\n      tag_143\n      tag_57\n      jump\t// in\n    tag_143:\n        /* \"#utility.yul\":6355:6467   */\n    tag_142:\n        /* \"#utility.yul\":6476:6528   */\n      tag_144\n        /* \"#utility.yul\":6521:6527   */\n      dup5\n        /* \"#utility.yul\":6516:6519   */\n      dup3\n        /* \"#utility.yul\":6511:6514   */\n      dup6\n        /* \"#utility.yul\":6476:6528   */\n      tag_41\n      jump\t// in\n    tag_144:\n        /* \"#utility.yul\":6195:6534   */\n      pop\n        /* \"#utility.yul\":6100:6534   */\n      swap4\n      swap3\n      pop\n      pop\n      pop\n      jump\t// out\n        /* \"#utility.yul\":6554:6909   */\n    tag_63:\n        /* \"#utility.yul\":6621:6626   */\n      0x00\n        /* \"#utility.yul\":6670:6673   */\n      dup3\n        /* \"#utility.yul\":6663:6667   */\n      0x1f\n        /* \"#utility.yul\":6655:6661   */\n      dup4\n        /* \"#utility.yul\":6651:6668   */\n      add\n        /* \"#utility.yul\":6647:6674   */\n      slt\n        /* \"#utility.yul\":6637:6759   */\n      tag_146\n      jumpi\n        /* \"#utility.yul\":6678:6757   */\n      tag_147\n      tag_56\n      jump\t// in\n    tag_147:\n        /* \"#utility.yul\":6637:6759   */\n    tag_146:\n        /* \"#utility.yul\":6788:6794   */\n      dup2\n        /* \"#utility.yul\":6782:6795   */\n      mload\n        /* \"#utility.yul\":6813:6903   */\n      tag_148\n        /* \"#utility.yul\":6899:6902   */\n      dup5\n        /* \"#utility.yul\":6891:6897   */\n      dup3\n        /* \"#utility.yul\":6884:6888   */\n      0x20\n        /* \"#utility.yul\":6876:6882   */\n      dup7\n        /* \"#utility.yul\":6872:6889   */\n      add\n        /* \"#utility.yul\":6813:6903   */\n      tag_62\n      jump\t// in\n    tag_148:\n        /* \"#utility.yul\":6804:6903   */\n      swap2\n      pop\n        /* \"#utility.yul\":6627:6909   */\n      pop\n        /* \"#utility.yul\":6554:6909   */\n      swap3\n      swap2\n      pop\n      pop\n      jump\t// out\n        /* \"#utility.yul\":6915:7439   */\n    tag_32:\n        /* \"#utility.yul\":6995:7001   */\n      0x00\n        /* \"#utility.yul\":7044:7046   */\n      0x20\n        /* \"#utility.yul\":7032:7041   */\n      dup3\n        /* \"#utility.yul\":7023:7030   */\n      dup5\n        /* \"#utility.yul\":7019:7042   */\n      sub\n        /* \"#utility.yul\":7015:7047   */\n      slt\n        /* \"#utility.yul\":7012:7131   */\n      iszero\n      tag_150\n      jumpi\n        /* \"#utility.yul\":7050:7129   */\n      tag_151\n      tag_54\n      jump\t// in\n    tag_151:\n        /* \"#utility.yul\":7012:7131   */\n    tag_150:\n        /* \"#utility.yul\":7191:7192   */\n      0x00\n        /* \"#utility.yul\":7180:7189   */\n      dup3\n        /* \"#utility.yul\":7176:7193   */\n      add\n        /* \"#utility.yul\":7170:7194   */\n      mload\n        /* \"#utility.yul\":7221:7239   */\n      0xffffffffffffffff\n        /* \"#utility.yul\":7213:7219   */\n      dup2\n        /* \"#utility.yul\":7210:7240   */\n      gt\n        /* \"#utility.yul\":7207:7324   */\n      iszero\n      tag_152\n      jumpi\n        /* \"#utility.yul\":7243:7322   */\n      tag_153\n      tag_55\n      jump\t// in\n    tag_153:\n        /* \"#utility.yul\":7207:7324   */\n    tag_152:\n        /* \"#utility.yul\":7348:7422   */\n      tag_154\n        /* \"#utility.yul\":7414:7421   */\n      dup5\n        /* \"#utility.yul\":7405:7411   */\n      dup3\n        /* \"#utility.yul\":7394:7403   */\n      dup6\n        /* \"#utility.yul\":7390:7412   */\n      add\n        /* \"#utility.yul\":7348:7422   */\n      tag_63\n      jump\t// in\n    tag_154:\n        /* \"#utility.yul\":7338:7422   */\n      swap2\n      pop\n        /* \"#utility.yul\":7141:7432   */\n      pop\n        /* \"#utility.yul\":6915:7439   */\n      swap3\n      swap2\n      pop\n      pop\n      jump\t// out\n\n    auxdata: 0xa2646970667358221220e213dabbdc943d9402c0e5b4078ad5ceccf162c9aaa7bfeb81632e6749cf093264736f6c63430008170033\n}\n",
				"bytecode": {
					"linkReferences": {},
					"object": "608060405234801561000f575f80fd5b5060405161076e38038061076e833981810160405281019061003191906100d4565b805f806101000a81548173ffffffffffffffffffffffffffffffffffffffff021916908373ffffffffffffffffffffffffffffffffffffffff160217905550506100ff565b5f80fd5b5f73ffffffffffffffffffffffffffffffffffffffff82169050919050565b5f6100a38261007a565b9050919050565b6100b381610099565b81146100bd575f80fd5b50565b5f815190506100ce816100aa565b92915050565b5f602082840312156100e9576100e8610076565b5b5f6100f6848285016100c0565b91505092915050565b6106628061010c5f395ff3fe608060405234801561000f575f80fd5b506004361061003f575f3560e01c8063265b114d146100435780635152e98a1461004d578063bab1db311461006b575b5f80fd5b61004b610089565b005b61005561015d565b6040516100629190610291565b60405180910390f35b610073610180565b6040516100809190610334565b60405180910390f35b5f600143610097919061038a565b40426040516020016100aa929190610406565b604051602081830303815290604052805190602001205f1c90505f6002826100d2919061045e565b90505f8054906101000a900473ffffffffffffffffffffffffffffffffffffffff1673ffffffffffffffffffffffffffffffffffffffff1663446957f7826040518263ffffffff1660e01b815260040161012c919061049d565b5f604051808303815f87803b158015610143575f80fd5b505af1158015610155573d5f803e3d5ffd5b505050505050565b5f8054906101000a900473ffffffffffffffffffffffffffffffffffffffff1681565b60605f8054906101000a900473ffffffffffffffffffffffffffffffffffffffff1673ffffffffffffffffffffffffffffffffffffffff1663f96339306040518163ffffffff1660e01b81526004015f604051808303815f875af11580156101ea573d5f803e3d5ffd5b505050506040513d5f823e3d601f19601f8201168201806040525081019061021291906105e5565b905090565b5f73ffffffffffffffffffffffffffffffffffffffff82169050919050565b5f819050919050565b5f61025961025461024f84610217565b610236565b610217565b9050919050565b5f61026a8261023f565b9050919050565b5f61027b82610260565b9050919050565b61028b81610271565b82525050565b5f6020820190506102a45f830184610282565b92915050565b5f81519050919050565b5f82825260208201905092915050565b5f5b838110156102e15780820151818401526020810190506102c6565b5f8484015250505050565b5f601f19601f8301169050919050565b5f610306826102aa565b61031081856102b4565b93506103208185602086016102c4565b610329816102ec565b840191505092915050565b5f6020820190508181035f83015261034c81846102fc565b905092915050565b5f819050919050565b7f4e487b71000000000000000000000000000000000000000000000000000000005f52601160045260245ffd5b5f61039482610354565b915061039f83610354565b92508282039050818111156103b7576103b661035d565b5b92915050565b5f819050919050565b5f819050919050565b6103e06103db826103bd565b6103c6565b82525050565b5f819050919050565b6104006103fb82610354565b6103e6565b82525050565b5f61041182856103cf565b60208201915061042182846103ef565b6020820191508190509392505050565b7f4e487b71000000000000000000000000000000000000000000000000000000005f52601260045260245ffd5b5f61046882610354565b915061047383610354565b92508261048357610482610431565b5b828206905092915050565b61049781610354565b82525050565b5f6020820190506104b05f83018461048e565b92915050565b5f604051905090565b5f80fd5b5f80fd5b5f80fd5b5f80fd5b7f4e487b71000000000000000000000000000000000000000000000000000000005f52604160045260245ffd5b610505826102ec565b810181811067ffffffffffffffff82111715610524576105236104cf565b5b80604052505050565b5f6105366104b6565b905061054282826104fc565b919050565b5f67ffffffffffffffff821115610561576105606104cf565b5b61056a826102ec565b9050602081019050919050565b5f61058961058484610547565b61052d565b9050828152602081018484840111156105a5576105a46104cb565b5b6105b08482856102c4565b509392505050565b5f82601f8301126105cc576105cb6104c7565b5b81516105dc848260208601610577565b91505092915050565b5f602082840312156105fa576105f96104bf565b5b5f82015167ffffffffffffffff811115610617576106166104c3565b5b610623848285016105b8565b9150509291505056fea2646970667358221220e213dabbdc943d9402c0e5b4078ad5ceccf162c9aaa7bfeb81632e6749cf093264736f6c63430008170033",
					"opcodes": "PUSH1 0x80 PUSH1 0x40 MSTORE CALLVALUE DUP1 ISZERO PUSH2 0xF JUMPI PUSH0 DUP1 REVERT JUMPDEST POP PUSH1 0x40 MLOAD PUSH2 0x76E CODESIZE SUB DUP1 PUSH2 0x76E DUP4 CODECOPY DUP2 DUP2 ADD PUSH1 0x40 MSTORE DUP2 ADD SWAP1 PUSH2 0x31 SWAP2 SWAP1 PUSH2 0xD4 JUMP JUMPDEST DUP1 PUSH0 DUP1 PUSH2 0x100 EXP DUP2 SLOAD DUP2 PUSH20 0xFFFFFFFFFFFFFFFFFFFFFFFFFFFFFFFFFFFFFFFF MUL NOT AND SWAP1 DUP4 PUSH20 0xFFFFFFFFFFFFFFFFFFFFFFFFFFFFFFFFFFFFFFFF AND MUL OR SWAP1 SSTORE POP POP PUSH2 0xFF JUMP JUMPDEST PUSH0 DUP1 REVERT JUMPDEST PUSH0 PUSH20 0xFFFFFFFFFFFFFFFFFFFFFFFFFFFFFFFFFFFFFFFF DUP3 AND SWAP1 POP SWAP2 SWAP1 POP JUMP JUMPDEST PUSH0 PUSH2 0xA3 DUP3 PUSH2 0x7A JUMP JUMPDEST SWAP1 POP SWAP2 SWAP1 POP JUMP JUMPDEST PUSH2 0xB3 DUP2 PUSH2 0x99 JUMP JUMPDEST DUP2 EQ PUSH2 0xBD JUMPI PUSH0 DUP1 REVERT JUMPDEST POP JUMP JUMPDEST PUSH0 DUP2 MLOAD SWAP1 POP PUSH2 0xCE DUP2 PUSH2 0xAA JUMP JUMPDEST SWAP3 SWAP2 POP POP JUMP JUMPDEST PUSH0 PUSH1 0x20 DUP3 DUP5 SUB SLT ISZERO PUSH2 0xE9 JUMPI PUSH2 0xE8 PUSH2 0x76 JUMP JUMPDEST JUMPDEST PUSH0 PUSH2 0xF6 DUP5 DUP3 DUP6 ADD PUSH2 0xC0 JUMP JUMPDEST SWAP2 POP POP SWAP3 SWAP2 POP POP JUMP JUMPDEST PUSH2 0x662 DUP1 PUSH2 0x10C PUSH0 CODECOPY PUSH0 RETURN INVALID PUSH1 0x80 PUSH1 0x40 MSTORE CALLVALUE DUP1 ISZERO PUSH2 0xF JUMPI PUSH0 DUP1 REVERT JUMPDEST POP PUSH1 0x4 CALLDATASIZE LT PUSH2 0x3F JUMPI PUSH0 CALLDATALOAD PUSH1 0xE0 SHR DUP1 PUSH4 0x265B114D EQ PUSH2 0x43 JUMPI DUP1 PUSH4 0x5152E98A EQ PUSH2 0x4D JUMPI DUP1 PUSH4 0xBAB1DB31 EQ PUSH2 0x6B JUMPI JUMPDEST PUSH0 DUP1 REVERT JUMPDEST PUSH2 0x4B PUSH2 0x89 JUMP JUMPDEST STOP JUMPDEST PUSH2 0x55 PUSH2 0x15D JUMP JUMPDEST PUSH1 0x40 MLOAD PUSH2 0x62 SWAP2 SWAP1 PUSH2 0x291 JUMP JUMPDEST PUSH1 0x40 MLOAD DUP1 SWAP2 SUB SWAP1 RETURN JUMPDEST PUSH2 0x73 PUSH2 0x180 JUMP JUMPDEST PUSH1 0x40 MLOAD PUSH2 0x80 SWAP2 SWAP1 PUSH2 0x334 JUMP JUMPDEST PUSH1 0x40 MLOAD DUP1 SWAP2 SUB SWAP1 RETURN JUMPDEST PUSH0 PUSH1 0x1 NUMBER PUSH2 0x97 SWAP2 SWAP1 PUSH2 0x38A JUMP JUMPDEST BLOCKHASH TIMESTAMP PUSH1 0x40 MLOAD PUSH1 0x20 ADD PUSH2 0xAA SWAP3 SWAP2 SWAP1 PUSH2 0x406 JUMP JUMPDEST PUSH1 0x40 MLOAD PUSH1 0x20 DUP2 DUP4 SUB SUB DUP2 MSTORE SWAP1 PUSH1 0x40 MSTORE DUP1 MLOAD SWAP1 PUSH1 0x20 ADD KECCAK256 PUSH0 SHR SWAP1 POP PUSH0 PUSH1 0x2 DUP3 PUSH2 0xD2 SWAP2 SWAP1 PUSH2 0x45E JUMP JUMPDEST SWAP1 POP PUSH0 DUP1 SLOAD SWAP1 PUSH2 0x100 EXP SWAP1 DIV PUSH20 0xFFFFFFFFFFFFFFFFFFFFFFFFFFFFFFFFFFFFFFFF AND PUSH20 0xFFFFFFFFFFFFFFFFFFFFFFFFFFFFFFFFFFFFFFFF AND PUSH4 0x446957F7 DUP3 PUSH1 0x40 MLOAD DUP3 PUSH4 0xFFFFFFFF AND PUSH1 0xE0 SHL DUP2 MSTORE PUSH1 0x4 ADD PUSH2 0x12C SWAP2 SWAP1 PUSH2 0x49D JUMP JUMPDEST PUSH0 PUSH1 0x40 MLOAD DUP1 DUP4 SUB DUP2 PUSH0 DUP8 DUP1 EXTCODESIZE ISZERO DUP1 ISZERO PUSH2 0x143 JUMPI PUSH0 DUP1 REVERT JUMPDEST POP GAS CALL ISZERO DUP1 ISZERO PUSH2 0x155 JUMPI RETURNDATASIZE PUSH0 DUP1 RETURNDATACOPY RETURNDATASIZE PUSH0 REVERT JUMPDEST POP POP POP POP POP POP JUMP JUMPDEST PUSH0 DUP1 SLOAD SWAP1 PUSH2 0x100 EXP SWAP1 DIV PUSH20 0xFFFFFFFFFFFFFFFFFFFFFFFFFFFFFFFFFFFFFFFF AND DUP2 JUMP JUMPDEST PUSH1 0x60 PUSH0 DUP1 SLOAD SWAP1 PUSH2 0x100 EXP SWAP1 DIV PUSH20 0xFFFFFFFFFFFFFFFFFFFFFFFFFFFFFFFFFFFFFFFF AND PUSH20 0xFFFFFFFFFFFFFFFFFFFFFFFFFFFFFFFFFFFFFFFF AND PUSH4 0xF9633930 PUSH1 0x40 MLOAD DUP2 PUSH4 0xFFFFFFFF AND PUSH1 0xE0 SHL DUP2 MSTORE PUSH1 0x4 ADD PUSH0 PUSH1 0x40 MLOAD DUP1 DUP4 SUB DUP2 PUSH0 DUP8 GAS CALL ISZERO DUP1 ISZERO PUSH2 0x1EA JUMPI RETURNDATASIZE PUSH0 DUP1 RETURNDATACOPY RETURNDATASIZE PUSH0 REVERT JUMPDEST POP POP POP POP PUSH1 0x40 MLOAD RETURNDATASIZE PUSH0 DUP3 RETURNDATACOPY RETURNDATASIZE PUSH1 0x1F NOT PUSH1 0x1F DUP3 ADD AND DUP3 ADD DUP1 PUSH1 0x40 MSTORE POP DUP2 ADD SWAP1 PUSH2 0x212 SWAP2 SWAP1 PUSH2 0x5E5 JUMP JUMPDEST SWAP1 POP SWAP1 JUMP JUMPDEST PUSH0 PUSH20 0xFFFFFFFFFFFFFFFFFFFFFFFFFFFFFFFFFFFFFFFF DUP3 AND SWAP1 POP SWAP2 SWAP1 POP JUMP JUMPDEST PUSH0 DUP2 SWAP1 POP SWAP2 SWAP1 POP JUMP JUMPDEST PUSH0 PUSH2 0x259 PUSH2 0x254 PUSH2 0x24F DUP5 PUSH2 0x217 JUMP JUMPDEST PUSH2 0x236 JUMP JUMPDEST PUSH2 0x217 JUMP JUMPDEST SWAP1 POP SWAP2 SWAP1 POP JUMP JUMPDEST PUSH0 PUSH2 0x26A DUP3 PUSH2 0x23F JUMP JUMPDEST SWAP1 POP SWAP2 SWAP1 POP JUMP JUMPDEST PUSH0 PUSH2 0x27B DUP3 PUSH2 0x260 JUMP JUMPDEST SWAP1 POP SWAP2 SWAP1 POP JUMP JUMPDEST PUSH2 0x28B DUP2 PUSH2 0x271 JUMP JUMPDEST DUP3 MSTORE POP POP JUMP JUMPDEST PUSH0 PUSH1 0x20 DUP3 ADD SWAP1 POP PUSH2 0x2A4 PUSH0 DUP4 ADD DUP5 PUSH2 0x282 JUMP JUMPDEST SWAP3 SWAP2 POP POP JUMP JUMPDEST PUSH0 DUP2 MLOAD SWAP1 POP SWAP2 SWAP1 POP JUMP JUMPDEST PUSH0 DUP3 DUP3 MSTORE PUSH1 0x20 DUP3 ADD SWAP1 POP SWAP3 SWAP2 POP POP JUMP JUMPDEST PUSH0 JUMPDEST DUP4 DUP2 LT ISZERO PUSH2 0x2E1 JUMPI DUP1 DUP3 ADD MLOAD DUP2 DUP5 ADD MSTORE PUSH1 0x20 DUP2 ADD SWAP1 POP PUSH2 0x2C6 JUMP JUMPDEST PUSH0 DUP5 DUP5 ADD MSTORE POP POP POP POP JUMP JUMPDEST PUSH0 PUSH1 0x1F NOT PUSH1 0x1F DUP4 ADD AND SWAP1 POP SWAP2 SWAP1 POP JUMP JUMPDEST PUSH0 PUSH2 0x306 DUP3 PUSH2 0x2AA JUMP JUMPDEST PUSH2 0x310 DUP2 DUP6 PUSH2 0x2B4 JUMP JUMPDEST SWAP4 POP PUSH2 0x320 DUP2 DUP6 PUSH1 0x20 DUP7 ADD PUSH2 0x2C4 JUMP JUMPDEST PUSH2 0x329 DUP2 PUSH2 0x2EC JUMP JUMPDEST DUP5 ADD SWAP2 POP POP SWAP3 SWAP2 POP POP JUMP JUMPDEST PUSH0 PUSH1 0x20 DUP3 ADD SWAP1 POP DUP2 DUP2 SUB PUSH0 DUP4 ADD MSTORE PUSH2 0x34C DUP2 DUP5 PUSH2 0x2FC JUMP JUMPDEST SWAP1 POP SWAP3 SWAP2 POP POP JUMP JUMPDEST PUSH0 DUP2 SWAP1 POP SWAP2 SWAP1 POP JUMP JUMPDEST PUSH32 0x4E487B7100000000000000000000000000000000000000000000000000000000 PUSH0 MSTORE PUSH1 0x11 PUSH1 0x4 MSTORE PUSH1 0x24 PUSH0 REVERT JUMPDEST PUSH0 PUSH2 0x394 DUP3 PUSH2 0x354 JUMP JUMPDEST SWAP2 POP PUSH2 0x39F DUP4 PUSH2 0x354 JUMP JUMPDEST SWAP3 POP DUP3 DUP3 SUB SWAP1 POP DUP2 DUP2 GT ISZERO PUSH2 0x3B7 JUMPI PUSH2 0x3B6 PUSH2 0x35D JUMP JUMPDEST JUMPDEST SWAP3 SWAP2 POP POP JUMP JUMPDEST PUSH0 DUP2 SWAP1 POP SWAP2 SWAP1 POP JUMP JUMPDEST PUSH0 DUP2 SWAP1 POP SWAP2 SWAP1 POP JUMP JUMPDEST PUSH2 0x3E0 PUSH2 0x3DB DUP3 PUSH2 0x3BD JUMP JUMPDEST PUSH2 0x3C6 JUMP JUMPDEST DUP3 MSTORE POP POP JUMP JUMPDEST PUSH0 DUP2 SWAP1 POP SWAP2 SWAP1 POP JUMP JUMPDEST PUSH2 0x400 PUSH2 0x3FB DUP3 PUSH2 0x354 JUMP JUMPDEST PUSH2 0x3E6 JUMP JUMPDEST DUP3 MSTORE POP POP JUMP JUMPDEST PUSH0 PUSH2 0x411 DUP3 DUP6 PUSH2 0x3CF JUMP JUMPDEST PUSH1 0x20 DUP3 ADD SWAP2 POP PUSH2 0x421 DUP3 DUP5 PUSH2 0x3EF JUMP JUMPDEST PUSH1 0x20 DUP3 ADD SWAP2 POP DUP2 SWAP1 POP SWAP4 SWAP3 POP POP POP JUMP JUMPDEST PUSH32 0x4E487B7100000000000000000000000000000000000000000000000000000000 PUSH0 MSTORE PUSH1 0x12 PUSH1 0x4 MSTORE PUSH1 0x24 PUSH0 REVERT JUMPDEST PUSH0 PUSH2 0x468 DUP3 PUSH2 0x354 JUMP JUMPDEST SWAP2 POP PUSH2 0x473 DUP4 PUSH2 0x354 JUMP JUMPDEST SWAP3 POP DUP3 PUSH2 0x483 JUMPI PUSH2 0x482 PUSH2 0x431 JUMP JUMPDEST JUMPDEST DUP3 DUP3 MOD SWAP1 POP SWAP3 SWAP2 POP POP JUMP JUMPDEST PUSH2 0x497 DUP2 PUSH2 0x354 JUMP JUMPDEST DUP3 MSTORE POP POP JUMP JUMPDEST PUSH0 PUSH1 0x20 DUP3 ADD SWAP1 POP PUSH2 0x4B0 PUSH0 DUP4 ADD DUP5 PUSH2 0x48E JUMP JUMPDEST SWAP3 SWAP2 POP POP JUMP JUMPDEST PUSH0 PUSH1 0x40 MLOAD SWAP1 POP SWAP1 JUMP JUMPDEST PUSH0 DUP1 REVERT JUMPDEST PUSH0 DUP1 REVERT JUMPDEST PUSH0 DUP1 REVERT JUMPDEST PUSH0 DUP1 REVERT JUMPDEST PUSH32 0x4E487B7100000000000000000000000000000000000000000000000000000000 PUSH0 MSTORE PUSH1 0x41 PUSH1 0x4 MSTORE PUSH1 0x24 PUSH0 REVERT JUMPDEST PUSH2 0x505 DUP3 PUSH2 0x2EC JUMP JUMPDEST DUP2 ADD DUP2 DUP2 LT PUSH8 0xFFFFFFFFFFFFFFFF DUP3 GT OR ISZERO PUSH2 0x524 JUMPI PUSH2 0x523 PUSH2 0x4CF JUMP JUMPDEST JUMPDEST DUP1 PUSH1 0x40 MSTORE POP POP POP JUMP JUMPDEST PUSH0 PUSH2 0x536 PUSH2 0x4B6 JUMP JUMPDEST SWAP1 POP PUSH2 0x542 DUP3 DUP3 PUSH2 0x4FC JUMP JUMPDEST SWAP2 SWAP1 POP JUMP JUMPDEST PUSH0 PUSH8 0xFFFFFFFFFFFFFFFF DUP3 GT ISZERO PUSH2 0x561 JUMPI PUSH2 0x560 PUSH2 0x4CF JUMP JUMPDEST JUMPDEST PUSH2 0x56A DUP3 PUSH2 0x2EC JUMP JUMPDEST SWAP1 POP PUSH1 0x20 DUP2 ADD SWAP1 POP SWAP2 SWAP1 POP JUMP JUMPDEST PUSH0 PUSH2 0x589 PUSH2 0x584 DUP5 PUSH2 0x547 JUMP JUMPDEST PUSH2 0x52D JUMP JUMPDEST SWAP1 POP DUP3 DUP2 MSTORE PUSH1 0x20 DUP2 ADD DUP5 DUP5 DUP5 ADD GT ISZERO PUSH2 0x5A5 JUMPI PUSH2 0x5A4 PUSH2 0x4CB JUMP JUMPDEST JUMPDEST PUSH2 0x5B0 DUP5 DUP3 DUP6 PUSH2 0x2C4 JUMP JUMPDEST POP SWAP4 SWAP3 POP POP POP JUMP JUMPDEST PUSH0 DUP3 PUSH1 0x1F DUP4 ADD SLT PUSH2 0x5CC JUMPI PUSH2 0x5CB PUSH2 0x4C7 JUMP JUMPDEST JUMPDEST DUP2 MLOAD PUSH2 0x5DC DUP5 DUP3 PUSH1 0x20 DUP7 ADD PUSH2 0x577 JUMP JUMPDEST SWAP2 POP POP SWAP3 SWAP2 POP POP JUMP JUMPDEST PUSH0 PUSH1 0x20 DUP3 DUP5 SUB SLT ISZERO PUSH2 0x5FA JUMPI PUSH2 0x5F9 PUSH2 0x4BF JUMP JUMPDEST JUMPDEST PUSH0 DUP3 ADD MLOAD PUSH8 0xFFFFFFFFFFFFFFFF DUP2 GT ISZERO PUSH2 0x617 JUMPI PUSH2 0x616 PUSH2 0x4C3 JUMP JUMPDEST JUMPDEST PUSH2 0x623 DUP5 DUP3 DUP6 ADD PUSH2 0x5B8 JUMP JUMPDEST SWAP2 POP POP SWAP3 SWAP2 POP POP JUMP INVALID LOG2 PUSH5 0x6970667358 0x22 SLT KECCAK256 0xE2 SGT 0xDA 0xBB 0xDC SWAP5 RETURNDATASIZE SWAP5 MUL 0xC0 0xE5 0xB4 SMOD DUP11 0xD5 0xCE 0xCC CALL PUSH3 0xC9AAA7 0xBF 0xEB DUP2 PUSH4 0x2E6749CF MULMOD ORIGIN PUSH5 0x736F6C6343 STOP ADDMOD OR STOP CALLER "
				},
				"gasEstimates": {
					"creation": {
						"codeDepositCost": "326800",
						"executionCost": "infinite",
						"totalCost": "infinite"
					},
					"external": {
						"getFlagFromContract()": "infinite",
						"guessEvenOrOddContract()": "infinite",
						"predictAndGuess()": "infinite"
					}
				},
				"methodIdentifiers": {
					"getFlagFromContract()": "bab1db31",
					"guessEvenOrOddContract()": "5152e98a",
					"predictAndGuess()": "265b114d"
				}
			},
			"storageLayout": {
				"storage": [
					{
						"astId": 15,
						"contract": "newLevels/solucionpargpt.sol:PredictAndGuess",
						"label": "guessEvenOrOddContract",
						"offset": 0,
						"slot": "0",
						"type": "t_contract(IGuessEvenOrOdd)12"
					}
				],
				"types": {
					"t_contract(IGuessEvenOrOdd)12": {
						"encoding": "inplace",
						"label": "contract IGuessEvenOrOdd",
						"numberOfBytes": "20"
					}
				}
			},
			"userdoc": {
				"kind": "user",
				"methods": {},
				"version": 1
			}
		}
	}
}