{
	"newLevels/multisigLevelup.sol": {
		"MultiSigWallet": {
			"abi": [
				{
					"inputs": [
						{
							"internalType": "address",
							"name": "_firstOwner",
							"type": "address"
						}
					],
					"stateMutability": "nonpayable",
					"type": "constructor"
				},
				{
					"anonymous": false,
					"inputs": [
						{
							"indexed": true,
							"internalType": "address",
							"name": "owner",
							"type": "address"
						},
						{
							"indexed": true,
							"internalType": "uint256",
							"name": "txIndex",
							"type": "uint256"
						}
					],
					"name": "ConfirmTransaction",
					"type": "event"
				},
				{
					"anonymous": false,
					"inputs": [
						{
							"indexed": true,
							"internalType": "address",
							"name": "sender",
							"type": "address"
						},
						{
							"indexed": false,
							"internalType": "uint256",
							"name": "amount",
							"type": "uint256"
						},
						{
							"indexed": false,
							"internalType": "uint256",
							"name": "balance",
							"type": "uint256"
						}
					],
					"name": "Deposit",
					"type": "event"
				},
				{
					"anonymous": false,
					"inputs": [
						{
							"indexed": true,
							"internalType": "address",
							"name": "owner",
							"type": "address"
						},
						{
							"indexed": true,
							"internalType": "uint256",
							"name": "txIndex",
							"type": "uint256"
						}
					],
					"name": "ExecuteTransaction",
					"type": "event"
				},
				{
					"anonymous": false,
					"inputs": [
						{
							"indexed": true,
							"internalType": "address",
							"name": "owner",
							"type": "address"
						}
					],
					"name": "OwnerAdded",
					"type": "event"
				},
				{
					"anonymous": false,
					"inputs": [
						{
							"indexed": true,
							"internalType": "address",
							"name": "owner",
							"type": "address"
						}
					],
					"name": "OwnerRemoved",
					"type": "event"
				},
				{
					"anonymous": false,
					"inputs": [
						{
							"indexed": true,
							"internalType": "address",
							"name": "owner",
							"type": "address"
						},
						{
							"indexed": true,
							"internalType": "uint256",
							"name": "txIndex",
							"type": "uint256"
						}
					],
					"name": "RevokeConfirmation",
					"type": "event"
				},
				{
					"anonymous": false,
					"inputs": [
						{
							"indexed": true,
							"internalType": "address",
							"name": "owner",
							"type": "address"
						},
						{
							"indexed": true,
							"internalType": "uint256",
							"name": "txIndex",
							"type": "uint256"
						},
						{
							"indexed": true,
							"internalType": "address",
							"name": "to",
							"type": "address"
						},
						{
							"indexed": false,
							"internalType": "uint256",
							"name": "value",
							"type": "uint256"
						},
						{
							"indexed": false,
							"internalType": "bytes",
							"name": "data",
							"type": "bytes"
						}
					],
					"name": "SubmitTransaction",
					"type": "event"
				},
				{
					"inputs": [],
					"name": "MAX_OWNERS",
					"outputs": [
						{
							"internalType": "uint256",
							"name": "",
							"type": "uint256"
						}
					],
					"stateMutability": "view",
					"type": "function"
				},
				{
					"inputs": [
						{
							"internalType": "address",
							"name": "_newOwner",
							"type": "address"
						}
					],
					"name": "addOwner",
					"outputs": [],
					"stateMutability": "nonpayable",
					"type": "function"
				},
				{
					"inputs": [
						{
							"internalType": "uint256",
							"name": "_txIndex",
							"type": "uint256"
						}
					],
					"name": "confirmTransaction",
					"outputs": [],
					"stateMutability": "nonpayable",
					"type": "function"
				},
				{
					"inputs": [
						{
							"internalType": "uint256",
							"name": "_txIndex",
							"type": "uint256"
						}
					],
					"name": "executeTransaction",
					"outputs": [],
					"stateMutability": "nonpayable",
					"type": "function"
				},
				{
					"inputs": [],
					"name": "getOwners",
					"outputs": [
						{
							"internalType": "address[]",
							"name": "",
							"type": "address[]"
						}
					],
					"stateMutability": "view",
					"type": "function"
				},
				{
					"inputs": [
						{
							"internalType": "uint256",
							"name": "_txIndex",
							"type": "uint256"
						}
					],
					"name": "getTransaction",
					"outputs": [
						{
							"internalType": "address",
							"name": "to",
							"type": "address"
						},
						{
							"internalType": "uint256",
							"name": "value",
							"type": "uint256"
						},
						{
							"internalType": "bytes",
							"name": "data",
							"type": "bytes"
						},
						{
							"internalType": "bool",
							"name": "executed",
							"type": "bool"
						},
						{
							"internalType": "uint256",
							"name": "numConfirmations",
							"type": "uint256"
						}
					],
					"stateMutability": "view",
					"type": "function"
				},
				{
					"inputs": [],
					"name": "getTransactionCount",
					"outputs": [
						{
							"internalType": "uint256",
							"name": "",
							"type": "uint256"
						}
					],
					"stateMutability": "view",
					"type": "function"
				},
				{
					"inputs": [
						{
							"internalType": "uint256",
							"name": "",
							"type": "uint256"
						},
						{
							"internalType": "address",
							"name": "",
							"type": "address"
						}
					],
					"name": "isConfirmed",
					"outputs": [
						{
							"internalType": "bool",
							"name": "",
							"type": "bool"
						}
					],
					"stateMutability": "view",
					"type": "function"
				},
				{
					"inputs": [
						{
							"internalType": "address",
							"name": "",
							"type": "address"
						}
					],
					"name": "isOwner",
					"outputs": [
						{
							"internalType": "bool",
							"name": "",
							"type": "bool"
						}
					],
					"stateMutability": "view",
					"type": "function"
				},
				{
					"inputs": [],
					"name": "numConfirmationsRequired",
					"outputs": [
						{
							"internalType": "uint256",
							"name": "",
							"type": "uint256"
						}
					],
					"stateMutability": "view",
					"type": "function"
				},
				{
					"inputs": [
						{
							"internalType": "uint256",
							"name": "",
							"type": "uint256"
						}
					],
					"name": "owners",
					"outputs": [
						{
							"internalType": "address",
							"name": "",
							"type": "address"
						}
					],
					"stateMutability": "view",
					"type": "function"
				},
				{
					"inputs": [
						{
							"internalType": "address",
							"name": "_owner",
							"type": "address"
						}
					],
					"name": "removeOwner",
					"outputs": [],
					"stateMutability": "nonpayable",
					"type": "function"
				},
				{
					"inputs": [
						{
							"internalType": "uint256",
							"name": "_txIndex",
							"type": "uint256"
						}
					],
					"name": "revokeConfirmation",
					"outputs": [],
					"stateMutability": "nonpayable",
					"type": "function"
				},
				{
					"inputs": [
						{
							"internalType": "address",
							"name": "_to",
							"type": "address"
						},
						{
							"internalType": "uint256",
							"name": "_value",
							"type": "uint256"
						},
						{
							"internalType": "bytes",
							"name": "_data",
							"type": "bytes"
						}
					],
					"name": "submitTransaction",
					"outputs": [],
					"stateMutability": "nonpayable",
					"type": "function"
				},
				{
					"inputs": [
						{
							"internalType": "uint256",
							"name": "",
							"type": "uint256"
						}
					],
					"name": "transactions",
					"outputs": [
						{
							"internalType": "address",
							"name": "to",
							"type": "address"
						},
						{
							"internalType": "uint256",
							"name": "value",
							"type": "uint256"
						},
						{
							"internalType": "bytes",
							"name": "data",
							"type": "bytes"
						},
						{
							"internalType": "bool",
							"name": "executed",
							"type": "bool"
						},
						{
							"internalType": "uint256",
							"name": "numConfirmations",
							"type": "uint256"
						}
					],
					"stateMutability": "view",
					"type": "function"
				},
				{
					"stateMutability": "payable",
					"type": "receive"
				}
			],
			"devdoc": {
				"kind": "dev",
				"methods": {},
				"version": 1
			},
			"evm": {
				"assembly": "    /* \"newLevels/multisigLevelup.sol\":61:5459  contract MultiSigWallet {... */\n  mstore(0x40, 0x80)\n    /* \"newLevels/multisigLevelup.sol\":815:816  2 */\n  0x02\n    /* \"newLevels/multisigLevelup.sol\":776:816  uint public numConfirmationsRequired = 2 */\n  dup1\n  sstore\n    /* \"newLevels/multisigLevelup.sol\":1603:1779  constructor(address _firstOwner) {... */\n  callvalue\n  dup1\n  iszero\n  tag_1\n  jumpi\n  0x00\n  dup1\n  revert\ntag_1:\n  pop\n  mload(0x40)\n  sub(codesize, bytecodeSize)\n  dup1\n  bytecodeSize\n  dup4\n  codecopy\n  dup2\n  dup2\n  add\n  0x40\n  mstore\n  dup2\n  add\n  swap1\n  tag_2\n  swap2\n  swap1\n  tag_3\n  jump\t// in\ntag_2:\n    /* \"newLevels/multisigLevelup.sol\":1678:1679  0 */\n  0x00\n    /* \"newLevels/multisigLevelup.sol\":1655:1680  _firstOwner != address(0) */\n  0xffffffffffffffffffffffffffffffffffffffff\n  and\n    /* \"newLevels/multisigLevelup.sol\":1655:1666  _firstOwner */\n  dup2\n    /* \"newLevels/multisigLevelup.sol\":1655:1680  _firstOwner != address(0) */\n  0xffffffffffffffffffffffffffffffffffffffff\n  and\n  sub\n    /* \"newLevels/multisigLevelup.sol\":1647:1698  require(_firstOwner != address(0), \"invalid owner\") */\n  tag_6\n  jumpi\n  mload(0x40)\n  0x08c379a000000000000000000000000000000000000000000000000000000000\n  dup2\n  mstore\n  0x04\n  add\n  tag_7\n  swap1\n  tag_8\n  jump\t// in\ntag_7:\n  mload(0x40)\n  dup1\n  swap2\n  sub\n  swap1\n  revert\ntag_6:\n    /* \"newLevels/multisigLevelup.sol\":1732:1736  true */\n  0x01\n    /* \"newLevels/multisigLevelup.sol\":1709:1716  isOwner */\n  dup1\n    /* \"newLevels/multisigLevelup.sol\":1709:1729  isOwner[_firstOwner] */\n  0x00\n    /* \"newLevels/multisigLevelup.sol\":1717:1728  _firstOwner */\n  dup4\n    /* \"newLevels/multisigLevelup.sol\":1709:1729  isOwner[_firstOwner] */\n  0xffffffffffffffffffffffffffffffffffffffff\n  and\n  0xffffffffffffffffffffffffffffffffffffffff\n  and\n  dup2\n  mstore\n  0x20\n  add\n  swap1\n  dup2\n  mstore\n  0x20\n  add\n  0x00\n  keccak256\n  0x00\n    /* \"newLevels/multisigLevelup.sol\":1709:1736  isOwner[_firstOwner] = true */\n  0x0100\n  exp\n  dup2\n  sload\n  dup2\n  0xff\n  mul\n  not\n  and\n  swap1\n  dup4\n  iszero\n  iszero\n  mul\n  or\n  swap1\n  sstore\n  pop\n    /* \"newLevels/multisigLevelup.sol\":1747:1753  owners */\n  0x00\n    /* \"newLevels/multisigLevelup.sol\":1759:1770  _firstOwner */\n  dup2\n    /* \"newLevels/multisigLevelup.sol\":1747:1771  owners.push(_firstOwner) */\n  swap1\n  dup1\n  0x01\n  dup2\n  sload\n  add\n  dup1\n  dup3\n  sstore\n  dup1\n  swap2\n  pop\n  pop\n  0x01\n  swap1\n  sub\n  swap1\n  0x00\n  mstore\n  keccak256(0x00, 0x20)\n  add\n  0x00\n  swap1\n  swap2\n  swap1\n  swap2\n  swap1\n  swap2\n  0x0100\n  exp\n  dup2\n  sload\n  dup2\n  0xffffffffffffffffffffffffffffffffffffffff\n  mul\n  not\n  and\n  swap1\n  dup4\n  0xffffffffffffffffffffffffffffffffffffffff\n  and\n  mul\n  or\n  swap1\n  sstore\n  pop\n    /* \"newLevels/multisigLevelup.sol\":1603:1779  constructor(address _firstOwner) {... */\n  pop\n    /* \"newLevels/multisigLevelup.sol\":61:5459  contract MultiSigWallet {... */\n  jump(tag_10)\n    /* \"#utility.yul\":88:205   */\ntag_12:\n    /* \"#utility.yul\":197:198   */\n  0x00\n    /* \"#utility.yul\":194:195   */\n  dup1\n    /* \"#utility.yul\":187:199   */\n  revert\n    /* \"#utility.yul\":334:460   */\ntag_14:\n    /* \"#utility.yul\":371:378   */\n  0x00\n    /* \"#utility.yul\":411:453   */\n  0xffffffffffffffffffffffffffffffffffffffff\n    /* \"#utility.yul\":404:409   */\n  dup3\n    /* \"#utility.yul\":400:454   */\n  and\n    /* \"#utility.yul\":389:454   */\n  swap1\n  pop\n    /* \"#utility.yul\":334:460   */\n  swap2\n  swap1\n  pop\n  jump\t// out\n    /* \"#utility.yul\":466:562   */\ntag_15:\n    /* \"#utility.yul\":503:510   */\n  0x00\n    /* \"#utility.yul\":532:556   */\n  tag_27\n    /* \"#utility.yul\":550:555   */\n  dup3\n    /* \"#utility.yul\":532:556   */\n  tag_14\n  jump\t// in\ntag_27:\n    /* \"#utility.yul\":521:556   */\n  swap1\n  pop\n    /* \"#utility.yul\":466:562   */\n  swap2\n  swap1\n  pop\n  jump\t// out\n    /* \"#utility.yul\":568:690   */\ntag_16:\n    /* \"#utility.yul\":641:665   */\n  tag_29\n    /* \"#utility.yul\":659:664   */\n  dup2\n    /* \"#utility.yul\":641:665   */\n  tag_15\n  jump\t// in\ntag_29:\n    /* \"#utility.yul\":634:639   */\n  dup2\n    /* \"#utility.yul\":631:666   */\n  eq\n    /* \"#utility.yul\":621:684   */\n  tag_30\n  jumpi\n    /* \"#utility.yul\":680:681   */\n  0x00\n    /* \"#utility.yul\":677:678   */\n  dup1\n    /* \"#utility.yul\":670:682   */\n  revert\n    /* \"#utility.yul\":621:684   */\ntag_30:\n    /* \"#utility.yul\":568:690   */\n  pop\n  jump\t// out\n    /* \"#utility.yul\":696:839   */\ntag_17:\n    /* \"#utility.yul\":753:758   */\n  0x00\n    /* \"#utility.yul\":784:790   */\n  dup2\n    /* \"#utility.yul\":778:791   */\n  mload\n    /* \"#utility.yul\":769:791   */\n  swap1\n  pop\n    /* \"#utility.yul\":800:833   */\n  tag_32\n    /* \"#utility.yul\":827:832   */\n  dup2\n    /* \"#utility.yul\":800:833   */\n  tag_16\n  jump\t// in\ntag_32:\n    /* \"#utility.yul\":696:839   */\n  swap3\n  swap2\n  pop\n  pop\n  jump\t// out\n    /* \"#utility.yul\":845:1196   */\ntag_3:\n    /* \"#utility.yul\":915:921   */\n  0x00\n    /* \"#utility.yul\":964:966   */\n  0x20\n    /* \"#utility.yul\":952:961   */\n  dup3\n    /* \"#utility.yul\":943:950   */\n  dup5\n    /* \"#utility.yul\":939:962   */\n  sub\n    /* \"#utility.yul\":935:967   */\n  slt\n    /* \"#utility.yul\":932:1051   */\n  iszero\n  tag_34\n  jumpi\n    /* \"#utility.yul\":970:1049   */\n  tag_35\n  tag_12\n  jump\t// in\ntag_35:\n    /* \"#utility.yul\":932:1051   */\ntag_34:\n    /* \"#utility.yul\":1090:1091   */\n  0x00\n    /* \"#utility.yul\":1115:1179   */\n  tag_36\n    /* \"#utility.yul\":1171:1178   */\n  dup5\n    /* \"#utility.yul\":1162:1168   */\n  dup3\n    /* \"#utility.yul\":1151:1160   */\n  dup6\n    /* \"#utility.yul\":1147:1169   */\n  add\n    /* \"#utility.yul\":1115:1179   */\n  tag_17\n  jump\t// in\ntag_36:\n    /* \"#utility.yul\":1105:1179   */\n  swap2\n  pop\n    /* \"#utility.yul\":1061:1189   */\n  pop\n    /* \"#utility.yul\":845:1196   */\n  swap3\n  swap2\n  pop\n  pop\n  jump\t// out\n    /* \"#utility.yul\":1202:1371   */\ntag_18:\n    /* \"#utility.yul\":1286:1297   */\n  0x00\n    /* \"#utility.yul\":1320:1326   */\n  dup3\n    /* \"#utility.yul\":1315:1318   */\n  dup3\n    /* \"#utility.yul\":1308:1327   */\n  mstore\n    /* \"#utility.yul\":1360:1364   */\n  0x20\n    /* \"#utility.yul\":1355:1358   */\n  dup3\n    /* \"#utility.yul\":1351:1365   */\n  add\n    /* \"#utility.yul\":1336:1365   */\n  swap1\n  pop\n    /* \"#utility.yul\":1202:1371   */\n  swap3\n  swap2\n  pop\n  pop\n  jump\t// out\n    /* \"#utility.yul\":1377:1540   */\ntag_19:\n    /* \"#utility.yul\":1517:1532   */\n  0x696e76616c6964206f776e657200000000000000000000000000000000000000\n    /* \"#utility.yul\":1513:1514   */\n  0x00\n    /* \"#utility.yul\":1505:1511   */\n  dup3\n    /* \"#utility.yul\":1501:1515   */\n  add\n    /* \"#utility.yul\":1494:1533   */\n  mstore\n    /* \"#utility.yul\":1377:1540   */\n  pop\n  jump\t// out\n    /* \"#utility.yul\":1546:1912   */\ntag_20:\n    /* \"#utility.yul\":1688:1691   */\n  0x00\n    /* \"#utility.yul\":1709:1776   */\n  tag_40\n    /* \"#utility.yul\":1773:1775   */\n  0x0d\n    /* \"#utility.yul\":1768:1771   */\n  dup4\n    /* \"#utility.yul\":1709:1776   */\n  tag_18\n  jump\t// in\ntag_40:\n    /* \"#utility.yul\":1702:1776   */\n  swap2\n  pop\n    /* \"#utility.yul\":1785:1878   */\n  tag_41\n    /* \"#utility.yul\":1874:1877   */\n  dup3\n    /* \"#utility.yul\":1785:1878   */\n  tag_19\n  jump\t// in\ntag_41:\n    /* \"#utility.yul\":1903:1905   */\n  0x20\n    /* \"#utility.yul\":1898:1901   */\n  dup3\n    /* \"#utility.yul\":1894:1906   */\n  add\n    /* \"#utility.yul\":1887:1906   */\n  swap1\n  pop\n    /* \"#utility.yul\":1546:1912   */\n  swap2\n  swap1\n  pop\n  jump\t// out\n    /* \"#utility.yul\":1918:2337   */\ntag_8:\n    /* \"#utility.yul\":2084:2088   */\n  0x00\n    /* \"#utility.yul\":2122:2124   */\n  0x20\n    /* \"#utility.yul\":2111:2120   */\n  dup3\n    /* \"#utility.yul\":2107:2125   */\n  add\n    /* \"#utility.yul\":2099:2125   */\n  swap1\n  pop\n    /* \"#utility.yul\":2171:2180   */\n  dup2\n    /* \"#utility.yul\":2165:2169   */\n  dup2\n    /* \"#utility.yul\":2161:2181   */\n  sub\n    /* \"#utility.yul\":2157:2158   */\n  0x00\n    /* \"#utility.yul\":2146:2155   */\n  dup4\n    /* \"#utility.yul\":2142:2159   */\n  add\n    /* \"#utility.yul\":2135:2182   */\n  mstore\n    /* \"#utility.yul\":2199:2330   */\n  tag_43\n    /* \"#utility.yul\":2325:2329   */\n  dup2\n    /* \"#utility.yul\":2199:2330   */\n  tag_20\n  jump\t// in\ntag_43:\n    /* \"#utility.yul\":2191:2330   */\n  swap1\n  pop\n    /* \"#utility.yul\":1918:2337   */\n  swap2\n  swap1\n  pop\n  jump\t// out\n    /* \"newLevels/multisigLevelup.sol\":61:5459  contract MultiSigWallet {... */\ntag_10:\n  dataSize(sub_0)\n  dup1\n  dataOffset(sub_0)\n  0x00\n  codecopy\n  0x00\n  return\nstop\n\nsub_0: assembly {\n        /* \"newLevels/multisigLevelup.sol\":61:5459  contract MultiSigWallet {... */\n      mstore(0x40, 0x80)\n      jumpi(tag_1, lt(calldatasize, 0x04))\n      shr(0xe0, calldataload(0x00))\n      dup1\n      0x7065cb48\n      gt\n      tag_18\n      jumpi\n      dup1\n      0xc01a8c84\n      gt\n      tag_19\n      jumpi\n      dup1\n      0xc01a8c84\n      eq\n      tag_14\n      jumpi\n      dup1\n      0xc6427474\n      eq\n      tag_15\n      jumpi\n      dup1\n      0xd0549b85\n      eq\n      tag_16\n      jumpi\n      dup1\n      0xee22610b\n      eq\n      tag_17\n      jumpi\n      jump(tag_2)\n    tag_19:\n      dup1\n      0x7065cb48\n      eq\n      tag_10\n      jumpi\n      dup1\n      0x80f59a65\n      eq\n      tag_11\n      jumpi\n      dup1\n      0x9ace38c2\n      eq\n      tag_12\n      jumpi\n      dup1\n      0xa0e67e2b\n      eq\n      tag_13\n      jumpi\n      jump(tag_2)\n    tag_18:\n      dup1\n      0x20ea8d86\n      gt\n      tag_20\n      jumpi\n      dup1\n      0x20ea8d86\n      eq\n      tag_6\n      jumpi\n      dup1\n      0x2e7700f0\n      eq\n      tag_7\n      jumpi\n      dup1\n      0x2f54bf6e\n      eq\n      tag_8\n      jumpi\n      dup1\n      0x33ea3dc8\n      eq\n      tag_9\n      jumpi\n      jump(tag_2)\n    tag_20:\n      dup1\n      0x025e7c27\n      eq\n      tag_3\n      jumpi\n      dup1\n      0x0b8bb146\n      eq\n      tag_4\n      jumpi\n      dup1\n      0x173825d9\n      eq\n      tag_5\n      jumpi\n      jump(tag_2)\n    tag_1:\n      jumpi(tag_2, calldatasize)\n        /* \"newLevels/multisigLevelup.sol\":2678:2688  msg.sender */\n      caller\n        /* \"newLevels/multisigLevelup.sol\":2670:2723  Deposit(msg.sender, msg.value, address(this).balance) */\n      0xffffffffffffffffffffffffffffffffffffffff\n      and\n      0x90890809c654f11d6e72a28fa60149770a0d11ec6c92319d6ceb2bb0a4ea1a15\n        /* \"newLevels/multisigLevelup.sol\":2690:2699  msg.value */\n      callvalue\n        /* \"newLevels/multisigLevelup.sol\":2701:2722  address(this).balance */\n      selfbalance\n        /* \"newLevels/multisigLevelup.sol\":2670:2723  Deposit(msg.sender, msg.value, address(this).balance) */\n      mload(0x40)\n      tag_23\n      swap3\n      swap2\n      swap1\n      tag_24\n      jump\t// in\n    tag_23:\n      mload(0x40)\n      dup1\n      swap2\n      sub\n      swap1\n      log2\n        /* \"newLevels/multisigLevelup.sol\":61:5459  contract MultiSigWallet {... */\n      stop\n    tag_2:\n      0x00\n      dup1\n      revert\n        /* \"newLevels/multisigLevelup.sol\":658:681  address[] public owners */\n    tag_3:\n      callvalue\n      dup1\n      iszero\n      tag_25\n      jumpi\n      0x00\n      dup1\n      revert\n    tag_25:\n      pop\n      tag_26\n      0x04\n      dup1\n      calldatasize\n      sub\n      dup2\n      add\n      swap1\n      tag_27\n      swap2\n      swap1\n      tag_28\n      jump\t// in\n    tag_27:\n      tag_29\n      jump\t// in\n    tag_26:\n      mload(0x40)\n      tag_30\n      swap2\n      swap1\n      tag_31\n      jump\t// in\n    tag_30:\n      mload(0x40)\n      dup1\n      swap2\n      sub\n      swap1\n      return\n        /* \"newLevels/multisigLevelup.sol\":734:769  uint public constant MAX_OWNERS = 3 */\n    tag_4:\n      callvalue\n      dup1\n      iszero\n      tag_32\n      jumpi\n      0x00\n      dup1\n      revert\n    tag_32:\n      pop\n      tag_33\n      tag_34\n      jump\t// in\n    tag_33:\n      mload(0x40)\n      tag_35\n      swap2\n      swap1\n      tag_36\n      jump\t// in\n    tag_35:\n      mload(0x40)\n      dup1\n      swap2\n      sub\n      swap1\n      return\n        /* \"newLevels/multisigLevelup.sol\":2148:2619  function removeOwner(address _owner) public {... */\n    tag_5:\n      callvalue\n      dup1\n      iszero\n      tag_37\n      jumpi\n      0x00\n      dup1\n      revert\n    tag_37:\n      pop\n      tag_38\n      0x04\n      dup1\n      calldatasize\n      sub\n      dup2\n      add\n      swap1\n      tag_39\n      swap2\n      swap1\n      tag_40\n      jump\t// in\n    tag_39:\n      tag_41\n      jump\t// in\n    tag_38:\n      stop\n        /* \"newLevels/multisigLevelup.sol\":4248:4696  function revokeConfirmation(uint _txIndex)... */\n    tag_6:\n      callvalue\n      dup1\n      iszero\n      tag_42\n      jumpi\n      0x00\n      dup1\n      revert\n    tag_42:\n      pop\n      tag_43\n      0x04\n      dup1\n      calldatasize\n      sub\n      dup2\n      add\n      swap1\n      tag_44\n      swap2\n      swap1\n      tag_28\n      jump\t// in\n    tag_44:\n      tag_45\n      jump\t// in\n    tag_43:\n      stop\n        /* \"newLevels/multisigLevelup.sol\":4804:4907  function getTransactionCount() public view returns (uint) {... */\n    tag_7:\n      callvalue\n      dup1\n      iszero\n      tag_46\n      jumpi\n      0x00\n      dup1\n      revert\n    tag_46:\n      pop\n      tag_47\n      tag_48\n      jump\t// in\n    tag_47:\n      mload(0x40)\n      tag_49\n      swap2\n      swap1\n      tag_36\n      jump\t// in\n    tag_49:\n      mload(0x40)\n      dup1\n      swap2\n      sub\n      swap1\n      return\n        /* \"newLevels/multisigLevelup.sol\":688:727  mapping(address => bool) public isOwner */\n    tag_8:\n      callvalue\n      dup1\n      iszero\n      tag_50\n      jumpi\n      0x00\n      dup1\n      revert\n    tag_50:\n      pop\n      tag_51\n      0x04\n      dup1\n      calldatasize\n      sub\n      dup2\n      add\n      swap1\n      tag_52\n      swap2\n      swap1\n      tag_40\n      jump\t// in\n    tag_52:\n      tag_53\n      jump\t// in\n    tag_51:\n      mload(0x40)\n      tag_54\n      swap2\n      swap1\n      tag_55\n      jump\t// in\n    tag_54:\n      mload(0x40)\n      dup1\n      swap2\n      sub\n      swap1\n      return\n        /* \"newLevels/multisigLevelup.sol\":4915:5456  function getTransaction(... */\n    tag_9:\n      callvalue\n      dup1\n      iszero\n      tag_56\n      jumpi\n      0x00\n      dup1\n      revert\n    tag_56:\n      pop\n      tag_57\n      0x04\n      dup1\n      calldatasize\n      sub\n      dup2\n      add\n      swap1\n      tag_58\n      swap2\n      swap1\n      tag_28\n      jump\t// in\n    tag_58:\n      tag_59\n      jump\t// in\n    tag_57:\n      mload(0x40)\n      tag_60\n      swap6\n      swap5\n      swap4\n      swap3\n      swap2\n      swap1\n      tag_61\n      jump\t// in\n    tag_60:\n      mload(0x40)\n      dup1\n      swap2\n      sub\n      swap1\n      return\n        /* \"newLevels/multisigLevelup.sol\":1787:2140  function addOwner(address _newOwner) public {... */\n    tag_10:\n      callvalue\n      dup1\n      iszero\n      tag_62\n      jumpi\n      0x00\n      dup1\n      revert\n    tag_62:\n      pop\n      tag_63\n      0x04\n      dup1\n      calldatasize\n      sub\n      dup2\n      add\n      swap1\n      tag_64\n      swap2\n      swap1\n      tag_40\n      jump\t// in\n    tag_64:\n      tag_65\n      jump\t// in\n    tag_63:\n      stop\n        /* \"newLevels/multisigLevelup.sol\":979:1039  mapping(uint => mapping(address => bool)) public isConfirmed */\n    tag_11:\n      callvalue\n      dup1\n      iszero\n      tag_66\n      jumpi\n      0x00\n      dup1\n      revert\n    tag_66:\n      pop\n      tag_67\n      0x04\n      dup1\n      calldatasize\n      sub\n      dup2\n      add\n      swap1\n      tag_68\n      swap2\n      swap1\n      tag_69\n      jump\t// in\n    tag_68:\n      tag_70\n      jump\t// in\n    tag_67:\n      mload(0x40)\n      tag_71\n      swap2\n      swap1\n      tag_55\n      jump\t// in\n    tag_71:\n      mload(0x40)\n      dup1\n      swap2\n      sub\n      swap1\n      return\n        /* \"newLevels/multisigLevelup.sol\":1046:1079  Transaction[] public transactions */\n    tag_12:\n      callvalue\n      dup1\n      iszero\n      tag_72\n      jumpi\n      0x00\n      dup1\n      revert\n    tag_72:\n      pop\n      tag_73\n      0x04\n      dup1\n      calldatasize\n      sub\n      dup2\n      add\n      swap1\n      tag_74\n      swap2\n      swap1\n      tag_28\n      jump\t// in\n    tag_74:\n      tag_75\n      jump\t// in\n    tag_73:\n      mload(0x40)\n      tag_76\n      swap6\n      swap5\n      swap4\n      swap3\n      swap2\n      swap1\n      tag_61\n      jump\t// in\n    tag_76:\n      mload(0x40)\n      dup1\n      swap2\n      sub\n      swap1\n      return\n        /* \"newLevels/multisigLevelup.sol\":4704:4796  function getOwners() public view returns (address[] memory) {... */\n    tag_13:\n      callvalue\n      dup1\n      iszero\n      tag_77\n      jumpi\n      0x00\n      dup1\n      revert\n    tag_77:\n      pop\n      tag_78\n      tag_79\n      jump\t// in\n    tag_78:\n      mload(0x40)\n      tag_80\n      swap2\n      swap1\n      tag_81\n      jump\t// in\n    tag_80:\n      mload(0x40)\n      dup1\n      swap2\n      sub\n      swap1\n      return\n        /* \"newLevels/multisigLevelup.sol\":3244:3646  function confirmTransaction(uint _txIndex)... */\n    tag_14:\n      callvalue\n      dup1\n      iszero\n      tag_82\n      jumpi\n      0x00\n      dup1\n      revert\n    tag_82:\n      pop\n      tag_83\n      0x04\n      dup1\n      calldatasize\n      sub\n      dup2\n      add\n      swap1\n      tag_84\n      swap2\n      swap1\n      tag_28\n      jump\t// in\n    tag_84:\n      tag_85\n      jump\t// in\n    tag_83:\n      stop\n        /* \"newLevels/multisigLevelup.sol\":2739:3236  function submitTransaction(... */\n    tag_15:\n      callvalue\n      dup1\n      iszero\n      tag_86\n      jumpi\n      0x00\n      dup1\n      revert\n    tag_86:\n      pop\n      tag_87\n      0x04\n      dup1\n      calldatasize\n      sub\n      dup2\n      add\n      swap1\n      tag_88\n      swap2\n      swap1\n      tag_89\n      jump\t// in\n    tag_88:\n      tag_90\n      jump\t// in\n    tag_87:\n      stop\n        /* \"newLevels/multisigLevelup.sol\":776:816  uint public numConfirmationsRequired = 2 */\n    tag_16:\n      callvalue\n      dup1\n      iszero\n      tag_91\n      jumpi\n      0x00\n      dup1\n      revert\n    tag_91:\n      pop\n      tag_92\n      tag_93\n      jump\t// in\n    tag_92:\n      mload(0x40)\n      tag_94\n      swap2\n      swap1\n      tag_36\n      jump\t// in\n    tag_94:\n      mload(0x40)\n      dup1\n      swap2\n      sub\n      swap1\n      return\n        /* \"newLevels/multisigLevelup.sol\":3654:4240  function executeTransaction(uint _txIndex)... */\n    tag_17:\n      callvalue\n      dup1\n      iszero\n      tag_95\n      jumpi\n      0x00\n      dup1\n      revert\n    tag_95:\n      pop\n      tag_96\n      0x04\n      dup1\n      calldatasize\n      sub\n      dup2\n      add\n      swap1\n      tag_97\n      swap2\n      swap1\n      tag_28\n      jump\t// in\n    tag_97:\n      tag_98\n      jump\t// in\n    tag_96:\n      stop\n        /* \"newLevels/multisigLevelup.sol\":658:681  address[] public owners */\n    tag_29:\n      0x00\n      dup2\n      dup2\n      sload\n      dup2\n      lt\n      tag_99\n      jumpi\n      0x00\n      dup1\n      revert\n    tag_99:\n      swap1\n      0x00\n      mstore\n      keccak256(0x00, 0x20)\n      add\n      0x00\n      swap2\n      pop\n      sload\n      swap1\n      0x0100\n      exp\n      swap1\n      div\n      0xffffffffffffffffffffffffffffffffffffffff\n      and\n      dup2\n      jump\t// out\n        /* \"newLevels/multisigLevelup.sol\":734:769  uint public constant MAX_OWNERS = 3 */\n    tag_34:\n        /* \"newLevels/multisigLevelup.sol\":768:769  3 */\n      0x03\n        /* \"newLevels/multisigLevelup.sol\":734:769  uint public constant MAX_OWNERS = 3 */\n      dup2\n      jump\t// out\n        /* \"newLevels/multisigLevelup.sol\":2148:2619  function removeOwner(address _owner) public {... */\n    tag_41:\n        /* \"newLevels/multisigLevelup.sol\":2211:2218  isOwner */\n      0x01\n        /* \"newLevels/multisigLevelup.sol\":2211:2226  isOwner[_owner] */\n      0x00\n        /* \"newLevels/multisigLevelup.sol\":2219:2225  _owner */\n      dup3\n        /* \"newLevels/multisigLevelup.sol\":2211:2226  isOwner[_owner] */\n      0xffffffffffffffffffffffffffffffffffffffff\n      and\n      0xffffffffffffffffffffffffffffffffffffffff\n      and\n      dup2\n      mstore\n      0x20\n      add\n      swap1\n      dup2\n      mstore\n      0x20\n      add\n      0x00\n      keccak256\n      0x00\n      swap1\n      sload\n      swap1\n      0x0100\n      exp\n      swap1\n      div\n      0xff\n      and\n        /* \"newLevels/multisigLevelup.sol\":2203:2243  require(isOwner[_owner], \"not an owner\") */\n      tag_102\n      jumpi\n      mload(0x40)\n      0x08c379a000000000000000000000000000000000000000000000000000000000\n      dup2\n      mstore\n      0x04\n      add\n      tag_103\n      swap1\n      tag_104\n      jump\t// in\n    tag_103:\n      mload(0x40)\n      dup1\n      swap2\n      sub\n      swap1\n      revert\n    tag_102:\n        /* \"newLevels/multisigLevelup.sol\":2278:2279  1 */\n      0x01\n        /* \"newLevels/multisigLevelup.sol\":2262:2268  owners */\n      0x00\n        /* \"newLevels/multisigLevelup.sol\":2262:2275  owners.length */\n      dup1\n      sload\n      swap1\n      pop\n        /* \"newLevels/multisigLevelup.sol\":2262:2279  owners.length > 1 */\n      gt\n        /* \"newLevels/multisigLevelup.sol\":2254:2308  require(owners.length > 1, \"cannot remove last owner\") */\n      tag_105\n      jumpi\n      mload(0x40)\n      0x08c379a000000000000000000000000000000000000000000000000000000000\n      dup2\n      mstore\n      0x04\n      add\n      tag_106\n      swap1\n      tag_107\n      jump\t// in\n    tag_106:\n      mload(0x40)\n      dup1\n      swap2\n      sub\n      swap1\n      revert\n    tag_105:\n        /* \"newLevels/multisigLevelup.sol\":2339:2344  false */\n      0x00\n        /* \"newLevels/multisigLevelup.sol\":2321:2328  isOwner */\n      0x01\n        /* \"newLevels/multisigLevelup.sol\":2321:2336  isOwner[_owner] */\n      0x00\n        /* \"newLevels/multisigLevelup.sol\":2329:2335  _owner */\n      dup4\n        /* \"newLevels/multisigLevelup.sol\":2321:2336  isOwner[_owner] */\n      0xffffffffffffffffffffffffffffffffffffffff\n      and\n      0xffffffffffffffffffffffffffffffffffffffff\n      and\n      dup2\n      mstore\n      0x20\n      add\n      swap1\n      dup2\n      mstore\n      0x20\n      add\n      0x00\n      keccak256\n      0x00\n        /* \"newLevels/multisigLevelup.sol\":2321:2344  isOwner[_owner] = false */\n      0x0100\n      exp\n      dup2\n      sload\n      dup2\n      0xff\n      mul\n      not\n      and\n      swap1\n      dup4\n      iszero\n      iszero\n      mul\n      or\n      swap1\n      sstore\n      pop\n        /* \"newLevels/multisigLevelup.sol\":2360:2366  uint i */\n      0x00\n        /* \"newLevels/multisigLevelup.sol\":2355:2574  for (uint i = 0; i < owners.length; i++) {... */\n    tag_108:\n        /* \"newLevels/multisigLevelup.sol\":2376:2382  owners */\n      0x00\n        /* \"newLevels/multisigLevelup.sol\":2376:2389  owners.length */\n      dup1\n      sload\n      swap1\n      pop\n        /* \"newLevels/multisigLevelup.sol\":2372:2373  i */\n      dup2\n        /* \"newLevels/multisigLevelup.sol\":2372:2389  i < owners.length */\n      lt\n        /* \"newLevels/multisigLevelup.sol\":2355:2574  for (uint i = 0; i < owners.length; i++) {... */\n      iszero\n      tag_109\n      jumpi\n        /* \"newLevels/multisigLevelup.sol\":2428:2434  _owner */\n      dup2\n        /* \"newLevels/multisigLevelup.sol\":2415:2434  owners[i] == _owner */\n      0xffffffffffffffffffffffffffffffffffffffff\n      and\n        /* \"newLevels/multisigLevelup.sol\":2415:2421  owners */\n      0x00\n        /* \"newLevels/multisigLevelup.sol\":2422:2423  i */\n      dup3\n        /* \"newLevels/multisigLevelup.sol\":2415:2424  owners[i] */\n      dup2\n      sload\n      dup2\n      lt\n      tag_111\n      jumpi\n      tag_112\n      tag_113\n      jump\t// in\n    tag_112:\n    tag_111:\n      swap1\n      0x00\n      mstore\n      keccak256(0x00, 0x20)\n      add\n      0x00\n      swap1\n      sload\n      swap1\n      0x0100\n      exp\n      swap1\n      div\n      0xffffffffffffffffffffffffffffffffffffffff\n      and\n        /* \"newLevels/multisigLevelup.sol\":2415:2434  owners[i] == _owner */\n      0xffffffffffffffffffffffffffffffffffffffff\n      and\n      sub\n        /* \"newLevels/multisigLevelup.sol\":2411:2563  if (owners[i] == _owner) {... */\n      tag_115\n      jumpi\n        /* \"newLevels/multisigLevelup.sol\":2467:2473  owners */\n      0x00\n        /* \"newLevels/multisigLevelup.sol\":2490:2491  1 */\n      0x01\n        /* \"newLevels/multisigLevelup.sol\":2474:2480  owners */\n      0x00\n        /* \"newLevels/multisigLevelup.sol\":2474:2487  owners.length */\n      dup1\n      sload\n      swap1\n      pop\n        /* \"newLevels/multisigLevelup.sol\":2474:2491  owners.length - 1 */\n      tag_116\n      swap2\n      swap1\n      tag_117\n      jump\t// in\n    tag_116:\n        /* \"newLevels/multisigLevelup.sol\":2467:2492  owners[owners.length - 1] */\n      dup2\n      sload\n      dup2\n      lt\n      tag_118\n      jumpi\n      tag_119\n      tag_113\n      jump\t// in\n    tag_119:\n    tag_118:\n      swap1\n      0x00\n      mstore\n      keccak256(0x00, 0x20)\n      add\n      0x00\n      swap1\n      sload\n      swap1\n      0x0100\n      exp\n      swap1\n      div\n      0xffffffffffffffffffffffffffffffffffffffff\n      and\n        /* \"newLevels/multisigLevelup.sol\":2455:2461  owners */\n      0x00\n        /* \"newLevels/multisigLevelup.sol\":2462:2463  i */\n      dup3\n        /* \"newLevels/multisigLevelup.sol\":2455:2464  owners[i] */\n      dup2\n      sload\n      dup2\n      lt\n      tag_121\n      jumpi\n      tag_122\n      tag_113\n      jump\t// in\n    tag_122:\n    tag_121:\n      swap1\n      0x00\n      mstore\n      keccak256(0x00, 0x20)\n      add\n      0x00\n        /* \"newLevels/multisigLevelup.sol\":2455:2492  owners[i] = owners[owners.length - 1] */\n      0x0100\n      exp\n      dup2\n      sload\n      dup2\n      0xffffffffffffffffffffffffffffffffffffffff\n      mul\n      not\n      and\n      swap1\n      dup4\n      0xffffffffffffffffffffffffffffffffffffffff\n      and\n      mul\n      or\n      swap1\n      sstore\n      pop\n        /* \"newLevels/multisigLevelup.sol\":2511:2517  owners */\n      0x00\n        /* \"newLevels/multisigLevelup.sol\":2511:2523  owners.pop() */\n      dup1\n      sload\n      dup1\n      tag_124\n      jumpi\n      tag_125\n      tag_126\n      jump\t// in\n    tag_125:\n    tag_124:\n      0x01\n      swap1\n      sub\n      dup2\n      dup2\n      swap1\n      0x00\n      mstore\n      keccak256(0x00, 0x20)\n      add\n      exp(0x0100, 0x00)\n      dup2\n      sload\n      swap1\n      0xffffffffffffffffffffffffffffffffffffffff\n      mul\n      not\n      and\n      swap1\n      sstore\n      swap1\n      sstore\n        /* \"newLevels/multisigLevelup.sol\":2542:2547  break */\n      jump(tag_109)\n        /* \"newLevels/multisigLevelup.sol\":2411:2563  if (owners[i] == _owner) {... */\n    tag_115:\n        /* \"newLevels/multisigLevelup.sol\":2391:2394  i++ */\n      dup1\n      dup1\n      0x01\n      add\n      swap2\n      pop\n      pop\n        /* \"newLevels/multisigLevelup.sol\":2355:2574  for (uint i = 0; i < owners.length; i++) {... */\n      jump(tag_108)\n    tag_109:\n      pop\n        /* \"newLevels/multisigLevelup.sol\":2604:2610  _owner */\n      dup1\n        /* \"newLevels/multisigLevelup.sol\":2591:2611  OwnerRemoved(_owner) */\n      0xffffffffffffffffffffffffffffffffffffffff\n      and\n      0x58619076adf5bb0943d100ef88d52d7c3fd691b19d3a9071b555b651fbf418da\n      mload(0x40)\n      mload(0x40)\n      dup1\n      swap2\n      sub\n      swap1\n      log2\n        /* \"newLevels/multisigLevelup.sol\":2148:2619  function removeOwner(address _owner) public {... */\n      pop\n      jump\t// out\n        /* \"newLevels/multisigLevelup.sol\":4248:4696  function revokeConfirmation(uint _txIndex)... */\n    tag_45:\n        /* \"newLevels/multisigLevelup.sol\":1128:1135  isOwner */\n      0x01\n        /* \"newLevels/multisigLevelup.sol\":1128:1147  isOwner[msg.sender] */\n      0x00\n        /* \"newLevels/multisigLevelup.sol\":1136:1146  msg.sender */\n      caller\n        /* \"newLevels/multisigLevelup.sol\":1128:1147  isOwner[msg.sender] */\n      0xffffffffffffffffffffffffffffffffffffffff\n      and\n      0xffffffffffffffffffffffffffffffffffffffff\n      and\n      dup2\n      mstore\n      0x20\n      add\n      swap1\n      dup2\n      mstore\n      0x20\n      add\n      0x00\n      keccak256\n      0x00\n      swap1\n      sload\n      swap1\n      0x0100\n      exp\n      swap1\n      div\n      0xff\n      and\n        /* \"newLevels/multisigLevelup.sol\":1120:1161  require(isOwner[msg.sender], \"not owner\") */\n      tag_129\n      jumpi\n      mload(0x40)\n      0x08c379a000000000000000000000000000000000000000000000000000000000\n      dup2\n      mstore\n      0x04\n      add\n      tag_130\n      swap1\n      tag_131\n      jump\t// in\n    tag_130:\n      mload(0x40)\n      dup1\n      swap2\n      sub\n      swap1\n      revert\n    tag_129:\n        /* \"newLevels/multisigLevelup.sol\":4344:4352  _txIndex */\n      dup1\n        /* \"newLevels/multisigLevelup.sol\":1252:1264  transactions */\n      0x04\n        /* \"newLevels/multisigLevelup.sol\":1252:1271  transactions.length */\n      dup1\n      sload\n      swap1\n      pop\n        /* \"newLevels/multisigLevelup.sol\":1241:1249  _txIndex */\n      dup2\n        /* \"newLevels/multisigLevelup.sol\":1241:1271  _txIndex < transactions.length */\n      lt\n        /* \"newLevels/multisigLevelup.sol\":1233:1293  require(_txIndex < transactions.length, \"tx does not exist\") */\n      tag_133\n      jumpi\n      mload(0x40)\n      0x08c379a000000000000000000000000000000000000000000000000000000000\n      dup2\n      mstore\n      0x04\n      add\n      tag_134\n      swap1\n      tag_135\n      jump\t// in\n    tag_134:\n      mload(0x40)\n      dup1\n      swap2\n      sub\n      swap1\n      revert\n    tag_133:\n        /* \"newLevels/multisigLevelup.sol\":4375:4383  _txIndex */\n      dup2\n        /* \"newLevels/multisigLevelup.sol\":1377:1389  transactions */\n      0x04\n        /* \"newLevels/multisigLevelup.sol\":1390:1398  _txIndex */\n      dup2\n        /* \"newLevels/multisigLevelup.sol\":1377:1399  transactions[_txIndex] */\n      dup2\n      sload\n      dup2\n      lt\n      tag_137\n      jumpi\n      tag_138\n      tag_113\n      jump\t// in\n    tag_138:\n    tag_137:\n      swap1\n      0x00\n      mstore\n      keccak256(0x00, 0x20)\n      swap1\n      0x05\n      mul\n      add\n        /* \"newLevels/multisigLevelup.sol\":1377:1408  transactions[_txIndex].executed */\n      0x03\n      add\n      0x00\n      swap1\n      sload\n      swap1\n      0x0100\n      exp\n      swap1\n      div\n      0xff\n      and\n        /* \"newLevels/multisigLevelup.sol\":1376:1408  !transactions[_txIndex].executed */\n      iszero\n        /* \"newLevels/multisigLevelup.sol\":1368:1432  require(!transactions[_txIndex].executed, \"tx already executed\") */\n      tag_140\n      jumpi\n      mload(0x40)\n      0x08c379a000000000000000000000000000000000000000000000000000000000\n      dup2\n      mstore\n      0x04\n      add\n      tag_141\n      swap1\n      tag_142\n      jump\t// in\n    tag_141:\n      mload(0x40)\n      dup1\n      swap2\n      sub\n      swap1\n      revert\n    tag_140:\n        /* \"newLevels/multisigLevelup.sol\":4401:4432  Transaction storage transaction */\n      0x00\n        /* \"newLevels/multisigLevelup.sol\":4435:4447  transactions */\n      0x04\n        /* \"newLevels/multisigLevelup.sol\":4448:4456  _txIndex */\n      dup5\n        /* \"newLevels/multisigLevelup.sol\":4435:4457  transactions[_txIndex] */\n      dup2\n      sload\n      dup2\n      lt\n      tag_144\n      jumpi\n      tag_145\n      tag_113\n      jump\t// in\n    tag_145:\n    tag_144:\n      swap1\n      0x00\n      mstore\n      keccak256(0x00, 0x20)\n      swap1\n      0x05\n      mul\n      add\n        /* \"newLevels/multisigLevelup.sol\":4401:4457  Transaction storage transaction = transactions[_txIndex] */\n      swap1\n      pop\n        /* \"newLevels/multisigLevelup.sol\":4478:4489  isConfirmed */\n      0x03\n        /* \"newLevels/multisigLevelup.sol\":4478:4499  isConfirmed[_txIndex] */\n      0x00\n        /* \"newLevels/multisigLevelup.sol\":4490:4498  _txIndex */\n      dup6\n        /* \"newLevels/multisigLevelup.sol\":4478:4499  isConfirmed[_txIndex] */\n      dup2\n      mstore\n      0x20\n      add\n      swap1\n      dup2\n      mstore\n      0x20\n      add\n      0x00\n      keccak256\n        /* \"newLevels/multisigLevelup.sol\":4478:4511  isConfirmed[_txIndex][msg.sender] */\n      0x00\n        /* \"newLevels/multisigLevelup.sol\":4500:4510  msg.sender */\n      caller\n        /* \"newLevels/multisigLevelup.sol\":4478:4511  isConfirmed[_txIndex][msg.sender] */\n      0xffffffffffffffffffffffffffffffffffffffff\n      and\n      0xffffffffffffffffffffffffffffffffffffffff\n      and\n      dup2\n      mstore\n      0x20\n      add\n      swap1\n      dup2\n      mstore\n      0x20\n      add\n      0x00\n      keccak256\n      0x00\n      swap1\n      sload\n      swap1\n      0x0100\n      exp\n      swap1\n      div\n      0xff\n      and\n        /* \"newLevels/multisigLevelup.sol\":4470:4532  require(isConfirmed[_txIndex][msg.sender], \"tx not confirmed\") */\n      tag_147\n      jumpi\n      mload(0x40)\n      0x08c379a000000000000000000000000000000000000000000000000000000000\n      dup2\n      mstore\n      0x04\n      add\n      tag_148\n      swap1\n      tag_149\n      jump\t// in\n    tag_148:\n      mload(0x40)\n      dup1\n      swap2\n      sub\n      swap1\n      revert\n    tag_147:\n        /* \"newLevels/multisigLevelup.sol\":4577:4578  1 */\n      0x01\n        /* \"newLevels/multisigLevelup.sol\":4545:4556  transaction */\n      dup2\n        /* \"newLevels/multisigLevelup.sol\":4545:4573  transaction.numConfirmations */\n      0x04\n      add\n      0x00\n        /* \"newLevels/multisigLevelup.sol\":4545:4578  transaction.numConfirmations -= 1 */\n      dup3\n      dup3\n      sload\n      tag_150\n      swap2\n      swap1\n      tag_117\n      jump\t// in\n    tag_150:\n      swap3\n      pop\n      pop\n      dup2\n      swap1\n      sstore\n      pop\n        /* \"newLevels/multisigLevelup.sol\":4625:4630  false */\n      0x00\n        /* \"newLevels/multisigLevelup.sol\":4589:4600  isConfirmed */\n      0x03\n        /* \"newLevels/multisigLevelup.sol\":4589:4610  isConfirmed[_txIndex] */\n      0x00\n        /* \"newLevels/multisigLevelup.sol\":4601:4609  _txIndex */\n      dup7\n        /* \"newLevels/multisigLevelup.sol\":4589:4610  isConfirmed[_txIndex] */\n      dup2\n      mstore\n      0x20\n      add\n      swap1\n      dup2\n      mstore\n      0x20\n      add\n      0x00\n      keccak256\n        /* \"newLevels/multisigLevelup.sol\":4589:4622  isConfirmed[_txIndex][msg.sender] */\n      0x00\n        /* \"newLevels/multisigLevelup.sol\":4611:4621  msg.sender */\n      caller\n        /* \"newLevels/multisigLevelup.sol\":4589:4622  isConfirmed[_txIndex][msg.sender] */\n      0xffffffffffffffffffffffffffffffffffffffff\n      and\n      0xffffffffffffffffffffffffffffffffffffffff\n      and\n      dup2\n      mstore\n      0x20\n      add\n      swap1\n      dup2\n      mstore\n      0x20\n      add\n      0x00\n      keccak256\n      0x00\n        /* \"newLevels/multisigLevelup.sol\":4589:4630  isConfirmed[_txIndex][msg.sender] = false */\n      0x0100\n      exp\n      dup2\n      sload\n      dup2\n      0xff\n      mul\n      not\n      and\n      swap1\n      dup4\n      iszero\n      iszero\n      mul\n      or\n      swap1\n      sstore\n      pop\n        /* \"newLevels/multisigLevelup.sol\":4679:4687  _txIndex */\n      dup4\n        /* \"newLevels/multisigLevelup.sol\":4667:4677  msg.sender */\n      caller\n        /* \"newLevels/multisigLevelup.sol\":4648:4688  RevokeConfirmation(msg.sender, _txIndex) */\n      0xffffffffffffffffffffffffffffffffffffffff\n      and\n      0xf0dca620e2e81f7841d07bcc105e1704fb01475b278a9d4c236e1c62945edd55\n      mload(0x40)\n      mload(0x40)\n      dup1\n      swap2\n      sub\n      swap1\n      log3\n        /* \"newLevels/multisigLevelup.sol\":4390:4696  {... */\n      pop\n        /* \"newLevels/multisigLevelup.sol\":1304:1305  _ */\n      pop\n        /* \"newLevels/multisigLevelup.sol\":1172:1173  _ */\n      pop\n        /* \"newLevels/multisigLevelup.sol\":4248:4696  function revokeConfirmation(uint _txIndex)... */\n      pop\n      jump\t// out\n        /* \"newLevels/multisigLevelup.sol\":4804:4907  function getTransactionCount() public view returns (uint) {... */\n    tag_48:\n        /* \"newLevels/multisigLevelup.sol\":4856:4860  uint */\n      0x00\n        /* \"newLevels/multisigLevelup.sol\":4880:4892  transactions */\n      0x04\n        /* \"newLevels/multisigLevelup.sol\":4880:4899  transactions.length */\n      dup1\n      sload\n      swap1\n      pop\n        /* \"newLevels/multisigLevelup.sol\":4873:4899  return transactions.length */\n      swap1\n      pop\n        /* \"newLevels/multisigLevelup.sol\":4804:4907  function getTransactionCount() public view returns (uint) {... */\n      swap1\n      jump\t// out\n        /* \"newLevels/multisigLevelup.sol\":688:727  mapping(address => bool) public isOwner */\n    tag_53:\n      mstore(0x20, 0x01)\n      dup1\n      0x00\n      mstore\n      keccak256(0x00, 0x40)\n      0x00\n      swap2\n      pop\n      sload\n      swap1\n      0x0100\n      exp\n      swap1\n      div\n      0xff\n      and\n      dup2\n      jump\t// out\n        /* \"newLevels/multisigLevelup.sol\":4915:5456  function getTransaction(... */\n    tag_59:\n        /* \"newLevels/multisigLevelup.sol\":5032:5042  address to */\n      0x00\n        /* \"newLevels/multisigLevelup.sol\":5057:5067  uint value */\n      dup1\n        /* \"newLevels/multisigLevelup.sol\":5082:5099  bytes memory data */\n      0x60\n        /* \"newLevels/multisigLevelup.sol\":5114:5127  bool executed */\n      0x00\n        /* \"newLevels/multisigLevelup.sol\":5142:5163  uint numConfirmations */\n      dup1\n        /* \"newLevels/multisigLevelup.sol\":5191:5222  Transaction storage transaction */\n      0x00\n        /* \"newLevels/multisigLevelup.sol\":5225:5237  transactions */\n      0x04\n        /* \"newLevels/multisigLevelup.sol\":5238:5246  _txIndex */\n      dup8\n        /* \"newLevels/multisigLevelup.sol\":5225:5247  transactions[_txIndex] */\n      dup2\n      sload\n      dup2\n      lt\n      tag_153\n      jumpi\n      tag_154\n      tag_113\n      jump\t// in\n    tag_154:\n    tag_153:\n      swap1\n      0x00\n      mstore\n      keccak256(0x00, 0x20)\n      swap1\n      0x05\n      mul\n      add\n        /* \"newLevels/multisigLevelup.sol\":5191:5247  Transaction storage transaction = transactions[_txIndex] */\n      swap1\n      pop\n        /* \"newLevels/multisigLevelup.sol\":5282:5293  transaction */\n      dup1\n        /* \"newLevels/multisigLevelup.sol\":5282:5296  transaction.to */\n      0x00\n      add\n      0x00\n      swap1\n      sload\n      swap1\n      0x0100\n      exp\n      swap1\n      div\n      0xffffffffffffffffffffffffffffffffffffffff\n      and\n        /* \"newLevels/multisigLevelup.sol\":5311:5322  transaction */\n      dup2\n        /* \"newLevels/multisigLevelup.sol\":5311:5328  transaction.value */\n      0x01\n      add\n      sload\n        /* \"newLevels/multisigLevelup.sol\":5343:5354  transaction */\n      dup3\n        /* \"newLevels/multisigLevelup.sol\":5343:5359  transaction.data */\n      0x02\n      add\n        /* \"newLevels/multisigLevelup.sol\":5374:5385  transaction */\n      dup4\n        /* \"newLevels/multisigLevelup.sol\":5374:5394  transaction.executed */\n      0x03\n      add\n      0x00\n      swap1\n      sload\n      swap1\n      0x0100\n      exp\n      swap1\n      div\n      0xff\n      and\n        /* \"newLevels/multisigLevelup.sol\":5409:5420  transaction */\n      dup5\n        /* \"newLevels/multisigLevelup.sol\":5409:5437  transaction.numConfirmations */\n      0x04\n      add\n      sload\n        /* \"newLevels/multisigLevelup.sol\":5260:5448  return (... */\n      dup3\n      dup1\n      sload\n      tag_156\n      swap1\n      tag_157\n      jump\t// in\n    tag_156:\n      dup1\n      0x1f\n      add\n      0x20\n      dup1\n      swap2\n      div\n      mul\n      0x20\n      add\n      mload(0x40)\n      swap1\n      dup2\n      add\n      0x40\n      mstore\n      dup1\n      swap3\n      swap2\n      swap1\n      dup2\n      dup2\n      mstore\n      0x20\n      add\n      dup3\n      dup1\n      sload\n      tag_158\n      swap1\n      tag_157\n      jump\t// in\n    tag_158:\n      dup1\n      iszero\n      tag_159\n      jumpi\n      dup1\n      0x1f\n      lt\n      tag_160\n      jumpi\n      0x0100\n      dup1\n      dup4\n      sload\n      div\n      mul\n      dup4\n      mstore\n      swap2\n      0x20\n      add\n      swap2\n      jump(tag_159)\n    tag_160:\n      dup3\n      add\n      swap2\n      swap1\n      0x00\n      mstore\n      keccak256(0x00, 0x20)\n      swap1\n    tag_161:\n      dup2\n      sload\n      dup2\n      mstore\n      swap1\n      0x01\n      add\n      swap1\n      0x20\n      add\n      dup1\n      dup4\n      gt\n      tag_161\n      jumpi\n      dup3\n      swap1\n      sub\n      0x1f\n      and\n      dup3\n      add\n      swap2\n    tag_159:\n      pop\n      pop\n      pop\n      pop\n      pop\n      swap3\n      pop\n      swap6\n      pop\n      swap6\n      pop\n      swap6\n      pop\n      swap6\n      pop\n      swap6\n      pop\n      pop\n        /* \"newLevels/multisigLevelup.sol\":4915:5456  function getTransaction(... */\n      swap2\n      swap4\n      swap6\n      swap1\n      swap3\n      swap5\n      pop\n      jump\t// out\n        /* \"newLevels/multisigLevelup.sol\":1787:2140  function addOwner(address _newOwner) public {... */\n    tag_65:\n        /* \"newLevels/multisigLevelup.sol\":1871:1872  0 */\n      0x00\n        /* \"newLevels/multisigLevelup.sol\":1850:1873  _newOwner != address(0) */\n      0xffffffffffffffffffffffffffffffffffffffff\n      and\n        /* \"newLevels/multisigLevelup.sol\":1850:1859  _newOwner */\n      dup2\n        /* \"newLevels/multisigLevelup.sol\":1850:1873  _newOwner != address(0) */\n      0xffffffffffffffffffffffffffffffffffffffff\n      and\n      sub\n        /* \"newLevels/multisigLevelup.sol\":1842:1891  require(_newOwner != address(0), \"invalid owner\") */\n      tag_163\n      jumpi\n      mload(0x40)\n      0x08c379a000000000000000000000000000000000000000000000000000000000\n      dup2\n      mstore\n      0x04\n      add\n      tag_164\n      swap1\n      tag_165\n      jump\t// in\n    tag_164:\n      mload(0x40)\n      dup1\n      swap2\n      sub\n      swap1\n      revert\n    tag_163:\n        /* \"newLevels/multisigLevelup.sol\":1911:1918  isOwner */\n      0x01\n        /* \"newLevels/multisigLevelup.sol\":1911:1929  isOwner[_newOwner] */\n      0x00\n        /* \"newLevels/multisigLevelup.sol\":1919:1928  _newOwner */\n      dup3\n        /* \"newLevels/multisigLevelup.sol\":1911:1929  isOwner[_newOwner] */\n      0xffffffffffffffffffffffffffffffffffffffff\n      and\n      0xffffffffffffffffffffffffffffffffffffffff\n      and\n      dup2\n      mstore\n      0x20\n      add\n      swap1\n      dup2\n      mstore\n      0x20\n      add\n      0x00\n      keccak256\n      0x00\n      swap1\n      sload\n      swap1\n      0x0100\n      exp\n      swap1\n      div\n      0xff\n      and\n        /* \"newLevels/multisigLevelup.sol\":1910:1929  !isOwner[_newOwner] */\n      iszero\n        /* \"newLevels/multisigLevelup.sol\":1902:1954  require(!isOwner[_newOwner], \"owner already exists\") */\n      tag_166\n      jumpi\n      mload(0x40)\n      0x08c379a000000000000000000000000000000000000000000000000000000000\n      dup2\n      mstore\n      0x04\n      add\n      tag_167\n      swap1\n      tag_168\n      jump\t// in\n    tag_167:\n      mload(0x40)\n      dup1\n      swap2\n      sub\n      swap1\n      revert\n    tag_166:\n        /* \"newLevels/multisigLevelup.sol\":768:769  3 */\n      0x03\n        /* \"newLevels/multisigLevelup.sol\":1973:1979  owners */\n      0x00\n        /* \"newLevels/multisigLevelup.sol\":1973:1986  owners.length */\n      dup1\n      sload\n      swap1\n      pop\n        /* \"newLevels/multisigLevelup.sol\":1973:1999  owners.length < MAX_OWNERS */\n      lt\n        /* \"newLevels/multisigLevelup.sol\":1965:2022  require(owners.length < MAX_OWNERS, \"max owners reached\") */\n      tag_169\n      jumpi\n      mload(0x40)\n      0x08c379a000000000000000000000000000000000000000000000000000000000\n      dup2\n      mstore\n      0x04\n      add\n      tag_170\n      swap1\n      tag_171\n      jump\t// in\n    tag_170:\n      mload(0x40)\n      dup1\n      swap2\n      sub\n      swap1\n      revert\n    tag_169:\n        /* \"newLevels/multisigLevelup.sol\":2056:2060  true */\n      0x01\n        /* \"newLevels/multisigLevelup.sol\":2035:2042  isOwner */\n      dup1\n        /* \"newLevels/multisigLevelup.sol\":2035:2053  isOwner[_newOwner] */\n      0x00\n        /* \"newLevels/multisigLevelup.sol\":2043:2052  _newOwner */\n      dup4\n        /* \"newLevels/multisigLevelup.sol\":2035:2053  isOwner[_newOwner] */\n      0xffffffffffffffffffffffffffffffffffffffff\n      and\n      0xffffffffffffffffffffffffffffffffffffffff\n      and\n      dup2\n      mstore\n      0x20\n      add\n      swap1\n      dup2\n      mstore\n      0x20\n      add\n      0x00\n      keccak256\n      0x00\n        /* \"newLevels/multisigLevelup.sol\":2035:2060  isOwner[_newOwner] = true */\n      0x0100\n      exp\n      dup2\n      sload\n      dup2\n      0xff\n      mul\n      not\n      and\n      swap1\n      dup4\n      iszero\n      iszero\n      mul\n      or\n      swap1\n      sstore\n      pop\n        /* \"newLevels/multisigLevelup.sol\":2071:2077  owners */\n      0x00\n        /* \"newLevels/multisigLevelup.sol\":2083:2092  _newOwner */\n      dup2\n        /* \"newLevels/multisigLevelup.sol\":2071:2093  owners.push(_newOwner) */\n      swap1\n      dup1\n      0x01\n      dup2\n      sload\n      add\n      dup1\n      dup3\n      sstore\n      dup1\n      swap2\n      pop\n      pop\n      0x01\n      swap1\n      sub\n      swap1\n      0x00\n      mstore\n      keccak256(0x00, 0x20)\n      add\n      0x00\n      swap1\n      swap2\n      swap1\n      swap2\n      swap1\n      swap2\n      0x0100\n      exp\n      dup2\n      sload\n      dup2\n      0xffffffffffffffffffffffffffffffffffffffff\n      mul\n      not\n      and\n      swap1\n      dup4\n      0xffffffffffffffffffffffffffffffffffffffff\n      and\n      mul\n      or\n      swap1\n      sstore\n      pop\n        /* \"newLevels/multisigLevelup.sol\":2122:2131  _newOwner */\n      dup1\n        /* \"newLevels/multisigLevelup.sol\":2111:2132  OwnerAdded(_newOwner) */\n      0xffffffffffffffffffffffffffffffffffffffff\n      and\n      0x994a936646fe87ffe4f1e469d3d6aa417d6b855598397f323de5b449f765f0c3\n      mload(0x40)\n      mload(0x40)\n      dup1\n      swap2\n      sub\n      swap1\n      log2\n        /* \"newLevels/multisigLevelup.sol\":1787:2140  function addOwner(address _newOwner) public {... */\n      pop\n      jump\t// out\n        /* \"newLevels/multisigLevelup.sol\":979:1039  mapping(uint => mapping(address => bool)) public isConfirmed */\n    tag_70:\n      mstore(0x20, 0x03)\n      dup2\n      0x00\n      mstore\n      mstore(0x20, keccak256(0x00, 0x40))\n      dup1\n      0x00\n      mstore\n      keccak256(0x00, 0x40)\n      0x00\n      swap2\n      pop\n      swap2\n      pop\n      swap1\n      sload\n      swap1\n      0x0100\n      exp\n      swap1\n      div\n      0xff\n      and\n      dup2\n      jump\t// out\n        /* \"newLevels/multisigLevelup.sol\":1046:1079  Transaction[] public transactions */\n    tag_75:\n      0x04\n      dup2\n      dup2\n      sload\n      dup2\n      lt\n      tag_173\n      jumpi\n      0x00\n      dup1\n      revert\n    tag_173:\n      swap1\n      0x00\n      mstore\n      keccak256(0x00, 0x20)\n      swap1\n      0x05\n      mul\n      add\n      0x00\n      swap2\n      pop\n      swap1\n      pop\n      dup1\n      0x00\n      add\n      0x00\n      swap1\n      sload\n      swap1\n      0x0100\n      exp\n      swap1\n      div\n      0xffffffffffffffffffffffffffffffffffffffff\n      and\n      swap1\n      dup1\n      0x01\n      add\n      sload\n      swap1\n      dup1\n      0x02\n      add\n      dup1\n      sload\n      tag_175\n      swap1\n      tag_157\n      jump\t// in\n    tag_175:\n      dup1\n      0x1f\n      add\n      0x20\n      dup1\n      swap2\n      div\n      mul\n      0x20\n      add\n      mload(0x40)\n      swap1\n      dup2\n      add\n      0x40\n      mstore\n      dup1\n      swap3\n      swap2\n      swap1\n      dup2\n      dup2\n      mstore\n      0x20\n      add\n      dup3\n      dup1\n      sload\n      tag_176\n      swap1\n      tag_157\n      jump\t// in\n    tag_176:\n      dup1\n      iszero\n      tag_177\n      jumpi\n      dup1\n      0x1f\n      lt\n      tag_178\n      jumpi\n      0x0100\n      dup1\n      dup4\n      sload\n      div\n      mul\n      dup4\n      mstore\n      swap2\n      0x20\n      add\n      swap2\n      jump(tag_177)\n    tag_178:\n      dup3\n      add\n      swap2\n      swap1\n      0x00\n      mstore\n      keccak256(0x00, 0x20)\n      swap1\n    tag_179:\n      dup2\n      sload\n      dup2\n      mstore\n      swap1\n      0x01\n      add\n      swap1\n      0x20\n      add\n      dup1\n      dup4\n      gt\n      tag_179\n      jumpi\n      dup3\n      swap1\n      sub\n      0x1f\n      and\n      dup3\n      add\n      swap2\n    tag_177:\n      pop\n      pop\n      pop\n      pop\n      pop\n      swap1\n      dup1\n      0x03\n      add\n      0x00\n      swap1\n      sload\n      swap1\n      0x0100\n      exp\n      swap1\n      div\n      0xff\n      and\n      swap1\n      dup1\n      0x04\n      add\n      sload\n      swap1\n      pop\n      dup6\n      jump\t// out\n        /* \"newLevels/multisigLevelup.sol\":4704:4796  function getOwners() public view returns (address[] memory) {... */\n    tag_79:\n        /* \"newLevels/multisigLevelup.sol\":4746:4762  address[] memory */\n      0x60\n        /* \"newLevels/multisigLevelup.sol\":4782:4788  owners */\n      0x00\n        /* \"newLevels/multisigLevelup.sol\":4775:4788  return owners */\n      dup1\n      sload\n      dup1\n      0x20\n      mul\n      0x20\n      add\n      mload(0x40)\n      swap1\n      dup2\n      add\n      0x40\n      mstore\n      dup1\n      swap3\n      swap2\n      swap1\n      dup2\n      dup2\n      mstore\n      0x20\n      add\n      dup3\n      dup1\n      sload\n      dup1\n      iszero\n      tag_181\n      jumpi\n      0x20\n      mul\n      dup3\n      add\n      swap2\n      swap1\n      0x00\n      mstore\n      keccak256(0x00, 0x20)\n      swap1\n    tag_182:\n      dup2\n      0x00\n      swap1\n      sload\n      swap1\n      0x0100\n      exp\n      swap1\n      div\n      0xffffffffffffffffffffffffffffffffffffffff\n      and\n      0xffffffffffffffffffffffffffffffffffffffff\n      and\n      dup2\n      mstore\n      0x20\n      add\n      swap1\n      0x01\n      add\n      swap1\n      dup1\n      dup4\n      gt\n      tag_182\n      jumpi\n    tag_181:\n      pop\n      pop\n      pop\n      pop\n      pop\n      swap1\n      pop\n        /* \"newLevels/multisigLevelup.sol\":4704:4796  function getOwners() public view returns (address[] memory) {... */\n      swap1\n      jump\t// out\n        /* \"newLevels/multisigLevelup.sol\":3244:3646  function confirmTransaction(uint _txIndex)... */\n    tag_85:\n        /* \"newLevels/multisigLevelup.sol\":1128:1135  isOwner */\n      0x01\n        /* \"newLevels/multisigLevelup.sol\":1128:1147  isOwner[msg.sender] */\n      0x00\n        /* \"newLevels/multisigLevelup.sol\":1136:1146  msg.sender */\n      caller\n        /* \"newLevels/multisigLevelup.sol\":1128:1147  isOwner[msg.sender] */\n      0xffffffffffffffffffffffffffffffffffffffff\n      and\n      0xffffffffffffffffffffffffffffffffffffffff\n      and\n      dup2\n      mstore\n      0x20\n      add\n      swap1\n      dup2\n      mstore\n      0x20\n      add\n      0x00\n      keccak256\n      0x00\n      swap1\n      sload\n      swap1\n      0x0100\n      exp\n      swap1\n      div\n      0xff\n      and\n        /* \"newLevels/multisigLevelup.sol\":1120:1161  require(isOwner[msg.sender], \"not owner\") */\n      tag_184\n      jumpi\n      mload(0x40)\n      0x08c379a000000000000000000000000000000000000000000000000000000000\n      dup2\n      mstore\n      0x04\n      add\n      tag_185\n      swap1\n      tag_131\n      jump\t// in\n    tag_185:\n      mload(0x40)\n      dup1\n      swap2\n      sub\n      swap1\n      revert\n    tag_184:\n        /* \"newLevels/multisigLevelup.sol\":3340:3348  _txIndex */\n      dup1\n        /* \"newLevels/multisigLevelup.sol\":1252:1264  transactions */\n      0x04\n        /* \"newLevels/multisigLevelup.sol\":1252:1271  transactions.length */\n      dup1\n      sload\n      swap1\n      pop\n        /* \"newLevels/multisigLevelup.sol\":1241:1249  _txIndex */\n      dup2\n        /* \"newLevels/multisigLevelup.sol\":1241:1271  _txIndex < transactions.length */\n      lt\n        /* \"newLevels/multisigLevelup.sol\":1233:1293  require(_txIndex < transactions.length, \"tx does not exist\") */\n      tag_187\n      jumpi\n      mload(0x40)\n      0x08c379a000000000000000000000000000000000000000000000000000000000\n      dup2\n      mstore\n      0x04\n      add\n      tag_188\n      swap1\n      tag_135\n      jump\t// in\n    tag_188:\n      mload(0x40)\n      dup1\n      swap2\n      sub\n      swap1\n      revert\n    tag_187:\n        /* \"newLevels/multisigLevelup.sol\":3371:3379  _txIndex */\n      dup2\n        /* \"newLevels/multisigLevelup.sol\":1377:1389  transactions */\n      0x04\n        /* \"newLevels/multisigLevelup.sol\":1390:1398  _txIndex */\n      dup2\n        /* \"newLevels/multisigLevelup.sol\":1377:1399  transactions[_txIndex] */\n      dup2\n      sload\n      dup2\n      lt\n      tag_190\n      jumpi\n      tag_191\n      tag_113\n      jump\t// in\n    tag_191:\n    tag_190:\n      swap1\n      0x00\n      mstore\n      keccak256(0x00, 0x20)\n      swap1\n      0x05\n      mul\n      add\n        /* \"newLevels/multisigLevelup.sol\":1377:1408  transactions[_txIndex].executed */\n      0x03\n      add\n      0x00\n      swap1\n      sload\n      swap1\n      0x0100\n      exp\n      swap1\n      div\n      0xff\n      and\n        /* \"newLevels/multisigLevelup.sol\":1376:1408  !transactions[_txIndex].executed */\n      iszero\n        /* \"newLevels/multisigLevelup.sol\":1368:1432  require(!transactions[_txIndex].executed, \"tx already executed\") */\n      tag_193\n      jumpi\n      mload(0x40)\n      0x08c379a000000000000000000000000000000000000000000000000000000000\n      dup2\n      mstore\n      0x04\n      add\n      tag_194\n      swap1\n      tag_142\n      jump\t// in\n    tag_194:\n      mload(0x40)\n      dup1\n      swap2\n      sub\n      swap1\n      revert\n    tag_193:\n        /* \"newLevels/multisigLevelup.sol\":3403:3411  _txIndex */\n      dup3\n        /* \"newLevels/multisigLevelup.sol\":1517:1528  isConfirmed */\n      0x03\n        /* \"newLevels/multisigLevelup.sol\":1517:1538  isConfirmed[_txIndex] */\n      0x00\n        /* \"newLevels/multisigLevelup.sol\":1529:1537  _txIndex */\n      dup3\n        /* \"newLevels/multisigLevelup.sol\":1517:1538  isConfirmed[_txIndex] */\n      dup2\n      mstore\n      0x20\n      add\n      swap1\n      dup2\n      mstore\n      0x20\n      add\n      0x00\n      keccak256\n        /* \"newLevels/multisigLevelup.sol\":1517:1550  isConfirmed[_txIndex][msg.sender] */\n      0x00\n        /* \"newLevels/multisigLevelup.sol\":1539:1549  msg.sender */\n      caller\n        /* \"newLevels/multisigLevelup.sol\":1517:1550  isConfirmed[_txIndex][msg.sender] */\n      0xffffffffffffffffffffffffffffffffffffffff\n      and\n      0xffffffffffffffffffffffffffffffffffffffff\n      and\n      dup2\n      mstore\n      0x20\n      add\n      swap1\n      dup2\n      mstore\n      0x20\n      add\n      0x00\n      keccak256\n      0x00\n      swap1\n      sload\n      swap1\n      0x0100\n      exp\n      swap1\n      div\n      0xff\n      and\n        /* \"newLevels/multisigLevelup.sol\":1516:1550  !isConfirmed[_txIndex][msg.sender] */\n      iszero\n        /* \"newLevels/multisigLevelup.sol\":1508:1575  require(!isConfirmed[_txIndex][msg.sender], \"tx already confirmed\") */\n      tag_196\n      jumpi\n      mload(0x40)\n      0x08c379a000000000000000000000000000000000000000000000000000000000\n      dup2\n      mstore\n      0x04\n      add\n      tag_197\n      swap1\n      tag_198\n      jump\t// in\n    tag_197:\n      mload(0x40)\n      dup1\n      swap2\n      sub\n      swap1\n      revert\n    tag_196:\n        /* \"newLevels/multisigLevelup.sol\":3429:3460  Transaction storage transaction */\n      0x00\n        /* \"newLevels/multisigLevelup.sol\":3463:3475  transactions */\n      0x04\n        /* \"newLevels/multisigLevelup.sol\":3476:3484  _txIndex */\n      dup6\n        /* \"newLevels/multisigLevelup.sol\":3463:3485  transactions[_txIndex] */\n      dup2\n      sload\n      dup2\n      lt\n      tag_200\n      jumpi\n      tag_201\n      tag_113\n      jump\t// in\n    tag_201:\n    tag_200:\n      swap1\n      0x00\n      mstore\n      keccak256(0x00, 0x20)\n      swap1\n      0x05\n      mul\n      add\n        /* \"newLevels/multisigLevelup.sol\":3429:3485  Transaction storage transaction = transactions[_txIndex] */\n      swap1\n      pop\n        /* \"newLevels/multisigLevelup.sol\":3528:3529  1 */\n      0x01\n        /* \"newLevels/multisigLevelup.sol\":3496:3507  transaction */\n      dup2\n        /* \"newLevels/multisigLevelup.sol\":3496:3524  transaction.numConfirmations */\n      0x04\n      add\n      0x00\n        /* \"newLevels/multisigLevelup.sol\":3496:3529  transaction.numConfirmations += 1 */\n      dup3\n      dup3\n      sload\n      tag_203\n      swap2\n      swap1\n      tag_204\n      jump\t// in\n    tag_203:\n      swap3\n      pop\n      pop\n      dup2\n      swap1\n      sstore\n      pop\n        /* \"newLevels/multisigLevelup.sol\":3576:3580  true */\n      0x01\n        /* \"newLevels/multisigLevelup.sol\":3540:3551  isConfirmed */\n      0x03\n        /* \"newLevels/multisigLevelup.sol\":3540:3561  isConfirmed[_txIndex] */\n      0x00\n        /* \"newLevels/multisigLevelup.sol\":3552:3560  _txIndex */\n      dup8\n        /* \"newLevels/multisigLevelup.sol\":3540:3561  isConfirmed[_txIndex] */\n      dup2\n      mstore\n      0x20\n      add\n      swap1\n      dup2\n      mstore\n      0x20\n      add\n      0x00\n      keccak256\n        /* \"newLevels/multisigLevelup.sol\":3540:3573  isConfirmed[_txIndex][msg.sender] */\n      0x00\n        /* \"newLevels/multisigLevelup.sol\":3562:3572  msg.sender */\n      caller\n        /* \"newLevels/multisigLevelup.sol\":3540:3573  isConfirmed[_txIndex][msg.sender] */\n      0xffffffffffffffffffffffffffffffffffffffff\n      and\n      0xffffffffffffffffffffffffffffffffffffffff\n      and\n      dup2\n      mstore\n      0x20\n      add\n      swap1\n      dup2\n      mstore\n      0x20\n      add\n      0x00\n      keccak256\n      0x00\n        /* \"newLevels/multisigLevelup.sol\":3540:3580  isConfirmed[_txIndex][msg.sender] = true */\n      0x0100\n      exp\n      dup2\n      sload\n      dup2\n      0xff\n      mul\n      not\n      and\n      swap1\n      dup4\n      iszero\n      iszero\n      mul\n      or\n      swap1\n      sstore\n      pop\n        /* \"newLevels/multisigLevelup.sol\":3629:3637  _txIndex */\n      dup5\n        /* \"newLevels/multisigLevelup.sol\":3617:3627  msg.sender */\n      caller\n        /* \"newLevels/multisigLevelup.sol\":3598:3638  ConfirmTransaction(msg.sender, _txIndex) */\n      0xffffffffffffffffffffffffffffffffffffffff\n      and\n      0x5cbe105e36805f7820e291f799d5794ff948af2a5f664e580382defb63390041\n      mload(0x40)\n      mload(0x40)\n      dup1\n      swap2\n      sub\n      swap1\n      log3\n        /* \"newLevels/multisigLevelup.sol\":3418:3646  {... */\n      pop\n        /* \"newLevels/multisigLevelup.sol\":1443:1444  _ */\n      pop\n        /* \"newLevels/multisigLevelup.sol\":1304:1305  _ */\n      pop\n        /* \"newLevels/multisigLevelup.sol\":1172:1173  _ */\n      pop\n        /* \"newLevels/multisigLevelup.sol\":3244:3646  function confirmTransaction(uint _txIndex)... */\n      pop\n      jump\t// out\n        /* \"newLevels/multisigLevelup.sol\":2739:3236  function submitTransaction(... */\n    tag_90:\n        /* \"newLevels/multisigLevelup.sol\":1128:1135  isOwner */\n      0x01\n        /* \"newLevels/multisigLevelup.sol\":1128:1147  isOwner[msg.sender] */\n      0x00\n        /* \"newLevels/multisigLevelup.sol\":1136:1146  msg.sender */\n      caller\n        /* \"newLevels/multisigLevelup.sol\":1128:1147  isOwner[msg.sender] */\n      0xffffffffffffffffffffffffffffffffffffffff\n      and\n      0xffffffffffffffffffffffffffffffffffffffff\n      and\n      dup2\n      mstore\n      0x20\n      add\n      swap1\n      dup2\n      mstore\n      0x20\n      add\n      0x00\n      keccak256\n      0x00\n      swap1\n      sload\n      swap1\n      0x0100\n      exp\n      swap1\n      div\n      0xff\n      and\n        /* \"newLevels/multisigLevelup.sol\":1120:1161  require(isOwner[msg.sender], \"not owner\") */\n      tag_206\n      jumpi\n      mload(0x40)\n      0x08c379a000000000000000000000000000000000000000000000000000000000\n      dup2\n      mstore\n      0x04\n      add\n      tag_207\n      swap1\n      tag_131\n      jump\t// in\n    tag_207:\n      mload(0x40)\n      dup1\n      swap2\n      sub\n      swap1\n      revert\n    tag_206:\n        /* \"newLevels/multisigLevelup.sol\":2874:2886  uint txIndex */\n      0x00\n        /* \"newLevels/multisigLevelup.sol\":2889:2901  transactions */\n      0x04\n        /* \"newLevels/multisigLevelup.sol\":2889:2908  transactions.length */\n      dup1\n      sload\n      swap1\n      pop\n        /* \"newLevels/multisigLevelup.sol\":2874:2908  uint txIndex = transactions.length */\n      swap1\n      pop\n        /* \"newLevels/multisigLevelup.sol\":2921:2933  transactions */\n      0x04\n        /* \"newLevels/multisigLevelup.sol\":2953:3141  Transaction({... */\n      mload(0x40)\n      dup1\n      0xa0\n      add\n      0x40\n      mstore\n      dup1\n        /* \"newLevels/multisigLevelup.sol\":2988:2991  _to */\n      dup7\n        /* \"newLevels/multisigLevelup.sol\":2953:3141  Transaction({... */\n      0xffffffffffffffffffffffffffffffffffffffff\n      and\n      dup2\n      mstore\n      0x20\n      add\n        /* \"newLevels/multisigLevelup.sol\":3017:3023  _value */\n      dup6\n        /* \"newLevels/multisigLevelup.sol\":2953:3141  Transaction({... */\n      dup2\n      mstore\n      0x20\n      add\n        /* \"newLevels/multisigLevelup.sol\":3048:3053  _data */\n      dup5\n        /* \"newLevels/multisigLevelup.sol\":2953:3141  Transaction({... */\n      dup2\n      mstore\n      0x20\n      add\n        /* \"newLevels/multisigLevelup.sol\":3082:3087  false */\n      0x00\n        /* \"newLevels/multisigLevelup.sol\":2953:3141  Transaction({... */\n      iszero\n      iszero\n      dup2\n      mstore\n      0x20\n      add\n        /* \"newLevels/multisigLevelup.sol\":3124:3125  0 */\n      0x00\n        /* \"newLevels/multisigLevelup.sol\":2953:3141  Transaction({... */\n      dup2\n      mstore\n      pop\n        /* \"newLevels/multisigLevelup.sol\":2921:3152  transactions.push(... */\n      swap1\n      dup1\n      0x01\n      dup2\n      sload\n      add\n      dup1\n      dup3\n      sstore\n      dup1\n      swap2\n      pop\n      pop\n      0x01\n      swap1\n      sub\n      swap1\n      0x00\n      mstore\n      keccak256(0x00, 0x20)\n      swap1\n      0x05\n      mul\n      add\n      0x00\n      swap1\n      swap2\n      swap1\n      swap2\n      swap1\n      swap2\n      pop\n      0x00\n      dup3\n      add\n      mload\n      dup2\n      0x00\n      add\n      exp(0x0100, 0x00)\n      dup2\n      sload\n      dup2\n      0xffffffffffffffffffffffffffffffffffffffff\n      mul\n      not\n      and\n      swap1\n      dup4\n      0xffffffffffffffffffffffffffffffffffffffff\n      and\n      mul\n      or\n      swap1\n      sstore\n      pop\n      0x20\n      dup3\n      add\n      mload\n      dup2\n      0x01\n      add\n      sstore\n      0x40\n      dup3\n      add\n      mload\n      dup2\n      0x02\n      add\n      swap1\n      dup2\n      tag_210\n      swap2\n      swap1\n      tag_211\n      jump\t// in\n    tag_210:\n      pop\n      0x60\n      dup3\n      add\n      mload\n      dup2\n      0x03\n      add\n      exp(0x0100, 0x00)\n      dup2\n      sload\n      dup2\n      0xff\n      mul\n      not\n      and\n      swap1\n      dup4\n      iszero\n      iszero\n      mul\n      or\n      swap1\n      sstore\n      pop\n      0x80\n      dup3\n      add\n      mload\n      dup2\n      0x04\n      add\n      sstore\n      pop\n      pop\n        /* \"newLevels/multisigLevelup.sol\":3209:3212  _to */\n      dup4\n        /* \"newLevels/multisigLevelup.sol\":3170:3228  SubmitTransaction(msg.sender, txIndex, _to, _value, _data) */\n      0xffffffffffffffffffffffffffffffffffffffff\n      and\n        /* \"newLevels/multisigLevelup.sol\":3200:3207  txIndex */\n      dup2\n        /* \"newLevels/multisigLevelup.sol\":3188:3198  msg.sender */\n      caller\n        /* \"newLevels/multisigLevelup.sol\":3170:3228  SubmitTransaction(msg.sender, txIndex, _to, _value, _data) */\n      0xffffffffffffffffffffffffffffffffffffffff\n      and\n      0xd5a05bf70715ad82a09a756320284a1b54c9ff74cd0f8cce6219e79b563fe59d\n        /* \"newLevels/multisigLevelup.sol\":3214:3220  _value */\n      dup7\n        /* \"newLevels/multisigLevelup.sol\":3222:3227  _data */\n      dup7\n        /* \"newLevels/multisigLevelup.sol\":3170:3228  SubmitTransaction(msg.sender, txIndex, _to, _value, _data) */\n      mload(0x40)\n      tag_212\n      swap3\n      swap2\n      swap1\n      tag_213\n      jump\t// in\n    tag_212:\n      mload(0x40)\n      dup1\n      swap2\n      sub\n      swap1\n      log4\n        /* \"newLevels/multisigLevelup.sol\":2863:3236  {... */\n      pop\n        /* \"newLevels/multisigLevelup.sol\":2739:3236  function submitTransaction(... */\n      pop\n      pop\n      pop\n      jump\t// out\n        /* \"newLevels/multisigLevelup.sol\":776:816  uint public numConfirmationsRequired = 2 */\n    tag_93:\n      sload(0x02)\n      dup2\n      jump\t// out\n        /* \"newLevels/multisigLevelup.sol\":3654:4240  function executeTransaction(uint _txIndex)... */\n    tag_98:\n        /* \"newLevels/multisigLevelup.sol\":1128:1135  isOwner */\n      0x01\n        /* \"newLevels/multisigLevelup.sol\":1128:1147  isOwner[msg.sender] */\n      0x00\n        /* \"newLevels/multisigLevelup.sol\":1136:1146  msg.sender */\n      caller\n        /* \"newLevels/multisigLevelup.sol\":1128:1147  isOwner[msg.sender] */\n      0xffffffffffffffffffffffffffffffffffffffff\n      and\n      0xffffffffffffffffffffffffffffffffffffffff\n      and\n      dup2\n      mstore\n      0x20\n      add\n      swap1\n      dup2\n      mstore\n      0x20\n      add\n      0x00\n      keccak256\n      0x00\n      swap1\n      sload\n      swap1\n      0x0100\n      exp\n      swap1\n      div\n      0xff\n      and\n        /* \"newLevels/multisigLevelup.sol\":1120:1161  require(isOwner[msg.sender], \"not owner\") */\n      tag_215\n      jumpi\n      mload(0x40)\n      0x08c379a000000000000000000000000000000000000000000000000000000000\n      dup2\n      mstore\n      0x04\n      add\n      tag_216\n      swap1\n      tag_131\n      jump\t// in\n    tag_216:\n      mload(0x40)\n      dup1\n      swap2\n      sub\n      swap1\n      revert\n    tag_215:\n        /* \"newLevels/multisigLevelup.sol\":3750:3758  _txIndex */\n      dup1\n        /* \"newLevels/multisigLevelup.sol\":1252:1264  transactions */\n      0x04\n        /* \"newLevels/multisigLevelup.sol\":1252:1271  transactions.length */\n      dup1\n      sload\n      swap1\n      pop\n        /* \"newLevels/multisigLevelup.sol\":1241:1249  _txIndex */\n      dup2\n        /* \"newLevels/multisigLevelup.sol\":1241:1271  _txIndex < transactions.length */\n      lt\n        /* \"newLevels/multisigLevelup.sol\":1233:1293  require(_txIndex < transactions.length, \"tx does not exist\") */\n      tag_218\n      jumpi\n      mload(0x40)\n      0x08c379a000000000000000000000000000000000000000000000000000000000\n      dup2\n      mstore\n      0x04\n      add\n      tag_219\n      swap1\n      tag_135\n      jump\t// in\n    tag_219:\n      mload(0x40)\n      dup1\n      swap2\n      sub\n      swap1\n      revert\n    tag_218:\n        /* \"newLevels/multisigLevelup.sol\":3781:3789  _txIndex */\n      dup2\n        /* \"newLevels/multisigLevelup.sol\":1377:1389  transactions */\n      0x04\n        /* \"newLevels/multisigLevelup.sol\":1390:1398  _txIndex */\n      dup2\n        /* \"newLevels/multisigLevelup.sol\":1377:1399  transactions[_txIndex] */\n      dup2\n      sload\n      dup2\n      lt\n      tag_221\n      jumpi\n      tag_222\n      tag_113\n      jump\t// in\n    tag_222:\n    tag_221:\n      swap1\n      0x00\n      mstore\n      keccak256(0x00, 0x20)\n      swap1\n      0x05\n      mul\n      add\n        /* \"newLevels/multisigLevelup.sol\":1377:1408  transactions[_txIndex].executed */\n      0x03\n      add\n      0x00\n      swap1\n      sload\n      swap1\n      0x0100\n      exp\n      swap1\n      div\n      0xff\n      and\n        /* \"newLevels/multisigLevelup.sol\":1376:1408  !transactions[_txIndex].executed */\n      iszero\n        /* \"newLevels/multisigLevelup.sol\":1368:1432  require(!transactions[_txIndex].executed, \"tx already executed\") */\n      tag_224\n      jumpi\n      mload(0x40)\n      0x08c379a000000000000000000000000000000000000000000000000000000000\n      dup2\n      mstore\n      0x04\n      add\n      tag_225\n      swap1\n      tag_142\n      jump\t// in\n    tag_225:\n      mload(0x40)\n      dup1\n      swap2\n      sub\n      swap1\n      revert\n    tag_224:\n        /* \"newLevels/multisigLevelup.sol\":3807:3838  Transaction storage transaction */\n      0x00\n        /* \"newLevels/multisigLevelup.sol\":3841:3853  transactions */\n      0x04\n        /* \"newLevels/multisigLevelup.sol\":3854:3862  _txIndex */\n      dup5\n        /* \"newLevels/multisigLevelup.sol\":3841:3863  transactions[_txIndex] */\n      dup2\n      sload\n      dup2\n      lt\n      tag_227\n      jumpi\n      tag_228\n      tag_113\n      jump\t// in\n    tag_228:\n    tag_227:\n      swap1\n      0x00\n      mstore\n      keccak256(0x00, 0x20)\n      swap1\n      0x05\n      mul\n      add\n        /* \"newLevels/multisigLevelup.sol\":3807:3863  Transaction storage transaction = transactions[_txIndex] */\n      swap1\n      pop\n        /* \"newLevels/multisigLevelup.sol\":3930:3954  numConfirmationsRequired */\n      sload(0x02)\n        /* \"newLevels/multisigLevelup.sol\":3898:3909  transaction */\n      dup2\n        /* \"newLevels/multisigLevelup.sol\":3898:3926  transaction.numConfirmations */\n      0x04\n      add\n      sload\n        /* \"newLevels/multisigLevelup.sol\":3898:3954  transaction.numConfirmations >= numConfirmationsRequired */\n      lt\n      iszero\n        /* \"newLevels/multisigLevelup.sol\":3876:3999  require(... */\n      tag_230\n      jumpi\n      mload(0x40)\n      0x08c379a000000000000000000000000000000000000000000000000000000000\n      dup2\n      mstore\n      0x04\n      add\n      tag_231\n      swap1\n      tag_232\n      jump\t// in\n    tag_231:\n      mload(0x40)\n      dup1\n      swap2\n      sub\n      swap1\n      revert\n    tag_230:\n        /* \"newLevels/multisigLevelup.sol\":4035:4039  true */\n      0x01\n        /* \"newLevels/multisigLevelup.sol\":4012:4023  transaction */\n      dup2\n        /* \"newLevels/multisigLevelup.sol\":4012:4032  transaction.executed */\n      0x03\n      add\n      0x00\n        /* \"newLevels/multisigLevelup.sol\":4012:4039  transaction.executed = true */\n      0x0100\n      exp\n      dup2\n      sload\n      dup2\n      0xff\n      mul\n      not\n      and\n      swap1\n      dup4\n      iszero\n      iszero\n      mul\n      or\n      swap1\n      sstore\n      pop\n        /* \"newLevels/multisigLevelup.sol\":4053:4065  bool success */\n      0x00\n        /* \"newLevels/multisigLevelup.sol\":4071:4082  transaction */\n      dup2\n        /* \"newLevels/multisigLevelup.sol\":4071:4085  transaction.to */\n      0x00\n      add\n      0x00\n      swap1\n      sload\n      swap1\n      0x0100\n      exp\n      swap1\n      div\n      0xffffffffffffffffffffffffffffffffffffffff\n      and\n        /* \"newLevels/multisigLevelup.sol\":4071:4090  transaction.to.call */\n      0xffffffffffffffffffffffffffffffffffffffff\n      and\n        /* \"newLevels/multisigLevelup.sol\":4098:4109  transaction */\n      dup3\n        /* \"newLevels/multisigLevelup.sol\":4098:4115  transaction.value */\n      0x01\n      add\n      sload\n        /* \"newLevels/multisigLevelup.sol\":4117:4128  transaction */\n      dup4\n        /* \"newLevels/multisigLevelup.sol\":4117:4133  transaction.data */\n      0x02\n      add\n        /* \"newLevels/multisigLevelup.sol\":4071:4134  transaction.to.call{value: transaction.value}(transaction.data) */\n      mload(0x40)\n      tag_233\n      swap2\n      swap1\n      tag_234\n      jump\t// in\n    tag_233:\n      0x00\n      mload(0x40)\n      dup1\n      dup4\n      sub\n      dup2\n      dup6\n      dup8\n      gas\n      call\n      swap3\n      pop\n      pop\n      pop\n      returndatasize\n      dup1\n      0x00\n      dup2\n      eq\n      tag_237\n      jumpi\n      mload(0x40)\n      swap2\n      pop\n      and(add(returndatasize, 0x3f), not(0x1f))\n      dup3\n      add\n      0x40\n      mstore\n      returndatasize\n      dup3\n      mstore\n      returndatasize\n      0x00\n      0x20\n      dup5\n      add\n      returndatacopy\n      jump(tag_236)\n    tag_237:\n      0x60\n      swap2\n      pop\n    tag_236:\n      pop\n        /* \"newLevels/multisigLevelup.sol\":4052:4134  (bool success, ) = transaction.to.call{value: transaction.value}(transaction.data) */\n      pop\n      swap1\n      pop\n        /* \"newLevels/multisigLevelup.sol\":4153:4160  success */\n      dup1\n        /* \"newLevels/multisigLevelup.sol\":4145:4174  require(success, \"tx failed\") */\n      tag_238\n      jumpi\n      mload(0x40)\n      0x08c379a000000000000000000000000000000000000000000000000000000000\n      dup2\n      mstore\n      0x04\n      add\n      tag_239\n      swap1\n      tag_240\n      jump\t// in\n    tag_239:\n      mload(0x40)\n      dup1\n      swap2\n      sub\n      swap1\n      revert\n    tag_238:\n        /* \"newLevels/multisigLevelup.sol\":4223:4231  _txIndex */\n      dup5\n        /* \"newLevels/multisigLevelup.sol\":4211:4221  msg.sender */\n      caller\n        /* \"newLevels/multisigLevelup.sol\":4192:4232  ExecuteTransaction(msg.sender, _txIndex) */\n      0xffffffffffffffffffffffffffffffffffffffff\n      and\n      0x5445f318f4f5fcfb66592e68e0cc5822aa15664039bd5f0ffde24c5a8142b1ac\n      mload(0x40)\n      mload(0x40)\n      dup1\n      swap2\n      sub\n      swap1\n      log3\n        /* \"newLevels/multisigLevelup.sol\":3796:4240  {... */\n      pop\n      pop\n        /* \"newLevels/multisigLevelup.sol\":1304:1305  _ */\n      pop\n        /* \"newLevels/multisigLevelup.sol\":1172:1173  _ */\n      pop\n        /* \"newLevels/multisigLevelup.sol\":3654:4240  function executeTransaction(uint _txIndex)... */\n      pop\n      jump\t// out\n        /* \"#utility.yul\":7:84   */\n    tag_241:\n        /* \"#utility.yul\":44:51   */\n      0x00\n        /* \"#utility.yul\":73:78   */\n      dup2\n        /* \"#utility.yul\":62:78   */\n      swap1\n      pop\n        /* \"#utility.yul\":7:84   */\n      swap2\n      swap1\n      pop\n      jump\t// out\n        /* \"#utility.yul\":90:208   */\n    tag_242:\n        /* \"#utility.yul\":177:201   */\n      tag_323\n        /* \"#utility.yul\":195:200   */\n      dup2\n        /* \"#utility.yul\":177:201   */\n      tag_241\n      jump\t// in\n    tag_323:\n        /* \"#utility.yul\":172:175   */\n      dup3\n        /* \"#utility.yul\":165:202   */\n      mstore\n        /* \"#utility.yul\":90:208   */\n      pop\n      pop\n      jump\t// out\n        /* \"#utility.yul\":214:546   */\n    tag_24:\n        /* \"#utility.yul\":335:339   */\n      0x00\n        /* \"#utility.yul\":373:375   */\n      0x40\n        /* \"#utility.yul\":362:371   */\n      dup3\n        /* \"#utility.yul\":358:376   */\n      add\n        /* \"#utility.yul\":350:376   */\n      swap1\n      pop\n        /* \"#utility.yul\":386:457   */\n      tag_325\n        /* \"#utility.yul\":454:455   */\n      0x00\n        /* \"#utility.yul\":443:452   */\n      dup4\n        /* \"#utility.yul\":439:456   */\n      add\n        /* \"#utility.yul\":430:436   */\n      dup6\n        /* \"#utility.yul\":386:457   */\n      tag_242\n      jump\t// in\n    tag_325:\n        /* \"#utility.yul\":467:539   */\n      tag_326\n        /* \"#utility.yul\":535:537   */\n      0x20\n        /* \"#utility.yul\":524:533   */\n      dup4\n        /* \"#utility.yul\":520:538   */\n      add\n        /* \"#utility.yul\":511:517   */\n      dup5\n        /* \"#utility.yul\":467:539   */\n      tag_242\n      jump\t// in\n    tag_326:\n        /* \"#utility.yul\":214:546   */\n      swap4\n      swap3\n      pop\n      pop\n      pop\n      jump\t// out\n        /* \"#utility.yul\":552:627   */\n    tag_243:\n        /* \"#utility.yul\":585:591   */\n      0x00\n        /* \"#utility.yul\":618:620   */\n      0x40\n        /* \"#utility.yul\":612:621   */\n      mload\n        /* \"#utility.yul\":602:621   */\n      swap1\n      pop\n        /* \"#utility.yul\":552:627   */\n      swap1\n      jump\t// out\n        /* \"#utility.yul\":633:750   */\n    tag_244:\n        /* \"#utility.yul\":742:743   */\n      0x00\n        /* \"#utility.yul\":739:740   */\n      dup1\n        /* \"#utility.yul\":732:744   */\n      revert\n        /* \"#utility.yul\":756:873   */\n    tag_245:\n        /* \"#utility.yul\":865:866   */\n      0x00\n        /* \"#utility.yul\":862:863   */\n      dup1\n        /* \"#utility.yul\":855:867   */\n      revert\n        /* \"#utility.yul\":879:1001   */\n    tag_246:\n        /* \"#utility.yul\":952:976   */\n      tag_331\n        /* \"#utility.yul\":970:975   */\n      dup2\n        /* \"#utility.yul\":952:976   */\n      tag_241\n      jump\t// in\n    tag_331:\n        /* \"#utility.yul\":945:950   */\n      dup2\n        /* \"#utility.yul\":942:977   */\n      eq\n        /* \"#utility.yul\":932:995   */\n      tag_332\n      jumpi\n        /* \"#utility.yul\":991:992   */\n      0x00\n        /* \"#utility.yul\":988:989   */\n      dup1\n        /* \"#utility.yul\":981:993   */\n      revert\n        /* \"#utility.yul\":932:995   */\n    tag_332:\n        /* \"#utility.yul\":879:1001   */\n      pop\n      jump\t// out\n        /* \"#utility.yul\":1007:1146   */\n    tag_247:\n        /* \"#utility.yul\":1053:1058   */\n      0x00\n        /* \"#utility.yul\":1091:1097   */\n      dup2\n        /* \"#utility.yul\":1078:1098   */\n      calldataload\n        /* \"#utility.yul\":1069:1098   */\n      swap1\n      pop\n        /* \"#utility.yul\":1107:1140   */\n      tag_334\n        /* \"#utility.yul\":1134:1139   */\n      dup2\n        /* \"#utility.yul\":1107:1140   */\n      tag_246\n      jump\t// in\n    tag_334:\n        /* \"#utility.yul\":1007:1146   */\n      swap3\n      swap2\n      pop\n      pop\n      jump\t// out\n        /* \"#utility.yul\":1152:1481   */\n    tag_28:\n        /* \"#utility.yul\":1211:1217   */\n      0x00\n        /* \"#utility.yul\":1260:1262   */\n      0x20\n        /* \"#utility.yul\":1248:1257   */\n      dup3\n        /* \"#utility.yul\":1239:1246   */\n      dup5\n        /* \"#utility.yul\":1235:1258   */\n      sub\n        /* \"#utility.yul\":1231:1263   */\n      slt\n        /* \"#utility.yul\":1228:1347   */\n      iszero\n      tag_336\n      jumpi\n        /* \"#utility.yul\":1266:1345   */\n      tag_337\n      tag_244\n      jump\t// in\n    tag_337:\n        /* \"#utility.yul\":1228:1347   */\n    tag_336:\n        /* \"#utility.yul\":1386:1387   */\n      0x00\n        /* \"#utility.yul\":1411:1464   */\n      tag_338\n        /* \"#utility.yul\":1456:1463   */\n      dup5\n        /* \"#utility.yul\":1447:1453   */\n      dup3\n        /* \"#utility.yul\":1436:1445   */\n      dup6\n        /* \"#utility.yul\":1432:1454   */\n      add\n        /* \"#utility.yul\":1411:1464   */\n      tag_247\n      jump\t// in\n    tag_338:\n        /* \"#utility.yul\":1401:1464   */\n      swap2\n      pop\n        /* \"#utility.yul\":1357:1474   */\n      pop\n        /* \"#utility.yul\":1152:1481   */\n      swap3\n      swap2\n      pop\n      pop\n      jump\t// out\n        /* \"#utility.yul\":1487:1613   */\n    tag_248:\n        /* \"#utility.yul\":1524:1531   */\n      0x00\n        /* \"#utility.yul\":1564:1606   */\n      0xffffffffffffffffffffffffffffffffffffffff\n        /* \"#utility.yul\":1557:1562   */\n      dup3\n        /* \"#utility.yul\":1553:1607   */\n      and\n        /* \"#utility.yul\":1542:1607   */\n      swap1\n      pop\n        /* \"#utility.yul\":1487:1613   */\n      swap2\n      swap1\n      pop\n      jump\t// out\n        /* \"#utility.yul\":1619:1715   */\n    tag_249:\n        /* \"#utility.yul\":1656:1663   */\n      0x00\n        /* \"#utility.yul\":1685:1709   */\n      tag_341\n        /* \"#utility.yul\":1703:1708   */\n      dup3\n        /* \"#utility.yul\":1685:1709   */\n      tag_248\n      jump\t// in\n    tag_341:\n        /* \"#utility.yul\":1674:1709   */\n      swap1\n      pop\n        /* \"#utility.yul\":1619:1715   */\n      swap2\n      swap1\n      pop\n      jump\t// out\n        /* \"#utility.yul\":1721:1839   */\n    tag_250:\n        /* \"#utility.yul\":1808:1832   */\n      tag_343\n        /* \"#utility.yul\":1826:1831   */\n      dup2\n        /* \"#utility.yul\":1808:1832   */\n      tag_249\n      jump\t// in\n    tag_343:\n        /* \"#utility.yul\":1803:1806   */\n      dup3\n        /* \"#utility.yul\":1796:1833   */\n      mstore\n        /* \"#utility.yul\":1721:1839   */\n      pop\n      pop\n      jump\t// out\n        /* \"#utility.yul\":1845:2067   */\n    tag_31:\n        /* \"#utility.yul\":1938:1942   */\n      0x00\n        /* \"#utility.yul\":1976:1978   */\n      0x20\n        /* \"#utility.yul\":1965:1974   */\n      dup3\n        /* \"#utility.yul\":1961:1979   */\n      add\n        /* \"#utility.yul\":1953:1979   */\n      swap1\n      pop\n        /* \"#utility.yul\":1989:2060   */\n      tag_345\n        /* \"#utility.yul\":2057:2058   */\n      0x00\n        /* \"#utility.yul\":2046:2055   */\n      dup4\n        /* \"#utility.yul\":2042:2059   */\n      add\n        /* \"#utility.yul\":2033:2039   */\n      dup5\n        /* \"#utility.yul\":1989:2060   */\n      tag_250\n      jump\t// in\n    tag_345:\n        /* \"#utility.yul\":1845:2067   */\n      swap3\n      swap2\n      pop\n      pop\n      jump\t// out\n        /* \"#utility.yul\":2073:2295   */\n    tag_36:\n        /* \"#utility.yul\":2166:2170   */\n      0x00\n        /* \"#utility.yul\":2204:2206   */\n      0x20\n        /* \"#utility.yul\":2193:2202   */\n      dup3\n        /* \"#utility.yul\":2189:2207   */\n      add\n        /* \"#utility.yul\":2181:2207   */\n      swap1\n      pop\n        /* \"#utility.yul\":2217:2288   */\n      tag_347\n        /* \"#utility.yul\":2285:2286   */\n      0x00\n        /* \"#utility.yul\":2274:2283   */\n      dup4\n        /* \"#utility.yul\":2270:2287   */\n      add\n        /* \"#utility.yul\":2261:2267   */\n      dup5\n        /* \"#utility.yul\":2217:2288   */\n      tag_242\n      jump\t// in\n    tag_347:\n        /* \"#utility.yul\":2073:2295   */\n      swap3\n      swap2\n      pop\n      pop\n      jump\t// out\n        /* \"#utility.yul\":2301:2423   */\n    tag_251:\n        /* \"#utility.yul\":2374:2398   */\n      tag_349\n        /* \"#utility.yul\":2392:2397   */\n      dup2\n        /* \"#utility.yul\":2374:2398   */\n      tag_249\n      jump\t// in\n    tag_349:\n        /* \"#utility.yul\":2367:2372   */\n      dup2\n        /* \"#utility.yul\":2364:2399   */\n      eq\n        /* \"#utility.yul\":2354:2417   */\n      tag_350\n      jumpi\n        /* \"#utility.yul\":2413:2414   */\n      0x00\n        /* \"#utility.yul\":2410:2411   */\n      dup1\n        /* \"#utility.yul\":2403:2415   */\n      revert\n        /* \"#utility.yul\":2354:2417   */\n    tag_350:\n        /* \"#utility.yul\":2301:2423   */\n      pop\n      jump\t// out\n        /* \"#utility.yul\":2429:2568   */\n    tag_252:\n        /* \"#utility.yul\":2475:2480   */\n      0x00\n        /* \"#utility.yul\":2513:2519   */\n      dup2\n        /* \"#utility.yul\":2500:2520   */\n      calldataload\n        /* \"#utility.yul\":2491:2520   */\n      swap1\n      pop\n        /* \"#utility.yul\":2529:2562   */\n      tag_352\n        /* \"#utility.yul\":2556:2561   */\n      dup2\n        /* \"#utility.yul\":2529:2562   */\n      tag_251\n      jump\t// in\n    tag_352:\n        /* \"#utility.yul\":2429:2568   */\n      swap3\n      swap2\n      pop\n      pop\n      jump\t// out\n        /* \"#utility.yul\":2574:2903   */\n    tag_40:\n        /* \"#utility.yul\":2633:2639   */\n      0x00\n        /* \"#utility.yul\":2682:2684   */\n      0x20\n        /* \"#utility.yul\":2670:2679   */\n      dup3\n        /* \"#utility.yul\":2661:2668   */\n      dup5\n        /* \"#utility.yul\":2657:2680   */\n      sub\n        /* \"#utility.yul\":2653:2685   */\n      slt\n        /* \"#utility.yul\":2650:2769   */\n      iszero\n      tag_354\n      jumpi\n        /* \"#utility.yul\":2688:2767   */\n      tag_355\n      tag_244\n      jump\t// in\n    tag_355:\n        /* \"#utility.yul\":2650:2769   */\n    tag_354:\n        /* \"#utility.yul\":2808:2809   */\n      0x00\n        /* \"#utility.yul\":2833:2886   */\n      tag_356\n        /* \"#utility.yul\":2878:2885   */\n      dup5\n        /* \"#utility.yul\":2869:2875   */\n      dup3\n        /* \"#utility.yul\":2858:2867   */\n      dup6\n        /* \"#utility.yul\":2854:2876   */\n      add\n        /* \"#utility.yul\":2833:2886   */\n      tag_252\n      jump\t// in\n    tag_356:\n        /* \"#utility.yul\":2823:2886   */\n      swap2\n      pop\n        /* \"#utility.yul\":2779:2896   */\n      pop\n        /* \"#utility.yul\":2574:2903   */\n      swap3\n      swap2\n      pop\n      pop\n      jump\t// out\n        /* \"#utility.yul\":2909:2999   */\n    tag_253:\n        /* \"#utility.yul\":2943:2950   */\n      0x00\n        /* \"#utility.yul\":2986:2991   */\n      dup2\n        /* \"#utility.yul\":2979:2992   */\n      iszero\n        /* \"#utility.yul\":2972:2993   */\n      iszero\n        /* \"#utility.yul\":2961:2993   */\n      swap1\n      pop\n        /* \"#utility.yul\":2909:2999   */\n      swap2\n      swap1\n      pop\n      jump\t// out\n        /* \"#utility.yul\":3005:3114   */\n    tag_254:\n        /* \"#utility.yul\":3086:3107   */\n      tag_359\n        /* \"#utility.yul\":3101:3106   */\n      dup2\n        /* \"#utility.yul\":3086:3107   */\n      tag_253\n      jump\t// in\n    tag_359:\n        /* \"#utility.yul\":3081:3084   */\n      dup3\n        /* \"#utility.yul\":3074:3108   */\n      mstore\n        /* \"#utility.yul\":3005:3114   */\n      pop\n      pop\n      jump\t// out\n        /* \"#utility.yul\":3120:3330   */\n    tag_55:\n        /* \"#utility.yul\":3207:3211   */\n      0x00\n        /* \"#utility.yul\":3245:3247   */\n      0x20\n        /* \"#utility.yul\":3234:3243   */\n      dup3\n        /* \"#utility.yul\":3230:3248   */\n      add\n        /* \"#utility.yul\":3222:3248   */\n      swap1\n      pop\n        /* \"#utility.yul\":3258:3323   */\n      tag_361\n        /* \"#utility.yul\":3320:3321   */\n      0x00\n        /* \"#utility.yul\":3309:3318   */\n      dup4\n        /* \"#utility.yul\":3305:3322   */\n      add\n        /* \"#utility.yul\":3296:3302   */\n      dup5\n        /* \"#utility.yul\":3258:3323   */\n      tag_254\n      jump\t// in\n    tag_361:\n        /* \"#utility.yul\":3120:3330   */\n      swap3\n      swap2\n      pop\n      pop\n      jump\t// out\n        /* \"#utility.yul\":3336:3434   */\n    tag_255:\n        /* \"#utility.yul\":3387:3393   */\n      0x00\n        /* \"#utility.yul\":3421:3426   */\n      dup2\n        /* \"#utility.yul\":3415:3427   */\n      mload\n        /* \"#utility.yul\":3405:3427   */\n      swap1\n      pop\n        /* \"#utility.yul\":3336:3434   */\n      swap2\n      swap1\n      pop\n      jump\t// out\n        /* \"#utility.yul\":3440:3608   */\n    tag_256:\n        /* \"#utility.yul\":3523:3534   */\n      0x00\n        /* \"#utility.yul\":3557:3563   */\n      dup3\n        /* \"#utility.yul\":3552:3555   */\n      dup3\n        /* \"#utility.yul\":3545:3564   */\n      mstore\n        /* \"#utility.yul\":3597:3601   */\n      0x20\n        /* \"#utility.yul\":3592:3595   */\n      dup3\n        /* \"#utility.yul\":3588:3602   */\n      add\n        /* \"#utility.yul\":3573:3602   */\n      swap1\n      pop\n        /* \"#utility.yul\":3440:3608   */\n      swap3\n      swap2\n      pop\n      pop\n      jump\t// out\n        /* \"#utility.yul\":3614:3860   */\n    tag_257:\n        /* \"#utility.yul\":3695:3696   */\n      0x00\n        /* \"#utility.yul\":3705:3818   */\n    tag_365:\n        /* \"#utility.yul\":3719:3725   */\n      dup4\n        /* \"#utility.yul\":3716:3717   */\n      dup2\n        /* \"#utility.yul\":3713:3726   */\n      lt\n        /* \"#utility.yul\":3705:3818   */\n      iszero\n      tag_367\n      jumpi\n        /* \"#utility.yul\":3804:3805   */\n      dup1\n        /* \"#utility.yul\":3799:3802   */\n      dup3\n        /* \"#utility.yul\":3795:3806   */\n      add\n        /* \"#utility.yul\":3789:3807   */\n      mload\n        /* \"#utility.yul\":3785:3786   */\n      dup2\n        /* \"#utility.yul\":3780:3783   */\n      dup5\n        /* \"#utility.yul\":3776:3787   */\n      add\n        /* \"#utility.yul\":3769:3808   */\n      mstore\n        /* \"#utility.yul\":3741:3743   */\n      0x20\n        /* \"#utility.yul\":3738:3739   */\n      dup2\n        /* \"#utility.yul\":3734:3744   */\n      add\n        /* \"#utility.yul\":3729:3744   */\n      swap1\n      pop\n        /* \"#utility.yul\":3705:3818   */\n      jump(tag_365)\n    tag_367:\n        /* \"#utility.yul\":3852:3853   */\n      0x00\n        /* \"#utility.yul\":3843:3849   */\n      dup5\n        /* \"#utility.yul\":3838:3841   */\n      dup5\n        /* \"#utility.yul\":3834:3850   */\n      add\n        /* \"#utility.yul\":3827:3854   */\n      mstore\n        /* \"#utility.yul\":3676:3860   */\n      pop\n        /* \"#utility.yul\":3614:3860   */\n      pop\n      pop\n      pop\n      jump\t// out\n        /* \"#utility.yul\":3866:3968   */\n    tag_258:\n        /* \"#utility.yul\":3907:3913   */\n      0x00\n        /* \"#utility.yul\":3958:3960   */\n      0x1f\n        /* \"#utility.yul\":3954:3961   */\n      not\n        /* \"#utility.yul\":3949:3951   */\n      0x1f\n        /* \"#utility.yul\":3942:3947   */\n      dup4\n        /* \"#utility.yul\":3938:3952   */\n      add\n        /* \"#utility.yul\":3934:3962   */\n      and\n        /* \"#utility.yul\":3924:3962   */\n      swap1\n      pop\n        /* \"#utility.yul\":3866:3968   */\n      swap2\n      swap1\n      pop\n      jump\t// out\n        /* \"#utility.yul\":3974:4347   */\n    tag_259:\n        /* \"#utility.yul\":4060:4063   */\n      0x00\n        /* \"#utility.yul\":4088:4126   */\n      tag_370\n        /* \"#utility.yul\":4120:4125   */\n      dup3\n        /* \"#utility.yul\":4088:4126   */\n      tag_255\n      jump\t// in\n    tag_370:\n        /* \"#utility.yul\":4142:4212   */\n      tag_371\n        /* \"#utility.yul\":4205:4211   */\n      dup2\n        /* \"#utility.yul\":4200:4203   */\n      dup6\n        /* \"#utility.yul\":4142:4212   */\n      tag_256\n      jump\t// in\n    tag_371:\n        /* \"#utility.yul\":4135:4212   */\n      swap4\n      pop\n        /* \"#utility.yul\":4221:4286   */\n      tag_372\n        /* \"#utility.yul\":4279:4285   */\n      dup2\n        /* \"#utility.yul\":4274:4277   */\n      dup6\n        /* \"#utility.yul\":4267:4271   */\n      0x20\n        /* \"#utility.yul\":4260:4265   */\n      dup7\n        /* \"#utility.yul\":4256:4272   */\n      add\n        /* \"#utility.yul\":4221:4286   */\n      tag_257\n      jump\t// in\n    tag_372:\n        /* \"#utility.yul\":4311:4340   */\n      tag_373\n        /* \"#utility.yul\":4333:4339   */\n      dup2\n        /* \"#utility.yul\":4311:4340   */\n      tag_258\n      jump\t// in\n    tag_373:\n        /* \"#utility.yul\":4306:4309   */\n      dup5\n        /* \"#utility.yul\":4302:4341   */\n      add\n        /* \"#utility.yul\":4295:4341   */\n      swap2\n      pop\n        /* \"#utility.yul\":4064:4347   */\n      pop\n        /* \"#utility.yul\":3974:4347   */\n      swap3\n      swap2\n      pop\n      pop\n      jump\t// out\n        /* \"#utility.yul\":4353:5092   */\n    tag_61:\n        /* \"#utility.yul\":4570:4574   */\n      0x00\n        /* \"#utility.yul\":4608:4611   */\n      0xa0\n        /* \"#utility.yul\":4597:4606   */\n      dup3\n        /* \"#utility.yul\":4593:4612   */\n      add\n        /* \"#utility.yul\":4585:4612   */\n      swap1\n      pop\n        /* \"#utility.yul\":4622:4693   */\n      tag_375\n        /* \"#utility.yul\":4690:4691   */\n      0x00\n        /* \"#utility.yul\":4679:4688   */\n      dup4\n        /* \"#utility.yul\":4675:4692   */\n      add\n        /* \"#utility.yul\":4666:4672   */\n      dup9\n        /* \"#utility.yul\":4622:4693   */\n      tag_250\n      jump\t// in\n    tag_375:\n        /* \"#utility.yul\":4703:4775   */\n      tag_376\n        /* \"#utility.yul\":4771:4773   */\n      0x20\n        /* \"#utility.yul\":4760:4769   */\n      dup4\n        /* \"#utility.yul\":4756:4774   */\n      add\n        /* \"#utility.yul\":4747:4753   */\n      dup8\n        /* \"#utility.yul\":4703:4775   */\n      tag_242\n      jump\t// in\n    tag_376:\n        /* \"#utility.yul\":4822:4831   */\n      dup2\n        /* \"#utility.yul\":4816:4820   */\n      dup2\n        /* \"#utility.yul\":4812:4832   */\n      sub\n        /* \"#utility.yul\":4807:4809   */\n      0x40\n        /* \"#utility.yul\":4796:4805   */\n      dup4\n        /* \"#utility.yul\":4792:4810   */\n      add\n        /* \"#utility.yul\":4785:4833   */\n      mstore\n        /* \"#utility.yul\":4850:4926   */\n      tag_377\n        /* \"#utility.yul\":4921:4925   */\n      dup2\n        /* \"#utility.yul\":4912:4918   */\n      dup7\n        /* \"#utility.yul\":4850:4926   */\n      tag_259\n      jump\t// in\n    tag_377:\n        /* \"#utility.yul\":4842:4926   */\n      swap1\n      pop\n        /* \"#utility.yul\":4936:5002   */\n      tag_378\n        /* \"#utility.yul\":4998:5000   */\n      0x60\n        /* \"#utility.yul\":4987:4996   */\n      dup4\n        /* \"#utility.yul\":4983:5001   */\n      add\n        /* \"#utility.yul\":4974:4980   */\n      dup6\n        /* \"#utility.yul\":4936:5002   */\n      tag_254\n      jump\t// in\n    tag_378:\n        /* \"#utility.yul\":5012:5085   */\n      tag_379\n        /* \"#utility.yul\":5080:5083   */\n      0x80\n        /* \"#utility.yul\":5069:5078   */\n      dup4\n        /* \"#utility.yul\":5065:5084   */\n      add\n        /* \"#utility.yul\":5056:5062   */\n      dup5\n        /* \"#utility.yul\":5012:5085   */\n      tag_242\n      jump\t// in\n    tag_379:\n        /* \"#utility.yul\":4353:5092   */\n      swap7\n      swap6\n      pop\n      pop\n      pop\n      pop\n      pop\n      pop\n      jump\t// out\n        /* \"#utility.yul\":5098:5572   */\n    tag_69:\n        /* \"#utility.yul\":5166:5172   */\n      0x00\n        /* \"#utility.yul\":5174:5180   */\n      dup1\n        /* \"#utility.yul\":5223:5225   */\n      0x40\n        /* \"#utility.yul\":5211:5220   */\n      dup4\n        /* \"#utility.yul\":5202:5209   */\n      dup6\n        /* \"#utility.yul\":5198:5221   */\n      sub\n        /* \"#utility.yul\":5194:5226   */\n      slt\n        /* \"#utility.yul\":5191:5310   */\n      iszero\n      tag_381\n      jumpi\n        /* \"#utility.yul\":5229:5308   */\n      tag_382\n      tag_244\n      jump\t// in\n    tag_382:\n        /* \"#utility.yul\":5191:5310   */\n    tag_381:\n        /* \"#utility.yul\":5349:5350   */\n      0x00\n        /* \"#utility.yul\":5374:5427   */\n      tag_383\n        /* \"#utility.yul\":5419:5426   */\n      dup6\n        /* \"#utility.yul\":5410:5416   */\n      dup3\n        /* \"#utility.yul\":5399:5408   */\n      dup7\n        /* \"#utility.yul\":5395:5417   */\n      add\n        /* \"#utility.yul\":5374:5427   */\n      tag_247\n      jump\t// in\n    tag_383:\n        /* \"#utility.yul\":5364:5427   */\n      swap3\n      pop\n        /* \"#utility.yul\":5320:5437   */\n      pop\n        /* \"#utility.yul\":5476:5478   */\n      0x20\n        /* \"#utility.yul\":5502:5555   */\n      tag_384\n        /* \"#utility.yul\":5547:5554   */\n      dup6\n        /* \"#utility.yul\":5538:5544   */\n      dup3\n        /* \"#utility.yul\":5527:5536   */\n      dup7\n        /* \"#utility.yul\":5523:5545   */\n      add\n        /* \"#utility.yul\":5502:5555   */\n      tag_252\n      jump\t// in\n    tag_384:\n        /* \"#utility.yul\":5492:5555   */\n      swap2\n      pop\n        /* \"#utility.yul\":5447:5565   */\n      pop\n        /* \"#utility.yul\":5098:5572   */\n      swap3\n      pop\n      swap3\n      swap1\n      pop\n      jump\t// out\n        /* \"#utility.yul\":5578:5692   */\n    tag_260:\n        /* \"#utility.yul\":5645:5651   */\n      0x00\n        /* \"#utility.yul\":5679:5684   */\n      dup2\n        /* \"#utility.yul\":5673:5685   */\n      mload\n        /* \"#utility.yul\":5663:5685   */\n      swap1\n      pop\n        /* \"#utility.yul\":5578:5692   */\n      swap2\n      swap1\n      pop\n      jump\t// out\n        /* \"#utility.yul\":5698:5882   */\n    tag_261:\n        /* \"#utility.yul\":5797:5808   */\n      0x00\n        /* \"#utility.yul\":5831:5837   */\n      dup3\n        /* \"#utility.yul\":5826:5829   */\n      dup3\n        /* \"#utility.yul\":5819:5838   */\n      mstore\n        /* \"#utility.yul\":5871:5875   */\n      0x20\n        /* \"#utility.yul\":5866:5869   */\n      dup3\n        /* \"#utility.yul\":5862:5876   */\n      add\n        /* \"#utility.yul\":5847:5876   */\n      swap1\n      pop\n        /* \"#utility.yul\":5698:5882   */\n      swap3\n      swap2\n      pop\n      pop\n      jump\t// out\n        /* \"#utility.yul\":5888:6020   */\n    tag_262:\n        /* \"#utility.yul\":5955:5959   */\n      0x00\n        /* \"#utility.yul\":5978:5981   */\n      dup2\n        /* \"#utility.yul\":5970:5981   */\n      swap1\n      pop\n        /* \"#utility.yul\":6008:6012   */\n      0x20\n        /* \"#utility.yul\":6003:6006   */\n      dup3\n        /* \"#utility.yul\":5999:6013   */\n      add\n        /* \"#utility.yul\":5991:6013   */\n      swap1\n      pop\n        /* \"#utility.yul\":5888:6020   */\n      swap2\n      swap1\n      pop\n      jump\t// out\n        /* \"#utility.yul\":6026:6134   */\n    tag_263:\n        /* \"#utility.yul\":6103:6127   */\n      tag_389\n        /* \"#utility.yul\":6121:6126   */\n      dup2\n        /* \"#utility.yul\":6103:6127   */\n      tag_249\n      jump\t// in\n    tag_389:\n        /* \"#utility.yul\":6098:6101   */\n      dup3\n        /* \"#utility.yul\":6091:6128   */\n      mstore\n        /* \"#utility.yul\":6026:6134   */\n      pop\n      pop\n      jump\t// out\n        /* \"#utility.yul\":6140:6319   */\n    tag_264:\n        /* \"#utility.yul\":6209:6219   */\n      0x00\n        /* \"#utility.yul\":6230:6276   */\n      tag_391\n        /* \"#utility.yul\":6272:6275   */\n      dup4\n        /* \"#utility.yul\":6264:6270   */\n      dup4\n        /* \"#utility.yul\":6230:6276   */\n      tag_263\n      jump\t// in\n    tag_391:\n        /* \"#utility.yul\":6308:6312   */\n      0x20\n        /* \"#utility.yul\":6303:6306   */\n      dup4\n        /* \"#utility.yul\":6299:6313   */\n      add\n        /* \"#utility.yul\":6285:6313   */\n      swap1\n      pop\n        /* \"#utility.yul\":6140:6319   */\n      swap3\n      swap2\n      pop\n      pop\n      jump\t// out\n        /* \"#utility.yul\":6325:6438   */\n    tag_265:\n        /* \"#utility.yul\":6395:6399   */\n      0x00\n        /* \"#utility.yul\":6427:6431   */\n      0x20\n        /* \"#utility.yul\":6422:6425   */\n      dup3\n        /* \"#utility.yul\":6418:6432   */\n      add\n        /* \"#utility.yul\":6410:6432   */\n      swap1\n      pop\n        /* \"#utility.yul\":6325:6438   */\n      swap2\n      swap1\n      pop\n      jump\t// out\n        /* \"#utility.yul\":6474:7206   */\n    tag_266:\n        /* \"#utility.yul\":6593:6596   */\n      0x00\n        /* \"#utility.yul\":6622:6676   */\n      tag_394\n        /* \"#utility.yul\":6670:6675   */\n      dup3\n        /* \"#utility.yul\":6622:6676   */\n      tag_260\n      jump\t// in\n    tag_394:\n        /* \"#utility.yul\":6692:6778   */\n      tag_395\n        /* \"#utility.yul\":6771:6777   */\n      dup2\n        /* \"#utility.yul\":6766:6769   */\n      dup6\n        /* \"#utility.yul\":6692:6778   */\n      tag_261\n      jump\t// in\n    tag_395:\n        /* \"#utility.yul\":6685:6778   */\n      swap4\n      pop\n        /* \"#utility.yul\":6802:6858   */\n      tag_396\n        /* \"#utility.yul\":6852:6857   */\n      dup4\n        /* \"#utility.yul\":6802:6858   */\n      tag_262\n      jump\t// in\n    tag_396:\n        /* \"#utility.yul\":6881:6888   */\n      dup1\n        /* \"#utility.yul\":6912:6913   */\n      0x00\n        /* \"#utility.yul\":6897:7181   */\n    tag_397:\n        /* \"#utility.yul\":6922:6928   */\n      dup4\n        /* \"#utility.yul\":6919:6920   */\n      dup2\n        /* \"#utility.yul\":6916:6929   */\n      lt\n        /* \"#utility.yul\":6897:7181   */\n      iszero\n      tag_399\n      jumpi\n        /* \"#utility.yul\":6998:7004   */\n      dup2\n        /* \"#utility.yul\":6992:7005   */\n      mload\n        /* \"#utility.yul\":7025:7088   */\n      tag_400\n        /* \"#utility.yul\":7084:7087   */\n      dup9\n        /* \"#utility.yul\":7069:7082   */\n      dup3\n        /* \"#utility.yul\":7025:7088   */\n      tag_264\n      jump\t// in\n    tag_400:\n        /* \"#utility.yul\":7018:7088   */\n      swap8\n      pop\n        /* \"#utility.yul\":7111:7171   */\n      tag_401\n        /* \"#utility.yul\":7164:7170   */\n      dup4\n        /* \"#utility.yul\":7111:7171   */\n      tag_265\n      jump\t// in\n    tag_401:\n        /* \"#utility.yul\":7101:7171   */\n      swap3\n      pop\n        /* \"#utility.yul\":6957:7181   */\n      pop\n        /* \"#utility.yul\":6944:6945   */\n      0x01\n        /* \"#utility.yul\":6941:6942   */\n      dup2\n        /* \"#utility.yul\":6937:6946   */\n      add\n        /* \"#utility.yul\":6932:6946   */\n      swap1\n      pop\n        /* \"#utility.yul\":6897:7181   */\n      jump(tag_397)\n    tag_399:\n        /* \"#utility.yul\":6901:6915   */\n      pop\n        /* \"#utility.yul\":7197:7200   */\n      dup6\n        /* \"#utility.yul\":7190:7200   */\n      swap4\n      pop\n        /* \"#utility.yul\":6598:7206   */\n      pop\n      pop\n      pop\n        /* \"#utility.yul\":6474:7206   */\n      swap3\n      swap2\n      pop\n      pop\n      jump\t// out\n        /* \"#utility.yul\":7212:7585   */\n    tag_81:\n        /* \"#utility.yul\":7355:7359   */\n      0x00\n        /* \"#utility.yul\":7393:7395   */\n      0x20\n        /* \"#utility.yul\":7382:7391   */\n      dup3\n        /* \"#utility.yul\":7378:7396   */\n      add\n        /* \"#utility.yul\":7370:7396   */\n      swap1\n      pop\n        /* \"#utility.yul\":7442:7451   */\n      dup2\n        /* \"#utility.yul\":7436:7440   */\n      dup2\n        /* \"#utility.yul\":7432:7452   */\n      sub\n        /* \"#utility.yul\":7428:7429   */\n      0x00\n        /* \"#utility.yul\":7417:7426   */\n      dup4\n        /* \"#utility.yul\":7413:7430   */\n      add\n        /* \"#utility.yul\":7406:7453   */\n      mstore\n        /* \"#utility.yul\":7470:7578   */\n      tag_403\n        /* \"#utility.yul\":7573:7577   */\n      dup2\n        /* \"#utility.yul\":7564:7570   */\n      dup5\n        /* \"#utility.yul\":7470:7578   */\n      tag_266\n      jump\t// in\n    tag_403:\n        /* \"#utility.yul\":7462:7578   */\n      swap1\n      pop\n        /* \"#utility.yul\":7212:7585   */\n      swap3\n      swap2\n      pop\n      pop\n      jump\t// out\n        /* \"#utility.yul\":7591:7708   */\n    tag_267:\n        /* \"#utility.yul\":7700:7701   */\n      0x00\n        /* \"#utility.yul\":7697:7698   */\n      dup1\n        /* \"#utility.yul\":7690:7702   */\n      revert\n        /* \"#utility.yul\":7714:7831   */\n    tag_268:\n        /* \"#utility.yul\":7823:7824   */\n      0x00\n        /* \"#utility.yul\":7820:7821   */\n      dup1\n        /* \"#utility.yul\":7813:7825   */\n      revert\n        /* \"#utility.yul\":7837:8017   */\n    tag_269:\n        /* \"#utility.yul\":7885:7962   */\n      0x4e487b7100000000000000000000000000000000000000000000000000000000\n        /* \"#utility.yul\":7882:7883   */\n      0x00\n        /* \"#utility.yul\":7875:7963   */\n      mstore\n        /* \"#utility.yul\":7982:7986   */\n      0x41\n        /* \"#utility.yul\":7979:7980   */\n      0x04\n        /* \"#utility.yul\":7972:7987   */\n      mstore\n        /* \"#utility.yul\":8006:8010   */\n      0x24\n        /* \"#utility.yul\":8003:8004   */\n      0x00\n        /* \"#utility.yul\":7996:8011   */\n      revert\n        /* \"#utility.yul\":8023:8304   */\n    tag_270:\n        /* \"#utility.yul\":8106:8133   */\n      tag_408\n        /* \"#utility.yul\":8128:8132   */\n      dup3\n        /* \"#utility.yul\":8106:8133   */\n      tag_258\n      jump\t// in\n    tag_408:\n        /* \"#utility.yul\":8098:8104   */\n      dup2\n        /* \"#utility.yul\":8094:8134   */\n      add\n        /* \"#utility.yul\":8236:8242   */\n      dup2\n        /* \"#utility.yul\":8224:8234   */\n      dup2\n        /* \"#utility.yul\":8221:8243   */\n      lt\n        /* \"#utility.yul\":8200:8218   */\n      0xffffffffffffffff\n        /* \"#utility.yul\":8188:8198   */\n      dup3\n        /* \"#utility.yul\":8185:8219   */\n      gt\n        /* \"#utility.yul\":8182:8244   */\n      or\n        /* \"#utility.yul\":8179:8267   */\n      iszero\n      tag_409\n      jumpi\n        /* \"#utility.yul\":8247:8265   */\n      tag_410\n      tag_269\n      jump\t// in\n    tag_410:\n        /* \"#utility.yul\":8179:8267   */\n    tag_409:\n        /* \"#utility.yul\":8287:8297   */\n      dup1\n        /* \"#utility.yul\":8283:8285   */\n      0x40\n        /* \"#utility.yul\":8276:8298   */\n      mstore\n        /* \"#utility.yul\":8066:8304   */\n      pop\n        /* \"#utility.yul\":8023:8304   */\n      pop\n      pop\n      jump\t// out\n        /* \"#utility.yul\":8310:8439   */\n    tag_271:\n        /* \"#utility.yul\":8344:8350   */\n      0x00\n        /* \"#utility.yul\":8371:8391   */\n      tag_412\n      tag_243\n      jump\t// in\n    tag_412:\n        /* \"#utility.yul\":8361:8391   */\n      swap1\n      pop\n        /* \"#utility.yul\":8400:8433   */\n      tag_413\n        /* \"#utility.yul\":8428:8432   */\n      dup3\n        /* \"#utility.yul\":8420:8426   */\n      dup3\n        /* \"#utility.yul\":8400:8433   */\n      tag_270\n      jump\t// in\n    tag_413:\n        /* \"#utility.yul\":8310:8439   */\n      swap2\n      swap1\n      pop\n      jump\t// out\n        /* \"#utility.yul\":8445:8752   */\n    tag_272:\n        /* \"#utility.yul\":8506:8510   */\n      0x00\n        /* \"#utility.yul\":8596:8614   */\n      0xffffffffffffffff\n        /* \"#utility.yul\":8588:8594   */\n      dup3\n        /* \"#utility.yul\":8585:8615   */\n      gt\n        /* \"#utility.yul\":8582:8638   */\n      iszero\n      tag_415\n      jumpi\n        /* \"#utility.yul\":8618:8636   */\n      tag_416\n      tag_269\n      jump\t// in\n    tag_416:\n        /* \"#utility.yul\":8582:8638   */\n    tag_415:\n        /* \"#utility.yul\":8656:8685   */\n      tag_417\n        /* \"#utility.yul\":8678:8684   */\n      dup3\n        /* \"#utility.yul\":8656:8685   */\n      tag_258\n      jump\t// in\n    tag_417:\n        /* \"#utility.yul\":8648:8685   */\n      swap1\n      pop\n        /* \"#utility.yul\":8740:8744   */\n      0x20\n        /* \"#utility.yul\":8734:8738   */\n      dup2\n        /* \"#utility.yul\":8730:8745   */\n      add\n        /* \"#utility.yul\":8722:8745   */\n      swap1\n      pop\n        /* \"#utility.yul\":8445:8752   */\n      swap2\n      swap1\n      pop\n      jump\t// out\n        /* \"#utility.yul\":8758:8904   */\n    tag_273:\n        /* \"#utility.yul\":8855:8861   */\n      dup3\n        /* \"#utility.yul\":8850:8853   */\n      dup2\n        /* \"#utility.yul\":8845:8848   */\n      dup4\n        /* \"#utility.yul\":8832:8862   */\n      calldatacopy\n        /* \"#utility.yul\":8896:8897   */\n      0x00\n        /* \"#utility.yul\":8887:8893   */\n      dup4\n        /* \"#utility.yul\":8882:8885   */\n      dup4\n        /* \"#utility.yul\":8878:8894   */\n      add\n        /* \"#utility.yul\":8871:8898   */\n      mstore\n        /* \"#utility.yul\":8758:8904   */\n      pop\n      pop\n      pop\n      jump\t// out\n        /* \"#utility.yul\":8910:9333   */\n    tag_274:\n        /* \"#utility.yul\":8987:8992   */\n      0x00\n        /* \"#utility.yul\":9012:9077   */\n      tag_420\n        /* \"#utility.yul\":9028:9076   */\n      tag_421\n        /* \"#utility.yul\":9069:9075   */\n      dup5\n        /* \"#utility.yul\":9028:9076   */\n      tag_272\n      jump\t// in\n    tag_421:\n        /* \"#utility.yul\":9012:9077   */\n      tag_271\n      jump\t// in\n    tag_420:\n        /* \"#utility.yul\":9003:9077   */\n      swap1\n      pop\n        /* \"#utility.yul\":9100:9106   */\n      dup3\n        /* \"#utility.yul\":9093:9098   */\n      dup2\n        /* \"#utility.yul\":9086:9107   */\n      mstore\n        /* \"#utility.yul\":9138:9142   */\n      0x20\n        /* \"#utility.yul\":9131:9136   */\n      dup2\n        /* \"#utility.yul\":9127:9143   */\n      add\n        /* \"#utility.yul\":9176:9179   */\n      dup5\n        /* \"#utility.yul\":9167:9173   */\n      dup5\n        /* \"#utility.yul\":9162:9165   */\n      dup5\n        /* \"#utility.yul\":9158:9174   */\n      add\n        /* \"#utility.yul\":9155:9180   */\n      gt\n        /* \"#utility.yul\":9152:9264   */\n      iszero\n      tag_422\n      jumpi\n        /* \"#utility.yul\":9183:9262   */\n      tag_423\n      tag_268\n      jump\t// in\n    tag_423:\n        /* \"#utility.yul\":9152:9264   */\n    tag_422:\n        /* \"#utility.yul\":9273:9327   */\n      tag_424\n        /* \"#utility.yul\":9320:9326   */\n      dup5\n        /* \"#utility.yul\":9315:9318   */\n      dup3\n        /* \"#utility.yul\":9310:9313   */\n      dup6\n        /* \"#utility.yul\":9273:9327   */\n      tag_273\n      jump\t// in\n    tag_424:\n        /* \"#utility.yul\":8993:9333   */\n      pop\n        /* \"#utility.yul\":8910:9333   */\n      swap4\n      swap3\n      pop\n      pop\n      pop\n      jump\t// out\n        /* \"#utility.yul\":9352:9690   */\n    tag_275:\n        /* \"#utility.yul\":9407:9412   */\n      0x00\n        /* \"#utility.yul\":9456:9459   */\n      dup3\n        /* \"#utility.yul\":9449:9453   */\n      0x1f\n        /* \"#utility.yul\":9441:9447   */\n      dup4\n        /* \"#utility.yul\":9437:9454   */\n      add\n        /* \"#utility.yul\":9433:9460   */\n      slt\n        /* \"#utility.yul\":9423:9545   */\n      tag_426\n      jumpi\n        /* \"#utility.yul\":9464:9543   */\n      tag_427\n      tag_267\n      jump\t// in\n    tag_427:\n        /* \"#utility.yul\":9423:9545   */\n    tag_426:\n        /* \"#utility.yul\":9581:9587   */\n      dup2\n        /* \"#utility.yul\":9568:9588   */\n      calldataload\n        /* \"#utility.yul\":9606:9684   */\n      tag_428\n        /* \"#utility.yul\":9680:9683   */\n      dup5\n        /* \"#utility.yul\":9672:9678   */\n      dup3\n        /* \"#utility.yul\":9665:9669   */\n      0x20\n        /* \"#utility.yul\":9657:9663   */\n      dup7\n        /* \"#utility.yul\":9653:9670   */\n      add\n        /* \"#utility.yul\":9606:9684   */\n      tag_274\n      jump\t// in\n    tag_428:\n        /* \"#utility.yul\":9597:9684   */\n      swap2\n      pop\n        /* \"#utility.yul\":9413:9690   */\n      pop\n        /* \"#utility.yul\":9352:9690   */\n      swap3\n      swap2\n      pop\n      pop\n      jump\t// out\n        /* \"#utility.yul\":9696:10493   */\n    tag_89:\n        /* \"#utility.yul\":9782:9788   */\n      0x00\n        /* \"#utility.yul\":9790:9796   */\n      dup1\n        /* \"#utility.yul\":9798:9804   */\n      0x00\n        /* \"#utility.yul\":9847:9849   */\n      0x60\n        /* \"#utility.yul\":9835:9844   */\n      dup5\n        /* \"#utility.yul\":9826:9833   */\n      dup7\n        /* \"#utility.yul\":9822:9845   */\n      sub\n        /* \"#utility.yul\":9818:9850   */\n      slt\n        /* \"#utility.yul\":9815:9934   */\n      iszero\n      tag_430\n      jumpi\n        /* \"#utility.yul\":9853:9932   */\n      tag_431\n      tag_244\n      jump\t// in\n    tag_431:\n        /* \"#utility.yul\":9815:9934   */\n    tag_430:\n        /* \"#utility.yul\":9973:9974   */\n      0x00\n        /* \"#utility.yul\":9998:10051   */\n      tag_432\n        /* \"#utility.yul\":10043:10050   */\n      dup7\n        /* \"#utility.yul\":10034:10040   */\n      dup3\n        /* \"#utility.yul\":10023:10032   */\n      dup8\n        /* \"#utility.yul\":10019:10041   */\n      add\n        /* \"#utility.yul\":9998:10051   */\n      tag_252\n      jump\t// in\n    tag_432:\n        /* \"#utility.yul\":9988:10051   */\n      swap4\n      pop\n        /* \"#utility.yul\":9944:10061   */\n      pop\n        /* \"#utility.yul\":10100:10102   */\n      0x20\n        /* \"#utility.yul\":10126:10179   */\n      tag_433\n        /* \"#utility.yul\":10171:10178   */\n      dup7\n        /* \"#utility.yul\":10162:10168   */\n      dup3\n        /* \"#utility.yul\":10151:10160   */\n      dup8\n        /* \"#utility.yul\":10147:10169   */\n      add\n        /* \"#utility.yul\":10126:10179   */\n      tag_247\n      jump\t// in\n    tag_433:\n        /* \"#utility.yul\":10116:10179   */\n      swap3\n      pop\n        /* \"#utility.yul\":10071:10189   */\n      pop\n        /* \"#utility.yul\":10256:10258   */\n      0x40\n        /* \"#utility.yul\":10245:10254   */\n      dup5\n        /* \"#utility.yul\":10241:10259   */\n      add\n        /* \"#utility.yul\":10228:10260   */\n      calldataload\n        /* \"#utility.yul\":10287:10305   */\n      0xffffffffffffffff\n        /* \"#utility.yul\":10279:10285   */\n      dup2\n        /* \"#utility.yul\":10276:10306   */\n      gt\n        /* \"#utility.yul\":10273:10390   */\n      iszero\n      tag_434\n      jumpi\n        /* \"#utility.yul\":10309:10388   */\n      tag_435\n      tag_245\n      jump\t// in\n    tag_435:\n        /* \"#utility.yul\":10273:10390   */\n    tag_434:\n        /* \"#utility.yul\":10414:10476   */\n      tag_436\n        /* \"#utility.yul\":10468:10475   */\n      dup7\n        /* \"#utility.yul\":10459:10465   */\n      dup3\n        /* \"#utility.yul\":10448:10457   */\n      dup8\n        /* \"#utility.yul\":10444:10466   */\n      add\n        /* \"#utility.yul\":10414:10476   */\n      tag_275\n      jump\t// in\n    tag_436:\n        /* \"#utility.yul\":10404:10476   */\n      swap2\n      pop\n        /* \"#utility.yul\":10199:10486   */\n      pop\n        /* \"#utility.yul\":9696:10493   */\n      swap3\n      pop\n      swap3\n      pop\n      swap3\n      jump\t// out\n        /* \"#utility.yul\":10499:10668   */\n    tag_276:\n        /* \"#utility.yul\":10583:10594   */\n      0x00\n        /* \"#utility.yul\":10617:10623   */\n      dup3\n        /* \"#utility.yul\":10612:10615   */\n      dup3\n        /* \"#utility.yul\":10605:10624   */\n      mstore\n        /* \"#utility.yul\":10657:10661   */\n      0x20\n        /* \"#utility.yul\":10652:10655   */\n      dup3\n        /* \"#utility.yul\":10648:10662   */\n      add\n        /* \"#utility.yul\":10633:10662   */\n      swap1\n      pop\n        /* \"#utility.yul\":10499:10668   */\n      swap3\n      swap2\n      pop\n      pop\n      jump\t// out\n        /* \"#utility.yul\":10674:10836   */\n    tag_277:\n        /* \"#utility.yul\":10814:10828   */\n      0x6e6f7420616e206f776e65720000000000000000000000000000000000000000\n        /* \"#utility.yul\":10810:10811   */\n      0x00\n        /* \"#utility.yul\":10802:10808   */\n      dup3\n        /* \"#utility.yul\":10798:10812   */\n      add\n        /* \"#utility.yul\":10791:10829   */\n      mstore\n        /* \"#utility.yul\":10674:10836   */\n      pop\n      jump\t// out\n        /* \"#utility.yul\":10842:11208   */\n    tag_278:\n        /* \"#utility.yul\":10984:10987   */\n      0x00\n        /* \"#utility.yul\":11005:11072   */\n      tag_440\n        /* \"#utility.yul\":11069:11071   */\n      0x0c\n        /* \"#utility.yul\":11064:11067   */\n      dup4\n        /* \"#utility.yul\":11005:11072   */\n      tag_276\n      jump\t// in\n    tag_440:\n        /* \"#utility.yul\":10998:11072   */\n      swap2\n      pop\n        /* \"#utility.yul\":11081:11174   */\n      tag_441\n        /* \"#utility.yul\":11170:11173   */\n      dup3\n        /* \"#utility.yul\":11081:11174   */\n      tag_277\n      jump\t// in\n    tag_441:\n        /* \"#utility.yul\":11199:11201   */\n      0x20\n        /* \"#utility.yul\":11194:11197   */\n      dup3\n        /* \"#utility.yul\":11190:11202   */\n      add\n        /* \"#utility.yul\":11183:11202   */\n      swap1\n      pop\n        /* \"#utility.yul\":10842:11208   */\n      swap2\n      swap1\n      pop\n      jump\t// out\n        /* \"#utility.yul\":11214:11633   */\n    tag_104:\n        /* \"#utility.yul\":11380:11384   */\n      0x00\n        /* \"#utility.yul\":11418:11420   */\n      0x20\n        /* \"#utility.yul\":11407:11416   */\n      dup3\n        /* \"#utility.yul\":11403:11421   */\n      add\n        /* \"#utility.yul\":11395:11421   */\n      swap1\n      pop\n        /* \"#utility.yul\":11467:11476   */\n      dup2\n        /* \"#utility.yul\":11461:11465   */\n      dup2\n        /* \"#utility.yul\":11457:11477   */\n      sub\n        /* \"#utility.yul\":11453:11454   */\n      0x00\n        /* \"#utility.yul\":11442:11451   */\n      dup4\n        /* \"#utility.yul\":11438:11455   */\n      add\n        /* \"#utility.yul\":11431:11478   */\n      mstore\n        /* \"#utility.yul\":11495:11626   */\n      tag_443\n        /* \"#utility.yul\":11621:11625   */\n      dup2\n        /* \"#utility.yul\":11495:11626   */\n      tag_278\n      jump\t// in\n    tag_443:\n        /* \"#utility.yul\":11487:11626   */\n      swap1\n      pop\n        /* \"#utility.yul\":11214:11633   */\n      swap2\n      swap1\n      pop\n      jump\t// out\n        /* \"#utility.yul\":11639:11813   */\n    tag_279:\n        /* \"#utility.yul\":11779:11805   */\n      0x63616e6e6f742072656d6f7665206c617374206f776e65720000000000000000\n        /* \"#utility.yul\":11775:11776   */\n      0x00\n        /* \"#utility.yul\":11767:11773   */\n      dup3\n        /* \"#utility.yul\":11763:11777   */\n      add\n        /* \"#utility.yul\":11756:11806   */\n      mstore\n        /* \"#utility.yul\":11639:11813   */\n      pop\n      jump\t// out\n        /* \"#utility.yul\":11819:12185   */\n    tag_280:\n        /* \"#utility.yul\":11961:11964   */\n      0x00\n        /* \"#utility.yul\":11982:12049   */\n      tag_446\n        /* \"#utility.yul\":12046:12048   */\n      0x18\n        /* \"#utility.yul\":12041:12044   */\n      dup4\n        /* \"#utility.yul\":11982:12049   */\n      tag_276\n      jump\t// in\n    tag_446:\n        /* \"#utility.yul\":11975:12049   */\n      swap2\n      pop\n        /* \"#utility.yul\":12058:12151   */\n      tag_447\n        /* \"#utility.yul\":12147:12150   */\n      dup3\n        /* \"#utility.yul\":12058:12151   */\n      tag_279\n      jump\t// in\n    tag_447:\n        /* \"#utility.yul\":12176:12178   */\n      0x20\n        /* \"#utility.yul\":12171:12174   */\n      dup3\n        /* \"#utility.yul\":12167:12179   */\n      add\n        /* \"#utility.yul\":12160:12179   */\n      swap1\n      pop\n        /* \"#utility.yul\":11819:12185   */\n      swap2\n      swap1\n      pop\n      jump\t// out\n        /* \"#utility.yul\":12191:12610   */\n    tag_107:\n        /* \"#utility.yul\":12357:12361   */\n      0x00\n        /* \"#utility.yul\":12395:12397   */\n      0x20\n        /* \"#utility.yul\":12384:12393   */\n      dup3\n        /* \"#utility.yul\":12380:12398   */\n      add\n        /* \"#utility.yul\":12372:12398   */\n      swap1\n      pop\n        /* \"#utility.yul\":12444:12453   */\n      dup2\n        /* \"#utility.yul\":12438:12442   */\n      dup2\n        /* \"#utility.yul\":12434:12454   */\n      sub\n        /* \"#utility.yul\":12430:12431   */\n      0x00\n        /* \"#utility.yul\":12419:12428   */\n      dup4\n        /* \"#utility.yul\":12415:12432   */\n      add\n        /* \"#utility.yul\":12408:12455   */\n      mstore\n        /* \"#utility.yul\":12472:12603   */\n      tag_449\n        /* \"#utility.yul\":12598:12602   */\n      dup2\n        /* \"#utility.yul\":12472:12603   */\n      tag_280\n      jump\t// in\n    tag_449:\n        /* \"#utility.yul\":12464:12603   */\n      swap1\n      pop\n        /* \"#utility.yul\":12191:12610   */\n      swap2\n      swap1\n      pop\n      jump\t// out\n        /* \"#utility.yul\":12616:12796   */\n    tag_113:\n        /* \"#utility.yul\":12664:12741   */\n      0x4e487b7100000000000000000000000000000000000000000000000000000000\n        /* \"#utility.yul\":12661:12662   */\n      0x00\n        /* \"#utility.yul\":12654:12742   */\n      mstore\n        /* \"#utility.yul\":12761:12765   */\n      0x32\n        /* \"#utility.yul\":12758:12759   */\n      0x04\n        /* \"#utility.yul\":12751:12766   */\n      mstore\n        /* \"#utility.yul\":12785:12789   */\n      0x24\n        /* \"#utility.yul\":12782:12783   */\n      0x00\n        /* \"#utility.yul\":12775:12790   */\n      revert\n        /* \"#utility.yul\":12802:12982   */\n    tag_281:\n        /* \"#utility.yul\":12850:12927   */\n      0x4e487b7100000000000000000000000000000000000000000000000000000000\n        /* \"#utility.yul\":12847:12848   */\n      0x00\n        /* \"#utility.yul\":12840:12928   */\n      mstore\n        /* \"#utility.yul\":12947:12951   */\n      0x11\n        /* \"#utility.yul\":12944:12945   */\n      0x04\n        /* \"#utility.yul\":12937:12952   */\n      mstore\n        /* \"#utility.yul\":12971:12975   */\n      0x24\n        /* \"#utility.yul\":12968:12969   */\n      0x00\n        /* \"#utility.yul\":12961:12976   */\n      revert\n        /* \"#utility.yul\":12988:13182   */\n    tag_117:\n        /* \"#utility.yul\":13028:13032   */\n      0x00\n        /* \"#utility.yul\":13048:13068   */\n      tag_453\n        /* \"#utility.yul\":13066:13067   */\n      dup3\n        /* \"#utility.yul\":13048:13068   */\n      tag_241\n      jump\t// in\n    tag_453:\n        /* \"#utility.yul\":13043:13068   */\n      swap2\n      pop\n        /* \"#utility.yul\":13082:13102   */\n      tag_454\n        /* \"#utility.yul\":13100:13101   */\n      dup4\n        /* \"#utility.yul\":13082:13102   */\n      tag_241\n      jump\t// in\n    tag_454:\n        /* \"#utility.yul\":13077:13102   */\n      swap3\n      pop\n        /* \"#utility.yul\":13126:13127   */\n      dup3\n        /* \"#utility.yul\":13123:13124   */\n      dup3\n        /* \"#utility.yul\":13119:13128   */\n      sub\n        /* \"#utility.yul\":13111:13128   */\n      swap1\n      pop\n        /* \"#utility.yul\":13150:13151   */\n      dup2\n        /* \"#utility.yul\":13144:13148   */\n      dup2\n        /* \"#utility.yul\":13141:13152   */\n      gt\n        /* \"#utility.yul\":13138:13175   */\n      iszero\n      tag_455\n      jumpi\n        /* \"#utility.yul\":13155:13173   */\n      tag_456\n      tag_281\n      jump\t// in\n    tag_456:\n        /* \"#utility.yul\":13138:13175   */\n    tag_455:\n        /* \"#utility.yul\":12988:13182   */\n      swap3\n      swap2\n      pop\n      pop\n      jump\t// out\n        /* \"#utility.yul\":13188:13368   */\n    tag_126:\n        /* \"#utility.yul\":13236:13313   */\n      0x4e487b7100000000000000000000000000000000000000000000000000000000\n        /* \"#utility.yul\":13233:13234   */\n      0x00\n        /* \"#utility.yul\":13226:13314   */\n      mstore\n        /* \"#utility.yul\":13333:13337   */\n      0x31\n        /* \"#utility.yul\":13330:13331   */\n      0x04\n        /* \"#utility.yul\":13323:13338   */\n      mstore\n        /* \"#utility.yul\":13357:13361   */\n      0x24\n        /* \"#utility.yul\":13354:13355   */\n      0x00\n        /* \"#utility.yul\":13347:13362   */\n      revert\n        /* \"#utility.yul\":13374:13533   */\n    tag_282:\n        /* \"#utility.yul\":13514:13525   */\n      0x6e6f74206f776e65720000000000000000000000000000000000000000000000\n        /* \"#utility.yul\":13510:13511   */\n      0x00\n        /* \"#utility.yul\":13502:13508   */\n      dup3\n        /* \"#utility.yul\":13498:13512   */\n      add\n        /* \"#utility.yul\":13491:13526   */\n      mstore\n        /* \"#utility.yul\":13374:13533   */\n      pop\n      jump\t// out\n        /* \"#utility.yul\":13539:13904   */\n    tag_283:\n        /* \"#utility.yul\":13681:13684   */\n      0x00\n        /* \"#utility.yul\":13702:13768   */\n      tag_460\n        /* \"#utility.yul\":13766:13767   */\n      0x09\n        /* \"#utility.yul\":13761:13764   */\n      dup4\n        /* \"#utility.yul\":13702:13768   */\n      tag_276\n      jump\t// in\n    tag_460:\n        /* \"#utility.yul\":13695:13768   */\n      swap2\n      pop\n        /* \"#utility.yul\":13777:13870   */\n      tag_461\n        /* \"#utility.yul\":13866:13869   */\n      dup3\n        /* \"#utility.yul\":13777:13870   */\n      tag_282\n      jump\t// in\n    tag_461:\n        /* \"#utility.yul\":13895:13897   */\n      0x20\n        /* \"#utility.yul\":13890:13893   */\n      dup3\n        /* \"#utility.yul\":13886:13898   */\n      add\n        /* \"#utility.yul\":13879:13898   */\n      swap1\n      pop\n        /* \"#utility.yul\":13539:13904   */\n      swap2\n      swap1\n      pop\n      jump\t// out\n        /* \"#utility.yul\":13910:14329   */\n    tag_131:\n        /* \"#utility.yul\":14076:14080   */\n      0x00\n        /* \"#utility.yul\":14114:14116   */\n      0x20\n        /* \"#utility.yul\":14103:14112   */\n      dup3\n        /* \"#utility.yul\":14099:14117   */\n      add\n        /* \"#utility.yul\":14091:14117   */\n      swap1\n      pop\n        /* \"#utility.yul\":14163:14172   */\n      dup2\n        /* \"#utility.yul\":14157:14161   */\n      dup2\n        /* \"#utility.yul\":14153:14173   */\n      sub\n        /* \"#utility.yul\":14149:14150   */\n      0x00\n        /* \"#utility.yul\":14138:14147   */\n      dup4\n        /* \"#utility.yul\":14134:14151   */\n      add\n        /* \"#utility.yul\":14127:14174   */\n      mstore\n        /* \"#utility.yul\":14191:14322   */\n      tag_463\n        /* \"#utility.yul\":14317:14321   */\n      dup2\n        /* \"#utility.yul\":14191:14322   */\n      tag_283\n      jump\t// in\n    tag_463:\n        /* \"#utility.yul\":14183:14322   */\n      swap1\n      pop\n        /* \"#utility.yul\":13910:14329   */\n      swap2\n      swap1\n      pop\n      jump\t// out\n        /* \"#utility.yul\":14335:14502   */\n    tag_284:\n        /* \"#utility.yul\":14475:14494   */\n      0x747820646f6573206e6f74206578697374000000000000000000000000000000\n        /* \"#utility.yul\":14471:14472   */\n      0x00\n        /* \"#utility.yul\":14463:14469   */\n      dup3\n        /* \"#utility.yul\":14459:14473   */\n      add\n        /* \"#utility.yul\":14452:14495   */\n      mstore\n        /* \"#utility.yul\":14335:14502   */\n      pop\n      jump\t// out\n        /* \"#utility.yul\":14508:14874   */\n    tag_285:\n        /* \"#utility.yul\":14650:14653   */\n      0x00\n        /* \"#utility.yul\":14671:14738   */\n      tag_466\n        /* \"#utility.yul\":14735:14737   */\n      0x11\n        /* \"#utility.yul\":14730:14733   */\n      dup4\n        /* \"#utility.yul\":14671:14738   */\n      tag_276\n      jump\t// in\n    tag_466:\n        /* \"#utility.yul\":14664:14738   */\n      swap2\n      pop\n        /* \"#utility.yul\":14747:14840   */\n      tag_467\n        /* \"#utility.yul\":14836:14839   */\n      dup3\n        /* \"#utility.yul\":14747:14840   */\n      tag_284\n      jump\t// in\n    tag_467:\n        /* \"#utility.yul\":14865:14867   */\n      0x20\n        /* \"#utility.yul\":14860:14863   */\n      dup3\n        /* \"#utility.yul\":14856:14868   */\n      add\n        /* \"#utility.yul\":14849:14868   */\n      swap1\n      pop\n        /* \"#utility.yul\":14508:14874   */\n      swap2\n      swap1\n      pop\n      jump\t// out\n        /* \"#utility.yul\":14880:15299   */\n    tag_135:\n        /* \"#utility.yul\":15046:15050   */\n      0x00\n        /* \"#utility.yul\":15084:15086   */\n      0x20\n        /* \"#utility.yul\":15073:15082   */\n      dup3\n        /* \"#utility.yul\":15069:15087   */\n      add\n        /* \"#utility.yul\":15061:15087   */\n      swap1\n      pop\n        /* \"#utility.yul\":15133:15142   */\n      dup2\n        /* \"#utility.yul\":15127:15131   */\n      dup2\n        /* \"#utility.yul\":15123:15143   */\n      sub\n        /* \"#utility.yul\":15119:15120   */\n      0x00\n        /* \"#utility.yul\":15108:15117   */\n      dup4\n        /* \"#utility.yul\":15104:15121   */\n      add\n        /* \"#utility.yul\":15097:15144   */\n      mstore\n        /* \"#utility.yul\":15161:15292   */\n      tag_469\n        /* \"#utility.yul\":15287:15291   */\n      dup2\n        /* \"#utility.yul\":15161:15292   */\n      tag_285\n      jump\t// in\n    tag_469:\n        /* \"#utility.yul\":15153:15292   */\n      swap1\n      pop\n        /* \"#utility.yul\":14880:15299   */\n      swap2\n      swap1\n      pop\n      jump\t// out\n        /* \"#utility.yul\":15305:15474   */\n    tag_286:\n        /* \"#utility.yul\":15445:15466   */\n      0x747820616c726561647920657865637574656400000000000000000000000000\n        /* \"#utility.yul\":15441:15442   */\n      0x00\n        /* \"#utility.yul\":15433:15439   */\n      dup3\n        /* \"#utility.yul\":15429:15443   */\n      add\n        /* \"#utility.yul\":15422:15467   */\n      mstore\n        /* \"#utility.yul\":15305:15474   */\n      pop\n      jump\t// out\n        /* \"#utility.yul\":15480:15846   */\n    tag_287:\n        /* \"#utility.yul\":15622:15625   */\n      0x00\n        /* \"#utility.yul\":15643:15710   */\n      tag_472\n        /* \"#utility.yul\":15707:15709   */\n      0x13\n        /* \"#utility.yul\":15702:15705   */\n      dup4\n        /* \"#utility.yul\":15643:15710   */\n      tag_276\n      jump\t// in\n    tag_472:\n        /* \"#utility.yul\":15636:15710   */\n      swap2\n      pop\n        /* \"#utility.yul\":15719:15812   */\n      tag_473\n        /* \"#utility.yul\":15808:15811   */\n      dup3\n        /* \"#utility.yul\":15719:15812   */\n      tag_286\n      jump\t// in\n    tag_473:\n        /* \"#utility.yul\":15837:15839   */\n      0x20\n        /* \"#utility.yul\":15832:15835   */\n      dup3\n        /* \"#utility.yul\":15828:15840   */\n      add\n        /* \"#utility.yul\":15821:15840   */\n      swap1\n      pop\n        /* \"#utility.yul\":15480:15846   */\n      swap2\n      swap1\n      pop\n      jump\t// out\n        /* \"#utility.yul\":15852:16271   */\n    tag_142:\n        /* \"#utility.yul\":16018:16022   */\n      0x00\n        /* \"#utility.yul\":16056:16058   */\n      0x20\n        /* \"#utility.yul\":16045:16054   */\n      dup3\n        /* \"#utility.yul\":16041:16059   */\n      add\n        /* \"#utility.yul\":16033:16059   */\n      swap1\n      pop\n        /* \"#utility.yul\":16105:16114   */\n      dup2\n        /* \"#utility.yul\":16099:16103   */\n      dup2\n        /* \"#utility.yul\":16095:16115   */\n      sub\n        /* \"#utility.yul\":16091:16092   */\n      0x00\n        /* \"#utility.yul\":16080:16089   */\n      dup4\n        /* \"#utility.yul\":16076:16093   */\n      add\n        /* \"#utility.yul\":16069:16116   */\n      mstore\n        /* \"#utility.yul\":16133:16264   */\n      tag_475\n        /* \"#utility.yul\":16259:16263   */\n      dup2\n        /* \"#utility.yul\":16133:16264   */\n      tag_287\n      jump\t// in\n    tag_475:\n        /* \"#utility.yul\":16125:16264   */\n      swap1\n      pop\n        /* \"#utility.yul\":15852:16271   */\n      swap2\n      swap1\n      pop\n      jump\t// out\n        /* \"#utility.yul\":16277:16443   */\n    tag_288:\n        /* \"#utility.yul\":16417:16435   */\n      0x7478206e6f7420636f6e6669726d656400000000000000000000000000000000\n        /* \"#utility.yul\":16413:16414   */\n      0x00\n        /* \"#utility.yul\":16405:16411   */\n      dup3\n        /* \"#utility.yul\":16401:16415   */\n      add\n        /* \"#utility.yul\":16394:16436   */\n      mstore\n        /* \"#utility.yul\":16277:16443   */\n      pop\n      jump\t// out\n        /* \"#utility.yul\":16449:16815   */\n    tag_289:\n        /* \"#utility.yul\":16591:16594   */\n      0x00\n        /* \"#utility.yul\":16612:16679   */\n      tag_478\n        /* \"#utility.yul\":16676:16678   */\n      0x10\n        /* \"#utility.yul\":16671:16674   */\n      dup4\n        /* \"#utility.yul\":16612:16679   */\n      tag_276\n      jump\t// in\n    tag_478:\n        /* \"#utility.yul\":16605:16679   */\n      swap2\n      pop\n        /* \"#utility.yul\":16688:16781   */\n      tag_479\n        /* \"#utility.yul\":16777:16780   */\n      dup3\n        /* \"#utility.yul\":16688:16781   */\n      tag_288\n      jump\t// in\n    tag_479:\n        /* \"#utility.yul\":16806:16808   */\n      0x20\n        /* \"#utility.yul\":16801:16804   */\n      dup3\n        /* \"#utility.yul\":16797:16809   */\n      add\n        /* \"#utility.yul\":16790:16809   */\n      swap1\n      pop\n        /* \"#utility.yul\":16449:16815   */\n      swap2\n      swap1\n      pop\n      jump\t// out\n        /* \"#utility.yul\":16821:17240   */\n    tag_149:\n        /* \"#utility.yul\":16987:16991   */\n      0x00\n        /* \"#utility.yul\":17025:17027   */\n      0x20\n        /* \"#utility.yul\":17014:17023   */\n      dup3\n        /* \"#utility.yul\":17010:17028   */\n      add\n        /* \"#utility.yul\":17002:17028   */\n      swap1\n      pop\n        /* \"#utility.yul\":17074:17083   */\n      dup2\n        /* \"#utility.yul\":17068:17072   */\n      dup2\n        /* \"#utility.yul\":17064:17084   */\n      sub\n        /* \"#utility.yul\":17060:17061   */\n      0x00\n        /* \"#utility.yul\":17049:17058   */\n      dup4\n        /* \"#utility.yul\":17045:17062   */\n      add\n        /* \"#utility.yul\":17038:17085   */\n      mstore\n        /* \"#utility.yul\":17102:17233   */\n      tag_481\n        /* \"#utility.yul\":17228:17232   */\n      dup2\n        /* \"#utility.yul\":17102:17233   */\n      tag_289\n      jump\t// in\n    tag_481:\n        /* \"#utility.yul\":17094:17233   */\n      swap1\n      pop\n        /* \"#utility.yul\":16821:17240   */\n      swap2\n      swap1\n      pop\n      jump\t// out\n        /* \"#utility.yul\":17246:17426   */\n    tag_290:\n        /* \"#utility.yul\":17294:17371   */\n      0x4e487b7100000000000000000000000000000000000000000000000000000000\n        /* \"#utility.yul\":17291:17292   */\n      0x00\n        /* \"#utility.yul\":17284:17372   */\n      mstore\n        /* \"#utility.yul\":17391:17395   */\n      0x22\n        /* \"#utility.yul\":17388:17389   */\n      0x04\n        /* \"#utility.yul\":17381:17396   */\n      mstore\n        /* \"#utility.yul\":17415:17419   */\n      0x24\n        /* \"#utility.yul\":17412:17413   */\n      0x00\n        /* \"#utility.yul\":17405:17420   */\n      revert\n        /* \"#utility.yul\":17432:17752   */\n    tag_157:\n        /* \"#utility.yul\":17476:17482   */\n      0x00\n        /* \"#utility.yul\":17513:17514   */\n      0x02\n        /* \"#utility.yul\":17507:17511   */\n      dup3\n        /* \"#utility.yul\":17503:17515   */\n      div\n        /* \"#utility.yul\":17493:17515   */\n      swap1\n      pop\n        /* \"#utility.yul\":17560:17561   */\n      0x01\n        /* \"#utility.yul\":17554:17558   */\n      dup3\n        /* \"#utility.yul\":17550:17562   */\n      and\n        /* \"#utility.yul\":17581:17599   */\n      dup1\n        /* \"#utility.yul\":17571:17652   */\n      tag_484\n      jumpi\n        /* \"#utility.yul\":17637:17641   */\n      0x7f\n        /* \"#utility.yul\":17629:17635   */\n      dup3\n        /* \"#utility.yul\":17625:17642   */\n      and\n        /* \"#utility.yul\":17615:17642   */\n      swap2\n      pop\n        /* \"#utility.yul\":17571:17652   */\n    tag_484:\n        /* \"#utility.yul\":17699:17701   */\n      0x20\n        /* \"#utility.yul\":17691:17697   */\n      dup3\n        /* \"#utility.yul\":17688:17702   */\n      lt\n        /* \"#utility.yul\":17668:17686   */\n      dup2\n        /* \"#utility.yul\":17665:17703   */\n      sub\n        /* \"#utility.yul\":17662:17746   */\n      tag_485\n      jumpi\n        /* \"#utility.yul\":17718:17736   */\n      tag_486\n      tag_290\n      jump\t// in\n    tag_486:\n        /* \"#utility.yul\":17662:17746   */\n    tag_485:\n        /* \"#utility.yul\":17483:17752   */\n      pop\n        /* \"#utility.yul\":17432:17752   */\n      swap2\n      swap1\n      pop\n      jump\t// out\n        /* \"#utility.yul\":17758:17921   */\n    tag_291:\n        /* \"#utility.yul\":17898:17913   */\n      0x696e76616c6964206f776e657200000000000000000000000000000000000000\n        /* \"#utility.yul\":17894:17895   */\n      0x00\n        /* \"#utility.yul\":17886:17892   */\n      dup3\n        /* \"#utility.yul\":17882:17896   */\n      add\n        /* \"#utility.yul\":17875:17914   */\n      mstore\n        /* \"#utility.yul\":17758:17921   */\n      pop\n      jump\t// out\n        /* \"#utility.yul\":17927:18293   */\n    tag_292:\n        /* \"#utility.yul\":18069:18072   */\n      0x00\n        /* \"#utility.yul\":18090:18157   */\n      tag_489\n        /* \"#utility.yul\":18154:18156   */\n      0x0d\n        /* \"#utility.yul\":18149:18152   */\n      dup4\n        /* \"#utility.yul\":18090:18157   */\n      tag_276\n      jump\t// in\n    tag_489:\n        /* \"#utility.yul\":18083:18157   */\n      swap2\n      pop\n        /* \"#utility.yul\":18166:18259   */\n      tag_490\n        /* \"#utility.yul\":18255:18258   */\n      dup3\n        /* \"#utility.yul\":18166:18259   */\n      tag_291\n      jump\t// in\n    tag_490:\n        /* \"#utility.yul\":18284:18286   */\n      0x20\n        /* \"#utility.yul\":18279:18282   */\n      dup3\n        /* \"#utility.yul\":18275:18287   */\n      add\n        /* \"#utility.yul\":18268:18287   */\n      swap1\n      pop\n        /* \"#utility.yul\":17927:18293   */\n      swap2\n      swap1\n      pop\n      jump\t// out\n        /* \"#utility.yul\":18299:18718   */\n    tag_165:\n        /* \"#utility.yul\":18465:18469   */\n      0x00\n        /* \"#utility.yul\":18503:18505   */\n      0x20\n        /* \"#utility.yul\":18492:18501   */\n      dup3\n        /* \"#utility.yul\":18488:18506   */\n      add\n        /* \"#utility.yul\":18480:18506   */\n      swap1\n      pop\n        /* \"#utility.yul\":18552:18561   */\n      dup2\n        /* \"#utility.yul\":18546:18550   */\n      dup2\n        /* \"#utility.yul\":18542:18562   */\n      sub\n        /* \"#utility.yul\":18538:18539   */\n      0x00\n        /* \"#utility.yul\":18527:18536   */\n      dup4\n        /* \"#utility.yul\":18523:18540   */\n      add\n        /* \"#utility.yul\":18516:18563   */\n      mstore\n        /* \"#utility.yul\":18580:18711   */\n      tag_492\n        /* \"#utility.yul\":18706:18710   */\n      dup2\n        /* \"#utility.yul\":18580:18711   */\n      tag_292\n      jump\t// in\n    tag_492:\n        /* \"#utility.yul\":18572:18711   */\n      swap1\n      pop\n        /* \"#utility.yul\":18299:18718   */\n      swap2\n      swap1\n      pop\n      jump\t// out\n        /* \"#utility.yul\":18724:18894   */\n    tag_293:\n        /* \"#utility.yul\":18864:18886   */\n      0x6f776e657220616c726561647920657869737473000000000000000000000000\n        /* \"#utility.yul\":18860:18861   */\n      0x00\n        /* \"#utility.yul\":18852:18858   */\n      dup3\n        /* \"#utility.yul\":18848:18862   */\n      add\n        /* \"#utility.yul\":18841:18887   */\n      mstore\n        /* \"#utility.yul\":18724:18894   */\n      pop\n      jump\t// out\n        /* \"#utility.yul\":18900:19266   */\n    tag_294:\n        /* \"#utility.yul\":19042:19045   */\n      0x00\n        /* \"#utility.yul\":19063:19130   */\n      tag_495\n        /* \"#utility.yul\":19127:19129   */\n      0x14\n        /* \"#utility.yul\":19122:19125   */\n      dup4\n        /* \"#utility.yul\":19063:19130   */\n      tag_276\n      jump\t// in\n    tag_495:\n        /* \"#utility.yul\":19056:19130   */\n      swap2\n      pop\n        /* \"#utility.yul\":19139:19232   */\n      tag_496\n        /* \"#utility.yul\":19228:19231   */\n      dup3\n        /* \"#utility.yul\":19139:19232   */\n      tag_293\n      jump\t// in\n    tag_496:\n        /* \"#utility.yul\":19257:19259   */\n      0x20\n        /* \"#utility.yul\":19252:19255   */\n      dup3\n        /* \"#utility.yul\":19248:19260   */\n      add\n        /* \"#utility.yul\":19241:19260   */\n      swap1\n      pop\n        /* \"#utility.yul\":18900:19266   */\n      swap2\n      swap1\n      pop\n      jump\t// out\n        /* \"#utility.yul\":19272:19691   */\n    tag_168:\n        /* \"#utility.yul\":19438:19442   */\n      0x00\n        /* \"#utility.yul\":19476:19478   */\n      0x20\n        /* \"#utility.yul\":19465:19474   */\n      dup3\n        /* \"#utility.yul\":19461:19479   */\n      add\n        /* \"#utility.yul\":19453:19479   */\n      swap1\n      pop\n        /* \"#utility.yul\":19525:19534   */\n      dup2\n        /* \"#utility.yul\":19519:19523   */\n      dup2\n        /* \"#utility.yul\":19515:19535   */\n      sub\n        /* \"#utility.yul\":19511:19512   */\n      0x00\n        /* \"#utility.yul\":19500:19509   */\n      dup4\n        /* \"#utility.yul\":19496:19513   */\n      add\n        /* \"#utility.yul\":19489:19536   */\n      mstore\n        /* \"#utility.yul\":19553:19684   */\n      tag_498\n        /* \"#utility.yul\":19679:19683   */\n      dup2\n        /* \"#utility.yul\":19553:19684   */\n      tag_294\n      jump\t// in\n    tag_498:\n        /* \"#utility.yul\":19545:19684   */\n      swap1\n      pop\n        /* \"#utility.yul\":19272:19691   */\n      swap2\n      swap1\n      pop\n      jump\t// out\n        /* \"#utility.yul\":19697:19865   */\n    tag_295:\n        /* \"#utility.yul\":19837:19857   */\n      0x6d6178206f776e65727320726561636865640000000000000000000000000000\n        /* \"#utility.yul\":19833:19834   */\n      0x00\n        /* \"#utility.yul\":19825:19831   */\n      dup3\n        /* \"#utility.yul\":19821:19835   */\n      add\n        /* \"#utility.yul\":19814:19858   */\n      mstore\n        /* \"#utility.yul\":19697:19865   */\n      pop\n      jump\t// out\n        /* \"#utility.yul\":19871:20237   */\n    tag_296:\n        /* \"#utility.yul\":20013:20016   */\n      0x00\n        /* \"#utility.yul\":20034:20101   */\n      tag_501\n        /* \"#utility.yul\":20098:20100   */\n      0x12\n        /* \"#utility.yul\":20093:20096   */\n      dup4\n        /* \"#utility.yul\":20034:20101   */\n      tag_276\n      jump\t// in\n    tag_501:\n        /* \"#utility.yul\":20027:20101   */\n      swap2\n      pop\n        /* \"#utility.yul\":20110:20203   */\n      tag_502\n        /* \"#utility.yul\":20199:20202   */\n      dup3\n        /* \"#utility.yul\":20110:20203   */\n      tag_295\n      jump\t// in\n    tag_502:\n        /* \"#utility.yul\":20228:20230   */\n      0x20\n        /* \"#utility.yul\":20223:20226   */\n      dup3\n        /* \"#utility.yul\":20219:20231   */\n      add\n        /* \"#utility.yul\":20212:20231   */\n      swap1\n      pop\n        /* \"#utility.yul\":19871:20237   */\n      swap2\n      swap1\n      pop\n      jump\t// out\n        /* \"#utility.yul\":20243:20662   */\n    tag_171:\n        /* \"#utility.yul\":20409:20413   */\n      0x00\n        /* \"#utility.yul\":20447:20449   */\n      0x20\n        /* \"#utility.yul\":20436:20445   */\n      dup3\n        /* \"#utility.yul\":20432:20450   */\n      add\n        /* \"#utility.yul\":20424:20450   */\n      swap1\n      pop\n        /* \"#utility.yul\":20496:20505   */\n      dup2\n        /* \"#utility.yul\":20490:20494   */\n      dup2\n        /* \"#utility.yul\":20486:20506   */\n      sub\n        /* \"#utility.yul\":20482:20483   */\n      0x00\n        /* \"#utility.yul\":20471:20480   */\n      dup4\n        /* \"#utility.yul\":20467:20484   */\n      add\n        /* \"#utility.yul\":20460:20507   */\n      mstore\n        /* \"#utility.yul\":20524:20655   */\n      tag_504\n        /* \"#utility.yul\":20650:20654   */\n      dup2\n        /* \"#utility.yul\":20524:20655   */\n      tag_296\n      jump\t// in\n    tag_504:\n        /* \"#utility.yul\":20516:20655   */\n      swap1\n      pop\n        /* \"#utility.yul\":20243:20662   */\n      swap2\n      swap1\n      pop\n      jump\t// out\n        /* \"#utility.yul\":20668:20838   */\n    tag_297:\n        /* \"#utility.yul\":20808:20830   */\n      0x747820616c726561647920636f6e6669726d6564000000000000000000000000\n        /* \"#utility.yul\":20804:20805   */\n      0x00\n        /* \"#utility.yul\":20796:20802   */\n      dup3\n        /* \"#utility.yul\":20792:20806   */\n      add\n        /* \"#utility.yul\":20785:20831   */\n      mstore\n        /* \"#utility.yul\":20668:20838   */\n      pop\n      jump\t// out\n        /* \"#utility.yul\":20844:21210   */\n    tag_298:\n        /* \"#utility.yul\":20986:20989   */\n      0x00\n        /* \"#utility.yul\":21007:21074   */\n      tag_507\n        /* \"#utility.yul\":21071:21073   */\n      0x14\n        /* \"#utility.yul\":21066:21069   */\n      dup4\n        /* \"#utility.yul\":21007:21074   */\n      tag_276\n      jump\t// in\n    tag_507:\n        /* \"#utility.yul\":21000:21074   */\n      swap2\n      pop\n        /* \"#utility.yul\":21083:21176   */\n      tag_508\n        /* \"#utility.yul\":21172:21175   */\n      dup3\n        /* \"#utility.yul\":21083:21176   */\n      tag_297\n      jump\t// in\n    tag_508:\n        /* \"#utility.yul\":21201:21203   */\n      0x20\n        /* \"#utility.yul\":21196:21199   */\n      dup3\n        /* \"#utility.yul\":21192:21204   */\n      add\n        /* \"#utility.yul\":21185:21204   */\n      swap1\n      pop\n        /* \"#utility.yul\":20844:21210   */\n      swap2\n      swap1\n      pop\n      jump\t// out\n        /* \"#utility.yul\":21216:21635   */\n    tag_198:\n        /* \"#utility.yul\":21382:21386   */\n      0x00\n        /* \"#utility.yul\":21420:21422   */\n      0x20\n        /* \"#utility.yul\":21409:21418   */\n      dup3\n        /* \"#utility.yul\":21405:21423   */\n      add\n        /* \"#utility.yul\":21397:21423   */\n      swap1\n      pop\n        /* \"#utility.yul\":21469:21478   */\n      dup2\n        /* \"#utility.yul\":21463:21467   */\n      dup2\n        /* \"#utility.yul\":21459:21479   */\n      sub\n        /* \"#utility.yul\":21455:21456   */\n      0x00\n        /* \"#utility.yul\":21444:21453   */\n      dup4\n        /* \"#utility.yul\":21440:21457   */\n      add\n        /* \"#utility.yul\":21433:21480   */\n      mstore\n        /* \"#utility.yul\":21497:21628   */\n      tag_510\n        /* \"#utility.yul\":21623:21627   */\n      dup2\n        /* \"#utility.yul\":21497:21628   */\n      tag_298\n      jump\t// in\n    tag_510:\n        /* \"#utility.yul\":21489:21628   */\n      swap1\n      pop\n        /* \"#utility.yul\":21216:21635   */\n      swap2\n      swap1\n      pop\n      jump\t// out\n        /* \"#utility.yul\":21641:21832   */\n    tag_204:\n        /* \"#utility.yul\":21681:21684   */\n      0x00\n        /* \"#utility.yul\":21700:21720   */\n      tag_512\n        /* \"#utility.yul\":21718:21719   */\n      dup3\n        /* \"#utility.yul\":21700:21720   */\n      tag_241\n      jump\t// in\n    tag_512:\n        /* \"#utility.yul\":21695:21720   */\n      swap2\n      pop\n        /* \"#utility.yul\":21734:21754   */\n      tag_513\n        /* \"#utility.yul\":21752:21753   */\n      dup4\n        /* \"#utility.yul\":21734:21754   */\n      tag_241\n      jump\t// in\n    tag_513:\n        /* \"#utility.yul\":21729:21754   */\n      swap3\n      pop\n        /* \"#utility.yul\":21777:21778   */\n      dup3\n        /* \"#utility.yul\":21774:21775   */\n      dup3\n        /* \"#utility.yul\":21770:21779   */\n      add\n        /* \"#utility.yul\":21763:21779   */\n      swap1\n      pop\n        /* \"#utility.yul\":21798:21801   */\n      dup1\n        /* \"#utility.yul\":21795:21796   */\n      dup3\n        /* \"#utility.yul\":21792:21802   */\n      gt\n        /* \"#utility.yul\":21789:21825   */\n      iszero\n      tag_514\n      jumpi\n        /* \"#utility.yul\":21805:21823   */\n      tag_515\n      tag_281\n      jump\t// in\n    tag_515:\n        /* \"#utility.yul\":21789:21825   */\n    tag_514:\n        /* \"#utility.yul\":21641:21832   */\n      swap3\n      swap2\n      pop\n      pop\n      jump\t// out\n        /* \"#utility.yul\":21838:21978   */\n    tag_299:\n        /* \"#utility.yul\":21886:21890   */\n      0x00\n        /* \"#utility.yul\":21909:21912   */\n      dup2\n        /* \"#utility.yul\":21901:21912   */\n      swap1\n      pop\n        /* \"#utility.yul\":21932:21935   */\n      dup2\n        /* \"#utility.yul\":21929:21930   */\n      0x00\n        /* \"#utility.yul\":21922:21936   */\n      mstore\n        /* \"#utility.yul\":21966:21970   */\n      0x20\n        /* \"#utility.yul\":21963:21964   */\n      0x00\n        /* \"#utility.yul\":21953:21971   */\n      keccak256\n        /* \"#utility.yul\":21945:21971   */\n      swap1\n      pop\n        /* \"#utility.yul\":21838:21978   */\n      swap2\n      swap1\n      pop\n      jump\t// out\n        /* \"#utility.yul\":21984:22077   */\n    tag_300:\n        /* \"#utility.yul\":22021:22027   */\n      0x00\n        /* \"#utility.yul\":22068:22070   */\n      0x20\n        /* \"#utility.yul\":22063:22065   */\n      0x1f\n        /* \"#utility.yul\":22056:22061   */\n      dup4\n        /* \"#utility.yul\":22052:22066   */\n      add\n        /* \"#utility.yul\":22048:22071   */\n      div\n        /* \"#utility.yul\":22038:22071   */\n      swap1\n      pop\n        /* \"#utility.yul\":21984:22077   */\n      swap2\n      swap1\n      pop\n      jump\t// out\n        /* \"#utility.yul\":22083:22190   */\n    tag_301:\n        /* \"#utility.yul\":22127:22135   */\n      0x00\n        /* \"#utility.yul\":22177:22182   */\n      dup3\n        /* \"#utility.yul\":22171:22175   */\n      dup3\n        /* \"#utility.yul\":22167:22183   */\n      shl\n        /* \"#utility.yul\":22146:22183   */\n      swap1\n      pop\n        /* \"#utility.yul\":22083:22190   */\n      swap3\n      swap2\n      pop\n      pop\n      jump\t// out\n        /* \"#utility.yul\":22196:22589   */\n    tag_302:\n        /* \"#utility.yul\":22265:22271   */\n      0x00\n        /* \"#utility.yul\":22315:22316   */\n      0x08\n        /* \"#utility.yul\":22303:22313   */\n      dup4\n        /* \"#utility.yul\":22299:22317   */\n      mul\n        /* \"#utility.yul\":22338:22435   */\n      tag_520\n        /* \"#utility.yul\":22368:22434   */\n      0xffffffffffffffffffffffffffffffffffffffffffffffffffffffffffffffff\n        /* \"#utility.yul\":22357:22366   */\n      dup3\n        /* \"#utility.yul\":22338:22435   */\n      tag_301\n      jump\t// in\n    tag_520:\n        /* \"#utility.yul\":22456:22495   */\n      tag_521\n        /* \"#utility.yul\":22486:22494   */\n      dup7\n        /* \"#utility.yul\":22475:22484   */\n      dup4\n        /* \"#utility.yul\":22456:22495   */\n      tag_301\n      jump\t// in\n    tag_521:\n        /* \"#utility.yul\":22444:22495   */\n      swap6\n      pop\n        /* \"#utility.yul\":22528:22532   */\n      dup1\n        /* \"#utility.yul\":22524:22533   */\n      not\n        /* \"#utility.yul\":22517:22522   */\n      dup5\n        /* \"#utility.yul\":22513:22534   */\n      and\n        /* \"#utility.yul\":22504:22534   */\n      swap4\n      pop\n        /* \"#utility.yul\":22577:22581   */\n      dup1\n        /* \"#utility.yul\":22567:22575   */\n      dup7\n        /* \"#utility.yul\":22563:22582   */\n      and\n        /* \"#utility.yul\":22556:22561   */\n      dup5\n        /* \"#utility.yul\":22553:22583   */\n      or\n        /* \"#utility.yul\":22543:22583   */\n      swap3\n      pop\n        /* \"#utility.yul\":22272:22589   */\n      pop\n      pop\n        /* \"#utility.yul\":22196:22589   */\n      swap4\n      swap3\n      pop\n      pop\n      pop\n      jump\t// out\n        /* \"#utility.yul\":22595:22655   */\n    tag_303:\n        /* \"#utility.yul\":22623:22626   */\n      0x00\n        /* \"#utility.yul\":22644:22649   */\n      dup2\n        /* \"#utility.yul\":22637:22649   */\n      swap1\n      pop\n        /* \"#utility.yul\":22595:22655   */\n      swap2\n      swap1\n      pop\n      jump\t// out\n        /* \"#utility.yul\":22661:22803   */\n    tag_304:\n        /* \"#utility.yul\":22711:22720   */\n      0x00\n        /* \"#utility.yul\":22744:22797   */\n      tag_524\n        /* \"#utility.yul\":22762:22796   */\n      tag_525\n        /* \"#utility.yul\":22771:22795   */\n      tag_526\n        /* \"#utility.yul\":22789:22794   */\n      dup5\n        /* \"#utility.yul\":22771:22795   */\n      tag_241\n      jump\t// in\n    tag_526:\n        /* \"#utility.yul\":22762:22796   */\n      tag_303\n      jump\t// in\n    tag_525:\n        /* \"#utility.yul\":22744:22797   */\n      tag_241\n      jump\t// in\n    tag_524:\n        /* \"#utility.yul\":22731:22797   */\n      swap1\n      pop\n        /* \"#utility.yul\":22661:22803   */\n      swap2\n      swap1\n      pop\n      jump\t// out\n        /* \"#utility.yul\":22809:22884   */\n    tag_305:\n        /* \"#utility.yul\":22852:22855   */\n      0x00\n        /* \"#utility.yul\":22873:22878   */\n      dup2\n        /* \"#utility.yul\":22866:22878   */\n      swap1\n      pop\n        /* \"#utility.yul\":22809:22884   */\n      swap2\n      swap1\n      pop\n      jump\t// out\n        /* \"#utility.yul\":22890:23159   */\n    tag_306:\n        /* \"#utility.yul\":23000:23039   */\n      tag_529\n        /* \"#utility.yul\":23031:23038   */\n      dup4\n        /* \"#utility.yul\":23000:23039   */\n      tag_304\n      jump\t// in\n    tag_529:\n        /* \"#utility.yul\":23061:23152   */\n      tag_530\n        /* \"#utility.yul\":23110:23151   */\n      tag_531\n        /* \"#utility.yul\":23134:23150   */\n      dup3\n        /* \"#utility.yul\":23110:23151   */\n      tag_305\n      jump\t// in\n    tag_531:\n        /* \"#utility.yul\":23102:23108   */\n      dup5\n        /* \"#utility.yul\":23095:23099   */\n      dup5\n        /* \"#utility.yul\":23089:23100   */\n      sload\n        /* \"#utility.yul\":23061:23152   */\n      tag_302\n      jump\t// in\n    tag_530:\n        /* \"#utility.yul\":23055:23059   */\n      dup3\n        /* \"#utility.yul\":23048:23153   */\n      sstore\n        /* \"#utility.yul\":22966:23159   */\n      pop\n        /* \"#utility.yul\":22890:23159   */\n      pop\n      pop\n      pop\n      jump\t// out\n        /* \"#utility.yul\":23165:23238   */\n    tag_307:\n        /* \"#utility.yul\":23210:23213   */\n      0x00\n        /* \"#utility.yul\":23165:23238   */\n      swap1\n      jump\t// out\n        /* \"#utility.yul\":23244:23433   */\n    tag_308:\n        /* \"#utility.yul\":23321:23353   */\n      tag_534\n      tag_307\n      jump\t// in\n    tag_534:\n        /* \"#utility.yul\":23362:23427   */\n      tag_535\n        /* \"#utility.yul\":23420:23426   */\n      dup2\n        /* \"#utility.yul\":23412:23418   */\n      dup5\n        /* \"#utility.yul\":23406:23410   */\n      dup5\n        /* \"#utility.yul\":23362:23427   */\n      tag_306\n      jump\t// in\n    tag_535:\n        /* \"#utility.yul\":23297:23433   */\n      pop\n        /* \"#utility.yul\":23244:23433   */\n      pop\n      pop\n      jump\t// out\n        /* \"#utility.yul\":23439:23625   */\n    tag_309:\n        /* \"#utility.yul\":23499:23619   */\n    tag_537:\n        /* \"#utility.yul\":23516:23519   */\n      dup2\n        /* \"#utility.yul\":23509:23514   */\n      dup2\n        /* \"#utility.yul\":23506:23520   */\n      lt\n        /* \"#utility.yul\":23499:23619   */\n      iszero\n      tag_539\n      jumpi\n        /* \"#utility.yul\":23570:23609   */\n      tag_540\n        /* \"#utility.yul\":23607:23608   */\n      0x00\n        /* \"#utility.yul\":23600:23605   */\n      dup3\n        /* \"#utility.yul\":23570:23609   */\n      tag_308\n      jump\t// in\n    tag_540:\n        /* \"#utility.yul\":23543:23544   */\n      0x01\n        /* \"#utility.yul\":23536:23541   */\n      dup2\n        /* \"#utility.yul\":23532:23545   */\n      add\n        /* \"#utility.yul\":23523:23545   */\n      swap1\n      pop\n        /* \"#utility.yul\":23499:23619   */\n      jump(tag_537)\n    tag_539:\n        /* \"#utility.yul\":23439:23625   */\n      pop\n      pop\n      jump\t// out\n        /* \"#utility.yul\":23631:24172   */\n    tag_310:\n        /* \"#utility.yul\":23731:23733   */\n      0x1f\n        /* \"#utility.yul\":23726:23729   */\n      dup3\n        /* \"#utility.yul\":23723:23734   */\n      gt\n        /* \"#utility.yul\":23720:24165   */\n      iszero\n      tag_542\n      jumpi\n        /* \"#utility.yul\":23765:23802   */\n      tag_543\n        /* \"#utility.yul\":23796:23801   */\n      dup2\n        /* \"#utility.yul\":23765:23802   */\n      tag_299\n      jump\t// in\n    tag_543:\n        /* \"#utility.yul\":23848:23877   */\n      tag_544\n        /* \"#utility.yul\":23866:23876   */\n      dup5\n        /* \"#utility.yul\":23848:23877   */\n      tag_300\n      jump\t// in\n    tag_544:\n        /* \"#utility.yul\":23838:23846   */\n      dup2\n        /* \"#utility.yul\":23834:23878   */\n      add\n        /* \"#utility.yul\":24031:24033   */\n      0x20\n        /* \"#utility.yul\":24019:24029   */\n      dup6\n        /* \"#utility.yul\":24016:24034   */\n      lt\n        /* \"#utility.yul\":24013:24062   */\n      iszero\n      tag_545\n      jumpi\n        /* \"#utility.yul\":24052:24060   */\n      dup2\n        /* \"#utility.yul\":24037:24060   */\n      swap1\n      pop\n        /* \"#utility.yul\":24013:24062   */\n    tag_545:\n        /* \"#utility.yul\":24075:24155   */\n      tag_546\n        /* \"#utility.yul\":24131:24153   */\n      tag_547\n        /* \"#utility.yul\":24149:24152   */\n      dup6\n        /* \"#utility.yul\":24131:24153   */\n      tag_300\n      jump\t// in\n    tag_547:\n        /* \"#utility.yul\":24121:24129   */\n      dup4\n        /* \"#utility.yul\":24117:24154   */\n      add\n        /* \"#utility.yul\":24104:24115   */\n      dup3\n        /* \"#utility.yul\":24075:24155   */\n      tag_309\n      jump\t// in\n    tag_546:\n        /* \"#utility.yul\":23735:24165   */\n      pop\n      pop\n        /* \"#utility.yul\":23720:24165   */\n    tag_542:\n        /* \"#utility.yul\":23631:24172   */\n      pop\n      pop\n      pop\n      jump\t// out\n        /* \"#utility.yul\":24178:24295   */\n    tag_311:\n        /* \"#utility.yul\":24232:24240   */\n      0x00\n        /* \"#utility.yul\":24282:24287   */\n      dup3\n        /* \"#utility.yul\":24276:24280   */\n      dup3\n        /* \"#utility.yul\":24272:24288   */\n      shr\n        /* \"#utility.yul\":24251:24288   */\n      swap1\n      pop\n        /* \"#utility.yul\":24178:24295   */\n      swap3\n      swap2\n      pop\n      pop\n      jump\t// out\n        /* \"#utility.yul\":24301:24470   */\n    tag_312:\n        /* \"#utility.yul\":24345:24351   */\n      0x00\n        /* \"#utility.yul\":24378:24429   */\n      tag_550\n        /* \"#utility.yul\":24426:24427   */\n      0x00\n        /* \"#utility.yul\":24422:24428   */\n      not\n        /* \"#utility.yul\":24414:24419   */\n      dup5\n        /* \"#utility.yul\":24411:24412   */\n      0x08\n        /* \"#utility.yul\":24407:24420   */\n      mul\n        /* \"#utility.yul\":24378:24429   */\n      tag_311\n      jump\t// in\n    tag_550:\n        /* \"#utility.yul\":24374:24430   */\n      not\n        /* \"#utility.yul\":24459:24463   */\n      dup1\n        /* \"#utility.yul\":24453:24457   */\n      dup4\n        /* \"#utility.yul\":24449:24464   */\n      and\n        /* \"#utility.yul\":24439:24464   */\n      swap2\n      pop\n        /* \"#utility.yul\":24352:24470   */\n      pop\n        /* \"#utility.yul\":24301:24470   */\n      swap3\n      swap2\n      pop\n      pop\n      jump\t// out\n        /* \"#utility.yul\":24475:24770   */\n    tag_313:\n        /* \"#utility.yul\":24551:24555   */\n      0x00\n        /* \"#utility.yul\":24697:24726   */\n      tag_552\n        /* \"#utility.yul\":24722:24725   */\n      dup4\n        /* \"#utility.yul\":24716:24720   */\n      dup4\n        /* \"#utility.yul\":24697:24726   */\n      tag_312\n      jump\t// in\n    tag_552:\n        /* \"#utility.yul\":24689:24726   */\n      swap2\n      pop\n        /* \"#utility.yul\":24759:24762   */\n      dup3\n        /* \"#utility.yul\":24756:24757   */\n      0x02\n        /* \"#utility.yul\":24752:24763   */\n      mul\n        /* \"#utility.yul\":24746:24750   */\n      dup3\n        /* \"#utility.yul\":24743:24764   */\n      or\n        /* \"#utility.yul\":24735:24764   */\n      swap1\n      pop\n        /* \"#utility.yul\":24475:24770   */\n      swap3\n      swap2\n      pop\n      pop\n      jump\t// out\n        /* \"#utility.yul\":24775:26165   */\n    tag_211:\n        /* \"#utility.yul\":24890:24926   */\n      tag_554\n        /* \"#utility.yul\":24922:24925   */\n      dup3\n        /* \"#utility.yul\":24890:24926   */\n      tag_255\n      jump\t// in\n    tag_554:\n        /* \"#utility.yul\":24991:25009   */\n      0xffffffffffffffff\n        /* \"#utility.yul\":24983:24989   */\n      dup2\n        /* \"#utility.yul\":24980:25010   */\n      gt\n        /* \"#utility.yul\":24977:25033   */\n      iszero\n      tag_555\n      jumpi\n        /* \"#utility.yul\":25013:25031   */\n      tag_556\n      tag_269\n      jump\t// in\n    tag_556:\n        /* \"#utility.yul\":24977:25033   */\n    tag_555:\n        /* \"#utility.yul\":25057:25095   */\n      tag_557\n        /* \"#utility.yul\":25089:25093   */\n      dup3\n        /* \"#utility.yul\":25083:25094   */\n      sload\n        /* \"#utility.yul\":25057:25095   */\n      tag_157\n      jump\t// in\n    tag_557:\n        /* \"#utility.yul\":25142:25208   */\n      tag_558\n        /* \"#utility.yul\":25201:25207   */\n      dup3\n        /* \"#utility.yul\":25193:25199   */\n      dup3\n        /* \"#utility.yul\":25187:25191   */\n      dup6\n        /* \"#utility.yul\":25142:25208   */\n      tag_310\n      jump\t// in\n    tag_558:\n        /* \"#utility.yul\":25235:25236   */\n      0x00\n        /* \"#utility.yul\":25259:25263   */\n      0x20\n        /* \"#utility.yul\":25246:25263   */\n      swap1\n      pop\n        /* \"#utility.yul\":25291:25293   */\n      0x1f\n        /* \"#utility.yul\":25283:25289   */\n      dup4\n        /* \"#utility.yul\":25280:25294   */\n      gt\n        /* \"#utility.yul\":25308:25309   */\n      0x01\n        /* \"#utility.yul\":25303:25920   */\n      dup2\n      eq\n      tag_560\n      jumpi\n        /* \"#utility.yul\":25964:25965   */\n      0x00\n        /* \"#utility.yul\":25981:25987   */\n      dup5\n        /* \"#utility.yul\":25978:26055   */\n      iszero\n      tag_561\n      jumpi\n        /* \"#utility.yul\":26030:26039   */\n      dup3\n        /* \"#utility.yul\":26025:26028   */\n      dup8\n        /* \"#utility.yul\":26021:26040   */\n      add\n        /* \"#utility.yul\":26015:26041   */\n      mload\n        /* \"#utility.yul\":26006:26041   */\n      swap1\n      pop\n        /* \"#utility.yul\":25978:26055   */\n    tag_561:\n        /* \"#utility.yul\":26081:26148   */\n      tag_562\n        /* \"#utility.yul\":26141:26147   */\n      dup6\n        /* \"#utility.yul\":26134:26139   */\n      dup3\n        /* \"#utility.yul\":26081:26148   */\n      tag_313\n      jump\t// in\n    tag_562:\n        /* \"#utility.yul\":26075:26079   */\n      dup7\n        /* \"#utility.yul\":26068:26149   */\n      sstore\n        /* \"#utility.yul\":25937:26159   */\n      pop\n        /* \"#utility.yul\":25273:26159   */\n      jump(tag_559)\n        /* \"#utility.yul\":25303:25920   */\n    tag_560:\n        /* \"#utility.yul\":25355:25359   */\n      0x1f\n        /* \"#utility.yul\":25351:25360   */\n      not\n        /* \"#utility.yul\":25343:25349   */\n      dup5\n        /* \"#utility.yul\":25339:25361   */\n      and\n        /* \"#utility.yul\":25389:25425   */\n      tag_563\n        /* \"#utility.yul\":25420:25424   */\n      dup7\n        /* \"#utility.yul\":25389:25425   */\n      tag_299\n      jump\t// in\n    tag_563:\n        /* \"#utility.yul\":25447:25448   */\n      0x00\n        /* \"#utility.yul\":25461:25669   */\n    tag_564:\n        /* \"#utility.yul\":25475:25482   */\n      dup3\n        /* \"#utility.yul\":25472:25473   */\n      dup2\n        /* \"#utility.yul\":25469:25483   */\n      lt\n        /* \"#utility.yul\":25461:25669   */\n      iszero\n      tag_566\n      jumpi\n        /* \"#utility.yul\":25554:25563   */\n      dup5\n        /* \"#utility.yul\":25549:25552   */\n      dup10\n        /* \"#utility.yul\":25545:25564   */\n      add\n        /* \"#utility.yul\":25539:25565   */\n      mload\n        /* \"#utility.yul\":25531:25537   */\n      dup3\n        /* \"#utility.yul\":25524:25566   */\n      sstore\n        /* \"#utility.yul\":25605:25606   */\n      0x01\n        /* \"#utility.yul\":25597:25603   */\n      dup3\n        /* \"#utility.yul\":25593:25607   */\n      add\n        /* \"#utility.yul\":25583:25607   */\n      swap2\n      pop\n        /* \"#utility.yul\":25652:25654   */\n      0x20\n        /* \"#utility.yul\":25641:25650   */\n      dup6\n        /* \"#utility.yul\":25637:25655   */\n      add\n        /* \"#utility.yul\":25624:25655   */\n      swap5\n      pop\n        /* \"#utility.yul\":25498:25502   */\n      0x20\n        /* \"#utility.yul\":25495:25496   */\n      dup2\n        /* \"#utility.yul\":25491:25503   */\n      add\n        /* \"#utility.yul\":25486:25503   */\n      swap1\n      pop\n        /* \"#utility.yul\":25461:25669   */\n      jump(tag_564)\n    tag_566:\n        /* \"#utility.yul\":25697:25703   */\n      dup7\n        /* \"#utility.yul\":25688:25695   */\n      dup4\n        /* \"#utility.yul\":25685:25704   */\n      lt\n        /* \"#utility.yul\":25682:25861   */\n      iszero\n      tag_567\n      jumpi\n        /* \"#utility.yul\":25755:25764   */\n      dup5\n        /* \"#utility.yul\":25750:25753   */\n      dup10\n        /* \"#utility.yul\":25746:25765   */\n      add\n        /* \"#utility.yul\":25740:25766   */\n      mload\n        /* \"#utility.yul\":25798:25846   */\n      tag_568\n        /* \"#utility.yul\":25840:25844   */\n      0x1f\n        /* \"#utility.yul\":25832:25838   */\n      dup10\n        /* \"#utility.yul\":25828:25845   */\n      and\n        /* \"#utility.yul\":25817:25826   */\n      dup3\n        /* \"#utility.yul\":25798:25846   */\n      tag_312\n      jump\t// in\n    tag_568:\n        /* \"#utility.yul\":25790:25796   */\n      dup4\n        /* \"#utility.yul\":25783:25847   */\n      sstore\n        /* \"#utility.yul\":25705:25861   */\n      pop\n        /* \"#utility.yul\":25682:25861   */\n    tag_567:\n        /* \"#utility.yul\":25907:25908   */\n      0x01\n        /* \"#utility.yul\":25903:25904   */\n      0x02\n        /* \"#utility.yul\":25895:25901   */\n      dup9\n        /* \"#utility.yul\":25891:25905   */\n      mul\n        /* \"#utility.yul\":25887:25909   */\n      add\n        /* \"#utility.yul\":25881:25885   */\n      dup9\n        /* \"#utility.yul\":25874:25910   */\n      sstore\n        /* \"#utility.yul\":25310:25920   */\n      pop\n      pop\n      pop\n        /* \"#utility.yul\":25273:26159   */\n    tag_559:\n      pop\n        /* \"#utility.yul\":24865:26165   */\n      pop\n      pop\n      pop\n        /* \"#utility.yul\":24775:26165   */\n      pop\n      pop\n      jump\t// out\n        /* \"#utility.yul\":26171:26590   */\n    tag_213:\n        /* \"#utility.yul\":26310:26314   */\n      0x00\n        /* \"#utility.yul\":26348:26350   */\n      0x40\n        /* \"#utility.yul\":26337:26346   */\n      dup3\n        /* \"#utility.yul\":26333:26351   */\n      add\n        /* \"#utility.yul\":26325:26351   */\n      swap1\n      pop\n        /* \"#utility.yul\":26361:26432   */\n      tag_570\n        /* \"#utility.yul\":26429:26430   */\n      0x00\n        /* \"#utility.yul\":26418:26427   */\n      dup4\n        /* \"#utility.yul\":26414:26431   */\n      add\n        /* \"#utility.yul\":26405:26411   */\n      dup6\n        /* \"#utility.yul\":26361:26432   */\n      tag_242\n      jump\t// in\n    tag_570:\n        /* \"#utility.yul\":26479:26488   */\n      dup2\n        /* \"#utility.yul\":26473:26477   */\n      dup2\n        /* \"#utility.yul\":26469:26489   */\n      sub\n        /* \"#utility.yul\":26464:26466   */\n      0x20\n        /* \"#utility.yul\":26453:26462   */\n      dup4\n        /* \"#utility.yul\":26449:26467   */\n      add\n        /* \"#utility.yul\":26442:26490   */\n      mstore\n        /* \"#utility.yul\":26507:26583   */\n      tag_571\n        /* \"#utility.yul\":26578:26582   */\n      dup2\n        /* \"#utility.yul\":26569:26575   */\n      dup5\n        /* \"#utility.yul\":26507:26583   */\n      tag_259\n      jump\t// in\n    tag_571:\n        /* \"#utility.yul\":26499:26583   */\n      swap1\n      pop\n        /* \"#utility.yul\":26171:26590   */\n      swap4\n      swap3\n      pop\n      pop\n      pop\n      jump\t// out\n        /* \"#utility.yul\":26596:26763   */\n    tag_314:\n        /* \"#utility.yul\":26736:26755   */\n      0x63616e6e6f742065786563757465207478000000000000000000000000000000\n        /* \"#utility.yul\":26732:26733   */\n      0x00\n        /* \"#utility.yul\":26724:26730   */\n      dup3\n        /* \"#utility.yul\":26720:26734   */\n      add\n        /* \"#utility.yul\":26713:26756   */\n      mstore\n        /* \"#utility.yul\":26596:26763   */\n      pop\n      jump\t// out\n        /* \"#utility.yul\":26769:27135   */\n    tag_315:\n        /* \"#utility.yul\":26911:26914   */\n      0x00\n        /* \"#utility.yul\":26932:26999   */\n      tag_574\n        /* \"#utility.yul\":26996:26998   */\n      0x11\n        /* \"#utility.yul\":26991:26994   */\n      dup4\n        /* \"#utility.yul\":26932:26999   */\n      tag_276\n      jump\t// in\n    tag_574:\n        /* \"#utility.yul\":26925:26999   */\n      swap2\n      pop\n        /* \"#utility.yul\":27008:27101   */\n      tag_575\n        /* \"#utility.yul\":27097:27100   */\n      dup3\n        /* \"#utility.yul\":27008:27101   */\n      tag_314\n      jump\t// in\n    tag_575:\n        /* \"#utility.yul\":27126:27128   */\n      0x20\n        /* \"#utility.yul\":27121:27124   */\n      dup3\n        /* \"#utility.yul\":27117:27129   */\n      add\n        /* \"#utility.yul\":27110:27129   */\n      swap1\n      pop\n        /* \"#utility.yul\":26769:27135   */\n      swap2\n      swap1\n      pop\n      jump\t// out\n        /* \"#utility.yul\":27141:27560   */\n    tag_232:\n        /* \"#utility.yul\":27307:27311   */\n      0x00\n        /* \"#utility.yul\":27345:27347   */\n      0x20\n        /* \"#utility.yul\":27334:27343   */\n      dup3\n        /* \"#utility.yul\":27330:27348   */\n      add\n        /* \"#utility.yul\":27322:27348   */\n      swap1\n      pop\n        /* \"#utility.yul\":27394:27403   */\n      dup2\n        /* \"#utility.yul\":27388:27392   */\n      dup2\n        /* \"#utility.yul\":27384:27404   */\n      sub\n        /* \"#utility.yul\":27380:27381   */\n      0x00\n        /* \"#utility.yul\":27369:27378   */\n      dup4\n        /* \"#utility.yul\":27365:27382   */\n      add\n        /* \"#utility.yul\":27358:27405   */\n      mstore\n        /* \"#utility.yul\":27422:27553   */\n      tag_577\n        /* \"#utility.yul\":27548:27552   */\n      dup2\n        /* \"#utility.yul\":27422:27553   */\n      tag_315\n      jump\t// in\n    tag_577:\n        /* \"#utility.yul\":27414:27553   */\n      swap1\n      pop\n        /* \"#utility.yul\":27141:27560   */\n      swap2\n      swap1\n      pop\n      jump\t// out\n        /* \"#utility.yul\":27566:27713   */\n    tag_316:\n        /* \"#utility.yul\":27667:27678   */\n      0x00\n        /* \"#utility.yul\":27704:27707   */\n      dup2\n        /* \"#utility.yul\":27689:27707   */\n      swap1\n      pop\n        /* \"#utility.yul\":27566:27713   */\n      swap3\n      swap2\n      pop\n      pop\n      jump\t// out\n        /* \"#utility.yul\":27741:28611   */\n    tag_317:\n        /* \"#utility.yul\":27842:27845   */\n      0x00\n        /* \"#utility.yul\":27879:27884   */\n      dup2\n        /* \"#utility.yul\":27873:27885   */\n      sload\n        /* \"#utility.yul\":27908:27944   */\n      tag_580\n        /* \"#utility.yul\":27934:27943   */\n      dup2\n        /* \"#utility.yul\":27908:27944   */\n      tag_157\n      jump\t// in\n    tag_580:\n        /* \"#utility.yul\":27960:28048   */\n      tag_581\n        /* \"#utility.yul\":28041:28047   */\n      dup2\n        /* \"#utility.yul\":28036:28039   */\n      dup7\n        /* \"#utility.yul\":27960:28048   */\n      tag_316\n      jump\t// in\n    tag_581:\n        /* \"#utility.yul\":27953:28048   */\n      swap5\n      pop\n        /* \"#utility.yul\":28079:28080   */\n      0x01\n        /* \"#utility.yul\":28068:28077   */\n      dup3\n        /* \"#utility.yul\":28064:28081   */\n      and\n        /* \"#utility.yul\":28095:28096   */\n      0x00\n        /* \"#utility.yul\":28090:28256   */\n      dup2\n      eq\n      tag_583\n      jumpi\n        /* \"#utility.yul\":28270:28271   */\n      0x01\n        /* \"#utility.yul\":28265:28605   */\n      dup2\n      eq\n      tag_584\n      jumpi\n        /* \"#utility.yul\":28057:28605   */\n      jump(tag_582)\n        /* \"#utility.yul\":28090:28256   */\n    tag_583:\n        /* \"#utility.yul\":28174:28178   */\n      0xff\n        /* \"#utility.yul\":28170:28179   */\n      not\n        /* \"#utility.yul\":28159:28168   */\n      dup4\n        /* \"#utility.yul\":28155:28180   */\n      and\n        /* \"#utility.yul\":28150:28153   */\n      dup7\n        /* \"#utility.yul\":28143:28181   */\n      mstore\n        /* \"#utility.yul\":28236:28242   */\n      dup2\n        /* \"#utility.yul\":28229:28243   */\n      iszero\n        /* \"#utility.yul\":28222:28244   */\n      iszero\n        /* \"#utility.yul\":28214:28220   */\n      dup3\n        /* \"#utility.yul\":28210:28245   */\n      mul\n        /* \"#utility.yul\":28205:28208   */\n      dup7\n        /* \"#utility.yul\":28201:28246   */\n      add\n        /* \"#utility.yul\":28194:28246   */\n      swap4\n      pop\n        /* \"#utility.yul\":28090:28256   */\n      jump(tag_582)\n        /* \"#utility.yul\":28265:28605   */\n    tag_584:\n        /* \"#utility.yul\":28332:28369   */\n      tag_585\n        /* \"#utility.yul\":28363:28368   */\n      dup6\n        /* \"#utility.yul\":28332:28369   */\n      tag_299\n      jump\t// in\n    tag_585:\n        /* \"#utility.yul\":28391:28392   */\n      0x00\n        /* \"#utility.yul\":28405:28559   */\n    tag_586:\n        /* \"#utility.yul\":28419:28425   */\n      dup4\n        /* \"#utility.yul\":28416:28417   */\n      dup2\n        /* \"#utility.yul\":28413:28426   */\n      lt\n        /* \"#utility.yul\":28405:28559   */\n      iszero\n      tag_588\n      jumpi\n        /* \"#utility.yul\":28493:28500   */\n      dup2\n        /* \"#utility.yul\":28487:28501   */\n      sload\n        /* \"#utility.yul\":28483:28484   */\n      dup2\n        /* \"#utility.yul\":28478:28481   */\n      dup10\n        /* \"#utility.yul\":28474:28485   */\n      add\n        /* \"#utility.yul\":28467:28502   */\n      mstore\n        /* \"#utility.yul\":28543:28544   */\n      0x01\n        /* \"#utility.yul\":28534:28541   */\n      dup3\n        /* \"#utility.yul\":28530:28545   */\n      add\n        /* \"#utility.yul\":28519:28545   */\n      swap2\n      pop\n        /* \"#utility.yul\":28441:28445   */\n      0x20\n        /* \"#utility.yul\":28438:28439   */\n      dup2\n        /* \"#utility.yul\":28434:28446   */\n      add\n        /* \"#utility.yul\":28429:28446   */\n      swap1\n      pop\n        /* \"#utility.yul\":28405:28559   */\n      jump(tag_586)\n    tag_588:\n        /* \"#utility.yul\":28588:28594   */\n      dup4\n        /* \"#utility.yul\":28583:28586   */\n      dup9\n        /* \"#utility.yul\":28579:28595   */\n      add\n        /* \"#utility.yul\":28572:28595   */\n      swap6\n      pop\n        /* \"#utility.yul\":28272:28605   */\n      pop\n      pop\n        /* \"#utility.yul\":28057:28605   */\n    tag_582:\n      pop\n        /* \"#utility.yul\":27846:28611   */\n      pop\n      pop\n        /* \"#utility.yul\":27741:28611   */\n      swap3\n      swap2\n      pop\n      pop\n      jump\t// out\n        /* \"#utility.yul\":28617:28882   */\n    tag_234:\n        /* \"#utility.yul\":28744:28747   */\n      0x00\n        /* \"#utility.yul\":28766:28856   */\n      tag_590\n        /* \"#utility.yul\":28852:28855   */\n      dup3\n        /* \"#utility.yul\":28843:28849   */\n      dup5\n        /* \"#utility.yul\":28766:28856   */\n      tag_317\n      jump\t// in\n    tag_590:\n        /* \"#utility.yul\":28759:28856   */\n      swap2\n      pop\n        /* \"#utility.yul\":28873:28876   */\n      dup2\n        /* \"#utility.yul\":28866:28876   */\n      swap1\n      pop\n        /* \"#utility.yul\":28617:28882   */\n      swap3\n      swap2\n      pop\n      pop\n      jump\t// out\n        /* \"#utility.yul\":28888:29047   */\n    tag_318:\n        /* \"#utility.yul\":29028:29039   */\n      0x7478206661696c65640000000000000000000000000000000000000000000000\n        /* \"#utility.yul\":29024:29025   */\n      0x00\n        /* \"#utility.yul\":29016:29022   */\n      dup3\n        /* \"#utility.yul\":29012:29026   */\n      add\n        /* \"#utility.yul\":29005:29040   */\n      mstore\n        /* \"#utility.yul\":28888:29047   */\n      pop\n      jump\t// out\n        /* \"#utility.yul\":29053:29418   */\n    tag_319:\n        /* \"#utility.yul\":29195:29198   */\n      0x00\n        /* \"#utility.yul\":29216:29282   */\n      tag_593\n        /* \"#utility.yul\":29280:29281   */\n      0x09\n        /* \"#utility.yul\":29275:29278   */\n      dup4\n        /* \"#utility.yul\":29216:29282   */\n      tag_276\n      jump\t// in\n    tag_593:\n        /* \"#utility.yul\":29209:29282   */\n      swap2\n      pop\n        /* \"#utility.yul\":29291:29384   */\n      tag_594\n        /* \"#utility.yul\":29380:29383   */\n      dup3\n        /* \"#utility.yul\":29291:29384   */\n      tag_318\n      jump\t// in\n    tag_594:\n        /* \"#utility.yul\":29409:29411   */\n      0x20\n        /* \"#utility.yul\":29404:29407   */\n      dup3\n        /* \"#utility.yul\":29400:29412   */\n      add\n        /* \"#utility.yul\":29393:29412   */\n      swap1\n      pop\n        /* \"#utility.yul\":29053:29418   */\n      swap2\n      swap1\n      pop\n      jump\t// out\n        /* \"#utility.yul\":29424:29843   */\n    tag_240:\n        /* \"#utility.yul\":29590:29594   */\n      0x00\n        /* \"#utility.yul\":29628:29630   */\n      0x20\n        /* \"#utility.yul\":29617:29626   */\n      dup3\n        /* \"#utility.yul\":29613:29631   */\n      add\n        /* \"#utility.yul\":29605:29631   */\n      swap1\n      pop\n        /* \"#utility.yul\":29677:29686   */\n      dup2\n        /* \"#utility.yul\":29671:29675   */\n      dup2\n        /* \"#utility.yul\":29667:29687   */\n      sub\n        /* \"#utility.yul\":29663:29664   */\n      0x00\n        /* \"#utility.yul\":29652:29661   */\n      dup4\n        /* \"#utility.yul\":29648:29665   */\n      add\n        /* \"#utility.yul\":29641:29688   */\n      mstore\n        /* \"#utility.yul\":29705:29836   */\n      tag_596\n        /* \"#utility.yul\":29831:29835   */\n      dup2\n        /* \"#utility.yul\":29705:29836   */\n      tag_319\n      jump\t// in\n    tag_596:\n        /* \"#utility.yul\":29697:29836   */\n      swap1\n      pop\n        /* \"#utility.yul\":29424:29843   */\n      swap2\n      swap1\n      pop\n      jump\t// out\n\n    auxdata: 0xa2646970667358221220e5218c8881e23ef5375f7ff83bdb392d91a85aa497f6a99b3b22a56f65ed00c964736f6c63430008170033\n}\n",
				"bytecode": {
					"linkReferences": {},
					"object": "60806040526002805534801562000014575f80fd5b506040516200280e3803806200280e83398181016040528101906200003a9190620001ca565b5f73ffffffffffffffffffffffffffffffffffffffff168173ffffffffffffffffffffffffffffffffffffffff1603620000ab576040517f08c379a0000000000000000000000000000000000000000000000000000000008152600401620000a29062000258565b60405180910390fd5b6001805f8373ffffffffffffffffffffffffffffffffffffffff1673ffffffffffffffffffffffffffffffffffffffff1681526020019081526020015f205f6101000a81548160ff0219169083151502179055505f81908060018154018082558091505060019003905f5260205f20015f9091909190916101000a81548173ffffffffffffffffffffffffffffffffffffffff021916908373ffffffffffffffffffffffffffffffffffffffff1602179055505062000278565b5f80fd5b5f73ffffffffffffffffffffffffffffffffffffffff82169050919050565b5f620001948262000169565b9050919050565b620001a68162000188565b8114620001b1575f80fd5b50565b5f81519050620001c4816200019b565b92915050565b5f60208284031215620001e257620001e162000165565b5b5f620001f184828501620001b4565b91505092915050565b5f82825260208201905092915050565b7f696e76616c6964206f776e6572000000000000000000000000000000000000005f82015250565b5f62000240600d83620001fa565b91506200024d826200020a565b602082019050919050565b5f6020820190508181035f830152620002718162000232565b9050919050565b61258880620002865f395ff3fe6080604052600436106100eb575f3560e01c80637065cb4811610089578063c01a8c8411610058578063c01a8c8414610370578063c642747414610398578063d0549b85146103c0578063ee22610b146103ea57610142565b80637065cb48146102a257806380f59a65146102ca5780639ace38c214610306578063a0e67e2b1461034657610142565b806320ea8d86116100c557806320ea8d86146101d45780632e7700f0146101fc5780632f54bf6e1461022657806333ea3dc81461026257610142565b8063025e7c27146101465780630b8bb14614610182578063173825d9146101ac57610142565b36610142573373ffffffffffffffffffffffffffffffffffffffff167f90890809c654f11d6e72a28fa60149770a0d11ec6c92319d6ceb2bb0a4ea1a1534476040516101389291906116c9565b60405180910390a2005b5f80fd5b348015610151575f80fd5b5061016c6004803603810190610167919061172b565b610412565b6040516101799190611795565b60405180910390f35b34801561018d575f80fd5b5061019661044c565b6040516101a391906117ae565b60405180910390f35b3480156101b7575f80fd5b506101d260048036038101906101cd91906117f1565b610451565b005b3480156101df575f80fd5b506101fa60048036038101906101f5919061172b565b61072f565b005b348015610207575f80fd5b506102106109f4565b60405161021d91906117ae565b60405180910390f35b348015610231575f80fd5b5061024c600480360381019061024791906117f1565b610a00565b6040516102599190611836565b60405180910390f35b34801561026d575f80fd5b506102886004803603810190610283919061172b565b610a1d565b6040516102999594939291906118d9565b60405180910390f35b3480156102ad575f80fd5b506102c860048036038101906102c391906117f1565b610b26565b005b3480156102d5575f80fd5b506102f060048036038101906102eb9190611931565b610d5e565b6040516102fd9190611836565b60405180910390f35b348015610311575f80fd5b5061032c6004803603810190610327919061172b565b610d88565b60405161033d9594939291906118d9565b60405180910390f35b348015610351575f80fd5b5061035a610e7a565b6040516103679190611a26565b60405180910390f35b34801561037b575f80fd5b506103966004803603810190610391919061172b565b610f04565b005b3480156103a3575f80fd5b506103be60048036038101906103b99190611b72565b6111cd565b005b3480156103cb575f80fd5b506103d46113c3565b6040516103e191906117ae565b60405180910390f35b3480156103f5575f80fd5b50610410600480360381019061040b919061172b565b6113c9565b005b5f8181548110610420575f80fd5b905f5260205f20015f915054906101000a900473ffffffffffffffffffffffffffffffffffffffff1681565b600381565b60015f8273ffffffffffffffffffffffffffffffffffffffff1673ffffffffffffffffffffffffffffffffffffffff1681526020019081526020015f205f9054906101000a900460ff166104da576040517f08c379a00000000000000000000000000000000000000000000000000000000081526004016104d190611c38565b60405180910390fd5b60015f8054905011610521576040517f08c379a000000000000000000000000000000000000000000000000000000000815260040161051890611ca0565b60405180910390fd5b5f60015f8373ffffffffffffffffffffffffffffffffffffffff1673ffffffffffffffffffffffffffffffffffffffff1681526020019081526020015f205f6101000a81548160ff0219169083151502179055505f5b5f805490508110156106e8578173ffffffffffffffffffffffffffffffffffffffff165f82815481106105ad576105ac611cbe565b5b905f5260205f20015f9054906101000a900473ffffffffffffffffffffffffffffffffffffffff1673ffffffffffffffffffffffffffffffffffffffff16036106db575f60015f805490506106029190611d18565b8154811061061357610612611cbe565b5b905f5260205f20015f9054906101000a900473ffffffffffffffffffffffffffffffffffffffff165f828154811061064e5761064d611cbe565b5b905f5260205f20015f6101000a81548173ffffffffffffffffffffffffffffffffffffffff021916908373ffffffffffffffffffffffffffffffffffffffff1602179055505f8054806106a4576106a3611d4b565b5b600190038181905f5260205f20015f6101000a81549073ffffffffffffffffffffffffffffffffffffffff021916905590556106e8565b8080600101915050610577565b508073ffffffffffffffffffffffffffffffffffffffff167f58619076adf5bb0943d100ef88d52d7c3fd691b19d3a9071b555b651fbf418da60405160405180910390a250565b60015f3373ffffffffffffffffffffffffffffffffffffffff1673ffffffffffffffffffffffffffffffffffffffff1681526020019081526020015f205f9054906101000a900460ff166107b8576040517f08c379a00000000000000000000000000000000000000000000000000000000081526004016107af90611dc2565b60405180910390fd5b806004805490508110610800576040517f08c379a00000000000000000000000000000000000000000000000000000000081526004016107f790611e2a565b60405180910390fd5b816004818154811061081557610814611cbe565b5b905f5260205f2090600502016003015f9054906101000a900460ff1615610871576040517f08c379a000000000000000000000000000000000000000000000000000000000815260040161086890611e92565b60405180910390fd5b5f6004848154811061088657610885611cbe565b5b905f5260205f209060050201905060035f8581526020019081526020015f205f3373ffffffffffffffffffffffffffffffffffffffff1673ffffffffffffffffffffffffffffffffffffffff1681526020019081526020015f205f9054906101000a900460ff1661092c576040517f08c379a000000000000000000000000000000000000000000000000000000000815260040161092390611efa565b60405180910390fd5b6001816004015f8282546109409190611d18565b925050819055505f60035f8681526020019081526020015f205f3373ffffffffffffffffffffffffffffffffffffffff1673ffffffffffffffffffffffffffffffffffffffff1681526020019081526020015f205f6101000a81548160ff021916908315150217905550833373ffffffffffffffffffffffffffffffffffffffff167ff0dca620e2e81f7841d07bcc105e1704fb01475b278a9d4c236e1c62945edd5560405160405180910390a350505050565b5f600480549050905090565b6001602052805f5260405f205f915054906101000a900460ff1681565b5f8060605f805f60048781548110610a3857610a37611cbe565b5b905f5260205f2090600502019050805f015f9054906101000a900473ffffffffffffffffffffffffffffffffffffffff16816001015482600201836003015f9054906101000a900460ff168460040154828054610a9490611f45565b80601f0160208091040260200160405190810160405280929190818152602001828054610ac090611f45565b8015610b0b5780601f10610ae257610100808354040283529160200191610b0b565b820191905f5260205f20905b815481529060010190602001808311610aee57829003601f168201915b50505050509250955095509550955095505091939590929450565b5f73ffffffffffffffffffffffffffffffffffffffff168173ffffffffffffffffffffffffffffffffffffffff1603610b94576040517f08c379a0000000000000000000000000000000000000000000000000000000008152600401610b8b90611fbf565b60405180910390fd5b60015f8273ffffffffffffffffffffffffffffffffffffffff1673ffffffffffffffffffffffffffffffffffffffff1681526020019081526020015f205f9054906101000a900460ff1615610c1e576040517f08c379a0000000000000000000000000000000000000000000000000000000008152600401610c1590612027565b60405180910390fd5b60035f8054905010610c65576040517f08c379a0000000000000000000000000000000000000000000000000000000008152600401610c5c9061208f565b60405180910390fd5b6001805f8373ffffffffffffffffffffffffffffffffffffffff1673ffffffffffffffffffffffffffffffffffffffff1681526020019081526020015f205f6101000a81548160ff0219169083151502179055505f81908060018154018082558091505060019003905f5260205f20015f9091909190916101000a81548173ffffffffffffffffffffffffffffffffffffffff021916908373ffffffffffffffffffffffffffffffffffffffff1602179055508073ffffffffffffffffffffffffffffffffffffffff167f994a936646fe87ffe4f1e469d3d6aa417d6b855598397f323de5b449f765f0c360405160405180910390a250565b6003602052815f5260405f20602052805f5260405f205f915091509054906101000a900460ff1681565b60048181548110610d97575f80fd5b905f5260205f2090600502015f91509050805f015f9054906101000a900473ffffffffffffffffffffffffffffffffffffffff1690806001015490806002018054610de190611f45565b80601f0160208091040260200160405190810160405280929190818152602001828054610e0d90611f45565b8015610e585780601f10610e2f57610100808354040283529160200191610e58565b820191905f5260205f20905b815481529060010190602001808311610e3b57829003601f168201915b505050505090806003015f9054906101000a900460ff16908060040154905085565b60605f805480602002602001604051908101604052809291908181526020018280548015610efa57602002820191905f5260205f20905b815f9054906101000a900473ffffffffffffffffffffffffffffffffffffffff1673ffffffffffffffffffffffffffffffffffffffff1681526020019060010190808311610eb1575b5050505050905090565b60015f3373ffffffffffffffffffffffffffffffffffffffff1673ffffffffffffffffffffffffffffffffffffffff1681526020019081526020015f205f9054906101000a900460ff16610f8d576040517f08c379a0000000000000000000000000000000000000000000000000000000008152600401610f8490611dc2565b60405180910390fd5b806004805490508110610fd5576040517f08c379a0000000000000000000000000000000000000000000000000000000008152600401610fcc90611e2a565b60405180910390fd5b8160048181548110610fea57610fe9611cbe565b5b905f5260205f2090600502016003015f9054906101000a900460ff1615611046576040517f08c379a000000000000000000000000000000000000000000000000000000000815260040161103d90611e92565b60405180910390fd5b8260035f8281526020019081526020015f205f3373ffffffffffffffffffffffffffffffffffffffff1673ffffffffffffffffffffffffffffffffffffffff1681526020019081526020015f205f9054906101000a900460ff16156110e0576040517f08c379a00000000000000000000000000000000000000000000000000000000081526004016110d7906120f7565b60405180910390fd5b5f600485815481106110f5576110f4611cbe565b5b905f5260205f20906005020190506001816004015f8282546111179190612115565b92505081905550600160035f8781526020019081526020015f205f3373ffffffffffffffffffffffffffffffffffffffff1673ffffffffffffffffffffffffffffffffffffffff1681526020019081526020015f205f6101000a81548160ff021916908315150217905550843373ffffffffffffffffffffffffffffffffffffffff167f5cbe105e36805f7820e291f799d5794ff948af2a5f664e580382defb6339004160405160405180910390a35050505050565b60015f3373ffffffffffffffffffffffffffffffffffffffff1673ffffffffffffffffffffffffffffffffffffffff1681526020019081526020015f205f9054906101000a900460ff16611256576040517f08c379a000000000000000000000000000000000000000000000000000000000815260040161124d90611dc2565b60405180910390fd5b5f600480549050905060046040518060a001604052808673ffffffffffffffffffffffffffffffffffffffff1681526020018581526020018481526020015f151581526020015f815250908060018154018082558091505060019003905f5260205f2090600502015f909190919091505f820151815f015f6101000a81548173ffffffffffffffffffffffffffffffffffffffff021916908373ffffffffffffffffffffffffffffffffffffffff16021790555060208201518160010155604082015181600201908161132991906122e5565b506060820151816003015f6101000a81548160ff0219169083151502179055506080820151816004015550508373ffffffffffffffffffffffffffffffffffffffff16813373ffffffffffffffffffffffffffffffffffffffff167fd5a05bf70715ad82a09a756320284a1b54c9ff74cd0f8cce6219e79b563fe59d86866040516113b59291906123b4565b60405180910390a450505050565b60025481565b60015f3373ffffffffffffffffffffffffffffffffffffffff1673ffffffffffffffffffffffffffffffffffffffff1681526020019081526020015f205f9054906101000a900460ff16611452576040517f08c379a000000000000000000000000000000000000000000000000000000000815260040161144990611dc2565b60405180910390fd5b80600480549050811061149a576040517f08c379a000000000000000000000000000000000000000000000000000000000815260040161149190611e2a565b60405180910390fd5b81600481815481106114af576114ae611cbe565b5b905f5260205f2090600502016003015f9054906101000a900460ff161561150b576040517f08c379a000000000000000000000000000000000000000000000000000000000815260040161150290611e92565b60405180910390fd5b5f600484815481106115205761151f611cbe565b5b905f5260205f209060050201905060025481600401541015611577576040517f08c379a000000000000000000000000000000000000000000000000000000000815260040161156e9061242c565b60405180910390fd5b6001816003015f6101000a81548160ff0219169083151502179055505f815f015f9054906101000a900473ffffffffffffffffffffffffffffffffffffffff1673ffffffffffffffffffffffffffffffffffffffff168260010154836002016040516115e391906124d4565b5f6040518083038185875af1925050503d805f811461161d576040519150601f19603f3d011682016040523d82523d5f602084013e611622565b606091505b5050905080611666576040517f08c379a000000000000000000000000000000000000000000000000000000000815260040161165d90612534565b60405180910390fd5b843373ffffffffffffffffffffffffffffffffffffffff167f5445f318f4f5fcfb66592e68e0cc5822aa15664039bd5f0ffde24c5a8142b1ac60405160405180910390a35050505050565b5f819050919050565b6116c3816116b1565b82525050565b5f6040820190506116dc5f8301856116ba565b6116e960208301846116ba565b9392505050565b5f604051905090565b5f80fd5b5f80fd5b61170a816116b1565b8114611714575f80fd5b50565b5f8135905061172581611701565b92915050565b5f602082840312156117405761173f6116f9565b5b5f61174d84828501611717565b91505092915050565b5f73ffffffffffffffffffffffffffffffffffffffff82169050919050565b5f61177f82611756565b9050919050565b61178f81611775565b82525050565b5f6020820190506117a85f830184611786565b92915050565b5f6020820190506117c15f8301846116ba565b92915050565b6117d081611775565b81146117da575f80fd5b50565b5f813590506117eb816117c7565b92915050565b5f60208284031215611806576118056116f9565b5b5f611813848285016117dd565b91505092915050565b5f8115159050919050565b6118308161181c565b82525050565b5f6020820190506118495f830184611827565b92915050565b5f81519050919050565b5f82825260208201905092915050565b5f5b8381101561188657808201518184015260208101905061186b565b5f8484015250505050565b5f601f19601f8301169050919050565b5f6118ab8261184f565b6118b58185611859565b93506118c5818560208601611869565b6118ce81611891565b840191505092915050565b5f60a0820190506118ec5f830188611786565b6118f960208301876116ba565b818103604083015261190b81866118a1565b905061191a6060830185611827565b61192760808301846116ba565b9695505050505050565b5f8060408385031215611947576119466116f9565b5b5f61195485828601611717565b9250506020611965858286016117dd565b9150509250929050565b5f81519050919050565b5f82825260208201905092915050565b5f819050602082019050919050565b6119a181611775565b82525050565b5f6119b28383611998565b60208301905092915050565b5f602082019050919050565b5f6119d48261196f565b6119de8185611979565b93506119e983611989565b805f5b83811015611a19578151611a0088826119a7565b9750611a0b836119be565b9250506001810190506119ec565b5085935050505092915050565b5f6020820190508181035f830152611a3e81846119ca565b905092915050565b5f80fd5b5f80fd5b7f4e487b71000000000000000000000000000000000000000000000000000000005f52604160045260245ffd5b611a8482611891565b810181811067ffffffffffffffff82111715611aa357611aa2611a4e565b5b80604052505050565b5f611ab56116f0565b9050611ac18282611a7b565b919050565b5f67ffffffffffffffff821115611ae057611adf611a4e565b5b611ae982611891565b9050602081019050919050565b828183375f83830152505050565b5f611b16611b1184611ac6565b611aac565b905082815260208101848484011115611b3257611b31611a4a565b5b611b3d848285611af6565b509392505050565b5f82601f830112611b5957611b58611a46565b5b8135611b69848260208601611b04565b91505092915050565b5f805f60608486031215611b8957611b886116f9565b5b5f611b96868287016117dd565b9350506020611ba786828701611717565b925050604084013567ffffffffffffffff811115611bc857611bc76116fd565b5b611bd486828701611b45565b9150509250925092565b5f82825260208201905092915050565b7f6e6f7420616e206f776e657200000000000000000000000000000000000000005f82015250565b5f611c22600c83611bde565b9150611c2d82611bee565b602082019050919050565b5f6020820190508181035f830152611c4f81611c16565b9050919050565b7f63616e6e6f742072656d6f7665206c617374206f776e657200000000000000005f82015250565b5f611c8a601883611bde565b9150611c9582611c56565b602082019050919050565b5f6020820190508181035f830152611cb781611c7e565b9050919050565b7f4e487b71000000000000000000000000000000000000000000000000000000005f52603260045260245ffd5b7f4e487b71000000000000000000000000000000000000000000000000000000005f52601160045260245ffd5b5f611d22826116b1565b9150611d2d836116b1565b9250828203905081811115611d4557611d44611ceb565b5b92915050565b7f4e487b71000000000000000000000000000000000000000000000000000000005f52603160045260245ffd5b7f6e6f74206f776e657200000000000000000000000000000000000000000000005f82015250565b5f611dac600983611bde565b9150611db782611d78565b602082019050919050565b5f6020820190508181035f830152611dd981611da0565b9050919050565b7f747820646f6573206e6f742065786973740000000000000000000000000000005f82015250565b5f611e14601183611bde565b9150611e1f82611de0565b602082019050919050565b5f6020820190508181035f830152611e4181611e08565b9050919050565b7f747820616c7265616479206578656375746564000000000000000000000000005f82015250565b5f611e7c601383611bde565b9150611e8782611e48565b602082019050919050565b5f6020820190508181035f830152611ea981611e70565b9050919050565b7f7478206e6f7420636f6e6669726d6564000000000000000000000000000000005f82015250565b5f611ee4601083611bde565b9150611eef82611eb0565b602082019050919050565b5f6020820190508181035f830152611f1181611ed8565b9050919050565b7f4e487b71000000000000000000000000000000000000000000000000000000005f52602260045260245ffd5b5f6002820490506001821680611f5c57607f821691505b602082108103611f6f57611f6e611f18565b5b50919050565b7f696e76616c6964206f776e6572000000000000000000000000000000000000005f82015250565b5f611fa9600d83611bde565b9150611fb482611f75565b602082019050919050565b5f6020820190508181035f830152611fd681611f9d565b9050919050565b7f6f776e657220616c7265616479206578697374730000000000000000000000005f82015250565b5f612011601483611bde565b915061201c82611fdd565b602082019050919050565b5f6020820190508181035f83015261203e81612005565b9050919050565b7f6d6178206f776e657273207265616368656400000000000000000000000000005f82015250565b5f612079601283611bde565b915061208482612045565b602082019050919050565b5f6020820190508181035f8301526120a68161206d565b9050919050565b7f747820616c726561647920636f6e6669726d65640000000000000000000000005f82015250565b5f6120e1601483611bde565b91506120ec826120ad565b602082019050919050565b5f6020820190508181035f83015261210e816120d5565b9050919050565b5f61211f826116b1565b915061212a836116b1565b925082820190508082111561214257612141611ceb565b5b92915050565b5f819050815f5260205f209050919050565b5f6020601f8301049050919050565b5f82821b905092915050565b5f600883026121a47fffffffffffffffffffffffffffffffffffffffffffffffffffffffffffffffff82612169565b6121ae8683612169565b95508019841693508086168417925050509392505050565b5f819050919050565b5f6121e96121e46121df846116b1565b6121c6565b6116b1565b9050919050565b5f819050919050565b612202836121cf565b61221661220e826121f0565b848454612175565b825550505050565b5f90565b61222a61221e565b6122358184846121f9565b505050565b5b818110156122585761224d5f82612222565b60018101905061223b565b5050565b601f82111561229d5761226e81612148565b6122778461215a565b81016020851015612286578190505b61229a6122928561215a565b83018261223a565b50505b505050565b5f82821c905092915050565b5f6122bd5f19846008026122a2565b1980831691505092915050565b5f6122d583836122ae565b9150826002028217905092915050565b6122ee8261184f565b67ffffffffffffffff81111561230757612306611a4e565b5b6123118254611f45565b61231c82828561225c565b5f60209050601f83116001811461234d575f841561233b578287015190505b61234585826122ca565b8655506123ac565b601f19841661235b86612148565b5f5b828110156123825784890151825560018201915060208501945060208101905061235d565b8683101561239f578489015161239b601f8916826122ae565b8355505b6001600288020188555050505b505050505050565b5f6040820190506123c75f8301856116ba565b81810360208301526123d981846118a1565b90509392505050565b7f63616e6e6f7420657865637574652074780000000000000000000000000000005f82015250565b5f612416601183611bde565b9150612421826123e2565b602082019050919050565b5f6020820190508181035f8301526124438161240a565b9050919050565b5f81905092915050565b5f815461246081611f45565b61246a818661244a565b9450600182165f81146124845760018114612499576124cb565b60ff19831686528115158202860193506124cb565b6124a285612148565b5f5b838110156124c3578154818901526001820191506020810190506124a4565b838801955050505b50505092915050565b5f6124df8284612454565b915081905092915050565b7f7478206661696c656400000000000000000000000000000000000000000000005f82015250565b5f61251e600983611bde565b9150612529826124ea565b602082019050919050565b5f6020820190508181035f83015261254b81612512565b905091905056fea2646970667358221220e5218c8881e23ef5375f7ff83bdb392d91a85aa497f6a99b3b22a56f65ed00c964736f6c63430008170033",
					"opcodes": "PUSH1 0x80 PUSH1 0x40 MSTORE PUSH1 0x2 DUP1 SSTORE CALLVALUE DUP1 ISZERO PUSH3 0x14 JUMPI PUSH0 DUP1 REVERT JUMPDEST POP PUSH1 0x40 MLOAD PUSH3 0x280E CODESIZE SUB DUP1 PUSH3 0x280E DUP4 CODECOPY DUP2 DUP2 ADD PUSH1 0x40 MSTORE DUP2 ADD SWAP1 PUSH3 0x3A SWAP2 SWAP1 PUSH3 0x1CA JUMP JUMPDEST PUSH0 PUSH20 0xFFFFFFFFFFFFFFFFFFFFFFFFFFFFFFFFFFFFFFFF AND DUP2 PUSH20 0xFFFFFFFFFFFFFFFFFFFFFFFFFFFFFFFFFFFFFFFF AND SUB PUSH3 0xAB JUMPI PUSH1 0x40 MLOAD PUSH32 0x8C379A000000000000000000000000000000000000000000000000000000000 DUP2 MSTORE PUSH1 0x4 ADD PUSH3 0xA2 SWAP1 PUSH3 0x258 JUMP JUMPDEST PUSH1 0x40 MLOAD DUP1 SWAP2 SUB SWAP1 REVERT JUMPDEST PUSH1 0x1 DUP1 PUSH0 DUP4 PUSH20 0xFFFFFFFFFFFFFFFFFFFFFFFFFFFFFFFFFFFFFFFF AND PUSH20 0xFFFFFFFFFFFFFFFFFFFFFFFFFFFFFFFFFFFFFFFF AND DUP2 MSTORE PUSH1 0x20 ADD SWAP1 DUP2 MSTORE PUSH1 0x20 ADD PUSH0 KECCAK256 PUSH0 PUSH2 0x100 EXP DUP2 SLOAD DUP2 PUSH1 0xFF MUL NOT AND SWAP1 DUP4 ISZERO ISZERO MUL OR SWAP1 SSTORE POP PUSH0 DUP2 SWAP1 DUP1 PUSH1 0x1 DUP2 SLOAD ADD DUP1 DUP3 SSTORE DUP1 SWAP2 POP POP PUSH1 0x1 SWAP1 SUB SWAP1 PUSH0 MSTORE PUSH1 0x20 PUSH0 KECCAK256 ADD PUSH0 SWAP1 SWAP2 SWAP1 SWAP2 SWAP1 SWAP2 PUSH2 0x100 EXP DUP2 SLOAD DUP2 PUSH20 0xFFFFFFFFFFFFFFFFFFFFFFFFFFFFFFFFFFFFFFFF MUL NOT AND SWAP1 DUP4 PUSH20 0xFFFFFFFFFFFFFFFFFFFFFFFFFFFFFFFFFFFFFFFF AND MUL OR SWAP1 SSTORE POP POP PUSH3 0x278 JUMP JUMPDEST PUSH0 DUP1 REVERT JUMPDEST PUSH0 PUSH20 0xFFFFFFFFFFFFFFFFFFFFFFFFFFFFFFFFFFFFFFFF DUP3 AND SWAP1 POP SWAP2 SWAP1 POP JUMP JUMPDEST PUSH0 PUSH3 0x194 DUP3 PUSH3 0x169 JUMP JUMPDEST SWAP1 POP SWAP2 SWAP1 POP JUMP JUMPDEST PUSH3 0x1A6 DUP2 PUSH3 0x188 JUMP JUMPDEST DUP2 EQ PUSH3 0x1B1 JUMPI PUSH0 DUP1 REVERT JUMPDEST POP JUMP JUMPDEST PUSH0 DUP2 MLOAD SWAP1 POP PUSH3 0x1C4 DUP2 PUSH3 0x19B JUMP JUMPDEST SWAP3 SWAP2 POP POP JUMP JUMPDEST PUSH0 PUSH1 0x20 DUP3 DUP5 SUB SLT ISZERO PUSH3 0x1E2 JUMPI PUSH3 0x1E1 PUSH3 0x165 JUMP JUMPDEST JUMPDEST PUSH0 PUSH3 0x1F1 DUP5 DUP3 DUP6 ADD PUSH3 0x1B4 JUMP JUMPDEST SWAP2 POP POP SWAP3 SWAP2 POP POP JUMP JUMPDEST PUSH0 DUP3 DUP3 MSTORE PUSH1 0x20 DUP3 ADD SWAP1 POP SWAP3 SWAP2 POP POP JUMP JUMPDEST PUSH32 0x696E76616C6964206F776E657200000000000000000000000000000000000000 PUSH0 DUP3 ADD MSTORE POP JUMP JUMPDEST PUSH0 PUSH3 0x240 PUSH1 0xD DUP4 PUSH3 0x1FA JUMP JUMPDEST SWAP2 POP PUSH3 0x24D DUP3 PUSH3 0x20A JUMP JUMPDEST PUSH1 0x20 DUP3 ADD SWAP1 POP SWAP2 SWAP1 POP JUMP JUMPDEST PUSH0 PUSH1 0x20 DUP3 ADD SWAP1 POP DUP2 DUP2 SUB PUSH0 DUP4 ADD MSTORE PUSH3 0x271 DUP2 PUSH3 0x232 JUMP JUMPDEST SWAP1 POP SWAP2 SWAP1 POP JUMP JUMPDEST PUSH2 0x2588 DUP1 PUSH3 0x286 PUSH0 CODECOPY PUSH0 RETURN INVALID PUSH1 0x80 PUSH1 0x40 MSTORE PUSH1 0x4 CALLDATASIZE LT PUSH2 0xEB JUMPI PUSH0 CALLDATALOAD PUSH1 0xE0 SHR DUP1 PUSH4 0x7065CB48 GT PUSH2 0x89 JUMPI DUP1 PUSH4 0xC01A8C84 GT PUSH2 0x58 JUMPI DUP1 PUSH4 0xC01A8C84 EQ PUSH2 0x370 JUMPI DUP1 PUSH4 0xC6427474 EQ PUSH2 0x398 JUMPI DUP1 PUSH4 0xD0549B85 EQ PUSH2 0x3C0 JUMPI DUP1 PUSH4 0xEE22610B EQ PUSH2 0x3EA JUMPI PUSH2 0x142 JUMP JUMPDEST DUP1 PUSH4 0x7065CB48 EQ PUSH2 0x2A2 JUMPI DUP1 PUSH4 0x80F59A65 EQ PUSH2 0x2CA JUMPI DUP1 PUSH4 0x9ACE38C2 EQ PUSH2 0x306 JUMPI DUP1 PUSH4 0xA0E67E2B EQ PUSH2 0x346 JUMPI PUSH2 0x142 JUMP JUMPDEST DUP1 PUSH4 0x20EA8D86 GT PUSH2 0xC5 JUMPI DUP1 PUSH4 0x20EA8D86 EQ PUSH2 0x1D4 JUMPI DUP1 PUSH4 0x2E7700F0 EQ PUSH2 0x1FC JUMPI DUP1 PUSH4 0x2F54BF6E EQ PUSH2 0x226 JUMPI DUP1 PUSH4 0x33EA3DC8 EQ PUSH2 0x262 JUMPI PUSH2 0x142 JUMP JUMPDEST DUP1 PUSH4 0x25E7C27 EQ PUSH2 0x146 JUMPI DUP1 PUSH4 0xB8BB146 EQ PUSH2 0x182 JUMPI DUP1 PUSH4 0x173825D9 EQ PUSH2 0x1AC JUMPI PUSH2 0x142 JUMP JUMPDEST CALLDATASIZE PUSH2 0x142 JUMPI CALLER PUSH20 0xFFFFFFFFFFFFFFFFFFFFFFFFFFFFFFFFFFFFFFFF AND PUSH32 0x90890809C654F11D6E72A28FA60149770A0D11EC6C92319D6CEB2BB0A4EA1A15 CALLVALUE SELFBALANCE PUSH1 0x40 MLOAD PUSH2 0x138 SWAP3 SWAP2 SWAP1 PUSH2 0x16C9 JUMP JUMPDEST PUSH1 0x40 MLOAD DUP1 SWAP2 SUB SWAP1 LOG2 STOP JUMPDEST PUSH0 DUP1 REVERT JUMPDEST CALLVALUE DUP1 ISZERO PUSH2 0x151 JUMPI PUSH0 DUP1 REVERT JUMPDEST POP PUSH2 0x16C PUSH1 0x4 DUP1 CALLDATASIZE SUB DUP2 ADD SWAP1 PUSH2 0x167 SWAP2 SWAP1 PUSH2 0x172B JUMP JUMPDEST PUSH2 0x412 JUMP JUMPDEST PUSH1 0x40 MLOAD PUSH2 0x179 SWAP2 SWAP1 PUSH2 0x1795 JUMP JUMPDEST PUSH1 0x40 MLOAD DUP1 SWAP2 SUB SWAP1 RETURN JUMPDEST CALLVALUE DUP1 ISZERO PUSH2 0x18D JUMPI PUSH0 DUP1 REVERT JUMPDEST POP PUSH2 0x196 PUSH2 0x44C JUMP JUMPDEST PUSH1 0x40 MLOAD PUSH2 0x1A3 SWAP2 SWAP1 PUSH2 0x17AE JUMP JUMPDEST PUSH1 0x40 MLOAD DUP1 SWAP2 SUB SWAP1 RETURN JUMPDEST CALLVALUE DUP1 ISZERO PUSH2 0x1B7 JUMPI PUSH0 DUP1 REVERT JUMPDEST POP PUSH2 0x1D2 PUSH1 0x4 DUP1 CALLDATASIZE SUB DUP2 ADD SWAP1 PUSH2 0x1CD SWAP2 SWAP1 PUSH2 0x17F1 JUMP JUMPDEST PUSH2 0x451 JUMP JUMPDEST STOP JUMPDEST CALLVALUE DUP1 ISZERO PUSH2 0x1DF JUMPI PUSH0 DUP1 REVERT JUMPDEST POP PUSH2 0x1FA PUSH1 0x4 DUP1 CALLDATASIZE SUB DUP2 ADD SWAP1 PUSH2 0x1F5 SWAP2 SWAP1 PUSH2 0x172B JUMP JUMPDEST PUSH2 0x72F JUMP JUMPDEST STOP JUMPDEST CALLVALUE DUP1 ISZERO PUSH2 0x207 JUMPI PUSH0 DUP1 REVERT JUMPDEST POP PUSH2 0x210 PUSH2 0x9F4 JUMP JUMPDEST PUSH1 0x40 MLOAD PUSH2 0x21D SWAP2 SWAP1 PUSH2 0x17AE JUMP JUMPDEST PUSH1 0x40 MLOAD DUP1 SWAP2 SUB SWAP1 RETURN JUMPDEST CALLVALUE DUP1 ISZERO PUSH2 0x231 JUMPI PUSH0 DUP1 REVERT JUMPDEST POP PUSH2 0x24C PUSH1 0x4 DUP1 CALLDATASIZE SUB DUP2 ADD SWAP1 PUSH2 0x247 SWAP2 SWAP1 PUSH2 0x17F1 JUMP JUMPDEST PUSH2 0xA00 JUMP JUMPDEST PUSH1 0x40 MLOAD PUSH2 0x259 SWAP2 SWAP1 PUSH2 0x1836 JUMP JUMPDEST PUSH1 0x40 MLOAD DUP1 SWAP2 SUB SWAP1 RETURN JUMPDEST CALLVALUE DUP1 ISZERO PUSH2 0x26D JUMPI PUSH0 DUP1 REVERT JUMPDEST POP PUSH2 0x288 PUSH1 0x4 DUP1 CALLDATASIZE SUB DUP2 ADD SWAP1 PUSH2 0x283 SWAP2 SWAP1 PUSH2 0x172B JUMP JUMPDEST PUSH2 0xA1D JUMP JUMPDEST PUSH1 0x40 MLOAD PUSH2 0x299 SWAP6 SWAP5 SWAP4 SWAP3 SWAP2 SWAP1 PUSH2 0x18D9 JUMP JUMPDEST PUSH1 0x40 MLOAD DUP1 SWAP2 SUB SWAP1 RETURN JUMPDEST CALLVALUE DUP1 ISZERO PUSH2 0x2AD JUMPI PUSH0 DUP1 REVERT JUMPDEST POP PUSH2 0x2C8 PUSH1 0x4 DUP1 CALLDATASIZE SUB DUP2 ADD SWAP1 PUSH2 0x2C3 SWAP2 SWAP1 PUSH2 0x17F1 JUMP JUMPDEST PUSH2 0xB26 JUMP JUMPDEST STOP JUMPDEST CALLVALUE DUP1 ISZERO PUSH2 0x2D5 JUMPI PUSH0 DUP1 REVERT JUMPDEST POP PUSH2 0x2F0 PUSH1 0x4 DUP1 CALLDATASIZE SUB DUP2 ADD SWAP1 PUSH2 0x2EB SWAP2 SWAP1 PUSH2 0x1931 JUMP JUMPDEST PUSH2 0xD5E JUMP JUMPDEST PUSH1 0x40 MLOAD PUSH2 0x2FD SWAP2 SWAP1 PUSH2 0x1836 JUMP JUMPDEST PUSH1 0x40 MLOAD DUP1 SWAP2 SUB SWAP1 RETURN JUMPDEST CALLVALUE DUP1 ISZERO PUSH2 0x311 JUMPI PUSH0 DUP1 REVERT JUMPDEST POP PUSH2 0x32C PUSH1 0x4 DUP1 CALLDATASIZE SUB DUP2 ADD SWAP1 PUSH2 0x327 SWAP2 SWAP1 PUSH2 0x172B JUMP JUMPDEST PUSH2 0xD88 JUMP JUMPDEST PUSH1 0x40 MLOAD PUSH2 0x33D SWAP6 SWAP5 SWAP4 SWAP3 SWAP2 SWAP1 PUSH2 0x18D9 JUMP JUMPDEST PUSH1 0x40 MLOAD DUP1 SWAP2 SUB SWAP1 RETURN JUMPDEST CALLVALUE DUP1 ISZERO PUSH2 0x351 JUMPI PUSH0 DUP1 REVERT JUMPDEST POP PUSH2 0x35A PUSH2 0xE7A JUMP JUMPDEST PUSH1 0x40 MLOAD PUSH2 0x367 SWAP2 SWAP1 PUSH2 0x1A26 JUMP JUMPDEST PUSH1 0x40 MLOAD DUP1 SWAP2 SUB SWAP1 RETURN JUMPDEST CALLVALUE DUP1 ISZERO PUSH2 0x37B JUMPI PUSH0 DUP1 REVERT JUMPDEST POP PUSH2 0x396 PUSH1 0x4 DUP1 CALLDATASIZE SUB DUP2 ADD SWAP1 PUSH2 0x391 SWAP2 SWAP1 PUSH2 0x172B JUMP JUMPDEST PUSH2 0xF04 JUMP JUMPDEST STOP JUMPDEST CALLVALUE DUP1 ISZERO PUSH2 0x3A3 JUMPI PUSH0 DUP1 REVERT JUMPDEST POP PUSH2 0x3BE PUSH1 0x4 DUP1 CALLDATASIZE SUB DUP2 ADD SWAP1 PUSH2 0x3B9 SWAP2 SWAP1 PUSH2 0x1B72 JUMP JUMPDEST PUSH2 0x11CD JUMP JUMPDEST STOP JUMPDEST CALLVALUE DUP1 ISZERO PUSH2 0x3CB JUMPI PUSH0 DUP1 REVERT JUMPDEST POP PUSH2 0x3D4 PUSH2 0x13C3 JUMP JUMPDEST PUSH1 0x40 MLOAD PUSH2 0x3E1 SWAP2 SWAP1 PUSH2 0x17AE JUMP JUMPDEST PUSH1 0x40 MLOAD DUP1 SWAP2 SUB SWAP1 RETURN JUMPDEST CALLVALUE DUP1 ISZERO PUSH2 0x3F5 JUMPI PUSH0 DUP1 REVERT JUMPDEST POP PUSH2 0x410 PUSH1 0x4 DUP1 CALLDATASIZE SUB DUP2 ADD SWAP1 PUSH2 0x40B SWAP2 SWAP1 PUSH2 0x172B JUMP JUMPDEST PUSH2 0x13C9 JUMP JUMPDEST STOP JUMPDEST PUSH0 DUP2 DUP2 SLOAD DUP2 LT PUSH2 0x420 JUMPI PUSH0 DUP1 REVERT JUMPDEST SWAP1 PUSH0 MSTORE PUSH1 0x20 PUSH0 KECCAK256 ADD PUSH0 SWAP2 POP SLOAD SWAP1 PUSH2 0x100 EXP SWAP1 DIV PUSH20 0xFFFFFFFFFFFFFFFFFFFFFFFFFFFFFFFFFFFFFFFF AND DUP2 JUMP JUMPDEST PUSH1 0x3 DUP2 JUMP JUMPDEST PUSH1 0x1 PUSH0 DUP3 PUSH20 0xFFFFFFFFFFFFFFFFFFFFFFFFFFFFFFFFFFFFFFFF AND PUSH20 0xFFFFFFFFFFFFFFFFFFFFFFFFFFFFFFFFFFFFFFFF AND DUP2 MSTORE PUSH1 0x20 ADD SWAP1 DUP2 MSTORE PUSH1 0x20 ADD PUSH0 KECCAK256 PUSH0 SWAP1 SLOAD SWAP1 PUSH2 0x100 EXP SWAP1 DIV PUSH1 0xFF AND PUSH2 0x4DA JUMPI PUSH1 0x40 MLOAD PUSH32 0x8C379A000000000000000000000000000000000000000000000000000000000 DUP2 MSTORE PUSH1 0x4 ADD PUSH2 0x4D1 SWAP1 PUSH2 0x1C38 JUMP JUMPDEST PUSH1 0x40 MLOAD DUP1 SWAP2 SUB SWAP1 REVERT JUMPDEST PUSH1 0x1 PUSH0 DUP1 SLOAD SWAP1 POP GT PUSH2 0x521 JUMPI PUSH1 0x40 MLOAD PUSH32 0x8C379A000000000000000000000000000000000000000000000000000000000 DUP2 MSTORE PUSH1 0x4 ADD PUSH2 0x518 SWAP1 PUSH2 0x1CA0 JUMP JUMPDEST PUSH1 0x40 MLOAD DUP1 SWAP2 SUB SWAP1 REVERT JUMPDEST PUSH0 PUSH1 0x1 PUSH0 DUP4 PUSH20 0xFFFFFFFFFFFFFFFFFFFFFFFFFFFFFFFFFFFFFFFF AND PUSH20 0xFFFFFFFFFFFFFFFFFFFFFFFFFFFFFFFFFFFFFFFF AND DUP2 MSTORE PUSH1 0x20 ADD SWAP1 DUP2 MSTORE PUSH1 0x20 ADD PUSH0 KECCAK256 PUSH0 PUSH2 0x100 EXP DUP2 SLOAD DUP2 PUSH1 0xFF MUL NOT AND SWAP1 DUP4 ISZERO ISZERO MUL OR SWAP1 SSTORE POP PUSH0 JUMPDEST PUSH0 DUP1 SLOAD SWAP1 POP DUP2 LT ISZERO PUSH2 0x6E8 JUMPI DUP2 PUSH20 0xFFFFFFFFFFFFFFFFFFFFFFFFFFFFFFFFFFFFFFFF AND PUSH0 DUP3 DUP2 SLOAD DUP2 LT PUSH2 0x5AD JUMPI PUSH2 0x5AC PUSH2 0x1CBE JUMP JUMPDEST JUMPDEST SWAP1 PUSH0 MSTORE PUSH1 0x20 PUSH0 KECCAK256 ADD PUSH0 SWAP1 SLOAD SWAP1 PUSH2 0x100 EXP SWAP1 DIV PUSH20 0xFFFFFFFFFFFFFFFFFFFFFFFFFFFFFFFFFFFFFFFF AND PUSH20 0xFFFFFFFFFFFFFFFFFFFFFFFFFFFFFFFFFFFFFFFF AND SUB PUSH2 0x6DB JUMPI PUSH0 PUSH1 0x1 PUSH0 DUP1 SLOAD SWAP1 POP PUSH2 0x602 SWAP2 SWAP1 PUSH2 0x1D18 JUMP JUMPDEST DUP2 SLOAD DUP2 LT PUSH2 0x613 JUMPI PUSH2 0x612 PUSH2 0x1CBE JUMP JUMPDEST JUMPDEST SWAP1 PUSH0 MSTORE PUSH1 0x20 PUSH0 KECCAK256 ADD PUSH0 SWAP1 SLOAD SWAP1 PUSH2 0x100 EXP SWAP1 DIV PUSH20 0xFFFFFFFFFFFFFFFFFFFFFFFFFFFFFFFFFFFFFFFF AND PUSH0 DUP3 DUP2 SLOAD DUP2 LT PUSH2 0x64E JUMPI PUSH2 0x64D PUSH2 0x1CBE JUMP JUMPDEST JUMPDEST SWAP1 PUSH0 MSTORE PUSH1 0x20 PUSH0 KECCAK256 ADD PUSH0 PUSH2 0x100 EXP DUP2 SLOAD DUP2 PUSH20 0xFFFFFFFFFFFFFFFFFFFFFFFFFFFFFFFFFFFFFFFF MUL NOT AND SWAP1 DUP4 PUSH20 0xFFFFFFFFFFFFFFFFFFFFFFFFFFFFFFFFFFFFFFFF AND MUL OR SWAP1 SSTORE POP PUSH0 DUP1 SLOAD DUP1 PUSH2 0x6A4 JUMPI PUSH2 0x6A3 PUSH2 0x1D4B JUMP JUMPDEST JUMPDEST PUSH1 0x1 SWAP1 SUB DUP2 DUP2 SWAP1 PUSH0 MSTORE PUSH1 0x20 PUSH0 KECCAK256 ADD PUSH0 PUSH2 0x100 EXP DUP2 SLOAD SWAP1 PUSH20 0xFFFFFFFFFFFFFFFFFFFFFFFFFFFFFFFFFFFFFFFF MUL NOT AND SWAP1 SSTORE SWAP1 SSTORE PUSH2 0x6E8 JUMP JUMPDEST DUP1 DUP1 PUSH1 0x1 ADD SWAP2 POP POP PUSH2 0x577 JUMP JUMPDEST POP DUP1 PUSH20 0xFFFFFFFFFFFFFFFFFFFFFFFFFFFFFFFFFFFFFFFF AND PUSH32 0x58619076ADF5BB0943D100EF88D52D7C3FD691B19D3A9071B555B651FBF418DA PUSH1 0x40 MLOAD PUSH1 0x40 MLOAD DUP1 SWAP2 SUB SWAP1 LOG2 POP JUMP JUMPDEST PUSH1 0x1 PUSH0 CALLER PUSH20 0xFFFFFFFFFFFFFFFFFFFFFFFFFFFFFFFFFFFFFFFF AND PUSH20 0xFFFFFFFFFFFFFFFFFFFFFFFFFFFFFFFFFFFFFFFF AND DUP2 MSTORE PUSH1 0x20 ADD SWAP1 DUP2 MSTORE PUSH1 0x20 ADD PUSH0 KECCAK256 PUSH0 SWAP1 SLOAD SWAP1 PUSH2 0x100 EXP SWAP1 DIV PUSH1 0xFF AND PUSH2 0x7B8 JUMPI PUSH1 0x40 MLOAD PUSH32 0x8C379A000000000000000000000000000000000000000000000000000000000 DUP2 MSTORE PUSH1 0x4 ADD PUSH2 0x7AF SWAP1 PUSH2 0x1DC2 JUMP JUMPDEST PUSH1 0x40 MLOAD DUP1 SWAP2 SUB SWAP1 REVERT JUMPDEST DUP1 PUSH1 0x4 DUP1 SLOAD SWAP1 POP DUP2 LT PUSH2 0x800 JUMPI PUSH1 0x40 MLOAD PUSH32 0x8C379A000000000000000000000000000000000000000000000000000000000 DUP2 MSTORE PUSH1 0x4 ADD PUSH2 0x7F7 SWAP1 PUSH2 0x1E2A JUMP JUMPDEST PUSH1 0x40 MLOAD DUP1 SWAP2 SUB SWAP1 REVERT JUMPDEST DUP2 PUSH1 0x4 DUP2 DUP2 SLOAD DUP2 LT PUSH2 0x815 JUMPI PUSH2 0x814 PUSH2 0x1CBE JUMP JUMPDEST JUMPDEST SWAP1 PUSH0 MSTORE PUSH1 0x20 PUSH0 KECCAK256 SWAP1 PUSH1 0x5 MUL ADD PUSH1 0x3 ADD PUSH0 SWAP1 SLOAD SWAP1 PUSH2 0x100 EXP SWAP1 DIV PUSH1 0xFF AND ISZERO PUSH2 0x871 JUMPI PUSH1 0x40 MLOAD PUSH32 0x8C379A000000000000000000000000000000000000000000000000000000000 DUP2 MSTORE PUSH1 0x4 ADD PUSH2 0x868 SWAP1 PUSH2 0x1E92 JUMP JUMPDEST PUSH1 0x40 MLOAD DUP1 SWAP2 SUB SWAP1 REVERT JUMPDEST PUSH0 PUSH1 0x4 DUP5 DUP2 SLOAD DUP2 LT PUSH2 0x886 JUMPI PUSH2 0x885 PUSH2 0x1CBE JUMP JUMPDEST JUMPDEST SWAP1 PUSH0 MSTORE PUSH1 0x20 PUSH0 KECCAK256 SWAP1 PUSH1 0x5 MUL ADD SWAP1 POP PUSH1 0x3 PUSH0 DUP6 DUP2 MSTORE PUSH1 0x20 ADD SWAP1 DUP2 MSTORE PUSH1 0x20 ADD PUSH0 KECCAK256 PUSH0 CALLER PUSH20 0xFFFFFFFFFFFFFFFFFFFFFFFFFFFFFFFFFFFFFFFF AND PUSH20 0xFFFFFFFFFFFFFFFFFFFFFFFFFFFFFFFFFFFFFFFF AND DUP2 MSTORE PUSH1 0x20 ADD SWAP1 DUP2 MSTORE PUSH1 0x20 ADD PUSH0 KECCAK256 PUSH0 SWAP1 SLOAD SWAP1 PUSH2 0x100 EXP SWAP1 DIV PUSH1 0xFF AND PUSH2 0x92C JUMPI PUSH1 0x40 MLOAD PUSH32 0x8C379A000000000000000000000000000000000000000000000000000000000 DUP2 MSTORE PUSH1 0x4 ADD PUSH2 0x923 SWAP1 PUSH2 0x1EFA JUMP JUMPDEST PUSH1 0x40 MLOAD DUP1 SWAP2 SUB SWAP1 REVERT JUMPDEST PUSH1 0x1 DUP2 PUSH1 0x4 ADD PUSH0 DUP3 DUP3 SLOAD PUSH2 0x940 SWAP2 SWAP1 PUSH2 0x1D18 JUMP JUMPDEST SWAP3 POP POP DUP2 SWAP1 SSTORE POP PUSH0 PUSH1 0x3 PUSH0 DUP7 DUP2 MSTORE PUSH1 0x20 ADD SWAP1 DUP2 MSTORE PUSH1 0x20 ADD PUSH0 KECCAK256 PUSH0 CALLER PUSH20 0xFFFFFFFFFFFFFFFFFFFFFFFFFFFFFFFFFFFFFFFF AND PUSH20 0xFFFFFFFFFFFFFFFFFFFFFFFFFFFFFFFFFFFFFFFF AND DUP2 MSTORE PUSH1 0x20 ADD SWAP1 DUP2 MSTORE PUSH1 0x20 ADD PUSH0 KECCAK256 PUSH0 PUSH2 0x100 EXP DUP2 SLOAD DUP2 PUSH1 0xFF MUL NOT AND SWAP1 DUP4 ISZERO ISZERO MUL OR SWAP1 SSTORE POP DUP4 CALLER PUSH20 0xFFFFFFFFFFFFFFFFFFFFFFFFFFFFFFFFFFFFFFFF AND PUSH32 0xF0DCA620E2E81F7841D07BCC105E1704FB01475B278A9D4C236E1C62945EDD55 PUSH1 0x40 MLOAD PUSH1 0x40 MLOAD DUP1 SWAP2 SUB SWAP1 LOG3 POP POP POP POP JUMP JUMPDEST PUSH0 PUSH1 0x4 DUP1 SLOAD SWAP1 POP SWAP1 POP SWAP1 JUMP JUMPDEST PUSH1 0x1 PUSH1 0x20 MSTORE DUP1 PUSH0 MSTORE PUSH1 0x40 PUSH0 KECCAK256 PUSH0 SWAP2 POP SLOAD SWAP1 PUSH2 0x100 EXP SWAP1 DIV PUSH1 0xFF AND DUP2 JUMP JUMPDEST PUSH0 DUP1 PUSH1 0x60 PUSH0 DUP1 PUSH0 PUSH1 0x4 DUP8 DUP2 SLOAD DUP2 LT PUSH2 0xA38 JUMPI PUSH2 0xA37 PUSH2 0x1CBE JUMP JUMPDEST JUMPDEST SWAP1 PUSH0 MSTORE PUSH1 0x20 PUSH0 KECCAK256 SWAP1 PUSH1 0x5 MUL ADD SWAP1 POP DUP1 PUSH0 ADD PUSH0 SWAP1 SLOAD SWAP1 PUSH2 0x100 EXP SWAP1 DIV PUSH20 0xFFFFFFFFFFFFFFFFFFFFFFFFFFFFFFFFFFFFFFFF AND DUP2 PUSH1 0x1 ADD SLOAD DUP3 PUSH1 0x2 ADD DUP4 PUSH1 0x3 ADD PUSH0 SWAP1 SLOAD SWAP1 PUSH2 0x100 EXP SWAP1 DIV PUSH1 0xFF AND DUP5 PUSH1 0x4 ADD SLOAD DUP3 DUP1 SLOAD PUSH2 0xA94 SWAP1 PUSH2 0x1F45 JUMP JUMPDEST DUP1 PUSH1 0x1F ADD PUSH1 0x20 DUP1 SWAP2 DIV MUL PUSH1 0x20 ADD PUSH1 0x40 MLOAD SWAP1 DUP2 ADD PUSH1 0x40 MSTORE DUP1 SWAP3 SWAP2 SWAP1 DUP2 DUP2 MSTORE PUSH1 0x20 ADD DUP3 DUP1 SLOAD PUSH2 0xAC0 SWAP1 PUSH2 0x1F45 JUMP JUMPDEST DUP1 ISZERO PUSH2 0xB0B JUMPI DUP1 PUSH1 0x1F LT PUSH2 0xAE2 JUMPI PUSH2 0x100 DUP1 DUP4 SLOAD DIV MUL DUP4 MSTORE SWAP2 PUSH1 0x20 ADD SWAP2 PUSH2 0xB0B JUMP JUMPDEST DUP3 ADD SWAP2 SWAP1 PUSH0 MSTORE PUSH1 0x20 PUSH0 KECCAK256 SWAP1 JUMPDEST DUP2 SLOAD DUP2 MSTORE SWAP1 PUSH1 0x1 ADD SWAP1 PUSH1 0x20 ADD DUP1 DUP4 GT PUSH2 0xAEE JUMPI DUP3 SWAP1 SUB PUSH1 0x1F AND DUP3 ADD SWAP2 JUMPDEST POP POP POP POP POP SWAP3 POP SWAP6 POP SWAP6 POP SWAP6 POP SWAP6 POP SWAP6 POP POP SWAP2 SWAP4 SWAP6 SWAP1 SWAP3 SWAP5 POP JUMP JUMPDEST PUSH0 PUSH20 0xFFFFFFFFFFFFFFFFFFFFFFFFFFFFFFFFFFFFFFFF AND DUP2 PUSH20 0xFFFFFFFFFFFFFFFFFFFFFFFFFFFFFFFFFFFFFFFF AND SUB PUSH2 0xB94 JUMPI PUSH1 0x40 MLOAD PUSH32 0x8C379A000000000000000000000000000000000000000000000000000000000 DUP2 MSTORE PUSH1 0x4 ADD PUSH2 0xB8B SWAP1 PUSH2 0x1FBF JUMP JUMPDEST PUSH1 0x40 MLOAD DUP1 SWAP2 SUB SWAP1 REVERT JUMPDEST PUSH1 0x1 PUSH0 DUP3 PUSH20 0xFFFFFFFFFFFFFFFFFFFFFFFFFFFFFFFFFFFFFFFF AND PUSH20 0xFFFFFFFFFFFFFFFFFFFFFFFFFFFFFFFFFFFFFFFF AND DUP2 MSTORE PUSH1 0x20 ADD SWAP1 DUP2 MSTORE PUSH1 0x20 ADD PUSH0 KECCAK256 PUSH0 SWAP1 SLOAD SWAP1 PUSH2 0x100 EXP SWAP1 DIV PUSH1 0xFF AND ISZERO PUSH2 0xC1E JUMPI PUSH1 0x40 MLOAD PUSH32 0x8C379A000000000000000000000000000000000000000000000000000000000 DUP2 MSTORE PUSH1 0x4 ADD PUSH2 0xC15 SWAP1 PUSH2 0x2027 JUMP JUMPDEST PUSH1 0x40 MLOAD DUP1 SWAP2 SUB SWAP1 REVERT JUMPDEST PUSH1 0x3 PUSH0 DUP1 SLOAD SWAP1 POP LT PUSH2 0xC65 JUMPI PUSH1 0x40 MLOAD PUSH32 0x8C379A000000000000000000000000000000000000000000000000000000000 DUP2 MSTORE PUSH1 0x4 ADD PUSH2 0xC5C SWAP1 PUSH2 0x208F JUMP JUMPDEST PUSH1 0x40 MLOAD DUP1 SWAP2 SUB SWAP1 REVERT JUMPDEST PUSH1 0x1 DUP1 PUSH0 DUP4 PUSH20 0xFFFFFFFFFFFFFFFFFFFFFFFFFFFFFFFFFFFFFFFF AND PUSH20 0xFFFFFFFFFFFFFFFFFFFFFFFFFFFFFFFFFFFFFFFF AND DUP2 MSTORE PUSH1 0x20 ADD SWAP1 DUP2 MSTORE PUSH1 0x20 ADD PUSH0 KECCAK256 PUSH0 PUSH2 0x100 EXP DUP2 SLOAD DUP2 PUSH1 0xFF MUL NOT AND SWAP1 DUP4 ISZERO ISZERO MUL OR SWAP1 SSTORE POP PUSH0 DUP2 SWAP1 DUP1 PUSH1 0x1 DUP2 SLOAD ADD DUP1 DUP3 SSTORE DUP1 SWAP2 POP POP PUSH1 0x1 SWAP1 SUB SWAP1 PUSH0 MSTORE PUSH1 0x20 PUSH0 KECCAK256 ADD PUSH0 SWAP1 SWAP2 SWAP1 SWAP2 SWAP1 SWAP2 PUSH2 0x100 EXP DUP2 SLOAD DUP2 PUSH20 0xFFFFFFFFFFFFFFFFFFFFFFFFFFFFFFFFFFFFFFFF MUL NOT AND SWAP1 DUP4 PUSH20 0xFFFFFFFFFFFFFFFFFFFFFFFFFFFFFFFFFFFFFFFF AND MUL OR SWAP1 SSTORE POP DUP1 PUSH20 0xFFFFFFFFFFFFFFFFFFFFFFFFFFFFFFFFFFFFFFFF AND PUSH32 0x994A936646FE87FFE4F1E469D3D6AA417D6B855598397F323DE5B449F765F0C3 PUSH1 0x40 MLOAD PUSH1 0x40 MLOAD DUP1 SWAP2 SUB SWAP1 LOG2 POP JUMP JUMPDEST PUSH1 0x3 PUSH1 0x20 MSTORE DUP2 PUSH0 MSTORE PUSH1 0x40 PUSH0 KECCAK256 PUSH1 0x20 MSTORE DUP1 PUSH0 MSTORE PUSH1 0x40 PUSH0 KECCAK256 PUSH0 SWAP2 POP SWAP2 POP SWAP1 SLOAD SWAP1 PUSH2 0x100 EXP SWAP1 DIV PUSH1 0xFF AND DUP2 JUMP JUMPDEST PUSH1 0x4 DUP2 DUP2 SLOAD DUP2 LT PUSH2 0xD97 JUMPI PUSH0 DUP1 REVERT JUMPDEST SWAP1 PUSH0 MSTORE PUSH1 0x20 PUSH0 KECCAK256 SWAP1 PUSH1 0x5 MUL ADD PUSH0 SWAP2 POP SWAP1 POP DUP1 PUSH0 ADD PUSH0 SWAP1 SLOAD SWAP1 PUSH2 0x100 EXP SWAP1 DIV PUSH20 0xFFFFFFFFFFFFFFFFFFFFFFFFFFFFFFFFFFFFFFFF AND SWAP1 DUP1 PUSH1 0x1 ADD SLOAD SWAP1 DUP1 PUSH1 0x2 ADD DUP1 SLOAD PUSH2 0xDE1 SWAP1 PUSH2 0x1F45 JUMP JUMPDEST DUP1 PUSH1 0x1F ADD PUSH1 0x20 DUP1 SWAP2 DIV MUL PUSH1 0x20 ADD PUSH1 0x40 MLOAD SWAP1 DUP2 ADD PUSH1 0x40 MSTORE DUP1 SWAP3 SWAP2 SWAP1 DUP2 DUP2 MSTORE PUSH1 0x20 ADD DUP3 DUP1 SLOAD PUSH2 0xE0D SWAP1 PUSH2 0x1F45 JUMP JUMPDEST DUP1 ISZERO PUSH2 0xE58 JUMPI DUP1 PUSH1 0x1F LT PUSH2 0xE2F JUMPI PUSH2 0x100 DUP1 DUP4 SLOAD DIV MUL DUP4 MSTORE SWAP2 PUSH1 0x20 ADD SWAP2 PUSH2 0xE58 JUMP JUMPDEST DUP3 ADD SWAP2 SWAP1 PUSH0 MSTORE PUSH1 0x20 PUSH0 KECCAK256 SWAP1 JUMPDEST DUP2 SLOAD DUP2 MSTORE SWAP1 PUSH1 0x1 ADD SWAP1 PUSH1 0x20 ADD DUP1 DUP4 GT PUSH2 0xE3B JUMPI DUP3 SWAP1 SUB PUSH1 0x1F AND DUP3 ADD SWAP2 JUMPDEST POP POP POP POP POP SWAP1 DUP1 PUSH1 0x3 ADD PUSH0 SWAP1 SLOAD SWAP1 PUSH2 0x100 EXP SWAP1 DIV PUSH1 0xFF AND SWAP1 DUP1 PUSH1 0x4 ADD SLOAD SWAP1 POP DUP6 JUMP JUMPDEST PUSH1 0x60 PUSH0 DUP1 SLOAD DUP1 PUSH1 0x20 MUL PUSH1 0x20 ADD PUSH1 0x40 MLOAD SWAP1 DUP2 ADD PUSH1 0x40 MSTORE DUP1 SWAP3 SWAP2 SWAP1 DUP2 DUP2 MSTORE PUSH1 0x20 ADD DUP3 DUP1 SLOAD DUP1 ISZERO PUSH2 0xEFA JUMPI PUSH1 0x20 MUL DUP3 ADD SWAP2 SWAP1 PUSH0 MSTORE PUSH1 0x20 PUSH0 KECCAK256 SWAP1 JUMPDEST DUP2 PUSH0 SWAP1 SLOAD SWAP1 PUSH2 0x100 EXP SWAP1 DIV PUSH20 0xFFFFFFFFFFFFFFFFFFFFFFFFFFFFFFFFFFFFFFFF AND PUSH20 0xFFFFFFFFFFFFFFFFFFFFFFFFFFFFFFFFFFFFFFFF AND DUP2 MSTORE PUSH1 0x20 ADD SWAP1 PUSH1 0x1 ADD SWAP1 DUP1 DUP4 GT PUSH2 0xEB1 JUMPI JUMPDEST POP POP POP POP POP SWAP1 POP SWAP1 JUMP JUMPDEST PUSH1 0x1 PUSH0 CALLER PUSH20 0xFFFFFFFFFFFFFFFFFFFFFFFFFFFFFFFFFFFFFFFF AND PUSH20 0xFFFFFFFFFFFFFFFFFFFFFFFFFFFFFFFFFFFFFFFF AND DUP2 MSTORE PUSH1 0x20 ADD SWAP1 DUP2 MSTORE PUSH1 0x20 ADD PUSH0 KECCAK256 PUSH0 SWAP1 SLOAD SWAP1 PUSH2 0x100 EXP SWAP1 DIV PUSH1 0xFF AND PUSH2 0xF8D JUMPI PUSH1 0x40 MLOAD PUSH32 0x8C379A000000000000000000000000000000000000000000000000000000000 DUP2 MSTORE PUSH1 0x4 ADD PUSH2 0xF84 SWAP1 PUSH2 0x1DC2 JUMP JUMPDEST PUSH1 0x40 MLOAD DUP1 SWAP2 SUB SWAP1 REVERT JUMPDEST DUP1 PUSH1 0x4 DUP1 SLOAD SWAP1 POP DUP2 LT PUSH2 0xFD5 JUMPI PUSH1 0x40 MLOAD PUSH32 0x8C379A000000000000000000000000000000000000000000000000000000000 DUP2 MSTORE PUSH1 0x4 ADD PUSH2 0xFCC SWAP1 PUSH2 0x1E2A JUMP JUMPDEST PUSH1 0x40 MLOAD DUP1 SWAP2 SUB SWAP1 REVERT JUMPDEST DUP2 PUSH1 0x4 DUP2 DUP2 SLOAD DUP2 LT PUSH2 0xFEA JUMPI PUSH2 0xFE9 PUSH2 0x1CBE JUMP JUMPDEST JUMPDEST SWAP1 PUSH0 MSTORE PUSH1 0x20 PUSH0 KECCAK256 SWAP1 PUSH1 0x5 MUL ADD PUSH1 0x3 ADD PUSH0 SWAP1 SLOAD SWAP1 PUSH2 0x100 EXP SWAP1 DIV PUSH1 0xFF AND ISZERO PUSH2 0x1046 JUMPI PUSH1 0x40 MLOAD PUSH32 0x8C379A000000000000000000000000000000000000000000000000000000000 DUP2 MSTORE PUSH1 0x4 ADD PUSH2 0x103D SWAP1 PUSH2 0x1E92 JUMP JUMPDEST PUSH1 0x40 MLOAD DUP1 SWAP2 SUB SWAP1 REVERT JUMPDEST DUP3 PUSH1 0x3 PUSH0 DUP3 DUP2 MSTORE PUSH1 0x20 ADD SWAP1 DUP2 MSTORE PUSH1 0x20 ADD PUSH0 KECCAK256 PUSH0 CALLER PUSH20 0xFFFFFFFFFFFFFFFFFFFFFFFFFFFFFFFFFFFFFFFF AND PUSH20 0xFFFFFFFFFFFFFFFFFFFFFFFFFFFFFFFFFFFFFFFF AND DUP2 MSTORE PUSH1 0x20 ADD SWAP1 DUP2 MSTORE PUSH1 0x20 ADD PUSH0 KECCAK256 PUSH0 SWAP1 SLOAD SWAP1 PUSH2 0x100 EXP SWAP1 DIV PUSH1 0xFF AND ISZERO PUSH2 0x10E0 JUMPI PUSH1 0x40 MLOAD PUSH32 0x8C379A000000000000000000000000000000000000000000000000000000000 DUP2 MSTORE PUSH1 0x4 ADD PUSH2 0x10D7 SWAP1 PUSH2 0x20F7 JUMP JUMPDEST PUSH1 0x40 MLOAD DUP1 SWAP2 SUB SWAP1 REVERT JUMPDEST PUSH0 PUSH1 0x4 DUP6 DUP2 SLOAD DUP2 LT PUSH2 0x10F5 JUMPI PUSH2 0x10F4 PUSH2 0x1CBE JUMP JUMPDEST JUMPDEST SWAP1 PUSH0 MSTORE PUSH1 0x20 PUSH0 KECCAK256 SWAP1 PUSH1 0x5 MUL ADD SWAP1 POP PUSH1 0x1 DUP2 PUSH1 0x4 ADD PUSH0 DUP3 DUP3 SLOAD PUSH2 0x1117 SWAP2 SWAP1 PUSH2 0x2115 JUMP JUMPDEST SWAP3 POP POP DUP2 SWAP1 SSTORE POP PUSH1 0x1 PUSH1 0x3 PUSH0 DUP8 DUP2 MSTORE PUSH1 0x20 ADD SWAP1 DUP2 MSTORE PUSH1 0x20 ADD PUSH0 KECCAK256 PUSH0 CALLER PUSH20 0xFFFFFFFFFFFFFFFFFFFFFFFFFFFFFFFFFFFFFFFF AND PUSH20 0xFFFFFFFFFFFFFFFFFFFFFFFFFFFFFFFFFFFFFFFF AND DUP2 MSTORE PUSH1 0x20 ADD SWAP1 DUP2 MSTORE PUSH1 0x20 ADD PUSH0 KECCAK256 PUSH0 PUSH2 0x100 EXP DUP2 SLOAD DUP2 PUSH1 0xFF MUL NOT AND SWAP1 DUP4 ISZERO ISZERO MUL OR SWAP1 SSTORE POP DUP5 CALLER PUSH20 0xFFFFFFFFFFFFFFFFFFFFFFFFFFFFFFFFFFFFFFFF AND PUSH32 0x5CBE105E36805F7820E291F799D5794FF948AF2A5F664E580382DEFB63390041 PUSH1 0x40 MLOAD PUSH1 0x40 MLOAD DUP1 SWAP2 SUB SWAP1 LOG3 POP POP POP POP POP JUMP JUMPDEST PUSH1 0x1 PUSH0 CALLER PUSH20 0xFFFFFFFFFFFFFFFFFFFFFFFFFFFFFFFFFFFFFFFF AND PUSH20 0xFFFFFFFFFFFFFFFFFFFFFFFFFFFFFFFFFFFFFFFF AND DUP2 MSTORE PUSH1 0x20 ADD SWAP1 DUP2 MSTORE PUSH1 0x20 ADD PUSH0 KECCAK256 PUSH0 SWAP1 SLOAD SWAP1 PUSH2 0x100 EXP SWAP1 DIV PUSH1 0xFF AND PUSH2 0x1256 JUMPI PUSH1 0x40 MLOAD PUSH32 0x8C379A000000000000000000000000000000000000000000000000000000000 DUP2 MSTORE PUSH1 0x4 ADD PUSH2 0x124D SWAP1 PUSH2 0x1DC2 JUMP JUMPDEST PUSH1 0x40 MLOAD DUP1 SWAP2 SUB SWAP1 REVERT JUMPDEST PUSH0 PUSH1 0x4 DUP1 SLOAD SWAP1 POP SWAP1 POP PUSH1 0x4 PUSH1 0x40 MLOAD DUP1 PUSH1 0xA0 ADD PUSH1 0x40 MSTORE DUP1 DUP7 PUSH20 0xFFFFFFFFFFFFFFFFFFFFFFFFFFFFFFFFFFFFFFFF AND DUP2 MSTORE PUSH1 0x20 ADD DUP6 DUP2 MSTORE PUSH1 0x20 ADD DUP5 DUP2 MSTORE PUSH1 0x20 ADD PUSH0 ISZERO ISZERO DUP2 MSTORE PUSH1 0x20 ADD PUSH0 DUP2 MSTORE POP SWAP1 DUP1 PUSH1 0x1 DUP2 SLOAD ADD DUP1 DUP3 SSTORE DUP1 SWAP2 POP POP PUSH1 0x1 SWAP1 SUB SWAP1 PUSH0 MSTORE PUSH1 0x20 PUSH0 KECCAK256 SWAP1 PUSH1 0x5 MUL ADD PUSH0 SWAP1 SWAP2 SWAP1 SWAP2 SWAP1 SWAP2 POP PUSH0 DUP3 ADD MLOAD DUP2 PUSH0 ADD PUSH0 PUSH2 0x100 EXP DUP2 SLOAD DUP2 PUSH20 0xFFFFFFFFFFFFFFFFFFFFFFFFFFFFFFFFFFFFFFFF MUL NOT AND SWAP1 DUP4 PUSH20 0xFFFFFFFFFFFFFFFFFFFFFFFFFFFFFFFFFFFFFFFF AND MUL OR SWAP1 SSTORE POP PUSH1 0x20 DUP3 ADD MLOAD DUP2 PUSH1 0x1 ADD SSTORE PUSH1 0x40 DUP3 ADD MLOAD DUP2 PUSH1 0x2 ADD SWAP1 DUP2 PUSH2 0x1329 SWAP2 SWAP1 PUSH2 0x22E5 JUMP JUMPDEST POP PUSH1 0x60 DUP3 ADD MLOAD DUP2 PUSH1 0x3 ADD PUSH0 PUSH2 0x100 EXP DUP2 SLOAD DUP2 PUSH1 0xFF MUL NOT AND SWAP1 DUP4 ISZERO ISZERO MUL OR SWAP1 SSTORE POP PUSH1 0x80 DUP3 ADD MLOAD DUP2 PUSH1 0x4 ADD SSTORE POP POP DUP4 PUSH20 0xFFFFFFFFFFFFFFFFFFFFFFFFFFFFFFFFFFFFFFFF AND DUP2 CALLER PUSH20 0xFFFFFFFFFFFFFFFFFFFFFFFFFFFFFFFFFFFFFFFF AND PUSH32 0xD5A05BF70715AD82A09A756320284A1B54C9FF74CD0F8CCE6219E79B563FE59D DUP7 DUP7 PUSH1 0x40 MLOAD PUSH2 0x13B5 SWAP3 SWAP2 SWAP1 PUSH2 0x23B4 JUMP JUMPDEST PUSH1 0x40 MLOAD DUP1 SWAP2 SUB SWAP1 LOG4 POP POP POP POP JUMP JUMPDEST PUSH1 0x2 SLOAD DUP2 JUMP JUMPDEST PUSH1 0x1 PUSH0 CALLER PUSH20 0xFFFFFFFFFFFFFFFFFFFFFFFFFFFFFFFFFFFFFFFF AND PUSH20 0xFFFFFFFFFFFFFFFFFFFFFFFFFFFFFFFFFFFFFFFF AND DUP2 MSTORE PUSH1 0x20 ADD SWAP1 DUP2 MSTORE PUSH1 0x20 ADD PUSH0 KECCAK256 PUSH0 SWAP1 SLOAD SWAP1 PUSH2 0x100 EXP SWAP1 DIV PUSH1 0xFF AND PUSH2 0x1452 JUMPI PUSH1 0x40 MLOAD PUSH32 0x8C379A000000000000000000000000000000000000000000000000000000000 DUP2 MSTORE PUSH1 0x4 ADD PUSH2 0x1449 SWAP1 PUSH2 0x1DC2 JUMP JUMPDEST PUSH1 0x40 MLOAD DUP1 SWAP2 SUB SWAP1 REVERT JUMPDEST DUP1 PUSH1 0x4 DUP1 SLOAD SWAP1 POP DUP2 LT PUSH2 0x149A JUMPI PUSH1 0x40 MLOAD PUSH32 0x8C379A000000000000000000000000000000000000000000000000000000000 DUP2 MSTORE PUSH1 0x4 ADD PUSH2 0x1491 SWAP1 PUSH2 0x1E2A JUMP JUMPDEST PUSH1 0x40 MLOAD DUP1 SWAP2 SUB SWAP1 REVERT JUMPDEST DUP2 PUSH1 0x4 DUP2 DUP2 SLOAD DUP2 LT PUSH2 0x14AF JUMPI PUSH2 0x14AE PUSH2 0x1CBE JUMP JUMPDEST JUMPDEST SWAP1 PUSH0 MSTORE PUSH1 0x20 PUSH0 KECCAK256 SWAP1 PUSH1 0x5 MUL ADD PUSH1 0x3 ADD PUSH0 SWAP1 SLOAD SWAP1 PUSH2 0x100 EXP SWAP1 DIV PUSH1 0xFF AND ISZERO PUSH2 0x150B JUMPI PUSH1 0x40 MLOAD PUSH32 0x8C379A000000000000000000000000000000000000000000000000000000000 DUP2 MSTORE PUSH1 0x4 ADD PUSH2 0x1502 SWAP1 PUSH2 0x1E92 JUMP JUMPDEST PUSH1 0x40 MLOAD DUP1 SWAP2 SUB SWAP1 REVERT JUMPDEST PUSH0 PUSH1 0x4 DUP5 DUP2 SLOAD DUP2 LT PUSH2 0x1520 JUMPI PUSH2 0x151F PUSH2 0x1CBE JUMP JUMPDEST JUMPDEST SWAP1 PUSH0 MSTORE PUSH1 0x20 PUSH0 KECCAK256 SWAP1 PUSH1 0x5 MUL ADD SWAP1 POP PUSH1 0x2 SLOAD DUP2 PUSH1 0x4 ADD SLOAD LT ISZERO PUSH2 0x1577 JUMPI PUSH1 0x40 MLOAD PUSH32 0x8C379A000000000000000000000000000000000000000000000000000000000 DUP2 MSTORE PUSH1 0x4 ADD PUSH2 0x156E SWAP1 PUSH2 0x242C JUMP JUMPDEST PUSH1 0x40 MLOAD DUP1 SWAP2 SUB SWAP1 REVERT JUMPDEST PUSH1 0x1 DUP2 PUSH1 0x3 ADD PUSH0 PUSH2 0x100 EXP DUP2 SLOAD DUP2 PUSH1 0xFF MUL NOT AND SWAP1 DUP4 ISZERO ISZERO MUL OR SWAP1 SSTORE POP PUSH0 DUP2 PUSH0 ADD PUSH0 SWAP1 SLOAD SWAP1 PUSH2 0x100 EXP SWAP1 DIV PUSH20 0xFFFFFFFFFFFFFFFFFFFFFFFFFFFFFFFFFFFFFFFF AND PUSH20 0xFFFFFFFFFFFFFFFFFFFFFFFFFFFFFFFFFFFFFFFF AND DUP3 PUSH1 0x1 ADD SLOAD DUP4 PUSH1 0x2 ADD PUSH1 0x40 MLOAD PUSH2 0x15E3 SWAP2 SWAP1 PUSH2 0x24D4 JUMP JUMPDEST PUSH0 PUSH1 0x40 MLOAD DUP1 DUP4 SUB DUP2 DUP6 DUP8 GAS CALL SWAP3 POP POP POP RETURNDATASIZE DUP1 PUSH0 DUP2 EQ PUSH2 0x161D JUMPI PUSH1 0x40 MLOAD SWAP2 POP PUSH1 0x1F NOT PUSH1 0x3F RETURNDATASIZE ADD AND DUP3 ADD PUSH1 0x40 MSTORE RETURNDATASIZE DUP3 MSTORE RETURNDATASIZE PUSH0 PUSH1 0x20 DUP5 ADD RETURNDATACOPY PUSH2 0x1622 JUMP JUMPDEST PUSH1 0x60 SWAP2 POP JUMPDEST POP POP SWAP1 POP DUP1 PUSH2 0x1666 JUMPI PUSH1 0x40 MLOAD PUSH32 0x8C379A000000000000000000000000000000000000000000000000000000000 DUP2 MSTORE PUSH1 0x4 ADD PUSH2 0x165D SWAP1 PUSH2 0x2534 JUMP JUMPDEST PUSH1 0x40 MLOAD DUP1 SWAP2 SUB SWAP1 REVERT JUMPDEST DUP5 CALLER PUSH20 0xFFFFFFFFFFFFFFFFFFFFFFFFFFFFFFFFFFFFFFFF AND PUSH32 0x5445F318F4F5FCFB66592E68E0CC5822AA15664039BD5F0FFDE24C5A8142B1AC PUSH1 0x40 MLOAD PUSH1 0x40 MLOAD DUP1 SWAP2 SUB SWAP1 LOG3 POP POP POP POP POP JUMP JUMPDEST PUSH0 DUP2 SWAP1 POP SWAP2 SWAP1 POP JUMP JUMPDEST PUSH2 0x16C3 DUP2 PUSH2 0x16B1 JUMP JUMPDEST DUP3 MSTORE POP POP JUMP JUMPDEST PUSH0 PUSH1 0x40 DUP3 ADD SWAP1 POP PUSH2 0x16DC PUSH0 DUP4 ADD DUP6 PUSH2 0x16BA JUMP JUMPDEST PUSH2 0x16E9 PUSH1 0x20 DUP4 ADD DUP5 PUSH2 0x16BA JUMP JUMPDEST SWAP4 SWAP3 POP POP POP JUMP JUMPDEST PUSH0 PUSH1 0x40 MLOAD SWAP1 POP SWAP1 JUMP JUMPDEST PUSH0 DUP1 REVERT JUMPDEST PUSH0 DUP1 REVERT JUMPDEST PUSH2 0x170A DUP2 PUSH2 0x16B1 JUMP JUMPDEST DUP2 EQ PUSH2 0x1714 JUMPI PUSH0 DUP1 REVERT JUMPDEST POP JUMP JUMPDEST PUSH0 DUP2 CALLDATALOAD SWAP1 POP PUSH2 0x1725 DUP2 PUSH2 0x1701 JUMP JUMPDEST SWAP3 SWAP2 POP POP JUMP JUMPDEST PUSH0 PUSH1 0x20 DUP3 DUP5 SUB SLT ISZERO PUSH2 0x1740 JUMPI PUSH2 0x173F PUSH2 0x16F9 JUMP JUMPDEST JUMPDEST PUSH0 PUSH2 0x174D DUP5 DUP3 DUP6 ADD PUSH2 0x1717 JUMP JUMPDEST SWAP2 POP POP SWAP3 SWAP2 POP POP JUMP JUMPDEST PUSH0 PUSH20 0xFFFFFFFFFFFFFFFFFFFFFFFFFFFFFFFFFFFFFFFF DUP3 AND SWAP1 POP SWAP2 SWAP1 POP JUMP JUMPDEST PUSH0 PUSH2 0x177F DUP3 PUSH2 0x1756 JUMP JUMPDEST SWAP1 POP SWAP2 SWAP1 POP JUMP JUMPDEST PUSH2 0x178F DUP2 PUSH2 0x1775 JUMP JUMPDEST DUP3 MSTORE POP POP JUMP JUMPDEST PUSH0 PUSH1 0x20 DUP3 ADD SWAP1 POP PUSH2 0x17A8 PUSH0 DUP4 ADD DUP5 PUSH2 0x1786 JUMP JUMPDEST SWAP3 SWAP2 POP POP JUMP JUMPDEST PUSH0 PUSH1 0x20 DUP3 ADD SWAP1 POP PUSH2 0x17C1 PUSH0 DUP4 ADD DUP5 PUSH2 0x16BA JUMP JUMPDEST SWAP3 SWAP2 POP POP JUMP JUMPDEST PUSH2 0x17D0 DUP2 PUSH2 0x1775 JUMP JUMPDEST DUP2 EQ PUSH2 0x17DA JUMPI PUSH0 DUP1 REVERT JUMPDEST POP JUMP JUMPDEST PUSH0 DUP2 CALLDATALOAD SWAP1 POP PUSH2 0x17EB DUP2 PUSH2 0x17C7 JUMP JUMPDEST SWAP3 SWAP2 POP POP JUMP JUMPDEST PUSH0 PUSH1 0x20 DUP3 DUP5 SUB SLT ISZERO PUSH2 0x1806 JUMPI PUSH2 0x1805 PUSH2 0x16F9 JUMP JUMPDEST JUMPDEST PUSH0 PUSH2 0x1813 DUP5 DUP3 DUP6 ADD PUSH2 0x17DD JUMP JUMPDEST SWAP2 POP POP SWAP3 SWAP2 POP POP JUMP JUMPDEST PUSH0 DUP2 ISZERO ISZERO SWAP1 POP SWAP2 SWAP1 POP JUMP JUMPDEST PUSH2 0x1830 DUP2 PUSH2 0x181C JUMP JUMPDEST DUP3 MSTORE POP POP JUMP JUMPDEST PUSH0 PUSH1 0x20 DUP3 ADD SWAP1 POP PUSH2 0x1849 PUSH0 DUP4 ADD DUP5 PUSH2 0x1827 JUMP JUMPDEST SWAP3 SWAP2 POP POP JUMP JUMPDEST PUSH0 DUP2 MLOAD SWAP1 POP SWAP2 SWAP1 POP JUMP JUMPDEST PUSH0 DUP3 DUP3 MSTORE PUSH1 0x20 DUP3 ADD SWAP1 POP SWAP3 SWAP2 POP POP JUMP JUMPDEST PUSH0 JUMPDEST DUP4 DUP2 LT ISZERO PUSH2 0x1886 JUMPI DUP1 DUP3 ADD MLOAD DUP2 DUP5 ADD MSTORE PUSH1 0x20 DUP2 ADD SWAP1 POP PUSH2 0x186B JUMP JUMPDEST PUSH0 DUP5 DUP5 ADD MSTORE POP POP POP POP JUMP JUMPDEST PUSH0 PUSH1 0x1F NOT PUSH1 0x1F DUP4 ADD AND SWAP1 POP SWAP2 SWAP1 POP JUMP JUMPDEST PUSH0 PUSH2 0x18AB DUP3 PUSH2 0x184F JUMP JUMPDEST PUSH2 0x18B5 DUP2 DUP6 PUSH2 0x1859 JUMP JUMPDEST SWAP4 POP PUSH2 0x18C5 DUP2 DUP6 PUSH1 0x20 DUP7 ADD PUSH2 0x1869 JUMP JUMPDEST PUSH2 0x18CE DUP2 PUSH2 0x1891 JUMP JUMPDEST DUP5 ADD SWAP2 POP POP SWAP3 SWAP2 POP POP JUMP JUMPDEST PUSH0 PUSH1 0xA0 DUP3 ADD SWAP1 POP PUSH2 0x18EC PUSH0 DUP4 ADD DUP9 PUSH2 0x1786 JUMP JUMPDEST PUSH2 0x18F9 PUSH1 0x20 DUP4 ADD DUP8 PUSH2 0x16BA JUMP JUMPDEST DUP2 DUP2 SUB PUSH1 0x40 DUP4 ADD MSTORE PUSH2 0x190B DUP2 DUP7 PUSH2 0x18A1 JUMP JUMPDEST SWAP1 POP PUSH2 0x191A PUSH1 0x60 DUP4 ADD DUP6 PUSH2 0x1827 JUMP JUMPDEST PUSH2 0x1927 PUSH1 0x80 DUP4 ADD DUP5 PUSH2 0x16BA JUMP JUMPDEST SWAP7 SWAP6 POP POP POP POP POP POP JUMP JUMPDEST PUSH0 DUP1 PUSH1 0x40 DUP4 DUP6 SUB SLT ISZERO PUSH2 0x1947 JUMPI PUSH2 0x1946 PUSH2 0x16F9 JUMP JUMPDEST JUMPDEST PUSH0 PUSH2 0x1954 DUP6 DUP3 DUP7 ADD PUSH2 0x1717 JUMP JUMPDEST SWAP3 POP POP PUSH1 0x20 PUSH2 0x1965 DUP6 DUP3 DUP7 ADD PUSH2 0x17DD JUMP JUMPDEST SWAP2 POP POP SWAP3 POP SWAP3 SWAP1 POP JUMP JUMPDEST PUSH0 DUP2 MLOAD SWAP1 POP SWAP2 SWAP1 POP JUMP JUMPDEST PUSH0 DUP3 DUP3 MSTORE PUSH1 0x20 DUP3 ADD SWAP1 POP SWAP3 SWAP2 POP POP JUMP JUMPDEST PUSH0 DUP2 SWAP1 POP PUSH1 0x20 DUP3 ADD SWAP1 POP SWAP2 SWAP1 POP JUMP JUMPDEST PUSH2 0x19A1 DUP2 PUSH2 0x1775 JUMP JUMPDEST DUP3 MSTORE POP POP JUMP JUMPDEST PUSH0 PUSH2 0x19B2 DUP4 DUP4 PUSH2 0x1998 JUMP JUMPDEST PUSH1 0x20 DUP4 ADD SWAP1 POP SWAP3 SWAP2 POP POP JUMP JUMPDEST PUSH0 PUSH1 0x20 DUP3 ADD SWAP1 POP SWAP2 SWAP1 POP JUMP JUMPDEST PUSH0 PUSH2 0x19D4 DUP3 PUSH2 0x196F JUMP JUMPDEST PUSH2 0x19DE DUP2 DUP6 PUSH2 0x1979 JUMP JUMPDEST SWAP4 POP PUSH2 0x19E9 DUP4 PUSH2 0x1989 JUMP JUMPDEST DUP1 PUSH0 JUMPDEST DUP4 DUP2 LT ISZERO PUSH2 0x1A19 JUMPI DUP2 MLOAD PUSH2 0x1A00 DUP9 DUP3 PUSH2 0x19A7 JUMP JUMPDEST SWAP8 POP PUSH2 0x1A0B DUP4 PUSH2 0x19BE JUMP JUMPDEST SWAP3 POP POP PUSH1 0x1 DUP2 ADD SWAP1 POP PUSH2 0x19EC JUMP JUMPDEST POP DUP6 SWAP4 POP POP POP POP SWAP3 SWAP2 POP POP JUMP JUMPDEST PUSH0 PUSH1 0x20 DUP3 ADD SWAP1 POP DUP2 DUP2 SUB PUSH0 DUP4 ADD MSTORE PUSH2 0x1A3E DUP2 DUP5 PUSH2 0x19CA JUMP JUMPDEST SWAP1 POP SWAP3 SWAP2 POP POP JUMP JUMPDEST PUSH0 DUP1 REVERT JUMPDEST PUSH0 DUP1 REVERT JUMPDEST PUSH32 0x4E487B7100000000000000000000000000000000000000000000000000000000 PUSH0 MSTORE PUSH1 0x41 PUSH1 0x4 MSTORE PUSH1 0x24 PUSH0 REVERT JUMPDEST PUSH2 0x1A84 DUP3 PUSH2 0x1891 JUMP JUMPDEST DUP2 ADD DUP2 DUP2 LT PUSH8 0xFFFFFFFFFFFFFFFF DUP3 GT OR ISZERO PUSH2 0x1AA3 JUMPI PUSH2 0x1AA2 PUSH2 0x1A4E JUMP JUMPDEST JUMPDEST DUP1 PUSH1 0x40 MSTORE POP POP POP JUMP JUMPDEST PUSH0 PUSH2 0x1AB5 PUSH2 0x16F0 JUMP JUMPDEST SWAP1 POP PUSH2 0x1AC1 DUP3 DUP3 PUSH2 0x1A7B JUMP JUMPDEST SWAP2 SWAP1 POP JUMP JUMPDEST PUSH0 PUSH8 0xFFFFFFFFFFFFFFFF DUP3 GT ISZERO PUSH2 0x1AE0 JUMPI PUSH2 0x1ADF PUSH2 0x1A4E JUMP JUMPDEST JUMPDEST PUSH2 0x1AE9 DUP3 PUSH2 0x1891 JUMP JUMPDEST SWAP1 POP PUSH1 0x20 DUP2 ADD SWAP1 POP SWAP2 SWAP1 POP JUMP JUMPDEST DUP3 DUP2 DUP4 CALLDATACOPY PUSH0 DUP4 DUP4 ADD MSTORE POP POP POP JUMP JUMPDEST PUSH0 PUSH2 0x1B16 PUSH2 0x1B11 DUP5 PUSH2 0x1AC6 JUMP JUMPDEST PUSH2 0x1AAC JUMP JUMPDEST SWAP1 POP DUP3 DUP2 MSTORE PUSH1 0x20 DUP2 ADD DUP5 DUP5 DUP5 ADD GT ISZERO PUSH2 0x1B32 JUMPI PUSH2 0x1B31 PUSH2 0x1A4A JUMP JUMPDEST JUMPDEST PUSH2 0x1B3D DUP5 DUP3 DUP6 PUSH2 0x1AF6 JUMP JUMPDEST POP SWAP4 SWAP3 POP POP POP JUMP JUMPDEST PUSH0 DUP3 PUSH1 0x1F DUP4 ADD SLT PUSH2 0x1B59 JUMPI PUSH2 0x1B58 PUSH2 0x1A46 JUMP JUMPDEST JUMPDEST DUP2 CALLDATALOAD PUSH2 0x1B69 DUP5 DUP3 PUSH1 0x20 DUP7 ADD PUSH2 0x1B04 JUMP JUMPDEST SWAP2 POP POP SWAP3 SWAP2 POP POP JUMP JUMPDEST PUSH0 DUP1 PUSH0 PUSH1 0x60 DUP5 DUP7 SUB SLT ISZERO PUSH2 0x1B89 JUMPI PUSH2 0x1B88 PUSH2 0x16F9 JUMP JUMPDEST JUMPDEST PUSH0 PUSH2 0x1B96 DUP7 DUP3 DUP8 ADD PUSH2 0x17DD JUMP JUMPDEST SWAP4 POP POP PUSH1 0x20 PUSH2 0x1BA7 DUP7 DUP3 DUP8 ADD PUSH2 0x1717 JUMP JUMPDEST SWAP3 POP POP PUSH1 0x40 DUP5 ADD CALLDATALOAD PUSH8 0xFFFFFFFFFFFFFFFF DUP2 GT ISZERO PUSH2 0x1BC8 JUMPI PUSH2 0x1BC7 PUSH2 0x16FD JUMP JUMPDEST JUMPDEST PUSH2 0x1BD4 DUP7 DUP3 DUP8 ADD PUSH2 0x1B45 JUMP JUMPDEST SWAP2 POP POP SWAP3 POP SWAP3 POP SWAP3 JUMP JUMPDEST PUSH0 DUP3 DUP3 MSTORE PUSH1 0x20 DUP3 ADD SWAP1 POP SWAP3 SWAP2 POP POP JUMP JUMPDEST PUSH32 0x6E6F7420616E206F776E65720000000000000000000000000000000000000000 PUSH0 DUP3 ADD MSTORE POP JUMP JUMPDEST PUSH0 PUSH2 0x1C22 PUSH1 0xC DUP4 PUSH2 0x1BDE JUMP JUMPDEST SWAP2 POP PUSH2 0x1C2D DUP3 PUSH2 0x1BEE JUMP JUMPDEST PUSH1 0x20 DUP3 ADD SWAP1 POP SWAP2 SWAP1 POP JUMP JUMPDEST PUSH0 PUSH1 0x20 DUP3 ADD SWAP1 POP DUP2 DUP2 SUB PUSH0 DUP4 ADD MSTORE PUSH2 0x1C4F DUP2 PUSH2 0x1C16 JUMP JUMPDEST SWAP1 POP SWAP2 SWAP1 POP JUMP JUMPDEST PUSH32 0x63616E6E6F742072656D6F7665206C617374206F776E65720000000000000000 PUSH0 DUP3 ADD MSTORE POP JUMP JUMPDEST PUSH0 PUSH2 0x1C8A PUSH1 0x18 DUP4 PUSH2 0x1BDE JUMP JUMPDEST SWAP2 POP PUSH2 0x1C95 DUP3 PUSH2 0x1C56 JUMP JUMPDEST PUSH1 0x20 DUP3 ADD SWAP1 POP SWAP2 SWAP1 POP JUMP JUMPDEST PUSH0 PUSH1 0x20 DUP3 ADD SWAP1 POP DUP2 DUP2 SUB PUSH0 DUP4 ADD MSTORE PUSH2 0x1CB7 DUP2 PUSH2 0x1C7E JUMP JUMPDEST SWAP1 POP SWAP2 SWAP1 POP JUMP JUMPDEST PUSH32 0x4E487B7100000000000000000000000000000000000000000000000000000000 PUSH0 MSTORE PUSH1 0x32 PUSH1 0x4 MSTORE PUSH1 0x24 PUSH0 REVERT JUMPDEST PUSH32 0x4E487B7100000000000000000000000000000000000000000000000000000000 PUSH0 MSTORE PUSH1 0x11 PUSH1 0x4 MSTORE PUSH1 0x24 PUSH0 REVERT JUMPDEST PUSH0 PUSH2 0x1D22 DUP3 PUSH2 0x16B1 JUMP JUMPDEST SWAP2 POP PUSH2 0x1D2D DUP4 PUSH2 0x16B1 JUMP JUMPDEST SWAP3 POP DUP3 DUP3 SUB SWAP1 POP DUP2 DUP2 GT ISZERO PUSH2 0x1D45 JUMPI PUSH2 0x1D44 PUSH2 0x1CEB JUMP JUMPDEST JUMPDEST SWAP3 SWAP2 POP POP JUMP JUMPDEST PUSH32 0x4E487B7100000000000000000000000000000000000000000000000000000000 PUSH0 MSTORE PUSH1 0x31 PUSH1 0x4 MSTORE PUSH1 0x24 PUSH0 REVERT JUMPDEST PUSH32 0x6E6F74206F776E65720000000000000000000000000000000000000000000000 PUSH0 DUP3 ADD MSTORE POP JUMP JUMPDEST PUSH0 PUSH2 0x1DAC PUSH1 0x9 DUP4 PUSH2 0x1BDE JUMP JUMPDEST SWAP2 POP PUSH2 0x1DB7 DUP3 PUSH2 0x1D78 JUMP JUMPDEST PUSH1 0x20 DUP3 ADD SWAP1 POP SWAP2 SWAP1 POP JUMP JUMPDEST PUSH0 PUSH1 0x20 DUP3 ADD SWAP1 POP DUP2 DUP2 SUB PUSH0 DUP4 ADD MSTORE PUSH2 0x1DD9 DUP2 PUSH2 0x1DA0 JUMP JUMPDEST SWAP1 POP SWAP2 SWAP1 POP JUMP JUMPDEST PUSH32 0x747820646F6573206E6F74206578697374000000000000000000000000000000 PUSH0 DUP3 ADD MSTORE POP JUMP JUMPDEST PUSH0 PUSH2 0x1E14 PUSH1 0x11 DUP4 PUSH2 0x1BDE JUMP JUMPDEST SWAP2 POP PUSH2 0x1E1F DUP3 PUSH2 0x1DE0 JUMP JUMPDEST PUSH1 0x20 DUP3 ADD SWAP1 POP SWAP2 SWAP1 POP JUMP JUMPDEST PUSH0 PUSH1 0x20 DUP3 ADD SWAP1 POP DUP2 DUP2 SUB PUSH0 DUP4 ADD MSTORE PUSH2 0x1E41 DUP2 PUSH2 0x1E08 JUMP JUMPDEST SWAP1 POP SWAP2 SWAP1 POP JUMP JUMPDEST PUSH32 0x747820616C726561647920657865637574656400000000000000000000000000 PUSH0 DUP3 ADD MSTORE POP JUMP JUMPDEST PUSH0 PUSH2 0x1E7C PUSH1 0x13 DUP4 PUSH2 0x1BDE JUMP JUMPDEST SWAP2 POP PUSH2 0x1E87 DUP3 PUSH2 0x1E48 JUMP JUMPDEST PUSH1 0x20 DUP3 ADD SWAP1 POP SWAP2 SWAP1 POP JUMP JUMPDEST PUSH0 PUSH1 0x20 DUP3 ADD SWAP1 POP DUP2 DUP2 SUB PUSH0 DUP4 ADD MSTORE PUSH2 0x1EA9 DUP2 PUSH2 0x1E70 JUMP JUMPDEST SWAP1 POP SWAP2 SWAP1 POP JUMP JUMPDEST PUSH32 0x7478206E6F7420636F6E6669726D656400000000000000000000000000000000 PUSH0 DUP3 ADD MSTORE POP JUMP JUMPDEST PUSH0 PUSH2 0x1EE4 PUSH1 0x10 DUP4 PUSH2 0x1BDE JUMP JUMPDEST SWAP2 POP PUSH2 0x1EEF DUP3 PUSH2 0x1EB0 JUMP JUMPDEST PUSH1 0x20 DUP3 ADD SWAP1 POP SWAP2 SWAP1 POP JUMP JUMPDEST PUSH0 PUSH1 0x20 DUP3 ADD SWAP1 POP DUP2 DUP2 SUB PUSH0 DUP4 ADD MSTORE PUSH2 0x1F11 DUP2 PUSH2 0x1ED8 JUMP JUMPDEST SWAP1 POP SWAP2 SWAP1 POP JUMP JUMPDEST PUSH32 0x4E487B7100000000000000000000000000000000000000000000000000000000 PUSH0 MSTORE PUSH1 0x22 PUSH1 0x4 MSTORE PUSH1 0x24 PUSH0 REVERT JUMPDEST PUSH0 PUSH1 0x2 DUP3 DIV SWAP1 POP PUSH1 0x1 DUP3 AND DUP1 PUSH2 0x1F5C JUMPI PUSH1 0x7F DUP3 AND SWAP2 POP JUMPDEST PUSH1 0x20 DUP3 LT DUP2 SUB PUSH2 0x1F6F JUMPI PUSH2 0x1F6E PUSH2 0x1F18 JUMP JUMPDEST JUMPDEST POP SWAP2 SWAP1 POP JUMP JUMPDEST PUSH32 0x696E76616C6964206F776E657200000000000000000000000000000000000000 PUSH0 DUP3 ADD MSTORE POP JUMP JUMPDEST PUSH0 PUSH2 0x1FA9 PUSH1 0xD DUP4 PUSH2 0x1BDE JUMP JUMPDEST SWAP2 POP PUSH2 0x1FB4 DUP3 PUSH2 0x1F75 JUMP JUMPDEST PUSH1 0x20 DUP3 ADD SWAP1 POP SWAP2 SWAP1 POP JUMP JUMPDEST PUSH0 PUSH1 0x20 DUP3 ADD SWAP1 POP DUP2 DUP2 SUB PUSH0 DUP4 ADD MSTORE PUSH2 0x1FD6 DUP2 PUSH2 0x1F9D JUMP JUMPDEST SWAP1 POP SWAP2 SWAP1 POP JUMP JUMPDEST PUSH32 0x6F776E657220616C726561647920657869737473000000000000000000000000 PUSH0 DUP3 ADD MSTORE POP JUMP JUMPDEST PUSH0 PUSH2 0x2011 PUSH1 0x14 DUP4 PUSH2 0x1BDE JUMP JUMPDEST SWAP2 POP PUSH2 0x201C DUP3 PUSH2 0x1FDD JUMP JUMPDEST PUSH1 0x20 DUP3 ADD SWAP1 POP SWAP2 SWAP1 POP JUMP JUMPDEST PUSH0 PUSH1 0x20 DUP3 ADD SWAP1 POP DUP2 DUP2 SUB PUSH0 DUP4 ADD MSTORE PUSH2 0x203E DUP2 PUSH2 0x2005 JUMP JUMPDEST SWAP1 POP SWAP2 SWAP1 POP JUMP JUMPDEST PUSH32 0x6D6178206F776E65727320726561636865640000000000000000000000000000 PUSH0 DUP3 ADD MSTORE POP JUMP JUMPDEST PUSH0 PUSH2 0x2079 PUSH1 0x12 DUP4 PUSH2 0x1BDE JUMP JUMPDEST SWAP2 POP PUSH2 0x2084 DUP3 PUSH2 0x2045 JUMP JUMPDEST PUSH1 0x20 DUP3 ADD SWAP1 POP SWAP2 SWAP1 POP JUMP JUMPDEST PUSH0 PUSH1 0x20 DUP3 ADD SWAP1 POP DUP2 DUP2 SUB PUSH0 DUP4 ADD MSTORE PUSH2 0x20A6 DUP2 PUSH2 0x206D JUMP JUMPDEST SWAP1 POP SWAP2 SWAP1 POP JUMP JUMPDEST PUSH32 0x747820616C726561647920636F6E6669726D6564000000000000000000000000 PUSH0 DUP3 ADD MSTORE POP JUMP JUMPDEST PUSH0 PUSH2 0x20E1 PUSH1 0x14 DUP4 PUSH2 0x1BDE JUMP JUMPDEST SWAP2 POP PUSH2 0x20EC DUP3 PUSH2 0x20AD JUMP JUMPDEST PUSH1 0x20 DUP3 ADD SWAP1 POP SWAP2 SWAP1 POP JUMP JUMPDEST PUSH0 PUSH1 0x20 DUP3 ADD SWAP1 POP DUP2 DUP2 SUB PUSH0 DUP4 ADD MSTORE PUSH2 0x210E DUP2 PUSH2 0x20D5 JUMP JUMPDEST SWAP1 POP SWAP2 SWAP1 POP JUMP JUMPDEST PUSH0 PUSH2 0x211F DUP3 PUSH2 0x16B1 JUMP JUMPDEST SWAP2 POP PUSH2 0x212A DUP4 PUSH2 0x16B1 JUMP JUMPDEST SWAP3 POP DUP3 DUP3 ADD SWAP1 POP DUP1 DUP3 GT ISZERO PUSH2 0x2142 JUMPI PUSH2 0x2141 PUSH2 0x1CEB JUMP JUMPDEST JUMPDEST SWAP3 SWAP2 POP POP JUMP JUMPDEST PUSH0 DUP2 SWAP1 POP DUP2 PUSH0 MSTORE PUSH1 0x20 PUSH0 KECCAK256 SWAP1 POP SWAP2 SWAP1 POP JUMP JUMPDEST PUSH0 PUSH1 0x20 PUSH1 0x1F DUP4 ADD DIV SWAP1 POP SWAP2 SWAP1 POP JUMP JUMPDEST PUSH0 DUP3 DUP3 SHL SWAP1 POP SWAP3 SWAP2 POP POP JUMP JUMPDEST PUSH0 PUSH1 0x8 DUP4 MUL PUSH2 0x21A4 PUSH32 0xFFFFFFFFFFFFFFFFFFFFFFFFFFFFFFFFFFFFFFFFFFFFFFFFFFFFFFFFFFFFFFFF DUP3 PUSH2 0x2169 JUMP JUMPDEST PUSH2 0x21AE DUP7 DUP4 PUSH2 0x2169 JUMP JUMPDEST SWAP6 POP DUP1 NOT DUP5 AND SWAP4 POP DUP1 DUP7 AND DUP5 OR SWAP3 POP POP POP SWAP4 SWAP3 POP POP POP JUMP JUMPDEST PUSH0 DUP2 SWAP1 POP SWAP2 SWAP1 POP JUMP JUMPDEST PUSH0 PUSH2 0x21E9 PUSH2 0x21E4 PUSH2 0x21DF DUP5 PUSH2 0x16B1 JUMP JUMPDEST PUSH2 0x21C6 JUMP JUMPDEST PUSH2 0x16B1 JUMP JUMPDEST SWAP1 POP SWAP2 SWAP1 POP JUMP JUMPDEST PUSH0 DUP2 SWAP1 POP SWAP2 SWAP1 POP JUMP JUMPDEST PUSH2 0x2202 DUP4 PUSH2 0x21CF JUMP JUMPDEST PUSH2 0x2216 PUSH2 0x220E DUP3 PUSH2 0x21F0 JUMP JUMPDEST DUP5 DUP5 SLOAD PUSH2 0x2175 JUMP JUMPDEST DUP3 SSTORE POP POP POP POP JUMP JUMPDEST PUSH0 SWAP1 JUMP JUMPDEST PUSH2 0x222A PUSH2 0x221E JUMP JUMPDEST PUSH2 0x2235 DUP2 DUP5 DUP5 PUSH2 0x21F9 JUMP JUMPDEST POP POP POP JUMP JUMPDEST JUMPDEST DUP2 DUP2 LT ISZERO PUSH2 0x2258 JUMPI PUSH2 0x224D PUSH0 DUP3 PUSH2 0x2222 JUMP JUMPDEST PUSH1 0x1 DUP2 ADD SWAP1 POP PUSH2 0x223B JUMP JUMPDEST POP POP JUMP JUMPDEST PUSH1 0x1F DUP3 GT ISZERO PUSH2 0x229D JUMPI PUSH2 0x226E DUP2 PUSH2 0x2148 JUMP JUMPDEST PUSH2 0x2277 DUP5 PUSH2 0x215A JUMP JUMPDEST DUP2 ADD PUSH1 0x20 DUP6 LT ISZERO PUSH2 0x2286 JUMPI DUP2 SWAP1 POP JUMPDEST PUSH2 0x229A PUSH2 0x2292 DUP6 PUSH2 0x215A JUMP JUMPDEST DUP4 ADD DUP3 PUSH2 0x223A JUMP JUMPDEST POP POP JUMPDEST POP POP POP JUMP JUMPDEST PUSH0 DUP3 DUP3 SHR SWAP1 POP SWAP3 SWAP2 POP POP JUMP JUMPDEST PUSH0 PUSH2 0x22BD PUSH0 NOT DUP5 PUSH1 0x8 MUL PUSH2 0x22A2 JUMP JUMPDEST NOT DUP1 DUP4 AND SWAP2 POP POP SWAP3 SWAP2 POP POP JUMP JUMPDEST PUSH0 PUSH2 0x22D5 DUP4 DUP4 PUSH2 0x22AE JUMP JUMPDEST SWAP2 POP DUP3 PUSH1 0x2 MUL DUP3 OR SWAP1 POP SWAP3 SWAP2 POP POP JUMP JUMPDEST PUSH2 0x22EE DUP3 PUSH2 0x184F JUMP JUMPDEST PUSH8 0xFFFFFFFFFFFFFFFF DUP2 GT ISZERO PUSH2 0x2307 JUMPI PUSH2 0x2306 PUSH2 0x1A4E JUMP JUMPDEST JUMPDEST PUSH2 0x2311 DUP3 SLOAD PUSH2 0x1F45 JUMP JUMPDEST PUSH2 0x231C DUP3 DUP3 DUP6 PUSH2 0x225C JUMP JUMPDEST PUSH0 PUSH1 0x20 SWAP1 POP PUSH1 0x1F DUP4 GT PUSH1 0x1 DUP2 EQ PUSH2 0x234D JUMPI PUSH0 DUP5 ISZERO PUSH2 0x233B JUMPI DUP3 DUP8 ADD MLOAD SWAP1 POP JUMPDEST PUSH2 0x2345 DUP6 DUP3 PUSH2 0x22CA JUMP JUMPDEST DUP7 SSTORE POP PUSH2 0x23AC JUMP JUMPDEST PUSH1 0x1F NOT DUP5 AND PUSH2 0x235B DUP7 PUSH2 0x2148 JUMP JUMPDEST PUSH0 JUMPDEST DUP3 DUP2 LT ISZERO PUSH2 0x2382 JUMPI DUP5 DUP10 ADD MLOAD DUP3 SSTORE PUSH1 0x1 DUP3 ADD SWAP2 POP PUSH1 0x20 DUP6 ADD SWAP5 POP PUSH1 0x20 DUP2 ADD SWAP1 POP PUSH2 0x235D JUMP JUMPDEST DUP7 DUP4 LT ISZERO PUSH2 0x239F JUMPI DUP5 DUP10 ADD MLOAD PUSH2 0x239B PUSH1 0x1F DUP10 AND DUP3 PUSH2 0x22AE JUMP JUMPDEST DUP4 SSTORE POP JUMPDEST PUSH1 0x1 PUSH1 0x2 DUP9 MUL ADD DUP9 SSTORE POP POP POP JUMPDEST POP POP POP POP POP POP JUMP JUMPDEST PUSH0 PUSH1 0x40 DUP3 ADD SWAP1 POP PUSH2 0x23C7 PUSH0 DUP4 ADD DUP6 PUSH2 0x16BA JUMP JUMPDEST DUP2 DUP2 SUB PUSH1 0x20 DUP4 ADD MSTORE PUSH2 0x23D9 DUP2 DUP5 PUSH2 0x18A1 JUMP JUMPDEST SWAP1 POP SWAP4 SWAP3 POP POP POP JUMP JUMPDEST PUSH32 0x63616E6E6F742065786563757465207478000000000000000000000000000000 PUSH0 DUP3 ADD MSTORE POP JUMP JUMPDEST PUSH0 PUSH2 0x2416 PUSH1 0x11 DUP4 PUSH2 0x1BDE JUMP JUMPDEST SWAP2 POP PUSH2 0x2421 DUP3 PUSH2 0x23E2 JUMP JUMPDEST PUSH1 0x20 DUP3 ADD SWAP1 POP SWAP2 SWAP1 POP JUMP JUMPDEST PUSH0 PUSH1 0x20 DUP3 ADD SWAP1 POP DUP2 DUP2 SUB PUSH0 DUP4 ADD MSTORE PUSH2 0x2443 DUP2 PUSH2 0x240A JUMP JUMPDEST SWAP1 POP SWAP2 SWAP1 POP JUMP JUMPDEST PUSH0 DUP2 SWAP1 POP SWAP3 SWAP2 POP POP JUMP JUMPDEST PUSH0 DUP2 SLOAD PUSH2 0x2460 DUP2 PUSH2 0x1F45 JUMP JUMPDEST PUSH2 0x246A DUP2 DUP7 PUSH2 0x244A JUMP JUMPDEST SWAP5 POP PUSH1 0x1 DUP3 AND PUSH0 DUP2 EQ PUSH2 0x2484 JUMPI PUSH1 0x1 DUP2 EQ PUSH2 0x2499 JUMPI PUSH2 0x24CB JUMP JUMPDEST PUSH1 0xFF NOT DUP4 AND DUP7 MSTORE DUP2 ISZERO ISZERO DUP3 MUL DUP7 ADD SWAP4 POP PUSH2 0x24CB JUMP JUMPDEST PUSH2 0x24A2 DUP6 PUSH2 0x2148 JUMP JUMPDEST PUSH0 JUMPDEST DUP4 DUP2 LT ISZERO PUSH2 0x24C3 JUMPI DUP2 SLOAD DUP2 DUP10 ADD MSTORE PUSH1 0x1 DUP3 ADD SWAP2 POP PUSH1 0x20 DUP2 ADD SWAP1 POP PUSH2 0x24A4 JUMP JUMPDEST DUP4 DUP9 ADD SWAP6 POP POP POP JUMPDEST POP POP POP SWAP3 SWAP2 POP POP JUMP JUMPDEST PUSH0 PUSH2 0x24DF DUP3 DUP5 PUSH2 0x2454 JUMP JUMPDEST SWAP2 POP DUP2 SWAP1 POP SWAP3 SWAP2 POP POP JUMP JUMPDEST PUSH32 0x7478206661696C65640000000000000000000000000000000000000000000000 PUSH0 DUP3 ADD MSTORE POP JUMP JUMPDEST PUSH0 PUSH2 0x251E PUSH1 0x9 DUP4 PUSH2 0x1BDE JUMP JUMPDEST SWAP2 POP PUSH2 0x2529 DUP3 PUSH2 0x24EA JUMP JUMPDEST PUSH1 0x20 DUP3 ADD SWAP1 POP SWAP2 SWAP1 POP JUMP JUMPDEST PUSH0 PUSH1 0x20 DUP3 ADD SWAP1 POP DUP2 DUP2 SUB PUSH0 DUP4 ADD MSTORE PUSH2 0x254B DUP2 PUSH2 0x2512 JUMP JUMPDEST SWAP1 POP SWAP2 SWAP1 POP JUMP INVALID LOG2 PUSH5 0x6970667358 0x22 SLT KECCAK256 0xE5 0x21 DUP13 DUP9 DUP2 0xE2 RETURNDATACOPY CREATE2 CALLDATACOPY PUSH0 PUSH32 0xF83BDB392D91A85AA497F6A99B3B22A56F65ED00C964736F6C63430008170033 "
				},
				"gasEstimates": {
					"creation": {
						"codeDepositCost": "1921600",
						"executionCost": "infinite",
						"totalCost": "infinite"
					},
					"external": {
						"MAX_OWNERS()": "371",
						"addOwner(address)": "78969",
						"confirmTransaction(uint256)": "infinite",
						"executeTransaction(uint256)": "infinite",
						"getOwners()": "infinite",
						"getTransaction(uint256)": "infinite",
						"getTransactionCount()": "2485",
						"isConfirmed(uint256,address)": "3116",
						"isOwner(address)": "2900",
						"numConfirmationsRequired()": "2491",
						"owners(uint256)": "4967",
						"removeOwner(address)": "infinite",
						"revokeConfirmation(uint256)": "infinite",
						"submitTransaction(address,uint256,bytes)": "infinite",
						"transactions(uint256)": "infinite"
					}
				},
				"methodIdentifiers": {
					"MAX_OWNERS()": "0b8bb146",
					"addOwner(address)": "7065cb48",
					"confirmTransaction(uint256)": "c01a8c84",
					"executeTransaction(uint256)": "ee22610b",
					"getOwners()": "a0e67e2b",
					"getTransaction(uint256)": "33ea3dc8",
					"getTransactionCount()": "2e7700f0",
					"isConfirmed(uint256,address)": "80f59a65",
					"isOwner(address)": "2f54bf6e",
					"numConfirmationsRequired()": "d0549b85",
					"owners(uint256)": "025e7c27",
					"removeOwner(address)": "173825d9",
					"revokeConfirmation(uint256)": "20ea8d86",
					"submitTransaction(address,uint256,bytes)": "c6427474",
					"transactions(uint256)": "9ace38c2"
				}
			},
			"storageLayout": {
				"storage": [
					{
						"astId": 50,
						"contract": "newLevels/multisigLevelup.sol:MultiSigWallet",
						"label": "owners",
						"offset": 0,
						"slot": "0",
						"type": "t_array(t_address)dyn_storage"
					},
					{
						"astId": 54,
						"contract": "newLevels/multisigLevelup.sol:MultiSigWallet",
						"label": "isOwner",
						"offset": 0,
						"slot": "1",
						"type": "t_mapping(t_address,t_bool)"
					},
					{
						"astId": 60,
						"contract": "newLevels/multisigLevelup.sol:MultiSigWallet",
						"label": "numConfirmationsRequired",
						"offset": 0,
						"slot": "2",
						"type": "t_uint256"
					},
					{
						"astId": 77,
						"contract": "newLevels/multisigLevelup.sol:MultiSigWallet",
						"label": "isConfirmed",
						"offset": 0,
						"slot": "3",
						"type": "t_mapping(t_uint256,t_mapping(t_address,t_bool))"
					},
					{
						"astId": 81,
						"contract": "newLevels/multisigLevelup.sol:MultiSigWallet",
						"label": "transactions",
						"offset": 0,
						"slot": "4",
						"type": "t_array(t_struct(Transaction)71_storage)dyn_storage"
					}
				],
				"types": {
					"t_address": {
						"encoding": "inplace",
						"label": "address",
						"numberOfBytes": "20"
					},
					"t_array(t_address)dyn_storage": {
						"base": "t_address",
						"encoding": "dynamic_array",
						"label": "address[]",
						"numberOfBytes": "32"
					},
					"t_array(t_struct(Transaction)71_storage)dyn_storage": {
						"base": "t_struct(Transaction)71_storage",
						"encoding": "dynamic_array",
						"label": "struct MultiSigWallet.Transaction[]",
						"numberOfBytes": "32"
					},
					"t_bool": {
						"encoding": "inplace",
						"label": "bool",
						"numberOfBytes": "1"
					},
					"t_bytes_storage": {
						"encoding": "bytes",
						"label": "bytes",
						"numberOfBytes": "32"
					},
					"t_mapping(t_address,t_bool)": {
						"encoding": "mapping",
						"key": "t_address",
						"label": "mapping(address => bool)",
						"numberOfBytes": "32",
						"value": "t_bool"
					},
					"t_mapping(t_uint256,t_mapping(t_address,t_bool))": {
						"encoding": "mapping",
						"key": "t_uint256",
						"label": "mapping(uint256 => mapping(address => bool))",
						"numberOfBytes": "32",
						"value": "t_mapping(t_address,t_bool)"
					},
					"t_struct(Transaction)71_storage": {
						"encoding": "inplace",
						"label": "struct MultiSigWallet.Transaction",
						"members": [
							{
								"astId": 62,
								"contract": "newLevels/multisigLevelup.sol:MultiSigWallet",
								"label": "to",
								"offset": 0,
								"slot": "0",
								"type": "t_address"
							},
							{
								"astId": 64,
								"contract": "newLevels/multisigLevelup.sol:MultiSigWallet",
								"label": "value",
								"offset": 0,
								"slot": "1",
								"type": "t_uint256"
							},
							{
								"astId": 66,
								"contract": "newLevels/multisigLevelup.sol:MultiSigWallet",
								"label": "data",
								"offset": 0,
								"slot": "2",
								"type": "t_bytes_storage"
							},
							{
								"astId": 68,
								"contract": "newLevels/multisigLevelup.sol:MultiSigWallet",
								"label": "executed",
								"offset": 0,
								"slot": "3",
								"type": "t_bool"
							},
							{
								"astId": 70,
								"contract": "newLevels/multisigLevelup.sol:MultiSigWallet",
								"label": "numConfirmations",
								"offset": 0,
								"slot": "4",
								"type": "t_uint256"
							}
						],
						"numberOfBytes": "160"
					},
					"t_uint256": {
						"encoding": "inplace",
						"label": "uint256",
						"numberOfBytes": "32"
					}
				}
			},
			"userdoc": {
				"kind": "user",
				"methods": {},
				"version": 1
			}
		}
	}
}