{
	"newLevels/sexto.sol": {
		"ParentContract": {
			"abi": [
				{
					"inputs": [
						{
							"internalType": "address",
							"name": "_owner",
							"type": "address"
						}
					],
					"stateMutability": "nonpayable",
					"type": "constructor"
				},
				{
					"inputs": [],
					"name": "onlyOwner",
					"outputs": [],
					"stateMutability": "nonpayable",
					"type": "function"
				},
				{
					"inputs": [],
					"name": "owner",
					"outputs": [
						{
							"internalType": "address",
							"name": "",
							"type": "address"
						}
					],
					"stateMutability": "view",
					"type": "function"
				}
			],
			"devdoc": {
				"kind": "dev",
				"methods": {},
				"version": 1
			},
			"evm": {
				"assembly": "    /* \"newLevels/sexto.sol\":27:205  contract ParentContract {... */\n  mstore(0x40, 0x80)\n    /* \"newLevels/sexto.sol\":87:148  constructor(address _owner) {... */\n  callvalue\n  dup1\n  iszero\n  tag_1\n  jumpi\n  0x00\n  dup1\n  revert\ntag_1:\n  pop\n  mload(0x40)\n  sub(codesize, bytecodeSize)\n  dup1\n  bytecodeSize\n  dup4\n  codecopy\n  dup2\n  dup2\n  add\n  0x40\n  mstore\n  dup2\n  add\n  swap1\n  tag_2\n  swap2\n  swap1\n  tag_3\n  jump\t// in\ntag_2:\n    /* \"newLevels/sexto.sol\":134:140  _owner */\n  dup1\n    /* \"newLevels/sexto.sol\":126:131  owner */\n  0x00\n  dup1\n    /* \"newLevels/sexto.sol\":126:140  owner = _owner */\n  0x0100\n  exp\n  dup2\n  sload\n  dup2\n  0xffffffffffffffffffffffffffffffffffffffff\n  mul\n  not\n  and\n  swap1\n  dup4\n  0xffffffffffffffffffffffffffffffffffffffff\n  and\n  mul\n  or\n  swap1\n  sstore\n  pop\n    /* \"newLevels/sexto.sol\":87:148  constructor(address _owner) {... */\n  pop\n    /* \"newLevels/sexto.sol\":27:205  contract ParentContract {... */\n  jump(tag_6)\n    /* \"#utility.yul\":88:205   */\ntag_8:\n    /* \"#utility.yul\":197:198   */\n  0x00\n    /* \"#utility.yul\":194:195   */\n  dup1\n    /* \"#utility.yul\":187:199   */\n  revert\n    /* \"#utility.yul\":334:460   */\ntag_10:\n    /* \"#utility.yul\":371:378   */\n  0x00\n    /* \"#utility.yul\":411:453   */\n  0xffffffffffffffffffffffffffffffffffffffff\n    /* \"#utility.yul\":404:409   */\n  dup3\n    /* \"#utility.yul\":400:454   */\n  and\n    /* \"#utility.yul\":389:454   */\n  swap1\n  pop\n    /* \"#utility.yul\":334:460   */\n  swap2\n  swap1\n  pop\n  jump\t// out\n    /* \"#utility.yul\":466:562   */\ntag_11:\n    /* \"#utility.yul\":503:510   */\n  0x00\n    /* \"#utility.yul\":532:556   */\n  tag_20\n    /* \"#utility.yul\":550:555   */\n  dup3\n    /* \"#utility.yul\":532:556   */\n  tag_10\n  jump\t// in\ntag_20:\n    /* \"#utility.yul\":521:556   */\n  swap1\n  pop\n    /* \"#utility.yul\":466:562   */\n  swap2\n  swap1\n  pop\n  jump\t// out\n    /* \"#utility.yul\":568:690   */\ntag_12:\n    /* \"#utility.yul\":641:665   */\n  tag_22\n    /* \"#utility.yul\":659:664   */\n  dup2\n    /* \"#utility.yul\":641:665   */\n  tag_11\n  jump\t// in\ntag_22:\n    /* \"#utility.yul\":634:639   */\n  dup2\n    /* \"#utility.yul\":631:666   */\n  eq\n    /* \"#utility.yul\":621:684   */\n  tag_23\n  jumpi\n    /* \"#utility.yul\":680:681   */\n  0x00\n    /* \"#utility.yul\":677:678   */\n  dup1\n    /* \"#utility.yul\":670:682   */\n  revert\n    /* \"#utility.yul\":621:684   */\ntag_23:\n    /* \"#utility.yul\":568:690   */\n  pop\n  jump\t// out\n    /* \"#utility.yul\":696:839   */\ntag_13:\n    /* \"#utility.yul\":753:758   */\n  0x00\n    /* \"#utility.yul\":784:790   */\n  dup2\n    /* \"#utility.yul\":778:791   */\n  mload\n    /* \"#utility.yul\":769:791   */\n  swap1\n  pop\n    /* \"#utility.yul\":800:833   */\n  tag_25\n    /* \"#utility.yul\":827:832   */\n  dup2\n    /* \"#utility.yul\":800:833   */\n  tag_12\n  jump\t// in\ntag_25:\n    /* \"#utility.yul\":696:839   */\n  swap3\n  swap2\n  pop\n  pop\n  jump\t// out\n    /* \"#utility.yul\":845:1196   */\ntag_3:\n    /* \"#utility.yul\":915:921   */\n  0x00\n    /* \"#utility.yul\":964:966   */\n  0x20\n    /* \"#utility.yul\":952:961   */\n  dup3\n    /* \"#utility.yul\":943:950   */\n  dup5\n    /* \"#utility.yul\":939:962   */\n  sub\n    /* \"#utility.yul\":935:967   */\n  slt\n    /* \"#utility.yul\":932:1051   */\n  iszero\n  tag_27\n  jumpi\n    /* \"#utility.yul\":970:1049   */\n  tag_28\n  tag_8\n  jump\t// in\ntag_28:\n    /* \"#utility.yul\":932:1051   */\ntag_27:\n    /* \"#utility.yul\":1090:1091   */\n  0x00\n    /* \"#utility.yul\":1115:1179   */\n  tag_29\n    /* \"#utility.yul\":1171:1178   */\n  dup5\n    /* \"#utility.yul\":1162:1168   */\n  dup3\n    /* \"#utility.yul\":1151:1160   */\n  dup6\n    /* \"#utility.yul\":1147:1169   */\n  add\n    /* \"#utility.yul\":1115:1179   */\n  tag_13\n  jump\t// in\ntag_29:\n    /* \"#utility.yul\":1105:1179   */\n  swap2\n  pop\n    /* \"#utility.yul\":1061:1189   */\n  pop\n    /* \"#utility.yul\":845:1196   */\n  swap3\n  swap2\n  pop\n  pop\n  jump\t// out\n    /* \"newLevels/sexto.sol\":27:205  contract ParentContract {... */\ntag_6:\n  dataSize(sub_0)\n  dup1\n  dataOffset(sub_0)\n  0x00\n  codecopy\n  0x00\n  return\nstop\n\nsub_0: assembly {\n        /* \"newLevels/sexto.sol\":27:205  contract ParentContract {... */\n      mstore(0x40, 0x80)\n      callvalue\n      dup1\n      iszero\n      tag_1\n      jumpi\n      0x00\n      dup1\n      revert\n    tag_1:\n      pop\n      jumpi(tag_2, lt(calldatasize, 0x04))\n      shr(0xe0, calldataload(0x00))\n      dup1\n      0x1036e0a8\n      eq\n      tag_3\n      jumpi\n      dup1\n      0x8da5cb5b\n      eq\n      tag_4\n      jumpi\n    tag_2:\n      0x00\n      dup1\n      revert\n        /* \"newLevels/sexto.sol\":156:202  function onlyOwner() public virtual {... */\n    tag_3:\n      tag_5\n      tag_6\n      jump\t// in\n    tag_5:\n      stop\n        /* \"newLevels/sexto.sol\":58:78  address public owner */\n    tag_4:\n      tag_7\n      tag_8\n      jump\t// in\n    tag_7:\n      mload(0x40)\n      tag_9\n      swap2\n      swap1\n      tag_10\n      jump\t// in\n    tag_9:\n      mload(0x40)\n      dup1\n      swap2\n      sub\n      swap1\n      return\n        /* \"newLevels/sexto.sol\":156:202  function onlyOwner() public virtual {... */\n    tag_6:\n      jump\t// out\n        /* \"newLevels/sexto.sol\":58:78  address public owner */\n    tag_8:\n      0x00\n      dup1\n      sload\n      swap1\n      0x0100\n      exp\n      swap1\n      div\n      0xffffffffffffffffffffffffffffffffffffffff\n      and\n      dup2\n      jump\t// out\n        /* \"#utility.yul\":7:133   */\n    tag_12:\n        /* \"#utility.yul\":44:51   */\n      0x00\n        /* \"#utility.yul\":84:126   */\n      0xffffffffffffffffffffffffffffffffffffffff\n        /* \"#utility.yul\":77:82   */\n      dup3\n        /* \"#utility.yul\":73:127   */\n      and\n        /* \"#utility.yul\":62:127   */\n      swap1\n      pop\n        /* \"#utility.yul\":7:133   */\n      swap2\n      swap1\n      pop\n      jump\t// out\n        /* \"#utility.yul\":139:235   */\n    tag_13:\n        /* \"#utility.yul\":176:183   */\n      0x00\n        /* \"#utility.yul\":205:229   */\n      tag_18\n        /* \"#utility.yul\":223:228   */\n      dup3\n        /* \"#utility.yul\":205:229   */\n      tag_12\n      jump\t// in\n    tag_18:\n        /* \"#utility.yul\":194:229   */\n      swap1\n      pop\n        /* \"#utility.yul\":139:235   */\n      swap2\n      swap1\n      pop\n      jump\t// out\n        /* \"#utility.yul\":241:359   */\n    tag_14:\n        /* \"#utility.yul\":328:352   */\n      tag_20\n        /* \"#utility.yul\":346:351   */\n      dup2\n        /* \"#utility.yul\":328:352   */\n      tag_13\n      jump\t// in\n    tag_20:\n        /* \"#utility.yul\":323:326   */\n      dup3\n        /* \"#utility.yul\":316:353   */\n      mstore\n        /* \"#utility.yul\":241:359   */\n      pop\n      pop\n      jump\t// out\n        /* \"#utility.yul\":365:587   */\n    tag_10:\n        /* \"#utility.yul\":458:462   */\n      0x00\n        /* \"#utility.yul\":496:498   */\n      0x20\n        /* \"#utility.yul\":485:494   */\n      dup3\n        /* \"#utility.yul\":481:499   */\n      add\n        /* \"#utility.yul\":473:499   */\n      swap1\n      pop\n        /* \"#utility.yul\":509:580   */\n      tag_22\n        /* \"#utility.yul\":577:578   */\n      0x00\n        /* \"#utility.yul\":566:575   */\n      dup4\n        /* \"#utility.yul\":562:579   */\n      add\n        /* \"#utility.yul\":553:559   */\n      dup5\n        /* \"#utility.yul\":509:580   */\n      tag_14\n      jump\t// in\n    tag_22:\n        /* \"#utility.yul\":365:587   */\n      swap3\n      swap2\n      pop\n      pop\n      jump\t// out\n\n    auxdata: 0xa264697066735822122077770ec8a2a331147abd5d27bbda1f872b510821334a31dde51e18d470814cb764736f6c63430008170033\n}\n",
				"bytecode": {
					"linkReferences": {},
					"object": "608060405234801561000f575f80fd5b5060405161020f38038061020f833981810160405281019061003191906100d4565b805f806101000a81548173ffffffffffffffffffffffffffffffffffffffff021916908373ffffffffffffffffffffffffffffffffffffffff160217905550506100ff565b5f80fd5b5f73ffffffffffffffffffffffffffffffffffffffff82169050919050565b5f6100a38261007a565b9050919050565b6100b381610099565b81146100bd575f80fd5b50565b5f815190506100ce816100aa565b92915050565b5f602082840312156100e9576100e8610076565b5b5f6100f6848285016100c0565b91505092915050565b6101038061010c5f395ff3fe6080604052348015600e575f80fd5b50600436106030575f3560e01c80631036e0a81460345780638da5cb5b14603c575b5f80fd5b603a6056565b005b60426058565b604051604d919060b6565b60405180910390f35b565b5f8054906101000a900473ffffffffffffffffffffffffffffffffffffffff1681565b5f73ffffffffffffffffffffffffffffffffffffffff82169050919050565b5f60a282607b565b9050919050565b60b081609a565b82525050565b5f60208201905060c75f83018460a9565b9291505056fea264697066735822122077770ec8a2a331147abd5d27bbda1f872b510821334a31dde51e18d470814cb764736f6c63430008170033",
					"opcodes": "PUSH1 0x80 PUSH1 0x40 MSTORE CALLVALUE DUP1 ISZERO PUSH2 0xF JUMPI PUSH0 DUP1 REVERT JUMPDEST POP PUSH1 0x40 MLOAD PUSH2 0x20F CODESIZE SUB DUP1 PUSH2 0x20F DUP4 CODECOPY DUP2 DUP2 ADD PUSH1 0x40 MSTORE DUP2 ADD SWAP1 PUSH2 0x31 SWAP2 SWAP1 PUSH2 0xD4 JUMP JUMPDEST DUP1 PUSH0 DUP1 PUSH2 0x100 EXP DUP2 SLOAD DUP2 PUSH20 0xFFFFFFFFFFFFFFFFFFFFFFFFFFFFFFFFFFFFFFFF MUL NOT AND SWAP1 DUP4 PUSH20 0xFFFFFFFFFFFFFFFFFFFFFFFFFFFFFFFFFFFFFFFF AND MUL OR SWAP1 SSTORE POP POP PUSH2 0xFF JUMP JUMPDEST PUSH0 DUP1 REVERT JUMPDEST PUSH0 PUSH20 0xFFFFFFFFFFFFFFFFFFFFFFFFFFFFFFFFFFFFFFFF DUP3 AND SWAP1 POP SWAP2 SWAP1 POP JUMP JUMPDEST PUSH0 PUSH2 0xA3 DUP3 PUSH2 0x7A JUMP JUMPDEST SWAP1 POP SWAP2 SWAP1 POP JUMP JUMPDEST PUSH2 0xB3 DUP2 PUSH2 0x99 JUMP JUMPDEST DUP2 EQ PUSH2 0xBD JUMPI PUSH0 DUP1 REVERT JUMPDEST POP JUMP JUMPDEST PUSH0 DUP2 MLOAD SWAP1 POP PUSH2 0xCE DUP2 PUSH2 0xAA JUMP JUMPDEST SWAP3 SWAP2 POP POP JUMP JUMPDEST PUSH0 PUSH1 0x20 DUP3 DUP5 SUB SLT ISZERO PUSH2 0xE9 JUMPI PUSH2 0xE8 PUSH2 0x76 JUMP JUMPDEST JUMPDEST PUSH0 PUSH2 0xF6 DUP5 DUP3 DUP6 ADD PUSH2 0xC0 JUMP JUMPDEST SWAP2 POP POP SWAP3 SWAP2 POP POP JUMP JUMPDEST PUSH2 0x103 DUP1 PUSH2 0x10C PUSH0 CODECOPY PUSH0 RETURN INVALID PUSH1 0x80 PUSH1 0x40 MSTORE CALLVALUE DUP1 ISZERO PUSH1 0xE JUMPI PUSH0 DUP1 REVERT JUMPDEST POP PUSH1 0x4 CALLDATASIZE LT PUSH1 0x30 JUMPI PUSH0 CALLDATALOAD PUSH1 0xE0 SHR DUP1 PUSH4 0x1036E0A8 EQ PUSH1 0x34 JUMPI DUP1 PUSH4 0x8DA5CB5B EQ PUSH1 0x3C JUMPI JUMPDEST PUSH0 DUP1 REVERT JUMPDEST PUSH1 0x3A PUSH1 0x56 JUMP JUMPDEST STOP JUMPDEST PUSH1 0x42 PUSH1 0x58 JUMP JUMPDEST PUSH1 0x40 MLOAD PUSH1 0x4D SWAP2 SWAP1 PUSH1 0xB6 JUMP JUMPDEST PUSH1 0x40 MLOAD DUP1 SWAP2 SUB SWAP1 RETURN JUMPDEST JUMP JUMPDEST PUSH0 DUP1 SLOAD SWAP1 PUSH2 0x100 EXP SWAP1 DIV PUSH20 0xFFFFFFFFFFFFFFFFFFFFFFFFFFFFFFFFFFFFFFFF AND DUP2 JUMP JUMPDEST PUSH0 PUSH20 0xFFFFFFFFFFFFFFFFFFFFFFFFFFFFFFFFFFFFFFFF DUP3 AND SWAP1 POP SWAP2 SWAP1 POP JUMP JUMPDEST PUSH0 PUSH1 0xA2 DUP3 PUSH1 0x7B JUMP JUMPDEST SWAP1 POP SWAP2 SWAP1 POP JUMP JUMPDEST PUSH1 0xB0 DUP2 PUSH1 0x9A JUMP JUMPDEST DUP3 MSTORE POP POP JUMP JUMPDEST PUSH0 PUSH1 0x20 DUP3 ADD SWAP1 POP PUSH1 0xC7 PUSH0 DUP4 ADD DUP5 PUSH1 0xA9 JUMP JUMPDEST SWAP3 SWAP2 POP POP JUMP INVALID LOG2 PUSH5 0x6970667358 0x22 SLT KECCAK256 PUSH24 0x770EC8A2A331147ABD5D27BBDA1F872B510821334A31DDE5 0x1E XOR 0xD4 PUSH17 0x814CB764736F6C63430008170033000000 "
				},
				"gasEstimates": {
					"creation": {
						"codeDepositCost": "51800",
						"executionCost": "infinite",
						"totalCost": "infinite"
					},
					"external": {
						"onlyOwner()": "121",
						"owner()": "2505"
					}
				},
				"methodIdentifiers": {
					"onlyOwner()": "1036e0a8",
					"owner()": "8da5cb5b"
				}
			},
			"storageLayout": {
				"storage": [
					{
						"astId": 3,
						"contract": "newLevels/sexto.sol:ParentContract",
						"label": "owner",
						"offset": 0,
						"slot": "0",
						"type": "t_address"
					}
				],
				"types": {
					"t_address": {
						"encoding": "inplace",
						"label": "address",
						"numberOfBytes": "20"
					}
				}
			},
			"userdoc": {
				"kind": "user",
				"methods": {},
				"version": 1
			}
		}
	}
}