{
	"data": {
		"bytecode": {
			"linkReferences": {},
			"object": "60806040523480156200001157600080fd5b5060405162000f2738038062000f27833981810160405281019062000037919062000266565b81600190816200004891906200050d565b50336000806101000a81548173ffffffffffffffffffffffffffffffffffffffff021916908373ffffffffffffffffffffffffffffffffffffffff160217905550806002819055505050620005f4565b6000604051905090565b600080fd5b600080fd5b600080fd5b600080fd5b6000601f19601f8301169050919050565b7f4e487b7100000000000000000000000000000000000000000000000000000000600052604160045260246000fd5b6200010182620000b6565b810181811067ffffffffffffffff82111715620001235762000122620000c7565b5b80604052505050565b60006200013862000098565b9050620001468282620000f6565b919050565b600067ffffffffffffffff821115620001695762000168620000c7565b5b6200017482620000b6565b9050602081019050919050565b60005b83811015620001a157808201518184015260208101905062000184565b60008484015250505050565b6000620001c4620001be846200014b565b6200012c565b905082815260208101848484011115620001e357620001e2620000b1565b5b620001f084828562000181565b509392505050565b600082601f83011262000210576200020f620000ac565b5b815162000222848260208601620001ad565b91505092915050565b6000819050919050565b62000240816200022b565b81146200024c57600080fd5b50565b600081519050620002608162000235565b92915050565b6000806040838503121562000280576200027f620000a2565b5b600083015167ffffffffffffffff811115620002a157620002a0620000a7565b5b620002af85828601620001f8565b9250506020620002c2858286016200024f565b9150509250929050565b600081519050919050565b7f4e487b7100000000000000000000000000000000000000000000000000000000600052602260045260246000fd5b600060028204905060018216806200031f57607f821691505b602082108103620003355762000334620002d7565b5b50919050565b60008190508160005260206000209050919050565b60006020601f8301049050919050565b600082821b905092915050565b6000600883026200039f7fffffffffffffffffffffffffffffffffffffffffffffffffffffffffffffffff8262000360565b620003ab868362000360565b95508019841693508086168417925050509392505050565b6000819050919050565b6000620003ee620003e8620003e2846200022b565b620003c3565b6200022b565b9050919050565b6000819050919050565b6200040a83620003cd565b620004226200041982620003f5565b8484546200036d565b825550505050565b600090565b620004396200042a565b62000446818484620003ff565b505050565b5b818110156200046e57620004626000826200042f565b6001810190506200044c565b5050565b601f821115620004bd5762000487816200033b565b620004928462000350565b81016020851015620004a2578190505b620004ba620004b18562000350565b8301826200044b565b50505b505050565b600082821c905092915050565b6000620004e260001984600802620004c2565b1980831691505092915050565b6000620004fd8383620004cf565b9150826002028217905092915050565b6200051882620002cc565b67ffffffffffffffff811115620005345762000533620000c7565b5b62000540825462000306565b6200054d82828562000472565b600060209050601f83116001811462000585576000841562000570578287015190505b6200057c8582620004ef565b865550620005ec565b601f19841662000595866200033b565b60005b82811015620005bf5784890151825560018201915060208501945060208101905062000598565b86831015620005df5784890151620005db601f891682620004cf565b8355505b6001600288020188555050505b505050505050565b61092380620006046000396000f3fe608060405234801561001057600080fd5b506004361061007d5760003560e01c806367e69c3e1161005b57806367e69c3e146100da578063771602f7146100f85780638da5cb5b14610129578063f9633930146101475761007d565b80631a72dd39146100825780635db3786e1461009e57806365372147146100bc575b600080fd5b61009c60048036038101906100979190610452565b610165565b005b6100a66101ec565b6040516100b3919061048e565b60405180910390f35b6100c46101f2565b6040516100d1919061048e565b60405180910390f35b6100e26101f8565b6040516100ef919061048e565b60405180910390f35b610112600480360381019061010d91906104a9565b6101fe565b6040516101209291906104e9565b60405180910390f35b6101316102d3565b60405161013e9190610553565b60405180910390f35b61014f6102f7565b60405161015c91906105fe565b60405180910390f35b60025481146101a9576040517f08c379a00000000000000000000000000000000000000000000000000000000081526004016101a090610692565b60405180910390fd5b336000806101000a81548173ffffffffffffffffffffffffffffffffffffffff021916908373ffffffffffffffffffffffffffffffffffffffff16021790555050565b60055481565b60035481565b60045481565b600080621e84805a10610246576040517f08c379a000000000000000000000000000000000000000000000000000000000815260040161023d906106fe565b60405180910390fd5b5a6004819055508284610259919061074d565b6003819055505a6005819055506005546004546102769190610781565b600281905550620f42405a10156102c2576040517f08c379a00000000000000000000000000000000000000000000000000000000081526004016102b990610801565b60405180910390fd5b600454600554915091509250929050565b60008054906101000a900473ffffffffffffffffffffffffffffffffffffffff1681565b606060008054906101000a900473ffffffffffffffffffffffffffffffffffffffff1673ffffffffffffffffffffffffffffffffffffffff163373ffffffffffffffffffffffffffffffffffffffff1614610387576040517f08c379a000000000000000000000000000000000000000000000000000000000815260040161037e9061086d565b60405180910390fd5b60018054610394906108bc565b80601f01602080910402602001604051908101604052809291908181526020018280546103c0906108bc565b801561040d5780601f106103e25761010080835404028352916020019161040d565b820191906000526020600020905b8154815290600101906020018083116103f057829003601f168201915b5050505050905090565b600080fd5b6000819050919050565b61042f8161041c565b811461043a57600080fd5b50565b60008135905061044c81610426565b92915050565b60006020828403121561046857610467610417565b5b60006104768482850161043d565b91505092915050565b6104888161041c565b82525050565b60006020820190506104a3600083018461047f565b92915050565b600080604083850312156104c0576104bf610417565b5b60006104ce8582860161043d565b92505060206104df8582860161043d565b9150509250929050565b60006040820190506104fe600083018561047f565b61050b602083018461047f565b9392505050565b600073ffffffffffffffffffffffffffffffffffffffff82169050919050565b600061053d82610512565b9050919050565b61054d81610532565b82525050565b60006020820190506105686000830184610544565b92915050565b600081519050919050565b600082825260208201905092915050565b60005b838110156105a857808201518184015260208101905061058d565b60008484015250505050565b6000601f19601f8301169050919050565b60006105d08261056e565b6105da8185610579565b93506105ea81856020860161058a565b6105f3816105b4565b840191505092915050565b6000602082019050818103600083015261061881846105c5565b905092915050565b7f4e6f7420616363757261746520656e6f756768742c206b65657020747279696e60008201527f6700000000000000000000000000000000000000000000000000000000000000602082015250565b600061067c602183610579565b915061068782610620565b604082019050919050565b600060208201905081810360008301526106ab8161066f565b9050919050565b7f546f206d616e79206761732070726f7669646564000000000000000000000000600082015250565b60006106e8601483610579565b91506106f3826106b2565b602082019050919050565b60006020820190508181036000830152610717816106db565b9050919050565b7f4e487b7100000000000000000000000000000000000000000000000000000000600052601160045260246000fd5b60006107588261041c565b91506107638361041c565b925082820190508082111561077b5761077a61071e565b5b92915050565b600061078c8261041c565b91506107978361041c565b92508282039050818111156107af576107ae61071e565b5b92915050565b7f4e6f742067617320656e6f756768740000000000000000000000000000000000600082015250565b60006107eb600f83610579565b91506107f6826107b5565b602082019050919050565b6000602082019050818103600083015261081a816107de565b9050919050565b7f596f7520617265206e6f7420746865206f776e65720000000000000000000000600082015250565b6000610857601583610579565b915061086282610821565b602082019050919050565b600060208201905081810360008301526108868161084a565b9050919050565b7f4e487b7100000000000000000000000000000000000000000000000000000000600052602260045260246000fd5b600060028204905060018216806108d457607f821691505b6020821081036108e7576108e661088d565b5b5091905056fea2646970667358221220abaf962940a70f730243a36788746ccec05f75f63d48dc916aedf5049f8b016164736f6c63430008120033",
			"opcodes": "PUSH1 0x80 PUSH1 0x40 MSTORE CALLVALUE DUP1 ISZERO PUSH3 0x11 JUMPI PUSH1 0x0 DUP1 REVERT JUMPDEST POP PUSH1 0x40 MLOAD PUSH3 0xF27 CODESIZE SUB DUP1 PUSH3 0xF27 DUP4 CODECOPY DUP2 DUP2 ADD PUSH1 0x40 MSTORE DUP2 ADD SWAP1 PUSH3 0x37 SWAP2 SWAP1 PUSH3 0x266 JUMP JUMPDEST DUP2 PUSH1 0x1 SWAP1 DUP2 PUSH3 0x48 SWAP2 SWAP1 PUSH3 0x50D JUMP JUMPDEST POP CALLER PUSH1 0x0 DUP1 PUSH2 0x100 EXP DUP2 SLOAD DUP2 PUSH20 0xFFFFFFFFFFFFFFFFFFFFFFFFFFFFFFFFFFFFFFFF MUL NOT AND SWAP1 DUP4 PUSH20 0xFFFFFFFFFFFFFFFFFFFFFFFFFFFFFFFFFFFFFFFF AND MUL OR SWAP1 SSTORE POP DUP1 PUSH1 0x2 DUP2 SWAP1 SSTORE POP POP POP PUSH3 0x5F4 JUMP JUMPDEST PUSH1 0x0 PUSH1 0x40 MLOAD SWAP1 POP SWAP1 JUMP JUMPDEST PUSH1 0x0 DUP1 REVERT JUMPDEST PUSH1 0x0 DUP1 REVERT JUMPDEST PUSH1 0x0 DUP1 REVERT JUMPDEST PUSH1 0x0 DUP1 REVERT JUMPDEST PUSH1 0x0 PUSH1 0x1F NOT PUSH1 0x1F DUP4 ADD AND SWAP1 POP SWAP2 SWAP1 POP JUMP JUMPDEST PUSH32 0x4E487B7100000000000000000000000000000000000000000000000000000000 PUSH1 0x0 MSTORE PUSH1 0x41 PUSH1 0x4 MSTORE PUSH1 0x24 PUSH1 0x0 REVERT JUMPDEST PUSH3 0x101 DUP3 PUSH3 0xB6 JUMP JUMPDEST DUP2 ADD DUP2 DUP2 LT PUSH8 0xFFFFFFFFFFFFFFFF DUP3 GT OR ISZERO PUSH3 0x123 JUMPI PUSH3 0x122 PUSH3 0xC7 JUMP JUMPDEST JUMPDEST DUP1 PUSH1 0x40 MSTORE POP POP POP JUMP JUMPDEST PUSH1 0x0 PUSH3 0x138 PUSH3 0x98 JUMP JUMPDEST SWAP1 POP PUSH3 0x146 DUP3 DUP3 PUSH3 0xF6 JUMP JUMPDEST SWAP2 SWAP1 POP JUMP JUMPDEST PUSH1 0x0 PUSH8 0xFFFFFFFFFFFFFFFF DUP3 GT ISZERO PUSH3 0x169 JUMPI PUSH3 0x168 PUSH3 0xC7 JUMP JUMPDEST JUMPDEST PUSH3 0x174 DUP3 PUSH3 0xB6 JUMP JUMPDEST SWAP1 POP PUSH1 0x20 DUP2 ADD SWAP1 POP SWAP2 SWAP1 POP JUMP JUMPDEST PUSH1 0x0 JUMPDEST DUP4 DUP2 LT ISZERO PUSH3 0x1A1 JUMPI DUP1 DUP3 ADD MLOAD DUP2 DUP5 ADD MSTORE PUSH1 0x20 DUP2 ADD SWAP1 POP PUSH3 0x184 JUMP JUMPDEST PUSH1 0x0 DUP5 DUP5 ADD MSTORE POP POP POP POP JUMP JUMPDEST PUSH1 0x0 PUSH3 0x1C4 PUSH3 0x1BE DUP5 PUSH3 0x14B JUMP JUMPDEST PUSH3 0x12C JUMP JUMPDEST SWAP1 POP DUP3 DUP2 MSTORE PUSH1 0x20 DUP2 ADD DUP5 DUP5 DUP5 ADD GT ISZERO PUSH3 0x1E3 JUMPI PUSH3 0x1E2 PUSH3 0xB1 JUMP JUMPDEST JUMPDEST PUSH3 0x1F0 DUP5 DUP3 DUP6 PUSH3 0x181 JUMP JUMPDEST POP SWAP4 SWAP3 POP POP POP JUMP JUMPDEST PUSH1 0x0 DUP3 PUSH1 0x1F DUP4 ADD SLT PUSH3 0x210 JUMPI PUSH3 0x20F PUSH3 0xAC JUMP JUMPDEST JUMPDEST DUP2 MLOAD PUSH3 0x222 DUP5 DUP3 PUSH1 0x20 DUP7 ADD PUSH3 0x1AD JUMP JUMPDEST SWAP2 POP POP SWAP3 SWAP2 POP POP JUMP JUMPDEST PUSH1 0x0 DUP2 SWAP1 POP SWAP2 SWAP1 POP JUMP JUMPDEST PUSH3 0x240 DUP2 PUSH3 0x22B JUMP JUMPDEST DUP2 EQ PUSH3 0x24C JUMPI PUSH1 0x0 DUP1 REVERT JUMPDEST POP JUMP JUMPDEST PUSH1 0x0 DUP2 MLOAD SWAP1 POP PUSH3 0x260 DUP2 PUSH3 0x235 JUMP JUMPDEST SWAP3 SWAP2 POP POP JUMP JUMPDEST PUSH1 0x0 DUP1 PUSH1 0x40 DUP4 DUP6 SUB SLT ISZERO PUSH3 0x280 JUMPI PUSH3 0x27F PUSH3 0xA2 JUMP JUMPDEST JUMPDEST PUSH1 0x0 DUP4 ADD MLOAD PUSH8 0xFFFFFFFFFFFFFFFF DUP2 GT ISZERO PUSH3 0x2A1 JUMPI PUSH3 0x2A0 PUSH3 0xA7 JUMP JUMPDEST JUMPDEST PUSH3 0x2AF DUP6 DUP3 DUP7 ADD PUSH3 0x1F8 JUMP JUMPDEST SWAP3 POP POP PUSH1 0x20 PUSH3 0x2C2 DUP6 DUP3 DUP7 ADD PUSH3 0x24F JUMP JUMPDEST SWAP2 POP POP SWAP3 POP SWAP3 SWAP1 POP JUMP JUMPDEST PUSH1 0x0 DUP2 MLOAD SWAP1 POP SWAP2 SWAP1 POP JUMP JUMPDEST PUSH32 0x4E487B7100000000000000000000000000000000000000000000000000000000 PUSH1 0x0 MSTORE PUSH1 0x22 PUSH1 0x4 MSTORE PUSH1 0x24 PUSH1 0x0 REVERT JUMPDEST PUSH1 0x0 PUSH1 0x2 DUP3 DIV SWAP1 POP PUSH1 0x1 DUP3 AND DUP1 PUSH3 0x31F JUMPI PUSH1 0x7F DUP3 AND SWAP2 POP JUMPDEST PUSH1 0x20 DUP3 LT DUP2 SUB PUSH3 0x335 JUMPI PUSH3 0x334 PUSH3 0x2D7 JUMP JUMPDEST JUMPDEST POP SWAP2 SWAP1 POP JUMP JUMPDEST PUSH1 0x0 DUP2 SWAP1 POP DUP2 PUSH1 0x0 MSTORE PUSH1 0x20 PUSH1 0x0 KECCAK256 SWAP1 POP SWAP2 SWAP1 POP JUMP JUMPDEST PUSH1 0x0 PUSH1 0x20 PUSH1 0x1F DUP4 ADD DIV SWAP1 POP SWAP2 SWAP1 POP JUMP JUMPDEST PUSH1 0x0 DUP3 DUP3 SHL SWAP1 POP SWAP3 SWAP2 POP POP JUMP JUMPDEST PUSH1 0x0 PUSH1 0x8 DUP4 MUL PUSH3 0x39F PUSH32 0xFFFFFFFFFFFFFFFFFFFFFFFFFFFFFFFFFFFFFFFFFFFFFFFFFFFFFFFFFFFFFFFF DUP3 PUSH3 0x360 JUMP JUMPDEST PUSH3 0x3AB DUP7 DUP4 PUSH3 0x360 JUMP JUMPDEST SWAP6 POP DUP1 NOT DUP5 AND SWAP4 POP DUP1 DUP7 AND DUP5 OR SWAP3 POP POP POP SWAP4 SWAP3 POP POP POP JUMP JUMPDEST PUSH1 0x0 DUP2 SWAP1 POP SWAP2 SWAP1 POP JUMP JUMPDEST PUSH1 0x0 PUSH3 0x3EE PUSH3 0x3E8 PUSH3 0x3E2 DUP5 PUSH3 0x22B JUMP JUMPDEST PUSH3 0x3C3 JUMP JUMPDEST PUSH3 0x22B JUMP JUMPDEST SWAP1 POP SWAP2 SWAP1 POP JUMP JUMPDEST PUSH1 0x0 DUP2 SWAP1 POP SWAP2 SWAP1 POP JUMP JUMPDEST PUSH3 0x40A DUP4 PUSH3 0x3CD JUMP JUMPDEST PUSH3 0x422 PUSH3 0x419 DUP3 PUSH3 0x3F5 JUMP JUMPDEST DUP5 DUP5 SLOAD PUSH3 0x36D JUMP JUMPDEST DUP3 SSTORE POP POP POP POP JUMP JUMPDEST PUSH1 0x0 SWAP1 JUMP JUMPDEST PUSH3 0x439 PUSH3 0x42A JUMP JUMPDEST PUSH3 0x446 DUP2 DUP5 DUP5 PUSH3 0x3FF JUMP JUMPDEST POP POP POP JUMP JUMPDEST JUMPDEST DUP2 DUP2 LT ISZERO PUSH3 0x46E JUMPI PUSH3 0x462 PUSH1 0x0 DUP3 PUSH3 0x42F JUMP JUMPDEST PUSH1 0x1 DUP2 ADD SWAP1 POP PUSH3 0x44C JUMP JUMPDEST POP POP JUMP JUMPDEST PUSH1 0x1F DUP3 GT ISZERO PUSH3 0x4BD JUMPI PUSH3 0x487 DUP2 PUSH3 0x33B JUMP JUMPDEST PUSH3 0x492 DUP5 PUSH3 0x350 JUMP JUMPDEST DUP2 ADD PUSH1 0x20 DUP6 LT ISZERO PUSH3 0x4A2 JUMPI DUP2 SWAP1 POP JUMPDEST PUSH3 0x4BA PUSH3 0x4B1 DUP6 PUSH3 0x350 JUMP JUMPDEST DUP4 ADD DUP3 PUSH3 0x44B JUMP JUMPDEST POP POP JUMPDEST POP POP POP JUMP JUMPDEST PUSH1 0x0 DUP3 DUP3 SHR SWAP1 POP SWAP3 SWAP2 POP POP JUMP JUMPDEST PUSH1 0x0 PUSH3 0x4E2 PUSH1 0x0 NOT DUP5 PUSH1 0x8 MUL PUSH3 0x4C2 JUMP JUMPDEST NOT DUP1 DUP4 AND SWAP2 POP POP SWAP3 SWAP2 POP POP JUMP JUMPDEST PUSH1 0x0 PUSH3 0x4FD DUP4 DUP4 PUSH3 0x4CF JUMP JUMPDEST SWAP2 POP DUP3 PUSH1 0x2 MUL DUP3 OR SWAP1 POP SWAP3 SWAP2 POP POP JUMP JUMPDEST PUSH3 0x518 DUP3 PUSH3 0x2CC JUMP JUMPDEST PUSH8 0xFFFFFFFFFFFFFFFF DUP2 GT ISZERO PUSH3 0x534 JUMPI PUSH3 0x533 PUSH3 0xC7 JUMP JUMPDEST JUMPDEST PUSH3 0x540 DUP3 SLOAD PUSH3 0x306 JUMP JUMPDEST PUSH3 0x54D DUP3 DUP3 DUP6 PUSH3 0x472 JUMP JUMPDEST PUSH1 0x0 PUSH1 0x20 SWAP1 POP PUSH1 0x1F DUP4 GT PUSH1 0x1 DUP2 EQ PUSH3 0x585 JUMPI PUSH1 0x0 DUP5 ISZERO PUSH3 0x570 JUMPI DUP3 DUP8 ADD MLOAD SWAP1 POP JUMPDEST PUSH3 0x57C DUP6 DUP3 PUSH3 0x4EF JUMP JUMPDEST DUP7 SSTORE POP PUSH3 0x5EC JUMP JUMPDEST PUSH1 0x1F NOT DUP5 AND PUSH3 0x595 DUP7 PUSH3 0x33B JUMP JUMPDEST PUSH1 0x0 JUMPDEST DUP3 DUP2 LT ISZERO PUSH3 0x5BF JUMPI DUP5 DUP10 ADD MLOAD DUP3 SSTORE PUSH1 0x1 DUP3 ADD SWAP2 POP PUSH1 0x20 DUP6 ADD SWAP5 POP PUSH1 0x20 DUP2 ADD SWAP1 POP PUSH3 0x598 JUMP JUMPDEST DUP7 DUP4 LT ISZERO PUSH3 0x5DF JUMPI DUP5 DUP10 ADD MLOAD PUSH3 0x5DB PUSH1 0x1F DUP10 AND DUP3 PUSH3 0x4CF JUMP JUMPDEST DUP4 SSTORE POP JUMPDEST PUSH1 0x1 PUSH1 0x2 DUP9 MUL ADD DUP9 SSTORE POP POP POP JUMPDEST POP POP POP POP POP POP JUMP JUMPDEST PUSH2 0x923 DUP1 PUSH3 0x604 PUSH1 0x0 CODECOPY PUSH1 0x0 RETURN INVALID PUSH1 0x80 PUSH1 0x40 MSTORE CALLVALUE DUP1 ISZERO PUSH2 0x10 JUMPI PUSH1 0x0 DUP1 REVERT JUMPDEST POP PUSH1 0x4 CALLDATASIZE LT PUSH2 0x7D JUMPI PUSH1 0x0 CALLDATALOAD PUSH1 0xE0 SHR DUP1 PUSH4 0x67E69C3E GT PUSH2 0x5B JUMPI DUP1 PUSH4 0x67E69C3E EQ PUSH2 0xDA JUMPI DUP1 PUSH4 0x771602F7 EQ PUSH2 0xF8 JUMPI DUP1 PUSH4 0x8DA5CB5B EQ PUSH2 0x129 JUMPI DUP1 PUSH4 0xF9633930 EQ PUSH2 0x147 JUMPI PUSH2 0x7D JUMP JUMPDEST DUP1 PUSH4 0x1A72DD39 EQ PUSH2 0x82 JUMPI DUP1 PUSH4 0x5DB3786E EQ PUSH2 0x9E JUMPI DUP1 PUSH4 0x65372147 EQ PUSH2 0xBC JUMPI JUMPDEST PUSH1 0x0 DUP1 REVERT JUMPDEST PUSH2 0x9C PUSH1 0x4 DUP1 CALLDATASIZE SUB DUP2 ADD SWAP1 PUSH2 0x97 SWAP2 SWAP1 PUSH2 0x452 JUMP JUMPDEST PUSH2 0x165 JUMP JUMPDEST STOP JUMPDEST PUSH2 0xA6 PUSH2 0x1EC JUMP JUMPDEST PUSH1 0x40 MLOAD PUSH2 0xB3 SWAP2 SWAP1 PUSH2 0x48E JUMP JUMPDEST PUSH1 0x40 MLOAD DUP1 SWAP2 SUB SWAP1 RETURN JUMPDEST PUSH2 0xC4 PUSH2 0x1F2 JUMP JUMPDEST PUSH1 0x40 MLOAD PUSH2 0xD1 SWAP2 SWAP1 PUSH2 0x48E JUMP JUMPDEST PUSH1 0x40 MLOAD DUP1 SWAP2 SUB SWAP1 RETURN JUMPDEST PUSH2 0xE2 PUSH2 0x1F8 JUMP JUMPDEST PUSH1 0x40 MLOAD PUSH2 0xEF SWAP2 SWAP1 PUSH2 0x48E JUMP JUMPDEST PUSH1 0x40 MLOAD DUP1 SWAP2 SUB SWAP1 RETURN JUMPDEST PUSH2 0x112 PUSH1 0x4 DUP1 CALLDATASIZE SUB DUP2 ADD SWAP1 PUSH2 0x10D SWAP2 SWAP1 PUSH2 0x4A9 JUMP JUMPDEST PUSH2 0x1FE JUMP JUMPDEST PUSH1 0x40 MLOAD PUSH2 0x120 SWAP3 SWAP2 SWAP1 PUSH2 0x4E9 JUMP JUMPDEST PUSH1 0x40 MLOAD DUP1 SWAP2 SUB SWAP1 RETURN JUMPDEST PUSH2 0x131 PUSH2 0x2D3 JUMP JUMPDEST PUSH1 0x40 MLOAD PUSH2 0x13E SWAP2 SWAP1 PUSH2 0x553 JUMP JUMPDEST PUSH1 0x40 MLOAD DUP1 SWAP2 SUB SWAP1 RETURN JUMPDEST PUSH2 0x14F PUSH2 0x2F7 JUMP JUMPDEST PUSH1 0x40 MLOAD PUSH2 0x15C SWAP2 SWAP1 PUSH2 0x5FE JUMP JUMPDEST PUSH1 0x40 MLOAD DUP1 SWAP2 SUB SWAP1 RETURN JUMPDEST PUSH1 0x2 SLOAD DUP2 EQ PUSH2 0x1A9 JUMPI PUSH1 0x40 MLOAD PUSH32 0x8C379A000000000000000000000000000000000000000000000000000000000 DUP2 MSTORE PUSH1 0x4 ADD PUSH2 0x1A0 SWAP1 PUSH2 0x692 JUMP JUMPDEST PUSH1 0x40 MLOAD DUP1 SWAP2 SUB SWAP1 REVERT JUMPDEST CALLER PUSH1 0x0 DUP1 PUSH2 0x100 EXP DUP2 SLOAD DUP2 PUSH20 0xFFFFFFFFFFFFFFFFFFFFFFFFFFFFFFFFFFFFFFFF MUL NOT AND SWAP1 DUP4 PUSH20 0xFFFFFFFFFFFFFFFFFFFFFFFFFFFFFFFFFFFFFFFF AND MUL OR SWAP1 SSTORE POP POP JUMP JUMPDEST PUSH1 0x5 SLOAD DUP2 JUMP JUMPDEST PUSH1 0x3 SLOAD DUP2 JUMP JUMPDEST PUSH1 0x4 SLOAD DUP2 JUMP JUMPDEST PUSH1 0x0 DUP1 PUSH3 0x1E8480 GAS LT PUSH2 0x246 JUMPI PUSH1 0x40 MLOAD PUSH32 0x8C379A000000000000000000000000000000000000000000000000000000000 DUP2 MSTORE PUSH1 0x4 ADD PUSH2 0x23D SWAP1 PUSH2 0x6FE JUMP JUMPDEST PUSH1 0x40 MLOAD DUP1 SWAP2 SUB SWAP1 REVERT JUMPDEST GAS PUSH1 0x4 DUP2 SWAP1 SSTORE POP DUP3 DUP5 PUSH2 0x259 SWAP2 SWAP1 PUSH2 0x74D JUMP JUMPDEST PUSH1 0x3 DUP2 SWAP1 SSTORE POP GAS PUSH1 0x5 DUP2 SWAP1 SSTORE POP PUSH1 0x5 SLOAD PUSH1 0x4 SLOAD PUSH2 0x276 SWAP2 SWAP1 PUSH2 0x781 JUMP JUMPDEST PUSH1 0x2 DUP2 SWAP1 SSTORE POP PUSH3 0xF4240 GAS LT ISZERO PUSH2 0x2C2 JUMPI PUSH1 0x40 MLOAD PUSH32 0x8C379A000000000000000000000000000000000000000000000000000000000 DUP2 MSTORE PUSH1 0x4 ADD PUSH2 0x2B9 SWAP1 PUSH2 0x801 JUMP JUMPDEST PUSH1 0x40 MLOAD DUP1 SWAP2 SUB SWAP1 REVERT JUMPDEST PUSH1 0x4 SLOAD PUSH1 0x5 SLOAD SWAP2 POP SWAP2 POP SWAP3 POP SWAP3 SWAP1 POP JUMP JUMPDEST PUSH1 0x0 DUP1 SLOAD SWAP1 PUSH2 0x100 EXP SWAP1 DIV PUSH20 0xFFFFFFFFFFFFFFFFFFFFFFFFFFFFFFFFFFFFFFFF AND DUP2 JUMP JUMPDEST PUSH1 0x60 PUSH1 0x0 DUP1 SLOAD SWAP1 PUSH2 0x100 EXP SWAP1 DIV PUSH20 0xFFFFFFFFFFFFFFFFFFFFFFFFFFFFFFFFFFFFFFFF AND PUSH20 0xFFFFFFFFFFFFFFFFFFFFFFFFFFFFFFFFFFFFFFFF AND CALLER PUSH20 0xFFFFFFFFFFFFFFFFFFFFFFFFFFFFFFFFFFFFFFFF AND EQ PUSH2 0x387 JUMPI PUSH1 0x40 MLOAD PUSH32 0x8C379A000000000000000000000000000000000000000000000000000000000 DUP2 MSTORE PUSH1 0x4 ADD PUSH2 0x37E SWAP1 PUSH2 0x86D JUMP JUMPDEST PUSH1 0x40 MLOAD DUP1 SWAP2 SUB SWAP1 REVERT JUMPDEST PUSH1 0x1 DUP1 SLOAD PUSH2 0x394 SWAP1 PUSH2 0x8BC JUMP JUMPDEST DUP1 PUSH1 0x1F ADD PUSH1 0x20 DUP1 SWAP2 DIV MUL PUSH1 0x20 ADD PUSH1 0x40 MLOAD SWAP1 DUP2 ADD PUSH1 0x40 MSTORE DUP1 SWAP3 SWAP2 SWAP1 DUP2 DUP2 MSTORE PUSH1 0x20 ADD DUP3 DUP1 SLOAD PUSH2 0x3C0 SWAP1 PUSH2 0x8BC JUMP JUMPDEST DUP1 ISZERO PUSH2 0x40D JUMPI DUP1 PUSH1 0x1F LT PUSH2 0x3E2 JUMPI PUSH2 0x100 DUP1 DUP4 SLOAD DIV MUL DUP4 MSTORE SWAP2 PUSH1 0x20 ADD SWAP2 PUSH2 0x40D JUMP JUMPDEST DUP3 ADD SWAP2 SWAP1 PUSH1 0x0 MSTORE PUSH1 0x20 PUSH1 0x0 KECCAK256 SWAP1 JUMPDEST DUP2 SLOAD DUP2 MSTORE SWAP1 PUSH1 0x1 ADD SWAP1 PUSH1 0x20 ADD DUP1 DUP4 GT PUSH2 0x3F0 JUMPI DUP3 SWAP1 SUB PUSH1 0x1F AND DUP3 ADD SWAP2 JUMPDEST POP POP POP POP POP SWAP1 POP SWAP1 JUMP JUMPDEST PUSH1 0x0 DUP1 REVERT JUMPDEST PUSH1 0x0 DUP2 SWAP1 POP SWAP2 SWAP1 POP JUMP JUMPDEST PUSH2 0x42F DUP2 PUSH2 0x41C JUMP JUMPDEST DUP2 EQ PUSH2 0x43A JUMPI PUSH1 0x0 DUP1 REVERT JUMPDEST POP JUMP JUMPDEST PUSH1 0x0 DUP2 CALLDATALOAD SWAP1 POP PUSH2 0x44C DUP2 PUSH2 0x426 JUMP JUMPDEST SWAP3 SWAP2 POP POP JUMP JUMPDEST PUSH1 0x0 PUSH1 0x20 DUP3 DUP5 SUB SLT ISZERO PUSH2 0x468 JUMPI PUSH2 0x467 PUSH2 0x417 JUMP JUMPDEST JUMPDEST PUSH1 0x0 PUSH2 0x476 DUP5 DUP3 DUP6 ADD PUSH2 0x43D JUMP JUMPDEST SWAP2 POP POP SWAP3 SWAP2 POP POP JUMP JUMPDEST PUSH2 0x488 DUP2 PUSH2 0x41C JUMP JUMPDEST DUP3 MSTORE POP POP JUMP JUMPDEST PUSH1 0x0 PUSH1 0x20 DUP3 ADD SWAP1 POP PUSH2 0x4A3 PUSH1 0x0 DUP4 ADD DUP5 PUSH2 0x47F JUMP JUMPDEST SWAP3 SWAP2 POP POP JUMP JUMPDEST PUSH1 0x0 DUP1 PUSH1 0x40 DUP4 DUP6 SUB SLT ISZERO PUSH2 0x4C0 JUMPI PUSH2 0x4BF PUSH2 0x417 JUMP JUMPDEST JUMPDEST PUSH1 0x0 PUSH2 0x4CE DUP6 DUP3 DUP7 ADD PUSH2 0x43D JUMP JUMPDEST SWAP3 POP POP PUSH1 0x20 PUSH2 0x4DF DUP6 DUP3 DUP7 ADD PUSH2 0x43D JUMP JUMPDEST SWAP2 POP POP SWAP3 POP SWAP3 SWAP1 POP JUMP JUMPDEST PUSH1 0x0 PUSH1 0x40 DUP3 ADD SWAP1 POP PUSH2 0x4FE PUSH1 0x0 DUP4 ADD DUP6 PUSH2 0x47F JUMP JUMPDEST PUSH2 0x50B PUSH1 0x20 DUP4 ADD DUP5 PUSH2 0x47F JUMP JUMPDEST SWAP4 SWAP3 POP POP POP JUMP JUMPDEST PUSH1 0x0 PUSH20 0xFFFFFFFFFFFFFFFFFFFFFFFFFFFFFFFFFFFFFFFF DUP3 AND SWAP1 POP SWAP2 SWAP1 POP JUMP JUMPDEST PUSH1 0x0 PUSH2 0x53D DUP3 PUSH2 0x512 JUMP JUMPDEST SWAP1 POP SWAP2 SWAP1 POP JUMP JUMPDEST PUSH2 0x54D DUP2 PUSH2 0x532 JUMP JUMPDEST DUP3 MSTORE POP POP JUMP JUMPDEST PUSH1 0x0 PUSH1 0x20 DUP3 ADD SWAP1 POP PUSH2 0x568 PUSH1 0x0 DUP4 ADD DUP5 PUSH2 0x544 JUMP JUMPDEST SWAP3 SWAP2 POP POP JUMP JUMPDEST PUSH1 0x0 DUP2 MLOAD SWAP1 POP SWAP2 SWAP1 POP JUMP JUMPDEST PUSH1 0x0 DUP3 DUP3 MSTORE PUSH1 0x20 DUP3 ADD SWAP1 POP SWAP3 SWAP2 POP POP JUMP JUMPDEST PUSH1 0x0 JUMPDEST DUP4 DUP2 LT ISZERO PUSH2 0x5A8 JUMPI DUP1 DUP3 ADD MLOAD DUP2 DUP5 ADD MSTORE PUSH1 0x20 DUP2 ADD SWAP1 POP PUSH2 0x58D JUMP JUMPDEST PUSH1 0x0 DUP5 DUP5 ADD MSTORE POP POP POP POP JUMP JUMPDEST PUSH1 0x0 PUSH1 0x1F NOT PUSH1 0x1F DUP4 ADD AND SWAP1 POP SWAP2 SWAP1 POP JUMP JUMPDEST PUSH1 0x0 PUSH2 0x5D0 DUP3 PUSH2 0x56E JUMP JUMPDEST PUSH2 0x5DA DUP2 DUP6 PUSH2 0x579 JUMP JUMPDEST SWAP4 POP PUSH2 0x5EA DUP2 DUP6 PUSH1 0x20 DUP7 ADD PUSH2 0x58A JUMP JUMPDEST PUSH2 0x5F3 DUP2 PUSH2 0x5B4 JUMP JUMPDEST DUP5 ADD SWAP2 POP POP SWAP3 SWAP2 POP POP JUMP JUMPDEST PUSH1 0x0 PUSH1 0x20 DUP3 ADD SWAP1 POP DUP2 DUP2 SUB PUSH1 0x0 DUP4 ADD MSTORE PUSH2 0x618 DUP2 DUP5 PUSH2 0x5C5 JUMP JUMPDEST SWAP1 POP SWAP3 SWAP2 POP POP JUMP JUMPDEST PUSH32 0x4E6F7420616363757261746520656E6F756768742C206B65657020747279696E PUSH1 0x0 DUP3 ADD MSTORE PUSH32 0x6700000000000000000000000000000000000000000000000000000000000000 PUSH1 0x20 DUP3 ADD MSTORE POP JUMP JUMPDEST PUSH1 0x0 PUSH2 0x67C PUSH1 0x21 DUP4 PUSH2 0x579 JUMP JUMPDEST SWAP2 POP PUSH2 0x687 DUP3 PUSH2 0x620 JUMP JUMPDEST PUSH1 0x40 DUP3 ADD SWAP1 POP SWAP2 SWAP1 POP JUMP JUMPDEST PUSH1 0x0 PUSH1 0x20 DUP3 ADD SWAP1 POP DUP2 DUP2 SUB PUSH1 0x0 DUP4 ADD MSTORE PUSH2 0x6AB DUP2 PUSH2 0x66F JUMP JUMPDEST SWAP1 POP SWAP2 SWAP1 POP JUMP JUMPDEST PUSH32 0x546F206D616E79206761732070726F7669646564000000000000000000000000 PUSH1 0x0 DUP3 ADD MSTORE POP JUMP JUMPDEST PUSH1 0x0 PUSH2 0x6E8 PUSH1 0x14 DUP4 PUSH2 0x579 JUMP JUMPDEST SWAP2 POP PUSH2 0x6F3 DUP3 PUSH2 0x6B2 JUMP JUMPDEST PUSH1 0x20 DUP3 ADD SWAP1 POP SWAP2 SWAP1 POP JUMP JUMPDEST PUSH1 0x0 PUSH1 0x20 DUP3 ADD SWAP1 POP DUP2 DUP2 SUB PUSH1 0x0 DUP4 ADD MSTORE PUSH2 0x717 DUP2 PUSH2 0x6DB JUMP JUMPDEST SWAP1 POP SWAP2 SWAP1 POP JUMP JUMPDEST PUSH32 0x4E487B7100000000000000000000000000000000000000000000000000000000 PUSH1 0x0 MSTORE PUSH1 0x11 PUSH1 0x4 MSTORE PUSH1 0x24 PUSH1 0x0 REVERT JUMPDEST PUSH1 0x0 PUSH2 0x758 DUP3 PUSH2 0x41C JUMP JUMPDEST SWAP2 POP PUSH2 0x763 DUP4 PUSH2 0x41C JUMP JUMPDEST SWAP3 POP DUP3 DUP3 ADD SWAP1 POP DUP1 DUP3 GT ISZERO PUSH2 0x77B JUMPI PUSH2 0x77A PUSH2 0x71E JUMP JUMPDEST JUMPDEST SWAP3 SWAP2 POP POP JUMP JUMPDEST PUSH1 0x0 PUSH2 0x78C DUP3 PUSH2 0x41C JUMP JUMPDEST SWAP2 POP PUSH2 0x797 DUP4 PUSH2 0x41C JUMP JUMPDEST SWAP3 POP DUP3 DUP3 SUB SWAP1 POP DUP2 DUP2 GT ISZERO PUSH2 0x7AF JUMPI PUSH2 0x7AE PUSH2 0x71E JUMP JUMPDEST JUMPDEST SWAP3 SWAP2 POP POP JUMP JUMPDEST PUSH32 0x4E6F742067617320656E6F756768740000000000000000000000000000000000 PUSH1 0x0 DUP3 ADD MSTORE POP JUMP JUMPDEST PUSH1 0x0 PUSH2 0x7EB PUSH1 0xF DUP4 PUSH2 0x579 JUMP JUMPDEST SWAP2 POP PUSH2 0x7F6 DUP3 PUSH2 0x7B5 JUMP JUMPDEST PUSH1 0x20 DUP3 ADD SWAP1 POP SWAP2 SWAP1 POP JUMP JUMPDEST PUSH1 0x0 PUSH1 0x20 DUP3 ADD SWAP1 POP DUP2 DUP2 SUB PUSH1 0x0 DUP4 ADD MSTORE PUSH2 0x81A DUP2 PUSH2 0x7DE JUMP JUMPDEST SWAP1 POP SWAP2 SWAP1 POP JUMP JUMPDEST PUSH32 0x596F7520617265206E6F7420746865206F776E65720000000000000000000000 PUSH1 0x0 DUP3 ADD MSTORE POP JUMP JUMPDEST PUSH1 0x0 PUSH2 0x857 PUSH1 0x15 DUP4 PUSH2 0x579 JUMP JUMPDEST SWAP2 POP PUSH2 0x862 DUP3 PUSH2 0x821 JUMP JUMPDEST PUSH1 0x20 DUP3 ADD SWAP1 POP SWAP2 SWAP1 POP JUMP JUMPDEST PUSH1 0x0 PUSH1 0x20 DUP3 ADD SWAP1 POP DUP2 DUP2 SUB PUSH1 0x0 DUP4 ADD MSTORE PUSH2 0x886 DUP2 PUSH2 0x84A JUMP JUMPDEST SWAP1 POP SWAP2 SWAP1 POP JUMP JUMPDEST PUSH32 0x4E487B7100000000000000000000000000000000000000000000000000000000 PUSH1 0x0 MSTORE PUSH1 0x22 PUSH1 0x4 MSTORE PUSH1 0x24 PUSH1 0x0 REVERT JUMPDEST PUSH1 0x0 PUSH1 0x2 DUP3 DIV SWAP1 POP PUSH1 0x1 DUP3 AND DUP1 PUSH2 0x8D4 JUMPI PUSH1 0x7F DUP3 AND SWAP2 POP JUMPDEST PUSH1 0x20 DUP3 LT DUP2 SUB PUSH2 0x8E7 JUMPI PUSH2 0x8E6 PUSH2 0x88D JUMP JUMPDEST JUMPDEST POP SWAP2 SWAP1 POP JUMP INVALID LOG2 PUSH5 0x6970667358 0x22 SLT KECCAK256 0xAB 0xAF SWAP7 0x29 BLOCKHASH 0xA7 0xF PUSH20 0x243A36788746CCEC05F75F63D48DC916AEDF504 SWAP16 DUP12 ADD PUSH2 0x6473 PUSH16 0x6C634300081200330000000000000000 "
		},
		"gasEstimates": {
			"creation": {
				"codeDepositCost": "467800",
				"executionCost": "infinite",
				"totalCost": "infinite"
			},
			"external": {
				"add(uint256,uint256)": "infinite",
				"finalGas()": "2452",
				"getFlag()": "infinite",
				"guessGasUsed(uint256)": "26796",
				"initialGas()": "2429",
				"owner()": "2555",
				"result()": "2474"
			}
		},
		"methodIdentifiers": {
			"add(uint256,uint256)": "771602f7",
			"finalGas()": "5db3786e",
			"getFlag()": "f9633930",
			"guessGasUsed(uint256)": "1a72dd39",
			"initialGas()": "67e69c3e",
			"owner()": "8da5cb5b",
			"result()": "65372147"
		}
	},
	"abi": [
		{
			"inputs": [
				{
					"internalType": "string",
					"name": "_flag",
					"type": "string"
				},
				{
					"internalType": "uint256",
					"name": "_gasUsed",
					"type": "uint256"
				}
			],
			"stateMutability": "nonpayable",
			"type": "constructor"
		},
		{
			"inputs": [
				{
					"internalType": "uint256",
					"name": "_num1",
					"type": "uint256"
				},
				{
					"internalType": "uint256",
					"name": "_num2",
					"type": "uint256"
				}
			],
			"name": "add",
			"outputs": [
				{
					"internalType": "uint256",
					"name": "",
					"type": "uint256"
				},
				{
					"internalType": "uint256",
					"name": "",
					"type": "uint256"
				}
			],
			"stateMutability": "nonpayable",
			"type": "function"
		},
		{
			"inputs": [],
			"name": "finalGas",
			"outputs": [
				{
					"internalType": "uint256",
					"name": "",
					"type": "uint256"
				}
			],
			"stateMutability": "view",
			"type": "function"
		},
		{
			"inputs": [],
			"name": "getFlag",
			"outputs": [
				{
					"internalType": "string",
					"name": "",
					"type": "string"
				}
			],
			"stateMutability": "view",
			"type": "function"
		},
		{
			"inputs": [
				{
					"internalType": "uint256",
					"name": "_guessNumber",
					"type": "uint256"
				}
			],
			"name": "guessGasUsed",
			"outputs": [],
			"stateMutability": "nonpayable",
			"type": "function"
		},
		{
			"inputs": [],
			"name": "initialGas",
			"outputs": [
				{
					"internalType": "uint256",
					"name": "",
					"type": "uint256"
				}
			],
			"stateMutability": "view",
			"type": "function"
		},
		{
			"inputs": [],
			"name": "owner",
			"outputs": [
				{
					"internalType": "address",
					"name": "",
					"type": "address"
				}
			],
			"stateMutability": "view",
			"type": "function"
		},
		{
			"inputs": [],
			"name": "result",
			"outputs": [
				{
					"internalType": "uint256",
					"name": "",
					"type": "uint256"
				}
			],
			"stateMutability": "view",
			"type": "function"
		}
	]
}