{
	"data": {
		"bytecode": {
			"linkReferences": {},
			"object": "608060405260016003553480156200001657600080fd5b5060405162000f5438038062000f5483398181016040528101906200003c9190620002e3565b6200005c620000506200008460201b60201c565b6200008c60201b60201c565b80600190816200006d91906200057f565b5060016002819055503a6002819055505062000666565b600033905090565b60008060009054906101000a900473ffffffffffffffffffffffffffffffffffffffff169050816000806101000a81548173ffffffffffffffffffffffffffffffffffffffff021916908373ffffffffffffffffffffffffffffffffffffffff1602179055508173ffffffffffffffffffffffffffffffffffffffff168173ffffffffffffffffffffffffffffffffffffffff167f8be0079c531659141344cd1fd0a4f28419497f9722a3daafe3b4186f6b6457e060405160405180910390a35050565b6000604051905090565b600080fd5b600080fd5b600080fd5b600080fd5b6000601f19601f8301169050919050565b7f4e487b7100000000000000000000000000000000000000000000000000000000600052604160045260246000fd5b620001b9826200016e565b810181811067ffffffffffffffff82111715620001db57620001da6200017f565b5b80604052505050565b6000620001f062000150565b9050620001fe8282620001ae565b919050565b600067ffffffffffffffff8211156200022157620002206200017f565b5b6200022c826200016e565b9050602081019050919050565b60005b83811015620002595780820151818401526020810190506200023c565b60008484015250505050565b60006200027c620002768462000203565b620001e4565b9050828152602081018484840111156200029b576200029a62000169565b5b620002a884828562000239565b509392505050565b600082601f830112620002c857620002c762000164565b5b8151620002da84826020860162000265565b91505092915050565b600060208284031215620002fc57620002fb6200015a565b5b600082015167ffffffffffffffff8111156200031d576200031c6200015f565b5b6200032b84828501620002b0565b91505092915050565b600081519050919050565b7f4e487b7100000000000000000000000000000000000000000000000000000000600052602260045260246000fd5b600060028204905060018216806200038757607f821691505b6020821081036200039d576200039c6200033f565b5b50919050565b60008190508160005260206000209050919050565b60006020601f8301049050919050565b600082821b905092915050565b600060088302620004077fffffffffffffffffffffffffffffffffffffffffffffffffffffffffffffffff82620003c8565b620004138683620003c8565b95508019841693508086168417925050509392505050565b6000819050919050565b6000819050919050565b6000620004606200045a62000454846200042b565b62000435565b6200042b565b9050919050565b6000819050919050565b6200047c836200043f565b620004946200048b8262000467565b848454620003d5565b825550505050565b600090565b620004ab6200049c565b620004b881848462000471565b505050565b5b81811015620004e057620004d4600082620004a1565b600181019050620004be565b5050565b601f8211156200052f57620004f981620003a3565b6200050484620003b8565b8101602085101562000514578190505b6200052c6200052385620003b8565b830182620004bd565b50505b505050565b600082821c905092915050565b6000620005546000198460080262000534565b1980831691505092915050565b60006200056f838362000541565b9150826002028217905092915050565b6200058a8262000334565b67ffffffffffffffff811115620005a657620005a56200017f565b5b620005b282546200036e565b620005bf828285620004e4565b600060209050601f831160018114620005f75760008415620005e2578287015190505b620005ee858262000561565b8655506200065e565b601f1984166200060786620003a3565b60005b8281101562000631578489015182556001820191506020850194506020810190506200060a565b868310156200065157848901516200064d601f89168262000541565b8355505b6001600288020188555050505b505050505050565b6108de80620006766000396000f3fe608060405234801561001057600080fd5b506004361061007d5760003560e01c8063771602f71161005b578063771602f7146100c85780638da5cb5b146100f8578063f2fde38b14610116578063f9633930146101325761007d565b80630cfe26c7146100825780630f487546146100a0578063715018a6146100be575b600080fd5b61008a610150565b6040516100979190610488565b60405180910390f35b6100a8610156565b6040516100b59190610488565b60405180910390f35b6100c661015c565b005b6100e260048036038101906100dd91906104d4565b610170565b6040516100ef9190610488565b60405180910390f35b6101006101df565b60405161010d9190610555565b60405180910390f35b610130600480360381019061012b919061059c565b610208565b005b61013a61028b565b6040516101479190610659565b60405180910390f35b60035481565b60025481565b610164610325565b61016e60006103a3565b565b60003a6003819055506000828461018791906106aa565b9050606481146101cc576040517f08c379a00000000000000000000000000000000000000000000000000000000081526004016101c39061072a565b60405180910390fd5b6101d5336103a3565b8091505092915050565b60008060009054906101000a900473ffffffffffffffffffffffffffffffffffffffff16905090565b610210610325565b600073ffffffffffffffffffffffffffffffffffffffff168173ffffffffffffffffffffffffffffffffffffffff160361027f576040517f08c379a0000000000000000000000000000000000000000000000000000000008152600401610276906107bc565b60405180910390fd5b610288816103a3565b50565b6060610295610325565b600180546102a29061080b565b80601f01602080910402602001604051908101604052809291908181526020018280546102ce9061080b565b801561031b5780601f106102f05761010080835404028352916020019161031b565b820191906000526020600020905b8154815290600101906020018083116102fe57829003601f168201915b5050505050905090565b61032d610467565b73ffffffffffffffffffffffffffffffffffffffff1661034b6101df565b73ffffffffffffffffffffffffffffffffffffffff16146103a1576040517f08c379a000000000000000000000000000000000000000000000000000000000815260040161039890610888565b60405180910390fd5b565b60008060009054906101000a900473ffffffffffffffffffffffffffffffffffffffff169050816000806101000a81548173ffffffffffffffffffffffffffffffffffffffff021916908373ffffffffffffffffffffffffffffffffffffffff1602179055508173ffffffffffffffffffffffffffffffffffffffff168173ffffffffffffffffffffffffffffffffffffffff167f8be0079c531659141344cd1fd0a4f28419497f9722a3daafe3b4186f6b6457e060405160405180910390a35050565b600033905090565b6000819050919050565b6104828161046f565b82525050565b600060208201905061049d6000830184610479565b92915050565b600080fd5b6104b18161046f565b81146104bc57600080fd5b50565b6000813590506104ce816104a8565b92915050565b600080604083850312156104eb576104ea6104a3565b5b60006104f9858286016104bf565b925050602061050a858286016104bf565b9150509250929050565b600073ffffffffffffffffffffffffffffffffffffffff82169050919050565b600061053f82610514565b9050919050565b61054f81610534565b82525050565b600060208201905061056a6000830184610546565b92915050565b61057981610534565b811461058457600080fd5b50565b60008135905061059681610570565b92915050565b6000602082840312156105b2576105b16104a3565b5b60006105c084828501610587565b91505092915050565b600081519050919050565b600082825260208201905092915050565b60005b838110156106035780820151818401526020810190506105e8565b60008484015250505050565b6000601f19601f8301169050919050565b600061062b826105c9565b61063581856105d4565b93506106458185602086016105e5565b61064e8161060f565b840191505092915050565b600060208201905081810360008301526106738184610620565b905092915050565b7f4e487b7100000000000000000000000000000000000000000000000000000000600052601160045260246000fd5b60006106b58261046f565b91506106c08361046f565b92508282019050808211156106d8576106d761067b565b5b92915050565b7f496d70726f766520796f7572206d617468732100000000000000000000000000600082015250565b60006107146013836105d4565b915061071f826106de565b602082019050919050565b6000602082019050818103600083015261074381610707565b9050919050565b7f4f776e61626c653a206e6577206f776e657220697320746865207a65726f206160008201527f6464726573730000000000000000000000000000000000000000000000000000602082015250565b60006107a66026836105d4565b91506107b18261074a565b604082019050919050565b600060208201905081810360008301526107d581610799565b9050919050565b7f4e487b7100000000000000000000000000000000000000000000000000000000600052602260045260246000fd5b6000600282049050600182168061082357607f821691505b602082108103610836576108356107dc565b5b50919050565b7f4f776e61626c653a2063616c6c6572206973206e6f7420746865206f776e6572600082015250565b60006108726020836105d4565b915061087d8261083c565b602082019050919050565b600060208201905081810360008301526108a181610865565b905091905056fea26469706673582212202a44020c29485bd56b3b541dd8f3a0e46eca5fc417300b31c63244c5e9ba9af464736f6c63430008120033",
			"opcodes": "PUSH1 0x80 PUSH1 0x40 MSTORE PUSH1 0x1 PUSH1 0x3 SSTORE CALLVALUE DUP1 ISZERO PUSH3 0x16 JUMPI PUSH1 0x0 DUP1 REVERT JUMPDEST POP PUSH1 0x40 MLOAD PUSH3 0xF54 CODESIZE SUB DUP1 PUSH3 0xF54 DUP4 CODECOPY DUP2 DUP2 ADD PUSH1 0x40 MSTORE DUP2 ADD SWAP1 PUSH3 0x3C SWAP2 SWAP1 PUSH3 0x2E3 JUMP JUMPDEST PUSH3 0x5C PUSH3 0x50 PUSH3 0x84 PUSH1 0x20 SHL PUSH1 0x20 SHR JUMP JUMPDEST PUSH3 0x8C PUSH1 0x20 SHL PUSH1 0x20 SHR JUMP JUMPDEST DUP1 PUSH1 0x1 SWAP1 DUP2 PUSH3 0x6D SWAP2 SWAP1 PUSH3 0x57F JUMP JUMPDEST POP PUSH1 0x1 PUSH1 0x2 DUP2 SWAP1 SSTORE POP GASPRICE PUSH1 0x2 DUP2 SWAP1 SSTORE POP POP PUSH3 0x666 JUMP JUMPDEST PUSH1 0x0 CALLER SWAP1 POP SWAP1 JUMP JUMPDEST PUSH1 0x0 DUP1 PUSH1 0x0 SWAP1 SLOAD SWAP1 PUSH2 0x100 EXP SWAP1 DIV PUSH20 0xFFFFFFFFFFFFFFFFFFFFFFFFFFFFFFFFFFFFFFFF AND SWAP1 POP DUP2 PUSH1 0x0 DUP1 PUSH2 0x100 EXP DUP2 SLOAD DUP2 PUSH20 0xFFFFFFFFFFFFFFFFFFFFFFFFFFFFFFFFFFFFFFFF MUL NOT AND SWAP1 DUP4 PUSH20 0xFFFFFFFFFFFFFFFFFFFFFFFFFFFFFFFFFFFFFFFF AND MUL OR SWAP1 SSTORE POP DUP2 PUSH20 0xFFFFFFFFFFFFFFFFFFFFFFFFFFFFFFFFFFFFFFFF AND DUP2 PUSH20 0xFFFFFFFFFFFFFFFFFFFFFFFFFFFFFFFFFFFFFFFF AND PUSH32 0x8BE0079C531659141344CD1FD0A4F28419497F9722A3DAAFE3B4186F6B6457E0 PUSH1 0x40 MLOAD PUSH1 0x40 MLOAD DUP1 SWAP2 SUB SWAP1 LOG3 POP POP JUMP JUMPDEST PUSH1 0x0 PUSH1 0x40 MLOAD SWAP1 POP SWAP1 JUMP JUMPDEST PUSH1 0x0 DUP1 REVERT JUMPDEST PUSH1 0x0 DUP1 REVERT JUMPDEST PUSH1 0x0 DUP1 REVERT JUMPDEST PUSH1 0x0 DUP1 REVERT JUMPDEST PUSH1 0x0 PUSH1 0x1F NOT PUSH1 0x1F DUP4 ADD AND SWAP1 POP SWAP2 SWAP1 POP JUMP JUMPDEST PUSH32 0x4E487B7100000000000000000000000000000000000000000000000000000000 PUSH1 0x0 MSTORE PUSH1 0x41 PUSH1 0x4 MSTORE PUSH1 0x24 PUSH1 0x0 REVERT JUMPDEST PUSH3 0x1B9 DUP3 PUSH3 0x16E JUMP JUMPDEST DUP2 ADD DUP2 DUP2 LT PUSH8 0xFFFFFFFFFFFFFFFF DUP3 GT OR ISZERO PUSH3 0x1DB JUMPI PUSH3 0x1DA PUSH3 0x17F JUMP JUMPDEST JUMPDEST DUP1 PUSH1 0x40 MSTORE POP POP POP JUMP JUMPDEST PUSH1 0x0 PUSH3 0x1F0 PUSH3 0x150 JUMP JUMPDEST SWAP1 POP PUSH3 0x1FE DUP3 DUP3 PUSH3 0x1AE JUMP JUMPDEST SWAP2 SWAP1 POP JUMP JUMPDEST PUSH1 0x0 PUSH8 0xFFFFFFFFFFFFFFFF DUP3 GT ISZERO PUSH3 0x221 JUMPI PUSH3 0x220 PUSH3 0x17F JUMP JUMPDEST JUMPDEST PUSH3 0x22C DUP3 PUSH3 0x16E JUMP JUMPDEST SWAP1 POP PUSH1 0x20 DUP2 ADD SWAP1 POP SWAP2 SWAP1 POP JUMP JUMPDEST PUSH1 0x0 JUMPDEST DUP4 DUP2 LT ISZERO PUSH3 0x259 JUMPI DUP1 DUP3 ADD MLOAD DUP2 DUP5 ADD MSTORE PUSH1 0x20 DUP2 ADD SWAP1 POP PUSH3 0x23C JUMP JUMPDEST PUSH1 0x0 DUP5 DUP5 ADD MSTORE POP POP POP POP JUMP JUMPDEST PUSH1 0x0 PUSH3 0x27C PUSH3 0x276 DUP5 PUSH3 0x203 JUMP JUMPDEST PUSH3 0x1E4 JUMP JUMPDEST SWAP1 POP DUP3 DUP2 MSTORE PUSH1 0x20 DUP2 ADD DUP5 DUP5 DUP5 ADD GT ISZERO PUSH3 0x29B JUMPI PUSH3 0x29A PUSH3 0x169 JUMP JUMPDEST JUMPDEST PUSH3 0x2A8 DUP5 DUP3 DUP6 PUSH3 0x239 JUMP JUMPDEST POP SWAP4 SWAP3 POP POP POP JUMP JUMPDEST PUSH1 0x0 DUP3 PUSH1 0x1F DUP4 ADD SLT PUSH3 0x2C8 JUMPI PUSH3 0x2C7 PUSH3 0x164 JUMP JUMPDEST JUMPDEST DUP2 MLOAD PUSH3 0x2DA DUP5 DUP3 PUSH1 0x20 DUP7 ADD PUSH3 0x265 JUMP JUMPDEST SWAP2 POP POP SWAP3 SWAP2 POP POP JUMP JUMPDEST PUSH1 0x0 PUSH1 0x20 DUP3 DUP5 SUB SLT ISZERO PUSH3 0x2FC JUMPI PUSH3 0x2FB PUSH3 0x15A JUMP JUMPDEST JUMPDEST PUSH1 0x0 DUP3 ADD MLOAD PUSH8 0xFFFFFFFFFFFFFFFF DUP2 GT ISZERO PUSH3 0x31D JUMPI PUSH3 0x31C PUSH3 0x15F JUMP JUMPDEST JUMPDEST PUSH3 0x32B DUP5 DUP3 DUP6 ADD PUSH3 0x2B0 JUMP JUMPDEST SWAP2 POP POP SWAP3 SWAP2 POP POP JUMP JUMPDEST PUSH1 0x0 DUP2 MLOAD SWAP1 POP SWAP2 SWAP1 POP JUMP JUMPDEST PUSH32 0x4E487B7100000000000000000000000000000000000000000000000000000000 PUSH1 0x0 MSTORE PUSH1 0x22 PUSH1 0x4 MSTORE PUSH1 0x24 PUSH1 0x0 REVERT JUMPDEST PUSH1 0x0 PUSH1 0x2 DUP3 DIV SWAP1 POP PUSH1 0x1 DUP3 AND DUP1 PUSH3 0x387 JUMPI PUSH1 0x7F DUP3 AND SWAP2 POP JUMPDEST PUSH1 0x20 DUP3 LT DUP2 SUB PUSH3 0x39D JUMPI PUSH3 0x39C PUSH3 0x33F JUMP JUMPDEST JUMPDEST POP SWAP2 SWAP1 POP JUMP JUMPDEST PUSH1 0x0 DUP2 SWAP1 POP DUP2 PUSH1 0x0 MSTORE PUSH1 0x20 PUSH1 0x0 KECCAK256 SWAP1 POP SWAP2 SWAP1 POP JUMP JUMPDEST PUSH1 0x0 PUSH1 0x20 PUSH1 0x1F DUP4 ADD DIV SWAP1 POP SWAP2 SWAP1 POP JUMP JUMPDEST PUSH1 0x0 DUP3 DUP3 SHL SWAP1 POP SWAP3 SWAP2 POP POP JUMP JUMPDEST PUSH1 0x0 PUSH1 0x8 DUP4 MUL PUSH3 0x407 PUSH32 0xFFFFFFFFFFFFFFFFFFFFFFFFFFFFFFFFFFFFFFFFFFFFFFFFFFFFFFFFFFFFFFFF DUP3 PUSH3 0x3C8 JUMP JUMPDEST PUSH3 0x413 DUP7 DUP4 PUSH3 0x3C8 JUMP JUMPDEST SWAP6 POP DUP1 NOT DUP5 AND SWAP4 POP DUP1 DUP7 AND DUP5 OR SWAP3 POP POP POP SWAP4 SWAP3 POP POP POP JUMP JUMPDEST PUSH1 0x0 DUP2 SWAP1 POP SWAP2 SWAP1 POP JUMP JUMPDEST PUSH1 0x0 DUP2 SWAP1 POP SWAP2 SWAP1 POP JUMP JUMPDEST PUSH1 0x0 PUSH3 0x460 PUSH3 0x45A PUSH3 0x454 DUP5 PUSH3 0x42B JUMP JUMPDEST PUSH3 0x435 JUMP JUMPDEST PUSH3 0x42B JUMP JUMPDEST SWAP1 POP SWAP2 SWAP1 POP JUMP JUMPDEST PUSH1 0x0 DUP2 SWAP1 POP SWAP2 SWAP1 POP JUMP JUMPDEST PUSH3 0x47C DUP4 PUSH3 0x43F JUMP JUMPDEST PUSH3 0x494 PUSH3 0x48B DUP3 PUSH3 0x467 JUMP JUMPDEST DUP5 DUP5 SLOAD PUSH3 0x3D5 JUMP JUMPDEST DUP3 SSTORE POP POP POP POP JUMP JUMPDEST PUSH1 0x0 SWAP1 JUMP JUMPDEST PUSH3 0x4AB PUSH3 0x49C JUMP JUMPDEST PUSH3 0x4B8 DUP2 DUP5 DUP5 PUSH3 0x471 JUMP JUMPDEST POP POP POP JUMP JUMPDEST JUMPDEST DUP2 DUP2 LT ISZERO PUSH3 0x4E0 JUMPI PUSH3 0x4D4 PUSH1 0x0 DUP3 PUSH3 0x4A1 JUMP JUMPDEST PUSH1 0x1 DUP2 ADD SWAP1 POP PUSH3 0x4BE JUMP JUMPDEST POP POP JUMP JUMPDEST PUSH1 0x1F DUP3 GT ISZERO PUSH3 0x52F JUMPI PUSH3 0x4F9 DUP2 PUSH3 0x3A3 JUMP JUMPDEST PUSH3 0x504 DUP5 PUSH3 0x3B8 JUMP JUMPDEST DUP2 ADD PUSH1 0x20 DUP6 LT ISZERO PUSH3 0x514 JUMPI DUP2 SWAP1 POP JUMPDEST PUSH3 0x52C PUSH3 0x523 DUP6 PUSH3 0x3B8 JUMP JUMPDEST DUP4 ADD DUP3 PUSH3 0x4BD JUMP JUMPDEST POP POP JUMPDEST POP POP POP JUMP JUMPDEST PUSH1 0x0 DUP3 DUP3 SHR SWAP1 POP SWAP3 SWAP2 POP POP JUMP JUMPDEST PUSH1 0x0 PUSH3 0x554 PUSH1 0x0 NOT DUP5 PUSH1 0x8 MUL PUSH3 0x534 JUMP JUMPDEST NOT DUP1 DUP4 AND SWAP2 POP POP SWAP3 SWAP2 POP POP JUMP JUMPDEST PUSH1 0x0 PUSH3 0x56F DUP4 DUP4 PUSH3 0x541 JUMP JUMPDEST SWAP2 POP DUP3 PUSH1 0x2 MUL DUP3 OR SWAP1 POP SWAP3 SWAP2 POP POP JUMP JUMPDEST PUSH3 0x58A DUP3 PUSH3 0x334 JUMP JUMPDEST PUSH8 0xFFFFFFFFFFFFFFFF DUP2 GT ISZERO PUSH3 0x5A6 JUMPI PUSH3 0x5A5 PUSH3 0x17F JUMP JUMPDEST JUMPDEST PUSH3 0x5B2 DUP3 SLOAD PUSH3 0x36E JUMP JUMPDEST PUSH3 0x5BF DUP3 DUP3 DUP6 PUSH3 0x4E4 JUMP JUMPDEST PUSH1 0x0 PUSH1 0x20 SWAP1 POP PUSH1 0x1F DUP4 GT PUSH1 0x1 DUP2 EQ PUSH3 0x5F7 JUMPI PUSH1 0x0 DUP5 ISZERO PUSH3 0x5E2 JUMPI DUP3 DUP8 ADD MLOAD SWAP1 POP JUMPDEST PUSH3 0x5EE DUP6 DUP3 PUSH3 0x561 JUMP JUMPDEST DUP7 SSTORE POP PUSH3 0x65E JUMP JUMPDEST PUSH1 0x1F NOT DUP5 AND PUSH3 0x607 DUP7 PUSH3 0x3A3 JUMP JUMPDEST PUSH1 0x0 JUMPDEST DUP3 DUP2 LT ISZERO PUSH3 0x631 JUMPI DUP5 DUP10 ADD MLOAD DUP3 SSTORE PUSH1 0x1 DUP3 ADD SWAP2 POP PUSH1 0x20 DUP6 ADD SWAP5 POP PUSH1 0x20 DUP2 ADD SWAP1 POP PUSH3 0x60A JUMP JUMPDEST DUP7 DUP4 LT ISZERO PUSH3 0x651 JUMPI DUP5 DUP10 ADD MLOAD PUSH3 0x64D PUSH1 0x1F DUP10 AND DUP3 PUSH3 0x541 JUMP JUMPDEST DUP4 SSTORE POP JUMPDEST PUSH1 0x1 PUSH1 0x2 DUP9 MUL ADD DUP9 SSTORE POP POP POP JUMPDEST POP POP POP POP POP POP JUMP JUMPDEST PUSH2 0x8DE DUP1 PUSH3 0x676 PUSH1 0x0 CODECOPY PUSH1 0x0 RETURN INVALID PUSH1 0x80 PUSH1 0x40 MSTORE CALLVALUE DUP1 ISZERO PUSH2 0x10 JUMPI PUSH1 0x0 DUP1 REVERT JUMPDEST POP PUSH1 0x4 CALLDATASIZE LT PUSH2 0x7D JUMPI PUSH1 0x0 CALLDATALOAD PUSH1 0xE0 SHR DUP1 PUSH4 0x771602F7 GT PUSH2 0x5B JUMPI DUP1 PUSH4 0x771602F7 EQ PUSH2 0xC8 JUMPI DUP1 PUSH4 0x8DA5CB5B EQ PUSH2 0xF8 JUMPI DUP1 PUSH4 0xF2FDE38B EQ PUSH2 0x116 JUMPI DUP1 PUSH4 0xF9633930 EQ PUSH2 0x132 JUMPI PUSH2 0x7D JUMP JUMPDEST DUP1 PUSH4 0xCFE26C7 EQ PUSH2 0x82 JUMPI DUP1 PUSH4 0xF487546 EQ PUSH2 0xA0 JUMPI DUP1 PUSH4 0x715018A6 EQ PUSH2 0xBE JUMPI JUMPDEST PUSH1 0x0 DUP1 REVERT JUMPDEST PUSH2 0x8A PUSH2 0x150 JUMP JUMPDEST PUSH1 0x40 MLOAD PUSH2 0x97 SWAP2 SWAP1 PUSH2 0x488 JUMP JUMPDEST PUSH1 0x40 MLOAD DUP1 SWAP2 SUB SWAP1 RETURN JUMPDEST PUSH2 0xA8 PUSH2 0x156 JUMP JUMPDEST PUSH1 0x40 MLOAD PUSH2 0xB5 SWAP2 SWAP1 PUSH2 0x488 JUMP JUMPDEST PUSH1 0x40 MLOAD DUP1 SWAP2 SUB SWAP1 RETURN JUMPDEST PUSH2 0xC6 PUSH2 0x15C JUMP JUMPDEST STOP JUMPDEST PUSH2 0xE2 PUSH1 0x4 DUP1 CALLDATASIZE SUB DUP2 ADD SWAP1 PUSH2 0xDD SWAP2 SWAP1 PUSH2 0x4D4 JUMP JUMPDEST PUSH2 0x170 JUMP JUMPDEST PUSH1 0x40 MLOAD PUSH2 0xEF SWAP2 SWAP1 PUSH2 0x488 JUMP JUMPDEST PUSH1 0x40 MLOAD DUP1 SWAP2 SUB SWAP1 RETURN JUMPDEST PUSH2 0x100 PUSH2 0x1DF JUMP JUMPDEST PUSH1 0x40 MLOAD PUSH2 0x10D SWAP2 SWAP1 PUSH2 0x555 JUMP JUMPDEST PUSH1 0x40 MLOAD DUP1 SWAP2 SUB SWAP1 RETURN JUMPDEST PUSH2 0x130 PUSH1 0x4 DUP1 CALLDATASIZE SUB DUP2 ADD SWAP1 PUSH2 0x12B SWAP2 SWAP1 PUSH2 0x59C JUMP JUMPDEST PUSH2 0x208 JUMP JUMPDEST STOP JUMPDEST PUSH2 0x13A PUSH2 0x28B JUMP JUMPDEST PUSH1 0x40 MLOAD PUSH2 0x147 SWAP2 SWAP1 PUSH2 0x659 JUMP JUMPDEST PUSH1 0x40 MLOAD DUP1 SWAP2 SUB SWAP1 RETURN JUMPDEST PUSH1 0x3 SLOAD DUP2 JUMP JUMPDEST PUSH1 0x2 SLOAD DUP2 JUMP JUMPDEST PUSH2 0x164 PUSH2 0x325 JUMP JUMPDEST PUSH2 0x16E PUSH1 0x0 PUSH2 0x3A3 JUMP JUMPDEST JUMP JUMPDEST PUSH1 0x0 GASPRICE PUSH1 0x3 DUP2 SWAP1 SSTORE POP PUSH1 0x0 DUP3 DUP5 PUSH2 0x187 SWAP2 SWAP1 PUSH2 0x6AA JUMP JUMPDEST SWAP1 POP PUSH1 0x64 DUP2 EQ PUSH2 0x1CC JUMPI PUSH1 0x40 MLOAD PUSH32 0x8C379A000000000000000000000000000000000000000000000000000000000 DUP2 MSTORE PUSH1 0x4 ADD PUSH2 0x1C3 SWAP1 PUSH2 0x72A JUMP JUMPDEST PUSH1 0x40 MLOAD DUP1 SWAP2 SUB SWAP1 REVERT JUMPDEST PUSH2 0x1D5 CALLER PUSH2 0x3A3 JUMP JUMPDEST DUP1 SWAP2 POP POP SWAP3 SWAP2 POP POP JUMP JUMPDEST PUSH1 0x0 DUP1 PUSH1 0x0 SWAP1 SLOAD SWAP1 PUSH2 0x100 EXP SWAP1 DIV PUSH20 0xFFFFFFFFFFFFFFFFFFFFFFFFFFFFFFFFFFFFFFFF AND SWAP1 POP SWAP1 JUMP JUMPDEST PUSH2 0x210 PUSH2 0x325 JUMP JUMPDEST PUSH1 0x0 PUSH20 0xFFFFFFFFFFFFFFFFFFFFFFFFFFFFFFFFFFFFFFFF AND DUP2 PUSH20 0xFFFFFFFFFFFFFFFFFFFFFFFFFFFFFFFFFFFFFFFF AND SUB PUSH2 0x27F JUMPI PUSH1 0x40 MLOAD PUSH32 0x8C379A000000000000000000000000000000000000000000000000000000000 DUP2 MSTORE PUSH1 0x4 ADD PUSH2 0x276 SWAP1 PUSH2 0x7BC JUMP JUMPDEST PUSH1 0x40 MLOAD DUP1 SWAP2 SUB SWAP1 REVERT JUMPDEST PUSH2 0x288 DUP2 PUSH2 0x3A3 JUMP JUMPDEST POP JUMP JUMPDEST PUSH1 0x60 PUSH2 0x295 PUSH2 0x325 JUMP JUMPDEST PUSH1 0x1 DUP1 SLOAD PUSH2 0x2A2 SWAP1 PUSH2 0x80B JUMP JUMPDEST DUP1 PUSH1 0x1F ADD PUSH1 0x20 DUP1 SWAP2 DIV MUL PUSH1 0x20 ADD PUSH1 0x40 MLOAD SWAP1 DUP2 ADD PUSH1 0x40 MSTORE DUP1 SWAP3 SWAP2 SWAP1 DUP2 DUP2 MSTORE PUSH1 0x20 ADD DUP3 DUP1 SLOAD PUSH2 0x2CE SWAP1 PUSH2 0x80B JUMP JUMPDEST DUP1 ISZERO PUSH2 0x31B JUMPI DUP1 PUSH1 0x1F LT PUSH2 0x2F0 JUMPI PUSH2 0x100 DUP1 DUP4 SLOAD DIV MUL DUP4 MSTORE SWAP2 PUSH1 0x20 ADD SWAP2 PUSH2 0x31B JUMP JUMPDEST DUP3 ADD SWAP2 SWAP1 PUSH1 0x0 MSTORE PUSH1 0x20 PUSH1 0x0 KECCAK256 SWAP1 JUMPDEST DUP2 SLOAD DUP2 MSTORE SWAP1 PUSH1 0x1 ADD SWAP1 PUSH1 0x20 ADD DUP1 DUP4 GT PUSH2 0x2FE JUMPI DUP3 SWAP1 SUB PUSH1 0x1F AND DUP3 ADD SWAP2 JUMPDEST POP POP POP POP POP SWAP1 POP SWAP1 JUMP JUMPDEST PUSH2 0x32D PUSH2 0x467 JUMP JUMPDEST PUSH20 0xFFFFFFFFFFFFFFFFFFFFFFFFFFFFFFFFFFFFFFFF AND PUSH2 0x34B PUSH2 0x1DF JUMP JUMPDEST PUSH20 0xFFFFFFFFFFFFFFFFFFFFFFFFFFFFFFFFFFFFFFFF AND EQ PUSH2 0x3A1 JUMPI PUSH1 0x40 MLOAD PUSH32 0x8C379A000000000000000000000000000000000000000000000000000000000 DUP2 MSTORE PUSH1 0x4 ADD PUSH2 0x398 SWAP1 PUSH2 0x888 JUMP JUMPDEST PUSH1 0x40 MLOAD DUP1 SWAP2 SUB SWAP1 REVERT JUMPDEST JUMP JUMPDEST PUSH1 0x0 DUP1 PUSH1 0x0 SWAP1 SLOAD SWAP1 PUSH2 0x100 EXP SWAP1 DIV PUSH20 0xFFFFFFFFFFFFFFFFFFFFFFFFFFFFFFFFFFFFFFFF AND SWAP1 POP DUP2 PUSH1 0x0 DUP1 PUSH2 0x100 EXP DUP2 SLOAD DUP2 PUSH20 0xFFFFFFFFFFFFFFFFFFFFFFFFFFFFFFFFFFFFFFFF MUL NOT AND SWAP1 DUP4 PUSH20 0xFFFFFFFFFFFFFFFFFFFFFFFFFFFFFFFFFFFFFFFF AND MUL OR SWAP1 SSTORE POP DUP2 PUSH20 0xFFFFFFFFFFFFFFFFFFFFFFFFFFFFFFFFFFFFFFFF AND DUP2 PUSH20 0xFFFFFFFFFFFFFFFFFFFFFFFFFFFFFFFFFFFFFFFF AND PUSH32 0x8BE0079C531659141344CD1FD0A4F28419497F9722A3DAAFE3B4186F6B6457E0 PUSH1 0x40 MLOAD PUSH1 0x40 MLOAD DUP1 SWAP2 SUB SWAP1 LOG3 POP POP JUMP JUMPDEST PUSH1 0x0 CALLER SWAP1 POP SWAP1 JUMP JUMPDEST PUSH1 0x0 DUP2 SWAP1 POP SWAP2 SWAP1 POP JUMP JUMPDEST PUSH2 0x482 DUP2 PUSH2 0x46F JUMP JUMPDEST DUP3 MSTORE POP POP JUMP JUMPDEST PUSH1 0x0 PUSH1 0x20 DUP3 ADD SWAP1 POP PUSH2 0x49D PUSH1 0x0 DUP4 ADD DUP5 PUSH2 0x479 JUMP JUMPDEST SWAP3 SWAP2 POP POP JUMP JUMPDEST PUSH1 0x0 DUP1 REVERT JUMPDEST PUSH2 0x4B1 DUP2 PUSH2 0x46F JUMP JUMPDEST DUP2 EQ PUSH2 0x4BC JUMPI PUSH1 0x0 DUP1 REVERT JUMPDEST POP JUMP JUMPDEST PUSH1 0x0 DUP2 CALLDATALOAD SWAP1 POP PUSH2 0x4CE DUP2 PUSH2 0x4A8 JUMP JUMPDEST SWAP3 SWAP2 POP POP JUMP JUMPDEST PUSH1 0x0 DUP1 PUSH1 0x40 DUP4 DUP6 SUB SLT ISZERO PUSH2 0x4EB JUMPI PUSH2 0x4EA PUSH2 0x4A3 JUMP JUMPDEST JUMPDEST PUSH1 0x0 PUSH2 0x4F9 DUP6 DUP3 DUP7 ADD PUSH2 0x4BF JUMP JUMPDEST SWAP3 POP POP PUSH1 0x20 PUSH2 0x50A DUP6 DUP3 DUP7 ADD PUSH2 0x4BF JUMP JUMPDEST SWAP2 POP POP SWAP3 POP SWAP3 SWAP1 POP JUMP JUMPDEST PUSH1 0x0 PUSH20 0xFFFFFFFFFFFFFFFFFFFFFFFFFFFFFFFFFFFFFFFF DUP3 AND SWAP1 POP SWAP2 SWAP1 POP JUMP JUMPDEST PUSH1 0x0 PUSH2 0x53F DUP3 PUSH2 0x514 JUMP JUMPDEST SWAP1 POP SWAP2 SWAP1 POP JUMP JUMPDEST PUSH2 0x54F DUP2 PUSH2 0x534 JUMP JUMPDEST DUP3 MSTORE POP POP JUMP JUMPDEST PUSH1 0x0 PUSH1 0x20 DUP3 ADD SWAP1 POP PUSH2 0x56A PUSH1 0x0 DUP4 ADD DUP5 PUSH2 0x546 JUMP JUMPDEST SWAP3 SWAP2 POP POP JUMP JUMPDEST PUSH2 0x579 DUP2 PUSH2 0x534 JUMP JUMPDEST DUP2 EQ PUSH2 0x584 JUMPI PUSH1 0x0 DUP1 REVERT JUMPDEST POP JUMP JUMPDEST PUSH1 0x0 DUP2 CALLDATALOAD SWAP1 POP PUSH2 0x596 DUP2 PUSH2 0x570 JUMP JUMPDEST SWAP3 SWAP2 POP POP JUMP JUMPDEST PUSH1 0x0 PUSH1 0x20 DUP3 DUP5 SUB SLT ISZERO PUSH2 0x5B2 JUMPI PUSH2 0x5B1 PUSH2 0x4A3 JUMP JUMPDEST JUMPDEST PUSH1 0x0 PUSH2 0x5C0 DUP5 DUP3 DUP6 ADD PUSH2 0x587 JUMP JUMPDEST SWAP2 POP POP SWAP3 SWAP2 POP POP JUMP JUMPDEST PUSH1 0x0 DUP2 MLOAD SWAP1 POP SWAP2 SWAP1 POP JUMP JUMPDEST PUSH1 0x0 DUP3 DUP3 MSTORE PUSH1 0x20 DUP3 ADD SWAP1 POP SWAP3 SWAP2 POP POP JUMP JUMPDEST PUSH1 0x0 JUMPDEST DUP4 DUP2 LT ISZERO PUSH2 0x603 JUMPI DUP1 DUP3 ADD MLOAD DUP2 DUP5 ADD MSTORE PUSH1 0x20 DUP2 ADD SWAP1 POP PUSH2 0x5E8 JUMP JUMPDEST PUSH1 0x0 DUP5 DUP5 ADD MSTORE POP POP POP POP JUMP JUMPDEST PUSH1 0x0 PUSH1 0x1F NOT PUSH1 0x1F DUP4 ADD AND SWAP1 POP SWAP2 SWAP1 POP JUMP JUMPDEST PUSH1 0x0 PUSH2 0x62B DUP3 PUSH2 0x5C9 JUMP JUMPDEST PUSH2 0x635 DUP2 DUP6 PUSH2 0x5D4 JUMP JUMPDEST SWAP4 POP PUSH2 0x645 DUP2 DUP6 PUSH1 0x20 DUP7 ADD PUSH2 0x5E5 JUMP JUMPDEST PUSH2 0x64E DUP2 PUSH2 0x60F JUMP JUMPDEST DUP5 ADD SWAP2 POP POP SWAP3 SWAP2 POP POP JUMP JUMPDEST PUSH1 0x0 PUSH1 0x20 DUP3 ADD SWAP1 POP DUP2 DUP2 SUB PUSH1 0x0 DUP4 ADD MSTORE PUSH2 0x673 DUP2 DUP5 PUSH2 0x620 JUMP JUMPDEST SWAP1 POP SWAP3 SWAP2 POP POP JUMP JUMPDEST PUSH32 0x4E487B7100000000000000000000000000000000000000000000000000000000 PUSH1 0x0 MSTORE PUSH1 0x11 PUSH1 0x4 MSTORE PUSH1 0x24 PUSH1 0x0 REVERT JUMPDEST PUSH1 0x0 PUSH2 0x6B5 DUP3 PUSH2 0x46F JUMP JUMPDEST SWAP2 POP PUSH2 0x6C0 DUP4 PUSH2 0x46F JUMP JUMPDEST SWAP3 POP DUP3 DUP3 ADD SWAP1 POP DUP1 DUP3 GT ISZERO PUSH2 0x6D8 JUMPI PUSH2 0x6D7 PUSH2 0x67B JUMP JUMPDEST JUMPDEST SWAP3 SWAP2 POP POP JUMP JUMPDEST PUSH32 0x496D70726F766520796F7572206D617468732100000000000000000000000000 PUSH1 0x0 DUP3 ADD MSTORE POP JUMP JUMPDEST PUSH1 0x0 PUSH2 0x714 PUSH1 0x13 DUP4 PUSH2 0x5D4 JUMP JUMPDEST SWAP2 POP PUSH2 0x71F DUP3 PUSH2 0x6DE JUMP JUMPDEST PUSH1 0x20 DUP3 ADD SWAP1 POP SWAP2 SWAP1 POP JUMP JUMPDEST PUSH1 0x0 PUSH1 0x20 DUP3 ADD SWAP1 POP DUP2 DUP2 SUB PUSH1 0x0 DUP4 ADD MSTORE PUSH2 0x743 DUP2 PUSH2 0x707 JUMP JUMPDEST SWAP1 POP SWAP2 SWAP1 POP JUMP JUMPDEST PUSH32 0x4F776E61626C653A206E6577206F776E657220697320746865207A65726F2061 PUSH1 0x0 DUP3 ADD MSTORE PUSH32 0x6464726573730000000000000000000000000000000000000000000000000000 PUSH1 0x20 DUP3 ADD MSTORE POP JUMP JUMPDEST PUSH1 0x0 PUSH2 0x7A6 PUSH1 0x26 DUP4 PUSH2 0x5D4 JUMP JUMPDEST SWAP2 POP PUSH2 0x7B1 DUP3 PUSH2 0x74A JUMP JUMPDEST PUSH1 0x40 DUP3 ADD SWAP1 POP SWAP2 SWAP1 POP JUMP JUMPDEST PUSH1 0x0 PUSH1 0x20 DUP3 ADD SWAP1 POP DUP2 DUP2 SUB PUSH1 0x0 DUP4 ADD MSTORE PUSH2 0x7D5 DUP2 PUSH2 0x799 JUMP JUMPDEST SWAP1 POP SWAP2 SWAP1 POP JUMP JUMPDEST PUSH32 0x4E487B7100000000000000000000000000000000000000000000000000000000 PUSH1 0x0 MSTORE PUSH1 0x22 PUSH1 0x4 MSTORE PUSH1 0x24 PUSH1 0x0 REVERT JUMPDEST PUSH1 0x0 PUSH1 0x2 DUP3 DIV SWAP1 POP PUSH1 0x1 DUP3 AND DUP1 PUSH2 0x823 JUMPI PUSH1 0x7F DUP3 AND SWAP2 POP JUMPDEST PUSH1 0x20 DUP3 LT DUP2 SUB PUSH2 0x836 JUMPI PUSH2 0x835 PUSH2 0x7DC JUMP JUMPDEST JUMPDEST POP SWAP2 SWAP1 POP JUMP JUMPDEST PUSH32 0x4F776E61626C653A2063616C6C6572206973206E6F7420746865206F776E6572 PUSH1 0x0 DUP3 ADD MSTORE POP JUMP JUMPDEST PUSH1 0x0 PUSH2 0x872 PUSH1 0x20 DUP4 PUSH2 0x5D4 JUMP JUMPDEST SWAP2 POP PUSH2 0x87D DUP3 PUSH2 0x83C JUMP JUMPDEST PUSH1 0x20 DUP3 ADD SWAP1 POP SWAP2 SWAP1 POP JUMP JUMPDEST PUSH1 0x0 PUSH1 0x20 DUP3 ADD SWAP1 POP DUP2 DUP2 SUB PUSH1 0x0 DUP4 ADD MSTORE PUSH2 0x8A1 DUP2 PUSH2 0x865 JUMP JUMPDEST SWAP1 POP SWAP2 SWAP1 POP JUMP INVALID LOG2 PUSH5 0x6970667358 0x22 SLT KECCAK256 0x2A PREVRANDAO MUL 0xC 0x29 BASEFEE JUMPDEST 0xD5 PUSH12 0x3B541DD8F3A0E46ECA5FC417 ADDRESS SIGNEXTEND BALANCE 0xC6 ORIGIN PREVRANDAO 0xC5 0xE9 0xBA SWAP11 DELEGATECALL PUSH5 0x736F6C6343 STOP ADDMOD SLT STOP CALLER "
		},
		"gasEstimates": {
			"creation": {
				"codeDepositCost": "454000",
				"executionCost": "infinite",
				"totalCost": "infinite"
			},
			"external": {
				"add(uint256,uint256)": "infinite",
				"gaspricetx()": "2452",
				"gaspricetx2()": "2430",
				"getFlag()": "infinite",
				"owner()": "2544",
				"renounceOwnership()": "30443",
				"transferOwnership(address)": "30788"
			}
		},
		"methodIdentifiers": {
			"add(uint256,uint256)": "771602f7",
			"gaspricetx()": "0f487546",
			"gaspricetx2()": "0cfe26c7",
			"getFlag()": "f9633930",
			"owner()": "8da5cb5b",
			"renounceOwnership()": "715018a6",
			"transferOwnership(address)": "f2fde38b"
		}
	},
	"abi": [
		{
			"inputs": [
				{
					"internalType": "string",
					"name": "_flag",
					"type": "string"
				}
			],
			"stateMutability": "nonpayable",
			"type": "constructor"
		},
		{
			"anonymous": false,
			"inputs": [
				{
					"indexed": true,
					"internalType": "address",
					"name": "previousOwner",
					"type": "address"
				},
				{
					"indexed": true,
					"internalType": "address",
					"name": "newOwner",
					"type": "address"
				}
			],
			"name": "OwnershipTransferred",
			"type": "event"
		},
		{
			"inputs": [
				{
					"internalType": "uint256",
					"name": "_num1",
					"type": "uint256"
				},
				{
					"internalType": "uint256",
					"name": "_num2",
					"type": "uint256"
				}
			],
			"name": "add",
			"outputs": [
				{
					"internalType": "uint256",
					"name": "",
					"type": "uint256"
				}
			],
			"stateMutability": "nonpayable",
			"type": "function"
		},
		{
			"inputs": [],
			"name": "gaspricetx",
			"outputs": [
				{
					"internalType": "uint256",
					"name": "",
					"type": "uint256"
				}
			],
			"stateMutability": "view",
			"type": "function"
		},
		{
			"inputs": [],
			"name": "gaspricetx2",
			"outputs": [
				{
					"internalType": "uint256",
					"name": "",
					"type": "uint256"
				}
			],
			"stateMutability": "view",
			"type": "function"
		},
		{
			"inputs": [],
			"name": "getFlag",
			"outputs": [
				{
					"internalType": "string",
					"name": "",
					"type": "string"
				}
			],
			"stateMutability": "view",
			"type": "function"
		},
		{
			"inputs": [],
			"name": "owner",
			"outputs": [
				{
					"internalType": "address",
					"name": "",
					"type": "address"
				}
			],
			"stateMutability": "view",
			"type": "function"
		},
		{
			"inputs": [],
			"name": "renounceOwnership",
			"outputs": [],
			"stateMutability": "nonpayable",
			"type": "function"
		},
		{
			"inputs": [
				{
					"internalType": "address",
					"name": "newOwner",
					"type": "address"
				}
			],
			"name": "transferOwnership",
			"outputs": [],
			"stateMutability": "nonpayable",
			"type": "function"
		}
	]
}