{
	"data": {
		"bytecode": {
			"linkReferences": {},
			"object": "60806040523480156200001157600080fd5b50604051620022bf380380620022bf8339818101604052810190620000379190620002fb565b828281600390816200004a9190620005ff565b5080600490816200005c9190620005ff565b5050506200007f620000736200009a60201b60201c565b620000a260201b60201c565b8060069081620000909190620005ff565b50505050620006e6565b600033905090565b6000600560009054906101000a900473ffffffffffffffffffffffffffffffffffffffff16905081600560006101000a81548173ffffffffffffffffffffffffffffffffffffffff021916908373ffffffffffffffffffffffffffffffffffffffff1602179055508173ffffffffffffffffffffffffffffffffffffffff168173ffffffffffffffffffffffffffffffffffffffff167f8be0079c531659141344cd1fd0a4f28419497f9722a3daafe3b4186f6b6457e060405160405180910390a35050565b6000604051905090565b600080fd5b600080fd5b600080fd5b600080fd5b6000601f19601f8301169050919050565b7f4e487b7100000000000000000000000000000000000000000000000000000000600052604160045260246000fd5b620001d18262000186565b810181811067ffffffffffffffff82111715620001f357620001f262000197565b5b80604052505050565b60006200020862000168565b9050620002168282620001c6565b919050565b600067ffffffffffffffff82111562000239576200023862000197565b5b620002448262000186565b9050602081019050919050565b60005b838110156200027157808201518184015260208101905062000254565b60008484015250505050565b6000620002946200028e846200021b565b620001fc565b905082815260208101848484011115620002b357620002b262000181565b5b620002c084828562000251565b509392505050565b600082601f830112620002e057620002df6200017c565b5b8151620002f28482602086016200027d565b91505092915050565b60008060006060848603121562000317576200031662000172565b5b600084015167ffffffffffffffff81111562000338576200033762000177565b5b6200034686828701620002c8565b935050602084015167ffffffffffffffff8111156200036a576200036962000177565b5b6200037886828701620002c8565b925050604084015167ffffffffffffffff8111156200039c576200039b62000177565b5b620003aa86828701620002c8565b9150509250925092565b600081519050919050565b7f4e487b7100000000000000000000000000000000000000000000000000000000600052602260045260246000fd5b600060028204905060018216806200040757607f821691505b6020821081036200041d576200041c620003bf565b5b50919050565b60008190508160005260206000209050919050565b60006020601f8301049050919050565b600082821b905092915050565b600060088302620004877fffffffffffffffffffffffffffffffffffffffffffffffffffffffffffffffff8262000448565b62000493868362000448565b95508019841693508086168417925050509392505050565b6000819050919050565b6000819050919050565b6000620004e0620004da620004d484620004ab565b620004b5565b620004ab565b9050919050565b6000819050919050565b620004fc83620004bf565b620005146200050b82620004e7565b84845462000455565b825550505050565b600090565b6200052b6200051c565b62000538818484620004f1565b505050565b5b8181101562000560576200055460008262000521565b6001810190506200053e565b5050565b601f821115620005af57620005798162000423565b620005848462000438565b8101602085101562000594578190505b620005ac620005a38562000438565b8301826200053d565b50505b505050565b600082821c905092915050565b6000620005d460001984600802620005b4565b1980831691505092915050565b6000620005ef8383620005c1565b9150826002028217905092915050565b6200060a82620003b4565b67ffffffffffffffff81111562000626576200062562000197565b5b620006328254620003ee565b6200063f82828562000564565b600060209050601f83116001811462000677576000841562000662578287015190505b6200066e8582620005e1565b865550620006de565b601f198416620006878662000423565b60005b82811015620006b1578489015182556001820191506020850194506020810190506200068a565b86831015620006d15784890151620006cd601f891682620005c1565b8355505b6001600288020188555050505b505050505050565b611bc980620006f66000396000f3fe608060405234801561001057600080fd5b506004361061010b5760003560e01c8063715018a6116100a2578063a457c2d711610071578063a457c2d7146102a8578063a9059cbb146102d8578063dd62ed3e14610308578063f2fde38b14610338578063f9633930146103545761010b565b8063715018a6146102465780638da5cb5b1461025057806395d89b411461026e5780639dc29fac1461028c5761010b565b8063313ce567116100de578063313ce567146101ac57806339509351146101ca57806340c10f19146101fa57806370a08231146102165761010b565b806306fdde0314610110578063095ea7b31461012e57806318160ddd1461015e57806323b872dd1461017c575b600080fd5b610118610372565b60405161012591906111ee565b60405180910390f35b610148600480360381019061014391906112a9565b610404565b6040516101559190611304565b60405180910390f35b610166610427565b604051610173919061132e565b60405180910390f35b61019660048036038101906101919190611349565b610431565b6040516101a39190611304565b60405180910390f35b6101b4610460565b6040516101c191906113b8565b60405180910390f35b6101e460048036038101906101df91906112a9565b610469565b6040516101f19190611304565b60405180910390f35b610214600480360381019061020f91906112a9565b6104a0565b005b610230600480360381019061022b91906113d3565b6104b6565b60405161023d919061132e565b60405180910390f35b61024e6104fe565b005b610258610512565b604051610265919061140f565b60405180910390f35b61027661053c565b60405161028391906111ee565b60405180910390f35b6102a660048036038101906102a191906112a9565b6105ce565b005b6102c260048036038101906102bd91906112a9565b6105e4565b6040516102cf9190611304565b60405180910390f35b6102f260048036038101906102ed91906112a9565b61065b565b6040516102ff9190611304565b60405180910390f35b610322600480360381019061031d919061142a565b61067e565b60405161032f919061132e565b60405180910390f35b610352600480360381019061034d91906113d3565b610705565b005b61035c610788565b60405161036991906111ee565b60405180910390f35b60606003805461038190611499565b80601f01602080910402602001604051908101604052809291908181526020018280546103ad90611499565b80156103fa5780601f106103cf576101008083540402835291602001916103fa565b820191906000526020600020905b8154815290600101906020018083116103dd57829003601f168201915b5050505050905090565b60008061040f61081a565b905061041c818585610822565b600191505092915050565b6000600254905090565b60008061043c61081a565b90506104498582856109eb565b610454858585610a77565b60019150509392505050565b60006012905090565b60008061047461081a565b9050610495818585610486858961067e565b61049091906114f9565b610822565b600191505092915050565b6104a8610ced565b6104b28282610d6b565b5050565b60008060008373ffffffffffffffffffffffffffffffffffffffff1673ffffffffffffffffffffffffffffffffffffffff168152602001908152602001600020549050919050565b610506610ced565b6105106000610ec1565b565b6000600560009054906101000a900473ffffffffffffffffffffffffffffffffffffffff16905090565b60606004805461054b90611499565b80601f016020809104026020016040519081016040528092919081815260200182805461057790611499565b80156105c45780601f10610599576101008083540402835291602001916105c4565b820191906000526020600020905b8154815290600101906020018083116105a757829003601f168201915b5050505050905090565b6105d6610ced565b6105e08282610f87565b5050565b6000806105ef61081a565b905060006105fd828661067e565b905083811015610642576040517f08c379a00000000000000000000000000000000000000000000000000000000081526004016106399061159f565b60405180910390fd5b61064f8286868403610822565b60019250505092915050565b60008061066661081a565b9050610673818585610a77565b600191505092915050565b6000600160008473ffffffffffffffffffffffffffffffffffffffff1673ffffffffffffffffffffffffffffffffffffffff16815260200190815260200160002060008373ffffffffffffffffffffffffffffffffffffffff1673ffffffffffffffffffffffffffffffffffffffff16815260200190815260200160002054905092915050565b61070d610ced565b600073ffffffffffffffffffffffffffffffffffffffff168173ffffffffffffffffffffffffffffffffffffffff160361077c576040517f08c379a000000000000000000000000000000000000000000000000000000000815260040161077390611631565b60405180910390fd5b61078581610ec1565b50565b60606006805461079790611499565b80601f01602080910402602001604051908101604052809291908181526020018280546107c390611499565b80156108105780601f106107e557610100808354040283529160200191610810565b820191906000526020600020905b8154815290600101906020018083116107f357829003601f168201915b5050505050905090565b600033905090565b600073ffffffffffffffffffffffffffffffffffffffff168373ffffffffffffffffffffffffffffffffffffffff1603610891576040517f08c379a0000000000000000000000000000000000000000000000000000000008152600401610888906116c3565b60405180910390fd5b600073ffffffffffffffffffffffffffffffffffffffff168273ffffffffffffffffffffffffffffffffffffffff1603610900576040517f08c379a00000000000000000000000000000000000000000000000000000000081526004016108f790611755565b60405180910390fd5b80600160008573ffffffffffffffffffffffffffffffffffffffff1673ffffffffffffffffffffffffffffffffffffffff16815260200190815260200160002060008473ffffffffffffffffffffffffffffffffffffffff1673ffffffffffffffffffffffffffffffffffffffff168152602001908152602001600020819055508173ffffffffffffffffffffffffffffffffffffffff168373ffffffffffffffffffffffffffffffffffffffff167f8c5be1e5ebec7d5bd14f71427d1e84f3dd0314c0f7b2291e5b200ac8c7c3b925836040516109de919061132e565b60405180910390a3505050565b60006109f7848461067e565b90507fffffffffffffffffffffffffffffffffffffffffffffffffffffffffffffffff8114610a715781811015610a63576040517f08c379a0000000000000000000000000000000000000000000000000000000008152600401610a5a906117c1565b60405180910390fd5b610a708484848403610822565b5b50505050565b600073ffffffffffffffffffffffffffffffffffffffff168373ffffffffffffffffffffffffffffffffffffffff1603610ae6576040517f08c379a0000000000000000000000000000000000000000000000000000000008152600401610add90611853565b60405180910390fd5b600073ffffffffffffffffffffffffffffffffffffffff168273ffffffffffffffffffffffffffffffffffffffff1603610b55576040517f08c379a0000000000000000000000000000000000000000000000000000000008152600401610b4c906118e5565b60405180910390fd5b610b60838383611154565b60008060008573ffffffffffffffffffffffffffffffffffffffff1673ffffffffffffffffffffffffffffffffffffffff16815260200190815260200160002054905081811015610be6576040517f08c379a0000000000000000000000000000000000000000000000000000000008152600401610bdd90611977565b60405180910390fd5b8181036000808673ffffffffffffffffffffffffffffffffffffffff1673ffffffffffffffffffffffffffffffffffffffff16815260200190815260200160002081905550816000808573ffffffffffffffffffffffffffffffffffffffff1673ffffffffffffffffffffffffffffffffffffffff168152602001908152602001600020600082825401925050819055508273ffffffffffffffffffffffffffffffffffffffff168473ffffffffffffffffffffffffffffffffffffffff167fddf252ad1be2c89b69c2b068fc378daa952ba7f163c4a11628f55a4df523b3ef84604051610cd4919061132e565b60405180910390a3610ce7848484611159565b50505050565b610cf561081a565b73ffffffffffffffffffffffffffffffffffffffff16610d13610512565b73ffffffffffffffffffffffffffffffffffffffff1614610d69576040517f08c379a0000000000000000000000000000000000000000000000000000000008152600401610d60906119e3565b60405180910390fd5b565b600073ffffffffffffffffffffffffffffffffffffffff168273ffffffffffffffffffffffffffffffffffffffff1603610dda576040517f08c379a0000000000000000000000000000000000000000000000000000000008152600401610dd190611a4f565b60405180910390fd5b610de660008383611154565b8060026000828254610df891906114f9565b92505081905550806000808473ffffffffffffffffffffffffffffffffffffffff1673ffffffffffffffffffffffffffffffffffffffff168152602001908152602001600020600082825401925050819055508173ffffffffffffffffffffffffffffffffffffffff16600073ffffffffffffffffffffffffffffffffffffffff167fddf252ad1be2c89b69c2b068fc378daa952ba7f163c4a11628f55a4df523b3ef83604051610ea9919061132e565b60405180910390a3610ebd60008383611159565b5050565b6000600560009054906101000a900473ffffffffffffffffffffffffffffffffffffffff16905081600560006101000a81548173ffffffffffffffffffffffffffffffffffffffff021916908373ffffffffffffffffffffffffffffffffffffffff1602179055508173ffffffffffffffffffffffffffffffffffffffff168173ffffffffffffffffffffffffffffffffffffffff167f8be0079c531659141344cd1fd0a4f28419497f9722a3daafe3b4186f6b6457e060405160405180910390a35050565b600073ffffffffffffffffffffffffffffffffffffffff168273ffffffffffffffffffffffffffffffffffffffff1603610ff6576040517f08c379a0000000000000000000000000000000000000000000000000000000008152600401610fed90611ae1565b60405180910390fd5b61100282600083611154565b60008060008473ffffffffffffffffffffffffffffffffffffffff1673ffffffffffffffffffffffffffffffffffffffff16815260200190815260200160002054905081811015611088576040517f08c379a000000000000000000000000000000000000000000000000000000000815260040161107f90611b73565b60405180910390fd5b8181036000808573ffffffffffffffffffffffffffffffffffffffff1673ffffffffffffffffffffffffffffffffffffffff1681526020019081526020016000208190555081600260008282540392505081905550600073ffffffffffffffffffffffffffffffffffffffff168373ffffffffffffffffffffffffffffffffffffffff167fddf252ad1be2c89b69c2b068fc378daa952ba7f163c4a11628f55a4df523b3ef8460405161113b919061132e565b60405180910390a361114f83600084611159565b505050565b505050565b505050565b600081519050919050565b600082825260208201905092915050565b60005b8381101561119857808201518184015260208101905061117d565b60008484015250505050565b6000601f19601f8301169050919050565b60006111c08261115e565b6111ca8185611169565b93506111da81856020860161117a565b6111e3816111a4565b840191505092915050565b6000602082019050818103600083015261120881846111b5565b905092915050565b600080fd5b600073ffffffffffffffffffffffffffffffffffffffff82169050919050565b600061124082611215565b9050919050565b61125081611235565b811461125b57600080fd5b50565b60008135905061126d81611247565b92915050565b6000819050919050565b61128681611273565b811461129157600080fd5b50565b6000813590506112a38161127d565b92915050565b600080604083850312156112c0576112bf611210565b5b60006112ce8582860161125e565b92505060206112df85828601611294565b9150509250929050565b60008115159050919050565b6112fe816112e9565b82525050565b600060208201905061131960008301846112f5565b92915050565b61132881611273565b82525050565b6000602082019050611343600083018461131f565b92915050565b60008060006060848603121561136257611361611210565b5b60006113708682870161125e565b93505060206113818682870161125e565b925050604061139286828701611294565b9150509250925092565b600060ff82169050919050565b6113b28161139c565b82525050565b60006020820190506113cd60008301846113a9565b92915050565b6000602082840312156113e9576113e8611210565b5b60006113f78482850161125e565b91505092915050565b61140981611235565b82525050565b60006020820190506114246000830184611400565b92915050565b6000806040838503121561144157611440611210565b5b600061144f8582860161125e565b92505060206114608582860161125e565b9150509250929050565b7f4e487b7100000000000000000000000000000000000000000000000000000000600052602260045260246000fd5b600060028204905060018216806114b157607f821691505b6020821081036114c4576114c361146a565b5b50919050565b7f4e487b7100000000000000000000000000000000000000000000000000000000600052601160045260246000fd5b600061150482611273565b915061150f83611273565b9250828201905080821115611527576115266114ca565b5b92915050565b7f45524332303a2064656372656173656420616c6c6f77616e63652062656c6f7760008201527f207a65726f000000000000000000000000000000000000000000000000000000602082015250565b6000611589602583611169565b91506115948261152d565b604082019050919050565b600060208201905081810360008301526115b88161157c565b9050919050565b7f4f776e61626c653a206e6577206f776e657220697320746865207a65726f206160008201527f6464726573730000000000000000000000000000000000000000000000000000602082015250565b600061161b602683611169565b9150611626826115bf565b604082019050919050565b6000602082019050818103600083015261164a8161160e565b9050919050565b7f45524332303a20617070726f76652066726f6d20746865207a65726f2061646460008201527f7265737300000000000000000000000000000000000000000000000000000000602082015250565b60006116ad602483611169565b91506116b882611651565b604082019050919050565b600060208201905081810360008301526116dc816116a0565b9050919050565b7f45524332303a20617070726f766520746f20746865207a65726f20616464726560008201527f7373000000000000000000000000000000000000000000000000000000000000602082015250565b600061173f602283611169565b915061174a826116e3565b604082019050919050565b6000602082019050818103600083015261176e81611732565b9050919050565b7f45524332303a20696e73756666696369656e7420616c6c6f77616e6365000000600082015250565b60006117ab601d83611169565b91506117b682611775565b602082019050919050565b600060208201905081810360008301526117da8161179e565b9050919050565b7f45524332303a207472616e736665722066726f6d20746865207a65726f20616460008201527f6472657373000000000000000000000000000000000000000000000000000000602082015250565b600061183d602583611169565b9150611848826117e1565b604082019050919050565b6000602082019050818103600083015261186c81611830565b9050919050565b7f45524332303a207472616e7366657220746f20746865207a65726f206164647260008201527f6573730000000000000000000000000000000000000000000000000000000000602082015250565b60006118cf602383611169565b91506118da82611873565b604082019050919050565b600060208201905081810360008301526118fe816118c2565b9050919050565b7f45524332303a207472616e7366657220616d6f756e742065786365656473206260008201527f616c616e63650000000000000000000000000000000000000000000000000000602082015250565b6000611961602683611169565b915061196c82611905565b604082019050919050565b6000602082019050818103600083015261199081611954565b9050919050565b7f4f776e61626c653a2063616c6c6572206973206e6f7420746865206f776e6572600082015250565b60006119cd602083611169565b91506119d882611997565b602082019050919050565b600060208201905081810360008301526119fc816119c0565b9050919050565b7f45524332303a206d696e7420746f20746865207a65726f206164647265737300600082015250565b6000611a39601f83611169565b9150611a4482611a03565b602082019050919050565b60006020820190508181036000830152611a6881611a2c565b9050919050565b7f45524332303a206275726e2066726f6d20746865207a65726f2061646472657360008201527f7300000000000000000000000000000000000000000000000000000000000000602082015250565b6000611acb602183611169565b9150611ad682611a6f565b604082019050919050565b60006020820190508181036000830152611afa81611abe565b9050919050565b7f45524332303a206275726e20616d6f756e7420657863656564732062616c616e60008201527f6365000000000000000000000000000000000000000000000000000000000000602082015250565b6000611b5d602283611169565b9150611b6882611b01565b604082019050919050565b60006020820190508181036000830152611b8c81611b50565b905091905056fea2646970667358221220c5c0c99609e4f026d931ee38a7c1966690547c2f606ca417bcb83b216262806d64736f6c63430008120033",
			"opcodes": "PUSH1 0x80 PUSH1 0x40 MSTORE CALLVALUE DUP1 ISZERO PUSH3 0x11 JUMPI PUSH1 0x0 DUP1 REVERT JUMPDEST POP PUSH1 0x40 MLOAD PUSH3 0x22BF CODESIZE SUB DUP1 PUSH3 0x22BF DUP4 CODECOPY DUP2 DUP2 ADD PUSH1 0x40 MSTORE DUP2 ADD SWAP1 PUSH3 0x37 SWAP2 SWAP1 PUSH3 0x2FB JUMP JUMPDEST DUP3 DUP3 DUP2 PUSH1 0x3 SWAP1 DUP2 PUSH3 0x4A SWAP2 SWAP1 PUSH3 0x5FF JUMP JUMPDEST POP DUP1 PUSH1 0x4 SWAP1 DUP2 PUSH3 0x5C SWAP2 SWAP1 PUSH3 0x5FF JUMP JUMPDEST POP POP POP PUSH3 0x7F PUSH3 0x73 PUSH3 0x9A PUSH1 0x20 SHL PUSH1 0x20 SHR JUMP JUMPDEST PUSH3 0xA2 PUSH1 0x20 SHL PUSH1 0x20 SHR JUMP JUMPDEST DUP1 PUSH1 0x6 SWAP1 DUP2 PUSH3 0x90 SWAP2 SWAP1 PUSH3 0x5FF JUMP JUMPDEST POP POP POP POP PUSH3 0x6E6 JUMP JUMPDEST PUSH1 0x0 CALLER SWAP1 POP SWAP1 JUMP JUMPDEST PUSH1 0x0 PUSH1 0x5 PUSH1 0x0 SWAP1 SLOAD SWAP1 PUSH2 0x100 EXP SWAP1 DIV PUSH20 0xFFFFFFFFFFFFFFFFFFFFFFFFFFFFFFFFFFFFFFFF AND SWAP1 POP DUP2 PUSH1 0x5 PUSH1 0x0 PUSH2 0x100 EXP DUP2 SLOAD DUP2 PUSH20 0xFFFFFFFFFFFFFFFFFFFFFFFFFFFFFFFFFFFFFFFF MUL NOT AND SWAP1 DUP4 PUSH20 0xFFFFFFFFFFFFFFFFFFFFFFFFFFFFFFFFFFFFFFFF AND MUL OR SWAP1 SSTORE POP DUP2 PUSH20 0xFFFFFFFFFFFFFFFFFFFFFFFFFFFFFFFFFFFFFFFF AND DUP2 PUSH20 0xFFFFFFFFFFFFFFFFFFFFFFFFFFFFFFFFFFFFFFFF AND PUSH32 0x8BE0079C531659141344CD1FD0A4F28419497F9722A3DAAFE3B4186F6B6457E0 PUSH1 0x40 MLOAD PUSH1 0x40 MLOAD DUP1 SWAP2 SUB SWAP1 LOG3 POP POP JUMP JUMPDEST PUSH1 0x0 PUSH1 0x40 MLOAD SWAP1 POP SWAP1 JUMP JUMPDEST PUSH1 0x0 DUP1 REVERT JUMPDEST PUSH1 0x0 DUP1 REVERT JUMPDEST PUSH1 0x0 DUP1 REVERT JUMPDEST PUSH1 0x0 DUP1 REVERT JUMPDEST PUSH1 0x0 PUSH1 0x1F NOT PUSH1 0x1F DUP4 ADD AND SWAP1 POP SWAP2 SWAP1 POP JUMP JUMPDEST PUSH32 0x4E487B7100000000000000000000000000000000000000000000000000000000 PUSH1 0x0 MSTORE PUSH1 0x41 PUSH1 0x4 MSTORE PUSH1 0x24 PUSH1 0x0 REVERT JUMPDEST PUSH3 0x1D1 DUP3 PUSH3 0x186 JUMP JUMPDEST DUP2 ADD DUP2 DUP2 LT PUSH8 0xFFFFFFFFFFFFFFFF DUP3 GT OR ISZERO PUSH3 0x1F3 JUMPI PUSH3 0x1F2 PUSH3 0x197 JUMP JUMPDEST JUMPDEST DUP1 PUSH1 0x40 MSTORE POP POP POP JUMP JUMPDEST PUSH1 0x0 PUSH3 0x208 PUSH3 0x168 JUMP JUMPDEST SWAP1 POP PUSH3 0x216 DUP3 DUP3 PUSH3 0x1C6 JUMP JUMPDEST SWAP2 SWAP1 POP JUMP JUMPDEST PUSH1 0x0 PUSH8 0xFFFFFFFFFFFFFFFF DUP3 GT ISZERO PUSH3 0x239 JUMPI PUSH3 0x238 PUSH3 0x197 JUMP JUMPDEST JUMPDEST PUSH3 0x244 DUP3 PUSH3 0x186 JUMP JUMPDEST SWAP1 POP PUSH1 0x20 DUP2 ADD SWAP1 POP SWAP2 SWAP1 POP JUMP JUMPDEST PUSH1 0x0 JUMPDEST DUP4 DUP2 LT ISZERO PUSH3 0x271 JUMPI DUP1 DUP3 ADD MLOAD DUP2 DUP5 ADD MSTORE PUSH1 0x20 DUP2 ADD SWAP1 POP PUSH3 0x254 JUMP JUMPDEST PUSH1 0x0 DUP5 DUP5 ADD MSTORE POP POP POP POP JUMP JUMPDEST PUSH1 0x0 PUSH3 0x294 PUSH3 0x28E DUP5 PUSH3 0x21B JUMP JUMPDEST PUSH3 0x1FC JUMP JUMPDEST SWAP1 POP DUP3 DUP2 MSTORE PUSH1 0x20 DUP2 ADD DUP5 DUP5 DUP5 ADD GT ISZERO PUSH3 0x2B3 JUMPI PUSH3 0x2B2 PUSH3 0x181 JUMP JUMPDEST JUMPDEST PUSH3 0x2C0 DUP5 DUP3 DUP6 PUSH3 0x251 JUMP JUMPDEST POP SWAP4 SWAP3 POP POP POP JUMP JUMPDEST PUSH1 0x0 DUP3 PUSH1 0x1F DUP4 ADD SLT PUSH3 0x2E0 JUMPI PUSH3 0x2DF PUSH3 0x17C JUMP JUMPDEST JUMPDEST DUP2 MLOAD PUSH3 0x2F2 DUP5 DUP3 PUSH1 0x20 DUP7 ADD PUSH3 0x27D JUMP JUMPDEST SWAP2 POP POP SWAP3 SWAP2 POP POP JUMP JUMPDEST PUSH1 0x0 DUP1 PUSH1 0x0 PUSH1 0x60 DUP5 DUP7 SUB SLT ISZERO PUSH3 0x317 JUMPI PUSH3 0x316 PUSH3 0x172 JUMP JUMPDEST JUMPDEST PUSH1 0x0 DUP5 ADD MLOAD PUSH8 0xFFFFFFFFFFFFFFFF DUP2 GT ISZERO PUSH3 0x338 JUMPI PUSH3 0x337 PUSH3 0x177 JUMP JUMPDEST JUMPDEST PUSH3 0x346 DUP7 DUP3 DUP8 ADD PUSH3 0x2C8 JUMP JUMPDEST SWAP4 POP POP PUSH1 0x20 DUP5 ADD MLOAD PUSH8 0xFFFFFFFFFFFFFFFF DUP2 GT ISZERO PUSH3 0x36A JUMPI PUSH3 0x369 PUSH3 0x177 JUMP JUMPDEST JUMPDEST PUSH3 0x378 DUP7 DUP3 DUP8 ADD PUSH3 0x2C8 JUMP JUMPDEST SWAP3 POP POP PUSH1 0x40 DUP5 ADD MLOAD PUSH8 0xFFFFFFFFFFFFFFFF DUP2 GT ISZERO PUSH3 0x39C JUMPI PUSH3 0x39B PUSH3 0x177 JUMP JUMPDEST JUMPDEST PUSH3 0x3AA DUP7 DUP3 DUP8 ADD PUSH3 0x2C8 JUMP JUMPDEST SWAP2 POP POP SWAP3 POP SWAP3 POP SWAP3 JUMP JUMPDEST PUSH1 0x0 DUP2 MLOAD SWAP1 POP SWAP2 SWAP1 POP JUMP JUMPDEST PUSH32 0x4E487B7100000000000000000000000000000000000000000000000000000000 PUSH1 0x0 MSTORE PUSH1 0x22 PUSH1 0x4 MSTORE PUSH1 0x24 PUSH1 0x0 REVERT JUMPDEST PUSH1 0x0 PUSH1 0x2 DUP3 DIV SWAP1 POP PUSH1 0x1 DUP3 AND DUP1 PUSH3 0x407 JUMPI PUSH1 0x7F DUP3 AND SWAP2 POP JUMPDEST PUSH1 0x20 DUP3 LT DUP2 SUB PUSH3 0x41D JUMPI PUSH3 0x41C PUSH3 0x3BF JUMP JUMPDEST JUMPDEST POP SWAP2 SWAP1 POP JUMP JUMPDEST PUSH1 0x0 DUP2 SWAP1 POP DUP2 PUSH1 0x0 MSTORE PUSH1 0x20 PUSH1 0x0 KECCAK256 SWAP1 POP SWAP2 SWAP1 POP JUMP JUMPDEST PUSH1 0x0 PUSH1 0x20 PUSH1 0x1F DUP4 ADD DIV SWAP1 POP SWAP2 SWAP1 POP JUMP JUMPDEST PUSH1 0x0 DUP3 DUP3 SHL SWAP1 POP SWAP3 SWAP2 POP POP JUMP JUMPDEST PUSH1 0x0 PUSH1 0x8 DUP4 MUL PUSH3 0x487 PUSH32 0xFFFFFFFFFFFFFFFFFFFFFFFFFFFFFFFFFFFFFFFFFFFFFFFFFFFFFFFFFFFFFFFF DUP3 PUSH3 0x448 JUMP JUMPDEST PUSH3 0x493 DUP7 DUP4 PUSH3 0x448 JUMP JUMPDEST SWAP6 POP DUP1 NOT DUP5 AND SWAP4 POP DUP1 DUP7 AND DUP5 OR SWAP3 POP POP POP SWAP4 SWAP3 POP POP POP JUMP JUMPDEST PUSH1 0x0 DUP2 SWAP1 POP SWAP2 SWAP1 POP JUMP JUMPDEST PUSH1 0x0 DUP2 SWAP1 POP SWAP2 SWAP1 POP JUMP JUMPDEST PUSH1 0x0 PUSH3 0x4E0 PUSH3 0x4DA PUSH3 0x4D4 DUP5 PUSH3 0x4AB JUMP JUMPDEST PUSH3 0x4B5 JUMP JUMPDEST PUSH3 0x4AB JUMP JUMPDEST SWAP1 POP SWAP2 SWAP1 POP JUMP JUMPDEST PUSH1 0x0 DUP2 SWAP1 POP SWAP2 SWAP1 POP JUMP JUMPDEST PUSH3 0x4FC DUP4 PUSH3 0x4BF JUMP JUMPDEST PUSH3 0x514 PUSH3 0x50B DUP3 PUSH3 0x4E7 JUMP JUMPDEST DUP5 DUP5 SLOAD PUSH3 0x455 JUMP JUMPDEST DUP3 SSTORE POP POP POP POP JUMP JUMPDEST PUSH1 0x0 SWAP1 JUMP JUMPDEST PUSH3 0x52B PUSH3 0x51C JUMP JUMPDEST PUSH3 0x538 DUP2 DUP5 DUP5 PUSH3 0x4F1 JUMP JUMPDEST POP POP POP JUMP JUMPDEST JUMPDEST DUP2 DUP2 LT ISZERO PUSH3 0x560 JUMPI PUSH3 0x554 PUSH1 0x0 DUP3 PUSH3 0x521 JUMP JUMPDEST PUSH1 0x1 DUP2 ADD SWAP1 POP PUSH3 0x53E JUMP JUMPDEST POP POP JUMP JUMPDEST PUSH1 0x1F DUP3 GT ISZERO PUSH3 0x5AF JUMPI PUSH3 0x579 DUP2 PUSH3 0x423 JUMP JUMPDEST PUSH3 0x584 DUP5 PUSH3 0x438 JUMP JUMPDEST DUP2 ADD PUSH1 0x20 DUP6 LT ISZERO PUSH3 0x594 JUMPI DUP2 SWAP1 POP JUMPDEST PUSH3 0x5AC PUSH3 0x5A3 DUP6 PUSH3 0x438 JUMP JUMPDEST DUP4 ADD DUP3 PUSH3 0x53D JUMP JUMPDEST POP POP JUMPDEST POP POP POP JUMP JUMPDEST PUSH1 0x0 DUP3 DUP3 SHR SWAP1 POP SWAP3 SWAP2 POP POP JUMP JUMPDEST PUSH1 0x0 PUSH3 0x5D4 PUSH1 0x0 NOT DUP5 PUSH1 0x8 MUL PUSH3 0x5B4 JUMP JUMPDEST NOT DUP1 DUP4 AND SWAP2 POP POP SWAP3 SWAP2 POP POP JUMP JUMPDEST PUSH1 0x0 PUSH3 0x5EF DUP4 DUP4 PUSH3 0x5C1 JUMP JUMPDEST SWAP2 POP DUP3 PUSH1 0x2 MUL DUP3 OR SWAP1 POP SWAP3 SWAP2 POP POP JUMP JUMPDEST PUSH3 0x60A DUP3 PUSH3 0x3B4 JUMP JUMPDEST PUSH8 0xFFFFFFFFFFFFFFFF DUP2 GT ISZERO PUSH3 0x626 JUMPI PUSH3 0x625 PUSH3 0x197 JUMP JUMPDEST JUMPDEST PUSH3 0x632 DUP3 SLOAD PUSH3 0x3EE JUMP JUMPDEST PUSH3 0x63F DUP3 DUP3 DUP6 PUSH3 0x564 JUMP JUMPDEST PUSH1 0x0 PUSH1 0x20 SWAP1 POP PUSH1 0x1F DUP4 GT PUSH1 0x1 DUP2 EQ PUSH3 0x677 JUMPI PUSH1 0x0 DUP5 ISZERO PUSH3 0x662 JUMPI DUP3 DUP8 ADD MLOAD SWAP1 POP JUMPDEST PUSH3 0x66E DUP6 DUP3 PUSH3 0x5E1 JUMP JUMPDEST DUP7 SSTORE POP PUSH3 0x6DE JUMP JUMPDEST PUSH1 0x1F NOT DUP5 AND PUSH3 0x687 DUP7 PUSH3 0x423 JUMP JUMPDEST PUSH1 0x0 JUMPDEST DUP3 DUP2 LT ISZERO PUSH3 0x6B1 JUMPI DUP5 DUP10 ADD MLOAD DUP3 SSTORE PUSH1 0x1 DUP3 ADD SWAP2 POP PUSH1 0x20 DUP6 ADD SWAP5 POP PUSH1 0x20 DUP2 ADD SWAP1 POP PUSH3 0x68A JUMP JUMPDEST DUP7 DUP4 LT ISZERO PUSH3 0x6D1 JUMPI DUP5 DUP10 ADD MLOAD PUSH3 0x6CD PUSH1 0x1F DUP10 AND DUP3 PUSH3 0x5C1 JUMP JUMPDEST DUP4 SSTORE POP JUMPDEST PUSH1 0x1 PUSH1 0x2 DUP9 MUL ADD DUP9 SSTORE POP POP POP JUMPDEST POP POP POP POP POP POP JUMP JUMPDEST PUSH2 0x1BC9 DUP1 PUSH3 0x6F6 PUSH1 0x0 CODECOPY PUSH1 0x0 RETURN INVALID PUSH1 0x80 PUSH1 0x40 MSTORE CALLVALUE DUP1 ISZERO PUSH2 0x10 JUMPI PUSH1 0x0 DUP1 REVERT JUMPDEST POP PUSH1 0x4 CALLDATASIZE LT PUSH2 0x10B JUMPI PUSH1 0x0 CALLDATALOAD PUSH1 0xE0 SHR DUP1 PUSH4 0x715018A6 GT PUSH2 0xA2 JUMPI DUP1 PUSH4 0xA457C2D7 GT PUSH2 0x71 JUMPI DUP1 PUSH4 0xA457C2D7 EQ PUSH2 0x2A8 JUMPI DUP1 PUSH4 0xA9059CBB EQ PUSH2 0x2D8 JUMPI DUP1 PUSH4 0xDD62ED3E EQ PUSH2 0x308 JUMPI DUP1 PUSH4 0xF2FDE38B EQ PUSH2 0x338 JUMPI DUP1 PUSH4 0xF9633930 EQ PUSH2 0x354 JUMPI PUSH2 0x10B JUMP JUMPDEST DUP1 PUSH4 0x715018A6 EQ PUSH2 0x246 JUMPI DUP1 PUSH4 0x8DA5CB5B EQ PUSH2 0x250 JUMPI DUP1 PUSH4 0x95D89B41 EQ PUSH2 0x26E JUMPI DUP1 PUSH4 0x9DC29FAC EQ PUSH2 0x28C JUMPI PUSH2 0x10B JUMP JUMPDEST DUP1 PUSH4 0x313CE567 GT PUSH2 0xDE JUMPI DUP1 PUSH4 0x313CE567 EQ PUSH2 0x1AC JUMPI DUP1 PUSH4 0x39509351 EQ PUSH2 0x1CA JUMPI DUP1 PUSH4 0x40C10F19 EQ PUSH2 0x1FA JUMPI DUP1 PUSH4 0x70A08231 EQ PUSH2 0x216 JUMPI PUSH2 0x10B JUMP JUMPDEST DUP1 PUSH4 0x6FDDE03 EQ PUSH2 0x110 JUMPI DUP1 PUSH4 0x95EA7B3 EQ PUSH2 0x12E JUMPI DUP1 PUSH4 0x18160DDD EQ PUSH2 0x15E JUMPI DUP1 PUSH4 0x23B872DD EQ PUSH2 0x17C JUMPI JUMPDEST PUSH1 0x0 DUP1 REVERT JUMPDEST PUSH2 0x118 PUSH2 0x372 JUMP JUMPDEST PUSH1 0x40 MLOAD PUSH2 0x125 SWAP2 SWAP1 PUSH2 0x11EE JUMP JUMPDEST PUSH1 0x40 MLOAD DUP1 SWAP2 SUB SWAP1 RETURN JUMPDEST PUSH2 0x148 PUSH1 0x4 DUP1 CALLDATASIZE SUB DUP2 ADD SWAP1 PUSH2 0x143 SWAP2 SWAP1 PUSH2 0x12A9 JUMP JUMPDEST PUSH2 0x404 JUMP JUMPDEST PUSH1 0x40 MLOAD PUSH2 0x155 SWAP2 SWAP1 PUSH2 0x1304 JUMP JUMPDEST PUSH1 0x40 MLOAD DUP1 SWAP2 SUB SWAP1 RETURN JUMPDEST PUSH2 0x166 PUSH2 0x427 JUMP JUMPDEST PUSH1 0x40 MLOAD PUSH2 0x173 SWAP2 SWAP1 PUSH2 0x132E JUMP JUMPDEST PUSH1 0x40 MLOAD DUP1 SWAP2 SUB SWAP1 RETURN JUMPDEST PUSH2 0x196 PUSH1 0x4 DUP1 CALLDATASIZE SUB DUP2 ADD SWAP1 PUSH2 0x191 SWAP2 SWAP1 PUSH2 0x1349 JUMP JUMPDEST PUSH2 0x431 JUMP JUMPDEST PUSH1 0x40 MLOAD PUSH2 0x1A3 SWAP2 SWAP1 PUSH2 0x1304 JUMP JUMPDEST PUSH1 0x40 MLOAD DUP1 SWAP2 SUB SWAP1 RETURN JUMPDEST PUSH2 0x1B4 PUSH2 0x460 JUMP JUMPDEST PUSH1 0x40 MLOAD PUSH2 0x1C1 SWAP2 SWAP1 PUSH2 0x13B8 JUMP JUMPDEST PUSH1 0x40 MLOAD DUP1 SWAP2 SUB SWAP1 RETURN JUMPDEST PUSH2 0x1E4 PUSH1 0x4 DUP1 CALLDATASIZE SUB DUP2 ADD SWAP1 PUSH2 0x1DF SWAP2 SWAP1 PUSH2 0x12A9 JUMP JUMPDEST PUSH2 0x469 JUMP JUMPDEST PUSH1 0x40 MLOAD PUSH2 0x1F1 SWAP2 SWAP1 PUSH2 0x1304 JUMP JUMPDEST PUSH1 0x40 MLOAD DUP1 SWAP2 SUB SWAP1 RETURN JUMPDEST PUSH2 0x214 PUSH1 0x4 DUP1 CALLDATASIZE SUB DUP2 ADD SWAP1 PUSH2 0x20F SWAP2 SWAP1 PUSH2 0x12A9 JUMP JUMPDEST PUSH2 0x4A0 JUMP JUMPDEST STOP JUMPDEST PUSH2 0x230 PUSH1 0x4 DUP1 CALLDATASIZE SUB DUP2 ADD SWAP1 PUSH2 0x22B SWAP2 SWAP1 PUSH2 0x13D3 JUMP JUMPDEST PUSH2 0x4B6 JUMP JUMPDEST PUSH1 0x40 MLOAD PUSH2 0x23D SWAP2 SWAP1 PUSH2 0x132E JUMP JUMPDEST PUSH1 0x40 MLOAD DUP1 SWAP2 SUB SWAP1 RETURN JUMPDEST PUSH2 0x24E PUSH2 0x4FE JUMP JUMPDEST STOP JUMPDEST PUSH2 0x258 PUSH2 0x512 JUMP JUMPDEST PUSH1 0x40 MLOAD PUSH2 0x265 SWAP2 SWAP1 PUSH2 0x140F JUMP JUMPDEST PUSH1 0x40 MLOAD DUP1 SWAP2 SUB SWAP1 RETURN JUMPDEST PUSH2 0x276 PUSH2 0x53C JUMP JUMPDEST PUSH1 0x40 MLOAD PUSH2 0x283 SWAP2 SWAP1 PUSH2 0x11EE JUMP JUMPDEST PUSH1 0x40 MLOAD DUP1 SWAP2 SUB SWAP1 RETURN JUMPDEST PUSH2 0x2A6 PUSH1 0x4 DUP1 CALLDATASIZE SUB DUP2 ADD SWAP1 PUSH2 0x2A1 SWAP2 SWAP1 PUSH2 0x12A9 JUMP JUMPDEST PUSH2 0x5CE JUMP JUMPDEST STOP JUMPDEST PUSH2 0x2C2 PUSH1 0x4 DUP1 CALLDATASIZE SUB DUP2 ADD SWAP1 PUSH2 0x2BD SWAP2 SWAP1 PUSH2 0x12A9 JUMP JUMPDEST PUSH2 0x5E4 JUMP JUMPDEST PUSH1 0x40 MLOAD PUSH2 0x2CF SWAP2 SWAP1 PUSH2 0x1304 JUMP JUMPDEST PUSH1 0x40 MLOAD DUP1 SWAP2 SUB SWAP1 RETURN JUMPDEST PUSH2 0x2F2 PUSH1 0x4 DUP1 CALLDATASIZE SUB DUP2 ADD SWAP1 PUSH2 0x2ED SWAP2 SWAP1 PUSH2 0x12A9 JUMP JUMPDEST PUSH2 0x65B JUMP JUMPDEST PUSH1 0x40 MLOAD PUSH2 0x2FF SWAP2 SWAP1 PUSH2 0x1304 JUMP JUMPDEST PUSH1 0x40 MLOAD DUP1 SWAP2 SUB SWAP1 RETURN JUMPDEST PUSH2 0x322 PUSH1 0x4 DUP1 CALLDATASIZE SUB DUP2 ADD SWAP1 PUSH2 0x31D SWAP2 SWAP1 PUSH2 0x142A JUMP JUMPDEST PUSH2 0x67E JUMP JUMPDEST PUSH1 0x40 MLOAD PUSH2 0x32F SWAP2 SWAP1 PUSH2 0x132E JUMP JUMPDEST PUSH1 0x40 MLOAD DUP1 SWAP2 SUB SWAP1 RETURN JUMPDEST PUSH2 0x352 PUSH1 0x4 DUP1 CALLDATASIZE SUB DUP2 ADD SWAP1 PUSH2 0x34D SWAP2 SWAP1 PUSH2 0x13D3 JUMP JUMPDEST PUSH2 0x705 JUMP JUMPDEST STOP JUMPDEST PUSH2 0x35C PUSH2 0x788 JUMP JUMPDEST PUSH1 0x40 MLOAD PUSH2 0x369 SWAP2 SWAP1 PUSH2 0x11EE JUMP JUMPDEST PUSH1 0x40 MLOAD DUP1 SWAP2 SUB SWAP1 RETURN JUMPDEST PUSH1 0x60 PUSH1 0x3 DUP1 SLOAD PUSH2 0x381 SWAP1 PUSH2 0x1499 JUMP JUMPDEST DUP1 PUSH1 0x1F ADD PUSH1 0x20 DUP1 SWAP2 DIV MUL PUSH1 0x20 ADD PUSH1 0x40 MLOAD SWAP1 DUP2 ADD PUSH1 0x40 MSTORE DUP1 SWAP3 SWAP2 SWAP1 DUP2 DUP2 MSTORE PUSH1 0x20 ADD DUP3 DUP1 SLOAD PUSH2 0x3AD SWAP1 PUSH2 0x1499 JUMP JUMPDEST DUP1 ISZERO PUSH2 0x3FA JUMPI DUP1 PUSH1 0x1F LT PUSH2 0x3CF JUMPI PUSH2 0x100 DUP1 DUP4 SLOAD DIV MUL DUP4 MSTORE SWAP2 PUSH1 0x20 ADD SWAP2 PUSH2 0x3FA JUMP JUMPDEST DUP3 ADD SWAP2 SWAP1 PUSH1 0x0 MSTORE PUSH1 0x20 PUSH1 0x0 KECCAK256 SWAP1 JUMPDEST DUP2 SLOAD DUP2 MSTORE SWAP1 PUSH1 0x1 ADD SWAP1 PUSH1 0x20 ADD DUP1 DUP4 GT PUSH2 0x3DD JUMPI DUP3 SWAP1 SUB PUSH1 0x1F AND DUP3 ADD SWAP2 JUMPDEST POP POP POP POP POP SWAP1 POP SWAP1 JUMP JUMPDEST PUSH1 0x0 DUP1 PUSH2 0x40F PUSH2 0x81A JUMP JUMPDEST SWAP1 POP PUSH2 0x41C DUP2 DUP6 DUP6 PUSH2 0x822 JUMP JUMPDEST PUSH1 0x1 SWAP2 POP POP SWAP3 SWAP2 POP POP JUMP JUMPDEST PUSH1 0x0 PUSH1 0x2 SLOAD SWAP1 POP SWAP1 JUMP JUMPDEST PUSH1 0x0 DUP1 PUSH2 0x43C PUSH2 0x81A JUMP JUMPDEST SWAP1 POP PUSH2 0x449 DUP6 DUP3 DUP6 PUSH2 0x9EB JUMP JUMPDEST PUSH2 0x454 DUP6 DUP6 DUP6 PUSH2 0xA77 JUMP JUMPDEST PUSH1 0x1 SWAP2 POP POP SWAP4 SWAP3 POP POP POP JUMP JUMPDEST PUSH1 0x0 PUSH1 0x12 SWAP1 POP SWAP1 JUMP JUMPDEST PUSH1 0x0 DUP1 PUSH2 0x474 PUSH2 0x81A JUMP JUMPDEST SWAP1 POP PUSH2 0x495 DUP2 DUP6 DUP6 PUSH2 0x486 DUP6 DUP10 PUSH2 0x67E JUMP JUMPDEST PUSH2 0x490 SWAP2 SWAP1 PUSH2 0x14F9 JUMP JUMPDEST PUSH2 0x822 JUMP JUMPDEST PUSH1 0x1 SWAP2 POP POP SWAP3 SWAP2 POP POP JUMP JUMPDEST PUSH2 0x4A8 PUSH2 0xCED JUMP JUMPDEST PUSH2 0x4B2 DUP3 DUP3 PUSH2 0xD6B JUMP JUMPDEST POP POP JUMP JUMPDEST PUSH1 0x0 DUP1 PUSH1 0x0 DUP4 PUSH20 0xFFFFFFFFFFFFFFFFFFFFFFFFFFFFFFFFFFFFFFFF AND PUSH20 0xFFFFFFFFFFFFFFFFFFFFFFFFFFFFFFFFFFFFFFFF AND DUP2 MSTORE PUSH1 0x20 ADD SWAP1 DUP2 MSTORE PUSH1 0x20 ADD PUSH1 0x0 KECCAK256 SLOAD SWAP1 POP SWAP2 SWAP1 POP JUMP JUMPDEST PUSH2 0x506 PUSH2 0xCED JUMP JUMPDEST PUSH2 0x510 PUSH1 0x0 PUSH2 0xEC1 JUMP JUMPDEST JUMP JUMPDEST PUSH1 0x0 PUSH1 0x5 PUSH1 0x0 SWAP1 SLOAD SWAP1 PUSH2 0x100 EXP SWAP1 DIV PUSH20 0xFFFFFFFFFFFFFFFFFFFFFFFFFFFFFFFFFFFFFFFF AND SWAP1 POP SWAP1 JUMP JUMPDEST PUSH1 0x60 PUSH1 0x4 DUP1 SLOAD PUSH2 0x54B SWAP1 PUSH2 0x1499 JUMP JUMPDEST DUP1 PUSH1 0x1F ADD PUSH1 0x20 DUP1 SWAP2 DIV MUL PUSH1 0x20 ADD PUSH1 0x40 MLOAD SWAP1 DUP2 ADD PUSH1 0x40 MSTORE DUP1 SWAP3 SWAP2 SWAP1 DUP2 DUP2 MSTORE PUSH1 0x20 ADD DUP3 DUP1 SLOAD PUSH2 0x577 SWAP1 PUSH2 0x1499 JUMP JUMPDEST DUP1 ISZERO PUSH2 0x5C4 JUMPI DUP1 PUSH1 0x1F LT PUSH2 0x599 JUMPI PUSH2 0x100 DUP1 DUP4 SLOAD DIV MUL DUP4 MSTORE SWAP2 PUSH1 0x20 ADD SWAP2 PUSH2 0x5C4 JUMP JUMPDEST DUP3 ADD SWAP2 SWAP1 PUSH1 0x0 MSTORE PUSH1 0x20 PUSH1 0x0 KECCAK256 SWAP1 JUMPDEST DUP2 SLOAD DUP2 MSTORE SWAP1 PUSH1 0x1 ADD SWAP1 PUSH1 0x20 ADD DUP1 DUP4 GT PUSH2 0x5A7 JUMPI DUP3 SWAP1 SUB PUSH1 0x1F AND DUP3 ADD SWAP2 JUMPDEST POP POP POP POP POP SWAP1 POP SWAP1 JUMP JUMPDEST PUSH2 0x5D6 PUSH2 0xCED JUMP JUMPDEST PUSH2 0x5E0 DUP3 DUP3 PUSH2 0xF87 JUMP JUMPDEST POP POP JUMP JUMPDEST PUSH1 0x0 DUP1 PUSH2 0x5EF PUSH2 0x81A JUMP JUMPDEST SWAP1 POP PUSH1 0x0 PUSH2 0x5FD DUP3 DUP7 PUSH2 0x67E JUMP JUMPDEST SWAP1 POP DUP4 DUP2 LT ISZERO PUSH2 0x642 JUMPI PUSH1 0x40 MLOAD PUSH32 0x8C379A000000000000000000000000000000000000000000000000000000000 DUP2 MSTORE PUSH1 0x4 ADD PUSH2 0x639 SWAP1 PUSH2 0x159F JUMP JUMPDEST PUSH1 0x40 MLOAD DUP1 SWAP2 SUB SWAP1 REVERT JUMPDEST PUSH2 0x64F DUP3 DUP7 DUP7 DUP5 SUB PUSH2 0x822 JUMP JUMPDEST PUSH1 0x1 SWAP3 POP POP POP SWAP3 SWAP2 POP POP JUMP JUMPDEST PUSH1 0x0 DUP1 PUSH2 0x666 PUSH2 0x81A JUMP JUMPDEST SWAP1 POP PUSH2 0x673 DUP2 DUP6 DUP6 PUSH2 0xA77 JUMP JUMPDEST PUSH1 0x1 SWAP2 POP POP SWAP3 SWAP2 POP POP JUMP JUMPDEST PUSH1 0x0 PUSH1 0x1 PUSH1 0x0 DUP5 PUSH20 0xFFFFFFFFFFFFFFFFFFFFFFFFFFFFFFFFFFFFFFFF AND PUSH20 0xFFFFFFFFFFFFFFFFFFFFFFFFFFFFFFFFFFFFFFFF AND DUP2 MSTORE PUSH1 0x20 ADD SWAP1 DUP2 MSTORE PUSH1 0x20 ADD PUSH1 0x0 KECCAK256 PUSH1 0x0 DUP4 PUSH20 0xFFFFFFFFFFFFFFFFFFFFFFFFFFFFFFFFFFFFFFFF AND PUSH20 0xFFFFFFFFFFFFFFFFFFFFFFFFFFFFFFFFFFFFFFFF AND DUP2 MSTORE PUSH1 0x20 ADD SWAP1 DUP2 MSTORE PUSH1 0x20 ADD PUSH1 0x0 KECCAK256 SLOAD SWAP1 POP SWAP3 SWAP2 POP POP JUMP JUMPDEST PUSH2 0x70D PUSH2 0xCED JUMP JUMPDEST PUSH1 0x0 PUSH20 0xFFFFFFFFFFFFFFFFFFFFFFFFFFFFFFFFFFFFFFFF AND DUP2 PUSH20 0xFFFFFFFFFFFFFFFFFFFFFFFFFFFFFFFFFFFFFFFF AND SUB PUSH2 0x77C JUMPI PUSH1 0x40 MLOAD PUSH32 0x8C379A000000000000000000000000000000000000000000000000000000000 DUP2 MSTORE PUSH1 0x4 ADD PUSH2 0x773 SWAP1 PUSH2 0x1631 JUMP JUMPDEST PUSH1 0x40 MLOAD DUP1 SWAP2 SUB SWAP1 REVERT JUMPDEST PUSH2 0x785 DUP2 PUSH2 0xEC1 JUMP JUMPDEST POP JUMP JUMPDEST PUSH1 0x60 PUSH1 0x6 DUP1 SLOAD PUSH2 0x797 SWAP1 PUSH2 0x1499 JUMP JUMPDEST DUP1 PUSH1 0x1F ADD PUSH1 0x20 DUP1 SWAP2 DIV MUL PUSH1 0x20 ADD PUSH1 0x40 MLOAD SWAP1 DUP2 ADD PUSH1 0x40 MSTORE DUP1 SWAP3 SWAP2 SWAP1 DUP2 DUP2 MSTORE PUSH1 0x20 ADD DUP3 DUP1 SLOAD PUSH2 0x7C3 SWAP1 PUSH2 0x1499 JUMP JUMPDEST DUP1 ISZERO PUSH2 0x810 JUMPI DUP1 PUSH1 0x1F LT PUSH2 0x7E5 JUMPI PUSH2 0x100 DUP1 DUP4 SLOAD DIV MUL DUP4 MSTORE SWAP2 PUSH1 0x20 ADD SWAP2 PUSH2 0x810 JUMP JUMPDEST DUP3 ADD SWAP2 SWAP1 PUSH1 0x0 MSTORE PUSH1 0x20 PUSH1 0x0 KECCAK256 SWAP1 JUMPDEST DUP2 SLOAD DUP2 MSTORE SWAP1 PUSH1 0x1 ADD SWAP1 PUSH1 0x20 ADD DUP1 DUP4 GT PUSH2 0x7F3 JUMPI DUP3 SWAP1 SUB PUSH1 0x1F AND DUP3 ADD SWAP2 JUMPDEST POP POP POP POP POP SWAP1 POP SWAP1 JUMP JUMPDEST PUSH1 0x0 CALLER SWAP1 POP SWAP1 JUMP JUMPDEST PUSH1 0x0 PUSH20 0xFFFFFFFFFFFFFFFFFFFFFFFFFFFFFFFFFFFFFFFF AND DUP4 PUSH20 0xFFFFFFFFFFFFFFFFFFFFFFFFFFFFFFFFFFFFFFFF AND SUB PUSH2 0x891 JUMPI PUSH1 0x40 MLOAD PUSH32 0x8C379A000000000000000000000000000000000000000000000000000000000 DUP2 MSTORE PUSH1 0x4 ADD PUSH2 0x888 SWAP1 PUSH2 0x16C3 JUMP JUMPDEST PUSH1 0x40 MLOAD DUP1 SWAP2 SUB SWAP1 REVERT JUMPDEST PUSH1 0x0 PUSH20 0xFFFFFFFFFFFFFFFFFFFFFFFFFFFFFFFFFFFFFFFF AND DUP3 PUSH20 0xFFFFFFFFFFFFFFFFFFFFFFFFFFFFFFFFFFFFFFFF AND SUB PUSH2 0x900 JUMPI PUSH1 0x40 MLOAD PUSH32 0x8C379A000000000000000000000000000000000000000000000000000000000 DUP2 MSTORE PUSH1 0x4 ADD PUSH2 0x8F7 SWAP1 PUSH2 0x1755 JUMP JUMPDEST PUSH1 0x40 MLOAD DUP1 SWAP2 SUB SWAP1 REVERT JUMPDEST DUP1 PUSH1 0x1 PUSH1 0x0 DUP6 PUSH20 0xFFFFFFFFFFFFFFFFFFFFFFFFFFFFFFFFFFFFFFFF AND PUSH20 0xFFFFFFFFFFFFFFFFFFFFFFFFFFFFFFFFFFFFFFFF AND DUP2 MSTORE PUSH1 0x20 ADD SWAP1 DUP2 MSTORE PUSH1 0x20 ADD PUSH1 0x0 KECCAK256 PUSH1 0x0 DUP5 PUSH20 0xFFFFFFFFFFFFFFFFFFFFFFFFFFFFFFFFFFFFFFFF AND PUSH20 0xFFFFFFFFFFFFFFFFFFFFFFFFFFFFFFFFFFFFFFFF AND DUP2 MSTORE PUSH1 0x20 ADD SWAP1 DUP2 MSTORE PUSH1 0x20 ADD PUSH1 0x0 KECCAK256 DUP2 SWAP1 SSTORE POP DUP2 PUSH20 0xFFFFFFFFFFFFFFFFFFFFFFFFFFFFFFFFFFFFFFFF AND DUP4 PUSH20 0xFFFFFFFFFFFFFFFFFFFFFFFFFFFFFFFFFFFFFFFF AND PUSH32 0x8C5BE1E5EBEC7D5BD14F71427D1E84F3DD0314C0F7B2291E5B200AC8C7C3B925 DUP4 PUSH1 0x40 MLOAD PUSH2 0x9DE SWAP2 SWAP1 PUSH2 0x132E JUMP JUMPDEST PUSH1 0x40 MLOAD DUP1 SWAP2 SUB SWAP1 LOG3 POP POP POP JUMP JUMPDEST PUSH1 0x0 PUSH2 0x9F7 DUP5 DUP5 PUSH2 0x67E JUMP JUMPDEST SWAP1 POP PUSH32 0xFFFFFFFFFFFFFFFFFFFFFFFFFFFFFFFFFFFFFFFFFFFFFFFFFFFFFFFFFFFFFFFF DUP2 EQ PUSH2 0xA71 JUMPI DUP2 DUP2 LT ISZERO PUSH2 0xA63 JUMPI PUSH1 0x40 MLOAD PUSH32 0x8C379A000000000000000000000000000000000000000000000000000000000 DUP2 MSTORE PUSH1 0x4 ADD PUSH2 0xA5A SWAP1 PUSH2 0x17C1 JUMP JUMPDEST PUSH1 0x40 MLOAD DUP1 SWAP2 SUB SWAP1 REVERT JUMPDEST PUSH2 0xA70 DUP5 DUP5 DUP5 DUP5 SUB PUSH2 0x822 JUMP JUMPDEST JUMPDEST POP POP POP POP JUMP JUMPDEST PUSH1 0x0 PUSH20 0xFFFFFFFFFFFFFFFFFFFFFFFFFFFFFFFFFFFFFFFF AND DUP4 PUSH20 0xFFFFFFFFFFFFFFFFFFFFFFFFFFFFFFFFFFFFFFFF AND SUB PUSH2 0xAE6 JUMPI PUSH1 0x40 MLOAD PUSH32 0x8C379A000000000000000000000000000000000000000000000000000000000 DUP2 MSTORE PUSH1 0x4 ADD PUSH2 0xADD SWAP1 PUSH2 0x1853 JUMP JUMPDEST PUSH1 0x40 MLOAD DUP1 SWAP2 SUB SWAP1 REVERT JUMPDEST PUSH1 0x0 PUSH20 0xFFFFFFFFFFFFFFFFFFFFFFFFFFFFFFFFFFFFFFFF AND DUP3 PUSH20 0xFFFFFFFFFFFFFFFFFFFFFFFFFFFFFFFFFFFFFFFF AND SUB PUSH2 0xB55 JUMPI PUSH1 0x40 MLOAD PUSH32 0x8C379A000000000000000000000000000000000000000000000000000000000 DUP2 MSTORE PUSH1 0x4 ADD PUSH2 0xB4C SWAP1 PUSH2 0x18E5 JUMP JUMPDEST PUSH1 0x40 MLOAD DUP1 SWAP2 SUB SWAP1 REVERT JUMPDEST PUSH2 0xB60 DUP4 DUP4 DUP4 PUSH2 0x1154 JUMP JUMPDEST PUSH1 0x0 DUP1 PUSH1 0x0 DUP6 PUSH20 0xFFFFFFFFFFFFFFFFFFFFFFFFFFFFFFFFFFFFFFFF AND PUSH20 0xFFFFFFFFFFFFFFFFFFFFFFFFFFFFFFFFFFFFFFFF AND DUP2 MSTORE PUSH1 0x20 ADD SWAP1 DUP2 MSTORE PUSH1 0x20 ADD PUSH1 0x0 KECCAK256 SLOAD SWAP1 POP DUP2 DUP2 LT ISZERO PUSH2 0xBE6 JUMPI PUSH1 0x40 MLOAD PUSH32 0x8C379A000000000000000000000000000000000000000000000000000000000 DUP2 MSTORE PUSH1 0x4 ADD PUSH2 0xBDD SWAP1 PUSH2 0x1977 JUMP JUMPDEST PUSH1 0x40 MLOAD DUP1 SWAP2 SUB SWAP1 REVERT JUMPDEST DUP2 DUP2 SUB PUSH1 0x0 DUP1 DUP7 PUSH20 0xFFFFFFFFFFFFFFFFFFFFFFFFFFFFFFFFFFFFFFFF AND PUSH20 0xFFFFFFFFFFFFFFFFFFFFFFFFFFFFFFFFFFFFFFFF AND DUP2 MSTORE PUSH1 0x20 ADD SWAP1 DUP2 MSTORE PUSH1 0x20 ADD PUSH1 0x0 KECCAK256 DUP2 SWAP1 SSTORE POP DUP2 PUSH1 0x0 DUP1 DUP6 PUSH20 0xFFFFFFFFFFFFFFFFFFFFFFFFFFFFFFFFFFFFFFFF AND PUSH20 0xFFFFFFFFFFFFFFFFFFFFFFFFFFFFFFFFFFFFFFFF AND DUP2 MSTORE PUSH1 0x20 ADD SWAP1 DUP2 MSTORE PUSH1 0x20 ADD PUSH1 0x0 KECCAK256 PUSH1 0x0 DUP3 DUP3 SLOAD ADD SWAP3 POP POP DUP2 SWAP1 SSTORE POP DUP3 PUSH20 0xFFFFFFFFFFFFFFFFFFFFFFFFFFFFFFFFFFFFFFFF AND DUP5 PUSH20 0xFFFFFFFFFFFFFFFFFFFFFFFFFFFFFFFFFFFFFFFF AND PUSH32 0xDDF252AD1BE2C89B69C2B068FC378DAA952BA7F163C4A11628F55A4DF523B3EF DUP5 PUSH1 0x40 MLOAD PUSH2 0xCD4 SWAP2 SWAP1 PUSH2 0x132E JUMP JUMPDEST PUSH1 0x40 MLOAD DUP1 SWAP2 SUB SWAP1 LOG3 PUSH2 0xCE7 DUP5 DUP5 DUP5 PUSH2 0x1159 JUMP JUMPDEST POP POP POP POP JUMP JUMPDEST PUSH2 0xCF5 PUSH2 0x81A JUMP JUMPDEST PUSH20 0xFFFFFFFFFFFFFFFFFFFFFFFFFFFFFFFFFFFFFFFF AND PUSH2 0xD13 PUSH2 0x512 JUMP JUMPDEST PUSH20 0xFFFFFFFFFFFFFFFFFFFFFFFFFFFFFFFFFFFFFFFF AND EQ PUSH2 0xD69 JUMPI PUSH1 0x40 MLOAD PUSH32 0x8C379A000000000000000000000000000000000000000000000000000000000 DUP2 MSTORE PUSH1 0x4 ADD PUSH2 0xD60 SWAP1 PUSH2 0x19E3 JUMP JUMPDEST PUSH1 0x40 MLOAD DUP1 SWAP2 SUB SWAP1 REVERT JUMPDEST JUMP JUMPDEST PUSH1 0x0 PUSH20 0xFFFFFFFFFFFFFFFFFFFFFFFFFFFFFFFFFFFFFFFF AND DUP3 PUSH20 0xFFFFFFFFFFFFFFFFFFFFFFFFFFFFFFFFFFFFFFFF AND SUB PUSH2 0xDDA JUMPI PUSH1 0x40 MLOAD PUSH32 0x8C379A000000000000000000000000000000000000000000000000000000000 DUP2 MSTORE PUSH1 0x4 ADD PUSH2 0xDD1 SWAP1 PUSH2 0x1A4F JUMP JUMPDEST PUSH1 0x40 MLOAD DUP1 SWAP2 SUB SWAP1 REVERT JUMPDEST PUSH2 0xDE6 PUSH1 0x0 DUP4 DUP4 PUSH2 0x1154 JUMP JUMPDEST DUP1 PUSH1 0x2 PUSH1 0x0 DUP3 DUP3 SLOAD PUSH2 0xDF8 SWAP2 SWAP1 PUSH2 0x14F9 JUMP JUMPDEST SWAP3 POP POP DUP2 SWAP1 SSTORE POP DUP1 PUSH1 0x0 DUP1 DUP5 PUSH20 0xFFFFFFFFFFFFFFFFFFFFFFFFFFFFFFFFFFFFFFFF AND PUSH20 0xFFFFFFFFFFFFFFFFFFFFFFFFFFFFFFFFFFFFFFFF AND DUP2 MSTORE PUSH1 0x20 ADD SWAP1 DUP2 MSTORE PUSH1 0x20 ADD PUSH1 0x0 KECCAK256 PUSH1 0x0 DUP3 DUP3 SLOAD ADD SWAP3 POP POP DUP2 SWAP1 SSTORE POP DUP2 PUSH20 0xFFFFFFFFFFFFFFFFFFFFFFFFFFFFFFFFFFFFFFFF AND PUSH1 0x0 PUSH20 0xFFFFFFFFFFFFFFFFFFFFFFFFFFFFFFFFFFFFFFFF AND PUSH32 0xDDF252AD1BE2C89B69C2B068FC378DAA952BA7F163C4A11628F55A4DF523B3EF DUP4 PUSH1 0x40 MLOAD PUSH2 0xEA9 SWAP2 SWAP1 PUSH2 0x132E JUMP JUMPDEST PUSH1 0x40 MLOAD DUP1 SWAP2 SUB SWAP1 LOG3 PUSH2 0xEBD PUSH1 0x0 DUP4 DUP4 PUSH2 0x1159 JUMP JUMPDEST POP POP JUMP JUMPDEST PUSH1 0x0 PUSH1 0x5 PUSH1 0x0 SWAP1 SLOAD SWAP1 PUSH2 0x100 EXP SWAP1 DIV PUSH20 0xFFFFFFFFFFFFFFFFFFFFFFFFFFFFFFFFFFFFFFFF AND SWAP1 POP DUP2 PUSH1 0x5 PUSH1 0x0 PUSH2 0x100 EXP DUP2 SLOAD DUP2 PUSH20 0xFFFFFFFFFFFFFFFFFFFFFFFFFFFFFFFFFFFFFFFF MUL NOT AND SWAP1 DUP4 PUSH20 0xFFFFFFFFFFFFFFFFFFFFFFFFFFFFFFFFFFFFFFFF AND MUL OR SWAP1 SSTORE POP DUP2 PUSH20 0xFFFFFFFFFFFFFFFFFFFFFFFFFFFFFFFFFFFFFFFF AND DUP2 PUSH20 0xFFFFFFFFFFFFFFFFFFFFFFFFFFFFFFFFFFFFFFFF AND PUSH32 0x8BE0079C531659141344CD1FD0A4F28419497F9722A3DAAFE3B4186F6B6457E0 PUSH1 0x40 MLOAD PUSH1 0x40 MLOAD DUP1 SWAP2 SUB SWAP1 LOG3 POP POP JUMP JUMPDEST PUSH1 0x0 PUSH20 0xFFFFFFFFFFFFFFFFFFFFFFFFFFFFFFFFFFFFFFFF AND DUP3 PUSH20 0xFFFFFFFFFFFFFFFFFFFFFFFFFFFFFFFFFFFFFFFF AND SUB PUSH2 0xFF6 JUMPI PUSH1 0x40 MLOAD PUSH32 0x8C379A000000000000000000000000000000000000000000000000000000000 DUP2 MSTORE PUSH1 0x4 ADD PUSH2 0xFED SWAP1 PUSH2 0x1AE1 JUMP JUMPDEST PUSH1 0x40 MLOAD DUP1 SWAP2 SUB SWAP1 REVERT JUMPDEST PUSH2 0x1002 DUP3 PUSH1 0x0 DUP4 PUSH2 0x1154 JUMP JUMPDEST PUSH1 0x0 DUP1 PUSH1 0x0 DUP5 PUSH20 0xFFFFFFFFFFFFFFFFFFFFFFFFFFFFFFFFFFFFFFFF AND PUSH20 0xFFFFFFFFFFFFFFFFFFFFFFFFFFFFFFFFFFFFFFFF AND DUP2 MSTORE PUSH1 0x20 ADD SWAP1 DUP2 MSTORE PUSH1 0x20 ADD PUSH1 0x0 KECCAK256 SLOAD SWAP1 POP DUP2 DUP2 LT ISZERO PUSH2 0x1088 JUMPI PUSH1 0x40 MLOAD PUSH32 0x8C379A000000000000000000000000000000000000000000000000000000000 DUP2 MSTORE PUSH1 0x4 ADD PUSH2 0x107F SWAP1 PUSH2 0x1B73 JUMP JUMPDEST PUSH1 0x40 MLOAD DUP1 SWAP2 SUB SWAP1 REVERT JUMPDEST DUP2 DUP2 SUB PUSH1 0x0 DUP1 DUP6 PUSH20 0xFFFFFFFFFFFFFFFFFFFFFFFFFFFFFFFFFFFFFFFF AND PUSH20 0xFFFFFFFFFFFFFFFFFFFFFFFFFFFFFFFFFFFFFFFF AND DUP2 MSTORE PUSH1 0x20 ADD SWAP1 DUP2 MSTORE PUSH1 0x20 ADD PUSH1 0x0 KECCAK256 DUP2 SWAP1 SSTORE POP DUP2 PUSH1 0x2 PUSH1 0x0 DUP3 DUP3 SLOAD SUB SWAP3 POP POP DUP2 SWAP1 SSTORE POP PUSH1 0x0 PUSH20 0xFFFFFFFFFFFFFFFFFFFFFFFFFFFFFFFFFFFFFFFF AND DUP4 PUSH20 0xFFFFFFFFFFFFFFFFFFFFFFFFFFFFFFFFFFFFFFFF AND PUSH32 0xDDF252AD1BE2C89B69C2B068FC378DAA952BA7F163C4A11628F55A4DF523B3EF DUP5 PUSH1 0x40 MLOAD PUSH2 0x113B SWAP2 SWAP1 PUSH2 0x132E JUMP JUMPDEST PUSH1 0x40 MLOAD DUP1 SWAP2 SUB SWAP1 LOG3 PUSH2 0x114F DUP4 PUSH1 0x0 DUP5 PUSH2 0x1159 JUMP JUMPDEST POP POP POP JUMP JUMPDEST POP POP POP JUMP JUMPDEST POP POP POP JUMP JUMPDEST PUSH1 0x0 DUP2 MLOAD SWAP1 POP SWAP2 SWAP1 POP JUMP JUMPDEST PUSH1 0x0 DUP3 DUP3 MSTORE PUSH1 0x20 DUP3 ADD SWAP1 POP SWAP3 SWAP2 POP POP JUMP JUMPDEST PUSH1 0x0 JUMPDEST DUP4 DUP2 LT ISZERO PUSH2 0x1198 JUMPI DUP1 DUP3 ADD MLOAD DUP2 DUP5 ADD MSTORE PUSH1 0x20 DUP2 ADD SWAP1 POP PUSH2 0x117D JUMP JUMPDEST PUSH1 0x0 DUP5 DUP5 ADD MSTORE POP POP POP POP JUMP JUMPDEST PUSH1 0x0 PUSH1 0x1F NOT PUSH1 0x1F DUP4 ADD AND SWAP1 POP SWAP2 SWAP1 POP JUMP JUMPDEST PUSH1 0x0 PUSH2 0x11C0 DUP3 PUSH2 0x115E JUMP JUMPDEST PUSH2 0x11CA DUP2 DUP6 PUSH2 0x1169 JUMP JUMPDEST SWAP4 POP PUSH2 0x11DA DUP2 DUP6 PUSH1 0x20 DUP7 ADD PUSH2 0x117A JUMP JUMPDEST PUSH2 0x11E3 DUP2 PUSH2 0x11A4 JUMP JUMPDEST DUP5 ADD SWAP2 POP POP SWAP3 SWAP2 POP POP JUMP JUMPDEST PUSH1 0x0 PUSH1 0x20 DUP3 ADD SWAP1 POP DUP2 DUP2 SUB PUSH1 0x0 DUP4 ADD MSTORE PUSH2 0x1208 DUP2 DUP5 PUSH2 0x11B5 JUMP JUMPDEST SWAP1 POP SWAP3 SWAP2 POP POP JUMP JUMPDEST PUSH1 0x0 DUP1 REVERT JUMPDEST PUSH1 0x0 PUSH20 0xFFFFFFFFFFFFFFFFFFFFFFFFFFFFFFFFFFFFFFFF DUP3 AND SWAP1 POP SWAP2 SWAP1 POP JUMP JUMPDEST PUSH1 0x0 PUSH2 0x1240 DUP3 PUSH2 0x1215 JUMP JUMPDEST SWAP1 POP SWAP2 SWAP1 POP JUMP JUMPDEST PUSH2 0x1250 DUP2 PUSH2 0x1235 JUMP JUMPDEST DUP2 EQ PUSH2 0x125B JUMPI PUSH1 0x0 DUP1 REVERT JUMPDEST POP JUMP JUMPDEST PUSH1 0x0 DUP2 CALLDATALOAD SWAP1 POP PUSH2 0x126D DUP2 PUSH2 0x1247 JUMP JUMPDEST SWAP3 SWAP2 POP POP JUMP JUMPDEST PUSH1 0x0 DUP2 SWAP1 POP SWAP2 SWAP1 POP JUMP JUMPDEST PUSH2 0x1286 DUP2 PUSH2 0x1273 JUMP JUMPDEST DUP2 EQ PUSH2 0x1291 JUMPI PUSH1 0x0 DUP1 REVERT JUMPDEST POP JUMP JUMPDEST PUSH1 0x0 DUP2 CALLDATALOAD SWAP1 POP PUSH2 0x12A3 DUP2 PUSH2 0x127D JUMP JUMPDEST SWAP3 SWAP2 POP POP JUMP JUMPDEST PUSH1 0x0 DUP1 PUSH1 0x40 DUP4 DUP6 SUB SLT ISZERO PUSH2 0x12C0 JUMPI PUSH2 0x12BF PUSH2 0x1210 JUMP JUMPDEST JUMPDEST PUSH1 0x0 PUSH2 0x12CE DUP6 DUP3 DUP7 ADD PUSH2 0x125E JUMP JUMPDEST SWAP3 POP POP PUSH1 0x20 PUSH2 0x12DF DUP6 DUP3 DUP7 ADD PUSH2 0x1294 JUMP JUMPDEST SWAP2 POP POP SWAP3 POP SWAP3 SWAP1 POP JUMP JUMPDEST PUSH1 0x0 DUP2 ISZERO ISZERO SWAP1 POP SWAP2 SWAP1 POP JUMP JUMPDEST PUSH2 0x12FE DUP2 PUSH2 0x12E9 JUMP JUMPDEST DUP3 MSTORE POP POP JUMP JUMPDEST PUSH1 0x0 PUSH1 0x20 DUP3 ADD SWAP1 POP PUSH2 0x1319 PUSH1 0x0 DUP4 ADD DUP5 PUSH2 0x12F5 JUMP JUMPDEST SWAP3 SWAP2 POP POP JUMP JUMPDEST PUSH2 0x1328 DUP2 PUSH2 0x1273 JUMP JUMPDEST DUP3 MSTORE POP POP JUMP JUMPDEST PUSH1 0x0 PUSH1 0x20 DUP3 ADD SWAP1 POP PUSH2 0x1343 PUSH1 0x0 DUP4 ADD DUP5 PUSH2 0x131F JUMP JUMPDEST SWAP3 SWAP2 POP POP JUMP JUMPDEST PUSH1 0x0 DUP1 PUSH1 0x0 PUSH1 0x60 DUP5 DUP7 SUB SLT ISZERO PUSH2 0x1362 JUMPI PUSH2 0x1361 PUSH2 0x1210 JUMP JUMPDEST JUMPDEST PUSH1 0x0 PUSH2 0x1370 DUP7 DUP3 DUP8 ADD PUSH2 0x125E JUMP JUMPDEST SWAP4 POP POP PUSH1 0x20 PUSH2 0x1381 DUP7 DUP3 DUP8 ADD PUSH2 0x125E JUMP JUMPDEST SWAP3 POP POP PUSH1 0x40 PUSH2 0x1392 DUP7 DUP3 DUP8 ADD PUSH2 0x1294 JUMP JUMPDEST SWAP2 POP POP SWAP3 POP SWAP3 POP SWAP3 JUMP JUMPDEST PUSH1 0x0 PUSH1 0xFF DUP3 AND SWAP1 POP SWAP2 SWAP1 POP JUMP JUMPDEST PUSH2 0x13B2 DUP2 PUSH2 0x139C JUMP JUMPDEST DUP3 MSTORE POP POP JUMP JUMPDEST PUSH1 0x0 PUSH1 0x20 DUP3 ADD SWAP1 POP PUSH2 0x13CD PUSH1 0x0 DUP4 ADD DUP5 PUSH2 0x13A9 JUMP JUMPDEST SWAP3 SWAP2 POP POP JUMP JUMPDEST PUSH1 0x0 PUSH1 0x20 DUP3 DUP5 SUB SLT ISZERO PUSH2 0x13E9 JUMPI PUSH2 0x13E8 PUSH2 0x1210 JUMP JUMPDEST JUMPDEST PUSH1 0x0 PUSH2 0x13F7 DUP5 DUP3 DUP6 ADD PUSH2 0x125E JUMP JUMPDEST SWAP2 POP POP SWAP3 SWAP2 POP POP JUMP JUMPDEST PUSH2 0x1409 DUP2 PUSH2 0x1235 JUMP JUMPDEST DUP3 MSTORE POP POP JUMP JUMPDEST PUSH1 0x0 PUSH1 0x20 DUP3 ADD SWAP1 POP PUSH2 0x1424 PUSH1 0x0 DUP4 ADD DUP5 PUSH2 0x1400 JUMP JUMPDEST SWAP3 SWAP2 POP POP JUMP JUMPDEST PUSH1 0x0 DUP1 PUSH1 0x40 DUP4 DUP6 SUB SLT ISZERO PUSH2 0x1441 JUMPI PUSH2 0x1440 PUSH2 0x1210 JUMP JUMPDEST JUMPDEST PUSH1 0x0 PUSH2 0x144F DUP6 DUP3 DUP7 ADD PUSH2 0x125E JUMP JUMPDEST SWAP3 POP POP PUSH1 0x20 PUSH2 0x1460 DUP6 DUP3 DUP7 ADD PUSH2 0x125E JUMP JUMPDEST SWAP2 POP POP SWAP3 POP SWAP3 SWAP1 POP JUMP JUMPDEST PUSH32 0x4E487B7100000000000000000000000000000000000000000000000000000000 PUSH1 0x0 MSTORE PUSH1 0x22 PUSH1 0x4 MSTORE PUSH1 0x24 PUSH1 0x0 REVERT JUMPDEST PUSH1 0x0 PUSH1 0x2 DUP3 DIV SWAP1 POP PUSH1 0x1 DUP3 AND DUP1 PUSH2 0x14B1 JUMPI PUSH1 0x7F DUP3 AND SWAP2 POP JUMPDEST PUSH1 0x20 DUP3 LT DUP2 SUB PUSH2 0x14C4 JUMPI PUSH2 0x14C3 PUSH2 0x146A JUMP JUMPDEST JUMPDEST POP SWAP2 SWAP1 POP JUMP JUMPDEST PUSH32 0x4E487B7100000000000000000000000000000000000000000000000000000000 PUSH1 0x0 MSTORE PUSH1 0x11 PUSH1 0x4 MSTORE PUSH1 0x24 PUSH1 0x0 REVERT JUMPDEST PUSH1 0x0 PUSH2 0x1504 DUP3 PUSH2 0x1273 JUMP JUMPDEST SWAP2 POP PUSH2 0x150F DUP4 PUSH2 0x1273 JUMP JUMPDEST SWAP3 POP DUP3 DUP3 ADD SWAP1 POP DUP1 DUP3 GT ISZERO PUSH2 0x1527 JUMPI PUSH2 0x1526 PUSH2 0x14CA JUMP JUMPDEST JUMPDEST SWAP3 SWAP2 POP POP JUMP JUMPDEST PUSH32 0x45524332303A2064656372656173656420616C6C6F77616E63652062656C6F77 PUSH1 0x0 DUP3 ADD MSTORE PUSH32 0x207A65726F000000000000000000000000000000000000000000000000000000 PUSH1 0x20 DUP3 ADD MSTORE POP JUMP JUMPDEST PUSH1 0x0 PUSH2 0x1589 PUSH1 0x25 DUP4 PUSH2 0x1169 JUMP JUMPDEST SWAP2 POP PUSH2 0x1594 DUP3 PUSH2 0x152D JUMP JUMPDEST PUSH1 0x40 DUP3 ADD SWAP1 POP SWAP2 SWAP1 POP JUMP JUMPDEST PUSH1 0x0 PUSH1 0x20 DUP3 ADD SWAP1 POP DUP2 DUP2 SUB PUSH1 0x0 DUP4 ADD MSTORE PUSH2 0x15B8 DUP2 PUSH2 0x157C JUMP JUMPDEST SWAP1 POP SWAP2 SWAP1 POP JUMP JUMPDEST PUSH32 0x4F776E61626C653A206E6577206F776E657220697320746865207A65726F2061 PUSH1 0x0 DUP3 ADD MSTORE PUSH32 0x6464726573730000000000000000000000000000000000000000000000000000 PUSH1 0x20 DUP3 ADD MSTORE POP JUMP JUMPDEST PUSH1 0x0 PUSH2 0x161B PUSH1 0x26 DUP4 PUSH2 0x1169 JUMP JUMPDEST SWAP2 POP PUSH2 0x1626 DUP3 PUSH2 0x15BF JUMP JUMPDEST PUSH1 0x40 DUP3 ADD SWAP1 POP SWAP2 SWAP1 POP JUMP JUMPDEST PUSH1 0x0 PUSH1 0x20 DUP3 ADD SWAP1 POP DUP2 DUP2 SUB PUSH1 0x0 DUP4 ADD MSTORE PUSH2 0x164A DUP2 PUSH2 0x160E JUMP JUMPDEST SWAP1 POP SWAP2 SWAP1 POP JUMP JUMPDEST PUSH32 0x45524332303A20617070726F76652066726F6D20746865207A65726F20616464 PUSH1 0x0 DUP3 ADD MSTORE PUSH32 0x7265737300000000000000000000000000000000000000000000000000000000 PUSH1 0x20 DUP3 ADD MSTORE POP JUMP JUMPDEST PUSH1 0x0 PUSH2 0x16AD PUSH1 0x24 DUP4 PUSH2 0x1169 JUMP JUMPDEST SWAP2 POP PUSH2 0x16B8 DUP3 PUSH2 0x1651 JUMP JUMPDEST PUSH1 0x40 DUP3 ADD SWAP1 POP SWAP2 SWAP1 POP JUMP JUMPDEST PUSH1 0x0 PUSH1 0x20 DUP3 ADD SWAP1 POP DUP2 DUP2 SUB PUSH1 0x0 DUP4 ADD MSTORE PUSH2 0x16DC DUP2 PUSH2 0x16A0 JUMP JUMPDEST SWAP1 POP SWAP2 SWAP1 POP JUMP JUMPDEST PUSH32 0x45524332303A20617070726F766520746F20746865207A65726F206164647265 PUSH1 0x0 DUP3 ADD MSTORE PUSH32 0x7373000000000000000000000000000000000000000000000000000000000000 PUSH1 0x20 DUP3 ADD MSTORE POP JUMP JUMPDEST PUSH1 0x0 PUSH2 0x173F PUSH1 0x22 DUP4 PUSH2 0x1169 JUMP JUMPDEST SWAP2 POP PUSH2 0x174A DUP3 PUSH2 0x16E3 JUMP JUMPDEST PUSH1 0x40 DUP3 ADD SWAP1 POP SWAP2 SWAP1 POP JUMP JUMPDEST PUSH1 0x0 PUSH1 0x20 DUP3 ADD SWAP1 POP DUP2 DUP2 SUB PUSH1 0x0 DUP4 ADD MSTORE PUSH2 0x176E DUP2 PUSH2 0x1732 JUMP JUMPDEST SWAP1 POP SWAP2 SWAP1 POP JUMP JUMPDEST PUSH32 0x45524332303A20696E73756666696369656E7420616C6C6F77616E6365000000 PUSH1 0x0 DUP3 ADD MSTORE POP JUMP JUMPDEST PUSH1 0x0 PUSH2 0x17AB PUSH1 0x1D DUP4 PUSH2 0x1169 JUMP JUMPDEST SWAP2 POP PUSH2 0x17B6 DUP3 PUSH2 0x1775 JUMP JUMPDEST PUSH1 0x20 DUP3 ADD SWAP1 POP SWAP2 SWAP1 POP JUMP JUMPDEST PUSH1 0x0 PUSH1 0x20 DUP3 ADD SWAP1 POP DUP2 DUP2 SUB PUSH1 0x0 DUP4 ADD MSTORE PUSH2 0x17DA DUP2 PUSH2 0x179E JUMP JUMPDEST SWAP1 POP SWAP2 SWAP1 POP JUMP JUMPDEST PUSH32 0x45524332303A207472616E736665722066726F6D20746865207A65726F206164 PUSH1 0x0 DUP3 ADD MSTORE PUSH32 0x6472657373000000000000000000000000000000000000000000000000000000 PUSH1 0x20 DUP3 ADD MSTORE POP JUMP JUMPDEST PUSH1 0x0 PUSH2 0x183D PUSH1 0x25 DUP4 PUSH2 0x1169 JUMP JUMPDEST SWAP2 POP PUSH2 0x1848 DUP3 PUSH2 0x17E1 JUMP JUMPDEST PUSH1 0x40 DUP3 ADD SWAP1 POP SWAP2 SWAP1 POP JUMP JUMPDEST PUSH1 0x0 PUSH1 0x20 DUP3 ADD SWAP1 POP DUP2 DUP2 SUB PUSH1 0x0 DUP4 ADD MSTORE PUSH2 0x186C DUP2 PUSH2 0x1830 JUMP JUMPDEST SWAP1 POP SWAP2 SWAP1 POP JUMP JUMPDEST PUSH32 0x45524332303A207472616E7366657220746F20746865207A65726F2061646472 PUSH1 0x0 DUP3 ADD MSTORE PUSH32 0x6573730000000000000000000000000000000000000000000000000000000000 PUSH1 0x20 DUP3 ADD MSTORE POP JUMP JUMPDEST PUSH1 0x0 PUSH2 0x18CF PUSH1 0x23 DUP4 PUSH2 0x1169 JUMP JUMPDEST SWAP2 POP PUSH2 0x18DA DUP3 PUSH2 0x1873 JUMP JUMPDEST PUSH1 0x40 DUP3 ADD SWAP1 POP SWAP2 SWAP1 POP JUMP JUMPDEST PUSH1 0x0 PUSH1 0x20 DUP3 ADD SWAP1 POP DUP2 DUP2 SUB PUSH1 0x0 DUP4 ADD MSTORE PUSH2 0x18FE DUP2 PUSH2 0x18C2 JUMP JUMPDEST SWAP1 POP SWAP2 SWAP1 POP JUMP JUMPDEST PUSH32 0x45524332303A207472616E7366657220616D6F756E7420657863656564732062 PUSH1 0x0 DUP3 ADD MSTORE PUSH32 0x616C616E63650000000000000000000000000000000000000000000000000000 PUSH1 0x20 DUP3 ADD MSTORE POP JUMP JUMPDEST PUSH1 0x0 PUSH2 0x1961 PUSH1 0x26 DUP4 PUSH2 0x1169 JUMP JUMPDEST SWAP2 POP PUSH2 0x196C DUP3 PUSH2 0x1905 JUMP JUMPDEST PUSH1 0x40 DUP3 ADD SWAP1 POP SWAP2 SWAP1 POP JUMP JUMPDEST PUSH1 0x0 PUSH1 0x20 DUP3 ADD SWAP1 POP DUP2 DUP2 SUB PUSH1 0x0 DUP4 ADD MSTORE PUSH2 0x1990 DUP2 PUSH2 0x1954 JUMP JUMPDEST SWAP1 POP SWAP2 SWAP1 POP JUMP JUMPDEST PUSH32 0x4F776E61626C653A2063616C6C6572206973206E6F7420746865206F776E6572 PUSH1 0x0 DUP3 ADD MSTORE POP JUMP JUMPDEST PUSH1 0x0 PUSH2 0x19CD PUSH1 0x20 DUP4 PUSH2 0x1169 JUMP JUMPDEST SWAP2 POP PUSH2 0x19D8 DUP3 PUSH2 0x1997 JUMP JUMPDEST PUSH1 0x20 DUP3 ADD SWAP1 POP SWAP2 SWAP1 POP JUMP JUMPDEST PUSH1 0x0 PUSH1 0x20 DUP3 ADD SWAP1 POP DUP2 DUP2 SUB PUSH1 0x0 DUP4 ADD MSTORE PUSH2 0x19FC DUP2 PUSH2 0x19C0 JUMP JUMPDEST SWAP1 POP SWAP2 SWAP1 POP JUMP JUMPDEST PUSH32 0x45524332303A206D696E7420746F20746865207A65726F206164647265737300 PUSH1 0x0 DUP3 ADD MSTORE POP JUMP JUMPDEST PUSH1 0x0 PUSH2 0x1A39 PUSH1 0x1F DUP4 PUSH2 0x1169 JUMP JUMPDEST SWAP2 POP PUSH2 0x1A44 DUP3 PUSH2 0x1A03 JUMP JUMPDEST PUSH1 0x20 DUP3 ADD SWAP1 POP SWAP2 SWAP1 POP JUMP JUMPDEST PUSH1 0x0 PUSH1 0x20 DUP3 ADD SWAP1 POP DUP2 DUP2 SUB PUSH1 0x0 DUP4 ADD MSTORE PUSH2 0x1A68 DUP2 PUSH2 0x1A2C JUMP JUMPDEST SWAP1 POP SWAP2 SWAP1 POP JUMP JUMPDEST PUSH32 0x45524332303A206275726E2066726F6D20746865207A65726F20616464726573 PUSH1 0x0 DUP3 ADD MSTORE PUSH32 0x7300000000000000000000000000000000000000000000000000000000000000 PUSH1 0x20 DUP3 ADD MSTORE POP JUMP JUMPDEST PUSH1 0x0 PUSH2 0x1ACB PUSH1 0x21 DUP4 PUSH2 0x1169 JUMP JUMPDEST SWAP2 POP PUSH2 0x1AD6 DUP3 PUSH2 0x1A6F JUMP JUMPDEST PUSH1 0x40 DUP3 ADD SWAP1 POP SWAP2 SWAP1 POP JUMP JUMPDEST PUSH1 0x0 PUSH1 0x20 DUP3 ADD SWAP1 POP DUP2 DUP2 SUB PUSH1 0x0 DUP4 ADD MSTORE PUSH2 0x1AFA DUP2 PUSH2 0x1ABE JUMP JUMPDEST SWAP1 POP SWAP2 SWAP1 POP JUMP JUMPDEST PUSH32 0x45524332303A206275726E20616D6F756E7420657863656564732062616C616E PUSH1 0x0 DUP3 ADD MSTORE PUSH32 0x6365000000000000000000000000000000000000000000000000000000000000 PUSH1 0x20 DUP3 ADD MSTORE POP JUMP JUMPDEST PUSH1 0x0 PUSH2 0x1B5D PUSH1 0x22 DUP4 PUSH2 0x1169 JUMP JUMPDEST SWAP2 POP PUSH2 0x1B68 DUP3 PUSH2 0x1B01 JUMP JUMPDEST PUSH1 0x40 DUP3 ADD SWAP1 POP SWAP2 SWAP1 POP JUMP JUMPDEST PUSH1 0x0 PUSH1 0x20 DUP3 ADD SWAP1 POP DUP2 DUP2 SUB PUSH1 0x0 DUP4 ADD MSTORE PUSH2 0x1B8C DUP2 PUSH2 0x1B50 JUMP JUMPDEST SWAP1 POP SWAP2 SWAP1 POP JUMP INVALID LOG2 PUSH5 0x6970667358 0x22 SLT KECCAK256 0xC5 0xC0 0xC9 SWAP7 MULMOD 0xE4 CREATE 0x26 0xD9 BALANCE 0xEE CODESIZE 0xA7 0xC1 SWAP7 PUSH7 0x90547C2F606CA4 OR 0xBC 0xB8 EXTCODESIZE 0x21 PUSH3 0x62806D PUSH5 0x736F6C6343 STOP ADDMOD SLT STOP CALLER "
		},
		"gasEstimates": {
			"creation": {
				"codeDepositCost": "1422600",
				"executionCost": "infinite",
				"totalCost": "infinite"
			},
			"external": {
				"allowance(address,address)": "infinite",
				"approve(address,uint256)": "infinite",
				"balanceOf(address)": "2930",
				"burn(address,uint256)": "infinite",
				"decimals()": "366",
				"decreaseAllowance(address,uint256)": "infinite",
				"getFlag()": "infinite",
				"increaseAllowance(address,uint256)": "infinite",
				"mint(address,uint256)": "infinite",
				"name()": "infinite",
				"owner()": "2567",
				"renounceOwnership()": "30421",
				"symbol()": "infinite",
				"totalSupply()": "2505",
				"transfer(address,uint256)": "infinite",
				"transferFrom(address,address,uint256)": "infinite",
				"transferOwnership(address)": "30832"
			}
		},
		"methodIdentifiers": {
			"allowance(address,address)": "dd62ed3e",
			"approve(address,uint256)": "095ea7b3",
			"balanceOf(address)": "70a08231",
			"burn(address,uint256)": "9dc29fac",
			"decimals()": "313ce567",
			"decreaseAllowance(address,uint256)": "a457c2d7",
			"getFlag()": "f9633930",
			"increaseAllowance(address,uint256)": "39509351",
			"mint(address,uint256)": "40c10f19",
			"name()": "06fdde03",
			"owner()": "8da5cb5b",
			"renounceOwnership()": "715018a6",
			"symbol()": "95d89b41",
			"totalSupply()": "18160ddd",
			"transfer(address,uint256)": "a9059cbb",
			"transferFrom(address,address,uint256)": "23b872dd",
			"transferOwnership(address)": "f2fde38b"
		}
	},
	"abi": [
		{
			"inputs": [
				{
					"internalType": "string",
					"name": "_name",
					"type": "string"
				},
				{
					"internalType": "string",
					"name": "_symbol",
					"type": "string"
				},
				{
					"internalType": "string",
					"name": "_flag",
					"type": "string"
				}
			],
			"stateMutability": "nonpayable",
			"type": "constructor"
		},
		{
			"anonymous": false,
			"inputs": [
				{
					"indexed": true,
					"internalType": "address",
					"name": "owner",
					"type": "address"
				},
				{
					"indexed": true,
					"internalType": "address",
					"name": "spender",
					"type": "address"
				},
				{
					"indexed": false,
					"internalType": "uint256",
					"name": "value",
					"type": "uint256"
				}
			],
			"name": "Approval",
			"type": "event"
		},
		{
			"anonymous": false,
			"inputs": [
				{
					"indexed": true,
					"internalType": "address",
					"name": "previousOwner",
					"type": "address"
				},
				{
					"indexed": true,
					"internalType": "address",
					"name": "newOwner",
					"type": "address"
				}
			],
			"name": "OwnershipTransferred",
			"type": "event"
		},
		{
			"anonymous": false,
			"inputs": [
				{
					"indexed": true,
					"internalType": "address",
					"name": "from",
					"type": "address"
				},
				{
					"indexed": true,
					"internalType": "address",
					"name": "to",
					"type": "address"
				},
				{
					"indexed": false,
					"internalType": "uint256",
					"name": "value",
					"type": "uint256"
				}
			],
			"name": "Transfer",
			"type": "event"
		},
		{
			"inputs": [
				{
					"internalType": "address",
					"name": "owner",
					"type": "address"
				},
				{
					"internalType": "address",
					"name": "spender",
					"type": "address"
				}
			],
			"name": "allowance",
			"outputs": [
				{
					"internalType": "uint256",
					"name": "",
					"type": "uint256"
				}
			],
			"stateMutability": "view",
			"type": "function"
		},
		{
			"inputs": [
				{
					"internalType": "address",
					"name": "spender",
					"type": "address"
				},
				{
					"internalType": "uint256",
					"name": "amount",
					"type": "uint256"
				}
			],
			"name": "approve",
			"outputs": [
				{
					"internalType": "bool",
					"name": "",
					"type": "bool"
				}
			],
			"stateMutability": "nonpayable",
			"type": "function"
		},
		{
			"inputs": [
				{
					"internalType": "address",
					"name": "account",
					"type": "address"
				}
			],
			"name": "balanceOf",
			"outputs": [
				{
					"internalType": "uint256",
					"name": "",
					"type": "uint256"
				}
			],
			"stateMutability": "view",
			"type": "function"
		},
		{
			"inputs": [
				{
					"internalType": "address",
					"name": "account",
					"type": "address"
				},
				{
					"internalType": "uint256",
					"name": "amount",
					"type": "uint256"
				}
			],
			"name": "burn",
			"outputs": [],
			"stateMutability": "nonpayable",
			"type": "function"
		},
		{
			"inputs": [],
			"name": "decimals",
			"outputs": [
				{
					"internalType": "uint8",
					"name": "",
					"type": "uint8"
				}
			],
			"stateMutability": "view",
			"type": "function"
		},
		{
			"inputs": [
				{
					"internalType": "address",
					"name": "spender",
					"type": "address"
				},
				{
					"internalType": "uint256",
					"name": "subtractedValue",
					"type": "uint256"
				}
			],
			"name": "decreaseAllowance",
			"outputs": [
				{
					"internalType": "bool",
					"name": "",
					"type": "bool"
				}
			],
			"stateMutability": "nonpayable",
			"type": "function"
		},
		{
			"inputs": [],
			"name": "getFlag",
			"outputs": [
				{
					"internalType": "string",
					"name": "",
					"type": "string"
				}
			],
			"stateMutability": "view",
			"type": "function"
		},
		{
			"inputs": [
				{
					"internalType": "address",
					"name": "spender",
					"type": "address"
				},
				{
					"internalType": "uint256",
					"name": "addedValue",
					"type": "uint256"
				}
			],
			"name": "increaseAllowance",
			"outputs": [
				{
					"internalType": "bool",
					"name": "",
					"type": "bool"
				}
			],
			"stateMutability": "nonpayable",
			"type": "function"
		},
		{
			"inputs": [
				{
					"internalType": "address",
					"name": "account",
					"type": "address"
				},
				{
					"internalType": "uint256",
					"name": "amount",
					"type": "uint256"
				}
			],
			"name": "mint",
			"outputs": [],
			"stateMutability": "nonpayable",
			"type": "function"
		},
		{
			"inputs": [],
			"name": "name",
			"outputs": [
				{
					"internalType": "string",
					"name": "",
					"type": "string"
				}
			],
			"stateMutability": "view",
			"type": "function"
		},
		{
			"inputs": [],
			"name": "owner",
			"outputs": [
				{
					"internalType": "address",
					"name": "",
					"type": "address"
				}
			],
			"stateMutability": "view",
			"type": "function"
		},
		{
			"inputs": [],
			"name": "renounceOwnership",
			"outputs": [],
			"stateMutability": "nonpayable",
			"type": "function"
		},
		{
			"inputs": [],
			"name": "symbol",
			"outputs": [
				{
					"internalType": "string",
					"name": "",
					"type": "string"
				}
			],
			"stateMutability": "view",
			"type": "function"
		},
		{
			"inputs": [],
			"name": "totalSupply",
			"outputs": [
				{
					"internalType": "uint256",
					"name": "",
					"type": "uint256"
				}
			],
			"stateMutability": "view",
			"type": "function"
		},
		{
			"inputs": [
				{
					"internalType": "address",
					"name": "to",
					"type": "address"
				},
				{
					"internalType": "uint256",
					"name": "amount",
					"type": "uint256"
				}
			],
			"name": "transfer",
			"outputs": [
				{
					"internalType": "bool",
					"name": "",
					"type": "bool"
				}
			],
			"stateMutability": "nonpayable",
			"type": "function"
		},
		{
			"inputs": [
				{
					"internalType": "address",
					"name": "from",
					"type": "address"
				},
				{
					"internalType": "address",
					"name": "to",
					"type": "address"
				},
				{
					"internalType": "uint256",
					"name": "amount",
					"type": "uint256"
				}
			],
			"name": "transferFrom",
			"outputs": [
				{
					"internalType": "bool",
					"name": "",
					"type": "bool"
				}
			],
			"stateMutability": "nonpayable",
			"type": "function"
		},
		{
			"inputs": [
				{
					"internalType": "address",
					"name": "newOwner",
					"type": "address"
				}
			],
			"name": "transferOwnership",
			"outputs": [],
			"stateMutability": "nonpayable",
			"type": "function"
		}
	]
}